{
  "_format": "hh-sol-artifact-1",
  "contractName": "VLFI",
  "sourceName": "contracts/DaoStakingPool/VLFI.sol",
  "abi": [
    {
      "inputs": [
        {
          "internalType": "string",
          "name": "name",
          "type": "string"
        },
        {
          "internalType": "string",
          "name": "symbol",
          "type": "string"
        },
        {
          "internalType": "uint8",
          "name": "decimals",
          "type": "uint8"
        },
        {
          "internalType": "contract IERC20",
          "name": "stakedToken",
          "type": "address"
        },
        {
          "internalType": "uint256",
          "name": "cooldownSeconds",
          "type": "uint256"
        },
        {
          "internalType": "uint256",
          "name": "unstakeWindow",
          "type": "uint256"
        }
      ],
      "stateMutability": "nonpayable",
      "type": "constructor"
    },
    {
      "anonymous": false,
      "inputs": [
        {
          "indexed": true,
          "internalType": "address",
          "name": "owner",
          "type": "address"
        },
        {
          "indexed": true,
          "internalType": "address",
          "name": "spender",
          "type": "address"
        },
        {
          "indexed": false,
          "internalType": "uint256",
          "name": "value",
          "type": "uint256"
        }
      ],
      "name": "Approval",
      "type": "event"
    },
    {
      "anonymous": false,
      "inputs": [
        {
          "indexed": true,
          "internalType": "address",
          "name": "from",
          "type": "address"
        },
        {
          "indexed": true,
          "internalType": "address",
          "name": "to",
          "type": "address"
        },
        {
          "indexed": false,
          "internalType": "uint256",
          "name": "value",
          "type": "uint256"
        }
      ],
      "name": "Transfer",
      "type": "event"
    },
    {
      "inputs": [],
      "name": "COOLDOWN_SECONDS",
      "outputs": [
        {
          "internalType": "uint256",
          "name": "",
          "type": "uint256"
        }
      ],
      "stateMutability": "view",
      "type": "function"
    },
    {
      "inputs": [],
      "name": "STAKED_TOKEN",
      "outputs": [
        {
          "internalType": "contract IERC20",
          "name": "",
          "type": "address"
        }
      ],
      "stateMutability": "view",
      "type": "function"
    },
    {
      "inputs": [],
      "name": "UNSTAKE_WINDOW",
      "outputs": [
        {
          "internalType": "uint256",
          "name": "",
          "type": "uint256"
        }
      ],
      "stateMutability": "view",
      "type": "function"
    },
    {
      "inputs": [
        {
          "internalType": "address",
          "name": "owner",
          "type": "address"
        },
        {
          "internalType": "address",
          "name": "spender",
          "type": "address"
        }
      ],
      "name": "allowance",
      "outputs": [
        {
          "internalType": "uint256",
          "name": "",
          "type": "uint256"
        }
      ],
      "stateMutability": "view",
      "type": "function"
    },
    {
      "inputs": [
        {
          "internalType": "address",
          "name": "spender",
          "type": "address"
        },
        {
          "internalType": "uint256",
          "name": "amount",
          "type": "uint256"
        }
      ],
      "name": "approve",
      "outputs": [
        {
          "internalType": "bool",
          "name": "",
          "type": "bool"
        }
      ],
      "stateMutability": "nonpayable",
      "type": "function"
    },
    {
      "inputs": [
        {
          "internalType": "address",
          "name": "account",
          "type": "address"
        }
      ],
      "name": "balanceOf",
      "outputs": [
        {
          "internalType": "uint256",
          "name": "",
          "type": "uint256"
        }
      ],
      "stateMutability": "view",
      "type": "function"
    },
    {
      "inputs": [],
      "name": "claimRewards",
      "outputs": [],
      "stateMutability": "nonpayable",
      "type": "function"
    },
    {
      "inputs": [],
      "name": "cooldown",
      "outputs": [],
      "stateMutability": "nonpayable",
      "type": "function"
    },
    {
      "inputs": [],
      "name": "createFarm",
      "outputs": [],
      "stateMutability": "nonpayable",
      "type": "function"
    },
    {
      "inputs": [],
      "name": "decimals",
      "outputs": [
        {
          "internalType": "uint8",
          "name": "",
          "type": "uint8"
        }
      ],
      "stateMutability": "view",
      "type": "function"
    },
    {
      "inputs": [
        {
          "internalType": "address",
          "name": "spender",
          "type": "address"
        },
        {
          "internalType": "uint256",
          "name": "subtractedValue",
          "type": "uint256"
        }
      ],
      "name": "decreaseAllowance",
      "outputs": [
        {
          "internalType": "bool",
          "name": "",
          "type": "bool"
        }
      ],
      "stateMutability": "nonpayable",
      "type": "function"
    },
    {
      "inputs": [
        {
          "internalType": "uint256",
          "name": "amount",
          "type": "uint256"
        }
      ],
      "name": "depositLFI",
      "outputs": [],
      "stateMutability": "nonpayable",
      "type": "function"
    },
    {
      "inputs": [],
      "name": "farmInfo",
      "outputs": [
        {
          "internalType": "uint256",
          "name": "accRewardsPerShare",
          "type": "uint256"
        },
        {
          "internalType": "uint256",
          "name": "lastRewardTime",
          "type": "uint256"
        }
      ],
      "stateMutability": "view",
      "type": "function"
    },
    {
      "inputs": [
        {
          "internalType": "uint256",
          "name": "userCooldownTimestamp",
          "type": "uint256"
        },
        {
          "internalType": "uint256",
          "name": "amountToReceive",
          "type": "uint256"
        },
        {
          "internalType": "address",
          "name": "toAddress",
          "type": "address"
        },
        {
          "internalType": "uint256",
          "name": "toBalance",
          "type": "uint256"
        }
      ],
      "name": "getNextCooldownTimestamp",
      "outputs": [
        {
          "internalType": "uint256",
          "name": "",
          "type": "uint256"
        }
      ],
      "stateMutability": "view",
      "type": "function"
    },
    {
      "inputs": [
        {
          "internalType": "address",
          "name": "spender",
          "type": "address"
        },
        {
          "internalType": "uint256",
          "name": "addedValue",
          "type": "uint256"
        }
      ],
      "name": "increaseAllowance",
      "outputs": [
        {
          "internalType": "bool",
          "name": "",
          "type": "bool"
        }
      ],
      "stateMutability": "nonpayable",
      "type": "function"
    },
    {
      "inputs": [],
      "name": "name",
      "outputs": [
        {
          "internalType": "string",
          "name": "",
          "type": "string"
        }
      ],
      "stateMutability": "view",
      "type": "function"
    },
    {
      "inputs": [
        {
          "internalType": "uint256",
          "name": "amount",
          "type": "uint256"
        }
      ],
      "name": "redeemLFI",
      "outputs": [],
      "stateMutability": "nonpayable",
      "type": "function"
    },
    {
      "inputs": [],
      "name": "rewardPerSecond",
      "outputs": [
        {
          "internalType": "uint256",
          "name": "",
          "type": "uint256"
        }
      ],
      "stateMutability": "view",
      "type": "function"
    },
    {
      "inputs": [
        {
          "internalType": "uint256",
          "name": "_rewardPerSecond",
          "type": "uint256"
        }
      ],
      "name": "setRewardPerSecond",
      "outputs": [],
      "stateMutability": "nonpayable",
      "type": "function"
    },
    {
      "inputs": [
        {
          "internalType": "address",
          "name": "",
          "type": "address"
        }
      ],
      "name": "stakerRewardsToClaim",
      "outputs": [
        {
          "internalType": "uint256",
          "name": "",
          "type": "uint256"
        }
      ],
      "stateMutability": "view",
      "type": "function"
    },
    {
      "inputs": [
        {
          "internalType": "address",
          "name": "",
          "type": "address"
        }
      ],
      "name": "stakersCooldowns",
      "outputs": [
        {
          "internalType": "uint256",
          "name": "",
          "type": "uint256"
        }
      ],
      "stateMutability": "view",
      "type": "function"
    },
    {
      "inputs": [],
      "name": "symbol",
      "outputs": [
        {
          "internalType": "string",
          "name": "",
          "type": "string"
        }
      ],
      "stateMutability": "view",
      "type": "function"
    },
    {
      "inputs": [],
      "name": "totalSupply",
      "outputs": [
        {
          "internalType": "uint256",
          "name": "",
          "type": "uint256"
        }
      ],
      "stateMutability": "view",
      "type": "function"
    },
    {
      "inputs": [
        {
          "internalType": "address",
          "name": "recipient",
          "type": "address"
        },
        {
          "internalType": "uint256",
          "name": "amount",
          "type": "uint256"
        }
      ],
      "name": "transfer",
      "outputs": [
        {
          "internalType": "bool",
          "name": "",
          "type": "bool"
        }
      ],
      "stateMutability": "nonpayable",
      "type": "function"
    },
    {
      "inputs": [
        {
          "internalType": "address",
          "name": "sender",
          "type": "address"
        },
        {
          "internalType": "address",
          "name": "recipient",
          "type": "address"
        },
        {
          "internalType": "uint256",
          "name": "amount",
          "type": "uint256"
        }
      ],
      "name": "transferFrom",
      "outputs": [
        {
          "internalType": "bool",
          "name": "",
          "type": "bool"
        }
      ],
      "stateMutability": "nonpayable",
      "type": "function"
    },
    {
      "inputs": [
        {
          "internalType": "address",
          "name": "user",
          "type": "address"
        }
      ],
      "name": "updateFarm",
      "outputs": [
        {
          "components": [
            {
              "internalType": "uint256",
              "name": "accRewardsPerShare",
              "type": "uint256"
            },
            {
              "internalType": "uint256",
              "name": "lastRewardTime",
              "type": "uint256"
            }
          ],
          "internalType": "struct VLFI.FarmInfo",
          "name": "farm",
          "type": "tuple"
        }
      ],
      "stateMutability": "nonpayable",
      "type": "function"
    },
    {
      "inputs": [
        {
          "internalType": "address",
          "name": "",
          "type": "address"
        }
      ],
      "name": "userInfo",
      "outputs": [
        {
          "internalType": "uint256",
          "name": "amount",
          "type": "uint256"
        },
        {
          "internalType": "int256",
          "name": "rewardDebt",
          "type": "int256"
        }
      ],
      "stateMutability": "view",
      "type": "function"
    },
    {
      "inputs": [
        {
          "internalType": "address",
          "name": "",
          "type": "address"
        }
      ],
      "name": "userLFIDeposits",
      "outputs": [
        {
          "internalType": "uint256",
          "name": "",
          "type": "uint256"
        }
      ],
      "stateMutability": "view",
      "type": "function"
    }
  ],
  "bytecode": "0x60e06040526012600a62000014919062000339565b6103e86200002391906200038a565b600a553480156200003357600080fd5b506040516200364238038062003642833981810160405281019062000059919062000670565b858585826003908051906020019062000074929190620000fc565b5081600490805190602001906200008d929190620000fc565b5080600560006101000a81548160ff021916908360ff1602179055505050508273ffffffffffffffffffffffffffffffffffffffff1660808173ffffffffffffffffffffffffffffffffffffffff16815250508160a081815250508060c08181525050505050505050620007af565b8280546200010a9062000779565b90600052602060002090601f0160209004810192826200012e57600085556200017a565b82601f106200014957805160ff19168380011785556200017a565b828001600101855582156200017a579182015b82811115620001795782518255916020019190600101906200015c565b5b5090506200018991906200018d565b5090565b5b80821115620001a85760008160009055506001016200018e565b5090565b7f4e487b7100000000000000000000000000000000000000000000000000000000600052601160045260246000fd5b60008160011c9050919050565b6000808291508390505b60018511156200023a57808604811115620002125762000211620001ac565b5b6001851615620002225780820291505b80810290506200023285620001db565b9450620001f2565b94509492505050565b60008262000255576001905062000328565b8162000265576000905062000328565b81600181146200027e57600281146200028957620002bf565b600191505062000328565b60ff8411156200029e576200029d620001ac565b5b8360020a915084821115620002b857620002b7620001ac565b5b5062000328565b5060208310610133831016604e8410600b8410161715620002f95782820a905083811115620002f357620002f2620001ac565b5b62000328565b620003088484846001620001e8565b92509050818404811115620003225762000321620001ac565b5b81810290505b9392505050565b6000819050919050565b600062000346826200032f565b915062000353836200032f565b9250620003827fffffffffffffffffffffffffffffffffffffffffffffffffffffffffffffffff848462000243565b905092915050565b600062000397826200032f565b9150620003a4836200032f565b9250817fffffffffffffffffffffffffffffffffffffffffffffffffffffffffffffffff0483118215151615620003e057620003df620001ac565b5b828202905092915050565b6000604051905090565b600080fd5b600080fd5b600080fd5b600080fd5b6000601f19601f8301169050919050565b7f4e487b7100000000000000000000000000000000000000000000000000000000600052604160045260246000fd5b620004548262000409565b810181811067ffffffffffffffff821117156200047657620004756200041a565b5b80604052505050565b60006200048b620003eb565b905062000499828262000449565b919050565b600067ffffffffffffffff821115620004bc57620004bb6200041a565b5b620004c78262000409565b9050602081019050919050565b60005b83811015620004f4578082015181840152602081019050620004d7565b8381111562000504576000848401525b50505050565b6000620005216200051b846200049e565b6200047f565b90508281526020810184848401111562000540576200053f62000404565b5b6200054d848285620004d4565b509392505050565b600082601f8301126200056d576200056c620003ff565b5b81516200057f8482602086016200050a565b91505092915050565b600060ff82169050919050565b620005a08162000588565b8114620005ac57600080fd5b50565b600081519050620005c08162000595565b92915050565b600073ffffffffffffffffffffffffffffffffffffffff82169050919050565b6000620005f382620005c6565b9050919050565b60006200060782620005e6565b9050919050565b6200061981620005fa565b81146200062557600080fd5b50565b60008151905062000639816200060e565b92915050565b6200064a816200032f565b81146200065657600080fd5b50565b6000815190506200066a816200063f565b92915050565b60008060008060008060c0878903121562000690576200068f620003f5565b5b600087015167ffffffffffffffff811115620006b157620006b0620003fa565b5b620006bf89828a0162000555565b965050602087015167ffffffffffffffff811115620006e357620006e2620003fa565b5b620006f189828a0162000555565b95505060406200070489828a01620005af565b94505060606200071789828a0162000628565b93505060806200072a89828a0162000659565b92505060a06200073d89828a0162000659565b9150509295509295509295565b7f4e487b7100000000000000000000000000000000000000000000000000000000600052602260045260246000fd5b600060028204905060018216806200079257607f821691505b60208210811415620007a957620007a86200074a565b5b50919050565b60805160a05160c051612e2b620008176000396000818161080a01528181610e710152611203015260008181610c1601528181610e0401528181610e9201526112240152600081816107cf015281816108b301528181610b5f0152610fe90152612e2b6000f3fe608060405234801561001057600080fd5b50600436106101c45760003560e01c806366da5815116100f957806395d89b4111610097578063a9059cbb11610071578063a9059cbb146104fb578063dd62ed3e1461052b578063f1cc432a1461055b578063f53cdbcb1461058b576101c4565b806395d89b41146104915780639f1d2ffa146104af578063a457c2d7146104cb576101c4565b806372b49d63116100d357806372b49d631461041b578063787a08a6146104395780637e90d7ef146104435780638f10369a14610473576101c4565b806366da58151461039f5780636fbc92a2146103bb57806370a08231146103eb576101c4565b806323b872dd11610166578063359c4a9611610140578063359c4a961461032b578063372500ab1461034957806339509351146103535780634e253ad014610383576101c4565b806323b872dd146102bf578063312f6b83146102ef578063313ce5671461030d576101c4565b806318160ddd116101a257806318160ddd146102475780631959a002146102655780631d49d66c146102965780631d5ec3cb146102b5576101c4565b806306fdde03146101c9578063091030c3146101e7578063095ea7b314610217575b600080fd5b6101d16105bb565b6040516101de9190611f4e565b60405180910390f35b61020160048036038101906101fc9190611fd3565b61064d565b60405161020e9190612019565b60405180910390f35b610231600480360381019061022c9190612060565b610665565b60405161023e91906120bb565b60405180910390f35b61024f610683565b60405161025c9190612019565b60405180910390f35b61027f600480360381019061027a9190611fd3565b61068d565b60405161028d9291906120ef565b60405180910390f35b61029e6106b1565b6040516102ac929190612118565b60405180910390f35b6102bd6106c3565b005b6102d960048036038101906102d49190612141565b6106f4565b6040516102e691906120bb565b60405180910390f35b6102f76107cd565b60405161030491906121f3565b60405180910390f35b6103156107f1565b604051610322919061222a565b60405180910390f35b610333610808565b6040516103409190612019565b60405180910390f35b61035161082c565b005b61036d60048036038101906103689190612060565b610956565b60405161037a91906120bb565b60405180910390f35b61039d60048036038101906103989190612245565b610a09565b005b6103b960048036038101906103b49190612245565b610baa565b005b6103d560048036038101906103d09190611fd3565b610bb4565b6040516103e29190612019565b60405180910390f35b61040560048036038101906104009190611fd3565b610bcc565b6040516104129190612019565b60405180910390f35b610423610c14565b6040516104309190612019565b60405180910390f35b610441610c38565b005b61045d60048036038101906104589190611fd3565b610cca565b60405161046a9190612019565b60405180910390f35b61047b610ce2565b6040516104889190612019565b60405180910390f35b610499610ce8565b6040516104a69190611f4e565b60405180910390f35b6104c960048036038101906104c49190612245565b610d7a565b005b6104e560048036038101906104e09190612060565b611035565b6040516104f291906120bb565b60405180910390f35b61051560048036038101906105109190612060565b611102565b60405161052291906120bb565b60405180910390f35b61054560048036038101906105409190612272565b611120565b6040516105529190612019565b60405180910390f35b610575600480360381019061057091906122b2565b6111a7565b6040516105829190612019565b60405180910390f35b6105a560048036038101906105a09190611fd3565b6112db565b6040516105b29190612357565b60405180910390f35b6060600380546105ca906123a1565b80601f01602080910402602001604051908101604052809291908181526020018280546105f6906123a1565b80156106435780601f1061061857610100808354040283529160200191610643565b820191906000526020600020905b81548152906001019060200180831161062657829003601f168201915b5050505050905090565b600c6020528060005260406000206000915090505481565b60006106796106726113a0565b84846113a8565b6001905092915050565b6000600254905090565b60096020528060005260406000206000915090508060000154908060010154905082565b60068060000154908060010154905082565b6040518060400160405280600081526020014281525060066000820151816000015560208201518160010155905050565b6000610701848484611573565b6107c28461070d6113a0565b6107bd85604051806060016040528060288152602001612da960289139600160008b73ffffffffffffffffffffffffffffffffffffffff1673ffffffffffffffffffffffffffffffffffffffff16815260200190815260200160002060006107736113a0565b73ffffffffffffffffffffffffffffffffffffffff1673ffffffffffffffffffffffffffffffffffffffff168152602001908152602001600020546118089092919063ffffffff16565b6113a8565b600190509392505050565b7f000000000000000000000000000000000000000000000000000000000000000081565b6000600560009054906101000a900460ff16905090565b7f000000000000000000000000000000000000000000000000000000000000000081565b6000610837336112db565b90506000600960003373ffffffffffffffffffffffffffffffffffffffff1673ffffffffffffffffffffffffffffffffffffffff16815260200190815260200160002090506000826000015182600001546108929190612402565b905060008260010154826108a6919061245c565b90508183600101819055507f000000000000000000000000000000000000000000000000000000000000000073ffffffffffffffffffffffffffffffffffffffff1663a9059cbb33836040518363ffffffff1660e01b815260040161090c9291906124ff565b6020604051808303816000875af115801561092b573d6000803e3d6000fd5b505050506040513d601f19601f8201168201806040525081019061094f9190612554565b5050505050565b60006109ff6109636113a0565b846109fa85600160006109746113a0565b73ffffffffffffffffffffffffffffffffffffffff1673ffffffffffffffffffffffffffffffffffffffff16815260200190815260200160002060008973ffffffffffffffffffffffffffffffffffffffff1673ffffffffffffffffffffffffffffffffffffffff1681526020019081526020016000205461185d90919063ffffffff16565b6113a8565b6001905092915050565b6000811415610a4d576040517f08c379a0000000000000000000000000000000000000000000000000000000008152600401610a44906125cd565b60405180910390fd5b6000610a5833610bcc565b90506000610a65336112db565b90506000600960003373ffffffffffffffffffffffffffffffffffffffff1673ffffffffffffffffffffffffffffffffffffffff168152602001908152602001600020905082816000016000828254610abe91906125ed565b92505081905550816000015183610ad59190612402565b8160010181905550610aea60008533866111a7565b600c60003373ffffffffffffffffffffffffffffffffffffffff1673ffffffffffffffffffffffffffffffffffffffff16815260200190815260200160002081905550610b5733670de0b6b3a7640000600a5487610b489190612672565b610b529190612402565b611873565b610ba43330867f000000000000000000000000000000000000000000000000000000000000000073ffffffffffffffffffffffffffffffffffffffff16611a07909392919063ffffffff16565b50505050565b8060088190555050565b600d6020528060005260406000206000915090505481565b60008060008373ffffffffffffffffffffffffffffffffffffffff1673ffffffffffffffffffffffffffffffffffffffff168152602001908152602001600020549050919050565b7f000000000000000000000000000000000000000000000000000000000000000081565b6000610c4333610bcc565b1415610c84576040517f08c379a0000000000000000000000000000000000000000000000000000000008152600401610c7b906126ef565b60405180910390fd5b42600c60003373ffffffffffffffffffffffffffffffffffffffff1673ffffffffffffffffffffffffffffffffffffffff16815260200190815260200160002081905550565b600b6020528060005260406000206000915090505481565b60085481565b606060048054610cf7906123a1565b80601f0160208091040260200160405190810160405280929190818152602001828054610d23906123a1565b8015610d705780601f10610d4557610100808354040283529160200191610d70565b820191906000526020600020905b815481529060010190602001808311610d5357829003601f168201915b5050505050905090565b6000811415610dbe576040517f08c379a0000000000000000000000000000000000000000000000000000000008152600401610db5906125cd565b60405180910390fd5b6000600c60003373ffffffffffffffffffffffffffffffffffffffff1673ffffffffffffffffffffffffffffffffffffffff1681526020019081526020016000205490507f000000000000000000000000000000000000000000000000000000000000000081610e2e91906125ed565b4211610e6f576040517f08c379a0000000000000000000000000000000000000000000000000000000008152600401610e669061275b565b60405180910390fd5b7f00000000000000000000000000000000000000000000000000000000000000007f000000000000000000000000000000000000000000000000000000000000000082610ebc91906125ed565b42610ec7919061277b565b1115610f08576040517f08c379a0000000000000000000000000000000000000000000000000000000008152600401610eff906127fb565b60405180910390fd5b6000610f1333610bcc565b90506000818411610f245783610f26565b815b90506000610f33336112db565b90506000600960003373ffffffffffffffffffffffffffffffffffffffff1673ffffffffffffffffffffffffffffffffffffffff1681526020019081526020016000209050816000015184610f889190612402565b816001016000828254610f9b919061245c565b92505081905550600a5483610fb09190612672565b8160000181905550610fe233670de0b6b3a7640000600a5486610fd39190612672565b610fdd9190612402565b611a90565b61102d33847f000000000000000000000000000000000000000000000000000000000000000073ffffffffffffffffffffffffffffffffffffffff16611c3e9092919063ffffffff16565b505050505050565b60006110f86110426113a0565b846110f385604051806060016040528060258152602001612dd1602591396001600061106c6113a0565b73ffffffffffffffffffffffffffffffffffffffff1673ffffffffffffffffffffffffffffffffffffffff16815260200190815260200160002060008a73ffffffffffffffffffffffffffffffffffffffff1673ffffffffffffffffffffffffffffffffffffffff168152602001908152602001600020546118089092919063ffffffff16565b6113a8565b6001905092915050565b600061111661110f6113a0565b8484611573565b6001905092915050565b6000600160008473ffffffffffffffffffffffffffffffffffffffff1673ffffffffffffffffffffffffffffffffffffffff16815260200190815260200160002060008373ffffffffffffffffffffffffffffffffffffffff1673ffffffffffffffffffffffffffffffffffffffff16815260200190815260200160002054905092915050565b600080600c60008573ffffffffffffffffffffffffffffffffffffffff1673ffffffffffffffffffffffffffffffffffffffff16815260200190815260200160002054905060008114156111ff5760009150506112d3565b60007f00000000000000000000000000000000000000000000000000000000000000007f00000000000000000000000000000000000000000000000000000000000000004261124e919061277b565b611258919061277b565b90508181111561126b57600091506112cd565b600087821161127a578761127c565b425b905082811015611291578293505050506112d3565b848761129d91906125ed565b83866112a99190612402565b82896112b59190612402565b6112bf91906125ed565b6112c99190612672565b9250505b81925050505b949350505050565b6112e3611e9b565b6006604051806040016040529081600082015481526020016001820154815250509050428160200151101561139b57600061131d83610bcc565b9050600081111561137557600082602001514261133a919061277b565b905060006008548261134c9190612402565b9050828161135a9190612672565b8460000181815161136b91906125ed565b9150818152505050505b428260200181815250508160066000820151816000015560208201518160010155905050505b919050565b600033905090565b600073ffffffffffffffffffffffffffffffffffffffff168373ffffffffffffffffffffffffffffffffffffffff161415611418576040517f08c379a000000000000000000000000000000000000000000000000000000000815260040161140f9061288d565b60405180910390fd5b600073ffffffffffffffffffffffffffffffffffffffff168273ffffffffffffffffffffffffffffffffffffffff161415611488576040517f08c379a000000000000000000000000000000000000000000000000000000000815260040161147f9061291f565b60405180910390fd5b80600160008573ffffffffffffffffffffffffffffffffffffffff1673ffffffffffffffffffffffffffffffffffffffff16815260200190815260200160002060008473ffffffffffffffffffffffffffffffffffffffff1673ffffffffffffffffffffffffffffffffffffffff168152602001908152602001600020819055508173ffffffffffffffffffffffffffffffffffffffff168373ffffffffffffffffffffffffffffffffffffffff167f8c5be1e5ebec7d5bd14f71427d1e84f3dd0314c0f7b2291e5b200ac8c7c3b925836040516115669190612019565b60405180910390a3505050565b600073ffffffffffffffffffffffffffffffffffffffff168373ffffffffffffffffffffffffffffffffffffffff1614156115e3576040517f08c379a00000000000000000000000000000000000000000000000000000000081526004016115da906129b1565b60405180910390fd5b600073ffffffffffffffffffffffffffffffffffffffff168273ffffffffffffffffffffffffffffffffffffffff161415611653576040517f08c379a000000000000000000000000000000000000000000000000000000000815260040161164a90612a43565b60405180910390fd5b61165e838383611cc4565b6116c981604051806060016040528060268152602001612d83602691396000808773ffffffffffffffffffffffffffffffffffffffff1673ffffffffffffffffffffffffffffffffffffffff168152602001908152602001600020546118089092919063ffffffff16565b6000808573ffffffffffffffffffffffffffffffffffffffff1673ffffffffffffffffffffffffffffffffffffffff1681526020019081526020016000208190555061175c816000808573ffffffffffffffffffffffffffffffffffffffff1673ffffffffffffffffffffffffffffffffffffffff1681526020019081526020016000205461185d90919063ffffffff16565b6000808473ffffffffffffffffffffffffffffffffffffffff1673ffffffffffffffffffffffffffffffffffffffff168152602001908152602001600020819055508173ffffffffffffffffffffffffffffffffffffffff168373ffffffffffffffffffffffffffffffffffffffff167fddf252ad1be2c89b69c2b068fc378daa952ba7f163c4a11628f55a4df523b3ef836040516117fb9190612019565b60405180910390a3505050565b6000838311158290611850576040517f08c379a00000000000000000000000000000000000000000000000000000000081526004016118479190611f4e565b60405180910390fd5b5082840390509392505050565b6000818361186b91906125ed565b905092915050565b600073ffffffffffffffffffffffffffffffffffffffff168273ffffffffffffffffffffffffffffffffffffffff1614156118e3576040517f08c379a00000000000000000000000000000000000000000000000000000000081526004016118da90612aaf565b60405180910390fd5b6118ef60008383611cc4565b6119048160025461185d90919063ffffffff16565b60028190555061195b816000808573ffffffffffffffffffffffffffffffffffffffff1673ffffffffffffffffffffffffffffffffffffffff1681526020019081526020016000205461185d90919063ffffffff16565b6000808473ffffffffffffffffffffffffffffffffffffffff1673ffffffffffffffffffffffffffffffffffffffff168152602001908152602001600020819055508173ffffffffffffffffffffffffffffffffffffffff16600073ffffffffffffffffffffffffffffffffffffffff167fddf252ad1be2c89b69c2b068fc378daa952ba7f163c4a11628f55a4df523b3ef836040516119fb9190612019565b60405180910390a35050565b611a8a846323b872dd60e01b858585604051602401611a2893929190612acf565b604051602081830303815290604052907bffffffffffffffffffffffffffffffffffffffffffffffffffffffff19166020820180517bffffffffffffffffffffffffffffffffffffffffffffffffffffffff8381831617835250505050611cc9565b50505050565b600073ffffffffffffffffffffffffffffffffffffffff168273ffffffffffffffffffffffffffffffffffffffff161415611b00576040517f08c379a0000000000000000000000000000000000000000000000000000000008152600401611af790612b78565b60405180910390fd5b611b0c82600083611cc4565b611b7781604051806060016040528060228152602001612d61602291396000808673ffffffffffffffffffffffffffffffffffffffff1673ffffffffffffffffffffffffffffffffffffffff168152602001908152602001600020546118089092919063ffffffff16565b6000808473ffffffffffffffffffffffffffffffffffffffff1673ffffffffffffffffffffffffffffffffffffffff16815260200190815260200160002081905550611bce81600254611e3a90919063ffffffff16565b600281905550600073ffffffffffffffffffffffffffffffffffffffff168273ffffffffffffffffffffffffffffffffffffffff167fddf252ad1be2c89b69c2b068fc378daa952ba7f163c4a11628f55a4df523b3ef83604051611c329190612019565b60405180910390a35050565b611cbf8363a9059cbb60e01b8484604051602401611c5d9291906124ff565b604051602081830303815290604052907bffffffffffffffffffffffffffffffffffffffffffffffffffffffff19166020820180517bffffffffffffffffffffffffffffffffffffffffffffffffffffffff8381831617835250505050611cc9565b505050565b505050565b611ce88273ffffffffffffffffffffffffffffffffffffffff16611e50565b611d27576040517f08c379a0000000000000000000000000000000000000000000000000000000008152600401611d1e90612be4565b60405180910390fd5b6000808373ffffffffffffffffffffffffffffffffffffffff1683604051611d4f9190612c4b565b6000604051808303816000865af19150503d8060008114611d8c576040519150601f19603f3d011682016040523d82523d6000602084013e611d91565b606091505b509150915081611dd6576040517f08c379a0000000000000000000000000000000000000000000000000000000008152600401611dcd90612cae565b60405180910390fd5b600081511115611e345780806020019051810190611df49190612554565b611e33576040517f08c379a0000000000000000000000000000000000000000000000000000000008152600401611e2a90612d40565b60405180910390fd5b5b50505050565b60008183611e48919061277b565b905092915050565b60008060007fc5d2460186f7233c927e7db2dcc703c0e500b653ca82273b7bfad8045d85a47060001b9050833f9150808214158015611e9257506000801b8214155b92505050919050565b604051806040016040528060008152602001600081525090565b600081519050919050565b600082825260208201905092915050565b60005b83811015611eef578082015181840152602081019050611ed4565b83811115611efe576000848401525b50505050565b6000601f19601f8301169050919050565b6000611f2082611eb5565b611f2a8185611ec0565b9350611f3a818560208601611ed1565b611f4381611f04565b840191505092915050565b60006020820190508181036000830152611f688184611f15565b905092915050565b600080fd5b600073ffffffffffffffffffffffffffffffffffffffff82169050919050565b6000611fa082611f75565b9050919050565b611fb081611f95565b8114611fbb57600080fd5b50565b600081359050611fcd81611fa7565b92915050565b600060208284031215611fe957611fe8611f70565b5b6000611ff784828501611fbe565b91505092915050565b6000819050919050565b61201381612000565b82525050565b600060208201905061202e600083018461200a565b92915050565b61203d81612000565b811461204857600080fd5b50565b60008135905061205a81612034565b92915050565b6000806040838503121561207757612076611f70565b5b600061208585828601611fbe565b92505060206120968582860161204b565b9150509250929050565b60008115159050919050565b6120b5816120a0565b82525050565b60006020820190506120d060008301846120ac565b92915050565b6000819050919050565b6120e9816120d6565b82525050565b6000604082019050612104600083018561200a565b61211160208301846120e0565b9392505050565b600060408201905061212d600083018561200a565b61213a602083018461200a565b9392505050565b60008060006060848603121561215a57612159611f70565b5b600061216886828701611fbe565b935050602061217986828701611fbe565b925050604061218a8682870161204b565b9150509250925092565b6000819050919050565b60006121b96121b46121af84611f75565b612194565b611f75565b9050919050565b60006121cb8261219e565b9050919050565b60006121dd826121c0565b9050919050565b6121ed816121d2565b82525050565b600060208201905061220860008301846121e4565b92915050565b600060ff82169050919050565b6122248161220e565b82525050565b600060208201905061223f600083018461221b565b92915050565b60006020828403121561225b5761225a611f70565b5b60006122698482850161204b565b91505092915050565b6000806040838503121561228957612288611f70565b5b600061229785828601611fbe565b92505060206122a885828601611fbe565b9150509250929050565b600080600080608085870312156122cc576122cb611f70565b5b60006122da8782880161204b565b94505060206122eb8782880161204b565b93505060406122fc87828801611fbe565b925050606061230d8782880161204b565b91505092959194509250565b61232281612000565b82525050565b60408201600082015161233e6000850182612319565b5060208201516123516020850182612319565b50505050565b600060408201905061236c6000830184612328565b92915050565b7f4e487b7100000000000000000000000000000000000000000000000000000000600052602260045260246000fd5b600060028204905060018216806123b957607f821691505b602082108114156123cd576123cc612372565b5b50919050565b7f4e487b7100000000000000000000000000000000000000000000000000000000600052601160045260246000fd5b600061240d82612000565b915061241883612000565b9250817fffffffffffffffffffffffffffffffffffffffffffffffffffffffffffffffff0483118215151615612451576124506123d3565b5b828202905092915050565b6000612467826120d6565b9150612472836120d6565b9250827f8000000000000000000000000000000000000000000000000000000000000000018212600084121516156124ad576124ac6123d3565b5b827f7fffffffffffffffffffffffffffffffffffffffffffffffffffffffffffffff0182136000841216156124e5576124e46123d3565b5b828203905092915050565b6124f981611f95565b82525050565b600060408201905061251460008301856124f0565b612521602083018461200a565b9392505050565b612531816120a0565b811461253c57600080fd5b50565b60008151905061254e81612528565b92915050565b60006020828403121561256a57612569611f70565b5b60006125788482850161253f565b91505092915050565b7f564c46493a494e56414c49445f414d4f554e5400000000000000000000000000600082015250565b60006125b7601383611ec0565b91506125c282612581565b602082019050919050565b600060208201905081810360008301526125e6816125aa565b9050919050565b60006125f882612000565b915061260383612000565b9250827fffffffffffffffffffffffffffffffffffffffffffffffffffffffffffffffff03821115612638576126376123d3565b5b828201905092915050565b7f4e487b7100000000000000000000000000000000000000000000000000000000600052601260045260246000fd5b600061267d82612000565b915061268883612000565b92508261269857612697612643565b5b828204905092915050565b7f564c46493a494e56414c49445f42414c414e43455f4f4e5f434f4f4c444f574e600082015250565b60006126d9602083611ec0565b91506126e4826126a3565b602082019050919050565b60006020820190508181036000830152612708816126cc565b9050919050565b7f564c46493a494e53554646494349454e545f434f4f4c444f574e000000000000600082015250565b6000612745601a83611ec0565b91506127508261270f565b602082019050919050565b6000602082019050818103600083015261277481612738565b9050919050565b600061278682612000565b915061279183612000565b9250828210156127a4576127a36123d3565b5b828203905092915050565b7f564c46493a554e5354414b455f57494e444f575f46494e495348454400000000600082015250565b60006127e5601c83611ec0565b91506127f0826127af565b602082019050919050565b60006020820190508181036000830152612814816127d8565b9050919050565b7f45524332303a20617070726f76652066726f6d20746865207a65726f2061646460008201527f7265737300000000000000000000000000000000000000000000000000000000602082015250565b6000612877602483611ec0565b91506128828261281b565b604082019050919050565b600060208201905081810360008301526128a68161286a565b9050919050565b7f45524332303a20617070726f766520746f20746865207a65726f20616464726560008201527f7373000000000000000000000000000000000000000000000000000000000000602082015250565b6000612909602283611ec0565b9150612914826128ad565b604082019050919050565b60006020820190508181036000830152612938816128fc565b9050919050565b7f45524332303a207472616e736665722066726f6d20746865207a65726f20616460008201527f6472657373000000000000000000000000000000000000000000000000000000602082015250565b600061299b602583611ec0565b91506129a68261293f565b604082019050919050565b600060208201905081810360008301526129ca8161298e565b9050919050565b7f45524332303a207472616e7366657220746f20746865207a65726f206164647260008201527f6573730000000000000000000000000000000000000000000000000000000000602082015250565b6000612a2d602383611ec0565b9150612a38826129d1565b604082019050919050565b60006020820190508181036000830152612a5c81612a20565b9050919050565b7f45524332303a206d696e7420746f20746865207a65726f206164647265737300600082015250565b6000612a99601f83611ec0565b9150612aa482612a63565b602082019050919050565b60006020820190508181036000830152612ac881612a8c565b9050919050565b6000606082019050612ae460008301866124f0565b612af160208301856124f0565b612afe604083018461200a565b949350505050565b7f45524332303a206275726e2066726f6d20746865207a65726f2061646472657360008201527f7300000000000000000000000000000000000000000000000000000000000000602082015250565b6000612b62602183611ec0565b9150612b6d82612b06565b604082019050919050565b60006020820190508181036000830152612b9181612b55565b9050919050565b7f5361666545524332303a2063616c6c20746f206e6f6e2d636f6e747261637400600082015250565b6000612bce601f83611ec0565b9150612bd982612b98565b602082019050919050565b60006020820190508181036000830152612bfd81612bc1565b9050919050565b600081519050919050565b600081905092915050565b6000612c2582612c04565b612c2f8185612c0f565b9350612c3f818560208601611ed1565b80840191505092915050565b6000612c578284612c1a565b915081905092915050565b7f5361666545524332303a206c6f772d6c6576656c2063616c6c206661696c6564600082015250565b6000612c98602083611ec0565b9150612ca382612c62565b602082019050919050565b60006020820190508181036000830152612cc781612c8b565b9050919050565b7f5361666545524332303a204552433230206f7065726174696f6e20646964206e60008201527f6f74207375636365656400000000000000000000000000000000000000000000602082015250565b6000612d2a602a83611ec0565b9150612d3582612cce565b604082019050919050565b60006020820190508181036000830152612d5981612d1d565b905091905056fe45524332303a206275726e20616d6f756e7420657863656564732062616c616e636545524332303a207472616e7366657220616d6f756e7420657863656564732062616c616e636545524332303a207472616e7366657220616d6f756e74206578636565647320616c6c6f77616e636545524332303a2064656372656173656420616c6c6f77616e63652062656c6f77207a65726fa2646970667358221220337d35187f9cd0083563af8ec2be624f18bba7956018d7939d0063933534151364736f6c634300080a0033",
  "linkReferences": {},
  "deployedLinkReferences": {}
}