{
  "_format": "hh-sol-artifact-1",
  "contractName": "HousePoolUSDC",
  "sourceName": "contracts/HousePoolUSDCV1.sol",
  "abi": [
    {
      "anonymous": false,
      "inputs": [
        {
          "indexed": true,
          "internalType": "bytes32",
          "name": "role",
          "type": "bytes32"
        },
        {
          "indexed": true,
          "internalType": "bytes32",
          "name": "previousAdminRole",
          "type": "bytes32"
        },
        {
          "indexed": true,
          "internalType": "bytes32",
          "name": "newAdminRole",
          "type": "bytes32"
        }
      ],
      "name": "RoleAdminChanged",
      "type": "event"
    },
    {
      "anonymous": false,
      "inputs": [
        {
          "indexed": true,
          "internalType": "bytes32",
          "name": "role",
          "type": "bytes32"
        },
        {
          "indexed": true,
          "internalType": "address",
          "name": "account",
          "type": "address"
        },
        {
          "indexed": true,
          "internalType": "address",
          "name": "sender",
          "type": "address"
        }
      ],
      "name": "RoleGranted",
      "type": "event"
    },
    {
      "anonymous": false,
      "inputs": [
        {
          "indexed": true,
          "internalType": "bytes32",
          "name": "role",
          "type": "bytes32"
        },
        {
          "indexed": true,
          "internalType": "address",
          "name": "account",
          "type": "address"
        },
        {
          "indexed": true,
          "internalType": "address",
          "name": "sender",
          "type": "address"
        }
      ],
      "name": "RoleRevoked",
      "type": "event"
    },
    {
      "inputs": [],
      "name": "DATA_PROVIDER_ORACLE",
      "outputs": [
        {
          "internalType": "bytes32",
          "name": "",
          "type": "bytes32"
        }
      ],
      "stateMutability": "view",
      "type": "function"
    },
    {
      "inputs": [],
      "name": "DEFAULT_ADMIN_ROLE",
      "outputs": [
        {
          "internalType": "bytes32",
          "name": "",
          "type": "bytes32"
        }
      ],
      "stateMutability": "view",
      "type": "function"
    },
    {
      "inputs": [],
      "name": "HOUSE_POOL_DATA_PROVIDER",
      "outputs": [
        {
          "internalType": "bytes32",
          "name": "",
          "type": "bytes32"
        }
      ],
      "stateMutability": "view",
      "type": "function"
    },
    {
      "inputs": [
        {
          "internalType": "uint256",
          "name": "amountUSDC",
          "type": "uint256"
        },
        {
          "internalType": "bytes",
          "name": "approval",
          "type": "bytes"
        },
        {
          "components": [
            {
              "internalType": "int256",
              "name": "expectedValue",
              "type": "int256"
            },
            {
              "internalType": "int256",
              "name": "maxExposure",
              "type": "int256"
            },
            {
              "internalType": "uint256",
              "name": "deadline",
              "type": "uint256"
            },
            {
              "internalType": "address",
              "name": "signer",
              "type": "address"
            }
          ],
          "internalType": "struct HousePoolUSDC.ValuesOfInterest",
          "name": "approvedValues",
          "type": "tuple"
        }
      ],
      "name": "deposit",
      "outputs": [],
      "stateMutability": "nonpayable",
      "type": "function"
    },
    {
      "inputs": [
        {
          "internalType": "uint256",
          "name": "usdcMicro",
          "type": "uint256"
        }
      ],
      "name": "deposit_",
      "outputs": [],
      "stateMutability": "nonpayable",
      "type": "function"
    },
    {
      "inputs": [],
      "name": "getBettingStakes",
      "outputs": [
        {
          "internalType": "uint256",
          "name": "",
          "type": "uint256"
        }
      ],
      "stateMutability": "view",
      "type": "function"
    },
    {
      "inputs": [],
      "name": "getEV",
      "outputs": [
        {
          "internalType": "int256",
          "name": "",
          "type": "int256"
        }
      ],
      "stateMutability": "view",
      "type": "function"
    },
    {
      "inputs": [],
      "name": "getLiquidityStatus",
      "outputs": [
        {
          "internalType": "uint256",
          "name": "",
          "type": "uint256"
        }
      ],
      "stateMutability": "view",
      "type": "function"
    },
    {
      "inputs": [],
      "name": "getMaxExposure",
      "outputs": [
        {
          "internalType": "int256",
          "name": "",
          "type": "int256"
        }
      ],
      "stateMutability": "view",
      "type": "function"
    },
    {
      "inputs": [
        {
          "internalType": "address",
          "name": "_user",
          "type": "address"
        }
      ],
      "name": "getMyLiquidity",
      "outputs": [
        {
          "internalType": "uint256",
          "name": "",
          "type": "uint256"
        }
      ],
      "stateMutability": "view",
      "type": "function"
    },
    {
      "inputs": [
        {
          "internalType": "bytes32",
          "name": "role",
          "type": "bytes32"
        }
      ],
      "name": "getRoleAdmin",
      "outputs": [
        {
          "internalType": "bytes32",
          "name": "",
          "type": "bytes32"
        }
      ],
      "stateMutability": "view",
      "type": "function"
    },
    {
      "inputs": [],
      "name": "getTVLofPool",
      "outputs": [
        {
          "internalType": "int256",
          "name": "",
          "type": "int256"
        }
      ],
      "stateMutability": "view",
      "type": "function"
    },
    {
      "inputs": [],
      "name": "getTokenPrice",
      "outputs": [
        {
          "internalType": "uint256",
          "name": "",
          "type": "uint256"
        }
      ],
      "stateMutability": "view",
      "type": "function"
    },
    {
      "inputs": [],
      "name": "getTokenWithdrawlPrice",
      "outputs": [
        {
          "internalType": "uint256",
          "name": "",
          "type": "uint256"
        }
      ],
      "stateMutability": "view",
      "type": "function"
    },
    {
      "inputs": [],
      "name": "getTreasuryAmount",
      "outputs": [
        {
          "internalType": "uint256",
          "name": "",
          "type": "uint256"
        }
      ],
      "stateMutability": "view",
      "type": "function"
    },
    {
      "inputs": [
        {
          "internalType": "bytes32",
          "name": "role",
          "type": "bytes32"
        },
        {
          "internalType": "address",
          "name": "account",
          "type": "address"
        }
      ],
      "name": "grantRole",
      "outputs": [],
      "stateMutability": "nonpayable",
      "type": "function"
    },
    {
      "inputs": [
        {
          "internalType": "bytes32",
          "name": "role",
          "type": "bytes32"
        },
        {
          "internalType": "address",
          "name": "account",
          "type": "address"
        }
      ],
      "name": "hasRole",
      "outputs": [
        {
          "internalType": "bool",
          "name": "",
          "type": "bool"
        }
      ],
      "stateMutability": "view",
      "type": "function"
    },
    {
      "inputs": [
        {
          "internalType": "address",
          "name": "_owner",
          "type": "address"
        },
        {
          "internalType": "address",
          "name": "_usdc",
          "type": "address"
        },
        {
          "internalType": "address",
          "name": "_claimToken",
          "type": "address"
        },
        {
          "internalType": "string",
          "name": "_name",
          "type": "string"
        },
        {
          "internalType": "string",
          "name": "_version",
          "type": "string"
        }
      ],
      "name": "initialize",
      "outputs": [],
      "stateMutability": "nonpayable",
      "type": "function"
    },
    {
      "inputs": [
        {
          "internalType": "bytes32",
          "name": "role",
          "type": "bytes32"
        },
        {
          "internalType": "address",
          "name": "account",
          "type": "address"
        }
      ],
      "name": "renounceRole",
      "outputs": [],
      "stateMutability": "nonpayable",
      "type": "function"
    },
    {
      "inputs": [
        {
          "internalType": "bytes32",
          "name": "role",
          "type": "bytes32"
        },
        {
          "internalType": "address",
          "name": "account",
          "type": "address"
        }
      ],
      "name": "revokeRole",
      "outputs": [],
      "stateMutability": "nonpayable",
      "type": "function"
    },
    {
      "inputs": [
        {
          "internalType": "uint256",
          "name": "bettingAmount",
          "type": "uint256"
        }
      ],
      "name": "setBettingStakes",
      "outputs": [],
      "stateMutability": "nonpayable",
      "type": "function"
    },
    {
      "inputs": [
        {
          "internalType": "bytes",
          "name": "sig_",
          "type": "bytes"
        },
        {
          "components": [
            {
              "internalType": "int256",
              "name": "expectedValue",
              "type": "int256"
            },
            {
              "internalType": "int256",
              "name": "maxExposure",
              "type": "int256"
            },
            {
              "internalType": "uint256",
              "name": "deadline",
              "type": "uint256"
            },
            {
              "internalType": "address",
              "name": "signer",
              "type": "address"
            }
          ],
          "internalType": "struct HousePoolUSDC.ValuesOfInterest",
          "name": "voi_",
          "type": "tuple"
        }
      ],
      "name": "setVOI",
      "outputs": [],
      "stateMutability": "nonpayable",
      "type": "function"
    },
    {
      "inputs": [
        {
          "internalType": "bool",
          "name": "outcome",
          "type": "bool"
        },
        {
          "internalType": "uint256",
          "name": "betAmount",
          "type": "uint256"
        }
      ],
      "name": "simulateOutcome",
      "outputs": [],
      "stateMutability": "nonpayable",
      "type": "function"
    },
    {
      "inputs": [
        {
          "internalType": "bytes4",
          "name": "interfaceId",
          "type": "bytes4"
        }
      ],
      "name": "supportsInterface",
      "outputs": [
        {
          "internalType": "bool",
          "name": "",
          "type": "bool"
        }
      ],
      "stateMutability": "view",
      "type": "function"
    },
    {
      "inputs": [],
      "name": "voi",
      "outputs": [
        {
          "internalType": "int256",
          "name": "expectedValue",
          "type": "int256"
        },
        {
          "internalType": "int256",
          "name": "maxExposure",
          "type": "int256"
        },
        {
          "internalType": "uint256",
          "name": "deadline",
          "type": "uint256"
        },
        {
          "internalType": "address",
          "name": "signer",
          "type": "address"
        }
      ],
      "stateMutability": "view",
      "type": "function"
    },
    {
      "inputs": [
        {
          "internalType": "uint256",
          "name": "amountUSDC",
          "type": "uint256"
        },
        {
          "internalType": "bytes",
          "name": "approval",
          "type": "bytes"
        },
        {
          "components": [
            {
              "internalType": "int256",
              "name": "expectedValue",
              "type": "int256"
            },
            {
              "internalType": "int256",
              "name": "maxExposure",
              "type": "int256"
            },
            {
              "internalType": "uint256",
              "name": "deadline",
              "type": "uint256"
            },
            {
              "internalType": "address",
              "name": "signer",
              "type": "address"
            }
          ],
          "internalType": "struct HousePoolUSDC.ValuesOfInterest",
          "name": "approvedValues",
          "type": "tuple"
        }
      ],
      "name": "withdraw",
      "outputs": [],
      "stateMutability": "nonpayable",
      "type": "function"
    },
    {
      "inputs": [
        {
          "internalType": "uint256",
          "name": "usdcMicro",
          "type": "uint256"
        }
      ],
      "name": "withdraw_",
      "outputs": [],
      "stateMutability": "nonpayable",
      "type": "function"
    }
  ],
  "bytecode": "0x608060405234801561001057600080fd5b50614169806100206000396000f3fe608060405234801561001057600080fd5b50600436106101a95760003560e01c80635a5d6223116100f9578063b3ce252411610097578063d547741f11610071578063d547741f14610497578063d75d07c2146104b3578063e20fcf00146104d1578063e678ff25146104ef576101a9565b8063b3ce25241461043a578063be1cd71214610458578063cd08a1df14610479576101a9565b806391d14854116100d357806391d14854146103a0578063a1cd2232146103d0578063a217fddf14610400578063a43f32411461041e576101a9565b80635a5d62231461034a578063639c066d1461036857806383b4358914610384576101a9565b806336568abe116101665780634b94f50e116101405780634b94f50e146102d45780634f6d45a2146102f2578063508c81a21461030e57806353f528471461032c576101a9565b806336568abe1461027e5780633c0717fd1461029a578063409c86ca146102b8576101a9565b806301ffc9a7146101ae5780630f5a5e18146101de57806320ab7449146101fa578063218f296e14610216578063248a9ca3146102325780632f2ff15d14610262575b600080fd5b6101c860048036038101906101c391906128d9565b61050d565b6040516101d59190612921565b60405180910390f35b6101f860048036038101906101f39190612972565b610587565b005b610214600480360381019061020f9190612bf6565b610593565b005b610230600480360381019061022b9190612bf6565b6107d4565b005b61024c60048036038101906102479190612c9b565b610a15565b6040516102599190612cd7565b60405180910390f35b61027c60048036038101906102779190612cf2565b610a35565b005b61029860048036038101906102939190612cf2565b610a5e565b005b6102a2610ae1565b6040516102af9190612d41565b60405180910390f35b6102d260048036038101906102cd9190612972565b610aeb565b005b6102dc610af5565b6040516102e99190612d41565b60405180910390f35b61030c60048036038101906103079190612d88565b610aff565b005b610316610bed565b6040516103239190612cd7565b60405180910390f35b610334610c11565b6040516103419190612dd7565b60405180910390f35b610352610c1b565b60405161035f9190612dd7565b60405180910390f35b610382600480360381019061037d9190612972565b610c28565b005b61039e60048036038101906103999190612e93565b610c34565b005b6103ba60048036038101906103b59190612cf2565b610df6565b6040516103c79190612921565b60405180910390f35b6103ea60048036038101906103e59190612f46565b610e61565b6040516103f79190612d41565b60405180910390f35b610408610f2b565b6040516104159190612cd7565b60405180910390f35b61043860048036038101906104339190612f73565b610f32565b005b61044261119c565b60405161044f9190612d41565b60405180910390f35b6104606111a6565b6040516104709493929190612fde565b60405180910390f35b6104816111e4565b60405161048e9190612dd7565b60405180910390f35b6104b160048036038101906104ac9190612cf2565b6111f1565b005b6104bb61121a565b6040516104c89190612cd7565b60405180910390f35b6104d961123e565b6040516104e69190612d41565b60405180910390f35b6104f7611248565b6040516105049190612d41565b60405180910390f35b60007f7965db0b000000000000000000000000000000000000000000000000000000007bffffffffffffffffffffffffffffffffffffffffffffffffffffffff1916827bffffffffffffffffffffffffffffffffffffffffffffffffffffffff19161480610580575061057f82611252565b5b9050919050565b610590816112bc565b50565b808260006106437f382f778b38ac8a684a068262bd90ef9739279743851e0bc20a2bf85f56a2550c84606001518560000151866020015160746000896060015173ffffffffffffffffffffffffffffffffffffffff1673ffffffffffffffffffffffffffffffffffffffff16815260200190815260200160002054886040015160405160200161062896959493929190613023565b604051602081830303815290604052805190602001206116fb565b905061065483606001518284611715565b610693576040517f08c379a000000000000000000000000000000000000000000000000000000000815260040161068a906130e1565b60405180910390fd5b600073ffffffffffffffffffffffffffffffffffffffff16836060015173ffffffffffffffffffffffffffffffffffffffff161415610707576040517f08c379a00000000000000000000000000000000000000000000000000000000081526004016106fe9061314d565b60405180910390fd5b6107357feed754290b7b7033469899aa55827c9480fc90a4843b45b7f455d0ac50d3e6ce8460600151610df6565b610774576040517f08c379a000000000000000000000000000000000000000000000000000000000815260040161076b906131df565b60405180910390fd5b826040015143106107ba576040517f08c379a00000000000000000000000000000000000000000000000000000000081526004016107b190613271565b60405180910390fd5b6107c3846118fa565b6107cc866112bc565b505050505050565b808260006108847f382f778b38ac8a684a068262bd90ef9739279743851e0bc20a2bf85f56a2550c84606001518560000151866020015160746000896060015173ffffffffffffffffffffffffffffffffffffffff1673ffffffffffffffffffffffffffffffffffffffff16815260200190815260200160002054886040015160405160200161086996959493929190613023565b604051602081830303815290604052805190602001206116fb565b905061089583606001518284611715565b6108d4576040517f08c379a00000000000000000000000000000000000000000000000000000000081526004016108cb906130e1565b60405180910390fd5b600073ffffffffffffffffffffffffffffffffffffffff16836060015173ffffffffffffffffffffffffffffffffffffffff161415610948576040517f08c379a000000000000000000000000000000000000000000000000000000000815260040161093f9061314d565b60405180910390fd5b6109767feed754290b7b7033469899aa55827c9480fc90a4843b45b7f455d0ac50d3e6ce8460600151610df6565b6109b5576040517f08c379a00000000000000000000000000000000000000000000000000000000081526004016109ac906131df565b60405180910390fd5b826040015143106109fb576040517f08c379a00000000000000000000000000000000000000000000000000000000081526004016109f290613271565b60405180910390fd5b610a04846118fa565b610a0d86611939565b505050505050565b600060336000838152602001908152602001600020600101549050919050565b610a3e82610a15565b610a4f81610a4a611cd0565b611cd8565b610a598383611d75565b505050565b610a66611cd0565b73ffffffffffffffffffffffffffffffffffffffff168173ffffffffffffffffffffffffffffffffffffffff1614610ad3576040517f08c379a0000000000000000000000000000000000000000000000000000000008152600401610aca90613303565b60405180910390fd5b610add8282611e56565b5050565b6000606954905090565b8060688190555050565b6000607254905090565b600015158215151415610b6757606481610b199190613381565b606a6000828254610b2a91906133b2565b925050819055506063606482610b409190613381565b610b4a9190613408565b60696000828254610b5b91906133b2565b92505081905550610ba8565b6064606854610b769190613381565b606a6000828254610b8791906133b2565b925050819055508060686000828254610ba09190613462565b925050819055505b6000606e600001819055506000606e60010181905550606a54606b6000828254610bd29190613496565b92505081905550610be1611f38565b610be961208f565b5050565b7fce95e3899a3f9149fc26a34674875210907ee3c0dddf61ac603f89e90c1b5f9e81565b6000606b54905090565b6000606e60010154905090565b610c3181611939565b50565b600060019054906101000a900460ff16610c5c5760008054906101000a900460ff1615610c65565b610c646121e6565b5b610ca4576040517f08c379a0000000000000000000000000000000000000000000000000000000008152600401610c9b9061359c565b60405180910390fd5b60008060019054906101000a900460ff161590508015610cf4576001600060016101000a81548160ff02191690831515021790555060016000806101000a81548160ff0219169083151502179055505b610cfe83836121f7565b84606c60006101000a81548173ffffffffffffffffffffffffffffffffffffffff021916908373ffffffffffffffffffffffffffffffffffffffff16021790555083606d60006101000a81548173ffffffffffffffffffffffffffffffffffffffff021916908373ffffffffffffffffffffffffffffffffffffffff160217905550610d8d6000801b87612254565b6012600a610d9b91906136ef565b6064610da79190613408565b6072819055506012600a610dbb91906136ef565b6064610dc79190613408565b6073819055508015610dee5760008060016101000a81548160ff0219169083151502179055505b505050505050565b60006033600084815260200190815260200160002060000160008373ffffffffffffffffffffffffffffffffffffffff1673ffffffffffffffffffffffffffffffffffffffff16815260200190815260200160002060009054906101000a900460ff16905092915050565b60006012600a610e7191906136ef565b607254606d60009054906101000a900473ffffffffffffffffffffffffffffffffffffffff1673ffffffffffffffffffffffffffffffffffffffff166370a08231856040518263ffffffff1660e01b8152600401610ecf919061373a565b602060405180830381865afa158015610eec573d6000803e3d6000fd5b505050506040513d601f19601f82011682018060405250810190610f10919061376a565b610f1a9190613408565b610f249190613381565b9050919050565b6000801b81565b80826000610fe27f382f778b38ac8a684a068262bd90ef9739279743851e0bc20a2bf85f56a2550c84606001518560000151866020015160746000896060015173ffffffffffffffffffffffffffffffffffffffff1673ffffffffffffffffffffffffffffffffffffffff168152602001908152602001600020548860400151604051602001610fc796959493929190613023565b604051602081830303815290604052805190602001206116fb565b9050610ff383606001518284611715565b611032576040517f08c379a0000000000000000000000000000000000000000000000000000000008152600401611029906130e1565b60405180910390fd5b600073ffffffffffffffffffffffffffffffffffffffff16836060015173ffffffffffffffffffffffffffffffffffffffff1614156110a6576040517f08c379a000000000000000000000000000000000000000000000000000000000815260040161109d9061314d565b60405180910390fd5b6110d47feed754290b7b7033469899aa55827c9480fc90a4843b45b7f455d0ac50d3e6ce8460600151610df6565b611113576040517f08c379a000000000000000000000000000000000000000000000000000000000815260040161110a906131df565b60405180910390fd5b82604001514310611159576040517f08c379a000000000000000000000000000000000000000000000000000000000815260040161115090613271565b60405180910390fd5b7fce95e3899a3f9149fc26a34674875210907ee3c0dddf61ac603f89e90c1b5f9e61118b81611186611cd0565b611cd8565b611194856118fa565b505050505050565b6000607354905090565b606e8060000154908060010154908060020154908060030160009054906101000a900473ffffffffffffffffffffffffffffffffffffffff16905084565b6000606e60000154905090565b6111fa82610a15565b61120b81611206611cd0565b611cd8565b6112158383611e56565b505050565b7feed754290b7b7033469899aa55827c9480fc90a4843b45b7f455d0ac50d3e6ce81565b6000606a54905090565b6000606854905090565b60007f01ffc9a7000000000000000000000000000000000000000000000000000000007bffffffffffffffffffffffffffffffffffffffffffffffffffffffff1916827bffffffffffffffffffffffffffffffffffffffffffffffffffffffff1916149050919050565b60026001541415611302576040517f08c379a00000000000000000000000000000000000000000000000000000000081526004016112f9906137e3565b60405180910390fd5b60026001819055506000811161134d576040517f08c379a00000000000000000000000000000000000000000000000000000000081526004016113449061384f565b60405180910390fd5b6073546012600a61135e91906136ef565b606d60009054906101000a900473ffffffffffffffffffffffffffffffffffffffff1673ffffffffffffffffffffffffffffffffffffffff166370a08231336040518263ffffffff1660e01b81526004016113b9919061373a565b602060405180830381865afa1580156113d6573d6000803e3d6000fd5b505050506040513d601f19601f820116820180604052508101906113fa919061376a565b6114049190613381565b61140e9190613408565b600c600a61141c91906136ef565b826114279190613408565b1115801561145f5750606e60010154606954611443919061386f565b600c600a61145191906136ef565b8261145c9190613903565b13155b61149e576040517f08c379a000000000000000000000000000000000000000000000000000000000815260040161149590613a66565b60405180910390fd5b60006073546012600a6114b191906136ef565b600c600a6114bf91906136ef565b846114ca9190613408565b6114d49190613408565b6114de9190613381565b9050600c600a6114ee91906136ef565b826114f99190613408565b6069600082825461150a9190613462565b92505081905550600c600a61151f91906136ef565b8261152a9190613903565b606b600082825461153b919061386f565b92505081905550600c600a61155091906136ef565b8261155b9190613408565b607560003373ffffffffffffffffffffffffffffffffffffffff1673ffffffffffffffffffffffffffffffffffffffff16815260200190815260200160002060008282546115a99190613462565b92505081905550606c60009054906101000a900473ffffffffffffffffffffffffffffffffffffffff1673ffffffffffffffffffffffffffffffffffffffff1663a9059cbb33846040518363ffffffff1660e01b815260040161160d929190613a86565b6020604051808303816000875af115801561162c573d6000803e3d6000fd5b505050506040513d601f19601f820116820180604052508101906116509190613ac4565b50606d60009054906101000a900473ffffffffffffffffffffffffffffffffffffffff1673ffffffffffffffffffffffffffffffffffffffff16639dc29fac33836040518363ffffffff1660e01b81526004016116ae929190613a86565b600060405180830381600087803b1580156116c857600080fd5b505af11580156116dc573d6000803e3d6000fd5b505050506116e861208f565b6116f0611f38565b506001808190555050565b600061170e611708612262565b836122a2565b9050919050565b600080600061172485856122d5565b915091506000600481111561173c5761173b613af1565b5b81600481111561174f5761174e613af1565b5b14801561178757508573ffffffffffffffffffffffffffffffffffffffff168273ffffffffffffffffffffffffffffffffffffffff16145b15611797576001925050506118f3565b6000808773ffffffffffffffffffffffffffffffffffffffff16631626ba7e60e01b88886040516024016117cc929190613ba8565b604051602081830303815290604052907bffffffffffffffffffffffffffffffffffffffffffffffffffffffff19166020820180517bffffffffffffffffffffffffffffffffffffffffffffffffffffffff83818316178352505050506040516118369190613c14565b600060405180830381855afa9150503d8060008114611871576040519150601f19603f3d011682016040523d82523d6000602084013e611876565b606091505b5091509150818015611889575060208151145b80156118ec5750631626ba7e60e01b7bffffffffffffffffffffffffffffffffffffffffffffffffffffffff1916818060200190518101906118cb9190613c40565b7bffffffffffffffffffffffffffffffffffffffffffffffffffffffff1916145b9450505050505b9392505050565b606e60000154816000015114611918576119178160000151612358565b5b606e60010154816020015114611936576119358160200151612376565b5b50565b6002600154141561197f576040517f08c379a0000000000000000000000000000000000000000000000000000000008152600401611976906137e3565b60405180910390fd5b6002600181905550600081118015611a325750606c60009054906101000a900473ffffffffffffffffffffffffffffffffffffffff1673ffffffffffffffffffffffffffffffffffffffff166370a08231336040518263ffffffff1660e01b81526004016119ed919061373a565b602060405180830381865afa158015611a0a573d6000803e3d6000fd5b505050506040513d601f19601f82011682018060405250810190611a2e919061376a565b8111155b611a71576040517f08c379a0000000000000000000000000000000000000000000000000000000008152600401611a6890613cb9565b60405180910390fd5b600c600a611a7f91906136ef565b81611a8a9190613408565b60696000828254611a9b91906133b2565b92505081905550600c600a611ab091906136ef565b81611abb9190613408565b606b6000828254611acc9190613496565b92505081905550600c600a611ae191906136ef565b81611aec9190613408565b607560003373ffffffffffffffffffffffffffffffffffffffff1673ffffffffffffffffffffffffffffffffffffffff1681526020019081526020016000206000828254611b3a91906133b2565b92505081905550606c60009054906101000a900473ffffffffffffffffffffffffffffffffffffffff1673ffffffffffffffffffffffffffffffffffffffff166323b872dd3330846040518463ffffffff1660e01b8152600401611ba093929190613cd9565b6020604051808303816000875af1158015611bbf573d6000803e3d6000fd5b505050506040513d601f19601f82011682018060405250810190611be39190613ac4565b5060006072546012600a611bf791906136ef565b600c600a611c0591906136ef565b84611c109190613408565b611c1a9190613408565b611c249190613381565b9050606d60009054906101000a900473ffffffffffffffffffffffffffffffffffffffff1673ffffffffffffffffffffffffffffffffffffffff166340c10f1933836040518363ffffffff1660e01b8152600401611c83929190613a86565b600060405180830381600087803b158015611c9d57600080fd5b505af1158015611cb1573d6000803e3d6000fd5b50505050611cbd611f38565b611cc561208f565b506001808190555050565b600033905090565b611ce28282610df6565b611d7157611d078173ffffffffffffffffffffffffffffffffffffffff166014612383565b611d158360001c6020612383565b604051602001611d26929190613def565b6040516020818303038152906040526040517f08c379a0000000000000000000000000000000000000000000000000000000008152600401611d689190613e62565b60405180910390fd5b5050565b611d7f8282610df6565b611e525760016033600084815260200190815260200160002060000160008373ffffffffffffffffffffffffffffffffffffffff1673ffffffffffffffffffffffffffffffffffffffff16815260200190815260200160002060006101000a81548160ff021916908315150217905550611df7611cd0565b73ffffffffffffffffffffffffffffffffffffffff168173ffffffffffffffffffffffffffffffffffffffff16837f2f8788117e7eff1d82e926ec794901d17c78024a50270940304540a733656f0d60405160405180910390a45b5050565b611e608282610df6565b15611f345760006033600084815260200190815260200160002060000160008373ffffffffffffffffffffffffffffffffffffffff1673ffffffffffffffffffffffffffffffffffffffff16815260200190815260200160002060006101000a81548160ff021916908315150217905550611ed9611cd0565b73ffffffffffffffffffffffffffffffffffffffff168173ffffffffffffffffffffffffffffffffffffffff16837ff6391f5c32d9c69d2a47ea670b442974b53935d1edc7fd64eb21e047a839171b60405160405180910390a45b5050565b6000606d60009054906101000a900473ffffffffffffffffffffffffffffffffffffffff1673ffffffffffffffffffffffffffffffffffffffff166318160ddd6040518163ffffffff1660e01b8152600401602060405180830381865afa158015611fa7573d6000803e3d6000fd5b505050506040513d601f19601f82011682018060405250810190611fcb919061376a565b1461208d57606d60009054906101000a900473ffffffffffffffffffffffffffffffffffffffff1673ffffffffffffffffffffffffffffffffffffffff166318160ddd6040518163ffffffff1660e01b8152600401602060405180830381865afa15801561203d573d6000803e3d6000fd5b505050506040513d601f19601f82011682018060405250810190612061919061376a565b6012600a61206f91906136ef565b606b5461207c9190613408565b6120869190613381565b6072819055505b565b6000606d60009054906101000a900473ffffffffffffffffffffffffffffffffffffffff1673ffffffffffffffffffffffffffffffffffffffff166318160ddd6040518163ffffffff1660e01b8152600401602060405180830381865afa1580156120fe573d6000803e3d6000fd5b505050506040513d601f19601f82011682018060405250810190612122919061376a565b146121e457606d60009054906101000a900473ffffffffffffffffffffffffffffffffffffffff1673ffffffffffffffffffffffffffffffffffffffff166318160ddd6040518163ffffffff1660e01b8152600401602060405180830381865afa158015612194573d6000803e3d6000fd5b505050506040513d601f19601f820116820180604052508101906121b8919061376a565b6012600a6121c691906136ef565b6069546121d39190613408565b6121dd9190613381565b6073819055505b565b60006121f1306125bf565b15905090565b600060019054906101000a900460ff16612246576040517f08c379a000000000000000000000000000000000000000000000000000000000815260040161223d90613ef6565b60405180910390fd5b61225082826125e2565b5050565b61225e8282611d75565b5050565b600061229d7f8b73c3c69bb8fe3d512ecc4cf759cc79239f7b179b0ffacaa9a75d522b39400f61229061265d565b612298612667565b612671565b905090565b600082826040516020016122b7929190613f83565b60405160208183030381529060405280519060200120905092915050565b6000806041835114156123175760008060006020860151925060408601519150606086015160001a905061230b878285856126ab565b94509450505050612351565b60408351141561234857600080602085015191506040850151905061233d8683836127b8565b935093505050612351565b60006002915091505b9250929050565b61236181612806565b80606e60000181905550612373611f38565b50565b80606e6001018190555050565b6060600060028360026123969190613408565b6123a091906133b2565b67ffffffffffffffff8111156123b9576123b86129ba565b5b6040519080825280601f01601f1916602001820160405280156123eb5781602001600182028036833780820191505090505b5090507f30000000000000000000000000000000000000000000000000000000000000008160008151811061242357612422613fba565b5b60200101907effffffffffffffffffffffffffffffffffffffffffffffffffffffffffffff1916908160001a9053507f78000000000000000000000000000000000000000000000000000000000000008160018151811061248757612486613fba565b5b60200101907effffffffffffffffffffffffffffffffffffffffffffffffffffffffffffff1916908160001a905350600060018460026124c79190613408565b6124d191906133b2565b90505b6001811115612571577f3031323334353637383961626364656600000000000000000000000000000000600f86166010811061251357612512613fba565b5b1a60f81b82828151811061252a57612529613fba565b5b60200101907effffffffffffffffffffffffffffffffffffffffffffffffffffffffffffff1916908160001a905350600485901c94508061256a90613fe9565b90506124d4565b50600084146125b5576040517f08c379a00000000000000000000000000000000000000000000000000000000081526004016125ac9061405f565b60405180910390fd5b8091505092915050565b6000808273ffffffffffffffffffffffffffffffffffffffff163b119050919050565b600060019054906101000a900460ff16612631576040517f08c379a000000000000000000000000000000000000000000000000000000000815260040161262890613ef6565b60405180910390fd5b600082805190602001209050600082805190602001209050816034819055508060358190555050505050565b6000603454905090565b6000603554905090565b6000838383463060405160200161268c95949392919061407f565b6040516020818303038152906040528051906020012090509392505050565b6000807f7fffffffffffffffffffffffffffffff5d576e7357a4501ddfe92f46681b20a08360001c11156126e65760006003915091506127af565b601b8560ff16141580156126fe5750601c8560ff1614155b156127105760006004915091506127af565b60006001878787876040516000815260200160405260405161273594939291906140ee565b6020604051602081039080840390855afa158015612757573d6000803e3d6000fd5b505050602060405103519050600073ffffffffffffffffffffffffffffffffffffffff168173ffffffffffffffffffffffffffffffffffffffff1614156127a6576000600192509250506127af565b80600092509250505b94509492505050565b6000806000807f7fffffffffffffffffffffffffffffffffffffffffffffffffffffffffffffff85169150601b8560ff1c0190506127f8878288856126ab565b935093505050935093915050565b6000606e6000015414156128325780606b60008282546128269190613496565b9250508190555061286a565b606e60000154606b6000828254612849919061386f565b9250508190555080606b60008282546128629190613496565b925050819055505b50565b6000604051905090565b600080fd5b600080fd5b60007fffffffff0000000000000000000000000000000000000000000000000000000082169050919050565b6128b681612881565b81146128c157600080fd5b50565b6000813590506128d3816128ad565b92915050565b6000602082840312156128ef576128ee612877565b5b60006128fd848285016128c4565b91505092915050565b60008115159050919050565b61291b81612906565b82525050565b60006020820190506129366000830184612912565b92915050565b6000819050919050565b61294f8161293c565b811461295a57600080fd5b50565b60008135905061296c81612946565b92915050565b60006020828403121561298857612987612877565b5b60006129968482850161295d565b91505092915050565b600080fd5b600080fd5b6000601f19601f8301169050919050565b7f4e487b7100000000000000000000000000000000000000000000000000000000600052604160045260246000fd5b6129f2826129a9565b810181811067ffffffffffffffff82111715612a1157612a106129ba565b5b80604052505050565b6000612a2461286d565b9050612a3082826129e9565b919050565b600067ffffffffffffffff821115612a5057612a4f6129ba565b5b612a59826129a9565b9050602081019050919050565b82818337600083830152505050565b6000612a88612a8384612a35565b612a1a565b905082815260208101848484011115612aa457612aa36129a4565b5b612aaf848285612a66565b509392505050565b600082601f830112612acc57612acb61299f565b5b8135612adc848260208601612a75565b91505092915050565b600080fd5b6000819050919050565b612afd81612aea565b8114612b0857600080fd5b50565b600081359050612b1a81612af4565b92915050565b600073ffffffffffffffffffffffffffffffffffffffff82169050919050565b6000612b4b82612b20565b9050919050565b612b5b81612b40565b8114612b6657600080fd5b50565b600081359050612b7881612b52565b92915050565b600060808284031215612b9457612b93612ae5565b5b612b9e6080612a1a565b90506000612bae84828501612b0b565b6000830152506020612bc284828501612b0b565b6020830152506040612bd68482850161295d565b6040830152506060612bea84828501612b69565b60608301525092915050565b600080600060c08486031215612c0f57612c0e612877565b5b6000612c1d8682870161295d565b935050602084013567ffffffffffffffff811115612c3e57612c3d61287c565b5b612c4a86828701612ab7565b9250506040612c5b86828701612b7e565b9150509250925092565b6000819050919050565b612c7881612c65565b8114612c8357600080fd5b50565b600081359050612c9581612c6f565b92915050565b600060208284031215612cb157612cb0612877565b5b6000612cbf84828501612c86565b91505092915050565b612cd181612c65565b82525050565b6000602082019050612cec6000830184612cc8565b92915050565b60008060408385031215612d0957612d08612877565b5b6000612d1785828601612c86565b9250506020612d2885828601612b69565b9150509250929050565b612d3b8161293c565b82525050565b6000602082019050612d566000830184612d32565b92915050565b612d6581612906565b8114612d7057600080fd5b50565b600081359050612d8281612d5c565b92915050565b60008060408385031215612d9f57612d9e612877565b5b6000612dad85828601612d73565b9250506020612dbe8582860161295d565b9150509250929050565b612dd181612aea565b82525050565b6000602082019050612dec6000830184612dc8565b92915050565b600067ffffffffffffffff821115612e0d57612e0c6129ba565b5b612e16826129a9565b9050602081019050919050565b6000612e36612e3184612df2565b612a1a565b905082815260208101848484011115612e5257612e516129a4565b5b612e5d848285612a66565b509392505050565b600082601f830112612e7a57612e7961299f565b5b8135612e8a848260208601612e23565b91505092915050565b600080600080600060a08688031215612eaf57612eae612877565b5b6000612ebd88828901612b69565b9550506020612ece88828901612b69565b9450506040612edf88828901612b69565b935050606086013567ffffffffffffffff811115612f0057612eff61287c565b5b612f0c88828901612e65565b925050608086013567ffffffffffffffff811115612f2d57612f2c61287c565b5b612f3988828901612e65565b9150509295509295909350565b600060208284031215612f5c57612f5b612877565b5b6000612f6a84828501612b69565b91505092915050565b60008060a08385031215612f8a57612f89612877565b5b600083013567ffffffffffffffff811115612fa857612fa761287c565b5b612fb485828601612ab7565b9250506020612fc585828601612b7e565b9150509250929050565b612fd881612b40565b82525050565b6000608082019050612ff36000830187612dc8565b6130006020830186612dc8565b61300d6040830185612d32565b61301a6060830184612fcf565b95945050505050565b600060c0820190506130386000830189612cc8565b6130456020830188612fcf565b6130526040830187612dc8565b61305f6060830186612dc8565b61306c6080830185612d32565b61307960a0830184612d32565b979650505050505050565b600082825260208201905092915050565b7f486f757365506f6f6c555344433a20696e76616c6964207369676e6174757265600082015250565b60006130cb602083613084565b91506130d682613095565b602082019050919050565b600060208201905081810360008301526130fa816130be565b9050919050565b7f486f757365506f6f6c555344433a20696e76616c6964207369676e6572000000600082015250565b6000613137601d83613084565b915061314282613101565b602082019050919050565b600060208201905081810360008301526131668161312a565b9050919050565b7f486f757365506f6f6c555344433a20756e617574686f7269736564207369676e60008201527f6572000000000000000000000000000000000000000000000000000000000000602082015250565b60006131c9602283613084565b91506131d48261316d565b604082019050919050565b600060208201905081810360008301526131f8816131bc565b9050919050565b7f486f757365506f6f6c555344433a207369676e6564207472616e73616374696f60008201527f6e20657870697265640000000000000000000000000000000000000000000000602082015250565b600061325b602983613084565b9150613266826131ff565b604082019050919050565b6000602082019050818103600083015261328a8161324e565b9050919050565b7f416363657373436f6e74726f6c3a2063616e206f6e6c792072656e6f756e636560008201527f20726f6c657320666f722073656c660000000000000000000000000000000000602082015250565b60006132ed602f83613084565b91506132f882613291565b604082019050919050565b6000602082019050818103600083015261331c816132e0565b9050919050565b7f4e487b7100000000000000000000000000000000000000000000000000000000600052601260045260246000fd5b7f4e487b7100000000000000000000000000000000000000000000000000000000600052601160045260246000fd5b600061338c8261293c565b91506133978361293c565b9250826133a7576133a6613323565b5b828204905092915050565b60006133bd8261293c565b91506133c88361293c565b9250827fffffffffffffffffffffffffffffffffffffffffffffffffffffffffffffffff038211156133fd576133fc613352565b5b828201905092915050565b60006134138261293c565b915061341e8361293c565b9250817fffffffffffffffffffffffffffffffffffffffffffffffffffffffffffffffff048311821515161561345757613456613352565b5b828202905092915050565b600061346d8261293c565b91506134788361293c565b92508282101561348b5761348a613352565b5b828203905092915050565b60006134a182612aea565b91506134ac83612aea565b9250817f7fffffffffffffffffffffffffffffffffffffffffffffffffffffffffffffff038313600083121516156134e7576134e6613352565b5b817f800000000000000000000000000000000000000000000000000000000000000003831260008312161561351f5761351e613352565b5b828201905092915050565b7f496e697469616c697a61626c653a20636f6e747261637420697320616c72656160008201527f647920696e697469616c697a6564000000000000000000000000000000000000602082015250565b6000613586602e83613084565b91506135918261352a565b604082019050919050565b600060208201905081810360008301526135b581613579565b9050919050565b60008160011c9050919050565b6000808291508390505b6001851115613613578086048111156135ef576135ee613352565b5b60018516156135fe5780820291505b808102905061360c856135bc565b94506135d3565b94509492505050565b60008261362c57600190506136e8565b8161363a57600090506136e8565b8160018114613650576002811461365a57613689565b60019150506136e8565b60ff84111561366c5761366b613352565b5b8360020a91508482111561368357613682613352565b5b506136e8565b5060208310610133831016604e8410600b84101617156136be5782820a9050838111156136b9576136b8613352565b5b6136e8565b6136cb84848460016135c9565b925090508184048111156136e2576136e1613352565b5b81810290505b9392505050565b60006136fa8261293c565b91506137058361293c565b92506137327fffffffffffffffffffffffffffffffffffffffffffffffffffffffffffffffff848461361c565b905092915050565b600060208201905061374f6000830184612fcf565b92915050565b60008151905061376481612946565b92915050565b6000602082840312156137805761377f612877565b5b600061378e84828501613755565b91505092915050565b7f5265656e7472616e637947756172643a207265656e7472616e742063616c6c00600082015250565b60006137cd601f83613084565b91506137d882613797565b602082019050919050565b600060208201905081810360008301526137fc816137c0565b9050919050565b7f55534443486f757365506f6f6c3a205a65726f20416d6f756e74000000000000600082015250565b6000613839601a83613084565b915061384482613803565b602082019050919050565b600060208201905081810360008301526138688161382c565b9050919050565b600061387a82612aea565b915061388583612aea565b9250827f8000000000000000000000000000000000000000000000000000000000000000018212600084121516156138c0576138bf613352565b5b827f7fffffffffffffffffffffffffffffffffffffffffffffffffffffffffffffff0182136000841216156138f8576138f7613352565b5b828203905092915050565b600061390e82612aea565b915061391983612aea565b9250827f7fffffffffffffffffffffffffffffffffffffffffffffffffffffffffffffff048211600084136000841316161561395857613957613352565b5b817f8000000000000000000000000000000000000000000000000000000000000000058312600084126000841316161561399557613994613352565b5b827f800000000000000000000000000000000000000000000000000000000000000005821260008413600084121616156139d2576139d1613352565b5b827f7fffffffffffffffffffffffffffffffffffffffffffffffffffffffffffffff0582126000841260008412161615613a0f57613a0e613352565b5b828202905092915050565b7f55534443486f757365506f6f6c203a2063616e27742077697468647261770000600082015250565b6000613a50601e83613084565b9150613a5b82613a1a565b602082019050919050565b60006020820190508181036000830152613a7f81613a43565b9050919050565b6000604082019050613a9b6000830185612fcf565b613aa86020830184612d32565b9392505050565b600081519050613abe81612d5c565b92915050565b600060208284031215613ada57613ad9612877565b5b6000613ae884828501613aaf565b91505092915050565b7f4e487b7100000000000000000000000000000000000000000000000000000000600052602160045260246000fd5b600081519050919050565b600082825260208201905092915050565b60005b83811015613b5a578082015181840152602081019050613b3f565b83811115613b69576000848401525b50505050565b6000613b7a82613b20565b613b848185613b2b565b9350613b94818560208601613b3c565b613b9d816129a9565b840191505092915050565b6000604082019050613bbd6000830185612cc8565b8181036020830152613bcf8184613b6f565b90509392505050565b600081905092915050565b6000613bee82613b20565b613bf88185613bd8565b9350613c08818560208601613b3c565b80840191505092915050565b6000613c208284613be3565b915081905092915050565b600081519050613c3a816128ad565b92915050565b600060208284031215613c5657613c55612877565b5b6000613c6484828501613c2b565b91505092915050565b7f55534443486f757365506f6f6c3a20436865636b207468652042616c616e6365600082015250565b6000613ca3602083613084565b9150613cae82613c6d565b602082019050919050565b60006020820190508181036000830152613cd281613c96565b9050919050565b6000606082019050613cee6000830186612fcf565b613cfb6020830185612fcf565b613d086040830184612d32565b949350505050565b600081905092915050565b7f416363657373436f6e74726f6c3a206163636f756e7420000000000000000000600082015250565b6000613d51601783613d10565b9150613d5c82613d1b565b601782019050919050565b600081519050919050565b6000613d7d82613d67565b613d878185613d10565b9350613d97818560208601613b3c565b80840191505092915050565b7f206973206d697373696e6720726f6c6520000000000000000000000000000000600082015250565b6000613dd9601183613d10565b9150613de482613da3565b601182019050919050565b6000613dfa82613d44565b9150613e068285613d72565b9150613e1182613dcc565b9150613e1d8284613d72565b91508190509392505050565b6000613e3482613d67565b613e3e8185613084565b9350613e4e818560208601613b3c565b613e57816129a9565b840191505092915050565b60006020820190508181036000830152613e7c8184613e29565b905092915050565b7f496e697469616c697a61626c653a20636f6e7472616374206973206e6f74206960008201527f6e697469616c697a696e67000000000000000000000000000000000000000000602082015250565b6000613ee0602b83613084565b9150613eeb82613e84565b604082019050919050565b60006020820190508181036000830152613f0f81613ed3565b9050919050565b7f1901000000000000000000000000000000000000000000000000000000000000600082015250565b6000613f4c600283613d10565b9150613f5782613f16565b600282019050919050565b6000819050919050565b613f7d613f7882612c65565b613f62565b82525050565b6000613f8e82613f3f565b9150613f9a8285613f6c565b602082019150613faa8284613f6c565b6020820191508190509392505050565b7f4e487b7100000000000000000000000000000000000000000000000000000000600052603260045260246000fd5b6000613ff48261293c565b9150600082141561400857614007613352565b5b600182039050919050565b7f537472696e67733a20686578206c656e67746820696e73756666696369656e74600082015250565b6000614049602083613084565b915061405482614013565b602082019050919050565b600060208201905081810360008301526140788161403c565b9050919050565b600060a0820190506140946000830188612cc8565b6140a16020830187612cc8565b6140ae6040830186612cc8565b6140bb6060830185612d32565b6140c86080830184612fcf565b9695505050505050565b600060ff82169050919050565b6140e8816140d2565b82525050565b60006080820190506141036000830187612cc8565b61411060208301866140df565b61411d6040830185612cc8565b61412a6060830184612cc8565b9594505050505056fea26469706673582212205d3f25d507d05e92a02ca03db99bd7dd03f79dbb4cf4208239e3de00378bfa0864736f6c634300080a0033",
  "linkReferences": {},
  "deployedLinkReferences": {}
}