{
  "_format": "hh-sol-artifact-1",
  "contractName": "DAOStakingPool",
  "sourceName": "contracts/DAOStakingPool.sol",
  "abi": [
    {
      "anonymous": false,
      "inputs": [
        {
          "indexed": true,
          "internalType": "bytes32",
          "name": "role",
          "type": "bytes32"
        },
        {
          "indexed": true,
          "internalType": "bytes32",
          "name": "previousAdminRole",
          "type": "bytes32"
        },
        {
          "indexed": true,
          "internalType": "bytes32",
          "name": "newAdminRole",
          "type": "bytes32"
        }
      ],
      "name": "RoleAdminChanged",
      "type": "event"
    },
    {
      "anonymous": false,
      "inputs": [
        {
          "indexed": true,
          "internalType": "bytes32",
          "name": "role",
          "type": "bytes32"
        },
        {
          "indexed": true,
          "internalType": "address",
          "name": "account",
          "type": "address"
        },
        {
          "indexed": true,
          "internalType": "address",
          "name": "sender",
          "type": "address"
        }
      ],
      "name": "RoleGranted",
      "type": "event"
    },
    {
      "anonymous": false,
      "inputs": [
        {
          "indexed": true,
          "internalType": "bytes32",
          "name": "role",
          "type": "bytes32"
        },
        {
          "indexed": true,
          "internalType": "address",
          "name": "account",
          "type": "address"
        },
        {
          "indexed": true,
          "internalType": "address",
          "name": "sender",
          "type": "address"
        }
      ],
      "name": "RoleRevoked",
      "type": "event"
    },
    {
      "inputs": [],
      "name": "DATA_PROVIDER_ORACLE",
      "outputs": [
        {
          "internalType": "bytes32",
          "name": "",
          "type": "bytes32"
        }
      ],
      "stateMutability": "view",
      "type": "function"
    },
    {
      "inputs": [],
      "name": "DEFAULT_ADMIN_ROLE",
      "outputs": [
        {
          "internalType": "bytes32",
          "name": "",
          "type": "bytes32"
        }
      ],
      "stateMutability": "view",
      "type": "function"
    },
    {
      "inputs": [],
      "name": "HOUSE_POOL_DATA_PROVIDER",
      "outputs": [
        {
          "internalType": "bytes32",
          "name": "",
          "type": "bytes32"
        }
      ],
      "stateMutability": "view",
      "type": "function"
    },
    {
      "inputs": [
        {
          "internalType": "uint256",
          "name": "amountUSDC",
          "type": "uint256"
        },
        {
          "internalType": "bytes",
          "name": "approval",
          "type": "bytes"
        },
        {
          "components": [
            {
              "internalType": "int256",
              "name": "expectedValue",
              "type": "int256"
            },
            {
              "internalType": "int256",
              "name": "maxExposure",
              "type": "int256"
            },
            {
              "internalType": "uint256",
              "name": "deadline",
              "type": "uint256"
            },
            {
              "internalType": "address",
              "name": "signer",
              "type": "address"
            }
          ],
          "internalType": "struct DAOStakingPool.ValuesOfInterest",
          "name": "approvedValues",
          "type": "tuple"
        }
      ],
      "name": "deposit",
      "outputs": [],
      "stateMutability": "nonpayable",
      "type": "function"
    },
    {
      "inputs": [
        {
          "internalType": "uint256",
          "name": "usdcMicro",
          "type": "uint256"
        }
      ],
      "name": "deposit_",
      "outputs": [],
      "stateMutability": "nonpayable",
      "type": "function"
    },
    {
      "inputs": [],
      "name": "getEV",
      "outputs": [
        {
          "internalType": "int256",
          "name": "",
          "type": "int256"
        }
      ],
      "stateMutability": "view",
      "type": "function"
    },
    {
      "inputs": [],
      "name": "getLiquidityStatus",
      "outputs": [
        {
          "internalType": "uint256",
          "name": "",
          "type": "uint256"
        }
      ],
      "stateMutability": "view",
      "type": "function"
    },
    {
      "inputs": [],
      "name": "getMaxExposure",
      "outputs": [
        {
          "internalType": "int256",
          "name": "",
          "type": "int256"
        }
      ],
      "stateMutability": "view",
      "type": "function"
    },
    {
      "inputs": [
        {
          "internalType": "address",
          "name": "_user",
          "type": "address"
        }
      ],
      "name": "getMyLiquidity",
      "outputs": [
        {
          "internalType": "uint256",
          "name": "",
          "type": "uint256"
        }
      ],
      "stateMutability": "view",
      "type": "function"
    },
    {
      "inputs": [
        {
          "internalType": "bytes32",
          "name": "role",
          "type": "bytes32"
        }
      ],
      "name": "getRoleAdmin",
      "outputs": [
        {
          "internalType": "bytes32",
          "name": "",
          "type": "bytes32"
        }
      ],
      "stateMutability": "view",
      "type": "function"
    },
    {
      "inputs": [],
      "name": "getTVLofPool",
      "outputs": [
        {
          "internalType": "int256",
          "name": "",
          "type": "int256"
        }
      ],
      "stateMutability": "view",
      "type": "function"
    },
    {
      "inputs": [],
      "name": "getTokenPrice",
      "outputs": [
        {
          "internalType": "uint256",
          "name": "",
          "type": "uint256"
        }
      ],
      "stateMutability": "view",
      "type": "function"
    },
    {
      "inputs": [],
      "name": "getTokenWithdrawlPrice",
      "outputs": [
        {
          "internalType": "uint256",
          "name": "",
          "type": "uint256"
        }
      ],
      "stateMutability": "view",
      "type": "function"
    },
    {
      "inputs": [],
      "name": "getTreasuryAmount",
      "outputs": [
        {
          "internalType": "uint256",
          "name": "",
          "type": "uint256"
        }
      ],
      "stateMutability": "view",
      "type": "function"
    },
    {
      "inputs": [
        {
          "internalType": "bytes32",
          "name": "role",
          "type": "bytes32"
        },
        {
          "internalType": "address",
          "name": "account",
          "type": "address"
        }
      ],
      "name": "grantRole",
      "outputs": [],
      "stateMutability": "nonpayable",
      "type": "function"
    },
    {
      "inputs": [
        {
          "internalType": "bytes32",
          "name": "role",
          "type": "bytes32"
        },
        {
          "internalType": "address",
          "name": "account",
          "type": "address"
        }
      ],
      "name": "hasRole",
      "outputs": [
        {
          "internalType": "bool",
          "name": "",
          "type": "bool"
        }
      ],
      "stateMutability": "view",
      "type": "function"
    },
    {
      "inputs": [
        {
          "internalType": "address",
          "name": "_owner",
          "type": "address"
        },
        {
          "internalType": "address",
          "name": "_usdc",
          "type": "address"
        },
        {
          "internalType": "address",
          "name": "_claimToken",
          "type": "address"
        },
        {
          "internalType": "string",
          "name": "_name",
          "type": "string"
        },
        {
          "internalType": "string",
          "name": "_version",
          "type": "string"
        }
      ],
      "name": "initialize",
      "outputs": [],
      "stateMutability": "nonpayable",
      "type": "function"
    },
    {
      "inputs": [
        {
          "internalType": "address",
          "name": "owner",
          "type": "address"
        },
        {
          "internalType": "address",
          "name": "spender",
          "type": "address"
        },
        {
          "internalType": "uint256",
          "name": "value",
          "type": "uint256"
        },
        {
          "internalType": "uint256",
          "name": "deadline",
          "type": "uint256"
        },
        {
          "internalType": "uint256",
          "name": "amount",
          "type": "uint256"
        },
        {
          "internalType": "uint8",
          "name": "v",
          "type": "uint8"
        },
        {
          "internalType": "bytes32",
          "name": "r",
          "type": "bytes32"
        },
        {
          "internalType": "bytes32",
          "name": "s",
          "type": "bytes32"
        }
      ],
      "name": "newDeposit",
      "outputs": [],
      "stateMutability": "nonpayable",
      "type": "function"
    },
    {
      "inputs": [
        {
          "internalType": "bytes32",
          "name": "role",
          "type": "bytes32"
        },
        {
          "internalType": "address",
          "name": "account",
          "type": "address"
        }
      ],
      "name": "renounceRole",
      "outputs": [],
      "stateMutability": "nonpayable",
      "type": "function"
    },
    {
      "inputs": [
        {
          "internalType": "bytes32",
          "name": "role",
          "type": "bytes32"
        },
        {
          "internalType": "address",
          "name": "account",
          "type": "address"
        }
      ],
      "name": "revokeRole",
      "outputs": [],
      "stateMutability": "nonpayable",
      "type": "function"
    },
    {
      "inputs": [
        {
          "internalType": "bytes",
          "name": "sig_",
          "type": "bytes"
        },
        {
          "components": [
            {
              "internalType": "int256",
              "name": "expectedValue",
              "type": "int256"
            },
            {
              "internalType": "int256",
              "name": "maxExposure",
              "type": "int256"
            },
            {
              "internalType": "uint256",
              "name": "deadline",
              "type": "uint256"
            },
            {
              "internalType": "address",
              "name": "signer",
              "type": "address"
            }
          ],
          "internalType": "struct DAOStakingPool.ValuesOfInterest",
          "name": "voi_",
          "type": "tuple"
        }
      ],
      "name": "setVOI",
      "outputs": [],
      "stateMutability": "nonpayable",
      "type": "function"
    },
    {
      "inputs": [
        {
          "internalType": "bytes4",
          "name": "interfaceId",
          "type": "bytes4"
        }
      ],
      "name": "supportsInterface",
      "outputs": [
        {
          "internalType": "bool",
          "name": "",
          "type": "bool"
        }
      ],
      "stateMutability": "view",
      "type": "function"
    },
    {
      "inputs": [],
      "name": "voi",
      "outputs": [
        {
          "internalType": "int256",
          "name": "expectedValue",
          "type": "int256"
        },
        {
          "internalType": "int256",
          "name": "maxExposure",
          "type": "int256"
        },
        {
          "internalType": "uint256",
          "name": "deadline",
          "type": "uint256"
        },
        {
          "internalType": "address",
          "name": "signer",
          "type": "address"
        }
      ],
      "stateMutability": "view",
      "type": "function"
    },
    {
      "inputs": [
        {
          "internalType": "uint256",
          "name": "amountUSDC",
          "type": "uint256"
        },
        {
          "internalType": "bytes",
          "name": "approval",
          "type": "bytes"
        },
        {
          "components": [
            {
              "internalType": "int256",
              "name": "expectedValue",
              "type": "int256"
            },
            {
              "internalType": "int256",
              "name": "maxExposure",
              "type": "int256"
            },
            {
              "internalType": "uint256",
              "name": "deadline",
              "type": "uint256"
            },
            {
              "internalType": "address",
              "name": "signer",
              "type": "address"
            }
          ],
          "internalType": "struct DAOStakingPool.ValuesOfInterest",
          "name": "approvedValues",
          "type": "tuple"
        }
      ],
      "name": "withdraw",
      "outputs": [],
      "stateMutability": "nonpayable",
      "type": "function"
    },
    {
      "inputs": [
        {
          "internalType": "uint256",
          "name": "usdcMicro",
          "type": "uint256"
        }
      ],
      "name": "withdraw_",
      "outputs": [],
      "stateMutability": "nonpayable",
      "type": "function"
    }
  ],
  "bytecode": "0x608060405234801561001057600080fd5b50614205806100206000396000f3fe608060405234801561001057600080fd5b50600436106101735760003560e01c80635a5d6223116100de578063a43f324111610097578063cd08a1df11610071578063cd08a1df14610427578063d547741f14610445578063d75d07c214610461578063e20fcf001461047f57610173565b8063a43f3241146103cc578063b3ce2524146103e8578063be1cd7121461040657610173565b80635a5d6223146102f8578063639c066d1461031657806383b435891461033257806391d148541461034e578063a1cd22321461037e578063a217fddf146103ae57610173565b80632f2ff15d116101305780632f2ff15d1461024857806336568abe146102645780633c0717fd146102805780634b94f50e1461029e578063508c81a2146102bc57806353f52847146102da57610173565b806301ffc9a714610178578063073ad817146101a85780630f5a5e18146101c457806320ab7449146101e0578063218f296e146101fc578063248a9ca314610218575b600080fd5b610192600480360381019061018d919061282d565b61049d565b60405161019f9190612875565b60405180910390f35b6101c260048036038101906101bd9190612993565b610517565b005b6101de60048036038101906101d99190612a49565b610539565b005b6101fa60048036038101906101f59190612c6f565b610545565b005b61021660048036038101906102119190612c6f565b610786565b005b610232600480360381019061022d9190612cde565b6109c7565b60405161023f9190612d1a565b60405180910390f35b610262600480360381019061025d9190612d35565b6109e7565b005b61027e60048036038101906102799190612d35565b610a10565b005b610288610a93565b6040516102959190612d84565b60405180910390f35b6102a6610a9d565b6040516102b39190612d84565b60405180910390f35b6102c4610aa7565b6040516102d19190612d1a565b60405180910390f35b6102e2610acb565b6040516102ef9190612dae565b60405180910390f35b610300610ad5565b60405161030d9190612dae565b60405180910390f35b610330600480360381019061032b9190612a49565b610ae2565b005b61034c60048036038101906103479190612e6a565b610aee565b005b61036860048036038101906103639190612d35565b610cb2565b6040516103759190612875565b60405180910390f35b61039860048036038101906103939190612f1d565b610d1d565b6040516103a59190612d84565b60405180910390f35b6103b6610de7565b6040516103c39190612d1a565b60405180910390f35b6103e660048036038101906103e19190612f4a565b610dee565b005b6103f0611058565b6040516103fd9190612d84565b60405180910390f35b61040e611062565b60405161041e9493929190612fb5565b60405180910390f35b61042f6110a0565b60405161043c9190612dae565b60405180910390f35b61045f600480360381019061045a9190612d35565b6110ad565b005b6104696110d6565b6040516104769190612d1a565b60405180910390f35b6104876110fa565b6040516104949190612d84565b60405180910390f35b60007f7965db0b000000000000000000000000000000000000000000000000000000007bffffffffffffffffffffffffffffffffffffffffffffffffffffffff1916827bffffffffffffffffffffffffffffffffffffffffffffffffffffffff19161480610510575061050f82611104565b5b9050919050565b6105268888888887878761116e565b61052f84611210565b5050505050505050565b610542816115a7565b50565b808260006105f57f382f778b38ac8a684a068262bd90ef9739279743851e0bc20a2bf85f56a2550c84606001518560000151866020015160756000896060015173ffffffffffffffffffffffffffffffffffffffff1673ffffffffffffffffffffffffffffffffffffffff1681526020019081526020016000205488604001516040516020016105da96959493929190612ffa565b604051602081830303815290604052805190602001206119e6565b905061060683606001518284611a00565b610645576040517f08c379a000000000000000000000000000000000000000000000000000000000815260040161063c906130de565b60405180910390fd5b600073ffffffffffffffffffffffffffffffffffffffff16836060015173ffffffffffffffffffffffffffffffffffffffff1614156106b9576040517f08c379a00000000000000000000000000000000000000000000000000000000081526004016106b09061314a565b60405180910390fd5b6106e77feed754290b7b7033469899aa55827c9480fc90a4843b45b7f455d0ac50d3e6ce8460600151610cb2565b610726576040517f08c379a000000000000000000000000000000000000000000000000000000000815260040161071d906131dc565b60405180910390fd5b8260400151431061076c576040517f08c379a00000000000000000000000000000000000000000000000000000000081526004016107639061326e565b60405180910390fd5b61077584611be5565b61077e866115a7565b505050505050565b808260006108367f382f778b38ac8a684a068262bd90ef9739279743851e0bc20a2bf85f56a2550c84606001518560000151866020015160756000896060015173ffffffffffffffffffffffffffffffffffffffff1673ffffffffffffffffffffffffffffffffffffffff16815260200190815260200160002054886040015160405160200161081b96959493929190612ffa565b604051602081830303815290604052805190602001206119e6565b905061084783606001518284611a00565b610886576040517f08c379a000000000000000000000000000000000000000000000000000000000815260040161087d906130de565b60405180910390fd5b600073ffffffffffffffffffffffffffffffffffffffff16836060015173ffffffffffffffffffffffffffffffffffffffff1614156108fa576040517f08c379a00000000000000000000000000000000000000000000000000000000081526004016108f19061314a565b60405180910390fd5b6109287feed754290b7b7033469899aa55827c9480fc90a4843b45b7f455d0ac50d3e6ce8460600151610cb2565b610967576040517f08c379a000000000000000000000000000000000000000000000000000000000815260040161095e906131dc565b60405180910390fd5b826040015143106109ad576040517f08c379a00000000000000000000000000000000000000000000000000000000081526004016109a49061326e565b60405180910390fd5b6109b684611be5565b6109bf86611210565b505050505050565b600060336000838152602001908152602001600020600101549050919050565b6109f0826109c7565b610a01816109fc611c24565b611c2c565b610a0b8383611cc9565b505050565b610a18611c24565b73ffffffffffffffffffffffffffffffffffffffff168173ffffffffffffffffffffffffffffffffffffffff1614610a85576040517f08c379a0000000000000000000000000000000000000000000000000000000008152600401610a7c90613300565b60405180910390fd5b610a8f8282611daa565b5050565b6000606954905090565b6000607354905090565b7fce95e3899a3f9149fc26a34674875210907ee3c0dddf61ac603f89e90c1b5f9e81565b6000606b54905090565b6000606e60010154905090565b610aeb81611210565b50565b600060019054906101000a900460ff16610b165760008054906101000a900460ff1615610b1f565b610b1e611e8c565b5b610b5e576040517f08c379a0000000000000000000000000000000000000000000000000000000008152600401610b5590613392565b60405180910390fd5b60008060019054906101000a900460ff161590508015610bae576001600060016101000a81548160ff02191690831515021790555060016000806101000a81548160ff0219169083151502179055505b610bb88383611e9d565b84606c60006101000a81548173ffffffffffffffffffffffffffffffffffffffff021916908373ffffffffffffffffffffffffffffffffffffffff16021790555083606d60006101000a81548173ffffffffffffffffffffffffffffffffffffffff021916908373ffffffffffffffffffffffffffffffffffffffff160217905550610c476000801b87611efa565b6012600a610c559190613514565b6103e8610c62919061355f565b6073819055506012600a610c769190613514565b6103e8610c83919061355f565b6074819055508015610caa5760008060016101000a81548160ff0219169083151502179055505b505050505050565b60006033600084815260200190815260200160002060000160008373ffffffffffffffffffffffffffffffffffffffff1673ffffffffffffffffffffffffffffffffffffffff16815260200190815260200160002060009054906101000a900460ff16905092915050565b60006012600a610d2d9190613514565b607354606d60009054906101000a900473ffffffffffffffffffffffffffffffffffffffff1673ffffffffffffffffffffffffffffffffffffffff166370a08231856040518263ffffffff1660e01b8152600401610d8b91906135b9565b602060405180830381865afa158015610da8573d6000803e3d6000fd5b505050506040513d601f19601f82011682018060405250810190610dcc91906135e9565b610dd6919061355f565b610de09190613645565b9050919050565b6000801b81565b80826000610e9e7f382f778b38ac8a684a068262bd90ef9739279743851e0bc20a2bf85f56a2550c84606001518560000151866020015160756000896060015173ffffffffffffffffffffffffffffffffffffffff1673ffffffffffffffffffffffffffffffffffffffff168152602001908152602001600020548860400151604051602001610e8396959493929190612ffa565b604051602081830303815290604052805190602001206119e6565b9050610eaf83606001518284611a00565b610eee576040517f08c379a0000000000000000000000000000000000000000000000000000000008152600401610ee5906130de565b60405180910390fd5b600073ffffffffffffffffffffffffffffffffffffffff16836060015173ffffffffffffffffffffffffffffffffffffffff161415610f62576040517f08c379a0000000000000000000000000000000000000000000000000000000008152600401610f599061314a565b60405180910390fd5b610f907feed754290b7b7033469899aa55827c9480fc90a4843b45b7f455d0ac50d3e6ce8460600151610cb2565b610fcf576040517f08c379a0000000000000000000000000000000000000000000000000000000008152600401610fc6906131dc565b60405180910390fd5b82604001514310611015576040517f08c379a000000000000000000000000000000000000000000000000000000000815260040161100c9061326e565b60405180910390fd5b7fce95e3899a3f9149fc26a34674875210907ee3c0dddf61ac603f89e90c1b5f9e61104781611042611c24565b611c2c565b61105085611be5565b505050505050565b6000607454905090565b606e8060000154908060010154908060020154908060030160009054906101000a900473ffffffffffffffffffffffffffffffffffffffff16905084565b6000606e60000154905090565b6110b6826109c7565b6110c7816110c2611c24565b611c2c565b6110d18383611daa565b505050565b7feed754290b7b7033469899aa55827c9480fc90a4843b45b7f455d0ac50d3e6ce81565b6000606a54905090565b60007f01ffc9a7000000000000000000000000000000000000000000000000000000007bffffffffffffffffffffffffffffffffffffffffffffffffffffffff1916827bffffffffffffffffffffffffffffffffffffffffffffffffffffffff1916149050919050565b606c60009054906101000a900473ffffffffffffffffffffffffffffffffffffffff1673ffffffffffffffffffffffffffffffffffffffff1663d505accf888888888888886040518863ffffffff1660e01b81526004016111d59796959493929190613685565b600060405180830381600087803b1580156111ef57600080fd5b505af1158015611203573d6000803e3d6000fd5b5050505050505050505050565b60026001541415611256576040517f08c379a000000000000000000000000000000000000000000000000000000000815260040161124d90613740565b60405180910390fd5b60026001819055506000811180156113095750606c60009054906101000a900473ffffffffffffffffffffffffffffffffffffffff1673ffffffffffffffffffffffffffffffffffffffff166370a08231336040518263ffffffff1660e01b81526004016112c491906135b9565b602060405180830381865afa1580156112e1573d6000803e3d6000fd5b505050506040513d601f19601f8201168201806040525081019061130591906135e9565b8111155b611348576040517f08c379a000000000000000000000000000000000000000000000000000000000815260040161133f906137d2565b60405180910390fd5b6008600a6113569190613514565b81611361919061355f565b6069600082825461137291906137f2565b925050819055506008600a6113879190613514565b81611392919061355f565b606b60008282546113a39190613848565b925050819055506008600a6113b89190613514565b816113c3919061355f565b607660003373ffffffffffffffffffffffffffffffffffffffff1673ffffffffffffffffffffffffffffffffffffffff168152602001908152602001600020600082825461141191906137f2565b92505081905550606c60009054906101000a900473ffffffffffffffffffffffffffffffffffffffff1673ffffffffffffffffffffffffffffffffffffffff166323b872dd3330846040518463ffffffff1660e01b8152600401611477939291906138dc565b6020604051808303816000875af1158015611496573d6000803e3d6000fd5b505050506040513d601f19601f820116820180604052508101906114ba919061393f565b5060006073546012600a6114ce9190613514565b6008600a6114dc9190613514565b846114e7919061355f565b6114f1919061355f565b6114fb9190613645565b9050606d60009054906101000a900473ffffffffffffffffffffffffffffffffffffffff1673ffffffffffffffffffffffffffffffffffffffff166340c10f1933836040518363ffffffff1660e01b815260040161155a92919061396c565b600060405180830381600087803b15801561157457600080fd5b505af1158015611588573d6000803e3d6000fd5b50505050611594611f08565b61159c61205f565b506001808190555050565b600260015414156115ed576040517f08c379a00000000000000000000000000000000000000000000000000000000081526004016115e490613740565b60405180910390fd5b600260018190555060008111611638576040517f08c379a000000000000000000000000000000000000000000000000000000000815260040161162f906139e1565b60405180910390fd5b6074546012600a6116499190613514565b606d60009054906101000a900473ffffffffffffffffffffffffffffffffffffffff1673ffffffffffffffffffffffffffffffffffffffff166370a08231336040518263ffffffff1660e01b81526004016116a491906135b9565b602060405180830381865afa1580156116c1573d6000803e3d6000fd5b505050506040513d601f19601f820116820180604052508101906116e591906135e9565b6116ef9190613645565b6116f9919061355f565b6008600a6117079190613514565b82611712919061355f565b1115801561174a5750606e6001015460695461172e9190613a01565b6008600a61173c9190613514565b826117479190613a95565b13155b611789576040517f08c379a000000000000000000000000000000000000000000000000000000000815260040161178090613bf8565b60405180910390fd5b60006074546012600a61179c9190613514565b6008600a6117aa9190613514565b846117b5919061355f565b6117bf919061355f565b6117c99190613645565b90506008600a6117d99190613514565b826117e4919061355f565b606960008282546117f59190613c18565b925050819055506008600a61180a9190613514565b826118159190613a95565b606b60008282546118269190613a01565b925050819055506008600a61183b9190613514565b82611846919061355f565b607660003373ffffffffffffffffffffffffffffffffffffffff1673ffffffffffffffffffffffffffffffffffffffff16815260200190815260200160002060008282546118949190613c18565b92505081905550606c60009054906101000a900473ffffffffffffffffffffffffffffffffffffffff1673ffffffffffffffffffffffffffffffffffffffff1663a9059cbb33846040518363ffffffff1660e01b81526004016118f892919061396c565b6020604051808303816000875af1158015611917573d6000803e3d6000fd5b505050506040513d601f19601f8201168201806040525081019061193b919061393f565b50606d60009054906101000a900473ffffffffffffffffffffffffffffffffffffffff1673ffffffffffffffffffffffffffffffffffffffff16639dc29fac33836040518363ffffffff1660e01b815260040161199992919061396c565b600060405180830381600087803b1580156119b357600080fd5b505af11580156119c7573d6000803e3d6000fd5b505050506119d361205f565b6119db611f08565b506001808190555050565b60006119f96119f36121b6565b836121f6565b9050919050565b6000806000611a0f8585612229565b9150915060006004811115611a2757611a26613c4c565b5b816004811115611a3a57611a39613c4c565b5b148015611a7257508573ffffffffffffffffffffffffffffffffffffffff168273ffffffffffffffffffffffffffffffffffffffff16145b15611a8257600192505050611bde565b6000808773ffffffffffffffffffffffffffffffffffffffff16631626ba7e60e01b8888604051602401611ab7929190613d03565b604051602081830303815290604052907bffffffffffffffffffffffffffffffffffffffffffffffffffffffff19166020820180517bffffffffffffffffffffffffffffffffffffffffffffffffffffffff8381831617835250505050604051611b219190613d6f565b600060405180830381855afa9150503d8060008114611b5c576040519150601f19603f3d011682016040523d82523d6000602084013e611b61565b606091505b5091509150818015611b74575060208151145b8015611bd75750631626ba7e60e01b7bffffffffffffffffffffffffffffffffffffffffffffffffffffffff191681806020019051810190611bb69190613d9b565b7bffffffffffffffffffffffffffffffffffffffffffffffffffffffff1916145b9450505050505b9392505050565b606e60000154816000015114611c0357611c0281600001516122ac565b5b606e60010154816020015114611c2157611c2081602001516122ca565b5b50565b600033905090565b611c368282610cb2565b611cc557611c5b8173ffffffffffffffffffffffffffffffffffffffff1660146122d7565b611c698360001c60206122d7565b604051602001611c7a929190613ea7565b6040516020818303038152906040526040517f08c379a0000000000000000000000000000000000000000000000000000000008152600401611cbc9190613f1a565b60405180910390fd5b5050565b611cd38282610cb2565b611da65760016033600084815260200190815260200160002060000160008373ffffffffffffffffffffffffffffffffffffffff1673ffffffffffffffffffffffffffffffffffffffff16815260200190815260200160002060006101000a81548160ff021916908315150217905550611d4b611c24565b73ffffffffffffffffffffffffffffffffffffffff168173ffffffffffffffffffffffffffffffffffffffff16837f2f8788117e7eff1d82e926ec794901d17c78024a50270940304540a733656f0d60405160405180910390a45b5050565b611db48282610cb2565b15611e885760006033600084815260200190815260200160002060000160008373ffffffffffffffffffffffffffffffffffffffff1673ffffffffffffffffffffffffffffffffffffffff16815260200190815260200160002060006101000a81548160ff021916908315150217905550611e2d611c24565b73ffffffffffffffffffffffffffffffffffffffff168173ffffffffffffffffffffffffffffffffffffffff16837ff6391f5c32d9c69d2a47ea670b442974b53935d1edc7fd64eb21e047a839171b60405160405180910390a45b5050565b6000611e9730612513565b15905090565b600060019054906101000a900460ff16611eec576040517f08c379a0000000000000000000000000000000000000000000000000000000008152600401611ee390613fae565b60405180910390fd5b611ef68282612536565b5050565b611f048282611cc9565b5050565b6000606d60009054906101000a900473ffffffffffffffffffffffffffffffffffffffff1673ffffffffffffffffffffffffffffffffffffffff166318160ddd6040518163ffffffff1660e01b8152600401602060405180830381865afa158015611f77573d6000803e3d6000fd5b505050506040513d601f19601f82011682018060405250810190611f9b91906135e9565b1461205d57606d60009054906101000a900473ffffffffffffffffffffffffffffffffffffffff1673ffffffffffffffffffffffffffffffffffffffff166318160ddd6040518163ffffffff1660e01b8152600401602060405180830381865afa15801561200d573d6000803e3d6000fd5b505050506040513d601f19601f8201168201806040525081019061203191906135e9565b6012600a61203f9190613514565b606b5461204c919061355f565b6120569190613645565b6073819055505b565b6000606d60009054906101000a900473ffffffffffffffffffffffffffffffffffffffff1673ffffffffffffffffffffffffffffffffffffffff166318160ddd6040518163ffffffff1660e01b8152600401602060405180830381865afa1580156120ce573d6000803e3d6000fd5b505050506040513d601f19601f820116820180604052508101906120f291906135e9565b146121b457606d60009054906101000a900473ffffffffffffffffffffffffffffffffffffffff1673ffffffffffffffffffffffffffffffffffffffff166318160ddd6040518163ffffffff1660e01b8152600401602060405180830381865afa158015612164573d6000803e3d6000fd5b505050506040513d601f19601f8201168201806040525081019061218891906135e9565b6012600a6121969190613514565b6069546121a3919061355f565b6121ad9190613645565b6074819055505b565b60006121f17f8b73c3c69bb8fe3d512ecc4cf759cc79239f7b179b0ffacaa9a75d522b39400f6121e46125b1565b6121ec6125bb565b6125c5565b905090565b6000828260405160200161220b92919061403b565b60405160208183030381529060405280519060200120905092915050565b60008060418351141561226b5760008060006020860151925060408601519150606086015160001a905061225f878285856125ff565b945094505050506122a5565b60408351141561229c57600080602085015191506040850151905061229186838361270c565b9350935050506122a5565b60006002915091505b9250929050565b6122b58161275a565b80606e600001819055506122c7611f08565b50565b80606e6001018190555050565b6060600060028360026122ea919061355f565b6122f491906137f2565b67ffffffffffffffff81111561230d5761230c612a91565b5b6040519080825280601f01601f19166020018201604052801561233f5781602001600182028036833780820191505090505b5090507f30000000000000000000000000000000000000000000000000000000000000008160008151811061237757612376614072565b5b60200101907effffffffffffffffffffffffffffffffffffffffffffffffffffffffffffff1916908160001a9053507f7800000000000000000000000000000000000000000000000000000000000000816001815181106123db576123da614072565b5b60200101907effffffffffffffffffffffffffffffffffffffffffffffffffffffffffffff1916908160001a9053506000600184600261241b919061355f565b61242591906137f2565b90505b60018111156124c5577f3031323334353637383961626364656600000000000000000000000000000000600f86166010811061246757612466614072565b5b1a60f81b82828151811061247e5761247d614072565b5b60200101907effffffffffffffffffffffffffffffffffffffffffffffffffffffffffffff1916908160001a905350600485901c9450806124be906140a1565b9050612428565b5060008414612509576040517f08c379a000000000000000000000000000000000000000000000000000000000815260040161250090614117565b60405180910390fd5b8091505092915050565b6000808273ffffffffffffffffffffffffffffffffffffffff163b119050919050565b600060019054906101000a900460ff16612585576040517f08c379a000000000000000000000000000000000000000000000000000000000815260040161257c90613fae565b60405180910390fd5b600082805190602001209050600082805190602001209050816034819055508060358190555050505050565b6000603454905090565b6000603554905090565b600083838346306040516020016125e0959493929190614137565b6040516020818303038152906040528051906020012090509392505050565b6000807f7fffffffffffffffffffffffffffffff5d576e7357a4501ddfe92f46681b20a08360001c111561263a576000600391509150612703565b601b8560ff16141580156126525750601c8560ff1614155b15612664576000600491509150612703565b600060018787878760405160008152602001604052604051612689949392919061418a565b6020604051602081039080840390855afa1580156126ab573d6000803e3d6000fd5b505050602060405103519050600073ffffffffffffffffffffffffffffffffffffffff168173ffffffffffffffffffffffffffffffffffffffff1614156126fa57600060019250925050612703565b80600092509250505b94509492505050565b6000806000807f7fffffffffffffffffffffffffffffffffffffffffffffffffffffffffffffff85169150601b8560ff1c01905061274c878288856125ff565b935093505050935093915050565b6000606e6000015414156127865780606b600082825461277a9190613848565b925050819055506127be565b606e60000154606b600082825461279d9190613a01565b9250508190555080606b60008282546127b69190613848565b925050819055505b50565b6000604051905090565b600080fd5b600080fd5b60007fffffffff0000000000000000000000000000000000000000000000000000000082169050919050565b61280a816127d5565b811461281557600080fd5b50565b60008135905061282781612801565b92915050565b600060208284031215612843576128426127cb565b5b600061285184828501612818565b91505092915050565b60008115159050919050565b61286f8161285a565b82525050565b600060208201905061288a6000830184612866565b92915050565b600073ffffffffffffffffffffffffffffffffffffffff82169050919050565b60006128bb82612890565b9050919050565b6128cb816128b0565b81146128d657600080fd5b50565b6000813590506128e8816128c2565b92915050565b6000819050919050565b612901816128ee565b811461290c57600080fd5b50565b60008135905061291e816128f8565b92915050565b600060ff82169050919050565b61293a81612924565b811461294557600080fd5b50565b60008135905061295781612931565b92915050565b6000819050919050565b6129708161295d565b811461297b57600080fd5b50565b60008135905061298d81612967565b92915050565b600080600080600080600080610100898b0312156129b4576129b36127cb565b5b60006129c28b828c016128d9565b98505060206129d38b828c016128d9565b97505060406129e48b828c0161290f565b96505060606129f58b828c0161290f565b9550506080612a068b828c0161290f565b94505060a0612a178b828c01612948565b93505060c0612a288b828c0161297e565b92505060e0612a398b828c0161297e565b9150509295985092959890939650565b600060208284031215612a5f57612a5e6127cb565b5b6000612a6d8482850161290f565b91505092915050565b600080fd5b600080fd5b6000601f19601f8301169050919050565b7f4e487b7100000000000000000000000000000000000000000000000000000000600052604160045260246000fd5b612ac982612a80565b810181811067ffffffffffffffff82111715612ae857612ae7612a91565b5b80604052505050565b6000612afb6127c1565b9050612b078282612ac0565b919050565b600067ffffffffffffffff821115612b2757612b26612a91565b5b612b3082612a80565b9050602081019050919050565b82818337600083830152505050565b6000612b5f612b5a84612b0c565b612af1565b905082815260208101848484011115612b7b57612b7a612a7b565b5b612b86848285612b3d565b509392505050565b600082601f830112612ba357612ba2612a76565b5b8135612bb3848260208601612b4c565b91505092915050565b600080fd5b6000819050919050565b612bd481612bc1565b8114612bdf57600080fd5b50565b600081359050612bf181612bcb565b92915050565b600060808284031215612c0d57612c0c612bbc565b5b612c176080612af1565b90506000612c2784828501612be2565b6000830152506020612c3b84828501612be2565b6020830152506040612c4f8482850161290f565b6040830152506060612c63848285016128d9565b60608301525092915050565b600080600060c08486031215612c8857612c876127cb565b5b6000612c968682870161290f565b935050602084013567ffffffffffffffff811115612cb757612cb66127d0565b5b612cc386828701612b8e565b9250506040612cd486828701612bf7565b9150509250925092565b600060208284031215612cf457612cf36127cb565b5b6000612d028482850161297e565b91505092915050565b612d148161295d565b82525050565b6000602082019050612d2f6000830184612d0b565b92915050565b60008060408385031215612d4c57612d4b6127cb565b5b6000612d5a8582860161297e565b9250506020612d6b858286016128d9565b9150509250929050565b612d7e816128ee565b82525050565b6000602082019050612d996000830184612d75565b92915050565b612da881612bc1565b82525050565b6000602082019050612dc36000830184612d9f565b92915050565b600067ffffffffffffffff821115612de457612de3612a91565b5b612ded82612a80565b9050602081019050919050565b6000612e0d612e0884612dc9565b612af1565b905082815260208101848484011115612e2957612e28612a7b565b5b612e34848285612b3d565b509392505050565b600082601f830112612e5157612e50612a76565b5b8135612e61848260208601612dfa565b91505092915050565b600080600080600060a08688031215612e8657612e856127cb565b5b6000612e94888289016128d9565b9550506020612ea5888289016128d9565b9450506040612eb6888289016128d9565b935050606086013567ffffffffffffffff811115612ed757612ed66127d0565b5b612ee388828901612e3c565b925050608086013567ffffffffffffffff811115612f0457612f036127d0565b5b612f1088828901612e3c565b9150509295509295909350565b600060208284031215612f3357612f326127cb565b5b6000612f41848285016128d9565b91505092915050565b60008060a08385031215612f6157612f606127cb565b5b600083013567ffffffffffffffff811115612f7f57612f7e6127d0565b5b612f8b85828601612b8e565b9250506020612f9c85828601612bf7565b9150509250929050565b612faf816128b0565b82525050565b6000608082019050612fca6000830187612d9f565b612fd76020830186612d9f565b612fe46040830185612d75565b612ff16060830184612fa6565b95945050505050565b600060c08201905061300f6000830189612d0b565b61301c6020830188612fa6565b6130296040830187612d9f565b6130366060830186612d9f565b6130436080830185612d75565b61305060a0830184612d75565b979650505050505050565b600082825260208201905092915050565b7f44414f5374616b696e67506f6f6c3a20696e76616c6964207369676e6174757260008201527f6500000000000000000000000000000000000000000000000000000000000000602082015250565b60006130c860218361305b565b91506130d38261306c565b604082019050919050565b600060208201905081810360008301526130f7816130bb565b9050919050565b7f44414f5374616b696e67506f6f6c3a20696e76616c6964207369676e65720000600082015250565b6000613134601e8361305b565b915061313f826130fe565b602082019050919050565b6000602082019050818103600083015261316381613127565b9050919050565b7f44414f5374616b696e67506f6f6c3a20756e617574686f72697365642073696760008201527f6e65720000000000000000000000000000000000000000000000000000000000602082015250565b60006131c660238361305b565b91506131d18261316a565b604082019050919050565b600060208201905081810360008301526131f5816131b9565b9050919050565b7f44414f5374616b696e67506f6f6c3a207369676e6564207472616e736163746960008201527f6f6e206578706972656400000000000000000000000000000000000000000000602082015250565b6000613258602a8361305b565b9150613263826131fc565b604082019050919050565b600060208201905081810360008301526132878161324b565b9050919050565b7f416363657373436f6e74726f6c3a2063616e206f6e6c792072656e6f756e636560008201527f20726f6c657320666f722073656c660000000000000000000000000000000000602082015250565b60006132ea602f8361305b565b91506132f58261328e565b604082019050919050565b60006020820190508181036000830152613319816132dd565b9050919050565b7f496e697469616c697a61626c653a20636f6e747261637420697320616c72656160008201527f647920696e697469616c697a6564000000000000000000000000000000000000602082015250565b600061337c602e8361305b565b915061338782613320565b604082019050919050565b600060208201905081810360008301526133ab8161336f565b9050919050565b7f4e487b7100000000000000000000000000000000000000000000000000000000600052601160045260246000fd5b60008160011c9050919050565b6000808291508390505b600185111561343857808604811115613414576134136133b2565b5b60018516156134235780820291505b8081029050613431856133e1565b94506133f8565b94509492505050565b600082613451576001905061350d565b8161345f576000905061350d565b8160018114613475576002811461347f576134ae565b600191505061350d565b60ff841115613491576134906133b2565b5b8360020a9150848211156134a8576134a76133b2565b5b5061350d565b5060208310610133831016604e8410600b84101617156134e35782820a9050838111156134de576134dd6133b2565b5b61350d565b6134f084848460016133ee565b92509050818404811115613507576135066133b2565b5b81810290505b9392505050565b600061351f826128ee565b915061352a836128ee565b92506135577fffffffffffffffffffffffffffffffffffffffffffffffffffffffffffffffff8484613441565b905092915050565b600061356a826128ee565b9150613575836128ee565b9250817fffffffffffffffffffffffffffffffffffffffffffffffffffffffffffffffff04831182151516156135ae576135ad6133b2565b5b828202905092915050565b60006020820190506135ce6000830184612fa6565b92915050565b6000815190506135e3816128f8565b92915050565b6000602082840312156135ff576135fe6127cb565b5b600061360d848285016135d4565b91505092915050565b7f4e487b7100000000000000000000000000000000000000000000000000000000600052601260045260246000fd5b6000613650826128ee565b915061365b836128ee565b92508261366b5761366a613616565b5b828204905092915050565b61367f81612924565b82525050565b600060e08201905061369a600083018a612fa6565b6136a76020830189612fa6565b6136b46040830188612d75565b6136c16060830187612d75565b6136ce6080830186613676565b6136db60a0830185612d0b565b6136e860c0830184612d0b565b98975050505050505050565b7f5265656e7472616e637947756172643a207265656e7472616e742063616c6c00600082015250565b600061372a601f8361305b565b9150613735826136f4565b602082019050919050565b600060208201905081810360008301526137598161371d565b9050919050565b7f44414f5374616b696e67506f6f6c3a20436865636b207468652042616c616e6360008201527f6500000000000000000000000000000000000000000000000000000000000000602082015250565b60006137bc60218361305b565b91506137c782613760565b604082019050919050565b600060208201905081810360008301526137eb816137af565b9050919050565b60006137fd826128ee565b9150613808836128ee565b9250827fffffffffffffffffffffffffffffffffffffffffffffffffffffffffffffffff0382111561383d5761383c6133b2565b5b828201905092915050565b600061385382612bc1565b915061385e83612bc1565b9250817f7fffffffffffffffffffffffffffffffffffffffffffffffffffffffffffffff03831360008312151615613899576138986133b2565b5b817f80000000000000000000000000000000000000000000000000000000000000000383126000831216156138d1576138d06133b2565b5b828201905092915050565b60006060820190506138f16000830186612fa6565b6138fe6020830185612fa6565b61390b6040830184612d75565b949350505050565b61391c8161285a565b811461392757600080fd5b50565b60008151905061393981613913565b92915050565b600060208284031215613955576139546127cb565b5b60006139638482850161392a565b91505092915050565b60006040820190506139816000830185612fa6565b61398e6020830184612d75565b9392505050565b7f44414f5374616b696e67506f6f6c3a205a65726f20416d6f756e740000000000600082015250565b60006139cb601b8361305b565b91506139d682613995565b602082019050919050565b600060208201905081810360008301526139fa816139be565b9050919050565b6000613a0c82612bc1565b9150613a1783612bc1565b9250827f800000000000000000000000000000000000000000000000000000000000000001821260008412151615613a5257613a516133b2565b5b827f7fffffffffffffffffffffffffffffffffffffffffffffffffffffffffffffff018213600084121615613a8a57613a896133b2565b5b828203905092915050565b6000613aa082612bc1565b9150613aab83612bc1565b9250827f7fffffffffffffffffffffffffffffffffffffffffffffffffffffffffffffff0482116000841360008413161615613aea57613ae96133b2565b5b817f80000000000000000000000000000000000000000000000000000000000000000583126000841260008413161615613b2757613b266133b2565b5b827f80000000000000000000000000000000000000000000000000000000000000000582126000841360008412161615613b6457613b636133b2565b5b827f7fffffffffffffffffffffffffffffffffffffffffffffffffffffffffffffff0582126000841260008412161615613ba157613ba06133b2565b5b828202905092915050565b7f44414f5374616b696e67506f6f6c203a2063616e277420776974686472617700600082015250565b6000613be2601f8361305b565b9150613bed82613bac565b602082019050919050565b60006020820190508181036000830152613c1181613bd5565b9050919050565b6000613c23826128ee565b9150613c2e836128ee565b925082821015613c4157613c406133b2565b5b828203905092915050565b7f4e487b7100000000000000000000000000000000000000000000000000000000600052602160045260246000fd5b600081519050919050565b600082825260208201905092915050565b60005b83811015613cb5578082015181840152602081019050613c9a565b83811115613cc4576000848401525b50505050565b6000613cd582613c7b565b613cdf8185613c86565b9350613cef818560208601613c97565b613cf881612a80565b840191505092915050565b6000604082019050613d186000830185612d0b565b8181036020830152613d2a8184613cca565b90509392505050565b600081905092915050565b6000613d4982613c7b565b613d538185613d33565b9350613d63818560208601613c97565b80840191505092915050565b6000613d7b8284613d3e565b915081905092915050565b600081519050613d9581612801565b92915050565b600060208284031215613db157613db06127cb565b5b6000613dbf84828501613d86565b91505092915050565b600081905092915050565b7f416363657373436f6e74726f6c3a206163636f756e7420000000000000000000600082015250565b6000613e09601783613dc8565b9150613e1482613dd3565b601782019050919050565b600081519050919050565b6000613e3582613e1f565b613e3f8185613dc8565b9350613e4f818560208601613c97565b80840191505092915050565b7f206973206d697373696e6720726f6c6520000000000000000000000000000000600082015250565b6000613e91601183613dc8565b9150613e9c82613e5b565b601182019050919050565b6000613eb282613dfc565b9150613ebe8285613e2a565b9150613ec982613e84565b9150613ed58284613e2a565b91508190509392505050565b6000613eec82613e1f565b613ef6818561305b565b9350613f06818560208601613c97565b613f0f81612a80565b840191505092915050565b60006020820190508181036000830152613f348184613ee1565b905092915050565b7f496e697469616c697a61626c653a20636f6e7472616374206973206e6f74206960008201527f6e697469616c697a696e67000000000000000000000000000000000000000000602082015250565b6000613f98602b8361305b565b9150613fa382613f3c565b604082019050919050565b60006020820190508181036000830152613fc781613f8b565b9050919050565b7f1901000000000000000000000000000000000000000000000000000000000000600082015250565b6000614004600283613dc8565b915061400f82613fce565b600282019050919050565b6000819050919050565b6140356140308261295d565b61401a565b82525050565b600061404682613ff7565b91506140528285614024565b6020820191506140628284614024565b6020820191508190509392505050565b7f4e487b7100000000000000000000000000000000000000000000000000000000600052603260045260246000fd5b60006140ac826128ee565b915060008214156140c0576140bf6133b2565b5b600182039050919050565b7f537472696e67733a20686578206c656e67746820696e73756666696369656e74600082015250565b600061410160208361305b565b915061410c826140cb565b602082019050919050565b60006020820190508181036000830152614130816140f4565b9050919050565b600060a08201905061414c6000830188612d0b565b6141596020830187612d0b565b6141666040830186612d0b565b6141736060830185612d75565b6141806080830184612fa6565b9695505050505050565b600060808201905061419f6000830187612d0b565b6141ac6020830186613676565b6141b96040830185612d0b565b6141c66060830184612d0b565b9594505050505056fea2646970667358221220b3fede7ac2f6fb29795ce9fdf8355391bda3b779a9ca9d763553fca8e9e90ec364736f6c634300080a0033",
  "linkReferences": {},
  "deployedLinkReferences": {}
}