{
  "_format": "hh-sol-artifact-1",
  "contractName": "HousePoolUSDCV2",
  "sourceName": "contracts/HousePoolUSDCV2.sol",
  "abi": [
    {
      "anonymous": false,
      "inputs": [
        {
          "indexed": true,
          "internalType": "bytes32",
          "name": "role",
          "type": "bytes32"
        },
        {
          "indexed": true,
          "internalType": "bytes32",
          "name": "previousAdminRole",
          "type": "bytes32"
        },
        {
          "indexed": true,
          "internalType": "bytes32",
          "name": "newAdminRole",
          "type": "bytes32"
        }
      ],
      "name": "RoleAdminChanged",
      "type": "event"
    },
    {
      "anonymous": false,
      "inputs": [
        {
          "indexed": true,
          "internalType": "bytes32",
          "name": "role",
          "type": "bytes32"
        },
        {
          "indexed": true,
          "internalType": "address",
          "name": "account",
          "type": "address"
        },
        {
          "indexed": true,
          "internalType": "address",
          "name": "sender",
          "type": "address"
        }
      ],
      "name": "RoleGranted",
      "type": "event"
    },
    {
      "anonymous": false,
      "inputs": [
        {
          "indexed": true,
          "internalType": "bytes32",
          "name": "role",
          "type": "bytes32"
        },
        {
          "indexed": true,
          "internalType": "address",
          "name": "account",
          "type": "address"
        },
        {
          "indexed": true,
          "internalType": "address",
          "name": "sender",
          "type": "address"
        }
      ],
      "name": "RoleRevoked",
      "type": "event"
    },
    {
      "inputs": [],
      "name": "DATA_PROVIDER_ORACLE",
      "outputs": [
        {
          "internalType": "bytes32",
          "name": "",
          "type": "bytes32"
        }
      ],
      "stateMutability": "view",
      "type": "function"
    },
    {
      "inputs": [],
      "name": "DEFAULT_ADMIN_ROLE",
      "outputs": [
        {
          "internalType": "bytes32",
          "name": "",
          "type": "bytes32"
        }
      ],
      "stateMutability": "view",
      "type": "function"
    },
    {
      "inputs": [],
      "name": "HOUSE_POOL_DATA_PROVIDER",
      "outputs": [
        {
          "internalType": "bytes32",
          "name": "",
          "type": "bytes32"
        }
      ],
      "stateMutability": "view",
      "type": "function"
    },
    {
      "inputs": [
        {
          "internalType": "uint256",
          "name": "amountUSDC",
          "type": "uint256"
        },
        {
          "internalType": "bytes",
          "name": "approval",
          "type": "bytes"
        },
        {
          "components": [
            {
              "internalType": "int256",
              "name": "expectedValue",
              "type": "int256"
            },
            {
              "internalType": "int256",
              "name": "maxExposure",
              "type": "int256"
            },
            {
              "internalType": "uint256",
              "name": "deadline",
              "type": "uint256"
            },
            {
              "internalType": "address",
              "name": "signer",
              "type": "address"
            }
          ],
          "internalType": "struct HousePoolUSDCV2.ValuesOfInterest",
          "name": "approvedValues",
          "type": "tuple"
        }
      ],
      "name": "deposit",
      "outputs": [],
      "stateMutability": "nonpayable",
      "type": "function"
    },
    {
      "inputs": [
        {
          "internalType": "uint256",
          "name": "usdcMicro",
          "type": "uint256"
        }
      ],
      "name": "deposit_",
      "outputs": [],
      "stateMutability": "nonpayable",
      "type": "function"
    },
    {
      "inputs": [],
      "name": "getBettingStakes",
      "outputs": [
        {
          "internalType": "uint256",
          "name": "",
          "type": "uint256"
        }
      ],
      "stateMutability": "view",
      "type": "function"
    },
    {
      "inputs": [],
      "name": "getEV",
      "outputs": [
        {
          "internalType": "int256",
          "name": "",
          "type": "int256"
        }
      ],
      "stateMutability": "view",
      "type": "function"
    },
    {
      "inputs": [],
      "name": "getLiquidityStatus",
      "outputs": [
        {
          "internalType": "uint256",
          "name": "",
          "type": "uint256"
        }
      ],
      "stateMutability": "view",
      "type": "function"
    },
    {
      "inputs": [],
      "name": "getMaxExposure",
      "outputs": [
        {
          "internalType": "int256",
          "name": "",
          "type": "int256"
        }
      ],
      "stateMutability": "view",
      "type": "function"
    },
    {
      "inputs": [
        {
          "internalType": "address",
          "name": "_user",
          "type": "address"
        }
      ],
      "name": "getMyBalance",
      "outputs": [
        {
          "internalType": "uint256",
          "name": "",
          "type": "uint256"
        }
      ],
      "stateMutability": "view",
      "type": "function"
    },
    {
      "inputs": [
        {
          "internalType": "address",
          "name": "_user",
          "type": "address"
        }
      ],
      "name": "getMyLiquidity",
      "outputs": [
        {
          "internalType": "uint256",
          "name": "",
          "type": "uint256"
        }
      ],
      "stateMutability": "view",
      "type": "function"
    },
    {
      "inputs": [
        {
          "internalType": "bytes32",
          "name": "role",
          "type": "bytes32"
        }
      ],
      "name": "getRoleAdmin",
      "outputs": [
        {
          "internalType": "bytes32",
          "name": "",
          "type": "bytes32"
        }
      ],
      "stateMutability": "view",
      "type": "function"
    },
    {
      "inputs": [],
      "name": "getTVLofPool",
      "outputs": [
        {
          "internalType": "int256",
          "name": "",
          "type": "int256"
        }
      ],
      "stateMutability": "view",
      "type": "function"
    },
    {
      "inputs": [],
      "name": "getTokenPrice",
      "outputs": [
        {
          "internalType": "uint256",
          "name": "",
          "type": "uint256"
        }
      ],
      "stateMutability": "view",
      "type": "function"
    },
    {
      "inputs": [],
      "name": "getTokenWithdrawlPrice",
      "outputs": [
        {
          "internalType": "uint256",
          "name": "",
          "type": "uint256"
        }
      ],
      "stateMutability": "view",
      "type": "function"
    },
    {
      "inputs": [],
      "name": "getTreasuryAmount",
      "outputs": [
        {
          "internalType": "uint256",
          "name": "",
          "type": "uint256"
        }
      ],
      "stateMutability": "view",
      "type": "function"
    },
    {
      "inputs": [
        {
          "internalType": "bytes32",
          "name": "role",
          "type": "bytes32"
        },
        {
          "internalType": "address",
          "name": "account",
          "type": "address"
        }
      ],
      "name": "grantRole",
      "outputs": [],
      "stateMutability": "nonpayable",
      "type": "function"
    },
    {
      "inputs": [
        {
          "internalType": "bytes32",
          "name": "role",
          "type": "bytes32"
        },
        {
          "internalType": "address",
          "name": "account",
          "type": "address"
        }
      ],
      "name": "hasRole",
      "outputs": [
        {
          "internalType": "bool",
          "name": "",
          "type": "bool"
        }
      ],
      "stateMutability": "view",
      "type": "function"
    },
    {
      "inputs": [
        {
          "internalType": "address",
          "name": "_owner",
          "type": "address"
        },
        {
          "internalType": "address",
          "name": "_usdc",
          "type": "address"
        },
        {
          "internalType": "address",
          "name": "_claimToken",
          "type": "address"
        },
        {
          "internalType": "string",
          "name": "_name",
          "type": "string"
        },
        {
          "internalType": "string",
          "name": "_version",
          "type": "string"
        }
      ],
      "name": "initialize",
      "outputs": [],
      "stateMutability": "nonpayable",
      "type": "function"
    },
    {
      "inputs": [
        {
          "internalType": "bytes32",
          "name": "role",
          "type": "bytes32"
        },
        {
          "internalType": "address",
          "name": "account",
          "type": "address"
        }
      ],
      "name": "renounceRole",
      "outputs": [],
      "stateMutability": "nonpayable",
      "type": "function"
    },
    {
      "inputs": [
        {
          "internalType": "bytes32",
          "name": "role",
          "type": "bytes32"
        },
        {
          "internalType": "address",
          "name": "account",
          "type": "address"
        }
      ],
      "name": "revokeRole",
      "outputs": [],
      "stateMutability": "nonpayable",
      "type": "function"
    },
    {
      "inputs": [
        {
          "internalType": "uint256",
          "name": "bettingAmount",
          "type": "uint256"
        }
      ],
      "name": "setBettingStakes",
      "outputs": [],
      "stateMutability": "nonpayable",
      "type": "function"
    },
    {
      "inputs": [
        {
          "internalType": "bytes",
          "name": "sig_",
          "type": "bytes"
        },
        {
          "components": [
            {
              "internalType": "int256",
              "name": "expectedValue",
              "type": "int256"
            },
            {
              "internalType": "int256",
              "name": "maxExposure",
              "type": "int256"
            },
            {
              "internalType": "uint256",
              "name": "deadline",
              "type": "uint256"
            },
            {
              "internalType": "address",
              "name": "signer",
              "type": "address"
            }
          ],
          "internalType": "struct HousePoolUSDCV2.ValuesOfInterest",
          "name": "voi_",
          "type": "tuple"
        }
      ],
      "name": "setVOI",
      "outputs": [],
      "stateMutability": "nonpayable",
      "type": "function"
    },
    {
      "inputs": [
        {
          "internalType": "bool",
          "name": "outcome",
          "type": "bool"
        },
        {
          "internalType": "uint256",
          "name": "betAmount",
          "type": "uint256"
        }
      ],
      "name": "simulateOutcome",
      "outputs": [],
      "stateMutability": "nonpayable",
      "type": "function"
    },
    {
      "inputs": [
        {
          "internalType": "bytes4",
          "name": "interfaceId",
          "type": "bytes4"
        }
      ],
      "name": "supportsInterface",
      "outputs": [
        {
          "internalType": "bool",
          "name": "",
          "type": "bool"
        }
      ],
      "stateMutability": "view",
      "type": "function"
    },
    {
      "inputs": [],
      "name": "voi",
      "outputs": [
        {
          "internalType": "int256",
          "name": "expectedValue",
          "type": "int256"
        },
        {
          "internalType": "int256",
          "name": "maxExposure",
          "type": "int256"
        },
        {
          "internalType": "uint256",
          "name": "deadline",
          "type": "uint256"
        },
        {
          "internalType": "address",
          "name": "signer",
          "type": "address"
        }
      ],
      "stateMutability": "view",
      "type": "function"
    },
    {
      "inputs": [
        {
          "internalType": "uint256",
          "name": "amountUSDC",
          "type": "uint256"
        },
        {
          "internalType": "bytes",
          "name": "approval",
          "type": "bytes"
        },
        {
          "components": [
            {
              "internalType": "int256",
              "name": "expectedValue",
              "type": "int256"
            },
            {
              "internalType": "int256",
              "name": "maxExposure",
              "type": "int256"
            },
            {
              "internalType": "uint256",
              "name": "deadline",
              "type": "uint256"
            },
            {
              "internalType": "address",
              "name": "signer",
              "type": "address"
            }
          ],
          "internalType": "struct HousePoolUSDCV2.ValuesOfInterest",
          "name": "approvedValues",
          "type": "tuple"
        }
      ],
      "name": "withdraw",
      "outputs": [],
      "stateMutability": "nonpayable",
      "type": "function"
    },
    {
      "inputs": [
        {
          "internalType": "uint256",
          "name": "usdcMicro",
          "type": "uint256"
        }
      ],
      "name": "withdraw_",
      "outputs": [],
      "stateMutability": "nonpayable",
      "type": "function"
    }
  ],
  "bytecode": "0x608060405234801561001057600080fd5b506141fd806100206000396000f3fe608060405234801561001057600080fd5b50600436106101c45760003560e01c8063639c066d116100f9578063b3ce252411610097578063d547741f11610071578063d547741f146104e2578063d75d07c2146104fe578063e20fcf001461051c578063e678ff251461053a576101c4565b8063b3ce252414610485578063be1cd712146104a3578063cd08a1df146104c4576101c4565b806391d14854116100d357806391d14854146103eb578063a1cd22321461041b578063a217fddf1461044b578063a43f324114610469576101c4565b8063639c066d146103835780637e3ef7cd1461039f57806383b43589146103cf576101c4565b80633c0717fd116101665780634f6d45a2116101405780634f6d45a21461030d578063508c81a21461032957806353f52847146103475780635a5d622314610365576101c4565b80633c0717fd146102b5578063409c86ca146102d35780634b94f50e146102ef576101c4565b8063218f296e116101a2578063218f296e14610231578063248a9ca31461024d5780632f2ff15d1461027d57806336568abe14610299576101c4565b806301ffc9a7146101c95780630f5a5e18146101f957806320ab744914610215575b600080fd5b6101e360048036038101906101de919061296d565b610558565b6040516101f091906129b5565b60405180910390f35b610213600480360381019061020e9190612a06565b6105d2565b005b61022f600480360381019061022a9190612c8a565b6105de565b005b61024b60048036038101906102469190612c8a565b61081f565b005b61026760048036038101906102629190612d2f565b610a60565b6040516102749190612d6b565b60405180910390f35b61029760048036038101906102929190612d86565b610a80565b005b6102b360048036038101906102ae9190612d86565b610aa9565b005b6102bd610b2c565b6040516102ca9190612dd5565b60405180910390f35b6102ed60048036038101906102e89190612a06565b610b36565b005b6102f7610b40565b6040516103049190612dd5565b60405180910390f35b61032760048036038101906103229190612e1c565b610b4a565b005b610331610c38565b60405161033e9190612d6b565b60405180910390f35b61034f610c5c565b60405161035c9190612e6b565b60405180910390f35b61036d610c66565b60405161037a9190612e6b565b60405180910390f35b61039d60048036038101906103989190612a06565b610c73565b005b6103b960048036038101906103b49190612e86565b610c7f565b6040516103c69190612dd5565b60405180910390f35b6103e960048036038101906103e49190612f54565b610cc8565b005b61040560048036038101906104009190612d86565b610e8a565b60405161041291906129b5565b60405180910390f35b61043560048036038101906104309190612e86565b610ef5565b6040516104429190612dd5565b60405180910390f35b610453610fbf565b6040516104609190612d6b565b60405180910390f35b610483600480360381019061047e9190613007565b610fc6565b005b61048d611230565b60405161049a9190612dd5565b60405180910390f35b6104ab61123a565b6040516104bb9493929190613072565b60405180910390f35b6104cc611278565b6040516104d99190612e6b565b60405180910390f35b6104fc60048036038101906104f79190612d86565b611285565b005b6105066112ae565b6040516105139190612d6b565b60405180910390f35b6105246112d2565b6040516105319190612dd5565b60405180910390f35b6105426112dc565b60405161054f9190612dd5565b60405180910390f35b60007f7965db0b000000000000000000000000000000000000000000000000000000007bffffffffffffffffffffffffffffffffffffffffffffffffffffffff1916827bffffffffffffffffffffffffffffffffffffffffffffffffffffffff191614806105cb57506105ca826112e6565b5b9050919050565b6105db81611350565b50565b8082600061068e7f382f778b38ac8a684a068262bd90ef9739279743851e0bc20a2bf85f56a2550c84606001518560000151866020015160746000896060015173ffffffffffffffffffffffffffffffffffffffff1673ffffffffffffffffffffffffffffffffffffffff168152602001908152602001600020548860400151604051602001610673969594939291906130b7565b6040516020818303038152906040528051906020012061178f565b905061069f836060015182846117a9565b6106de576040517f08c379a00000000000000000000000000000000000000000000000000000000081526004016106d590613175565b60405180910390fd5b600073ffffffffffffffffffffffffffffffffffffffff16836060015173ffffffffffffffffffffffffffffffffffffffff161415610752576040517f08c379a0000000000000000000000000000000000000000000000000000000008152600401610749906131e1565b60405180910390fd5b6107807feed754290b7b7033469899aa55827c9480fc90a4843b45b7f455d0ac50d3e6ce8460600151610e8a565b6107bf576040517f08c379a00000000000000000000000000000000000000000000000000000000081526004016107b690613273565b60405180910390fd5b82604001514310610805576040517f08c379a00000000000000000000000000000000000000000000000000000000081526004016107fc90613305565b60405180910390fd5b61080e8461198e565b61081786611350565b505050505050565b808260006108cf7f382f778b38ac8a684a068262bd90ef9739279743851e0bc20a2bf85f56a2550c84606001518560000151866020015160746000896060015173ffffffffffffffffffffffffffffffffffffffff1673ffffffffffffffffffffffffffffffffffffffff1681526020019081526020016000205488604001516040516020016108b4969594939291906130b7565b6040516020818303038152906040528051906020012061178f565b90506108e0836060015182846117a9565b61091f576040517f08c379a000000000000000000000000000000000000000000000000000000000815260040161091690613175565b60405180910390fd5b600073ffffffffffffffffffffffffffffffffffffffff16836060015173ffffffffffffffffffffffffffffffffffffffff161415610993576040517f08c379a000000000000000000000000000000000000000000000000000000000815260040161098a906131e1565b60405180910390fd5b6109c17feed754290b7b7033469899aa55827c9480fc90a4843b45b7f455d0ac50d3e6ce8460600151610e8a565b610a00576040517f08c379a00000000000000000000000000000000000000000000000000000000081526004016109f790613273565b60405180910390fd5b82604001514310610a46576040517f08c379a0000000000000000000000000000000000000000000000000000000008152600401610a3d90613305565b60405180910390fd5b610a4f8461198e565b610a58866119cd565b505050505050565b600060336000838152602001908152602001600020600101549050919050565b610a8982610a60565b610a9a81610a95611d64565b611d6c565b610aa48383611e09565b505050565b610ab1611d64565b73ffffffffffffffffffffffffffffffffffffffff168173ffffffffffffffffffffffffffffffffffffffff1614610b1e576040517f08c379a0000000000000000000000000000000000000000000000000000000008152600401610b1590613397565b60405180910390fd5b610b288282611eea565b5050565b6000606954905090565b8060688190555050565b6000607254905090565b600015158215151415610bb257606481610b649190613415565b606a6000828254610b759190613446565b925050819055506063606482610b8b9190613415565b610b95919061349c565b60696000828254610ba69190613446565b92505081905550610bf3565b6064606854610bc19190613415565b606a6000828254610bd29190613446565b925050819055508060686000828254610beb91906134f6565b925050819055505b6000606e600001819055506000606e60010181905550606a54606b6000828254610c1d919061352a565b92505081905550610c2c611fcc565b610c34612123565b5050565b7fce95e3899a3f9149fc26a34674875210907ee3c0dddf61ac603f89e90c1b5f9e81565b6000606b54905090565b6000606e60010154905090565b610c7c816119cd565b50565b6000607560008373ffffffffffffffffffffffffffffffffffffffff1673ffffffffffffffffffffffffffffffffffffffff168152602001908152602001600020549050919050565b600060019054906101000a900460ff16610cf05760008054906101000a900460ff1615610cf9565b610cf861227a565b5b610d38576040517f08c379a0000000000000000000000000000000000000000000000000000000008152600401610d2f90613630565b60405180910390fd5b60008060019054906101000a900460ff161590508015610d88576001600060016101000a81548160ff02191690831515021790555060016000806101000a81548160ff0219169083151502179055505b610d92838361228b565b84606c60006101000a81548173ffffffffffffffffffffffffffffffffffffffff021916908373ffffffffffffffffffffffffffffffffffffffff16021790555083606d60006101000a81548173ffffffffffffffffffffffffffffffffffffffff021916908373ffffffffffffffffffffffffffffffffffffffff160217905550610e216000801b876122e8565b6012600a610e2f9190613783565b6064610e3b919061349c565b6072819055506012600a610e4f9190613783565b6064610e5b919061349c565b6073819055508015610e825760008060016101000a81548160ff0219169083151502179055505b505050505050565b60006033600084815260200190815260200160002060000160008373ffffffffffffffffffffffffffffffffffffffff1673ffffffffffffffffffffffffffffffffffffffff16815260200190815260200160002060009054906101000a900460ff16905092915050565b60006012600a610f059190613783565b607254606d60009054906101000a900473ffffffffffffffffffffffffffffffffffffffff1673ffffffffffffffffffffffffffffffffffffffff166370a08231856040518263ffffffff1660e01b8152600401610f6391906137ce565b602060405180830381865afa158015610f80573d6000803e3d6000fd5b505050506040513d601f19601f82011682018060405250810190610fa491906137fe565b610fae919061349c565b610fb89190613415565b9050919050565b6000801b81565b808260006110767f382f778b38ac8a684a068262bd90ef9739279743851e0bc20a2bf85f56a2550c84606001518560000151866020015160746000896060015173ffffffffffffffffffffffffffffffffffffffff1673ffffffffffffffffffffffffffffffffffffffff16815260200190815260200160002054886040015160405160200161105b969594939291906130b7565b6040516020818303038152906040528051906020012061178f565b9050611087836060015182846117a9565b6110c6576040517f08c379a00000000000000000000000000000000000000000000000000000000081526004016110bd90613175565b60405180910390fd5b600073ffffffffffffffffffffffffffffffffffffffff16836060015173ffffffffffffffffffffffffffffffffffffffff16141561113a576040517f08c379a0000000000000000000000000000000000000000000000000000000008152600401611131906131e1565b60405180910390fd5b6111687feed754290b7b7033469899aa55827c9480fc90a4843b45b7f455d0ac50d3e6ce8460600151610e8a565b6111a7576040517f08c379a000000000000000000000000000000000000000000000000000000000815260040161119e90613273565b60405180910390fd5b826040015143106111ed576040517f08c379a00000000000000000000000000000000000000000000000000000000081526004016111e490613305565b60405180910390fd5b7fce95e3899a3f9149fc26a34674875210907ee3c0dddf61ac603f89e90c1b5f9e61121f8161121a611d64565b611d6c565b6112288561198e565b505050505050565b6000607354905090565b606e8060000154908060010154908060020154908060030160009054906101000a900473ffffffffffffffffffffffffffffffffffffffff16905084565b6000606e60000154905090565b61128e82610a60565b61129f8161129a611d64565b611d6c565b6112a98383611eea565b505050565b7feed754290b7b7033469899aa55827c9480fc90a4843b45b7f455d0ac50d3e6ce81565b6000606a54905090565b6000606854905090565b60007f01ffc9a7000000000000000000000000000000000000000000000000000000007bffffffffffffffffffffffffffffffffffffffffffffffffffffffff1916827bffffffffffffffffffffffffffffffffffffffffffffffffffffffff1916149050919050565b60026001541415611396576040517f08c379a000000000000000000000000000000000000000000000000000000000815260040161138d90613877565b60405180910390fd5b6002600181905550600081116113e1576040517f08c379a00000000000000000000000000000000000000000000000000000000081526004016113d8906138e3565b60405180910390fd5b6073546012600a6113f29190613783565b606d60009054906101000a900473ffffffffffffffffffffffffffffffffffffffff1673ffffffffffffffffffffffffffffffffffffffff166370a08231336040518263ffffffff1660e01b815260040161144d91906137ce565b602060405180830381865afa15801561146a573d6000803e3d6000fd5b505050506040513d601f19601f8201168201806040525081019061148e91906137fe565b6114989190613415565b6114a2919061349c565b600c600a6114b09190613783565b826114bb919061349c565b111580156114f35750606e600101546069546114d79190613903565b600c600a6114e59190613783565b826114f09190613997565b13155b611532576040517f08c379a000000000000000000000000000000000000000000000000000000000815260040161152990613afa565b60405180910390fd5b60006073546012600a6115459190613783565b600c600a6115539190613783565b8461155e919061349c565b611568919061349c565b6115729190613415565b9050600c600a6115829190613783565b8261158d919061349c565b6069600082825461159e91906134f6565b92505081905550600c600a6115b39190613783565b826115be9190613997565b606b60008282546115cf9190613903565b92505081905550600c600a6115e49190613783565b826115ef919061349c565b607560003373ffffffffffffffffffffffffffffffffffffffff1673ffffffffffffffffffffffffffffffffffffffff168152602001908152602001600020600082825461163d91906134f6565b92505081905550606c60009054906101000a900473ffffffffffffffffffffffffffffffffffffffff1673ffffffffffffffffffffffffffffffffffffffff1663a9059cbb33846040518363ffffffff1660e01b81526004016116a1929190613b1a565b6020604051808303816000875af11580156116c0573d6000803e3d6000fd5b505050506040513d601f19601f820116820180604052508101906116e49190613b58565b50606d60009054906101000a900473ffffffffffffffffffffffffffffffffffffffff1673ffffffffffffffffffffffffffffffffffffffff16639dc29fac33836040518363ffffffff1660e01b8152600401611742929190613b1a565b600060405180830381600087803b15801561175c57600080fd5b505af1158015611770573d6000803e3d6000fd5b5050505061177c612123565b611784611fcc565b506001808190555050565b60006117a261179c6122f6565b83612336565b9050919050565b60008060006117b88585612369565b91509150600060048111156117d0576117cf613b85565b5b8160048111156117e3576117e2613b85565b5b14801561181b57508573ffffffffffffffffffffffffffffffffffffffff168273ffffffffffffffffffffffffffffffffffffffff16145b1561182b57600192505050611987565b6000808773ffffffffffffffffffffffffffffffffffffffff16631626ba7e60e01b8888604051602401611860929190613c3c565b604051602081830303815290604052907bffffffffffffffffffffffffffffffffffffffffffffffffffffffff19166020820180517bffffffffffffffffffffffffffffffffffffffffffffffffffffffff83818316178352505050506040516118ca9190613ca8565b600060405180830381855afa9150503d8060008114611905576040519150601f19603f3d011682016040523d82523d6000602084013e61190a565b606091505b509150915081801561191d575060208151145b80156119805750631626ba7e60e01b7bffffffffffffffffffffffffffffffffffffffffffffffffffffffff19168180602001905181019061195f9190613cd4565b7bffffffffffffffffffffffffffffffffffffffffffffffffffffffff1916145b9450505050505b9392505050565b606e600001548160000151146119ac576119ab81600001516123ec565b5b606e600101548160200151146119ca576119c9816020015161240a565b5b50565b60026001541415611a13576040517f08c379a0000000000000000000000000000000000000000000000000000000008152600401611a0a90613877565b60405180910390fd5b6002600181905550600081118015611ac65750606c60009054906101000a900473ffffffffffffffffffffffffffffffffffffffff1673ffffffffffffffffffffffffffffffffffffffff166370a08231336040518263ffffffff1660e01b8152600401611a8191906137ce565b602060405180830381865afa158015611a9e573d6000803e3d6000fd5b505050506040513d601f19601f82011682018060405250810190611ac291906137fe565b8111155b611b05576040517f08c379a0000000000000000000000000000000000000000000000000000000008152600401611afc90613d4d565b60405180910390fd5b600c600a611b139190613783565b81611b1e919061349c565b60696000828254611b2f9190613446565b92505081905550600c600a611b449190613783565b81611b4f919061349c565b606b6000828254611b60919061352a565b92505081905550600c600a611b759190613783565b81611b80919061349c565b607560003373ffffffffffffffffffffffffffffffffffffffff1673ffffffffffffffffffffffffffffffffffffffff1681526020019081526020016000206000828254611bce9190613446565b92505081905550606c60009054906101000a900473ffffffffffffffffffffffffffffffffffffffff1673ffffffffffffffffffffffffffffffffffffffff166323b872dd3330846040518463ffffffff1660e01b8152600401611c3493929190613d6d565b6020604051808303816000875af1158015611c53573d6000803e3d6000fd5b505050506040513d601f19601f82011682018060405250810190611c779190613b58565b5060006072546012600a611c8b9190613783565b600c600a611c999190613783565b84611ca4919061349c565b611cae919061349c565b611cb89190613415565b9050606d60009054906101000a900473ffffffffffffffffffffffffffffffffffffffff1673ffffffffffffffffffffffffffffffffffffffff166340c10f1933836040518363ffffffff1660e01b8152600401611d17929190613b1a565b600060405180830381600087803b158015611d3157600080fd5b505af1158015611d45573d6000803e3d6000fd5b50505050611d51611fcc565b611d59612123565b506001808190555050565b600033905090565b611d768282610e8a565b611e0557611d9b8173ffffffffffffffffffffffffffffffffffffffff166014612417565b611da98360001c6020612417565b604051602001611dba929190613e83565b6040516020818303038152906040526040517f08c379a0000000000000000000000000000000000000000000000000000000008152600401611dfc9190613ef6565b60405180910390fd5b5050565b611e138282610e8a565b611ee65760016033600084815260200190815260200160002060000160008373ffffffffffffffffffffffffffffffffffffffff1673ffffffffffffffffffffffffffffffffffffffff16815260200190815260200160002060006101000a81548160ff021916908315150217905550611e8b611d64565b73ffffffffffffffffffffffffffffffffffffffff168173ffffffffffffffffffffffffffffffffffffffff16837f2f8788117e7eff1d82e926ec794901d17c78024a50270940304540a733656f0d60405160405180910390a45b5050565b611ef48282610e8a565b15611fc85760006033600084815260200190815260200160002060000160008373ffffffffffffffffffffffffffffffffffffffff1673ffffffffffffffffffffffffffffffffffffffff16815260200190815260200160002060006101000a81548160ff021916908315150217905550611f6d611d64565b73ffffffffffffffffffffffffffffffffffffffff168173ffffffffffffffffffffffffffffffffffffffff16837ff6391f5c32d9c69d2a47ea670b442974b53935d1edc7fd64eb21e047a839171b60405160405180910390a45b5050565b6000606d60009054906101000a900473ffffffffffffffffffffffffffffffffffffffff1673ffffffffffffffffffffffffffffffffffffffff166318160ddd6040518163ffffffff1660e01b8152600401602060405180830381865afa15801561203b573d6000803e3d6000fd5b505050506040513d601f19601f8201168201806040525081019061205f91906137fe565b1461212157606d60009054906101000a900473ffffffffffffffffffffffffffffffffffffffff1673ffffffffffffffffffffffffffffffffffffffff166318160ddd6040518163ffffffff1660e01b8152600401602060405180830381865afa1580156120d1573d6000803e3d6000fd5b505050506040513d601f19601f820116820180604052508101906120f591906137fe565b6012600a6121039190613783565b606b54612110919061349c565b61211a9190613415565b6072819055505b565b6000606d60009054906101000a900473ffffffffffffffffffffffffffffffffffffffff1673ffffffffffffffffffffffffffffffffffffffff166318160ddd6040518163ffffffff1660e01b8152600401602060405180830381865afa158015612192573d6000803e3d6000fd5b505050506040513d601f19601f820116820180604052508101906121b691906137fe565b1461227857606d60009054906101000a900473ffffffffffffffffffffffffffffffffffffffff1673ffffffffffffffffffffffffffffffffffffffff166318160ddd6040518163ffffffff1660e01b8152600401602060405180830381865afa158015612228573d6000803e3d6000fd5b505050506040513d601f19601f8201168201806040525081019061224c91906137fe565b6012600a61225a9190613783565b606954612267919061349c565b6122719190613415565b6073819055505b565b600061228530612653565b15905090565b600060019054906101000a900460ff166122da576040517f08c379a00000000000000000000000000000000000000000000000000000000081526004016122d190613f8a565b60405180910390fd5b6122e48282612676565b5050565b6122f28282611e09565b5050565b60006123317f8b73c3c69bb8fe3d512ecc4cf759cc79239f7b179b0ffacaa9a75d522b39400f6123246126f1565b61232c6126fb565b612705565b905090565b6000828260405160200161234b929190614017565b60405160208183030381529060405280519060200120905092915050565b6000806041835114156123ab5760008060006020860151925060408601519150606086015160001a905061239f8782858561273f565b945094505050506123e5565b6040835114156123dc5760008060208501519150604085015190506123d186838361284c565b9350935050506123e5565b60006002915091505b9250929050565b6123f58161289a565b80606e60000181905550612407611fcc565b50565b80606e6001018190555050565b60606000600283600261242a919061349c565b6124349190613446565b67ffffffffffffffff81111561244d5761244c612a4e565b5b6040519080825280601f01601f19166020018201604052801561247f5781602001600182028036833780820191505090505b5090507f3000000000000000000000000000000000000000000000000000000000000000816000815181106124b7576124b661404e565b5b60200101907effffffffffffffffffffffffffffffffffffffffffffffffffffffffffffff1916908160001a9053507f78000000000000000000000000000000000000000000000000000000000000008160018151811061251b5761251a61404e565b5b60200101907effffffffffffffffffffffffffffffffffffffffffffffffffffffffffffff1916908160001a9053506000600184600261255b919061349c565b6125659190613446565b90505b6001811115612605577f3031323334353637383961626364656600000000000000000000000000000000600f8616601081106125a7576125a661404e565b5b1a60f81b8282815181106125be576125bd61404e565b5b60200101907effffffffffffffffffffffffffffffffffffffffffffffffffffffffffffff1916908160001a905350600485901c9450806125fe9061407d565b9050612568565b5060008414612649576040517f08c379a0000000000000000000000000000000000000000000000000000000008152600401612640906140f3565b60405180910390fd5b8091505092915050565b6000808273ffffffffffffffffffffffffffffffffffffffff163b119050919050565b600060019054906101000a900460ff166126c5576040517f08c379a00000000000000000000000000000000000000000000000000000000081526004016126bc90613f8a565b60405180910390fd5b600082805190602001209050600082805190602001209050816034819055508060358190555050505050565b6000603454905090565b6000603554905090565b60008383834630604051602001612720959493929190614113565b6040516020818303038152906040528051906020012090509392505050565b6000807f7fffffffffffffffffffffffffffffff5d576e7357a4501ddfe92f46681b20a08360001c111561277a576000600391509150612843565b601b8560ff16141580156127925750601c8560ff1614155b156127a4576000600491509150612843565b6000600187878787604051600081526020016040526040516127c99493929190614182565b6020604051602081039080840390855afa1580156127eb573d6000803e3d6000fd5b505050602060405103519050600073ffffffffffffffffffffffffffffffffffffffff168173ffffffffffffffffffffffffffffffffffffffff16141561283a57600060019250925050612843565b80600092509250505b94509492505050565b6000806000807f7fffffffffffffffffffffffffffffffffffffffffffffffffffffffffffffff85169150601b8560ff1c01905061288c8782888561273f565b935093505050935093915050565b6000606e6000015414156128c65780606b60008282546128ba919061352a565b925050819055506128fe565b606e60000154606b60008282546128dd9190613903565b9250508190555080606b60008282546128f6919061352a565b925050819055505b50565b6000604051905090565b600080fd5b600080fd5b60007fffffffff0000000000000000000000000000000000000000000000000000000082169050919050565b61294a81612915565b811461295557600080fd5b50565b60008135905061296781612941565b92915050565b6000602082840312156129835761298261290b565b5b600061299184828501612958565b91505092915050565b60008115159050919050565b6129af8161299a565b82525050565b60006020820190506129ca60008301846129a6565b92915050565b6000819050919050565b6129e3816129d0565b81146129ee57600080fd5b50565b600081359050612a00816129da565b92915050565b600060208284031215612a1c57612a1b61290b565b5b6000612a2a848285016129f1565b91505092915050565b600080fd5b600080fd5b6000601f19601f8301169050919050565b7f4e487b7100000000000000000000000000000000000000000000000000000000600052604160045260246000fd5b612a8682612a3d565b810181811067ffffffffffffffff82111715612aa557612aa4612a4e565b5b80604052505050565b6000612ab8612901565b9050612ac48282612a7d565b919050565b600067ffffffffffffffff821115612ae457612ae3612a4e565b5b612aed82612a3d565b9050602081019050919050565b82818337600083830152505050565b6000612b1c612b1784612ac9565b612aae565b905082815260208101848484011115612b3857612b37612a38565b5b612b43848285612afa565b509392505050565b600082601f830112612b6057612b5f612a33565b5b8135612b70848260208601612b09565b91505092915050565b600080fd5b6000819050919050565b612b9181612b7e565b8114612b9c57600080fd5b50565b600081359050612bae81612b88565b92915050565b600073ffffffffffffffffffffffffffffffffffffffff82169050919050565b6000612bdf82612bb4565b9050919050565b612bef81612bd4565b8114612bfa57600080fd5b50565b600081359050612c0c81612be6565b92915050565b600060808284031215612c2857612c27612b79565b5b612c326080612aae565b90506000612c4284828501612b9f565b6000830152506020612c5684828501612b9f565b6020830152506040612c6a848285016129f1565b6040830152506060612c7e84828501612bfd565b60608301525092915050565b600080600060c08486031215612ca357612ca261290b565b5b6000612cb1868287016129f1565b935050602084013567ffffffffffffffff811115612cd257612cd1612910565b5b612cde86828701612b4b565b9250506040612cef86828701612c12565b9150509250925092565b6000819050919050565b612d0c81612cf9565b8114612d1757600080fd5b50565b600081359050612d2981612d03565b92915050565b600060208284031215612d4557612d4461290b565b5b6000612d5384828501612d1a565b91505092915050565b612d6581612cf9565b82525050565b6000602082019050612d806000830184612d5c565b92915050565b60008060408385031215612d9d57612d9c61290b565b5b6000612dab85828601612d1a565b9250506020612dbc85828601612bfd565b9150509250929050565b612dcf816129d0565b82525050565b6000602082019050612dea6000830184612dc6565b92915050565b612df98161299a565b8114612e0457600080fd5b50565b600081359050612e1681612df0565b92915050565b60008060408385031215612e3357612e3261290b565b5b6000612e4185828601612e07565b9250506020612e52858286016129f1565b9150509250929050565b612e6581612b7e565b82525050565b6000602082019050612e806000830184612e5c565b92915050565b600060208284031215612e9c57612e9b61290b565b5b6000612eaa84828501612bfd565b91505092915050565b600067ffffffffffffffff821115612ece57612ecd612a4e565b5b612ed782612a3d565b9050602081019050919050565b6000612ef7612ef284612eb3565b612aae565b905082815260208101848484011115612f1357612f12612a38565b5b612f1e848285612afa565b509392505050565b600082601f830112612f3b57612f3a612a33565b5b8135612f4b848260208601612ee4565b91505092915050565b600080600080600060a08688031215612f7057612f6f61290b565b5b6000612f7e88828901612bfd565b9550506020612f8f88828901612bfd565b9450506040612fa088828901612bfd565b935050606086013567ffffffffffffffff811115612fc157612fc0612910565b5b612fcd88828901612f26565b925050608086013567ffffffffffffffff811115612fee57612fed612910565b5b612ffa88828901612f26565b9150509295509295909350565b60008060a0838503121561301e5761301d61290b565b5b600083013567ffffffffffffffff81111561303c5761303b612910565b5b61304885828601612b4b565b925050602061305985828601612c12565b9150509250929050565b61306c81612bd4565b82525050565b60006080820190506130876000830187612e5c565b6130946020830186612e5c565b6130a16040830185612dc6565b6130ae6060830184613063565b95945050505050565b600060c0820190506130cc6000830189612d5c565b6130d96020830188613063565b6130e66040830187612e5c565b6130f36060830186612e5c565b6131006080830185612dc6565b61310d60a0830184612dc6565b979650505050505050565b600082825260208201905092915050565b7f486f757365506f6f6c555344433a20696e76616c6964207369676e6174757265600082015250565b600061315f602083613118565b915061316a82613129565b602082019050919050565b6000602082019050818103600083015261318e81613152565b9050919050565b7f486f757365506f6f6c555344433a20696e76616c6964207369676e6572000000600082015250565b60006131cb601d83613118565b91506131d682613195565b602082019050919050565b600060208201905081810360008301526131fa816131be565b9050919050565b7f486f757365506f6f6c555344433a20756e617574686f7269736564207369676e60008201527f6572000000000000000000000000000000000000000000000000000000000000602082015250565b600061325d602283613118565b915061326882613201565b604082019050919050565b6000602082019050818103600083015261328c81613250565b9050919050565b7f486f757365506f6f6c555344433a207369676e6564207472616e73616374696f60008201527f6e20657870697265640000000000000000000000000000000000000000000000602082015250565b60006132ef602983613118565b91506132fa82613293565b604082019050919050565b6000602082019050818103600083015261331e816132e2565b9050919050565b7f416363657373436f6e74726f6c3a2063616e206f6e6c792072656e6f756e636560008201527f20726f6c657320666f722073656c660000000000000000000000000000000000602082015250565b6000613381602f83613118565b915061338c82613325565b604082019050919050565b600060208201905081810360008301526133b081613374565b9050919050565b7f4e487b7100000000000000000000000000000000000000000000000000000000600052601260045260246000fd5b7f4e487b7100000000000000000000000000000000000000000000000000000000600052601160045260246000fd5b6000613420826129d0565b915061342b836129d0565b92508261343b5761343a6133b7565b5b828204905092915050565b6000613451826129d0565b915061345c836129d0565b9250827fffffffffffffffffffffffffffffffffffffffffffffffffffffffffffffffff03821115613491576134906133e6565b5b828201905092915050565b60006134a7826129d0565b91506134b2836129d0565b9250817fffffffffffffffffffffffffffffffffffffffffffffffffffffffffffffffff04831182151516156134eb576134ea6133e6565b5b828202905092915050565b6000613501826129d0565b915061350c836129d0565b92508282101561351f5761351e6133e6565b5b828203905092915050565b600061353582612b7e565b915061354083612b7e565b9250817f7fffffffffffffffffffffffffffffffffffffffffffffffffffffffffffffff0383136000831215161561357b5761357a6133e6565b5b817f80000000000000000000000000000000000000000000000000000000000000000383126000831216156135b3576135b26133e6565b5b828201905092915050565b7f496e697469616c697a61626c653a20636f6e747261637420697320616c72656160008201527f647920696e697469616c697a6564000000000000000000000000000000000000602082015250565b600061361a602e83613118565b9150613625826135be565b604082019050919050565b600060208201905081810360008301526136498161360d565b9050919050565b60008160011c9050919050565b6000808291508390505b60018511156136a757808604811115613683576136826133e6565b5b60018516156136925780820291505b80810290506136a085613650565b9450613667565b94509492505050565b6000826136c0576001905061377c565b816136ce576000905061377c565b81600181146136e457600281146136ee5761371d565b600191505061377c565b60ff841115613700576136ff6133e6565b5b8360020a915084821115613717576137166133e6565b5b5061377c565b5060208310610133831016604e8410600b84101617156137525782820a90508381111561374d5761374c6133e6565b5b61377c565b61375f848484600161365d565b92509050818404811115613776576137756133e6565b5b81810290505b9392505050565b600061378e826129d0565b9150613799836129d0565b92506137c67fffffffffffffffffffffffffffffffffffffffffffffffffffffffffffffffff84846136b0565b905092915050565b60006020820190506137e36000830184613063565b92915050565b6000815190506137f8816129da565b92915050565b6000602082840312156138145761381361290b565b5b6000613822848285016137e9565b91505092915050565b7f5265656e7472616e637947756172643a207265656e7472616e742063616c6c00600082015250565b6000613861601f83613118565b915061386c8261382b565b602082019050919050565b6000602082019050818103600083015261389081613854565b9050919050565b7f55534443486f757365506f6f6c3a205a65726f20416d6f756e74000000000000600082015250565b60006138cd601a83613118565b91506138d882613897565b602082019050919050565b600060208201905081810360008301526138fc816138c0565b9050919050565b600061390e82612b7e565b915061391983612b7e565b9250827f800000000000000000000000000000000000000000000000000000000000000001821260008412151615613954576139536133e6565b5b827f7fffffffffffffffffffffffffffffffffffffffffffffffffffffffffffffff01821360008412161561398c5761398b6133e6565b5b828203905092915050565b60006139a282612b7e565b91506139ad83612b7e565b9250827f7fffffffffffffffffffffffffffffffffffffffffffffffffffffffffffffff04821160008413600084131616156139ec576139eb6133e6565b5b817f80000000000000000000000000000000000000000000000000000000000000000583126000841260008413161615613a2957613a286133e6565b5b827f80000000000000000000000000000000000000000000000000000000000000000582126000841360008412161615613a6657613a656133e6565b5b827f7fffffffffffffffffffffffffffffffffffffffffffffffffffffffffffffff0582126000841260008412161615613aa357613aa26133e6565b5b828202905092915050565b7f55534443486f757365506f6f6c203a2063616e27742077697468647261770000600082015250565b6000613ae4601e83613118565b9150613aef82613aae565b602082019050919050565b60006020820190508181036000830152613b1381613ad7565b9050919050565b6000604082019050613b2f6000830185613063565b613b3c6020830184612dc6565b9392505050565b600081519050613b5281612df0565b92915050565b600060208284031215613b6e57613b6d61290b565b5b6000613b7c84828501613b43565b91505092915050565b7f4e487b7100000000000000000000000000000000000000000000000000000000600052602160045260246000fd5b600081519050919050565b600082825260208201905092915050565b60005b83811015613bee578082015181840152602081019050613bd3565b83811115613bfd576000848401525b50505050565b6000613c0e82613bb4565b613c188185613bbf565b9350613c28818560208601613bd0565b613c3181612a3d565b840191505092915050565b6000604082019050613c516000830185612d5c565b8181036020830152613c638184613c03565b90509392505050565b600081905092915050565b6000613c8282613bb4565b613c8c8185613c6c565b9350613c9c818560208601613bd0565b80840191505092915050565b6000613cb48284613c77565b915081905092915050565b600081519050613cce81612941565b92915050565b600060208284031215613cea57613ce961290b565b5b6000613cf884828501613cbf565b91505092915050565b7f55534443486f757365506f6f6c3a20436865636b207468652042616c616e6365600082015250565b6000613d37602083613118565b9150613d4282613d01565b602082019050919050565b60006020820190508181036000830152613d6681613d2a565b9050919050565b6000606082019050613d826000830186613063565b613d8f6020830185613063565b613d9c6040830184612dc6565b949350505050565b600081905092915050565b7f416363657373436f6e74726f6c3a206163636f756e7420000000000000000000600082015250565b6000613de5601783613da4565b9150613df082613daf565b601782019050919050565b600081519050919050565b6000613e1182613dfb565b613e1b8185613da4565b9350613e2b818560208601613bd0565b80840191505092915050565b7f206973206d697373696e6720726f6c6520000000000000000000000000000000600082015250565b6000613e6d601183613da4565b9150613e7882613e37565b601182019050919050565b6000613e8e82613dd8565b9150613e9a8285613e06565b9150613ea582613e60565b9150613eb18284613e06565b91508190509392505050565b6000613ec882613dfb565b613ed28185613118565b9350613ee2818560208601613bd0565b613eeb81612a3d565b840191505092915050565b60006020820190508181036000830152613f108184613ebd565b905092915050565b7f496e697469616c697a61626c653a20636f6e7472616374206973206e6f74206960008201527f6e697469616c697a696e67000000000000000000000000000000000000000000602082015250565b6000613f74602b83613118565b9150613f7f82613f18565b604082019050919050565b60006020820190508181036000830152613fa381613f67565b9050919050565b7f1901000000000000000000000000000000000000000000000000000000000000600082015250565b6000613fe0600283613da4565b9150613feb82613faa565b600282019050919050565b6000819050919050565b61401161400c82612cf9565b613ff6565b82525050565b600061402282613fd3565b915061402e8285614000565b60208201915061403e8284614000565b6020820191508190509392505050565b7f4e487b7100000000000000000000000000000000000000000000000000000000600052603260045260246000fd5b6000614088826129d0565b9150600082141561409c5761409b6133e6565b5b600182039050919050565b7f537472696e67733a20686578206c656e67746820696e73756666696369656e74600082015250565b60006140dd602083613118565b91506140e8826140a7565b602082019050919050565b6000602082019050818103600083015261410c816140d0565b9050919050565b600060a0820190506141286000830188612d5c565b6141356020830187612d5c565b6141426040830186612d5c565b61414f6060830185612dc6565b61415c6080830184613063565b9695505050505050565b600060ff82169050919050565b61417c81614166565b82525050565b60006080820190506141976000830187612d5c565b6141a46020830186614173565b6141b16040830185612d5c565b6141be6060830184612d5c565b9594505050505056fea2646970667358221220016619da8ad451356bbf975cbef2df8118f57fbd4657b9812a8d1c79eae5eaa064736f6c634300080a0033",
  "linkReferences": {},
  "deployedLinkReferences": {}
}