{
  "_format": "hh-sol-artifact-1",
  "contractName": "LFIDistributionManager",
  "sourceName": "contracts/DaoStakingPool/LFIDistributionManager.sol",
  "abi": [
    {
      "inputs": [
        {
          "internalType": "address",
          "name": "emissionManager",
          "type": "address"
        },
        {
          "internalType": "uint256",
          "name": "distributionDuration",
          "type": "uint256"
        }
      ],
      "stateMutability": "nonpayable",
      "type": "constructor"
    },
    {
      "anonymous": false,
      "inputs": [
        {
          "indexed": true,
          "internalType": "address",
          "name": "asset",
          "type": "address"
        },
        {
          "indexed": false,
          "internalType": "uint256",
          "name": "emission",
          "type": "uint256"
        }
      ],
      "name": "AssetConfigUpdated",
      "type": "event"
    },
    {
      "anonymous": false,
      "inputs": [
        {
          "indexed": true,
          "internalType": "address",
          "name": "asset",
          "type": "address"
        },
        {
          "indexed": false,
          "internalType": "uint256",
          "name": "index",
          "type": "uint256"
        }
      ],
      "name": "AssetIndexUpdated",
      "type": "event"
    },
    {
      "anonymous": false,
      "inputs": [
        {
          "indexed": true,
          "internalType": "address",
          "name": "user",
          "type": "address"
        },
        {
          "indexed": true,
          "internalType": "address",
          "name": "asset",
          "type": "address"
        },
        {
          "indexed": false,
          "internalType": "uint256",
          "name": "index",
          "type": "uint256"
        }
      ],
      "name": "UserIndexUpdated",
      "type": "event"
    },
    {
      "inputs": [],
      "name": "DISTRIBUTION_END",
      "outputs": [
        {
          "internalType": "uint256",
          "name": "",
          "type": "uint256"
        }
      ],
      "stateMutability": "view",
      "type": "function"
    },
    {
      "inputs": [],
      "name": "EMISSION_MANAGER",
      "outputs": [
        {
          "internalType": "address",
          "name": "",
          "type": "address"
        }
      ],
      "stateMutability": "view",
      "type": "function"
    },
    {
      "inputs": [],
      "name": "PRECISION",
      "outputs": [
        {
          "internalType": "uint8",
          "name": "",
          "type": "uint8"
        }
      ],
      "stateMutability": "view",
      "type": "function"
    },
    {
      "inputs": [
        {
          "internalType": "address",
          "name": "",
          "type": "address"
        }
      ],
      "name": "assets",
      "outputs": [
        {
          "internalType": "uint128",
          "name": "emissionPerSecond",
          "type": "uint128"
        },
        {
          "internalType": "uint128",
          "name": "lastUpdateTimestamp",
          "type": "uint128"
        },
        {
          "internalType": "uint256",
          "name": "index",
          "type": "uint256"
        }
      ],
      "stateMutability": "view",
      "type": "function"
    },
    {
      "inputs": [
        {
          "components": [
            {
              "internalType": "uint128",
              "name": "emissionPerSecond",
              "type": "uint128"
            },
            {
              "internalType": "uint256",
              "name": "totalStaked",
              "type": "uint256"
            },
            {
              "internalType": "address",
              "name": "underlyingAsset",
              "type": "address"
            }
          ],
          "internalType": "struct DistributionTypes.AssetConfigInput[]",
          "name": "assetsConfigInput",
          "type": "tuple[]"
        }
      ],
      "name": "configureAssets",
      "outputs": [],
      "stateMutability": "nonpayable",
      "type": "function"
    },
    {
      "inputs": [
        {
          "internalType": "address",
          "name": "user",
          "type": "address"
        },
        {
          "internalType": "address",
          "name": "asset",
          "type": "address"
        }
      ],
      "name": "getUserAssetData",
      "outputs": [
        {
          "internalType": "uint256",
          "name": "",
          "type": "uint256"
        }
      ],
      "stateMutability": "view",
      "type": "function"
    }
  ],
  "bytecode": "0x60c06040523480156200001157600080fd5b506040516200118d3803806200118d833981810160405281019062000037919062000151565b6200005181426200009460201b620004f11790919060201c565b608081815250508173ffffffffffffffffffffffffffffffffffffffff1660a08173ffffffffffffffffffffffffffffffffffffffff1681525050505062000224565b60008183620000a49190620001c7565b905092915050565b600080fd5b600073ffffffffffffffffffffffffffffffffffffffff82169050919050565b6000620000de82620000b1565b9050919050565b620000f081620000d1565b8114620000fc57600080fd5b50565b6000815190506200011081620000e5565b92915050565b6000819050919050565b6200012b8162000116565b81146200013757600080fd5b50565b6000815190506200014b8162000120565b92915050565b600080604083850312156200016b576200016a620000ac565b5b60006200017b85828601620000ff565b92505060206200018e858286016200013a565b9150509250929050565b7f4e487b7100000000000000000000000000000000000000000000000000000000600052601160045260246000fd5b6000620001d48262000116565b9150620001e18362000116565b9250827fffffffffffffffffffffffffffffffffffffffffffffffffffffffffffffffff0382111562000219576200021862000198565b5b828201905092915050565b60805160a051610f2762000266600039600081816101f3015261046d0152600081816101ca01528181610678015281816106be01526106eb0152610f276000f3fe608060405234801561001057600080fd5b50600436106100625760003560e01c80633373ee4c14610067578063919cd40f14610097578063aaf5eb68146100b5578063b2a5dbfa146100d3578063cbcbb507146100ef578063f11b81881461010d575b600080fd5b610081600480360381019061007c9190610846565b61013f565b60405161008e919061089f565b60405180910390f35b61009f6101c8565b6040516100ac919061089f565b60405180910390f35b6100bd6101ec565b6040516100ca91906108d6565b60405180910390f35b6100ed60048036038101906100e89190610956565b6101f1565b005b6100f761046b565b60405161010491906109b2565b60405180910390f35b610127600480360381019061012291906109cd565b61048f565b60405161013693929190610a25565b60405180910390f35b60008060008373ffffffffffffffffffffffffffffffffffffffff1673ffffffffffffffffffffffffffffffffffffffff16815260200190815260200160002060020160008473ffffffffffffffffffffffffffffffffffffffff1673ffffffffffffffffffffffffffffffffffffffff16815260200190815260200160002054905092915050565b7f000000000000000000000000000000000000000000000000000000000000000081565b601281565b7f000000000000000000000000000000000000000000000000000000000000000073ffffffffffffffffffffffffffffffffffffffff163373ffffffffffffffffffffffffffffffffffffffff161461027f576040517f08c379a000000000000000000000000000000000000000000000000000000000815260040161027690610ab9565b60405180910390fd5b60005b828290508110156104665760008060008585858181106102a5576102a4610ad9565b5b90506060020160400160208101906102bd91906109cd565b73ffffffffffffffffffffffffffffffffffffffff1673ffffffffffffffffffffffffffffffffffffffff168152602001908152602001600020905061034a84848481811061030f5761030e610ad9565b5b905060600201604001602081019061032791906109cd565b8286868681811061033b5761033a610ad9565b5b90506060020160200135610507565b5083838381811061035e5761035d610ad9565b5b90506060020160000160208101906103769190610b34565b8160000160006101000a8154816fffffffffffffffffffffffffffffffff02191690836fffffffffffffffffffffffffffffffff1602179055508383838181106103c3576103c2610ad9565b5b90506060020160400160208101906103db91906109cd565b73ffffffffffffffffffffffffffffffffffffffff167f87fa03892a0556cb6b8f97e6d533a150d4d55fcbf275fff5fa003fa636bcc7fa85858581811061042557610424610ad9565b5b905060600201600001602081019061043d9190610b34565b60405161044a9190610b9c565b60405180910390a250808061045e90610be6565b915050610282565b505050565b7f000000000000000000000000000000000000000000000000000000000000000081565b60006020528060005260406000206000915090508060000160009054906101000a90046fffffffffffffffffffffffffffffffff16908060000160109054906101000a90046fffffffffffffffffffffffffffffffff16908060010154905083565b600081836104ff9190610c2f565b905092915050565b6000808360010154905060008460000160109054906101000a90046fffffffffffffffffffffffffffffffff169050806fffffffffffffffffffffffffffffffff1642141561055a57819250505061063d565b600061059a838760000160009054906101000a90046fffffffffffffffffffffffffffffffff166fffffffffffffffffffffffffffffffff168488610644565b90508281146105fb578086600101819055508673ffffffffffffffffffffffffffffffffffffffff167f5777ca300dfe5bead41006fbce4389794dbc0ed8d6cccebfaf94630aa04184bc826040516105f2919061089f565b60405180910390a25b428660000160106101000a8154816fffffffffffffffffffffffffffffffff02191690836fffffffffffffffffffffffffffffffff1602179055508093505050505b9392505050565b6000808414806106545750600082145b80610670575042836fffffffffffffffffffffffffffffffff16145b806106ad57507f0000000000000000000000000000000000000000000000000000000000000000836fffffffffffffffffffffffffffffffff1610155b156106ba57849050610794565b60007f000000000000000000000000000000000000000000000000000000000000000042116106e9574261070b565b7f00000000000000000000000000000000000000000000000000000000000000005b90506000610734856fffffffffffffffffffffffffffffffff168361079c90919063ffffffff16565b905061078f8761078186610773601260ff16600a6107529190610db8565b610765878d6107b290919063ffffffff16565b6107b290919063ffffffff16565b6107c890919063ffffffff16565b6104f190919063ffffffff16565b925050505b949350505050565b600081836107aa9190610e03565b905092915050565b600081836107c09190610e37565b905092915050565b600081836107d69190610ec0565b905092915050565b600080fd5b600080fd5b600073ffffffffffffffffffffffffffffffffffffffff82169050919050565b6000610813826107e8565b9050919050565b61082381610808565b811461082e57600080fd5b50565b6000813590506108408161081a565b92915050565b6000806040838503121561085d5761085c6107de565b5b600061086b85828601610831565b925050602061087c85828601610831565b9150509250929050565b6000819050919050565b61089981610886565b82525050565b60006020820190506108b46000830184610890565b92915050565b600060ff82169050919050565b6108d0816108ba565b82525050565b60006020820190506108eb60008301846108c7565b92915050565b600080fd5b600080fd5b600080fd5b60008083601f840112610916576109156108f1565b5b8235905067ffffffffffffffff811115610933576109326108f6565b5b60208301915083606082028301111561094f5761094e6108fb565b5b9250929050565b6000806020838503121561096d5761096c6107de565b5b600083013567ffffffffffffffff81111561098b5761098a6107e3565b5b61099785828601610900565b92509250509250929050565b6109ac81610808565b82525050565b60006020820190506109c760008301846109a3565b92915050565b6000602082840312156109e3576109e26107de565b5b60006109f184828501610831565b91505092915050565b60006fffffffffffffffffffffffffffffffff82169050919050565b610a1f816109fa565b82525050565b6000606082019050610a3a6000830186610a16565b610a476020830185610a16565b610a546040830184610890565b949350505050565b600082825260208201905092915050565b7f4f4e4c595f454d495353494f4e5f4d414e414745520000000000000000000000600082015250565b6000610aa3601583610a5c565b9150610aae82610a6d565b602082019050919050565b60006020820190508181036000830152610ad281610a96565b9050919050565b7f4e487b7100000000000000000000000000000000000000000000000000000000600052603260045260246000fd5b610b11816109fa565b8114610b1c57600080fd5b50565b600081359050610b2e81610b08565b92915050565b600060208284031215610b4a57610b496107de565b5b6000610b5884828501610b1f565b91505092915050565b6000819050919050565b6000610b86610b81610b7c846109fa565b610b61565b610886565b9050919050565b610b9681610b6b565b82525050565b6000602082019050610bb16000830184610b8d565b92915050565b7f4e487b7100000000000000000000000000000000000000000000000000000000600052601160045260246000fd5b6000610bf182610886565b91507fffffffffffffffffffffffffffffffffffffffffffffffffffffffffffffffff821415610c2457610c23610bb7565b5b600182019050919050565b6000610c3a82610886565b9150610c4583610886565b9250827fffffffffffffffffffffffffffffffffffffffffffffffffffffffffffffffff03821115610c7a57610c79610bb7565b5b828201905092915050565b60008160011c9050919050565b6000808291508390505b6001851115610cdc57808604811115610cb857610cb7610bb7565b5b6001851615610cc75780820291505b8081029050610cd585610c85565b9450610c9c565b94509492505050565b600082610cf55760019050610db1565b81610d035760009050610db1565b8160018114610d195760028114610d2357610d52565b6001915050610db1565b60ff841115610d3557610d34610bb7565b5b8360020a915084821115610d4c57610d4b610bb7565b5b50610db1565b5060208310610133831016604e8410600b8410161715610d875782820a905083811115610d8257610d81610bb7565b5b610db1565b610d948484846001610c92565b92509050818404811115610dab57610daa610bb7565b5b81810290505b9392505050565b6000610dc382610886565b9150610dce83610886565b9250610dfb7fffffffffffffffffffffffffffffffffffffffffffffffffffffffffffffffff8484610ce5565b905092915050565b6000610e0e82610886565b9150610e1983610886565b925082821015610e2c57610e2b610bb7565b5b828203905092915050565b6000610e4282610886565b9150610e4d83610886565b9250817fffffffffffffffffffffffffffffffffffffffffffffffffffffffffffffffff0483118215151615610e8657610e85610bb7565b5b828202905092915050565b7f4e487b7100000000000000000000000000000000000000000000000000000000600052601260045260246000fd5b6000610ecb82610886565b9150610ed683610886565b925082610ee657610ee5610e91565b5b82820490509291505056fea2646970667358221220e1560c97252475b8b0968a8fbe15258c46b368852dfbf2e8e91b3d42bd32ed7764736f6c634300080a0033",
  "linkReferences": {},
  "deployedLinkReferences": {}
}