{
  "address": "0xa30bdd69EbDB850Da7D6a894Ed0e5f3a2E9e0674",
  "abi": [
    {
      "inputs": [
        {
          "internalType": "address",
          "name": "_owner",
          "type": "address"
        },
        {
          "internalType": "address",
          "name": "_WBTC",
          "type": "address"
        },
        {
          "internalType": "address",
          "name": "_claimToken",
          "type": "address"
        },
        {
          "internalType": "string",
          "name": "_name",
          "type": "string"
        },
        {
          "internalType": "string",
          "name": "_version",
          "type": "string"
        }
      ],
      "stateMutability": "nonpayable",
      "type": "constructor"
    },
    {
      "anonymous": false,
      "inputs": [
        {
          "indexed": true,
          "internalType": "bytes32",
          "name": "role",
          "type": "bytes32"
        },
        {
          "indexed": true,
          "internalType": "bytes32",
          "name": "previousAdminRole",
          "type": "bytes32"
        },
        {
          "indexed": true,
          "internalType": "bytes32",
          "name": "newAdminRole",
          "type": "bytes32"
        }
      ],
      "name": "RoleAdminChanged",
      "type": "event"
    },
    {
      "anonymous": false,
      "inputs": [
        {
          "indexed": true,
          "internalType": "bytes32",
          "name": "role",
          "type": "bytes32"
        },
        {
          "indexed": true,
          "internalType": "address",
          "name": "account",
          "type": "address"
        },
        {
          "indexed": true,
          "internalType": "address",
          "name": "sender",
          "type": "address"
        }
      ],
      "name": "RoleGranted",
      "type": "event"
    },
    {
      "anonymous": false,
      "inputs": [
        {
          "indexed": true,
          "internalType": "bytes32",
          "name": "role",
          "type": "bytes32"
        },
        {
          "indexed": true,
          "internalType": "address",
          "name": "account",
          "type": "address"
        },
        {
          "indexed": true,
          "internalType": "address",
          "name": "sender",
          "type": "address"
        }
      ],
      "name": "RoleRevoked",
      "type": "event"
    },
    {
      "inputs": [],
      "name": "DATA_PROVIDER_ORACLE",
      "outputs": [
        {
          "internalType": "bytes32",
          "name": "",
          "type": "bytes32"
        }
      ],
      "stateMutability": "view",
      "type": "function"
    },
    {
      "inputs": [],
      "name": "DEFAULT_ADMIN_ROLE",
      "outputs": [
        {
          "internalType": "bytes32",
          "name": "",
          "type": "bytes32"
        }
      ],
      "stateMutability": "view",
      "type": "function"
    },
    {
      "inputs": [],
      "name": "HOUSE_POOL_DATA_PROVIDER",
      "outputs": [
        {
          "internalType": "bytes32",
          "name": "",
          "type": "bytes32"
        }
      ],
      "stateMutability": "view",
      "type": "function"
    },
    {
      "inputs": [
        {
          "internalType": "uint256",
          "name": "amountWBTC",
          "type": "uint256"
        },
        {
          "internalType": "bytes",
          "name": "approval",
          "type": "bytes"
        },
        {
          "components": [
            {
              "internalType": "int256",
              "name": "expectedValue",
              "type": "int256"
            },
            {
              "internalType": "int256",
              "name": "maxExposure",
              "type": "int256"
            },
            {
              "internalType": "uint256",
              "name": "deadline",
              "type": "uint256"
            },
            {
              "internalType": "address",
              "name": "signer",
              "type": "address"
            }
          ],
          "internalType": "struct HousePoolWBTC.ValuesOfInterest",
          "name": "approvedValues",
          "type": "tuple"
        }
      ],
      "name": "deposit",
      "outputs": [],
      "stateMutability": "nonpayable",
      "type": "function"
    },
    {
      "inputs": [
        {
          "internalType": "uint256",
          "name": "WBTCMicro",
          "type": "uint256"
        }
      ],
      "name": "deposit_",
      "outputs": [],
      "stateMutability": "nonpayable",
      "type": "function"
    },
    {
      "inputs": [],
      "name": "getBettingStakes",
      "outputs": [
        {
          "internalType": "uint256",
          "name": "",
          "type": "uint256"
        }
      ],
      "stateMutability": "view",
      "type": "function"
    },
    {
      "inputs": [],
      "name": "getEV",
      "outputs": [
        {
          "internalType": "int256",
          "name": "",
          "type": "int256"
        }
      ],
      "stateMutability": "view",
      "type": "function"
    },
    {
      "inputs": [],
      "name": "getLiquidityStatus",
      "outputs": [
        {
          "internalType": "uint256",
          "name": "",
          "type": "uint256"
        }
      ],
      "stateMutability": "view",
      "type": "function"
    },
    {
      "inputs": [],
      "name": "getMaxExposure",
      "outputs": [
        {
          "internalType": "int256",
          "name": "",
          "type": "int256"
        }
      ],
      "stateMutability": "view",
      "type": "function"
    },
    {
      "inputs": [
        {
          "internalType": "address",
          "name": "_user",
          "type": "address"
        }
      ],
      "name": "getMyLiquidity",
      "outputs": [
        {
          "internalType": "uint256",
          "name": "",
          "type": "uint256"
        }
      ],
      "stateMutability": "view",
      "type": "function"
    },
    {
      "inputs": [
        {
          "internalType": "bytes32",
          "name": "role",
          "type": "bytes32"
        }
      ],
      "name": "getRoleAdmin",
      "outputs": [
        {
          "internalType": "bytes32",
          "name": "",
          "type": "bytes32"
        }
      ],
      "stateMutability": "view",
      "type": "function"
    },
    {
      "inputs": [],
      "name": "getTVLofPool",
      "outputs": [
        {
          "internalType": "int256",
          "name": "",
          "type": "int256"
        }
      ],
      "stateMutability": "view",
      "type": "function"
    },
    {
      "inputs": [],
      "name": "getTokenPrice",
      "outputs": [
        {
          "internalType": "uint256",
          "name": "",
          "type": "uint256"
        }
      ],
      "stateMutability": "view",
      "type": "function"
    },
    {
      "inputs": [],
      "name": "getTokenWithdrawlPrice",
      "outputs": [
        {
          "internalType": "uint256",
          "name": "",
          "type": "uint256"
        }
      ],
      "stateMutability": "view",
      "type": "function"
    },
    {
      "inputs": [],
      "name": "getTreasuryAmount",
      "outputs": [
        {
          "internalType": "uint256",
          "name": "",
          "type": "uint256"
        }
      ],
      "stateMutability": "view",
      "type": "function"
    },
    {
      "inputs": [
        {
          "internalType": "bytes32",
          "name": "role",
          "type": "bytes32"
        },
        {
          "internalType": "address",
          "name": "account",
          "type": "address"
        }
      ],
      "name": "grantRole",
      "outputs": [],
      "stateMutability": "nonpayable",
      "type": "function"
    },
    {
      "inputs": [
        {
          "internalType": "bytes32",
          "name": "role",
          "type": "bytes32"
        },
        {
          "internalType": "address",
          "name": "account",
          "type": "address"
        }
      ],
      "name": "hasRole",
      "outputs": [
        {
          "internalType": "bool",
          "name": "",
          "type": "bool"
        }
      ],
      "stateMutability": "view",
      "type": "function"
    },
    {
      "inputs": [],
      "name": "lpTokenPrice",
      "outputs": [
        {
          "internalType": "uint256",
          "name": "",
          "type": "uint256"
        }
      ],
      "stateMutability": "view",
      "type": "function"
    },
    {
      "inputs": [],
      "name": "lpTokenWithdrawlPrice",
      "outputs": [
        {
          "internalType": "uint256",
          "name": "",
          "type": "uint256"
        }
      ],
      "stateMutability": "view",
      "type": "function"
    },
    {
      "inputs": [
        {
          "internalType": "bytes32",
          "name": "role",
          "type": "bytes32"
        },
        {
          "internalType": "address",
          "name": "account",
          "type": "address"
        }
      ],
      "name": "renounceRole",
      "outputs": [],
      "stateMutability": "nonpayable",
      "type": "function"
    },
    {
      "inputs": [
        {
          "internalType": "bytes32",
          "name": "role",
          "type": "bytes32"
        },
        {
          "internalType": "address",
          "name": "account",
          "type": "address"
        }
      ],
      "name": "revokeRole",
      "outputs": [],
      "stateMutability": "nonpayable",
      "type": "function"
    },
    {
      "inputs": [
        {
          "internalType": "uint256",
          "name": "bettingAmount",
          "type": "uint256"
        }
      ],
      "name": "setBettingStakes",
      "outputs": [],
      "stateMutability": "nonpayable",
      "type": "function"
    },
    {
      "inputs": [
        {
          "internalType": "bytes",
          "name": "sig_",
          "type": "bytes"
        },
        {
          "components": [
            {
              "internalType": "int256",
              "name": "expectedValue",
              "type": "int256"
            },
            {
              "internalType": "int256",
              "name": "maxExposure",
              "type": "int256"
            },
            {
              "internalType": "uint256",
              "name": "deadline",
              "type": "uint256"
            },
            {
              "internalType": "address",
              "name": "signer",
              "type": "address"
            }
          ],
          "internalType": "struct HousePoolWBTC.ValuesOfInterest",
          "name": "voi_",
          "type": "tuple"
        }
      ],
      "name": "setVOI",
      "outputs": [],
      "stateMutability": "nonpayable",
      "type": "function"
    },
    {
      "inputs": [
        {
          "internalType": "bool",
          "name": "outcome",
          "type": "bool"
        },
        {
          "internalType": "uint256",
          "name": "betAmount",
          "type": "uint256"
        }
      ],
      "name": "simulateOutcome",
      "outputs": [],
      "stateMutability": "nonpayable",
      "type": "function"
    },
    {
      "inputs": [
        {
          "internalType": "bytes4",
          "name": "interfaceId",
          "type": "bytes4"
        }
      ],
      "name": "supportsInterface",
      "outputs": [
        {
          "internalType": "bool",
          "name": "",
          "type": "bool"
        }
      ],
      "stateMutability": "view",
      "type": "function"
    },
    {
      "inputs": [],
      "name": "voi",
      "outputs": [
        {
          "internalType": "int256",
          "name": "expectedValue",
          "type": "int256"
        },
        {
          "internalType": "int256",
          "name": "maxExposure",
          "type": "int256"
        },
        {
          "internalType": "uint256",
          "name": "deadline",
          "type": "uint256"
        },
        {
          "internalType": "address",
          "name": "signer",
          "type": "address"
        }
      ],
      "stateMutability": "view",
      "type": "function"
    },
    {
      "inputs": [
        {
          "internalType": "uint256",
          "name": "amountWBTC",
          "type": "uint256"
        },
        {
          "internalType": "bytes",
          "name": "approval",
          "type": "bytes"
        },
        {
          "components": [
            {
              "internalType": "int256",
              "name": "expectedValue",
              "type": "int256"
            },
            {
              "internalType": "int256",
              "name": "maxExposure",
              "type": "int256"
            },
            {
              "internalType": "uint256",
              "name": "deadline",
              "type": "uint256"
            },
            {
              "internalType": "address",
              "name": "signer",
              "type": "address"
            }
          ],
          "internalType": "struct HousePoolWBTC.ValuesOfInterest",
          "name": "approvedValues",
          "type": "tuple"
        }
      ],
      "name": "withdraw",
      "outputs": [],
      "stateMutability": "nonpayable",
      "type": "function"
    },
    {
      "inputs": [
        {
          "internalType": "uint256",
          "name": "WBTCMicro",
          "type": "uint256"
        }
      ],
      "name": "withdraw_",
      "outputs": [],
      "stateMutability": "nonpayable",
      "type": "function"
    }
  ],
  "transactionHash": "0x4d523a986056a76e2b17214b46ee59f135981a5538a14de8d35e3bb1f66be20a",
  "args": [
    "0xdd8eBa4604D2a9C6c77e4bC557B1884119174726",
    "0x9F5b3Eeffb978cF50b897Cb1f44d1a2Ca66acCF9",
    "0xdD659e02B9182165D0322E5D906d9c2CB2727604",
    "",
    ""
  ],
  "solcInputHash": "3c5549709da5986a1121be7d5a567b3f",
  "bytecode": "0x61014060405260026012620000159190620003e3565b600a62000023919062000572565b6001620000319190620005c3565b600c5560026012620000449190620003e3565b600a62000052919062000572565b6001620000609190620005c3565b600d553480156200007057600080fd5b506040516200484238038062004842833981810160405281019062000096919062000826565b8181600160008190555060008280519060200120905060008280519060200120905060007f8b73c3c69bb8fe3d512ecc4cf759cc79239f7b179b0ffacaa9a75d522b39400f90508260e081815250508161010081815250504660a0818152505062000109818484620001f460201b60201c565b608081815250503073ffffffffffffffffffffffffffffffffffffffff1660c08173ffffffffffffffffffffffffffffffffffffffff1681525050806101208181525050505050505083600660006101000a81548173ffffffffffffffffffffffffffffffffffffffff021916908373ffffffffffffffffffffffffffffffffffffffff16021790555082600760006101000a81548173ffffffffffffffffffffffffffffffffffffffff021916908373ffffffffffffffffffffffffffffffffffffffff160217905550620001e96000801b866200023060201b60201c565b505050505062000986565b600083838346306040516020016200021195949392919062000929565b6040516020818303038152906040528051906020012090509392505050565b6200024282826200024660201b60201c565b5050565b6200025882826200033760201b60201c565b6200033357600180600084815260200190815260200160002060000160008373ffffffffffffffffffffffffffffffffffffffff1673ffffffffffffffffffffffffffffffffffffffff16815260200190815260200160002060006101000a81548160ff021916908315150217905550620002d8620003a260201b60201c565b73ffffffffffffffffffffffffffffffffffffffff168173ffffffffffffffffffffffffffffffffffffffff16837f2f8788117e7eff1d82e926ec794901d17c78024a50270940304540a733656f0d60405160405180910390a45b5050565b60006001600084815260200190815260200160002060000160008373ffffffffffffffffffffffffffffffffffffffff1673ffffffffffffffffffffffffffffffffffffffff16815260200190815260200160002060009054906101000a900460ff16905092915050565b600033905090565b6000819050919050565b7f4e487b7100000000000000000000000000000000000000000000000000000000600052601160045260246000fd5b6000620003f082620003aa565b9150620003fd83620003aa565b925082821015620004135762000412620003b4565b5b828203905092915050565b60008160011c9050919050565b6000808291508390505b60018511156200047d57808604811115620004555762000454620003b4565b5b6001851615620004655780820291505b808102905062000475856200041e565b945062000435565b94509492505050565b6000826200049857600190506200056b565b81620004a857600090506200056b565b8160018114620004c15760028114620004cc5762000502565b60019150506200056b565b60ff841115620004e157620004e0620003b4565b5b8360020a915084821115620004fb57620004fa620003b4565b5b506200056b565b5060208310610133831016604e8410600b84101617156200053c5782820a905083811115620005365762000535620003b4565b5b6200056b565b6200054b84848460016200042b565b92509050818404811115620005655762000564620003b4565b5b81810290505b9392505050565b60006200057f82620003aa565b91506200058c83620003aa565b9250620005bb7fffffffffffffffffffffffffffffffffffffffffffffffffffffffffffffffff848462000486565b905092915050565b6000620005d082620003aa565b9150620005dd83620003aa565b9250817fffffffffffffffffffffffffffffffffffffffffffffffffffffffffffffffff0483118215151615620006195762000618620003b4565b5b828202905092915050565b6000604051905090565b600080fd5b600080fd5b600073ffffffffffffffffffffffffffffffffffffffff82169050919050565b6000620006658262000638565b9050919050565b620006778162000658565b81146200068357600080fd5b50565b60008151905062000697816200066c565b92915050565b600080fd5b600080fd5b6000601f19601f8301169050919050565b7f4e487b7100000000000000000000000000000000000000000000000000000000600052604160045260246000fd5b620006f282620006a7565b810181811067ffffffffffffffff82111715620007145762000713620006b8565b5b80604052505050565b60006200072962000624565b9050620007378282620006e7565b919050565b600067ffffffffffffffff8211156200075a5762000759620006b8565b5b6200076582620006a7565b9050602081019050919050565b60005b838110156200079257808201518184015260208101905062000775565b83811115620007a2576000848401525b50505050565b6000620007bf620007b9846200073c565b6200071d565b905082815260208101848484011115620007de57620007dd620006a2565b5b620007eb84828562000772565b509392505050565b600082601f8301126200080b576200080a6200069d565b5b81516200081d848260208601620007a8565b91505092915050565b600080600080600060a086880312156200084557620008446200062e565b5b6000620008558882890162000686565b9550506020620008688882890162000686565b94505060406200087b8882890162000686565b935050606086015167ffffffffffffffff8111156200089f576200089e62000633565b5b620008ad88828901620007f3565b925050608086015167ffffffffffffffff811115620008d157620008d062000633565b5b620008df88828901620007f3565b9150509295509295909350565b6000819050919050565b6200090181620008ec565b82525050565b6200091281620003aa565b82525050565b620009238162000658565b82525050565b600060a082019050620009406000830188620008f6565b6200094f6020830187620008f6565b6200095e6040830186620008f6565b6200096d606083018562000907565b6200097c608083018462000918565b9695505050505050565b60805160a05160c05160e0516101005161012051613e6c620009d6600039600061221a0152600061225c0152600061223b01526000612170015260006121c6015260006121ef0152613e6c6000f3fe608060405234801561001057600080fd5b50600436106101c45760003560e01c80635a5d6223116100f9578063be1cd71211610097578063d547741f11610071578063d547741f146104d2578063d75d07c2146104ee578063e20fcf001461050c578063e678ff251461052a576101c4565b8063be1cd71214610475578063c52cbd3414610496578063cd08a1df146104b4576101c4565b8063a1cd2232116100d3578063a1cd2232146103ed578063a217fddf1461041d578063a43f32411461043b578063b3ce252414610457576101c4565b80635a5d622314610383578063639c066d146103a157806391d14854146103bd576101c4565b80633c0717fd116101665780634b94f50e116101405780634b94f50e1461030d5780634f6d45a21461032b578063508c81a21461034757806353f5284714610365576101c4565b80633c0717fd146102b5578063409c86ca146102d3578063454175c0146102ef576101c4565b8063218f296e116101a2578063218f296e14610231578063248a9ca31461024d5780632f2ff15d1461027d57806336568abe14610299576101c4565b806301ffc9a7146101c95780630f5a5e18146101f957806320ab744914610215575b600080fd5b6101e360048036038101906101de919061280b565b610548565b6040516101f09190612853565b60405180910390f35b610213600480360381019061020e91906128a4565b6105c2565b005b61022f600480360381019061022a9190612b28565b6105ce565b005b61024b60048036038101906102469190612b28565b610868565b005b61026760048036038101906102629190612bcd565b610b02565b6040516102749190612c09565b60405180910390f35b61029760048036038101906102929190612c24565b610b22565b005b6102b360048036038101906102ae9190612c24565b610b4b565b005b6102bd610bce565b6040516102ca9190612c73565b60405180910390f35b6102ed60048036038101906102e891906128a4565b610bd8565b005b6102f7610be2565b6040516103049190612c73565b60405180910390f35b610315610be8565b6040516103229190612c73565b60405180910390f35b61034560048036038101906103409190612cba565b610bf2565b005b61034f610ce0565b60405161035c9190612c09565b60405180910390f35b61036d610d04565b60405161037a9190612d09565b60405180910390f35b61038b610d0e565b6040516103989190612d09565b60405180910390f35b6103bb60048036038101906103b691906128a4565b610d1b565b005b6103d760048036038101906103d29190612c24565b610d27565b6040516103e49190612853565b60405180910390f35b61040760048036038101906104029190612d24565b610d92565b6040516104149190612c73565b60405180910390f35b610425610e5c565b6040516104329190612c09565b60405180910390f35b61045560048036038101906104509190612d51565b610e63565b005b61045f611126565b60405161046c9190612c73565b60405180910390f35b61047d611130565b60405161048d9493929190612dbc565b60405180910390f35b61049e61116e565b6040516104ab9190612c73565b60405180910390f35b6104bc611174565b6040516104c99190612d09565b60405180910390f35b6104ec60048036038101906104e79190612c24565b611181565b005b6104f66111aa565b6040516105039190612c09565b60405180910390f35b6105146111ce565b6040516105219190612c73565b60405180910390f35b6105326111d8565b60405161053f9190612c73565b60405180910390f35b60007f7965db0b000000000000000000000000000000000000000000000000000000007bffffffffffffffffffffffffffffffffffffffffffffffffffffffff1916827bffffffffffffffffffffffffffffffffffffffffffffffffffffffff191614806105bb57506105ba826111e2565b5b9050919050565b6105cb8161124c565b50565b8082600061067e7f382f778b38ac8a684a068262bd90ef9739279743851e0bc20a2bf85f56a2550c846060015185600001518660200151600e6000896060015173ffffffffffffffffffffffffffffffffffffffff1673ffffffffffffffffffffffffffffffffffffffff16815260200190815260200160002054886040015160405160200161066396959493929190612e01565b60405160208183030381529060405280519060200120611685565b905061068f8360600151828461169f565b6106ce576040517f08c379a00000000000000000000000000000000000000000000000000000000081526004016106c590612ebf565b60405180910390fd5b600073ffffffffffffffffffffffffffffffffffffffff16836060015173ffffffffffffffffffffffffffffffffffffffff161415610742576040517f08c379a000000000000000000000000000000000000000000000000000000000815260040161073990612f2b565b60405180910390fd5b6107707feed754290b7b7033469899aa55827c9480fc90a4843b45b7f455d0ac50d3e6ce8460600151610d27565b6107af576040517f08c379a00000000000000000000000000000000000000000000000000000000081526004016107a690612fbd565b60405180910390fd5b826040015143106107f5576040517f08c379a00000000000000000000000000000000000000000000000000000000081526004016107ec9061304f565b60405180910390fd5b600e6000846060015173ffffffffffffffffffffffffffffffffffffffff1673ffffffffffffffffffffffffffffffffffffffff16815260200190815260200160002060008154809291906108499061309e565b919050555061085784611884565b6108608661124c565b505050505050565b808260006109187f382f778b38ac8a684a068262bd90ef9739279743851e0bc20a2bf85f56a2550c846060015185600001518660200151600e6000896060015173ffffffffffffffffffffffffffffffffffffffff1673ffffffffffffffffffffffffffffffffffffffff1681526020019081526020016000205488604001516040516020016108fd96959493929190612e01565b60405160208183030381529060405280519060200120611685565b90506109298360600151828461169f565b610968576040517f08c379a000000000000000000000000000000000000000000000000000000000815260040161095f90612ebf565b60405180910390fd5b600073ffffffffffffffffffffffffffffffffffffffff16836060015173ffffffffffffffffffffffffffffffffffffffff1614156109dc576040517f08c379a00000000000000000000000000000000000000000000000000000000081526004016109d390612f2b565b60405180910390fd5b610a0a7feed754290b7b7033469899aa55827c9480fc90a4843b45b7f455d0ac50d3e6ce8460600151610d27565b610a49576040517f08c379a0000000000000000000000000000000000000000000000000000000008152600401610a4090612fbd565b60405180910390fd5b82604001514310610a8f576040517f08c379a0000000000000000000000000000000000000000000000000000000008152600401610a869061304f565b60405180910390fd5b600e6000846060015173ffffffffffffffffffffffffffffffffffffffff1673ffffffffffffffffffffffffffffffffffffffff1681526020019081526020016000206000815480929190610ae39061309e565b9190505550610af184611884565b610afa866118c3565b505050505050565b600060016000838152602001908152602001600020600101549050919050565b610b2b82610b02565b610b3c81610b37611c57565b611c5f565b610b468383611cfc565b505050565b610b53611c57565b73ffffffffffffffffffffffffffffffffffffffff168173ffffffffffffffffffffffffffffffffffffffff1614610bc0576040517f08c379a0000000000000000000000000000000000000000000000000000000008152600401610bb790613159565b60405180910390fd5b610bca8282611ddc565b5050565b6000600354905090565b8060028190555050565b600d5481565b6000600c54905090565b600015158215151415610c5a57606481610c0c91906131a8565b60046000828254610c1d91906131d9565b925050819055506063606482610c3391906131a8565b610c3d919061322f565b60036000828254610c4e91906131d9565b92505081905550610c9b565b6064600254610c6991906131a8565b60046000828254610c7a91906131d9565b925050819055508060026000828254610c939190613289565b925050819055505b6000600860000181905550600060086001018190555060045460056000828254610cc591906132bd565b92505081905550610cd4611ebe565b610cdc612015565b5050565b7fce95e3899a3f9149fc26a34674875210907ee3c0dddf61ac603f89e90c1b5f9e81565b6000600554905090565b6000600860010154905090565b610d24816118c3565b50565b60006001600084815260200190815260200160002060000160008373ffffffffffffffffffffffffffffffffffffffff1673ffffffffffffffffffffffffffffffffffffffff16815260200190815260200160002060009054906101000a900460ff16905092915050565b60006012600a610da29190613484565b600c54600760009054906101000a900473ffffffffffffffffffffffffffffffffffffffff1673ffffffffffffffffffffffffffffffffffffffff166370a08231856040518263ffffffff1660e01b8152600401610e0091906134cf565b602060405180830381865afa158015610e1d573d6000803e3d6000fd5b505050506040513d601f19601f82011682018060405250810190610e4191906134ff565b610e4b919061322f565b610e5591906131a8565b9050919050565b6000801b81565b80826000610f137f382f778b38ac8a684a068262bd90ef9739279743851e0bc20a2bf85f56a2550c846060015185600001518660200151600e6000896060015173ffffffffffffffffffffffffffffffffffffffff1673ffffffffffffffffffffffffffffffffffffffff168152602001908152602001600020548860400151604051602001610ef896959493929190612e01565b60405160208183030381529060405280519060200120611685565b9050610f248360600151828461169f565b610f63576040517f08c379a0000000000000000000000000000000000000000000000000000000008152600401610f5a90612ebf565b60405180910390fd5b600073ffffffffffffffffffffffffffffffffffffffff16836060015173ffffffffffffffffffffffffffffffffffffffff161415610fd7576040517f08c379a0000000000000000000000000000000000000000000000000000000008152600401610fce90612f2b565b60405180910390fd5b6110057feed754290b7b7033469899aa55827c9480fc90a4843b45b7f455d0ac50d3e6ce8460600151610d27565b611044576040517f08c379a000000000000000000000000000000000000000000000000000000000815260040161103b90612fbd565b60405180910390fd5b8260400151431061108a576040517f08c379a00000000000000000000000000000000000000000000000000000000081526004016110819061304f565b60405180910390fd5b600e6000846060015173ffffffffffffffffffffffffffffffffffffffff1673ffffffffffffffffffffffffffffffffffffffff16815260200190815260200160002060008154809291906110de9061309e565b91905055507fce95e3899a3f9149fc26a34674875210907ee3c0dddf61ac603f89e90c1b5f9e61111581611110611c57565b611c5f565b61111e85611884565b505050505050565b6000600d54905090565b60088060000154908060010154908060020154908060030160009054906101000a900473ffffffffffffffffffffffffffffffffffffffff16905084565b600c5481565b6000600860000154905090565b61118a82610b02565b61119b81611196611c57565b611c5f565b6111a58383611ddc565b505050565b7feed754290b7b7033469899aa55827c9480fc90a4843b45b7f455d0ac50d3e6ce81565b6000600454905090565b6000600254905090565b60007f01ffc9a7000000000000000000000000000000000000000000000000000000007bffffffffffffffffffffffffffffffffffffffffffffffffffffffff1916827bffffffffffffffffffffffffffffffffffffffffffffffffffffffff1916149050919050565b60026000541415611292576040517f08c379a000000000000000000000000000000000000000000000000000000000815260040161128990613578565b60405180910390fd5b6002600081905550600081116112dd576040517f08c379a00000000000000000000000000000000000000000000000000000000081526004016112d4906135e4565b60405180910390fd5b600d546012600a6112ee9190613484565b600760009054906101000a900473ffffffffffffffffffffffffffffffffffffffff1673ffffffffffffffffffffffffffffffffffffffff166370a08231336040518263ffffffff1660e01b815260040161134991906134cf565b602060405180830381865afa158015611366573d6000803e3d6000fd5b505050506040513d601f19601f8201168201806040525081019061138a91906134ff565b61139491906131a8565b61139e919061322f565b600a806113ab9190613484565b826113b6919061322f565b111580156113ec57506008600101546003546113d29190613604565b600a806113df9190613484565b826113ea9190613698565b125b61142b576040517f08c379a0000000000000000000000000000000000000000000000000000000008152600401611422906137fb565b60405180910390fd5b6000600d546012600a61143e9190613484565b600a8061144b9190613484565b84611456919061322f565b611460919061322f565b61146a91906131a8565b9050600a806114799190613484565b82611484919061322f565b600360008282546114959190613289565b92505081905550600a806114a99190613484565b826114b49190613698565b600560008282546114c59190613604565b92505081905550600a806114d99190613484565b826114e4919061322f565b600f60003373ffffffffffffffffffffffffffffffffffffffff1673ffffffffffffffffffffffffffffffffffffffff16815260200190815260200160002060008282546115329190613289565b92505081905550600660009054906101000a900473ffffffffffffffffffffffffffffffffffffffff1673ffffffffffffffffffffffffffffffffffffffff1663a9059cbb33846040518363ffffffff1660e01b815260040161159692919061381b565b6020604051808303816000875af11580156115b5573d6000803e3d6000fd5b505050506040513d601f19601f820116820180604052508101906115d99190613859565b50600760009054906101000a900473ffffffffffffffffffffffffffffffffffffffff1673ffffffffffffffffffffffffffffffffffffffff16639dc29fac33836040518363ffffffff1660e01b815260040161163792919061381b565b600060405180830381600087803b15801561165157600080fd5b505af1158015611665573d6000803e3d6000fd5b50505050611671612015565b611679611ebe565b50600160008190555050565b600061169861169261216c565b83612286565b9050919050565b60008060006116ae85856122b9565b91509150600060048111156116c6576116c5613886565b5b8160048111156116d9576116d8613886565b5b14801561171157508573ffffffffffffffffffffffffffffffffffffffff168273ffffffffffffffffffffffffffffffffffffffff16145b156117215760019250505061187d565b6000808773ffffffffffffffffffffffffffffffffffffffff16631626ba7e60e01b888860405160240161175692919061393d565b604051602081830303815290604052907bffffffffffffffffffffffffffffffffffffffffffffffffffffffff19166020820180517bffffffffffffffffffffffffffffffffffffffffffffffffffffffff83818316178352505050506040516117c091906139a9565b600060405180830381855afa9150503d80600081146117fb576040519150601f19603f3d011682016040523d82523d6000602084013e611800565b606091505b5091509150818015611813575060208151145b80156118765750631626ba7e60e01b7bffffffffffffffffffffffffffffffffffffffffffffffffffffffff19168180602001905181019061185591906139d5565b7bffffffffffffffffffffffffffffffffffffffffffffffffffffffff1916145b9450505050505b9392505050565b6008600001548160000151146118a2576118a1816000015161233c565b5b6008600101548160200151146118c0576118bf816020015161235a565b5b50565b60026000541415611909576040517f08c379a000000000000000000000000000000000000000000000000000000000815260040161190090613578565b60405180910390fd5b60026000819055506000811180156119bc5750600660009054906101000a900473ffffffffffffffffffffffffffffffffffffffff1673ffffffffffffffffffffffffffffffffffffffff166370a08231336040518263ffffffff1660e01b815260040161197791906134cf565b602060405180830381865afa158015611994573d6000803e3d6000fd5b505050506040513d601f19601f820116820180604052508101906119b891906134ff565b8111155b6119fb576040517f08c379a00000000000000000000000000000000000000000000000000000000081526004016119f290613a4e565b60405180910390fd5b600a80611a089190613484565b81611a13919061322f565b60036000828254611a2491906131d9565b92505081905550600a80611a389190613484565b81611a43919061322f565b60056000828254611a5491906132bd565b92505081905550600a80611a689190613484565b81611a73919061322f565b600f60003373ffffffffffffffffffffffffffffffffffffffff1673ffffffffffffffffffffffffffffffffffffffff1681526020019081526020016000206000828254611ac191906131d9565b92505081905550600660009054906101000a900473ffffffffffffffffffffffffffffffffffffffff1673ffffffffffffffffffffffffffffffffffffffff166323b872dd3330846040518463ffffffff1660e01b8152600401611b2793929190613a6e565b6020604051808303816000875af1158015611b46573d6000803e3d6000fd5b505050506040513d601f19601f82011682018060405250810190611b6a9190613859565b506000600c546012600a611b7e9190613484565b600a80611b8b9190613484565b84611b96919061322f565b611ba0919061322f565b611baa91906131a8565b9050600760009054906101000a900473ffffffffffffffffffffffffffffffffffffffff1673ffffffffffffffffffffffffffffffffffffffff166340c10f1933836040518363ffffffff1660e01b8152600401611c0992919061381b565b600060405180830381600087803b158015611c2357600080fd5b505af1158015611c37573d6000803e3d6000fd5b50505050611c43611ebe565b611c4b612015565b50600160008190555050565b600033905090565b611c698282610d27565b611cf857611c8e8173ffffffffffffffffffffffffffffffffffffffff166014612367565b611c9c8360001c6020612367565b604051602001611cad929190613b84565b6040516020818303038152906040526040517f08c379a0000000000000000000000000000000000000000000000000000000008152600401611cef9190613bf7565b60405180910390fd5b5050565b611d068282610d27565b611dd857600180600084815260200190815260200160002060000160008373ffffffffffffffffffffffffffffffffffffffff1673ffffffffffffffffffffffffffffffffffffffff16815260200190815260200160002060006101000a81548160ff021916908315150217905550611d7d611c57565b73ffffffffffffffffffffffffffffffffffffffff168173ffffffffffffffffffffffffffffffffffffffff16837f2f8788117e7eff1d82e926ec794901d17c78024a50270940304540a733656f0d60405160405180910390a45b5050565b611de68282610d27565b15611eba5760006001600084815260200190815260200160002060000160008373ffffffffffffffffffffffffffffffffffffffff1673ffffffffffffffffffffffffffffffffffffffff16815260200190815260200160002060006101000a81548160ff021916908315150217905550611e5f611c57565b73ffffffffffffffffffffffffffffffffffffffff168173ffffffffffffffffffffffffffffffffffffffff16837ff6391f5c32d9c69d2a47ea670b442974b53935d1edc7fd64eb21e047a839171b60405160405180910390a45b5050565b6000600760009054906101000a900473ffffffffffffffffffffffffffffffffffffffff1673ffffffffffffffffffffffffffffffffffffffff166318160ddd6040518163ffffffff1660e01b8152600401602060405180830381865afa158015611f2d573d6000803e3d6000fd5b505050506040513d601f19601f82011682018060405250810190611f5191906134ff565b1461201357600760009054906101000a900473ffffffffffffffffffffffffffffffffffffffff1673ffffffffffffffffffffffffffffffffffffffff166318160ddd6040518163ffffffff1660e01b8152600401602060405180830381865afa158015611fc3573d6000803e3d6000fd5b505050506040513d601f19601f82011682018060405250810190611fe791906134ff565b6012600a611ff59190613484565b600554612002919061322f565b61200c91906131a8565b600c819055505b565b6000600760009054906101000a900473ffffffffffffffffffffffffffffffffffffffff1673ffffffffffffffffffffffffffffffffffffffff166318160ddd6040518163ffffffff1660e01b8152600401602060405180830381865afa158015612084573d6000803e3d6000fd5b505050506040513d601f19601f820116820180604052508101906120a891906134ff565b1461216a57600760009054906101000a900473ffffffffffffffffffffffffffffffffffffffff1673ffffffffffffffffffffffffffffffffffffffff166318160ddd6040518163ffffffff1660e01b8152600401602060405180830381865afa15801561211a573d6000803e3d6000fd5b505050506040513d601f19601f8201168201806040525081019061213e91906134ff565b6012600a61214c9190613484565b600354612159919061322f565b61216391906131a8565b600d819055505b565b60007f000000000000000000000000000000000000000000000000000000000000000073ffffffffffffffffffffffffffffffffffffffff163073ffffffffffffffffffffffffffffffffffffffff161480156121e857507f000000000000000000000000000000000000000000000000000000000000000046145b15612215577f00000000000000000000000000000000000000000000000000000000000000009050612283565b6122807f00000000000000000000000000000000000000000000000000000000000000007f00000000000000000000000000000000000000000000000000000000000000007f00000000000000000000000000000000000000000000000000000000000000006125a3565b90505b90565b6000828260405160200161229b929190613c86565b60405160208183030381529060405280519060200120905092915050565b6000806041835114156122fb5760008060006020860151925060408601519150606086015160001a90506122ef878285856125dd565b94509450505050612335565b60408351141561232c5760008060208501519150604085015190506123218683836126ea565b935093505050612335565b60006002915091505b9250929050565b61234581612738565b80600860000181905550612357611ebe565b50565b8060086001018190555050565b60606000600283600261237a919061322f565b61238491906131d9565b67ffffffffffffffff81111561239d5761239c6128ec565b5b6040519080825280601f01601f1916602001820160405280156123cf5781602001600182028036833780820191505090505b5090507f30000000000000000000000000000000000000000000000000000000000000008160008151811061240757612406613cbd565b5b60200101907effffffffffffffffffffffffffffffffffffffffffffffffffffffffffffff1916908160001a9053507f78000000000000000000000000000000000000000000000000000000000000008160018151811061246b5761246a613cbd565b5b60200101907effffffffffffffffffffffffffffffffffffffffffffffffffffffffffffff1916908160001a905350600060018460026124ab919061322f565b6124b591906131d9565b90505b6001811115612555577f3031323334353637383961626364656600000000000000000000000000000000600f8616601081106124f7576124f6613cbd565b5b1a60f81b82828151811061250e5761250d613cbd565b5b60200101907effffffffffffffffffffffffffffffffffffffffffffffffffffffffffffff1916908160001a905350600485901c94508061254e90613cec565b90506124b8565b5060008414612599576040517f08c379a000000000000000000000000000000000000000000000000000000000815260040161259090613d62565b60405180910390fd5b8091505092915050565b600083838346306040516020016125be959493929190613d82565b6040516020818303038152906040528051906020012090509392505050565b6000807f7fffffffffffffffffffffffffffffff5d576e7357a4501ddfe92f46681b20a08360001c11156126185760006003915091506126e1565b601b8560ff16141580156126305750601c8560ff1614155b156126425760006004915091506126e1565b6000600187878787604051600081526020016040526040516126679493929190613df1565b6020604051602081039080840390855afa158015612689573d6000803e3d6000fd5b505050602060405103519050600073ffffffffffffffffffffffffffffffffffffffff168173ffffffffffffffffffffffffffffffffffffffff1614156126d8576000600192509250506126e1565b80600092509250505b94509492505050565b6000806000807f7fffffffffffffffffffffffffffffffffffffffffffffffffffffffffffffff85169150601b8560ff1c01905061272a878288856125dd565b935093505050935093915050565b6000600860000154141561276457806005600082825461275891906132bd565b9250508190555061279c565b6008600001546005600082825461277b9190613604565b92505081905550806005600082825461279491906132bd565b925050819055505b50565b6000604051905090565b600080fd5b600080fd5b60007fffffffff0000000000000000000000000000000000000000000000000000000082169050919050565b6127e8816127b3565b81146127f357600080fd5b50565b600081359050612805816127df565b92915050565b600060208284031215612821576128206127a9565b5b600061282f848285016127f6565b91505092915050565b60008115159050919050565b61284d81612838565b82525050565b60006020820190506128686000830184612844565b92915050565b6000819050919050565b6128818161286e565b811461288c57600080fd5b50565b60008135905061289e81612878565b92915050565b6000602082840312156128ba576128b96127a9565b5b60006128c88482850161288f565b91505092915050565b600080fd5b600080fd5b6000601f19601f8301169050919050565b7f4e487b7100000000000000000000000000000000000000000000000000000000600052604160045260246000fd5b612924826128db565b810181811067ffffffffffffffff82111715612943576129426128ec565b5b80604052505050565b600061295661279f565b9050612962828261291b565b919050565b600067ffffffffffffffff821115612982576129816128ec565b5b61298b826128db565b9050602081019050919050565b82818337600083830152505050565b60006129ba6129b584612967565b61294c565b9050828152602081018484840111156129d6576129d56128d6565b5b6129e1848285612998565b509392505050565b600082601f8301126129fe576129fd6128d1565b5b8135612a0e8482602086016129a7565b91505092915050565b600080fd5b6000819050919050565b612a2f81612a1c565b8114612a3a57600080fd5b50565b600081359050612a4c81612a26565b92915050565b600073ffffffffffffffffffffffffffffffffffffffff82169050919050565b6000612a7d82612a52565b9050919050565b612a8d81612a72565b8114612a9857600080fd5b50565b600081359050612aaa81612a84565b92915050565b600060808284031215612ac657612ac5612a17565b5b612ad0608061294c565b90506000612ae084828501612a3d565b6000830152506020612af484828501612a3d565b6020830152506040612b088482850161288f565b6040830152506060612b1c84828501612a9b565b60608301525092915050565b600080600060c08486031215612b4157612b406127a9565b5b6000612b4f8682870161288f565b935050602084013567ffffffffffffffff811115612b7057612b6f6127ae565b5b612b7c868287016129e9565b9250506040612b8d86828701612ab0565b9150509250925092565b6000819050919050565b612baa81612b97565b8114612bb557600080fd5b50565b600081359050612bc781612ba1565b92915050565b600060208284031215612be357612be26127a9565b5b6000612bf184828501612bb8565b91505092915050565b612c0381612b97565b82525050565b6000602082019050612c1e6000830184612bfa565b92915050565b60008060408385031215612c3b57612c3a6127a9565b5b6000612c4985828601612bb8565b9250506020612c5a85828601612a9b565b9150509250929050565b612c6d8161286e565b82525050565b6000602082019050612c886000830184612c64565b92915050565b612c9781612838565b8114612ca257600080fd5b50565b600081359050612cb481612c8e565b92915050565b60008060408385031215612cd157612cd06127a9565b5b6000612cdf85828601612ca5565b9250506020612cf08582860161288f565b9150509250929050565b612d0381612a1c565b82525050565b6000602082019050612d1e6000830184612cfa565b92915050565b600060208284031215612d3a57612d396127a9565b5b6000612d4884828501612a9b565b91505092915050565b60008060a08385031215612d6857612d676127a9565b5b600083013567ffffffffffffffff811115612d8657612d856127ae565b5b612d92858286016129e9565b9250506020612da385828601612ab0565b9150509250929050565b612db681612a72565b82525050565b6000608082019050612dd16000830187612cfa565b612dde6020830186612cfa565b612deb6040830185612c64565b612df86060830184612dad565b95945050505050565b600060c082019050612e166000830189612bfa565b612e236020830188612dad565b612e306040830187612cfa565b612e3d6060830186612cfa565b612e4a6080830185612c64565b612e5760a0830184612c64565b979650505050505050565b600082825260208201905092915050565b7f486f757365506f6f6c574254433a20696e76616c6964207369676e6174757265600082015250565b6000612ea9602083612e62565b9150612eb482612e73565b602082019050919050565b60006020820190508181036000830152612ed881612e9c565b9050919050565b7f486f757365506f6f6c574254433a20696e76616c6964207369676e6572000000600082015250565b6000612f15601d83612e62565b9150612f2082612edf565b602082019050919050565b60006020820190508181036000830152612f4481612f08565b9050919050565b7f486f757365506f6f6c574254433a20756e617574686f7269736564207369676e60008201527f6572000000000000000000000000000000000000000000000000000000000000602082015250565b6000612fa7602283612e62565b9150612fb282612f4b565b604082019050919050565b60006020820190508181036000830152612fd681612f9a565b9050919050565b7f486f757365506f6f6c574254433a207369676e6564207472616e73616374696f60008201527f6e20657870697265640000000000000000000000000000000000000000000000602082015250565b6000613039602983612e62565b915061304482612fdd565b604082019050919050565b600060208201905081810360008301526130688161302c565b9050919050565b7f4e487b7100000000000000000000000000000000000000000000000000000000600052601160045260246000fd5b60006130a98261286e565b91507fffffffffffffffffffffffffffffffffffffffffffffffffffffffffffffffff8214156130dc576130db61306f565b5b600182019050919050565b7f416363657373436f6e74726f6c3a2063616e206f6e6c792072656e6f756e636560008201527f20726f6c657320666f722073656c660000000000000000000000000000000000602082015250565b6000613143602f83612e62565b915061314e826130e7565b604082019050919050565b6000602082019050818103600083015261317281613136565b9050919050565b7f4e487b7100000000000000000000000000000000000000000000000000000000600052601260045260246000fd5b60006131b38261286e565b91506131be8361286e565b9250826131ce576131cd613179565b5b828204905092915050565b60006131e48261286e565b91506131ef8361286e565b9250827fffffffffffffffffffffffffffffffffffffffffffffffffffffffffffffffff038211156132245761322361306f565b5b828201905092915050565b600061323a8261286e565b91506132458361286e565b9250817fffffffffffffffffffffffffffffffffffffffffffffffffffffffffffffffff048311821515161561327e5761327d61306f565b5b828202905092915050565b60006132948261286e565b915061329f8361286e565b9250828210156132b2576132b161306f565b5b828203905092915050565b60006132c882612a1c565b91506132d383612a1c565b9250817f7fffffffffffffffffffffffffffffffffffffffffffffffffffffffffffffff0383136000831215161561330e5761330d61306f565b5b817f80000000000000000000000000000000000000000000000000000000000000000383126000831216156133465761334561306f565b5b828201905092915050565b60008160011c9050919050565b6000808291508390505b60018511156133a8578086048111156133845761338361306f565b5b60018516156133935780820291505b80810290506133a185613351565b9450613368565b94509492505050565b6000826133c1576001905061347d565b816133cf576000905061347d565b81600181146133e557600281146133ef5761341e565b600191505061347d565b60ff8411156134015761340061306f565b5b8360020a9150848211156134185761341761306f565b5b5061347d565b5060208310610133831016604e8410600b84101617156134535782820a90508381111561344e5761344d61306f565b5b61347d565b613460848484600161335e565b925090508184048111156134775761347661306f565b5b81810290505b9392505050565b600061348f8261286e565b915061349a8361286e565b92506134c77fffffffffffffffffffffffffffffffffffffffffffffffffffffffffffffffff84846133b1565b905092915050565b60006020820190506134e46000830184612dad565b92915050565b6000815190506134f981612878565b92915050565b600060208284031215613515576135146127a9565b5b6000613523848285016134ea565b91505092915050565b7f5265656e7472616e637947756172643a207265656e7472616e742063616c6c00600082015250565b6000613562601f83612e62565b915061356d8261352c565b602082019050919050565b6000602082019050818103600083015261359181613555565b9050919050565b7f57425443486f757365506f6f6c3a205a65726f20416d6f756e74000000000000600082015250565b60006135ce601a83612e62565b91506135d982613598565b602082019050919050565b600060208201905081810360008301526135fd816135c1565b9050919050565b600061360f82612a1c565b915061361a83612a1c565b9250827f8000000000000000000000000000000000000000000000000000000000000000018212600084121516156136555761365461306f565b5b827f7fffffffffffffffffffffffffffffffffffffffffffffffffffffffffffffff01821360008412161561368d5761368c61306f565b5b828203905092915050565b60006136a382612a1c565b91506136ae83612a1c565b9250827f7fffffffffffffffffffffffffffffffffffffffffffffffffffffffffffffff04821160008413600084131616156136ed576136ec61306f565b5b817f8000000000000000000000000000000000000000000000000000000000000000058312600084126000841316161561372a5761372961306f565b5b827f800000000000000000000000000000000000000000000000000000000000000005821260008413600084121616156137675761376661306f565b5b827f7fffffffffffffffffffffffffffffffffffffffffffffffffffffffffffffff05821260008412600084121616156137a4576137a361306f565b5b828202905092915050565b7f57425443486f757365506f6f6c203a2063616e27742077697468647261770000600082015250565b60006137e5601e83612e62565b91506137f0826137af565b602082019050919050565b60006020820190508181036000830152613814816137d8565b9050919050565b60006040820190506138306000830185612dad565b61383d6020830184612c64565b9392505050565b60008151905061385381612c8e565b92915050565b60006020828403121561386f5761386e6127a9565b5b600061387d84828501613844565b91505092915050565b7f4e487b7100000000000000000000000000000000000000000000000000000000600052602160045260246000fd5b600081519050919050565b600082825260208201905092915050565b60005b838110156138ef5780820151818401526020810190506138d4565b838111156138fe576000848401525b50505050565b600061390f826138b5565b61391981856138c0565b93506139298185602086016138d1565b613932816128db565b840191505092915050565b60006040820190506139526000830185612bfa565b81810360208301526139648184613904565b90509392505050565b600081905092915050565b6000613983826138b5565b61398d818561396d565b935061399d8185602086016138d1565b80840191505092915050565b60006139b58284613978565b915081905092915050565b6000815190506139cf816127df565b92915050565b6000602082840312156139eb576139ea6127a9565b5b60006139f9848285016139c0565b91505092915050565b7f57425443486f757365506f6f6c3a20436865636b207468652042616c616e6365600082015250565b6000613a38602083612e62565b9150613a4382613a02565b602082019050919050565b60006020820190508181036000830152613a6781613a2b565b9050919050565b6000606082019050613a836000830186612dad565b613a906020830185612dad565b613a9d6040830184612c64565b949350505050565b600081905092915050565b7f416363657373436f6e74726f6c3a206163636f756e7420000000000000000000600082015250565b6000613ae6601783613aa5565b9150613af182613ab0565b601782019050919050565b600081519050919050565b6000613b1282613afc565b613b1c8185613aa5565b9350613b2c8185602086016138d1565b80840191505092915050565b7f206973206d697373696e6720726f6c6520000000000000000000000000000000600082015250565b6000613b6e601183613aa5565b9150613b7982613b38565b601182019050919050565b6000613b8f82613ad9565b9150613b9b8285613b07565b9150613ba682613b61565b9150613bb28284613b07565b91508190509392505050565b6000613bc982613afc565b613bd38185612e62565b9350613be38185602086016138d1565b613bec816128db565b840191505092915050565b60006020820190508181036000830152613c118184613bbe565b905092915050565b7f1901000000000000000000000000000000000000000000000000000000000000600082015250565b6000613c4f600283613aa5565b9150613c5a82613c19565b600282019050919050565b6000819050919050565b613c80613c7b82612b97565b613c65565b82525050565b6000613c9182613c42565b9150613c9d8285613c6f565b602082019150613cad8284613c6f565b6020820191508190509392505050565b7f4e487b7100000000000000000000000000000000000000000000000000000000600052603260045260246000fd5b6000613cf78261286e565b91506000821415613d0b57613d0a61306f565b5b600182039050919050565b7f537472696e67733a20686578206c656e67746820696e73756666696369656e74600082015250565b6000613d4c602083612e62565b9150613d5782613d16565b602082019050919050565b60006020820190508181036000830152613d7b81613d3f565b9050919050565b600060a082019050613d976000830188612bfa565b613da46020830187612bfa565b613db16040830186612bfa565b613dbe6060830185612c64565b613dcb6080830184612dad565b9695505050505050565b600060ff82169050919050565b613deb81613dd5565b82525050565b6000608082019050613e066000830187612bfa565b613e136020830186613de2565b613e206040830185612bfa565b613e2d6060830184612bfa565b9594505050505056fea2646970667358221220308d3ce839fd244f0db2d111ba2dfe924dccdbea4ccf169952c30ee73fd6f9ae64736f6c634300080a0033",
  "devdoc": {
    "kind": "dev",
    "methods": {
      "getRoleAdmin(bytes32)": {
        "details": "Returns the admin role that controls `role`. See {grantRole} and {revokeRole}. To change a role's admin, use {_setRoleAdmin}."
      },
      "grantRole(bytes32,address)": {
        "details": "Grants `role` to `account`. If `account` had not been already granted `role`, emits a {RoleGranted} event. Requirements: - the caller must have ``role``'s admin role."
      },
      "hasRole(bytes32,address)": {
        "details": "Returns `true` if `account` has been granted `role`."
      },
      "renounceRole(bytes32,address)": {
        "details": "Revokes `role` from the calling account. Roles are often managed via {grantRole} and {revokeRole}: this function's purpose is to provide a mechanism for accounts to lose their privileges if they are compromised (such as when a trusted device is misplaced). If the calling account had been revoked `role`, emits a {RoleRevoked} event. Requirements: - the caller must be `account`."
      },
      "revokeRole(bytes32,address)": {
        "details": "Revokes `role` from `account`. If `account` had been granted `role`, emits a {RoleRevoked} event. Requirements: - the caller must have ``role``'s admin role."
      },
      "supportsInterface(bytes4)": {
        "details": "See {IERC165-supportsInterface}."
      }
    },
    "version": 1
  },
  "userdoc": {
    "kind": "user",
    "methods": {},
    "version": 1
  },
  "storageLayout": {
    "storage": [
      {
        "astId": 603,
        "contract": "contracts/HousePoolWBTC.sol:HousePoolWBTC",
        "label": "_status",
        "offset": 0,
        "slot": "0",
        "type": "t_uint256"
      },
      {
        "astId": 24,
        "contract": "contracts/HousePoolWBTC.sol:HousePoolWBTC",
        "label": "_roles",
        "offset": 0,
        "slot": "1",
        "type": "t_mapping(t_bytes32,t_struct(RoleData)19_storage)"
      },
      {
        "astId": 4386,
        "contract": "contracts/HousePoolWBTC.sol:HousePoolWBTC",
        "label": "bettingStakes",
        "offset": 0,
        "slot": "2",
        "type": "t_uint256"
      },
      {
        "astId": 4388,
        "contract": "contracts/HousePoolWBTC.sol:HousePoolWBTC",
        "label": "liquidity",
        "offset": 0,
        "slot": "3",
        "type": "t_uint256"
      },
      {
        "astId": 4390,
        "contract": "contracts/HousePoolWBTC.sol:HousePoolWBTC",
        "label": "treasuryAmount",
        "offset": 0,
        "slot": "4",
        "type": "t_uint256"
      },
      {
        "astId": 4392,
        "contract": "contracts/HousePoolWBTC.sol:HousePoolWBTC",
        "label": "tvl",
        "offset": 0,
        "slot": "5",
        "type": "t_int256"
      },
      {
        "astId": 4395,
        "contract": "contracts/HousePoolWBTC.sol:HousePoolWBTC",
        "label": "token",
        "offset": 0,
        "slot": "6",
        "type": "t_contract(IERC20)1256"
      },
      {
        "astId": 4398,
        "contract": "contracts/HousePoolWBTC.sol:HousePoolWBTC",
        "label": "claimToken",
        "offset": 0,
        "slot": "7",
        "type": "t_contract(claimTokenInterface)4369"
      },
      {
        "astId": 4401,
        "contract": "contracts/HousePoolWBTC.sol:HousePoolWBTC",
        "label": "voi",
        "offset": 0,
        "slot": "8",
        "type": "t_struct(ValuesOfInterest)4384_storage"
      },
      {
        "astId": 4417,
        "contract": "contracts/HousePoolWBTC.sol:HousePoolWBTC",
        "label": "lpTokenPrice",
        "offset": 0,
        "slot": "12",
        "type": "t_uint256"
      },
      {
        "astId": 4427,
        "contract": "contracts/HousePoolWBTC.sol:HousePoolWBTC",
        "label": "lpTokenWithdrawlPrice",
        "offset": 0,
        "slot": "13",
        "type": "t_uint256"
      },
      {
        "astId": 4441,
        "contract": "contracts/HousePoolWBTC.sol:HousePoolWBTC",
        "label": "nonces",
        "offset": 0,
        "slot": "14",
        "type": "t_mapping(t_address,t_uint256)"
      },
      {
        "astId": 4445,
        "contract": "contracts/HousePoolWBTC.sol:HousePoolWBTC",
        "label": "deposits",
        "offset": 0,
        "slot": "15",
        "type": "t_mapping(t_address,t_uint256)"
      }
    ],
    "types": {
      "t_address": {
        "encoding": "inplace",
        "label": "address",
        "numberOfBytes": "20"
      },
      "t_bool": {
        "encoding": "inplace",
        "label": "bool",
        "numberOfBytes": "1"
      },
      "t_bytes32": {
        "encoding": "inplace",
        "label": "bytes32",
        "numberOfBytes": "32"
      },
      "t_contract(IERC20)1256": {
        "encoding": "inplace",
        "label": "contract IERC20",
        "numberOfBytes": "20"
      },
      "t_contract(claimTokenInterface)4369": {
        "encoding": "inplace",
        "label": "contract claimTokenInterface",
        "numberOfBytes": "20"
      },
      "t_int256": {
        "encoding": "inplace",
        "label": "int256",
        "numberOfBytes": "32"
      },
      "t_mapping(t_address,t_bool)": {
        "encoding": "mapping",
        "key": "t_address",
        "label": "mapping(address => bool)",
        "numberOfBytes": "32",
        "value": "t_bool"
      },
      "t_mapping(t_address,t_uint256)": {
        "encoding": "mapping",
        "key": "t_address",
        "label": "mapping(address => uint256)",
        "numberOfBytes": "32",
        "value": "t_uint256"
      },
      "t_mapping(t_bytes32,t_struct(RoleData)19_storage)": {
        "encoding": "mapping",
        "key": "t_bytes32",
        "label": "mapping(bytes32 => struct AccessControl.RoleData)",
        "numberOfBytes": "32",
        "value": "t_struct(RoleData)19_storage"
      },
      "t_struct(RoleData)19_storage": {
        "encoding": "inplace",
        "label": "struct AccessControl.RoleData",
        "members": [
          {
            "astId": 16,
            "contract": "contracts/HousePoolWBTC.sol:HousePoolWBTC",
            "label": "members",
            "offset": 0,
            "slot": "0",
            "type": "t_mapping(t_address,t_bool)"
          },
          {
            "astId": 18,
            "contract": "contracts/HousePoolWBTC.sol:HousePoolWBTC",
            "label": "adminRole",
            "offset": 0,
            "slot": "1",
            "type": "t_bytes32"
          }
        ],
        "numberOfBytes": "64"
      },
      "t_struct(ValuesOfInterest)4384_storage": {
        "encoding": "inplace",
        "label": "struct HousePoolWBTC.ValuesOfInterest",
        "members": [
          {
            "astId": 4377,
            "contract": "contracts/HousePoolWBTC.sol:HousePoolWBTC",
            "label": "expectedValue",
            "offset": 0,
            "slot": "0",
            "type": "t_int256"
          },
          {
            "astId": 4379,
            "contract": "contracts/HousePoolWBTC.sol:HousePoolWBTC",
            "label": "maxExposure",
            "offset": 0,
            "slot": "1",
            "type": "t_int256"
          },
          {
            "astId": 4381,
            "contract": "contracts/HousePoolWBTC.sol:HousePoolWBTC",
            "label": "deadline",
            "offset": 0,
            "slot": "2",
            "type": "t_uint256"
          },
          {
            "astId": 4383,
            "contract": "contracts/HousePoolWBTC.sol:HousePoolWBTC",
            "label": "signer",
            "offset": 0,
            "slot": "3",
            "type": "t_address"
          }
        ],
        "numberOfBytes": "128"
      },
      "t_uint256": {
        "encoding": "inplace",
        "label": "uint256",
        "numberOfBytes": "32"
      }
    }
  }
}