{
  "address": "0xd96AEbeb24cE3562940aF852c5d495f50d8c8825",
  "abi": [
    {
      "inputs": [
        {
          "internalType": "address",
          "name": "_owner",
          "type": "address"
        },
        {
          "internalType": "address",
          "name": "_WBTC",
          "type": "address"
        },
        {
          "internalType": "address",
          "name": "_claimToken",
          "type": "address"
        },
        {
          "internalType": "string",
          "name": "_name",
          "type": "string"
        },
        {
          "internalType": "string",
          "name": "_version",
          "type": "string"
        }
      ],
      "stateMutability": "nonpayable",
      "type": "constructor"
    },
    {
      "anonymous": false,
      "inputs": [
        {
          "indexed": true,
          "internalType": "bytes32",
          "name": "role",
          "type": "bytes32"
        },
        {
          "indexed": true,
          "internalType": "bytes32",
          "name": "previousAdminRole",
          "type": "bytes32"
        },
        {
          "indexed": true,
          "internalType": "bytes32",
          "name": "newAdminRole",
          "type": "bytes32"
        }
      ],
      "name": "RoleAdminChanged",
      "type": "event"
    },
    {
      "anonymous": false,
      "inputs": [
        {
          "indexed": true,
          "internalType": "bytes32",
          "name": "role",
          "type": "bytes32"
        },
        {
          "indexed": true,
          "internalType": "address",
          "name": "account",
          "type": "address"
        },
        {
          "indexed": true,
          "internalType": "address",
          "name": "sender",
          "type": "address"
        }
      ],
      "name": "RoleGranted",
      "type": "event"
    },
    {
      "anonymous": false,
      "inputs": [
        {
          "indexed": true,
          "internalType": "bytes32",
          "name": "role",
          "type": "bytes32"
        },
        {
          "indexed": true,
          "internalType": "address",
          "name": "account",
          "type": "address"
        },
        {
          "indexed": true,
          "internalType": "address",
          "name": "sender",
          "type": "address"
        }
      ],
      "name": "RoleRevoked",
      "type": "event"
    },
    {
      "inputs": [],
      "name": "DATA_PROVIDER_ORACLE",
      "outputs": [
        {
          "internalType": "bytes32",
          "name": "",
          "type": "bytes32"
        }
      ],
      "stateMutability": "view",
      "type": "function"
    },
    {
      "inputs": [],
      "name": "DEFAULT_ADMIN_ROLE",
      "outputs": [
        {
          "internalType": "bytes32",
          "name": "",
          "type": "bytes32"
        }
      ],
      "stateMutability": "view",
      "type": "function"
    },
    {
      "inputs": [],
      "name": "HOUSE_POOL_DATA_PROVIDER",
      "outputs": [
        {
          "internalType": "bytes32",
          "name": "",
          "type": "bytes32"
        }
      ],
      "stateMutability": "view",
      "type": "function"
    },
    {
      "inputs": [
        {
          "internalType": "uint256",
          "name": "amountWBTC",
          "type": "uint256"
        },
        {
          "internalType": "bytes",
          "name": "approval",
          "type": "bytes"
        },
        {
          "components": [
            {
              "internalType": "int256",
              "name": "expectedValue",
              "type": "int256"
            },
            {
              "internalType": "int256",
              "name": "maxExposure",
              "type": "int256"
            },
            {
              "internalType": "uint256",
              "name": "deadline",
              "type": "uint256"
            },
            {
              "internalType": "address",
              "name": "signer",
              "type": "address"
            }
          ],
          "internalType": "struct HousePoolWBTC.ValuesOfInterest",
          "name": "approvedValues",
          "type": "tuple"
        }
      ],
      "name": "deposit",
      "outputs": [],
      "stateMutability": "nonpayable",
      "type": "function"
    },
    {
      "inputs": [
        {
          "internalType": "uint256",
          "name": "WBTCMicro",
          "type": "uint256"
        }
      ],
      "name": "deposit_",
      "outputs": [],
      "stateMutability": "nonpayable",
      "type": "function"
    },
    {
      "inputs": [],
      "name": "getBettingStakes",
      "outputs": [
        {
          "internalType": "uint256",
          "name": "",
          "type": "uint256"
        }
      ],
      "stateMutability": "view",
      "type": "function"
    },
    {
      "inputs": [],
      "name": "getEV",
      "outputs": [
        {
          "internalType": "int256",
          "name": "",
          "type": "int256"
        }
      ],
      "stateMutability": "view",
      "type": "function"
    },
    {
      "inputs": [],
      "name": "getLiquidityStatus",
      "outputs": [
        {
          "internalType": "uint256",
          "name": "",
          "type": "uint256"
        }
      ],
      "stateMutability": "view",
      "type": "function"
    },
    {
      "inputs": [],
      "name": "getMaxExposure",
      "outputs": [
        {
          "internalType": "int256",
          "name": "",
          "type": "int256"
        }
      ],
      "stateMutability": "view",
      "type": "function"
    },
    {
      "inputs": [
        {
          "internalType": "address",
          "name": "_user",
          "type": "address"
        }
      ],
      "name": "getMyBalance",
      "outputs": [
        {
          "internalType": "uint256",
          "name": "",
          "type": "uint256"
        }
      ],
      "stateMutability": "view",
      "type": "function"
    },
    {
      "inputs": [
        {
          "internalType": "bytes32",
          "name": "role",
          "type": "bytes32"
        }
      ],
      "name": "getRoleAdmin",
      "outputs": [
        {
          "internalType": "bytes32",
          "name": "",
          "type": "bytes32"
        }
      ],
      "stateMutability": "view",
      "type": "function"
    },
    {
      "inputs": [],
      "name": "getTVLofPool",
      "outputs": [
        {
          "internalType": "int256",
          "name": "",
          "type": "int256"
        }
      ],
      "stateMutability": "view",
      "type": "function"
    },
    {
      "inputs": [],
      "name": "getTokenPrice",
      "outputs": [
        {
          "internalType": "uint256",
          "name": "",
          "type": "uint256"
        }
      ],
      "stateMutability": "view",
      "type": "function"
    },
    {
      "inputs": [],
      "name": "getTokenWithdrawlPrice",
      "outputs": [
        {
          "internalType": "uint256",
          "name": "",
          "type": "uint256"
        }
      ],
      "stateMutability": "view",
      "type": "function"
    },
    {
      "inputs": [],
      "name": "getTreasuryAmount",
      "outputs": [
        {
          "internalType": "uint256",
          "name": "",
          "type": "uint256"
        }
      ],
      "stateMutability": "view",
      "type": "function"
    },
    {
      "inputs": [
        {
          "internalType": "bytes32",
          "name": "role",
          "type": "bytes32"
        },
        {
          "internalType": "address",
          "name": "account",
          "type": "address"
        }
      ],
      "name": "grantRole",
      "outputs": [],
      "stateMutability": "nonpayable",
      "type": "function"
    },
    {
      "inputs": [
        {
          "internalType": "bytes32",
          "name": "role",
          "type": "bytes32"
        },
        {
          "internalType": "address",
          "name": "account",
          "type": "address"
        }
      ],
      "name": "hasRole",
      "outputs": [
        {
          "internalType": "bool",
          "name": "",
          "type": "bool"
        }
      ],
      "stateMutability": "view",
      "type": "function"
    },
    {
      "inputs": [
        {
          "internalType": "bytes32",
          "name": "role",
          "type": "bytes32"
        },
        {
          "internalType": "address",
          "name": "account",
          "type": "address"
        }
      ],
      "name": "renounceRole",
      "outputs": [],
      "stateMutability": "nonpayable",
      "type": "function"
    },
    {
      "inputs": [
        {
          "internalType": "bytes32",
          "name": "role",
          "type": "bytes32"
        },
        {
          "internalType": "address",
          "name": "account",
          "type": "address"
        }
      ],
      "name": "revokeRole",
      "outputs": [],
      "stateMutability": "nonpayable",
      "type": "function"
    },
    {
      "inputs": [
        {
          "internalType": "uint256",
          "name": "bettingAmount",
          "type": "uint256"
        }
      ],
      "name": "setBettingStakes",
      "outputs": [],
      "stateMutability": "nonpayable",
      "type": "function"
    },
    {
      "inputs": [
        {
          "internalType": "bytes",
          "name": "sig_",
          "type": "bytes"
        },
        {
          "components": [
            {
              "internalType": "int256",
              "name": "expectedValue",
              "type": "int256"
            },
            {
              "internalType": "int256",
              "name": "maxExposure",
              "type": "int256"
            },
            {
              "internalType": "uint256",
              "name": "deadline",
              "type": "uint256"
            },
            {
              "internalType": "address",
              "name": "signer",
              "type": "address"
            }
          ],
          "internalType": "struct HousePoolWBTC.ValuesOfInterest",
          "name": "voi_",
          "type": "tuple"
        }
      ],
      "name": "setVOI",
      "outputs": [],
      "stateMutability": "nonpayable",
      "type": "function"
    },
    {
      "inputs": [
        {
          "internalType": "bool",
          "name": "outcome",
          "type": "bool"
        },
        {
          "internalType": "uint256",
          "name": "betAmount",
          "type": "uint256"
        }
      ],
      "name": "simulateOutcome",
      "outputs": [],
      "stateMutability": "nonpayable",
      "type": "function"
    },
    {
      "inputs": [
        {
          "internalType": "bytes4",
          "name": "interfaceId",
          "type": "bytes4"
        }
      ],
      "name": "supportsInterface",
      "outputs": [
        {
          "internalType": "bool",
          "name": "",
          "type": "bool"
        }
      ],
      "stateMutability": "view",
      "type": "function"
    },
    {
      "inputs": [],
      "name": "voi",
      "outputs": [
        {
          "internalType": "int256",
          "name": "expectedValue",
          "type": "int256"
        },
        {
          "internalType": "int256",
          "name": "maxExposure",
          "type": "int256"
        },
        {
          "internalType": "uint256",
          "name": "deadline",
          "type": "uint256"
        },
        {
          "internalType": "address",
          "name": "signer",
          "type": "address"
        }
      ],
      "stateMutability": "view",
      "type": "function"
    },
    {
      "inputs": [
        {
          "internalType": "uint256",
          "name": "amountWBTC",
          "type": "uint256"
        },
        {
          "internalType": "bytes",
          "name": "approval",
          "type": "bytes"
        },
        {
          "components": [
            {
              "internalType": "int256",
              "name": "expectedValue",
              "type": "int256"
            },
            {
              "internalType": "int256",
              "name": "maxExposure",
              "type": "int256"
            },
            {
              "internalType": "uint256",
              "name": "deadline",
              "type": "uint256"
            },
            {
              "internalType": "address",
              "name": "signer",
              "type": "address"
            }
          ],
          "internalType": "struct HousePoolWBTC.ValuesOfInterest",
          "name": "approvedValues",
          "type": "tuple"
        }
      ],
      "name": "withdraw",
      "outputs": [],
      "stateMutability": "nonpayable",
      "type": "function"
    },
    {
      "inputs": [
        {
          "internalType": "uint256",
          "name": "WBTCMicro",
          "type": "uint256"
        }
      ],
      "name": "withdraw_",
      "outputs": [],
      "stateMutability": "nonpayable",
      "type": "function"
    }
  ],
  "transactionHash": "0x6684e11549663acbdc2addcf3ac3b9f180469b5e326a3c2420efd7da802d40b9",
  "args": [
    "0xdd8eBa4604D2a9C6c77e4bC557B1884119174726",
    "0x9F5b3Eeffb978cF50b897Cb1f44d1a2Ca66acCF9",
    "0xca131f7baB00E794F492E477CfA3dd06a145b23a",
    "",
    ""
  ],
  "solcInputHash": "7485f9c0438259169e667d3154188eae",
  "bytecode": "0x6101406040526012600a6200001591906200051b565b60646200002391906200056c565b600c556012600a6200003691906200051b565b60646200004491906200056c565b600d553480156200005457600080fd5b50604051620046ec380380620046ec83398181016040528101906200007a9190620007cf565b8181600160008190555060008280519060200120905060008280519060200120905060007f8b73c3c69bb8fe3d512ecc4cf759cc79239f7b179b0ffacaa9a75d522b39400f90508260e081815250508161010081815250504660a08181525050620000ed818484620001d860201b60201c565b608081815250503073ffffffffffffffffffffffffffffffffffffffff1660c08173ffffffffffffffffffffffffffffffffffffffff1681525050806101208181525050505050505083600660006101000a81548173ffffffffffffffffffffffffffffffffffffffff021916908373ffffffffffffffffffffffffffffffffffffffff16021790555082600760006101000a81548173ffffffffffffffffffffffffffffffffffffffff021916908373ffffffffffffffffffffffffffffffffffffffff160217905550620001cd6000801b866200021460201b60201c565b50505050506200092f565b60008383834630604051602001620001f5959493929190620008d2565b6040516020818303038152906040528051906020012090509392505050565b6200022682826200022a60201b60201c565b5050565b6200023c82826200031b60201b60201c565b6200031757600180600084815260200190815260200160002060000160008373ffffffffffffffffffffffffffffffffffffffff1673ffffffffffffffffffffffffffffffffffffffff16815260200190815260200160002060006101000a81548160ff021916908315150217905550620002bc6200038660201b60201c565b73ffffffffffffffffffffffffffffffffffffffff168173ffffffffffffffffffffffffffffffffffffffff16837f2f8788117e7eff1d82e926ec794901d17c78024a50270940304540a733656f0d60405160405180910390a45b5050565b60006001600084815260200190815260200160002060000160008373ffffffffffffffffffffffffffffffffffffffff1673ffffffffffffffffffffffffffffffffffffffff16815260200190815260200160002060009054906101000a900460ff16905092915050565b600033905090565b7f4e487b7100000000000000000000000000000000000000000000000000000000600052601160045260246000fd5b60008160011c9050919050565b6000808291508390505b60018511156200041c57808604811115620003f457620003f36200038e565b5b6001851615620004045780820291505b80810290506200041485620003bd565b9450620003d4565b94509492505050565b6000826200043757600190506200050a565b816200044757600090506200050a565b81600181146200046057600281146200046b57620004a1565b60019150506200050a565b60ff84111562000480576200047f6200038e565b5b8360020a9150848211156200049a57620004996200038e565b5b506200050a565b5060208310610133831016604e8410600b8410161715620004db5782820a905083811115620004d557620004d46200038e565b5b6200050a565b620004ea8484846001620003ca565b925090508184048111156200050457620005036200038e565b5b81810290505b9392505050565b6000819050919050565b6000620005288262000511565b9150620005358362000511565b9250620005647fffffffffffffffffffffffffffffffffffffffffffffffffffffffffffffffff848462000425565b905092915050565b6000620005798262000511565b9150620005868362000511565b9250817fffffffffffffffffffffffffffffffffffffffffffffffffffffffffffffffff0483118215151615620005c257620005c16200038e565b5b828202905092915050565b6000604051905090565b600080fd5b600080fd5b600073ffffffffffffffffffffffffffffffffffffffff82169050919050565b60006200060e82620005e1565b9050919050565b620006208162000601565b81146200062c57600080fd5b50565b600081519050620006408162000615565b92915050565b600080fd5b600080fd5b6000601f19601f8301169050919050565b7f4e487b7100000000000000000000000000000000000000000000000000000000600052604160045260246000fd5b6200069b8262000650565b810181811067ffffffffffffffff82111715620006bd57620006bc62000661565b5b80604052505050565b6000620006d2620005cd565b9050620006e0828262000690565b919050565b600067ffffffffffffffff82111562000703576200070262000661565b5b6200070e8262000650565b9050602081019050919050565b60005b838110156200073b5780820151818401526020810190506200071e565b838111156200074b576000848401525b50505050565b6000620007686200076284620006e5565b620006c6565b9050828152602081018484840111156200078757620007866200064b565b5b620007948482856200071b565b509392505050565b600082601f830112620007b457620007b362000646565b5b8151620007c684826020860162000751565b91505092915050565b600080600080600060a08688031215620007ee57620007ed620005d7565b5b6000620007fe888289016200062f565b955050602062000811888289016200062f565b945050604062000824888289016200062f565b935050606086015167ffffffffffffffff811115620008485762000847620005dc565b5b62000856888289016200079c565b925050608086015167ffffffffffffffff8111156200087a5762000879620005dc565b5b62000888888289016200079c565b9150509295509295909350565b6000819050919050565b620008aa8162000895565b82525050565b620008bb8162000511565b82525050565b620008cc8162000601565b82525050565b600060a082019050620008e960008301886200089f565b620008f860208301876200089f565b6200090760408301866200089f565b620009166060830185620008b0565b620009256080830184620008c1565b9695505050505050565b60805160a05160c05160e0516101005161012051613d6d6200097f600039600061211b0152600061215d0152600061213c01526000612071015260006120c7015260006120f00152613d6d6000f3fe608060405234801561001057600080fd5b506004361061018e5760003560e01c80635a5d6223116100de578063b3ce252411610097578063d547741f11610071578063d547741f14610460578063d75d07c21461047c578063e20fcf001461049a578063e678ff25146104b85761018e565b8063b3ce252414610403578063be1cd71214610421578063cd08a1df146104425761018e565b80635a5d62231461032f578063639c066d1461034d5780637e3ef7cd1461036957806391d1485414610399578063a217fddf146103c9578063a43f3241146103e75761018e565b806336568abe1161014b5780634b94f50e116101255780634b94f50e146102b95780634f6d45a2146102d7578063508c81a2146102f357806353f52847146103115761018e565b806336568abe146102635780633c0717fd1461027f578063409c86ca1461029d5761018e565b806301ffc9a7146101935780630f5a5e18146101c357806320ab7449146101df578063218f296e146101fb578063248a9ca3146102175780632f2ff15d14610247575b600080fd5b6101ad60048036038101906101a8919061270c565b6104d6565b6040516101ba9190612754565b60405180910390f35b6101dd60048036038101906101d891906127a5565b610550565b005b6101f960048036038101906101f49190612a29565b61055c565b005b61021560048036038101906102109190612a29565b6107f6565b005b610231600480360381019061022c9190612ace565b610a90565b60405161023e9190612b0a565b60405180910390f35b610261600480360381019061025c9190612b25565b610ab0565b005b61027d60048036038101906102789190612b25565b610ad9565b005b610287610b5c565b6040516102949190612b74565b60405180910390f35b6102b760048036038101906102b291906127a5565b610b66565b005b6102c1610b70565b6040516102ce9190612b74565b60405180910390f35b6102f160048036038101906102ec9190612bbb565b610b7a565b005b6102fb610c68565b6040516103089190612b0a565b60405180910390f35b610319610c8c565b6040516103269190612c0a565b60405180910390f35b610337610c96565b6040516103449190612c0a565b60405180910390f35b610367600480360381019061036291906127a5565b610ca3565b005b610383600480360381019061037e9190612c25565b610caf565b6040516103909190612b74565b60405180910390f35b6103b360048036038101906103ae9190612b25565b610cf8565b6040516103c09190612754565b60405180910390f35b6103d1610d63565b6040516103de9190612b0a565b60405180910390f35b61040160048036038101906103fc9190612c52565b610d6a565b005b61040b61102d565b6040516104189190612b74565b60405180910390f35b610429611037565b6040516104399493929190612cbd565b60405180910390f35b61044a611075565b6040516104579190612c0a565b60405180910390f35b61047a60048036038101906104759190612b25565b611082565b005b6104846110ab565b6040516104919190612b0a565b60405180910390f35b6104a26110cf565b6040516104af9190612b74565b60405180910390f35b6104c06110d9565b6040516104cd9190612b74565b60405180910390f35b60007f7965db0b000000000000000000000000000000000000000000000000000000007bffffffffffffffffffffffffffffffffffffffffffffffffffffffff1916827bffffffffffffffffffffffffffffffffffffffffffffffffffffffff191614806105495750610548826110e3565b5b9050919050565b6105598161114d565b50565b8082600061060c7f382f778b38ac8a684a068262bd90ef9739279743851e0bc20a2bf85f56a2550c846060015185600001518660200151600e6000896060015173ffffffffffffffffffffffffffffffffffffffff1673ffffffffffffffffffffffffffffffffffffffff1681526020019081526020016000205488604001516040516020016105f196959493929190612d02565b60405160208183030381529060405280519060200120611586565b905061061d836060015182846115a0565b61065c576040517f08c379a000000000000000000000000000000000000000000000000000000000815260040161065390612dc0565b60405180910390fd5b600073ffffffffffffffffffffffffffffffffffffffff16836060015173ffffffffffffffffffffffffffffffffffffffff1614156106d0576040517f08c379a00000000000000000000000000000000000000000000000000000000081526004016106c790612e2c565b60405180910390fd5b6106fe7feed754290b7b7033469899aa55827c9480fc90a4843b45b7f455d0ac50d3e6ce8460600151610cf8565b61073d576040517f08c379a000000000000000000000000000000000000000000000000000000000815260040161073490612ebe565b60405180910390fd5b82604001514310610783576040517f08c379a000000000000000000000000000000000000000000000000000000000815260040161077a90612f50565b60405180910390fd5b600e6000846060015173ffffffffffffffffffffffffffffffffffffffff1673ffffffffffffffffffffffffffffffffffffffff16815260200190815260200160002060008154809291906107d790612f9f565b91905055506107e584611785565b6107ee8661114d565b505050505050565b808260006108a67f382f778b38ac8a684a068262bd90ef9739279743851e0bc20a2bf85f56a2550c846060015185600001518660200151600e6000896060015173ffffffffffffffffffffffffffffffffffffffff1673ffffffffffffffffffffffffffffffffffffffff16815260200190815260200160002054886040015160405160200161088b96959493929190612d02565b60405160208183030381529060405280519060200120611586565b90506108b7836060015182846115a0565b6108f6576040517f08c379a00000000000000000000000000000000000000000000000000000000081526004016108ed90612dc0565b60405180910390fd5b600073ffffffffffffffffffffffffffffffffffffffff16836060015173ffffffffffffffffffffffffffffffffffffffff16141561096a576040517f08c379a000000000000000000000000000000000000000000000000000000000815260040161096190612e2c565b60405180910390fd5b6109987feed754290b7b7033469899aa55827c9480fc90a4843b45b7f455d0ac50d3e6ce8460600151610cf8565b6109d7576040517f08c379a00000000000000000000000000000000000000000000000000000000081526004016109ce90612ebe565b60405180910390fd5b82604001514310610a1d576040517f08c379a0000000000000000000000000000000000000000000000000000000008152600401610a1490612f50565b60405180910390fd5b600e6000846060015173ffffffffffffffffffffffffffffffffffffffff1673ffffffffffffffffffffffffffffffffffffffff1681526020019081526020016000206000815480929190610a7190612f9f565b9190505550610a7f84611785565b610a88866117c4565b505050505050565b600060016000838152602001908152602001600020600101549050919050565b610ab982610a90565b610aca81610ac5611b58565b611b60565b610ad48383611bfd565b505050565b610ae1611b58565b73ffffffffffffffffffffffffffffffffffffffff168173ffffffffffffffffffffffffffffffffffffffff1614610b4e576040517f08c379a0000000000000000000000000000000000000000000000000000000008152600401610b459061305a565b60405180910390fd5b610b588282611cdd565b5050565b6000600354905090565b8060028190555050565b6000600c54905090565b600015158215151415610be257606481610b9491906130a9565b60046000828254610ba591906130da565b925050819055506063606482610bbb91906130a9565b610bc59190613130565b60036000828254610bd691906130da565b92505081905550610c23565b6064600254610bf191906130a9565b60046000828254610c0291906130da565b925050819055508060026000828254610c1b919061318a565b925050819055505b6000600860000181905550600060086001018190555060045460056000828254610c4d91906131be565b92505081905550610c5c611dbf565b610c64611f16565b5050565b7fce95e3899a3f9149fc26a34674875210907ee3c0dddf61ac603f89e90c1b5f9e81565b6000600554905090565b6000600860010154905090565b610cac816117c4565b50565b6000600f60008373ffffffffffffffffffffffffffffffffffffffff1673ffffffffffffffffffffffffffffffffffffffff168152602001908152602001600020549050919050565b60006001600084815260200190815260200160002060000160008373ffffffffffffffffffffffffffffffffffffffff1673ffffffffffffffffffffffffffffffffffffffff16815260200190815260200160002060009054906101000a900460ff16905092915050565b6000801b81565b80826000610e1a7f382f778b38ac8a684a068262bd90ef9739279743851e0bc20a2bf85f56a2550c846060015185600001518660200151600e6000896060015173ffffffffffffffffffffffffffffffffffffffff1673ffffffffffffffffffffffffffffffffffffffff168152602001908152602001600020548860400151604051602001610dff96959493929190612d02565b60405160208183030381529060405280519060200120611586565b9050610e2b836060015182846115a0565b610e6a576040517f08c379a0000000000000000000000000000000000000000000000000000000008152600401610e6190612dc0565b60405180910390fd5b600073ffffffffffffffffffffffffffffffffffffffff16836060015173ffffffffffffffffffffffffffffffffffffffff161415610ede576040517f08c379a0000000000000000000000000000000000000000000000000000000008152600401610ed590612e2c565b60405180910390fd5b610f0c7feed754290b7b7033469899aa55827c9480fc90a4843b45b7f455d0ac50d3e6ce8460600151610cf8565b610f4b576040517f08c379a0000000000000000000000000000000000000000000000000000000008152600401610f4290612ebe565b60405180910390fd5b82604001514310610f91576040517f08c379a0000000000000000000000000000000000000000000000000000000008152600401610f8890612f50565b60405180910390fd5b600e6000846060015173ffffffffffffffffffffffffffffffffffffffff1673ffffffffffffffffffffffffffffffffffffffff1681526020019081526020016000206000815480929190610fe590612f9f565b91905055507fce95e3899a3f9149fc26a34674875210907ee3c0dddf61ac603f89e90c1b5f9e61101c81611017611b58565b611b60565b61102585611785565b505050505050565b6000600d54905090565b60088060000154908060010154908060020154908060030160009054906101000a900473ffffffffffffffffffffffffffffffffffffffff16905084565b6000600860000154905090565b61108b82610a90565b61109c81611097611b58565b611b60565b6110a68383611cdd565b505050565b7feed754290b7b7033469899aa55827c9480fc90a4843b45b7f455d0ac50d3e6ce81565b6000600454905090565b6000600254905090565b60007f01ffc9a7000000000000000000000000000000000000000000000000000000007bffffffffffffffffffffffffffffffffffffffffffffffffffffffff1916827bffffffffffffffffffffffffffffffffffffffffffffffffffffffff1916149050919050565b60026000541415611193576040517f08c379a000000000000000000000000000000000000000000000000000000000815260040161118a9061329e565b60405180910390fd5b6002600081905550600081116111de576040517f08c379a00000000000000000000000000000000000000000000000000000000081526004016111d59061330a565b60405180910390fd5b600d546012600a6111ef919061345d565b600760009054906101000a900473ffffffffffffffffffffffffffffffffffffffff1673ffffffffffffffffffffffffffffffffffffffff166370a08231336040518263ffffffff1660e01b815260040161124a91906134a8565b602060405180830381865afa158015611267573d6000803e3d6000fd5b505050506040513d601f19601f8201168201806040525081019061128b91906134d8565b61129591906130a9565b61129f9190613130565b600a806112ac919061345d565b826112b79190613130565b111580156112ed57506008600101546003546112d39190613505565b600a806112e0919061345d565b826112eb9190613599565b125b61132c576040517f08c379a0000000000000000000000000000000000000000000000000000000008152600401611323906136fc565b60405180910390fd5b6000600d546012600a61133f919061345d565b600a8061134c919061345d565b846113579190613130565b6113619190613130565b61136b91906130a9565b9050600a8061137a919061345d565b826113859190613130565b60036000828254611396919061318a565b92505081905550600a806113aa919061345d565b826113b59190613599565b600560008282546113c69190613505565b92505081905550600a806113da919061345d565b826113e59190613130565b600f60003373ffffffffffffffffffffffffffffffffffffffff1673ffffffffffffffffffffffffffffffffffffffff1681526020019081526020016000206000828254611433919061318a565b92505081905550600660009054906101000a900473ffffffffffffffffffffffffffffffffffffffff1673ffffffffffffffffffffffffffffffffffffffff1663a9059cbb33846040518363ffffffff1660e01b815260040161149792919061371c565b6020604051808303816000875af11580156114b6573d6000803e3d6000fd5b505050506040513d601f19601f820116820180604052508101906114da919061375a565b50600760009054906101000a900473ffffffffffffffffffffffffffffffffffffffff1673ffffffffffffffffffffffffffffffffffffffff16639dc29fac33836040518363ffffffff1660e01b815260040161153892919061371c565b600060405180830381600087803b15801561155257600080fd5b505af1158015611566573d6000803e3d6000fd5b50505050611572611f16565b61157a611dbf565b50600160008190555050565b600061159961159361206d565b83612187565b9050919050565b60008060006115af85856121ba565b91509150600060048111156115c7576115c6613787565b5b8160048111156115da576115d9613787565b5b14801561161257508573ffffffffffffffffffffffffffffffffffffffff168273ffffffffffffffffffffffffffffffffffffffff16145b156116225760019250505061177e565b6000808773ffffffffffffffffffffffffffffffffffffffff16631626ba7e60e01b888860405160240161165792919061383e565b604051602081830303815290604052907bffffffffffffffffffffffffffffffffffffffffffffffffffffffff19166020820180517bffffffffffffffffffffffffffffffffffffffffffffffffffffffff83818316178352505050506040516116c191906138aa565b600060405180830381855afa9150503d80600081146116fc576040519150601f19603f3d011682016040523d82523d6000602084013e611701565b606091505b5091509150818015611714575060208151145b80156117775750631626ba7e60e01b7bffffffffffffffffffffffffffffffffffffffffffffffffffffffff19168180602001905181019061175691906138d6565b7bffffffffffffffffffffffffffffffffffffffffffffffffffffffff1916145b9450505050505b9392505050565b6008600001548160000151146117a3576117a2816000015161223d565b5b6008600101548160200151146117c1576117c0816020015161225b565b5b50565b6002600054141561180a576040517f08c379a00000000000000000000000000000000000000000000000000000000081526004016118019061329e565b60405180910390fd5b60026000819055506000811180156118bd5750600660009054906101000a900473ffffffffffffffffffffffffffffffffffffffff1673ffffffffffffffffffffffffffffffffffffffff166370a08231336040518263ffffffff1660e01b815260040161187891906134a8565b602060405180830381865afa158015611895573d6000803e3d6000fd5b505050506040513d601f19601f820116820180604052508101906118b991906134d8565b8111155b6118fc576040517f08c379a00000000000000000000000000000000000000000000000000000000081526004016118f39061394f565b60405180910390fd5b600a80611909919061345d565b816119149190613130565b6003600082825461192591906130da565b92505081905550600a80611939919061345d565b816119449190613130565b6005600082825461195591906131be565b92505081905550600a80611969919061345d565b816119749190613130565b600f60003373ffffffffffffffffffffffffffffffffffffffff1673ffffffffffffffffffffffffffffffffffffffff16815260200190815260200160002060008282546119c291906130da565b92505081905550600660009054906101000a900473ffffffffffffffffffffffffffffffffffffffff1673ffffffffffffffffffffffffffffffffffffffff166323b872dd3330846040518463ffffffff1660e01b8152600401611a289392919061396f565b6020604051808303816000875af1158015611a47573d6000803e3d6000fd5b505050506040513d601f19601f82011682018060405250810190611a6b919061375a565b506000600c546012600a611a7f919061345d565b600a80611a8c919061345d565b84611a979190613130565b611aa19190613130565b611aab91906130a9565b9050600760009054906101000a900473ffffffffffffffffffffffffffffffffffffffff1673ffffffffffffffffffffffffffffffffffffffff166340c10f1933836040518363ffffffff1660e01b8152600401611b0a92919061371c565b600060405180830381600087803b158015611b2457600080fd5b505af1158015611b38573d6000803e3d6000fd5b50505050611b44611dbf565b611b4c611f16565b50600160008190555050565b600033905090565b611b6a8282610cf8565b611bf957611b8f8173ffffffffffffffffffffffffffffffffffffffff166014612268565b611b9d8360001c6020612268565b604051602001611bae929190613a85565b6040516020818303038152906040526040517f08c379a0000000000000000000000000000000000000000000000000000000008152600401611bf09190613af8565b60405180910390fd5b5050565b611c078282610cf8565b611cd957600180600084815260200190815260200160002060000160008373ffffffffffffffffffffffffffffffffffffffff1673ffffffffffffffffffffffffffffffffffffffff16815260200190815260200160002060006101000a81548160ff021916908315150217905550611c7e611b58565b73ffffffffffffffffffffffffffffffffffffffff168173ffffffffffffffffffffffffffffffffffffffff16837f2f8788117e7eff1d82e926ec794901d17c78024a50270940304540a733656f0d60405160405180910390a45b5050565b611ce78282610cf8565b15611dbb5760006001600084815260200190815260200160002060000160008373ffffffffffffffffffffffffffffffffffffffff1673ffffffffffffffffffffffffffffffffffffffff16815260200190815260200160002060006101000a81548160ff021916908315150217905550611d60611b58565b73ffffffffffffffffffffffffffffffffffffffff168173ffffffffffffffffffffffffffffffffffffffff16837ff6391f5c32d9c69d2a47ea670b442974b53935d1edc7fd64eb21e047a839171b60405160405180910390a45b5050565b6000600760009054906101000a900473ffffffffffffffffffffffffffffffffffffffff1673ffffffffffffffffffffffffffffffffffffffff166318160ddd6040518163ffffffff1660e01b8152600401602060405180830381865afa158015611e2e573d6000803e3d6000fd5b505050506040513d601f19601f82011682018060405250810190611e5291906134d8565b14611f1457600760009054906101000a900473ffffffffffffffffffffffffffffffffffffffff1673ffffffffffffffffffffffffffffffffffffffff166318160ddd6040518163ffffffff1660e01b8152600401602060405180830381865afa158015611ec4573d6000803e3d6000fd5b505050506040513d601f19601f82011682018060405250810190611ee891906134d8565b6012600a611ef6919061345d565b600554611f039190613130565b611f0d91906130a9565b600c819055505b565b6000600760009054906101000a900473ffffffffffffffffffffffffffffffffffffffff1673ffffffffffffffffffffffffffffffffffffffff166318160ddd6040518163ffffffff1660e01b8152600401602060405180830381865afa158015611f85573d6000803e3d6000fd5b505050506040513d601f19601f82011682018060405250810190611fa991906134d8565b1461206b57600760009054906101000a900473ffffffffffffffffffffffffffffffffffffffff1673ffffffffffffffffffffffffffffffffffffffff166318160ddd6040518163ffffffff1660e01b8152600401602060405180830381865afa15801561201b573d6000803e3d6000fd5b505050506040513d601f19601f8201168201806040525081019061203f91906134d8565b6012600a61204d919061345d565b60035461205a9190613130565b61206491906130a9565b600d819055505b565b60007f000000000000000000000000000000000000000000000000000000000000000073ffffffffffffffffffffffffffffffffffffffff163073ffffffffffffffffffffffffffffffffffffffff161480156120e957507f000000000000000000000000000000000000000000000000000000000000000046145b15612116577f00000000000000000000000000000000000000000000000000000000000000009050612184565b6121817f00000000000000000000000000000000000000000000000000000000000000007f00000000000000000000000000000000000000000000000000000000000000007f00000000000000000000000000000000000000000000000000000000000000006124a4565b90505b90565b6000828260405160200161219c929190613b87565b60405160208183030381529060405280519060200120905092915050565b6000806041835114156121fc5760008060006020860151925060408601519150606086015160001a90506121f0878285856124de565b94509450505050612236565b60408351141561222d5760008060208501519150604085015190506122228683836125eb565b935093505050612236565b60006002915091505b9250929050565b61224681612639565b80600860000181905550612258611dbf565b50565b8060086001018190555050565b60606000600283600261227b9190613130565b61228591906130da565b67ffffffffffffffff81111561229e5761229d6127ed565b5b6040519080825280601f01601f1916602001820160405280156122d05781602001600182028036833780820191505090505b5090507f30000000000000000000000000000000000000000000000000000000000000008160008151811061230857612307613bbe565b5b60200101907effffffffffffffffffffffffffffffffffffffffffffffffffffffffffffff1916908160001a9053507f78000000000000000000000000000000000000000000000000000000000000008160018151811061236c5761236b613bbe565b5b60200101907effffffffffffffffffffffffffffffffffffffffffffffffffffffffffffff1916908160001a905350600060018460026123ac9190613130565b6123b691906130da565b90505b6001811115612456577f3031323334353637383961626364656600000000000000000000000000000000600f8616601081106123f8576123f7613bbe565b5b1a60f81b82828151811061240f5761240e613bbe565b5b60200101907effffffffffffffffffffffffffffffffffffffffffffffffffffffffffffff1916908160001a905350600485901c94508061244f90613bed565b90506123b9565b506000841461249a576040517f08c379a000000000000000000000000000000000000000000000000000000000815260040161249190613c63565b60405180910390fd5b8091505092915050565b600083838346306040516020016124bf959493929190613c83565b6040516020818303038152906040528051906020012090509392505050565b6000807f7fffffffffffffffffffffffffffffff5d576e7357a4501ddfe92f46681b20a08360001c11156125195760006003915091506125e2565b601b8560ff16141580156125315750601c8560ff1614155b156125435760006004915091506125e2565b6000600187878787604051600081526020016040526040516125689493929190613cf2565b6020604051602081039080840390855afa15801561258a573d6000803e3d6000fd5b505050602060405103519050600073ffffffffffffffffffffffffffffffffffffffff168173ffffffffffffffffffffffffffffffffffffffff1614156125d9576000600192509250506125e2565b80600092509250505b94509492505050565b6000806000807f7fffffffffffffffffffffffffffffffffffffffffffffffffffffffffffffff85169150601b8560ff1c01905061262b878288856124de565b935093505050935093915050565b6000600860000154141561266557806005600082825461265991906131be565b9250508190555061269d565b6008600001546005600082825461267c9190613505565b92505081905550806005600082825461269591906131be565b925050819055505b50565b6000604051905090565b600080fd5b600080fd5b60007fffffffff0000000000000000000000000000000000000000000000000000000082169050919050565b6126e9816126b4565b81146126f457600080fd5b50565b600081359050612706816126e0565b92915050565b600060208284031215612722576127216126aa565b5b6000612730848285016126f7565b91505092915050565b60008115159050919050565b61274e81612739565b82525050565b60006020820190506127696000830184612745565b92915050565b6000819050919050565b6127828161276f565b811461278d57600080fd5b50565b60008135905061279f81612779565b92915050565b6000602082840312156127bb576127ba6126aa565b5b60006127c984828501612790565b91505092915050565b600080fd5b600080fd5b6000601f19601f8301169050919050565b7f4e487b7100000000000000000000000000000000000000000000000000000000600052604160045260246000fd5b612825826127dc565b810181811067ffffffffffffffff82111715612844576128436127ed565b5b80604052505050565b60006128576126a0565b9050612863828261281c565b919050565b600067ffffffffffffffff821115612883576128826127ed565b5b61288c826127dc565b9050602081019050919050565b82818337600083830152505050565b60006128bb6128b684612868565b61284d565b9050828152602081018484840111156128d7576128d66127d7565b5b6128e2848285612899565b509392505050565b600082601f8301126128ff576128fe6127d2565b5b813561290f8482602086016128a8565b91505092915050565b600080fd5b6000819050919050565b6129308161291d565b811461293b57600080fd5b50565b60008135905061294d81612927565b92915050565b600073ffffffffffffffffffffffffffffffffffffffff82169050919050565b600061297e82612953565b9050919050565b61298e81612973565b811461299957600080fd5b50565b6000813590506129ab81612985565b92915050565b6000608082840312156129c7576129c6612918565b5b6129d1608061284d565b905060006129e18482850161293e565b60008301525060206129f58482850161293e565b6020830152506040612a0984828501612790565b6040830152506060612a1d8482850161299c565b60608301525092915050565b600080600060c08486031215612a4257612a416126aa565b5b6000612a5086828701612790565b935050602084013567ffffffffffffffff811115612a7157612a706126af565b5b612a7d868287016128ea565b9250506040612a8e868287016129b1565b9150509250925092565b6000819050919050565b612aab81612a98565b8114612ab657600080fd5b50565b600081359050612ac881612aa2565b92915050565b600060208284031215612ae457612ae36126aa565b5b6000612af284828501612ab9565b91505092915050565b612b0481612a98565b82525050565b6000602082019050612b1f6000830184612afb565b92915050565b60008060408385031215612b3c57612b3b6126aa565b5b6000612b4a85828601612ab9565b9250506020612b5b8582860161299c565b9150509250929050565b612b6e8161276f565b82525050565b6000602082019050612b896000830184612b65565b92915050565b612b9881612739565b8114612ba357600080fd5b50565b600081359050612bb581612b8f565b92915050565b60008060408385031215612bd257612bd16126aa565b5b6000612be085828601612ba6565b9250506020612bf185828601612790565b9150509250929050565b612c048161291d565b82525050565b6000602082019050612c1f6000830184612bfb565b92915050565b600060208284031215612c3b57612c3a6126aa565b5b6000612c498482850161299c565b91505092915050565b60008060a08385031215612c6957612c686126aa565b5b600083013567ffffffffffffffff811115612c8757612c866126af565b5b612c93858286016128ea565b9250506020612ca4858286016129b1565b9150509250929050565b612cb781612973565b82525050565b6000608082019050612cd26000830187612bfb565b612cdf6020830186612bfb565b612cec6040830185612b65565b612cf96060830184612cae565b95945050505050565b600060c082019050612d176000830189612afb565b612d246020830188612cae565b612d316040830187612bfb565b612d3e6060830186612bfb565b612d4b6080830185612b65565b612d5860a0830184612b65565b979650505050505050565b600082825260208201905092915050565b7f486f757365506f6f6c574254433a20696e76616c6964207369676e6174757265600082015250565b6000612daa602083612d63565b9150612db582612d74565b602082019050919050565b60006020820190508181036000830152612dd981612d9d565b9050919050565b7f486f757365506f6f6c574254433a20696e76616c6964207369676e6572000000600082015250565b6000612e16601d83612d63565b9150612e2182612de0565b602082019050919050565b60006020820190508181036000830152612e4581612e09565b9050919050565b7f486f757365506f6f6c574254433a20756e617574686f7269736564207369676e60008201527f6572000000000000000000000000000000000000000000000000000000000000602082015250565b6000612ea8602283612d63565b9150612eb382612e4c565b604082019050919050565b60006020820190508181036000830152612ed781612e9b565b9050919050565b7f486f757365506f6f6c574254433a207369676e6564207472616e73616374696f60008201527f6e20657870697265640000000000000000000000000000000000000000000000602082015250565b6000612f3a602983612d63565b9150612f4582612ede565b604082019050919050565b60006020820190508181036000830152612f6981612f2d565b9050919050565b7f4e487b7100000000000000000000000000000000000000000000000000000000600052601160045260246000fd5b6000612faa8261276f565b91507fffffffffffffffffffffffffffffffffffffffffffffffffffffffffffffffff821415612fdd57612fdc612f70565b5b600182019050919050565b7f416363657373436f6e74726f6c3a2063616e206f6e6c792072656e6f756e636560008201527f20726f6c657320666f722073656c660000000000000000000000000000000000602082015250565b6000613044602f83612d63565b915061304f82612fe8565b604082019050919050565b6000602082019050818103600083015261307381613037565b9050919050565b7f4e487b7100000000000000000000000000000000000000000000000000000000600052601260045260246000fd5b60006130b48261276f565b91506130bf8361276f565b9250826130cf576130ce61307a565b5b828204905092915050565b60006130e58261276f565b91506130f08361276f565b9250827fffffffffffffffffffffffffffffffffffffffffffffffffffffffffffffffff0382111561312557613124612f70565b5b828201905092915050565b600061313b8261276f565b91506131468361276f565b9250817fffffffffffffffffffffffffffffffffffffffffffffffffffffffffffffffff048311821515161561317f5761317e612f70565b5b828202905092915050565b60006131958261276f565b91506131a08361276f565b9250828210156131b3576131b2612f70565b5b828203905092915050565b60006131c98261291d565b91506131d48361291d565b9250817f7fffffffffffffffffffffffffffffffffffffffffffffffffffffffffffffff0383136000831215161561320f5761320e612f70565b5b817f800000000000000000000000000000000000000000000000000000000000000003831260008312161561324757613246612f70565b5b828201905092915050565b7f5265656e7472616e637947756172643a207265656e7472616e742063616c6c00600082015250565b6000613288601f83612d63565b915061329382613252565b602082019050919050565b600060208201905081810360008301526132b78161327b565b9050919050565b7f57425443486f757365506f6f6c3a205a65726f20416d6f756e74000000000000600082015250565b60006132f4601a83612d63565b91506132ff826132be565b602082019050919050565b60006020820190508181036000830152613323816132e7565b9050919050565b60008160011c9050919050565b6000808291508390505b60018511156133815780860481111561335d5761335c612f70565b5b600185161561336c5780820291505b808102905061337a8561332a565b9450613341565b94509492505050565b60008261339a5760019050613456565b816133a85760009050613456565b81600181146133be57600281146133c8576133f7565b6001915050613456565b60ff8411156133da576133d9612f70565b5b8360020a9150848211156133f1576133f0612f70565b5b50613456565b5060208310610133831016604e8410600b841016171561342c5782820a90508381111561342757613426612f70565b5b613456565b6134398484846001613337565b925090508184048111156134505761344f612f70565b5b81810290505b9392505050565b60006134688261276f565b91506134738361276f565b92506134a07fffffffffffffffffffffffffffffffffffffffffffffffffffffffffffffffff848461338a565b905092915050565b60006020820190506134bd6000830184612cae565b92915050565b6000815190506134d281612779565b92915050565b6000602082840312156134ee576134ed6126aa565b5b60006134fc848285016134c3565b91505092915050565b60006135108261291d565b915061351b8361291d565b9250827f80000000000000000000000000000000000000000000000000000000000000000182126000841215161561355657613555612f70565b5b827f7fffffffffffffffffffffffffffffffffffffffffffffffffffffffffffffff01821360008412161561358e5761358d612f70565b5b828203905092915050565b60006135a48261291d565b91506135af8361291d565b9250827f7fffffffffffffffffffffffffffffffffffffffffffffffffffffffffffffff04821160008413600084131616156135ee576135ed612f70565b5b817f8000000000000000000000000000000000000000000000000000000000000000058312600084126000841316161561362b5761362a612f70565b5b827f8000000000000000000000000000000000000000000000000000000000000000058212600084136000841216161561366857613667612f70565b5b827f7fffffffffffffffffffffffffffffffffffffffffffffffffffffffffffffff05821260008412600084121616156136a5576136a4612f70565b5b828202905092915050565b7f57425443486f757365506f6f6c203a2063616e27742077697468647261770000600082015250565b60006136e6601e83612d63565b91506136f1826136b0565b602082019050919050565b60006020820190508181036000830152613715816136d9565b9050919050565b60006040820190506137316000830185612cae565b61373e6020830184612b65565b9392505050565b60008151905061375481612b8f565b92915050565b6000602082840312156137705761376f6126aa565b5b600061377e84828501613745565b91505092915050565b7f4e487b7100000000000000000000000000000000000000000000000000000000600052602160045260246000fd5b600081519050919050565b600082825260208201905092915050565b60005b838110156137f05780820151818401526020810190506137d5565b838111156137ff576000848401525b50505050565b6000613810826137b6565b61381a81856137c1565b935061382a8185602086016137d2565b613833816127dc565b840191505092915050565b60006040820190506138536000830185612afb565b81810360208301526138658184613805565b90509392505050565b600081905092915050565b6000613884826137b6565b61388e818561386e565b935061389e8185602086016137d2565b80840191505092915050565b60006138b68284613879565b915081905092915050565b6000815190506138d0816126e0565b92915050565b6000602082840312156138ec576138eb6126aa565b5b60006138fa848285016138c1565b91505092915050565b7f57425443486f757365506f6f6c3a20436865636b207468652042616c616e6365600082015250565b6000613939602083612d63565b915061394482613903565b602082019050919050565b600060208201905081810360008301526139688161392c565b9050919050565b60006060820190506139846000830186612cae565b6139916020830185612cae565b61399e6040830184612b65565b949350505050565b600081905092915050565b7f416363657373436f6e74726f6c3a206163636f756e7420000000000000000000600082015250565b60006139e76017836139a6565b91506139f2826139b1565b601782019050919050565b600081519050919050565b6000613a13826139fd565b613a1d81856139a6565b9350613a2d8185602086016137d2565b80840191505092915050565b7f206973206d697373696e6720726f6c6520000000000000000000000000000000600082015250565b6000613a6f6011836139a6565b9150613a7a82613a39565b601182019050919050565b6000613a90826139da565b9150613a9c8285613a08565b9150613aa782613a62565b9150613ab38284613a08565b91508190509392505050565b6000613aca826139fd565b613ad48185612d63565b9350613ae48185602086016137d2565b613aed816127dc565b840191505092915050565b60006020820190508181036000830152613b128184613abf565b905092915050565b7f1901000000000000000000000000000000000000000000000000000000000000600082015250565b6000613b506002836139a6565b9150613b5b82613b1a565b600282019050919050565b6000819050919050565b613b81613b7c82612a98565b613b66565b82525050565b6000613b9282613b43565b9150613b9e8285613b70565b602082019150613bae8284613b70565b6020820191508190509392505050565b7f4e487b7100000000000000000000000000000000000000000000000000000000600052603260045260246000fd5b6000613bf88261276f565b91506000821415613c0c57613c0b612f70565b5b600182039050919050565b7f537472696e67733a20686578206c656e67746820696e73756666696369656e74600082015250565b6000613c4d602083612d63565b9150613c5882613c17565b602082019050919050565b60006020820190508181036000830152613c7c81613c40565b9050919050565b600060a082019050613c986000830188612afb565b613ca56020830187612afb565b613cb26040830186612afb565b613cbf6060830185612b65565b613ccc6080830184612cae565b9695505050505050565b600060ff82169050919050565b613cec81613cd6565b82525050565b6000608082019050613d076000830187612afb565b613d146020830186613ce3565b613d216040830185612afb565b613d2e6060830184612afb565b9594505050505056fea2646970667358221220fe7e20d3492b337b31366a215a09021e490981f1367a729219f1b615cf2930cb64736f6c634300080a0033",
  "devdoc": {
    "kind": "dev",
    "methods": {
      "getRoleAdmin(bytes32)": {
        "details": "Returns the admin role that controls `role`. See {grantRole} and {revokeRole}. To change a role's admin, use {_setRoleAdmin}."
      },
      "grantRole(bytes32,address)": {
        "details": "Grants `role` to `account`. If `account` had not been already granted `role`, emits a {RoleGranted} event. Requirements: - the caller must have ``role``'s admin role."
      },
      "hasRole(bytes32,address)": {
        "details": "Returns `true` if `account` has been granted `role`."
      },
      "renounceRole(bytes32,address)": {
        "details": "Revokes `role` from the calling account. Roles are often managed via {grantRole} and {revokeRole}: this function's purpose is to provide a mechanism for accounts to lose their privileges if they are compromised (such as when a trusted device is misplaced). If the calling account had been revoked `role`, emits a {RoleRevoked} event. Requirements: - the caller must be `account`."
      },
      "revokeRole(bytes32,address)": {
        "details": "Revokes `role` from `account`. If `account` had been granted `role`, emits a {RoleRevoked} event. Requirements: - the caller must have ``role``'s admin role."
      },
      "supportsInterface(bytes4)": {
        "details": "See {IERC165-supportsInterface}."
      }
    },
    "version": 1
  },
  "userdoc": {
    "kind": "user",
    "methods": {},
    "version": 1
  },
  "storageLayout": {
    "storage": [
      {
        "astId": 406,
        "contract": "contracts/HousePoolWBTC.sol:HousePoolWBTC",
        "label": "_status",
        "offset": 0,
        "slot": "0",
        "type": "t_uint256"
      },
      {
        "astId": 24,
        "contract": "contracts/HousePoolWBTC.sol:HousePoolWBTC",
        "label": "_roles",
        "offset": 0,
        "slot": "1",
        "type": "t_mapping(t_bytes32,t_struct(RoleData)19_storage)"
      },
      {
        "astId": 1746,
        "contract": "contracts/HousePoolWBTC.sol:HousePoolWBTC",
        "label": "bettingStakes",
        "offset": 0,
        "slot": "2",
        "type": "t_uint256"
      },
      {
        "astId": 1748,
        "contract": "contracts/HousePoolWBTC.sol:HousePoolWBTC",
        "label": "liquidity",
        "offset": 0,
        "slot": "3",
        "type": "t_uint256"
      },
      {
        "astId": 1750,
        "contract": "contracts/HousePoolWBTC.sol:HousePoolWBTC",
        "label": "treasuryAmount",
        "offset": 0,
        "slot": "4",
        "type": "t_uint256"
      },
      {
        "astId": 1752,
        "contract": "contracts/HousePoolWBTC.sol:HousePoolWBTC",
        "label": "tvl",
        "offset": 0,
        "slot": "5",
        "type": "t_int256"
      },
      {
        "astId": 1755,
        "contract": "contracts/HousePoolWBTC.sol:HousePoolWBTC",
        "label": "token",
        "offset": 0,
        "slot": "6",
        "type": "t_contract(IERC20)513"
      },
      {
        "astId": 1758,
        "contract": "contracts/HousePoolWBTC.sol:HousePoolWBTC",
        "label": "claimToken",
        "offset": 0,
        "slot": "7",
        "type": "t_contract(claimTokenInterface)1729"
      },
      {
        "astId": 1761,
        "contract": "contracts/HousePoolWBTC.sol:HousePoolWBTC",
        "label": "voi",
        "offset": 0,
        "slot": "8",
        "type": "t_struct(ValuesOfInterest)1744_storage"
      },
      {
        "astId": 1774,
        "contract": "contracts/HousePoolWBTC.sol:HousePoolWBTC",
        "label": "lpTokenPrice",
        "offset": 0,
        "slot": "12",
        "type": "t_uint256"
      },
      {
        "astId": 1781,
        "contract": "contracts/HousePoolWBTC.sol:HousePoolWBTC",
        "label": "lpTokenWithdrawlPrice",
        "offset": 0,
        "slot": "13",
        "type": "t_uint256"
      },
      {
        "astId": 1795,
        "contract": "contracts/HousePoolWBTC.sol:HousePoolWBTC",
        "label": "nonces",
        "offset": 0,
        "slot": "14",
        "type": "t_mapping(t_address,t_uint256)"
      },
      {
        "astId": 1799,
        "contract": "contracts/HousePoolWBTC.sol:HousePoolWBTC",
        "label": "deposits",
        "offset": 0,
        "slot": "15",
        "type": "t_mapping(t_address,t_uint256)"
      }
    ],
    "types": {
      "t_address": {
        "encoding": "inplace",
        "label": "address",
        "numberOfBytes": "20"
      },
      "t_bool": {
        "encoding": "inplace",
        "label": "bool",
        "numberOfBytes": "1"
      },
      "t_bytes32": {
        "encoding": "inplace",
        "label": "bytes32",
        "numberOfBytes": "32"
      },
      "t_contract(IERC20)513": {
        "encoding": "inplace",
        "label": "contract IERC20",
        "numberOfBytes": "20"
      },
      "t_contract(claimTokenInterface)1729": {
        "encoding": "inplace",
        "label": "contract claimTokenInterface",
        "numberOfBytes": "20"
      },
      "t_int256": {
        "encoding": "inplace",
        "label": "int256",
        "numberOfBytes": "32"
      },
      "t_mapping(t_address,t_bool)": {
        "encoding": "mapping",
        "key": "t_address",
        "label": "mapping(address => bool)",
        "numberOfBytes": "32",
        "value": "t_bool"
      },
      "t_mapping(t_address,t_uint256)": {
        "encoding": "mapping",
        "key": "t_address",
        "label": "mapping(address => uint256)",
        "numberOfBytes": "32",
        "value": "t_uint256"
      },
      "t_mapping(t_bytes32,t_struct(RoleData)19_storage)": {
        "encoding": "mapping",
        "key": "t_bytes32",
        "label": "mapping(bytes32 => struct AccessControl.RoleData)",
        "numberOfBytes": "32",
        "value": "t_struct(RoleData)19_storage"
      },
      "t_struct(RoleData)19_storage": {
        "encoding": "inplace",
        "label": "struct AccessControl.RoleData",
        "members": [
          {
            "astId": 16,
            "contract": "contracts/HousePoolWBTC.sol:HousePoolWBTC",
            "label": "members",
            "offset": 0,
            "slot": "0",
            "type": "t_mapping(t_address,t_bool)"
          },
          {
            "astId": 18,
            "contract": "contracts/HousePoolWBTC.sol:HousePoolWBTC",
            "label": "adminRole",
            "offset": 0,
            "slot": "1",
            "type": "t_bytes32"
          }
        ],
        "numberOfBytes": "64"
      },
      "t_struct(ValuesOfInterest)1744_storage": {
        "encoding": "inplace",
        "label": "struct HousePoolWBTC.ValuesOfInterest",
        "members": [
          {
            "astId": 1737,
            "contract": "contracts/HousePoolWBTC.sol:HousePoolWBTC",
            "label": "expectedValue",
            "offset": 0,
            "slot": "0",
            "type": "t_int256"
          },
          {
            "astId": 1739,
            "contract": "contracts/HousePoolWBTC.sol:HousePoolWBTC",
            "label": "maxExposure",
            "offset": 0,
            "slot": "1",
            "type": "t_int256"
          },
          {
            "astId": 1741,
            "contract": "contracts/HousePoolWBTC.sol:HousePoolWBTC",
            "label": "deadline",
            "offset": 0,
            "slot": "2",
            "type": "t_uint256"
          },
          {
            "astId": 1743,
            "contract": "contracts/HousePoolWBTC.sol:HousePoolWBTC",
            "label": "signer",
            "offset": 0,
            "slot": "3",
            "type": "t_address"
          }
        ],
        "numberOfBytes": "128"
      },
      "t_uint256": {
        "encoding": "inplace",
        "label": "uint256",
        "numberOfBytes": "32"
      }
    }
  }
}