{
  "address": "0x2E006Db04d250F80aEc5192ad85527963B0321C3",
  "abi": [
    {
      "inputs": [
        {
          "internalType": "address",
          "name": "_admin",
          "type": "address"
        },
        {
          "internalType": "contract IERC20",
          "name": "_rewardToken",
          "type": "address"
        },
        {
          "internalType": "contract IFundDistributor",
          "name": "_fund",
          "type": "address"
        }
      ],
      "stateMutability": "nonpayable",
      "type": "constructor"
    },
    {
      "anonymous": false,
      "inputs": [
        {
          "indexed": true,
          "internalType": "address",
          "name": "user",
          "type": "address"
        },
        {
          "indexed": true,
          "internalType": "uint256",
          "name": "fid",
          "type": "uint256"
        },
        {
          "indexed": false,
          "internalType": "uint256",
          "name": "amount",
          "type": "uint256"
        },
        {
          "indexed": true,
          "internalType": "address",
          "name": "receiver",
          "type": "address"
        }
      ],
      "name": "EmergencyWithdraw",
      "type": "event"
    },
    {
      "anonymous": false,
      "inputs": [
        {
          "indexed": true,
          "internalType": "uint256",
          "name": "fid",
          "type": "uint256"
        },
        {
          "indexed": false,
          "internalType": "uint256",
          "name": "allocatedPoints",
          "type": "uint256"
        },
        {
          "indexed": true,
          "internalType": "contract IERC20",
          "name": "lpToken",
          "type": "address"
        }
      ],
      "name": "FarmCreated",
      "type": "event"
    },
    {
      "anonymous": false,
      "inputs": [
        {
          "indexed": true,
          "internalType": "address",
          "name": "depositor",
          "type": "address"
        },
        {
          "indexed": true,
          "internalType": "uint256",
          "name": "fid",
          "type": "uint256"
        },
        {
          "indexed": false,
          "internalType": "uint256",
          "name": "amount",
          "type": "uint256"
        },
        {
          "indexed": true,
          "internalType": "address",
          "name": "benefitor",
          "type": "address"
        }
      ],
      "name": "FarmDeposit",
      "type": "event"
    },
    {
      "anonymous": false,
      "inputs": [
        {
          "indexed": true,
          "internalType": "address",
          "name": "fund",
          "type": "address"
        }
      ],
      "name": "FarmFundChanged",
      "type": "event"
    },
    {
      "anonymous": false,
      "inputs": [
        {
          "indexed": true,
          "internalType": "address",
          "name": "requestor",
          "type": "address"
        },
        {
          "indexed": true,
          "internalType": "uint256",
          "name": "fid",
          "type": "uint256"
        },
        {
          "indexed": false,
          "internalType": "uint256",
          "name": "amount",
          "type": "uint256"
        },
        {
          "indexed": true,
          "internalType": "address",
          "name": "receiver",
          "type": "address"
        }
      ],
      "name": "FarmHarvest",
      "type": "event"
    },
    {
      "anonymous": false,
      "inputs": [
        {
          "indexed": true,
          "internalType": "uint256",
          "name": "fid",
          "type": "uint256"
        },
        {
          "indexed": false,
          "internalType": "uint256",
          "name": "lastRewardTime",
          "type": "uint256"
        },
        {
          "indexed": false,
          "internalType": "uint256",
          "name": "lpSupply",
          "type": "uint256"
        },
        {
          "indexed": false,
          "internalType": "uint256",
          "name": "accRewardPerShare",
          "type": "uint256"
        }
      ],
      "name": "FarmUpdated",
      "type": "event"
    },
    {
      "anonymous": false,
      "inputs": [
        {
          "indexed": true,
          "internalType": "address",
          "name": "requestor",
          "type": "address"
        },
        {
          "indexed": true,
          "internalType": "uint256",
          "name": "fid",
          "type": "uint256"
        },
        {
          "indexed": false,
          "internalType": "uint256",
          "name": "amount",
          "type": "uint256"
        },
        {
          "indexed": true,
          "internalType": "address",
          "name": "receiver",
          "type": "address"
        }
      ],
      "name": "FarmWithdraw",
      "type": "event"
    },
    {
      "anonymous": false,
      "inputs": [
        {
          "indexed": true,
          "internalType": "uint256",
          "name": "fid",
          "type": "uint256"
        },
        {
          "indexed": false,
          "internalType": "uint256",
          "name": "allocPoint",
          "type": "uint256"
        },
        {
          "indexed": false,
          "internalType": "bool",
          "name": "overwrite",
          "type": "bool"
        }
      ],
      "name": "LogSetPool",
      "type": "event"
    },
    {
      "anonymous": false,
      "inputs": [
        {
          "indexed": false,
          "internalType": "uint256",
          "name": "newRewardPerSecond",
          "type": "uint256"
        }
      ],
      "name": "RewardPerSecondUpdated",
      "type": "event"
    },
    {
      "anonymous": false,
      "inputs": [
        {
          "indexed": true,
          "internalType": "bytes32",
          "name": "role",
          "type": "bytes32"
        },
        {
          "indexed": true,
          "internalType": "bytes32",
          "name": "previousAdminRole",
          "type": "bytes32"
        },
        {
          "indexed": true,
          "internalType": "bytes32",
          "name": "newAdminRole",
          "type": "bytes32"
        }
      ],
      "name": "RoleAdminChanged",
      "type": "event"
    },
    {
      "anonymous": false,
      "inputs": [
        {
          "indexed": true,
          "internalType": "bytes32",
          "name": "role",
          "type": "bytes32"
        },
        {
          "indexed": true,
          "internalType": "address",
          "name": "account",
          "type": "address"
        },
        {
          "indexed": true,
          "internalType": "address",
          "name": "sender",
          "type": "address"
        }
      ],
      "name": "RoleGranted",
      "type": "event"
    },
    {
      "anonymous": false,
      "inputs": [
        {
          "indexed": true,
          "internalType": "bytes32",
          "name": "role",
          "type": "bytes32"
        },
        {
          "indexed": true,
          "internalType": "address",
          "name": "account",
          "type": "address"
        },
        {
          "indexed": true,
          "internalType": "address",
          "name": "sender",
          "type": "address"
        }
      ],
      "name": "RoleRevoked",
      "type": "event"
    },
    {
      "inputs": [],
      "name": "DEFAULT_ADMIN_ROLE",
      "outputs": [
        {
          "internalType": "bytes32",
          "name": "",
          "type": "bytes32"
        }
      ],
      "stateMutability": "view",
      "type": "function"
    },
    {
      "inputs": [
        {
          "internalType": "contract IERC20",
          "name": "_token",
          "type": "address"
        }
      ],
      "name": "checkFarmDoesntExist",
      "outputs": [],
      "stateMutability": "view",
      "type": "function"
    },
    {
      "inputs": [
        {
          "internalType": "uint256",
          "name": "_allocPoint",
          "type": "uint256"
        },
        {
          "internalType": "contract IERC20",
          "name": "_lpToken",
          "type": "address"
        }
      ],
      "name": "createFarm",
      "outputs": [],
      "stateMutability": "nonpayable",
      "type": "function"
    },
    {
      "inputs": [
        {
          "internalType": "uint256",
          "name": "fid",
          "type": "uint256"
        },
        {
          "internalType": "uint256",
          "name": "lpAmount",
          "type": "uint256"
        },
        {
          "internalType": "address",
          "name": "benefitor",
          "type": "address"
        }
      ],
      "name": "deposit",
      "outputs": [],
      "stateMutability": "nonpayable",
      "type": "function"
    },
    {
      "inputs": [
        {
          "internalType": "uint256",
          "name": "fid",
          "type": "uint256"
        },
        {
          "internalType": "address",
          "name": "receiver",
          "type": "address"
        }
      ],
      "name": "emergencyWithdraw",
      "outputs": [],
      "stateMutability": "nonpayable",
      "type": "function"
    },
    {
      "inputs": [
        {
          "internalType": "uint256",
          "name": "",
          "type": "uint256"
        }
      ],
      "name": "farmInfo",
      "outputs": [
        {
          "internalType": "uint256",
          "name": "accRewardPerShare",
          "type": "uint256"
        },
        {
          "internalType": "uint256",
          "name": "lastRewardTime",
          "type": "uint256"
        },
        {
          "internalType": "uint256",
          "name": "allocPoint",
          "type": "uint256"
        }
      ],
      "stateMutability": "view",
      "type": "function"
    },
    {
      "inputs": [],
      "name": "farmLength",
      "outputs": [
        {
          "internalType": "uint256",
          "name": "farms",
          "type": "uint256"
        }
      ],
      "stateMutability": "view",
      "type": "function"
    },
    {
      "inputs": [],
      "name": "fund",
      "outputs": [
        {
          "internalType": "contract IFundDistributor",
          "name": "",
          "type": "address"
        }
      ],
      "stateMutability": "view",
      "type": "function"
    },
    {
      "inputs": [
        {
          "internalType": "bytes32",
          "name": "role",
          "type": "bytes32"
        }
      ],
      "name": "getRoleAdmin",
      "outputs": [
        {
          "internalType": "bytes32",
          "name": "",
          "type": "bytes32"
        }
      ],
      "stateMutability": "view",
      "type": "function"
    },
    {
      "inputs": [
        {
          "internalType": "bytes32",
          "name": "role",
          "type": "bytes32"
        },
        {
          "internalType": "address",
          "name": "account",
          "type": "address"
        }
      ],
      "name": "grantRole",
      "outputs": [],
      "stateMutability": "nonpayable",
      "type": "function"
    },
    {
      "inputs": [
        {
          "internalType": "uint256",
          "name": "fid",
          "type": "uint256"
        },
        {
          "internalType": "address",
          "name": "receiver",
          "type": "address"
        }
      ],
      "name": "harvest",
      "outputs": [],
      "stateMutability": "nonpayable",
      "type": "function"
    },
    {
      "inputs": [
        {
          "internalType": "address",
          "name": "receiver",
          "type": "address"
        }
      ],
      "name": "harvestAll",
      "outputs": [],
      "stateMutability": "nonpayable",
      "type": "function"
    },
    {
      "inputs": [
        {
          "internalType": "bytes32",
          "name": "role",
          "type": "bytes32"
        },
        {
          "internalType": "address",
          "name": "account",
          "type": "address"
        }
      ],
      "name": "hasRole",
      "outputs": [
        {
          "internalType": "bool",
          "name": "",
          "type": "bool"
        }
      ],
      "stateMutability": "view",
      "type": "function"
    },
    {
      "inputs": [
        {
          "internalType": "uint256",
          "name": "",
          "type": "uint256"
        }
      ],
      "name": "lpToken",
      "outputs": [
        {
          "internalType": "contract IERC20",
          "name": "",
          "type": "address"
        }
      ],
      "stateMutability": "view",
      "type": "function"
    },
    {
      "inputs": [
        {
          "internalType": "uint256[]",
          "name": "fids",
          "type": "uint256[]"
        }
      ],
      "name": "massUpdateFarms",
      "outputs": [],
      "stateMutability": "nonpayable",
      "type": "function"
    },
    {
      "inputs": [
        {
          "internalType": "uint256",
          "name": "_fid",
          "type": "uint256"
        },
        {
          "internalType": "address",
          "name": "_user",
          "type": "address"
        }
      ],
      "name": "pendingReward",
      "outputs": [
        {
          "internalType": "uint256",
          "name": "pendingRewards",
          "type": "uint256"
        }
      ],
      "stateMutability": "view",
      "type": "function"
    },
    {
      "inputs": [
        {
          "internalType": "bytes32",
          "name": "role",
          "type": "bytes32"
        },
        {
          "internalType": "address",
          "name": "account",
          "type": "address"
        }
      ],
      "name": "renounceRole",
      "outputs": [],
      "stateMutability": "nonpayable",
      "type": "function"
    },
    {
      "inputs": [
        {
          "internalType": "bytes32",
          "name": "role",
          "type": "bytes32"
        },
        {
          "internalType": "address",
          "name": "account",
          "type": "address"
        }
      ],
      "name": "revokeRole",
      "outputs": [],
      "stateMutability": "nonpayable",
      "type": "function"
    },
    {
      "inputs": [],
      "name": "reward",
      "outputs": [
        {
          "internalType": "contract IERC20",
          "name": "",
          "type": "address"
        }
      ],
      "stateMutability": "view",
      "type": "function"
    },
    {
      "inputs": [],
      "name": "rewardPerSecond",
      "outputs": [
        {
          "internalType": "uint256",
          "name": "",
          "type": "uint256"
        }
      ],
      "stateMutability": "view",
      "type": "function"
    },
    {
      "inputs": [
        {
          "internalType": "uint256",
          "name": "fid",
          "type": "uint256"
        },
        {
          "internalType": "uint256",
          "name": "allocPoint",
          "type": "uint256"
        },
        {
          "internalType": "bool",
          "name": "overwrite",
          "type": "bool"
        }
      ],
      "name": "setFarm",
      "outputs": [],
      "stateMutability": "nonpayable",
      "type": "function"
    },
    {
      "inputs": [
        {
          "internalType": "contract IFundDistributor",
          "name": "_fund",
          "type": "address"
        }
      ],
      "name": "setFund",
      "outputs": [],
      "stateMutability": "nonpayable",
      "type": "function"
    },
    {
      "inputs": [
        {
          "internalType": "uint256",
          "name": "_rewardPerSecond",
          "type": "uint256"
        }
      ],
      "name": "setRewardPerSecond",
      "outputs": [],
      "stateMutability": "nonpayable",
      "type": "function"
    },
    {
      "inputs": [
        {
          "internalType": "bytes4",
          "name": "interfaceId",
          "type": "bytes4"
        }
      ],
      "name": "supportsInterface",
      "outputs": [
        {
          "internalType": "bool",
          "name": "",
          "type": "bool"
        }
      ],
      "stateMutability": "view",
      "type": "function"
    },
    {
      "inputs": [],
      "name": "totalAllocPoint",
      "outputs": [
        {
          "internalType": "uint256",
          "name": "",
          "type": "uint256"
        }
      ],
      "stateMutability": "view",
      "type": "function"
    },
    {
      "inputs": [
        {
          "internalType": "uint256",
          "name": "fid",
          "type": "uint256"
        }
      ],
      "name": "updateFarm",
      "outputs": [
        {
          "components": [
            {
              "internalType": "uint256",
              "name": "accRewardPerShare",
              "type": "uint256"
            },
            {
              "internalType": "uint256",
              "name": "lastRewardTime",
              "type": "uint256"
            },
            {
              "internalType": "uint256",
              "name": "allocPoint",
              "type": "uint256"
            }
          ],
          "internalType": "struct LFiFarms.FarmInfo",
          "name": "farm",
          "type": "tuple"
        }
      ],
      "stateMutability": "nonpayable",
      "type": "function"
    },
    {
      "inputs": [
        {
          "internalType": "uint256",
          "name": "",
          "type": "uint256"
        },
        {
          "internalType": "address",
          "name": "",
          "type": "address"
        }
      ],
      "name": "userInfo",
      "outputs": [
        {
          "internalType": "uint256",
          "name": "amount",
          "type": "uint256"
        },
        {
          "internalType": "int256",
          "name": "rewardDebt",
          "type": "int256"
        }
      ],
      "stateMutability": "view",
      "type": "function"
    },
    {
      "inputs": [
        {
          "internalType": "uint256",
          "name": "fid",
          "type": "uint256"
        },
        {
          "internalType": "uint256",
          "name": "LPTokenAmount",
          "type": "uint256"
        },
        {
          "internalType": "address",
          "name": "receiver",
          "type": "address"
        }
      ],
      "name": "withdraw",
      "outputs": [],
      "stateMutability": "nonpayable",
      "type": "function"
    },
    {
      "inputs": [
        {
          "internalType": "uint256",
          "name": "fid",
          "type": "uint256"
        },
        {
          "internalType": "uint256",
          "name": "LPTokenamount",
          "type": "uint256"
        },
        {
          "internalType": "address",
          "name": "receiver",
          "type": "address"
        }
      ],
      "name": "withdrawAndHarvest",
      "outputs": [],
      "stateMutability": "nonpayable",
      "type": "function"
    }
  ],
  "transactionHash": "0x5b3431d1742151088238614cdd915d660b6487f69c34224abe643abdbf1e44dc",
  "args": [
    "0xdd8eBa4604D2a9C6c77e4bC557B1884119174726",
    "0xD52D68d889462B7a5d3Cb9b333a2c0F8b56336B2",
    "0x8AB1b15fC33d498749dE96450f1599056c1bC7a3"
  ],
  "solcInputHash": "d5aad97b6fe466178b8b60672613397c",
  "bytecode": "0x608060405260006006553480156200001657600080fd5b50604051620038043803806200380483398181016040528101906200003c919062000349565b81600160006101000a81548173ffffffffffffffffffffffffffffffffffffffff021916908373ffffffffffffffffffffffffffffffffffffffff16021790555080600260006101000a81548173ffffffffffffffffffffffffffffffffffffffff021916908373ffffffffffffffffffffffffffffffffffffffff160217905550620000d36000801b84620000dc60201b60201c565b505050620003a5565b620000ee8282620000f260201b60201c565b5050565b620001048282620001e360201b60201c565b620001df57600160008084815260200190815260200160002060000160008373ffffffffffffffffffffffffffffffffffffffff1673ffffffffffffffffffffffffffffffffffffffff16815260200190815260200160002060006101000a81548160ff021916908315150217905550620001846200024d60201b60201c565b73ffffffffffffffffffffffffffffffffffffffff168173ffffffffffffffffffffffffffffffffffffffff16837f2f8788117e7eff1d82e926ec794901d17c78024a50270940304540a733656f0d60405160405180910390a45b5050565b600080600084815260200190815260200160002060000160008373ffffffffffffffffffffffffffffffffffffffff1673ffffffffffffffffffffffffffffffffffffffff16815260200190815260200160002060009054906101000a900460ff16905092915050565b600033905090565b600080fd5b600073ffffffffffffffffffffffffffffffffffffffff82169050919050565b600062000287826200025a565b9050919050565b62000299816200027a565b8114620002a557600080fd5b50565b600081519050620002b9816200028e565b92915050565b6000620002cc826200027a565b9050919050565b620002de81620002bf565b8114620002ea57600080fd5b50565b600081519050620002fe81620002d3565b92915050565b600062000311826200027a565b9050919050565b620003238162000304565b81146200032f57600080fd5b50565b600081519050620003438162000318565b92915050565b60008060006060848603121562000365576200036462000255565b5b60006200037586828701620002a8565b93505060206200038886828701620002ed565b92505060406200039b8682870162000332565b9150509250925092565b61344f80620003b56000396000f3fe608060405234801561001057600080fd5b50600436106101cf5760003560e01c806378ed5d1f1161010457806393f1a40b116100a2578063b60d428811610071578063b60d428814610529578063cc430ced14610547578063d1abb90714610577578063d547741f14610593576101cf565b806393f1a40b1461048e57806398969e82146104bf5780639bde8099146104ef578063a217fddf1461050b576101cf565b80638dbdbe6d116100de5780638dbdbe6d146104085780638f10369a146104245780638fa82c881461044257806391d148541461045e576101cf565b806378ed5d1f146103885780637d21c967146103b85780638a48a515146103ea576101cf565b80632f2ff15d116101715780634ef916be1161014b5780634ef916be146103185780635fa4c0be1461033457806366da581514610350578063699bdca91461036c576101cf565b80632f2ff15d146102c45780632f940c70146102e057806336568abe146102fc576101cf565b806317caf6f1116101ad57806317caf6f11461023c57806318fccc761461025a578063228cb73314610276578063248a9ca314610294576101cf565b806301ffc9a7146101d45780630ad58d2f146102045780630e21750f14610220575b600080fd5b6101ee60048036038101906101e99190612398565b6105af565b6040516101fb91906123e0565b60405180910390f35b61021e6004803603810190610219919061248f565b610629565b005b61023a60048036038101906102359190612520565b6107b5565b005b610244610852565b604051610251919061255c565b60405180910390f35b610274600480360381019061026f9190612577565b610858565b005b61027e6109fb565b60405161028b9190612616565b60405180910390f35b6102ae60048036038101906102a99190612667565b610a21565b6040516102bb91906126a3565b60405180910390f35b6102de60048036038101906102d991906126be565b610a40565b005b6102fa60048036038101906102f59190612577565b610a69565b005b610316600480360381019061031191906126be565b610baf565b005b610332600480360381019061032d919061273c565b610c32565b005b61034e600480360381019061034991906127a8565b610d98565b005b61036a600480360381019061036591906127fb565b610e5b565b005b61038660048036038101906103819190612828565b610eb2565b005b6103a2600480360381019061039d91906127fb565b610f44565b6040516103af9190612616565b60405180910390f35b6103d260048036038101906103cd91906127fb565b610f83565b6040516103e193929190612855565b60405180910390f35b6103f2610fbd565b6040516103ff919061255c565b60405180910390f35b610422600480360381019061041d919061248f565b610fca565b005b61042c611158565b604051610439919061255c565b60405180910390f35b61045c600480360381019061045791906128f1565b61115e565b005b610478600480360381019061047391906126be565b6111ad565b60405161048591906123e0565b60405180910390f35b6104a860048036038101906104a39190612577565b611217565b6040516104b6929190612957565b60405180910390f35b6104d960048036038101906104d49190612577565b611248565b6040516104e6919061255c565b60405180910390f35b61050960048036038101906105049190612980565b611473565b005b610513611547565b60405161052091906126a3565b60405180910390f35b61053161154e565b60405161053e91906129ce565b60405180910390f35b610561600480360381019061055c91906127fb565b611574565b60405161056e9190612a3a565b60405180910390f35b610591600480360381019061058c919061248f565b6117ac565b005b6105ad60048036038101906105a891906126be565b611a64565b005b60007f7965db0b000000000000000000000000000000000000000000000000000000007bffffffffffffffffffffffffffffffffffffffffffffffffffffffff1916827bffffffffffffffffffffffffffffffffffffffffffffffffffffffff19161480610622575061062182611a8d565b5b9050919050565b600061063484611574565b905060006005600086815260200190815260200160002060003373ffffffffffffffffffffffffffffffffffffffff1673ffffffffffffffffffffffffffffffffffffffff168152602001908152602001600020905064e8d4a510008260000151856106a09190612a84565b6106aa9190612b0d565b8160010160008282546106bd9190612b3e565b92505081905550838160000160008282546106d89190612bd2565b925050819055506107488385600488815481106106f8576106f7612c06565b5b9060005260206000200160009054906101000a900473ffffffffffffffffffffffffffffffffffffffff1673ffffffffffffffffffffffffffffffffffffffff16611af79092919063ffffffff16565b8273ffffffffffffffffffffffffffffffffffffffff16853373ffffffffffffffffffffffffffffffffffffffff167fc9da9141b9ad9eed3c5b5d7e7799519c54f06cc3ee3f1c49c16f2f297660baef876040516107a6919061255c565b60405180910390a45050505050565b6000801b6107ca816107c5611b7d565b611b85565b81600260006101000a81548173ffffffffffffffffffffffffffffffffffffffff021916908373ffffffffffffffffffffffffffffffffffffffff1602179055508173ffffffffffffffffffffffffffffffffffffffff167f3f791d163ad67bd54ebfd77208ced9c9e64ac4c2a74e1c9d0b5e2d417034dfdb60405160405180910390a25050565b60065481565b600061086383611574565b905060006005600085815260200190815260200160002060003373ffffffffffffffffffffffffffffffffffffffff1673ffffffffffffffffffffffffffffffffffffffff1681526020019081526020016000209050600064e8d4a51000836000015183600001546108d59190612a84565b6108df9190612b0d565b905060008260010154826108f39190612b3e565b9050818360010181905550600260009054906101000a900473ffffffffffffffffffffffffffffffffffffffff1673ffffffffffffffffffffffffffffffffffffffff16631ec8bb8c86836040518363ffffffff1660e01b815260040161095b929190612c44565b600060405180830381600087803b15801561097557600080fd5b505af1158015610989573d6000803e3d6000fd5b505050508473ffffffffffffffffffffffffffffffffffffffff16863373ffffffffffffffffffffffffffffffffffffffff167f8019192f65b34fad6bf2766db2d26c808d77abc63af77b2ba2e329ab18aa8a0d846040516109eb919061255c565b60405180910390a4505050505050565b600160009054906101000a900473ffffffffffffffffffffffffffffffffffffffff1681565b6000806000838152602001908152602001600020600101549050919050565b610a4982610a21565b610a5a81610a55611b7d565b611b85565b610a648383611c22565b505050565b60006005600084815260200190815260200160002060003373ffffffffffffffffffffffffffffffffffffffff1673ffffffffffffffffffffffffffffffffffffffff16815260200190815260200160002090506000816000015490506000826000018190555060008260010181905550610b43838260048781548110610af357610af2612c06565b5b9060005260206000200160009054906101000a900473ffffffffffffffffffffffffffffffffffffffff1673ffffffffffffffffffffffffffffffffffffffff16611af79092919063ffffffff16565b8273ffffffffffffffffffffffffffffffffffffffff16843373ffffffffffffffffffffffffffffffffffffffff167f2cac5e20e1541d836381527a43f651851e302817b71dc8e810284e69210c1c6b84604051610ba1919061255c565b60405180910390a450505050565b610bb7611b7d565b73ffffffffffffffffffffffffffffffffffffffff168173ffffffffffffffffffffffffffffffffffffffff1614610c24576040517f08c379a0000000000000000000000000000000000000000000000000000000008152600401610c1b90612cf0565b60405180910390fd5b610c2e8282611d02565b5050565b6000801b610c4781610c42611b7d565b611b85565b610c5082611473565b8260066000828254610c629190612d10565b92505081905550600360405180606001604052806000815260200142815260200185815250908060018154018082558091505060019003906000526020600020906003020160009091909190915060008201518160000155602082015181600101556040820151816002015550506004829080600181540180825580915050600190039060005260206000200160009091909190916101000a81548173ffffffffffffffffffffffffffffffffffffffff021916908373ffffffffffffffffffffffffffffffffffffffff1602179055508173ffffffffffffffffffffffffffffffffffffffff166001600480549050610d5c9190612bd2565b7f61c9bf39bb035d6f43bf12aa7b22bfec1d61788e90b7249fad7625529c11518185604051610d8b919061255c565b60405180910390a3505050565b6000801b610dad81610da8611b7d565b611b85565b8260038581548110610dc257610dc1612c06565b5b906000526020600020906003020160020154600654610de19190612bd2565b610deb9190612d10565b6006819055508260038581548110610e0657610e05612c06565b5b906000526020600020906003020160020181905550837f31b4adb47fe10f535ba0f237d0ef37a1281f4974f03b5f1bb1ca4172aceb70c48484604051610e4d929190612d66565b60405180910390a250505050565b6000801b610e7081610e6b611b7d565b611b85565b816007819055507f951c6f64eb06ec6a6682072cda71420984dd55199006684bb820a80fd7e9879382604051610ea6919061255c565b60405180910390a15050565b6000600380549050905060005b81811015610f3f5760006005600083815260200190815260200160002060003373ffffffffffffffffffffffffffffffffffffffff1673ffffffffffffffffffffffffffffffffffffffff168152602001908152602001600020600001541115610f2e57610f2d8184610858565b5b80610f3890612d8f565b9050610ebf565b505050565b60048181548110610f5457600080fd5b906000526020600020016000915054906101000a900473ffffffffffffffffffffffffffffffffffffffff1681565b60038181548110610f9357600080fd5b90600052602060002090600302016000915090508060000154908060010154908060020154905083565b6000600380549050905090565b6000610fd584611574565b905060006005600086815260200190815260200160002060008473ffffffffffffffffffffffffffffffffffffffff1673ffffffffffffffffffffffffffffffffffffffff16815260200190815260200160002090508381600001600082825461103f9190612d10565b9250508190555064e8d4a5100082600001518561105c9190612a84565b6110669190612b0d565b8160010160008282546110799190612dd8565b925050819055506110eb3330866004898154811061109a57611099612c06565b5b9060005260206000200160009054906101000a900473ffffffffffffffffffffffffffffffffffffffff1673ffffffffffffffffffffffffffffffffffffffff16611de3909392919063ffffffff16565b8273ffffffffffffffffffffffffffffffffffffffff16853373ffffffffffffffffffffffffffffffffffffffff167f8f3ed488ccb8ee9d27a4cb66377f8127c651bd8f8b68df7b23d7b5676961787f87604051611149919061255c565b60405180910390a45050505050565b60075481565b600082829050905060005b818110156111a75761119384848381811061118757611186612c06565b5b90506020020135611574565b50808061119f90612d8f565b915050611169565b50505050565b600080600084815260200190815260200160002060000160008373ffffffffffffffffffffffffffffffffffffffff1673ffffffffffffffffffffffffffffffffffffffff16815260200190815260200160002060009054906101000a900460ff16905092915050565b6005602052816000526040600020602052806000526040600020600091509150508060000154908060010154905082565b6000806003848154811061125f5761125e612c06565b5b90600052602060002090600302016040518060600160405290816000820154815260200160018201548152602001600282015481525050905060006005600086815260200190815260200160002060008573ffffffffffffffffffffffffffffffffffffffff1673ffffffffffffffffffffffffffffffffffffffff168152602001908152602001600020905060008260000151905060006004878154811061130b5761130a612c06565b5b9060005260206000200160009054906101000a900473ffffffffffffffffffffffffffffffffffffffff1673ffffffffffffffffffffffffffffffffffffffff166370a08231306040518263ffffffff1660e01b815260040161136e9190612e6c565b602060405180830381865afa15801561138b573d6000803e3d6000fd5b505050506040513d601f19601f820116820180604052508101906113af9190612e9c565b90508360200151421180156113c5575060008114155b156114385760008460200151426113dc9190612bd2565b905060006006548660400151600754846113f69190612a84565b6114009190612a84565b61140a9190612b0d565b90508264e8d4a510008261141e9190612a84565b6114289190612b0d565b846114339190612d10565b935050505b826001015464e8d4a510008385600001546114539190612a84565b61145d9190612b0d565b6114679190612b3e565b94505050505092915050565b60005b600380549050811015611543578173ffffffffffffffffffffffffffffffffffffffff16600482815481106114ae576114ad612c06565b5b9060005260206000200160009054906101000a900473ffffffffffffffffffffffffffffffffffffffff1673ffffffffffffffffffffffffffffffffffffffff161415611530576040517f08c379a000000000000000000000000000000000000000000000000000000000815260040161152790612f15565b60405180910390fd5b808061153b90612d8f565b915050611476565b5050565b6000801b81565b600260009054906101000a900473ffffffffffffffffffffffffffffffffffffffff1681565b61157c612315565b600382815481106115905761158f612c06565b5b90600052602060002090600302016040518060600160405290816000820154815260200160018201548152602001600282015481525050905042816020015110156117a7576000600483815481106115eb576115ea612c06565b5b9060005260206000200160009054906101000a900473ffffffffffffffffffffffffffffffffffffffff1673ffffffffffffffffffffffffffffffffffffffff166370a08231306040518263ffffffff1660e01b815260040161164e9190612e6c565b602060405180830381865afa15801561166b573d6000803e3d6000fd5b505050506040513d601f19601f8201168201806040525081019061168f9190612e9c565b905060008111156117135760008260200151426116ac9190612bd2565b905060006006548460400151600754846116c69190612a84565b6116d09190612a84565b6116da9190612b0d565b90508264e8d4a51000826116ee9190612a84565b6116f89190612b0d565b846000018181516117099190612d10565b9150818152505050505b42826020018181525050816003848154811061173257611731612c06565b5b9060005260206000209060030201600082015181600001556020820151816001015560408201518160020155905050827f7afa65e874128c36660ee87dc188d5db7715c3183d701645e98701b5ef8cd913836020015183856000015160405161179d93929190612855565b60405180910390a2505b919050565b60006117b784611574565b905060006005600086815260200190815260200160002060003373ffffffffffffffffffffffffffffffffffffffff1673ffffffffffffffffffffffffffffffffffffffff1681526020019081526020016000209050600064e8d4a51000836000015183600001546118299190612a84565b6118339190612b0d565b905060008260010154826118479190612b3e565b905064e8d4a5100084600001518761185f9190612a84565b6118699190612b0d565b826118749190612b3e565b8360010181905550858360000160008282546118909190612bd2565b92505081905550600260009054906101000a900473ffffffffffffffffffffffffffffffffffffffff1673ffffffffffffffffffffffffffffffffffffffff16631ec8bb8c86886040518363ffffffff1660e01b81526004016118f4929190612c44565b600060405180830381600087803b15801561190e57600080fd5b505af1158015611922573d6000803e3d6000fd5b5050505061198f858760048a8154811061193f5761193e612c06565b5b9060005260206000200160009054906101000a900473ffffffffffffffffffffffffffffffffffffffff1673ffffffffffffffffffffffffffffffffffffffff16611af79092919063ffffffff16565b8473ffffffffffffffffffffffffffffffffffffffff16873373ffffffffffffffffffffffffffffffffffffffff167fc9da9141b9ad9eed3c5b5d7e7799519c54f06cc3ee3f1c49c16f2f297660baef896040516119ed919061255c565b60405180910390a48473ffffffffffffffffffffffffffffffffffffffff16873373ffffffffffffffffffffffffffffffffffffffff167f8019192f65b34fad6bf2766db2d26c808d77abc63af77b2ba2e329ab18aa8a0d84604051611a53919061255c565b60405180910390a450505050505050565b611a6d82610a21565b611a7e81611a79611b7d565b611b85565b611a888383611d02565b505050565b60007f01ffc9a7000000000000000000000000000000000000000000000000000000007bffffffffffffffffffffffffffffffffffffffffffffffffffffffff1916827bffffffffffffffffffffffffffffffffffffffffffffffffffffffff1916149050919050565b611b788363a9059cbb60e01b8484604051602401611b16929190612c44565b604051602081830303815290604052907bffffffffffffffffffffffffffffffffffffffffffffffffffffffff19166020820180517bffffffffffffffffffffffffffffffffffffffffffffffffffffffff8381831617835250505050611e6c565b505050565b600033905090565b611b8f82826111ad565b611c1e57611bb48173ffffffffffffffffffffffffffffffffffffffff166014611f33565b611bc28360001c6020611f33565b604051602001611bd3929190613047565b6040516020818303038152906040526040517f08c379a0000000000000000000000000000000000000000000000000000000008152600401611c1591906130cb565b60405180910390fd5b5050565b611c2c82826111ad565b611cfe57600160008084815260200190815260200160002060000160008373ffffffffffffffffffffffffffffffffffffffff1673ffffffffffffffffffffffffffffffffffffffff16815260200190815260200160002060006101000a81548160ff021916908315150217905550611ca3611b7d565b73ffffffffffffffffffffffffffffffffffffffff168173ffffffffffffffffffffffffffffffffffffffff16837f2f8788117e7eff1d82e926ec794901d17c78024a50270940304540a733656f0d60405160405180910390a45b5050565b611d0c82826111ad565b15611ddf57600080600084815260200190815260200160002060000160008373ffffffffffffffffffffffffffffffffffffffff1673ffffffffffffffffffffffffffffffffffffffff16815260200190815260200160002060006101000a81548160ff021916908315150217905550611d84611b7d565b73ffffffffffffffffffffffffffffffffffffffff168173ffffffffffffffffffffffffffffffffffffffff16837ff6391f5c32d9c69d2a47ea670b442974b53935d1edc7fd64eb21e047a839171b60405160405180910390a45b5050565b611e66846323b872dd60e01b858585604051602401611e04939291906130ed565b604051602081830303815290604052907bffffffffffffffffffffffffffffffffffffffffffffffffffffffff19166020820180517bffffffffffffffffffffffffffffffffffffffffffffffffffffffff8381831617835250505050611e6c565b50505050565b6000611ece826040518060400160405280602081526020017f5361666545524332303a206c6f772d6c6576656c2063616c6c206661696c65648152508573ffffffffffffffffffffffffffffffffffffffff1661216f9092919063ffffffff16565b9050600081511115611f2e5780806020019051810190611eee9190613139565b611f2d576040517f08c379a0000000000000000000000000000000000000000000000000000000008152600401611f24906131d8565b60405180910390fd5b5b505050565b606060006002836002611f469190612a84565b611f509190612d10565b67ffffffffffffffff811115611f6957611f686131f8565b5b6040519080825280601f01601f191660200182016040528015611f9b5781602001600182028036833780820191505090505b5090507f300000000000000000000000000000000000000000000000000000000000000081600081518110611fd357611fd2612c06565b5b60200101907effffffffffffffffffffffffffffffffffffffffffffffffffffffffffffff1916908160001a9053507f78000000000000000000000000000000000000000000000000000000000000008160018151811061203757612036612c06565b5b60200101907effffffffffffffffffffffffffffffffffffffffffffffffffffffffffffff1916908160001a905350600060018460026120779190612a84565b6120819190612d10565b90505b6001811115612121577f3031323334353637383961626364656600000000000000000000000000000000600f8616601081106120c3576120c2612c06565b5b1a60f81b8282815181106120da576120d9612c06565b5b60200101907effffffffffffffffffffffffffffffffffffffffffffffffffffffffffffff1916908160001a905350600485901c94508061211a90613227565b9050612084565b5060008414612165576040517f08c379a000000000000000000000000000000000000000000000000000000000815260040161215c9061329d565b60405180910390fd5b8091505092915050565b606061217e8484600085612187565b90509392505050565b6060824710156121cc576040517f08c379a00000000000000000000000000000000000000000000000000000000081526004016121c39061332f565b60405180910390fd5b6121d58561229b565b612214576040517f08c379a000000000000000000000000000000000000000000000000000000000815260040161220b9061339b565b60405180910390fd5b6000808673ffffffffffffffffffffffffffffffffffffffff16858760405161223d9190613402565b60006040518083038185875af1925050503d806000811461227a576040519150601f19603f3d011682016040523d82523d6000602084013e61227f565b606091505b509150915061228f8282866122ae565b92505050949350505050565b600080823b905060008111915050919050565b606083156122be5782905061230e565b6000835111156122d15782518084602001fd5b816040517f08c379a000000000000000000000000000000000000000000000000000000000815260040161230591906130cb565b60405180910390fd5b9392505050565b60405180606001604052806000815260200160008152602001600081525090565b600080fd5b600080fd5b60007fffffffff0000000000000000000000000000000000000000000000000000000082169050919050565b61237581612340565b811461238057600080fd5b50565b6000813590506123928161236c565b92915050565b6000602082840312156123ae576123ad612336565b5b60006123bc84828501612383565b91505092915050565b60008115159050919050565b6123da816123c5565b82525050565b60006020820190506123f560008301846123d1565b92915050565b6000819050919050565b61240e816123fb565b811461241957600080fd5b50565b60008135905061242b81612405565b92915050565b600073ffffffffffffffffffffffffffffffffffffffff82169050919050565b600061245c82612431565b9050919050565b61246c81612451565b811461247757600080fd5b50565b60008135905061248981612463565b92915050565b6000806000606084860312156124a8576124a7612336565b5b60006124b68682870161241c565b93505060206124c78682870161241c565b92505060406124d88682870161247a565b9150509250925092565b60006124ed82612451565b9050919050565b6124fd816124e2565b811461250857600080fd5b50565b60008135905061251a816124f4565b92915050565b60006020828403121561253657612535612336565b5b60006125448482850161250b565b91505092915050565b612556816123fb565b82525050565b6000602082019050612571600083018461254d565b92915050565b6000806040838503121561258e5761258d612336565b5b600061259c8582860161241c565b92505060206125ad8582860161247a565b9150509250929050565b6000819050919050565b60006125dc6125d76125d284612431565b6125b7565b612431565b9050919050565b60006125ee826125c1565b9050919050565b6000612600826125e3565b9050919050565b612610816125f5565b82525050565b600060208201905061262b6000830184612607565b92915050565b6000819050919050565b61264481612631565b811461264f57600080fd5b50565b6000813590506126618161263b565b92915050565b60006020828403121561267d5761267c612336565b5b600061268b84828501612652565b91505092915050565b61269d81612631565b82525050565b60006020820190506126b86000830184612694565b92915050565b600080604083850312156126d5576126d4612336565b5b60006126e385828601612652565b92505060206126f48582860161247a565b9150509250929050565b600061270982612451565b9050919050565b612719816126fe565b811461272457600080fd5b50565b60008135905061273681612710565b92915050565b6000806040838503121561275357612752612336565b5b60006127618582860161241c565b925050602061277285828601612727565b9150509250929050565b612785816123c5565b811461279057600080fd5b50565b6000813590506127a28161277c565b92915050565b6000806000606084860312156127c1576127c0612336565b5b60006127cf8682870161241c565b93505060206127e08682870161241c565b92505060406127f186828701612793565b9150509250925092565b60006020828403121561281157612810612336565b5b600061281f8482850161241c565b91505092915050565b60006020828403121561283e5761283d612336565b5b600061284c8482850161247a565b91505092915050565b600060608201905061286a600083018661254d565b612877602083018561254d565b612884604083018461254d565b949350505050565b600080fd5b600080fd5b600080fd5b60008083601f8401126128b1576128b061288c565b5b8235905067ffffffffffffffff8111156128ce576128cd612891565b5b6020830191508360208202830111156128ea576128e9612896565b5b9250929050565b6000806020838503121561290857612907612336565b5b600083013567ffffffffffffffff8111156129265761292561233b565b5b6129328582860161289b565b92509250509250929050565b6000819050919050565b6129518161293e565b82525050565b600060408201905061296c600083018561254d565b6129796020830184612948565b9392505050565b60006020828403121561299657612995612336565b5b60006129a484828501612727565b91505092915050565b60006129b8826125e3565b9050919050565b6129c8816129ad565b82525050565b60006020820190506129e360008301846129bf565b92915050565b6129f2816123fb565b82525050565b606082016000820151612a0e60008501826129e9565b506020820151612a2160208501826129e9565b506040820151612a3460408501826129e9565b50505050565b6000606082019050612a4f60008301846129f8565b92915050565b7f4e487b7100000000000000000000000000000000000000000000000000000000600052601160045260246000fd5b6000612a8f826123fb565b9150612a9a836123fb565b9250817fffffffffffffffffffffffffffffffffffffffffffffffffffffffffffffffff0483118215151615612ad357612ad2612a55565b5b828202905092915050565b7f4e487b7100000000000000000000000000000000000000000000000000000000600052601260045260246000fd5b6000612b18826123fb565b9150612b23836123fb565b925082612b3357612b32612ade565b5b828204905092915050565b6000612b498261293e565b9150612b548361293e565b9250827f800000000000000000000000000000000000000000000000000000000000000001821260008412151615612b8f57612b8e612a55565b5b827f7fffffffffffffffffffffffffffffffffffffffffffffffffffffffffffffff018213600084121615612bc757612bc6612a55565b5b828203905092915050565b6000612bdd826123fb565b9150612be8836123fb565b925082821015612bfb57612bfa612a55565b5b828203905092915050565b7f4e487b7100000000000000000000000000000000000000000000000000000000600052603260045260246000fd5b612c3e81612451565b82525050565b6000604082019050612c596000830185612c35565b612c66602083018461254d565b9392505050565b600082825260208201905092915050565b7f416363657373436f6e74726f6c3a2063616e206f6e6c792072656e6f756e636560008201527f20726f6c657320666f722073656c660000000000000000000000000000000000602082015250565b6000612cda602f83612c6d565b9150612ce582612c7e565b604082019050919050565b60006020820190508181036000830152612d0981612ccd565b9050919050565b6000612d1b826123fb565b9150612d26836123fb565b9250827fffffffffffffffffffffffffffffffffffffffffffffffffffffffffffffffff03821115612d5b57612d5a612a55565b5b828201905092915050565b6000604082019050612d7b600083018561254d565b612d8860208301846123d1565b9392505050565b6000612d9a826123fb565b91507fffffffffffffffffffffffffffffffffffffffffffffffffffffffffffffffff821415612dcd57612dcc612a55565b5b600182019050919050565b6000612de38261293e565b9150612dee8361293e565b9250817f7fffffffffffffffffffffffffffffffffffffffffffffffffffffffffffffff03831360008312151615612e2957612e28612a55565b5b817f8000000000000000000000000000000000000000000000000000000000000000038312600083121615612e6157612e60612a55565b5b828201905092915050565b6000602082019050612e816000830184612c35565b92915050565b600081519050612e9681612405565b92915050565b600060208284031215612eb257612eb1612336565b5b6000612ec084828501612e87565b91505092915050565b7f4661726d2065786973747320616c726561647900000000000000000000000000600082015250565b6000612eff601383612c6d565b9150612f0a82612ec9565b602082019050919050565b60006020820190508181036000830152612f2e81612ef2565b9050919050565b600081905092915050565b7f416363657373436f6e74726f6c3a206163636f756e7420000000000000000000600082015250565b6000612f76601783612f35565b9150612f8182612f40565b601782019050919050565b600081519050919050565b60005b83811015612fb5578082015181840152602081019050612f9a565b83811115612fc4576000848401525b50505050565b6000612fd582612f8c565b612fdf8185612f35565b9350612fef818560208601612f97565b80840191505092915050565b7f206973206d697373696e6720726f6c6520000000000000000000000000000000600082015250565b6000613031601183612f35565b915061303c82612ffb565b601182019050919050565b600061305282612f69565b915061305e8285612fca565b915061306982613024565b91506130758284612fca565b91508190509392505050565b6000601f19601f8301169050919050565b600061309d82612f8c565b6130a78185612c6d565b93506130b7818560208601612f97565b6130c081613081565b840191505092915050565b600060208201905081810360008301526130e58184613092565b905092915050565b60006060820190506131026000830186612c35565b61310f6020830185612c35565b61311c604083018461254d565b949350505050565b6000815190506131338161277c565b92915050565b60006020828403121561314f5761314e612336565b5b600061315d84828501613124565b91505092915050565b7f5361666545524332303a204552433230206f7065726174696f6e20646964206e60008201527f6f74207375636365656400000000000000000000000000000000000000000000602082015250565b60006131c2602a83612c6d565b91506131cd82613166565b604082019050919050565b600060208201905081810360008301526131f1816131b5565b9050919050565b7f4e487b7100000000000000000000000000000000000000000000000000000000600052604160045260246000fd5b6000613232826123fb565b9150600082141561324657613245612a55565b5b600182039050919050565b7f537472696e67733a20686578206c656e67746820696e73756666696369656e74600082015250565b6000613287602083612c6d565b915061329282613251565b602082019050919050565b600060208201905081810360008301526132b68161327a565b9050919050565b7f416464726573733a20696e73756666696369656e742062616c616e636520666f60008201527f722063616c6c0000000000000000000000000000000000000000000000000000602082015250565b6000613319602683612c6d565b9150613324826132bd565b604082019050919050565b600060208201905081810360008301526133488161330c565b9050919050565b7f416464726573733a2063616c6c20746f206e6f6e2d636f6e7472616374000000600082015250565b6000613385601d83612c6d565b91506133908261334f565b602082019050919050565b600060208201905081810360008301526133b481613378565b9050919050565b600081519050919050565b600081905092915050565b60006133dc826133bb565b6133e681856133c6565b93506133f6818560208601612f97565b80840191505092915050565b600061340e82846133d1565b91508190509291505056fea26469706673582212207841ea5432fd8c967650e8a0a6e8ee63601ba12c6e5aee7101477aaf6157e45964736f6c634300080a0033",
  "devdoc": {
    "kind": "dev",
    "methods": {
      "deposit(uint256,uint256,address)": {
        "details": "See FarmInfo struct `farmCount()` & `listFarms()` for farm details",
        "params": {
          "benefitor": "Receiver of farm rewards",
          "fid": "farm ID; see FarmInfo struct for more details",
          "lpAmount": "Amount of LP tokens to deposit; User must have LP tokens corresponding to the farm"
        }
      },
      "emergencyWithdraw(uint256,address)": {
        "params": {
          "fid": "The index of the farm. see `farmInfo`",
          "receiver": "Receiver of the LP Tokens."
        }
      },
      "getRoleAdmin(bytes32)": {
        "details": "Returns the admin role that controls `role`. See {grantRole} and {revokeRole}. To change a role's admin, use {_setRoleAdmin}."
      },
      "grantRole(bytes32,address)": {
        "details": "Grants `role` to `account`. If `account` had not been already granted `role`, emits a {RoleGranted} event. Requirements: - the caller must have ``role``'s admin role."
      },
      "harvest(uint256,address)": {
        "params": {
          "fid": "The index of the pool. See `farmInfo`.",
          "receiver": "Receiver of rewards."
        }
      },
      "hasRole(bytes32,address)": {
        "details": "Returns `true` if `account` has been granted `role`."
      },
      "pendingReward(uint256,address)": {
        "params": {
          "_fid": "The index of the Farm. See `farmInfo`.",
          "_user": "Address of user."
        },
        "returns": {
          "pendingRewards": "for a given user."
        }
      },
      "renounceRole(bytes32,address)": {
        "details": "Revokes `role` from the calling account. Roles are often managed via {grantRole} and {revokeRole}: this function's purpose is to provide a mechanism for accounts to lose their privileges if they are compromised (such as when a trusted device is misplaced). If the calling account had been revoked `role`, emits a {RoleRevoked} event. Requirements: - the caller must be `account`."
      },
      "revokeRole(bytes32,address)": {
        "details": "Revokes `role` from `account`. If `account` had been granted `role`, emits a {RoleRevoked} event. Requirements: - the caller must have ``role``'s admin role."
      },
      "supportsInterface(bytes4)": {
        "details": "See {IERC165-supportsInterface}."
      },
      "withdrawAndHarvest(uint256,uint256,address)": {
        "params": {
          "LPTokenamount": "LPToken amount to withdraw",
          "fid": "The index of the farm. See `farmInfo`",
          "receiver": "Receiver of the Lptokens and rewards."
        }
      }
    },
    "stateVariables": {
      "totalAllocPoint": {
        "details": "Total allocation points. Must be the sum of all allocation points in all pools."
      }
    },
    "version": 1
  },
  "userdoc": {
    "kind": "user",
    "methods": {
      "deposit(uint256,uint256,address)": {
        "notice": "Deposit LP tokens to farms for LFI token rewards"
      },
      "emergencyWithdraw(uint256,address)": {
        "notice": "Withdraw without caring about rewards. EMERGENCY ONLY."
      },
      "farmLength()": {
        "notice": "Returns the number of LFi Farms"
      },
      "harvest(uint256,address)": {
        "notice": "Harvest proceeds for transaction sender to `receiver`."
      },
      "pendingReward(uint256,address)": {
        "notice": "View function to see pending reward on frontend."
      },
      "userInfo(uint256,address)": {
        "notice": "Info of each user that stakes LP tokens."
      },
      "withdrawAndHarvest(uint256,uint256,address)": {
        "notice": "Withdraw LP Tokens from LFi Farms and harvest proceeds for transaction sender to \"Receiver\""
      }
    },
    "version": 1
  },
  "storageLayout": {
    "storage": [
      {
        "astId": 24,
        "contract": "contracts/LFiFarms.sol:LFiFarms",
        "label": "_roles",
        "offset": 0,
        "slot": "0",
        "type": "t_mapping(t_bytes32,t_struct(RoleData)19_storage)"
      },
      {
        "astId": 1276,
        "contract": "contracts/LFiFarms.sol:LFiFarms",
        "label": "reward",
        "offset": 0,
        "slot": "1",
        "type": "t_contract(IERC20)459"
      },
      {
        "astId": 1279,
        "contract": "contracts/LFiFarms.sol:LFiFarms",
        "label": "fund",
        "offset": 0,
        "slot": "2",
        "type": "t_contract(IFundDistributor)1255"
      },
      {
        "astId": 1283,
        "contract": "contracts/LFiFarms.sol:LFiFarms",
        "label": "farmInfo",
        "offset": 0,
        "slot": "3",
        "type": "t_array(t_struct(FarmInfo)1273_storage)dyn_storage"
      },
      {
        "astId": 1287,
        "contract": "contracts/LFiFarms.sol:LFiFarms",
        "label": "lpToken",
        "offset": 0,
        "slot": "4",
        "type": "t_array(t_contract(IERC20)459)dyn_storage"
      },
      {
        "astId": 1295,
        "contract": "contracts/LFiFarms.sol:LFiFarms",
        "label": "userInfo",
        "offset": 0,
        "slot": "5",
        "type": "t_mapping(t_uint256,t_mapping(t_address,t_struct(UserInfo)1266_storage))"
      },
      {
        "astId": 1299,
        "contract": "contracts/LFiFarms.sol:LFiFarms",
        "label": "totalAllocPoint",
        "offset": 0,
        "slot": "6",
        "type": "t_uint256"
      },
      {
        "astId": 1301,
        "contract": "contracts/LFiFarms.sol:LFiFarms",
        "label": "rewardPerSecond",
        "offset": 0,
        "slot": "7",
        "type": "t_uint256"
      }
    ],
    "types": {
      "t_address": {
        "encoding": "inplace",
        "label": "address",
        "numberOfBytes": "20"
      },
      "t_array(t_contract(IERC20)459)dyn_storage": {
        "base": "t_contract(IERC20)459",
        "encoding": "dynamic_array",
        "label": "contract IERC20[]",
        "numberOfBytes": "32"
      },
      "t_array(t_struct(FarmInfo)1273_storage)dyn_storage": {
        "base": "t_struct(FarmInfo)1273_storage",
        "encoding": "dynamic_array",
        "label": "struct LFiFarms.FarmInfo[]",
        "numberOfBytes": "32"
      },
      "t_bool": {
        "encoding": "inplace",
        "label": "bool",
        "numberOfBytes": "1"
      },
      "t_bytes32": {
        "encoding": "inplace",
        "label": "bytes32",
        "numberOfBytes": "32"
      },
      "t_contract(IERC20)459": {
        "encoding": "inplace",
        "label": "contract IERC20",
        "numberOfBytes": "20"
      },
      "t_contract(IFundDistributor)1255": {
        "encoding": "inplace",
        "label": "contract IFundDistributor",
        "numberOfBytes": "20"
      },
      "t_int256": {
        "encoding": "inplace",
        "label": "int256",
        "numberOfBytes": "32"
      },
      "t_mapping(t_address,t_bool)": {
        "encoding": "mapping",
        "key": "t_address",
        "label": "mapping(address => bool)",
        "numberOfBytes": "32",
        "value": "t_bool"
      },
      "t_mapping(t_address,t_struct(UserInfo)1266_storage)": {
        "encoding": "mapping",
        "key": "t_address",
        "label": "mapping(address => struct LFiFarms.UserInfo)",
        "numberOfBytes": "32",
        "value": "t_struct(UserInfo)1266_storage"
      },
      "t_mapping(t_bytes32,t_struct(RoleData)19_storage)": {
        "encoding": "mapping",
        "key": "t_bytes32",
        "label": "mapping(bytes32 => struct AccessControl.RoleData)",
        "numberOfBytes": "32",
        "value": "t_struct(RoleData)19_storage"
      },
      "t_mapping(t_uint256,t_mapping(t_address,t_struct(UserInfo)1266_storage))": {
        "encoding": "mapping",
        "key": "t_uint256",
        "label": "mapping(uint256 => mapping(address => struct LFiFarms.UserInfo))",
        "numberOfBytes": "32",
        "value": "t_mapping(t_address,t_struct(UserInfo)1266_storage)"
      },
      "t_struct(FarmInfo)1273_storage": {
        "encoding": "inplace",
        "label": "struct LFiFarms.FarmInfo",
        "members": [
          {
            "astId": 1268,
            "contract": "contracts/LFiFarms.sol:LFiFarms",
            "label": "accRewardPerShare",
            "offset": 0,
            "slot": "0",
            "type": "t_uint256"
          },
          {
            "astId": 1270,
            "contract": "contracts/LFiFarms.sol:LFiFarms",
            "label": "lastRewardTime",
            "offset": 0,
            "slot": "1",
            "type": "t_uint256"
          },
          {
            "astId": 1272,
            "contract": "contracts/LFiFarms.sol:LFiFarms",
            "label": "allocPoint",
            "offset": 0,
            "slot": "2",
            "type": "t_uint256"
          }
        ],
        "numberOfBytes": "96"
      },
      "t_struct(RoleData)19_storage": {
        "encoding": "inplace",
        "label": "struct AccessControl.RoleData",
        "members": [
          {
            "astId": 16,
            "contract": "contracts/LFiFarms.sol:LFiFarms",
            "label": "members",
            "offset": 0,
            "slot": "0",
            "type": "t_mapping(t_address,t_bool)"
          },
          {
            "astId": 18,
            "contract": "contracts/LFiFarms.sol:LFiFarms",
            "label": "adminRole",
            "offset": 0,
            "slot": "1",
            "type": "t_bytes32"
          }
        ],
        "numberOfBytes": "64"
      },
      "t_struct(UserInfo)1266_storage": {
        "encoding": "inplace",
        "label": "struct LFiFarms.UserInfo",
        "members": [
          {
            "astId": 1263,
            "contract": "contracts/LFiFarms.sol:LFiFarms",
            "label": "amount",
            "offset": 0,
            "slot": "0",
            "type": "t_uint256"
          },
          {
            "astId": 1265,
            "contract": "contracts/LFiFarms.sol:LFiFarms",
            "label": "rewardDebt",
            "offset": 0,
            "slot": "1",
            "type": "t_int256"
          }
        ],
        "numberOfBytes": "64"
      },
      "t_uint256": {
        "encoding": "inplace",
        "label": "uint256",
        "numberOfBytes": "32"
      }
    }
  }
}