{
  "address": "0x18729d13D286877e8940b461fB60FDa625BCF9F0",
  "abi": [
    {
      "inputs": [
        {
          "internalType": "address",
          "name": "_admin",
          "type": "address"
        },
        {
          "internalType": "contract IERC20",
          "name": "_rewardToken",
          "type": "address"
        },
        {
          "internalType": "contract IFundDistributor",
          "name": "_fund",
          "type": "address"
        }
      ],
      "stateMutability": "nonpayable",
      "type": "constructor"
    },
    {
      "anonymous": false,
      "inputs": [
        {
          "indexed": true,
          "internalType": "uint256",
          "name": "fid",
          "type": "uint256"
        },
        {
          "indexed": false,
          "internalType": "uint256",
          "name": "allocatedPoints",
          "type": "uint256"
        },
        {
          "indexed": true,
          "internalType": "contract IERC20",
          "name": "lpToken",
          "type": "address"
        }
      ],
      "name": "FarmCreated",
      "type": "event"
    },
    {
      "anonymous": false,
      "inputs": [
        {
          "indexed": true,
          "internalType": "address",
          "name": "depositor",
          "type": "address"
        },
        {
          "indexed": true,
          "internalType": "uint256",
          "name": "fid",
          "type": "uint256"
        },
        {
          "indexed": false,
          "internalType": "uint256",
          "name": "amount",
          "type": "uint256"
        },
        {
          "indexed": true,
          "internalType": "address",
          "name": "benefitor",
          "type": "address"
        }
      ],
      "name": "FarmDeposit",
      "type": "event"
    },
    {
      "anonymous": false,
      "inputs": [
        {
          "indexed": true,
          "internalType": "address",
          "name": "requestor",
          "type": "address"
        },
        {
          "indexed": true,
          "internalType": "uint256",
          "name": "fid",
          "type": "uint256"
        },
        {
          "indexed": false,
          "internalType": "uint256",
          "name": "amount",
          "type": "uint256"
        },
        {
          "indexed": true,
          "internalType": "address",
          "name": "receiver",
          "type": "address"
        }
      ],
      "name": "FarmHarvest",
      "type": "event"
    },
    {
      "anonymous": false,
      "inputs": [
        {
          "indexed": true,
          "internalType": "uint256",
          "name": "fid",
          "type": "uint256"
        },
        {
          "indexed": false,
          "internalType": "uint256",
          "name": "lastRewardTime",
          "type": "uint256"
        },
        {
          "indexed": false,
          "internalType": "uint256",
          "name": "lpSupply",
          "type": "uint256"
        },
        {
          "indexed": false,
          "internalType": "uint256",
          "name": "accRewardPerShare",
          "type": "uint256"
        }
      ],
      "name": "FarmUpdated",
      "type": "event"
    },
    {
      "anonymous": false,
      "inputs": [
        {
          "indexed": true,
          "internalType": "address",
          "name": "requestor",
          "type": "address"
        },
        {
          "indexed": true,
          "internalType": "uint256",
          "name": "fid",
          "type": "uint256"
        },
        {
          "indexed": false,
          "internalType": "uint256",
          "name": "amount",
          "type": "uint256"
        },
        {
          "indexed": true,
          "internalType": "address",
          "name": "receiver",
          "type": "address"
        }
      ],
      "name": "FarmWithdraw",
      "type": "event"
    },
    {
      "anonymous": false,
      "inputs": [
        {
          "indexed": false,
          "internalType": "uint256",
          "name": "newRewardPerSecond",
          "type": "uint256"
        }
      ],
      "name": "RewardPerSecondUpdated",
      "type": "event"
    },
    {
      "anonymous": false,
      "inputs": [
        {
          "indexed": true,
          "internalType": "bytes32",
          "name": "role",
          "type": "bytes32"
        },
        {
          "indexed": true,
          "internalType": "bytes32",
          "name": "previousAdminRole",
          "type": "bytes32"
        },
        {
          "indexed": true,
          "internalType": "bytes32",
          "name": "newAdminRole",
          "type": "bytes32"
        }
      ],
      "name": "RoleAdminChanged",
      "type": "event"
    },
    {
      "anonymous": false,
      "inputs": [
        {
          "indexed": true,
          "internalType": "bytes32",
          "name": "role",
          "type": "bytes32"
        },
        {
          "indexed": true,
          "internalType": "address",
          "name": "account",
          "type": "address"
        },
        {
          "indexed": true,
          "internalType": "address",
          "name": "sender",
          "type": "address"
        }
      ],
      "name": "RoleGranted",
      "type": "event"
    },
    {
      "anonymous": false,
      "inputs": [
        {
          "indexed": true,
          "internalType": "bytes32",
          "name": "role",
          "type": "bytes32"
        },
        {
          "indexed": true,
          "internalType": "address",
          "name": "account",
          "type": "address"
        },
        {
          "indexed": true,
          "internalType": "address",
          "name": "sender",
          "type": "address"
        }
      ],
      "name": "RoleRevoked",
      "type": "event"
    },
    {
      "inputs": [],
      "name": "DEFAULT_ADMIN_ROLE",
      "outputs": [
        {
          "internalType": "bytes32",
          "name": "",
          "type": "bytes32"
        }
      ],
      "stateMutability": "view",
      "type": "function"
    },
    {
      "inputs": [
        {
          "internalType": "contract IERC20",
          "name": "_token",
          "type": "address"
        }
      ],
      "name": "checkFarmDoesntExist",
      "outputs": [],
      "stateMutability": "view",
      "type": "function"
    },
    {
      "inputs": [
        {
          "internalType": "uint256",
          "name": "_allocPoint",
          "type": "uint256"
        },
        {
          "internalType": "contract IERC20",
          "name": "_lpToken",
          "type": "address"
        },
        {
          "internalType": "contract IRewarder",
          "name": "_rewarder",
          "type": "address"
        }
      ],
      "name": "createFarm",
      "outputs": [],
      "stateMutability": "nonpayable",
      "type": "function"
    },
    {
      "inputs": [
        {
          "internalType": "uint256",
          "name": "fid",
          "type": "uint256"
        },
        {
          "internalType": "uint256",
          "name": "lpAmount",
          "type": "uint256"
        },
        {
          "internalType": "address",
          "name": "benefitor",
          "type": "address"
        }
      ],
      "name": "deposit",
      "outputs": [],
      "stateMutability": "nonpayable",
      "type": "function"
    },
    {
      "inputs": [
        {
          "internalType": "uint256",
          "name": "",
          "type": "uint256"
        }
      ],
      "name": "farmInfo",
      "outputs": [
        {
          "internalType": "uint256",
          "name": "accRewardPerShare",
          "type": "uint256"
        },
        {
          "internalType": "uint256",
          "name": "lastRewardTime",
          "type": "uint256"
        },
        {
          "internalType": "uint256",
          "name": "allocPoint",
          "type": "uint256"
        }
      ],
      "stateMutability": "view",
      "type": "function"
    },
    {
      "inputs": [],
      "name": "fund",
      "outputs": [
        {
          "internalType": "contract IFundDistributor",
          "name": "",
          "type": "address"
        }
      ],
      "stateMutability": "view",
      "type": "function"
    },
    {
      "inputs": [],
      "name": "getFarmCount",
      "outputs": [
        {
          "internalType": "uint256",
          "name": "farmCount",
          "type": "uint256"
        }
      ],
      "stateMutability": "view",
      "type": "function"
    },
    {
      "inputs": [
        {
          "internalType": "bytes32",
          "name": "role",
          "type": "bytes32"
        }
      ],
      "name": "getRoleAdmin",
      "outputs": [
        {
          "internalType": "bytes32",
          "name": "",
          "type": "bytes32"
        }
      ],
      "stateMutability": "view",
      "type": "function"
    },
    {
      "inputs": [
        {
          "internalType": "bytes32",
          "name": "role",
          "type": "bytes32"
        },
        {
          "internalType": "address",
          "name": "account",
          "type": "address"
        }
      ],
      "name": "grantRole",
      "outputs": [],
      "stateMutability": "nonpayable",
      "type": "function"
    },
    {
      "inputs": [
        {
          "internalType": "uint256",
          "name": "fid",
          "type": "uint256"
        },
        {
          "internalType": "address",
          "name": "receiver",
          "type": "address"
        }
      ],
      "name": "harvest",
      "outputs": [],
      "stateMutability": "nonpayable",
      "type": "function"
    },
    {
      "inputs": [
        {
          "internalType": "address",
          "name": "receiver",
          "type": "address"
        }
      ],
      "name": "harvestAll",
      "outputs": [],
      "stateMutability": "nonpayable",
      "type": "function"
    },
    {
      "inputs": [
        {
          "internalType": "bytes32",
          "name": "role",
          "type": "bytes32"
        },
        {
          "internalType": "address",
          "name": "account",
          "type": "address"
        }
      ],
      "name": "hasRole",
      "outputs": [
        {
          "internalType": "bool",
          "name": "",
          "type": "bool"
        }
      ],
      "stateMutability": "view",
      "type": "function"
    },
    {
      "inputs": [
        {
          "internalType": "uint256",
          "name": "",
          "type": "uint256"
        }
      ],
      "name": "lpToken",
      "outputs": [
        {
          "internalType": "contract IERC20",
          "name": "",
          "type": "address"
        }
      ],
      "stateMutability": "view",
      "type": "function"
    },
    {
      "inputs": [
        {
          "internalType": "uint256",
          "name": "fid",
          "type": "uint256"
        }
      ],
      "name": "refreshFarm",
      "outputs": [
        {
          "components": [
            {
              "internalType": "uint256",
              "name": "accRewardPerShare",
              "type": "uint256"
            },
            {
              "internalType": "uint256",
              "name": "lastRewardTime",
              "type": "uint256"
            },
            {
              "internalType": "uint256",
              "name": "allocPoint",
              "type": "uint256"
            }
          ],
          "internalType": "struct LFiFarms.FarmInfo",
          "name": "farm",
          "type": "tuple"
        }
      ],
      "stateMutability": "nonpayable",
      "type": "function"
    },
    {
      "inputs": [
        {
          "internalType": "bytes32",
          "name": "role",
          "type": "bytes32"
        },
        {
          "internalType": "address",
          "name": "account",
          "type": "address"
        }
      ],
      "name": "renounceRole",
      "outputs": [],
      "stateMutability": "nonpayable",
      "type": "function"
    },
    {
      "inputs": [
        {
          "internalType": "bytes32",
          "name": "role",
          "type": "bytes32"
        },
        {
          "internalType": "address",
          "name": "account",
          "type": "address"
        }
      ],
      "name": "revokeRole",
      "outputs": [],
      "stateMutability": "nonpayable",
      "type": "function"
    },
    {
      "inputs": [],
      "name": "reward",
      "outputs": [
        {
          "internalType": "contract IERC20",
          "name": "",
          "type": "address"
        }
      ],
      "stateMutability": "view",
      "type": "function"
    },
    {
      "inputs": [],
      "name": "rewardPerSecond",
      "outputs": [
        {
          "internalType": "uint256",
          "name": "",
          "type": "uint256"
        }
      ],
      "stateMutability": "view",
      "type": "function"
    },
    {
      "inputs": [
        {
          "internalType": "uint256",
          "name": "",
          "type": "uint256"
        }
      ],
      "name": "rewarder",
      "outputs": [
        {
          "internalType": "contract IRewarder",
          "name": "",
          "type": "address"
        }
      ],
      "stateMutability": "view",
      "type": "function"
    },
    {
      "inputs": [
        {
          "internalType": "uint256",
          "name": "_rewardPerSecond",
          "type": "uint256"
        }
      ],
      "name": "setRewardPerSecond",
      "outputs": [],
      "stateMutability": "nonpayable",
      "type": "function"
    },
    {
      "inputs": [
        {
          "internalType": "bytes4",
          "name": "interfaceId",
          "type": "bytes4"
        }
      ],
      "name": "supportsInterface",
      "outputs": [
        {
          "internalType": "bool",
          "name": "",
          "type": "bool"
        }
      ],
      "stateMutability": "view",
      "type": "function"
    },
    {
      "inputs": [],
      "name": "totalAllocPoint",
      "outputs": [
        {
          "internalType": "uint256",
          "name": "",
          "type": "uint256"
        }
      ],
      "stateMutability": "view",
      "type": "function"
    },
    {
      "inputs": [
        {
          "internalType": "uint256",
          "name": "",
          "type": "uint256"
        },
        {
          "internalType": "address",
          "name": "",
          "type": "address"
        }
      ],
      "name": "userInfo",
      "outputs": [
        {
          "internalType": "uint256",
          "name": "amount",
          "type": "uint256"
        },
        {
          "internalType": "int256",
          "name": "rewardDebt",
          "type": "int256"
        }
      ],
      "stateMutability": "view",
      "type": "function"
    },
    {
      "inputs": [
        {
          "internalType": "uint256",
          "name": "fid",
          "type": "uint256"
        },
        {
          "internalType": "uint256",
          "name": "lpAmount",
          "type": "uint256"
        },
        {
          "internalType": "address",
          "name": "receiver",
          "type": "address"
        }
      ],
      "name": "withdraw",
      "outputs": [],
      "stateMutability": "nonpayable",
      "type": "function"
    }
  ],
  "transactionHash": "0x83b6e555a9088c1c51750da2a79fcb05b25ed427e9dd0b41b17870ef03d6c4f2",
  "args": [
    "0xdd8eBa4604D2a9C6c77e4bC557B1884119174726",
    "0x827A7F75e94e153E875a7403B6aA0A5123dfA2d5",
    "0xBEA89272280a7037b90964012d4E67eB9727DA0C"
  ],
  "solcInputHash": "a552767b59e7156691a2e6ace7168e9f",
  "bytecode": "0x608060405260006007553480156200001657600080fd5b50604051620032593803806200325983398181016040528101906200003c919062000349565b81600160006101000a81548173ffffffffffffffffffffffffffffffffffffffff021916908373ffffffffffffffffffffffffffffffffffffffff16021790555080600260006101000a81548173ffffffffffffffffffffffffffffffffffffffff021916908373ffffffffffffffffffffffffffffffffffffffff160217905550620000d36000801b84620000dc60201b60201c565b505050620003a5565b620000ee8282620000f260201b60201c565b5050565b620001048282620001e360201b60201c565b620001df57600160008084815260200190815260200160002060000160008373ffffffffffffffffffffffffffffffffffffffff1673ffffffffffffffffffffffffffffffffffffffff16815260200190815260200160002060006101000a81548160ff021916908315150217905550620001846200024d60201b60201c565b73ffffffffffffffffffffffffffffffffffffffff168173ffffffffffffffffffffffffffffffffffffffff16837f2f8788117e7eff1d82e926ec794901d17c78024a50270940304540a733656f0d60405160405180910390a45b5050565b600080600084815260200190815260200160002060000160008373ffffffffffffffffffffffffffffffffffffffff1673ffffffffffffffffffffffffffffffffffffffff16815260200190815260200160002060009054906101000a900460ff16905092915050565b600033905090565b600080fd5b600073ffffffffffffffffffffffffffffffffffffffff82169050919050565b600062000287826200025a565b9050919050565b62000299816200027a565b8114620002a557600080fd5b50565b600081519050620002b9816200028e565b92915050565b6000620002cc826200027a565b9050919050565b620002de81620002bf565b8114620002ea57600080fd5b50565b600081519050620002fe81620002d3565b92915050565b600062000311826200027a565b9050919050565b620003238162000304565b81146200032f57600080fd5b50565b600081519050620003438162000318565b92915050565b60008060006060848603121562000365576200036462000255565b5b60006200037586828701620002a8565b93505060206200038886828701620002ed565b92505060406200039b8682870162000332565b9150509250925092565b612ea480620003b56000396000f3fe608060405234801561001057600080fd5b50600436106101585760003560e01c80637d21c967116100c3578063a217fddf1161007c578063a217fddf146103d8578063b60d4288146103f6578063c346253d14610414578063cb8bcf9214610444578063d547741f14610474578063defb36181461049057610158565b80637d21c967146102ef5780638dbdbe6d146103215780638f10369a1461033d57806391d148541461035b57806393f1a40b1461038b5780639bde8099146103bc57610158565b80632f2ff15d116101155780632f2ff15d1461023157806336568abe1461024d578063429692a71461026957806366da581514610287578063699bdca9146102a357806378ed5d1f146102bf57610158565b806301ffc9a71461015d5780630ad58d2f1461018d57806317caf6f1146101a957806318fccc76146101c7578063228cb733146101e3578063248a9ca314610201575b600080fd5b61017760048036038101906101729190611e2d565b6104ac565b6040516101849190611e75565b60405180910390f35b6101a760048036038101906101a29190611f24565b610526565b005b6101b16107a3565b6040516101be9190611f86565b60405180910390f35b6101e160048036038101906101dc9190611fa1565b6107a9565b005b6101eb610a3c565b6040516101f89190612040565b60405180910390f35b61021b60048036038101906102169190612091565b610a62565b60405161022891906120cd565b60405180910390f35b61024b600480360381019061024691906120e8565b610a81565b005b610267600480360381019061026291906120e8565b610aaa565b005b610271610b2d565b60405161027e9190611f86565b60405180910390f35b6102a1600480360381019061029c9190612128565b610b3a565b005b6102bd60048036038101906102b89190612155565b610b91565b005b6102d960048036038101906102d49190612128565b610c23565b6040516102e69190612040565b60405180910390f35b61030960048036038101906103049190612128565b610c62565b60405161031893929190612182565b60405180910390f35b61033b60048036038101906103369190611f24565b610c9c565b005b610345610f1b565b6040516103529190611f86565b60405180910390f35b610375600480360381019061037091906120e8565b610f21565b6040516103829190611e75565b60405180910390f35b6103a560048036038101906103a09190611fa1565b610f8b565b6040516103b39291906121d2565b60405180910390f35b6103d660048036038101906103d19190612239565b610fbc565b005b6103e0611090565b6040516103ed91906120cd565b60405180910390f35b6103fe611097565b60405161040b9190612287565b60405180910390f35b61042e60048036038101906104299190612128565b6110bd565b60405161043b91906122c3565b60405180910390f35b61045e60048036038101906104599190612128565b6110fc565b60405161046b919061232f565b60405180910390f35b61048e600480360381019061048991906120e8565b611334565b005b6104aa60048036038101906104a59190612388565b61135d565b005b60007f7965db0b000000000000000000000000000000000000000000000000000000007bffffffffffffffffffffffffffffffffffffffffffffffffffffffff1916827bffffffffffffffffffffffffffffffffffffffffffffffffffffffff1916148061051f575061051e82611527565b5b9050919050565b6000610531846110fc565b905060006006600086815260200190815260200160002060003373ffffffffffffffffffffffffffffffffffffffff1673ffffffffffffffffffffffffffffffffffffffff168152602001908152602001600020905064e8d4a5100082600001518561059d919061240a565b6105a79190612493565b8160010160008282546105ba91906124c4565b92505081905550838160000160008282546105d59190612558565b925050819055506000600586815481106105f2576105f161258c565b5b9060005260206000200160009054906101000a900473ffffffffffffffffffffffffffffffffffffffff169050600073ffffffffffffffffffffffffffffffffffffffff168173ffffffffffffffffffffffffffffffffffffffff16146106cc578073ffffffffffffffffffffffffffffffffffffffff166344af0fa7873387600087600001546040518663ffffffff1660e01b8152600401610699959493929190612605565b600060405180830381600087803b1580156106b357600080fd5b505af11580156106c7573d6000803e3d6000fd5b505050505b6107358486600489815481106106e5576106e461258c565b5b9060005260206000200160009054906101000a900473ffffffffffffffffffffffffffffffffffffffff1673ffffffffffffffffffffffffffffffffffffffff166115919092919063ffffffff16565b8373ffffffffffffffffffffffffffffffffffffffff16863373ffffffffffffffffffffffffffffffffffffffff167fc9da9141b9ad9eed3c5b5d7e7799519c54f06cc3ee3f1c49c16f2f297660baef886040516107939190611f86565b60405180910390a4505050505050565b60075481565b60006107b4836110fc565b905060006006600085815260200190815260200160002060003373ffffffffffffffffffffffffffffffffffffffff1673ffffffffffffffffffffffffffffffffffffffff1681526020019081526020016000209050600064e8d4a5100083600001518360000154610826919061240a565b6108309190612493565b9050600082600101548261084491906124c4565b9050818360010181905550600260009054906101000a900473ffffffffffffffffffffffffffffffffffffffff1673ffffffffffffffffffffffffffffffffffffffff16631ec8bb8c86836040518363ffffffff1660e01b81526004016108ac929190612658565b600060405180830381600087803b1580156108c657600080fd5b505af11580156108da573d6000803e3d6000fd5b505050506000600587815481106108f4576108f361258c565b5b9060005260206000200160009054906101000a900473ffffffffffffffffffffffffffffffffffffffff169050600073ffffffffffffffffffffffffffffffffffffffff168173ffffffffffffffffffffffffffffffffffffffff16146109cd578073ffffffffffffffffffffffffffffffffffffffff166344af0fa78833898689600001546040518663ffffffff1660e01b815260040161099a959493929190612681565b600060405180830381600087803b1580156109b457600080fd5b505af11580156109c8573d6000803e3d6000fd5b505050505b8573ffffffffffffffffffffffffffffffffffffffff16873373ffffffffffffffffffffffffffffffffffffffff167f8019192f65b34fad6bf2766db2d26c808d77abc63af77b2ba2e329ab18aa8a0d85604051610a2b9190611f86565b60405180910390a450505050505050565b600160009054906101000a900473ffffffffffffffffffffffffffffffffffffffff1681565b6000806000838152602001908152602001600020600101549050919050565b610a8a82610a62565b610a9b81610a96611617565b61161f565b610aa583836116bc565b505050565b610ab2611617565b73ffffffffffffffffffffffffffffffffffffffff168173ffffffffffffffffffffffffffffffffffffffff1614610b1f576040517f08c379a0000000000000000000000000000000000000000000000000000000008152600401610b1690612757565b60405180910390fd5b610b29828261179c565b5050565b6000600380549050905090565b6000801b610b4f81610b4a611617565b61161f565b816008819055507f951c6f64eb06ec6a6682072cda71420984dd55199006684bb820a80fd7e9879382604051610b859190611f86565b60405180910390a15050565b6000600380549050905060005b81811015610c1e5760006006600083815260200190815260200160002060003373ffffffffffffffffffffffffffffffffffffffff1673ffffffffffffffffffffffffffffffffffffffff168152602001908152602001600020600001541115610c0d57610c0c81846107a9565b5b80610c1790612777565b9050610b9e565b505050565b60048181548110610c3357600080fd5b906000526020600020016000915054906101000a900473ffffffffffffffffffffffffffffffffffffffff1681565b60038181548110610c7257600080fd5b90600052602060002090600302016000915090508060000154908060010154908060020154905083565b6000610ca7846110fc565b905060006006600086815260200190815260200160002060008473ffffffffffffffffffffffffffffffffffffffff1673ffffffffffffffffffffffffffffffffffffffff168152602001908152602001600020905083816000016000828254610d1191906127c0565b9250508190555064e8d4a51000826000015185610d2e919061240a565b610d389190612493565b816001016000828254610d4b9190612816565b92505081905550600060058681548110610d6857610d6761258c565b5b9060005260206000200160009054906101000a900473ffffffffffffffffffffffffffffffffffffffff169050600073ffffffffffffffffffffffffffffffffffffffff168173ffffffffffffffffffffffffffffffffffffffff1614610e42578073ffffffffffffffffffffffffffffffffffffffff166344af0fa7878687600087600001546040518663ffffffff1660e01b8152600401610e0f959493929190612605565b600060405180830381600087803b158015610e2957600080fd5b505af1158015610e3d573d6000803e3d6000fd5b505050505b610ead33308760048a81548110610e5c57610e5b61258c565b5b9060005260206000200160009054906101000a900473ffffffffffffffffffffffffffffffffffffffff1673ffffffffffffffffffffffffffffffffffffffff1661187d909392919063ffffffff16565b8373ffffffffffffffffffffffffffffffffffffffff16863373ffffffffffffffffffffffffffffffffffffffff167f8f3ed488ccb8ee9d27a4cb66377f8127c651bd8f8b68df7b23d7b5676961787f88604051610f0b9190611f86565b60405180910390a4505050505050565b60085481565b600080600084815260200190815260200160002060000160008373ffffffffffffffffffffffffffffffffffffffff1673ffffffffffffffffffffffffffffffffffffffff16815260200190815260200160002060009054906101000a900460ff16905092915050565b6006602052816000526040600020602052806000526040600020600091509150508060000154908060010154905082565b60005b60038054905081101561108c578173ffffffffffffffffffffffffffffffffffffffff1660048281548110610ff757610ff661258c565b5b9060005260206000200160009054906101000a900473ffffffffffffffffffffffffffffffffffffffff1673ffffffffffffffffffffffffffffffffffffffff161415611079576040517f08c379a0000000000000000000000000000000000000000000000000000000008152600401611070906128f6565b60405180910390fd5b808061108490612777565b915050610fbf565b5050565b6000801b81565b600260009054906101000a900473ffffffffffffffffffffffffffffffffffffffff1681565b600581815481106110cd57600080fd5b906000526020600020016000915054906101000a900473ffffffffffffffffffffffffffffffffffffffff1681565b611104611daf565b600382815481106111185761111761258c565b5b906000526020600020906003020160405180606001604052908160008201548152602001600182015481526020016002820154815250509050428160200151101561132f576000600483815481106111735761117261258c565b5b9060005260206000200160009054906101000a900473ffffffffffffffffffffffffffffffffffffffff1673ffffffffffffffffffffffffffffffffffffffff166370a08231306040518263ffffffff1660e01b81526004016111d69190612916565b602060405180830381865afa1580156111f3573d6000803e3d6000fd5b505050506040513d601f19601f820116820180604052508101906112179190612946565b9050600081111561129b5760008260200151426112349190612558565b9050600060075484604001516008548461124e919061240a565b611258919061240a565b6112629190612493565b90508264e8d4a5100082611276919061240a565b6112809190612493565b8460000181815161129191906127c0565b9150818152505050505b4282602001818152505081600384815481106112ba576112b961258c565b5b9060005260206000209060030201600082015181600001556020820151816001015560408201518160020155905050827f7afa65e874128c36660ee87dc188d5db7715c3183d701645e98701b5ef8cd913836020015183856000015160405161132593929190612182565b60405180910390a2505b919050565b61133d82610a62565b61134e81611349611617565b61161f565b611358838361179c565b505050565b6000801b6113728161136d611617565b61161f565b61137b83610fbc565b836007600082825461138d91906127c0565b92505081905550600360405180606001604052806000815260200142815260200186815250908060018154018082558091505060019003906000526020600020906003020160009091909190915060008201518160000155602082015181600101556040820151816002015550506004839080600181540180825580915050600190039060005260206000200160009091909190916101000a81548173ffffffffffffffffffffffffffffffffffffffff021916908373ffffffffffffffffffffffffffffffffffffffff1602179055506005829080600181540180825580915050600190039060005260206000200160009091909190916101000a81548173ffffffffffffffffffffffffffffffffffffffff021916908373ffffffffffffffffffffffffffffffffffffffff1602179055508273ffffffffffffffffffffffffffffffffffffffff1660016004805490506114ea9190612558565b7f61c9bf39bb035d6f43bf12aa7b22bfec1d61788e90b7249fad7625529c115181866040516115199190611f86565b60405180910390a350505050565b60007f01ffc9a7000000000000000000000000000000000000000000000000000000007bffffffffffffffffffffffffffffffffffffffffffffffffffffffff1916827bffffffffffffffffffffffffffffffffffffffffffffffffffffffff1916149050919050565b6116128363a9059cbb60e01b84846040516024016115b0929190612658565b604051602081830303815290604052907bffffffffffffffffffffffffffffffffffffffffffffffffffffffff19166020820180517bffffffffffffffffffffffffffffffffffffffffffffffffffffffff8381831617835250505050611906565b505050565b600033905090565b6116298282610f21565b6116b85761164e8173ffffffffffffffffffffffffffffffffffffffff1660146119cd565b61165c8360001c60206119cd565b60405160200161166d929190612a85565b6040516020818303038152906040526040517f08c379a00000000000000000000000000000000000000000000000000000000081526004016116af9190612b09565b60405180910390fd5b5050565b6116c68282610f21565b61179857600160008084815260200190815260200160002060000160008373ffffffffffffffffffffffffffffffffffffffff1673ffffffffffffffffffffffffffffffffffffffff16815260200190815260200160002060006101000a81548160ff02191690831515021790555061173d611617565b73ffffffffffffffffffffffffffffffffffffffff168173ffffffffffffffffffffffffffffffffffffffff16837f2f8788117e7eff1d82e926ec794901d17c78024a50270940304540a733656f0d60405160405180910390a45b5050565b6117a68282610f21565b1561187957600080600084815260200190815260200160002060000160008373ffffffffffffffffffffffffffffffffffffffff1673ffffffffffffffffffffffffffffffffffffffff16815260200190815260200160002060006101000a81548160ff02191690831515021790555061181e611617565b73ffffffffffffffffffffffffffffffffffffffff168173ffffffffffffffffffffffffffffffffffffffff16837ff6391f5c32d9c69d2a47ea670b442974b53935d1edc7fd64eb21e047a839171b60405160405180910390a45b5050565b611900846323b872dd60e01b85858560405160240161189e93929190612b2b565b604051602081830303815290604052907bffffffffffffffffffffffffffffffffffffffffffffffffffffffff19166020820180517bffffffffffffffffffffffffffffffffffffffffffffffffffffffff8381831617835250505050611906565b50505050565b6000611968826040518060400160405280602081526020017f5361666545524332303a206c6f772d6c6576656c2063616c6c206661696c65648152508573ffffffffffffffffffffffffffffffffffffffff16611c099092919063ffffffff16565b90506000815111156119c857808060200190518101906119889190612b8e565b6119c7576040517f08c379a00000000000000000000000000000000000000000000000000000000081526004016119be90612c2d565b60405180910390fd5b5b505050565b6060600060028360026119e0919061240a565b6119ea91906127c0565b67ffffffffffffffff811115611a0357611a02612c4d565b5b6040519080825280601f01601f191660200182016040528015611a355781602001600182028036833780820191505090505b5090507f300000000000000000000000000000000000000000000000000000000000000081600081518110611a6d57611a6c61258c565b5b60200101907effffffffffffffffffffffffffffffffffffffffffffffffffffffffffffff1916908160001a9053507f780000000000000000000000000000000000000000000000000000000000000081600181518110611ad157611ad061258c565b5b60200101907effffffffffffffffffffffffffffffffffffffffffffffffffffffffffffff1916908160001a90535060006001846002611b11919061240a565b611b1b91906127c0565b90505b6001811115611bbb577f3031323334353637383961626364656600000000000000000000000000000000600f861660108110611b5d57611b5c61258c565b5b1a60f81b828281518110611b7457611b7361258c565b5b60200101907effffffffffffffffffffffffffffffffffffffffffffffffffffffffffffff1916908160001a905350600485901c945080611bb490612c7c565b9050611b1e565b5060008414611bff576040517f08c379a0000000000000000000000000000000000000000000000000000000008152600401611bf690612cf2565b60405180910390fd5b8091505092915050565b6060611c188484600085611c21565b90509392505050565b606082471015611c66576040517f08c379a0000000000000000000000000000000000000000000000000000000008152600401611c5d90612d84565b60405180910390fd5b611c6f85611d35565b611cae576040517f08c379a0000000000000000000000000000000000000000000000000000000008152600401611ca590612df0565b60405180910390fd5b6000808673ffffffffffffffffffffffffffffffffffffffff168587604051611cd79190612e57565b60006040518083038185875af1925050503d8060008114611d14576040519150601f19603f3d011682016040523d82523d6000602084013e611d19565b606091505b5091509150611d29828286611d48565b92505050949350505050565b600080823b905060008111915050919050565b60608315611d5857829050611da8565b600083511115611d6b5782518084602001fd5b816040517f08c379a0000000000000000000000000000000000000000000000000000000008152600401611d9f9190612b09565b60405180910390fd5b9392505050565b60405180606001604052806000815260200160008152602001600081525090565b600080fd5b60007fffffffff0000000000000000000000000000000000000000000000000000000082169050919050565b611e0a81611dd5565b8114611e1557600080fd5b50565b600081359050611e2781611e01565b92915050565b600060208284031215611e4357611e42611dd0565b5b6000611e5184828501611e18565b91505092915050565b60008115159050919050565b611e6f81611e5a565b82525050565b6000602082019050611e8a6000830184611e66565b92915050565b6000819050919050565b611ea381611e90565b8114611eae57600080fd5b50565b600081359050611ec081611e9a565b92915050565b600073ffffffffffffffffffffffffffffffffffffffff82169050919050565b6000611ef182611ec6565b9050919050565b611f0181611ee6565b8114611f0c57600080fd5b50565b600081359050611f1e81611ef8565b92915050565b600080600060608486031215611f3d57611f3c611dd0565b5b6000611f4b86828701611eb1565b9350506020611f5c86828701611eb1565b9250506040611f6d86828701611f0f565b9150509250925092565b611f8081611e90565b82525050565b6000602082019050611f9b6000830184611f77565b92915050565b60008060408385031215611fb857611fb7611dd0565b5b6000611fc685828601611eb1565b9250506020611fd785828601611f0f565b9150509250929050565b6000819050919050565b6000612006612001611ffc84611ec6565b611fe1565b611ec6565b9050919050565b600061201882611feb565b9050919050565b600061202a8261200d565b9050919050565b61203a8161201f565b82525050565b60006020820190506120556000830184612031565b92915050565b6000819050919050565b61206e8161205b565b811461207957600080fd5b50565b60008135905061208b81612065565b92915050565b6000602082840312156120a7576120a6611dd0565b5b60006120b58482850161207c565b91505092915050565b6120c78161205b565b82525050565b60006020820190506120e260008301846120be565b92915050565b600080604083850312156120ff576120fe611dd0565b5b600061210d8582860161207c565b925050602061211e85828601611f0f565b9150509250929050565b60006020828403121561213e5761213d611dd0565b5b600061214c84828501611eb1565b91505092915050565b60006020828403121561216b5761216a611dd0565b5b600061217984828501611f0f565b91505092915050565b60006060820190506121976000830186611f77565b6121a46020830185611f77565b6121b16040830184611f77565b949350505050565b6000819050919050565b6121cc816121b9565b82525050565b60006040820190506121e76000830185611f77565b6121f460208301846121c3565b9392505050565b600061220682611ee6565b9050919050565b612216816121fb565b811461222157600080fd5b50565b6000813590506122338161220d565b92915050565b60006020828403121561224f5761224e611dd0565b5b600061225d84828501612224565b91505092915050565b60006122718261200d565b9050919050565b61228181612266565b82525050565b600060208201905061229c6000830184612278565b92915050565b60006122ad8261200d565b9050919050565b6122bd816122a2565b82525050565b60006020820190506122d860008301846122b4565b92915050565b6122e781611e90565b82525050565b60608201600082015161230360008501826122de565b50602082015161231660208501826122de565b50604082015161232960408501826122de565b50505050565b600060608201905061234460008301846122ed565b92915050565b600061235582611ee6565b9050919050565b6123658161234a565b811461237057600080fd5b50565b6000813590506123828161235c565b92915050565b6000806000606084860312156123a1576123a0611dd0565b5b60006123af86828701611eb1565b93505060206123c086828701612224565b92505060406123d186828701612373565b9150509250925092565b7f4e487b7100000000000000000000000000000000000000000000000000000000600052601160045260246000fd5b600061241582611e90565b915061242083611e90565b9250817fffffffffffffffffffffffffffffffffffffffffffffffffffffffffffffffff0483118215151615612459576124586123db565b5b828202905092915050565b7f4e487b7100000000000000000000000000000000000000000000000000000000600052601260045260246000fd5b600061249e82611e90565b91506124a983611e90565b9250826124b9576124b8612464565b5b828204905092915050565b60006124cf826121b9565b91506124da836121b9565b9250827f800000000000000000000000000000000000000000000000000000000000000001821260008412151615612515576125146123db565b5b827f7fffffffffffffffffffffffffffffffffffffffffffffffffffffffffffffff01821360008412161561254d5761254c6123db565b5b828203905092915050565b600061256382611e90565b915061256e83611e90565b925082821015612581576125806123db565b5b828203905092915050565b7f4e487b7100000000000000000000000000000000000000000000000000000000600052603260045260246000fd5b6125c481611ee6565b82525050565b6000819050919050565b60006125ef6125ea6125e5846125ca565b611fe1565b611e90565b9050919050565b6125ff816125d4565b82525050565b600060a08201905061261a6000830188611f77565b61262760208301876125bb565b61263460408301866125bb565b61264160608301856125f6565b61264e6080830184611f77565b9695505050505050565b600060408201905061266d60008301856125bb565b61267a6020830184611f77565b9392505050565b600060a0820190506126966000830188611f77565b6126a360208301876125bb565b6126b060408301866125bb565b6126bd6060830185611f77565b6126ca6080830184611f77565b9695505050505050565b600082825260208201905092915050565b7f416363657373436f6e74726f6c3a2063616e206f6e6c792072656e6f756e636560008201527f20726f6c657320666f722073656c660000000000000000000000000000000000602082015250565b6000612741602f836126d4565b915061274c826126e5565b604082019050919050565b6000602082019050818103600083015261277081612734565b9050919050565b600061278282611e90565b91507fffffffffffffffffffffffffffffffffffffffffffffffffffffffffffffffff8214156127b5576127b46123db565b5b600182019050919050565b60006127cb82611e90565b91506127d683611e90565b9250827fffffffffffffffffffffffffffffffffffffffffffffffffffffffffffffffff0382111561280b5761280a6123db565b5b828201905092915050565b6000612821826121b9565b915061282c836121b9565b9250817f7fffffffffffffffffffffffffffffffffffffffffffffffffffffffffffffff03831360008312151615612867576128666123db565b5b817f800000000000000000000000000000000000000000000000000000000000000003831260008312161561289f5761289e6123db565b5b828201905092915050565b7f4661726d2065786973747320616c726561647900000000000000000000000000600082015250565b60006128e06013836126d4565b91506128eb826128aa565b602082019050919050565b6000602082019050818103600083015261290f816128d3565b9050919050565b600060208201905061292b60008301846125bb565b92915050565b60008151905061294081611e9a565b92915050565b60006020828403121561295c5761295b611dd0565b5b600061296a84828501612931565b91505092915050565b600081905092915050565b7f416363657373436f6e74726f6c3a206163636f756e7420000000000000000000600082015250565b60006129b4601783612973565b91506129bf8261297e565b601782019050919050565b600081519050919050565b60005b838110156129f35780820151818401526020810190506129d8565b83811115612a02576000848401525b50505050565b6000612a13826129ca565b612a1d8185612973565b9350612a2d8185602086016129d5565b80840191505092915050565b7f206973206d697373696e6720726f6c6520000000000000000000000000000000600082015250565b6000612a6f601183612973565b9150612a7a82612a39565b601182019050919050565b6000612a90826129a7565b9150612a9c8285612a08565b9150612aa782612a62565b9150612ab38284612a08565b91508190509392505050565b6000601f19601f8301169050919050565b6000612adb826129ca565b612ae581856126d4565b9350612af58185602086016129d5565b612afe81612abf565b840191505092915050565b60006020820190508181036000830152612b238184612ad0565b905092915050565b6000606082019050612b4060008301866125bb565b612b4d60208301856125bb565b612b5a6040830184611f77565b949350505050565b612b6b81611e5a565b8114612b7657600080fd5b50565b600081519050612b8881612b62565b92915050565b600060208284031215612ba457612ba3611dd0565b5b6000612bb284828501612b79565b91505092915050565b7f5361666545524332303a204552433230206f7065726174696f6e20646964206e60008201527f6f74207375636365656400000000000000000000000000000000000000000000602082015250565b6000612c17602a836126d4565b9150612c2282612bbb565b604082019050919050565b60006020820190508181036000830152612c4681612c0a565b9050919050565b7f4e487b7100000000000000000000000000000000000000000000000000000000600052604160045260246000fd5b6000612c8782611e90565b91506000821415612c9b57612c9a6123db565b5b600182039050919050565b7f537472696e67733a20686578206c656e67746820696e73756666696369656e74600082015250565b6000612cdc6020836126d4565b9150612ce782612ca6565b602082019050919050565b60006020820190508181036000830152612d0b81612ccf565b9050919050565b7f416464726573733a20696e73756666696369656e742062616c616e636520666f60008201527f722063616c6c0000000000000000000000000000000000000000000000000000602082015250565b6000612d6e6026836126d4565b9150612d7982612d12565b604082019050919050565b60006020820190508181036000830152612d9d81612d61565b9050919050565b7f416464726573733a2063616c6c20746f206e6f6e2d636f6e7472616374000000600082015250565b6000612dda601d836126d4565b9150612de582612da4565b602082019050919050565b60006020820190508181036000830152612e0981612dcd565b9050919050565b600081519050919050565b600081905092915050565b6000612e3182612e10565b612e3b8185612e1b565b9350612e4b8185602086016129d5565b80840191505092915050565b6000612e638284612e26565b91508190509291505056fea2646970667358221220478e6f538a8b951fa2bb4e999efd84ae20e20e540f2044ef6b1e712f00a3a22164736f6c634300080a0033",
  "devdoc": {
    "kind": "dev",
    "methods": {
      "deposit(uint256,uint256,address)": {
        "details": "See FarmInfo struct `farmCount()` & `listFarms()` for farm details",
        "params": {
          "benefitor": "Receiver of farm rewards",
          "fid": "farm ID; see FarmInfo struct for more details",
          "lpAmount": "Amount of LP tokens to deposit; User must have LP tokens corresponding to the farm"
        }
      },
      "getRoleAdmin(bytes32)": {
        "details": "Returns the admin role that controls `role`. See {grantRole} and {revokeRole}. To change a role's admin, use {_setRoleAdmin}."
      },
      "grantRole(bytes32,address)": {
        "details": "Grants `role` to `account`. If `account` had not been already granted `role`, emits a {RoleGranted} event. Requirements: - the caller must have ``role``'s admin role."
      },
      "hasRole(bytes32,address)": {
        "details": "Returns `true` if `account` has been granted `role`."
      },
      "renounceRole(bytes32,address)": {
        "details": "Revokes `role` from the calling account. Roles are often managed via {grantRole} and {revokeRole}: this function's purpose is to provide a mechanism for accounts to lose their privileges if they are compromised (such as when a trusted device is misplaced). If the calling account had been revoked `role`, emits a {RoleRevoked} event. Requirements: - the caller must be `account`."
      },
      "revokeRole(bytes32,address)": {
        "details": "Revokes `role` from `account`. If `account` had been granted `role`, emits a {RoleRevoked} event. Requirements: - the caller must have ``role``'s admin role."
      },
      "supportsInterface(bytes4)": {
        "details": "See {IERC165-supportsInterface}."
      }
    },
    "stateVariables": {
      "totalAllocPoint": {
        "details": "Total allocation points. Must be the sum of all allocation points in all pools."
      }
    },
    "version": 1
  },
  "userdoc": {
    "kind": "user",
    "methods": {
      "deposit(uint256,uint256,address)": {
        "notice": "Deposit LP tokens to farms for LFI token rewards"
      },
      "userInfo(uint256,address)": {
        "notice": "Info of each user that stakes LP tokens."
      }
    },
    "version": 1
  },
  "storageLayout": {
    "storage": [
      {
        "astId": 24,
        "contract": "contracts/LFiFarms.sol:LFiFarms",
        "label": "_roles",
        "offset": 0,
        "slot": "0",
        "type": "t_mapping(t_bytes32,t_struct(RoleData)19_storage)"
      },
      {
        "astId": 1411,
        "contract": "contracts/LFiFarms.sol:LFiFarms",
        "label": "reward",
        "offset": 0,
        "slot": "1",
        "type": "t_contract(IERC20)564"
      },
      {
        "astId": 1414,
        "contract": "contracts/LFiFarms.sol:LFiFarms",
        "label": "fund",
        "offset": 0,
        "slot": "2",
        "type": "t_contract(IFundDistributor)1390"
      },
      {
        "astId": 1418,
        "contract": "contracts/LFiFarms.sol:LFiFarms",
        "label": "farmInfo",
        "offset": 0,
        "slot": "3",
        "type": "t_array(t_struct(FarmInfo)1403_storage)dyn_storage"
      },
      {
        "astId": 1422,
        "contract": "contracts/LFiFarms.sol:LFiFarms",
        "label": "lpToken",
        "offset": 0,
        "slot": "4",
        "type": "t_array(t_contract(IERC20)564)dyn_storage"
      },
      {
        "astId": 1426,
        "contract": "contracts/LFiFarms.sol:LFiFarms",
        "label": "rewarder",
        "offset": 0,
        "slot": "5",
        "type": "t_array(t_contract(IRewarder)1382)dyn_storage"
      },
      {
        "astId": 1434,
        "contract": "contracts/LFiFarms.sol:LFiFarms",
        "label": "userInfo",
        "offset": 0,
        "slot": "6",
        "type": "t_mapping(t_uint256,t_mapping(t_address,t_struct(UserInfo)1408_storage))"
      },
      {
        "astId": 1438,
        "contract": "contracts/LFiFarms.sol:LFiFarms",
        "label": "totalAllocPoint",
        "offset": 0,
        "slot": "7",
        "type": "t_uint256"
      },
      {
        "astId": 1440,
        "contract": "contracts/LFiFarms.sol:LFiFarms",
        "label": "rewardPerSecond",
        "offset": 0,
        "slot": "8",
        "type": "t_uint256"
      }
    ],
    "types": {
      "t_address": {
        "encoding": "inplace",
        "label": "address",
        "numberOfBytes": "20"
      },
      "t_array(t_contract(IERC20)564)dyn_storage": {
        "base": "t_contract(IERC20)564",
        "encoding": "dynamic_array",
        "label": "contract IERC20[]",
        "numberOfBytes": "32"
      },
      "t_array(t_contract(IRewarder)1382)dyn_storage": {
        "base": "t_contract(IRewarder)1382",
        "encoding": "dynamic_array",
        "label": "contract IRewarder[]",
        "numberOfBytes": "32"
      },
      "t_array(t_struct(FarmInfo)1403_storage)dyn_storage": {
        "base": "t_struct(FarmInfo)1403_storage",
        "encoding": "dynamic_array",
        "label": "struct LFiFarms.FarmInfo[]",
        "numberOfBytes": "32"
      },
      "t_bool": {
        "encoding": "inplace",
        "label": "bool",
        "numberOfBytes": "1"
      },
      "t_bytes32": {
        "encoding": "inplace",
        "label": "bytes32",
        "numberOfBytes": "32"
      },
      "t_contract(IERC20)564": {
        "encoding": "inplace",
        "label": "contract IERC20",
        "numberOfBytes": "20"
      },
      "t_contract(IFundDistributor)1390": {
        "encoding": "inplace",
        "label": "contract IFundDistributor",
        "numberOfBytes": "20"
      },
      "t_contract(IRewarder)1382": {
        "encoding": "inplace",
        "label": "contract IRewarder",
        "numberOfBytes": "20"
      },
      "t_int256": {
        "encoding": "inplace",
        "label": "int256",
        "numberOfBytes": "32"
      },
      "t_mapping(t_address,t_bool)": {
        "encoding": "mapping",
        "key": "t_address",
        "label": "mapping(address => bool)",
        "numberOfBytes": "32",
        "value": "t_bool"
      },
      "t_mapping(t_address,t_struct(UserInfo)1408_storage)": {
        "encoding": "mapping",
        "key": "t_address",
        "label": "mapping(address => struct LFiFarms.UserInfo)",
        "numberOfBytes": "32",
        "value": "t_struct(UserInfo)1408_storage"
      },
      "t_mapping(t_bytes32,t_struct(RoleData)19_storage)": {
        "encoding": "mapping",
        "key": "t_bytes32",
        "label": "mapping(bytes32 => struct AccessControl.RoleData)",
        "numberOfBytes": "32",
        "value": "t_struct(RoleData)19_storage"
      },
      "t_mapping(t_uint256,t_mapping(t_address,t_struct(UserInfo)1408_storage))": {
        "encoding": "mapping",
        "key": "t_uint256",
        "label": "mapping(uint256 => mapping(address => struct LFiFarms.UserInfo))",
        "numberOfBytes": "32",
        "value": "t_mapping(t_address,t_struct(UserInfo)1408_storage)"
      },
      "t_struct(FarmInfo)1403_storage": {
        "encoding": "inplace",
        "label": "struct LFiFarms.FarmInfo",
        "members": [
          {
            "astId": 1398,
            "contract": "contracts/LFiFarms.sol:LFiFarms",
            "label": "accRewardPerShare",
            "offset": 0,
            "slot": "0",
            "type": "t_uint256"
          },
          {
            "astId": 1400,
            "contract": "contracts/LFiFarms.sol:LFiFarms",
            "label": "lastRewardTime",
            "offset": 0,
            "slot": "1",
            "type": "t_uint256"
          },
          {
            "astId": 1402,
            "contract": "contracts/LFiFarms.sol:LFiFarms",
            "label": "allocPoint",
            "offset": 0,
            "slot": "2",
            "type": "t_uint256"
          }
        ],
        "numberOfBytes": "96"
      },
      "t_struct(RoleData)19_storage": {
        "encoding": "inplace",
        "label": "struct AccessControl.RoleData",
        "members": [
          {
            "astId": 16,
            "contract": "contracts/LFiFarms.sol:LFiFarms",
            "label": "members",
            "offset": 0,
            "slot": "0",
            "type": "t_mapping(t_address,t_bool)"
          },
          {
            "astId": 18,
            "contract": "contracts/LFiFarms.sol:LFiFarms",
            "label": "adminRole",
            "offset": 0,
            "slot": "1",
            "type": "t_bytes32"
          }
        ],
        "numberOfBytes": "64"
      },
      "t_struct(UserInfo)1408_storage": {
        "encoding": "inplace",
        "label": "struct LFiFarms.UserInfo",
        "members": [
          {
            "astId": 1405,
            "contract": "contracts/LFiFarms.sol:LFiFarms",
            "label": "amount",
            "offset": 0,
            "slot": "0",
            "type": "t_uint256"
          },
          {
            "astId": 1407,
            "contract": "contracts/LFiFarms.sol:LFiFarms",
            "label": "rewardDebt",
            "offset": 0,
            "slot": "1",
            "type": "t_int256"
          }
        ],
        "numberOfBytes": "64"
      },
      "t_uint256": {
        "encoding": "inplace",
        "label": "uint256",
        "numberOfBytes": "32"
      }
    }
  }
}