{
  "_format": "hh-sol-artifact-1",
  "contractName": "LFiFarms",
  "sourceName": "contracts/LFiFarms.sol",
  "abi": [
    {
      "anonymous": false,
      "inputs": [
        {
          "indexed": true,
          "internalType": "address",
          "name": "user",
          "type": "address"
        },
        {
          "indexed": true,
          "internalType": "uint256",
          "name": "fid",
          "type": "uint256"
        },
        {
          "indexed": false,
          "internalType": "uint256",
          "name": "amount",
          "type": "uint256"
        },
        {
          "indexed": true,
          "internalType": "address",
          "name": "receiver",
          "type": "address"
        }
      ],
      "name": "EmergencyWithdraw",
      "type": "event"
    },
    {
      "anonymous": false,
      "inputs": [
        {
          "indexed": true,
          "internalType": "uint256",
          "name": "fid",
          "type": "uint256"
        },
        {
          "indexed": false,
          "internalType": "uint256",
          "name": "allocatedPoints",
          "type": "uint256"
        },
        {
          "indexed": true,
          "internalType": "contract IERC20Upgradeable",
          "name": "lpToken",
          "type": "address"
        }
      ],
      "name": "FarmCreated",
      "type": "event"
    },
    {
      "anonymous": false,
      "inputs": [
        {
          "indexed": true,
          "internalType": "address",
          "name": "depositor",
          "type": "address"
        },
        {
          "indexed": true,
          "internalType": "uint256",
          "name": "fid",
          "type": "uint256"
        },
        {
          "indexed": false,
          "internalType": "uint256",
          "name": "amount",
          "type": "uint256"
        },
        {
          "indexed": true,
          "internalType": "address",
          "name": "benefitor",
          "type": "address"
        }
      ],
      "name": "FarmDeposit",
      "type": "event"
    },
    {
      "anonymous": false,
      "inputs": [
        {
          "indexed": true,
          "internalType": "address",
          "name": "fund",
          "type": "address"
        }
      ],
      "name": "FarmFundChanged",
      "type": "event"
    },
    {
      "anonymous": false,
      "inputs": [
        {
          "indexed": true,
          "internalType": "address",
          "name": "requestor",
          "type": "address"
        },
        {
          "indexed": true,
          "internalType": "uint256",
          "name": "fid",
          "type": "uint256"
        },
        {
          "indexed": false,
          "internalType": "uint256",
          "name": "amount",
          "type": "uint256"
        },
        {
          "indexed": true,
          "internalType": "address",
          "name": "receiver",
          "type": "address"
        }
      ],
      "name": "FarmHarvest",
      "type": "event"
    },
    {
      "anonymous": false,
      "inputs": [
        {
          "indexed": true,
          "internalType": "uint256",
          "name": "fid",
          "type": "uint256"
        },
        {
          "indexed": false,
          "internalType": "uint256",
          "name": "lastRewardTime",
          "type": "uint256"
        },
        {
          "indexed": false,
          "internalType": "uint256",
          "name": "lpSupply",
          "type": "uint256"
        },
        {
          "indexed": false,
          "internalType": "uint256",
          "name": "accRewardPerShare",
          "type": "uint256"
        }
      ],
      "name": "FarmUpdated",
      "type": "event"
    },
    {
      "anonymous": false,
      "inputs": [
        {
          "indexed": true,
          "internalType": "address",
          "name": "requestor",
          "type": "address"
        },
        {
          "indexed": true,
          "internalType": "uint256",
          "name": "fid",
          "type": "uint256"
        },
        {
          "indexed": false,
          "internalType": "uint256",
          "name": "amount",
          "type": "uint256"
        },
        {
          "indexed": true,
          "internalType": "address",
          "name": "receiver",
          "type": "address"
        }
      ],
      "name": "FarmWithdraw",
      "type": "event"
    },
    {
      "anonymous": false,
      "inputs": [
        {
          "indexed": true,
          "internalType": "uint256",
          "name": "fid",
          "type": "uint256"
        },
        {
          "indexed": false,
          "internalType": "uint256",
          "name": "allocPoint",
          "type": "uint256"
        },
        {
          "indexed": false,
          "internalType": "bool",
          "name": "overwrite",
          "type": "bool"
        }
      ],
      "name": "LogSetPool",
      "type": "event"
    },
    {
      "anonymous": false,
      "inputs": [
        {
          "indexed": false,
          "internalType": "uint256",
          "name": "newRewardPerSecond",
          "type": "uint256"
        }
      ],
      "name": "RewardPerSecondUpdated",
      "type": "event"
    },
    {
      "anonymous": false,
      "inputs": [
        {
          "indexed": true,
          "internalType": "bytes32",
          "name": "role",
          "type": "bytes32"
        },
        {
          "indexed": true,
          "internalType": "bytes32",
          "name": "previousAdminRole",
          "type": "bytes32"
        },
        {
          "indexed": true,
          "internalType": "bytes32",
          "name": "newAdminRole",
          "type": "bytes32"
        }
      ],
      "name": "RoleAdminChanged",
      "type": "event"
    },
    {
      "anonymous": false,
      "inputs": [
        {
          "indexed": true,
          "internalType": "bytes32",
          "name": "role",
          "type": "bytes32"
        },
        {
          "indexed": true,
          "internalType": "address",
          "name": "account",
          "type": "address"
        },
        {
          "indexed": true,
          "internalType": "address",
          "name": "sender",
          "type": "address"
        }
      ],
      "name": "RoleGranted",
      "type": "event"
    },
    {
      "anonymous": false,
      "inputs": [
        {
          "indexed": true,
          "internalType": "bytes32",
          "name": "role",
          "type": "bytes32"
        },
        {
          "indexed": true,
          "internalType": "address",
          "name": "account",
          "type": "address"
        },
        {
          "indexed": true,
          "internalType": "address",
          "name": "sender",
          "type": "address"
        }
      ],
      "name": "RoleRevoked",
      "type": "event"
    },
    {
      "inputs": [],
      "name": "DEFAULT_ADMIN_ROLE",
      "outputs": [
        {
          "internalType": "bytes32",
          "name": "",
          "type": "bytes32"
        }
      ],
      "stateMutability": "view",
      "type": "function"
    },
    {
      "inputs": [],
      "name": "MANAGER_ROLE",
      "outputs": [
        {
          "internalType": "bytes32",
          "name": "",
          "type": "bytes32"
        }
      ],
      "stateMutability": "view",
      "type": "function"
    },
    {
      "inputs": [
        {
          "internalType": "contract IERC20Upgradeable",
          "name": "_token",
          "type": "address"
        }
      ],
      "name": "checkFarmDoesntExist",
      "outputs": [],
      "stateMutability": "view",
      "type": "function"
    },
    {
      "inputs": [
        {
          "internalType": "uint256",
          "name": "allocPoint",
          "type": "uint256"
        },
        {
          "internalType": "contract IERC20Upgradeable",
          "name": "poolToken",
          "type": "address"
        }
      ],
      "name": "createFarm",
      "outputs": [],
      "stateMutability": "nonpayable",
      "type": "function"
    },
    {
      "inputs": [
        {
          "internalType": "uint256",
          "name": "fid",
          "type": "uint256"
        },
        {
          "internalType": "uint256",
          "name": "lpAmount",
          "type": "uint256"
        },
        {
          "internalType": "address",
          "name": "benefitor",
          "type": "address"
        }
      ],
      "name": "deposit",
      "outputs": [],
      "stateMutability": "nonpayable",
      "type": "function"
    },
    {
      "inputs": [
        {
          "internalType": "uint256",
          "name": "fid",
          "type": "uint256"
        },
        {
          "internalType": "address",
          "name": "receiver",
          "type": "address"
        }
      ],
      "name": "emergencyWithdraw",
      "outputs": [],
      "stateMutability": "nonpayable",
      "type": "function"
    },
    {
      "inputs": [],
      "name": "farmLength",
      "outputs": [
        {
          "internalType": "uint256",
          "name": "farms",
          "type": "uint256"
        }
      ],
      "stateMutability": "view",
      "type": "function"
    },
    {
      "inputs": [],
      "name": "fund",
      "outputs": [
        {
          "internalType": "contract IFundDistributor",
          "name": "",
          "type": "address"
        }
      ],
      "stateMutability": "view",
      "type": "function"
    },
    {
      "inputs": [
        {
          "internalType": "uint256",
          "name": "farmId",
          "type": "uint256"
        }
      ],
      "name": "getFarmInfo",
      "outputs": [
        {
          "components": [
            {
              "internalType": "uint256",
              "name": "accRewardPerShare",
              "type": "uint256"
            },
            {
              "internalType": "uint256",
              "name": "lastRewardTime",
              "type": "uint256"
            },
            {
              "internalType": "uint256",
              "name": "allocPoint",
              "type": "uint256"
            }
          ],
          "internalType": "struct LFiFarms.FarmInfo",
          "name": "farm",
          "type": "tuple"
        }
      ],
      "stateMutability": "view",
      "type": "function"
    },
    {
      "inputs": [
        {
          "internalType": "bytes32",
          "name": "role",
          "type": "bytes32"
        }
      ],
      "name": "getRoleAdmin",
      "outputs": [
        {
          "internalType": "bytes32",
          "name": "",
          "type": "bytes32"
        }
      ],
      "stateMutability": "view",
      "type": "function"
    },
    {
      "inputs": [
        {
          "internalType": "address",
          "name": "user",
          "type": "address"
        },
        {
          "internalType": "uint256",
          "name": "farmID",
          "type": "uint256"
        }
      ],
      "name": "getUserAmount",
      "outputs": [
        {
          "internalType": "uint256",
          "name": "",
          "type": "uint256"
        }
      ],
      "stateMutability": "view",
      "type": "function"
    },
    {
      "inputs": [
        {
          "internalType": "address",
          "name": "user",
          "type": "address"
        },
        {
          "internalType": "uint256",
          "name": "farmID",
          "type": "uint256"
        }
      ],
      "name": "getUserRewardDebt",
      "outputs": [
        {
          "internalType": "int256",
          "name": "",
          "type": "int256"
        }
      ],
      "stateMutability": "view",
      "type": "function"
    },
    {
      "inputs": [
        {
          "internalType": "bytes32",
          "name": "role",
          "type": "bytes32"
        },
        {
          "internalType": "address",
          "name": "account",
          "type": "address"
        }
      ],
      "name": "grantRole",
      "outputs": [],
      "stateMutability": "nonpayable",
      "type": "function"
    },
    {
      "inputs": [
        {
          "internalType": "uint256",
          "name": "fid",
          "type": "uint256"
        },
        {
          "internalType": "address",
          "name": "receiver",
          "type": "address"
        }
      ],
      "name": "harvest",
      "outputs": [],
      "stateMutability": "nonpayable",
      "type": "function"
    },
    {
      "inputs": [
        {
          "internalType": "address",
          "name": "receiver",
          "type": "address"
        }
      ],
      "name": "harvestAll",
      "outputs": [],
      "stateMutability": "nonpayable",
      "type": "function"
    },
    {
      "inputs": [
        {
          "internalType": "bytes32",
          "name": "role",
          "type": "bytes32"
        },
        {
          "internalType": "address",
          "name": "account",
          "type": "address"
        }
      ],
      "name": "hasRole",
      "outputs": [
        {
          "internalType": "bool",
          "name": "",
          "type": "bool"
        }
      ],
      "stateMutability": "view",
      "type": "function"
    },
    {
      "inputs": [
        {
          "internalType": "address",
          "name": "admin",
          "type": "address"
        },
        {
          "internalType": "contract IERC20Upgradeable",
          "name": "rewardToken",
          "type": "address"
        },
        {
          "internalType": "contract IFundDistributor",
          "name": "fundContract",
          "type": "address"
        }
      ],
      "name": "initialize",
      "outputs": [],
      "stateMutability": "nonpayable",
      "type": "function"
    },
    {
      "inputs": [
        {
          "internalType": "uint256",
          "name": "",
          "type": "uint256"
        }
      ],
      "name": "lpToken",
      "outputs": [
        {
          "internalType": "contract IERC20Upgradeable",
          "name": "",
          "type": "address"
        }
      ],
      "stateMutability": "view",
      "type": "function"
    },
    {
      "inputs": [
        {
          "internalType": "uint256[]",
          "name": "fids",
          "type": "uint256[]"
        }
      ],
      "name": "massUpdateFarms",
      "outputs": [],
      "stateMutability": "nonpayable",
      "type": "function"
    },
    {
      "inputs": [
        {
          "internalType": "uint256",
          "name": "_fid",
          "type": "uint256"
        },
        {
          "internalType": "address",
          "name": "_user",
          "type": "address"
        }
      ],
      "name": "pendingReward",
      "outputs": [
        {
          "internalType": "uint256",
          "name": "pendingRewards",
          "type": "uint256"
        }
      ],
      "stateMutability": "view",
      "type": "function"
    },
    {
      "inputs": [
        {
          "internalType": "bytes32",
          "name": "role",
          "type": "bytes32"
        },
        {
          "internalType": "address",
          "name": "account",
          "type": "address"
        }
      ],
      "name": "renounceRole",
      "outputs": [],
      "stateMutability": "nonpayable",
      "type": "function"
    },
    {
      "inputs": [
        {
          "internalType": "bytes32",
          "name": "role",
          "type": "bytes32"
        },
        {
          "internalType": "address",
          "name": "account",
          "type": "address"
        }
      ],
      "name": "revokeRole",
      "outputs": [],
      "stateMutability": "nonpayable",
      "type": "function"
    },
    {
      "inputs": [],
      "name": "reward",
      "outputs": [
        {
          "internalType": "contract IERC20Upgradeable",
          "name": "",
          "type": "address"
        }
      ],
      "stateMutability": "view",
      "type": "function"
    },
    {
      "inputs": [],
      "name": "rewardPerSecond",
      "outputs": [
        {
          "internalType": "uint256",
          "name": "",
          "type": "uint256"
        }
      ],
      "stateMutability": "view",
      "type": "function"
    },
    {
      "inputs": [
        {
          "internalType": "uint256",
          "name": "fid",
          "type": "uint256"
        },
        {
          "internalType": "uint256",
          "name": "allocPoint",
          "type": "uint256"
        },
        {
          "internalType": "bool",
          "name": "overwrite",
          "type": "bool"
        }
      ],
      "name": "setFarm",
      "outputs": [],
      "stateMutability": "nonpayable",
      "type": "function"
    },
    {
      "inputs": [
        {
          "internalType": "contract IFundDistributor",
          "name": "fundContract",
          "type": "address"
        }
      ],
      "name": "setFund",
      "outputs": [],
      "stateMutability": "nonpayable",
      "type": "function"
    },
    {
      "inputs": [
        {
          "internalType": "uint256",
          "name": "rewardPerEverySecond",
          "type": "uint256"
        },
        {
          "internalType": "uint256[]",
          "name": "fids",
          "type": "uint256[]"
        }
      ],
      "name": "setRewardPerSecond",
      "outputs": [],
      "stateMutability": "nonpayable",
      "type": "function"
    },
    {
      "inputs": [
        {
          "internalType": "bytes4",
          "name": "interfaceId",
          "type": "bytes4"
        }
      ],
      "name": "supportsInterface",
      "outputs": [
        {
          "internalType": "bool",
          "name": "",
          "type": "bool"
        }
      ],
      "stateMutability": "view",
      "type": "function"
    },
    {
      "inputs": [],
      "name": "totalAllocPoint",
      "outputs": [
        {
          "internalType": "uint256",
          "name": "",
          "type": "uint256"
        }
      ],
      "stateMutability": "view",
      "type": "function"
    },
    {
      "inputs": [
        {
          "internalType": "uint256",
          "name": "fid",
          "type": "uint256"
        }
      ],
      "name": "updateFarm",
      "outputs": [
        {
          "components": [
            {
              "internalType": "uint256",
              "name": "accRewardPerShare",
              "type": "uint256"
            },
            {
              "internalType": "uint256",
              "name": "lastRewardTime",
              "type": "uint256"
            },
            {
              "internalType": "uint256",
              "name": "allocPoint",
              "type": "uint256"
            }
          ],
          "internalType": "struct LFiFarms.FarmInfo",
          "name": "farm",
          "type": "tuple"
        }
      ],
      "stateMutability": "nonpayable",
      "type": "function"
    },
    {
      "inputs": [
        {
          "internalType": "uint256",
          "name": "fid",
          "type": "uint256"
        },
        {
          "internalType": "uint256",
          "name": "LPTokenAmount",
          "type": "uint256"
        },
        {
          "internalType": "address",
          "name": "receiver",
          "type": "address"
        }
      ],
      "name": "withdraw",
      "outputs": [],
      "stateMutability": "nonpayable",
      "type": "function"
    },
    {
      "inputs": [
        {
          "internalType": "uint256",
          "name": "fid",
          "type": "uint256"
        },
        {
          "internalType": "uint256",
          "name": "LPTokenamount",
          "type": "uint256"
        },
        {
          "internalType": "address",
          "name": "receiver",
          "type": "address"
        }
      ],
      "name": "withdrawAndHarvest",
      "outputs": [],
      "stateMutability": "nonpayable",
      "type": "function"
    }
  ],
  "bytecode": "0x608060405234801561001057600080fd5b50612016806100206000396000f3fe608060405234801561001057600080fd5b50600436106101f05760003560e01c80638a48a5151161010f578063a217fddf116100a2578063d1abb90711610071578063d1abb90714610470578063d547741f14610483578063ec87621c14610496578063f27d0264146104ab57600080fd5b8063a217fddf1461042f578063b60d428814610437578063c0c53b8b1461044a578063cc430ced1461045d57600080fd5b80638fa82c88116100de5780638fa82c88146103e357806391d14854146103f657806398969e82146104095780639bde80991461041c57600080fd5b80638a48a5151461038a5780638d47d579146103925780638dbdbe6d146103c75780638f10369a146103da57600080fd5b80632f940c70116101875780635fa4c0be116101565780635fa4c0be1461031c578063699bdca91461032f57806378ed5d1f14610342578063837e842d1461035557600080fd5b80632f940c70146102d057806336568abe146102e35780634ef916be146102f65780635db7dbf81461030957600080fd5b806318fccc76116101c357806318fccc761461025c578063228cb7331461026f578063248a9ca31461029a5780632f2ff15d146102bd57600080fd5b806301ffc9a7146101f55780630ad58d2f1461021d5780630e21750f1461023257806317caf6f114610245575b600080fd5b610208610203366004611ad3565b6104e3565b60405190151581526020015b60405180910390f35b61023061022b366004611b15565b61051a565b005b610230610240366004611b4e565b610610565b61024e609a5481565b604051908152602001610214565b61023061026a366004611b6b565b610674565b609754610282906001600160a01b031681565b6040516001600160a01b039091168152602001610214565b61024e6102a8366004611b9b565b60009081526065602052604090206001015490565b6102306102cb366004611b6b565b61078c565b6102306102de366004611b6b565b6107b7565b6102306102f1366004611b6b565b61083e565b610230610304366004611b6b565b6108c1565b610230610317366004611c00565b610a32565b61023061032a366004611c5a565b610a93565b61023061033d366004611b4e565b610b63565b610282610350366004611b9b565b610baa565b61024e610363366004611c88565b6000908152609d602090815260408083206001600160a01b03949094168352929052205490565b609b5461024e565b6103a56103a0366004611b9b565b610bd4565b6040805182518152602080840151908201529181015190820152606001610214565b6102306103d5366004611b15565b610c49565b61024e60995481565b6102306103f1366004611cb4565b610d40565b610208610404366004611b6b565b610d80565b61024e610417366004611b6b565b610dab565b61023061042a366004611b4e565b610f64565b61024e600081565b609854610282906001600160a01b031681565b610230610458366004611cf6565b610ff9565b6103a561046b366004611b9b565b61110d565b61023061047e366004611b15565b61131b565b610230610491366004611b6b565b6114db565b61024e600080516020611fc183398151915281565b61024e6104b9366004611c88565b6000908152609d602090815260408083206001600160a01b03949094168352929052206001015490565b60006001600160e01b03198216637965db0b60e01b148061051457506301ffc9a760e01b6001600160e01b03198316145b92915050565b60006105258461110d565b6000858152609d602090815260408083203384529091529020815191925090670de0b6b3a7640000906105589086611d4c565b6105629190611d6b565b8160010160008282546105759190611d8d565b909155505080548490829060009061058e908490611dcc565b90915550506040518481526001600160a01b03841690869033907fc9da9141b9ad9eed3c5b5d7e7799519c54f06cc3ee3f1c49c16f2f297660baef9060200160405180910390a46106098385609c88815481106105ed576105ed611de3565b6000918252602090912001546001600160a01b03169190611501565b5050505050565b600080516020611fc18339815191526106298133611564565b609880546001600160a01b0319166001600160a01b0384169081179091556040517f3f791d163ad67bd54ebfd77208ced9c9e64ac4c2a74e1c9d0b5e2d417034dfdb90600090a25050565b600061067f8361110d565b6000848152609d602090815260408083203384529091528120825181549394509092670de0b6b3a7640000916106b491611d4c565b6106be9190611d6b565b905060008260010154826106d29190611d8d565b600184018390556040518181529091506001600160a01b03861690879033907f8019192f65b34fad6bf2766db2d26c808d77abc63af77b2ba2e329ab18aa8a0d9060200160405180910390a46098546040516307b22ee360e21b81526001600160a01b0387811660048301526024820184905290911690631ec8bb8c90604401600060405180830381600087803b15801561076c57600080fd5b505af1158015610780573d6000803e3d6000fd5b50505050505050505050565b6000828152606560205260409020600101546107a88133611564565b6107b283836115c8565b505050565b6000828152609d60209081526040808320338085529083528184208054858255600182019590955591518481529193926001600160a01b038616928792917f2cac5e20e1541d836381527a43f651851e302817b71dc8e810284e69210c1c6b910160405180910390a46108388382609c87815481106105ed576105ed611de3565b50505050565b6001600160a01b03811633146108b35760405162461bcd60e51b815260206004820152602f60248201527f416363657373436f6e74726f6c3a2063616e206f6e6c792072656e6f756e636560448201526e103937b632b9903337b91039b2b63360891b60648201526084015b60405180910390fd5b6108bd828261164e565b5050565b600080516020611fc18339815191526108da8133611564565b6108e382610f64565b82609a60008282546108f59190611df9565b90915550506040805160608101825260008082524260208301908152928201868152609b80546001808201835591845293517fbba9db4cdbea0a37c207bbb83e20f828cd4441c49891101dc94fd20dc8efc34960039095029485015593517fbba9db4cdbea0a37c207bbb83e20f828cd4441c49891101dc94fd20dc8efc34a840155517fbba9db4cdbea0a37c207bbb83e20f828cd4441c49891101dc94fd20dc8efc34b90920191909155609c80548084018255918190527faf85b9071dfafeac1409d3f1d19bafc9bc7c37974cde8df0ee6168f0086e539c90910180546001600160a01b0319166001600160a01b038616908117909155905490916109fa91611dcc565b6040518581527f61c9bf39bb035d6f43bf12aa7b22bfec1d61788e90b7249fad7625529c1151819060200160405180910390a3505050565b600080516020611fc1833981519152610a4b8133611564565b610a558383610d40565b60998490556040518481527f951c6f64eb06ec6a6682072cda71420984dd55199006684bb820a80fd7e987939060200160405180910390a150505050565b600080516020611fc1833981519152610aac8133611564565b82609b8581548110610ac057610ac0611de3565b906000526020600020906003020160020154609a54610adf9190611dcc565b610ae99190611df9565b609a8190555082609b8581548110610b0357610b03611de3565b906000526020600020906003020160020181905550837f31b4adb47fe10f535ba0f237d0ef37a1281f4974f03b5f1bb1ca4172aceb70c48484604051610b559291909182521515602082015260400190565b60405180910390a250505050565b609b5460005b818110156107b2576000818152609d6020908152604080832033845290915290205415610b9a57610b9a8184610674565b610ba381611e11565b9050610b69565b609c8181548110610bba57600080fd5b6000918252602090912001546001600160a01b0316905081565b610bf860405180606001604052806000815260200160008152602001600081525090565b609b8281548110610c0b57610c0b611de3565b906000526020600020906003020160405180606001604052908160008201548152602001600182015481526020016002820154815250509050919050565b6000610c548461110d565b6000858152609d602090815260408083206001600160a01b0387168452909152812080549293509185918391610c8b908490611df9565b90915550508151670de0b6b3a764000090610ca69086611d4c565b610cb09190611d6b565b816001016000828254610cc39190611e2c565b90915550506040518481526001600160a01b03841690869033907f8f3ed488ccb8ee9d27a4cb66377f8127c651bd8f8b68df7b23d7b5676961787f9060200160405180910390a4610609333086609c8981548110610d2357610d23611de3565b6000918252602090912001546001600160a01b03169291906116b5565b8060005b8181101561083857610d6d848483818110610d6157610d61611de3565b9050602002013561110d565b5080610d7881611e11565b915050610d44565b60009182526065602090815260408084206001600160a01b0393909316845291905290205460ff1690565b600080609b8481548110610dc157610dc1611de3565b60009182526020808320604080516060810182526003909402909101805484526001810154848401526002015483820152878452609d82528084206001600160a01b038816855290915282208151609c80549395509193909290919088908110610e2d57610e2d611de3565b6000918252602090912001546040516370a0823160e01b81523060048201526001600160a01b03909116906370a0823190602401602060405180830381865afa158015610e7e573d6000803e3d6000fd5b505050506040513d601f19601f82011682018060405250810190610ea29190611e6d565b9050836020015142118015610eb657508015155b15610f29576000846020015142610ecd9190611dcc565b90506000609a54866040015160995484610ee79190611d4c565b610ef19190611d4c565b610efb9190611d6b565b905082610f10670de0b6b3a764000083611d4c565b610f1a9190611d6b565b610f249085611df9565b935050505b60018301548354670de0b6b3a764000090610f45908590611d4c565b610f4f9190611d6b565b610f599190611d8d565b979650505050505050565b60005b609b548110156108bd57816001600160a01b0316609c8281548110610f8e57610f8e611de3565b6000918252602090912001546001600160a01b03161415610fe75760405162461bcd60e51b81526020600482015260136024820152724661726d2065786973747320616c726561647960681b60448201526064016108aa565b80610ff181611e11565b915050610f67565b600054610100900460ff166110145760005460ff1615611018565b303b155b61107b5760405162461bcd60e51b815260206004820152602e60248201527f496e697469616c697a61626c653a20636f6e747261637420697320616c72656160448201526d191e481a5b9a5d1a585b1a5e995960921b60648201526084016108aa565b600054610100900460ff1615801561109d576000805461ffff19166101011790555b609780546001600160a01b038086166001600160a01b03199283161790925560988054928516929091169190911790556000609a8190556110de90856115c8565b6110f6600080516020611fc1833981519152856115c8565b8015610838576000805461ff001916905550505050565b61113160405180606001604052806000815260200160008152602001600081525090565b609b828154811061114457611144611de3565b600091825260209182902060408051606081018252600390930290910180548352600181015493830184905260020154908201529150421115611316576000609c838154811061119657611196611de3565b6000918252602090912001546040516370a0823160e01b81523060048201526001600160a01b03909116906370a0823190602401602060405180830381865afa1580156111e7573d6000803e3d6000fd5b505050506040513d601f19601f8201168201806040525081019061120b9190611e6d565b905080156112875760008260200151426112259190611dcc565b90506000609a5484604001516099548461123f9190611d4c565b6112499190611d4c565b6112539190611d6b565b905082611268670de0b6b3a764000083611d4c565b6112729190611d6b565b84518590611281908390611df9565b90525050505b426020830152609b8054839190859081106112a4576112a4611de3565b600091825260209182902083516003929092020190815582820151600182015560409283015160029091015583810151845183519182529181018490529182015283907f7afa65e874128c36660ee87dc188d5db7715c3183d701645e98701b5ef8cd9139060600160405180910390a2505b919050565b60006113268461110d565b6000858152609d602090815260408083203384529091528120825181549394509092670de0b6b3a76400009161135b91611d4c565b6113659190611d6b565b905060008260010154826113799190611d8d565b8451909150670de0b6b3a7640000906113929088611d4c565b61139c9190611d6b565b6113a69083611d8d565b60018401558254869084906000906113bf908490611dcc565b90915550506040518681526001600160a01b03861690889033907fc9da9141b9ad9eed3c5b5d7e7799519c54f06cc3ee3f1c49c16f2f297660baef9060200160405180910390a4846001600160a01b031687336001600160a01b03167f8019192f65b34fad6bf2766db2d26c808d77abc63af77b2ba2e329ab18aa8a0d8460405161144c91815260200190565b60405180910390a46098546040516307b22ee360e21b81526001600160a01b0387811660048301526024820184905290911690631ec8bb8c90604401600060405180830381600087803b1580156114a257600080fd5b505af11580156114b6573d6000803e3d6000fd5b505050506114d28587609c8a815481106105ed576105ed611de3565b50505050505050565b6000828152606560205260409020600101546114f78133611564565b6107b2838361164e565b6040516001600160a01b0383166024820152604481018290526107b290849063a9059cbb60e01b906064015b60408051601f198184030181529190526020810180516001600160e01b03166001600160e01b0319909316929092179091526116ed565b61156e8282610d80565b6108bd57611586816001600160a01b031660146117bf565b6115918360206117bf565b6040516020016115a2929190611eb2565b60408051601f198184030181529082905262461bcd60e51b82526108aa91600401611f27565b6115d28282610d80565b6108bd5760008281526065602090815260408083206001600160a01b03851684529091529020805460ff1916600117905561160a3390565b6001600160a01b0316816001600160a01b0316837f2f8788117e7eff1d82e926ec794901d17c78024a50270940304540a733656f0d60405160405180910390a45050565b6116588282610d80565b156108bd5760008281526065602090815260408083206001600160a01b0385168085529252808320805460ff1916905551339285917ff6391f5c32d9c69d2a47ea670b442974b53935d1edc7fd64eb21e047a839171b9190a45050565b6040516001600160a01b03808516602483015283166044820152606481018290526108389085906323b872dd60e01b9060840161152d565b6000611742826040518060400160405280602081526020017f5361666545524332303a206c6f772d6c6576656c2063616c6c206661696c6564815250856001600160a01b03166119629092919063ffffffff16565b8051909150156107b257808060200190518101906117609190611f5a565b6107b25760405162461bcd60e51b815260206004820152602a60248201527f5361666545524332303a204552433230206f7065726174696f6e20646964206e6044820152691bdd081cdd58d8d9595960b21b60648201526084016108aa565b606060006117ce836002611d4c565b6117d9906002611df9565b67ffffffffffffffff8111156117f1576117f1611f77565b6040519080825280601f01601f19166020018201604052801561181b576020820181803683370190505b509050600360fc1b8160008151811061183657611836611de3565b60200101906001600160f81b031916908160001a905350600f60fb1b8160018151811061186557611865611de3565b60200101906001600160f81b031916908160001a9053506000611889846002611d4c565b611894906001611df9565b90505b600181111561190c576f181899199a1a9b1b9c1cb0b131b232b360811b85600f16601081106118c8576118c8611de3565b1a60f81b8282815181106118de576118de611de3565b60200101906001600160f81b031916908160001a90535060049490941c9361190581611f8d565b9050611897565b50831561195b5760405162461bcd60e51b815260206004820181905260248201527f537472696e67733a20686578206c656e67746820696e73756666696369656e7460448201526064016108aa565b9392505050565b60606119718484600085611979565b949350505050565b6060824710156119da5760405162461bcd60e51b815260206004820152602660248201527f416464726573733a20696e73756666696369656e742062616c616e636520666f6044820152651c8818d85b1b60d21b60648201526084016108aa565b6001600160a01b0385163b611a315760405162461bcd60e51b815260206004820152601d60248201527f416464726573733a2063616c6c20746f206e6f6e2d636f6e747261637400000060448201526064016108aa565b600080866001600160a01b03168587604051611a4d9190611fa4565b60006040518083038185875af1925050503d8060008114611a8a576040519150601f19603f3d011682016040523d82523d6000602084013e611a8f565b606091505b5091509150610f5982828660608315611aa957508161195b565b825115611ab95782518084602001fd5b8160405162461bcd60e51b81526004016108aa9190611f27565b600060208284031215611ae557600080fd5b81356001600160e01b03198116811461195b57600080fd5b6001600160a01b0381168114611b1257600080fd5b50565b600080600060608486031215611b2a57600080fd5b83359250602084013591506040840135611b4381611afd565b809150509250925092565b600060208284031215611b6057600080fd5b813561195b81611afd565b60008060408385031215611b7e57600080fd5b823591506020830135611b9081611afd565b809150509250929050565b600060208284031215611bad57600080fd5b5035919050565b60008083601f840112611bc657600080fd5b50813567ffffffffffffffff811115611bde57600080fd5b6020830191508360208260051b8501011115611bf957600080fd5b9250929050565b600080600060408486031215611c1557600080fd5b83359250602084013567ffffffffffffffff811115611c3357600080fd5b611c3f86828701611bb4565b9497909650939450505050565b8015158114611b1257600080fd5b600080600060608486031215611c6f57600080fd5b83359250602084013591506040840135611b4381611c4c565b60008060408385031215611c9b57600080fd5b8235611ca681611afd565b946020939093013593505050565b60008060208385031215611cc757600080fd5b823567ffffffffffffffff811115611cde57600080fd5b611cea85828601611bb4565b90969095509350505050565b600080600060608486031215611d0b57600080fd5b8335611d1681611afd565b92506020840135611d2681611afd565b91506040840135611b4381611afd565b634e487b7160e01b600052601160045260246000fd5b6000816000190483118215151615611d6657611d66611d36565b500290565b600082611d8857634e487b7160e01b600052601260045260246000fd5b500490565b60008083128015600160ff1b850184121615611dab57611dab611d36565b6001600160ff1b0384018313811615611dc657611dc6611d36565b50500390565b600082821015611dde57611dde611d36565b500390565b634e487b7160e01b600052603260045260246000fd5b60008219821115611e0c57611e0c611d36565b500190565b6000600019821415611e2557611e25611d36565b5060010190565b600080821280156001600160ff1b0384900385131615611e4e57611e4e611d36565b600160ff1b8390038412811615611e6757611e67611d36565b50500190565b600060208284031215611e7f57600080fd5b5051919050565b60005b83811015611ea1578181015183820152602001611e89565b838111156108385750506000910152565b7f416363657373436f6e74726f6c3a206163636f756e7420000000000000000000815260008351611eea816017850160208801611e86565b7001034b99036b4b9b9b4b733903937b6329607d1b6017918401918201528351611f1b816028840160208801611e86565b01602801949350505050565b6020815260008251806020840152611f46816040850160208701611e86565b601f01601f19169190910160400192915050565b600060208284031215611f6c57600080fd5b815161195b81611c4c565b634e487b7160e01b600052604160045260246000fd5b600081611f9c57611f9c611d36565b506000190190565b60008251611fb6818460208701611e86565b919091019291505056fe241ecf16d79d0f8dbfb92cbc07fe17840425976cf0667f022fe9877caa831b08a26469706673582212202fad934eea317339ca3237fd0b33c1f16867e7d4e5967ab9db42fec3bf7abbee64736f6c634300080a0033",
  "linkReferences": {},
  "deployedLinkReferences": {}
}