{
  "_format": "hh-sol-artifact-1",
  "contractName": "LFiFarms",
  "sourceName": "contracts/LFiFarms.sol",
  "abi": [
    {
      "anonymous": false,
      "inputs": [
        {
          "indexed": true,
          "internalType": "address",
          "name": "user",
          "type": "address"
        },
        {
          "indexed": true,
          "internalType": "uint256",
          "name": "fid",
          "type": "uint256"
        },
        {
          "indexed": false,
          "internalType": "uint256",
          "name": "amount",
          "type": "uint256"
        },
        {
          "indexed": true,
          "internalType": "address",
          "name": "receiver",
          "type": "address"
        }
      ],
      "name": "EmergencyWithdraw",
      "type": "event"
    },
    {
      "anonymous": false,
      "inputs": [
        {
          "indexed": true,
          "internalType": "uint256",
          "name": "fid",
          "type": "uint256"
        },
        {
          "indexed": false,
          "internalType": "uint256",
          "name": "allocatedPoints",
          "type": "uint256"
        },
        {
          "indexed": true,
          "internalType": "contract IERC20Upgradeable",
          "name": "lpToken",
          "type": "address"
        }
      ],
      "name": "FarmCreated",
      "type": "event"
    },
    {
      "anonymous": false,
      "inputs": [
        {
          "indexed": true,
          "internalType": "address",
          "name": "depositor",
          "type": "address"
        },
        {
          "indexed": true,
          "internalType": "uint256",
          "name": "fid",
          "type": "uint256"
        },
        {
          "indexed": false,
          "internalType": "uint256",
          "name": "amount",
          "type": "uint256"
        },
        {
          "indexed": true,
          "internalType": "address",
          "name": "benefitor",
          "type": "address"
        }
      ],
      "name": "FarmDeposit",
      "type": "event"
    },
    {
      "anonymous": false,
      "inputs": [
        {
          "indexed": true,
          "internalType": "address",
          "name": "fund",
          "type": "address"
        }
      ],
      "name": "FarmFundChanged",
      "type": "event"
    },
    {
      "anonymous": false,
      "inputs": [
        {
          "indexed": true,
          "internalType": "address",
          "name": "requestor",
          "type": "address"
        },
        {
          "indexed": true,
          "internalType": "uint256",
          "name": "fid",
          "type": "uint256"
        },
        {
          "indexed": false,
          "internalType": "uint256",
          "name": "amount",
          "type": "uint256"
        },
        {
          "indexed": true,
          "internalType": "address",
          "name": "receiver",
          "type": "address"
        }
      ],
      "name": "FarmHarvest",
      "type": "event"
    },
    {
      "anonymous": false,
      "inputs": [
        {
          "indexed": true,
          "internalType": "uint256",
          "name": "fid",
          "type": "uint256"
        },
        {
          "indexed": false,
          "internalType": "uint256",
          "name": "lastRewardTime",
          "type": "uint256"
        },
        {
          "indexed": false,
          "internalType": "uint256",
          "name": "lpSupply",
          "type": "uint256"
        },
        {
          "indexed": false,
          "internalType": "uint256",
          "name": "accRewardPerShare",
          "type": "uint256"
        }
      ],
      "name": "FarmUpdated",
      "type": "event"
    },
    {
      "anonymous": false,
      "inputs": [
        {
          "indexed": true,
          "internalType": "address",
          "name": "requestor",
          "type": "address"
        },
        {
          "indexed": true,
          "internalType": "uint256",
          "name": "fid",
          "type": "uint256"
        },
        {
          "indexed": false,
          "internalType": "uint256",
          "name": "amount",
          "type": "uint256"
        },
        {
          "indexed": true,
          "internalType": "address",
          "name": "receiver",
          "type": "address"
        }
      ],
      "name": "FarmWithdraw",
      "type": "event"
    },
    {
      "anonymous": false,
      "inputs": [
        {
          "indexed": true,
          "internalType": "uint256",
          "name": "fid",
          "type": "uint256"
        },
        {
          "indexed": false,
          "internalType": "uint256",
          "name": "allocPoint",
          "type": "uint256"
        },
        {
          "indexed": false,
          "internalType": "bool",
          "name": "overwrite",
          "type": "bool"
        }
      ],
      "name": "LogSetPool",
      "type": "event"
    },
    {
      "anonymous": false,
      "inputs": [
        {
          "indexed": false,
          "internalType": "uint256",
          "name": "newRewardPerSecond",
          "type": "uint256"
        }
      ],
      "name": "RewardPerSecondUpdated",
      "type": "event"
    },
    {
      "anonymous": false,
      "inputs": [
        {
          "indexed": true,
          "internalType": "bytes32",
          "name": "role",
          "type": "bytes32"
        },
        {
          "indexed": true,
          "internalType": "bytes32",
          "name": "previousAdminRole",
          "type": "bytes32"
        },
        {
          "indexed": true,
          "internalType": "bytes32",
          "name": "newAdminRole",
          "type": "bytes32"
        }
      ],
      "name": "RoleAdminChanged",
      "type": "event"
    },
    {
      "anonymous": false,
      "inputs": [
        {
          "indexed": true,
          "internalType": "bytes32",
          "name": "role",
          "type": "bytes32"
        },
        {
          "indexed": true,
          "internalType": "address",
          "name": "account",
          "type": "address"
        },
        {
          "indexed": true,
          "internalType": "address",
          "name": "sender",
          "type": "address"
        }
      ],
      "name": "RoleGranted",
      "type": "event"
    },
    {
      "anonymous": false,
      "inputs": [
        {
          "indexed": true,
          "internalType": "bytes32",
          "name": "role",
          "type": "bytes32"
        },
        {
          "indexed": true,
          "internalType": "address",
          "name": "account",
          "type": "address"
        },
        {
          "indexed": true,
          "internalType": "address",
          "name": "sender",
          "type": "address"
        }
      ],
      "name": "RoleRevoked",
      "type": "event"
    },
    {
      "inputs": [],
      "name": "DEFAULT_ADMIN_ROLE",
      "outputs": [
        {
          "internalType": "bytes32",
          "name": "",
          "type": "bytes32"
        }
      ],
      "stateMutability": "view",
      "type": "function"
    },
    {
      "inputs": [],
      "name": "MANAGER_ROLE",
      "outputs": [
        {
          "internalType": "bytes32",
          "name": "",
          "type": "bytes32"
        }
      ],
      "stateMutability": "view",
      "type": "function"
    },
    {
      "inputs": [
        {
          "internalType": "contract IERC20Upgradeable",
          "name": "_token",
          "type": "address"
        }
      ],
      "name": "checkFarmDoesntExist",
      "outputs": [],
      "stateMutability": "view",
      "type": "function"
    },
    {
      "inputs": [
        {
          "internalType": "uint256",
          "name": "allocPoint",
          "type": "uint256"
        },
        {
          "internalType": "contract IERC20Upgradeable",
          "name": "poolToken",
          "type": "address"
        }
      ],
      "name": "createFarm",
      "outputs": [],
      "stateMutability": "nonpayable",
      "type": "function"
    },
    {
      "inputs": [
        {
          "internalType": "uint256",
          "name": "fid",
          "type": "uint256"
        },
        {
          "internalType": "uint256",
          "name": "lpAmount",
          "type": "uint256"
        },
        {
          "internalType": "address",
          "name": "benefitor",
          "type": "address"
        }
      ],
      "name": "deposit",
      "outputs": [],
      "stateMutability": "nonpayable",
      "type": "function"
    },
    {
      "inputs": [
        {
          "internalType": "uint256",
          "name": "fid",
          "type": "uint256"
        },
        {
          "internalType": "address",
          "name": "receiver",
          "type": "address"
        }
      ],
      "name": "emergencyWithdraw",
      "outputs": [],
      "stateMutability": "nonpayable",
      "type": "function"
    },
    {
      "inputs": [
        {
          "internalType": "uint256",
          "name": "",
          "type": "uint256"
        }
      ],
      "name": "farmInfo",
      "outputs": [
        {
          "internalType": "uint256",
          "name": "accRewardPerShare",
          "type": "uint256"
        },
        {
          "internalType": "uint256",
          "name": "lastRewardTime",
          "type": "uint256"
        },
        {
          "internalType": "uint256",
          "name": "allocPoint",
          "type": "uint256"
        }
      ],
      "stateMutability": "view",
      "type": "function"
    },
    {
      "inputs": [],
      "name": "farmLength",
      "outputs": [
        {
          "internalType": "uint256",
          "name": "farms",
          "type": "uint256"
        }
      ],
      "stateMutability": "view",
      "type": "function"
    },
    {
      "inputs": [],
      "name": "fund",
      "outputs": [
        {
          "internalType": "contract IFundDistributor",
          "name": "",
          "type": "address"
        }
      ],
      "stateMutability": "view",
      "type": "function"
    },
    {
      "inputs": [
        {
          "internalType": "bytes32",
          "name": "role",
          "type": "bytes32"
        }
      ],
      "name": "getRoleAdmin",
      "outputs": [
        {
          "internalType": "bytes32",
          "name": "",
          "type": "bytes32"
        }
      ],
      "stateMutability": "view",
      "type": "function"
    },
    {
      "inputs": [
        {
          "internalType": "bytes32",
          "name": "role",
          "type": "bytes32"
        },
        {
          "internalType": "address",
          "name": "account",
          "type": "address"
        }
      ],
      "name": "grantRole",
      "outputs": [],
      "stateMutability": "nonpayable",
      "type": "function"
    },
    {
      "inputs": [
        {
          "internalType": "uint256",
          "name": "fid",
          "type": "uint256"
        },
        {
          "internalType": "address",
          "name": "receiver",
          "type": "address"
        }
      ],
      "name": "harvest",
      "outputs": [],
      "stateMutability": "nonpayable",
      "type": "function"
    },
    {
      "inputs": [
        {
          "internalType": "address",
          "name": "receiver",
          "type": "address"
        }
      ],
      "name": "harvestAll",
      "outputs": [],
      "stateMutability": "nonpayable",
      "type": "function"
    },
    {
      "inputs": [
        {
          "internalType": "bytes32",
          "name": "role",
          "type": "bytes32"
        },
        {
          "internalType": "address",
          "name": "account",
          "type": "address"
        }
      ],
      "name": "hasRole",
      "outputs": [
        {
          "internalType": "bool",
          "name": "",
          "type": "bool"
        }
      ],
      "stateMutability": "view",
      "type": "function"
    },
    {
      "inputs": [
        {
          "internalType": "address",
          "name": "admin",
          "type": "address"
        },
        {
          "internalType": "contract IERC20Upgradeable",
          "name": "rewardToken",
          "type": "address"
        },
        {
          "internalType": "contract IFundDistributor",
          "name": "fundContract",
          "type": "address"
        }
      ],
      "name": "intialize",
      "outputs": [],
      "stateMutability": "nonpayable",
      "type": "function"
    },
    {
      "inputs": [
        {
          "internalType": "uint256",
          "name": "",
          "type": "uint256"
        }
      ],
      "name": "lpToken",
      "outputs": [
        {
          "internalType": "contract IERC20Upgradeable",
          "name": "",
          "type": "address"
        }
      ],
      "stateMutability": "view",
      "type": "function"
    },
    {
      "inputs": [
        {
          "internalType": "uint256[]",
          "name": "fids",
          "type": "uint256[]"
        }
      ],
      "name": "massUpdateFarms",
      "outputs": [],
      "stateMutability": "nonpayable",
      "type": "function"
    },
    {
      "inputs": [
        {
          "internalType": "uint256",
          "name": "_fid",
          "type": "uint256"
        },
        {
          "internalType": "address",
          "name": "_user",
          "type": "address"
        }
      ],
      "name": "pendingReward",
      "outputs": [
        {
          "internalType": "uint256",
          "name": "pendingRewards",
          "type": "uint256"
        }
      ],
      "stateMutability": "view",
      "type": "function"
    },
    {
      "inputs": [
        {
          "internalType": "bytes32",
          "name": "role",
          "type": "bytes32"
        },
        {
          "internalType": "address",
          "name": "account",
          "type": "address"
        }
      ],
      "name": "renounceRole",
      "outputs": [],
      "stateMutability": "nonpayable",
      "type": "function"
    },
    {
      "inputs": [
        {
          "internalType": "bytes32",
          "name": "role",
          "type": "bytes32"
        },
        {
          "internalType": "address",
          "name": "account",
          "type": "address"
        }
      ],
      "name": "revokeRole",
      "outputs": [],
      "stateMutability": "nonpayable",
      "type": "function"
    },
    {
      "inputs": [],
      "name": "reward",
      "outputs": [
        {
          "internalType": "contract IERC20Upgradeable",
          "name": "",
          "type": "address"
        }
      ],
      "stateMutability": "view",
      "type": "function"
    },
    {
      "inputs": [],
      "name": "rewardPerSecond",
      "outputs": [
        {
          "internalType": "uint256",
          "name": "",
          "type": "uint256"
        }
      ],
      "stateMutability": "view",
      "type": "function"
    },
    {
      "inputs": [
        {
          "internalType": "uint256",
          "name": "fid",
          "type": "uint256"
        },
        {
          "internalType": "uint256",
          "name": "allocPoint",
          "type": "uint256"
        },
        {
          "internalType": "bool",
          "name": "overwrite",
          "type": "bool"
        }
      ],
      "name": "setFarm",
      "outputs": [],
      "stateMutability": "nonpayable",
      "type": "function"
    },
    {
      "inputs": [
        {
          "internalType": "contract IFundDistributor",
          "name": "fundContract",
          "type": "address"
        }
      ],
      "name": "setFund",
      "outputs": [],
      "stateMutability": "nonpayable",
      "type": "function"
    },
    {
      "inputs": [
        {
          "internalType": "uint256",
          "name": "rewardPerEverySecond",
          "type": "uint256"
        },
        {
          "internalType": "uint256[]",
          "name": "fids",
          "type": "uint256[]"
        }
      ],
      "name": "setRewardPerSecond",
      "outputs": [],
      "stateMutability": "nonpayable",
      "type": "function"
    },
    {
      "inputs": [
        {
          "internalType": "bytes4",
          "name": "interfaceId",
          "type": "bytes4"
        }
      ],
      "name": "supportsInterface",
      "outputs": [
        {
          "internalType": "bool",
          "name": "",
          "type": "bool"
        }
      ],
      "stateMutability": "view",
      "type": "function"
    },
    {
      "inputs": [],
      "name": "totalAllocPoint",
      "outputs": [
        {
          "internalType": "uint256",
          "name": "",
          "type": "uint256"
        }
      ],
      "stateMutability": "view",
      "type": "function"
    },
    {
      "inputs": [
        {
          "internalType": "uint256",
          "name": "fid",
          "type": "uint256"
        }
      ],
      "name": "updateFarm",
      "outputs": [
        {
          "components": [
            {
              "internalType": "uint256",
              "name": "accRewardPerShare",
              "type": "uint256"
            },
            {
              "internalType": "uint256",
              "name": "lastRewardTime",
              "type": "uint256"
            },
            {
              "internalType": "uint256",
              "name": "allocPoint",
              "type": "uint256"
            }
          ],
          "internalType": "struct LFiFarms.FarmInfo",
          "name": "farm",
          "type": "tuple"
        }
      ],
      "stateMutability": "nonpayable",
      "type": "function"
    },
    {
      "inputs": [
        {
          "internalType": "uint256",
          "name": "",
          "type": "uint256"
        },
        {
          "internalType": "address",
          "name": "",
          "type": "address"
        }
      ],
      "name": "userInfo",
      "outputs": [
        {
          "internalType": "uint256",
          "name": "amount",
          "type": "uint256"
        },
        {
          "internalType": "int256",
          "name": "rewardDebt",
          "type": "int256"
        }
      ],
      "stateMutability": "view",
      "type": "function"
    },
    {
      "inputs": [
        {
          "internalType": "uint256",
          "name": "fid",
          "type": "uint256"
        },
        {
          "internalType": "uint256",
          "name": "LPTokenAmount",
          "type": "uint256"
        },
        {
          "internalType": "address",
          "name": "receiver",
          "type": "address"
        }
      ],
      "name": "withdraw",
      "outputs": [],
      "stateMutability": "nonpayable",
      "type": "function"
    },
    {
      "inputs": [
        {
          "internalType": "uint256",
          "name": "fid",
          "type": "uint256"
        },
        {
          "internalType": "uint256",
          "name": "LPTokenamount",
          "type": "uint256"
        },
        {
          "internalType": "address",
          "name": "receiver",
          "type": "address"
        }
      ],
      "name": "withdrawAndHarvest",
      "outputs": [],
      "stateMutability": "nonpayable",
      "type": "function"
    }
  ],
  "bytecode": "0x608060405234801561001057600080fd5b50611f92806100206000396000f3fe608060405234801561001057600080fd5b50600436106101e55760003560e01c806378ed5d1f1161010f57806398969e82116100a2578063cc430ced11610071578063cc430ced1461045d578063d1abb90714610492578063d547741f146104a5578063ec87621c146104b857600080fd5b806398969e821461041c5780639bde80991461042f578063a217fddf14610442578063b60d42881461044a57600080fd5b80638f10369a116100de5780638f10369a146103a65780638fa82c88146103af57806391d14854146103c257806393f1a40b146103d557600080fd5b806378ed5d1f1461034a5780637d21c9671461035d5780638a48a5151461038b5780638dbdbe6d1461039357600080fd5b80632f2ff15d11610187578063532fa99c11610156578063532fa99c146102fe5780635db7dbf8146103115780635fa4c0be14610324578063699bdca91461033757600080fd5b80632f2ff15d146102b25780632f940c70146102c557806336568abe146102d85780634ef916be146102eb57600080fd5b806317caf6f1116101c357806317caf6f11461023a57806318fccc7614610251578063228cb73314610264578063248a9ca31461028f57600080fd5b806301ffc9a7146101ea5780630ad58d2f146102125780630e21750f14610227575b600080fd5b6101fd6101f8366004611a7b565b6104cd565b60405190151581526020015b60405180910390f35b610225610220366004611abd565b610504565b005b610225610235366004611af6565b6105fa565b610243609a5481565b604051908152602001610209565b61022561025f366004611b13565b61065e565b609754610277906001600160a01b031681565b6040516001600160a01b039091168152602001610209565b61024361029d366004611b43565b60009081526065602052604090206001015490565b6102256102c0366004611b13565b610776565b6102256102d3366004611b13565b6107a1565b6102256102e6366004611b13565b610828565b6102256102f9366004611b13565b6108ab565b61022561030c366004611b5c565b610a1c565b61022561031f366004611be8565b610b30565b610225610332366004611c42565b610b91565b610225610345366004611af6565b610c61565b610277610358366004611b43565b610ca8565b61037061036b366004611b43565b610cd2565b60408051938452602084019290925290820152606001610209565b609b54610243565b6102256103a1366004611abd565b610d05565b61024360995481565b6102256103bd366004611c70565b610dfc565b6101fd6103d0366004611b13565b610e3c565b6104076103e3366004611b13565b609d6020908152600092835260408084209091529082529020805460019091015482565b60408051928352602083019190915201610209565b61024361042a366004611b13565b610e67565b61022561043d366004611af6565b611020565b610243600081565b609854610277906001600160a01b031681565b61047061046b366004611b43565b6110b5565b6040805182518152602080840151908201529181015190820152606001610209565b6102256104a0366004611abd565b6112c3565b6102256104b3366004611b13565b611483565b610243600080516020611f3d83398151915281565b60006001600160e01b03198216637965db0b60e01b14806104fe57506301ffc9a760e01b6001600160e01b03198316145b92915050565b600061050f846110b5565b6000858152609d602090815260408083203384529091529020815191925090670de0b6b3a7640000906105429086611cc8565b61054c9190611ce7565b81600101600082825461055f9190611d09565b9091555050805484908290600090610578908490611d48565b90915550506040518481526001600160a01b03841690869033907fc9da9141b9ad9eed3c5b5d7e7799519c54f06cc3ee3f1c49c16f2f297660baef9060200160405180910390a46105f38385609c88815481106105d7576105d7611d5f565b6000918252602090912001546001600160a01b031691906114a9565b5050505050565b600080516020611f3d833981519152610613813361150c565b609880546001600160a01b0319166001600160a01b0384169081179091556040517f3f791d163ad67bd54ebfd77208ced9c9e64ac4c2a74e1c9d0b5e2d417034dfdb90600090a25050565b6000610669836110b5565b6000848152609d602090815260408083203384529091528120825181549394509092670de0b6b3a76400009161069e91611cc8565b6106a89190611ce7565b905060008260010154826106bc9190611d09565b600184018390556040518181529091506001600160a01b03861690879033907f8019192f65b34fad6bf2766db2d26c808d77abc63af77b2ba2e329ab18aa8a0d9060200160405180910390a46098546040516307b22ee360e21b81526001600160a01b0387811660048301526024820184905290911690631ec8bb8c90604401600060405180830381600087803b15801561075657600080fd5b505af115801561076a573d6000803e3d6000fd5b50505050505050505050565b600082815260656020526040902060010154610792813361150c565b61079c8383611570565b505050565b6000828152609d60209081526040808320338085529083528184208054858255600182019590955591518481529193926001600160a01b038616928792917f2cac5e20e1541d836381527a43f651851e302817b71dc8e810284e69210c1c6b910160405180910390a46108228382609c87815481106105d7576105d7611d5f565b50505050565b6001600160a01b038116331461089d5760405162461bcd60e51b815260206004820152602f60248201527f416363657373436f6e74726f6c3a2063616e206f6e6c792072656e6f756e636560448201526e103937b632b9903337b91039b2b63360891b60648201526084015b60405180910390fd5b6108a782826115f6565b5050565b600080516020611f3d8339815191526108c4813361150c565b6108cd82611020565b82609a60008282546108df9190611d75565b90915550506040805160608101825260008082524260208301908152928201868152609b80546001808201835591845293517fbba9db4cdbea0a37c207bbb83e20f828cd4441c49891101dc94fd20dc8efc34960039095029485015593517fbba9db4cdbea0a37c207bbb83e20f828cd4441c49891101dc94fd20dc8efc34a840155517fbba9db4cdbea0a37c207bbb83e20f828cd4441c49891101dc94fd20dc8efc34b90920191909155609c80548084018255918190527faf85b9071dfafeac1409d3f1d19bafc9bc7c37974cde8df0ee6168f0086e539c90910180546001600160a01b0319166001600160a01b038616908117909155905490916109e491611d48565b6040518581527f61c9bf39bb035d6f43bf12aa7b22bfec1d61788e90b7249fad7625529c1151819060200160405180910390a3505050565b600054610100900460ff16610a375760005460ff1615610a3b565b303b155b610a9e5760405162461bcd60e51b815260206004820152602e60248201527f496e697469616c697a61626c653a20636f6e747261637420697320616c72656160448201526d191e481a5b9a5d1a585b1a5e995960921b6064820152608401610894565b600054610100900460ff16158015610ac0576000805461ffff19166101011790555b609780546001600160a01b038086166001600160a01b03199283161790925560988054928516929091169190911790556000609a819055610b019085611570565b610b19600080516020611f3d83398151915285611570565b8015610822576000805461ff001916905550505050565b600080516020611f3d833981519152610b49813361150c565b610b538383610dfc565b60998490556040518481527f951c6f64eb06ec6a6682072cda71420984dd55199006684bb820a80fd7e987939060200160405180910390a150505050565b600080516020611f3d833981519152610baa813361150c565b82609b8581548110610bbe57610bbe611d5f565b906000526020600020906003020160020154609a54610bdd9190611d48565b610be79190611d75565b609a8190555082609b8581548110610c0157610c01611d5f565b906000526020600020906003020160020181905550837f31b4adb47fe10f535ba0f237d0ef37a1281f4974f03b5f1bb1ca4172aceb70c48484604051610c539291909182521515602082015260400190565b60405180910390a250505050565b609b5460005b8181101561079c576000818152609d6020908152604080832033845290915290205415610c9857610c98818461065e565b610ca181611d8d565b9050610c67565b609c8181548110610cb857600080fd5b6000918252602090912001546001600160a01b0316905081565b609b8181548110610ce257600080fd5b600091825260209091206003909102018054600182015460029092015490925083565b6000610d10846110b5565b6000858152609d602090815260408083206001600160a01b0387168452909152812080549293509185918391610d47908490611d75565b90915550508151670de0b6b3a764000090610d629086611cc8565b610d6c9190611ce7565b816001016000828254610d7f9190611da8565b90915550506040518481526001600160a01b03841690869033907f8f3ed488ccb8ee9d27a4cb66377f8127c651bd8f8b68df7b23d7b5676961787f9060200160405180910390a46105f3333086609c8981548110610ddf57610ddf611d5f565b6000918252602090912001546001600160a01b031692919061165d565b8060005b8181101561082257610e29848483818110610e1d57610e1d611d5f565b905060200201356110b5565b5080610e3481611d8d565b915050610e00565b60009182526065602090815260408084206001600160a01b0393909316845291905290205460ff1690565b600080609b8481548110610e7d57610e7d611d5f565b60009182526020808320604080516060810182526003909402909101805484526001810154848401526002015483820152878452609d82528084206001600160a01b038816855290915282208151609c80549395509193909290919088908110610ee957610ee9611d5f565b6000918252602090912001546040516370a0823160e01b81523060048201526001600160a01b03909116906370a0823190602401602060405180830381865afa158015610f3a573d6000803e3d6000fd5b505050506040513d601f19601f82011682018060405250810190610f5e9190611de9565b9050836020015142118015610f7257508015155b15610fe5576000846020015142610f899190611d48565b90506000609a54866040015160995484610fa39190611cc8565b610fad9190611cc8565b610fb79190611ce7565b905082610fcc670de0b6b3a764000083611cc8565b610fd69190611ce7565b610fe09085611d75565b935050505b60018301548354670de0b6b3a764000090611001908590611cc8565b61100b9190611ce7565b6110159190611d09565b979650505050505050565b60005b609b548110156108a757816001600160a01b0316609c828154811061104a5761104a611d5f565b6000918252602090912001546001600160a01b031614156110a35760405162461bcd60e51b81526020600482015260136024820152724661726d2065786973747320616c726561647960681b6044820152606401610894565b806110ad81611d8d565b915050611023565b6110d960405180606001604052806000815260200160008152602001600081525090565b609b82815481106110ec576110ec611d5f565b6000918252602091829020604080516060810182526003909302909101805483526001810154938301849052600201549082015291504211156112be576000609c838154811061113e5761113e611d5f565b6000918252602090912001546040516370a0823160e01b81523060048201526001600160a01b03909116906370a0823190602401602060405180830381865afa15801561118f573d6000803e3d6000fd5b505050506040513d601f19601f820116820180604052508101906111b39190611de9565b9050801561122f5760008260200151426111cd9190611d48565b90506000609a548460400151609954846111e79190611cc8565b6111f19190611cc8565b6111fb9190611ce7565b905082611210670de0b6b3a764000083611cc8565b61121a9190611ce7565b84518590611229908390611d75565b90525050505b426020830152609b80548391908590811061124c5761124c611d5f565b600091825260209182902083516003929092020190815582820151600182015560409283015160029091015583810151845183519182529181018490529182015283907f7afa65e874128c36660ee87dc188d5db7715c3183d701645e98701b5ef8cd9139060600160405180910390a2505b919050565b60006112ce846110b5565b6000858152609d602090815260408083203384529091528120825181549394509092670de0b6b3a76400009161130391611cc8565b61130d9190611ce7565b905060008260010154826113219190611d09565b8451909150670de0b6b3a76400009061133a9088611cc8565b6113449190611ce7565b61134e9083611d09565b6001840155825486908490600090611367908490611d48565b90915550506040518681526001600160a01b03861690889033907fc9da9141b9ad9eed3c5b5d7e7799519c54f06cc3ee3f1c49c16f2f297660baef9060200160405180910390a4846001600160a01b031687336001600160a01b03167f8019192f65b34fad6bf2766db2d26c808d77abc63af77b2ba2e329ab18aa8a0d846040516113f491815260200190565b60405180910390a46098546040516307b22ee360e21b81526001600160a01b0387811660048301526024820184905290911690631ec8bb8c90604401600060405180830381600087803b15801561144a57600080fd5b505af115801561145e573d6000803e3d6000fd5b5050505061147a8587609c8a815481106105d7576105d7611d5f565b50505050505050565b60008281526065602052604090206001015461149f813361150c565b61079c83836115f6565b6040516001600160a01b03831660248201526044810182905261079c90849063a9059cbb60e01b906064015b60408051601f198184030181529190526020810180516001600160e01b03166001600160e01b031990931692909217909152611695565b6115168282610e3c565b6108a75761152e816001600160a01b03166014611767565b611539836020611767565b60405160200161154a929190611e2e565b60408051601f198184030181529082905262461bcd60e51b825261089491600401611ea3565b61157a8282610e3c565b6108a75760008281526065602090815260408083206001600160a01b03851684529091529020805460ff191660011790556115b23390565b6001600160a01b0316816001600160a01b0316837f2f8788117e7eff1d82e926ec794901d17c78024a50270940304540a733656f0d60405160405180910390a45050565b6116008282610e3c565b156108a75760008281526065602090815260408083206001600160a01b0385168085529252808320805460ff1916905551339285917ff6391f5c32d9c69d2a47ea670b442974b53935d1edc7fd64eb21e047a839171b9190a45050565b6040516001600160a01b03808516602483015283166044820152606481018290526108229085906323b872dd60e01b906084016114d5565b60006116ea826040518060400160405280602081526020017f5361666545524332303a206c6f772d6c6576656c2063616c6c206661696c6564815250856001600160a01b031661190a9092919063ffffffff16565b80519091501561079c57808060200190518101906117089190611ed6565b61079c5760405162461bcd60e51b815260206004820152602a60248201527f5361666545524332303a204552433230206f7065726174696f6e20646964206e6044820152691bdd081cdd58d8d9595960b21b6064820152608401610894565b60606000611776836002611cc8565b611781906002611d75565b67ffffffffffffffff81111561179957611799611ef3565b6040519080825280601f01601f1916602001820160405280156117c3576020820181803683370190505b509050600360fc1b816000815181106117de576117de611d5f565b60200101906001600160f81b031916908160001a905350600f60fb1b8160018151811061180d5761180d611d5f565b60200101906001600160f81b031916908160001a9053506000611831846002611cc8565b61183c906001611d75565b90505b60018111156118b4576f181899199a1a9b1b9c1cb0b131b232b360811b85600f166010811061187057611870611d5f565b1a60f81b82828151811061188657611886611d5f565b60200101906001600160f81b031916908160001a90535060049490941c936118ad81611f09565b905061183f565b5083156119035760405162461bcd60e51b815260206004820181905260248201527f537472696e67733a20686578206c656e67746820696e73756666696369656e746044820152606401610894565b9392505050565b60606119198484600085611921565b949350505050565b6060824710156119825760405162461bcd60e51b815260206004820152602660248201527f416464726573733a20696e73756666696369656e742062616c616e636520666f6044820152651c8818d85b1b60d21b6064820152608401610894565b6001600160a01b0385163b6119d95760405162461bcd60e51b815260206004820152601d60248201527f416464726573733a2063616c6c20746f206e6f6e2d636f6e74726163740000006044820152606401610894565b600080866001600160a01b031685876040516119f59190611f20565b60006040518083038185875af1925050503d8060008114611a32576040519150601f19603f3d011682016040523d82523d6000602084013e611a37565b606091505b509150915061101582828660608315611a51575081611903565b825115611a615782518084602001fd5b8160405162461bcd60e51b81526004016108949190611ea3565b600060208284031215611a8d57600080fd5b81356001600160e01b03198116811461190357600080fd5b6001600160a01b0381168114611aba57600080fd5b50565b600080600060608486031215611ad257600080fd5b83359250602084013591506040840135611aeb81611aa5565b809150509250925092565b600060208284031215611b0857600080fd5b813561190381611aa5565b60008060408385031215611b2657600080fd5b823591506020830135611b3881611aa5565b809150509250929050565b600060208284031215611b5557600080fd5b5035919050565b600080600060608486031215611b7157600080fd5b8335611b7c81611aa5565b92506020840135611b8c81611aa5565b91506040840135611aeb81611aa5565b60008083601f840112611bae57600080fd5b50813567ffffffffffffffff811115611bc657600080fd5b6020830191508360208260051b8501011115611be157600080fd5b9250929050565b600080600060408486031215611bfd57600080fd5b83359250602084013567ffffffffffffffff811115611c1b57600080fd5b611c2786828701611b9c565b9497909650939450505050565b8015158114611aba57600080fd5b600080600060608486031215611c5757600080fd5b83359250602084013591506040840135611aeb81611c34565b60008060208385031215611c8357600080fd5b823567ffffffffffffffff811115611c9a57600080fd5b611ca685828601611b9c565b90969095509350505050565b634e487b7160e01b600052601160045260246000fd5b6000816000190483118215151615611ce257611ce2611cb2565b500290565b600082611d0457634e487b7160e01b600052601260045260246000fd5b500490565b60008083128015600160ff1b850184121615611d2757611d27611cb2565b6001600160ff1b0384018313811615611d4257611d42611cb2565b50500390565b600082821015611d5a57611d5a611cb2565b500390565b634e487b7160e01b600052603260045260246000fd5b60008219821115611d8857611d88611cb2565b500190565b6000600019821415611da157611da1611cb2565b5060010190565b600080821280156001600160ff1b0384900385131615611dca57611dca611cb2565b600160ff1b8390038412811615611de357611de3611cb2565b50500190565b600060208284031215611dfb57600080fd5b5051919050565b60005b83811015611e1d578181015183820152602001611e05565b838111156108225750506000910152565b7f416363657373436f6e74726f6c3a206163636f756e7420000000000000000000815260008351611e66816017850160208801611e02565b7001034b99036b4b9b9b4b733903937b6329607d1b6017918401918201528351611e97816028840160208801611e02565b01602801949350505050565b6020815260008251806020840152611ec2816040850160208701611e02565b601f01601f19169190910160400192915050565b600060208284031215611ee857600080fd5b815161190381611c34565b634e487b7160e01b600052604160045260246000fd5b600081611f1857611f18611cb2565b506000190190565b60008251611f32818460208701611e02565b919091019291505056fe241ecf16d79d0f8dbfb92cbc07fe17840425976cf0667f022fe9877caa831b08a264697066735822122062f70ec1d08d09adb7081088b03bce3b614d9b6601445279e2e78e0363ec1d5264736f6c634300080a0033",
  "linkReferences": {},
  "deployedLinkReferences": {}
}