{
  "_format": "hh-sol-artifact-1",
  "contractName": "LFiFarms",
  "sourceName": "contracts/LFiFarms.sol",
  "abi": [
    {
      "inputs": [
        {
          "internalType": "address",
          "name": "admin",
          "type": "address"
        },
        {
          "internalType": "contract IERC20",
          "name": "rewardToken",
          "type": "address"
        },
        {
          "internalType": "contract IFundDistributor",
          "name": "fundContract",
          "type": "address"
        }
      ],
      "stateMutability": "nonpayable",
      "type": "constructor"
    },
    {
      "anonymous": false,
      "inputs": [
        {
          "indexed": true,
          "internalType": "address",
          "name": "user",
          "type": "address"
        },
        {
          "indexed": true,
          "internalType": "uint256",
          "name": "fid",
          "type": "uint256"
        },
        {
          "indexed": false,
          "internalType": "uint256",
          "name": "amount",
          "type": "uint256"
        },
        {
          "indexed": true,
          "internalType": "address",
          "name": "receiver",
          "type": "address"
        }
      ],
      "name": "EmergencyWithdraw",
      "type": "event"
    },
    {
      "anonymous": false,
      "inputs": [
        {
          "indexed": true,
          "internalType": "uint256",
          "name": "fid",
          "type": "uint256"
        },
        {
          "indexed": false,
          "internalType": "uint256",
          "name": "allocatedPoints",
          "type": "uint256"
        },
        {
          "indexed": true,
          "internalType": "contract IERC20",
          "name": "lpToken",
          "type": "address"
        }
      ],
      "name": "FarmCreated",
      "type": "event"
    },
    {
      "anonymous": false,
      "inputs": [
        {
          "indexed": true,
          "internalType": "address",
          "name": "depositor",
          "type": "address"
        },
        {
          "indexed": true,
          "internalType": "uint256",
          "name": "fid",
          "type": "uint256"
        },
        {
          "indexed": false,
          "internalType": "uint256",
          "name": "amount",
          "type": "uint256"
        },
        {
          "indexed": true,
          "internalType": "address",
          "name": "benefitor",
          "type": "address"
        }
      ],
      "name": "FarmDeposit",
      "type": "event"
    },
    {
      "anonymous": false,
      "inputs": [
        {
          "indexed": true,
          "internalType": "address",
          "name": "fund",
          "type": "address"
        }
      ],
      "name": "FarmFundChanged",
      "type": "event"
    },
    {
      "anonymous": false,
      "inputs": [
        {
          "indexed": true,
          "internalType": "address",
          "name": "requestor",
          "type": "address"
        },
        {
          "indexed": true,
          "internalType": "uint256",
          "name": "fid",
          "type": "uint256"
        },
        {
          "indexed": false,
          "internalType": "uint256",
          "name": "amount",
          "type": "uint256"
        },
        {
          "indexed": true,
          "internalType": "address",
          "name": "receiver",
          "type": "address"
        }
      ],
      "name": "FarmHarvest",
      "type": "event"
    },
    {
      "anonymous": false,
      "inputs": [
        {
          "indexed": true,
          "internalType": "uint256",
          "name": "fid",
          "type": "uint256"
        },
        {
          "indexed": false,
          "internalType": "uint256",
          "name": "lastRewardTime",
          "type": "uint256"
        },
        {
          "indexed": false,
          "internalType": "uint256",
          "name": "lpSupply",
          "type": "uint256"
        },
        {
          "indexed": false,
          "internalType": "uint256",
          "name": "accRewardPerShare",
          "type": "uint256"
        }
      ],
      "name": "FarmUpdated",
      "type": "event"
    },
    {
      "anonymous": false,
      "inputs": [
        {
          "indexed": true,
          "internalType": "address",
          "name": "requestor",
          "type": "address"
        },
        {
          "indexed": true,
          "internalType": "uint256",
          "name": "fid",
          "type": "uint256"
        },
        {
          "indexed": false,
          "internalType": "uint256",
          "name": "amount",
          "type": "uint256"
        },
        {
          "indexed": true,
          "internalType": "address",
          "name": "receiver",
          "type": "address"
        }
      ],
      "name": "FarmWithdraw",
      "type": "event"
    },
    {
      "anonymous": false,
      "inputs": [
        {
          "indexed": true,
          "internalType": "uint256",
          "name": "fid",
          "type": "uint256"
        },
        {
          "indexed": false,
          "internalType": "uint256",
          "name": "allocPoint",
          "type": "uint256"
        },
        {
          "indexed": false,
          "internalType": "bool",
          "name": "overwrite",
          "type": "bool"
        }
      ],
      "name": "LogSetPool",
      "type": "event"
    },
    {
      "anonymous": false,
      "inputs": [
        {
          "indexed": false,
          "internalType": "uint256",
          "name": "newRewardPerSecond",
          "type": "uint256"
        }
      ],
      "name": "RewardPerSecondUpdated",
      "type": "event"
    },
    {
      "anonymous": false,
      "inputs": [
        {
          "indexed": true,
          "internalType": "bytes32",
          "name": "role",
          "type": "bytes32"
        },
        {
          "indexed": true,
          "internalType": "bytes32",
          "name": "previousAdminRole",
          "type": "bytes32"
        },
        {
          "indexed": true,
          "internalType": "bytes32",
          "name": "newAdminRole",
          "type": "bytes32"
        }
      ],
      "name": "RoleAdminChanged",
      "type": "event"
    },
    {
      "anonymous": false,
      "inputs": [
        {
          "indexed": true,
          "internalType": "bytes32",
          "name": "role",
          "type": "bytes32"
        },
        {
          "indexed": true,
          "internalType": "address",
          "name": "account",
          "type": "address"
        },
        {
          "indexed": true,
          "internalType": "address",
          "name": "sender",
          "type": "address"
        }
      ],
      "name": "RoleGranted",
      "type": "event"
    },
    {
      "anonymous": false,
      "inputs": [
        {
          "indexed": true,
          "internalType": "bytes32",
          "name": "role",
          "type": "bytes32"
        },
        {
          "indexed": true,
          "internalType": "address",
          "name": "account",
          "type": "address"
        },
        {
          "indexed": true,
          "internalType": "address",
          "name": "sender",
          "type": "address"
        }
      ],
      "name": "RoleRevoked",
      "type": "event"
    },
    {
      "inputs": [],
      "name": "DEFAULT_ADMIN_ROLE",
      "outputs": [
        {
          "internalType": "bytes32",
          "name": "",
          "type": "bytes32"
        }
      ],
      "stateMutability": "view",
      "type": "function"
    },
    {
      "inputs": [],
      "name": "MANAGER_ROLE",
      "outputs": [
        {
          "internalType": "bytes32",
          "name": "",
          "type": "bytes32"
        }
      ],
      "stateMutability": "view",
      "type": "function"
    },
    {
      "inputs": [
        {
          "internalType": "contract IERC20",
          "name": "_token",
          "type": "address"
        }
      ],
      "name": "checkFarmDoesntExist",
      "outputs": [],
      "stateMutability": "view",
      "type": "function"
    },
    {
      "inputs": [
        {
          "internalType": "uint256",
          "name": "allocPoint",
          "type": "uint256"
        },
        {
          "internalType": "contract IERC20",
          "name": "poolToken",
          "type": "address"
        }
      ],
      "name": "createFarm",
      "outputs": [],
      "stateMutability": "nonpayable",
      "type": "function"
    },
    {
      "inputs": [
        {
          "internalType": "uint256",
          "name": "fid",
          "type": "uint256"
        },
        {
          "internalType": "uint256",
          "name": "lpAmount",
          "type": "uint256"
        },
        {
          "internalType": "address",
          "name": "benefitor",
          "type": "address"
        }
      ],
      "name": "deposit",
      "outputs": [],
      "stateMutability": "nonpayable",
      "type": "function"
    },
    {
      "inputs": [
        {
          "internalType": "uint256",
          "name": "fid",
          "type": "uint256"
        },
        {
          "internalType": "address",
          "name": "receiver",
          "type": "address"
        }
      ],
      "name": "emergencyWithdraw",
      "outputs": [],
      "stateMutability": "nonpayable",
      "type": "function"
    },
    {
      "inputs": [
        {
          "internalType": "uint256",
          "name": "",
          "type": "uint256"
        }
      ],
      "name": "farmInfo",
      "outputs": [
        {
          "internalType": "uint256",
          "name": "accRewardPerShare",
          "type": "uint256"
        },
        {
          "internalType": "uint256",
          "name": "lastRewardTime",
          "type": "uint256"
        },
        {
          "internalType": "uint256",
          "name": "allocPoint",
          "type": "uint256"
        }
      ],
      "stateMutability": "view",
      "type": "function"
    },
    {
      "inputs": [],
      "name": "farmLength",
      "outputs": [
        {
          "internalType": "uint256",
          "name": "farms",
          "type": "uint256"
        }
      ],
      "stateMutability": "view",
      "type": "function"
    },
    {
      "inputs": [],
      "name": "fund",
      "outputs": [
        {
          "internalType": "contract IFundDistributor",
          "name": "",
          "type": "address"
        }
      ],
      "stateMutability": "view",
      "type": "function"
    },
    {
      "inputs": [
        {
          "internalType": "bytes32",
          "name": "role",
          "type": "bytes32"
        }
      ],
      "name": "getRoleAdmin",
      "outputs": [
        {
          "internalType": "bytes32",
          "name": "",
          "type": "bytes32"
        }
      ],
      "stateMutability": "view",
      "type": "function"
    },
    {
      "inputs": [
        {
          "internalType": "bytes32",
          "name": "role",
          "type": "bytes32"
        },
        {
          "internalType": "address",
          "name": "account",
          "type": "address"
        }
      ],
      "name": "grantRole",
      "outputs": [],
      "stateMutability": "nonpayable",
      "type": "function"
    },
    {
      "inputs": [
        {
          "internalType": "uint256",
          "name": "fid",
          "type": "uint256"
        },
        {
          "internalType": "address",
          "name": "receiver",
          "type": "address"
        }
      ],
      "name": "harvest",
      "outputs": [],
      "stateMutability": "nonpayable",
      "type": "function"
    },
    {
      "inputs": [
        {
          "internalType": "address",
          "name": "receiver",
          "type": "address"
        }
      ],
      "name": "harvestAll",
      "outputs": [],
      "stateMutability": "nonpayable",
      "type": "function"
    },
    {
      "inputs": [
        {
          "internalType": "bytes32",
          "name": "role",
          "type": "bytes32"
        },
        {
          "internalType": "address",
          "name": "account",
          "type": "address"
        }
      ],
      "name": "hasRole",
      "outputs": [
        {
          "internalType": "bool",
          "name": "",
          "type": "bool"
        }
      ],
      "stateMutability": "view",
      "type": "function"
    },
    {
      "inputs": [
        {
          "internalType": "uint256",
          "name": "",
          "type": "uint256"
        }
      ],
      "name": "lpToken",
      "outputs": [
        {
          "internalType": "contract IERC20",
          "name": "",
          "type": "address"
        }
      ],
      "stateMutability": "view",
      "type": "function"
    },
    {
      "inputs": [
        {
          "internalType": "uint256[]",
          "name": "fids",
          "type": "uint256[]"
        }
      ],
      "name": "massUpdateFarms",
      "outputs": [],
      "stateMutability": "nonpayable",
      "type": "function"
    },
    {
      "inputs": [
        {
          "internalType": "uint256",
          "name": "_fid",
          "type": "uint256"
        },
        {
          "internalType": "address",
          "name": "_user",
          "type": "address"
        }
      ],
      "name": "pendingReward",
      "outputs": [
        {
          "internalType": "uint256",
          "name": "pendingRewards",
          "type": "uint256"
        }
      ],
      "stateMutability": "view",
      "type": "function"
    },
    {
      "inputs": [
        {
          "internalType": "bytes32",
          "name": "role",
          "type": "bytes32"
        },
        {
          "internalType": "address",
          "name": "account",
          "type": "address"
        }
      ],
      "name": "renounceRole",
      "outputs": [],
      "stateMutability": "nonpayable",
      "type": "function"
    },
    {
      "inputs": [
        {
          "internalType": "bytes32",
          "name": "role",
          "type": "bytes32"
        },
        {
          "internalType": "address",
          "name": "account",
          "type": "address"
        }
      ],
      "name": "revokeRole",
      "outputs": [],
      "stateMutability": "nonpayable",
      "type": "function"
    },
    {
      "inputs": [],
      "name": "reward",
      "outputs": [
        {
          "internalType": "contract IERC20",
          "name": "",
          "type": "address"
        }
      ],
      "stateMutability": "view",
      "type": "function"
    },
    {
      "inputs": [],
      "name": "rewardPerSecond",
      "outputs": [
        {
          "internalType": "uint256",
          "name": "",
          "type": "uint256"
        }
      ],
      "stateMutability": "view",
      "type": "function"
    },
    {
      "inputs": [
        {
          "internalType": "uint256",
          "name": "fid",
          "type": "uint256"
        },
        {
          "internalType": "uint256",
          "name": "allocPoint",
          "type": "uint256"
        },
        {
          "internalType": "bool",
          "name": "overwrite",
          "type": "bool"
        }
      ],
      "name": "setFarm",
      "outputs": [],
      "stateMutability": "nonpayable",
      "type": "function"
    },
    {
      "inputs": [
        {
          "internalType": "contract IFundDistributor",
          "name": "fundContract",
          "type": "address"
        }
      ],
      "name": "setFund",
      "outputs": [],
      "stateMutability": "nonpayable",
      "type": "function"
    },
    {
      "inputs": [
        {
          "internalType": "uint256",
          "name": "rewardPerEverySecond",
          "type": "uint256"
        },
        {
          "internalType": "uint256[]",
          "name": "fids",
          "type": "uint256[]"
        }
      ],
      "name": "setRewardPerSecond",
      "outputs": [],
      "stateMutability": "nonpayable",
      "type": "function"
    },
    {
      "inputs": [
        {
          "internalType": "bytes4",
          "name": "interfaceId",
          "type": "bytes4"
        }
      ],
      "name": "supportsInterface",
      "outputs": [
        {
          "internalType": "bool",
          "name": "",
          "type": "bool"
        }
      ],
      "stateMutability": "view",
      "type": "function"
    },
    {
      "inputs": [],
      "name": "totalAllocPoint",
      "outputs": [
        {
          "internalType": "uint256",
          "name": "",
          "type": "uint256"
        }
      ],
      "stateMutability": "view",
      "type": "function"
    },
    {
      "inputs": [
        {
          "internalType": "uint256",
          "name": "fid",
          "type": "uint256"
        }
      ],
      "name": "updateFarm",
      "outputs": [
        {
          "components": [
            {
              "internalType": "uint256",
              "name": "accRewardPerShare",
              "type": "uint256"
            },
            {
              "internalType": "uint256",
              "name": "lastRewardTime",
              "type": "uint256"
            },
            {
              "internalType": "uint256",
              "name": "allocPoint",
              "type": "uint256"
            }
          ],
          "internalType": "struct LFiFarms.FarmInfo",
          "name": "farm",
          "type": "tuple"
        }
      ],
      "stateMutability": "nonpayable",
      "type": "function"
    },
    {
      "inputs": [
        {
          "internalType": "uint256",
          "name": "",
          "type": "uint256"
        },
        {
          "internalType": "address",
          "name": "",
          "type": "address"
        }
      ],
      "name": "userInfo",
      "outputs": [
        {
          "internalType": "uint256",
          "name": "amount",
          "type": "uint256"
        },
        {
          "internalType": "int256",
          "name": "rewardDebt",
          "type": "int256"
        }
      ],
      "stateMutability": "view",
      "type": "function"
    },
    {
      "inputs": [
        {
          "internalType": "uint256",
          "name": "fid",
          "type": "uint256"
        },
        {
          "internalType": "uint256",
          "name": "LPTokenAmount",
          "type": "uint256"
        },
        {
          "internalType": "address",
          "name": "receiver",
          "type": "address"
        }
      ],
      "name": "withdraw",
      "outputs": [],
      "stateMutability": "nonpayable",
      "type": "function"
    },
    {
      "inputs": [
        {
          "internalType": "uint256",
          "name": "fid",
          "type": "uint256"
        },
        {
          "internalType": "uint256",
          "name": "LPTokenamount",
          "type": "uint256"
        },
        {
          "internalType": "address",
          "name": "receiver",
          "type": "address"
        }
      ],
      "name": "withdrawAndHarvest",
      "outputs": [],
      "stateMutability": "nonpayable",
      "type": "function"
    }
  ],
  "bytecode": "0x608060405260006004553480156200001657600080fd5b5060405162001fda38038062001fda833981016040819052620000399162000165565b600180546001600160a01b038085166001600160a01b031992831617909255600280549284169290911691909117905562000076600084620000ab565b620000a27f241ecf16d79d0f8dbfb92cbc07fe17840425976cf0667f022fe9877caa831b0884620000ab565b505050620001b9565b6000828152602081815260408083206001600160a01b038516845290915290205460ff1662000148576000828152602081815260408083206001600160a01b03851684529091529020805460ff19166001179055620001073390565b6001600160a01b0316816001600160a01b0316837f2f8788117e7eff1d82e926ec794901d17c78024a50270940304540a733656f0d60405160405180910390a45b5050565b6001600160a01b03811681146200016257600080fd5b50565b6000806000606084860312156200017b57600080fd5b835162000188816200014c565b60208501519093506200019b816200014c565b6040850151909250620001ae816200014c565b809150509250925092565b611e1180620001c96000396000f3fe608060405234801561001057600080fd5b50600436106101da5760003560e01c80637d21c9671161010457806398969e82116100a2578063cc430ced11610071578063cc430ced1461043f578063d1abb90714610474578063d547741f14610487578063ec87621c1461049a57600080fd5b806398969e82146103fe5780639bde809914610411578063a217fddf14610424578063b60d42881461042c57600080fd5b80638f10369a116100de5780638f10369a146103885780638fa82c881461039157806391d14854146103a457806393f1a40b146103b757600080fd5b80637d21c9671461033f5780638a48a5151461036d5780638dbdbe6d1461037557600080fd5b80632f2ff15d1161017c5780635db7dbf81161014b5780635db7dbf8146102f35780635fa4c0be14610306578063699bdca91461031957806378ed5d1f1461032c57600080fd5b80632f2ff15d146102a75780632f940c70146102ba57806336568abe146102cd5780634ef916be146102e057600080fd5b806317caf6f1116101b857806317caf6f11461022f57806318fccc7614610246578063228cb73314610259578063248a9ca31461028457600080fd5b806301ffc9a7146101df5780630ad58d2f146102075780630e21750f1461021c575b600080fd5b6101f26101ed36600461193a565b6104af565b60405190151581526020015b60405180910390f35b61021a61021536600461197c565b6104e6565b005b61021a61022a3660046119b5565b6105dc565b61023860045481565b6040519081526020016101fe565b61021a6102543660046119d2565b610640565b60015461026c906001600160a01b031681565b6040516001600160a01b0390911681526020016101fe565b610238610292366004611a02565b60009081526020819052604090206001015490565b61021a6102b53660046119d2565b610758565b61021a6102c83660046119d2565b610783565b61021a6102db3660046119d2565b61080a565b61021a6102ee3660046119d2565b61088d565b61021a610301366004611a67565b6109fe565b61021a610314366004611ac1565b610a5f565b61021a6103273660046119b5565b610b2f565b61026c61033a366004611a02565b610b76565b61035261034d366004611a02565b610ba0565b604080519384526020840192909252908201526060016101fe565b600554610238565b61021a61038336600461197c565b610bd3565b61023860035481565b61021a61039f366004611aef565b610cca565b6101f26103b23660046119d2565b610d0a565b6103e96103c53660046119d2565b60076020908152600092835260408084209091529082529020805460019091015482565b604080519283526020830191909152016101fe565b61023861040c3660046119d2565b610d33565b61021a61041f3660046119b5565b610eec565b610238600081565b60025461026c906001600160a01b031681565b61045261044d366004611a02565b610f81565b60408051825181526020808401519082015291810151908201526060016101fe565b61021a61048236600461197c565b61118f565b61021a6104953660046119d2565b61134f565b610238600080516020611dbc83398151915281565b60006001600160e01b03198216637965db0b60e01b14806104e057506301ffc9a760e01b6001600160e01b03198316145b92915050565b60006104f184610f81565b60008581526007602090815260408083203384529091529020815191925090670de0b6b3a7640000906105249086611b47565b61052e9190611b66565b8160010160008282546105419190611b88565b909155505080548490829060009061055a908490611bc7565b90915550506040518481526001600160a01b03841690869033907fc9da9141b9ad9eed3c5b5d7e7799519c54f06cc3ee3f1c49c16f2f297660baef9060200160405180910390a46105d58385600688815481106105b9576105b9611bde565b6000918252602090912001546001600160a01b03169190611375565b5050505050565b600080516020611dbc8339815191526105f581336113d8565b600280546001600160a01b0319166001600160a01b0384169081179091556040517f3f791d163ad67bd54ebfd77208ced9c9e64ac4c2a74e1c9d0b5e2d417034dfdb90600090a25050565b600061064b83610f81565b60008481526007602090815260408083203384529091528120825181549394509092670de0b6b3a76400009161068091611b47565b61068a9190611b66565b9050600082600101548261069e9190611b88565b600184018390556040518181529091506001600160a01b03861690879033907f8019192f65b34fad6bf2766db2d26c808d77abc63af77b2ba2e329ab18aa8a0d9060200160405180910390a46002546040516307b22ee360e21b81526001600160a01b0387811660048301526024820184905290911690631ec8bb8c90604401600060405180830381600087803b15801561073857600080fd5b505af115801561074c573d6000803e3d6000fd5b50505050505050505050565b60008281526020819052604090206001015461077481336113d8565b61077e838361143c565b505050565b6000828152600760209081526040808320338085529083528184208054858255600182019590955591518481529193926001600160a01b038616928792917f2cac5e20e1541d836381527a43f651851e302817b71dc8e810284e69210c1c6b910160405180910390a46108048382600687815481106105b9576105b9611bde565b50505050565b6001600160a01b038116331461087f5760405162461bcd60e51b815260206004820152602f60248201527f416363657373436f6e74726f6c3a2063616e206f6e6c792072656e6f756e636560448201526e103937b632b9903337b91039b2b63360891b60648201526084015b60405180910390fd5b61088982826114c0565b5050565b600080516020611dbc8339815191526108a681336113d8565b6108af82610eec565b82600460008282546108c19190611bf4565b90915550506040805160608101825260008082524260208301908152928201868152600580546001808201835591845293517f036b6384b5eca791c62761152d0c79bb0604c104a5fb6f4eb0703f3154bb3db060039095029485015593517f036b6384b5eca791c62761152d0c79bb0604c104a5fb6f4eb0703f3154bb3db1840155517f036b6384b5eca791c62761152d0c79bb0604c104a5fb6f4eb0703f3154bb3db290920191909155600680548084018255918190527ff652222313e28459528d920b65115c16c04f3efc82aaedc97be59f3f377c0d3f90910180546001600160a01b0319166001600160a01b038616908117909155905490916109c691611bc7565b6040518581527f61c9bf39bb035d6f43bf12aa7b22bfec1d61788e90b7249fad7625529c1151819060200160405180910390a3505050565b600080516020611dbc833981519152610a1781336113d8565b610a218383610cca565b60038490556040518481527f951c6f64eb06ec6a6682072cda71420984dd55199006684bb820a80fd7e987939060200160405180910390a150505050565b600080516020611dbc833981519152610a7881336113d8565b8260058581548110610a8c57610a8c611bde565b906000526020600020906003020160020154600454610aab9190611bc7565b610ab59190611bf4565b6004819055508260058581548110610acf57610acf611bde565b906000526020600020906003020160020181905550837f31b4adb47fe10f535ba0f237d0ef37a1281f4974f03b5f1bb1ca4172aceb70c48484604051610b219291909182521515602082015260400190565b60405180910390a250505050565b60055460005b8181101561077e57600081815260076020908152604080832033845290915290205415610b6657610b668184610640565b610b6f81611c0c565b9050610b35565b60068181548110610b8657600080fd5b6000918252602090912001546001600160a01b0316905081565b60058181548110610bb057600080fd5b600091825260209091206003909102018054600182015460029092015490925083565b6000610bde84610f81565b60008581526007602090815260408083206001600160a01b0387168452909152812080549293509185918391610c15908490611bf4565b90915550508151670de0b6b3a764000090610c309086611b47565b610c3a9190611b66565b816001016000828254610c4d9190611c27565b90915550506040518481526001600160a01b03841690869033907f8f3ed488ccb8ee9d27a4cb66377f8127c651bd8f8b68df7b23d7b5676961787f9060200160405180910390a46105d533308660068981548110610cad57610cad611bde565b6000918252602090912001546001600160a01b0316929190611525565b8060005b8181101561080457610cf7848483818110610ceb57610ceb611bde565b90506020020135610f81565b5080610d0281611c0c565b915050610cce565b6000918252602082815260408084206001600160a01b0393909316845291905290205460ff1690565b60008060058481548110610d4957610d49611bde565b60009182526020808320604080516060810182526003909402909101805484526001810154848401526002015483820152878452600782528084206001600160a01b038816855290915282208151600680549395509193909290919088908110610db557610db5611bde565b6000918252602090912001546040516370a0823160e01b81523060048201526001600160a01b03909116906370a0823190602401602060405180830381865afa158015610e06573d6000803e3d6000fd5b505050506040513d601f19601f82011682018060405250810190610e2a9190611c68565b9050836020015142118015610e3e57508015155b15610eb1576000846020015142610e559190611bc7565b90506000600454866040015160035484610e6f9190611b47565b610e799190611b47565b610e839190611b66565b905082610e98670de0b6b3a764000083611b47565b610ea29190611b66565b610eac9085611bf4565b935050505b60018301548354670de0b6b3a764000090610ecd908590611b47565b610ed79190611b66565b610ee19190611b88565b979650505050505050565b60005b60055481101561088957816001600160a01b031660068281548110610f1657610f16611bde565b6000918252602090912001546001600160a01b03161415610f6f5760405162461bcd60e51b81526020600482015260136024820152724661726d2065786973747320616c726561647960681b6044820152606401610876565b80610f7981611c0c565b915050610eef565b610fa560405180606001604052806000815260200160008152602001600081525090565b60058281548110610fb857610fb8611bde565b60009182526020918290206040805160608101825260039093029091018054835260018101549383018490526002015490820152915042111561118a5760006006838154811061100a5761100a611bde565b6000918252602090912001546040516370a0823160e01b81523060048201526001600160a01b03909116906370a0823190602401602060405180830381865afa15801561105b573d6000803e3d6000fd5b505050506040513d601f19601f8201168201806040525081019061107f9190611c68565b905080156110fb5760008260200151426110999190611bc7565b905060006004548460400151600354846110b39190611b47565b6110bd9190611b47565b6110c79190611b66565b9050826110dc670de0b6b3a764000083611b47565b6110e69190611b66565b845185906110f5908390611bf4565b90525050505b426020830152600580548391908590811061111857611118611bde565b600091825260209182902083516003929092020190815582820151600182015560409283015160029091015583810151845183519182529181018490529182015283907f7afa65e874128c36660ee87dc188d5db7715c3183d701645e98701b5ef8cd9139060600160405180910390a2505b919050565b600061119a84610f81565b60008581526007602090815260408083203384529091528120825181549394509092670de0b6b3a7640000916111cf91611b47565b6111d99190611b66565b905060008260010154826111ed9190611b88565b8451909150670de0b6b3a7640000906112069088611b47565b6112109190611b66565b61121a9083611b88565b6001840155825486908490600090611233908490611bc7565b90915550506040518681526001600160a01b03861690889033907fc9da9141b9ad9eed3c5b5d7e7799519c54f06cc3ee3f1c49c16f2f297660baef9060200160405180910390a4846001600160a01b031687336001600160a01b03167f8019192f65b34fad6bf2766db2d26c808d77abc63af77b2ba2e329ab18aa8a0d846040516112c091815260200190565b60405180910390a46002546040516307b22ee360e21b81526001600160a01b0387811660048301526024820184905290911690631ec8bb8c90604401600060405180830381600087803b15801561131657600080fd5b505af115801561132a573d6000803e3d6000fd5b50505050611346858760068a815481106105b9576105b9611bde565b50505050505050565b60008281526020819052604090206001015461136b81336113d8565b61077e83836114c0565b6040516001600160a01b03831660248201526044810182905261077e90849063a9059cbb60e01b906064015b60408051601f198184030181529190526020810180516001600160e01b03166001600160e01b03199093169290921790915261155d565b6113e28282610d0a565b610889576113fa816001600160a01b0316601461162f565b61140583602061162f565b604051602001611416929190611cad565b60408051601f198184030181529082905262461bcd60e51b825261087691600401611d22565b6114468282610d0a565b610889576000828152602081815260408083206001600160a01b03851684529091529020805460ff1916600117905561147c3390565b6001600160a01b0316816001600160a01b0316837f2f8788117e7eff1d82e926ec794901d17c78024a50270940304540a733656f0d60405160405180910390a45050565b6114ca8282610d0a565b15610889576000828152602081815260408083206001600160a01b0385168085529252808320805460ff1916905551339285917ff6391f5c32d9c69d2a47ea670b442974b53935d1edc7fd64eb21e047a839171b9190a45050565b6040516001600160a01b03808516602483015283166044820152606481018290526108049085906323b872dd60e01b906084016113a1565b60006115b2826040518060400160405280602081526020017f5361666545524332303a206c6f772d6c6576656c2063616c6c206661696c6564815250856001600160a01b03166117d29092919063ffffffff16565b80519091501561077e57808060200190518101906115d09190611d55565b61077e5760405162461bcd60e51b815260206004820152602a60248201527f5361666545524332303a204552433230206f7065726174696f6e20646964206e6044820152691bdd081cdd58d8d9595960b21b6064820152608401610876565b6060600061163e836002611b47565b611649906002611bf4565b67ffffffffffffffff81111561166157611661611d72565b6040519080825280601f01601f19166020018201604052801561168b576020820181803683370190505b509050600360fc1b816000815181106116a6576116a6611bde565b60200101906001600160f81b031916908160001a905350600f60fb1b816001815181106116d5576116d5611bde565b60200101906001600160f81b031916908160001a90535060006116f9846002611b47565b611704906001611bf4565b90505b600181111561177c576f181899199a1a9b1b9c1cb0b131b232b360811b85600f166010811061173857611738611bde565b1a60f81b82828151811061174e5761174e611bde565b60200101906001600160f81b031916908160001a90535060049490941c9361177581611d88565b9050611707565b5083156117cb5760405162461bcd60e51b815260206004820181905260248201527f537472696e67733a20686578206c656e67746820696e73756666696369656e746044820152606401610876565b9392505050565b60606117e184846000856117e9565b949350505050565b60608247101561184a5760405162461bcd60e51b815260206004820152602660248201527f416464726573733a20696e73756666696369656e742062616c616e636520666f6044820152651c8818d85b1b60d21b6064820152608401610876565b843b6118985760405162461bcd60e51b815260206004820152601d60248201527f416464726573733a2063616c6c20746f206e6f6e2d636f6e74726163740000006044820152606401610876565b600080866001600160a01b031685876040516118b49190611d9f565b60006040518083038185875af1925050503d80600081146118f1576040519150601f19603f3d011682016040523d82523d6000602084013e6118f6565b606091505b5091509150610ee1828286606083156119105750816117cb565b8251156119205782518084602001fd5b8160405162461bcd60e51b81526004016108769190611d22565b60006020828403121561194c57600080fd5b81356001600160e01b0319811681146117cb57600080fd5b6001600160a01b038116811461197957600080fd5b50565b60008060006060848603121561199157600080fd5b833592506020840135915060408401356119aa81611964565b809150509250925092565b6000602082840312156119c757600080fd5b81356117cb81611964565b600080604083850312156119e557600080fd5b8235915060208301356119f781611964565b809150509250929050565b600060208284031215611a1457600080fd5b5035919050565b60008083601f840112611a2d57600080fd5b50813567ffffffffffffffff811115611a4557600080fd5b6020830191508360208260051b8501011115611a6057600080fd5b9250929050565b600080600060408486031215611a7c57600080fd5b83359250602084013567ffffffffffffffff811115611a9a57600080fd5b611aa686828701611a1b565b9497909650939450505050565b801515811461197957600080fd5b600080600060608486031215611ad657600080fd5b833592506020840135915060408401356119aa81611ab3565b60008060208385031215611b0257600080fd5b823567ffffffffffffffff811115611b1957600080fd5b611b2585828601611a1b565b90969095509350505050565b634e487b7160e01b600052601160045260246000fd5b6000816000190483118215151615611b6157611b61611b31565b500290565b600082611b8357634e487b7160e01b600052601260045260246000fd5b500490565b60008083128015600160ff1b850184121615611ba657611ba6611b31565b6001600160ff1b0384018313811615611bc157611bc1611b31565b50500390565b600082821015611bd957611bd9611b31565b500390565b634e487b7160e01b600052603260045260246000fd5b60008219821115611c0757611c07611b31565b500190565b6000600019821415611c2057611c20611b31565b5060010190565b600080821280156001600160ff1b0384900385131615611c4957611c49611b31565b600160ff1b8390038412811615611c6257611c62611b31565b50500190565b600060208284031215611c7a57600080fd5b5051919050565b60005b83811015611c9c578181015183820152602001611c84565b838111156108045750506000910152565b7f416363657373436f6e74726f6c3a206163636f756e7420000000000000000000815260008351611ce5816017850160208801611c81565b7001034b99036b4b9b9b4b733903937b6329607d1b6017918401918201528351611d16816028840160208801611c81565b01602801949350505050565b6020815260008251806020840152611d41816040850160208701611c81565b601f01601f19169190910160400192915050565b600060208284031215611d6757600080fd5b81516117cb81611ab3565b634e487b7160e01b600052604160045260246000fd5b600081611d9757611d97611b31565b506000190190565b60008251611db1818460208701611c81565b919091019291505056fe241ecf16d79d0f8dbfb92cbc07fe17840425976cf0667f022fe9877caa831b08a2646970667358221220a6ff571347bbf3efca6615ccab6f78b212f9ea675eac7a6a6e4aadd857edd54564736f6c634300080a0033",
  "linkReferences": {},
  "deployedLinkReferences": {}
}