{
  "_format": "hh-sol-artifact-1",
  "contractName": "LFiFarms",
  "sourceName": "contracts/LFiFarms.sol",
  "abi": [
    {
      "inputs": [
        {
          "internalType": "address",
          "name": "_admin",
          "type": "address"
        },
        {
          "internalType": "contract IERC20",
          "name": "_rewardToken",
          "type": "address"
        },
        {
          "internalType": "contract IFundDistributor",
          "name": "_fund",
          "type": "address"
        }
      ],
      "stateMutability": "nonpayable",
      "type": "constructor"
    },
    {
      "anonymous": false,
      "inputs": [
        {
          "indexed": true,
          "internalType": "uint256",
          "name": "fid",
          "type": "uint256"
        },
        {
          "indexed": false,
          "internalType": "uint256",
          "name": "allocatedPoints",
          "type": "uint256"
        },
        {
          "indexed": true,
          "internalType": "contract IERC20",
          "name": "lpToken",
          "type": "address"
        }
      ],
      "name": "FarmCreated",
      "type": "event"
    },
    {
      "anonymous": false,
      "inputs": [
        {
          "indexed": true,
          "internalType": "address",
          "name": "depositor",
          "type": "address"
        },
        {
          "indexed": true,
          "internalType": "uint256",
          "name": "fid",
          "type": "uint256"
        },
        {
          "indexed": false,
          "internalType": "uint256",
          "name": "amount",
          "type": "uint256"
        },
        {
          "indexed": true,
          "internalType": "address",
          "name": "benefitor",
          "type": "address"
        }
      ],
      "name": "FarmDeposit",
      "type": "event"
    },
    {
      "anonymous": false,
      "inputs": [
        {
          "indexed": true,
          "internalType": "address",
          "name": "requestor",
          "type": "address"
        },
        {
          "indexed": true,
          "internalType": "uint256",
          "name": "fid",
          "type": "uint256"
        },
        {
          "indexed": false,
          "internalType": "uint256",
          "name": "amount",
          "type": "uint256"
        },
        {
          "indexed": true,
          "internalType": "address",
          "name": "receiver",
          "type": "address"
        }
      ],
      "name": "FarmHarvest",
      "type": "event"
    },
    {
      "anonymous": false,
      "inputs": [
        {
          "indexed": true,
          "internalType": "uint256",
          "name": "fid",
          "type": "uint256"
        },
        {
          "indexed": false,
          "internalType": "uint256",
          "name": "lastRewardTime",
          "type": "uint256"
        },
        {
          "indexed": false,
          "internalType": "uint256",
          "name": "lpSupply",
          "type": "uint256"
        },
        {
          "indexed": false,
          "internalType": "uint256",
          "name": "accRewardPerShare",
          "type": "uint256"
        }
      ],
      "name": "FarmUpdated",
      "type": "event"
    },
    {
      "anonymous": false,
      "inputs": [
        {
          "indexed": true,
          "internalType": "address",
          "name": "requestor",
          "type": "address"
        },
        {
          "indexed": true,
          "internalType": "uint256",
          "name": "fid",
          "type": "uint256"
        },
        {
          "indexed": false,
          "internalType": "uint256",
          "name": "amount",
          "type": "uint256"
        },
        {
          "indexed": true,
          "internalType": "address",
          "name": "receiver",
          "type": "address"
        }
      ],
      "name": "FarmWithdraw",
      "type": "event"
    },
    {
      "anonymous": false,
      "inputs": [
        {
          "indexed": false,
          "internalType": "uint256",
          "name": "newRewardPerSecond",
          "type": "uint256"
        }
      ],
      "name": "RewardPerSecondUpdated",
      "type": "event"
    },
    {
      "anonymous": false,
      "inputs": [
        {
          "indexed": true,
          "internalType": "bytes32",
          "name": "role",
          "type": "bytes32"
        },
        {
          "indexed": true,
          "internalType": "bytes32",
          "name": "previousAdminRole",
          "type": "bytes32"
        },
        {
          "indexed": true,
          "internalType": "bytes32",
          "name": "newAdminRole",
          "type": "bytes32"
        }
      ],
      "name": "RoleAdminChanged",
      "type": "event"
    },
    {
      "anonymous": false,
      "inputs": [
        {
          "indexed": true,
          "internalType": "bytes32",
          "name": "role",
          "type": "bytes32"
        },
        {
          "indexed": true,
          "internalType": "address",
          "name": "account",
          "type": "address"
        },
        {
          "indexed": true,
          "internalType": "address",
          "name": "sender",
          "type": "address"
        }
      ],
      "name": "RoleGranted",
      "type": "event"
    },
    {
      "anonymous": false,
      "inputs": [
        {
          "indexed": true,
          "internalType": "bytes32",
          "name": "role",
          "type": "bytes32"
        },
        {
          "indexed": true,
          "internalType": "address",
          "name": "account",
          "type": "address"
        },
        {
          "indexed": true,
          "internalType": "address",
          "name": "sender",
          "type": "address"
        }
      ],
      "name": "RoleRevoked",
      "type": "event"
    },
    {
      "inputs": [],
      "name": "DEFAULT_ADMIN_ROLE",
      "outputs": [
        {
          "internalType": "bytes32",
          "name": "",
          "type": "bytes32"
        }
      ],
      "stateMutability": "view",
      "type": "function"
    },
    {
      "inputs": [
        {
          "internalType": "contract IERC20",
          "name": "_token",
          "type": "address"
        }
      ],
      "name": "checkFarmDoesntExist",
      "outputs": [],
      "stateMutability": "view",
      "type": "function"
    },
    {
      "inputs": [
        {
          "internalType": "uint256",
          "name": "_allocPoint",
          "type": "uint256"
        },
        {
          "internalType": "contract IERC20",
          "name": "_lpToken",
          "type": "address"
        },
        {
          "internalType": "contract IRewarder",
          "name": "_rewarder",
          "type": "address"
        }
      ],
      "name": "createFarm",
      "outputs": [],
      "stateMutability": "nonpayable",
      "type": "function"
    },
    {
      "inputs": [
        {
          "internalType": "uint256",
          "name": "fid",
          "type": "uint256"
        },
        {
          "internalType": "uint256",
          "name": "lpAmount",
          "type": "uint256"
        },
        {
          "internalType": "address",
          "name": "benefitor",
          "type": "address"
        }
      ],
      "name": "deposit",
      "outputs": [],
      "stateMutability": "nonpayable",
      "type": "function"
    },
    {
      "inputs": [
        {
          "internalType": "uint256",
          "name": "",
          "type": "uint256"
        }
      ],
      "name": "farmInfo",
      "outputs": [
        {
          "internalType": "uint256",
          "name": "accRewardPerShare",
          "type": "uint256"
        },
        {
          "internalType": "uint256",
          "name": "lastRewardTime",
          "type": "uint256"
        },
        {
          "internalType": "uint256",
          "name": "allocPoint",
          "type": "uint256"
        }
      ],
      "stateMutability": "view",
      "type": "function"
    },
    {
      "inputs": [],
      "name": "fund",
      "outputs": [
        {
          "internalType": "contract IFundDistributor",
          "name": "",
          "type": "address"
        }
      ],
      "stateMutability": "view",
      "type": "function"
    },
    {
      "inputs": [],
      "name": "getFarmCount",
      "outputs": [
        {
          "internalType": "uint256",
          "name": "farmCount",
          "type": "uint256"
        }
      ],
      "stateMutability": "view",
      "type": "function"
    },
    {
      "inputs": [
        {
          "internalType": "bytes32",
          "name": "role",
          "type": "bytes32"
        }
      ],
      "name": "getRoleAdmin",
      "outputs": [
        {
          "internalType": "bytes32",
          "name": "",
          "type": "bytes32"
        }
      ],
      "stateMutability": "view",
      "type": "function"
    },
    {
      "inputs": [
        {
          "internalType": "bytes32",
          "name": "role",
          "type": "bytes32"
        },
        {
          "internalType": "address",
          "name": "account",
          "type": "address"
        }
      ],
      "name": "grantRole",
      "outputs": [],
      "stateMutability": "nonpayable",
      "type": "function"
    },
    {
      "inputs": [
        {
          "internalType": "uint256",
          "name": "fid",
          "type": "uint256"
        },
        {
          "internalType": "address",
          "name": "receiver",
          "type": "address"
        }
      ],
      "name": "harvest",
      "outputs": [],
      "stateMutability": "nonpayable",
      "type": "function"
    },
    {
      "inputs": [
        {
          "internalType": "address",
          "name": "receiver",
          "type": "address"
        }
      ],
      "name": "harvestAll",
      "outputs": [],
      "stateMutability": "nonpayable",
      "type": "function"
    },
    {
      "inputs": [
        {
          "internalType": "bytes32",
          "name": "role",
          "type": "bytes32"
        },
        {
          "internalType": "address",
          "name": "account",
          "type": "address"
        }
      ],
      "name": "hasRole",
      "outputs": [
        {
          "internalType": "bool",
          "name": "",
          "type": "bool"
        }
      ],
      "stateMutability": "view",
      "type": "function"
    },
    {
      "inputs": [
        {
          "internalType": "uint256",
          "name": "",
          "type": "uint256"
        }
      ],
      "name": "lpToken",
      "outputs": [
        {
          "internalType": "contract IERC20",
          "name": "",
          "type": "address"
        }
      ],
      "stateMutability": "view",
      "type": "function"
    },
    {
      "inputs": [
        {
          "internalType": "uint256",
          "name": "fid",
          "type": "uint256"
        }
      ],
      "name": "refreshFarm",
      "outputs": [
        {
          "components": [
            {
              "internalType": "uint256",
              "name": "accRewardPerShare",
              "type": "uint256"
            },
            {
              "internalType": "uint256",
              "name": "lastRewardTime",
              "type": "uint256"
            },
            {
              "internalType": "uint256",
              "name": "allocPoint",
              "type": "uint256"
            }
          ],
          "internalType": "struct LFiFarms.FarmInfo",
          "name": "farm",
          "type": "tuple"
        }
      ],
      "stateMutability": "nonpayable",
      "type": "function"
    },
    {
      "inputs": [
        {
          "internalType": "bytes32",
          "name": "role",
          "type": "bytes32"
        },
        {
          "internalType": "address",
          "name": "account",
          "type": "address"
        }
      ],
      "name": "renounceRole",
      "outputs": [],
      "stateMutability": "nonpayable",
      "type": "function"
    },
    {
      "inputs": [
        {
          "internalType": "bytes32",
          "name": "role",
          "type": "bytes32"
        },
        {
          "internalType": "address",
          "name": "account",
          "type": "address"
        }
      ],
      "name": "revokeRole",
      "outputs": [],
      "stateMutability": "nonpayable",
      "type": "function"
    },
    {
      "inputs": [],
      "name": "reward",
      "outputs": [
        {
          "internalType": "contract IERC20",
          "name": "",
          "type": "address"
        }
      ],
      "stateMutability": "view",
      "type": "function"
    },
    {
      "inputs": [],
      "name": "rewardPerSecond",
      "outputs": [
        {
          "internalType": "uint256",
          "name": "",
          "type": "uint256"
        }
      ],
      "stateMutability": "view",
      "type": "function"
    },
    {
      "inputs": [
        {
          "internalType": "uint256",
          "name": "",
          "type": "uint256"
        }
      ],
      "name": "rewarder",
      "outputs": [
        {
          "internalType": "contract IRewarder",
          "name": "",
          "type": "address"
        }
      ],
      "stateMutability": "view",
      "type": "function"
    },
    {
      "inputs": [
        {
          "internalType": "uint256",
          "name": "_rewardPerSecond",
          "type": "uint256"
        }
      ],
      "name": "setRewardPerSecond",
      "outputs": [],
      "stateMutability": "nonpayable",
      "type": "function"
    },
    {
      "inputs": [
        {
          "internalType": "bytes4",
          "name": "interfaceId",
          "type": "bytes4"
        }
      ],
      "name": "supportsInterface",
      "outputs": [
        {
          "internalType": "bool",
          "name": "",
          "type": "bool"
        }
      ],
      "stateMutability": "view",
      "type": "function"
    },
    {
      "inputs": [],
      "name": "totalAllocPoint",
      "outputs": [
        {
          "internalType": "uint256",
          "name": "",
          "type": "uint256"
        }
      ],
      "stateMutability": "view",
      "type": "function"
    },
    {
      "inputs": [
        {
          "internalType": "uint256",
          "name": "",
          "type": "uint256"
        },
        {
          "internalType": "address",
          "name": "",
          "type": "address"
        }
      ],
      "name": "userInfo",
      "outputs": [
        {
          "internalType": "uint256",
          "name": "amount",
          "type": "uint256"
        },
        {
          "internalType": "int256",
          "name": "rewardDebt",
          "type": "int256"
        }
      ],
      "stateMutability": "view",
      "type": "function"
    },
    {
      "inputs": [
        {
          "internalType": "uint256",
          "name": "fid",
          "type": "uint256"
        },
        {
          "internalType": "uint256",
          "name": "lpAmount",
          "type": "uint256"
        },
        {
          "internalType": "address",
          "name": "receiver",
          "type": "address"
        }
      ],
      "name": "withdraw",
      "outputs": [],
      "stateMutability": "nonpayable",
      "type": "function"
    }
  ],
  "bytecode": "0x608060405260006007553480156200001657600080fd5b506040516200362f3803806200362f83398181016040528101906200003c919062000349565b81600160006101000a81548173ffffffffffffffffffffffffffffffffffffffff021916908373ffffffffffffffffffffffffffffffffffffffff16021790555080600260006101000a81548173ffffffffffffffffffffffffffffffffffffffff021916908373ffffffffffffffffffffffffffffffffffffffff160217905550620000d36000801b84620000dc60201b60201c565b505050620003a5565b620000ee8282620000f260201b60201c565b5050565b620001048282620001e360201b60201c565b620001df57600160008084815260200190815260200160002060000160008373ffffffffffffffffffffffffffffffffffffffff1673ffffffffffffffffffffffffffffffffffffffff16815260200190815260200160002060006101000a81548160ff021916908315150217905550620001846200024d60201b60201c565b73ffffffffffffffffffffffffffffffffffffffff168173ffffffffffffffffffffffffffffffffffffffff16837f2f8788117e7eff1d82e926ec794901d17c78024a50270940304540a733656f0d60405160405180910390a45b5050565b600080600084815260200190815260200160002060000160008373ffffffffffffffffffffffffffffffffffffffff1673ffffffffffffffffffffffffffffffffffffffff16815260200190815260200160002060009054906101000a900460ff16905092915050565b600033905090565b600080fd5b600073ffffffffffffffffffffffffffffffffffffffff82169050919050565b600062000287826200025a565b9050919050565b62000299816200027a565b8114620002a557600080fd5b50565b600081519050620002b9816200028e565b92915050565b6000620002cc826200027a565b9050919050565b620002de81620002bf565b8114620002ea57600080fd5b50565b600081519050620002fe81620002d3565b92915050565b600062000311826200027a565b9050919050565b620003238162000304565b81146200032f57600080fd5b50565b600081519050620003438162000318565b92915050565b60008060006060848603121562000365576200036462000255565b5b60006200037586828701620002a8565b93505060206200038886828701620002ed565b92505060406200039b8682870162000332565b9150509250925092565b61327a80620003b56000396000f3fe608060405234801561001057600080fd5b50600436106101585760003560e01c80637d21c967116100c3578063a217fddf1161007c578063a217fddf146103d8578063b60d4288146103f6578063c346253d14610414578063cb8bcf9214610444578063d547741f14610474578063defb36181461049057610158565b80637d21c967146102ef5780638dbdbe6d146103215780638f10369a1461033d57806391d148541461035b57806393f1a40b1461038b5780639bde8099146103bc57610158565b80632f2ff15d116101155780632f2ff15d1461023157806336568abe1461024d578063429692a71461026957806366da581514610287578063699bdca9146102a357806378ed5d1f146102bf57610158565b806301ffc9a71461015d5780630ad58d2f1461018d57806317caf6f1146101a957806318fccc76146101c7578063228cb733146101e3578063248a9ca314610201575b600080fd5b610177600480360381019061017291906121b1565b6104ac565b60405161018491906121f9565b60405180910390f35b6101a760048036038101906101a291906122a8565b610526565b005b6101b16107a3565b6040516101be919061230a565b60405180910390f35b6101e160048036038101906101dc9190612325565b6107a9565b005b6101eb610a3c565b6040516101f891906123c4565b60405180910390f35b61021b60048036038101906102169190612415565b610a62565b6040516102289190612451565b60405180910390f35b61024b6004803603810190610246919061246c565b610a81565b005b6102676004803603810190610262919061246c565b610aaa565b005b610271610b2d565b60405161027e919061230a565b60405180910390f35b6102a1600480360381019061029c91906124ac565b610b3a565b005b6102bd60048036038101906102b891906124d9565b610b91565b005b6102d960048036038101906102d491906124ac565b610c23565b6040516102e691906123c4565b60405180910390f35b610309600480360381019061030491906124ac565b610c62565b60405161031893929190612506565b60405180910390f35b61033b600480360381019061033691906122a8565b610c9c565b005b610345610f6d565b604051610352919061230a565b60405180910390f35b6103756004803603810190610370919061246c565b610f73565b60405161038291906121f9565b60405180910390f35b6103a560048036038101906103a09190612325565b610fdd565b6040516103b3929190612556565b60405180910390f35b6103d660048036038101906103d191906125bd565b61100e565b005b6103e06110e2565b6040516103ed9190612451565b60405180910390f35b6103fe6110e9565b60405161040b919061260b565b60405180910390f35b61042e600480360381019061042991906124ac565b61110f565b60405161043b9190612647565b60405180910390f35b61045e600480360381019061045991906124ac565b61114e565b60405161046b91906126b3565b60405180910390f35b61048e6004803603810190610489919061246c565b611386565b005b6104aa60048036038101906104a5919061270c565b6113af565b005b60007f7965db0b000000000000000000000000000000000000000000000000000000007bffffffffffffffffffffffffffffffffffffffffffffffffffffffff1916827bffffffffffffffffffffffffffffffffffffffffffffffffffffffff1916148061051f575061051e82611579565b5b9050919050565b60006105318461114e565b905060006006600086815260200190815260200160002060003373ffffffffffffffffffffffffffffffffffffffff1673ffffffffffffffffffffffffffffffffffffffff168152602001908152602001600020905064e8d4a5100082600001518561059d919061278e565b6105a79190612817565b8160010160008282546105ba9190612848565b92505081905550838160000160008282546105d591906128dc565b925050819055506000600586815481106105f2576105f1612910565b5b9060005260206000200160009054906101000a900473ffffffffffffffffffffffffffffffffffffffff169050600073ffffffffffffffffffffffffffffffffffffffff168173ffffffffffffffffffffffffffffffffffffffff16146106cc578073ffffffffffffffffffffffffffffffffffffffff166344af0fa7873387600087600001546040518663ffffffff1660e01b8152600401610699959493929190612989565b600060405180830381600087803b1580156106b357600080fd5b505af11580156106c7573d6000803e3d6000fd5b505050505b6107358486600489815481106106e5576106e4612910565b5b9060005260206000200160009054906101000a900473ffffffffffffffffffffffffffffffffffffffff1673ffffffffffffffffffffffffffffffffffffffff166115e39092919063ffffffff16565b8373ffffffffffffffffffffffffffffffffffffffff16863373ffffffffffffffffffffffffffffffffffffffff167fc9da9141b9ad9eed3c5b5d7e7799519c54f06cc3ee3f1c49c16f2f297660baef88604051610793919061230a565b60405180910390a4505050505050565b60075481565b60006107b48361114e565b905060006006600085815260200190815260200160002060003373ffffffffffffffffffffffffffffffffffffffff1673ffffffffffffffffffffffffffffffffffffffff1681526020019081526020016000209050600064e8d4a5100083600001518360000154610826919061278e565b6108309190612817565b905060008260010154826108449190612848565b9050818360010181905550600260009054906101000a900473ffffffffffffffffffffffffffffffffffffffff1673ffffffffffffffffffffffffffffffffffffffff16631ec8bb8c86836040518363ffffffff1660e01b81526004016108ac9291906129dc565b600060405180830381600087803b1580156108c657600080fd5b505af11580156108da573d6000803e3d6000fd5b505050506000600587815481106108f4576108f3612910565b5b9060005260206000200160009054906101000a900473ffffffffffffffffffffffffffffffffffffffff169050600073ffffffffffffffffffffffffffffffffffffffff168173ffffffffffffffffffffffffffffffffffffffff16146109cd578073ffffffffffffffffffffffffffffffffffffffff166344af0fa78833898689600001546040518663ffffffff1660e01b815260040161099a959493929190612a05565b600060405180830381600087803b1580156109b457600080fd5b505af11580156109c8573d6000803e3d6000fd5b505050505b8573ffffffffffffffffffffffffffffffffffffffff16873373ffffffffffffffffffffffffffffffffffffffff167f8019192f65b34fad6bf2766db2d26c808d77abc63af77b2ba2e329ab18aa8a0d85604051610a2b919061230a565b60405180910390a450505050505050565b600160009054906101000a900473ffffffffffffffffffffffffffffffffffffffff1681565b6000806000838152602001908152602001600020600101549050919050565b610a8a82610a62565b610a9b81610a96611669565b611671565b610aa5838361170e565b505050565b610ab2611669565b73ffffffffffffffffffffffffffffffffffffffff168173ffffffffffffffffffffffffffffffffffffffff1614610b1f576040517f08c379a0000000000000000000000000000000000000000000000000000000008152600401610b1690612adb565b60405180910390fd5b610b2982826117ee565b5050565b6000600380549050905090565b6000801b610b4f81610b4a611669565b611671565b816008819055507f951c6f64eb06ec6a6682072cda71420984dd55199006684bb820a80fd7e9879382604051610b85919061230a565b60405180910390a15050565b6000600380549050905060005b81811015610c1e5760006006600083815260200190815260200160002060003373ffffffffffffffffffffffffffffffffffffffff1673ffffffffffffffffffffffffffffffffffffffff168152602001908152602001600020600001541115610c0d57610c0c81846107a9565b5b80610c1790612afb565b9050610b9e565b505050565b60048181548110610c3357600080fd5b906000526020600020016000915054906101000a900473ffffffffffffffffffffffffffffffffffffffff1681565b60038181548110610c7257600080fd5b90600052602060002090600302016000915090508060000154908060010154908060020154905083565b610ca78383836118cf565b6000610cb28461114e565b9050610ccb81604001518260000151836020015161196e565b60006006600086815260200190815260200160002060008473ffffffffffffffffffffffffffffffffffffffff1673ffffffffffffffffffffffffffffffffffffffff1681526020019081526020016000209050610d2c8160000154611a0d565b83816000016000828254610d409190612b44565b92505081905550610d548160000154611a0d565b64e8d4a51000826000015185610d6a919061278e565b610d749190612817565b816001016000828254610d879190612b9a565b92505081905550610d9b8160010154611aa6565b600060058681548110610db157610db0612910565b5b9060005260206000200160009054906101000a900473ffffffffffffffffffffffffffffffffffffffff169050600073ffffffffffffffffffffffffffffffffffffffff168173ffffffffffffffffffffffffffffffffffffffff1614610e8b578073ffffffffffffffffffffffffffffffffffffffff166344af0fa7878687600087600001546040518663ffffffff1660e01b8152600401610e58959493929190612989565b600060405180830381600087803b158015610e7257600080fd5b505af1158015610e86573d6000803e3d6000fd5b505050505b610e9484611b3f565b610eff33308760048a81548110610eae57610ead612910565b5b9060005260206000200160009054906101000a900473ffffffffffffffffffffffffffffffffffffffff1673ffffffffffffffffffffffffffffffffffffffff16611bd8909392919063ffffffff16565b8373ffffffffffffffffffffffffffffffffffffffff16863373ffffffffffffffffffffffffffffffffffffffff167f8f3ed488ccb8ee9d27a4cb66377f8127c651bd8f8b68df7b23d7b5676961787f88604051610f5d919061230a565b60405180910390a4505050505050565b60085481565b600080600084815260200190815260200160002060000160008373ffffffffffffffffffffffffffffffffffffffff1673ffffffffffffffffffffffffffffffffffffffff16815260200190815260200160002060009054906101000a900460ff16905092915050565b6006602052816000526040600020602052806000526040600020600091509150508060000154908060010154905082565b60005b6003805490508110156110de578173ffffffffffffffffffffffffffffffffffffffff166004828154811061104957611048612910565b5b9060005260206000200160009054906101000a900473ffffffffffffffffffffffffffffffffffffffff1673ffffffffffffffffffffffffffffffffffffffff1614156110cb576040517f08c379a00000000000000000000000000000000000000000000000000000000081526004016110c290612c7a565b60405180910390fd5b80806110d690612afb565b915050611011565b5050565b6000801b81565b600260009054906101000a900473ffffffffffffffffffffffffffffffffffffffff1681565b6005818154811061111f57600080fd5b906000526020600020016000915054906101000a900473ffffffffffffffffffffffffffffffffffffffff1681565b611156612133565b6003828154811061116a57611169612910565b5b9060005260206000209060030201604051806060016040529081600082015481526020016001820154815260200160028201548152505090504281602001511015611381576000600483815481106111c5576111c4612910565b5b9060005260206000200160009054906101000a900473ffffffffffffffffffffffffffffffffffffffff1673ffffffffffffffffffffffffffffffffffffffff166370a08231306040518263ffffffff1660e01b81526004016112289190612c9a565b602060405180830381865afa158015611245573d6000803e3d6000fd5b505050506040513d601f19601f820116820180604052508101906112699190612cca565b905060008111156112ed57600082602001514261128691906128dc565b905060006007548460400151600854846112a0919061278e565b6112aa919061278e565b6112b49190612817565b90508264e8d4a51000826112c8919061278e565b6112d29190612817565b846000018181516112e39190612b44565b9150818152505050505b42826020018181525050816003848154811061130c5761130b612910565b5b9060005260206000209060030201600082015181600001556020820151816001015560408201518160020155905050827f7afa65e874128c36660ee87dc188d5db7715c3183d701645e98701b5ef8cd913836020015183856000015160405161137793929190612506565b60405180910390a2505b919050565b61138f82610a62565b6113a08161139b611669565b611671565b6113aa83836117ee565b505050565b6000801b6113c4816113bf611669565b611671565b6113cd8361100e565b83600760008282546113df9190612b44565b92505081905550600360405180606001604052806000815260200142815260200186815250908060018154018082558091505060019003906000526020600020906003020160009091909190915060008201518160000155602082015181600101556040820151816002015550506004839080600181540180825580915050600190039060005260206000200160009091909190916101000a81548173ffffffffffffffffffffffffffffffffffffffff021916908373ffffffffffffffffffffffffffffffffffffffff1602179055506005829080600181540180825580915050600190039060005260206000200160009091909190916101000a81548173ffffffffffffffffffffffffffffffffffffffff021916908373ffffffffffffffffffffffffffffffffffffffff1602179055508273ffffffffffffffffffffffffffffffffffffffff16600160048054905061153c91906128dc565b7f61c9bf39bb035d6f43bf12aa7b22bfec1d61788e90b7249fad7625529c1151818660405161156b919061230a565b60405180910390a350505050565b60007f01ffc9a7000000000000000000000000000000000000000000000000000000007bffffffffffffffffffffffffffffffffffffffffffffffffffffffff1916827bffffffffffffffffffffffffffffffffffffffffffffffffffffffff1916149050919050565b6116648363a9059cbb60e01b84846040516024016116029291906129dc565b604051602081830303815290604052907bffffffffffffffffffffffffffffffffffffffffffffffffffffffff19166020820180517bffffffffffffffffffffffffffffffffffffffffffffffffffffffff8381831617835250505050611c61565b505050565b600033905090565b61167b8282610f73565b61170a576116a08173ffffffffffffffffffffffffffffffffffffffff166014611d28565b6116ae8360001c6020611d28565b6040516020016116bf929190612e09565b6040516020818303038152906040526040517f08c379a00000000000000000000000000000000000000000000000000000000081526004016117019190612e8d565b60405180910390fd5b5050565b6117188282610f73565b6117ea57600160008084815260200190815260200160002060000160008373ffffffffffffffffffffffffffffffffffffffff1673ffffffffffffffffffffffffffffffffffffffff16815260200190815260200160002060006101000a81548160ff02191690831515021790555061178f611669565b73ffffffffffffffffffffffffffffffffffffffff168173ffffffffffffffffffffffffffffffffffffffff16837f2f8788117e7eff1d82e926ec794901d17c78024a50270940304540a733656f0d60405160405180910390a45b5050565b6117f88282610f73565b156118cb57600080600084815260200190815260200160002060000160008373ffffffffffffffffffffffffffffffffffffffff1673ffffffffffffffffffffffffffffffffffffffff16815260200190815260200160002060006101000a81548160ff021916908315150217905550611870611669565b73ffffffffffffffffffffffffffffffffffffffff168173ffffffffffffffffffffffffffffffffffffffff16837ff6391f5c32d9c69d2a47ea670b442974b53935d1edc7fd64eb21e047a839171b60405160405180910390a45b5050565b6119698383836040516024016118e793929190612eaf565b6040516020818303038152906040527fbe33491b000000000000000000000000000000000000000000000000000000007bffffffffffffffffffffffffffffffffffffffffffffffffffffffff19166020820180517bffffffffffffffffffffffffffffffffffffffffffffffffffffffff8381831617835250505050611f64565b505050565b611a0883838360405160240161198693929190612506565b6040516020818303038152906040527fe7820a74000000000000000000000000000000000000000000000000000000007bffffffffffffffffffffffffffffffffffffffffffffffffffffffff19166020820180517bffffffffffffffffffffffffffffffffffffffffffffffffffffffff8381831617835250505050611f64565b505050565b611aa381604051602401611a21919061230a565b6040516020818303038152906040527ff5b1bba9000000000000000000000000000000000000000000000000000000007bffffffffffffffffffffffffffffffffffffffffffffffffffffffff19166020820180517bffffffffffffffffffffffffffffffffffffffffffffffffffffffff8381831617835250505050611f64565b50565b611b3c81604051602401611aba9190612ee6565b6040516020818303038152906040527f4e0c1d1d000000000000000000000000000000000000000000000000000000007bffffffffffffffffffffffffffffffffffffffffffffffffffffffff19166020820180517bffffffffffffffffffffffffffffffffffffffffffffffffffffffff8381831617835250505050611f64565b50565b611bd581604051602401611b539190612c9a565b6040516020818303038152906040527f2c2ecbc2000000000000000000000000000000000000000000000000000000007bffffffffffffffffffffffffffffffffffffffffffffffffffffffff19166020820180517bffffffffffffffffffffffffffffffffffffffffffffffffffffffff8381831617835250505050611f64565b50565b611c5b846323b872dd60e01b858585604051602401611bf993929190612f01565b604051602081830303815290604052907bffffffffffffffffffffffffffffffffffffffffffffffffffffffff19166020820180517bffffffffffffffffffffffffffffffffffffffffffffffffffffffff8381831617835250505050611c61565b50505050565b6000611cc3826040518060400160405280602081526020017f5361666545524332303a206c6f772d6c6576656c2063616c6c206661696c65648152508573ffffffffffffffffffffffffffffffffffffffff16611f8d9092919063ffffffff16565b9050600081511115611d235780806020019051810190611ce39190612f64565b611d22576040517f08c379a0000000000000000000000000000000000000000000000000000000008152600401611d1990613003565b60405180910390fd5b5b505050565b606060006002836002611d3b919061278e565b611d459190612b44565b67ffffffffffffffff811115611d5e57611d5d613023565b5b6040519080825280601f01601f191660200182016040528015611d905781602001600182028036833780820191505090505b5090507f300000000000000000000000000000000000000000000000000000000000000081600081518110611dc857611dc7612910565b5b60200101907effffffffffffffffffffffffffffffffffffffffffffffffffffffffffffff1916908160001a9053507f780000000000000000000000000000000000000000000000000000000000000081600181518110611e2c57611e2b612910565b5b60200101907effffffffffffffffffffffffffffffffffffffffffffffffffffffffffffff1916908160001a90535060006001846002611e6c919061278e565b611e769190612b44565b90505b6001811115611f16577f3031323334353637383961626364656600000000000000000000000000000000600f861660108110611eb857611eb7612910565b5b1a60f81b828281518110611ecf57611ece612910565b5b60200101907effffffffffffffffffffffffffffffffffffffffffffffffffffffffffffff1916908160001a905350600485901c945080611f0f90613052565b9050611e79565b5060008414611f5a576040517f08c379a0000000000000000000000000000000000000000000000000000000008152600401611f51906130c8565b60405180910390fd5b8091505092915050565b60008151905060006a636f6e736f6c652e6c6f679050602083016000808483855afa5050505050565b6060611f9c8484600085611fa5565b90509392505050565b606082471015611fea576040517f08c379a0000000000000000000000000000000000000000000000000000000008152600401611fe19061315a565b60405180910390fd5b611ff3856120b9565b612032576040517f08c379a0000000000000000000000000000000000000000000000000000000008152600401612029906131c6565b60405180910390fd5b6000808673ffffffffffffffffffffffffffffffffffffffff16858760405161205b919061322d565b60006040518083038185875af1925050503d8060008114612098576040519150601f19603f3d011682016040523d82523d6000602084013e61209d565b606091505b50915091506120ad8282866120cc565b92505050949350505050565b600080823b905060008111915050919050565b606083156120dc5782905061212c565b6000835111156120ef5782518084602001fd5b816040517f08c379a00000000000000000000000000000000000000000000000000000000081526004016121239190612e8d565b60405180910390fd5b9392505050565b60405180606001604052806000815260200160008152602001600081525090565b600080fd5b60007fffffffff0000000000000000000000000000000000000000000000000000000082169050919050565b61218e81612159565b811461219957600080fd5b50565b6000813590506121ab81612185565b92915050565b6000602082840312156121c7576121c6612154565b5b60006121d58482850161219c565b91505092915050565b60008115159050919050565b6121f3816121de565b82525050565b600060208201905061220e60008301846121ea565b92915050565b6000819050919050565b61222781612214565b811461223257600080fd5b50565b6000813590506122448161221e565b92915050565b600073ffffffffffffffffffffffffffffffffffffffff82169050919050565b60006122758261224a565b9050919050565b6122858161226a565b811461229057600080fd5b50565b6000813590506122a28161227c565b92915050565b6000806000606084860312156122c1576122c0612154565b5b60006122cf86828701612235565b93505060206122e086828701612235565b92505060406122f186828701612293565b9150509250925092565b61230481612214565b82525050565b600060208201905061231f60008301846122fb565b92915050565b6000806040838503121561233c5761233b612154565b5b600061234a85828601612235565b925050602061235b85828601612293565b9150509250929050565b6000819050919050565b600061238a6123856123808461224a565b612365565b61224a565b9050919050565b600061239c8261236f565b9050919050565b60006123ae82612391565b9050919050565b6123be816123a3565b82525050565b60006020820190506123d960008301846123b5565b92915050565b6000819050919050565b6123f2816123df565b81146123fd57600080fd5b50565b60008135905061240f816123e9565b92915050565b60006020828403121561242b5761242a612154565b5b600061243984828501612400565b91505092915050565b61244b816123df565b82525050565b60006020820190506124666000830184612442565b92915050565b6000806040838503121561248357612482612154565b5b600061249185828601612400565b92505060206124a285828601612293565b9150509250929050565b6000602082840312156124c2576124c1612154565b5b60006124d084828501612235565b91505092915050565b6000602082840312156124ef576124ee612154565b5b60006124fd84828501612293565b91505092915050565b600060608201905061251b60008301866122fb565b61252860208301856122fb565b61253560408301846122fb565b949350505050565b6000819050919050565b6125508161253d565b82525050565b600060408201905061256b60008301856122fb565b6125786020830184612547565b9392505050565b600061258a8261226a565b9050919050565b61259a8161257f565b81146125a557600080fd5b50565b6000813590506125b781612591565b92915050565b6000602082840312156125d3576125d2612154565b5b60006125e1848285016125a8565b91505092915050565b60006125f582612391565b9050919050565b612605816125ea565b82525050565b600060208201905061262060008301846125fc565b92915050565b600061263182612391565b9050919050565b61264181612626565b82525050565b600060208201905061265c6000830184612638565b92915050565b61266b81612214565b82525050565b6060820160008201516126876000850182612662565b50602082015161269a6020850182612662565b5060408201516126ad6040850182612662565b50505050565b60006060820190506126c86000830184612671565b92915050565b60006126d98261226a565b9050919050565b6126e9816126ce565b81146126f457600080fd5b50565b600081359050612706816126e0565b92915050565b60008060006060848603121561272557612724612154565b5b600061273386828701612235565b9350506020612744868287016125a8565b9250506040612755868287016126f7565b9150509250925092565b7f4e487b7100000000000000000000000000000000000000000000000000000000600052601160045260246000fd5b600061279982612214565b91506127a483612214565b9250817fffffffffffffffffffffffffffffffffffffffffffffffffffffffffffffffff04831182151516156127dd576127dc61275f565b5b828202905092915050565b7f4e487b7100000000000000000000000000000000000000000000000000000000600052601260045260246000fd5b600061282282612214565b915061282d83612214565b92508261283d5761283c6127e8565b5b828204905092915050565b60006128538261253d565b915061285e8361253d565b9250827f8000000000000000000000000000000000000000000000000000000000000000018212600084121516156128995761289861275f565b5b827f7fffffffffffffffffffffffffffffffffffffffffffffffffffffffffffffff0182136000841216156128d1576128d061275f565b5b828203905092915050565b60006128e782612214565b91506128f283612214565b9250828210156129055761290461275f565b5b828203905092915050565b7f4e487b7100000000000000000000000000000000000000000000000000000000600052603260045260246000fd5b6129488161226a565b82525050565b6000819050919050565b600061297361296e6129698461294e565b612365565b612214565b9050919050565b61298381612958565b82525050565b600060a08201905061299e60008301886122fb565b6129ab602083018761293f565b6129b8604083018661293f565b6129c5606083018561297a565b6129d260808301846122fb565b9695505050505050565b60006040820190506129f1600083018561293f565b6129fe60208301846122fb565b9392505050565b600060a082019050612a1a60008301886122fb565b612a27602083018761293f565b612a34604083018661293f565b612a4160608301856122fb565b612a4e60808301846122fb565b9695505050505050565b600082825260208201905092915050565b7f416363657373436f6e74726f6c3a2063616e206f6e6c792072656e6f756e636560008201527f20726f6c657320666f722073656c660000000000000000000000000000000000602082015250565b6000612ac5602f83612a58565b9150612ad082612a69565b604082019050919050565b60006020820190508181036000830152612af481612ab8565b9050919050565b6000612b0682612214565b91507fffffffffffffffffffffffffffffffffffffffffffffffffffffffffffffffff821415612b3957612b3861275f565b5b600182019050919050565b6000612b4f82612214565b9150612b5a83612214565b9250827fffffffffffffffffffffffffffffffffffffffffffffffffffffffffffffffff03821115612b8f57612b8e61275f565b5b828201905092915050565b6000612ba58261253d565b9150612bb08361253d565b9250817f7fffffffffffffffffffffffffffffffffffffffffffffffffffffffffffffff03831360008312151615612beb57612bea61275f565b5b817f8000000000000000000000000000000000000000000000000000000000000000038312600083121615612c2357612c2261275f565b5b828201905092915050565b7f4661726d2065786973747320616c726561647900000000000000000000000000600082015250565b6000612c64601383612a58565b9150612c6f82612c2e565b602082019050919050565b60006020820190508181036000830152612c9381612c57565b9050919050565b6000602082019050612caf600083018461293f565b92915050565b600081519050612cc48161221e565b92915050565b600060208284031215612ce057612cdf612154565b5b6000612cee84828501612cb5565b91505092915050565b600081905092915050565b7f416363657373436f6e74726f6c3a206163636f756e7420000000000000000000600082015250565b6000612d38601783612cf7565b9150612d4382612d02565b601782019050919050565b600081519050919050565b60005b83811015612d77578082015181840152602081019050612d5c565b83811115612d86576000848401525b50505050565b6000612d9782612d4e565b612da18185612cf7565b9350612db1818560208601612d59565b80840191505092915050565b7f206973206d697373696e6720726f6c6520000000000000000000000000000000600082015250565b6000612df3601183612cf7565b9150612dfe82612dbd565b601182019050919050565b6000612e1482612d2b565b9150612e208285612d8c565b9150612e2b82612de6565b9150612e378284612d8c565b91508190509392505050565b6000601f19601f8301169050919050565b6000612e5f82612d4e565b612e698185612a58565b9350612e79818560208601612d59565b612e8281612e43565b840191505092915050565b60006020820190508181036000830152612ea78184612e54565b905092915050565b6000606082019050612ec460008301866122fb565b612ed160208301856122fb565b612ede604083018461293f565b949350505050565b6000602082019050612efb6000830184612547565b92915050565b6000606082019050612f16600083018661293f565b612f23602083018561293f565b612f3060408301846122fb565b949350505050565b612f41816121de565b8114612f4c57600080fd5b50565b600081519050612f5e81612f38565b92915050565b600060208284031215612f7a57612f79612154565b5b6000612f8884828501612f4f565b91505092915050565b7f5361666545524332303a204552433230206f7065726174696f6e20646964206e60008201527f6f74207375636365656400000000000000000000000000000000000000000000602082015250565b6000612fed602a83612a58565b9150612ff882612f91565b604082019050919050565b6000602082019050818103600083015261301c81612fe0565b9050919050565b7f4e487b7100000000000000000000000000000000000000000000000000000000600052604160045260246000fd5b600061305d82612214565b915060008214156130715761307061275f565b5b600182039050919050565b7f537472696e67733a20686578206c656e67746820696e73756666696369656e74600082015250565b60006130b2602083612a58565b91506130bd8261307c565b602082019050919050565b600060208201905081810360008301526130e1816130a5565b9050919050565b7f416464726573733a20696e73756666696369656e742062616c616e636520666f60008201527f722063616c6c0000000000000000000000000000000000000000000000000000602082015250565b6000613144602683612a58565b915061314f826130e8565b604082019050919050565b6000602082019050818103600083015261317381613137565b9050919050565b7f416464726573733a2063616c6c20746f206e6f6e2d636f6e7472616374000000600082015250565b60006131b0601d83612a58565b91506131bb8261317a565b602082019050919050565b600060208201905081810360008301526131df816131a3565b9050919050565b600081519050919050565b600081905092915050565b6000613207826131e6565b61321181856131f1565b9350613221818560208601612d59565b80840191505092915050565b600061323982846131fc565b91508190509291505056fea2646970667358221220c26b652aafa0094c6596bf0a8ac96b28797ace2c1b1b5c69ab728dd8f1e1f4aa64736f6c634300080a0033",
  "linkReferences": {},
  "deployedLinkReferences": {}
}