{
  "_format": "hh-sol-artifact-1",
  "contractName": "LFiFarms",
  "sourceName": "contracts/LFiFarms.sol",
  "abi": [
    {
      "inputs": [
        {
          "internalType": "address",
          "name": "_admin",
          "type": "address"
        },
        {
          "internalType": "contract IERC20",
          "name": "_rewardToken",
          "type": "address"
        },
        {
          "internalType": "contract IFundDistributor",
          "name": "_fund",
          "type": "address"
        }
      ],
      "stateMutability": "nonpayable",
      "type": "constructor"
    },
    {
      "anonymous": false,
      "inputs": [
        {
          "indexed": true,
          "internalType": "address",
          "name": "user",
          "type": "address"
        },
        {
          "indexed": true,
          "internalType": "uint256",
          "name": "fid",
          "type": "uint256"
        },
        {
          "indexed": false,
          "internalType": "uint256",
          "name": "amount",
          "type": "uint256"
        },
        {
          "indexed": true,
          "internalType": "address",
          "name": "receiver",
          "type": "address"
        }
      ],
      "name": "EmergencyWithdraw",
      "type": "event"
    },
    {
      "anonymous": false,
      "inputs": [
        {
          "indexed": true,
          "internalType": "uint256",
          "name": "fid",
          "type": "uint256"
        },
        {
          "indexed": false,
          "internalType": "uint256",
          "name": "allocatedPoints",
          "type": "uint256"
        },
        {
          "indexed": true,
          "internalType": "contract IERC20",
          "name": "lpToken",
          "type": "address"
        }
      ],
      "name": "FarmCreated",
      "type": "event"
    },
    {
      "anonymous": false,
      "inputs": [
        {
          "indexed": true,
          "internalType": "address",
          "name": "depositor",
          "type": "address"
        },
        {
          "indexed": true,
          "internalType": "uint256",
          "name": "fid",
          "type": "uint256"
        },
        {
          "indexed": false,
          "internalType": "uint256",
          "name": "amount",
          "type": "uint256"
        },
        {
          "indexed": true,
          "internalType": "address",
          "name": "benefitor",
          "type": "address"
        }
      ],
      "name": "FarmDeposit",
      "type": "event"
    },
    {
      "anonymous": false,
      "inputs": [
        {
          "indexed": true,
          "internalType": "address",
          "name": "fund",
          "type": "address"
        }
      ],
      "name": "FarmFundChanged",
      "type": "event"
    },
    {
      "anonymous": false,
      "inputs": [
        {
          "indexed": true,
          "internalType": "address",
          "name": "requestor",
          "type": "address"
        },
        {
          "indexed": true,
          "internalType": "uint256",
          "name": "fid",
          "type": "uint256"
        },
        {
          "indexed": false,
          "internalType": "uint256",
          "name": "amount",
          "type": "uint256"
        },
        {
          "indexed": true,
          "internalType": "address",
          "name": "receiver",
          "type": "address"
        }
      ],
      "name": "FarmHarvest",
      "type": "event"
    },
    {
      "anonymous": false,
      "inputs": [
        {
          "indexed": true,
          "internalType": "uint256",
          "name": "fid",
          "type": "uint256"
        },
        {
          "indexed": false,
          "internalType": "uint256",
          "name": "lastRewardTime",
          "type": "uint256"
        },
        {
          "indexed": false,
          "internalType": "uint256",
          "name": "lpSupply",
          "type": "uint256"
        },
        {
          "indexed": false,
          "internalType": "uint256",
          "name": "accRewardPerShare",
          "type": "uint256"
        }
      ],
      "name": "FarmUpdated",
      "type": "event"
    },
    {
      "anonymous": false,
      "inputs": [
        {
          "indexed": true,
          "internalType": "address",
          "name": "requestor",
          "type": "address"
        },
        {
          "indexed": true,
          "internalType": "uint256",
          "name": "fid",
          "type": "uint256"
        },
        {
          "indexed": false,
          "internalType": "uint256",
          "name": "amount",
          "type": "uint256"
        },
        {
          "indexed": true,
          "internalType": "address",
          "name": "receiver",
          "type": "address"
        }
      ],
      "name": "FarmWithdraw",
      "type": "event"
    },
    {
      "anonymous": false,
      "inputs": [
        {
          "indexed": true,
          "internalType": "uint256",
          "name": "fid",
          "type": "uint256"
        },
        {
          "indexed": false,
          "internalType": "uint256",
          "name": "allocPoint",
          "type": "uint256"
        },
        {
          "indexed": true,
          "internalType": "contract IRewarder",
          "name": "rewarder",
          "type": "address"
        },
        {
          "indexed": false,
          "internalType": "bool",
          "name": "overwrite",
          "type": "bool"
        }
      ],
      "name": "LogSetPool",
      "type": "event"
    },
    {
      "anonymous": false,
      "inputs": [
        {
          "indexed": false,
          "internalType": "uint256",
          "name": "newRewardPerSecond",
          "type": "uint256"
        }
      ],
      "name": "RewardPerSecondUpdated",
      "type": "event"
    },
    {
      "anonymous": false,
      "inputs": [
        {
          "indexed": true,
          "internalType": "bytes32",
          "name": "role",
          "type": "bytes32"
        },
        {
          "indexed": true,
          "internalType": "bytes32",
          "name": "previousAdminRole",
          "type": "bytes32"
        },
        {
          "indexed": true,
          "internalType": "bytes32",
          "name": "newAdminRole",
          "type": "bytes32"
        }
      ],
      "name": "RoleAdminChanged",
      "type": "event"
    },
    {
      "anonymous": false,
      "inputs": [
        {
          "indexed": true,
          "internalType": "bytes32",
          "name": "role",
          "type": "bytes32"
        },
        {
          "indexed": true,
          "internalType": "address",
          "name": "account",
          "type": "address"
        },
        {
          "indexed": true,
          "internalType": "address",
          "name": "sender",
          "type": "address"
        }
      ],
      "name": "RoleGranted",
      "type": "event"
    },
    {
      "anonymous": false,
      "inputs": [
        {
          "indexed": true,
          "internalType": "bytes32",
          "name": "role",
          "type": "bytes32"
        },
        {
          "indexed": true,
          "internalType": "address",
          "name": "account",
          "type": "address"
        },
        {
          "indexed": true,
          "internalType": "address",
          "name": "sender",
          "type": "address"
        }
      ],
      "name": "RoleRevoked",
      "type": "event"
    },
    {
      "inputs": [],
      "name": "DEFAULT_ADMIN_ROLE",
      "outputs": [
        {
          "internalType": "bytes32",
          "name": "",
          "type": "bytes32"
        }
      ],
      "stateMutability": "view",
      "type": "function"
    },
    {
      "inputs": [
        {
          "internalType": "contract IERC20",
          "name": "_token",
          "type": "address"
        }
      ],
      "name": "checkFarmDoesntExist",
      "outputs": [],
      "stateMutability": "view",
      "type": "function"
    },
    {
      "inputs": [
        {
          "internalType": "uint256",
          "name": "_allocPoint",
          "type": "uint256"
        },
        {
          "internalType": "contract IERC20",
          "name": "_lpToken",
          "type": "address"
        },
        {
          "internalType": "contract IRewarder",
          "name": "_rewarder",
          "type": "address"
        }
      ],
      "name": "createFarm",
      "outputs": [],
      "stateMutability": "nonpayable",
      "type": "function"
    },
    {
      "inputs": [
        {
          "internalType": "uint256",
          "name": "fid",
          "type": "uint256"
        },
        {
          "internalType": "uint256",
          "name": "lpAmount",
          "type": "uint256"
        },
        {
          "internalType": "address",
          "name": "benefitor",
          "type": "address"
        }
      ],
      "name": "deposit",
      "outputs": [],
      "stateMutability": "nonpayable",
      "type": "function"
    },
    {
      "inputs": [
        {
          "internalType": "uint256",
          "name": "fid",
          "type": "uint256"
        },
        {
          "internalType": "address",
          "name": "receiver",
          "type": "address"
        }
      ],
      "name": "emergencyWithdraw",
      "outputs": [],
      "stateMutability": "nonpayable",
      "type": "function"
    },
    {
      "inputs": [
        {
          "internalType": "uint256",
          "name": "",
          "type": "uint256"
        }
      ],
      "name": "farmInfo",
      "outputs": [
        {
          "internalType": "uint256",
          "name": "accRewardPerShare",
          "type": "uint256"
        },
        {
          "internalType": "uint256",
          "name": "lastRewardTime",
          "type": "uint256"
        },
        {
          "internalType": "uint256",
          "name": "allocPoint",
          "type": "uint256"
        }
      ],
      "stateMutability": "view",
      "type": "function"
    },
    {
      "inputs": [],
      "name": "farmLength",
      "outputs": [
        {
          "internalType": "uint256",
          "name": "farms",
          "type": "uint256"
        }
      ],
      "stateMutability": "view",
      "type": "function"
    },
    {
      "inputs": [],
      "name": "fund",
      "outputs": [
        {
          "internalType": "contract IFundDistributor",
          "name": "",
          "type": "address"
        }
      ],
      "stateMutability": "view",
      "type": "function"
    },
    {
      "inputs": [
        {
          "internalType": "bytes32",
          "name": "role",
          "type": "bytes32"
        }
      ],
      "name": "getRoleAdmin",
      "outputs": [
        {
          "internalType": "bytes32",
          "name": "",
          "type": "bytes32"
        }
      ],
      "stateMutability": "view",
      "type": "function"
    },
    {
      "inputs": [
        {
          "internalType": "bytes32",
          "name": "role",
          "type": "bytes32"
        },
        {
          "internalType": "address",
          "name": "account",
          "type": "address"
        }
      ],
      "name": "grantRole",
      "outputs": [],
      "stateMutability": "nonpayable",
      "type": "function"
    },
    {
      "inputs": [
        {
          "internalType": "uint256",
          "name": "fid",
          "type": "uint256"
        },
        {
          "internalType": "address",
          "name": "receiver",
          "type": "address"
        }
      ],
      "name": "harvest",
      "outputs": [],
      "stateMutability": "nonpayable",
      "type": "function"
    },
    {
      "inputs": [
        {
          "internalType": "address",
          "name": "receiver",
          "type": "address"
        }
      ],
      "name": "harvestAll",
      "outputs": [],
      "stateMutability": "nonpayable",
      "type": "function"
    },
    {
      "inputs": [
        {
          "internalType": "bytes32",
          "name": "role",
          "type": "bytes32"
        },
        {
          "internalType": "address",
          "name": "account",
          "type": "address"
        }
      ],
      "name": "hasRole",
      "outputs": [
        {
          "internalType": "bool",
          "name": "",
          "type": "bool"
        }
      ],
      "stateMutability": "view",
      "type": "function"
    },
    {
      "inputs": [
        {
          "internalType": "uint256",
          "name": "",
          "type": "uint256"
        }
      ],
      "name": "lpToken",
      "outputs": [
        {
          "internalType": "contract IERC20",
          "name": "",
          "type": "address"
        }
      ],
      "stateMutability": "view",
      "type": "function"
    },
    {
      "inputs": [
        {
          "internalType": "uint256[]",
          "name": "fids",
          "type": "uint256[]"
        }
      ],
      "name": "massUpdateFarms",
      "outputs": [],
      "stateMutability": "nonpayable",
      "type": "function"
    },
    {
      "inputs": [
        {
          "internalType": "uint256",
          "name": "_fid",
          "type": "uint256"
        },
        {
          "internalType": "address",
          "name": "_user",
          "type": "address"
        }
      ],
      "name": "pendingReward",
      "outputs": [
        {
          "internalType": "uint256",
          "name": "pendingRewards",
          "type": "uint256"
        }
      ],
      "stateMutability": "view",
      "type": "function"
    },
    {
      "inputs": [
        {
          "internalType": "bytes32",
          "name": "role",
          "type": "bytes32"
        },
        {
          "internalType": "address",
          "name": "account",
          "type": "address"
        }
      ],
      "name": "renounceRole",
      "outputs": [],
      "stateMutability": "nonpayable",
      "type": "function"
    },
    {
      "inputs": [
        {
          "internalType": "bytes32",
          "name": "role",
          "type": "bytes32"
        },
        {
          "internalType": "address",
          "name": "account",
          "type": "address"
        }
      ],
      "name": "revokeRole",
      "outputs": [],
      "stateMutability": "nonpayable",
      "type": "function"
    },
    {
      "inputs": [],
      "name": "reward",
      "outputs": [
        {
          "internalType": "contract IERC20",
          "name": "",
          "type": "address"
        }
      ],
      "stateMutability": "view",
      "type": "function"
    },
    {
      "inputs": [],
      "name": "rewardPerSecond",
      "outputs": [
        {
          "internalType": "uint256",
          "name": "",
          "type": "uint256"
        }
      ],
      "stateMutability": "view",
      "type": "function"
    },
    {
      "inputs": [
        {
          "internalType": "uint256",
          "name": "",
          "type": "uint256"
        }
      ],
      "name": "rewarder",
      "outputs": [
        {
          "internalType": "contract IRewarder",
          "name": "",
          "type": "address"
        }
      ],
      "stateMutability": "view",
      "type": "function"
    },
    {
      "inputs": [
        {
          "internalType": "uint256",
          "name": "fid",
          "type": "uint256"
        },
        {
          "internalType": "uint256",
          "name": "allocPoint",
          "type": "uint256"
        },
        {
          "internalType": "contract IRewarder",
          "name": "_rewarder",
          "type": "address"
        },
        {
          "internalType": "bool",
          "name": "overwrite",
          "type": "bool"
        }
      ],
      "name": "setFarm",
      "outputs": [],
      "stateMutability": "nonpayable",
      "type": "function"
    },
    {
      "inputs": [
        {
          "internalType": "contract IFundDistributor",
          "name": "_fund",
          "type": "address"
        }
      ],
      "name": "setFund",
      "outputs": [],
      "stateMutability": "nonpayable",
      "type": "function"
    },
    {
      "inputs": [
        {
          "internalType": "uint256",
          "name": "_rewardPerSecond",
          "type": "uint256"
        }
      ],
      "name": "setRewardPerSecond",
      "outputs": [],
      "stateMutability": "nonpayable",
      "type": "function"
    },
    {
      "inputs": [
        {
          "internalType": "bytes4",
          "name": "interfaceId",
          "type": "bytes4"
        }
      ],
      "name": "supportsInterface",
      "outputs": [
        {
          "internalType": "bool",
          "name": "",
          "type": "bool"
        }
      ],
      "stateMutability": "view",
      "type": "function"
    },
    {
      "inputs": [],
      "name": "totalAllocPoint",
      "outputs": [
        {
          "internalType": "uint256",
          "name": "",
          "type": "uint256"
        }
      ],
      "stateMutability": "view",
      "type": "function"
    },
    {
      "inputs": [
        {
          "internalType": "uint256",
          "name": "fid",
          "type": "uint256"
        }
      ],
      "name": "updateFarm",
      "outputs": [
        {
          "components": [
            {
              "internalType": "uint256",
              "name": "accRewardPerShare",
              "type": "uint256"
            },
            {
              "internalType": "uint256",
              "name": "lastRewardTime",
              "type": "uint256"
            },
            {
              "internalType": "uint256",
              "name": "allocPoint",
              "type": "uint256"
            }
          ],
          "internalType": "struct LFiFarms.FarmInfo",
          "name": "farm",
          "type": "tuple"
        }
      ],
      "stateMutability": "nonpayable",
      "type": "function"
    },
    {
      "inputs": [
        {
          "internalType": "uint256",
          "name": "",
          "type": "uint256"
        },
        {
          "internalType": "address",
          "name": "",
          "type": "address"
        }
      ],
      "name": "userInfo",
      "outputs": [
        {
          "internalType": "uint256",
          "name": "amount",
          "type": "uint256"
        },
        {
          "internalType": "int256",
          "name": "rewardDebt",
          "type": "int256"
        }
      ],
      "stateMutability": "view",
      "type": "function"
    },
    {
      "inputs": [
        {
          "internalType": "uint256",
          "name": "fid",
          "type": "uint256"
        },
        {
          "internalType": "uint256",
          "name": "LPTokenAmount",
          "type": "uint256"
        },
        {
          "internalType": "address",
          "name": "receiver",
          "type": "address"
        }
      ],
      "name": "withdraw",
      "outputs": [],
      "stateMutability": "nonpayable",
      "type": "function"
    },
    {
      "inputs": [
        {
          "internalType": "uint256",
          "name": "fid",
          "type": "uint256"
        },
        {
          "internalType": "uint256",
          "name": "LPTokenamount",
          "type": "uint256"
        },
        {
          "internalType": "address",
          "name": "receiver",
          "type": "address"
        }
      ],
      "name": "withdrawAndHarvest",
      "outputs": [],
      "stateMutability": "nonpayable",
      "type": "function"
    }
  ],
  "bytecode": "0x608060405260006007553480156200001657600080fd5b5060405162003b7d38038062003b7d83398181016040528101906200003c919062000349565b81600160006101000a81548173ffffffffffffffffffffffffffffffffffffffff021916908373ffffffffffffffffffffffffffffffffffffffff16021790555080600260006101000a81548173ffffffffffffffffffffffffffffffffffffffff021916908373ffffffffffffffffffffffffffffffffffffffff160217905550620000d36000801b84620000dc60201b60201c565b505050620003a5565b620000ee8282620000f260201b60201c565b5050565b620001048282620001e360201b60201c565b620001df57600160008084815260200190815260200160002060000160008373ffffffffffffffffffffffffffffffffffffffff1673ffffffffffffffffffffffffffffffffffffffff16815260200190815260200160002060006101000a81548160ff021916908315150217905550620001846200024d60201b60201c565b73ffffffffffffffffffffffffffffffffffffffff168173ffffffffffffffffffffffffffffffffffffffff16837f2f8788117e7eff1d82e926ec794901d17c78024a50270940304540a733656f0d60405160405180910390a45b5050565b600080600084815260200190815260200160002060000160008373ffffffffffffffffffffffffffffffffffffffff1673ffffffffffffffffffffffffffffffffffffffff16815260200190815260200160002060009054906101000a900460ff16905092915050565b600033905090565b600080fd5b600073ffffffffffffffffffffffffffffffffffffffff82169050919050565b600062000287826200025a565b9050919050565b62000299816200027a565b8114620002a557600080fd5b50565b600081519050620002b9816200028e565b92915050565b6000620002cc826200027a565b9050919050565b620002de81620002bf565b8114620002ea57600080fd5b50565b600081519050620002fe81620002d3565b92915050565b600062000311826200027a565b9050919050565b620003238162000304565b81146200032f57600080fd5b50565b600081519050620003438162000318565b92915050565b60008060006060848603121562000365576200036462000255565b5b60006200037586828701620002a8565b93505060206200038886828701620002ed565b92505060406200039b8682870162000332565b9150509250925092565b6137c880620003b56000396000f3fe608060405234801561001057600080fd5b50600436106101da5760003560e01c80638a48a515116101045780639bde8099116100a2578063cc430ced11610071578063cc430ced14610566578063d1abb90714610596578063d547741f146105b2578063defb3618146105ce576101da565b80639bde8099146104de578063a217fddf146104fa578063b60d428814610518578063c346253d14610536576101da565b80638fa82c88116100de5780638fa82c881461043157806391d148541461044d57806393f1a40b1461047d57806398969e82146104ae576101da565b80638a48a515146103d95780638dbdbe6d146103f75780638f10369a14610413576101da565b80632f2ff15d1161017c57806366da58151161014b57806366da58151461033f578063699bdca91461035b57806378ed5d1f146103775780637d21c967146103a7576101da565b80632f2ff15d146102cf5780632f940c70146102eb57806336568abe146103075780634a1a680314610323576101da565b806317caf6f1116101b857806317caf6f11461024757806318fccc7614610265578063228cb73314610281578063248a9ca31461029f576101da565b806301ffc9a7146101df5780630ad58d2f1461020f5780630e21750f1461022b575b600080fd5b6101f960048036038101906101f49190612640565b6105ea565b6040516102069190612688565b60405180910390f35b61022960048036038101906102249190612737565b610664565b005b610245600480360381019061024091906127c8565b6107f0565b005b61024f61088d565b60405161025c9190612804565b60405180910390f35b61027f600480360381019061027a919061281f565b610893565b005b610289610a75565b60405161029691906128be565b60405180910390f35b6102b960048036038101906102b4919061290f565b610a9b565b6040516102c6919061294b565b60405180910390f35b6102e960048036038101906102e49190612966565b610aba565b005b6103056004803603810190610300919061281f565b610ae3565b005b610321600480360381019061031c9190612966565b610c29565b005b61033d60048036038101906103389190612a10565b610cac565b005b61035960048036038101906103549190612a77565b610e35565b005b61037560048036038101906103709190612aa4565b610e8c565b005b610391600480360381019061038c9190612a77565b610f1e565b60405161039e91906128be565b60405180910390f35b6103c160048036038101906103bc9190612a77565b610f5d565b6040516103d093929190612ad1565b60405180910390f35b6103e1610f97565b6040516103ee9190612804565b60405180910390f35b610411600480360381019061040c9190612737565b610fa4565b005b61041b611132565b6040516104289190612804565b60405180910390f35b61044b60048036038101906104469190612b6d565b611138565b005b61046760048036038101906104629190612966565b611187565b6040516104749190612688565b60405180910390f35b6104976004803603810190610492919061281f565b6111f1565b6040516104a5929190612bd3565b60405180910390f35b6104c860048036038101906104c3919061281f565b611222565b6040516104d59190612804565b60405180910390f35b6104f860048036038101906104f39190612c3a565b61144d565b005b610502611521565b60405161050f919061294b565b60405180910390f35b610520611528565b60405161052d9190612c88565b60405180910390f35b610550600480360381019061054b9190612a77565b61154e565b60405161055d9190612cc4565b60405180910390f35b610580600480360381019061057b9190612a77565b61158d565b60405161058d9190612d30565b60405180910390f35b6105b060048036038101906105ab9190612737565b6117c5565b005b6105cc60048036038101906105c79190612966565b611a7d565b005b6105e860048036038101906105e39190612d4b565b611aa6565b005b60007f7965db0b000000000000000000000000000000000000000000000000000000007bffffffffffffffffffffffffffffffffffffffffffffffffffffffff1916827bffffffffffffffffffffffffffffffffffffffffffffffffffffffff1916148061065d575061065c82611c70565b5b9050919050565b600061066f8461158d565b905060006006600086815260200190815260200160002060003373ffffffffffffffffffffffffffffffffffffffff1673ffffffffffffffffffffffffffffffffffffffff168152602001908152602001600020905064e8d4a510008260000151856106db9190612dcd565b6106e59190612e56565b8160010160008282546106f89190612e87565b92505081905550838160000160008282546107139190612f1b565b9250508190555061078383856004888154811061073357610732612f4f565b5b9060005260206000200160009054906101000a900473ffffffffffffffffffffffffffffffffffffffff1673ffffffffffffffffffffffffffffffffffffffff16611cda9092919063ffffffff16565b8273ffffffffffffffffffffffffffffffffffffffff16853373ffffffffffffffffffffffffffffffffffffffff167fc9da9141b9ad9eed3c5b5d7e7799519c54f06cc3ee3f1c49c16f2f297660baef876040516107e19190612804565b60405180910390a45050505050565b6000801b61080581610800611d60565b611d68565b81600260006101000a81548173ffffffffffffffffffffffffffffffffffffffff021916908373ffffffffffffffffffffffffffffffffffffffff1602179055508173ffffffffffffffffffffffffffffffffffffffff167f3f791d163ad67bd54ebfd77208ced9c9e64ac4c2a74e1c9d0b5e2d417034dfdb60405160405180910390a25050565b60075481565b600061089e8361158d565b905060006006600085815260200190815260200160002060003373ffffffffffffffffffffffffffffffffffffffff1673ffffffffffffffffffffffffffffffffffffffff1681526020019081526020016000209050600064e8d4a51000836000015183600001546109109190612dcd565b61091a9190612e56565b9050600082600101548261092e9190612e87565b90508183600101819055506109786040518060400160405280600c81526020017f73656e646572206973203d20000000000000000000000000000000000000000081525033611e05565b600260009054906101000a900473ffffffffffffffffffffffffffffffffffffffff1673ffffffffffffffffffffffffffffffffffffffff16631ec8bb8c86836040518363ffffffff1660e01b81526004016109d5929190612f8d565b600060405180830381600087803b1580156109ef57600080fd5b505af1158015610a03573d6000803e3d6000fd5b505050508473ffffffffffffffffffffffffffffffffffffffff16863373ffffffffffffffffffffffffffffffffffffffff167f8019192f65b34fad6bf2766db2d26c808d77abc63af77b2ba2e329ab18aa8a0d84604051610a659190612804565b60405180910390a4505050505050565b600160009054906101000a900473ffffffffffffffffffffffffffffffffffffffff1681565b6000806000838152602001908152602001600020600101549050919050565b610ac382610a9b565b610ad481610acf611d60565b611d68565b610ade8383611ea1565b505050565b60006006600084815260200190815260200160002060003373ffffffffffffffffffffffffffffffffffffffff1673ffffffffffffffffffffffffffffffffffffffff16815260200190815260200160002090506000816000015490506000826000018190555060008260010181905550610bbd838260048781548110610b6d57610b6c612f4f565b5b9060005260206000200160009054906101000a900473ffffffffffffffffffffffffffffffffffffffff1673ffffffffffffffffffffffffffffffffffffffff16611cda9092919063ffffffff16565b8273ffffffffffffffffffffffffffffffffffffffff16843373ffffffffffffffffffffffffffffffffffffffff167f2cac5e20e1541d836381527a43f651851e302817b71dc8e810284e69210c1c6b84604051610c1b9190612804565b60405180910390a450505050565b610c31611d60565b73ffffffffffffffffffffffffffffffffffffffff168173ffffffffffffffffffffffffffffffffffffffff1614610c9e576040517f08c379a0000000000000000000000000000000000000000000000000000000008152600401610c9590613039565b60405180910390fd5b610ca88282611f81565b5050565b6000801b610cc181610cbc611d60565b611d68565b8360038681548110610cd657610cd5612f4f565b5b906000526020600020906003020160020154600754610cf59190612f1b565b610cff9190613059565b6007819055508360038681548110610d1a57610d19612f4f565b5b9060005260206000209060030201600201819055508115610d93578260058681548110610d4a57610d49612f4f565b5b9060005260206000200160006101000a81548173ffffffffffffffffffffffffffffffffffffffff021916908373ffffffffffffffffffffffffffffffffffffffff1602179055505b81610ddc5760058581548110610dac57610dab612f4f565b5b9060005260206000200160009054906101000a900473ffffffffffffffffffffffffffffffffffffffff16610dde565b825b73ffffffffffffffffffffffffffffffffffffffff16857f95895a6ab1df54420d241b55243258a33e61b2194db66c1179ec521aae8e18658685604051610e269291906130af565b60405180910390a35050505050565b6000801b610e4a81610e45611d60565b611d68565b816008819055507f951c6f64eb06ec6a6682072cda71420984dd55199006684bb820a80fd7e9879382604051610e809190612804565b60405180910390a15050565b6000600380549050905060005b81811015610f195760006006600083815260200190815260200160002060003373ffffffffffffffffffffffffffffffffffffffff1673ffffffffffffffffffffffffffffffffffffffff168152602001908152602001600020600001541115610f0857610f078184610893565b5b80610f12906130d8565b9050610e99565b505050565b60048181548110610f2e57600080fd5b906000526020600020016000915054906101000a900473ffffffffffffffffffffffffffffffffffffffff1681565b60038181548110610f6d57600080fd5b90600052602060002090600302016000915090508060000154908060010154908060020154905083565b6000600380549050905090565b6000610faf8461158d565b905060006006600086815260200190815260200160002060008473ffffffffffffffffffffffffffffffffffffffff1673ffffffffffffffffffffffffffffffffffffffff1681526020019081526020016000209050838160000160008282546110199190613059565b9250508190555064e8d4a510008260000151856110369190612dcd565b6110409190612e56565b8160010160008282546110539190613121565b925050819055506110c53330866004898154811061107457611073612f4f565b5b9060005260206000200160009054906101000a900473ffffffffffffffffffffffffffffffffffffffff1673ffffffffffffffffffffffffffffffffffffffff16612062909392919063ffffffff16565b8273ffffffffffffffffffffffffffffffffffffffff16853373ffffffffffffffffffffffffffffffffffffffff167f8f3ed488ccb8ee9d27a4cb66377f8127c651bd8f8b68df7b23d7b5676961787f876040516111239190612804565b60405180910390a45050505050565b60085481565b600082829050905060005b818110156111815761116d84848381811061116157611160612f4f565b5b9050602002013561158d565b508080611179906130d8565b915050611143565b50505050565b600080600084815260200190815260200160002060000160008373ffffffffffffffffffffffffffffffffffffffff1673ffffffffffffffffffffffffffffffffffffffff16815260200190815260200160002060009054906101000a900460ff16905092915050565b6006602052816000526040600020602052806000526040600020600091509150508060000154908060010154905082565b6000806003848154811061123957611238612f4f565b5b90600052602060002090600302016040518060600160405290816000820154815260200160018201548152602001600282015481525050905060006006600086815260200190815260200160002060008573ffffffffffffffffffffffffffffffffffffffff1673ffffffffffffffffffffffffffffffffffffffff16815260200190815260200160002090506000826000015190506000600487815481106112e5576112e4612f4f565b5b9060005260206000200160009054906101000a900473ffffffffffffffffffffffffffffffffffffffff1673ffffffffffffffffffffffffffffffffffffffff166370a08231306040518263ffffffff1660e01b815260040161134891906131b5565b602060405180830381865afa158015611365573d6000803e3d6000fd5b505050506040513d601f19601f8201168201806040525081019061138991906131e5565b905083602001514211801561139f575060008114155b156114125760008460200151426113b69190612f1b565b905060006007548660400151600854846113d09190612dcd565b6113da9190612dcd565b6113e49190612e56565b90508264e8d4a51000826113f89190612dcd565b6114029190612e56565b8461140d9190613059565b935050505b826001015464e8d4a5100083856000015461142d9190612dcd565b6114379190612e56565b6114419190612e87565b94505050505092915050565b60005b60038054905081101561151d578173ffffffffffffffffffffffffffffffffffffffff166004828154811061148857611487612f4f565b5b9060005260206000200160009054906101000a900473ffffffffffffffffffffffffffffffffffffffff1673ffffffffffffffffffffffffffffffffffffffff16141561150a576040517f08c379a00000000000000000000000000000000000000000000000000000000081526004016115019061325e565b60405180910390fd5b8080611515906130d8565b915050611450565b5050565b6000801b81565b600260009054906101000a900473ffffffffffffffffffffffffffffffffffffffff1681565b6005818154811061155e57600080fd5b906000526020600020016000915054906101000a900473ffffffffffffffffffffffffffffffffffffffff1681565b6115956125bd565b600382815481106115a9576115a8612f4f565b5b90600052602060002090600302016040518060600160405290816000820154815260200160018201548152602001600282015481525050905042816020015110156117c05760006004838154811061160457611603612f4f565b5b9060005260206000200160009054906101000a900473ffffffffffffffffffffffffffffffffffffffff1673ffffffffffffffffffffffffffffffffffffffff166370a08231306040518263ffffffff1660e01b815260040161166791906131b5565b602060405180830381865afa158015611684573d6000803e3d6000fd5b505050506040513d601f19601f820116820180604052508101906116a891906131e5565b9050600081111561172c5760008260200151426116c59190612f1b565b905060006007548460400151600854846116df9190612dcd565b6116e99190612dcd565b6116f39190612e56565b90508264e8d4a51000826117079190612dcd565b6117119190612e56565b846000018181516117229190613059565b9150818152505050505b42826020018181525050816003848154811061174b5761174a612f4f565b5b9060005260206000209060030201600082015181600001556020820151816001015560408201518160020155905050827f7afa65e874128c36660ee87dc188d5db7715c3183d701645e98701b5ef8cd91383602001518385600001516040516117b693929190612ad1565b60405180910390a2505b919050565b60006117d08461158d565b905060006006600086815260200190815260200160002060003373ffffffffffffffffffffffffffffffffffffffff1673ffffffffffffffffffffffffffffffffffffffff1681526020019081526020016000209050600064e8d4a51000836000015183600001546118429190612dcd565b61184c9190612e56565b905060008260010154826118609190612e87565b905064e8d4a510008460000151876118789190612dcd565b6118829190612e56565b8261188d9190612e87565b8360010181905550858360000160008282546118a99190612f1b565b92505081905550600260009054906101000a900473ffffffffffffffffffffffffffffffffffffffff1673ffffffffffffffffffffffffffffffffffffffff16631ec8bb8c86886040518363ffffffff1660e01b815260040161190d929190612f8d565b600060405180830381600087803b15801561192757600080fd5b505af115801561193b573d6000803e3d6000fd5b505050506119a8858760048a8154811061195857611957612f4f565b5b9060005260206000200160009054906101000a900473ffffffffffffffffffffffffffffffffffffffff1673ffffffffffffffffffffffffffffffffffffffff16611cda9092919063ffffffff16565b8473ffffffffffffffffffffffffffffffffffffffff16873373ffffffffffffffffffffffffffffffffffffffff167fc9da9141b9ad9eed3c5b5d7e7799519c54f06cc3ee3f1c49c16f2f297660baef89604051611a069190612804565b60405180910390a48473ffffffffffffffffffffffffffffffffffffffff16873373ffffffffffffffffffffffffffffffffffffffff167f8019192f65b34fad6bf2766db2d26c808d77abc63af77b2ba2e329ab18aa8a0d84604051611a6c9190612804565b60405180910390a450505050505050565b611a8682610a9b565b611a9781611a92611d60565b611d68565b611aa18383611f81565b505050565b6000801b611abb81611ab6611d60565b611d68565b611ac48361144d565b8360076000828254611ad69190613059565b92505081905550600360405180606001604052806000815260200142815260200186815250908060018154018082558091505060019003906000526020600020906003020160009091909190915060008201518160000155602082015181600101556040820151816002015550506004839080600181540180825580915050600190039060005260206000200160009091909190916101000a81548173ffffffffffffffffffffffffffffffffffffffff021916908373ffffffffffffffffffffffffffffffffffffffff1602179055506005829080600181540180825580915050600190039060005260206000200160009091909190916101000a81548173ffffffffffffffffffffffffffffffffffffffff021916908373ffffffffffffffffffffffffffffffffffffffff1602179055508273ffffffffffffffffffffffffffffffffffffffff166001600480549050611c339190612f1b565b7f61c9bf39bb035d6f43bf12aa7b22bfec1d61788e90b7249fad7625529c11518186604051611c629190612804565b60405180910390a350505050565b60007f01ffc9a7000000000000000000000000000000000000000000000000000000007bffffffffffffffffffffffffffffffffffffffffffffffffffffffff1916827bffffffffffffffffffffffffffffffffffffffffffffffffffffffff1916149050919050565b611d5b8363a9059cbb60e01b8484604051602401611cf9929190612f8d565b604051602081830303815290604052907bffffffffffffffffffffffffffffffffffffffffffffffffffffffff19166020820180517bffffffffffffffffffffffffffffffffffffffffffffffffffffffff83818316178352505050506120eb565b505050565b600033905090565b611d728282611187565b611e0157611d978173ffffffffffffffffffffffffffffffffffffffff1660146121b2565b611da58360001c60206121b2565b604051602001611db6929190613390565b6040516020818303038152906040526040517f08c379a0000000000000000000000000000000000000000000000000000000008152600401611df89190613414565b60405180910390fd5b5050565b611e9d8282604051602401611e1b929190613436565b6040516020818303038152906040527f319af333000000000000000000000000000000000000000000000000000000007bffffffffffffffffffffffffffffffffffffffffffffffffffffffff19166020820180517bffffffffffffffffffffffffffffffffffffffffffffffffffffffff83818316178352505050506123ee565b5050565b611eab8282611187565b611f7d57600160008084815260200190815260200160002060000160008373ffffffffffffffffffffffffffffffffffffffff1673ffffffffffffffffffffffffffffffffffffffff16815260200190815260200160002060006101000a81548160ff021916908315150217905550611f22611d60565b73ffffffffffffffffffffffffffffffffffffffff168173ffffffffffffffffffffffffffffffffffffffff16837f2f8788117e7eff1d82e926ec794901d17c78024a50270940304540a733656f0d60405160405180910390a45b5050565b611f8b8282611187565b1561205e57600080600084815260200190815260200160002060000160008373ffffffffffffffffffffffffffffffffffffffff1673ffffffffffffffffffffffffffffffffffffffff16815260200190815260200160002060006101000a81548160ff021916908315150217905550612003611d60565b73ffffffffffffffffffffffffffffffffffffffff168173ffffffffffffffffffffffffffffffffffffffff16837ff6391f5c32d9c69d2a47ea670b442974b53935d1edc7fd64eb21e047a839171b60405160405180910390a45b5050565b6120e5846323b872dd60e01b85858560405160240161208393929190613466565b604051602081830303815290604052907bffffffffffffffffffffffffffffffffffffffffffffffffffffffff19166020820180517bffffffffffffffffffffffffffffffffffffffffffffffffffffffff83818316178352505050506120eb565b50505050565b600061214d826040518060400160405280602081526020017f5361666545524332303a206c6f772d6c6576656c2063616c6c206661696c65648152508573ffffffffffffffffffffffffffffffffffffffff166124179092919063ffffffff16565b90506000815111156121ad578080602001905181019061216d91906134b2565b6121ac576040517f08c379a00000000000000000000000000000000000000000000000000000000081526004016121a390613551565b60405180910390fd5b5b505050565b6060600060028360026121c59190612dcd565b6121cf9190613059565b67ffffffffffffffff8111156121e8576121e7613571565b5b6040519080825280601f01601f19166020018201604052801561221a5781602001600182028036833780820191505090505b5090507f30000000000000000000000000000000000000000000000000000000000000008160008151811061225257612251612f4f565b5b60200101907effffffffffffffffffffffffffffffffffffffffffffffffffffffffffffff1916908160001a9053507f7800000000000000000000000000000000000000000000000000000000000000816001815181106122b6576122b5612f4f565b5b60200101907effffffffffffffffffffffffffffffffffffffffffffffffffffffffffffff1916908160001a905350600060018460026122f69190612dcd565b6123009190613059565b90505b60018111156123a0577f3031323334353637383961626364656600000000000000000000000000000000600f86166010811061234257612341612f4f565b5b1a60f81b82828151811061235957612358612f4f565b5b60200101907effffffffffffffffffffffffffffffffffffffffffffffffffffffffffffff1916908160001a905350600485901c945080612399906135a0565b9050612303565b50600084146123e4576040517f08c379a00000000000000000000000000000000000000000000000000000000081526004016123db90613616565b60405180910390fd5b8091505092915050565b60008151905060006a636f6e736f6c652e6c6f679050602083016000808483855afa5050505050565b6060612426848460008561242f565b90509392505050565b606082471015612474576040517f08c379a000000000000000000000000000000000000000000000000000000000815260040161246b906136a8565b60405180910390fd5b61247d85612543565b6124bc576040517f08c379a00000000000000000000000000000000000000000000000000000000081526004016124b390613714565b60405180910390fd5b6000808673ffffffffffffffffffffffffffffffffffffffff1685876040516124e5919061377b565b60006040518083038185875af1925050503d8060008114612522576040519150601f19603f3d011682016040523d82523d6000602084013e612527565b606091505b5091509150612537828286612556565b92505050949350505050565b600080823b905060008111915050919050565b60608315612566578290506125b6565b6000835111156125795782518084602001fd5b816040517f08c379a00000000000000000000000000000000000000000000000000000000081526004016125ad9190613414565b60405180910390fd5b9392505050565b60405180606001604052806000815260200160008152602001600081525090565b600080fd5b600080fd5b60007fffffffff0000000000000000000000000000000000000000000000000000000082169050919050565b61261d816125e8565b811461262857600080fd5b50565b60008135905061263a81612614565b92915050565b600060208284031215612656576126556125de565b5b60006126648482850161262b565b91505092915050565b60008115159050919050565b6126828161266d565b82525050565b600060208201905061269d6000830184612679565b92915050565b6000819050919050565b6126b6816126a3565b81146126c157600080fd5b50565b6000813590506126d3816126ad565b92915050565b600073ffffffffffffffffffffffffffffffffffffffff82169050919050565b6000612704826126d9565b9050919050565b612714816126f9565b811461271f57600080fd5b50565b6000813590506127318161270b565b92915050565b6000806000606084860312156127505761274f6125de565b5b600061275e868287016126c4565b935050602061276f868287016126c4565b925050604061278086828701612722565b9150509250925092565b6000612795826126f9565b9050919050565b6127a58161278a565b81146127b057600080fd5b50565b6000813590506127c28161279c565b92915050565b6000602082840312156127de576127dd6125de565b5b60006127ec848285016127b3565b91505092915050565b6127fe816126a3565b82525050565b600060208201905061281960008301846127f5565b92915050565b60008060408385031215612836576128356125de565b5b6000612844858286016126c4565b925050602061285585828601612722565b9150509250929050565b6000819050919050565b600061288461287f61287a846126d9565b61285f565b6126d9565b9050919050565b600061289682612869565b9050919050565b60006128a88261288b565b9050919050565b6128b88161289d565b82525050565b60006020820190506128d360008301846128af565b92915050565b6000819050919050565b6128ec816128d9565b81146128f757600080fd5b50565b600081359050612909816128e3565b92915050565b600060208284031215612925576129246125de565b5b6000612933848285016128fa565b91505092915050565b612945816128d9565b82525050565b6000602082019050612960600083018461293c565b92915050565b6000806040838503121561297d5761297c6125de565b5b600061298b858286016128fa565b925050602061299c85828601612722565b9150509250929050565b60006129b1826126f9565b9050919050565b6129c1816129a6565b81146129cc57600080fd5b50565b6000813590506129de816129b8565b92915050565b6129ed8161266d565b81146129f857600080fd5b50565b600081359050612a0a816129e4565b92915050565b60008060008060808587031215612a2a57612a296125de565b5b6000612a38878288016126c4565b9450506020612a49878288016126c4565b9350506040612a5a878288016129cf565b9250506060612a6b878288016129fb565b91505092959194509250565b600060208284031215612a8d57612a8c6125de565b5b6000612a9b848285016126c4565b91505092915050565b600060208284031215612aba57612ab96125de565b5b6000612ac884828501612722565b91505092915050565b6000606082019050612ae660008301866127f5565b612af360208301856127f5565b612b0060408301846127f5565b949350505050565b600080fd5b600080fd5b600080fd5b60008083601f840112612b2d57612b2c612b08565b5b8235905067ffffffffffffffff811115612b4a57612b49612b0d565b5b602083019150836020820283011115612b6657612b65612b12565b5b9250929050565b60008060208385031215612b8457612b836125de565b5b600083013567ffffffffffffffff811115612ba257612ba16125e3565b5b612bae85828601612b17565b92509250509250929050565b6000819050919050565b612bcd81612bba565b82525050565b6000604082019050612be860008301856127f5565b612bf56020830184612bc4565b9392505050565b6000612c07826126f9565b9050919050565b612c1781612bfc565b8114612c2257600080fd5b50565b600081359050612c3481612c0e565b92915050565b600060208284031215612c5057612c4f6125de565b5b6000612c5e84828501612c25565b91505092915050565b6000612c728261288b565b9050919050565b612c8281612c67565b82525050565b6000602082019050612c9d6000830184612c79565b92915050565b6000612cae8261288b565b9050919050565b612cbe81612ca3565b82525050565b6000602082019050612cd96000830184612cb5565b92915050565b612ce8816126a3565b82525050565b606082016000820151612d046000850182612cdf565b506020820151612d176020850182612cdf565b506040820151612d2a6040850182612cdf565b50505050565b6000606082019050612d456000830184612cee565b92915050565b600080600060608486031215612d6457612d636125de565b5b6000612d72868287016126c4565b9350506020612d8386828701612c25565b9250506040612d94868287016129cf565b9150509250925092565b7f4e487b7100000000000000000000000000000000000000000000000000000000600052601160045260246000fd5b6000612dd8826126a3565b9150612de3836126a3565b9250817fffffffffffffffffffffffffffffffffffffffffffffffffffffffffffffffff0483118215151615612e1c57612e1b612d9e565b5b828202905092915050565b7f4e487b7100000000000000000000000000000000000000000000000000000000600052601260045260246000fd5b6000612e61826126a3565b9150612e6c836126a3565b925082612e7c57612e7b612e27565b5b828204905092915050565b6000612e9282612bba565b9150612e9d83612bba565b9250827f800000000000000000000000000000000000000000000000000000000000000001821260008412151615612ed857612ed7612d9e565b5b827f7fffffffffffffffffffffffffffffffffffffffffffffffffffffffffffffff018213600084121615612f1057612f0f612d9e565b5b828203905092915050565b6000612f26826126a3565b9150612f31836126a3565b925082821015612f4457612f43612d9e565b5b828203905092915050565b7f4e487b7100000000000000000000000000000000000000000000000000000000600052603260045260246000fd5b612f87816126f9565b82525050565b6000604082019050612fa26000830185612f7e565b612faf60208301846127f5565b9392505050565b600082825260208201905092915050565b7f416363657373436f6e74726f6c3a2063616e206f6e6c792072656e6f756e636560008201527f20726f6c657320666f722073656c660000000000000000000000000000000000602082015250565b6000613023602f83612fb6565b915061302e82612fc7565b604082019050919050565b6000602082019050818103600083015261305281613016565b9050919050565b6000613064826126a3565b915061306f836126a3565b9250827fffffffffffffffffffffffffffffffffffffffffffffffffffffffffffffffff038211156130a4576130a3612d9e565b5b828201905092915050565b60006040820190506130c460008301856127f5565b6130d16020830184612679565b9392505050565b60006130e3826126a3565b91507fffffffffffffffffffffffffffffffffffffffffffffffffffffffffffffffff82141561311657613115612d9e565b5b600182019050919050565b600061312c82612bba565b915061313783612bba565b9250817f7fffffffffffffffffffffffffffffffffffffffffffffffffffffffffffffff0383136000831215161561317257613171612d9e565b5b817f80000000000000000000000000000000000000000000000000000000000000000383126000831216156131aa576131a9612d9e565b5b828201905092915050565b60006020820190506131ca6000830184612f7e565b92915050565b6000815190506131df816126ad565b92915050565b6000602082840312156131fb576131fa6125de565b5b6000613209848285016131d0565b91505092915050565b7f4661726d2065786973747320616c726561647900000000000000000000000000600082015250565b6000613248601383612fb6565b915061325382613212565b602082019050919050565b600060208201905081810360008301526132778161323b565b9050919050565b600081905092915050565b7f416363657373436f6e74726f6c3a206163636f756e7420000000000000000000600082015250565b60006132bf60178361327e565b91506132ca82613289565b601782019050919050565b600081519050919050565b60005b838110156132fe5780820151818401526020810190506132e3565b8381111561330d576000848401525b50505050565b600061331e826132d5565b613328818561327e565b93506133388185602086016132e0565b80840191505092915050565b7f206973206d697373696e6720726f6c6520000000000000000000000000000000600082015250565b600061337a60118361327e565b915061338582613344565b601182019050919050565b600061339b826132b2565b91506133a78285613313565b91506133b28261336d565b91506133be8284613313565b91508190509392505050565b6000601f19601f8301169050919050565b60006133e6826132d5565b6133f08185612fb6565b93506134008185602086016132e0565b613409816133ca565b840191505092915050565b6000602082019050818103600083015261342e81846133db565b905092915050565b6000604082019050818103600083015261345081856133db565b905061345f6020830184612f7e565b9392505050565b600060608201905061347b6000830186612f7e565b6134886020830185612f7e565b61349560408301846127f5565b949350505050565b6000815190506134ac816129e4565b92915050565b6000602082840312156134c8576134c76125de565b5b60006134d68482850161349d565b91505092915050565b7f5361666545524332303a204552433230206f7065726174696f6e20646964206e60008201527f6f74207375636365656400000000000000000000000000000000000000000000602082015250565b600061353b602a83612fb6565b9150613546826134df565b604082019050919050565b6000602082019050818103600083015261356a8161352e565b9050919050565b7f4e487b7100000000000000000000000000000000000000000000000000000000600052604160045260246000fd5b60006135ab826126a3565b915060008214156135bf576135be612d9e565b5b600182039050919050565b7f537472696e67733a20686578206c656e67746820696e73756666696369656e74600082015250565b6000613600602083612fb6565b915061360b826135ca565b602082019050919050565b6000602082019050818103600083015261362f816135f3565b9050919050565b7f416464726573733a20696e73756666696369656e742062616c616e636520666f60008201527f722063616c6c0000000000000000000000000000000000000000000000000000602082015250565b6000613692602683612fb6565b915061369d82613636565b604082019050919050565b600060208201905081810360008301526136c181613685565b9050919050565b7f416464726573733a2063616c6c20746f206e6f6e2d636f6e7472616374000000600082015250565b60006136fe601d83612fb6565b9150613709826136c8565b602082019050919050565b6000602082019050818103600083015261372d816136f1565b9050919050565b600081519050919050565b600081905092915050565b600061375582613734565b61375f818561373f565b935061376f8185602086016132e0565b80840191505092915050565b6000613787828461374a565b91508190509291505056fea2646970667358221220ba83e7ee0b391ae8ffe5f9ef31667ca2c0c9290ec46f679f21c8862ecf0ebf1564736f6c634300080a0033",
  "linkReferences": {},
  "deployedLinkReferences": {}
}