{
  "_format": "hh-sol-artifact-1",
  "contractName": "LFiFarms",
  "sourceName": "contracts/LFiFarms.sol",
  "abi": [
    {
      "anonymous": false,
      "inputs": [
        {
          "indexed": true,
          "internalType": "address",
          "name": "user",
          "type": "address"
        },
        {
          "indexed": true,
          "internalType": "uint256",
          "name": "fid",
          "type": "uint256"
        },
        {
          "indexed": false,
          "internalType": "uint256",
          "name": "amount",
          "type": "uint256"
        },
        {
          "indexed": true,
          "internalType": "address",
          "name": "receiver",
          "type": "address"
        }
      ],
      "name": "EmergencyWithdraw",
      "type": "event"
    },
    {
      "anonymous": false,
      "inputs": [
        {
          "indexed": true,
          "internalType": "uint256",
          "name": "fid",
          "type": "uint256"
        },
        {
          "indexed": false,
          "internalType": "uint256",
          "name": "allocatedPoints",
          "type": "uint256"
        },
        {
          "indexed": true,
          "internalType": "contract IERC20Upgradeable",
          "name": "lpToken",
          "type": "address"
        }
      ],
      "name": "FarmCreated",
      "type": "event"
    },
    {
      "anonymous": false,
      "inputs": [
        {
          "indexed": true,
          "internalType": "address",
          "name": "depositor",
          "type": "address"
        },
        {
          "indexed": true,
          "internalType": "uint256",
          "name": "fid",
          "type": "uint256"
        },
        {
          "indexed": false,
          "internalType": "uint256",
          "name": "amount",
          "type": "uint256"
        },
        {
          "indexed": true,
          "internalType": "address",
          "name": "benefitor",
          "type": "address"
        }
      ],
      "name": "FarmDeposit",
      "type": "event"
    },
    {
      "anonymous": false,
      "inputs": [
        {
          "indexed": true,
          "internalType": "address",
          "name": "fund",
          "type": "address"
        }
      ],
      "name": "FarmFundChanged",
      "type": "event"
    },
    {
      "anonymous": false,
      "inputs": [
        {
          "indexed": true,
          "internalType": "address",
          "name": "requestor",
          "type": "address"
        },
        {
          "indexed": true,
          "internalType": "uint256",
          "name": "fid",
          "type": "uint256"
        },
        {
          "indexed": false,
          "internalType": "uint256",
          "name": "amount",
          "type": "uint256"
        },
        {
          "indexed": true,
          "internalType": "address",
          "name": "receiver",
          "type": "address"
        }
      ],
      "name": "FarmHarvest",
      "type": "event"
    },
    {
      "anonymous": false,
      "inputs": [
        {
          "indexed": true,
          "internalType": "uint256",
          "name": "fid",
          "type": "uint256"
        },
        {
          "indexed": false,
          "internalType": "uint256",
          "name": "lastRewardTime",
          "type": "uint256"
        },
        {
          "indexed": false,
          "internalType": "uint256",
          "name": "lpSupply",
          "type": "uint256"
        },
        {
          "indexed": false,
          "internalType": "uint256",
          "name": "accRewardPerShare",
          "type": "uint256"
        }
      ],
      "name": "FarmUpdated",
      "type": "event"
    },
    {
      "anonymous": false,
      "inputs": [
        {
          "indexed": true,
          "internalType": "address",
          "name": "requestor",
          "type": "address"
        },
        {
          "indexed": true,
          "internalType": "uint256",
          "name": "fid",
          "type": "uint256"
        },
        {
          "indexed": false,
          "internalType": "uint256",
          "name": "amount",
          "type": "uint256"
        },
        {
          "indexed": true,
          "internalType": "address",
          "name": "receiver",
          "type": "address"
        }
      ],
      "name": "FarmWithdraw",
      "type": "event"
    },
    {
      "anonymous": false,
      "inputs": [
        {
          "indexed": true,
          "internalType": "uint256",
          "name": "fid",
          "type": "uint256"
        },
        {
          "indexed": false,
          "internalType": "uint256",
          "name": "allocPoint",
          "type": "uint256"
        },
        {
          "indexed": false,
          "internalType": "bool",
          "name": "overwrite",
          "type": "bool"
        }
      ],
      "name": "LogSetPool",
      "type": "event"
    },
    {
      "anonymous": false,
      "inputs": [
        {
          "indexed": false,
          "internalType": "uint256",
          "name": "newRewardPerSecond",
          "type": "uint256"
        }
      ],
      "name": "RewardPerSecondUpdated",
      "type": "event"
    },
    {
      "anonymous": false,
      "inputs": [
        {
          "indexed": true,
          "internalType": "bytes32",
          "name": "role",
          "type": "bytes32"
        },
        {
          "indexed": true,
          "internalType": "bytes32",
          "name": "previousAdminRole",
          "type": "bytes32"
        },
        {
          "indexed": true,
          "internalType": "bytes32",
          "name": "newAdminRole",
          "type": "bytes32"
        }
      ],
      "name": "RoleAdminChanged",
      "type": "event"
    },
    {
      "anonymous": false,
      "inputs": [
        {
          "indexed": true,
          "internalType": "bytes32",
          "name": "role",
          "type": "bytes32"
        },
        {
          "indexed": true,
          "internalType": "address",
          "name": "account",
          "type": "address"
        },
        {
          "indexed": true,
          "internalType": "address",
          "name": "sender",
          "type": "address"
        }
      ],
      "name": "RoleGranted",
      "type": "event"
    },
    {
      "anonymous": false,
      "inputs": [
        {
          "indexed": true,
          "internalType": "bytes32",
          "name": "role",
          "type": "bytes32"
        },
        {
          "indexed": true,
          "internalType": "address",
          "name": "account",
          "type": "address"
        },
        {
          "indexed": true,
          "internalType": "address",
          "name": "sender",
          "type": "address"
        }
      ],
      "name": "RoleRevoked",
      "type": "event"
    },
    {
      "inputs": [],
      "name": "DEFAULT_ADMIN_ROLE",
      "outputs": [
        {
          "internalType": "bytes32",
          "name": "",
          "type": "bytes32"
        }
      ],
      "stateMutability": "view",
      "type": "function"
    },
    {
      "inputs": [],
      "name": "MANAGER_ROLE",
      "outputs": [
        {
          "internalType": "bytes32",
          "name": "",
          "type": "bytes32"
        }
      ],
      "stateMutability": "view",
      "type": "function"
    },
    {
      "inputs": [
        {
          "internalType": "contract IERC20Upgradeable",
          "name": "_token",
          "type": "address"
        }
      ],
      "name": "checkFarmDoesntExist",
      "outputs": [],
      "stateMutability": "view",
      "type": "function"
    },
    {
      "inputs": [
        {
          "internalType": "uint256",
          "name": "allocPoint",
          "type": "uint256"
        },
        {
          "internalType": "contract IERC20Upgradeable",
          "name": "poolToken",
          "type": "address"
        }
      ],
      "name": "createFarm",
      "outputs": [],
      "stateMutability": "nonpayable",
      "type": "function"
    },
    {
      "inputs": [
        {
          "internalType": "uint256",
          "name": "fid",
          "type": "uint256"
        },
        {
          "internalType": "uint256",
          "name": "lpAmount",
          "type": "uint256"
        },
        {
          "internalType": "address",
          "name": "benefitor",
          "type": "address"
        }
      ],
      "name": "deposit",
      "outputs": [],
      "stateMutability": "nonpayable",
      "type": "function"
    },
    {
      "inputs": [
        {
          "internalType": "uint256",
          "name": "fid",
          "type": "uint256"
        },
        {
          "internalType": "address",
          "name": "receiver",
          "type": "address"
        }
      ],
      "name": "emergencyWithdraw",
      "outputs": [],
      "stateMutability": "nonpayable",
      "type": "function"
    },
    {
      "inputs": [],
      "name": "farmLength",
      "outputs": [
        {
          "internalType": "uint256",
          "name": "farms",
          "type": "uint256"
        }
      ],
      "stateMutability": "view",
      "type": "function"
    },
    {
      "inputs": [],
      "name": "fund",
      "outputs": [
        {
          "internalType": "contract IFundDistributor",
          "name": "",
          "type": "address"
        }
      ],
      "stateMutability": "view",
      "type": "function"
    },
    {
      "inputs": [
        {
          "internalType": "bytes32",
          "name": "role",
          "type": "bytes32"
        }
      ],
      "name": "getRoleAdmin",
      "outputs": [
        {
          "internalType": "bytes32",
          "name": "",
          "type": "bytes32"
        }
      ],
      "stateMutability": "view",
      "type": "function"
    },
    {
      "inputs": [
        {
          "internalType": "address",
          "name": "user",
          "type": "address"
        },
        {
          "internalType": "uint256",
          "name": "farmID",
          "type": "uint256"
        }
      ],
      "name": "getUserAmount",
      "outputs": [
        {
          "internalType": "uint256",
          "name": "",
          "type": "uint256"
        }
      ],
      "stateMutability": "view",
      "type": "function"
    },
    {
      "inputs": [
        {
          "internalType": "address",
          "name": "user",
          "type": "address"
        },
        {
          "internalType": "uint256",
          "name": "farmID",
          "type": "uint256"
        }
      ],
      "name": "getUserRewardDebt",
      "outputs": [
        {
          "internalType": "int256",
          "name": "",
          "type": "int256"
        }
      ],
      "stateMutability": "view",
      "type": "function"
    },
    {
      "inputs": [
        {
          "internalType": "bytes32",
          "name": "role",
          "type": "bytes32"
        },
        {
          "internalType": "address",
          "name": "account",
          "type": "address"
        }
      ],
      "name": "grantRole",
      "outputs": [],
      "stateMutability": "nonpayable",
      "type": "function"
    },
    {
      "inputs": [
        {
          "internalType": "uint256",
          "name": "fid",
          "type": "uint256"
        },
        {
          "internalType": "address",
          "name": "receiver",
          "type": "address"
        }
      ],
      "name": "harvest",
      "outputs": [],
      "stateMutability": "nonpayable",
      "type": "function"
    },
    {
      "inputs": [
        {
          "internalType": "address",
          "name": "receiver",
          "type": "address"
        }
      ],
      "name": "harvestAll",
      "outputs": [],
      "stateMutability": "nonpayable",
      "type": "function"
    },
    {
      "inputs": [
        {
          "internalType": "bytes32",
          "name": "role",
          "type": "bytes32"
        },
        {
          "internalType": "address",
          "name": "account",
          "type": "address"
        }
      ],
      "name": "hasRole",
      "outputs": [
        {
          "internalType": "bool",
          "name": "",
          "type": "bool"
        }
      ],
      "stateMutability": "view",
      "type": "function"
    },
    {
      "inputs": [
        {
          "internalType": "address",
          "name": "admin",
          "type": "address"
        },
        {
          "internalType": "contract IERC20Upgradeable",
          "name": "rewardToken",
          "type": "address"
        },
        {
          "internalType": "contract IFundDistributor",
          "name": "fundContract",
          "type": "address"
        }
      ],
      "name": "intialize",
      "outputs": [],
      "stateMutability": "nonpayable",
      "type": "function"
    },
    {
      "inputs": [
        {
          "internalType": "uint256",
          "name": "",
          "type": "uint256"
        }
      ],
      "name": "lpToken",
      "outputs": [
        {
          "internalType": "contract IERC20Upgradeable",
          "name": "",
          "type": "address"
        }
      ],
      "stateMutability": "view",
      "type": "function"
    },
    {
      "inputs": [
        {
          "internalType": "uint256[]",
          "name": "fids",
          "type": "uint256[]"
        }
      ],
      "name": "massUpdateFarms",
      "outputs": [],
      "stateMutability": "nonpayable",
      "type": "function"
    },
    {
      "inputs": [
        {
          "internalType": "uint256",
          "name": "_fid",
          "type": "uint256"
        },
        {
          "internalType": "address",
          "name": "_user",
          "type": "address"
        }
      ],
      "name": "pendingReward",
      "outputs": [
        {
          "internalType": "uint256",
          "name": "pendingRewards",
          "type": "uint256"
        }
      ],
      "stateMutability": "view",
      "type": "function"
    },
    {
      "inputs": [
        {
          "internalType": "bytes32",
          "name": "role",
          "type": "bytes32"
        },
        {
          "internalType": "address",
          "name": "account",
          "type": "address"
        }
      ],
      "name": "renounceRole",
      "outputs": [],
      "stateMutability": "nonpayable",
      "type": "function"
    },
    {
      "inputs": [
        {
          "internalType": "bytes32",
          "name": "role",
          "type": "bytes32"
        },
        {
          "internalType": "address",
          "name": "account",
          "type": "address"
        }
      ],
      "name": "revokeRole",
      "outputs": [],
      "stateMutability": "nonpayable",
      "type": "function"
    },
    {
      "inputs": [],
      "name": "reward",
      "outputs": [
        {
          "internalType": "contract IERC20Upgradeable",
          "name": "",
          "type": "address"
        }
      ],
      "stateMutability": "view",
      "type": "function"
    },
    {
      "inputs": [],
      "name": "rewardPerSecond",
      "outputs": [
        {
          "internalType": "uint256",
          "name": "",
          "type": "uint256"
        }
      ],
      "stateMutability": "view",
      "type": "function"
    },
    {
      "inputs": [
        {
          "internalType": "uint256",
          "name": "fid",
          "type": "uint256"
        },
        {
          "internalType": "uint256",
          "name": "allocPoint",
          "type": "uint256"
        },
        {
          "internalType": "bool",
          "name": "overwrite",
          "type": "bool"
        }
      ],
      "name": "setFarm",
      "outputs": [],
      "stateMutability": "nonpayable",
      "type": "function"
    },
    {
      "inputs": [
        {
          "internalType": "contract IFundDistributor",
          "name": "fundContract",
          "type": "address"
        }
      ],
      "name": "setFund",
      "outputs": [],
      "stateMutability": "nonpayable",
      "type": "function"
    },
    {
      "inputs": [
        {
          "internalType": "uint256",
          "name": "rewardPerEverySecond",
          "type": "uint256"
        },
        {
          "internalType": "uint256[]",
          "name": "fids",
          "type": "uint256[]"
        }
      ],
      "name": "setRewardPerSecond",
      "outputs": [],
      "stateMutability": "nonpayable",
      "type": "function"
    },
    {
      "inputs": [
        {
          "internalType": "bytes4",
          "name": "interfaceId",
          "type": "bytes4"
        }
      ],
      "name": "supportsInterface",
      "outputs": [
        {
          "internalType": "bool",
          "name": "",
          "type": "bool"
        }
      ],
      "stateMutability": "view",
      "type": "function"
    },
    {
      "inputs": [],
      "name": "totalAllocPoint",
      "outputs": [
        {
          "internalType": "uint256",
          "name": "",
          "type": "uint256"
        }
      ],
      "stateMutability": "view",
      "type": "function"
    },
    {
      "inputs": [
        {
          "internalType": "uint256",
          "name": "fid",
          "type": "uint256"
        }
      ],
      "name": "updateFarm",
      "outputs": [
        {
          "components": [
            {
              "internalType": "uint256",
              "name": "accRewardPerShare",
              "type": "uint256"
            },
            {
              "internalType": "uint256",
              "name": "lastRewardTime",
              "type": "uint256"
            },
            {
              "internalType": "uint256",
              "name": "allocPoint",
              "type": "uint256"
            }
          ],
          "internalType": "struct LFiFarms.FarmInfo",
          "name": "farm",
          "type": "tuple"
        }
      ],
      "stateMutability": "nonpayable",
      "type": "function"
    },
    {
      "inputs": [
        {
          "internalType": "uint256",
          "name": "fid",
          "type": "uint256"
        },
        {
          "internalType": "uint256",
          "name": "LPTokenAmount",
          "type": "uint256"
        },
        {
          "internalType": "address",
          "name": "receiver",
          "type": "address"
        }
      ],
      "name": "withdraw",
      "outputs": [],
      "stateMutability": "nonpayable",
      "type": "function"
    },
    {
      "inputs": [
        {
          "internalType": "uint256",
          "name": "fid",
          "type": "uint256"
        },
        {
          "internalType": "uint256",
          "name": "LPTokenamount",
          "type": "uint256"
        },
        {
          "internalType": "address",
          "name": "receiver",
          "type": "address"
        }
      ],
      "name": "withdrawAndHarvest",
      "outputs": [],
      "stateMutability": "nonpayable",
      "type": "function"
    }
  ],
  "bytecode": "0x608060405234801561001057600080fd5b50611f83806100206000396000f3fe608060405234801561001057600080fd5b50600436106101e55760003560e01c806378ed5d1f1161010f5780639bde8099116100a2578063d1abb90711610071578063d1abb90714610452578063d547741f14610465578063ec87621c14610478578063f27d02641461048d57600080fd5b80639bde8099146103ef578063a217fddf14610402578063b60d42881461040a578063cc430ced1461041d57600080fd5b80638f10369a116100de5780638f10369a146103ad5780638fa82c88146103b657806391d14854146103c957806398969e82146103dc57600080fd5b806378ed5d1f1461034a578063837e842d1461035d5780638a48a515146103925780638dbdbe6d1461039a57600080fd5b80632f2ff15d11610187578063532fa99c11610156578063532fa99c146102fe5780635db7dbf8146103115780635fa4c0be14610324578063699bdca91461033757600080fd5b80632f2ff15d146102b25780632f940c70146102c557806336568abe146102d85780634ef916be146102eb57600080fd5b806317caf6f1116101c357806317caf6f11461023a57806318fccc7614610251578063228cb73314610264578063248a9ca31461028f57600080fd5b806301ffc9a7146101ea5780630ad58d2f146102125780630e21750f14610227575b600080fd5b6101fd6101f8366004611a40565b6104c5565b60405190151581526020015b60405180910390f35b610225610220366004611a82565b6104fc565b005b610225610235366004611abb565b6105f2565b610243609a5481565b604051908152602001610209565b61022561025f366004611ad8565b610656565b609754610277906001600160a01b031681565b6040516001600160a01b039091168152602001610209565b61024361029d366004611b08565b60009081526065602052604090206001015490565b6102256102c0366004611ad8565b61076e565b6102256102d3366004611ad8565b610799565b6102256102e6366004611ad8565b610820565b6102256102f9366004611ad8565b6108a3565b61022561030c366004611b21565b610a14565b61022561031f366004611bad565b610b28565b610225610332366004611c07565b610b89565b610225610345366004611abb565b610c59565b610277610358366004611b08565b610ca0565b61024361036b366004611c35565b6000908152609d602090815260408083206001600160a01b03949094168352929052205490565b609b54610243565b6102256103a8366004611a82565b610cca565b61024360995481565b6102256103c4366004611c61565b610dc1565b6101fd6103d7366004611ad8565b610e01565b6102436103ea366004611ad8565b610e2c565b6102256103fd366004611abb565b610fe5565b610243600081565b609854610277906001600160a01b031681565b61043061042b366004611b08565b61107a565b6040805182518152602080840151908201529181015190820152606001610209565b610225610460366004611a82565b611288565b610225610473366004611ad8565b611448565b610243600080516020611f2e83398151915281565b61024361049b366004611c35565b6000908152609d602090815260408083206001600160a01b03949094168352929052206001015490565b60006001600160e01b03198216637965db0b60e01b14806104f657506301ffc9a760e01b6001600160e01b03198316145b92915050565b60006105078461107a565b6000858152609d602090815260408083203384529091529020815191925090670de0b6b3a76400009061053a9086611cb9565b6105449190611cd8565b8160010160008282546105579190611cfa565b9091555050805484908290600090610570908490611d39565b90915550506040518481526001600160a01b03841690869033907fc9da9141b9ad9eed3c5b5d7e7799519c54f06cc3ee3f1c49c16f2f297660baef9060200160405180910390a46105eb8385609c88815481106105cf576105cf611d50565b6000918252602090912001546001600160a01b0316919061146e565b5050505050565b600080516020611f2e83398151915261060b81336114d1565b609880546001600160a01b0319166001600160a01b0384169081179091556040517f3f791d163ad67bd54ebfd77208ced9c9e64ac4c2a74e1c9d0b5e2d417034dfdb90600090a25050565b60006106618361107a565b6000848152609d602090815260408083203384529091528120825181549394509092670de0b6b3a76400009161069691611cb9565b6106a09190611cd8565b905060008260010154826106b49190611cfa565b600184018390556040518181529091506001600160a01b03861690879033907f8019192f65b34fad6bf2766db2d26c808d77abc63af77b2ba2e329ab18aa8a0d9060200160405180910390a46098546040516307b22ee360e21b81526001600160a01b0387811660048301526024820184905290911690631ec8bb8c90604401600060405180830381600087803b15801561074e57600080fd5b505af1158015610762573d6000803e3d6000fd5b50505050505050505050565b60008281526065602052604090206001015461078a81336114d1565b6107948383611535565b505050565b6000828152609d60209081526040808320338085529083528184208054858255600182019590955591518481529193926001600160a01b038616928792917f2cac5e20e1541d836381527a43f651851e302817b71dc8e810284e69210c1c6b910160405180910390a461081a8382609c87815481106105cf576105cf611d50565b50505050565b6001600160a01b03811633146108955760405162461bcd60e51b815260206004820152602f60248201527f416363657373436f6e74726f6c3a2063616e206f6e6c792072656e6f756e636560448201526e103937b632b9903337b91039b2b63360891b60648201526084015b60405180910390fd5b61089f82826115bb565b5050565b600080516020611f2e8339815191526108bc81336114d1565b6108c582610fe5565b82609a60008282546108d79190611d66565b90915550506040805160608101825260008082524260208301908152928201868152609b80546001808201835591845293517fbba9db4cdbea0a37c207bbb83e20f828cd4441c49891101dc94fd20dc8efc34960039095029485015593517fbba9db4cdbea0a37c207bbb83e20f828cd4441c49891101dc94fd20dc8efc34a840155517fbba9db4cdbea0a37c207bbb83e20f828cd4441c49891101dc94fd20dc8efc34b90920191909155609c80548084018255918190527faf85b9071dfafeac1409d3f1d19bafc9bc7c37974cde8df0ee6168f0086e539c90910180546001600160a01b0319166001600160a01b038616908117909155905490916109dc91611d39565b6040518581527f61c9bf39bb035d6f43bf12aa7b22bfec1d61788e90b7249fad7625529c1151819060200160405180910390a3505050565b600054610100900460ff16610a2f5760005460ff1615610a33565b303b155b610a965760405162461bcd60e51b815260206004820152602e60248201527f496e697469616c697a61626c653a20636f6e747261637420697320616c72656160448201526d191e481a5b9a5d1a585b1a5e995960921b606482015260840161088c565b600054610100900460ff16158015610ab8576000805461ffff19166101011790555b609780546001600160a01b038086166001600160a01b03199283161790925560988054928516929091169190911790556000609a819055610af99085611535565b610b11600080516020611f2e83398151915285611535565b801561081a576000805461ff001916905550505050565b600080516020611f2e833981519152610b4181336114d1565b610b4b8383610dc1565b60998490556040518481527f951c6f64eb06ec6a6682072cda71420984dd55199006684bb820a80fd7e987939060200160405180910390a150505050565b600080516020611f2e833981519152610ba281336114d1565b82609b8581548110610bb657610bb6611d50565b906000526020600020906003020160020154609a54610bd59190611d39565b610bdf9190611d66565b609a8190555082609b8581548110610bf957610bf9611d50565b906000526020600020906003020160020181905550837f31b4adb47fe10f535ba0f237d0ef37a1281f4974f03b5f1bb1ca4172aceb70c48484604051610c4b9291909182521515602082015260400190565b60405180910390a250505050565b609b5460005b81811015610794576000818152609d6020908152604080832033845290915290205415610c9057610c908184610656565b610c9981611d7e565b9050610c5f565b609c8181548110610cb057600080fd5b6000918252602090912001546001600160a01b0316905081565b6000610cd58461107a565b6000858152609d602090815260408083206001600160a01b0387168452909152812080549293509185918391610d0c908490611d66565b90915550508151670de0b6b3a764000090610d279086611cb9565b610d319190611cd8565b816001016000828254610d449190611d99565b90915550506040518481526001600160a01b03841690869033907f8f3ed488ccb8ee9d27a4cb66377f8127c651bd8f8b68df7b23d7b5676961787f9060200160405180910390a46105eb333086609c8981548110610da457610da4611d50565b6000918252602090912001546001600160a01b0316929190611622565b8060005b8181101561081a57610dee848483818110610de257610de2611d50565b9050602002013561107a565b5080610df981611d7e565b915050610dc5565b60009182526065602090815260408084206001600160a01b0393909316845291905290205460ff1690565b600080609b8481548110610e4257610e42611d50565b60009182526020808320604080516060810182526003909402909101805484526001810154848401526002015483820152878452609d82528084206001600160a01b038816855290915282208151609c80549395509193909290919088908110610eae57610eae611d50565b6000918252602090912001546040516370a0823160e01b81523060048201526001600160a01b03909116906370a0823190602401602060405180830381865afa158015610eff573d6000803e3d6000fd5b505050506040513d601f19601f82011682018060405250810190610f239190611dda565b9050836020015142118015610f3757508015155b15610faa576000846020015142610f4e9190611d39565b90506000609a54866040015160995484610f689190611cb9565b610f729190611cb9565b610f7c9190611cd8565b905082610f91670de0b6b3a764000083611cb9565b610f9b9190611cd8565b610fa59085611d66565b935050505b60018301548354670de0b6b3a764000090610fc6908590611cb9565b610fd09190611cd8565b610fda9190611cfa565b979650505050505050565b60005b609b5481101561089f57816001600160a01b0316609c828154811061100f5761100f611d50565b6000918252602090912001546001600160a01b031614156110685760405162461bcd60e51b81526020600482015260136024820152724661726d2065786973747320616c726561647960681b604482015260640161088c565b8061107281611d7e565b915050610fe8565b61109e60405180606001604052806000815260200160008152602001600081525090565b609b82815481106110b1576110b1611d50565b600091825260209182902060408051606081018252600390930290910180548352600181015493830184905260020154908201529150421115611283576000609c838154811061110357611103611d50565b6000918252602090912001546040516370a0823160e01b81523060048201526001600160a01b03909116906370a0823190602401602060405180830381865afa158015611154573d6000803e3d6000fd5b505050506040513d601f19601f820116820180604052508101906111789190611dda565b905080156111f45760008260200151426111929190611d39565b90506000609a548460400151609954846111ac9190611cb9565b6111b69190611cb9565b6111c09190611cd8565b9050826111d5670de0b6b3a764000083611cb9565b6111df9190611cd8565b845185906111ee908390611d66565b90525050505b426020830152609b80548391908590811061121157611211611d50565b600091825260209182902083516003929092020190815582820151600182015560409283015160029091015583810151845183519182529181018490529182015283907f7afa65e874128c36660ee87dc188d5db7715c3183d701645e98701b5ef8cd9139060600160405180910390a2505b919050565b60006112938461107a565b6000858152609d602090815260408083203384529091528120825181549394509092670de0b6b3a7640000916112c891611cb9565b6112d29190611cd8565b905060008260010154826112e69190611cfa565b8451909150670de0b6b3a7640000906112ff9088611cb9565b6113099190611cd8565b6113139083611cfa565b600184015582548690849060009061132c908490611d39565b90915550506040518681526001600160a01b03861690889033907fc9da9141b9ad9eed3c5b5d7e7799519c54f06cc3ee3f1c49c16f2f297660baef9060200160405180910390a4846001600160a01b031687336001600160a01b03167f8019192f65b34fad6bf2766db2d26c808d77abc63af77b2ba2e329ab18aa8a0d846040516113b991815260200190565b60405180910390a46098546040516307b22ee360e21b81526001600160a01b0387811660048301526024820184905290911690631ec8bb8c90604401600060405180830381600087803b15801561140f57600080fd5b505af1158015611423573d6000803e3d6000fd5b5050505061143f8587609c8a815481106105cf576105cf611d50565b50505050505050565b60008281526065602052604090206001015461146481336114d1565b61079483836115bb565b6040516001600160a01b03831660248201526044810182905261079490849063a9059cbb60e01b906064015b60408051601f198184030181529190526020810180516001600160e01b03166001600160e01b03199093169290921790915261165a565b6114db8282610e01565b61089f576114f3816001600160a01b0316601461172c565b6114fe83602061172c565b60405160200161150f929190611e1f565b60408051601f198184030181529082905262461bcd60e51b825261088c91600401611e94565b61153f8282610e01565b61089f5760008281526065602090815260408083206001600160a01b03851684529091529020805460ff191660011790556115773390565b6001600160a01b0316816001600160a01b0316837f2f8788117e7eff1d82e926ec794901d17c78024a50270940304540a733656f0d60405160405180910390a45050565b6115c58282610e01565b1561089f5760008281526065602090815260408083206001600160a01b0385168085529252808320805460ff1916905551339285917ff6391f5c32d9c69d2a47ea670b442974b53935d1edc7fd64eb21e047a839171b9190a45050565b6040516001600160a01b038085166024830152831660448201526064810182905261081a9085906323b872dd60e01b9060840161149a565b60006116af826040518060400160405280602081526020017f5361666545524332303a206c6f772d6c6576656c2063616c6c206661696c6564815250856001600160a01b03166118cf9092919063ffffffff16565b80519091501561079457808060200190518101906116cd9190611ec7565b6107945760405162461bcd60e51b815260206004820152602a60248201527f5361666545524332303a204552433230206f7065726174696f6e20646964206e6044820152691bdd081cdd58d8d9595960b21b606482015260840161088c565b6060600061173b836002611cb9565b611746906002611d66565b67ffffffffffffffff81111561175e5761175e611ee4565b6040519080825280601f01601f191660200182016040528015611788576020820181803683370190505b509050600360fc1b816000815181106117a3576117a3611d50565b60200101906001600160f81b031916908160001a905350600f60fb1b816001815181106117d2576117d2611d50565b60200101906001600160f81b031916908160001a90535060006117f6846002611cb9565b611801906001611d66565b90505b6001811115611879576f181899199a1a9b1b9c1cb0b131b232b360811b85600f166010811061183557611835611d50565b1a60f81b82828151811061184b5761184b611d50565b60200101906001600160f81b031916908160001a90535060049490941c9361187281611efa565b9050611804565b5083156118c85760405162461bcd60e51b815260206004820181905260248201527f537472696e67733a20686578206c656e67746820696e73756666696369656e74604482015260640161088c565b9392505050565b60606118de84846000856118e6565b949350505050565b6060824710156119475760405162461bcd60e51b815260206004820152602660248201527f416464726573733a20696e73756666696369656e742062616c616e636520666f6044820152651c8818d85b1b60d21b606482015260840161088c565b6001600160a01b0385163b61199e5760405162461bcd60e51b815260206004820152601d60248201527f416464726573733a2063616c6c20746f206e6f6e2d636f6e7472616374000000604482015260640161088c565b600080866001600160a01b031685876040516119ba9190611f11565b60006040518083038185875af1925050503d80600081146119f7576040519150601f19603f3d011682016040523d82523d6000602084013e6119fc565b606091505b5091509150610fda82828660608315611a165750816118c8565b825115611a265782518084602001fd5b8160405162461bcd60e51b815260040161088c9190611e94565b600060208284031215611a5257600080fd5b81356001600160e01b0319811681146118c857600080fd5b6001600160a01b0381168114611a7f57600080fd5b50565b600080600060608486031215611a9757600080fd5b83359250602084013591506040840135611ab081611a6a565b809150509250925092565b600060208284031215611acd57600080fd5b81356118c881611a6a565b60008060408385031215611aeb57600080fd5b823591506020830135611afd81611a6a565b809150509250929050565b600060208284031215611b1a57600080fd5b5035919050565b600080600060608486031215611b3657600080fd5b8335611b4181611a6a565b92506020840135611b5181611a6a565b91506040840135611ab081611a6a565b60008083601f840112611b7357600080fd5b50813567ffffffffffffffff811115611b8b57600080fd5b6020830191508360208260051b8501011115611ba657600080fd5b9250929050565b600080600060408486031215611bc257600080fd5b83359250602084013567ffffffffffffffff811115611be057600080fd5b611bec86828701611b61565b9497909650939450505050565b8015158114611a7f57600080fd5b600080600060608486031215611c1c57600080fd5b83359250602084013591506040840135611ab081611bf9565b60008060408385031215611c4857600080fd5b8235611c5381611a6a565b946020939093013593505050565b60008060208385031215611c7457600080fd5b823567ffffffffffffffff811115611c8b57600080fd5b611c9785828601611b61565b90969095509350505050565b634e487b7160e01b600052601160045260246000fd5b6000816000190483118215151615611cd357611cd3611ca3565b500290565b600082611cf557634e487b7160e01b600052601260045260246000fd5b500490565b60008083128015600160ff1b850184121615611d1857611d18611ca3565b6001600160ff1b0384018313811615611d3357611d33611ca3565b50500390565b600082821015611d4b57611d4b611ca3565b500390565b634e487b7160e01b600052603260045260246000fd5b60008219821115611d7957611d79611ca3565b500190565b6000600019821415611d9257611d92611ca3565b5060010190565b600080821280156001600160ff1b0384900385131615611dbb57611dbb611ca3565b600160ff1b8390038412811615611dd457611dd4611ca3565b50500190565b600060208284031215611dec57600080fd5b5051919050565b60005b83811015611e0e578181015183820152602001611df6565b8381111561081a5750506000910152565b7f416363657373436f6e74726f6c3a206163636f756e7420000000000000000000815260008351611e57816017850160208801611df3565b7001034b99036b4b9b9b4b733903937b6329607d1b6017918401918201528351611e88816028840160208801611df3565b01602801949350505050565b6020815260008251806020840152611eb3816040850160208701611df3565b601f01601f19169190910160400192915050565b600060208284031215611ed957600080fd5b81516118c881611bf9565b634e487b7160e01b600052604160045260246000fd5b600081611f0957611f09611ca3565b506000190190565b60008251611f23818460208701611df3565b919091019291505056fe241ecf16d79d0f8dbfb92cbc07fe17840425976cf0667f022fe9877caa831b08a26469706673582212201c3af930aa55e0dc831416662565b74919617ea0719f4bfb02924b4bdac11bc564736f6c634300080a0033",
  "linkReferences": {},
  "deployedLinkReferences": {}
}