{
  "_format": "hh-sol-artifact-1",
  "contractName": "LFiFarms",
  "sourceName": "contracts/LFiFarms.sol",
  "abi": [
    {
      "inputs": [
        {
          "internalType": "address",
          "name": "_admin",
          "type": "address"
        },
        {
          "internalType": "contract IERC20",
          "name": "_rewardToken",
          "type": "address"
        },
        {
          "internalType": "contract IFundDistributor",
          "name": "_fund",
          "type": "address"
        }
      ],
      "stateMutability": "nonpayable",
      "type": "constructor"
    },
    {
      "anonymous": false,
      "inputs": [
        {
          "indexed": true,
          "internalType": "address",
          "name": "user",
          "type": "address"
        },
        {
          "indexed": true,
          "internalType": "uint256",
          "name": "fid",
          "type": "uint256"
        },
        {
          "indexed": false,
          "internalType": "uint256",
          "name": "amount",
          "type": "uint256"
        },
        {
          "indexed": true,
          "internalType": "address",
          "name": "receiver",
          "type": "address"
        }
      ],
      "name": "EmergencyWithdraw",
      "type": "event"
    },
    {
      "anonymous": false,
      "inputs": [
        {
          "indexed": true,
          "internalType": "uint256",
          "name": "fid",
          "type": "uint256"
        },
        {
          "indexed": false,
          "internalType": "uint256",
          "name": "allocatedPoints",
          "type": "uint256"
        },
        {
          "indexed": true,
          "internalType": "contract IERC20",
          "name": "lpToken",
          "type": "address"
        }
      ],
      "name": "FarmCreated",
      "type": "event"
    },
    {
      "anonymous": false,
      "inputs": [
        {
          "indexed": true,
          "internalType": "address",
          "name": "depositor",
          "type": "address"
        },
        {
          "indexed": true,
          "internalType": "uint256",
          "name": "fid",
          "type": "uint256"
        },
        {
          "indexed": false,
          "internalType": "uint256",
          "name": "amount",
          "type": "uint256"
        },
        {
          "indexed": true,
          "internalType": "address",
          "name": "benefitor",
          "type": "address"
        }
      ],
      "name": "FarmDeposit",
      "type": "event"
    },
    {
      "anonymous": false,
      "inputs": [
        {
          "indexed": true,
          "internalType": "address",
          "name": "fund",
          "type": "address"
        }
      ],
      "name": "FarmFundChanged",
      "type": "event"
    },
    {
      "anonymous": false,
      "inputs": [
        {
          "indexed": true,
          "internalType": "address",
          "name": "requestor",
          "type": "address"
        },
        {
          "indexed": true,
          "internalType": "uint256",
          "name": "fid",
          "type": "uint256"
        },
        {
          "indexed": false,
          "internalType": "uint256",
          "name": "amount",
          "type": "uint256"
        },
        {
          "indexed": true,
          "internalType": "address",
          "name": "receiver",
          "type": "address"
        }
      ],
      "name": "FarmHarvest",
      "type": "event"
    },
    {
      "anonymous": false,
      "inputs": [
        {
          "indexed": true,
          "internalType": "uint256",
          "name": "fid",
          "type": "uint256"
        },
        {
          "indexed": false,
          "internalType": "uint256",
          "name": "lastRewardTime",
          "type": "uint256"
        },
        {
          "indexed": false,
          "internalType": "uint256",
          "name": "lpSupply",
          "type": "uint256"
        },
        {
          "indexed": false,
          "internalType": "uint256",
          "name": "accRewardPerShare",
          "type": "uint256"
        }
      ],
      "name": "FarmUpdated",
      "type": "event"
    },
    {
      "anonymous": false,
      "inputs": [
        {
          "indexed": true,
          "internalType": "address",
          "name": "requestor",
          "type": "address"
        },
        {
          "indexed": true,
          "internalType": "uint256",
          "name": "fid",
          "type": "uint256"
        },
        {
          "indexed": false,
          "internalType": "uint256",
          "name": "amount",
          "type": "uint256"
        },
        {
          "indexed": true,
          "internalType": "address",
          "name": "receiver",
          "type": "address"
        }
      ],
      "name": "FarmWithdraw",
      "type": "event"
    },
    {
      "anonymous": false,
      "inputs": [
        {
          "indexed": true,
          "internalType": "uint256",
          "name": "fid",
          "type": "uint256"
        },
        {
          "indexed": false,
          "internalType": "uint256",
          "name": "allocPoint",
          "type": "uint256"
        },
        {
          "indexed": false,
          "internalType": "bool",
          "name": "overwrite",
          "type": "bool"
        }
      ],
      "name": "LogSetPool",
      "type": "event"
    },
    {
      "anonymous": false,
      "inputs": [
        {
          "indexed": false,
          "internalType": "uint256",
          "name": "newRewardPerSecond",
          "type": "uint256"
        }
      ],
      "name": "RewardPerSecondUpdated",
      "type": "event"
    },
    {
      "anonymous": false,
      "inputs": [
        {
          "indexed": true,
          "internalType": "bytes32",
          "name": "role",
          "type": "bytes32"
        },
        {
          "indexed": true,
          "internalType": "bytes32",
          "name": "previousAdminRole",
          "type": "bytes32"
        },
        {
          "indexed": true,
          "internalType": "bytes32",
          "name": "newAdminRole",
          "type": "bytes32"
        }
      ],
      "name": "RoleAdminChanged",
      "type": "event"
    },
    {
      "anonymous": false,
      "inputs": [
        {
          "indexed": true,
          "internalType": "bytes32",
          "name": "role",
          "type": "bytes32"
        },
        {
          "indexed": true,
          "internalType": "address",
          "name": "account",
          "type": "address"
        },
        {
          "indexed": true,
          "internalType": "address",
          "name": "sender",
          "type": "address"
        }
      ],
      "name": "RoleGranted",
      "type": "event"
    },
    {
      "anonymous": false,
      "inputs": [
        {
          "indexed": true,
          "internalType": "bytes32",
          "name": "role",
          "type": "bytes32"
        },
        {
          "indexed": true,
          "internalType": "address",
          "name": "account",
          "type": "address"
        },
        {
          "indexed": true,
          "internalType": "address",
          "name": "sender",
          "type": "address"
        }
      ],
      "name": "RoleRevoked",
      "type": "event"
    },
    {
      "inputs": [],
      "name": "DEFAULT_ADMIN_ROLE",
      "outputs": [
        {
          "internalType": "bytes32",
          "name": "",
          "type": "bytes32"
        }
      ],
      "stateMutability": "view",
      "type": "function"
    },
    {
      "inputs": [
        {
          "internalType": "contract IERC20",
          "name": "_token",
          "type": "address"
        }
      ],
      "name": "checkFarmDoesntExist",
      "outputs": [],
      "stateMutability": "view",
      "type": "function"
    },
    {
      "inputs": [
        {
          "internalType": "uint256",
          "name": "_allocPoint",
          "type": "uint256"
        },
        {
          "internalType": "contract IERC20",
          "name": "_lpToken",
          "type": "address"
        }
      ],
      "name": "createFarm",
      "outputs": [],
      "stateMutability": "nonpayable",
      "type": "function"
    },
    {
      "inputs": [
        {
          "internalType": "uint256",
          "name": "fid",
          "type": "uint256"
        },
        {
          "internalType": "uint256",
          "name": "lpAmount",
          "type": "uint256"
        },
        {
          "internalType": "address",
          "name": "benefitor",
          "type": "address"
        }
      ],
      "name": "deposit",
      "outputs": [],
      "stateMutability": "nonpayable",
      "type": "function"
    },
    {
      "inputs": [
        {
          "internalType": "uint256",
          "name": "fid",
          "type": "uint256"
        },
        {
          "internalType": "address",
          "name": "receiver",
          "type": "address"
        }
      ],
      "name": "emergencyWithdraw",
      "outputs": [],
      "stateMutability": "nonpayable",
      "type": "function"
    },
    {
      "inputs": [
        {
          "internalType": "uint256",
          "name": "",
          "type": "uint256"
        }
      ],
      "name": "farmInfo",
      "outputs": [
        {
          "internalType": "uint256",
          "name": "accRewardPerShare",
          "type": "uint256"
        },
        {
          "internalType": "uint256",
          "name": "lastRewardTime",
          "type": "uint256"
        },
        {
          "internalType": "uint256",
          "name": "allocPoint",
          "type": "uint256"
        }
      ],
      "stateMutability": "view",
      "type": "function"
    },
    {
      "inputs": [],
      "name": "farmLength",
      "outputs": [
        {
          "internalType": "uint256",
          "name": "farms",
          "type": "uint256"
        }
      ],
      "stateMutability": "view",
      "type": "function"
    },
    {
      "inputs": [],
      "name": "fund",
      "outputs": [
        {
          "internalType": "contract IFundDistributor",
          "name": "",
          "type": "address"
        }
      ],
      "stateMutability": "view",
      "type": "function"
    },
    {
      "inputs": [
        {
          "internalType": "bytes32",
          "name": "role",
          "type": "bytes32"
        }
      ],
      "name": "getRoleAdmin",
      "outputs": [
        {
          "internalType": "bytes32",
          "name": "",
          "type": "bytes32"
        }
      ],
      "stateMutability": "view",
      "type": "function"
    },
    {
      "inputs": [
        {
          "internalType": "bytes32",
          "name": "role",
          "type": "bytes32"
        },
        {
          "internalType": "address",
          "name": "account",
          "type": "address"
        }
      ],
      "name": "grantRole",
      "outputs": [],
      "stateMutability": "nonpayable",
      "type": "function"
    },
    {
      "inputs": [
        {
          "internalType": "uint256",
          "name": "fid",
          "type": "uint256"
        },
        {
          "internalType": "address",
          "name": "receiver",
          "type": "address"
        }
      ],
      "name": "harvest",
      "outputs": [],
      "stateMutability": "nonpayable",
      "type": "function"
    },
    {
      "inputs": [
        {
          "internalType": "address",
          "name": "receiver",
          "type": "address"
        }
      ],
      "name": "harvestAll",
      "outputs": [],
      "stateMutability": "nonpayable",
      "type": "function"
    },
    {
      "inputs": [
        {
          "internalType": "bytes32",
          "name": "role",
          "type": "bytes32"
        },
        {
          "internalType": "address",
          "name": "account",
          "type": "address"
        }
      ],
      "name": "hasRole",
      "outputs": [
        {
          "internalType": "bool",
          "name": "",
          "type": "bool"
        }
      ],
      "stateMutability": "view",
      "type": "function"
    },
    {
      "inputs": [
        {
          "internalType": "uint256",
          "name": "",
          "type": "uint256"
        }
      ],
      "name": "lpToken",
      "outputs": [
        {
          "internalType": "contract IERC20",
          "name": "",
          "type": "address"
        }
      ],
      "stateMutability": "view",
      "type": "function"
    },
    {
      "inputs": [
        {
          "internalType": "uint256[]",
          "name": "fids",
          "type": "uint256[]"
        }
      ],
      "name": "massUpdateFarms",
      "outputs": [],
      "stateMutability": "nonpayable",
      "type": "function"
    },
    {
      "inputs": [
        {
          "internalType": "uint256",
          "name": "_fid",
          "type": "uint256"
        },
        {
          "internalType": "address",
          "name": "_user",
          "type": "address"
        }
      ],
      "name": "pendingReward",
      "outputs": [
        {
          "internalType": "uint256",
          "name": "pendingRewards",
          "type": "uint256"
        }
      ],
      "stateMutability": "view",
      "type": "function"
    },
    {
      "inputs": [
        {
          "internalType": "bytes32",
          "name": "role",
          "type": "bytes32"
        },
        {
          "internalType": "address",
          "name": "account",
          "type": "address"
        }
      ],
      "name": "renounceRole",
      "outputs": [],
      "stateMutability": "nonpayable",
      "type": "function"
    },
    {
      "inputs": [
        {
          "internalType": "bytes32",
          "name": "role",
          "type": "bytes32"
        },
        {
          "internalType": "address",
          "name": "account",
          "type": "address"
        }
      ],
      "name": "revokeRole",
      "outputs": [],
      "stateMutability": "nonpayable",
      "type": "function"
    },
    {
      "inputs": [],
      "name": "reward",
      "outputs": [
        {
          "internalType": "contract IERC20",
          "name": "",
          "type": "address"
        }
      ],
      "stateMutability": "view",
      "type": "function"
    },
    {
      "inputs": [],
      "name": "rewardPerSecond",
      "outputs": [
        {
          "internalType": "uint256",
          "name": "",
          "type": "uint256"
        }
      ],
      "stateMutability": "view",
      "type": "function"
    },
    {
      "inputs": [
        {
          "internalType": "uint256",
          "name": "fid",
          "type": "uint256"
        },
        {
          "internalType": "uint256",
          "name": "allocPoint",
          "type": "uint256"
        },
        {
          "internalType": "bool",
          "name": "overwrite",
          "type": "bool"
        }
      ],
      "name": "setFarm",
      "outputs": [],
      "stateMutability": "nonpayable",
      "type": "function"
    },
    {
      "inputs": [
        {
          "internalType": "contract IFundDistributor",
          "name": "_fund",
          "type": "address"
        }
      ],
      "name": "setFund",
      "outputs": [],
      "stateMutability": "nonpayable",
      "type": "function"
    },
    {
      "inputs": [
        {
          "internalType": "uint256",
          "name": "_rewardPerSecond",
          "type": "uint256"
        },
        {
          "internalType": "uint256[]",
          "name": "fids",
          "type": "uint256[]"
        }
      ],
      "name": "setRewardPerSecond",
      "outputs": [],
      "stateMutability": "nonpayable",
      "type": "function"
    },
    {
      "inputs": [
        {
          "internalType": "bytes4",
          "name": "interfaceId",
          "type": "bytes4"
        }
      ],
      "name": "supportsInterface",
      "outputs": [
        {
          "internalType": "bool",
          "name": "",
          "type": "bool"
        }
      ],
      "stateMutability": "view",
      "type": "function"
    },
    {
      "inputs": [],
      "name": "totalAllocPoint",
      "outputs": [
        {
          "internalType": "uint256",
          "name": "",
          "type": "uint256"
        }
      ],
      "stateMutability": "view",
      "type": "function"
    },
    {
      "inputs": [
        {
          "internalType": "uint256",
          "name": "fid",
          "type": "uint256"
        }
      ],
      "name": "updateFarm",
      "outputs": [
        {
          "components": [
            {
              "internalType": "uint256",
              "name": "accRewardPerShare",
              "type": "uint256"
            },
            {
              "internalType": "uint256",
              "name": "lastRewardTime",
              "type": "uint256"
            },
            {
              "internalType": "uint256",
              "name": "allocPoint",
              "type": "uint256"
            }
          ],
          "internalType": "struct LFiFarms.FarmInfo",
          "name": "farm",
          "type": "tuple"
        }
      ],
      "stateMutability": "nonpayable",
      "type": "function"
    },
    {
      "inputs": [
        {
          "internalType": "uint256",
          "name": "",
          "type": "uint256"
        },
        {
          "internalType": "address",
          "name": "",
          "type": "address"
        }
      ],
      "name": "userInfo",
      "outputs": [
        {
          "internalType": "uint256",
          "name": "amount",
          "type": "uint256"
        },
        {
          "internalType": "int256",
          "name": "rewardDebt",
          "type": "int256"
        }
      ],
      "stateMutability": "view",
      "type": "function"
    },
    {
      "inputs": [
        {
          "internalType": "uint256",
          "name": "fid",
          "type": "uint256"
        },
        {
          "internalType": "uint256",
          "name": "LPTokenAmount",
          "type": "uint256"
        },
        {
          "internalType": "address",
          "name": "receiver",
          "type": "address"
        }
      ],
      "name": "withdraw",
      "outputs": [],
      "stateMutability": "nonpayable",
      "type": "function"
    },
    {
      "inputs": [
        {
          "internalType": "uint256",
          "name": "fid",
          "type": "uint256"
        },
        {
          "internalType": "uint256",
          "name": "LPTokenamount",
          "type": "uint256"
        },
        {
          "internalType": "address",
          "name": "receiver",
          "type": "address"
        }
      ],
      "name": "withdrawAndHarvest",
      "outputs": [],
      "stateMutability": "nonpayable",
      "type": "function"
    }
  ],
  "bytecode": "0x608060405260006006553480156200001657600080fd5b5060405162001f4838038062001f48833981016040819052620000399162000148565b600180546001600160a01b038085166001600160a01b0319928316179092556002805492841692909116919091179055620000766000846200007f565b5050506200019c565b6200008b82826200008f565b5050565b6000828152602081815260408083206001600160a01b038516845290915290205460ff166200008b576000828152602081815260408083206001600160a01b03851684529091529020805460ff19166001179055620000eb3390565b6001600160a01b0316816001600160a01b0316837f2f8788117e7eff1d82e926ec794901d17c78024a50270940304540a733656f0d60405160405180910390a45050565b6001600160a01b03811681146200014557600080fd5b50565b6000806000606084860312156200015e57600080fd5b83516200016b816200012f565b60208501519093506200017e816200012f565b604085015190925062000191816200012f565b809150509250925092565b611d9c80620001ac6000396000f3fe608060405234801561001057600080fd5b50600436106101cf5760003560e01c806378ed5d1f1161010457806393f1a40b116100a2578063b60d428811610071578063b60d428814610421578063cc430ced14610434578063d1abb90714610469578063d547741f1461047c57600080fd5b806393f1a40b146103ac57806398969e82146103f35780639bde809914610406578063a217fddf1461041957600080fd5b80638dbdbe6d116100de5780638dbdbe6d1461036a5780638f10369a1461037d5780638fa82c881461038657806391d148541461039957600080fd5b806378ed5d1f146103215780637d21c967146103345780638a48a5151461036257600080fd5b80632f2ff15d116101715780634ef916be1161014b5780634ef916be146102d55780635db7dbf8146102e85780635fa4c0be146102fb578063699bdca91461030e57600080fd5b80632f2ff15d1461029c5780632f940c70146102af57806336568abe146102c257600080fd5b806317caf6f1116101ad57806317caf6f11461022457806318fccc761461023b578063228cb7331461024e578063248a9ca31461027957600080fd5b806301ffc9a7146101d45780630ad58d2f146101fc5780630e21750f14610211575b600080fd5b6101e76101e23660046118e5565b61048f565b60405190151581526020015b60405180910390f35b61020f61020a366004611927565b6104c6565b005b61020f61021f366004611960565b6105bc565b61022d60065481565b6040519081526020016101f3565b61020f61024936600461197d565b610613565b600154610261906001600160a01b031681565b6040516001600160a01b0390911681526020016101f3565b61022d6102873660046119ad565b60009081526020819052604090206001015490565b61020f6102aa36600461197d565b61072b565b61020f6102bd36600461197d565b610756565b61020f6102d036600461197d565b6107dd565b61020f6102e336600461197d565b610860565b61020f6102f6366004611a12565b6109c3565b61020f610309366004611a6c565b610a17565b61020f61031c366004611960565b610ada565b61026161032f3660046119ad565b610b21565b6103476103423660046119ad565b610b4b565b604080519384526020840192909252908201526060016101f3565b60035461022d565b61020f610378366004611927565b610b7e565b61022d60075481565b61020f610394366004611a9a565b610c75565b6101e76103a736600461197d565b610cb5565b6103de6103ba36600461197d565b60056020908152600092835260408084209091529082529020805460019091015482565b604080519283526020830191909152016101f3565b61022d61040136600461197d565b610cde565b61020f610414366004611960565b610e97565b61022d600081565b600254610261906001600160a01b031681565b6104476104423660046119ad565b610f2c565b60408051825181526020808401519082015291810151908201526060016101f3565b61020f610477366004611927565b61113a565b61020f61048a36600461197d565b6112fa565b60006001600160e01b03198216637965db0b60e01b14806104c057506301ffc9a760e01b6001600160e01b03198316145b92915050565b60006104d184610f2c565b60008581526005602090815260408083203384529091529020815191925090670de0b6b3a7640000906105049086611af2565b61050e9190611b11565b8160010160008282546105219190611b33565b909155505080548490829060009061053a908490611b72565b90915550506040518481526001600160a01b03841690869033907fc9da9141b9ad9eed3c5b5d7e7799519c54f06cc3ee3f1c49c16f2f297660baef9060200160405180910390a46105b583856004888154811061059957610599611b89565b6000918252602090912001546001600160a01b03169190611320565b5050505050565b60006105c88133611383565b600280546001600160a01b0319166001600160a01b0384169081179091556040517f3f791d163ad67bd54ebfd77208ced9c9e64ac4c2a74e1c9d0b5e2d417034dfdb90600090a25050565b600061061e83610f2c565b60008481526005602090815260408083203384529091528120825181549394509092670de0b6b3a76400009161065391611af2565b61065d9190611b11565b905060008260010154826106719190611b33565b600184018390556040518181529091506001600160a01b03861690879033907f8019192f65b34fad6bf2766db2d26c808d77abc63af77b2ba2e329ab18aa8a0d9060200160405180910390a46002546040516307b22ee360e21b81526001600160a01b0387811660048301526024820184905290911690631ec8bb8c90604401600060405180830381600087803b15801561070b57600080fd5b505af115801561071f573d6000803e3d6000fd5b50505050505050505050565b6000828152602081905260409020600101546107478133611383565b61075183836113e7565b505050565b6000828152600560209081526040808320338085529083528184208054858255600182019590955591518481529193926001600160a01b038616928792917f2cac5e20e1541d836381527a43f651851e302817b71dc8e810284e69210c1c6b910160405180910390a46107d783826004878154811061059957610599611b89565b50505050565b6001600160a01b03811633146108525760405162461bcd60e51b815260206004820152602f60248201527f416363657373436f6e74726f6c3a2063616e206f6e6c792072656e6f756e636560448201526e103937b632b9903337b91039b2b63360891b60648201526084015b60405180910390fd5b61085c828261146b565b5050565b600061086c8133611383565b61087582610e97565b82600660008282546108879190611b9f565b909155505060408051606081018252600080825242602083019081529282018681526003805460018181018355828552945191027fc2575a0e9e593c00f959f8c92f12db2869c3395a3b0502d05e2516446f71f85b81019190915593517fc2575a0e9e593c00f959f8c92f12db2869c3395a3b0502d05e2516446f71f85c850155517fc2575a0e9e593c00f959f8c92f12db2869c3395a3b0502d05e2516446f71f85d90930192909255600480548083018255928190527f8a35acfbc15ff81a39ae7d344fd709f28e8600b4aa8c65c6b64bfe7fe36bd19b90920180546001600160a01b0386166001600160a01b03199091168117909155915461098b9190611b72565b6040518581527f61c9bf39bb035d6f43bf12aa7b22bfec1d61788e90b7249fad7625529c1151819060200160405180910390a3505050565b60006109cf8133611383565b6109d98383610c75565b60078490556040518481527f951c6f64eb06ec6a6682072cda71420984dd55199006684bb820a80fd7e987939060200160405180910390a150505050565b6000610a238133611383565b8260038581548110610a3757610a37611b89565b906000526020600020906003020160020154600654610a569190611b72565b610a609190611b9f565b6006819055508260038581548110610a7a57610a7a611b89565b906000526020600020906003020160020181905550837f31b4adb47fe10f535ba0f237d0ef37a1281f4974f03b5f1bb1ca4172aceb70c48484604051610acc9291909182521515602082015260400190565b60405180910390a250505050565b60035460005b8181101561075157600081815260056020908152604080832033845290915290205415610b1157610b118184610613565b610b1a81611bb7565b9050610ae0565b60048181548110610b3157600080fd5b6000918252602090912001546001600160a01b0316905081565b60038181548110610b5b57600080fd5b600091825260209091206003909102018054600182015460029092015490925083565b6000610b8984610f2c565b60008581526005602090815260408083206001600160a01b0387168452909152812080549293509185918391610bc0908490611b9f565b90915550508151670de0b6b3a764000090610bdb9086611af2565b610be59190611b11565b816001016000828254610bf89190611bd2565b90915550506040518481526001600160a01b03841690869033907f8f3ed488ccb8ee9d27a4cb66377f8127c651bd8f8b68df7b23d7b5676961787f9060200160405180910390a46105b533308660048981548110610c5857610c58611b89565b6000918252602090912001546001600160a01b03169291906114d0565b8060005b818110156107d757610ca2848483818110610c9657610c96611b89565b90506020020135610f2c565b5080610cad81611bb7565b915050610c79565b6000918252602082815260408084206001600160a01b0393909316845291905290205460ff1690565b60008060038481548110610cf457610cf4611b89565b60009182526020808320604080516060810182526003909402909101805484526001810154848401526002015483820152878452600582528084206001600160a01b038816855290915282208151600480549395509193909290919088908110610d6057610d60611b89565b6000918252602090912001546040516370a0823160e01b81523060048201526001600160a01b03909116906370a0823190602401602060405180830381865afa158015610db1573d6000803e3d6000fd5b505050506040513d601f19601f82011682018060405250810190610dd59190611c13565b9050836020015142118015610de957508015155b15610e5c576000846020015142610e009190611b72565b90506000600654866040015160075484610e1a9190611af2565b610e249190611af2565b610e2e9190611b11565b905082610e43670de0b6b3a764000083611af2565b610e4d9190611b11565b610e579085611b9f565b935050505b60018301548354670de0b6b3a764000090610e78908590611af2565b610e829190611b11565b610e8c9190611b33565b979650505050505050565b60005b60035481101561085c57816001600160a01b031660048281548110610ec157610ec1611b89565b6000918252602090912001546001600160a01b03161415610f1a5760405162461bcd60e51b81526020600482015260136024820152724661726d2065786973747320616c726561647960681b6044820152606401610849565b80610f2481611bb7565b915050610e9a565b610f5060405180606001604052806000815260200160008152602001600081525090565b60038281548110610f6357610f63611b89565b60009182526020918290206040805160608101825260039093029091018054835260018101549383018490526002015490820152915042111561113557600060048381548110610fb557610fb5611b89565b6000918252602090912001546040516370a0823160e01b81523060048201526001600160a01b03909116906370a0823190602401602060405180830381865afa158015611006573d6000803e3d6000fd5b505050506040513d601f19601f8201168201806040525081019061102a9190611c13565b905080156110a65760008260200151426110449190611b72565b9050600060065484604001516007548461105e9190611af2565b6110689190611af2565b6110729190611b11565b905082611087670de0b6b3a764000083611af2565b6110919190611b11565b845185906110a0908390611b9f565b90525050505b42602083015260038054839190859081106110c3576110c3611b89565b600091825260209182902083516003929092020190815582820151600182015560409283015160029091015583810151845183519182529181018490529182015283907f7afa65e874128c36660ee87dc188d5db7715c3183d701645e98701b5ef8cd9139060600160405180910390a2505b919050565b600061114584610f2c565b60008581526005602090815260408083203384529091528120825181549394509092670de0b6b3a76400009161117a91611af2565b6111849190611b11565b905060008260010154826111989190611b33565b8451909150670de0b6b3a7640000906111b19088611af2565b6111bb9190611b11565b6111c59083611b33565b60018401558254869084906000906111de908490611b72565b90915550506040518681526001600160a01b03861690889033907fc9da9141b9ad9eed3c5b5d7e7799519c54f06cc3ee3f1c49c16f2f297660baef9060200160405180910390a4846001600160a01b031687336001600160a01b03167f8019192f65b34fad6bf2766db2d26c808d77abc63af77b2ba2e329ab18aa8a0d8460405161126b91815260200190565b60405180910390a46002546040516307b22ee360e21b81526001600160a01b0387811660048301526024820184905290911690631ec8bb8c90604401600060405180830381600087803b1580156112c157600080fd5b505af11580156112d5573d6000803e3d6000fd5b505050506112f1858760048a8154811061059957610599611b89565b50505050505050565b6000828152602081905260409020600101546113168133611383565b610751838361146b565b6040516001600160a01b03831660248201526044810182905261075190849063a9059cbb60e01b906064015b60408051601f198184030181529190526020810180516001600160e01b03166001600160e01b031990931692909217909152611508565b61138d8282610cb5565b61085c576113a5816001600160a01b031660146115da565b6113b08360206115da565b6040516020016113c1929190611c58565b60408051601f198184030181529082905262461bcd60e51b825261084991600401611ccd565b6113f18282610cb5565b61085c576000828152602081815260408083206001600160a01b03851684529091529020805460ff191660011790556114273390565b6001600160a01b0316816001600160a01b0316837f2f8788117e7eff1d82e926ec794901d17c78024a50270940304540a733656f0d60405160405180910390a45050565b6114758282610cb5565b1561085c576000828152602081815260408083206001600160a01b0385168085529252808320805460ff1916905551339285917ff6391f5c32d9c69d2a47ea670b442974b53935d1edc7fd64eb21e047a839171b9190a45050565b6040516001600160a01b03808516602483015283166044820152606481018290526107d79085906323b872dd60e01b9060840161134c565b600061155d826040518060400160405280602081526020017f5361666545524332303a206c6f772d6c6576656c2063616c6c206661696c6564815250856001600160a01b031661177d9092919063ffffffff16565b805190915015610751578080602001905181019061157b9190611d00565b6107515760405162461bcd60e51b815260206004820152602a60248201527f5361666545524332303a204552433230206f7065726174696f6e20646964206e6044820152691bdd081cdd58d8d9595960b21b6064820152608401610849565b606060006115e9836002611af2565b6115f4906002611b9f565b67ffffffffffffffff81111561160c5761160c611d1d565b6040519080825280601f01601f191660200182016040528015611636576020820181803683370190505b509050600360fc1b8160008151811061165157611651611b89565b60200101906001600160f81b031916908160001a905350600f60fb1b8160018151811061168057611680611b89565b60200101906001600160f81b031916908160001a90535060006116a4846002611af2565b6116af906001611b9f565b90505b6001811115611727576f181899199a1a9b1b9c1cb0b131b232b360811b85600f16601081106116e3576116e3611b89565b1a60f81b8282815181106116f9576116f9611b89565b60200101906001600160f81b031916908160001a90535060049490941c9361172081611d33565b90506116b2565b5083156117765760405162461bcd60e51b815260206004820181905260248201527f537472696e67733a20686578206c656e67746820696e73756666696369656e746044820152606401610849565b9392505050565b606061178c8484600085611794565b949350505050565b6060824710156117f55760405162461bcd60e51b815260206004820152602660248201527f416464726573733a20696e73756666696369656e742062616c616e636520666f6044820152651c8818d85b1b60d21b6064820152608401610849565b843b6118435760405162461bcd60e51b815260206004820152601d60248201527f416464726573733a2063616c6c20746f206e6f6e2d636f6e74726163740000006044820152606401610849565b600080866001600160a01b0316858760405161185f9190611d4a565b60006040518083038185875af1925050503d806000811461189c576040519150601f19603f3d011682016040523d82523d6000602084013e6118a1565b606091505b5091509150610e8c828286606083156118bb575081611776565b8251156118cb5782518084602001fd5b8160405162461bcd60e51b81526004016108499190611ccd565b6000602082840312156118f757600080fd5b81356001600160e01b03198116811461177657600080fd5b6001600160a01b038116811461192457600080fd5b50565b60008060006060848603121561193c57600080fd5b833592506020840135915060408401356119558161190f565b809150509250925092565b60006020828403121561197257600080fd5b81356117768161190f565b6000806040838503121561199057600080fd5b8235915060208301356119a28161190f565b809150509250929050565b6000602082840312156119bf57600080fd5b5035919050565b60008083601f8401126119d857600080fd5b50813567ffffffffffffffff8111156119f057600080fd5b6020830191508360208260051b8501011115611a0b57600080fd5b9250929050565b600080600060408486031215611a2757600080fd5b83359250602084013567ffffffffffffffff811115611a4557600080fd5b611a51868287016119c6565b9497909650939450505050565b801515811461192457600080fd5b600080600060608486031215611a8157600080fd5b8335925060208401359150604084013561195581611a5e565b60008060208385031215611aad57600080fd5b823567ffffffffffffffff811115611ac457600080fd5b611ad0858286016119c6565b90969095509350505050565b634e487b7160e01b600052601160045260246000fd5b6000816000190483118215151615611b0c57611b0c611adc565b500290565b600082611b2e57634e487b7160e01b600052601260045260246000fd5b500490565b60008083128015600160ff1b850184121615611b5157611b51611adc565b6001600160ff1b0384018313811615611b6c57611b6c611adc565b50500390565b600082821015611b8457611b84611adc565b500390565b634e487b7160e01b600052603260045260246000fd5b60008219821115611bb257611bb2611adc565b500190565b6000600019821415611bcb57611bcb611adc565b5060010190565b600080821280156001600160ff1b0384900385131615611bf457611bf4611adc565b600160ff1b8390038412811615611c0d57611c0d611adc565b50500190565b600060208284031215611c2557600080fd5b5051919050565b60005b83811015611c47578181015183820152602001611c2f565b838111156107d75750506000910152565b7f416363657373436f6e74726f6c3a206163636f756e7420000000000000000000815260008351611c90816017850160208801611c2c565b7001034b99036b4b9b9b4b733903937b6329607d1b6017918401918201528351611cc1816028840160208801611c2c565b01602801949350505050565b6020815260008251806020840152611cec816040850160208701611c2c565b601f01601f19169190910160400192915050565b600060208284031215611d1257600080fd5b815161177681611a5e565b634e487b7160e01b600052604160045260246000fd5b600081611d4257611d42611adc565b506000190190565b60008251611d5c818460208701611c2c565b919091019291505056fea2646970667358221220cdd3391b8df6384ca054f5d78086417ff14a71cea43c03a7220256c154f0273964736f6c634300080a0033",
  "linkReferences": {},
  "deployedLinkReferences": {}
}