{
  "_format": "hh-sol-artifact-1",
  "contractName": "LFiFarms",
  "sourceName": "contracts/LFiFarms.sol",
  "abi": [
    {
      "inputs": [
        {
          "internalType": "address",
          "name": "_admin",
          "type": "address"
        },
        {
          "internalType": "contract IERC20",
          "name": "_rewardToken",
          "type": "address"
        },
        {
          "internalType": "contract IFundDistributor",
          "name": "_fund",
          "type": "address"
        }
      ],
      "stateMutability": "nonpayable",
      "type": "constructor"
    },
    {
      "anonymous": false,
      "inputs": [
        {
          "indexed": true,
          "internalType": "address",
          "name": "user",
          "type": "address"
        },
        {
          "indexed": true,
          "internalType": "uint256",
          "name": "fid",
          "type": "uint256"
        },
        {
          "indexed": false,
          "internalType": "uint256",
          "name": "amount",
          "type": "uint256"
        },
        {
          "indexed": true,
          "internalType": "address",
          "name": "receiver",
          "type": "address"
        }
      ],
      "name": "EmergencyWithdraw",
      "type": "event"
    },
    {
      "anonymous": false,
      "inputs": [
        {
          "indexed": true,
          "internalType": "uint256",
          "name": "fid",
          "type": "uint256"
        },
        {
          "indexed": false,
          "internalType": "uint256",
          "name": "allocatedPoints",
          "type": "uint256"
        },
        {
          "indexed": true,
          "internalType": "contract IERC20",
          "name": "lpToken",
          "type": "address"
        }
      ],
      "name": "FarmCreated",
      "type": "event"
    },
    {
      "anonymous": false,
      "inputs": [
        {
          "indexed": true,
          "internalType": "address",
          "name": "depositor",
          "type": "address"
        },
        {
          "indexed": true,
          "internalType": "uint256",
          "name": "fid",
          "type": "uint256"
        },
        {
          "indexed": false,
          "internalType": "uint256",
          "name": "amount",
          "type": "uint256"
        },
        {
          "indexed": true,
          "internalType": "address",
          "name": "benefitor",
          "type": "address"
        }
      ],
      "name": "FarmDeposit",
      "type": "event"
    },
    {
      "anonymous": false,
      "inputs": [
        {
          "indexed": true,
          "internalType": "address",
          "name": "fund",
          "type": "address"
        }
      ],
      "name": "FarmFundChanged",
      "type": "event"
    },
    {
      "anonymous": false,
      "inputs": [
        {
          "indexed": true,
          "internalType": "address",
          "name": "requestor",
          "type": "address"
        },
        {
          "indexed": true,
          "internalType": "uint256",
          "name": "fid",
          "type": "uint256"
        },
        {
          "indexed": false,
          "internalType": "uint256",
          "name": "amount",
          "type": "uint256"
        },
        {
          "indexed": true,
          "internalType": "address",
          "name": "receiver",
          "type": "address"
        }
      ],
      "name": "FarmHarvest",
      "type": "event"
    },
    {
      "anonymous": false,
      "inputs": [
        {
          "indexed": true,
          "internalType": "uint256",
          "name": "fid",
          "type": "uint256"
        },
        {
          "indexed": false,
          "internalType": "uint256",
          "name": "lastRewardTime",
          "type": "uint256"
        },
        {
          "indexed": false,
          "internalType": "uint256",
          "name": "lpSupply",
          "type": "uint256"
        },
        {
          "indexed": false,
          "internalType": "uint256",
          "name": "accRewardPerShare",
          "type": "uint256"
        }
      ],
      "name": "FarmUpdated",
      "type": "event"
    },
    {
      "anonymous": false,
      "inputs": [
        {
          "indexed": true,
          "internalType": "address",
          "name": "requestor",
          "type": "address"
        },
        {
          "indexed": true,
          "internalType": "uint256",
          "name": "fid",
          "type": "uint256"
        },
        {
          "indexed": false,
          "internalType": "uint256",
          "name": "amount",
          "type": "uint256"
        },
        {
          "indexed": true,
          "internalType": "address",
          "name": "receiver",
          "type": "address"
        }
      ],
      "name": "FarmWithdraw",
      "type": "event"
    },
    {
      "anonymous": false,
      "inputs": [
        {
          "indexed": true,
          "internalType": "uint256",
          "name": "fid",
          "type": "uint256"
        },
        {
          "indexed": false,
          "internalType": "uint256",
          "name": "allocPoint",
          "type": "uint256"
        },
        {
          "indexed": true,
          "internalType": "contract IRewarder",
          "name": "rewarder",
          "type": "address"
        },
        {
          "indexed": false,
          "internalType": "bool",
          "name": "overwrite",
          "type": "bool"
        }
      ],
      "name": "LogSetPool",
      "type": "event"
    },
    {
      "anonymous": false,
      "inputs": [
        {
          "indexed": false,
          "internalType": "uint256",
          "name": "newRewardPerSecond",
          "type": "uint256"
        }
      ],
      "name": "RewardPerSecondUpdated",
      "type": "event"
    },
    {
      "anonymous": false,
      "inputs": [
        {
          "indexed": true,
          "internalType": "bytes32",
          "name": "role",
          "type": "bytes32"
        },
        {
          "indexed": true,
          "internalType": "bytes32",
          "name": "previousAdminRole",
          "type": "bytes32"
        },
        {
          "indexed": true,
          "internalType": "bytes32",
          "name": "newAdminRole",
          "type": "bytes32"
        }
      ],
      "name": "RoleAdminChanged",
      "type": "event"
    },
    {
      "anonymous": false,
      "inputs": [
        {
          "indexed": true,
          "internalType": "bytes32",
          "name": "role",
          "type": "bytes32"
        },
        {
          "indexed": true,
          "internalType": "address",
          "name": "account",
          "type": "address"
        },
        {
          "indexed": true,
          "internalType": "address",
          "name": "sender",
          "type": "address"
        }
      ],
      "name": "RoleGranted",
      "type": "event"
    },
    {
      "anonymous": false,
      "inputs": [
        {
          "indexed": true,
          "internalType": "bytes32",
          "name": "role",
          "type": "bytes32"
        },
        {
          "indexed": true,
          "internalType": "address",
          "name": "account",
          "type": "address"
        },
        {
          "indexed": true,
          "internalType": "address",
          "name": "sender",
          "type": "address"
        }
      ],
      "name": "RoleRevoked",
      "type": "event"
    },
    {
      "inputs": [],
      "name": "DEFAULT_ADMIN_ROLE",
      "outputs": [
        {
          "internalType": "bytes32",
          "name": "",
          "type": "bytes32"
        }
      ],
      "stateMutability": "view",
      "type": "function"
    },
    {
      "inputs": [
        {
          "internalType": "contract IERC20",
          "name": "_token",
          "type": "address"
        }
      ],
      "name": "checkFarmDoesntExist",
      "outputs": [],
      "stateMutability": "view",
      "type": "function"
    },
    {
      "inputs": [
        {
          "internalType": "uint256",
          "name": "_allocPoint",
          "type": "uint256"
        },
        {
          "internalType": "contract IERC20",
          "name": "_lpToken",
          "type": "address"
        },
        {
          "internalType": "contract IRewarder",
          "name": "_rewarder",
          "type": "address"
        }
      ],
      "name": "createFarm",
      "outputs": [],
      "stateMutability": "nonpayable",
      "type": "function"
    },
    {
      "inputs": [
        {
          "internalType": "uint256",
          "name": "fid",
          "type": "uint256"
        },
        {
          "internalType": "uint256",
          "name": "lpAmount",
          "type": "uint256"
        },
        {
          "internalType": "address",
          "name": "benefitor",
          "type": "address"
        }
      ],
      "name": "deposit",
      "outputs": [],
      "stateMutability": "nonpayable",
      "type": "function"
    },
    {
      "inputs": [
        {
          "internalType": "uint256",
          "name": "fid",
          "type": "uint256"
        },
        {
          "internalType": "address",
          "name": "receiver",
          "type": "address"
        }
      ],
      "name": "emergencyWithdraw",
      "outputs": [],
      "stateMutability": "nonpayable",
      "type": "function"
    },
    {
      "inputs": [
        {
          "internalType": "uint256",
          "name": "",
          "type": "uint256"
        }
      ],
      "name": "farmInfo",
      "outputs": [
        {
          "internalType": "uint256",
          "name": "accRewardPerShare",
          "type": "uint256"
        },
        {
          "internalType": "uint256",
          "name": "lastRewardTime",
          "type": "uint256"
        },
        {
          "internalType": "uint256",
          "name": "allocPoint",
          "type": "uint256"
        }
      ],
      "stateMutability": "view",
      "type": "function"
    },
    {
      "inputs": [],
      "name": "farmLength",
      "outputs": [
        {
          "internalType": "uint256",
          "name": "farms",
          "type": "uint256"
        }
      ],
      "stateMutability": "view",
      "type": "function"
    },
    {
      "inputs": [],
      "name": "fund",
      "outputs": [
        {
          "internalType": "contract IFundDistributor",
          "name": "",
          "type": "address"
        }
      ],
      "stateMutability": "view",
      "type": "function"
    },
    {
      "inputs": [
        {
          "internalType": "bytes32",
          "name": "role",
          "type": "bytes32"
        }
      ],
      "name": "getRoleAdmin",
      "outputs": [
        {
          "internalType": "bytes32",
          "name": "",
          "type": "bytes32"
        }
      ],
      "stateMutability": "view",
      "type": "function"
    },
    {
      "inputs": [
        {
          "internalType": "bytes32",
          "name": "role",
          "type": "bytes32"
        },
        {
          "internalType": "address",
          "name": "account",
          "type": "address"
        }
      ],
      "name": "grantRole",
      "outputs": [],
      "stateMutability": "nonpayable",
      "type": "function"
    },
    {
      "inputs": [
        {
          "internalType": "uint256",
          "name": "fid",
          "type": "uint256"
        },
        {
          "internalType": "address",
          "name": "receiver",
          "type": "address"
        }
      ],
      "name": "harvest",
      "outputs": [],
      "stateMutability": "nonpayable",
      "type": "function"
    },
    {
      "inputs": [
        {
          "internalType": "address",
          "name": "receiver",
          "type": "address"
        }
      ],
      "name": "harvestAll",
      "outputs": [],
      "stateMutability": "nonpayable",
      "type": "function"
    },
    {
      "inputs": [
        {
          "internalType": "bytes32",
          "name": "role",
          "type": "bytes32"
        },
        {
          "internalType": "address",
          "name": "account",
          "type": "address"
        }
      ],
      "name": "hasRole",
      "outputs": [
        {
          "internalType": "bool",
          "name": "",
          "type": "bool"
        }
      ],
      "stateMutability": "view",
      "type": "function"
    },
    {
      "inputs": [
        {
          "internalType": "uint256",
          "name": "",
          "type": "uint256"
        }
      ],
      "name": "lpToken",
      "outputs": [
        {
          "internalType": "contract IERC20",
          "name": "",
          "type": "address"
        }
      ],
      "stateMutability": "view",
      "type": "function"
    },
    {
      "inputs": [
        {
          "internalType": "uint256[]",
          "name": "fids",
          "type": "uint256[]"
        }
      ],
      "name": "massUpdateFarms",
      "outputs": [],
      "stateMutability": "nonpayable",
      "type": "function"
    },
    {
      "inputs": [
        {
          "internalType": "uint256",
          "name": "_fid",
          "type": "uint256"
        },
        {
          "internalType": "address",
          "name": "_user",
          "type": "address"
        }
      ],
      "name": "pendingReward",
      "outputs": [
        {
          "internalType": "uint256",
          "name": "pendingRewards",
          "type": "uint256"
        }
      ],
      "stateMutability": "view",
      "type": "function"
    },
    {
      "inputs": [
        {
          "internalType": "bytes32",
          "name": "role",
          "type": "bytes32"
        },
        {
          "internalType": "address",
          "name": "account",
          "type": "address"
        }
      ],
      "name": "renounceRole",
      "outputs": [],
      "stateMutability": "nonpayable",
      "type": "function"
    },
    {
      "inputs": [
        {
          "internalType": "bytes32",
          "name": "role",
          "type": "bytes32"
        },
        {
          "internalType": "address",
          "name": "account",
          "type": "address"
        }
      ],
      "name": "revokeRole",
      "outputs": [],
      "stateMutability": "nonpayable",
      "type": "function"
    },
    {
      "inputs": [],
      "name": "reward",
      "outputs": [
        {
          "internalType": "contract IERC20",
          "name": "",
          "type": "address"
        }
      ],
      "stateMutability": "view",
      "type": "function"
    },
    {
      "inputs": [],
      "name": "rewardPerSecond",
      "outputs": [
        {
          "internalType": "uint256",
          "name": "",
          "type": "uint256"
        }
      ],
      "stateMutability": "view",
      "type": "function"
    },
    {
      "inputs": [
        {
          "internalType": "uint256",
          "name": "",
          "type": "uint256"
        }
      ],
      "name": "rewarder",
      "outputs": [
        {
          "internalType": "contract IRewarder",
          "name": "",
          "type": "address"
        }
      ],
      "stateMutability": "view",
      "type": "function"
    },
    {
      "inputs": [
        {
          "internalType": "uint256",
          "name": "fid",
          "type": "uint256"
        },
        {
          "internalType": "uint256",
          "name": "allocPoint",
          "type": "uint256"
        },
        {
          "internalType": "contract IRewarder",
          "name": "_rewarder",
          "type": "address"
        },
        {
          "internalType": "bool",
          "name": "overwrite",
          "type": "bool"
        }
      ],
      "name": "setFarm",
      "outputs": [],
      "stateMutability": "nonpayable",
      "type": "function"
    },
    {
      "inputs": [
        {
          "internalType": "contract IFundDistributor",
          "name": "_fund",
          "type": "address"
        }
      ],
      "name": "setFund",
      "outputs": [],
      "stateMutability": "nonpayable",
      "type": "function"
    },
    {
      "inputs": [
        {
          "internalType": "uint256",
          "name": "_rewardPerSecond",
          "type": "uint256"
        }
      ],
      "name": "setRewardPerSecond",
      "outputs": [],
      "stateMutability": "nonpayable",
      "type": "function"
    },
    {
      "inputs": [
        {
          "internalType": "bytes4",
          "name": "interfaceId",
          "type": "bytes4"
        }
      ],
      "name": "supportsInterface",
      "outputs": [
        {
          "internalType": "bool",
          "name": "",
          "type": "bool"
        }
      ],
      "stateMutability": "view",
      "type": "function"
    },
    {
      "inputs": [],
      "name": "totalAllocPoint",
      "outputs": [
        {
          "internalType": "uint256",
          "name": "",
          "type": "uint256"
        }
      ],
      "stateMutability": "view",
      "type": "function"
    },
    {
      "inputs": [
        {
          "internalType": "uint256",
          "name": "fid",
          "type": "uint256"
        }
      ],
      "name": "updateFarm",
      "outputs": [
        {
          "components": [
            {
              "internalType": "uint256",
              "name": "accRewardPerShare",
              "type": "uint256"
            },
            {
              "internalType": "uint256",
              "name": "lastRewardTime",
              "type": "uint256"
            },
            {
              "internalType": "uint256",
              "name": "allocPoint",
              "type": "uint256"
            }
          ],
          "internalType": "struct LFiFarms.FarmInfo",
          "name": "farm",
          "type": "tuple"
        }
      ],
      "stateMutability": "nonpayable",
      "type": "function"
    },
    {
      "inputs": [
        {
          "internalType": "uint256",
          "name": "",
          "type": "uint256"
        },
        {
          "internalType": "address",
          "name": "",
          "type": "address"
        }
      ],
      "name": "userInfo",
      "outputs": [
        {
          "internalType": "uint256",
          "name": "amount",
          "type": "uint256"
        },
        {
          "internalType": "int256",
          "name": "rewardDebt",
          "type": "int256"
        }
      ],
      "stateMutability": "view",
      "type": "function"
    },
    {
      "inputs": [
        {
          "internalType": "uint256",
          "name": "fid",
          "type": "uint256"
        },
        {
          "internalType": "uint256",
          "name": "LPTokenAmount",
          "type": "uint256"
        },
        {
          "internalType": "address",
          "name": "receiver",
          "type": "address"
        }
      ],
      "name": "withdraw",
      "outputs": [],
      "stateMutability": "nonpayable",
      "type": "function"
    },
    {
      "inputs": [
        {
          "internalType": "uint256",
          "name": "fid",
          "type": "uint256"
        },
        {
          "internalType": "uint256",
          "name": "LPTokenamount",
          "type": "uint256"
        },
        {
          "internalType": "address",
          "name": "receiver",
          "type": "address"
        }
      ],
      "name": "withdrawAndHarvest",
      "outputs": [],
      "stateMutability": "nonpayable",
      "type": "function"
    }
  ],
  "bytecode": "0x608060405260006007553480156200001657600080fd5b5060405162003d9d38038062003d9d83398181016040528101906200003c919062000349565b81600160006101000a81548173ffffffffffffffffffffffffffffffffffffffff021916908373ffffffffffffffffffffffffffffffffffffffff16021790555080600260006101000a81548173ffffffffffffffffffffffffffffffffffffffff021916908373ffffffffffffffffffffffffffffffffffffffff160217905550620000d36000801b84620000dc60201b60201c565b505050620003a5565b620000ee8282620000f260201b60201c565b5050565b620001048282620001e360201b60201c565b620001df57600160008084815260200190815260200160002060000160008373ffffffffffffffffffffffffffffffffffffffff1673ffffffffffffffffffffffffffffffffffffffff16815260200190815260200160002060006101000a81548160ff021916908315150217905550620001846200024d60201b60201c565b73ffffffffffffffffffffffffffffffffffffffff168173ffffffffffffffffffffffffffffffffffffffff16837f2f8788117e7eff1d82e926ec794901d17c78024a50270940304540a733656f0d60405160405180910390a45b5050565b600080600084815260200190815260200160002060000160008373ffffffffffffffffffffffffffffffffffffffff1673ffffffffffffffffffffffffffffffffffffffff16815260200190815260200160002060009054906101000a900460ff16905092915050565b600033905090565b600080fd5b600073ffffffffffffffffffffffffffffffffffffffff82169050919050565b600062000287826200025a565b9050919050565b62000299816200027a565b8114620002a557600080fd5b50565b600081519050620002b9816200028e565b92915050565b6000620002cc826200027a565b9050919050565b620002de81620002bf565b8114620002ea57600080fd5b50565b600081519050620002fe81620002d3565b92915050565b600062000311826200027a565b9050919050565b620003238162000304565b81146200032f57600080fd5b50565b600081519050620003438162000318565b92915050565b60008060006060848603121562000365576200036462000255565b5b60006200037586828701620002a8565b93505060206200038886828701620002ed565b92505060406200039b8682870162000332565b9150509250925092565b6139e880620003b56000396000f3fe608060405234801561001057600080fd5b50600436106101da5760003560e01c80638a48a515116101045780639bde8099116100a2578063cc430ced11610071578063cc430ced14610566578063d1abb90714610596578063d547741f146105b2578063defb3618146105ce576101da565b80639bde8099146104de578063a217fddf146104fa578063b60d428814610518578063c346253d14610536576101da565b80638fa82c88116100de5780638fa82c881461043157806391d148541461044d57806393f1a40b1461047d57806398969e82146104ae576101da565b80638a48a515146103d95780638dbdbe6d146103f75780638f10369a14610413576101da565b80632f2ff15d1161017c57806366da58151161014b57806366da58151461033f578063699bdca91461035b57806378ed5d1f146103775780637d21c967146103a7576101da565b80632f2ff15d146102cf5780632f940c70146102eb57806336568abe146103075780634a1a680314610323576101da565b806317caf6f1116101b857806317caf6f11461024757806318fccc7614610265578063228cb73314610281578063248a9ca31461029f576101da565b806301ffc9a7146101df5780630ad58d2f1461020f5780630e21750f1461022b575b600080fd5b6101f960048036038101906101f49190612845565b6105ea565b604051610206919061288d565b60405180910390f35b6102296004803603810190610224919061293c565b610664565b005b610245600480360381019061024091906129cd565b6107f0565b005b61024f61088d565b60405161025c9190612a09565b60405180910390f35b61027f600480360381019061027a9190612a24565b610893565b005b610289610a48565b6040516102969190612ac3565b60405180910390f35b6102b960048036038101906102b49190612b14565b610a6e565b6040516102c69190612b50565b60405180910390f35b6102e960048036038101906102e49190612b6b565b610a8d565b005b61030560048036038101906103009190612a24565b610ab6565b005b610321600480360381019061031c9190612b6b565b610bfc565b005b61033d60048036038101906103389190612c15565b610c7f565b005b61035960048036038101906103549190612c7c565b610e08565b005b61037560048036038101906103709190612ca9565b610e5f565b005b610391600480360381019061038c9190612c7c565b610ef1565b60405161039e9190612ac3565b60405180910390f35b6103c160048036038101906103bc9190612c7c565b610f30565b6040516103d093929190612cd6565b60405180910390f35b6103e1610f6a565b6040516103ee9190612a09565b60405180910390f35b610411600480360381019061040c919061293c565b610f77565b005b61041b611105565b6040516104289190612a09565b60405180910390f35b61044b60048036038101906104469190612d72565b61110b565b005b61046760048036038101906104629190612b6b565b61115a565b604051610474919061288d565b60405180910390f35b61049760048036038101906104929190612a24565b6111c4565b6040516104a5929190612dd8565b60405180910390f35b6104c860048036038101906104c39190612a24565b6111f5565b6040516104d59190612a09565b60405180910390f35b6104f860048036038101906104f39190612e3f565b611420565b005b6105026114f4565b60405161050f9190612b50565b60405180910390f35b6105206114fb565b60405161052d9190612e8d565b60405180910390f35b610550600480360381019061054b9190612c7c565b611521565b60405161055d9190612ec9565b60405180910390f35b610580600480360381019061057b9190612c7c565b611560565b60405161058d9190612f35565b60405180910390f35b6105b060048036038101906105ab919061293c565b611898565b005b6105cc60048036038101906105c79190612b6b565b611b50565b005b6105e860048036038101906105e39190612f50565b611b79565b005b60007f7965db0b000000000000000000000000000000000000000000000000000000007bffffffffffffffffffffffffffffffffffffffffffffffffffffffff1916827bffffffffffffffffffffffffffffffffffffffffffffffffffffffff1916148061065d575061065c82611d43565b5b9050919050565b600061066f84611560565b905060006006600086815260200190815260200160002060003373ffffffffffffffffffffffffffffffffffffffff1673ffffffffffffffffffffffffffffffffffffffff168152602001908152602001600020905064e8d4a510008260000151856106db9190612fd2565b6106e5919061305b565b8160010160008282546106f8919061308c565b92505081905550838160000160008282546107139190613120565b9250508190555061078383856004888154811061073357610732613154565b5b9060005260206000200160009054906101000a900473ffffffffffffffffffffffffffffffffffffffff1673ffffffffffffffffffffffffffffffffffffffff16611dad9092919063ffffffff16565b8273ffffffffffffffffffffffffffffffffffffffff16853373ffffffffffffffffffffffffffffffffffffffff167fc9da9141b9ad9eed3c5b5d7e7799519c54f06cc3ee3f1c49c16f2f297660baef876040516107e19190612a09565b60405180910390a45050505050565b6000801b61080581610800611e33565b611e3b565b81600260006101000a81548173ffffffffffffffffffffffffffffffffffffffff021916908373ffffffffffffffffffffffffffffffffffffffff1602179055508173ffffffffffffffffffffffffffffffffffffffff167f3f791d163ad67bd54ebfd77208ced9c9e64ac4c2a74e1c9d0b5e2d417034dfdb60405160405180910390a25050565b60075481565b600061089e83611560565b905060006006600085815260200190815260200160002060003373ffffffffffffffffffffffffffffffffffffffff1673ffffffffffffffffffffffffffffffffffffffff1681526020019081526020016000209050600064e8d4a51000836000015183600001546109109190612fd2565b61091a919061305b565b905061092581611ed8565b6000826001015482610937919061308c565b905061094281611f71565b818360010181905550600260009054906101000a900473ffffffffffffffffffffffffffffffffffffffff1673ffffffffffffffffffffffffffffffffffffffff16631ec8bb8c86836040518363ffffffff1660e01b81526004016109a8929190613192565b600060405180830381600087803b1580156109c257600080fd5b505af11580156109d6573d6000803e3d6000fd5b505050508473ffffffffffffffffffffffffffffffffffffffff16863373ffffffffffffffffffffffffffffffffffffffff167f8019192f65b34fad6bf2766db2d26c808d77abc63af77b2ba2e329ab18aa8a0d84604051610a389190612a09565b60405180910390a4505050505050565b600160009054906101000a900473ffffffffffffffffffffffffffffffffffffffff1681565b6000806000838152602001908152602001600020600101549050919050565b610a9682610a6e565b610aa781610aa2611e33565b611e3b565b610ab1838361200a565b505050565b60006006600084815260200190815260200160002060003373ffffffffffffffffffffffffffffffffffffffff1673ffffffffffffffffffffffffffffffffffffffff16815260200190815260200160002090506000816000015490506000826000018190555060008260010181905550610b90838260048781548110610b4057610b3f613154565b5b9060005260206000200160009054906101000a900473ffffffffffffffffffffffffffffffffffffffff1673ffffffffffffffffffffffffffffffffffffffff16611dad9092919063ffffffff16565b8273ffffffffffffffffffffffffffffffffffffffff16843373ffffffffffffffffffffffffffffffffffffffff167f2cac5e20e1541d836381527a43f651851e302817b71dc8e810284e69210c1c6b84604051610bee9190612a09565b60405180910390a450505050565b610c04611e33565b73ffffffffffffffffffffffffffffffffffffffff168173ffffffffffffffffffffffffffffffffffffffff1614610c71576040517f08c379a0000000000000000000000000000000000000000000000000000000008152600401610c689061323e565b60405180910390fd5b610c7b82826120ea565b5050565b6000801b610c9481610c8f611e33565b611e3b565b8360038681548110610ca957610ca8613154565b5b906000526020600020906003020160020154600754610cc89190613120565b610cd2919061325e565b6007819055508360038681548110610ced57610cec613154565b5b9060005260206000209060030201600201819055508115610d66578260058681548110610d1d57610d1c613154565b5b9060005260206000200160006101000a81548173ffffffffffffffffffffffffffffffffffffffff021916908373ffffffffffffffffffffffffffffffffffffffff1602179055505b81610daf5760058581548110610d7f57610d7e613154565b5b9060005260206000200160009054906101000a900473ffffffffffffffffffffffffffffffffffffffff16610db1565b825b73ffffffffffffffffffffffffffffffffffffffff16857f95895a6ab1df54420d241b55243258a33e61b2194db66c1179ec521aae8e18658685604051610df99291906132b4565b60405180910390a35050505050565b6000801b610e1d81610e18611e33565b611e3b565b816008819055507f951c6f64eb06ec6a6682072cda71420984dd55199006684bb820a80fd7e9879382604051610e539190612a09565b60405180910390a15050565b6000600380549050905060005b81811015610eec5760006006600083815260200190815260200160002060003373ffffffffffffffffffffffffffffffffffffffff1673ffffffffffffffffffffffffffffffffffffffff168152602001908152602001600020600001541115610edb57610eda8184610893565b5b80610ee5906132dd565b9050610e6c565b505050565b60048181548110610f0157600080fd5b906000526020600020016000915054906101000a900473ffffffffffffffffffffffffffffffffffffffff1681565b60038181548110610f4057600080fd5b90600052602060002090600302016000915090508060000154908060010154908060020154905083565b6000600380549050905090565b6000610f8284611560565b905060006006600086815260200190815260200160002060008473ffffffffffffffffffffffffffffffffffffffff1673ffffffffffffffffffffffffffffffffffffffff168152602001908152602001600020905083816000016000828254610fec919061325e565b9250508190555064e8d4a510008260000151856110099190612fd2565b611013919061305b565b8160010160008282546110269190613326565b925050819055506110983330866004898154811061104757611046613154565b5b9060005260206000200160009054906101000a900473ffffffffffffffffffffffffffffffffffffffff1673ffffffffffffffffffffffffffffffffffffffff166121cb909392919063ffffffff16565b8273ffffffffffffffffffffffffffffffffffffffff16853373ffffffffffffffffffffffffffffffffffffffff167f8f3ed488ccb8ee9d27a4cb66377f8127c651bd8f8b68df7b23d7b5676961787f876040516110f69190612a09565b60405180910390a45050505050565b60085481565b600082829050905060005b818110156111545761114084848381811061113457611133613154565b5b90506020020135611560565b50808061114c906132dd565b915050611116565b50505050565b600080600084815260200190815260200160002060000160008373ffffffffffffffffffffffffffffffffffffffff1673ffffffffffffffffffffffffffffffffffffffff16815260200190815260200160002060009054906101000a900460ff16905092915050565b6006602052816000526040600020602052806000526040600020600091509150508060000154908060010154905082565b6000806003848154811061120c5761120b613154565b5b90600052602060002090600302016040518060600160405290816000820154815260200160018201548152602001600282015481525050905060006006600086815260200190815260200160002060008573ffffffffffffffffffffffffffffffffffffffff1673ffffffffffffffffffffffffffffffffffffffff16815260200190815260200160002090506000826000015190506000600487815481106112b8576112b7613154565b5b9060005260206000200160009054906101000a900473ffffffffffffffffffffffffffffffffffffffff1673ffffffffffffffffffffffffffffffffffffffff166370a08231306040518263ffffffff1660e01b815260040161131b91906133ba565b602060405180830381865afa158015611338573d6000803e3d6000fd5b505050506040513d601f19601f8201168201806040525081019061135c91906133ea565b9050836020015142118015611372575060008114155b156113e55760008460200151426113899190613120565b905060006007548660400151600854846113a39190612fd2565b6113ad9190612fd2565b6113b7919061305b565b90508264e8d4a51000826113cb9190612fd2565b6113d5919061305b565b846113e0919061325e565b935050505b826001015464e8d4a510008385600001546114009190612fd2565b61140a919061305b565b611414919061308c565b94505050505092915050565b60005b6003805490508110156114f0578173ffffffffffffffffffffffffffffffffffffffff166004828154811061145b5761145a613154565b5b9060005260206000200160009054906101000a900473ffffffffffffffffffffffffffffffffffffffff1673ffffffffffffffffffffffffffffffffffffffff1614156114dd576040517f08c379a00000000000000000000000000000000000000000000000000000000081526004016114d490613463565b60405180910390fd5b80806114e8906132dd565b915050611423565b5050565b6000801b81565b600260009054906101000a900473ffffffffffffffffffffffffffffffffffffffff1681565b6005818154811061153157600080fd5b906000526020600020016000915054906101000a900473ffffffffffffffffffffffffffffffffffffffff1681565b6115686127c2565b6003828154811061157c5761157b613154565b5b9060005260206000209060030201604051806060016040529081600082015481526020016001820154815260200160028201548152505090504281602001511015611893576000600483815481106115d7576115d6613154565b5b9060005260206000200160009054906101000a900473ffffffffffffffffffffffffffffffffffffffff1673ffffffffffffffffffffffffffffffffffffffff166370a08231306040518263ffffffff1660e01b815260040161163a91906133ba565b602060405180830381865afa158015611657573d6000803e3d6000fd5b505050506040513d601f19601f8201168201806040525081019061167b91906133ea565b90506116bc6040518060400160405280600881526020017f4c50537570706c7900000000000000000000000000000000000000000000000081525082612254565b60008111156117ff5760008260200151426116d79190613120565b90506117186040518060400160405280600581526020017f54696d653a00000000000000000000000000000000000000000000000000000081525082612254565b60006007548460400151600854846117309190612fd2565b61173a9190612fd2565b611744919061305b565b90506117856040518060400160405280600c81526020017f726577617264416d6f756e74000000000000000000000000000000000000000081525082612254565b8264e8d4a51000826117979190612fd2565b6117a1919061305b565b846000018181516117b2919061325e565b915081815250506117fc6040518060400160405280600881526020017f4661726d204163630000000000000000000000000000000000000000000000008152508560000151612254565b50505b42826020018181525050816003848154811061181e5761181d613154565b5b9060005260206000209060030201600082015181600001556020820151816001015560408201518160020155905050827f7afa65e874128c36660ee87dc188d5db7715c3183d701645e98701b5ef8cd913836020015183856000015160405161188993929190612cd6565b60405180910390a2505b919050565b60006118a384611560565b905060006006600086815260200190815260200160002060003373ffffffffffffffffffffffffffffffffffffffff1673ffffffffffffffffffffffffffffffffffffffff1681526020019081526020016000209050600064e8d4a51000836000015183600001546119159190612fd2565b61191f919061305b565b90506000826001015482611933919061308c565b905064e8d4a5100084600001518761194b9190612fd2565b611955919061305b565b82611960919061308c565b83600101819055508583600001600082825461197c9190613120565b92505081905550600260009054906101000a900473ffffffffffffffffffffffffffffffffffffffff1673ffffffffffffffffffffffffffffffffffffffff16631ec8bb8c86886040518363ffffffff1660e01b81526004016119e0929190613192565b600060405180830381600087803b1580156119fa57600080fd5b505af1158015611a0e573d6000803e3d6000fd5b50505050611a7b858760048a81548110611a2b57611a2a613154565b5b9060005260206000200160009054906101000a900473ffffffffffffffffffffffffffffffffffffffff1673ffffffffffffffffffffffffffffffffffffffff16611dad9092919063ffffffff16565b8473ffffffffffffffffffffffffffffffffffffffff16873373ffffffffffffffffffffffffffffffffffffffff167fc9da9141b9ad9eed3c5b5d7e7799519c54f06cc3ee3f1c49c16f2f297660baef89604051611ad99190612a09565b60405180910390a48473ffffffffffffffffffffffffffffffffffffffff16873373ffffffffffffffffffffffffffffffffffffffff167f8019192f65b34fad6bf2766db2d26c808d77abc63af77b2ba2e329ab18aa8a0d84604051611b3f9190612a09565b60405180910390a450505050505050565b611b5982610a6e565b611b6a81611b65611e33565b611e3b565b611b7483836120ea565b505050565b6000801b611b8e81611b89611e33565b611e3b565b611b9783611420565b8360076000828254611ba9919061325e565b92505081905550600360405180606001604052806000815260200142815260200186815250908060018154018082558091505060019003906000526020600020906003020160009091909190915060008201518160000155602082015181600101556040820151816002015550506004839080600181540180825580915050600190039060005260206000200160009091909190916101000a81548173ffffffffffffffffffffffffffffffffffffffff021916908373ffffffffffffffffffffffffffffffffffffffff1602179055506005829080600181540180825580915050600190039060005260206000200160009091909190916101000a81548173ffffffffffffffffffffffffffffffffffffffff021916908373ffffffffffffffffffffffffffffffffffffffff1602179055508273ffffffffffffffffffffffffffffffffffffffff166001600480549050611d069190613120565b7f61c9bf39bb035d6f43bf12aa7b22bfec1d61788e90b7249fad7625529c11518186604051611d359190612a09565b60405180910390a350505050565b60007f01ffc9a7000000000000000000000000000000000000000000000000000000007bffffffffffffffffffffffffffffffffffffffffffffffffffffffff1916827bffffffffffffffffffffffffffffffffffffffffffffffffffffffff1916149050919050565b611e2e8363a9059cbb60e01b8484604051602401611dcc929190613192565b604051602081830303815290604052907bffffffffffffffffffffffffffffffffffffffffffffffffffffffff19166020820180517bffffffffffffffffffffffffffffffffffffffffffffffffffffffff83818316178352505050506122f0565b505050565b600033905090565b611e45828261115a565b611ed457611e6a8173ffffffffffffffffffffffffffffffffffffffff1660146123b7565b611e788360001c60206123b7565b604051602001611e89929190613595565b6040516020818303038152906040526040517f08c379a0000000000000000000000000000000000000000000000000000000008152600401611ecb9190613619565b60405180910390fd5b5050565b611f6e81604051602401611eec919061363b565b6040516020818303038152906040527f4e0c1d1d000000000000000000000000000000000000000000000000000000007bffffffffffffffffffffffffffffffffffffffffffffffffffffffff19166020820180517bffffffffffffffffffffffffffffffffffffffffffffffffffffffff83818316178352505050506125f3565b50565b61200781604051602401611f859190612a09565b6040516020818303038152906040527ff5b1bba9000000000000000000000000000000000000000000000000000000007bffffffffffffffffffffffffffffffffffffffffffffffffffffffff19166020820180517bffffffffffffffffffffffffffffffffffffffffffffffffffffffff83818316178352505050506125f3565b50565b612014828261115a565b6120e657600160008084815260200190815260200160002060000160008373ffffffffffffffffffffffffffffffffffffffff1673ffffffffffffffffffffffffffffffffffffffff16815260200190815260200160002060006101000a81548160ff02191690831515021790555061208b611e33565b73ffffffffffffffffffffffffffffffffffffffff168173ffffffffffffffffffffffffffffffffffffffff16837f2f8788117e7eff1d82e926ec794901d17c78024a50270940304540a733656f0d60405160405180910390a45b5050565b6120f4828261115a565b156121c757600080600084815260200190815260200160002060000160008373ffffffffffffffffffffffffffffffffffffffff1673ffffffffffffffffffffffffffffffffffffffff16815260200190815260200160002060006101000a81548160ff02191690831515021790555061216c611e33565b73ffffffffffffffffffffffffffffffffffffffff168173ffffffffffffffffffffffffffffffffffffffff16837ff6391f5c32d9c69d2a47ea670b442974b53935d1edc7fd64eb21e047a839171b60405160405180910390a45b5050565b61224e846323b872dd60e01b8585856040516024016121ec93929190613656565b604051602081830303815290604052907bffffffffffffffffffffffffffffffffffffffffffffffffffffffff19166020820180517bffffffffffffffffffffffffffffffffffffffffffffffffffffffff83818316178352505050506122f0565b50505050565b6122ec828260405160240161226a92919061368d565b6040516020818303038152906040527f9710a9d0000000000000000000000000000000000000000000000000000000007bffffffffffffffffffffffffffffffffffffffffffffffffffffffff19166020820180517bffffffffffffffffffffffffffffffffffffffffffffffffffffffff83818316178352505050506125f3565b5050565b6000612352826040518060400160405280602081526020017f5361666545524332303a206c6f772d6c6576656c2063616c6c206661696c65648152508573ffffffffffffffffffffffffffffffffffffffff1661261c9092919063ffffffff16565b90506000815111156123b2578080602001905181019061237291906136d2565b6123b1576040517f08c379a00000000000000000000000000000000000000000000000000000000081526004016123a890613771565b60405180910390fd5b5b505050565b6060600060028360026123ca9190612fd2565b6123d4919061325e565b67ffffffffffffffff8111156123ed576123ec613791565b5b6040519080825280601f01601f19166020018201604052801561241f5781602001600182028036833780820191505090505b5090507f30000000000000000000000000000000000000000000000000000000000000008160008151811061245757612456613154565b5b60200101907effffffffffffffffffffffffffffffffffffffffffffffffffffffffffffff1916908160001a9053507f7800000000000000000000000000000000000000000000000000000000000000816001815181106124bb576124ba613154565b5b60200101907effffffffffffffffffffffffffffffffffffffffffffffffffffffffffffff1916908160001a905350600060018460026124fb9190612fd2565b612505919061325e565b90505b60018111156125a5577f3031323334353637383961626364656600000000000000000000000000000000600f86166010811061254757612546613154565b5b1a60f81b82828151811061255e5761255d613154565b5b60200101907effffffffffffffffffffffffffffffffffffffffffffffffffffffffffffff1916908160001a905350600485901c94508061259e906137c0565b9050612508565b50600084146125e9576040517f08c379a00000000000000000000000000000000000000000000000000000000081526004016125e090613836565b60405180910390fd5b8091505092915050565b60008151905060006a636f6e736f6c652e6c6f679050602083016000808483855afa5050505050565b606061262b8484600085612634565b90509392505050565b606082471015612679576040517f08c379a0000000000000000000000000000000000000000000000000000000008152600401612670906138c8565b60405180910390fd5b61268285612748565b6126c1576040517f08c379a00000000000000000000000000000000000000000000000000000000081526004016126b890613934565b60405180910390fd5b6000808673ffffffffffffffffffffffffffffffffffffffff1685876040516126ea919061399b565b60006040518083038185875af1925050503d8060008114612727576040519150601f19603f3d011682016040523d82523d6000602084013e61272c565b606091505b509150915061273c82828661275b565b92505050949350505050565b600080823b905060008111915050919050565b6060831561276b578290506127bb565b60008351111561277e5782518084602001fd5b816040517f08c379a00000000000000000000000000000000000000000000000000000000081526004016127b29190613619565b60405180910390fd5b9392505050565b60405180606001604052806000815260200160008152602001600081525090565b600080fd5b600080fd5b60007fffffffff0000000000000000000000000000000000000000000000000000000082169050919050565b612822816127ed565b811461282d57600080fd5b50565b60008135905061283f81612819565b92915050565b60006020828403121561285b5761285a6127e3565b5b600061286984828501612830565b91505092915050565b60008115159050919050565b61288781612872565b82525050565b60006020820190506128a2600083018461287e565b92915050565b6000819050919050565b6128bb816128a8565b81146128c657600080fd5b50565b6000813590506128d8816128b2565b92915050565b600073ffffffffffffffffffffffffffffffffffffffff82169050919050565b6000612909826128de565b9050919050565b612919816128fe565b811461292457600080fd5b50565b60008135905061293681612910565b92915050565b600080600060608486031215612955576129546127e3565b5b6000612963868287016128c9565b9350506020612974868287016128c9565b925050604061298586828701612927565b9150509250925092565b600061299a826128fe565b9050919050565b6129aa8161298f565b81146129b557600080fd5b50565b6000813590506129c7816129a1565b92915050565b6000602082840312156129e3576129e26127e3565b5b60006129f1848285016129b8565b91505092915050565b612a03816128a8565b82525050565b6000602082019050612a1e60008301846129fa565b92915050565b60008060408385031215612a3b57612a3a6127e3565b5b6000612a49858286016128c9565b9250506020612a5a85828601612927565b9150509250929050565b6000819050919050565b6000612a89612a84612a7f846128de565b612a64565b6128de565b9050919050565b6000612a9b82612a6e565b9050919050565b6000612aad82612a90565b9050919050565b612abd81612aa2565b82525050565b6000602082019050612ad86000830184612ab4565b92915050565b6000819050919050565b612af181612ade565b8114612afc57600080fd5b50565b600081359050612b0e81612ae8565b92915050565b600060208284031215612b2a57612b296127e3565b5b6000612b3884828501612aff565b91505092915050565b612b4a81612ade565b82525050565b6000602082019050612b656000830184612b41565b92915050565b60008060408385031215612b8257612b816127e3565b5b6000612b9085828601612aff565b9250506020612ba185828601612927565b9150509250929050565b6000612bb6826128fe565b9050919050565b612bc681612bab565b8114612bd157600080fd5b50565b600081359050612be381612bbd565b92915050565b612bf281612872565b8114612bfd57600080fd5b50565b600081359050612c0f81612be9565b92915050565b60008060008060808587031215612c2f57612c2e6127e3565b5b6000612c3d878288016128c9565b9450506020612c4e878288016128c9565b9350506040612c5f87828801612bd4565b9250506060612c7087828801612c00565b91505092959194509250565b600060208284031215612c9257612c916127e3565b5b6000612ca0848285016128c9565b91505092915050565b600060208284031215612cbf57612cbe6127e3565b5b6000612ccd84828501612927565b91505092915050565b6000606082019050612ceb60008301866129fa565b612cf860208301856129fa565b612d0560408301846129fa565b949350505050565b600080fd5b600080fd5b600080fd5b60008083601f840112612d3257612d31612d0d565b5b8235905067ffffffffffffffff811115612d4f57612d4e612d12565b5b602083019150836020820283011115612d6b57612d6a612d17565b5b9250929050565b60008060208385031215612d8957612d886127e3565b5b600083013567ffffffffffffffff811115612da757612da66127e8565b5b612db385828601612d1c565b92509250509250929050565b6000819050919050565b612dd281612dbf565b82525050565b6000604082019050612ded60008301856129fa565b612dfa6020830184612dc9565b9392505050565b6000612e0c826128fe565b9050919050565b612e1c81612e01565b8114612e2757600080fd5b50565b600081359050612e3981612e13565b92915050565b600060208284031215612e5557612e546127e3565b5b6000612e6384828501612e2a565b91505092915050565b6000612e7782612a90565b9050919050565b612e8781612e6c565b82525050565b6000602082019050612ea26000830184612e7e565b92915050565b6000612eb382612a90565b9050919050565b612ec381612ea8565b82525050565b6000602082019050612ede6000830184612eba565b92915050565b612eed816128a8565b82525050565b606082016000820151612f096000850182612ee4565b506020820151612f1c6020850182612ee4565b506040820151612f2f6040850182612ee4565b50505050565b6000606082019050612f4a6000830184612ef3565b92915050565b600080600060608486031215612f6957612f686127e3565b5b6000612f77868287016128c9565b9350506020612f8886828701612e2a565b9250506040612f9986828701612bd4565b9150509250925092565b7f4e487b7100000000000000000000000000000000000000000000000000000000600052601160045260246000fd5b6000612fdd826128a8565b9150612fe8836128a8565b9250817fffffffffffffffffffffffffffffffffffffffffffffffffffffffffffffffff048311821515161561302157613020612fa3565b5b828202905092915050565b7f4e487b7100000000000000000000000000000000000000000000000000000000600052601260045260246000fd5b6000613066826128a8565b9150613071836128a8565b9250826130815761308061302c565b5b828204905092915050565b600061309782612dbf565b91506130a283612dbf565b9250827f8000000000000000000000000000000000000000000000000000000000000000018212600084121516156130dd576130dc612fa3565b5b827f7fffffffffffffffffffffffffffffffffffffffffffffffffffffffffffffff01821360008412161561311557613114612fa3565b5b828203905092915050565b600061312b826128a8565b9150613136836128a8565b92508282101561314957613148612fa3565b5b828203905092915050565b7f4e487b7100000000000000000000000000000000000000000000000000000000600052603260045260246000fd5b61318c816128fe565b82525050565b60006040820190506131a76000830185613183565b6131b460208301846129fa565b9392505050565b600082825260208201905092915050565b7f416363657373436f6e74726f6c3a2063616e206f6e6c792072656e6f756e636560008201527f20726f6c657320666f722073656c660000000000000000000000000000000000602082015250565b6000613228602f836131bb565b9150613233826131cc565b604082019050919050565b600060208201905081810360008301526132578161321b565b9050919050565b6000613269826128a8565b9150613274836128a8565b9250827fffffffffffffffffffffffffffffffffffffffffffffffffffffffffffffffff038211156132a9576132a8612fa3565b5b828201905092915050565b60006040820190506132c960008301856129fa565b6132d6602083018461287e565b9392505050565b60006132e8826128a8565b91507fffffffffffffffffffffffffffffffffffffffffffffffffffffffffffffffff82141561331b5761331a612fa3565b5b600182019050919050565b600061333182612dbf565b915061333c83612dbf565b9250817f7fffffffffffffffffffffffffffffffffffffffffffffffffffffffffffffff0383136000831215161561337757613376612fa3565b5b817f80000000000000000000000000000000000000000000000000000000000000000383126000831216156133af576133ae612fa3565b5b828201905092915050565b60006020820190506133cf6000830184613183565b92915050565b6000815190506133e4816128b2565b92915050565b600060208284031215613400576133ff6127e3565b5b600061340e848285016133d5565b91505092915050565b7f4661726d2065786973747320616c726561647900000000000000000000000000600082015250565b600061344d6013836131bb565b915061345882613417565b602082019050919050565b6000602082019050818103600083015261347c81613440565b9050919050565b600081905092915050565b7f416363657373436f6e74726f6c3a206163636f756e7420000000000000000000600082015250565b60006134c4601783613483565b91506134cf8261348e565b601782019050919050565b600081519050919050565b60005b838110156135035780820151818401526020810190506134e8565b83811115613512576000848401525b50505050565b6000613523826134da565b61352d8185613483565b935061353d8185602086016134e5565b80840191505092915050565b7f206973206d697373696e6720726f6c6520000000000000000000000000000000600082015250565b600061357f601183613483565b915061358a82613549565b601182019050919050565b60006135a0826134b7565b91506135ac8285613518565b91506135b782613572565b91506135c38284613518565b91508190509392505050565b6000601f19601f8301169050919050565b60006135eb826134da565b6135f581856131bb565b93506136058185602086016134e5565b61360e816135cf565b840191505092915050565b6000602082019050818103600083015261363381846135e0565b905092915050565b60006020820190506136506000830184612dc9565b92915050565b600060608201905061366b6000830186613183565b6136786020830185613183565b61368560408301846129fa565b949350505050565b600060408201905081810360008301526136a781856135e0565b90506136b660208301846129fa565b9392505050565b6000815190506136cc81612be9565b92915050565b6000602082840312156136e8576136e76127e3565b5b60006136f6848285016136bd565b91505092915050565b7f5361666545524332303a204552433230206f7065726174696f6e20646964206e60008201527f6f74207375636365656400000000000000000000000000000000000000000000602082015250565b600061375b602a836131bb565b9150613766826136ff565b604082019050919050565b6000602082019050818103600083015261378a8161374e565b9050919050565b7f4e487b7100000000000000000000000000000000000000000000000000000000600052604160045260246000fd5b60006137cb826128a8565b915060008214156137df576137de612fa3565b5b600182039050919050565b7f537472696e67733a20686578206c656e67746820696e73756666696369656e74600082015250565b60006138206020836131bb565b915061382b826137ea565b602082019050919050565b6000602082019050818103600083015261384f81613813565b9050919050565b7f416464726573733a20696e73756666696369656e742062616c616e636520666f60008201527f722063616c6c0000000000000000000000000000000000000000000000000000602082015250565b60006138b26026836131bb565b91506138bd82613856565b604082019050919050565b600060208201905081810360008301526138e1816138a5565b9050919050565b7f416464726573733a2063616c6c20746f206e6f6e2d636f6e7472616374000000600082015250565b600061391e601d836131bb565b9150613929826138e8565b602082019050919050565b6000602082019050818103600083015261394d81613911565b9050919050565b600081519050919050565b600081905092915050565b600061397582613954565b61397f818561395f565b935061398f8185602086016134e5565b80840191505092915050565b60006139a7828461396a565b91508190509291505056fea2646970667358221220b10d05026aab1cc3e7a56be9418ab45cf35c366a76345d59ae71068b16da880b64736f6c634300080a0033",
  "linkReferences": {},
  "deployedLinkReferences": {}
}