{
  "_format": "hh-sol-artifact-1",
  "contractName": "LFiFarms",
  "sourceName": "contracts/LFiFarms.sol",
  "abi": [
    {
      "inputs": [
        {
          "internalType": "address",
          "name": "_admin",
          "type": "address"
        },
        {
          "internalType": "contract IERC20",
          "name": "_rewardToken",
          "type": "address"
        },
        {
          "internalType": "contract IFundDistributor",
          "name": "_fund",
          "type": "address"
        }
      ],
      "stateMutability": "nonpayable",
      "type": "constructor"
    },
    {
      "anonymous": false,
      "inputs": [
        {
          "indexed": true,
          "internalType": "address",
          "name": "user",
          "type": "address"
        },
        {
          "indexed": true,
          "internalType": "uint256",
          "name": "fid",
          "type": "uint256"
        },
        {
          "indexed": false,
          "internalType": "uint256",
          "name": "amount",
          "type": "uint256"
        },
        {
          "indexed": true,
          "internalType": "address",
          "name": "receiver",
          "type": "address"
        }
      ],
      "name": "EmergencyWithdraw",
      "type": "event"
    },
    {
      "anonymous": false,
      "inputs": [
        {
          "indexed": true,
          "internalType": "uint256",
          "name": "fid",
          "type": "uint256"
        },
        {
          "indexed": false,
          "internalType": "uint256",
          "name": "allocatedPoints",
          "type": "uint256"
        },
        {
          "indexed": true,
          "internalType": "contract IERC20",
          "name": "lpToken",
          "type": "address"
        }
      ],
      "name": "FarmCreated",
      "type": "event"
    },
    {
      "anonymous": false,
      "inputs": [
        {
          "indexed": true,
          "internalType": "address",
          "name": "depositor",
          "type": "address"
        },
        {
          "indexed": true,
          "internalType": "uint256",
          "name": "fid",
          "type": "uint256"
        },
        {
          "indexed": false,
          "internalType": "uint256",
          "name": "amount",
          "type": "uint256"
        },
        {
          "indexed": true,
          "internalType": "address",
          "name": "benefitor",
          "type": "address"
        }
      ],
      "name": "FarmDeposit",
      "type": "event"
    },
    {
      "anonymous": false,
      "inputs": [
        {
          "indexed": true,
          "internalType": "address",
          "name": "fund",
          "type": "address"
        }
      ],
      "name": "FarmFundChanged",
      "type": "event"
    },
    {
      "anonymous": false,
      "inputs": [
        {
          "indexed": true,
          "internalType": "address",
          "name": "requestor",
          "type": "address"
        },
        {
          "indexed": true,
          "internalType": "uint256",
          "name": "fid",
          "type": "uint256"
        },
        {
          "indexed": false,
          "internalType": "uint256",
          "name": "amount",
          "type": "uint256"
        },
        {
          "indexed": true,
          "internalType": "address",
          "name": "receiver",
          "type": "address"
        }
      ],
      "name": "FarmHarvest",
      "type": "event"
    },
    {
      "anonymous": false,
      "inputs": [
        {
          "indexed": true,
          "internalType": "uint256",
          "name": "fid",
          "type": "uint256"
        },
        {
          "indexed": false,
          "internalType": "uint256",
          "name": "lastRewardTime",
          "type": "uint256"
        },
        {
          "indexed": false,
          "internalType": "uint256",
          "name": "lpSupply",
          "type": "uint256"
        },
        {
          "indexed": false,
          "internalType": "uint256",
          "name": "accRewardPerShare",
          "type": "uint256"
        }
      ],
      "name": "FarmUpdated",
      "type": "event"
    },
    {
      "anonymous": false,
      "inputs": [
        {
          "indexed": true,
          "internalType": "address",
          "name": "requestor",
          "type": "address"
        },
        {
          "indexed": true,
          "internalType": "uint256",
          "name": "fid",
          "type": "uint256"
        },
        {
          "indexed": false,
          "internalType": "uint256",
          "name": "amount",
          "type": "uint256"
        },
        {
          "indexed": true,
          "internalType": "address",
          "name": "receiver",
          "type": "address"
        }
      ],
      "name": "FarmWithdraw",
      "type": "event"
    },
    {
      "anonymous": false,
      "inputs": [
        {
          "indexed": true,
          "internalType": "uint256",
          "name": "fid",
          "type": "uint256"
        },
        {
          "indexed": false,
          "internalType": "uint256",
          "name": "allocPoint",
          "type": "uint256"
        },
        {
          "indexed": false,
          "internalType": "bool",
          "name": "overwrite",
          "type": "bool"
        }
      ],
      "name": "LogSetPool",
      "type": "event"
    },
    {
      "anonymous": false,
      "inputs": [
        {
          "indexed": false,
          "internalType": "uint256",
          "name": "newRewardPerSecond",
          "type": "uint256"
        }
      ],
      "name": "RewardPerSecondUpdated",
      "type": "event"
    },
    {
      "anonymous": false,
      "inputs": [
        {
          "indexed": true,
          "internalType": "bytes32",
          "name": "role",
          "type": "bytes32"
        },
        {
          "indexed": true,
          "internalType": "bytes32",
          "name": "previousAdminRole",
          "type": "bytes32"
        },
        {
          "indexed": true,
          "internalType": "bytes32",
          "name": "newAdminRole",
          "type": "bytes32"
        }
      ],
      "name": "RoleAdminChanged",
      "type": "event"
    },
    {
      "anonymous": false,
      "inputs": [
        {
          "indexed": true,
          "internalType": "bytes32",
          "name": "role",
          "type": "bytes32"
        },
        {
          "indexed": true,
          "internalType": "address",
          "name": "account",
          "type": "address"
        },
        {
          "indexed": true,
          "internalType": "address",
          "name": "sender",
          "type": "address"
        }
      ],
      "name": "RoleGranted",
      "type": "event"
    },
    {
      "anonymous": false,
      "inputs": [
        {
          "indexed": true,
          "internalType": "bytes32",
          "name": "role",
          "type": "bytes32"
        },
        {
          "indexed": true,
          "internalType": "address",
          "name": "account",
          "type": "address"
        },
        {
          "indexed": true,
          "internalType": "address",
          "name": "sender",
          "type": "address"
        }
      ],
      "name": "RoleRevoked",
      "type": "event"
    },
    {
      "inputs": [],
      "name": "DEFAULT_ADMIN_ROLE",
      "outputs": [
        {
          "internalType": "bytes32",
          "name": "",
          "type": "bytes32"
        }
      ],
      "stateMutability": "view",
      "type": "function"
    },
    {
      "inputs": [
        {
          "internalType": "contract IERC20",
          "name": "_token",
          "type": "address"
        }
      ],
      "name": "checkFarmDoesntExist",
      "outputs": [],
      "stateMutability": "view",
      "type": "function"
    },
    {
      "inputs": [
        {
          "internalType": "uint256",
          "name": "_allocPoint",
          "type": "uint256"
        },
        {
          "internalType": "contract IERC20",
          "name": "_lpToken",
          "type": "address"
        }
      ],
      "name": "createFarm",
      "outputs": [],
      "stateMutability": "nonpayable",
      "type": "function"
    },
    {
      "inputs": [
        {
          "internalType": "uint256",
          "name": "fid",
          "type": "uint256"
        },
        {
          "internalType": "uint256",
          "name": "lpAmount",
          "type": "uint256"
        },
        {
          "internalType": "address",
          "name": "benefitor",
          "type": "address"
        }
      ],
      "name": "deposit",
      "outputs": [],
      "stateMutability": "nonpayable",
      "type": "function"
    },
    {
      "inputs": [
        {
          "internalType": "uint256",
          "name": "fid",
          "type": "uint256"
        },
        {
          "internalType": "address",
          "name": "receiver",
          "type": "address"
        }
      ],
      "name": "emergencyWithdraw",
      "outputs": [],
      "stateMutability": "nonpayable",
      "type": "function"
    },
    {
      "inputs": [
        {
          "internalType": "uint256",
          "name": "",
          "type": "uint256"
        }
      ],
      "name": "farmInfo",
      "outputs": [
        {
          "internalType": "uint256",
          "name": "accRewardPerShare",
          "type": "uint256"
        },
        {
          "internalType": "uint256",
          "name": "lastRewardTime",
          "type": "uint256"
        },
        {
          "internalType": "uint256",
          "name": "allocPoint",
          "type": "uint256"
        }
      ],
      "stateMutability": "view",
      "type": "function"
    },
    {
      "inputs": [],
      "name": "farmLength",
      "outputs": [
        {
          "internalType": "uint256",
          "name": "farms",
          "type": "uint256"
        }
      ],
      "stateMutability": "view",
      "type": "function"
    },
    {
      "inputs": [],
      "name": "fund",
      "outputs": [
        {
          "internalType": "contract IFundDistributor",
          "name": "",
          "type": "address"
        }
      ],
      "stateMutability": "view",
      "type": "function"
    },
    {
      "inputs": [
        {
          "internalType": "bytes32",
          "name": "role",
          "type": "bytes32"
        }
      ],
      "name": "getRoleAdmin",
      "outputs": [
        {
          "internalType": "bytes32",
          "name": "",
          "type": "bytes32"
        }
      ],
      "stateMutability": "view",
      "type": "function"
    },
    {
      "inputs": [
        {
          "internalType": "bytes32",
          "name": "role",
          "type": "bytes32"
        },
        {
          "internalType": "address",
          "name": "account",
          "type": "address"
        }
      ],
      "name": "grantRole",
      "outputs": [],
      "stateMutability": "nonpayable",
      "type": "function"
    },
    {
      "inputs": [
        {
          "internalType": "uint256",
          "name": "fid",
          "type": "uint256"
        },
        {
          "internalType": "address",
          "name": "receiver",
          "type": "address"
        }
      ],
      "name": "harvest",
      "outputs": [],
      "stateMutability": "nonpayable",
      "type": "function"
    },
    {
      "inputs": [
        {
          "internalType": "address",
          "name": "receiver",
          "type": "address"
        }
      ],
      "name": "harvestAll",
      "outputs": [],
      "stateMutability": "nonpayable",
      "type": "function"
    },
    {
      "inputs": [
        {
          "internalType": "bytes32",
          "name": "role",
          "type": "bytes32"
        },
        {
          "internalType": "address",
          "name": "account",
          "type": "address"
        }
      ],
      "name": "hasRole",
      "outputs": [
        {
          "internalType": "bool",
          "name": "",
          "type": "bool"
        }
      ],
      "stateMutability": "view",
      "type": "function"
    },
    {
      "inputs": [
        {
          "internalType": "uint256",
          "name": "",
          "type": "uint256"
        }
      ],
      "name": "lpToken",
      "outputs": [
        {
          "internalType": "contract IERC20",
          "name": "",
          "type": "address"
        }
      ],
      "stateMutability": "view",
      "type": "function"
    },
    {
      "inputs": [
        {
          "internalType": "uint256[]",
          "name": "fids",
          "type": "uint256[]"
        }
      ],
      "name": "massUpdateFarms",
      "outputs": [],
      "stateMutability": "nonpayable",
      "type": "function"
    },
    {
      "inputs": [
        {
          "internalType": "uint256",
          "name": "_fid",
          "type": "uint256"
        },
        {
          "internalType": "address",
          "name": "_user",
          "type": "address"
        }
      ],
      "name": "pendingReward",
      "outputs": [
        {
          "internalType": "uint256",
          "name": "pendingRewards",
          "type": "uint256"
        }
      ],
      "stateMutability": "view",
      "type": "function"
    },
    {
      "inputs": [
        {
          "internalType": "bytes32",
          "name": "role",
          "type": "bytes32"
        },
        {
          "internalType": "address",
          "name": "account",
          "type": "address"
        }
      ],
      "name": "renounceRole",
      "outputs": [],
      "stateMutability": "nonpayable",
      "type": "function"
    },
    {
      "inputs": [
        {
          "internalType": "bytes32",
          "name": "role",
          "type": "bytes32"
        },
        {
          "internalType": "address",
          "name": "account",
          "type": "address"
        }
      ],
      "name": "revokeRole",
      "outputs": [],
      "stateMutability": "nonpayable",
      "type": "function"
    },
    {
      "inputs": [],
      "name": "reward",
      "outputs": [
        {
          "internalType": "contract IERC20",
          "name": "",
          "type": "address"
        }
      ],
      "stateMutability": "view",
      "type": "function"
    },
    {
      "inputs": [],
      "name": "rewardPerSecond",
      "outputs": [
        {
          "internalType": "uint256",
          "name": "",
          "type": "uint256"
        }
      ],
      "stateMutability": "view",
      "type": "function"
    },
    {
      "inputs": [
        {
          "internalType": "uint256",
          "name": "fid",
          "type": "uint256"
        },
        {
          "internalType": "uint256",
          "name": "allocPoint",
          "type": "uint256"
        },
        {
          "internalType": "bool",
          "name": "overwrite",
          "type": "bool"
        }
      ],
      "name": "setFarm",
      "outputs": [],
      "stateMutability": "nonpayable",
      "type": "function"
    },
    {
      "inputs": [
        {
          "internalType": "contract IFundDistributor",
          "name": "_fund",
          "type": "address"
        }
      ],
      "name": "setFund",
      "outputs": [],
      "stateMutability": "nonpayable",
      "type": "function"
    },
    {
      "inputs": [
        {
          "internalType": "uint256",
          "name": "_rewardPerSecond",
          "type": "uint256"
        },
        {
          "internalType": "uint256[]",
          "name": "fids",
          "type": "uint256[]"
        }
      ],
      "name": "setRewardPerSecond",
      "outputs": [],
      "stateMutability": "nonpayable",
      "type": "function"
    },
    {
      "inputs": [
        {
          "internalType": "bytes4",
          "name": "interfaceId",
          "type": "bytes4"
        }
      ],
      "name": "supportsInterface",
      "outputs": [
        {
          "internalType": "bool",
          "name": "",
          "type": "bool"
        }
      ],
      "stateMutability": "view",
      "type": "function"
    },
    {
      "inputs": [],
      "name": "totalAllocPoint",
      "outputs": [
        {
          "internalType": "uint256",
          "name": "",
          "type": "uint256"
        }
      ],
      "stateMutability": "view",
      "type": "function"
    },
    {
      "inputs": [
        {
          "internalType": "uint256",
          "name": "fid",
          "type": "uint256"
        }
      ],
      "name": "updateFarm",
      "outputs": [
        {
          "components": [
            {
              "internalType": "uint256",
              "name": "accRewardPerShare",
              "type": "uint256"
            },
            {
              "internalType": "uint256",
              "name": "lastRewardTime",
              "type": "uint256"
            },
            {
              "internalType": "uint256",
              "name": "allocPoint",
              "type": "uint256"
            }
          ],
          "internalType": "struct LFiFarms.FarmInfo",
          "name": "farm",
          "type": "tuple"
        }
      ],
      "stateMutability": "nonpayable",
      "type": "function"
    },
    {
      "inputs": [
        {
          "internalType": "uint256",
          "name": "",
          "type": "uint256"
        },
        {
          "internalType": "address",
          "name": "",
          "type": "address"
        }
      ],
      "name": "userInfo",
      "outputs": [
        {
          "internalType": "uint256",
          "name": "amount",
          "type": "uint256"
        },
        {
          "internalType": "int256",
          "name": "rewardDebt",
          "type": "int256"
        }
      ],
      "stateMutability": "view",
      "type": "function"
    },
    {
      "inputs": [
        {
          "internalType": "uint256",
          "name": "fid",
          "type": "uint256"
        },
        {
          "internalType": "uint256",
          "name": "LPTokenAmount",
          "type": "uint256"
        },
        {
          "internalType": "address",
          "name": "receiver",
          "type": "address"
        }
      ],
      "name": "withdraw",
      "outputs": [],
      "stateMutability": "nonpayable",
      "type": "function"
    },
    {
      "inputs": [
        {
          "internalType": "uint256",
          "name": "fid",
          "type": "uint256"
        },
        {
          "internalType": "uint256",
          "name": "LPTokenamount",
          "type": "uint256"
        },
        {
          "internalType": "address",
          "name": "receiver",
          "type": "address"
        }
      ],
      "name": "withdrawAndHarvest",
      "outputs": [],
      "stateMutability": "nonpayable",
      "type": "function"
    }
  ],
  "bytecode": "0x608060405260006006553480156200001657600080fd5b50604051620038703803806200387083398181016040528101906200003c919062000349565b81600160006101000a81548173ffffffffffffffffffffffffffffffffffffffff021916908373ffffffffffffffffffffffffffffffffffffffff16021790555080600260006101000a81548173ffffffffffffffffffffffffffffffffffffffff021916908373ffffffffffffffffffffffffffffffffffffffff160217905550620000d36000801b84620000dc60201b60201c565b505050620003a5565b620000ee8282620000f260201b60201c565b5050565b620001048282620001e360201b60201c565b620001df57600160008084815260200190815260200160002060000160008373ffffffffffffffffffffffffffffffffffffffff1673ffffffffffffffffffffffffffffffffffffffff16815260200190815260200160002060006101000a81548160ff021916908315150217905550620001846200024d60201b60201c565b73ffffffffffffffffffffffffffffffffffffffff168173ffffffffffffffffffffffffffffffffffffffff16837f2f8788117e7eff1d82e926ec794901d17c78024a50270940304540a733656f0d60405160405180910390a45b5050565b600080600084815260200190815260200160002060000160008373ffffffffffffffffffffffffffffffffffffffff1673ffffffffffffffffffffffffffffffffffffffff16815260200190815260200160002060009054906101000a900460ff16905092915050565b600033905090565b600080fd5b600073ffffffffffffffffffffffffffffffffffffffff82169050919050565b600062000287826200025a565b9050919050565b62000299816200027a565b8114620002a557600080fd5b50565b600081519050620002b9816200028e565b92915050565b6000620002cc826200027a565b9050919050565b620002de81620002bf565b8114620002ea57600080fd5b50565b600081519050620002fe81620002d3565b92915050565b600062000311826200027a565b9050919050565b620003238162000304565b81146200032f57600080fd5b50565b600081519050620003438162000318565b92915050565b60008060006060848603121562000365576200036462000255565b5b60006200037586828701620002a8565b93505060206200038886828701620002ed565b92505060406200039b8682870162000332565b9150509250925092565b6134bb80620003b56000396000f3fe608060405234801561001057600080fd5b50600436106101cf5760003560e01c806378ed5d1f1161010457806393f1a40b116100a2578063b60d428811610071578063b60d428814610529578063cc430ced14610547578063d1abb90714610577578063d547741f14610593576101cf565b806393f1a40b1461048e57806398969e82146104bf5780639bde8099146104ef578063a217fddf1461050b576101cf565b80638dbdbe6d116100de5780638dbdbe6d146104085780638f10369a146104245780638fa82c881461044257806391d148541461045e576101cf565b806378ed5d1f146103885780637d21c967146103b85780638a48a515146103ea576101cf565b80632f2ff15d116101715780634ef916be1161014b5780634ef916be146103185780635db7dbf8146103345780635fa4c0be14610350578063699bdca91461036c576101cf565b80632f2ff15d146102c45780632f940c70146102e057806336568abe146102fc576101cf565b806317caf6f1116101ad57806317caf6f11461023c57806318fccc761461025a578063228cb73314610276578063248a9ca314610294576101cf565b806301ffc9a7146101d45780630ad58d2f146102045780630e21750f14610220575b600080fd5b6101ee60048036038101906101e991906123a4565b6105af565b6040516101fb91906123ec565b60405180910390f35b61021e6004803603810190610219919061249b565b610629565b005b61023a6004803603810190610235919061252c565b6107b5565b005b610244610852565b6040516102519190612568565b60405180910390f35b610274600480360381019061026f9190612583565b610858565b005b61027e6109fb565b60405161028b9190612622565b60405180910390f35b6102ae60048036038101906102a99190612673565b610a21565b6040516102bb91906126af565b60405180910390f35b6102de60048036038101906102d991906126ca565b610a40565b005b6102fa60048036038101906102f59190612583565b610a69565b005b610316600480360381019061031191906126ca565b610baf565b005b610332600480360381019061032d9190612748565b610c32565b005b61034e600480360381019061034991906127ed565b610d98565b005b61036a60048036038101906103659190612879565b610dfb565b005b610386600480360381019061038191906128cc565b610ebe565b005b6103a2600480360381019061039d91906128f9565b610f50565b6040516103af9190612622565b60405180910390f35b6103d260048036038101906103cd91906128f9565b610f8f565b6040516103e193929190612926565b60405180910390f35b6103f2610fc9565b6040516103ff9190612568565b60405180910390f35b610422600480360381019061041d919061249b565b610fd6565b005b61042c611164565b6040516104399190612568565b60405180910390f35b61045c6004803603810190610457919061295d565b61116a565b005b610478600480360381019061047391906126ca565b6111b9565b60405161048591906123ec565b60405180910390f35b6104a860048036038101906104a39190612583565b611223565b6040516104b69291906129c3565b60405180910390f35b6104d960048036038101906104d49190612583565b611254565b6040516104e69190612568565b60405180910390f35b610509600480360381019061050491906129ec565b61147f565b005b610513611553565b60405161052091906126af565b60405180910390f35b61053161155a565b60405161053e9190612a3a565b60405180910390f35b610561600480360381019061055c91906128f9565b611580565b60405161056e9190612aa6565b60405180910390f35b610591600480360381019061058c919061249b565b6117b8565b005b6105ad60048036038101906105a891906126ca565b611a70565b005b60007f7965db0b000000000000000000000000000000000000000000000000000000007bffffffffffffffffffffffffffffffffffffffffffffffffffffffff1916827bffffffffffffffffffffffffffffffffffffffffffffffffffffffff19161480610622575061062182611a99565b5b9050919050565b600061063484611580565b905060006005600086815260200190815260200160002060003373ffffffffffffffffffffffffffffffffffffffff1673ffffffffffffffffffffffffffffffffffffffff168152602001908152602001600020905064e8d4a510008260000151856106a09190612af0565b6106aa9190612b79565b8160010160008282546106bd9190612baa565b92505081905550838160000160008282546106d89190612c3e565b925050819055506107488385600488815481106106f8576106f7612c72565b5b9060005260206000200160009054906101000a900473ffffffffffffffffffffffffffffffffffffffff1673ffffffffffffffffffffffffffffffffffffffff16611b039092919063ffffffff16565b8273ffffffffffffffffffffffffffffffffffffffff16853373ffffffffffffffffffffffffffffffffffffffff167fc9da9141b9ad9eed3c5b5d7e7799519c54f06cc3ee3f1c49c16f2f297660baef876040516107a69190612568565b60405180910390a45050505050565b6000801b6107ca816107c5611b89565b611b91565b81600260006101000a81548173ffffffffffffffffffffffffffffffffffffffff021916908373ffffffffffffffffffffffffffffffffffffffff1602179055508173ffffffffffffffffffffffffffffffffffffffff167f3f791d163ad67bd54ebfd77208ced9c9e64ac4c2a74e1c9d0b5e2d417034dfdb60405160405180910390a25050565b60065481565b600061086383611580565b905060006005600085815260200190815260200160002060003373ffffffffffffffffffffffffffffffffffffffff1673ffffffffffffffffffffffffffffffffffffffff1681526020019081526020016000209050600064e8d4a51000836000015183600001546108d59190612af0565b6108df9190612b79565b905060008260010154826108f39190612baa565b9050818360010181905550600260009054906101000a900473ffffffffffffffffffffffffffffffffffffffff1673ffffffffffffffffffffffffffffffffffffffff16631ec8bb8c86836040518363ffffffff1660e01b815260040161095b929190612cb0565b600060405180830381600087803b15801561097557600080fd5b505af1158015610989573d6000803e3d6000fd5b505050508473ffffffffffffffffffffffffffffffffffffffff16863373ffffffffffffffffffffffffffffffffffffffff167f8019192f65b34fad6bf2766db2d26c808d77abc63af77b2ba2e329ab18aa8a0d846040516109eb9190612568565b60405180910390a4505050505050565b600160009054906101000a900473ffffffffffffffffffffffffffffffffffffffff1681565b6000806000838152602001908152602001600020600101549050919050565b610a4982610a21565b610a5a81610a55611b89565b611b91565b610a648383611c2e565b505050565b60006005600084815260200190815260200160002060003373ffffffffffffffffffffffffffffffffffffffff1673ffffffffffffffffffffffffffffffffffffffff16815260200190815260200160002090506000816000015490506000826000018190555060008260010181905550610b43838260048781548110610af357610af2612c72565b5b9060005260206000200160009054906101000a900473ffffffffffffffffffffffffffffffffffffffff1673ffffffffffffffffffffffffffffffffffffffff16611b039092919063ffffffff16565b8273ffffffffffffffffffffffffffffffffffffffff16843373ffffffffffffffffffffffffffffffffffffffff167f2cac5e20e1541d836381527a43f651851e302817b71dc8e810284e69210c1c6b84604051610ba19190612568565b60405180910390a450505050565b610bb7611b89565b73ffffffffffffffffffffffffffffffffffffffff168173ffffffffffffffffffffffffffffffffffffffff1614610c24576040517f08c379a0000000000000000000000000000000000000000000000000000000008152600401610c1b90612d5c565b60405180910390fd5b610c2e8282611d0e565b5050565b6000801b610c4781610c42611b89565b611b91565b610c508261147f565b8260066000828254610c629190612d7c565b92505081905550600360405180606001604052806000815260200142815260200185815250908060018154018082558091505060019003906000526020600020906003020160009091909190915060008201518160000155602082015181600101556040820151816002015550506004829080600181540180825580915050600190039060005260206000200160009091909190916101000a81548173ffffffffffffffffffffffffffffffffffffffff021916908373ffffffffffffffffffffffffffffffffffffffff1602179055508173ffffffffffffffffffffffffffffffffffffffff166001600480549050610d5c9190612c3e565b7f61c9bf39bb035d6f43bf12aa7b22bfec1d61788e90b7249fad7625529c11518185604051610d8b9190612568565b60405180910390a3505050565b6000801b610dad81610da8611b89565b611b91565b610db7838361116a565b836007819055507f951c6f64eb06ec6a6682072cda71420984dd55199006684bb820a80fd7e9879384604051610ded9190612568565b60405180910390a150505050565b6000801b610e1081610e0b611b89565b611b91565b8260038581548110610e2557610e24612c72565b5b906000526020600020906003020160020154600654610e449190612c3e565b610e4e9190612d7c565b6006819055508260038581548110610e6957610e68612c72565b5b906000526020600020906003020160020181905550837f31b4adb47fe10f535ba0f237d0ef37a1281f4974f03b5f1bb1ca4172aceb70c48484604051610eb0929190612dd2565b60405180910390a250505050565b6000600380549050905060005b81811015610f4b5760006005600083815260200190815260200160002060003373ffffffffffffffffffffffffffffffffffffffff1673ffffffffffffffffffffffffffffffffffffffff168152602001908152602001600020600001541115610f3a57610f398184610858565b5b80610f4490612dfb565b9050610ecb565b505050565b60048181548110610f6057600080fd5b906000526020600020016000915054906101000a900473ffffffffffffffffffffffffffffffffffffffff1681565b60038181548110610f9f57600080fd5b90600052602060002090600302016000915090508060000154908060010154908060020154905083565b6000600380549050905090565b6000610fe184611580565b905060006005600086815260200190815260200160002060008473ffffffffffffffffffffffffffffffffffffffff1673ffffffffffffffffffffffffffffffffffffffff16815260200190815260200160002090508381600001600082825461104b9190612d7c565b9250508190555064e8d4a510008260000151856110689190612af0565b6110729190612b79565b8160010160008282546110859190612e44565b925050819055506110f7333086600489815481106110a6576110a5612c72565b5b9060005260206000200160009054906101000a900473ffffffffffffffffffffffffffffffffffffffff1673ffffffffffffffffffffffffffffffffffffffff16611def909392919063ffffffff16565b8273ffffffffffffffffffffffffffffffffffffffff16853373ffffffffffffffffffffffffffffffffffffffff167f8f3ed488ccb8ee9d27a4cb66377f8127c651bd8f8b68df7b23d7b5676961787f876040516111559190612568565b60405180910390a45050505050565b60075481565b600082829050905060005b818110156111b35761119f84848381811061119357611192612c72565b5b90506020020135611580565b5080806111ab90612dfb565b915050611175565b50505050565b600080600084815260200190815260200160002060000160008373ffffffffffffffffffffffffffffffffffffffff1673ffffffffffffffffffffffffffffffffffffffff16815260200190815260200160002060009054906101000a900460ff16905092915050565b6005602052816000526040600020602052806000526040600020600091509150508060000154908060010154905082565b6000806003848154811061126b5761126a612c72565b5b90600052602060002090600302016040518060600160405290816000820154815260200160018201548152602001600282015481525050905060006005600086815260200190815260200160002060008573ffffffffffffffffffffffffffffffffffffffff1673ffffffffffffffffffffffffffffffffffffffff168152602001908152602001600020905060008260000151905060006004878154811061131757611316612c72565b5b9060005260206000200160009054906101000a900473ffffffffffffffffffffffffffffffffffffffff1673ffffffffffffffffffffffffffffffffffffffff166370a08231306040518263ffffffff1660e01b815260040161137a9190612ed8565b602060405180830381865afa158015611397573d6000803e3d6000fd5b505050506040513d601f19601f820116820180604052508101906113bb9190612f08565b90508360200151421180156113d1575060008114155b156114445760008460200151426113e89190612c3e565b905060006006548660400151600754846114029190612af0565b61140c9190612af0565b6114169190612b79565b90508264e8d4a510008261142a9190612af0565b6114349190612b79565b8461143f9190612d7c565b935050505b826001015464e8d4a5100083856000015461145f9190612af0565b6114699190612b79565b6114739190612baa565b94505050505092915050565b60005b60038054905081101561154f578173ffffffffffffffffffffffffffffffffffffffff16600482815481106114ba576114b9612c72565b5b9060005260206000200160009054906101000a900473ffffffffffffffffffffffffffffffffffffffff1673ffffffffffffffffffffffffffffffffffffffff16141561153c576040517f08c379a000000000000000000000000000000000000000000000000000000000815260040161153390612f81565b60405180910390fd5b808061154790612dfb565b915050611482565b5050565b6000801b81565b600260009054906101000a900473ffffffffffffffffffffffffffffffffffffffff1681565b611588612321565b6003828154811061159c5761159b612c72565b5b90600052602060002090600302016040518060600160405290816000820154815260200160018201548152602001600282015481525050905042816020015110156117b3576000600483815481106115f7576115f6612c72565b5b9060005260206000200160009054906101000a900473ffffffffffffffffffffffffffffffffffffffff1673ffffffffffffffffffffffffffffffffffffffff166370a08231306040518263ffffffff1660e01b815260040161165a9190612ed8565b602060405180830381865afa158015611677573d6000803e3d6000fd5b505050506040513d601f19601f8201168201806040525081019061169b9190612f08565b9050600081111561171f5760008260200151426116b89190612c3e565b905060006006548460400151600754846116d29190612af0565b6116dc9190612af0565b6116e69190612b79565b90508264e8d4a51000826116fa9190612af0565b6117049190612b79565b846000018181516117159190612d7c565b9150818152505050505b42826020018181525050816003848154811061173e5761173d612c72565b5b9060005260206000209060030201600082015181600001556020820151816001015560408201518160020155905050827f7afa65e874128c36660ee87dc188d5db7715c3183d701645e98701b5ef8cd91383602001518385600001516040516117a993929190612926565b60405180910390a2505b919050565b60006117c384611580565b905060006005600086815260200190815260200160002060003373ffffffffffffffffffffffffffffffffffffffff1673ffffffffffffffffffffffffffffffffffffffff1681526020019081526020016000209050600064e8d4a51000836000015183600001546118359190612af0565b61183f9190612b79565b905060008260010154826118539190612baa565b905064e8d4a5100084600001518761186b9190612af0565b6118759190612b79565b826118809190612baa565b83600101819055508583600001600082825461189c9190612c3e565b92505081905550600260009054906101000a900473ffffffffffffffffffffffffffffffffffffffff1673ffffffffffffffffffffffffffffffffffffffff16631ec8bb8c86836040518363ffffffff1660e01b8152600401611900929190612cb0565b600060405180830381600087803b15801561191a57600080fd5b505af115801561192e573d6000803e3d6000fd5b5050505061199b858760048a8154811061194b5761194a612c72565b5b9060005260206000200160009054906101000a900473ffffffffffffffffffffffffffffffffffffffff1673ffffffffffffffffffffffffffffffffffffffff16611b039092919063ffffffff16565b8473ffffffffffffffffffffffffffffffffffffffff16873373ffffffffffffffffffffffffffffffffffffffff167fc9da9141b9ad9eed3c5b5d7e7799519c54f06cc3ee3f1c49c16f2f297660baef896040516119f99190612568565b60405180910390a48473ffffffffffffffffffffffffffffffffffffffff16873373ffffffffffffffffffffffffffffffffffffffff167f8019192f65b34fad6bf2766db2d26c808d77abc63af77b2ba2e329ab18aa8a0d84604051611a5f9190612568565b60405180910390a450505050505050565b611a7982610a21565b611a8a81611a85611b89565b611b91565b611a948383611d0e565b505050565b60007f01ffc9a7000000000000000000000000000000000000000000000000000000007bffffffffffffffffffffffffffffffffffffffffffffffffffffffff1916827bffffffffffffffffffffffffffffffffffffffffffffffffffffffff1916149050919050565b611b848363a9059cbb60e01b8484604051602401611b22929190612cb0565b604051602081830303815290604052907bffffffffffffffffffffffffffffffffffffffffffffffffffffffff19166020820180517bffffffffffffffffffffffffffffffffffffffffffffffffffffffff8381831617835250505050611e78565b505050565b600033905090565b611b9b82826111b9565b611c2a57611bc08173ffffffffffffffffffffffffffffffffffffffff166014611f3f565b611bce8360001c6020611f3f565b604051602001611bdf9291906130b3565b6040516020818303038152906040526040517f08c379a0000000000000000000000000000000000000000000000000000000008152600401611c219190613137565b60405180910390fd5b5050565b611c3882826111b9565b611d0a57600160008084815260200190815260200160002060000160008373ffffffffffffffffffffffffffffffffffffffff1673ffffffffffffffffffffffffffffffffffffffff16815260200190815260200160002060006101000a81548160ff021916908315150217905550611caf611b89565b73ffffffffffffffffffffffffffffffffffffffff168173ffffffffffffffffffffffffffffffffffffffff16837f2f8788117e7eff1d82e926ec794901d17c78024a50270940304540a733656f0d60405160405180910390a45b5050565b611d1882826111b9565b15611deb57600080600084815260200190815260200160002060000160008373ffffffffffffffffffffffffffffffffffffffff1673ffffffffffffffffffffffffffffffffffffffff16815260200190815260200160002060006101000a81548160ff021916908315150217905550611d90611b89565b73ffffffffffffffffffffffffffffffffffffffff168173ffffffffffffffffffffffffffffffffffffffff16837ff6391f5c32d9c69d2a47ea670b442974b53935d1edc7fd64eb21e047a839171b60405160405180910390a45b5050565b611e72846323b872dd60e01b858585604051602401611e1093929190613159565b604051602081830303815290604052907bffffffffffffffffffffffffffffffffffffffffffffffffffffffff19166020820180517bffffffffffffffffffffffffffffffffffffffffffffffffffffffff8381831617835250505050611e78565b50505050565b6000611eda826040518060400160405280602081526020017f5361666545524332303a206c6f772d6c6576656c2063616c6c206661696c65648152508573ffffffffffffffffffffffffffffffffffffffff1661217b9092919063ffffffff16565b9050600081511115611f3a5780806020019051810190611efa91906131a5565b611f39576040517f08c379a0000000000000000000000000000000000000000000000000000000008152600401611f3090613244565b60405180910390fd5b5b505050565b606060006002836002611f529190612af0565b611f5c9190612d7c565b67ffffffffffffffff811115611f7557611f74613264565b5b6040519080825280601f01601f191660200182016040528015611fa75781602001600182028036833780820191505090505b5090507f300000000000000000000000000000000000000000000000000000000000000081600081518110611fdf57611fde612c72565b5b60200101907effffffffffffffffffffffffffffffffffffffffffffffffffffffffffffff1916908160001a9053507f78000000000000000000000000000000000000000000000000000000000000008160018151811061204357612042612c72565b5b60200101907effffffffffffffffffffffffffffffffffffffffffffffffffffffffffffff1916908160001a905350600060018460026120839190612af0565b61208d9190612d7c565b90505b600181111561212d577f3031323334353637383961626364656600000000000000000000000000000000600f8616601081106120cf576120ce612c72565b5b1a60f81b8282815181106120e6576120e5612c72565b5b60200101907effffffffffffffffffffffffffffffffffffffffffffffffffffffffffffff1916908160001a905350600485901c94508061212690613293565b9050612090565b5060008414612171576040517f08c379a000000000000000000000000000000000000000000000000000000000815260040161216890613309565b60405180910390fd5b8091505092915050565b606061218a8484600085612193565b90509392505050565b6060824710156121d8576040517f08c379a00000000000000000000000000000000000000000000000000000000081526004016121cf9061339b565b60405180910390fd5b6121e1856122a7565b612220576040517f08c379a000000000000000000000000000000000000000000000000000000000815260040161221790613407565b60405180910390fd5b6000808673ffffffffffffffffffffffffffffffffffffffff168587604051612249919061346e565b60006040518083038185875af1925050503d8060008114612286576040519150601f19603f3d011682016040523d82523d6000602084013e61228b565b606091505b509150915061229b8282866122ba565b92505050949350505050565b600080823b905060008111915050919050565b606083156122ca5782905061231a565b6000835111156122dd5782518084602001fd5b816040517f08c379a00000000000000000000000000000000000000000000000000000000081526004016123119190613137565b60405180910390fd5b9392505050565b60405180606001604052806000815260200160008152602001600081525090565b600080fd5b600080fd5b60007fffffffff0000000000000000000000000000000000000000000000000000000082169050919050565b6123818161234c565b811461238c57600080fd5b50565b60008135905061239e81612378565b92915050565b6000602082840312156123ba576123b9612342565b5b60006123c88482850161238f565b91505092915050565b60008115159050919050565b6123e6816123d1565b82525050565b600060208201905061240160008301846123dd565b92915050565b6000819050919050565b61241a81612407565b811461242557600080fd5b50565b60008135905061243781612411565b92915050565b600073ffffffffffffffffffffffffffffffffffffffff82169050919050565b60006124688261243d565b9050919050565b6124788161245d565b811461248357600080fd5b50565b6000813590506124958161246f565b92915050565b6000806000606084860312156124b4576124b3612342565b5b60006124c286828701612428565b93505060206124d386828701612428565b92505060406124e486828701612486565b9150509250925092565b60006124f98261245d565b9050919050565b612509816124ee565b811461251457600080fd5b50565b60008135905061252681612500565b92915050565b60006020828403121561254257612541612342565b5b600061255084828501612517565b91505092915050565b61256281612407565b82525050565b600060208201905061257d6000830184612559565b92915050565b6000806040838503121561259a57612599612342565b5b60006125a885828601612428565b92505060206125b985828601612486565b9150509250929050565b6000819050919050565b60006125e86125e36125de8461243d565b6125c3565b61243d565b9050919050565b60006125fa826125cd565b9050919050565b600061260c826125ef565b9050919050565b61261c81612601565b82525050565b60006020820190506126376000830184612613565b92915050565b6000819050919050565b6126508161263d565b811461265b57600080fd5b50565b60008135905061266d81612647565b92915050565b60006020828403121561268957612688612342565b5b60006126978482850161265e565b91505092915050565b6126a98161263d565b82525050565b60006020820190506126c460008301846126a0565b92915050565b600080604083850312156126e1576126e0612342565b5b60006126ef8582860161265e565b925050602061270085828601612486565b9150509250929050565b60006127158261245d565b9050919050565b6127258161270a565b811461273057600080fd5b50565b6000813590506127428161271c565b92915050565b6000806040838503121561275f5761275e612342565b5b600061276d85828601612428565b925050602061277e85828601612733565b9150509250929050565b600080fd5b600080fd5b600080fd5b60008083601f8401126127ad576127ac612788565b5b8235905067ffffffffffffffff8111156127ca576127c961278d565b5b6020830191508360208202830111156127e6576127e5612792565b5b9250929050565b60008060006040848603121561280657612805612342565b5b600061281486828701612428565b935050602084013567ffffffffffffffff81111561283557612834612347565b5b61284186828701612797565b92509250509250925092565b612856816123d1565b811461286157600080fd5b50565b6000813590506128738161284d565b92915050565b60008060006060848603121561289257612891612342565b5b60006128a086828701612428565b93505060206128b186828701612428565b92505060406128c286828701612864565b9150509250925092565b6000602082840312156128e2576128e1612342565b5b60006128f084828501612486565b91505092915050565b60006020828403121561290f5761290e612342565b5b600061291d84828501612428565b91505092915050565b600060608201905061293b6000830186612559565b6129486020830185612559565b6129556040830184612559565b949350505050565b6000806020838503121561297457612973612342565b5b600083013567ffffffffffffffff81111561299257612991612347565b5b61299e85828601612797565b92509250509250929050565b6000819050919050565b6129bd816129aa565b82525050565b60006040820190506129d86000830185612559565b6129e560208301846129b4565b9392505050565b600060208284031215612a0257612a01612342565b5b6000612a1084828501612733565b91505092915050565b6000612a24826125ef565b9050919050565b612a3481612a19565b82525050565b6000602082019050612a4f6000830184612a2b565b92915050565b612a5e81612407565b82525050565b606082016000820151612a7a6000850182612a55565b506020820151612a8d6020850182612a55565b506040820151612aa06040850182612a55565b50505050565b6000606082019050612abb6000830184612a64565b92915050565b7f4e487b7100000000000000000000000000000000000000000000000000000000600052601160045260246000fd5b6000612afb82612407565b9150612b0683612407565b9250817fffffffffffffffffffffffffffffffffffffffffffffffffffffffffffffffff0483118215151615612b3f57612b3e612ac1565b5b828202905092915050565b7f4e487b7100000000000000000000000000000000000000000000000000000000600052601260045260246000fd5b6000612b8482612407565b9150612b8f83612407565b925082612b9f57612b9e612b4a565b5b828204905092915050565b6000612bb5826129aa565b9150612bc0836129aa565b9250827f800000000000000000000000000000000000000000000000000000000000000001821260008412151615612bfb57612bfa612ac1565b5b827f7fffffffffffffffffffffffffffffffffffffffffffffffffffffffffffffff018213600084121615612c3357612c32612ac1565b5b828203905092915050565b6000612c4982612407565b9150612c5483612407565b925082821015612c6757612c66612ac1565b5b828203905092915050565b7f4e487b7100000000000000000000000000000000000000000000000000000000600052603260045260246000fd5b612caa8161245d565b82525050565b6000604082019050612cc56000830185612ca1565b612cd26020830184612559565b9392505050565b600082825260208201905092915050565b7f416363657373436f6e74726f6c3a2063616e206f6e6c792072656e6f756e636560008201527f20726f6c657320666f722073656c660000000000000000000000000000000000602082015250565b6000612d46602f83612cd9565b9150612d5182612cea565b604082019050919050565b60006020820190508181036000830152612d7581612d39565b9050919050565b6000612d8782612407565b9150612d9283612407565b9250827fffffffffffffffffffffffffffffffffffffffffffffffffffffffffffffffff03821115612dc757612dc6612ac1565b5b828201905092915050565b6000604082019050612de76000830185612559565b612df460208301846123dd565b9392505050565b6000612e0682612407565b91507fffffffffffffffffffffffffffffffffffffffffffffffffffffffffffffffff821415612e3957612e38612ac1565b5b600182019050919050565b6000612e4f826129aa565b9150612e5a836129aa565b9250817f7fffffffffffffffffffffffffffffffffffffffffffffffffffffffffffffff03831360008312151615612e9557612e94612ac1565b5b817f8000000000000000000000000000000000000000000000000000000000000000038312600083121615612ecd57612ecc612ac1565b5b828201905092915050565b6000602082019050612eed6000830184612ca1565b92915050565b600081519050612f0281612411565b92915050565b600060208284031215612f1e57612f1d612342565b5b6000612f2c84828501612ef3565b91505092915050565b7f4661726d2065786973747320616c726561647900000000000000000000000000600082015250565b6000612f6b601383612cd9565b9150612f7682612f35565b602082019050919050565b60006020820190508181036000830152612f9a81612f5e565b9050919050565b600081905092915050565b7f416363657373436f6e74726f6c3a206163636f756e7420000000000000000000600082015250565b6000612fe2601783612fa1565b9150612fed82612fac565b601782019050919050565b600081519050919050565b60005b83811015613021578082015181840152602081019050613006565b83811115613030576000848401525b50505050565b600061304182612ff8565b61304b8185612fa1565b935061305b818560208601613003565b80840191505092915050565b7f206973206d697373696e6720726f6c6520000000000000000000000000000000600082015250565b600061309d601183612fa1565b91506130a882613067565b601182019050919050565b60006130be82612fd5565b91506130ca8285613036565b91506130d582613090565b91506130e18284613036565b91508190509392505050565b6000601f19601f8301169050919050565b600061310982612ff8565b6131138185612cd9565b9350613123818560208601613003565b61312c816130ed565b840191505092915050565b6000602082019050818103600083015261315181846130fe565b905092915050565b600060608201905061316e6000830186612ca1565b61317b6020830185612ca1565b6131886040830184612559565b949350505050565b60008151905061319f8161284d565b92915050565b6000602082840312156131bb576131ba612342565b5b60006131c984828501613190565b91505092915050565b7f5361666545524332303a204552433230206f7065726174696f6e20646964206e60008201527f6f74207375636365656400000000000000000000000000000000000000000000602082015250565b600061322e602a83612cd9565b9150613239826131d2565b604082019050919050565b6000602082019050818103600083015261325d81613221565b9050919050565b7f4e487b7100000000000000000000000000000000000000000000000000000000600052604160045260246000fd5b600061329e82612407565b915060008214156132b2576132b1612ac1565b5b600182039050919050565b7f537472696e67733a20686578206c656e67746820696e73756666696369656e74600082015250565b60006132f3602083612cd9565b91506132fe826132bd565b602082019050919050565b60006020820190508181036000830152613322816132e6565b9050919050565b7f416464726573733a20696e73756666696369656e742062616c616e636520666f60008201527f722063616c6c0000000000000000000000000000000000000000000000000000602082015250565b6000613385602683612cd9565b915061339082613329565b604082019050919050565b600060208201905081810360008301526133b481613378565b9050919050565b7f416464726573733a2063616c6c20746f206e6f6e2d636f6e7472616374000000600082015250565b60006133f1601d83612cd9565b91506133fc826133bb565b602082019050919050565b60006020820190508181036000830152613420816133e4565b9050919050565b600081519050919050565b600081905092915050565b600061344882613427565b6134528185613432565b9350613462818560208601613003565b80840191505092915050565b600061347a828461343d565b91508190509291505056fea2646970667358221220cf5cd599c87bd8765ef8c17f62e0fcba56c88a059c7a61bf1bf04fd9019e245e64736f6c634300080a0033",
  "linkReferences": {},
  "deployedLinkReferences": {}
}