{
  "_format": "hh-sol-artifact-1",
  "contractName": "HousePoolWETHV2",
  "sourceName": "contracts/HousePoolWETHV2.sol",
  "abi": [
    {
      "anonymous": false,
      "inputs": [
        {
          "indexed": true,
          "internalType": "bytes32",
          "name": "role",
          "type": "bytes32"
        },
        {
          "indexed": true,
          "internalType": "bytes32",
          "name": "previousAdminRole",
          "type": "bytes32"
        },
        {
          "indexed": true,
          "internalType": "bytes32",
          "name": "newAdminRole",
          "type": "bytes32"
        }
      ],
      "name": "RoleAdminChanged",
      "type": "event"
    },
    {
      "anonymous": false,
      "inputs": [
        {
          "indexed": true,
          "internalType": "bytes32",
          "name": "role",
          "type": "bytes32"
        },
        {
          "indexed": true,
          "internalType": "address",
          "name": "account",
          "type": "address"
        },
        {
          "indexed": true,
          "internalType": "address",
          "name": "sender",
          "type": "address"
        }
      ],
      "name": "RoleGranted",
      "type": "event"
    },
    {
      "anonymous": false,
      "inputs": [
        {
          "indexed": true,
          "internalType": "bytes32",
          "name": "role",
          "type": "bytes32"
        },
        {
          "indexed": true,
          "internalType": "address",
          "name": "account",
          "type": "address"
        },
        {
          "indexed": true,
          "internalType": "address",
          "name": "sender",
          "type": "address"
        }
      ],
      "name": "RoleRevoked",
      "type": "event"
    },
    {
      "inputs": [],
      "name": "DATA_PROVIDER_ORACLE",
      "outputs": [
        {
          "internalType": "bytes32",
          "name": "",
          "type": "bytes32"
        }
      ],
      "stateMutability": "view",
      "type": "function"
    },
    {
      "inputs": [],
      "name": "DEFAULT_ADMIN_ROLE",
      "outputs": [
        {
          "internalType": "bytes32",
          "name": "",
          "type": "bytes32"
        }
      ],
      "stateMutability": "view",
      "type": "function"
    },
    {
      "inputs": [],
      "name": "HOUSE_POOL_DATA_PROVIDER",
      "outputs": [
        {
          "internalType": "bytes32",
          "name": "",
          "type": "bytes32"
        }
      ],
      "stateMutability": "view",
      "type": "function"
    },
    {
      "inputs": [
        {
          "internalType": "uint256",
          "name": "amountWETH",
          "type": "uint256"
        },
        {
          "internalType": "bytes",
          "name": "approval",
          "type": "bytes"
        },
        {
          "components": [
            {
              "internalType": "int256",
              "name": "expectedValue",
              "type": "int256"
            },
            {
              "internalType": "int256",
              "name": "maxExposure",
              "type": "int256"
            },
            {
              "internalType": "uint256",
              "name": "deadline",
              "type": "uint256"
            },
            {
              "internalType": "address",
              "name": "signer",
              "type": "address"
            }
          ],
          "internalType": "struct HousePoolWETHV2.ValuesOfInterest",
          "name": "approvedValues",
          "type": "tuple"
        }
      ],
      "name": "deposit",
      "outputs": [],
      "stateMutability": "nonpayable",
      "type": "function"
    },
    {
      "inputs": [
        {
          "internalType": "uint256",
          "name": "WETHMicro",
          "type": "uint256"
        }
      ],
      "name": "deposit_",
      "outputs": [],
      "stateMutability": "nonpayable",
      "type": "function"
    },
    {
      "inputs": [],
      "name": "getEV",
      "outputs": [
        {
          "internalType": "int256",
          "name": "",
          "type": "int256"
        }
      ],
      "stateMutability": "view",
      "type": "function"
    },
    {
      "inputs": [],
      "name": "getLiquidityStatus",
      "outputs": [
        {
          "internalType": "uint256",
          "name": "",
          "type": "uint256"
        }
      ],
      "stateMutability": "view",
      "type": "function"
    },
    {
      "inputs": [],
      "name": "getMaxExposure",
      "outputs": [
        {
          "internalType": "int256",
          "name": "",
          "type": "int256"
        }
      ],
      "stateMutability": "view",
      "type": "function"
    },
    {
      "inputs": [
        {
          "internalType": "address",
          "name": "_user",
          "type": "address"
        }
      ],
      "name": "getMyLiquidity",
      "outputs": [
        {
          "internalType": "uint256",
          "name": "",
          "type": "uint256"
        }
      ],
      "stateMutability": "view",
      "type": "function"
    },
    {
      "inputs": [
        {
          "internalType": "bytes32",
          "name": "role",
          "type": "bytes32"
        }
      ],
      "name": "getRoleAdmin",
      "outputs": [
        {
          "internalType": "bytes32",
          "name": "",
          "type": "bytes32"
        }
      ],
      "stateMutability": "view",
      "type": "function"
    },
    {
      "inputs": [],
      "name": "getTVLofPool",
      "outputs": [
        {
          "internalType": "int256",
          "name": "",
          "type": "int256"
        }
      ],
      "stateMutability": "view",
      "type": "function"
    },
    {
      "inputs": [],
      "name": "getTokenPrice",
      "outputs": [
        {
          "internalType": "uint256",
          "name": "",
          "type": "uint256"
        }
      ],
      "stateMutability": "view",
      "type": "function"
    },
    {
      "inputs": [],
      "name": "getTokenWithdrawlPrice",
      "outputs": [
        {
          "internalType": "uint256",
          "name": "",
          "type": "uint256"
        }
      ],
      "stateMutability": "view",
      "type": "function"
    },
    {
      "inputs": [],
      "name": "getTreasuryAmount",
      "outputs": [
        {
          "internalType": "uint256",
          "name": "",
          "type": "uint256"
        }
      ],
      "stateMutability": "view",
      "type": "function"
    },
    {
      "inputs": [
        {
          "internalType": "bytes32",
          "name": "role",
          "type": "bytes32"
        },
        {
          "internalType": "address",
          "name": "account",
          "type": "address"
        }
      ],
      "name": "grantRole",
      "outputs": [],
      "stateMutability": "nonpayable",
      "type": "function"
    },
    {
      "inputs": [
        {
          "internalType": "bytes32",
          "name": "role",
          "type": "bytes32"
        },
        {
          "internalType": "address",
          "name": "account",
          "type": "address"
        }
      ],
      "name": "hasRole",
      "outputs": [
        {
          "internalType": "bool",
          "name": "",
          "type": "bool"
        }
      ],
      "stateMutability": "view",
      "type": "function"
    },
    {
      "inputs": [
        {
          "internalType": "address",
          "name": "_owner",
          "type": "address"
        },
        {
          "internalType": "address",
          "name": "_WETH",
          "type": "address"
        },
        {
          "internalType": "address",
          "name": "_claimToken",
          "type": "address"
        },
        {
          "internalType": "string",
          "name": "_name",
          "type": "string"
        },
        {
          "internalType": "string",
          "name": "_version",
          "type": "string"
        }
      ],
      "name": "initialize",
      "outputs": [],
      "stateMutability": "nonpayable",
      "type": "function"
    },
    {
      "inputs": [
        {
          "internalType": "bytes32",
          "name": "role",
          "type": "bytes32"
        },
        {
          "internalType": "address",
          "name": "account",
          "type": "address"
        }
      ],
      "name": "renounceRole",
      "outputs": [],
      "stateMutability": "nonpayable",
      "type": "function"
    },
    {
      "inputs": [
        {
          "internalType": "bytes32",
          "name": "role",
          "type": "bytes32"
        },
        {
          "internalType": "address",
          "name": "account",
          "type": "address"
        }
      ],
      "name": "revokeRole",
      "outputs": [],
      "stateMutability": "nonpayable",
      "type": "function"
    },
    {
      "inputs": [
        {
          "internalType": "bytes",
          "name": "sig_",
          "type": "bytes"
        },
        {
          "components": [
            {
              "internalType": "int256",
              "name": "expectedValue",
              "type": "int256"
            },
            {
              "internalType": "int256",
              "name": "maxExposure",
              "type": "int256"
            },
            {
              "internalType": "uint256",
              "name": "deadline",
              "type": "uint256"
            },
            {
              "internalType": "address",
              "name": "signer",
              "type": "address"
            }
          ],
          "internalType": "struct HousePoolWETHV2.ValuesOfInterest",
          "name": "voi_",
          "type": "tuple"
        }
      ],
      "name": "setVOI",
      "outputs": [],
      "stateMutability": "nonpayable",
      "type": "function"
    },
    {
      "inputs": [
        {
          "internalType": "bytes4",
          "name": "interfaceId",
          "type": "bytes4"
        }
      ],
      "name": "supportsInterface",
      "outputs": [
        {
          "internalType": "bool",
          "name": "",
          "type": "bool"
        }
      ],
      "stateMutability": "view",
      "type": "function"
    },
    {
      "inputs": [],
      "name": "voi",
      "outputs": [
        {
          "internalType": "int256",
          "name": "expectedValue",
          "type": "int256"
        },
        {
          "internalType": "int256",
          "name": "maxExposure",
          "type": "int256"
        },
        {
          "internalType": "uint256",
          "name": "deadline",
          "type": "uint256"
        },
        {
          "internalType": "address",
          "name": "signer",
          "type": "address"
        }
      ],
      "stateMutability": "view",
      "type": "function"
    },
    {
      "inputs": [
        {
          "internalType": "uint256",
          "name": "amountWETH",
          "type": "uint256"
        },
        {
          "internalType": "bytes",
          "name": "approval",
          "type": "bytes"
        },
        {
          "components": [
            {
              "internalType": "int256",
              "name": "expectedValue",
              "type": "int256"
            },
            {
              "internalType": "int256",
              "name": "maxExposure",
              "type": "int256"
            },
            {
              "internalType": "uint256",
              "name": "deadline",
              "type": "uint256"
            },
            {
              "internalType": "address",
              "name": "signer",
              "type": "address"
            }
          ],
          "internalType": "struct HousePoolWETHV2.ValuesOfInterest",
          "name": "approvedValues",
          "type": "tuple"
        }
      ],
      "name": "withdraw",
      "outputs": [],
      "stateMutability": "nonpayable",
      "type": "function"
    },
    {
      "inputs": [
        {
          "internalType": "uint256",
          "name": "WETHMicro",
          "type": "uint256"
        }
      ],
      "name": "withdraw_",
      "outputs": [],
      "stateMutability": "nonpayable",
      "type": "function"
    }
  ],
  "bytecode": "0x608060405234801561001057600080fd5b50613f83806100206000396000f3fe608060405234801561001057600080fd5b50600436106101585760003560e01c8063639c066d116100c3578063b3ce25241161007c578063b3ce2524146103b1578063be1cd712146103cf578063cd08a1df146103f0578063d547741f1461040e578063d75d07c21461042a578063e20fcf001461044857610158565b8063639c066d146102df57806383b43589146102fb57806391d1485414610317578063a1cd223214610347578063a217fddf14610377578063a43f32411461039557610158565b806336568abe1161011557806336568abe1461022d5780633c0717fd146102495780634b94f50e14610267578063508c81a21461028557806353f52847146102a35780635a5d6223146102c157610158565b806301ffc9a71461015d5780630f5a5e181461018d57806320ab7449146101a9578063218f296e146101c5578063248a9ca3146101e15780632f2ff15d14610211575b600080fd5b61017760048036038101906101729190612748565b610466565b6040516101849190612790565b60405180910390f35b6101a760048036038101906101a291906127e1565b6104e0565b005b6101c360048036038101906101be9190612a65565b6104ec565b005b6101df60048036038101906101da9190612a65565b61072d565b005b6101fb60048036038101906101f69190612b0a565b61096e565b6040516102089190612b46565b60405180910390f35b61022b60048036038101906102269190612b61565b61098e565b005b61024760048036038101906102429190612b61565b6109b7565b005b610251610a3a565b60405161025e9190612bb0565b60405180910390f35b61026f610a44565b60405161027c9190612bb0565b60405180910390f35b61028d610a4e565b60405161029a9190612b46565b60405180910390f35b6102ab610a72565b6040516102b89190612bda565b60405180910390f35b6102c9610a7c565b6040516102d69190612bda565b60405180910390f35b6102f960048036038101906102f491906127e1565b610a89565b005b61031560048036038101906103109190612c96565b610a95565b005b610331600480360381019061032c9190612b61565b610c6f565b60405161033e9190612790565b60405180910390f35b610361600480360381019061035c9190612d49565b610cda565b60405161036e9190612bb0565b60405180910390f35b61037f610da4565b60405161038c9190612b46565b60405180910390f35b6103af60048036038101906103aa9190612d76565b610dab565b005b6103b9611015565b6040516103c69190612bb0565b60405180910390f35b6103d761101f565b6040516103e79493929190612de1565b60405180910390f35b6103f861105d565b6040516104059190612bda565b60405180910390f35b61042860048036038101906104239190612b61565b61106a565b005b610432611093565b60405161043f9190612b46565b60405180910390f35b6104506110b7565b60405161045d9190612bb0565b60405180910390f35b60007f7965db0b000000000000000000000000000000000000000000000000000000007bffffffffffffffffffffffffffffffffffffffffffffffffffffffff1916827bffffffffffffffffffffffffffffffffffffffffffffffffffffffff191614806104d957506104d8826110c1565b5b9050919050565b6104e98161112b565b50565b8082600061059c7f382f778b38ac8a684a068262bd90ef9739279743851e0bc20a2bf85f56a2550c84606001518560000151866020015160746000896060015173ffffffffffffffffffffffffffffffffffffffff1673ffffffffffffffffffffffffffffffffffffffff16815260200190815260200160002054886040015160405160200161058196959493929190612e26565b6040516020818303038152906040528051906020012061156a565b90506105ad83606001518284611584565b6105ec576040517f08c379a00000000000000000000000000000000000000000000000000000000081526004016105e390612ee4565b60405180910390fd5b600073ffffffffffffffffffffffffffffffffffffffff16836060015173ffffffffffffffffffffffffffffffffffffffff161415610660576040517f08c379a000000000000000000000000000000000000000000000000000000000815260040161065790612f50565b60405180910390fd5b61068e7feed754290b7b7033469899aa55827c9480fc90a4843b45b7f455d0ac50d3e6ce8460600151610c6f565b6106cd576040517f08c379a00000000000000000000000000000000000000000000000000000000081526004016106c490612fe2565b60405180910390fd5b82604001514310610713576040517f08c379a000000000000000000000000000000000000000000000000000000000815260040161070a90613074565b60405180910390fd5b61071c84611769565b6107258661112b565b505050505050565b808260006107dd7f382f778b38ac8a684a068262bd90ef9739279743851e0bc20a2bf85f56a2550c84606001518560000151866020015160746000896060015173ffffffffffffffffffffffffffffffffffffffff1673ffffffffffffffffffffffffffffffffffffffff1681526020019081526020016000205488604001516040516020016107c296959493929190612e26565b6040516020818303038152906040528051906020012061156a565b90506107ee83606001518284611584565b61082d576040517f08c379a000000000000000000000000000000000000000000000000000000000815260040161082490612ee4565b60405180910390fd5b600073ffffffffffffffffffffffffffffffffffffffff16836060015173ffffffffffffffffffffffffffffffffffffffff1614156108a1576040517f08c379a000000000000000000000000000000000000000000000000000000000815260040161089890612f50565b60405180910390fd5b6108cf7feed754290b7b7033469899aa55827c9480fc90a4843b45b7f455d0ac50d3e6ce8460600151610c6f565b61090e576040517f08c379a000000000000000000000000000000000000000000000000000000000815260040161090590612fe2565b60405180910390fd5b82604001514310610954576040517f08c379a000000000000000000000000000000000000000000000000000000000815260040161094b90613074565b60405180910390fd5b61095d84611769565b610966866117a8565b505050505050565b600060336000838152602001908152602001600020600101549050919050565b6109978261096e565b6109a8816109a3611b3f565b611b47565b6109b28383611be4565b505050565b6109bf611b3f565b73ffffffffffffffffffffffffffffffffffffffff168173ffffffffffffffffffffffffffffffffffffffff1614610a2c576040517f08c379a0000000000000000000000000000000000000000000000000000000008152600401610a2390613106565b60405180910390fd5b610a368282611cc5565b5050565b6000606954905090565b6000607254905090565b7fce95e3899a3f9149fc26a34674875210907ee3c0dddf61ac603f89e90c1b5f9e81565b6000606b54905090565b6000606e60010154905090565b610a92816117a8565b50565b600060019054906101000a900460ff16610abd5760008054906101000a900460ff1615610ac6565b610ac5611da7565b5b610b05576040517f08c379a0000000000000000000000000000000000000000000000000000000008152600401610afc90613198565b60405180910390fd5b60008060019054906101000a900460ff161590508015610b55576001600060016101000a81548160ff02191690831515021790555060016000806101000a81548160ff0219169083151502179055505b610b5f8383611db8565b84606c60006101000a81548173ffffffffffffffffffffffffffffffffffffffff021916908373ffffffffffffffffffffffffffffffffffffffff16021790555083606d60006101000a81548173ffffffffffffffffffffffffffffffffffffffff021916908373ffffffffffffffffffffffffffffffffffffffff160217905550610bee6000801b87611e15565b60016012610bfc91906131e7565b600a610c08919061334e565b6001610c149190613399565b60728190555060016012610c2891906131e7565b600a610c34919061334e565b6001610c409190613399565b6073819055508015610c675760008060016101000a81548160ff0219169083151502179055505b505050505050565b60006033600084815260200190815260200160002060000160008373ffffffffffffffffffffffffffffffffffffffff1673ffffffffffffffffffffffffffffffffffffffff16815260200190815260200160002060009054906101000a900460ff16905092915050565b60006012600a610cea919061334e565b607254606d60009054906101000a900473ffffffffffffffffffffffffffffffffffffffff1673ffffffffffffffffffffffffffffffffffffffff166370a08231856040518263ffffffff1660e01b8152600401610d4891906133f3565b602060405180830381865afa158015610d65573d6000803e3d6000fd5b505050506040513d601f19601f82011682018060405250810190610d899190613423565b610d939190613399565b610d9d919061347f565b9050919050565b6000801b81565b80826000610e5b7f382f778b38ac8a684a068262bd90ef9739279743851e0bc20a2bf85f56a2550c84606001518560000151866020015160746000896060015173ffffffffffffffffffffffffffffffffffffffff1673ffffffffffffffffffffffffffffffffffffffff168152602001908152602001600020548860400151604051602001610e4096959493929190612e26565b6040516020818303038152906040528051906020012061156a565b9050610e6c83606001518284611584565b610eab576040517f08c379a0000000000000000000000000000000000000000000000000000000008152600401610ea290612ee4565b60405180910390fd5b600073ffffffffffffffffffffffffffffffffffffffff16836060015173ffffffffffffffffffffffffffffffffffffffff161415610f1f576040517f08c379a0000000000000000000000000000000000000000000000000000000008152600401610f1690612f50565b60405180910390fd5b610f4d7feed754290b7b7033469899aa55827c9480fc90a4843b45b7f455d0ac50d3e6ce8460600151610c6f565b610f8c576040517f08c379a0000000000000000000000000000000000000000000000000000000008152600401610f8390612fe2565b60405180910390fd5b82604001514310610fd2576040517f08c379a0000000000000000000000000000000000000000000000000000000008152600401610fc990613074565b60405180910390fd5b7fce95e3899a3f9149fc26a34674875210907ee3c0dddf61ac603f89e90c1b5f9e61100481610fff611b3f565b611b47565b61100d85611769565b505050505050565b6000607354905090565b606e8060000154908060010154908060020154908060030160009054906101000a900473ffffffffffffffffffffffffffffffffffffffff16905084565b6000606e60000154905090565b6110738261096e565b6110848161107f611b3f565b611b47565b61108e8383611cc5565b505050565b7feed754290b7b7033469899aa55827c9480fc90a4843b45b7f455d0ac50d3e6ce81565b6000606a54905090565b60007f01ffc9a7000000000000000000000000000000000000000000000000000000007bffffffffffffffffffffffffffffffffffffffffffffffffffffffff1916827bffffffffffffffffffffffffffffffffffffffffffffffffffffffff1916149050919050565b60026001541415611171576040517f08c379a0000000000000000000000000000000000000000000000000000000008152600401611168906134fc565b60405180910390fd5b6002600181905550600081116111bc576040517f08c379a00000000000000000000000000000000000000000000000000000000081526004016111b390613568565b60405180910390fd5b6073546012600a6111cd919061334e565b606d60009054906101000a900473ffffffffffffffffffffffffffffffffffffffff1673ffffffffffffffffffffffffffffffffffffffff166370a08231336040518263ffffffff1660e01b815260040161122891906133f3565b602060405180830381865afa158015611245573d6000803e3d6000fd5b505050506040513d601f19601f820116820180604052508101906112699190613423565b611273919061347f565b61127d9190613399565b6000600a61128b919061334e565b826112969190613399565b111580156112ce5750606e600101546069546112b29190613588565b6000600a6112c0919061334e565b826112cb919061361c565b13155b61130d576040517f08c379a00000000000000000000000000000000000000000000000000000000081526004016113049061377f565b60405180910390fd5b60006073546012600a611320919061334e565b6000600a61132e919061334e565b846113399190613399565b6113439190613399565b61134d919061347f565b90506000600a61135d919061334e565b826113689190613399565b6069600082825461137991906131e7565b925050819055506000600a61138e919061334e565b82611399919061361c565b606b60008282546113aa9190613588565b925050819055506000600a6113bf919061334e565b826113ca9190613399565b607560003373ffffffffffffffffffffffffffffffffffffffff1673ffffffffffffffffffffffffffffffffffffffff168152602001908152602001600020600082825461141891906131e7565b92505081905550606c60009054906101000a900473ffffffffffffffffffffffffffffffffffffffff1673ffffffffffffffffffffffffffffffffffffffff1663a9059cbb33846040518363ffffffff1660e01b815260040161147c92919061379f565b6020604051808303816000875af115801561149b573d6000803e3d6000fd5b505050506040513d601f19601f820116820180604052508101906114bf91906137f4565b50606d60009054906101000a900473ffffffffffffffffffffffffffffffffffffffff1673ffffffffffffffffffffffffffffffffffffffff16639dc29fac33836040518363ffffffff1660e01b815260040161151d92919061379f565b600060405180830381600087803b15801561153757600080fd5b505af115801561154b573d6000803e3d6000fd5b50505050611557611e23565b61155f611f7a565b506001808190555050565b600061157d6115776120d1565b83612111565b9050919050565b60008060006115938585612144565b91509150600060048111156115ab576115aa613821565b5b8160048111156115be576115bd613821565b5b1480156115f657508573ffffffffffffffffffffffffffffffffffffffff168273ffffffffffffffffffffffffffffffffffffffff16145b1561160657600192505050611762565b6000808773ffffffffffffffffffffffffffffffffffffffff16631626ba7e60e01b888860405160240161163b9291906138d8565b604051602081830303815290604052907bffffffffffffffffffffffffffffffffffffffffffffffffffffffff19166020820180517bffffffffffffffffffffffffffffffffffffffffffffffffffffffff83818316178352505050506040516116a59190613944565b600060405180830381855afa9150503d80600081146116e0576040519150601f19603f3d011682016040523d82523d6000602084013e6116e5565b606091505b50915091508180156116f8575060208151145b801561175b5750631626ba7e60e01b7bffffffffffffffffffffffffffffffffffffffffffffffffffffffff19168180602001905181019061173a9190613970565b7bffffffffffffffffffffffffffffffffffffffffffffffffffffffff1916145b9450505050505b9392505050565b606e600001548160000151146117875761178681600001516121c7565b5b606e600101548160200151146117a5576117a481602001516121e5565b5b50565b600260015414156117ee576040517f08c379a00000000000000000000000000000000000000000000000000000000081526004016117e5906134fc565b60405180910390fd5b60026001819055506000811180156118a15750606c60009054906101000a900473ffffffffffffffffffffffffffffffffffffffff1673ffffffffffffffffffffffffffffffffffffffff166370a08231336040518263ffffffff1660e01b815260040161185c91906133f3565b602060405180830381865afa158015611879573d6000803e3d6000fd5b505050506040513d601f19601f8201168201806040525081019061189d9190613423565b8111155b6118e0576040517f08c379a00000000000000000000000000000000000000000000000000000000081526004016118d7906139e9565b60405180910390fd5b6000600a6118ee919061334e565b816118f99190613399565b6069600082825461190a9190613a09565b925050819055506000600a61191f919061334e565b8161192a9190613399565b606b600082825461193b9190613a5f565b925050819055506000600a611950919061334e565b8161195b9190613399565b607560003373ffffffffffffffffffffffffffffffffffffffff1673ffffffffffffffffffffffffffffffffffffffff16815260200190815260200160002060008282546119a99190613a09565b92505081905550606c60009054906101000a900473ffffffffffffffffffffffffffffffffffffffff1673ffffffffffffffffffffffffffffffffffffffff166323b872dd3330846040518463ffffffff1660e01b8152600401611a0f93929190613af3565b6020604051808303816000875af1158015611a2e573d6000803e3d6000fd5b505050506040513d601f19601f82011682018060405250810190611a5291906137f4565b5060006072546012600a611a66919061334e565b6000600a611a74919061334e565b84611a7f9190613399565b611a899190613399565b611a93919061347f565b9050606d60009054906101000a900473ffffffffffffffffffffffffffffffffffffffff1673ffffffffffffffffffffffffffffffffffffffff166340c10f1933836040518363ffffffff1660e01b8152600401611af292919061379f565b600060405180830381600087803b158015611b0c57600080fd5b505af1158015611b20573d6000803e3d6000fd5b50505050611b2c611f7a565b611b34611e23565b506001808190555050565b600033905090565b611b518282610c6f565b611be057611b768173ffffffffffffffffffffffffffffffffffffffff1660146121f2565b611b848360001c60206121f2565b604051602001611b95929190613c09565b6040516020818303038152906040526040517f08c379a0000000000000000000000000000000000000000000000000000000008152600401611bd79190613c7c565b60405180910390fd5b5050565b611bee8282610c6f565b611cc15760016033600084815260200190815260200160002060000160008373ffffffffffffffffffffffffffffffffffffffff1673ffffffffffffffffffffffffffffffffffffffff16815260200190815260200160002060006101000a81548160ff021916908315150217905550611c66611b3f565b73ffffffffffffffffffffffffffffffffffffffff168173ffffffffffffffffffffffffffffffffffffffff16837f2f8788117e7eff1d82e926ec794901d17c78024a50270940304540a733656f0d60405160405180910390a45b5050565b611ccf8282610c6f565b15611da35760006033600084815260200190815260200160002060000160008373ffffffffffffffffffffffffffffffffffffffff1673ffffffffffffffffffffffffffffffffffffffff16815260200190815260200160002060006101000a81548160ff021916908315150217905550611d48611b3f565b73ffffffffffffffffffffffffffffffffffffffff168173ffffffffffffffffffffffffffffffffffffffff16837ff6391f5c32d9c69d2a47ea670b442974b53935d1edc7fd64eb21e047a839171b60405160405180910390a45b5050565b6000611db23061242e565b15905090565b600060019054906101000a900460ff16611e07576040517f08c379a0000000000000000000000000000000000000000000000000000000008152600401611dfe90613d10565b60405180910390fd5b611e118282612451565b5050565b611e1f8282611be4565b5050565b6000606d60009054906101000a900473ffffffffffffffffffffffffffffffffffffffff1673ffffffffffffffffffffffffffffffffffffffff166318160ddd6040518163ffffffff1660e01b8152600401602060405180830381865afa158015611e92573d6000803e3d6000fd5b505050506040513d601f19601f82011682018060405250810190611eb69190613423565b14611f7857606d60009054906101000a900473ffffffffffffffffffffffffffffffffffffffff1673ffffffffffffffffffffffffffffffffffffffff166318160ddd6040518163ffffffff1660e01b8152600401602060405180830381865afa158015611f28573d6000803e3d6000fd5b505050506040513d601f19601f82011682018060405250810190611f4c9190613423565b6012600a611f5a919061334e565b606954611f679190613399565b611f71919061347f565b6073819055505b565b6000606d60009054906101000a900473ffffffffffffffffffffffffffffffffffffffff1673ffffffffffffffffffffffffffffffffffffffff166318160ddd6040518163ffffffff1660e01b8152600401602060405180830381865afa158015611fe9573d6000803e3d6000fd5b505050506040513d601f19601f8201168201806040525081019061200d9190613423565b146120cf57606d60009054906101000a900473ffffffffffffffffffffffffffffffffffffffff1673ffffffffffffffffffffffffffffffffffffffff166318160ddd6040518163ffffffff1660e01b8152600401602060405180830381865afa15801561207f573d6000803e3d6000fd5b505050506040513d601f19601f820116820180604052508101906120a39190613423565b6012600a6120b1919061334e565b606b546120be9190613399565b6120c8919061347f565b6072819055505b565b600061210c7f8b73c3c69bb8fe3d512ecc4cf759cc79239f7b179b0ffacaa9a75d522b39400f6120ff6124cc565b6121076124d6565b6124e0565b905090565b60008282604051602001612126929190613d9d565b60405160208183030381529060405280519060200120905092915050565b6000806041835114156121865760008060006020860151925060408601519150606086015160001a905061217a8782858561251a565b945094505050506121c0565b6040835114156121b75760008060208501519150604085015190506121ac868383612627565b9350935050506121c0565b60006002915091505b9250929050565b6121d081612675565b80606e600001819055506121e2611f7a565b50565b80606e6001018190555050565b6060600060028360026122059190613399565b61220f9190613a09565b67ffffffffffffffff81111561222857612227612829565b5b6040519080825280601f01601f19166020018201604052801561225a5781602001600182028036833780820191505090505b5090507f30000000000000000000000000000000000000000000000000000000000000008160008151811061229257612291613dd4565b5b60200101907effffffffffffffffffffffffffffffffffffffffffffffffffffffffffffff1916908160001a9053507f7800000000000000000000000000000000000000000000000000000000000000816001815181106122f6576122f5613dd4565b5b60200101907effffffffffffffffffffffffffffffffffffffffffffffffffffffffffffff1916908160001a905350600060018460026123369190613399565b6123409190613a09565b90505b60018111156123e0577f3031323334353637383961626364656600000000000000000000000000000000600f86166010811061238257612381613dd4565b5b1a60f81b82828151811061239957612398613dd4565b5b60200101907effffffffffffffffffffffffffffffffffffffffffffffffffffffffffffff1916908160001a905350600485901c9450806123d990613e03565b9050612343565b5060008414612424576040517f08c379a000000000000000000000000000000000000000000000000000000000815260040161241b90613e79565b60405180910390fd5b8091505092915050565b6000808273ffffffffffffffffffffffffffffffffffffffff163b119050919050565b600060019054906101000a900460ff166124a0576040517f08c379a000000000000000000000000000000000000000000000000000000000815260040161249790613d10565b60405180910390fd5b600082805190602001209050600082805190602001209050816034819055508060358190555050505050565b6000603454905090565b6000603554905090565b600083838346306040516020016124fb959493929190613e99565b6040516020818303038152906040528051906020012090509392505050565b6000807f7fffffffffffffffffffffffffffffff5d576e7357a4501ddfe92f46681b20a08360001c111561255557600060039150915061261e565b601b8560ff161415801561256d5750601c8560ff1614155b1561257f57600060049150915061261e565b6000600187878787604051600081526020016040526040516125a49493929190613f08565b6020604051602081039080840390855afa1580156125c6573d6000803e3d6000fd5b505050602060405103519050600073ffffffffffffffffffffffffffffffffffffffff168173ffffffffffffffffffffffffffffffffffffffff1614156126155760006001925092505061261e565b80600092509250505b94509492505050565b6000806000807f7fffffffffffffffffffffffffffffffffffffffffffffffffffffffffffffff85169150601b8560ff1c0190506126678782888561251a565b935093505050935093915050565b6000606e6000015414156126a15780606b60008282546126959190613a5f565b925050819055506126d9565b606e60000154606b60008282546126b89190613588565b9250508190555080606b60008282546126d19190613a5f565b925050819055505b50565b6000604051905090565b600080fd5b600080fd5b60007fffffffff0000000000000000000000000000000000000000000000000000000082169050919050565b612725816126f0565b811461273057600080fd5b50565b6000813590506127428161271c565b92915050565b60006020828403121561275e5761275d6126e6565b5b600061276c84828501612733565b91505092915050565b60008115159050919050565b61278a81612775565b82525050565b60006020820190506127a56000830184612781565b92915050565b6000819050919050565b6127be816127ab565b81146127c957600080fd5b50565b6000813590506127db816127b5565b92915050565b6000602082840312156127f7576127f66126e6565b5b6000612805848285016127cc565b91505092915050565b600080fd5b600080fd5b6000601f19601f8301169050919050565b7f4e487b7100000000000000000000000000000000000000000000000000000000600052604160045260246000fd5b61286182612818565b810181811067ffffffffffffffff821117156128805761287f612829565b5b80604052505050565b60006128936126dc565b905061289f8282612858565b919050565b600067ffffffffffffffff8211156128bf576128be612829565b5b6128c882612818565b9050602081019050919050565b82818337600083830152505050565b60006128f76128f2846128a4565b612889565b90508281526020810184848401111561291357612912612813565b5b61291e8482856128d5565b509392505050565b600082601f83011261293b5761293a61280e565b5b813561294b8482602086016128e4565b91505092915050565b600080fd5b6000819050919050565b61296c81612959565b811461297757600080fd5b50565b60008135905061298981612963565b92915050565b600073ffffffffffffffffffffffffffffffffffffffff82169050919050565b60006129ba8261298f565b9050919050565b6129ca816129af565b81146129d557600080fd5b50565b6000813590506129e7816129c1565b92915050565b600060808284031215612a0357612a02612954565b5b612a0d6080612889565b90506000612a1d8482850161297a565b6000830152506020612a318482850161297a565b6020830152506040612a45848285016127cc565b6040830152506060612a59848285016129d8565b60608301525092915050565b600080600060c08486031215612a7e57612a7d6126e6565b5b6000612a8c868287016127cc565b935050602084013567ffffffffffffffff811115612aad57612aac6126eb565b5b612ab986828701612926565b9250506040612aca868287016129ed565b9150509250925092565b6000819050919050565b612ae781612ad4565b8114612af257600080fd5b50565b600081359050612b0481612ade565b92915050565b600060208284031215612b2057612b1f6126e6565b5b6000612b2e84828501612af5565b91505092915050565b612b4081612ad4565b82525050565b6000602082019050612b5b6000830184612b37565b92915050565b60008060408385031215612b7857612b776126e6565b5b6000612b8685828601612af5565b9250506020612b97858286016129d8565b9150509250929050565b612baa816127ab565b82525050565b6000602082019050612bc56000830184612ba1565b92915050565b612bd481612959565b82525050565b6000602082019050612bef6000830184612bcb565b92915050565b600067ffffffffffffffff821115612c1057612c0f612829565b5b612c1982612818565b9050602081019050919050565b6000612c39612c3484612bf5565b612889565b905082815260208101848484011115612c5557612c54612813565b5b612c608482856128d5565b509392505050565b600082601f830112612c7d57612c7c61280e565b5b8135612c8d848260208601612c26565b91505092915050565b600080600080600060a08688031215612cb257612cb16126e6565b5b6000612cc0888289016129d8565b9550506020612cd1888289016129d8565b9450506040612ce2888289016129d8565b935050606086013567ffffffffffffffff811115612d0357612d026126eb565b5b612d0f88828901612c68565b925050608086013567ffffffffffffffff811115612d3057612d2f6126eb565b5b612d3c88828901612c68565b9150509295509295909350565b600060208284031215612d5f57612d5e6126e6565b5b6000612d6d848285016129d8565b91505092915050565b60008060a08385031215612d8d57612d8c6126e6565b5b600083013567ffffffffffffffff811115612dab57612daa6126eb565b5b612db785828601612926565b9250506020612dc8858286016129ed565b9150509250929050565b612ddb816129af565b82525050565b6000608082019050612df66000830187612bcb565b612e036020830186612bcb565b612e106040830185612ba1565b612e1d6060830184612dd2565b95945050505050565b600060c082019050612e3b6000830189612b37565b612e486020830188612dd2565b612e556040830187612bcb565b612e626060830186612bcb565b612e6f6080830185612ba1565b612e7c60a0830184612ba1565b979650505050505050565b600082825260208201905092915050565b7f486f757365506f6f6c574554483a20696e76616c6964207369676e6174757265600082015250565b6000612ece602083612e87565b9150612ed982612e98565b602082019050919050565b60006020820190508181036000830152612efd81612ec1565b9050919050565b7f486f757365506f6f6c574554483a20696e76616c6964207369676e6572000000600082015250565b6000612f3a601d83612e87565b9150612f4582612f04565b602082019050919050565b60006020820190508181036000830152612f6981612f2d565b9050919050565b7f486f757365506f6f6c574554483a20756e617574686f7269736564207369676e60008201527f6572000000000000000000000000000000000000000000000000000000000000602082015250565b6000612fcc602283612e87565b9150612fd782612f70565b604082019050919050565b60006020820190508181036000830152612ffb81612fbf565b9050919050565b7f486f757365506f6f6c574554483a207369676e6564207472616e73616374696f60008201527f6e20657870697265640000000000000000000000000000000000000000000000602082015250565b600061305e602983612e87565b915061306982613002565b604082019050919050565b6000602082019050818103600083015261308d81613051565b9050919050565b7f416363657373436f6e74726f6c3a2063616e206f6e6c792072656e6f756e636560008201527f20726f6c657320666f722073656c660000000000000000000000000000000000602082015250565b60006130f0602f83612e87565b91506130fb82613094565b604082019050919050565b6000602082019050818103600083015261311f816130e3565b9050919050565b7f496e697469616c697a61626c653a20636f6e747261637420697320616c72656160008201527f647920696e697469616c697a6564000000000000000000000000000000000000602082015250565b6000613182602e83612e87565b915061318d82613126565b604082019050919050565b600060208201905081810360008301526131b181613175565b9050919050565b7f4e487b7100000000000000000000000000000000000000000000000000000000600052601160045260246000fd5b60006131f2826127ab565b91506131fd836127ab565b9250828210156132105761320f6131b8565b5b828203905092915050565b60008160011c9050919050565b6000808291508390505b60018511156132725780860481111561324e5761324d6131b8565b5b600185161561325d5780820291505b808102905061326b8561321b565b9450613232565b94509492505050565b60008261328b5760019050613347565b816132995760009050613347565b81600181146132af57600281146132b9576132e8565b6001915050613347565b60ff8411156132cb576132ca6131b8565b5b8360020a9150848211156132e2576132e16131b8565b5b50613347565b5060208310610133831016604e8410600b841016171561331d5782820a905083811115613318576133176131b8565b5b613347565b61332a8484846001613228565b92509050818404811115613341576133406131b8565b5b81810290505b9392505050565b6000613359826127ab565b9150613364836127ab565b92506133917fffffffffffffffffffffffffffffffffffffffffffffffffffffffffffffffff848461327b565b905092915050565b60006133a4826127ab565b91506133af836127ab565b9250817fffffffffffffffffffffffffffffffffffffffffffffffffffffffffffffffff04831182151516156133e8576133e76131b8565b5b828202905092915050565b60006020820190506134086000830184612dd2565b92915050565b60008151905061341d816127b5565b92915050565b600060208284031215613439576134386126e6565b5b60006134478482850161340e565b91505092915050565b7f4e487b7100000000000000000000000000000000000000000000000000000000600052601260045260246000fd5b600061348a826127ab565b9150613495836127ab565b9250826134a5576134a4613450565b5b828204905092915050565b7f5265656e7472616e637947756172643a207265656e7472616e742063616c6c00600082015250565b60006134e6601f83612e87565b91506134f1826134b0565b602082019050919050565b60006020820190508181036000830152613515816134d9565b9050919050565b7f57455448486f757365506f6f6c3a205a65726f20416d6f756e74000000000000600082015250565b6000613552601a83612e87565b915061355d8261351c565b602082019050919050565b6000602082019050818103600083015261358181613545565b9050919050565b600061359382612959565b915061359e83612959565b9250827f8000000000000000000000000000000000000000000000000000000000000000018212600084121516156135d9576135d86131b8565b5b827f7fffffffffffffffffffffffffffffffffffffffffffffffffffffffffffffff018213600084121615613611576136106131b8565b5b828203905092915050565b600061362782612959565b915061363283612959565b9250827f7fffffffffffffffffffffffffffffffffffffffffffffffffffffffffffffff0482116000841360008413161615613671576136706131b8565b5b817f800000000000000000000000000000000000000000000000000000000000000005831260008412600084131616156136ae576136ad6131b8565b5b827f800000000000000000000000000000000000000000000000000000000000000005821260008413600084121616156136eb576136ea6131b8565b5b827f7fffffffffffffffffffffffffffffffffffffffffffffffffffffffffffffff0582126000841260008412161615613728576137276131b8565b5b828202905092915050565b7f57455448486f757365506f6f6c203a2063616e27742077697468647261770000600082015250565b6000613769601e83612e87565b915061377482613733565b602082019050919050565b600060208201905081810360008301526137988161375c565b9050919050565b60006040820190506137b46000830185612dd2565b6137c16020830184612ba1565b9392505050565b6137d181612775565b81146137dc57600080fd5b50565b6000815190506137ee816137c8565b92915050565b60006020828403121561380a576138096126e6565b5b6000613818848285016137df565b91505092915050565b7f4e487b7100000000000000000000000000000000000000000000000000000000600052602160045260246000fd5b600081519050919050565b600082825260208201905092915050565b60005b8381101561388a57808201518184015260208101905061386f565b83811115613899576000848401525b50505050565b60006138aa82613850565b6138b4818561385b565b93506138c481856020860161386c565b6138cd81612818565b840191505092915050565b60006040820190506138ed6000830185612b37565b81810360208301526138ff818461389f565b90509392505050565b600081905092915050565b600061391e82613850565b6139288185613908565b935061393881856020860161386c565b80840191505092915050565b60006139508284613913565b915081905092915050565b60008151905061396a8161271c565b92915050565b600060208284031215613986576139856126e6565b5b60006139948482850161395b565b91505092915050565b7f57455448486f757365506f6f6c3a20436865636b207468652042616c616e6365600082015250565b60006139d3602083612e87565b91506139de8261399d565b602082019050919050565b60006020820190508181036000830152613a02816139c6565b9050919050565b6000613a14826127ab565b9150613a1f836127ab565b9250827fffffffffffffffffffffffffffffffffffffffffffffffffffffffffffffffff03821115613a5457613a536131b8565b5b828201905092915050565b6000613a6a82612959565b9150613a7583612959565b9250817f7fffffffffffffffffffffffffffffffffffffffffffffffffffffffffffffff03831360008312151615613ab057613aaf6131b8565b5b817f8000000000000000000000000000000000000000000000000000000000000000038312600083121615613ae857613ae76131b8565b5b828201905092915050565b6000606082019050613b086000830186612dd2565b613b156020830185612dd2565b613b226040830184612ba1565b949350505050565b600081905092915050565b7f416363657373436f6e74726f6c3a206163636f756e7420000000000000000000600082015250565b6000613b6b601783613b2a565b9150613b7682613b35565b601782019050919050565b600081519050919050565b6000613b9782613b81565b613ba18185613b2a565b9350613bb181856020860161386c565b80840191505092915050565b7f206973206d697373696e6720726f6c6520000000000000000000000000000000600082015250565b6000613bf3601183613b2a565b9150613bfe82613bbd565b601182019050919050565b6000613c1482613b5e565b9150613c208285613b8c565b9150613c2b82613be6565b9150613c378284613b8c565b91508190509392505050565b6000613c4e82613b81565b613c588185612e87565b9350613c6881856020860161386c565b613c7181612818565b840191505092915050565b60006020820190508181036000830152613c968184613c43565b905092915050565b7f496e697469616c697a61626c653a20636f6e7472616374206973206e6f74206960008201527f6e697469616c697a696e67000000000000000000000000000000000000000000602082015250565b6000613cfa602b83612e87565b9150613d0582613c9e565b604082019050919050565b60006020820190508181036000830152613d2981613ced565b9050919050565b7f1901000000000000000000000000000000000000000000000000000000000000600082015250565b6000613d66600283613b2a565b9150613d7182613d30565b600282019050919050565b6000819050919050565b613d97613d9282612ad4565b613d7c565b82525050565b6000613da882613d59565b9150613db48285613d86565b602082019150613dc48284613d86565b6020820191508190509392505050565b7f4e487b7100000000000000000000000000000000000000000000000000000000600052603260045260246000fd5b6000613e0e826127ab565b91506000821415613e2257613e216131b8565b5b600182039050919050565b7f537472696e67733a20686578206c656e67746820696e73756666696369656e74600082015250565b6000613e63602083612e87565b9150613e6e82613e2d565b602082019050919050565b60006020820190508181036000830152613e9281613e56565b9050919050565b600060a082019050613eae6000830188612b37565b613ebb6020830187612b37565b613ec86040830186612b37565b613ed56060830185612ba1565b613ee26080830184612dd2565b9695505050505050565b600060ff82169050919050565b613f0281613eec565b82525050565b6000608082019050613f1d6000830187612b37565b613f2a6020830186613ef9565b613f376040830185612b37565b613f446060830184612b37565b9594505050505056fea264697066735822122097db73336630e3ef187d611d36a8872e32954b59ae2dd63cd840274fde00ac1664736f6c634300080a0033",
  "linkReferences": {},
  "deployedLinkReferences": {}
}