{
  "_format": "hh-sol-artifact-1",
  "contractName": "FundDistributor",
  "sourceName": "contracts/FundDistributor.sol",
  "abi": [
    {
      "inputs": [
        {
          "internalType": "address",
          "name": "_reward",
          "type": "address"
        }
      ],
      "stateMutability": "nonpayable",
      "type": "constructor"
    },
    {
      "anonymous": false,
      "inputs": [
        {
          "indexed": true,
          "internalType": "uint256",
          "name": "amount",
          "type": "uint256"
        }
      ],
      "name": "FundRequested",
      "type": "event"
    },
    {
      "anonymous": false,
      "inputs": [
        {
          "indexed": true,
          "internalType": "address",
          "name": "previousOwner",
          "type": "address"
        },
        {
          "indexed": true,
          "internalType": "address",
          "name": "newOwner",
          "type": "address"
        }
      ],
      "name": "OwnershipTransferred",
      "type": "event"
    },
    {
      "anonymous": false,
      "inputs": [
        {
          "indexed": true,
          "internalType": "address",
          "name": "requester",
          "type": "address"
        }
      ],
      "name": "RequesterAdded",
      "type": "event"
    },
    {
      "anonymous": false,
      "inputs": [
        {
          "indexed": true,
          "internalType": "address",
          "name": "requester",
          "type": "address"
        }
      ],
      "name": "RequesterRemoved",
      "type": "event"
    },
    {
      "inputs": [
        {
          "internalType": "address",
          "name": "_requester",
          "type": "address"
        }
      ],
      "name": "addRequester",
      "outputs": [],
      "stateMutability": "nonpayable",
      "type": "function"
    },
    {
      "inputs": [
        {
          "internalType": "address",
          "name": "_receiver",
          "type": "address"
        },
        {
          "internalType": "uint256",
          "name": "_amount",
          "type": "uint256"
        }
      ],
      "name": "distributeReward",
      "outputs": [],
      "stateMutability": "nonpayable",
      "type": "function"
    },
    {
      "inputs": [],
      "name": "missingDecimals",
      "outputs": [
        {
          "internalType": "uint256",
          "name": "",
          "type": "uint256"
        }
      ],
      "stateMutability": "view",
      "type": "function"
    },
    {
      "inputs": [],
      "name": "owner",
      "outputs": [
        {
          "internalType": "address",
          "name": "",
          "type": "address"
        }
      ],
      "stateMutability": "view",
      "type": "function"
    },
    {
      "inputs": [
        {
          "internalType": "address",
          "name": "_requester",
          "type": "address"
        }
      ],
      "name": "removeRequester",
      "outputs": [],
      "stateMutability": "nonpayable",
      "type": "function"
    },
    {
      "inputs": [],
      "name": "renounceOwnership",
      "outputs": [],
      "stateMutability": "nonpayable",
      "type": "function"
    },
    {
      "inputs": [
        {
          "internalType": "address",
          "name": "",
          "type": "address"
        }
      ],
      "name": "requesters",
      "outputs": [
        {
          "internalType": "bool",
          "name": "",
          "type": "bool"
        }
      ],
      "stateMutability": "view",
      "type": "function"
    },
    {
      "inputs": [],
      "name": "reward",
      "outputs": [
        {
          "internalType": "contract IRewardToken",
          "name": "",
          "type": "address"
        }
      ],
      "stateMutability": "view",
      "type": "function"
    },
    {
      "inputs": [
        {
          "internalType": "address",
          "name": "newOwner",
          "type": "address"
        }
      ],
      "name": "transferOwnership",
      "outputs": [],
      "stateMutability": "nonpayable",
      "type": "function"
    }
  ],
  "bytecode": "0x60806040523480156200001157600080fd5b50604051620014913803806200149183398181016040528101906200003791906200025e565b620000576200004b6200012860201b60201c565b6200013060201b60201c565b80600160006101000a81548173ffffffffffffffffffffffffffffffffffffffff021916908373ffffffffffffffffffffffffffffffffffffffff1602179055508073ffffffffffffffffffffffffffffffffffffffff1663313ce5676040518163ffffffff1660e01b8152600401602060405180830381865afa158015620000e4573d6000803e3d6000fd5b505050506040513d601f19601f820116820180604052508101906200010a9190620002ce565b60126200011891906200032f565b60ff16600281905550506200036a565b600033905090565b60008060009054906101000a900473ffffffffffffffffffffffffffffffffffffffff169050816000806101000a81548173ffffffffffffffffffffffffffffffffffffffff021916908373ffffffffffffffffffffffffffffffffffffffff1602179055508173ffffffffffffffffffffffffffffffffffffffff168173ffffffffffffffffffffffffffffffffffffffff167f8be0079c531659141344cd1fd0a4f28419497f9722a3daafe3b4186f6b6457e060405160405180910390a35050565b600080fd5b600073ffffffffffffffffffffffffffffffffffffffff82169050919050565b60006200022682620001f9565b9050919050565b620002388162000219565b81146200024457600080fd5b50565b60008151905062000258816200022d565b92915050565b600060208284031215620002775762000276620001f4565b5b6000620002878482850162000247565b91505092915050565b600060ff82169050919050565b620002a88162000290565b8114620002b457600080fd5b50565b600081519050620002c8816200029d565b92915050565b600060208284031215620002e757620002e6620001f4565b5b6000620002f784828501620002b7565b91505092915050565b7f4e487b7100000000000000000000000000000000000000000000000000000000600052601160045260246000fd5b60006200033c8262000290565b9150620003498362000290565b9250828210156200035f576200035e62000300565b5b828203905092915050565b611117806200037a6000396000f3fe608060405234801561001057600080fd5b50600436106100935760003560e01c8063715018a611610066578063715018a61461010c5780638da5cb5b14610116578063d6f8307f14610134578063e4d609cc14610164578063f2fde38b1461018057610093565b80631107e77c146100985780631ec8bb8c146100b4578063228cb733146100d0578063412831c4146100ee575b600080fd5b6100b260048036038101906100ad91906109ec565b61019c565b005b6100ce60048036038101906100c99190610a4f565b610339565b005b6100d861050b565b6040516100e59190610aee565b60405180910390f35b6100f6610531565b6040516101039190610b18565b60405180910390f35b610114610537565b005b61011e6105bf565b60405161012b9190610b42565b60405180910390f35b61014e600480360381019061014991906109ec565b6105e8565b60405161015b9190610b78565b60405180910390f35b61017e600480360381019061017991906109ec565b610608565b005b61019a600480360381019061019591906109ec565b6107af565b005b6101a46108a7565b73ffffffffffffffffffffffffffffffffffffffff166101c26105bf565b73ffffffffffffffffffffffffffffffffffffffff1614610218576040517f08c379a000000000000000000000000000000000000000000000000000000000815260040161020f90610bf0565b60405180910390fd5b600360008273ffffffffffffffffffffffffffffffffffffffff1673ffffffffffffffffffffffffffffffffffffffff16815260200190815260200160002060009054906101000a900460ff166102a4576040517f08c379a000000000000000000000000000000000000000000000000000000000815260040161029b90610c5c565b60405180910390fd5b600360008273ffffffffffffffffffffffffffffffffffffffff1673ffffffffffffffffffffffffffffffffffffffff16815260200190815260200160002060006101000a81549060ff02191690558073ffffffffffffffffffffffffffffffffffffffff167ffac6f04e18535b820487cce1312e5a45366b7326f7e956a9c48d70fecdde876160405160405180910390a250565b600360006103456108a7565b73ffffffffffffffffffffffffffffffffffffffff1673ffffffffffffffffffffffffffffffffffffffff16815260200190815260200160002060009054906101000a900460ff166103cc576040517f08c379a00000000000000000000000000000000000000000000000000000000081526004016103c390610cc8565b60405180910390fd5b600073ffffffffffffffffffffffffffffffffffffffff168273ffffffffffffffffffffffffffffffffffffffff16141561043c576040517f08c379a000000000000000000000000000000000000000000000000000000000815260040161043390610d34565b60405180910390fd5b600081111561050757600160009054906101000a900473ffffffffffffffffffffffffffffffffffffffff1673ffffffffffffffffffffffffffffffffffffffff1663a9059cbb836104a5600254600a6104969190610eb6565b856108af90919063ffffffff16565b6040518363ffffffff1660e01b81526004016104c2929190610f01565b6020604051808303816000875af11580156104e1573d6000803e3d6000fd5b505050506040513d601f19601f820116820180604052508101906105059190610f56565b505b5050565b600160009054906101000a900473ffffffffffffffffffffffffffffffffffffffff1681565b60025481565b61053f6108a7565b73ffffffffffffffffffffffffffffffffffffffff1661055d6105bf565b73ffffffffffffffffffffffffffffffffffffffff16146105b3576040517f08c379a00000000000000000000000000000000000000000000000000000000081526004016105aa90610bf0565b60405180910390fd5b6105bd60006108c5565b565b60008060009054906101000a900473ffffffffffffffffffffffffffffffffffffffff16905090565b60036020528060005260406000206000915054906101000a900460ff1681565b6106106108a7565b73ffffffffffffffffffffffffffffffffffffffff1661062e6105bf565b73ffffffffffffffffffffffffffffffffffffffff1614610684576040517f08c379a000000000000000000000000000000000000000000000000000000000815260040161067b90610bf0565b60405180910390fd5b600360008273ffffffffffffffffffffffffffffffffffffffff1673ffffffffffffffffffffffffffffffffffffffff16815260200190815260200160002060009054906101000a900460ff1615610711576040517f08c379a000000000000000000000000000000000000000000000000000000000815260040161070890610fcf565b60405180910390fd5b6001600360008373ffffffffffffffffffffffffffffffffffffffff1673ffffffffffffffffffffffffffffffffffffffff16815260200190815260200160002060006101000a81548160ff0219169083151502179055508073ffffffffffffffffffffffffffffffffffffffff167f1616bf4c0898e95cbe6407827ef9ba6f5887a571df69e07eeda76b2b2a4f7daf60405160405180910390a250565b6107b76108a7565b73ffffffffffffffffffffffffffffffffffffffff166107d56105bf565b73ffffffffffffffffffffffffffffffffffffffff161461082b576040517f08c379a000000000000000000000000000000000000000000000000000000000815260040161082290610bf0565b60405180910390fd5b600073ffffffffffffffffffffffffffffffffffffffff168173ffffffffffffffffffffffffffffffffffffffff16141561089b576040517f08c379a000000000000000000000000000000000000000000000000000000000815260040161089290611061565b60405180910390fd5b6108a4816108c5565b50565b600033905090565b600081836108bd91906110b0565b905092915050565b60008060009054906101000a900473ffffffffffffffffffffffffffffffffffffffff169050816000806101000a81548173ffffffffffffffffffffffffffffffffffffffff021916908373ffffffffffffffffffffffffffffffffffffffff1602179055508173ffffffffffffffffffffffffffffffffffffffff168173ffffffffffffffffffffffffffffffffffffffff167f8be0079c531659141344cd1fd0a4f28419497f9722a3daafe3b4186f6b6457e060405160405180910390a35050565b600080fd5b600073ffffffffffffffffffffffffffffffffffffffff82169050919050565b60006109b98261098e565b9050919050565b6109c9816109ae565b81146109d457600080fd5b50565b6000813590506109e6816109c0565b92915050565b600060208284031215610a0257610a01610989565b5b6000610a10848285016109d7565b91505092915050565b6000819050919050565b610a2c81610a19565b8114610a3757600080fd5b50565b600081359050610a4981610a23565b92915050565b60008060408385031215610a6657610a65610989565b5b6000610a74858286016109d7565b9250506020610a8585828601610a3a565b9150509250929050565b6000819050919050565b6000610ab4610aaf610aaa8461098e565b610a8f565b61098e565b9050919050565b6000610ac682610a99565b9050919050565b6000610ad882610abb565b9050919050565b610ae881610acd565b82525050565b6000602082019050610b036000830184610adf565b92915050565b610b1281610a19565b82525050565b6000602082019050610b2d6000830184610b09565b92915050565b610b3c816109ae565b82525050565b6000602082019050610b576000830184610b33565b92915050565b60008115159050919050565b610b7281610b5d565b82525050565b6000602082019050610b8d6000830184610b69565b92915050565b600082825260208201905092915050565b7f4f776e61626c653a2063616c6c6572206973206e6f7420746865206f776e6572600082015250565b6000610bda602083610b93565b9150610be582610ba4565b602082019050919050565b60006020820190508181036000830152610c0981610bcd565b9050919050565b7f726571756573746572206e6f7420666f756e6400000000000000000000000000600082015250565b6000610c46601383610b93565b9150610c5182610c10565b602082019050919050565b60006020820190508181036000830152610c7581610c39565b9050919050565b7f4f6e6c7920706f6f6c2063616e2072657175657374207472616e736665720000600082015250565b6000610cb2601e83610b93565b9150610cbd82610c7c565b602082019050919050565b60006020820190508181036000830152610ce181610ca5565b9050919050565b7f496e76616c696420616464726573730000000000000000000000000000000000600082015250565b6000610d1e600f83610b93565b9150610d2982610ce8565b602082019050919050565b60006020820190508181036000830152610d4d81610d11565b9050919050565b7f4e487b7100000000000000000000000000000000000000000000000000000000600052601160045260246000fd5b60008160011c9050919050565b6000808291508390505b6001851115610dda57808604811115610db657610db5610d54565b5b6001851615610dc55780820291505b8081029050610dd385610d83565b9450610d9a565b94509492505050565b600082610df35760019050610eaf565b81610e015760009050610eaf565b8160018114610e175760028114610e2157610e50565b6001915050610eaf565b60ff841115610e3357610e32610d54565b5b8360020a915084821115610e4a57610e49610d54565b5b50610eaf565b5060208310610133831016604e8410600b8410161715610e855782820a905083811115610e8057610e7f610d54565b5b610eaf565b610e928484846001610d90565b92509050818404811115610ea957610ea8610d54565b5b81810290505b9392505050565b6000610ec182610a19565b9150610ecc83610a19565b9250610ef97fffffffffffffffffffffffffffffffffffffffffffffffffffffffffffffffff8484610de3565b905092915050565b6000604082019050610f166000830185610b33565b610f236020830184610b09565b9392505050565b610f3381610b5d565b8114610f3e57600080fd5b50565b600081519050610f5081610f2a565b92915050565b600060208284031215610f6c57610f6b610989565b5b6000610f7a84828501610f41565b91505092915050565b7f7265717565737465722065786973746564000000000000000000000000000000600082015250565b6000610fb9601183610b93565b9150610fc482610f83565b602082019050919050565b60006020820190508181036000830152610fe881610fac565b9050919050565b7f4f776e61626c653a206e6577206f776e657220697320746865207a65726f206160008201527f6464726573730000000000000000000000000000000000000000000000000000602082015250565b600061104b602683610b93565b915061105682610fef565b604082019050919050565b6000602082019050818103600083015261107a8161103e565b9050919050565b7f4e487b7100000000000000000000000000000000000000000000000000000000600052601260045260246000fd5b60006110bb82610a19565b91506110c683610a19565b9250826110d6576110d5611081565b5b82820490509291505056fea2646970667358221220bd688ccf4f3f7fde6511c1472780f7fefffb7b413e955909c267b75a385a64c964736f6c634300080a0033",
  "linkReferences": {},
  "deployedLinkReferences": {}
}