{
  "_format": "hh-sol-artifact-1",
  "contractName": "FundDistributor",
  "sourceName": "contracts/FundDistributor.sol",
  "abi": [
    {
      "inputs": [
        {
          "internalType": "address",
          "name": "_reward",
          "type": "address"
        }
      ],
      "stateMutability": "nonpayable",
      "type": "constructor"
    },
    {
      "anonymous": false,
      "inputs": [
        {
          "indexed": true,
          "internalType": "uint256",
          "name": "amount",
          "type": "uint256"
        }
      ],
      "name": "FundRequested",
      "type": "event"
    },
    {
      "anonymous": false,
      "inputs": [
        {
          "indexed": true,
          "internalType": "address",
          "name": "previousOwner",
          "type": "address"
        },
        {
          "indexed": true,
          "internalType": "address",
          "name": "newOwner",
          "type": "address"
        }
      ],
      "name": "OwnershipTransferred",
      "type": "event"
    },
    {
      "anonymous": false,
      "inputs": [
        {
          "indexed": true,
          "internalType": "address",
          "name": "requester",
          "type": "address"
        }
      ],
      "name": "RequesterAdded",
      "type": "event"
    },
    {
      "anonymous": false,
      "inputs": [
        {
          "indexed": true,
          "internalType": "address",
          "name": "requester",
          "type": "address"
        }
      ],
      "name": "RequesterRemoved",
      "type": "event"
    },
    {
      "inputs": [
        {
          "internalType": "address",
          "name": "_requester",
          "type": "address"
        }
      ],
      "name": "addRequester",
      "outputs": [],
      "stateMutability": "nonpayable",
      "type": "function"
    },
    {
      "inputs": [
        {
          "internalType": "address",
          "name": "_receiver",
          "type": "address"
        },
        {
          "internalType": "uint256",
          "name": "_amount",
          "type": "uint256"
        }
      ],
      "name": "distributeReward",
      "outputs": [],
      "stateMutability": "nonpayable",
      "type": "function"
    },
    {
      "inputs": [],
      "name": "missingDecimals",
      "outputs": [
        {
          "internalType": "uint256",
          "name": "",
          "type": "uint256"
        }
      ],
      "stateMutability": "view",
      "type": "function"
    },
    {
      "inputs": [],
      "name": "owner",
      "outputs": [
        {
          "internalType": "address",
          "name": "",
          "type": "address"
        }
      ],
      "stateMutability": "view",
      "type": "function"
    },
    {
      "inputs": [
        {
          "internalType": "address",
          "name": "_requester",
          "type": "address"
        }
      ],
      "name": "removeRequester",
      "outputs": [],
      "stateMutability": "nonpayable",
      "type": "function"
    },
    {
      "inputs": [],
      "name": "renounceOwnership",
      "outputs": [],
      "stateMutability": "nonpayable",
      "type": "function"
    },
    {
      "inputs": [
        {
          "internalType": "address",
          "name": "",
          "type": "address"
        }
      ],
      "name": "requesters",
      "outputs": [
        {
          "internalType": "bool",
          "name": "",
          "type": "bool"
        }
      ],
      "stateMutability": "view",
      "type": "function"
    },
    {
      "inputs": [],
      "name": "reward",
      "outputs": [
        {
          "internalType": "contract IRewardToken",
          "name": "",
          "type": "address"
        }
      ],
      "stateMutability": "view",
      "type": "function"
    },
    {
      "inputs": [
        {
          "internalType": "address",
          "name": "newOwner",
          "type": "address"
        }
      ],
      "name": "transferOwnership",
      "outputs": [],
      "stateMutability": "nonpayable",
      "type": "function"
    }
  ],
  "bytecode": "0x60806040523480156200001157600080fd5b50604051620014263803806200142683398181016040528101906200003791906200025e565b620000576200004b6200012860201b60201c565b6200013060201b60201c565b80600160006101000a81548173ffffffffffffffffffffffffffffffffffffffff021916908373ffffffffffffffffffffffffffffffffffffffff1602179055508073ffffffffffffffffffffffffffffffffffffffff1663313ce5676040518163ffffffff1660e01b8152600401602060405180830381865afa158015620000e4573d6000803e3d6000fd5b505050506040513d601f19601f820116820180604052508101906200010a9190620002ce565b60126200011891906200032f565b60ff16600281905550506200036a565b600033905090565b60008060009054906101000a900473ffffffffffffffffffffffffffffffffffffffff169050816000806101000a81548173ffffffffffffffffffffffffffffffffffffffff021916908373ffffffffffffffffffffffffffffffffffffffff1602179055508173ffffffffffffffffffffffffffffffffffffffff168173ffffffffffffffffffffffffffffffffffffffff167f8be0079c531659141344cd1fd0a4f28419497f9722a3daafe3b4186f6b6457e060405160405180910390a35050565b600080fd5b600073ffffffffffffffffffffffffffffffffffffffff82169050919050565b60006200022682620001f9565b9050919050565b620002388162000219565b81146200024457600080fd5b50565b60008151905062000258816200022d565b92915050565b600060208284031215620002775762000276620001f4565b5b6000620002878482850162000247565b91505092915050565b600060ff82169050919050565b620002a88162000290565b8114620002b457600080fd5b50565b600081519050620002c8816200029d565b92915050565b600060208284031215620002e757620002e6620001f4565b5b6000620002f784828501620002b7565b91505092915050565b7f4e487b7100000000000000000000000000000000000000000000000000000000600052601160045260246000fd5b60006200033c8262000290565b9150620003498362000290565b9250828210156200035f576200035e62000300565b5b828203905092915050565b6110ac806200037a6000396000f3fe608060405234801561001057600080fd5b50600436106100935760003560e01c8063715018a611610066578063715018a61461010c5780638da5cb5b14610116578063d6f8307f14610134578063e4d609cc14610164578063f2fde38b1461018057610093565b80631107e77c146100985780631ec8bb8c146100b4578063228cb733146100d0578063412831c4146100ee575b600080fd5b6100b260048036038101906100ad91906109da565b61019c565b005b6100ce60048036038101906100c99190610a3d565b610339565b005b6100d86104f9565b6040516100e59190610adc565b60405180910390f35b6100f661051f565b6040516101039190610b06565b60405180910390f35b610114610525565b005b61011e6105ad565b60405161012b9190610b30565b60405180910390f35b61014e600480360381019061014991906109da565b6105d6565b60405161015b9190610b66565b60405180910390f35b61017e600480360381019061017991906109da565b6105f6565b005b61019a600480360381019061019591906109da565b61079d565b005b6101a4610895565b73ffffffffffffffffffffffffffffffffffffffff166101c26105ad565b73ffffffffffffffffffffffffffffffffffffffff1614610218576040517f08c379a000000000000000000000000000000000000000000000000000000000815260040161020f90610bde565b60405180910390fd5b600360008273ffffffffffffffffffffffffffffffffffffffff1673ffffffffffffffffffffffffffffffffffffffff16815260200190815260200160002060009054906101000a900460ff166102a4576040517f08c379a000000000000000000000000000000000000000000000000000000000815260040161029b90610c4a565b60405180910390fd5b600360008273ffffffffffffffffffffffffffffffffffffffff1673ffffffffffffffffffffffffffffffffffffffff16815260200190815260200160002060006101000a81549060ff02191690558073ffffffffffffffffffffffffffffffffffffffff167ffac6f04e18535b820487cce1312e5a45366b7326f7e956a9c48d70fecdde876160405160405180910390a250565b60036000610345610895565b73ffffffffffffffffffffffffffffffffffffffff1673ffffffffffffffffffffffffffffffffffffffff16815260200190815260200160002060009054906101000a900460ff166103cc576040517f08c379a00000000000000000000000000000000000000000000000000000000081526004016103c390610cb6565b60405180910390fd5b600073ffffffffffffffffffffffffffffffffffffffff168273ffffffffffffffffffffffffffffffffffffffff16141561043c576040517f08c379a000000000000000000000000000000000000000000000000000000000815260040161043390610d22565b60405180910390fd5b60008111156104f557600160009054906101000a900473ffffffffffffffffffffffffffffffffffffffff1673ffffffffffffffffffffffffffffffffffffffff166340c10f19836104a5600254600a6104969190610ea4565b8561089d90919063ffffffff16565b6040518363ffffffff1660e01b81526004016104c2929190610eef565b600060405180830381600087803b1580156104dc57600080fd5b505af11580156104f0573d6000803e3d6000fd5b505050505b5050565b600160009054906101000a900473ffffffffffffffffffffffffffffffffffffffff1681565b60025481565b61052d610895565b73ffffffffffffffffffffffffffffffffffffffff1661054b6105ad565b73ffffffffffffffffffffffffffffffffffffffff16146105a1576040517f08c379a000000000000000000000000000000000000000000000000000000000815260040161059890610bde565b60405180910390fd5b6105ab60006108b3565b565b60008060009054906101000a900473ffffffffffffffffffffffffffffffffffffffff16905090565b60036020528060005260406000206000915054906101000a900460ff1681565b6105fe610895565b73ffffffffffffffffffffffffffffffffffffffff1661061c6105ad565b73ffffffffffffffffffffffffffffffffffffffff1614610672576040517f08c379a000000000000000000000000000000000000000000000000000000000815260040161066990610bde565b60405180910390fd5b600360008273ffffffffffffffffffffffffffffffffffffffff1673ffffffffffffffffffffffffffffffffffffffff16815260200190815260200160002060009054906101000a900460ff16156106ff576040517f08c379a00000000000000000000000000000000000000000000000000000000081526004016106f690610f64565b60405180910390fd5b6001600360008373ffffffffffffffffffffffffffffffffffffffff1673ffffffffffffffffffffffffffffffffffffffff16815260200190815260200160002060006101000a81548160ff0219169083151502179055508073ffffffffffffffffffffffffffffffffffffffff167f1616bf4c0898e95cbe6407827ef9ba6f5887a571df69e07eeda76b2b2a4f7daf60405160405180910390a250565b6107a5610895565b73ffffffffffffffffffffffffffffffffffffffff166107c36105ad565b73ffffffffffffffffffffffffffffffffffffffff1614610819576040517f08c379a000000000000000000000000000000000000000000000000000000000815260040161081090610bde565b60405180910390fd5b600073ffffffffffffffffffffffffffffffffffffffff168173ffffffffffffffffffffffffffffffffffffffff161415610889576040517f08c379a000000000000000000000000000000000000000000000000000000000815260040161088090610ff6565b60405180910390fd5b610892816108b3565b50565b600033905090565b600081836108ab9190611045565b905092915050565b60008060009054906101000a900473ffffffffffffffffffffffffffffffffffffffff169050816000806101000a81548173ffffffffffffffffffffffffffffffffffffffff021916908373ffffffffffffffffffffffffffffffffffffffff1602179055508173ffffffffffffffffffffffffffffffffffffffff168173ffffffffffffffffffffffffffffffffffffffff167f8be0079c531659141344cd1fd0a4f28419497f9722a3daafe3b4186f6b6457e060405160405180910390a35050565b600080fd5b600073ffffffffffffffffffffffffffffffffffffffff82169050919050565b60006109a78261097c565b9050919050565b6109b78161099c565b81146109c257600080fd5b50565b6000813590506109d4816109ae565b92915050565b6000602082840312156109f0576109ef610977565b5b60006109fe848285016109c5565b91505092915050565b6000819050919050565b610a1a81610a07565b8114610a2557600080fd5b50565b600081359050610a3781610a11565b92915050565b60008060408385031215610a5457610a53610977565b5b6000610a62858286016109c5565b9250506020610a7385828601610a28565b9150509250929050565b6000819050919050565b6000610aa2610a9d610a988461097c565b610a7d565b61097c565b9050919050565b6000610ab482610a87565b9050919050565b6000610ac682610aa9565b9050919050565b610ad681610abb565b82525050565b6000602082019050610af16000830184610acd565b92915050565b610b0081610a07565b82525050565b6000602082019050610b1b6000830184610af7565b92915050565b610b2a8161099c565b82525050565b6000602082019050610b456000830184610b21565b92915050565b60008115159050919050565b610b6081610b4b565b82525050565b6000602082019050610b7b6000830184610b57565b92915050565b600082825260208201905092915050565b7f4f776e61626c653a2063616c6c6572206973206e6f7420746865206f776e6572600082015250565b6000610bc8602083610b81565b9150610bd382610b92565b602082019050919050565b60006020820190508181036000830152610bf781610bbb565b9050919050565b7f726571756573746572206e6f7420666f756e6400000000000000000000000000600082015250565b6000610c34601383610b81565b9150610c3f82610bfe565b602082019050919050565b60006020820190508181036000830152610c6381610c27565b9050919050565b7f4f6e6c7920706f6f6c2063616e2072657175657374207472616e736665720000600082015250565b6000610ca0601e83610b81565b9150610cab82610c6a565b602082019050919050565b60006020820190508181036000830152610ccf81610c93565b9050919050565b7f496e76616c696420616464726573730000000000000000000000000000000000600082015250565b6000610d0c600f83610b81565b9150610d1782610cd6565b602082019050919050565b60006020820190508181036000830152610d3b81610cff565b9050919050565b7f4e487b7100000000000000000000000000000000000000000000000000000000600052601160045260246000fd5b60008160011c9050919050565b6000808291508390505b6001851115610dc857808604811115610da457610da3610d42565b5b6001851615610db35780820291505b8081029050610dc185610d71565b9450610d88565b94509492505050565b600082610de15760019050610e9d565b81610def5760009050610e9d565b8160018114610e055760028114610e0f57610e3e565b6001915050610e9d565b60ff841115610e2157610e20610d42565b5b8360020a915084821115610e3857610e37610d42565b5b50610e9d565b5060208310610133831016604e8410600b8410161715610e735782820a905083811115610e6e57610e6d610d42565b5b610e9d565b610e808484846001610d7e565b92509050818404811115610e9757610e96610d42565b5b81810290505b9392505050565b6000610eaf82610a07565b9150610eba83610a07565b9250610ee77fffffffffffffffffffffffffffffffffffffffffffffffffffffffffffffffff8484610dd1565b905092915050565b6000604082019050610f046000830185610b21565b610f116020830184610af7565b9392505050565b7f7265717565737465722065786973746564000000000000000000000000000000600082015250565b6000610f4e601183610b81565b9150610f5982610f18565b602082019050919050565b60006020820190508181036000830152610f7d81610f41565b9050919050565b7f4f776e61626c653a206e6577206f776e657220697320746865207a65726f206160008201527f6464726573730000000000000000000000000000000000000000000000000000602082015250565b6000610fe0602683610b81565b9150610feb82610f84565b604082019050919050565b6000602082019050818103600083015261100f81610fd3565b9050919050565b7f4e487b7100000000000000000000000000000000000000000000000000000000600052601260045260246000fd5b600061105082610a07565b915061105b83610a07565b92508261106b5761106a611016565b5b82820490509291505056fea2646970667358221220d7de5112d9d76cffb3f31558fb5590321a220b4144bbbfe74a2d291ca3fe3ba664736f6c634300080a0033",
  "linkReferences": {},
  "deployedLinkReferences": {}
}