{
  "_format": "hh-sol-artifact-1",
  "contractName": "FundDistributor",
  "sourceName": "contracts/FundDistributor.sol",
  "abi": [
    {
      "inputs": [
        {
          "internalType": "address",
          "name": "_reward",
          "type": "address"
        }
      ],
      "stateMutability": "nonpayable",
      "type": "constructor"
    },
    {
      "anonymous": false,
      "inputs": [
        {
          "indexed": true,
          "internalType": "uint256",
          "name": "amount",
          "type": "uint256"
        }
      ],
      "name": "FundRequested",
      "type": "event"
    },
    {
      "anonymous": false,
      "inputs": [
        {
          "indexed": true,
          "internalType": "address",
          "name": "previousOwner",
          "type": "address"
        },
        {
          "indexed": true,
          "internalType": "address",
          "name": "newOwner",
          "type": "address"
        }
      ],
      "name": "OwnershipTransferred",
      "type": "event"
    },
    {
      "anonymous": false,
      "inputs": [
        {
          "indexed": true,
          "internalType": "address",
          "name": "requester",
          "type": "address"
        }
      ],
      "name": "RequesterAdded",
      "type": "event"
    },
    {
      "anonymous": false,
      "inputs": [
        {
          "indexed": true,
          "internalType": "address",
          "name": "requester",
          "type": "address"
        }
      ],
      "name": "RequesterRemoved",
      "type": "event"
    },
    {
      "inputs": [
        {
          "internalType": "address",
          "name": "_requester",
          "type": "address"
        }
      ],
      "name": "addRequester",
      "outputs": [],
      "stateMutability": "nonpayable",
      "type": "function"
    },
    {
      "inputs": [
        {
          "internalType": "address",
          "name": "_receiver",
          "type": "address"
        },
        {
          "internalType": "uint256",
          "name": "_amount",
          "type": "uint256"
        }
      ],
      "name": "distributeReward",
      "outputs": [],
      "stateMutability": "nonpayable",
      "type": "function"
    },
    {
      "inputs": [],
      "name": "missingDecimals",
      "outputs": [
        {
          "internalType": "uint256",
          "name": "",
          "type": "uint256"
        }
      ],
      "stateMutability": "view",
      "type": "function"
    },
    {
      "inputs": [],
      "name": "owner",
      "outputs": [
        {
          "internalType": "address",
          "name": "",
          "type": "address"
        }
      ],
      "stateMutability": "view",
      "type": "function"
    },
    {
      "inputs": [
        {
          "internalType": "address",
          "name": "_requester",
          "type": "address"
        }
      ],
      "name": "removeRequester",
      "outputs": [],
      "stateMutability": "nonpayable",
      "type": "function"
    },
    {
      "inputs": [],
      "name": "renounceOwnership",
      "outputs": [],
      "stateMutability": "nonpayable",
      "type": "function"
    },
    {
      "inputs": [
        {
          "internalType": "address",
          "name": "",
          "type": "address"
        }
      ],
      "name": "requesters",
      "outputs": [
        {
          "internalType": "bool",
          "name": "",
          "type": "bool"
        }
      ],
      "stateMutability": "view",
      "type": "function"
    },
    {
      "inputs": [],
      "name": "rewardToken",
      "outputs": [
        {
          "internalType": "contract IRewardToken",
          "name": "",
          "type": "address"
        }
      ],
      "stateMutability": "view",
      "type": "function"
    },
    {
      "inputs": [
        {
          "internalType": "address",
          "name": "newOwner",
          "type": "address"
        }
      ],
      "name": "transferOwnership",
      "outputs": [],
      "stateMutability": "nonpayable",
      "type": "function"
    }
  ],
  "bytecode": "0x60806040523480156200001157600080fd5b50604051620015e2380380620015e283398181016040528101906200003791906200025e565b620000576200004b6200012860201b60201c565b6200013060201b60201c565b80600160006101000a81548173ffffffffffffffffffffffffffffffffffffffff021916908373ffffffffffffffffffffffffffffffffffffffff1602179055508073ffffffffffffffffffffffffffffffffffffffff1663313ce5676040518163ffffffff1660e01b8152600401602060405180830381865afa158015620000e4573d6000803e3d6000fd5b505050506040513d601f19601f820116820180604052508101906200010a9190620002ce565b60126200011891906200032f565b60ff16600281905550506200036a565b600033905090565b60008060009054906101000a900473ffffffffffffffffffffffffffffffffffffffff169050816000806101000a81548173ffffffffffffffffffffffffffffffffffffffff021916908373ffffffffffffffffffffffffffffffffffffffff1602179055508173ffffffffffffffffffffffffffffffffffffffff168173ffffffffffffffffffffffffffffffffffffffff167f8be0079c531659141344cd1fd0a4f28419497f9722a3daafe3b4186f6b6457e060405160405180910390a35050565b600080fd5b600073ffffffffffffffffffffffffffffffffffffffff82169050919050565b60006200022682620001f9565b9050919050565b620002388162000219565b81146200024457600080fd5b50565b60008151905062000258816200022d565b92915050565b600060208284031215620002775762000276620001f4565b5b6000620002878482850162000247565b91505092915050565b600060ff82169050919050565b620002a88162000290565b8114620002b457600080fd5b50565b600081519050620002c8816200029d565b92915050565b600060208284031215620002e757620002e6620001f4565b5b6000620002f784828501620002b7565b91505092915050565b7f4e487b7100000000000000000000000000000000000000000000000000000000600052601160045260246000fd5b60006200033c8262000290565b9150620003498362000290565b9250828210156200035f576200035e62000300565b5b828203905092915050565b611268806200037a6000396000f3fe608060405234801561001057600080fd5b50600436106100935760003560e01c80638da5cb5b116100665780638da5cb5b146100f8578063d6f8307f14610116578063e4d609cc14610146578063f2fde38b14610162578063f7c618c11461017e57610093565b80631107e77c146100985780631ec8bb8c146100b4578063412831c4146100d0578063715018a6146100ee575b600080fd5b6100b260048036038101906100ad9190610ade565b61019c565b005b6100ce60048036038101906100c99190610b41565b610339565b005b6100d8610538565b6040516100e59190610b90565b60405180910390f35b6100f661053e565b005b6101006105c6565b60405161010d9190610bba565b60405180910390f35b610130600480360381019061012b9190610ade565b6105ef565b60405161013d9190610bf0565b60405180910390f35b610160600480360381019061015b9190610ade565b61060f565b005b61017c60048036038101906101779190610ade565b6107b6565b005b6101866108ae565b6040516101939190610c6a565b60405180910390f35b6101a46108d4565b73ffffffffffffffffffffffffffffffffffffffff166101c26105c6565b73ffffffffffffffffffffffffffffffffffffffff1614610218576040517f08c379a000000000000000000000000000000000000000000000000000000000815260040161020f90610ce2565b60405180910390fd5b600360008273ffffffffffffffffffffffffffffffffffffffff1673ffffffffffffffffffffffffffffffffffffffff16815260200190815260200160002060009054906101000a900460ff166102a4576040517f08c379a000000000000000000000000000000000000000000000000000000000815260040161029b90610d4e565b60405180910390fd5b600360008273ffffffffffffffffffffffffffffffffffffffff1673ffffffffffffffffffffffffffffffffffffffff16815260200190815260200160002060006101000a81549060ff02191690558073ffffffffffffffffffffffffffffffffffffffff167ffac6f04e18535b820487cce1312e5a45366b7326f7e956a9c48d70fecdde876160405160405180910390a250565b600360006103456108d4565b73ffffffffffffffffffffffffffffffffffffffff1673ffffffffffffffffffffffffffffffffffffffff16815260200190815260200160002060009054906101000a900460ff166103cc576040517f08c379a00000000000000000000000000000000000000000000000000000000081526004016103c390610dba565b60405180910390fd5b61040b6040518060400160405280601381526020017f46756e64206469737472696275746f72203d2000000000000000000000000000815250336108dc565b600073ffffffffffffffffffffffffffffffffffffffff168273ffffffffffffffffffffffffffffffffffffffff16141561047b576040517f08c379a000000000000000000000000000000000000000000000000000000000815260040161047290610e26565b60405180910390fd5b600081111561053457600160009054906101000a900473ffffffffffffffffffffffffffffffffffffffff1673ffffffffffffffffffffffffffffffffffffffff166340c10f19836104e4600254600a6104d59190610fa8565b8561097890919063ffffffff16565b6040518363ffffffff1660e01b8152600401610501929190610ff3565b600060405180830381600087803b15801561051b57600080fd5b505af115801561052f573d6000803e3d6000fd5b505050505b5050565b60025481565b6105466108d4565b73ffffffffffffffffffffffffffffffffffffffff166105646105c6565b73ffffffffffffffffffffffffffffffffffffffff16146105ba576040517f08c379a00000000000000000000000000000000000000000000000000000000081526004016105b190610ce2565b60405180910390fd5b6105c4600061098e565b565b60008060009054906101000a900473ffffffffffffffffffffffffffffffffffffffff16905090565b60036020528060005260406000206000915054906101000a900460ff1681565b6106176108d4565b73ffffffffffffffffffffffffffffffffffffffff166106356105c6565b73ffffffffffffffffffffffffffffffffffffffff161461068b576040517f08c379a000000000000000000000000000000000000000000000000000000000815260040161068290610ce2565b60405180910390fd5b600360008273ffffffffffffffffffffffffffffffffffffffff1673ffffffffffffffffffffffffffffffffffffffff16815260200190815260200160002060009054906101000a900460ff1615610718576040517f08c379a000000000000000000000000000000000000000000000000000000000815260040161070f90611068565b60405180910390fd5b6001600360008373ffffffffffffffffffffffffffffffffffffffff1673ffffffffffffffffffffffffffffffffffffffff16815260200190815260200160002060006101000a81548160ff0219169083151502179055508073ffffffffffffffffffffffffffffffffffffffff167f1616bf4c0898e95cbe6407827ef9ba6f5887a571df69e07eeda76b2b2a4f7daf60405160405180910390a250565b6107be6108d4565b73ffffffffffffffffffffffffffffffffffffffff166107dc6105c6565b73ffffffffffffffffffffffffffffffffffffffff1614610832576040517f08c379a000000000000000000000000000000000000000000000000000000000815260040161082990610ce2565b60405180910390fd5b600073ffffffffffffffffffffffffffffffffffffffff168173ffffffffffffffffffffffffffffffffffffffff1614156108a2576040517f08c379a0000000000000000000000000000000000000000000000000000000008152600401610899906110fa565b60405180910390fd5b6108ab8161098e565b50565b600160009054906101000a900473ffffffffffffffffffffffffffffffffffffffff1681565b600033905090565b61097482826040516024016108f29291906111a2565b6040516020818303038152906040527f319af333000000000000000000000000000000000000000000000000000000007bffffffffffffffffffffffffffffffffffffffffffffffffffffffff19166020820180517bffffffffffffffffffffffffffffffffffffffffffffffffffffffff8381831617835250505050610a52565b5050565b600081836109869190611201565b905092915050565b60008060009054906101000a900473ffffffffffffffffffffffffffffffffffffffff169050816000806101000a81548173ffffffffffffffffffffffffffffffffffffffff021916908373ffffffffffffffffffffffffffffffffffffffff1602179055508173ffffffffffffffffffffffffffffffffffffffff168173ffffffffffffffffffffffffffffffffffffffff167f8be0079c531659141344cd1fd0a4f28419497f9722a3daafe3b4186f6b6457e060405160405180910390a35050565b60008151905060006a636f6e736f6c652e6c6f679050602083016000808483855afa5050505050565b600080fd5b600073ffffffffffffffffffffffffffffffffffffffff82169050919050565b6000610aab82610a80565b9050919050565b610abb81610aa0565b8114610ac657600080fd5b50565b600081359050610ad881610ab2565b92915050565b600060208284031215610af457610af3610a7b565b5b6000610b0284828501610ac9565b91505092915050565b6000819050919050565b610b1e81610b0b565b8114610b2957600080fd5b50565b600081359050610b3b81610b15565b92915050565b60008060408385031215610b5857610b57610a7b565b5b6000610b6685828601610ac9565b9250506020610b7785828601610b2c565b9150509250929050565b610b8a81610b0b565b82525050565b6000602082019050610ba56000830184610b81565b92915050565b610bb481610aa0565b82525050565b6000602082019050610bcf6000830184610bab565b92915050565b60008115159050919050565b610bea81610bd5565b82525050565b6000602082019050610c056000830184610be1565b92915050565b6000819050919050565b6000610c30610c2b610c2684610a80565b610c0b565b610a80565b9050919050565b6000610c4282610c15565b9050919050565b6000610c5482610c37565b9050919050565b610c6481610c49565b82525050565b6000602082019050610c7f6000830184610c5b565b92915050565b600082825260208201905092915050565b7f4f776e61626c653a2063616c6c6572206973206e6f7420746865206f776e6572600082015250565b6000610ccc602083610c85565b9150610cd782610c96565b602082019050919050565b60006020820190508181036000830152610cfb81610cbf565b9050919050565b7f726571756573746572206e6f7420666f756e6400000000000000000000000000600082015250565b6000610d38601383610c85565b9150610d4382610d02565b602082019050919050565b60006020820190508181036000830152610d6781610d2b565b9050919050565b7f4f6e6c7920706f6f6c2063616e2072657175657374207472616e736665720000600082015250565b6000610da4601e83610c85565b9150610daf82610d6e565b602082019050919050565b60006020820190508181036000830152610dd381610d97565b9050919050565b7f496e76616c696420616464726573730000000000000000000000000000000000600082015250565b6000610e10600f83610c85565b9150610e1b82610dda565b602082019050919050565b60006020820190508181036000830152610e3f81610e03565b9050919050565b7f4e487b7100000000000000000000000000000000000000000000000000000000600052601160045260246000fd5b60008160011c9050919050565b6000808291508390505b6001851115610ecc57808604811115610ea857610ea7610e46565b5b6001851615610eb75780820291505b8081029050610ec585610e75565b9450610e8c565b94509492505050565b600082610ee55760019050610fa1565b81610ef35760009050610fa1565b8160018114610f095760028114610f1357610f42565b6001915050610fa1565b60ff841115610f2557610f24610e46565b5b8360020a915084821115610f3c57610f3b610e46565b5b50610fa1565b5060208310610133831016604e8410600b8410161715610f775782820a905083811115610f7257610f71610e46565b5b610fa1565b610f848484846001610e82565b92509050818404811115610f9b57610f9a610e46565b5b81810290505b9392505050565b6000610fb382610b0b565b9150610fbe83610b0b565b9250610feb7fffffffffffffffffffffffffffffffffffffffffffffffffffffffffffffffff8484610ed5565b905092915050565b60006040820190506110086000830185610bab565b6110156020830184610b81565b9392505050565b7f7265717565737465722065786973746564000000000000000000000000000000600082015250565b6000611052601183610c85565b915061105d8261101c565b602082019050919050565b6000602082019050818103600083015261108181611045565b9050919050565b7f4f776e61626c653a206e6577206f776e657220697320746865207a65726f206160008201527f6464726573730000000000000000000000000000000000000000000000000000602082015250565b60006110e4602683610c85565b91506110ef82611088565b604082019050919050565b60006020820190508181036000830152611113816110d7565b9050919050565b600081519050919050565b60005b83811015611143578082015181840152602081019050611128565b83811115611152576000848401525b50505050565b6000601f19601f8301169050919050565b60006111748261111a565b61117e8185610c85565b935061118e818560208601611125565b61119781611158565b840191505092915050565b600060408201905081810360008301526111bc8185611169565b90506111cb6020830184610bab565b9392505050565b7f4e487b7100000000000000000000000000000000000000000000000000000000600052601260045260246000fd5b600061120c82610b0b565b915061121783610b0b565b925082611227576112266111d2565b5b82820490509291505056fea2646970667358221220cac7ad9b98d36b09e37fa96c1a1e506a973a36b29c32a9f2ee9aa5fec4c49daf64736f6c634300080a0033",
  "linkReferences": {},
  "deployedLinkReferences": {}
}