{
  "_format": "hh-sol-artifact-1",
  "contractName": "FundDistributor",
  "sourceName": "contracts/FundDistributor.sol",
  "abi": [
    {
      "anonymous": false,
      "inputs": [
        {
          "indexed": true,
          "internalType": "uint256",
          "name": "amount",
          "type": "uint256"
        }
      ],
      "name": "FundRequested",
      "type": "event"
    },
    {
      "anonymous": false,
      "inputs": [
        {
          "indexed": true,
          "internalType": "address",
          "name": "previousOwner",
          "type": "address"
        },
        {
          "indexed": true,
          "internalType": "address",
          "name": "newOwner",
          "type": "address"
        }
      ],
      "name": "OwnershipTransferred",
      "type": "event"
    },
    {
      "anonymous": false,
      "inputs": [
        {
          "indexed": true,
          "internalType": "address",
          "name": "requester",
          "type": "address"
        }
      ],
      "name": "RequesterAdded",
      "type": "event"
    },
    {
      "anonymous": false,
      "inputs": [
        {
          "indexed": true,
          "internalType": "address",
          "name": "requester",
          "type": "address"
        }
      ],
      "name": "RequesterRemoved",
      "type": "event"
    },
    {
      "inputs": [
        {
          "internalType": "address",
          "name": "_requester",
          "type": "address"
        }
      ],
      "name": "addRequester",
      "outputs": [],
      "stateMutability": "nonpayable",
      "type": "function"
    },
    {
      "inputs": [
        {
          "internalType": "address",
          "name": "_receiver",
          "type": "address"
        },
        {
          "internalType": "uint256",
          "name": "_amount",
          "type": "uint256"
        }
      ],
      "name": "distributeReward",
      "outputs": [],
      "stateMutability": "nonpayable",
      "type": "function"
    },
    {
      "inputs": [
        {
          "internalType": "address",
          "name": "reward",
          "type": "address"
        }
      ],
      "name": "initialize",
      "outputs": [],
      "stateMutability": "nonpayable",
      "type": "function"
    },
    {
      "inputs": [],
      "name": "missingDecimals",
      "outputs": [
        {
          "internalType": "uint256",
          "name": "",
          "type": "uint256"
        }
      ],
      "stateMutability": "view",
      "type": "function"
    },
    {
      "inputs": [],
      "name": "owner",
      "outputs": [
        {
          "internalType": "address",
          "name": "",
          "type": "address"
        }
      ],
      "stateMutability": "view",
      "type": "function"
    },
    {
      "inputs": [
        {
          "internalType": "address",
          "name": "_requester",
          "type": "address"
        }
      ],
      "name": "removeRequester",
      "outputs": [],
      "stateMutability": "nonpayable",
      "type": "function"
    },
    {
      "inputs": [],
      "name": "renounceOwnership",
      "outputs": [],
      "stateMutability": "nonpayable",
      "type": "function"
    },
    {
      "inputs": [
        {
          "internalType": "address",
          "name": "",
          "type": "address"
        }
      ],
      "name": "requesters",
      "outputs": [
        {
          "internalType": "bool",
          "name": "",
          "type": "bool"
        }
      ],
      "stateMutability": "view",
      "type": "function"
    },
    {
      "inputs": [],
      "name": "rewardToken",
      "outputs": [
        {
          "internalType": "contract IRewardToken",
          "name": "",
          "type": "address"
        }
      ],
      "stateMutability": "view",
      "type": "function"
    },
    {
      "inputs": [
        {
          "internalType": "address",
          "name": "newOwner",
          "type": "address"
        }
      ],
      "name": "transferOwnership",
      "outputs": [],
      "stateMutability": "nonpayable",
      "type": "function"
    }
  ],
  "bytecode": "0x608060405234801561001057600080fd5b50610adf806100206000396000f3fe608060405234801561001057600080fd5b506004361061009e5760003560e01c8063c4d66de811610066578063c4d66de814610114578063d6f8307f14610127578063e4d609cc1461015a578063f2fde38b1461016d578063f7c618c11461018057600080fd5b80631107e77c146100a35780631ec8bb8c146100b8578063412831c4146100cb578063715018a6146100e75780638da5cb5b146100ef575b600080fd5b6100b66100b136600461093a565b610193565b005b6100b66100c6366004610955565b61026d565b6100d460665481565b6040519081526020015b60405180910390f35b6100b6610335565b6033546001600160a01b03165b6040516001600160a01b0390911681526020016100de565b6100b661012236600461093a565b61036b565b61014a61013536600461093a565b60676020526000908152604090205460ff1681565b60405190151581526020016100de565b6100b661016836600461093a565b6104b2565b6100b661017b36600461093a565b610585565b6065546100fc906001600160a01b031681565b6033546001600160a01b031633146101c65760405162461bcd60e51b81526004016101bd9061097f565b60405180910390fd5b6001600160a01b03811660009081526067602052604090205460ff166102245760405162461bcd60e51b81526020600482015260136024820152721c995c5d595cdd195c881b9bdd08199bdd5b99606a1b60448201526064016101bd565b6001600160a01b038116600081815260676020526040808220805460ff19169055517ffac6f04e18535b820487cce1312e5a45366b7326f7e956a9c48d70fecdde87619190a250565b3360009081526067602052604090205460ff166102cc5760405162461bcd60e51b815260206004820152601e60248201527f4f6e6c7920706f6f6c2063616e2072657175657374207472616e73666572000060448201526064016101bd565b6001600160a01b0382166103145760405162461bcd60e51b815260206004820152600f60248201526e496e76616c6964206164647265737360881b60448201526064016101bd565b801561033157606554610331906001600160a01b03168383610620565b5050565b6033546001600160a01b0316331461035f5760405162461bcd60e51b81526004016101bd9061097f565b6103696000610677565b565b600054610100900460ff166103865760005460ff161561038a565b303b155b6103ed5760405162461bcd60e51b815260206004820152602e60248201527f496e697469616c697a61626c653a20636f6e747261637420697320616c72656160448201526d191e481a5b9a5d1a585b1a5e995960921b60648201526084016101bd565b600054610100900460ff1615801561040f576000805461ffff19166101011790555b606580546001600160a01b0319166001600160a01b0384169081179091556040805163313ce56760e01b8152905163313ce567916004808201926020929091908290030181865afa158015610468573d6000803e3d6000fd5b505050506040513d601f19601f8201168201806040525081019061048c91906109b4565b6104979060126109d7565b60ff166066558015610331576000805461ff00191690555050565b6033546001600160a01b031633146104dc5760405162461bcd60e51b81526004016101bd9061097f565b6001600160a01b03811660009081526067602052604090205460ff16156105395760405162461bcd60e51b81526020600482015260116024820152701c995c5d595cdd195c88195e1a5cdd1959607a1b60448201526064016101bd565b6001600160a01b038116600081815260676020526040808220805460ff19166001179055517f1616bf4c0898e95cbe6407827ef9ba6f5887a571df69e07eeda76b2b2a4f7daf9190a250565b6033546001600160a01b031633146105af5760405162461bcd60e51b81526004016101bd9061097f565b6001600160a01b0381166106145760405162461bcd60e51b815260206004820152602660248201527f4f776e61626c653a206e6577206f776e657220697320746865207a65726f206160448201526564647265737360d01b60648201526084016101bd565b61061d81610677565b50565b604080516001600160a01b038416602482015260448082018490528251808303909101815260649091019091526020810180516001600160e01b031663a9059cbb60e01b1790526106729084906106c9565b505050565b603380546001600160a01b038381166001600160a01b0319831681179093556040519116919082907f8be0079c531659141344cd1fd0a4f28419497f9722a3daafe3b4186f6b6457e090600090a35050565b600061071e826040518060400160405280602081526020017f5361666545524332303a206c6f772d6c6576656c2063616c6c206661696c6564815250856001600160a01b031661079b9092919063ffffffff16565b805190915015610672578080602001905181019061073c9190610a08565b6106725760405162461bcd60e51b815260206004820152602a60248201527f5361666545524332303a204552433230206f7065726174696f6e20646964206e6044820152691bdd081cdd58d8d9595960b21b60648201526084016101bd565b60606107aa84846000856107b4565b90505b9392505050565b6060824710156108155760405162461bcd60e51b815260206004820152602660248201527f416464726573733a20696e73756666696369656e742062616c616e636520666f6044820152651c8818d85b1b60d21b60648201526084016101bd565b6001600160a01b0385163b61086c5760405162461bcd60e51b815260206004820152601d60248201527f416464726573733a2063616c6c20746f206e6f6e2d636f6e747261637400000060448201526064016101bd565b600080866001600160a01b031685876040516108889190610a5a565b60006040518083038185875af1925050503d80600081146108c5576040519150601f19603f3d011682016040523d82523d6000602084013e6108ca565b606091505b50915091506108da8282866108e5565b979650505050505050565b606083156108f45750816107ad565b8251156109045782518084602001fd5b8160405162461bcd60e51b81526004016101bd9190610a76565b80356001600160a01b038116811461093557600080fd5b919050565b60006020828403121561094c57600080fd5b6107ad8261091e565b6000806040838503121561096857600080fd5b6109718361091e565b946020939093013593505050565b6020808252818101527f4f776e61626c653a2063616c6c6572206973206e6f7420746865206f776e6572604082015260600190565b6000602082840312156109c657600080fd5b815160ff811681146107ad57600080fd5b600060ff821660ff8416808210156109ff57634e487b7160e01b600052601160045260246000fd5b90039392505050565b600060208284031215610a1a57600080fd5b815180151581146107ad57600080fd5b60005b83811015610a45578181015183820152602001610a2d565b83811115610a54576000848401525b50505050565b60008251610a6c818460208701610a2a565b9190910192915050565b6020815260008251806020840152610a95816040850160208701610a2a565b601f01601f1916919091016040019291505056fea2646970667358221220e75a25380d9ab6f8dc1c5fcd7949f8376eadc19ef02388de03d4c22762c31bdb64736f6c634300080a0033",
  "linkReferences": {},
  "deployedLinkReferences": {}
}