{
  "_format": "hh-sol-artifact-1",
  "contractName": "FundDistributor",
  "sourceName": "contracts/FundDistributor.sol",
  "abi": [
    {
      "inputs": [
        {
          "internalType": "address",
          "name": "_reward",
          "type": "address"
        }
      ],
      "stateMutability": "nonpayable",
      "type": "constructor"
    },
    {
      "anonymous": false,
      "inputs": [
        {
          "indexed": true,
          "internalType": "uint256",
          "name": "amount",
          "type": "uint256"
        }
      ],
      "name": "FundRequested",
      "type": "event"
    },
    {
      "anonymous": false,
      "inputs": [
        {
          "indexed": true,
          "internalType": "address",
          "name": "previousOwner",
          "type": "address"
        },
        {
          "indexed": true,
          "internalType": "address",
          "name": "newOwner",
          "type": "address"
        }
      ],
      "name": "OwnershipTransferred",
      "type": "event"
    },
    {
      "anonymous": false,
      "inputs": [
        {
          "indexed": true,
          "internalType": "address",
          "name": "requester",
          "type": "address"
        }
      ],
      "name": "RequesterAdded",
      "type": "event"
    },
    {
      "anonymous": false,
      "inputs": [
        {
          "indexed": true,
          "internalType": "address",
          "name": "requester",
          "type": "address"
        }
      ],
      "name": "RequesterRemoved",
      "type": "event"
    },
    {
      "inputs": [
        {
          "internalType": "address",
          "name": "_requester",
          "type": "address"
        }
      ],
      "name": "addRequester",
      "outputs": [],
      "stateMutability": "nonpayable",
      "type": "function"
    },
    {
      "inputs": [
        {
          "internalType": "address",
          "name": "_receiver",
          "type": "address"
        },
        {
          "internalType": "uint256",
          "name": "_amount",
          "type": "uint256"
        }
      ],
      "name": "distributeReward",
      "outputs": [],
      "stateMutability": "nonpayable",
      "type": "function"
    },
    {
      "inputs": [],
      "name": "missingDecimals",
      "outputs": [
        {
          "internalType": "uint256",
          "name": "",
          "type": "uint256"
        }
      ],
      "stateMutability": "view",
      "type": "function"
    },
    {
      "inputs": [],
      "name": "owner",
      "outputs": [
        {
          "internalType": "address",
          "name": "",
          "type": "address"
        }
      ],
      "stateMutability": "view",
      "type": "function"
    },
    {
      "inputs": [
        {
          "internalType": "address",
          "name": "_requester",
          "type": "address"
        }
      ],
      "name": "removeRequester",
      "outputs": [],
      "stateMutability": "nonpayable",
      "type": "function"
    },
    {
      "inputs": [],
      "name": "renounceOwnership",
      "outputs": [],
      "stateMutability": "nonpayable",
      "type": "function"
    },
    {
      "inputs": [
        {
          "internalType": "address",
          "name": "",
          "type": "address"
        }
      ],
      "name": "requesters",
      "outputs": [
        {
          "internalType": "bool",
          "name": "",
          "type": "bool"
        }
      ],
      "stateMutability": "view",
      "type": "function"
    },
    {
      "inputs": [],
      "name": "rewardToken",
      "outputs": [
        {
          "internalType": "contract IRewardToken",
          "name": "",
          "type": "address"
        }
      ],
      "stateMutability": "view",
      "type": "function"
    },
    {
      "inputs": [
        {
          "internalType": "address",
          "name": "newOwner",
          "type": "address"
        }
      ],
      "name": "transferOwnership",
      "outputs": [],
      "stateMutability": "nonpayable",
      "type": "function"
    }
  ],
  "bytecode": "0x60806040523480156200001157600080fd5b506040516200177e3803806200177e83398181016040528101906200003791906200025e565b620000576200004b6200012860201b60201c565b6200013060201b60201c565b80600160006101000a81548173ffffffffffffffffffffffffffffffffffffffff021916908373ffffffffffffffffffffffffffffffffffffffff1602179055508073ffffffffffffffffffffffffffffffffffffffff1663313ce5676040518163ffffffff1660e01b8152600401602060405180830381865afa158015620000e4573d6000803e3d6000fd5b505050506040513d601f19601f820116820180604052508101906200010a9190620002ce565b60126200011891906200032f565b60ff16600281905550506200036a565b600033905090565b60008060009054906101000a900473ffffffffffffffffffffffffffffffffffffffff169050816000806101000a81548173ffffffffffffffffffffffffffffffffffffffff021916908373ffffffffffffffffffffffffffffffffffffffff1602179055508173ffffffffffffffffffffffffffffffffffffffff168173ffffffffffffffffffffffffffffffffffffffff167f8be0079c531659141344cd1fd0a4f28419497f9722a3daafe3b4186f6b6457e060405160405180910390a35050565b600080fd5b600073ffffffffffffffffffffffffffffffffffffffff82169050919050565b60006200022682620001f9565b9050919050565b620002388162000219565b81146200024457600080fd5b50565b60008151905062000258816200022d565b92915050565b600060208284031215620002775762000276620001f4565b5b6000620002878482850162000247565b91505092915050565b600060ff82169050919050565b620002a88162000290565b8114620002b457600080fd5b50565b600081519050620002c8816200029d565b92915050565b600060208284031215620002e757620002e6620001f4565b5b6000620002f784828501620002b7565b91505092915050565b7f4e487b7100000000000000000000000000000000000000000000000000000000600052601160045260246000fd5b60006200033c8262000290565b9150620003498362000290565b9250828210156200035f576200035e62000300565b5b828203905092915050565b611404806200037a6000396000f3fe608060405234801561001057600080fd5b50600436106100935760003560e01c80638da5cb5b116100665780638da5cb5b146100f8578063d6f8307f14610116578063e4d609cc14610146578063f2fde38b14610162578063f7c618c11461017e57610093565b80631107e77c146100985780631ec8bb8c146100b4578063412831c4146100d0578063715018a6146100ee575b600080fd5b6100b260048036038101906100ad9190610c4e565b61019c565b005b6100ce60048036038101906100c99190610cb1565b610339565b005b6100d8610490565b6040516100e59190610d00565b60405180910390f35b6100f6610496565b005b61010061051e565b60405161010d9190610d2a565b60405180910390f35b610130600480360381019061012b9190610c4e565b610547565b60405161013d9190610d60565b60405180910390f35b610160600480360381019061015b9190610c4e565b610567565b005b61017c60048036038101906101779190610c4e565b61070e565b005b610186610806565b6040516101939190610dda565b60405180910390f35b6101a461082c565b73ffffffffffffffffffffffffffffffffffffffff166101c261051e565b73ffffffffffffffffffffffffffffffffffffffff1614610218576040517f08c379a000000000000000000000000000000000000000000000000000000000815260040161020f90610e52565b60405180910390fd5b600360008273ffffffffffffffffffffffffffffffffffffffff1673ffffffffffffffffffffffffffffffffffffffff16815260200190815260200160002060009054906101000a900460ff166102a4576040517f08c379a000000000000000000000000000000000000000000000000000000000815260040161029b90610ebe565b60405180910390fd5b600360008273ffffffffffffffffffffffffffffffffffffffff1673ffffffffffffffffffffffffffffffffffffffff16815260200190815260200160002060006101000a81549060ff02191690558073ffffffffffffffffffffffffffffffffffffffff167ffac6f04e18535b820487cce1312e5a45366b7326f7e956a9c48d70fecdde876160405160405180910390a250565b600360003373ffffffffffffffffffffffffffffffffffffffff1673ffffffffffffffffffffffffffffffffffffffff16815260200190815260200160002060009054906101000a900460ff166103c5576040517f08c379a00000000000000000000000000000000000000000000000000000000081526004016103bc90610f2a565b60405180910390fd5b600073ffffffffffffffffffffffffffffffffffffffff168273ffffffffffffffffffffffffffffffffffffffff161415610435576040517f08c379a000000000000000000000000000000000000000000000000000000000815260040161042c90610f96565b60405180910390fd5b600081111561048c5761048b8282600160009054906101000a900473ffffffffffffffffffffffffffffffffffffffff1673ffffffffffffffffffffffffffffffffffffffff166108349092919063ffffffff16565b5b5050565b60025481565b61049e61082c565b73ffffffffffffffffffffffffffffffffffffffff166104bc61051e565b73ffffffffffffffffffffffffffffffffffffffff1614610512576040517f08c379a000000000000000000000000000000000000000000000000000000000815260040161050990610e52565b60405180910390fd5b61051c60006108ba565b565b60008060009054906101000a900473ffffffffffffffffffffffffffffffffffffffff16905090565b60036020528060005260406000206000915054906101000a900460ff1681565b61056f61082c565b73ffffffffffffffffffffffffffffffffffffffff1661058d61051e565b73ffffffffffffffffffffffffffffffffffffffff16146105e3576040517f08c379a00000000000000000000000000000000000000000000000000000000081526004016105da90610e52565b60405180910390fd5b600360008273ffffffffffffffffffffffffffffffffffffffff1673ffffffffffffffffffffffffffffffffffffffff16815260200190815260200160002060009054906101000a900460ff1615610670576040517f08c379a000000000000000000000000000000000000000000000000000000000815260040161066790611002565b60405180910390fd5b6001600360008373ffffffffffffffffffffffffffffffffffffffff1673ffffffffffffffffffffffffffffffffffffffff16815260200190815260200160002060006101000a81548160ff0219169083151502179055508073ffffffffffffffffffffffffffffffffffffffff167f1616bf4c0898e95cbe6407827ef9ba6f5887a571df69e07eeda76b2b2a4f7daf60405160405180910390a250565b61071661082c565b73ffffffffffffffffffffffffffffffffffffffff1661073461051e565b73ffffffffffffffffffffffffffffffffffffffff161461078a576040517f08c379a000000000000000000000000000000000000000000000000000000000815260040161078190610e52565b60405180910390fd5b600073ffffffffffffffffffffffffffffffffffffffff168173ffffffffffffffffffffffffffffffffffffffff1614156107fa576040517f08c379a00000000000000000000000000000000000000000000000000000000081526004016107f190611094565b60405180910390fd5b610803816108ba565b50565b600160009054906101000a900473ffffffffffffffffffffffffffffffffffffffff1681565b600033905090565b6108b58363a9059cbb60e01b84846040516024016108539291906110b4565b604051602081830303815290604052907bffffffffffffffffffffffffffffffffffffffffffffffffffffffff19166020820180517bffffffffffffffffffffffffffffffffffffffffffffffffffffffff838183161783525050505061097e565b505050565b60008060009054906101000a900473ffffffffffffffffffffffffffffffffffffffff169050816000806101000a81548173ffffffffffffffffffffffffffffffffffffffff021916908373ffffffffffffffffffffffffffffffffffffffff1602179055508173ffffffffffffffffffffffffffffffffffffffff168173ffffffffffffffffffffffffffffffffffffffff167f8be0079c531659141344cd1fd0a4f28419497f9722a3daafe3b4186f6b6457e060405160405180910390a35050565b60006109e0826040518060400160405280602081526020017f5361666545524332303a206c6f772d6c6576656c2063616c6c206661696c65648152508573ffffffffffffffffffffffffffffffffffffffff16610a459092919063ffffffff16565b9050600081511115610a405780806020019051810190610a009190611109565b610a3f576040517f08c379a0000000000000000000000000000000000000000000000000000000008152600401610a36906111a8565b60405180910390fd5b5b505050565b6060610a548484600085610a5d565b90509392505050565b606082471015610aa2576040517f08c379a0000000000000000000000000000000000000000000000000000000008152600401610a999061123a565b60405180910390fd5b610aab85610b71565b610aea576040517f08c379a0000000000000000000000000000000000000000000000000000000008152600401610ae1906112a6565b60405180910390fd5b6000808673ffffffffffffffffffffffffffffffffffffffff168587604051610b139190611340565b60006040518083038185875af1925050503d8060008114610b50576040519150601f19603f3d011682016040523d82523d6000602084013e610b55565b606091505b5091509150610b65828286610b84565b92505050949350505050565b600080823b905060008111915050919050565b60608315610b9457829050610be4565b600083511115610ba75782518084602001fd5b816040517f08c379a0000000000000000000000000000000000000000000000000000000008152600401610bdb91906113ac565b60405180910390fd5b9392505050565b600080fd5b600073ffffffffffffffffffffffffffffffffffffffff82169050919050565b6000610c1b82610bf0565b9050919050565b610c2b81610c10565b8114610c3657600080fd5b50565b600081359050610c4881610c22565b92915050565b600060208284031215610c6457610c63610beb565b5b6000610c7284828501610c39565b91505092915050565b6000819050919050565b610c8e81610c7b565b8114610c9957600080fd5b50565b600081359050610cab81610c85565b92915050565b60008060408385031215610cc857610cc7610beb565b5b6000610cd685828601610c39565b9250506020610ce785828601610c9c565b9150509250929050565b610cfa81610c7b565b82525050565b6000602082019050610d156000830184610cf1565b92915050565b610d2481610c10565b82525050565b6000602082019050610d3f6000830184610d1b565b92915050565b60008115159050919050565b610d5a81610d45565b82525050565b6000602082019050610d756000830184610d51565b92915050565b6000819050919050565b6000610da0610d9b610d9684610bf0565b610d7b565b610bf0565b9050919050565b6000610db282610d85565b9050919050565b6000610dc482610da7565b9050919050565b610dd481610db9565b82525050565b6000602082019050610def6000830184610dcb565b92915050565b600082825260208201905092915050565b7f4f776e61626c653a2063616c6c6572206973206e6f7420746865206f776e6572600082015250565b6000610e3c602083610df5565b9150610e4782610e06565b602082019050919050565b60006020820190508181036000830152610e6b81610e2f565b9050919050565b7f726571756573746572206e6f7420666f756e6400000000000000000000000000600082015250565b6000610ea8601383610df5565b9150610eb382610e72565b602082019050919050565b60006020820190508181036000830152610ed781610e9b565b9050919050565b7f4f6e6c7920706f6f6c2063616e2072657175657374207472616e736665720000600082015250565b6000610f14601e83610df5565b9150610f1f82610ede565b602082019050919050565b60006020820190508181036000830152610f4381610f07565b9050919050565b7f496e76616c696420616464726573730000000000000000000000000000000000600082015250565b6000610f80600f83610df5565b9150610f8b82610f4a565b602082019050919050565b60006020820190508181036000830152610faf81610f73565b9050919050565b7f7265717565737465722065786973746564000000000000000000000000000000600082015250565b6000610fec601183610df5565b9150610ff782610fb6565b602082019050919050565b6000602082019050818103600083015261101b81610fdf565b9050919050565b7f4f776e61626c653a206e6577206f776e657220697320746865207a65726f206160008201527f6464726573730000000000000000000000000000000000000000000000000000602082015250565b600061107e602683610df5565b915061108982611022565b604082019050919050565b600060208201905081810360008301526110ad81611071565b9050919050565b60006040820190506110c96000830185610d1b565b6110d66020830184610cf1565b9392505050565b6110e681610d45565b81146110f157600080fd5b50565b600081519050611103816110dd565b92915050565b60006020828403121561111f5761111e610beb565b5b600061112d848285016110f4565b91505092915050565b7f5361666545524332303a204552433230206f7065726174696f6e20646964206e60008201527f6f74207375636365656400000000000000000000000000000000000000000000602082015250565b6000611192602a83610df5565b915061119d82611136565b604082019050919050565b600060208201905081810360008301526111c181611185565b9050919050565b7f416464726573733a20696e73756666696369656e742062616c616e636520666f60008201527f722063616c6c0000000000000000000000000000000000000000000000000000602082015250565b6000611224602683610df5565b915061122f826111c8565b604082019050919050565b6000602082019050818103600083015261125381611217565b9050919050565b7f416464726573733a2063616c6c20746f206e6f6e2d636f6e7472616374000000600082015250565b6000611290601d83610df5565b915061129b8261125a565b602082019050919050565b600060208201905081810360008301526112bf81611283565b9050919050565b600081519050919050565b600081905092915050565b60005b838110156112fa5780820151818401526020810190506112df565b83811115611309576000848401525b50505050565b600061131a826112c6565b61132481856112d1565b93506113348185602086016112dc565b80840191505092915050565b600061134c828461130f565b915081905092915050565b600081519050919050565b6000601f19601f8301169050919050565b600061137e82611357565b6113888185610df5565b93506113988185602086016112dc565b6113a181611362565b840191505092915050565b600060208201905081810360008301526113c68184611373565b90509291505056fea2646970667358221220671a2c5480ba08495f805cdfb18c74d47601681991118aa7ea4346ad0498baf064736f6c634300080a0033",
  "linkReferences": {},
  "deployedLinkReferences": {}
}