{
  "_format": "hh-sol-artifact-1",
  "contractName": "claimToken",
  "sourceName": "contracts/claimToken.sol",
  "abi": [
    {
      "inputs": [
        {
          "internalType": "string",
          "name": "tokenName",
          "type": "string"
        },
        {
          "internalType": "string",
          "name": "tokenSymbol",
          "type": "string"
        }
      ],
      "stateMutability": "nonpayable",
      "type": "constructor"
    },
    {
      "anonymous": false,
      "inputs": [
        {
          "indexed": true,
          "internalType": "address",
          "name": "owner",
          "type": "address"
        },
        {
          "indexed": true,
          "internalType": "address",
          "name": "spender",
          "type": "address"
        },
        {
          "indexed": false,
          "internalType": "uint256",
          "name": "value",
          "type": "uint256"
        }
      ],
      "name": "Approval",
      "type": "event"
    },
    {
      "anonymous": false,
      "inputs": [
        {
          "indexed": true,
          "internalType": "address",
          "name": "from",
          "type": "address"
        },
        {
          "indexed": true,
          "internalType": "address",
          "name": "to",
          "type": "address"
        },
        {
          "indexed": false,
          "internalType": "uint256",
          "name": "value",
          "type": "uint256"
        }
      ],
      "name": "Transfer",
      "type": "event"
    },
    {
      "inputs": [],
      "name": "_totalSupply",
      "outputs": [
        {
          "internalType": "uint256",
          "name": "",
          "type": "uint256"
        }
      ],
      "stateMutability": "view",
      "type": "function"
    },
    {
      "inputs": [
        {
          "internalType": "address",
          "name": "account",
          "type": "address"
        }
      ],
      "name": "addAdmin",
      "outputs": [],
      "stateMutability": "nonpayable",
      "type": "function"
    },
    {
      "inputs": [
        {
          "internalType": "address",
          "name": "tokenOwner",
          "type": "address"
        },
        {
          "internalType": "address",
          "name": "spender",
          "type": "address"
        }
      ],
      "name": "allowance",
      "outputs": [
        {
          "internalType": "uint256",
          "name": "remaining",
          "type": "uint256"
        }
      ],
      "stateMutability": "view",
      "type": "function"
    },
    {
      "inputs": [
        {
          "internalType": "address",
          "name": "spender",
          "type": "address"
        },
        {
          "internalType": "uint256",
          "name": "tokens",
          "type": "uint256"
        }
      ],
      "name": "approve",
      "outputs": [
        {
          "internalType": "bool",
          "name": "success",
          "type": "bool"
        }
      ],
      "stateMutability": "nonpayable",
      "type": "function"
    },
    {
      "inputs": [
        {
          "internalType": "address",
          "name": "tokenOwner",
          "type": "address"
        }
      ],
      "name": "balanceOf",
      "outputs": [
        {
          "internalType": "uint256",
          "name": "getBalance",
          "type": "uint256"
        }
      ],
      "stateMutability": "view",
      "type": "function"
    },
    {
      "inputs": [
        {
          "internalType": "uint256",
          "name": "tokens",
          "type": "uint256"
        }
      ],
      "name": "burn",
      "outputs": [],
      "stateMutability": "nonpayable",
      "type": "function"
    },
    {
      "inputs": [],
      "name": "decimals",
      "outputs": [
        {
          "internalType": "uint8",
          "name": "",
          "type": "uint8"
        }
      ],
      "stateMutability": "view",
      "type": "function"
    },
    {
      "inputs": [],
      "name": "initialSupply",
      "outputs": [
        {
          "internalType": "uint256",
          "name": "",
          "type": "uint256"
        }
      ],
      "stateMutability": "view",
      "type": "function"
    },
    {
      "inputs": [
        {
          "internalType": "address",
          "name": "account",
          "type": "address"
        }
      ],
      "name": "isAdmin",
      "outputs": [
        {
          "internalType": "bool",
          "name": "",
          "type": "bool"
        }
      ],
      "stateMutability": "view",
      "type": "function"
    },
    {
      "inputs": [],
      "name": "maxCap",
      "outputs": [
        {
          "internalType": "uint256",
          "name": "",
          "type": "uint256"
        }
      ],
      "stateMutability": "view",
      "type": "function"
    },
    {
      "inputs": [
        {
          "internalType": "address",
          "name": "account",
          "type": "address"
        },
        {
          "internalType": "uint256",
          "name": "tokens",
          "type": "uint256"
        }
      ],
      "name": "mint",
      "outputs": [],
      "stateMutability": "nonpayable",
      "type": "function"
    },
    {
      "inputs": [],
      "name": "name",
      "outputs": [
        {
          "internalType": "string",
          "name": "",
          "type": "string"
        }
      ],
      "stateMutability": "view",
      "type": "function"
    },
    {
      "inputs": [],
      "name": "owner",
      "outputs": [
        {
          "internalType": "address",
          "name": "",
          "type": "address"
        }
      ],
      "stateMutability": "view",
      "type": "function"
    },
    {
      "inputs": [
        {
          "internalType": "address",
          "name": "account",
          "type": "address"
        }
      ],
      "name": "removeAdmin",
      "outputs": [],
      "stateMutability": "nonpayable",
      "type": "function"
    },
    {
      "inputs": [],
      "name": "symbol",
      "outputs": [
        {
          "internalType": "string",
          "name": "",
          "type": "string"
        }
      ],
      "stateMutability": "view",
      "type": "function"
    },
    {
      "inputs": [],
      "name": "totalSupply",
      "outputs": [
        {
          "internalType": "uint256",
          "name": "",
          "type": "uint256"
        }
      ],
      "stateMutability": "view",
      "type": "function"
    },
    {
      "inputs": [
        {
          "internalType": "address",
          "name": "to",
          "type": "address"
        },
        {
          "internalType": "uint256",
          "name": "tokens",
          "type": "uint256"
        }
      ],
      "name": "transfer",
      "outputs": [
        {
          "internalType": "bool",
          "name": "success",
          "type": "bool"
        }
      ],
      "stateMutability": "nonpayable",
      "type": "function"
    },
    {
      "inputs": [
        {
          "internalType": "address",
          "name": "from",
          "type": "address"
        },
        {
          "internalType": "address",
          "name": "to",
          "type": "address"
        },
        {
          "internalType": "uint256",
          "name": "tokens",
          "type": "uint256"
        }
      ],
      "name": "transferFrom",
      "outputs": [
        {
          "internalType": "bool",
          "name": "success",
          "type": "bool"
        }
      ],
      "stateMutability": "nonpayable",
      "type": "function"
    }
  ],
  "bytecode": "0x60806040523480156200001157600080fd5b5060405162000e5a38038062000e5a833981016040819052620000349162000250565b815162000049906003906020850190620000dd565b5080516200005f906004906020840190620000dd565b5060008054600182905560028290553361010081026001600160a81b031990921691909117601217825580825260056020526040808320839055519091907fddf252ad1be2c89b69c2b068fc378daa952ba7f163c4a11628f55a4df523b3ef90620000cd9083815260200190565b60405180910390a35050620002f7565b828054620000eb90620002ba565b90600052602060002090601f0160209004810192826200010f57600085556200015a565b82601f106200012a57805160ff19168380011785556200015a565b828001600101855582156200015a579182015b828111156200015a5782518255916020019190600101906200013d565b50620001689291506200016c565b5090565b5b808211156200016857600081556001016200016d565b634e487b7160e01b600052604160045260246000fd5b600082601f830112620001ab57600080fd5b81516001600160401b0380821115620001c857620001c862000183565b604051601f8301601f19908116603f01168101908282118183101715620001f357620001f362000183565b816040528381526020925086838588010111156200021057600080fd5b600091505b8382101562000234578582018301518183018401529082019062000215565b83821115620002465760008385830101525b9695505050505050565b600080604083850312156200026457600080fd5b82516001600160401b03808211156200027c57600080fd5b6200028a8683870162000199565b93506020850151915080821115620002a157600080fd5b50620002b08582860162000199565b9150509250929050565b600181811c90821680620002cf57607f821691505b60208210811415620002f157634e487b7160e01b600052602260045260246000fd5b50919050565b610b5380620003076000396000f3fe608060405234801561001057600080fd5b50600436106101165760003560e01c80633eaaf86b116100a257806370a082311161007157806370a082311461022a5780638da5cb5b1461025357806395d89b4114610283578063a9059cbb1461028b578063dd62ed3e1461029e57600080fd5b80633eaaf86b146101e857806340c10f19146101f157806342966c6814610204578063704802751461021757600080fd5b806323548b8b116100e957806323548b8b1461018757806323b872dd1461019a57806324d7806c146101ad578063313ce567146101c0578063378dc3dc146101df57600080fd5b806306fdde031461011b578063095ea7b3146101395780631785f53c1461015c57806318160ddd14610171575b600080fd5b6101236102d7565b60405161013091906108f5565b60405180910390f35b61014c610147366004610961565b610365565b6040519015158152602001610130565b61016f61016a36600461098b565b6103d1565b005b61017961040e565b604051908152602001610130565b6101796b033b2e3c9fd0803ce800000081565b61014c6101a83660046109ad565b61044c565b61014c6101bb36600461098b565b61056c565b6000546101cd9060ff1681565b60405160ff9091168152602001610130565b61017960025481565b61017960015481565b61016f6101ff366004610961565b6105ac565b61016f6102123660046109e9565b61073b565b61016f61022536600461098b565b6107f9565b61017961023836600461098b565b6001600160a01b031660009081526005602052604090205490565b60005461026b9061010090046001600160a01b031681565b6040516001600160a01b039091168152602001610130565b610123610839565b61014c610299366004610961565b610846565b6101796102ac366004610a02565b6001600160a01b03918216600090815260066020908152604080832093909416825291909152205490565b600380546102e490610a35565b80601f016020809104026020016040519081016040528092919081815260200182805461031090610a35565b801561035d5780601f106103325761010080835404028352916020019161035d565b820191906000526020600020905b81548152906001019060200180831161034057829003601f168201915b505050505081565b3360008181526006602090815260408083206001600160a01b038716808552925280832085905551919290917f8c5be1e5ebec7d5bd14f71427d1e84f3dd0314c0f7b2291e5b200ac8c7c3b925906103c09086815260200190565b60405180910390a350600192915050565b60005461010090046001600160a01b031633146103ed57600080fd5b6001600160a01b03166000908152600760205260409020805460ff19169055565b600080805260056020527f05b8ccbb9d4d8fb16ea74ce3c29a41f1b461fbdaff4714a0d9a8eb05499746bc546001546104479190610a86565b905090565b60006001600160a01b03831661047d5760405162461bcd60e51b815260040161047490610a9d565b60405180910390fd5b6001600160a01b0384166000908152600560205260409020546104a1908390610a86565b6001600160a01b03851660009081526005602090815260408083209390935560068152828220338352905220546104d9908390610a86565b6001600160a01b038086166000908152600660209081526040808320338452825280832094909455918616815260059091522054610518908390610ae5565b6001600160a01b038085166000818152600560205260409081902093909355915190861690600080516020610afe8339815191529061055a9086815260200190565b60405180910390a35060019392505050565b6000805461010090046001600160a01b0316331461058957600080fd5b506001600160a01b03811660009081526007602052604090205460ff165b919050565b3360009081526007602052604090205460ff166105c857600080fd5b6001600160a01b03821661062a5760405162461bcd60e51b8152602060048201526024808201527f636c61696d546f6b656e3a204d696e742066726f6d2061207a65726f206164646044820152637265737360e01b6064820152608401610474565b6b033b2e3c9fd0803ce8000000816001546106459190610ae5565b11156106b95760405162461bcd60e51b815260206004820152603760248201527f636c61696d546f6b656e204d617820737570706c7920726561636865642c203160448201527f2042696c6c696f6e20746f6b656e73206d696e7465642e0000000000000000006064820152608401610474565b6001600160a01b0382166000908152600560205260409020546106dd908290610ae5565b6001600160a01b038316600090815260056020526040902055600154610704908290610ae5565b6001556040518181526001600160a01b03831690600090600080516020610afe833981519152906020015b60405180910390a35050565b33600090815260056020526040902054818110156107ab5760405162461bcd60e51b815260206004820152602760248201527f636c61696d546f6b656e3a204275726e20616d6f756e7420657863656564732060448201526642616c616e636560c81b6064820152608401610474565b6107b58282610a86565b336000908152600560205260409020556001546107d3908390610a86565b6001556040518281526000903390600080516020610afe8339815191529060200161072f565b60005461010090046001600160a01b0316331461081557600080fd5b6001600160a01b03166000908152600760205260409020805460ff19166001179055565b600480546102e490610a35565b60006001600160a01b03831661086e5760405162461bcd60e51b815260040161047490610a9d565b33600090815260056020526040902054610889908390610a86565b33600090815260056020526040808220929092556001600160a01b038516815220546108b6908390610ae5565b6001600160a01b038416600081815260056020526040908190209290925590513390600080516020610afe833981519152906103c09086815260200190565b600060208083528351808285015260005b8181101561092257858101830151858201604001528201610906565b81811115610934576000604083870101525b50601f01601f1916929092016040019392505050565b80356001600160a01b03811681146105a757600080fd5b6000806040838503121561097457600080fd5b61097d8361094a565b946020939093013593505050565b60006020828403121561099d57600080fd5b6109a68261094a565b9392505050565b6000806000606084860312156109c257600080fd5b6109cb8461094a565b92506109d96020850161094a565b9150604084013590509250925092565b6000602082840312156109fb57600080fd5b5035919050565b60008060408385031215610a1557600080fd5b610a1e8361094a565b9150610a2c6020840161094a565b90509250929050565b600181811c90821680610a4957607f821691505b60208210811415610a6a57634e487b7160e01b600052602260045260246000fd5b50919050565b634e487b7160e01b600052601160045260246000fd5b600082821015610a9857610a98610a70565b500390565b60208082526028908201527f636c61696d546f6b656e3a20416464726573732073686f756c64206e6f742062604082015267652061207a65726f60c01b606082015260800190565b60008219821115610af857610af8610a70565b50019056feddf252ad1be2c89b69c2b068fc378daa952ba7f163c4a11628f55a4df523b3efa2646970667358221220069a2b3c70dea4fc679c53e9900fd62f4a1308db567bb9d994203709b3b1176064736f6c634300080a0033",
  "linkReferences": {},
  "deployedLinkReferences": {}
}