{
  "_format": "hh-sol-artifact-1",
  "contractName": "HousePoolWBTC",
  "sourceName": "contracts/HousePoolWBTC.sol",
  "abi": [
    {
      "inputs": [
        {
          "internalType": "address",
          "name": "_owner",
          "type": "address"
        },
        {
          "internalType": "address",
          "name": "_WBTC",
          "type": "address"
        },
        {
          "internalType": "address",
          "name": "_claimToken",
          "type": "address"
        },
        {
          "internalType": "string",
          "name": "_name",
          "type": "string"
        },
        {
          "internalType": "string",
          "name": "_version",
          "type": "string"
        }
      ],
      "stateMutability": "nonpayable",
      "type": "constructor"
    },
    {
      "anonymous": false,
      "inputs": [
        {
          "indexed": true,
          "internalType": "bytes32",
          "name": "role",
          "type": "bytes32"
        },
        {
          "indexed": true,
          "internalType": "bytes32",
          "name": "previousAdminRole",
          "type": "bytes32"
        },
        {
          "indexed": true,
          "internalType": "bytes32",
          "name": "newAdminRole",
          "type": "bytes32"
        }
      ],
      "name": "RoleAdminChanged",
      "type": "event"
    },
    {
      "anonymous": false,
      "inputs": [
        {
          "indexed": true,
          "internalType": "bytes32",
          "name": "role",
          "type": "bytes32"
        },
        {
          "indexed": true,
          "internalType": "address",
          "name": "account",
          "type": "address"
        },
        {
          "indexed": true,
          "internalType": "address",
          "name": "sender",
          "type": "address"
        }
      ],
      "name": "RoleGranted",
      "type": "event"
    },
    {
      "anonymous": false,
      "inputs": [
        {
          "indexed": true,
          "internalType": "bytes32",
          "name": "role",
          "type": "bytes32"
        },
        {
          "indexed": true,
          "internalType": "address",
          "name": "account",
          "type": "address"
        },
        {
          "indexed": true,
          "internalType": "address",
          "name": "sender",
          "type": "address"
        }
      ],
      "name": "RoleRevoked",
      "type": "event"
    },
    {
      "inputs": [],
      "name": "DATA_PROVIDER_ORACLE",
      "outputs": [
        {
          "internalType": "bytes32",
          "name": "",
          "type": "bytes32"
        }
      ],
      "stateMutability": "view",
      "type": "function"
    },
    {
      "inputs": [],
      "name": "DEFAULT_ADMIN_ROLE",
      "outputs": [
        {
          "internalType": "bytes32",
          "name": "",
          "type": "bytes32"
        }
      ],
      "stateMutability": "view",
      "type": "function"
    },
    {
      "inputs": [],
      "name": "HOUSE_POOL_DATA_PROVIDER",
      "outputs": [
        {
          "internalType": "bytes32",
          "name": "",
          "type": "bytes32"
        }
      ],
      "stateMutability": "view",
      "type": "function"
    },
    {
      "inputs": [
        {
          "internalType": "uint256",
          "name": "amountWBTC",
          "type": "uint256"
        },
        {
          "internalType": "bytes",
          "name": "approval",
          "type": "bytes"
        },
        {
          "components": [
            {
              "internalType": "int256",
              "name": "expectedValue",
              "type": "int256"
            },
            {
              "internalType": "int256",
              "name": "maxExposure",
              "type": "int256"
            },
            {
              "internalType": "uint256",
              "name": "deadline",
              "type": "uint256"
            },
            {
              "internalType": "address",
              "name": "signer",
              "type": "address"
            }
          ],
          "internalType": "struct HousePoolWBTC.ValuesOfInterest",
          "name": "approvedValues",
          "type": "tuple"
        }
      ],
      "name": "deposit",
      "outputs": [],
      "stateMutability": "nonpayable",
      "type": "function"
    },
    {
      "inputs": [
        {
          "internalType": "uint256",
          "name": "WBTCMicro",
          "type": "uint256"
        }
      ],
      "name": "deposit_",
      "outputs": [],
      "stateMutability": "nonpayable",
      "type": "function"
    },
    {
      "inputs": [],
      "name": "getBettingStakes",
      "outputs": [
        {
          "internalType": "uint256",
          "name": "",
          "type": "uint256"
        }
      ],
      "stateMutability": "view",
      "type": "function"
    },
    {
      "inputs": [],
      "name": "getEV",
      "outputs": [
        {
          "internalType": "int256",
          "name": "",
          "type": "int256"
        }
      ],
      "stateMutability": "view",
      "type": "function"
    },
    {
      "inputs": [],
      "name": "getLiquidityStatus",
      "outputs": [
        {
          "internalType": "uint256",
          "name": "",
          "type": "uint256"
        }
      ],
      "stateMutability": "view",
      "type": "function"
    },
    {
      "inputs": [],
      "name": "getMaxExposure",
      "outputs": [
        {
          "internalType": "int256",
          "name": "",
          "type": "int256"
        }
      ],
      "stateMutability": "view",
      "type": "function"
    },
    {
      "inputs": [
        {
          "internalType": "address",
          "name": "_user",
          "type": "address"
        }
      ],
      "name": "getMyLiquidity",
      "outputs": [
        {
          "internalType": "uint256",
          "name": "",
          "type": "uint256"
        }
      ],
      "stateMutability": "view",
      "type": "function"
    },
    {
      "inputs": [
        {
          "internalType": "bytes32",
          "name": "role",
          "type": "bytes32"
        }
      ],
      "name": "getRoleAdmin",
      "outputs": [
        {
          "internalType": "bytes32",
          "name": "",
          "type": "bytes32"
        }
      ],
      "stateMutability": "view",
      "type": "function"
    },
    {
      "inputs": [],
      "name": "getTVLofPool",
      "outputs": [
        {
          "internalType": "int256",
          "name": "",
          "type": "int256"
        }
      ],
      "stateMutability": "view",
      "type": "function"
    },
    {
      "inputs": [],
      "name": "getTokenPrice",
      "outputs": [
        {
          "internalType": "uint256",
          "name": "",
          "type": "uint256"
        }
      ],
      "stateMutability": "view",
      "type": "function"
    },
    {
      "inputs": [],
      "name": "getTokenWithdrawlPrice",
      "outputs": [
        {
          "internalType": "uint256",
          "name": "",
          "type": "uint256"
        }
      ],
      "stateMutability": "view",
      "type": "function"
    },
    {
      "inputs": [],
      "name": "getTreasuryAmount",
      "outputs": [
        {
          "internalType": "uint256",
          "name": "",
          "type": "uint256"
        }
      ],
      "stateMutability": "view",
      "type": "function"
    },
    {
      "inputs": [
        {
          "internalType": "bytes32",
          "name": "role",
          "type": "bytes32"
        },
        {
          "internalType": "address",
          "name": "account",
          "type": "address"
        }
      ],
      "name": "grantRole",
      "outputs": [],
      "stateMutability": "nonpayable",
      "type": "function"
    },
    {
      "inputs": [
        {
          "internalType": "bytes32",
          "name": "role",
          "type": "bytes32"
        },
        {
          "internalType": "address",
          "name": "account",
          "type": "address"
        }
      ],
      "name": "hasRole",
      "outputs": [
        {
          "internalType": "bool",
          "name": "",
          "type": "bool"
        }
      ],
      "stateMutability": "view",
      "type": "function"
    },
    {
      "inputs": [
        {
          "internalType": "bytes32",
          "name": "role",
          "type": "bytes32"
        },
        {
          "internalType": "address",
          "name": "account",
          "type": "address"
        }
      ],
      "name": "renounceRole",
      "outputs": [],
      "stateMutability": "nonpayable",
      "type": "function"
    },
    {
      "inputs": [
        {
          "internalType": "bytes32",
          "name": "role",
          "type": "bytes32"
        },
        {
          "internalType": "address",
          "name": "account",
          "type": "address"
        }
      ],
      "name": "revokeRole",
      "outputs": [],
      "stateMutability": "nonpayable",
      "type": "function"
    },
    {
      "inputs": [
        {
          "internalType": "uint256",
          "name": "bettingAmount",
          "type": "uint256"
        }
      ],
      "name": "setBettingStakes",
      "outputs": [],
      "stateMutability": "nonpayable",
      "type": "function"
    },
    {
      "inputs": [
        {
          "internalType": "bytes",
          "name": "sig_",
          "type": "bytes"
        },
        {
          "components": [
            {
              "internalType": "int256",
              "name": "expectedValue",
              "type": "int256"
            },
            {
              "internalType": "int256",
              "name": "maxExposure",
              "type": "int256"
            },
            {
              "internalType": "uint256",
              "name": "deadline",
              "type": "uint256"
            },
            {
              "internalType": "address",
              "name": "signer",
              "type": "address"
            }
          ],
          "internalType": "struct HousePoolWBTC.ValuesOfInterest",
          "name": "voi_",
          "type": "tuple"
        }
      ],
      "name": "setVOI",
      "outputs": [],
      "stateMutability": "nonpayable",
      "type": "function"
    },
    {
      "inputs": [
        {
          "internalType": "bool",
          "name": "outcome",
          "type": "bool"
        },
        {
          "internalType": "uint256",
          "name": "betAmount",
          "type": "uint256"
        }
      ],
      "name": "simulateOutcome",
      "outputs": [],
      "stateMutability": "nonpayable",
      "type": "function"
    },
    {
      "inputs": [
        {
          "internalType": "bytes4",
          "name": "interfaceId",
          "type": "bytes4"
        }
      ],
      "name": "supportsInterface",
      "outputs": [
        {
          "internalType": "bool",
          "name": "",
          "type": "bool"
        }
      ],
      "stateMutability": "view",
      "type": "function"
    },
    {
      "inputs": [],
      "name": "voi",
      "outputs": [
        {
          "internalType": "int256",
          "name": "expectedValue",
          "type": "int256"
        },
        {
          "internalType": "int256",
          "name": "maxExposure",
          "type": "int256"
        },
        {
          "internalType": "uint256",
          "name": "deadline",
          "type": "uint256"
        },
        {
          "internalType": "address",
          "name": "signer",
          "type": "address"
        }
      ],
      "stateMutability": "view",
      "type": "function"
    },
    {
      "inputs": [
        {
          "internalType": "uint256",
          "name": "amountWBTC",
          "type": "uint256"
        },
        {
          "internalType": "bytes",
          "name": "approval",
          "type": "bytes"
        },
        {
          "components": [
            {
              "internalType": "int256",
              "name": "expectedValue",
              "type": "int256"
            },
            {
              "internalType": "int256",
              "name": "maxExposure",
              "type": "int256"
            },
            {
              "internalType": "uint256",
              "name": "deadline",
              "type": "uint256"
            },
            {
              "internalType": "address",
              "name": "signer",
              "type": "address"
            }
          ],
          "internalType": "struct HousePoolWBTC.ValuesOfInterest",
          "name": "approvedValues",
          "type": "tuple"
        }
      ],
      "name": "withdraw",
      "outputs": [],
      "stateMutability": "nonpayable",
      "type": "function"
    },
    {
      "inputs": [
        {
          "internalType": "uint256",
          "name": "WBTCMicro",
          "type": "uint256"
        }
      ],
      "name": "withdraw_",
      "outputs": [],
      "stateMutability": "nonpayable",
      "type": "function"
    }
  ],
  "bytecode": "0x6101406040526012600a6200001591906200051b565b60646200002391906200056c565b600c556012600a6200003691906200051b565b60646200004491906200056c565b600d553480156200005457600080fd5b50604051620047553803806200475583398181016040528101906200007a9190620007cf565b8181600160008190555060008280519060200120905060008280519060200120905060007f8b73c3c69bb8fe3d512ecc4cf759cc79239f7b179b0ffacaa9a75d522b39400f90508260e081815250508161010081815250504660a08181525050620000ed818484620001d860201b60201c565b608081815250503073ffffffffffffffffffffffffffffffffffffffff1660c08173ffffffffffffffffffffffffffffffffffffffff1681525050806101208181525050505050505083600660006101000a81548173ffffffffffffffffffffffffffffffffffffffff021916908373ffffffffffffffffffffffffffffffffffffffff16021790555082600760006101000a81548173ffffffffffffffffffffffffffffffffffffffff021916908373ffffffffffffffffffffffffffffffffffffffff160217905550620001cd6000801b866200021460201b60201c565b50505050506200092f565b60008383834630604051602001620001f5959493929190620008d2565b6040516020818303038152906040528051906020012090509392505050565b6200022682826200022a60201b60201c565b5050565b6200023c82826200031b60201b60201c565b6200031757600180600084815260200190815260200160002060000160008373ffffffffffffffffffffffffffffffffffffffff1673ffffffffffffffffffffffffffffffffffffffff16815260200190815260200160002060006101000a81548160ff021916908315150217905550620002bc6200038660201b60201c565b73ffffffffffffffffffffffffffffffffffffffff168173ffffffffffffffffffffffffffffffffffffffff16837f2f8788117e7eff1d82e926ec794901d17c78024a50270940304540a733656f0d60405160405180910390a45b5050565b60006001600084815260200190815260200160002060000160008373ffffffffffffffffffffffffffffffffffffffff1673ffffffffffffffffffffffffffffffffffffffff16815260200190815260200160002060009054906101000a900460ff16905092915050565b600033905090565b7f4e487b7100000000000000000000000000000000000000000000000000000000600052601160045260246000fd5b60008160011c9050919050565b6000808291508390505b60018511156200041c57808604811115620003f457620003f36200038e565b5b6001851615620004045780820291505b80810290506200041485620003bd565b9450620003d4565b94509492505050565b6000826200043757600190506200050a565b816200044757600090506200050a565b81600181146200046057600281146200046b57620004a1565b60019150506200050a565b60ff84111562000480576200047f6200038e565b5b8360020a9150848211156200049a57620004996200038e565b5b506200050a565b5060208310610133831016604e8410600b8410161715620004db5782820a905083811115620004d557620004d46200038e565b5b6200050a565b620004ea8484846001620003ca565b925090508184048111156200050457620005036200038e565b5b81810290505b9392505050565b6000819050919050565b6000620005288262000511565b9150620005358362000511565b9250620005647fffffffffffffffffffffffffffffffffffffffffffffffffffffffffffffffff848462000425565b905092915050565b6000620005798262000511565b9150620005868362000511565b9250817fffffffffffffffffffffffffffffffffffffffffffffffffffffffffffffffff0483118215151615620005c257620005c16200038e565b5b828202905092915050565b6000604051905090565b600080fd5b600080fd5b600073ffffffffffffffffffffffffffffffffffffffff82169050919050565b60006200060e82620005e1565b9050919050565b620006208162000601565b81146200062c57600080fd5b50565b600081519050620006408162000615565b92915050565b600080fd5b600080fd5b6000601f19601f8301169050919050565b7f4e487b7100000000000000000000000000000000000000000000000000000000600052604160045260246000fd5b6200069b8262000650565b810181811067ffffffffffffffff82111715620006bd57620006bc62000661565b5b80604052505050565b6000620006d2620005cd565b9050620006e0828262000690565b919050565b600067ffffffffffffffff82111562000703576200070262000661565b5b6200070e8262000650565b9050602081019050919050565b60005b838110156200073b5780820151818401526020810190506200071e565b838111156200074b576000848401525b50505050565b6000620007686200076284620006e5565b620006c6565b9050828152602081018484840111156200078757620007866200064b565b5b620007948482856200071b565b509392505050565b600082601f830112620007b457620007b362000646565b5b8151620007c684826020860162000751565b91505092915050565b600080600080600060a08688031215620007ee57620007ed620005d7565b5b6000620007fe888289016200062f565b955050602062000811888289016200062f565b945050604062000824888289016200062f565b935050606086015167ffffffffffffffff811115620008485762000847620005dc565b5b62000856888289016200079c565b925050608086015167ffffffffffffffff8111156200087a5762000879620005dc565b5b62000888888289016200079c565b9150509295509295909350565b6000819050919050565b620008aa8162000895565b82525050565b620008bb8162000511565b82525050565b620008cc8162000601565b82525050565b600060a082019050620008e960008301886200089f565b620008f860208301876200089f565b6200090760408301866200089f565b620009166060830185620008b0565b620009256080830184620008c1565b9695505050505050565b60805160a05160c05160e0516101005161012051613dd66200097f6000396000612184015260006121c6015260006121a5015260006120da01526000612130015260006121590152613dd66000f3fe608060405234801561001057600080fd5b506004361061018e5760003560e01c80635a5d6223116100de578063b3ce252411610097578063d547741f11610071578063d547741f14610460578063d75d07c21461047c578063e20fcf001461049a578063e678ff25146104b85761018e565b8063b3ce252414610403578063be1cd71214610421578063cd08a1df146104425761018e565b80635a5d62231461032f578063639c066d1461034d57806391d1485414610369578063a1cd223214610399578063a217fddf146103c9578063a43f3241146103e75761018e565b806336568abe1161014b5780634b94f50e116101255780634b94f50e146102b95780634f6d45a2146102d7578063508c81a2146102f357806353f52847146103115761018e565b806336568abe146102635780633c0717fd1461027f578063409c86ca1461029d5761018e565b806301ffc9a7146101935780630f5a5e18146101c357806320ab7449146101df578063218f296e146101fb578063248a9ca3146102175780632f2ff15d14610247575b600080fd5b6101ad60048036038101906101a89190612775565b6104d6565b6040516101ba91906127bd565b60405180910390f35b6101dd60048036038101906101d8919061280e565b610550565b005b6101f960048036038101906101f49190612a92565b61055c565b005b61021560048036038101906102109190612a92565b6107f6565b005b610231600480360381019061022c9190612b37565b610a90565b60405161023e9190612b73565b60405180910390f35b610261600480360381019061025c9190612b8e565b610ab0565b005b61027d60048036038101906102789190612b8e565b610ad9565b005b610287610b5c565b6040516102949190612bdd565b60405180910390f35b6102b760048036038101906102b2919061280e565b610b66565b005b6102c1610b70565b6040516102ce9190612bdd565b60405180910390f35b6102f160048036038101906102ec9190612c24565b610b7a565b005b6102fb610c68565b6040516103089190612b73565b60405180910390f35b610319610c8c565b6040516103269190612c73565b60405180910390f35b610337610c96565b6040516103449190612c73565b60405180910390f35b6103676004803603810190610362919061280e565b610ca3565b005b610383600480360381019061037e9190612b8e565b610caf565b60405161039091906127bd565b60405180910390f35b6103b360048036038101906103ae9190612c8e565b610d1a565b6040516103c09190612bdd565b60405180910390f35b6103d1610dcc565b6040516103de9190612b73565b60405180910390f35b61040160048036038101906103fc9190612cbb565b610dd3565b005b61040b611096565b6040516104189190612bdd565b60405180910390f35b6104296110a0565b6040516104399493929190612d26565b60405180910390f35b61044a6110de565b6040516104579190612c73565b60405180910390f35b61047a60048036038101906104759190612b8e565b6110eb565b005b610484611114565b6040516104919190612b73565b60405180910390f35b6104a2611138565b6040516104af9190612bdd565b60405180910390f35b6104c0611142565b6040516104cd9190612bdd565b60405180910390f35b60007f7965db0b000000000000000000000000000000000000000000000000000000007bffffffffffffffffffffffffffffffffffffffffffffffffffffffff1916827bffffffffffffffffffffffffffffffffffffffffffffffffffffffff1916148061054957506105488261114c565b5b9050919050565b610559816111b6565b50565b8082600061060c7f382f778b38ac8a684a068262bd90ef9739279743851e0bc20a2bf85f56a2550c846060015185600001518660200151600e6000896060015173ffffffffffffffffffffffffffffffffffffffff1673ffffffffffffffffffffffffffffffffffffffff1681526020019081526020016000205488604001516040516020016105f196959493929190612d6b565b604051602081830303815290604052805190602001206115ef565b905061061d83606001518284611609565b61065c576040517f08c379a000000000000000000000000000000000000000000000000000000000815260040161065390612e29565b60405180910390fd5b600073ffffffffffffffffffffffffffffffffffffffff16836060015173ffffffffffffffffffffffffffffffffffffffff1614156106d0576040517f08c379a00000000000000000000000000000000000000000000000000000000081526004016106c790612e95565b60405180910390fd5b6106fe7feed754290b7b7033469899aa55827c9480fc90a4843b45b7f455d0ac50d3e6ce8460600151610caf565b61073d576040517f08c379a000000000000000000000000000000000000000000000000000000000815260040161073490612f27565b60405180910390fd5b82604001514310610783576040517f08c379a000000000000000000000000000000000000000000000000000000000815260040161077a90612fb9565b60405180910390fd5b600e6000846060015173ffffffffffffffffffffffffffffffffffffffff1673ffffffffffffffffffffffffffffffffffffffff16815260200190815260200160002060008154809291906107d790613008565b91905055506107e5846117ee565b6107ee866111b6565b505050505050565b808260006108a67f382f778b38ac8a684a068262bd90ef9739279743851e0bc20a2bf85f56a2550c846060015185600001518660200151600e6000896060015173ffffffffffffffffffffffffffffffffffffffff1673ffffffffffffffffffffffffffffffffffffffff16815260200190815260200160002054886040015160405160200161088b96959493929190612d6b565b604051602081830303815290604052805190602001206115ef565b90506108b783606001518284611609565b6108f6576040517f08c379a00000000000000000000000000000000000000000000000000000000081526004016108ed90612e29565b60405180910390fd5b600073ffffffffffffffffffffffffffffffffffffffff16836060015173ffffffffffffffffffffffffffffffffffffffff16141561096a576040517f08c379a000000000000000000000000000000000000000000000000000000000815260040161096190612e95565b60405180910390fd5b6109987feed754290b7b7033469899aa55827c9480fc90a4843b45b7f455d0ac50d3e6ce8460600151610caf565b6109d7576040517f08c379a00000000000000000000000000000000000000000000000000000000081526004016109ce90612f27565b60405180910390fd5b82604001514310610a1d576040517f08c379a0000000000000000000000000000000000000000000000000000000008152600401610a1490612fb9565b60405180910390fd5b600e6000846060015173ffffffffffffffffffffffffffffffffffffffff1673ffffffffffffffffffffffffffffffffffffffff1681526020019081526020016000206000815480929190610a7190613008565b9190505550610a7f846117ee565b610a888661182d565b505050505050565b600060016000838152602001908152602001600020600101549050919050565b610ab982610a90565b610aca81610ac5611bc1565b611bc9565b610ad48383611c66565b505050565b610ae1611bc1565b73ffffffffffffffffffffffffffffffffffffffff168173ffffffffffffffffffffffffffffffffffffffff1614610b4e576040517f08c379a0000000000000000000000000000000000000000000000000000000008152600401610b45906130c3565b60405180910390fd5b610b588282611d46565b5050565b6000600354905090565b8060028190555050565b6000600c54905090565b600015158215151415610be257606481610b949190613112565b60046000828254610ba59190613143565b925050819055506063606482610bbb9190613112565b610bc59190613199565b60036000828254610bd69190613143565b92505081905550610c23565b6064600254610bf19190613112565b60046000828254610c029190613143565b925050819055508060026000828254610c1b91906131f3565b925050819055505b6000600860000181905550600060086001018190555060045460056000828254610c4d9190613227565b92505081905550610c5c611e28565b610c64611f7f565b5050565b7fce95e3899a3f9149fc26a34674875210907ee3c0dddf61ac603f89e90c1b5f9e81565b6000600554905090565b6000600860010154905090565b610cac8161182d565b50565b60006001600084815260200190815260200160002060000160008373ffffffffffffffffffffffffffffffffffffffff1673ffffffffffffffffffffffffffffffffffffffff16815260200190815260200160002060009054906101000a900460ff16905092915050565b6000600d54600760009054906101000a900473ffffffffffffffffffffffffffffffffffffffff1673ffffffffffffffffffffffffffffffffffffffff166370a08231846040518263ffffffff1660e01b8152600401610d7a91906132bb565b602060405180830381865afa158015610d97573d6000803e3d6000fd5b505050506040513d601f19601f82011682018060405250810190610dbb91906132eb565b610dc59190613199565b9050919050565b6000801b81565b80826000610e837f382f778b38ac8a684a068262bd90ef9739279743851e0bc20a2bf85f56a2550c846060015185600001518660200151600e6000896060015173ffffffffffffffffffffffffffffffffffffffff1673ffffffffffffffffffffffffffffffffffffffff168152602001908152602001600020548860400151604051602001610e6896959493929190612d6b565b604051602081830303815290604052805190602001206115ef565b9050610e9483606001518284611609565b610ed3576040517f08c379a0000000000000000000000000000000000000000000000000000000008152600401610eca90612e29565b60405180910390fd5b600073ffffffffffffffffffffffffffffffffffffffff16836060015173ffffffffffffffffffffffffffffffffffffffff161415610f47576040517f08c379a0000000000000000000000000000000000000000000000000000000008152600401610f3e90612e95565b60405180910390fd5b610f757feed754290b7b7033469899aa55827c9480fc90a4843b45b7f455d0ac50d3e6ce8460600151610caf565b610fb4576040517f08c379a0000000000000000000000000000000000000000000000000000000008152600401610fab90612f27565b60405180910390fd5b82604001514310610ffa576040517f08c379a0000000000000000000000000000000000000000000000000000000008152600401610ff190612fb9565b60405180910390fd5b600e6000846060015173ffffffffffffffffffffffffffffffffffffffff1673ffffffffffffffffffffffffffffffffffffffff168152602001908152602001600020600081548092919061104e90613008565b91905055507fce95e3899a3f9149fc26a34674875210907ee3c0dddf61ac603f89e90c1b5f9e61108581611080611bc1565b611bc9565b61108e856117ee565b505050505050565b6000600d54905090565b60088060000154908060010154908060020154908060030160009054906101000a900473ffffffffffffffffffffffffffffffffffffffff16905084565b6000600860000154905090565b6110f482610a90565b61110581611100611bc1565b611bc9565b61110f8383611d46565b505050565b7feed754290b7b7033469899aa55827c9480fc90a4843b45b7f455d0ac50d3e6ce81565b6000600454905090565b6000600254905090565b60007f01ffc9a7000000000000000000000000000000000000000000000000000000007bffffffffffffffffffffffffffffffffffffffffffffffffffffffff1916827bffffffffffffffffffffffffffffffffffffffffffffffffffffffff1916149050919050565b600260005414156111fc576040517f08c379a00000000000000000000000000000000000000000000000000000000081526004016111f390613364565b60405180910390fd5b600260008190555060008111611247576040517f08c379a000000000000000000000000000000000000000000000000000000000815260040161123e906133d0565b60405180910390fd5b600d546012600a6112589190613523565b600760009054906101000a900473ffffffffffffffffffffffffffffffffffffffff1673ffffffffffffffffffffffffffffffffffffffff166370a08231336040518263ffffffff1660e01b81526004016112b391906132bb565b602060405180830381865afa1580156112d0573d6000803e3d6000fd5b505050506040513d601f19601f820116820180604052508101906112f491906132eb565b6112fe9190613112565b6113089190613199565b600a806113159190613523565b826113209190613199565b11158015611356575060086001015460035461133c919061356e565b600a806113499190613523565b826113549190613602565b125b611395576040517f08c379a000000000000000000000000000000000000000000000000000000000815260040161138c90613765565b60405180910390fd5b6000600d546012600a6113a89190613523565b600a806113b59190613523565b846113c09190613199565b6113ca9190613199565b6113d49190613112565b9050600a806113e39190613523565b826113ee9190613199565b600360008282546113ff91906131f3565b92505081905550600a806114139190613523565b8261141e9190613602565b6005600082825461142f919061356e565b92505081905550600a806114439190613523565b8261144e9190613199565b600f60003373ffffffffffffffffffffffffffffffffffffffff1673ffffffffffffffffffffffffffffffffffffffff168152602001908152602001600020600082825461149c91906131f3565b92505081905550600660009054906101000a900473ffffffffffffffffffffffffffffffffffffffff1673ffffffffffffffffffffffffffffffffffffffff1663a9059cbb33846040518363ffffffff1660e01b8152600401611500929190613785565b6020604051808303816000875af115801561151f573d6000803e3d6000fd5b505050506040513d601f19601f8201168201806040525081019061154391906137c3565b50600760009054906101000a900473ffffffffffffffffffffffffffffffffffffffff1673ffffffffffffffffffffffffffffffffffffffff16639dc29fac33836040518363ffffffff1660e01b81526004016115a1929190613785565b600060405180830381600087803b1580156115bb57600080fd5b505af11580156115cf573d6000803e3d6000fd5b505050506115db611f7f565b6115e3611e28565b50600160008190555050565b60006116026115fc6120d6565b836121f0565b9050919050565b60008060006116188585612223565b91509150600060048111156116305761162f6137f0565b5b816004811115611643576116426137f0565b5b14801561167b57508573ffffffffffffffffffffffffffffffffffffffff168273ffffffffffffffffffffffffffffffffffffffff16145b1561168b576001925050506117e7565b6000808773ffffffffffffffffffffffffffffffffffffffff16631626ba7e60e01b88886040516024016116c09291906138a7565b604051602081830303815290604052907bffffffffffffffffffffffffffffffffffffffffffffffffffffffff19166020820180517bffffffffffffffffffffffffffffffffffffffffffffffffffffffff838183161783525050505060405161172a9190613913565b600060405180830381855afa9150503d8060008114611765576040519150601f19603f3d011682016040523d82523d6000602084013e61176a565b606091505b509150915081801561177d575060208151145b80156117e05750631626ba7e60e01b7bffffffffffffffffffffffffffffffffffffffffffffffffffffffff1916818060200190518101906117bf919061393f565b7bffffffffffffffffffffffffffffffffffffffffffffffffffffffff1916145b9450505050505b9392505050565b60086000015481600001511461180c5761180b81600001516122a6565b5b60086001015481602001511461182a5761182981602001516122c4565b5b50565b60026000541415611873576040517f08c379a000000000000000000000000000000000000000000000000000000000815260040161186a90613364565b60405180910390fd5b60026000819055506000811180156119265750600660009054906101000a900473ffffffffffffffffffffffffffffffffffffffff1673ffffffffffffffffffffffffffffffffffffffff166370a08231336040518263ffffffff1660e01b81526004016118e191906132bb565b602060405180830381865afa1580156118fe573d6000803e3d6000fd5b505050506040513d601f19601f8201168201806040525081019061192291906132eb565b8111155b611965576040517f08c379a000000000000000000000000000000000000000000000000000000000815260040161195c906139b8565b60405180910390fd5b600a806119729190613523565b8161197d9190613199565b6003600082825461198e9190613143565b92505081905550600a806119a29190613523565b816119ad9190613199565b600560008282546119be9190613227565b92505081905550600a806119d29190613523565b816119dd9190613199565b600f60003373ffffffffffffffffffffffffffffffffffffffff1673ffffffffffffffffffffffffffffffffffffffff1681526020019081526020016000206000828254611a2b9190613143565b92505081905550600660009054906101000a900473ffffffffffffffffffffffffffffffffffffffff1673ffffffffffffffffffffffffffffffffffffffff166323b872dd3330846040518463ffffffff1660e01b8152600401611a91939291906139d8565b6020604051808303816000875af1158015611ab0573d6000803e3d6000fd5b505050506040513d601f19601f82011682018060405250810190611ad491906137c3565b506000600c546012600a611ae89190613523565b600a80611af59190613523565b84611b009190613199565b611b0a9190613199565b611b149190613112565b9050600760009054906101000a900473ffffffffffffffffffffffffffffffffffffffff1673ffffffffffffffffffffffffffffffffffffffff166340c10f1933836040518363ffffffff1660e01b8152600401611b73929190613785565b600060405180830381600087803b158015611b8d57600080fd5b505af1158015611ba1573d6000803e3d6000fd5b50505050611bad611e28565b611bb5611f7f565b50600160008190555050565b600033905090565b611bd38282610caf565b611c6257611bf88173ffffffffffffffffffffffffffffffffffffffff1660146122d1565b611c068360001c60206122d1565b604051602001611c17929190613aee565b6040516020818303038152906040526040517f08c379a0000000000000000000000000000000000000000000000000000000008152600401611c599190613b61565b60405180910390fd5b5050565b611c708282610caf565b611d4257600180600084815260200190815260200160002060000160008373ffffffffffffffffffffffffffffffffffffffff1673ffffffffffffffffffffffffffffffffffffffff16815260200190815260200160002060006101000a81548160ff021916908315150217905550611ce7611bc1565b73ffffffffffffffffffffffffffffffffffffffff168173ffffffffffffffffffffffffffffffffffffffff16837f2f8788117e7eff1d82e926ec794901d17c78024a50270940304540a733656f0d60405160405180910390a45b5050565b611d508282610caf565b15611e245760006001600084815260200190815260200160002060000160008373ffffffffffffffffffffffffffffffffffffffff1673ffffffffffffffffffffffffffffffffffffffff16815260200190815260200160002060006101000a81548160ff021916908315150217905550611dc9611bc1565b73ffffffffffffffffffffffffffffffffffffffff168173ffffffffffffffffffffffffffffffffffffffff16837ff6391f5c32d9c69d2a47ea670b442974b53935d1edc7fd64eb21e047a839171b60405160405180910390a45b5050565b6000600760009054906101000a900473ffffffffffffffffffffffffffffffffffffffff1673ffffffffffffffffffffffffffffffffffffffff166318160ddd6040518163ffffffff1660e01b8152600401602060405180830381865afa158015611e97573d6000803e3d6000fd5b505050506040513d601f19601f82011682018060405250810190611ebb91906132eb565b14611f7d57600760009054906101000a900473ffffffffffffffffffffffffffffffffffffffff1673ffffffffffffffffffffffffffffffffffffffff166318160ddd6040518163ffffffff1660e01b8152600401602060405180830381865afa158015611f2d573d6000803e3d6000fd5b505050506040513d601f19601f82011682018060405250810190611f5191906132eb565b6012600a611f5f9190613523565b600554611f6c9190613199565b611f769190613112565b600c819055505b565b6000600760009054906101000a900473ffffffffffffffffffffffffffffffffffffffff1673ffffffffffffffffffffffffffffffffffffffff166318160ddd6040518163ffffffff1660e01b8152600401602060405180830381865afa158015611fee573d6000803e3d6000fd5b505050506040513d601f19601f8201168201806040525081019061201291906132eb565b146120d457600760009054906101000a900473ffffffffffffffffffffffffffffffffffffffff1673ffffffffffffffffffffffffffffffffffffffff166318160ddd6040518163ffffffff1660e01b8152600401602060405180830381865afa158015612084573d6000803e3d6000fd5b505050506040513d601f19601f820116820180604052508101906120a891906132eb565b6012600a6120b69190613523565b6003546120c39190613199565b6120cd9190613112565b600d819055505b565b60007f000000000000000000000000000000000000000000000000000000000000000073ffffffffffffffffffffffffffffffffffffffff163073ffffffffffffffffffffffffffffffffffffffff1614801561215257507f000000000000000000000000000000000000000000000000000000000000000046145b1561217f577f000000000000000000000000000000000000000000000000000000000000000090506121ed565b6121ea7f00000000000000000000000000000000000000000000000000000000000000007f00000000000000000000000000000000000000000000000000000000000000007f000000000000000000000000000000000000000000000000000000000000000061250d565b90505b90565b60008282604051602001612205929190613bf0565b60405160208183030381529060405280519060200120905092915050565b6000806041835114156122655760008060006020860151925060408601519150606086015160001a905061225987828585612547565b9450945050505061229f565b60408351141561229657600080602085015191506040850151905061228b868383612654565b93509350505061229f565b60006002915091505b9250929050565b6122af816126a2565b806008600001819055506122c1611e28565b50565b8060086001018190555050565b6060600060028360026122e49190613199565b6122ee9190613143565b67ffffffffffffffff81111561230757612306612856565b5b6040519080825280601f01601f1916602001820160405280156123395781602001600182028036833780820191505090505b5090507f30000000000000000000000000000000000000000000000000000000000000008160008151811061237157612370613c27565b5b60200101907effffffffffffffffffffffffffffffffffffffffffffffffffffffffffffff1916908160001a9053507f7800000000000000000000000000000000000000000000000000000000000000816001815181106123d5576123d4613c27565b5b60200101907effffffffffffffffffffffffffffffffffffffffffffffffffffffffffffff1916908160001a905350600060018460026124159190613199565b61241f9190613143565b90505b60018111156124bf577f3031323334353637383961626364656600000000000000000000000000000000600f86166010811061246157612460613c27565b5b1a60f81b82828151811061247857612477613c27565b5b60200101907effffffffffffffffffffffffffffffffffffffffffffffffffffffffffffff1916908160001a905350600485901c9450806124b890613c56565b9050612422565b5060008414612503576040517f08c379a00000000000000000000000000000000000000000000000000000000081526004016124fa90613ccc565b60405180910390fd5b8091505092915050565b60008383834630604051602001612528959493929190613cec565b6040516020818303038152906040528051906020012090509392505050565b6000807f7fffffffffffffffffffffffffffffff5d576e7357a4501ddfe92f46681b20a08360001c111561258257600060039150915061264b565b601b8560ff161415801561259a5750601c8560ff1614155b156125ac57600060049150915061264b565b6000600187878787604051600081526020016040526040516125d19493929190613d5b565b6020604051602081039080840390855afa1580156125f3573d6000803e3d6000fd5b505050602060405103519050600073ffffffffffffffffffffffffffffffffffffffff168173ffffffffffffffffffffffffffffffffffffffff1614156126425760006001925092505061264b565b80600092509250505b94509492505050565b6000806000807f7fffffffffffffffffffffffffffffffffffffffffffffffffffffffffffffff85169150601b8560ff1c01905061269487828885612547565b935093505050935093915050565b600060086000015414156126ce5780600560008282546126c29190613227565b92505081905550612706565b600860000154600560008282546126e5919061356e565b9250508190555080600560008282546126fe9190613227565b925050819055505b50565b6000604051905090565b600080fd5b600080fd5b60007fffffffff0000000000000000000000000000000000000000000000000000000082169050919050565b6127528161271d565b811461275d57600080fd5b50565b60008135905061276f81612749565b92915050565b60006020828403121561278b5761278a612713565b5b600061279984828501612760565b91505092915050565b60008115159050919050565b6127b7816127a2565b82525050565b60006020820190506127d260008301846127ae565b92915050565b6000819050919050565b6127eb816127d8565b81146127f657600080fd5b50565b600081359050612808816127e2565b92915050565b60006020828403121561282457612823612713565b5b6000612832848285016127f9565b91505092915050565b600080fd5b600080fd5b6000601f19601f8301169050919050565b7f4e487b7100000000000000000000000000000000000000000000000000000000600052604160045260246000fd5b61288e82612845565b810181811067ffffffffffffffff821117156128ad576128ac612856565b5b80604052505050565b60006128c0612709565b90506128cc8282612885565b919050565b600067ffffffffffffffff8211156128ec576128eb612856565b5b6128f582612845565b9050602081019050919050565b82818337600083830152505050565b600061292461291f846128d1565b6128b6565b9050828152602081018484840111156129405761293f612840565b5b61294b848285612902565b509392505050565b600082601f8301126129685761296761283b565b5b8135612978848260208601612911565b91505092915050565b600080fd5b6000819050919050565b61299981612986565b81146129a457600080fd5b50565b6000813590506129b681612990565b92915050565b600073ffffffffffffffffffffffffffffffffffffffff82169050919050565b60006129e7826129bc565b9050919050565b6129f7816129dc565b8114612a0257600080fd5b50565b600081359050612a14816129ee565b92915050565b600060808284031215612a3057612a2f612981565b5b612a3a60806128b6565b90506000612a4a848285016129a7565b6000830152506020612a5e848285016129a7565b6020830152506040612a72848285016127f9565b6040830152506060612a8684828501612a05565b60608301525092915050565b600080600060c08486031215612aab57612aaa612713565b5b6000612ab9868287016127f9565b935050602084013567ffffffffffffffff811115612ada57612ad9612718565b5b612ae686828701612953565b9250506040612af786828701612a1a565b9150509250925092565b6000819050919050565b612b1481612b01565b8114612b1f57600080fd5b50565b600081359050612b3181612b0b565b92915050565b600060208284031215612b4d57612b4c612713565b5b6000612b5b84828501612b22565b91505092915050565b612b6d81612b01565b82525050565b6000602082019050612b886000830184612b64565b92915050565b60008060408385031215612ba557612ba4612713565b5b6000612bb385828601612b22565b9250506020612bc485828601612a05565b9150509250929050565b612bd7816127d8565b82525050565b6000602082019050612bf26000830184612bce565b92915050565b612c01816127a2565b8114612c0c57600080fd5b50565b600081359050612c1e81612bf8565b92915050565b60008060408385031215612c3b57612c3a612713565b5b6000612c4985828601612c0f565b9250506020612c5a858286016127f9565b9150509250929050565b612c6d81612986565b82525050565b6000602082019050612c886000830184612c64565b92915050565b600060208284031215612ca457612ca3612713565b5b6000612cb284828501612a05565b91505092915050565b60008060a08385031215612cd257612cd1612713565b5b600083013567ffffffffffffffff811115612cf057612cef612718565b5b612cfc85828601612953565b9250506020612d0d85828601612a1a565b9150509250929050565b612d20816129dc565b82525050565b6000608082019050612d3b6000830187612c64565b612d486020830186612c64565b612d556040830185612bce565b612d626060830184612d17565b95945050505050565b600060c082019050612d806000830189612b64565b612d8d6020830188612d17565b612d9a6040830187612c64565b612da76060830186612c64565b612db46080830185612bce565b612dc160a0830184612bce565b979650505050505050565b600082825260208201905092915050565b7f486f757365506f6f6c574254433a20696e76616c6964207369676e6174757265600082015250565b6000612e13602083612dcc565b9150612e1e82612ddd565b602082019050919050565b60006020820190508181036000830152612e4281612e06565b9050919050565b7f486f757365506f6f6c574254433a20696e76616c6964207369676e6572000000600082015250565b6000612e7f601d83612dcc565b9150612e8a82612e49565b602082019050919050565b60006020820190508181036000830152612eae81612e72565b9050919050565b7f486f757365506f6f6c574254433a20756e617574686f7269736564207369676e60008201527f6572000000000000000000000000000000000000000000000000000000000000602082015250565b6000612f11602283612dcc565b9150612f1c82612eb5565b604082019050919050565b60006020820190508181036000830152612f4081612f04565b9050919050565b7f486f757365506f6f6c574254433a207369676e6564207472616e73616374696f60008201527f6e20657870697265640000000000000000000000000000000000000000000000602082015250565b6000612fa3602983612dcc565b9150612fae82612f47565b604082019050919050565b60006020820190508181036000830152612fd281612f96565b9050919050565b7f4e487b7100000000000000000000000000000000000000000000000000000000600052601160045260246000fd5b6000613013826127d8565b91507fffffffffffffffffffffffffffffffffffffffffffffffffffffffffffffffff82141561304657613045612fd9565b5b600182019050919050565b7f416363657373436f6e74726f6c3a2063616e206f6e6c792072656e6f756e636560008201527f20726f6c657320666f722073656c660000000000000000000000000000000000602082015250565b60006130ad602f83612dcc565b91506130b882613051565b604082019050919050565b600060208201905081810360008301526130dc816130a0565b9050919050565b7f4e487b7100000000000000000000000000000000000000000000000000000000600052601260045260246000fd5b600061311d826127d8565b9150613128836127d8565b925082613138576131376130e3565b5b828204905092915050565b600061314e826127d8565b9150613159836127d8565b9250827fffffffffffffffffffffffffffffffffffffffffffffffffffffffffffffffff0382111561318e5761318d612fd9565b5b828201905092915050565b60006131a4826127d8565b91506131af836127d8565b9250817fffffffffffffffffffffffffffffffffffffffffffffffffffffffffffffffff04831182151516156131e8576131e7612fd9565b5b828202905092915050565b60006131fe826127d8565b9150613209836127d8565b92508282101561321c5761321b612fd9565b5b828203905092915050565b600061323282612986565b915061323d83612986565b9250817f7fffffffffffffffffffffffffffffffffffffffffffffffffffffffffffffff0383136000831215161561327857613277612fd9565b5b817f80000000000000000000000000000000000000000000000000000000000000000383126000831216156132b0576132af612fd9565b5b828201905092915050565b60006020820190506132d06000830184612d17565b92915050565b6000815190506132e5816127e2565b92915050565b60006020828403121561330157613300612713565b5b600061330f848285016132d6565b91505092915050565b7f5265656e7472616e637947756172643a207265656e7472616e742063616c6c00600082015250565b600061334e601f83612dcc565b915061335982613318565b602082019050919050565b6000602082019050818103600083015261337d81613341565b9050919050565b7f57425443486f757365506f6f6c3a205a65726f20416d6f756e74000000000000600082015250565b60006133ba601a83612dcc565b91506133c582613384565b602082019050919050565b600060208201905081810360008301526133e9816133ad565b9050919050565b60008160011c9050919050565b6000808291508390505b60018511156134475780860481111561342357613422612fd9565b5b60018516156134325780820291505b8081029050613440856133f0565b9450613407565b94509492505050565b600082613460576001905061351c565b8161346e576000905061351c565b8160018114613484576002811461348e576134bd565b600191505061351c565b60ff8411156134a05761349f612fd9565b5b8360020a9150848211156134b7576134b6612fd9565b5b5061351c565b5060208310610133831016604e8410600b84101617156134f25782820a9050838111156134ed576134ec612fd9565b5b61351c565b6134ff84848460016133fd565b9250905081840481111561351657613515612fd9565b5b81810290505b9392505050565b600061352e826127d8565b9150613539836127d8565b92506135667fffffffffffffffffffffffffffffffffffffffffffffffffffffffffffffffff8484613450565b905092915050565b600061357982612986565b915061358483612986565b9250827f8000000000000000000000000000000000000000000000000000000000000000018212600084121516156135bf576135be612fd9565b5b827f7fffffffffffffffffffffffffffffffffffffffffffffffffffffffffffffff0182136000841216156135f7576135f6612fd9565b5b828203905092915050565b600061360d82612986565b915061361883612986565b9250827f7fffffffffffffffffffffffffffffffffffffffffffffffffffffffffffffff048211600084136000841316161561365757613656612fd9565b5b817f8000000000000000000000000000000000000000000000000000000000000000058312600084126000841316161561369457613693612fd9565b5b827f800000000000000000000000000000000000000000000000000000000000000005821260008413600084121616156136d1576136d0612fd9565b5b827f7fffffffffffffffffffffffffffffffffffffffffffffffffffffffffffffff058212600084126000841216161561370e5761370d612fd9565b5b828202905092915050565b7f57425443486f757365506f6f6c203a2063616e27742077697468647261770000600082015250565b600061374f601e83612dcc565b915061375a82613719565b602082019050919050565b6000602082019050818103600083015261377e81613742565b9050919050565b600060408201905061379a6000830185612d17565b6137a76020830184612bce565b9392505050565b6000815190506137bd81612bf8565b92915050565b6000602082840312156137d9576137d8612713565b5b60006137e7848285016137ae565b91505092915050565b7f4e487b7100000000000000000000000000000000000000000000000000000000600052602160045260246000fd5b600081519050919050565b600082825260208201905092915050565b60005b8381101561385957808201518184015260208101905061383e565b83811115613868576000848401525b50505050565b60006138798261381f565b613883818561382a565b935061389381856020860161383b565b61389c81612845565b840191505092915050565b60006040820190506138bc6000830185612b64565b81810360208301526138ce818461386e565b90509392505050565b600081905092915050565b60006138ed8261381f565b6138f781856138d7565b935061390781856020860161383b565b80840191505092915050565b600061391f82846138e2565b915081905092915050565b60008151905061393981612749565b92915050565b60006020828403121561395557613954612713565b5b60006139638482850161392a565b91505092915050565b7f57425443486f757365506f6f6c3a20436865636b207468652042616c616e6365600082015250565b60006139a2602083612dcc565b91506139ad8261396c565b602082019050919050565b600060208201905081810360008301526139d181613995565b9050919050565b60006060820190506139ed6000830186612d17565b6139fa6020830185612d17565b613a076040830184612bce565b949350505050565b600081905092915050565b7f416363657373436f6e74726f6c3a206163636f756e7420000000000000000000600082015250565b6000613a50601783613a0f565b9150613a5b82613a1a565b601782019050919050565b600081519050919050565b6000613a7c82613a66565b613a868185613a0f565b9350613a9681856020860161383b565b80840191505092915050565b7f206973206d697373696e6720726f6c6520000000000000000000000000000000600082015250565b6000613ad8601183613a0f565b9150613ae382613aa2565b601182019050919050565b6000613af982613a43565b9150613b058285613a71565b9150613b1082613acb565b9150613b1c8284613a71565b91508190509392505050565b6000613b3382613a66565b613b3d8185612dcc565b9350613b4d81856020860161383b565b613b5681612845565b840191505092915050565b60006020820190508181036000830152613b7b8184613b28565b905092915050565b7f1901000000000000000000000000000000000000000000000000000000000000600082015250565b6000613bb9600283613a0f565b9150613bc482613b83565b600282019050919050565b6000819050919050565b613bea613be582612b01565b613bcf565b82525050565b6000613bfb82613bac565b9150613c078285613bd9565b602082019150613c178284613bd9565b6020820191508190509392505050565b7f4e487b7100000000000000000000000000000000000000000000000000000000600052603260045260246000fd5b6000613c61826127d8565b91506000821415613c7557613c74612fd9565b5b600182039050919050565b7f537472696e67733a20686578206c656e67746820696e73756666696369656e74600082015250565b6000613cb6602083612dcc565b9150613cc182613c80565b602082019050919050565b60006020820190508181036000830152613ce581613ca9565b9050919050565b600060a082019050613d016000830188612b64565b613d0e6020830187612b64565b613d1b6040830186612b64565b613d286060830185612bce565b613d356080830184612d17565b9695505050505050565b600060ff82169050919050565b613d5581613d3f565b82525050565b6000608082019050613d706000830187612b64565b613d7d6020830186613d4c565b613d8a6040830185612b64565b613d976060830184612b64565b9594505050505056fea26469706673582212202015f976edd327267eaa70fecc766c872f8f290be601a7dcc03d7d632658a20064736f6c634300080a0033",
  "linkReferences": {},
  "deployedLinkReferences": {}
}