{
  "_format": "hh-sol-artifact-1",
  "contractName": "HousePoolWBTC",
  "sourceName": "contracts/HousePoolWBTC.sol",
  "abi": [
    {
      "anonymous": false,
      "inputs": [
        {
          "indexed": true,
          "internalType": "bytes32",
          "name": "role",
          "type": "bytes32"
        },
        {
          "indexed": true,
          "internalType": "bytes32",
          "name": "previousAdminRole",
          "type": "bytes32"
        },
        {
          "indexed": true,
          "internalType": "bytes32",
          "name": "newAdminRole",
          "type": "bytes32"
        }
      ],
      "name": "RoleAdminChanged",
      "type": "event"
    },
    {
      "anonymous": false,
      "inputs": [
        {
          "indexed": true,
          "internalType": "bytes32",
          "name": "role",
          "type": "bytes32"
        },
        {
          "indexed": true,
          "internalType": "address",
          "name": "account",
          "type": "address"
        },
        {
          "indexed": true,
          "internalType": "address",
          "name": "sender",
          "type": "address"
        }
      ],
      "name": "RoleGranted",
      "type": "event"
    },
    {
      "anonymous": false,
      "inputs": [
        {
          "indexed": true,
          "internalType": "bytes32",
          "name": "role",
          "type": "bytes32"
        },
        {
          "indexed": true,
          "internalType": "address",
          "name": "account",
          "type": "address"
        },
        {
          "indexed": true,
          "internalType": "address",
          "name": "sender",
          "type": "address"
        }
      ],
      "name": "RoleRevoked",
      "type": "event"
    },
    {
      "inputs": [],
      "name": "DATA_PROVIDER_ORACLE",
      "outputs": [
        {
          "internalType": "bytes32",
          "name": "",
          "type": "bytes32"
        }
      ],
      "stateMutability": "view",
      "type": "function"
    },
    {
      "inputs": [],
      "name": "DEFAULT_ADMIN_ROLE",
      "outputs": [
        {
          "internalType": "bytes32",
          "name": "",
          "type": "bytes32"
        }
      ],
      "stateMutability": "view",
      "type": "function"
    },
    {
      "inputs": [],
      "name": "HOUSE_POOL_DATA_PROVIDER",
      "outputs": [
        {
          "internalType": "bytes32",
          "name": "",
          "type": "bytes32"
        }
      ],
      "stateMutability": "view",
      "type": "function"
    },
    {
      "inputs": [
        {
          "internalType": "uint256",
          "name": "amountWBTC",
          "type": "uint256"
        },
        {
          "internalType": "bytes",
          "name": "approval",
          "type": "bytes"
        },
        {
          "components": [
            {
              "internalType": "int256",
              "name": "expectedValue",
              "type": "int256"
            },
            {
              "internalType": "int256",
              "name": "maxExposure",
              "type": "int256"
            },
            {
              "internalType": "uint256",
              "name": "deadline",
              "type": "uint256"
            },
            {
              "internalType": "address",
              "name": "signer",
              "type": "address"
            }
          ],
          "internalType": "struct HousePoolWBTC.ValuesOfInterest",
          "name": "approvedValues",
          "type": "tuple"
        }
      ],
      "name": "deposit",
      "outputs": [],
      "stateMutability": "nonpayable",
      "type": "function"
    },
    {
      "inputs": [
        {
          "internalType": "uint256",
          "name": "WBTCMicro",
          "type": "uint256"
        }
      ],
      "name": "deposit_",
      "outputs": [],
      "stateMutability": "nonpayable",
      "type": "function"
    },
    {
      "inputs": [],
      "name": "getEV",
      "outputs": [
        {
          "internalType": "int256",
          "name": "",
          "type": "int256"
        }
      ],
      "stateMutability": "view",
      "type": "function"
    },
    {
      "inputs": [],
      "name": "getLiquidityStatus",
      "outputs": [
        {
          "internalType": "uint256",
          "name": "",
          "type": "uint256"
        }
      ],
      "stateMutability": "view",
      "type": "function"
    },
    {
      "inputs": [],
      "name": "getMaxExposure",
      "outputs": [
        {
          "internalType": "int256",
          "name": "",
          "type": "int256"
        }
      ],
      "stateMutability": "view",
      "type": "function"
    },
    {
      "inputs": [
        {
          "internalType": "address",
          "name": "_user",
          "type": "address"
        }
      ],
      "name": "getMyLiquidity",
      "outputs": [
        {
          "internalType": "uint256",
          "name": "",
          "type": "uint256"
        }
      ],
      "stateMutability": "view",
      "type": "function"
    },
    {
      "inputs": [
        {
          "internalType": "bytes32",
          "name": "role",
          "type": "bytes32"
        }
      ],
      "name": "getRoleAdmin",
      "outputs": [
        {
          "internalType": "bytes32",
          "name": "",
          "type": "bytes32"
        }
      ],
      "stateMutability": "view",
      "type": "function"
    },
    {
      "inputs": [],
      "name": "getTVLofPool",
      "outputs": [
        {
          "internalType": "int256",
          "name": "",
          "type": "int256"
        }
      ],
      "stateMutability": "view",
      "type": "function"
    },
    {
      "inputs": [],
      "name": "getTokenPrice",
      "outputs": [
        {
          "internalType": "uint256",
          "name": "",
          "type": "uint256"
        }
      ],
      "stateMutability": "view",
      "type": "function"
    },
    {
      "inputs": [],
      "name": "getTokenWithdrawlPrice",
      "outputs": [
        {
          "internalType": "uint256",
          "name": "",
          "type": "uint256"
        }
      ],
      "stateMutability": "view",
      "type": "function"
    },
    {
      "inputs": [],
      "name": "getTreasuryAmount",
      "outputs": [
        {
          "internalType": "uint256",
          "name": "",
          "type": "uint256"
        }
      ],
      "stateMutability": "view",
      "type": "function"
    },
    {
      "inputs": [
        {
          "internalType": "bytes32",
          "name": "role",
          "type": "bytes32"
        },
        {
          "internalType": "address",
          "name": "account",
          "type": "address"
        }
      ],
      "name": "grantRole",
      "outputs": [],
      "stateMutability": "nonpayable",
      "type": "function"
    },
    {
      "inputs": [
        {
          "internalType": "bytes32",
          "name": "role",
          "type": "bytes32"
        },
        {
          "internalType": "address",
          "name": "account",
          "type": "address"
        }
      ],
      "name": "hasRole",
      "outputs": [
        {
          "internalType": "bool",
          "name": "",
          "type": "bool"
        }
      ],
      "stateMutability": "view",
      "type": "function"
    },
    {
      "inputs": [
        {
          "internalType": "address",
          "name": "_owner",
          "type": "address"
        },
        {
          "internalType": "address",
          "name": "_WBTC",
          "type": "address"
        },
        {
          "internalType": "address",
          "name": "_claimToken",
          "type": "address"
        },
        {
          "internalType": "string",
          "name": "_name",
          "type": "string"
        },
        {
          "internalType": "string",
          "name": "_version",
          "type": "string"
        }
      ],
      "name": "initialize",
      "outputs": [],
      "stateMutability": "nonpayable",
      "type": "function"
    },
    {
      "inputs": [],
      "name": "lpTokenPrice",
      "outputs": [
        {
          "internalType": "uint256",
          "name": "",
          "type": "uint256"
        }
      ],
      "stateMutability": "view",
      "type": "function"
    },
    {
      "inputs": [],
      "name": "lpTokenWithdrawlPrice",
      "outputs": [
        {
          "internalType": "uint256",
          "name": "",
          "type": "uint256"
        }
      ],
      "stateMutability": "view",
      "type": "function"
    },
    {
      "inputs": [
        {
          "internalType": "bytes32",
          "name": "role",
          "type": "bytes32"
        },
        {
          "internalType": "address",
          "name": "account",
          "type": "address"
        }
      ],
      "name": "renounceRole",
      "outputs": [],
      "stateMutability": "nonpayable",
      "type": "function"
    },
    {
      "inputs": [
        {
          "internalType": "bytes32",
          "name": "role",
          "type": "bytes32"
        },
        {
          "internalType": "address",
          "name": "account",
          "type": "address"
        }
      ],
      "name": "revokeRole",
      "outputs": [],
      "stateMutability": "nonpayable",
      "type": "function"
    },
    {
      "inputs": [
        {
          "internalType": "bytes",
          "name": "sig_",
          "type": "bytes"
        },
        {
          "components": [
            {
              "internalType": "int256",
              "name": "expectedValue",
              "type": "int256"
            },
            {
              "internalType": "int256",
              "name": "maxExposure",
              "type": "int256"
            },
            {
              "internalType": "uint256",
              "name": "deadline",
              "type": "uint256"
            },
            {
              "internalType": "address",
              "name": "signer",
              "type": "address"
            }
          ],
          "internalType": "struct HousePoolWBTC.ValuesOfInterest",
          "name": "voi_",
          "type": "tuple"
        }
      ],
      "name": "setVOI",
      "outputs": [],
      "stateMutability": "nonpayable",
      "type": "function"
    },
    {
      "inputs": [
        {
          "internalType": "bytes4",
          "name": "interfaceId",
          "type": "bytes4"
        }
      ],
      "name": "supportsInterface",
      "outputs": [
        {
          "internalType": "bool",
          "name": "",
          "type": "bool"
        }
      ],
      "stateMutability": "view",
      "type": "function"
    },
    {
      "inputs": [],
      "name": "voi",
      "outputs": [
        {
          "internalType": "int256",
          "name": "expectedValue",
          "type": "int256"
        },
        {
          "internalType": "int256",
          "name": "maxExposure",
          "type": "int256"
        },
        {
          "internalType": "uint256",
          "name": "deadline",
          "type": "uint256"
        },
        {
          "internalType": "address",
          "name": "signer",
          "type": "address"
        }
      ],
      "stateMutability": "view",
      "type": "function"
    },
    {
      "inputs": [
        {
          "internalType": "uint256",
          "name": "amountWBTC",
          "type": "uint256"
        },
        {
          "internalType": "bytes",
          "name": "approval",
          "type": "bytes"
        },
        {
          "components": [
            {
              "internalType": "int256",
              "name": "expectedValue",
              "type": "int256"
            },
            {
              "internalType": "int256",
              "name": "maxExposure",
              "type": "int256"
            },
            {
              "internalType": "uint256",
              "name": "deadline",
              "type": "uint256"
            },
            {
              "internalType": "address",
              "name": "signer",
              "type": "address"
            }
          ],
          "internalType": "struct HousePoolWBTC.ValuesOfInterest",
          "name": "approvedValues",
          "type": "tuple"
        }
      ],
      "name": "withdraw",
      "outputs": [],
      "stateMutability": "nonpayable",
      "type": "function"
    },
    {
      "inputs": [
        {
          "internalType": "uint256",
          "name": "WBTCMicro",
          "type": "uint256"
        }
      ],
      "name": "withdraw_",
      "outputs": [],
      "stateMutability": "nonpayable",
      "type": "function"
    }
  ],
  "bytecode": "0x60806040526000606a5534801561001557600080fd5b5061445b806100256000396000f3fe608060405234801561001057600080fd5b506004361061018e5760003560e01c8063639c066d116100de578063b3ce252411610097578063cd08a1df11610071578063cd08a1df14610462578063d547741f14610480578063d75d07c21461049c578063e20fcf00146104ba5761018e565b8063b3ce252414610405578063be1cd71214610423578063c52cbd34146104445761018e565b8063639c066d1461033357806383b435891461034f57806391d148541461036b578063a1cd22321461039b578063a217fddf146103cb578063a43f3241146103e95761018e565b806336568abe1161014b5780634b94f50e116101255780634b94f50e146102bb578063508c81a2146102d957806353f52847146102f75780635a5d6223146103155761018e565b806336568abe146102635780633c0717fd1461027f578063454175c01461029d5761018e565b806301ffc9a7146101935780630f5a5e18146101c357806320ab7449146101df578063218f296e146101fb578063248a9ca3146102175780632f2ff15d14610247575b600080fd5b6101ad60048036038101906101a89190612a90565b6104d8565b6040516101ba9190612ad8565b60405180910390f35b6101dd60048036038101906101d89190612b29565b610552565b005b6101f960048036038101906101f49190612dad565b61055e565b005b61021560048036038101906102109190612dad565b61079f565b005b610231600480360381019061022c9190612e52565b6109e0565b60405161023e9190612e8e565b60405180910390f35b610261600480360381019061025c9190612ea9565b610a00565b005b61027d60048036038101906102789190612ea9565b610a29565b005b610287610aac565b6040516102949190612ef8565b60405180910390f35b6102a5610ab6565b6040516102b29190612ef8565b60405180910390f35b6102c3610abc565b6040516102d09190612ef8565b60405180910390f35b6102e1610ac6565b6040516102ee9190612e8e565b60405180910390f35b6102ff610aea565b60405161030c9190612f22565b60405180910390f35b61031d610af4565b60405161032a9190612f22565b60405180910390f35b61034d60048036038101906103489190612b29565b610b01565b005b61036960048036038101906103649190612fde565b610b0d565b005b61038560048036038101906103809190612ea9565b610ce7565b6040516103929190612ad8565b60405180910390f35b6103b560048036038101906103b09190613091565b610d52565b6040516103c29190612ef8565b60405180910390f35b6103d3610e1c565b6040516103e09190612e8e565b60405180910390f35b61040360048036038101906103fe91906130be565b610e23565b005b61040d61108d565b60405161041a9190612ef8565b60405180910390f35b61042b611097565b60405161043b9493929190613129565b60405180910390f35b61044c6110d5565b6040516104599190612ef8565b60405180910390f35b61046a6110db565b6040516104779190612f22565b60405180910390f35b61049a60048036038101906104959190612ea9565b6110e8565b005b6104a4611111565b6040516104b19190612e8e565b60405180910390f35b6104c2611135565b6040516104cf9190612ef8565b60405180910390f35b60007f7965db0b000000000000000000000000000000000000000000000000000000007bffffffffffffffffffffffffffffffffffffffffffffffffffffffff1916827bffffffffffffffffffffffffffffffffffffffffffffffffffffffff1916148061054b575061054a8261113f565b5b9050919050565b61055b816111a9565b50565b8082600061060e7f382f778b38ac8a684a068262bd90ef9739279743851e0bc20a2bf85f56a2550c84606001518560000151866020015160746000896060015173ffffffffffffffffffffffffffffffffffffffff1673ffffffffffffffffffffffffffffffffffffffff1681526020019081526020016000205488604001516040516020016105f39695949392919061316e565b6040516020818303038152906040528051906020012061158e565b905061061f836060015182846115a8565b61065e576040517f08c379a00000000000000000000000000000000000000000000000000000000081526004016106559061322c565b60405180910390fd5b600073ffffffffffffffffffffffffffffffffffffffff16836060015173ffffffffffffffffffffffffffffffffffffffff1614156106d2576040517f08c379a00000000000000000000000000000000000000000000000000000000081526004016106c990613298565b60405180910390fd5b6107007feed754290b7b7033469899aa55827c9480fc90a4843b45b7f455d0ac50d3e6ce8460600151610ce7565b61073f576040517f08c379a00000000000000000000000000000000000000000000000000000000081526004016107369061332a565b60405180910390fd5b82604001514310610785576040517f08c379a000000000000000000000000000000000000000000000000000000000815260040161077c906133bc565b60405180910390fd5b61078e8461178d565b610797866111a9565b505050505050565b8082600061084f7f382f778b38ac8a684a068262bd90ef9739279743851e0bc20a2bf85f56a2550c84606001518560000151866020015160746000896060015173ffffffffffffffffffffffffffffffffffffffff1673ffffffffffffffffffffffffffffffffffffffff1681526020019081526020016000205488604001516040516020016108349695949392919061316e565b6040516020818303038152906040528051906020012061158e565b9050610860836060015182846115a8565b61089f576040517f08c379a00000000000000000000000000000000000000000000000000000000081526004016108969061322c565b60405180910390fd5b600073ffffffffffffffffffffffffffffffffffffffff16836060015173ffffffffffffffffffffffffffffffffffffffff161415610913576040517f08c379a000000000000000000000000000000000000000000000000000000000815260040161090a90613298565b60405180910390fd5b6109417feed754290b7b7033469899aa55827c9480fc90a4843b45b7f455d0ac50d3e6ce8460600151610ce7565b610980576040517f08c379a00000000000000000000000000000000000000000000000000000000081526004016109779061332a565b60405180910390fd5b826040015143106109c6576040517f08c379a00000000000000000000000000000000000000000000000000000000081526004016109bd906133bc565b60405180910390fd5b6109cf8461178d565b6109d8866117cc565b505050505050565b600060336000838152602001908152602001600020600101549050919050565b610a09826109e0565b610a1a81610a15611b0b565b611b13565b610a248383611bb0565b505050565b610a31611b0b565b73ffffffffffffffffffffffffffffffffffffffff168173ffffffffffffffffffffffffffffffffffffffff1614610a9e576040517f08c379a0000000000000000000000000000000000000000000000000000000008152600401610a959061344e565b60405180910390fd5b610aa88282611c91565b5050565b6000606954905090565b60735481565b6000607254905090565b7fce95e3899a3f9149fc26a34674875210907ee3c0dddf61ac603f89e90c1b5f9e81565b6000606b54905090565b6000606e60010154905090565b610b0a816117cc565b50565b600060019054906101000a900460ff16610b355760008054906101000a900460ff1615610b3e565b610b3d611d73565b5b610b7d576040517f08c379a0000000000000000000000000000000000000000000000000000000008152600401610b74906134e0565b60405180910390fd5b60008060019054906101000a900460ff161590508015610bcd576001600060016101000a81548160ff02191690831515021790555060016000806101000a81548160ff0219169083151502179055505b610bd78383611d84565b84606c60006101000a81548173ffffffffffffffffffffffffffffffffffffffff021916908373ffffffffffffffffffffffffffffffffffffffff16021790555083606d60006101000a81548173ffffffffffffffffffffffffffffffffffffffff021916908373ffffffffffffffffffffffffffffffffffffffff160217905550610c666000801b87611de1565b60026012610c74919061352f565b600a610c809190613696565b6001610c8c91906136e1565b60728190555060026012610ca0919061352f565b600a610cac9190613696565b6001610cb891906136e1565b6073819055508015610cdf5760008060016101000a81548160ff0219169083151502179055505b505050505050565b60006033600084815260200190815260200160002060000160008373ffffffffffffffffffffffffffffffffffffffff1673ffffffffffffffffffffffffffffffffffffffff16815260200190815260200160002060009054906101000a900460ff16905092915050565b60006012600a610d629190613696565b607254606d60009054906101000a900473ffffffffffffffffffffffffffffffffffffffff1673ffffffffffffffffffffffffffffffffffffffff166370a08231856040518263ffffffff1660e01b8152600401610dc0919061373b565b602060405180830381865afa158015610ddd573d6000803e3d6000fd5b505050506040513d601f19601f82011682018060405250810190610e01919061376b565b610e0b91906136e1565b610e1591906137c7565b9050919050565b6000801b81565b80826000610ed37f382f778b38ac8a684a068262bd90ef9739279743851e0bc20a2bf85f56a2550c84606001518560000151866020015160746000896060015173ffffffffffffffffffffffffffffffffffffffff1673ffffffffffffffffffffffffffffffffffffffff168152602001908152602001600020548860400151604051602001610eb89695949392919061316e565b6040516020818303038152906040528051906020012061158e565b9050610ee4836060015182846115a8565b610f23576040517f08c379a0000000000000000000000000000000000000000000000000000000008152600401610f1a9061322c565b60405180910390fd5b600073ffffffffffffffffffffffffffffffffffffffff16836060015173ffffffffffffffffffffffffffffffffffffffff161415610f97576040517f08c379a0000000000000000000000000000000000000000000000000000000008152600401610f8e90613298565b60405180910390fd5b610fc57feed754290b7b7033469899aa55827c9480fc90a4843b45b7f455d0ac50d3e6ce8460600151610ce7565b611004576040517f08c379a0000000000000000000000000000000000000000000000000000000008152600401610ffb9061332a565b60405180910390fd5b8260400151431061104a576040517f08c379a0000000000000000000000000000000000000000000000000000000008152600401611041906133bc565b60405180910390fd5b7fce95e3899a3f9149fc26a34674875210907ee3c0dddf61ac603f89e90c1b5f9e61107c81611077611b0b565b611b13565b6110858561178d565b505050505050565b6000607354905090565b606e8060000154908060010154908060020154908060030160009054906101000a900473ffffffffffffffffffffffffffffffffffffffff16905084565b60725481565b6000606e60000154905090565b6110f1826109e0565b611102816110fd611b0b565b611b13565b61110c8383611c91565b505050565b7feed754290b7b7033469899aa55827c9480fc90a4843b45b7f455d0ac50d3e6ce81565b6000606a54905090565b60007f01ffc9a7000000000000000000000000000000000000000000000000000000007bffffffffffffffffffffffffffffffffffffffffffffffffffffffff1916827bffffffffffffffffffffffffffffffffffffffffffffffffffffffff1916149050919050565b600260015414156111ef576040517f08c379a00000000000000000000000000000000000000000000000000000000081526004016111e690613844565b60405180910390fd5b60026001819055506000811161123a576040517f08c379a0000000000000000000000000000000000000000000000000000000008152600401611231906138b0565b60405180910390fd5b6073546012600a61124b9190613696565b606d60009054906101000a900473ffffffffffffffffffffffffffffffffffffffff1673ffffffffffffffffffffffffffffffffffffffff166370a08231336040518263ffffffff1660e01b81526004016112a6919061373b565b602060405180830381865afa1580156112c3573d6000803e3d6000fd5b505050506040513d601f19601f820116820180604052508101906112e7919061376b565b6112f191906137c7565b6112fb91906136e1565b600a806113089190613696565b8261131391906136e1565b1115801561134a5750606e6001015460695461132f91906138d0565b600a8061133c9190613696565b826113479190613964565b13155b611389576040517f08c379a000000000000000000000000000000000000000000000000000000000815260040161138090613ac7565b60405180910390fd5b60006073546012600a61139c9190613696565b600a806113a99190613696565b846113b491906136e1565b6113be91906136e1565b6113c891906137c7565b9050600a806113d79190613696565b826113e291906136e1565b606960008282546113f3919061352f565b92505081905550600a806114079190613696565b826114129190613964565b606b600082825461142391906138d0565b92505081905550600a806114379190613696565b8261144291906136e1565b607560003373ffffffffffffffffffffffffffffffffffffffff1673ffffffffffffffffffffffffffffffffffffffff1681526020019081526020016000206000828254611490919061352f565b925050819055506114e43383606c60009054906101000a900473ffffffffffffffffffffffffffffffffffffffff1673ffffffffffffffffffffffffffffffffffffffff16611def9092919063ffffffff16565b606d60009054906101000a900473ffffffffffffffffffffffffffffffffffffffff1673ffffffffffffffffffffffffffffffffffffffff16639dc29fac33836040518363ffffffff1660e01b8152600401611541929190613ae7565b600060405180830381600087803b15801561155b57600080fd5b505af115801561156f573d6000803e3d6000fd5b5050505061157b611e75565b611583611fcc565b506001808190555050565b60006115a161159b612123565b83612163565b9050919050565b60008060006115b78585612196565b91509150600060048111156115cf576115ce613b10565b5b8160048111156115e2576115e1613b10565b5b14801561161a57508573ffffffffffffffffffffffffffffffffffffffff168273ffffffffffffffffffffffffffffffffffffffff16145b1561162a57600192505050611786565b6000808773ffffffffffffffffffffffffffffffffffffffff16631626ba7e60e01b888860405160240161165f929190613bc7565b604051602081830303815290604052907bffffffffffffffffffffffffffffffffffffffffffffffffffffffff19166020820180517bffffffffffffffffffffffffffffffffffffffffffffffffffffffff83818316178352505050506040516116c99190613c33565b600060405180830381855afa9150503d8060008114611704576040519150601f19603f3d011682016040523d82523d6000602084013e611709565b606091505b509150915081801561171c575060208151145b801561177f5750631626ba7e60e01b7bffffffffffffffffffffffffffffffffffffffffffffffffffffffff19168180602001905181019061175e9190613c5f565b7bffffffffffffffffffffffffffffffffffffffffffffffffffffffff1916145b9450505050505b9392505050565b606e600001548160000151146117ab576117aa8160000151612219565b5b606e600101548160200151146117c9576117c88160200151612237565b5b50565b60026001541415611812576040517f08c379a000000000000000000000000000000000000000000000000000000000815260040161180990613844565b60405180910390fd5b60026001819055506000811180156118c55750606c60009054906101000a900473ffffffffffffffffffffffffffffffffffffffff1673ffffffffffffffffffffffffffffffffffffffff166370a08231336040518263ffffffff1660e01b8152600401611880919061373b565b602060405180830381865afa15801561189d573d6000803e3d6000fd5b505050506040513d601f19601f820116820180604052508101906118c1919061376b565b8111155b611904576040517f08c379a00000000000000000000000000000000000000000000000000000000081526004016118fb90613cd8565b60405180910390fd5b600a806119119190613696565b8161191c91906136e1565b6069600082825461192d9190613cf8565b92505081905550600a806119419190613696565b8161194c91906136e1565b606b600082825461195d9190613d4e565b92505081905550600a806119719190613696565b8161197c91906136e1565b607560003373ffffffffffffffffffffffffffffffffffffffff1673ffffffffffffffffffffffffffffffffffffffff16815260200190815260200160002060008282546119ca9190613cf8565b92505081905550611a20333083606c60009054906101000a900473ffffffffffffffffffffffffffffffffffffffff1673ffffffffffffffffffffffffffffffffffffffff16612244909392919063ffffffff16565b60006072546012600a611a339190613696565b600a80611a409190613696565b84611a4b91906136e1565b611a5591906136e1565b611a5f91906137c7565b9050606d60009054906101000a900473ffffffffffffffffffffffffffffffffffffffff1673ffffffffffffffffffffffffffffffffffffffff166340c10f1933836040518363ffffffff1660e01b8152600401611abe929190613ae7565b600060405180830381600087803b158015611ad857600080fd5b505af1158015611aec573d6000803e3d6000fd5b50505050611af8611fcc565b611b00611e75565b506001808190555050565b600033905090565b611b1d8282610ce7565b611bac57611b428173ffffffffffffffffffffffffffffffffffffffff1660146122cd565b611b508360001c60206122cd565b604051602001611b61929190613ec1565b6040516020818303038152906040526040517f08c379a0000000000000000000000000000000000000000000000000000000008152600401611ba39190613f34565b60405180910390fd5b5050565b611bba8282610ce7565b611c8d5760016033600084815260200190815260200160002060000160008373ffffffffffffffffffffffffffffffffffffffff1673ffffffffffffffffffffffffffffffffffffffff16815260200190815260200160002060006101000a81548160ff021916908315150217905550611c32611b0b565b73ffffffffffffffffffffffffffffffffffffffff168173ffffffffffffffffffffffffffffffffffffffff16837f2f8788117e7eff1d82e926ec794901d17c78024a50270940304540a733656f0d60405160405180910390a45b5050565b611c9b8282610ce7565b15611d6f5760006033600084815260200190815260200160002060000160008373ffffffffffffffffffffffffffffffffffffffff1673ffffffffffffffffffffffffffffffffffffffff16815260200190815260200160002060006101000a81548160ff021916908315150217905550611d14611b0b565b73ffffffffffffffffffffffffffffffffffffffff168173ffffffffffffffffffffffffffffffffffffffff16837ff6391f5c32d9c69d2a47ea670b442974b53935d1edc7fd64eb21e047a839171b60405160405180910390a45b5050565b6000611d7e30612509565b15905090565b600060019054906101000a900460ff16611dd3576040517f08c379a0000000000000000000000000000000000000000000000000000000008152600401611dca90613fc8565b60405180910390fd5b611ddd828261252c565b5050565b611deb8282611bb0565b5050565b611e708363a9059cbb60e01b8484604051602401611e0e929190613ae7565b604051602081830303815290604052907bffffffffffffffffffffffffffffffffffffffffffffffffffffffff19166020820180517bffffffffffffffffffffffffffffffffffffffffffffffffffffffff83818316178352505050506125a7565b505050565b6000606d60009054906101000a900473ffffffffffffffffffffffffffffffffffffffff1673ffffffffffffffffffffffffffffffffffffffff166318160ddd6040518163ffffffff1660e01b8152600401602060405180830381865afa158015611ee4573d6000803e3d6000fd5b505050506040513d601f19601f82011682018060405250810190611f08919061376b565b14611fca57606d60009054906101000a900473ffffffffffffffffffffffffffffffffffffffff1673ffffffffffffffffffffffffffffffffffffffff166318160ddd6040518163ffffffff1660e01b8152600401602060405180830381865afa158015611f7a573d6000803e3d6000fd5b505050506040513d601f19601f82011682018060405250810190611f9e919061376b565b6012600a611fac9190613696565b606954611fb991906136e1565b611fc391906137c7565b6073819055505b565b6000606d60009054906101000a900473ffffffffffffffffffffffffffffffffffffffff1673ffffffffffffffffffffffffffffffffffffffff166318160ddd6040518163ffffffff1660e01b8152600401602060405180830381865afa15801561203b573d6000803e3d6000fd5b505050506040513d601f19601f8201168201806040525081019061205f919061376b565b1461212157606d60009054906101000a900473ffffffffffffffffffffffffffffffffffffffff1673ffffffffffffffffffffffffffffffffffffffff166318160ddd6040518163ffffffff1660e01b8152600401602060405180830381865afa1580156120d1573d6000803e3d6000fd5b505050506040513d601f19601f820116820180604052508101906120f5919061376b565b6012600a6121039190613696565b606b5461211091906136e1565b61211a91906137c7565b6072819055505b565b600061215e7f8b73c3c69bb8fe3d512ecc4cf759cc79239f7b179b0ffacaa9a75d522b39400f61215161266e565b612159612678565b612682565b905090565b60008282604051602001612178929190614055565b60405160208183030381529060405280519060200120905092915050565b6000806041835114156121d85760008060006020860151925060408601519150606086015160001a90506121cc878285856126bc565b94509450505050612212565b6040835114156122095760008060208501519150604085015190506121fe8683836127c9565b935093505050612212565b60006002915091505b9250929050565b61222281612817565b80606e60000181905550612234611fcc565b50565b80606e6001018190555050565b6122c7846323b872dd60e01b8585856040516024016122659392919061408c565b604051602081830303815290604052907bffffffffffffffffffffffffffffffffffffffffffffffffffffffff19166020820180517bffffffffffffffffffffffffffffffffffffffffffffffffffffffff83818316178352505050506125a7565b50505050565b6060600060028360026122e091906136e1565b6122ea9190613cf8565b67ffffffffffffffff81111561230357612302612b71565b5b6040519080825280601f01601f1916602001820160405280156123355781602001600182028036833780820191505090505b5090507f30000000000000000000000000000000000000000000000000000000000000008160008151811061236d5761236c6140c3565b5b60200101907effffffffffffffffffffffffffffffffffffffffffffffffffffffffffffff1916908160001a9053507f7800000000000000000000000000000000000000000000000000000000000000816001815181106123d1576123d06140c3565b5b60200101907effffffffffffffffffffffffffffffffffffffffffffffffffffffffffffff1916908160001a9053506000600184600261241191906136e1565b61241b9190613cf8565b90505b60018111156124bb577f3031323334353637383961626364656600000000000000000000000000000000600f86166010811061245d5761245c6140c3565b5b1a60f81b828281518110612474576124736140c3565b5b60200101907effffffffffffffffffffffffffffffffffffffffffffffffffffffffffffff1916908160001a905350600485901c9450806124b4906140f2565b905061241e565b50600084146124ff576040517f08c379a00000000000000000000000000000000000000000000000000000000081526004016124f690614168565b60405180910390fd5b8091505092915050565b6000808273ffffffffffffffffffffffffffffffffffffffff163b119050919050565b600060019054906101000a900460ff1661257b576040517f08c379a000000000000000000000000000000000000000000000000000000000815260040161257290613fc8565b60405180910390fd5b600082805190602001209050600082805190602001209050816034819055508060358190555050505050565b6000612609826040518060400160405280602081526020017f5361666545524332303a206c6f772d6c6576656c2063616c6c206661696c65648152508573ffffffffffffffffffffffffffffffffffffffff1661287e9092919063ffffffff16565b9050600081511115612669578080602001905181019061262991906141b4565b612668576040517f08c379a000000000000000000000000000000000000000000000000000000000815260040161265f90614253565b60405180910390fd5b5b505050565b6000603454905090565b6000603554905090565b6000838383463060405160200161269d959493929190614273565b6040516020818303038152906040528051906020012090509392505050565b6000807f7fffffffffffffffffffffffffffffff5d576e7357a4501ddfe92f46681b20a08360001c11156126f75760006003915091506127c0565b601b8560ff161415801561270f5750601c8560ff1614155b156127215760006004915091506127c0565b60006001878787876040516000815260200160405260405161274694939291906142e2565b6020604051602081039080840390855afa158015612768573d6000803e3d6000fd5b505050602060405103519050600073ffffffffffffffffffffffffffffffffffffffff168173ffffffffffffffffffffffffffffffffffffffff1614156127b7576000600192509250506127c0565b80600092509250505b94509492505050565b6000806000807f7fffffffffffffffffffffffffffffffffffffffffffffffffffffffffffffff85169150601b8560ff1c019050612809878288856126bc565b935093505050935093915050565b6000606e6000015414156128435780606b60008282546128379190613d4e565b9250508190555061287b565b606e60000154606b600082825461285a91906138d0565b9250508190555080606b60008282546128739190613d4e565b925050819055505b50565b606061288d8484600085612896565b90509392505050565b6060824710156128db576040517f08c379a00000000000000000000000000000000000000000000000000000000081526004016128d290614399565b60405180910390fd5b6128e4856129aa565b612923576040517f08c379a000000000000000000000000000000000000000000000000000000000815260040161291a90614405565b60405180910390fd5b6000808673ffffffffffffffffffffffffffffffffffffffff16858760405161294c9190613c33565b60006040518083038185875af1925050503d8060008114612989576040519150601f19603f3d011682016040523d82523d6000602084013e61298e565b606091505b509150915061299e8282866129bd565b92505050949350505050565b600080823b905060008111915050919050565b606083156129cd57829050612a1d565b6000835111156129e05782518084602001fd5b816040517f08c379a0000000000000000000000000000000000000000000000000000000008152600401612a149190613f34565b60405180910390fd5b9392505050565b6000604051905090565b600080fd5b600080fd5b60007fffffffff0000000000000000000000000000000000000000000000000000000082169050919050565b612a6d81612a38565b8114612a7857600080fd5b50565b600081359050612a8a81612a64565b92915050565b600060208284031215612aa657612aa5612a2e565b5b6000612ab484828501612a7b565b91505092915050565b60008115159050919050565b612ad281612abd565b82525050565b6000602082019050612aed6000830184612ac9565b92915050565b6000819050919050565b612b0681612af3565b8114612b1157600080fd5b50565b600081359050612b2381612afd565b92915050565b600060208284031215612b3f57612b3e612a2e565b5b6000612b4d84828501612b14565b91505092915050565b600080fd5b600080fd5b6000601f19601f8301169050919050565b7f4e487b7100000000000000000000000000000000000000000000000000000000600052604160045260246000fd5b612ba982612b60565b810181811067ffffffffffffffff82111715612bc857612bc7612b71565b5b80604052505050565b6000612bdb612a24565b9050612be78282612ba0565b919050565b600067ffffffffffffffff821115612c0757612c06612b71565b5b612c1082612b60565b9050602081019050919050565b82818337600083830152505050565b6000612c3f612c3a84612bec565b612bd1565b905082815260208101848484011115612c5b57612c5a612b5b565b5b612c66848285612c1d565b509392505050565b600082601f830112612c8357612c82612b56565b5b8135612c93848260208601612c2c565b91505092915050565b600080fd5b6000819050919050565b612cb481612ca1565b8114612cbf57600080fd5b50565b600081359050612cd181612cab565b92915050565b600073ffffffffffffffffffffffffffffffffffffffff82169050919050565b6000612d0282612cd7565b9050919050565b612d1281612cf7565b8114612d1d57600080fd5b50565b600081359050612d2f81612d09565b92915050565b600060808284031215612d4b57612d4a612c9c565b5b612d556080612bd1565b90506000612d6584828501612cc2565b6000830152506020612d7984828501612cc2565b6020830152506040612d8d84828501612b14565b6040830152506060612da184828501612d20565b60608301525092915050565b600080600060c08486031215612dc657612dc5612a2e565b5b6000612dd486828701612b14565b935050602084013567ffffffffffffffff811115612df557612df4612a33565b5b612e0186828701612c6e565b9250506040612e1286828701612d35565b9150509250925092565b6000819050919050565b612e2f81612e1c565b8114612e3a57600080fd5b50565b600081359050612e4c81612e26565b92915050565b600060208284031215612e6857612e67612a2e565b5b6000612e7684828501612e3d565b91505092915050565b612e8881612e1c565b82525050565b6000602082019050612ea36000830184612e7f565b92915050565b60008060408385031215612ec057612ebf612a2e565b5b6000612ece85828601612e3d565b9250506020612edf85828601612d20565b9150509250929050565b612ef281612af3565b82525050565b6000602082019050612f0d6000830184612ee9565b92915050565b612f1c81612ca1565b82525050565b6000602082019050612f376000830184612f13565b92915050565b600067ffffffffffffffff821115612f5857612f57612b71565b5b612f6182612b60565b9050602081019050919050565b6000612f81612f7c84612f3d565b612bd1565b905082815260208101848484011115612f9d57612f9c612b5b565b5b612fa8848285612c1d565b509392505050565b600082601f830112612fc557612fc4612b56565b5b8135612fd5848260208601612f6e565b91505092915050565b600080600080600060a08688031215612ffa57612ff9612a2e565b5b600061300888828901612d20565b955050602061301988828901612d20565b945050604061302a88828901612d20565b935050606086013567ffffffffffffffff81111561304b5761304a612a33565b5b61305788828901612fb0565b925050608086013567ffffffffffffffff81111561307857613077612a33565b5b61308488828901612fb0565b9150509295509295909350565b6000602082840312156130a7576130a6612a2e565b5b60006130b584828501612d20565b91505092915050565b60008060a083850312156130d5576130d4612a2e565b5b600083013567ffffffffffffffff8111156130f3576130f2612a33565b5b6130ff85828601612c6e565b925050602061311085828601612d35565b9150509250929050565b61312381612cf7565b82525050565b600060808201905061313e6000830187612f13565b61314b6020830186612f13565b6131586040830185612ee9565b613165606083018461311a565b95945050505050565b600060c0820190506131836000830189612e7f565b613190602083018861311a565b61319d6040830187612f13565b6131aa6060830186612f13565b6131b76080830185612ee9565b6131c460a0830184612ee9565b979650505050505050565b600082825260208201905092915050565b7f486f757365506f6f6c574254433a20696e76616c6964207369676e6174757265600082015250565b60006132166020836131cf565b9150613221826131e0565b602082019050919050565b6000602082019050818103600083015261324581613209565b9050919050565b7f486f757365506f6f6c574254433a20696e76616c6964207369676e6572000000600082015250565b6000613282601d836131cf565b915061328d8261324c565b602082019050919050565b600060208201905081810360008301526132b181613275565b9050919050565b7f486f757365506f6f6c574254433a20756e617574686f7269736564207369676e60008201527f6572000000000000000000000000000000000000000000000000000000000000602082015250565b60006133146022836131cf565b915061331f826132b8565b604082019050919050565b6000602082019050818103600083015261334381613307565b9050919050565b7f486f757365506f6f6c574254433a207369676e6564207472616e73616374696f60008201527f6e20657870697265640000000000000000000000000000000000000000000000602082015250565b60006133a66029836131cf565b91506133b18261334a565b604082019050919050565b600060208201905081810360008301526133d581613399565b9050919050565b7f416363657373436f6e74726f6c3a2063616e206f6e6c792072656e6f756e636560008201527f20726f6c657320666f722073656c660000000000000000000000000000000000602082015250565b6000613438602f836131cf565b9150613443826133dc565b604082019050919050565b600060208201905081810360008301526134678161342b565b9050919050565b7f496e697469616c697a61626c653a20636f6e747261637420697320616c72656160008201527f647920696e697469616c697a6564000000000000000000000000000000000000602082015250565b60006134ca602e836131cf565b91506134d58261346e565b604082019050919050565b600060208201905081810360008301526134f9816134bd565b9050919050565b7f4e487b7100000000000000000000000000000000000000000000000000000000600052601160045260246000fd5b600061353a82612af3565b915061354583612af3565b92508282101561355857613557613500565b5b828203905092915050565b60008160011c9050919050565b6000808291508390505b60018511156135ba5780860481111561359657613595613500565b5b60018516156135a55780820291505b80810290506135b385613563565b945061357a565b94509492505050565b6000826135d3576001905061368f565b816135e1576000905061368f565b81600181146135f7576002811461360157613630565b600191505061368f565b60ff84111561361357613612613500565b5b8360020a91508482111561362a57613629613500565b5b5061368f565b5060208310610133831016604e8410600b84101617156136655782820a9050838111156136605761365f613500565b5b61368f565b6136728484846001613570565b9250905081840481111561368957613688613500565b5b81810290505b9392505050565b60006136a182612af3565b91506136ac83612af3565b92506136d97fffffffffffffffffffffffffffffffffffffffffffffffffffffffffffffffff84846135c3565b905092915050565b60006136ec82612af3565b91506136f783612af3565b9250817fffffffffffffffffffffffffffffffffffffffffffffffffffffffffffffffff04831182151516156137305761372f613500565b5b828202905092915050565b6000602082019050613750600083018461311a565b92915050565b60008151905061376581612afd565b92915050565b60006020828403121561378157613780612a2e565b5b600061378f84828501613756565b91505092915050565b7f4e487b7100000000000000000000000000000000000000000000000000000000600052601260045260246000fd5b60006137d282612af3565b91506137dd83612af3565b9250826137ed576137ec613798565b5b828204905092915050565b7f5265656e7472616e637947756172643a207265656e7472616e742063616c6c00600082015250565b600061382e601f836131cf565b9150613839826137f8565b602082019050919050565b6000602082019050818103600083015261385d81613821565b9050919050565b7f57425443486f757365506f6f6c3a205a65726f20416d6f756e74000000000000600082015250565b600061389a601a836131cf565b91506138a582613864565b602082019050919050565b600060208201905081810360008301526138c98161388d565b9050919050565b60006138db82612ca1565b91506138e683612ca1565b9250827f80000000000000000000000000000000000000000000000000000000000000000182126000841215161561392157613920613500565b5b827f7fffffffffffffffffffffffffffffffffffffffffffffffffffffffffffffff01821360008412161561395957613958613500565b5b828203905092915050565b600061396f82612ca1565b915061397a83612ca1565b9250827f7fffffffffffffffffffffffffffffffffffffffffffffffffffffffffffffff04821160008413600084131616156139b9576139b8613500565b5b817f800000000000000000000000000000000000000000000000000000000000000005831260008412600084131616156139f6576139f5613500565b5b827f80000000000000000000000000000000000000000000000000000000000000000582126000841360008412161615613a3357613a32613500565b5b827f7fffffffffffffffffffffffffffffffffffffffffffffffffffffffffffffff0582126000841260008412161615613a7057613a6f613500565b5b828202905092915050565b7f57425443486f757365506f6f6c203a2063616e27742077697468647261770000600082015250565b6000613ab1601e836131cf565b9150613abc82613a7b565b602082019050919050565b60006020820190508181036000830152613ae081613aa4565b9050919050565b6000604082019050613afc600083018561311a565b613b096020830184612ee9565b9392505050565b7f4e487b7100000000000000000000000000000000000000000000000000000000600052602160045260246000fd5b600081519050919050565b600082825260208201905092915050565b60005b83811015613b79578082015181840152602081019050613b5e565b83811115613b88576000848401525b50505050565b6000613b9982613b3f565b613ba38185613b4a565b9350613bb3818560208601613b5b565b613bbc81612b60565b840191505092915050565b6000604082019050613bdc6000830185612e7f565b8181036020830152613bee8184613b8e565b90509392505050565b600081905092915050565b6000613c0d82613b3f565b613c178185613bf7565b9350613c27818560208601613b5b565b80840191505092915050565b6000613c3f8284613c02565b915081905092915050565b600081519050613c5981612a64565b92915050565b600060208284031215613c7557613c74612a2e565b5b6000613c8384828501613c4a565b91505092915050565b7f57425443486f757365506f6f6c3a20436865636b207468652042616c616e6365600082015250565b6000613cc26020836131cf565b9150613ccd82613c8c565b602082019050919050565b60006020820190508181036000830152613cf181613cb5565b9050919050565b6000613d0382612af3565b9150613d0e83612af3565b9250827fffffffffffffffffffffffffffffffffffffffffffffffffffffffffffffffff03821115613d4357613d42613500565b5b828201905092915050565b6000613d5982612ca1565b9150613d6483612ca1565b9250817f7fffffffffffffffffffffffffffffffffffffffffffffffffffffffffffffff03831360008312151615613d9f57613d9e613500565b5b817f8000000000000000000000000000000000000000000000000000000000000000038312600083121615613dd757613dd6613500565b5b828201905092915050565b600081905092915050565b7f416363657373436f6e74726f6c3a206163636f756e7420000000000000000000600082015250565b6000613e23601783613de2565b9150613e2e82613ded565b601782019050919050565b600081519050919050565b6000613e4f82613e39565b613e598185613de2565b9350613e69818560208601613b5b565b80840191505092915050565b7f206973206d697373696e6720726f6c6520000000000000000000000000000000600082015250565b6000613eab601183613de2565b9150613eb682613e75565b601182019050919050565b6000613ecc82613e16565b9150613ed88285613e44565b9150613ee382613e9e565b9150613eef8284613e44565b91508190509392505050565b6000613f0682613e39565b613f1081856131cf565b9350613f20818560208601613b5b565b613f2981612b60565b840191505092915050565b60006020820190508181036000830152613f4e8184613efb565b905092915050565b7f496e697469616c697a61626c653a20636f6e7472616374206973206e6f74206960008201527f6e697469616c697a696e67000000000000000000000000000000000000000000602082015250565b6000613fb2602b836131cf565b9150613fbd82613f56565b604082019050919050565b60006020820190508181036000830152613fe181613fa5565b9050919050565b7f1901000000000000000000000000000000000000000000000000000000000000600082015250565b600061401e600283613de2565b915061402982613fe8565b600282019050919050565b6000819050919050565b61404f61404a82612e1c565b614034565b82525050565b600061406082614011565b915061406c828561403e565b60208201915061407c828461403e565b6020820191508190509392505050565b60006060820190506140a1600083018661311a565b6140ae602083018561311a565b6140bb6040830184612ee9565b949350505050565b7f4e487b7100000000000000000000000000000000000000000000000000000000600052603260045260246000fd5b60006140fd82612af3565b9150600082141561411157614110613500565b5b600182039050919050565b7f537472696e67733a20686578206c656e67746820696e73756666696369656e74600082015250565b60006141526020836131cf565b915061415d8261411c565b602082019050919050565b6000602082019050818103600083015261418181614145565b9050919050565b61419181612abd565b811461419c57600080fd5b50565b6000815190506141ae81614188565b92915050565b6000602082840312156141ca576141c9612a2e565b5b60006141d88482850161419f565b91505092915050565b7f5361666545524332303a204552433230206f7065726174696f6e20646964206e60008201527f6f74207375636365656400000000000000000000000000000000000000000000602082015250565b600061423d602a836131cf565b9150614248826141e1565b604082019050919050565b6000602082019050818103600083015261426c81614230565b9050919050565b600060a0820190506142886000830188612e7f565b6142956020830187612e7f565b6142a26040830186612e7f565b6142af6060830185612ee9565b6142bc608083018461311a565b9695505050505050565b600060ff82169050919050565b6142dc816142c6565b82525050565b60006080820190506142f76000830187612e7f565b61430460208301866142d3565b6143116040830185612e7f565b61431e6060830184612e7f565b95945050505050565b7f416464726573733a20696e73756666696369656e742062616c616e636520666f60008201527f722063616c6c0000000000000000000000000000000000000000000000000000602082015250565b60006143836026836131cf565b915061438e82614327565b604082019050919050565b600060208201905081810360008301526143b281614376565b9050919050565b7f416464726573733a2063616c6c20746f206e6f6e2d636f6e7472616374000000600082015250565b60006143ef601d836131cf565b91506143fa826143b9565b602082019050919050565b6000602082019050818103600083015261441e816143e2565b905091905056fea2646970667358221220561d2efda9c09c71d204cf6651a5af6aecd41d999fdd5b18450c323e5b29886264736f6c634300080a0033",
  "linkReferences": {},
  "deployedLinkReferences": {}
}