{
  "_format": "hh-sol-artifact-1",
  "contractName": "LunaFiOracle",
  "sourceName": "contracts/Oracle.sol",
  "abi": [
    {
      "inputs": [
        {
          "internalType": "address",
          "name": "oracleAdmin",
          "type": "address"
        }
      ],
      "stateMutability": "nonpayable",
      "type": "constructor"
    },
    {
      "anonymous": false,
      "inputs": [
        {
          "indexed": false,
          "internalType": "address",
          "name": "housePool",
          "type": "address"
        },
        {
          "components": [
            {
              "internalType": "uint256",
              "name": "expectedPendingValue",
              "type": "uint256"
            },
            {
              "internalType": "uint256",
              "name": "maxExposure",
              "type": "uint256"
            },
            {
              "internalType": "uint256",
              "name": "bettingStakes",
              "type": "uint256"
            }
          ],
          "indexed": false,
          "internalType": "struct LunaFiOracle.HPData",
          "name": "updatedData",
          "type": "tuple"
        }
      ],
      "name": "HPDataUpdated",
      "type": "event"
    },
    {
      "anonymous": false,
      "inputs": [
        {
          "indexed": true,
          "internalType": "bytes32",
          "name": "role",
          "type": "bytes32"
        },
        {
          "indexed": true,
          "internalType": "bytes32",
          "name": "previousAdminRole",
          "type": "bytes32"
        },
        {
          "indexed": true,
          "internalType": "bytes32",
          "name": "newAdminRole",
          "type": "bytes32"
        }
      ],
      "name": "RoleAdminChanged",
      "type": "event"
    },
    {
      "anonymous": false,
      "inputs": [
        {
          "indexed": true,
          "internalType": "bytes32",
          "name": "role",
          "type": "bytes32"
        },
        {
          "indexed": true,
          "internalType": "address",
          "name": "account",
          "type": "address"
        },
        {
          "indexed": true,
          "internalType": "address",
          "name": "sender",
          "type": "address"
        }
      ],
      "name": "RoleGranted",
      "type": "event"
    },
    {
      "anonymous": false,
      "inputs": [
        {
          "indexed": true,
          "internalType": "bytes32",
          "name": "role",
          "type": "bytes32"
        },
        {
          "indexed": true,
          "internalType": "address",
          "name": "account",
          "type": "address"
        },
        {
          "indexed": true,
          "internalType": "address",
          "name": "sender",
          "type": "address"
        }
      ],
      "name": "RoleRevoked",
      "type": "event"
    },
    {
      "inputs": [],
      "name": "DEFAULT_ADMIN_ROLE",
      "outputs": [
        {
          "internalType": "bytes32",
          "name": "",
          "type": "bytes32"
        }
      ],
      "stateMutability": "view",
      "type": "function"
    },
    {
      "inputs": [],
      "name": "HOUSE_POOL_DATA_PROVIDER",
      "outputs": [
        {
          "internalType": "bytes32",
          "name": "",
          "type": "bytes32"
        }
      ],
      "stateMutability": "view",
      "type": "function"
    },
    {
      "inputs": [
        {
          "internalType": "address",
          "name": "housePool",
          "type": "address"
        }
      ],
      "name": "getHPData",
      "outputs": [
        {
          "components": [
            {
              "internalType": "uint256",
              "name": "expectedPendingValue",
              "type": "uint256"
            },
            {
              "internalType": "uint256",
              "name": "maxExposure",
              "type": "uint256"
            },
            {
              "internalType": "uint256",
              "name": "bettingStakes",
              "type": "uint256"
            }
          ],
          "internalType": "struct LunaFiOracle.HPData",
          "name": "housePoolInfo",
          "type": "tuple"
        }
      ],
      "stateMutability": "view",
      "type": "function"
    },
    {
      "inputs": [
        {
          "internalType": "bytes32",
          "name": "role",
          "type": "bytes32"
        }
      ],
      "name": "getRoleAdmin",
      "outputs": [
        {
          "internalType": "bytes32",
          "name": "",
          "type": "bytes32"
        }
      ],
      "stateMutability": "view",
      "type": "function"
    },
    {
      "inputs": [
        {
          "internalType": "bytes32",
          "name": "role",
          "type": "bytes32"
        },
        {
          "internalType": "address",
          "name": "account",
          "type": "address"
        }
      ],
      "name": "grantRole",
      "outputs": [],
      "stateMutability": "nonpayable",
      "type": "function"
    },
    {
      "inputs": [
        {
          "internalType": "bytes32",
          "name": "role",
          "type": "bytes32"
        },
        {
          "internalType": "address",
          "name": "account",
          "type": "address"
        }
      ],
      "name": "hasRole",
      "outputs": [
        {
          "internalType": "bool",
          "name": "",
          "type": "bool"
        }
      ],
      "stateMutability": "view",
      "type": "function"
    },
    {
      "inputs": [
        {
          "internalType": "bytes32",
          "name": "role",
          "type": "bytes32"
        },
        {
          "internalType": "address",
          "name": "account",
          "type": "address"
        }
      ],
      "name": "renounceRole",
      "outputs": [],
      "stateMutability": "nonpayable",
      "type": "function"
    },
    {
      "inputs": [
        {
          "internalType": "bytes32",
          "name": "role",
          "type": "bytes32"
        },
        {
          "internalType": "address",
          "name": "account",
          "type": "address"
        }
      ],
      "name": "revokeRole",
      "outputs": [],
      "stateMutability": "nonpayable",
      "type": "function"
    },
    {
      "inputs": [
        {
          "internalType": "bytes4",
          "name": "interfaceId",
          "type": "bytes4"
        }
      ],
      "name": "supportsInterface",
      "outputs": [
        {
          "internalType": "bool",
          "name": "",
          "type": "bool"
        }
      ],
      "stateMutability": "view",
      "type": "function"
    },
    {
      "inputs": [
        {
          "internalType": "address",
          "name": "housePool",
          "type": "address"
        },
        {
          "internalType": "uint256",
          "name": "newBSValue",
          "type": "uint256"
        }
      ],
      "name": "updateBS",
      "outputs": [],
      "stateMutability": "nonpayable",
      "type": "function"
    },
    {
      "inputs": [
        {
          "internalType": "address",
          "name": "housePool",
          "type": "address"
        },
        {
          "components": [
            {
              "internalType": "uint256",
              "name": "expectedPendingValue",
              "type": "uint256"
            },
            {
              "internalType": "uint256",
              "name": "maxExposure",
              "type": "uint256"
            },
            {
              "internalType": "uint256",
              "name": "bettingStakes",
              "type": "uint256"
            }
          ],
          "internalType": "struct LunaFiOracle.HPData",
          "name": "newHPData",
          "type": "tuple"
        }
      ],
      "name": "updateHPData",
      "outputs": [],
      "stateMutability": "nonpayable",
      "type": "function"
    }
  ],
  "bytecode": "0x60806040523480156200001157600080fd5b50604051620016fd380380620016fd833981810160405281019062000037919062000236565b6200004c6000801b826200005360201b60201c565b5062000268565b6200006582826200006960201b60201c565b5050565b6200007b82826200015a60201b60201c565b6200015657600160008084815260200190815260200160002060000160008373ffffffffffffffffffffffffffffffffffffffff1673ffffffffffffffffffffffffffffffffffffffff16815260200190815260200160002060006101000a81548160ff021916908315150217905550620000fb620001c460201b60201c565b73ffffffffffffffffffffffffffffffffffffffff168173ffffffffffffffffffffffffffffffffffffffff16837f2f8788117e7eff1d82e926ec794901d17c78024a50270940304540a733656f0d60405160405180910390a45b5050565b600080600084815260200190815260200160002060000160008373ffffffffffffffffffffffffffffffffffffffff1673ffffffffffffffffffffffffffffffffffffffff16815260200190815260200160002060009054906101000a900460ff16905092915050565b600033905090565b600080fd5b600073ffffffffffffffffffffffffffffffffffffffff82169050919050565b6000620001fe82620001d1565b9050919050565b6200021081620001f1565b81146200021c57600080fd5b50565b600081519050620002308162000205565b92915050565b6000602082840312156200024f576200024e620001cc565b5b60006200025f848285016200021f565b91505092915050565b61148580620002786000396000f3fe608060405234801561001057600080fd5b50600436106100a95760003560e01c80635fdf8ec2116100715780635fdf8ec21461016457806362c0ba541461019457806391d14854146101b0578063a217fddf146101e0578063d547741f146101fe578063df5821f91461021a576100a9565b806301ffc9a7146100ae578063248a9ca3146100de5780632f2ff15d1461010e57806336568abe1461012a578063508c81a214610146575b600080fd5b6100c860048036038101906100c39190610b44565b610236565b6040516100d59190610b8c565b60405180910390f35b6100f860048036038101906100f39190610bdd565b6102b0565b6040516101059190610c19565b60405180910390f35b61012860048036038101906101239190610c92565b6102cf565b005b610144600480360381019061013f9190610c92565b6102f8565b005b61014e61037b565b60405161015b9190610c19565b60405180910390f35b61017e60048036038101906101799190610cd2565b61039f565b60405161018b9190610d5a565b60405180910390f35b6101ae60048036038101906101a99190610da1565b610416565b005b6101ca60048036038101906101c59190610c92565b610461565b6040516101d79190610b8c565b60405180910390f35b6101e86104cb565b6040516101f59190610c19565b60405180910390f35b61021860048036038101906102139190610c92565b6104d2565b005b610234600480360381019061022f9190610e05565b6104fb565b005b60007f7965db0b000000000000000000000000000000000000000000000000000000007bffffffffffffffffffffffffffffffffffffffffffffffffffffffff1916827bffffffffffffffffffffffffffffffffffffffffffffffffffffffff191614806102a957506102a8826105ba565b5b9050919050565b6000806000838152602001908152602001600020600101549050919050565b6102d8826102b0565b6102e9816102e4610624565b61062c565b6102f383836106c9565b505050565b610300610624565b73ffffffffffffffffffffffffffffffffffffffff168173ffffffffffffffffffffffffffffffffffffffff161461036d576040517f08c379a000000000000000000000000000000000000000000000000000000000815260040161036490610ec8565b60405180910390fd5b61037782826107a9565b5050565b7fce95e3899a3f9149fc26a34674875210907ee3c0dddf61ac603f89e90c1b5f9e81565b6103a7610ac6565b600160008373ffffffffffffffffffffffffffffffffffffffff1673ffffffffffffffffffffffffffffffffffffffff16815260200190815260200160002060405180606001604052908160008201548152602001600182015481526020016002820154815250509050919050565b80600160008473ffffffffffffffffffffffffffffffffffffffff1673ffffffffffffffffffffffffffffffffffffffff168152602001908152602001600020600201819055505050565b600080600084815260200190815260200160002060000160008373ffffffffffffffffffffffffffffffffffffffff1673ffffffffffffffffffffffffffffffffffffffff16815260200190815260200160002060009054906101000a900460ff16905092915050565b6000801b81565b6104db826102b0565b6104ec816104e7610624565b61062c565b6104f683836107a9565b505050565b7fce95e3899a3f9149fc26a34674875210907ee3c0dddf61ac603f89e90c1b5f9e61052d81610528610624565b61062c565b81600160008573ffffffffffffffffffffffffffffffffffffffff1673ffffffffffffffffffffffffffffffffffffffff1681526020019081526020016000208181610579919061100d565b9050507f8ea6b762f0eba82689512327c9833117cc694c1faa1bb82d865ef17b3ed91a4a83836040516105ad92919061109b565b60405180910390a1505050565b60007f01ffc9a7000000000000000000000000000000000000000000000000000000007bffffffffffffffffffffffffffffffffffffffffffffffffffffffff1916827bffffffffffffffffffffffffffffffffffffffffffffffffffffffff1916149050919050565b600033905090565b6106368282610461565b6106c55761065b8173ffffffffffffffffffffffffffffffffffffffff16601461088a565b6106698360001c602061088a565b60405160200161067a9291906111d6565b6040516020818303038152906040526040517f08c379a00000000000000000000000000000000000000000000000000000000081526004016106bc919061125a565b60405180910390fd5b5050565b6106d38282610461565b6107a557600160008084815260200190815260200160002060000160008373ffffffffffffffffffffffffffffffffffffffff1673ffffffffffffffffffffffffffffffffffffffff16815260200190815260200160002060006101000a81548160ff02191690831515021790555061074a610624565b73ffffffffffffffffffffffffffffffffffffffff168173ffffffffffffffffffffffffffffffffffffffff16837f2f8788117e7eff1d82e926ec794901d17c78024a50270940304540a733656f0d60405160405180910390a45b5050565b6107b38282610461565b1561088657600080600084815260200190815260200160002060000160008373ffffffffffffffffffffffffffffffffffffffff1673ffffffffffffffffffffffffffffffffffffffff16815260200190815260200160002060006101000a81548160ff02191690831515021790555061082b610624565b73ffffffffffffffffffffffffffffffffffffffff168173ffffffffffffffffffffffffffffffffffffffff16837ff6391f5c32d9c69d2a47ea670b442974b53935d1edc7fd64eb21e047a839171b60405160405180910390a45b5050565b60606000600283600261089d91906112ab565b6108a79190611305565b67ffffffffffffffff8111156108c0576108bf61135b565b5b6040519080825280601f01601f1916602001820160405280156108f25781602001600182028036833780820191505090505b5090507f30000000000000000000000000000000000000000000000000000000000000008160008151811061092a5761092961138a565b5b60200101907effffffffffffffffffffffffffffffffffffffffffffffffffffffffffffff1916908160001a9053507f78000000000000000000000000000000000000000000000000000000000000008160018151811061098e5761098d61138a565b5b60200101907effffffffffffffffffffffffffffffffffffffffffffffffffffffffffffff1916908160001a905350600060018460026109ce91906112ab565b6109d89190611305565b90505b6001811115610a78577f3031323334353637383961626364656600000000000000000000000000000000600f861660108110610a1a57610a1961138a565b5b1a60f81b828281518110610a3157610a3061138a565b5b60200101907effffffffffffffffffffffffffffffffffffffffffffffffffffffffffffff1916908160001a905350600485901c945080610a71906113b9565b90506109db565b5060008414610abc576040517f08c379a0000000000000000000000000000000000000000000000000000000008152600401610ab39061142f565b60405180910390fd5b8091505092915050565b60405180606001604052806000815260200160008152602001600081525090565b600080fd5b60007fffffffff0000000000000000000000000000000000000000000000000000000082169050919050565b610b2181610aec565b8114610b2c57600080fd5b50565b600081359050610b3e81610b18565b92915050565b600060208284031215610b5a57610b59610ae7565b5b6000610b6884828501610b2f565b91505092915050565b60008115159050919050565b610b8681610b71565b82525050565b6000602082019050610ba16000830184610b7d565b92915050565b6000819050919050565b610bba81610ba7565b8114610bc557600080fd5b50565b600081359050610bd781610bb1565b92915050565b600060208284031215610bf357610bf2610ae7565b5b6000610c0184828501610bc8565b91505092915050565b610c1381610ba7565b82525050565b6000602082019050610c2e6000830184610c0a565b92915050565b600073ffffffffffffffffffffffffffffffffffffffff82169050919050565b6000610c5f82610c34565b9050919050565b610c6f81610c54565b8114610c7a57600080fd5b50565b600081359050610c8c81610c66565b92915050565b60008060408385031215610ca957610ca8610ae7565b5b6000610cb785828601610bc8565b9250506020610cc885828601610c7d565b9150509250929050565b600060208284031215610ce857610ce7610ae7565b5b6000610cf684828501610c7d565b91505092915050565b6000819050919050565b610d1281610cff565b82525050565b606082016000820151610d2e6000850182610d09565b506020820151610d416020850182610d09565b506040820151610d546040850182610d09565b50505050565b6000606082019050610d6f6000830184610d18565b92915050565b610d7e81610cff565b8114610d8957600080fd5b50565b600081359050610d9b81610d75565b92915050565b60008060408385031215610db857610db7610ae7565b5b6000610dc685828601610c7d565b9250506020610dd785828601610d8c565b9150509250929050565b600080fd5b600060608284031215610dfc57610dfb610de1565b5b81905092915050565b60008060808385031215610e1c57610e1b610ae7565b5b6000610e2a85828601610c7d565b9250506020610e3b85828601610de6565b9150509250929050565b600082825260208201905092915050565b7f416363657373436f6e74726f6c3a2063616e206f6e6c792072656e6f756e636560008201527f20726f6c657320666f722073656c660000000000000000000000000000000000602082015250565b6000610eb2602f83610e45565b9150610ebd82610e56565b604082019050919050565b60006020820190508181036000830152610ee181610ea5565b9050919050565b60008135610ef581610d75565b80915050919050565b60008160001b9050919050565b60007fffffffffffffffffffffffffffffffffffffffffffffffffffffffffffffffff610f3784610efe565b9350801983169250808416831791505092915050565b6000819050919050565b6000610f72610f6d610f6884610cff565b610f4d565b610cff565b9050919050565b6000819050919050565b610f8c82610f57565b610f9f610f9882610f79565b8354610f0b565b8255505050565b600081016000830180610fb881610ee8565b9050610fc48184610f83565b505050600181016020830180610fd981610ee8565b9050610fe58184610f83565b505050600281016040830180610ffa81610ee8565b90506110068184610f83565b5050505050565b6110178282610fa6565b5050565b61102481610c54565b82525050565b60006110396020840184610d8c565b905092915050565b60608201611052600083018361102a565b61105f6000850182610d09565b5061106d602083018361102a565b61107a6020850182610d09565b50611088604083018361102a565b6110956040850182610d09565b50505050565b60006080820190506110b0600083018561101b565b6110bd6020830184611041565b9392505050565b600081905092915050565b7f416363657373436f6e74726f6c3a206163636f756e7420000000000000000000600082015250565b60006111056017836110c4565b9150611110826110cf565b601782019050919050565b600081519050919050565b60005b83811015611144578082015181840152602081019050611129565b83811115611153576000848401525b50505050565b60006111648261111b565b61116e81856110c4565b935061117e818560208601611126565b80840191505092915050565b7f206973206d697373696e6720726f6c6520000000000000000000000000000000600082015250565b60006111c06011836110c4565b91506111cb8261118a565b601182019050919050565b60006111e1826110f8565b91506111ed8285611159565b91506111f8826111b3565b91506112048284611159565b91508190509392505050565b6000601f19601f8301169050919050565b600061122c8261111b565b6112368185610e45565b9350611246818560208601611126565b61124f81611210565b840191505092915050565b600060208201905081810360008301526112748184611221565b905092915050565b7f4e487b7100000000000000000000000000000000000000000000000000000000600052601160045260246000fd5b60006112b682610cff565b91506112c183610cff565b9250817fffffffffffffffffffffffffffffffffffffffffffffffffffffffffffffffff04831182151516156112fa576112f961127c565b5b828202905092915050565b600061131082610cff565b915061131b83610cff565b9250827fffffffffffffffffffffffffffffffffffffffffffffffffffffffffffffffff038211156113505761134f61127c565b5b828201905092915050565b7f4e487b7100000000000000000000000000000000000000000000000000000000600052604160045260246000fd5b7f4e487b7100000000000000000000000000000000000000000000000000000000600052603260045260246000fd5b60006113c482610cff565b915060008214156113d8576113d761127c565b5b600182039050919050565b7f537472696e67733a20686578206c656e67746820696e73756666696369656e74600082015250565b6000611419602083610e45565b9150611424826113e3565b602082019050919050565b600060208201905081810360008301526114488161140c565b905091905056fea2646970667358221220b0dfadba3394ea9d4293f1e2e78c8f6c263c55d864e370467443123882c20b9264736f6c634300080a0033",
  "linkReferences": {},
  "deployedLinkReferences": {}
}