{
  "_format": "hh-sol-artifact-1",
  "contractName": "HousePool",
  "sourceName": "contracts/HousePool.sol",
  "abi": [
    {
      "anonymous": false,
      "inputs": [
        {
          "indexed": true,
          "internalType": "bytes32",
          "name": "role",
          "type": "bytes32"
        },
        {
          "indexed": true,
          "internalType": "bytes32",
          "name": "previousAdminRole",
          "type": "bytes32"
        },
        {
          "indexed": true,
          "internalType": "bytes32",
          "name": "newAdminRole",
          "type": "bytes32"
        }
      ],
      "name": "RoleAdminChanged",
      "type": "event"
    },
    {
      "anonymous": false,
      "inputs": [
        {
          "indexed": true,
          "internalType": "bytes32",
          "name": "role",
          "type": "bytes32"
        },
        {
          "indexed": true,
          "internalType": "address",
          "name": "account",
          "type": "address"
        },
        {
          "indexed": true,
          "internalType": "address",
          "name": "sender",
          "type": "address"
        }
      ],
      "name": "RoleGranted",
      "type": "event"
    },
    {
      "anonymous": false,
      "inputs": [
        {
          "indexed": true,
          "internalType": "bytes32",
          "name": "role",
          "type": "bytes32"
        },
        {
          "indexed": true,
          "internalType": "address",
          "name": "account",
          "type": "address"
        },
        {
          "indexed": true,
          "internalType": "address",
          "name": "sender",
          "type": "address"
        }
      ],
      "name": "RoleRevoked",
      "type": "event"
    },
    {
      "inputs": [],
      "name": "DEFAULT_ADMIN_ROLE",
      "outputs": [
        {
          "internalType": "bytes32",
          "name": "",
          "type": "bytes32"
        }
      ],
      "stateMutability": "view",
      "type": "function"
    },
    {
      "inputs": [],
      "name": "MANAGER_ROLE",
      "outputs": [
        {
          "internalType": "bytes32",
          "name": "",
          "type": "bytes32"
        }
      ],
      "stateMutability": "view",
      "type": "function"
    },
    {
      "inputs": [
        {
          "internalType": "uint256",
          "name": "amount",
          "type": "uint256"
        }
      ],
      "name": "deposit_",
      "outputs": [],
      "stateMutability": "nonpayable",
      "type": "function"
    },
    {
      "inputs": [],
      "name": "getLiquidityStatus",
      "outputs": [
        {
          "internalType": "uint256",
          "name": "",
          "type": "uint256"
        }
      ],
      "stateMutability": "view",
      "type": "function"
    },
    {
      "inputs": [
        {
          "internalType": "address",
          "name": "_user",
          "type": "address"
        }
      ],
      "name": "getMyLiquidity",
      "outputs": [
        {
          "internalType": "uint256",
          "name": "",
          "type": "uint256"
        }
      ],
      "stateMutability": "view",
      "type": "function"
    },
    {
      "inputs": [
        {
          "internalType": "bytes32",
          "name": "role",
          "type": "bytes32"
        }
      ],
      "name": "getRoleAdmin",
      "outputs": [
        {
          "internalType": "bytes32",
          "name": "",
          "type": "bytes32"
        }
      ],
      "stateMutability": "view",
      "type": "function"
    },
    {
      "inputs": [],
      "name": "getTokenPrice",
      "outputs": [
        {
          "internalType": "uint256",
          "name": "",
          "type": "uint256"
        }
      ],
      "stateMutability": "view",
      "type": "function"
    },
    {
      "inputs": [],
      "name": "getTokenWithdrawlPrice",
      "outputs": [
        {
          "internalType": "uint256",
          "name": "",
          "type": "uint256"
        }
      ],
      "stateMutability": "view",
      "type": "function"
    },
    {
      "inputs": [
        {
          "internalType": "bytes32",
          "name": "role",
          "type": "bytes32"
        },
        {
          "internalType": "address",
          "name": "account",
          "type": "address"
        }
      ],
      "name": "grantRole",
      "outputs": [],
      "stateMutability": "nonpayable",
      "type": "function"
    },
    {
      "inputs": [
        {
          "internalType": "bytes32",
          "name": "role",
          "type": "bytes32"
        },
        {
          "internalType": "address",
          "name": "account",
          "type": "address"
        }
      ],
      "name": "hasRole",
      "outputs": [
        {
          "internalType": "bool",
          "name": "",
          "type": "bool"
        }
      ],
      "stateMutability": "view",
      "type": "function"
    },
    {
      "inputs": [
        {
          "internalType": "address",
          "name": "_token",
          "type": "address"
        },
        {
          "internalType": "address",
          "name": "_claimToken",
          "type": "address"
        },
        {
          "internalType": "uint256",
          "name": "poolTokenPrice",
          "type": "uint256"
        },
        {
          "internalType": "uint256",
          "name": "poolTokenWithdrawalPrice",
          "type": "uint256"
        },
        {
          "internalType": "uint8",
          "name": "precision",
          "type": "uint8"
        }
      ],
      "name": "initialize",
      "outputs": [],
      "stateMutability": "nonpayable",
      "type": "function"
    },
    {
      "inputs": [],
      "name": "precisionDifference",
      "outputs": [
        {
          "internalType": "uint256",
          "name": "",
          "type": "uint256"
        }
      ],
      "stateMutability": "view",
      "type": "function"
    },
    {
      "inputs": [
        {
          "internalType": "bytes32",
          "name": "role",
          "type": "bytes32"
        },
        {
          "internalType": "address",
          "name": "account",
          "type": "address"
        }
      ],
      "name": "renounceRole",
      "outputs": [],
      "stateMutability": "nonpayable",
      "type": "function"
    },
    {
      "inputs": [
        {
          "internalType": "bytes32",
          "name": "role",
          "type": "bytes32"
        },
        {
          "internalType": "address",
          "name": "account",
          "type": "address"
        }
      ],
      "name": "revokeRole",
      "outputs": [],
      "stateMutability": "nonpayable",
      "type": "function"
    },
    {
      "inputs": [
        {
          "internalType": "bytes4",
          "name": "interfaceId",
          "type": "bytes4"
        }
      ],
      "name": "supportsInterface",
      "outputs": [
        {
          "internalType": "bool",
          "name": "",
          "type": "bool"
        }
      ],
      "stateMutability": "view",
      "type": "function"
    },
    {
      "inputs": [
        {
          "internalType": "uint256",
          "name": "amount",
          "type": "uint256"
        }
      ],
      "name": "withdraw_",
      "outputs": [],
      "stateMutability": "nonpayable",
      "type": "function"
    }
  ],
  "bytecode": "0x608060405234801561001057600080fd5b506114e5806100206000396000f3fe608060405234801561001057600080fd5b50600436106101005760003560e01c8063639c066d11610097578063a217fddf11610066578063a217fddf146101fe578063b3ce252414610206578063d547741f1461020e578063ec87621c1461022157600080fd5b8063639c066d146101bc5780636dbbd0f5146101cf57806391d14854146101d8578063a1cd2232146101eb57600080fd5b806336568abe116100d357806336568abe146101865780633c0717fd146101995780634b94f50e146101a15780635b1987cd146101a957600080fd5b806301ffc9a7146101055780630f5a5e181461012d578063248a9ca3146101425780632f2ff15d14610173575b600080fd5b61011861011336600461103f565b610248565b60405190151581526020015b60405180910390f35b61014061013b366004611069565b61027f565b005b610165610150366004611069565b60009081526033602052604090206001015490565b604051908152602001610124565b61014061018136600461109e565b61028b565b61014061019436600461109e565b6102b6565b603654610165565b603854610165565b6101406101b73660046110ca565b610339565b6101406101ca366004611069565b61046d565b61016560375481565b6101186101e636600461109e565b610476565b6101656101f936600461112b565b6104a1565b610165600081565b603954610165565b61014061021c36600461109e565b610534565b6101657f241ecf16d79d0f8dbfb92cbc07fe17840425976cf0667f022fe9877caa831b0881565b60006001600160e01b03198216637965db0b60e01b148061027957506301ffc9a760e01b6001600160e01b03198316145b92915050565b6102888161055a565b50565b6000828152603360205260409020600101546102a78133610841565b6102b183836108a5565b505050565b6001600160a01b038116331461032b5760405162461bcd60e51b815260206004820152602f60248201527f416363657373436f6e74726f6c3a2063616e206f6e6c792072656e6f756e636560448201526e103937b632b9903337b91039b2b63360891b60648201526084015b60405180910390fd5b610335828261092b565b5050565b600054610100900460ff166103545760005460ff1615610358565b303b155b6103bb5760405162461bcd60e51b815260206004820152602e60248201527f496e697469616c697a61626c653a20636f6e747261637420697320616c72656160448201526d191e481a5b9a5d1a585b1a5e995960921b6064820152608401610322565b600054610100900460ff161580156103dd576000805461ffff19166101011790555b603480546001600160a01b038089166001600160a01b03199283161790925560358054928816929091169190911790556104186000336108a5565b6104427f241ecf16d79d0f8dbfb92cbc07fe17840425976cf0667f022fe9877caa831b08336108a5565b6038849055603983905560ff82166037558015610465576000805461ff00191690555b505050505050565b61028881610992565b60009182526033602090815260408084206001600160a01b0393909316845291905290205460ff1690565b60006104af6012600a611240565b6038546035546040516370a0823160e01b81526001600160a01b038681166004830152909116906370a0823190602401602060405180830381865afa1580156104fc573d6000803e3d6000fd5b505050506040513d601f19601f82011682018060405250810190610520919061124c565b61052a9190611265565b6102799190611284565b6000828152603360205260409020600101546105508133610841565b6102b1838361092b565b600260015414156105ad5760405162461bcd60e51b815260206004820152601f60248201527f5265656e7472616e637947756172643a207265656e7472616e742063616c6c006044820152606401610322565b6002600155806105f85760405162461bcd60e51b8152602060048201526016602482015275121bdd5cd9541bdbdb0e8816995c9bc8105b5bdd5b9d60521b6044820152606401610322565b6039546106076012600a611240565b6035546040516370a0823160e01b81523360048201526001600160a01b03909116906370a0823190602401602060405180830381865afa15801561064f573d6000803e3d6000fd5b505050506040513d601f19601f82011682018060405250810190610673919061124c565b61067d9190611284565b6106879190611265565b60375461069590600a611240565b61069f9083611265565b111580156106c657506036546037546106b990600a611240565b6106c390836112a6565b13155b6107125760405162461bcd60e51b815260206004820152601a60248201527f486f757365506f6f6c203a2063616e27742077697468647261770000000000006044820152606401610322565b6039546000906107246012600a611240565b60375461073290600a611240565b61073c9085611265565b6107469190611265565b6107509190611284565b9050603754600a6107619190611240565b61076b9083611265565b6036600082825461077c919061132b565b909155505060375461078f90600a611240565b6107999083611265565b336000908152603a6020526040812080549091906107b890849061132b565b90915550506034546107d4906001600160a01b03163384610ba8565b603554604051632770a7eb60e21b8152336004820152602481018390526001600160a01b0390911690639dc29fac906044015b600060405180830381600087803b15801561082157600080fd5b505af1158015610835573d6000803e3d6000fd5b50506001805550505050565b61084b8282610476565b61033557610863816001600160a01b03166014610c0b565b61086e836020610c0b565b60405160200161087f92919061136e565b60408051601f198184030181529082905262461bcd60e51b8252610322916004016113e3565b6108af8282610476565b6103355760008281526033602090815260408083206001600160a01b03851684529091529020805460ff191660011790556108e73390565b6001600160a01b0316816001600160a01b0316837f2f8788117e7eff1d82e926ec794901d17c78024a50270940304540a733656f0d60405160405180910390a45050565b6109358282610476565b156103355760008281526033602090815260408083206001600160a01b0385168085529252808320805460ff1916905551339285917ff6391f5c32d9c69d2a47ea670b442974b53935d1edc7fd64eb21e047a839171b9190a45050565b600260015414156109e55760405162461bcd60e51b815260206004820152601f60248201527f5265656e7472616e637947756172643a207265656e7472616e742063616c6c006044820152606401610322565b60026001558015801590610a6457506034546040516370a0823160e01b81523360048201526001600160a01b03909116906370a0823190602401602060405180830381865afa158015610a3c573d6000803e3d6000fd5b505050506040513d601f19601f82011682018060405250810190610a60919061124c565b8111155b610ab05760405162461bcd60e51b815260206004820152601c60248201527f486f757365506f6f6c3a20436865636b207468652042616c616e6365000000006044820152606401610322565b603754610abe90600a611240565b610ac89082611265565b60366000828254610ad99190611416565b9091555050603754610aec90600a611240565b610af69082611265565b336000908152603a602052604081208054909190610b15908490611416565b9091555050603454610b32906001600160a01b0316333084610dae565b603854600090610b446012600a611240565b603754610b5290600a611240565b610b5c9085611265565b610b669190611265565b610b709190611284565b6035546040516340c10f1960e01b8152336004820152602481018390529192506001600160a01b0316906340c10f1990604401610807565b6040516001600160a01b0383166024820152604481018290526102b190849063a9059cbb60e01b906064015b60408051601f198184030181529190526020810180516001600160e01b03166001600160e01b031990931692909217909152610dec565b60606000610c1a836002611265565b610c25906002611416565b67ffffffffffffffff811115610c3d57610c3d61142e565b6040519080825280601f01601f191660200182016040528015610c67576020820181803683370190505b509050600360fc1b81600081518110610c8257610c82611444565b60200101906001600160f81b031916908160001a905350600f60fb1b81600181518110610cb157610cb1611444565b60200101906001600160f81b031916908160001a9053506000610cd5846002611265565b610ce0906001611416565b90505b6001811115610d58576f181899199a1a9b1b9c1cb0b131b232b360811b85600f1660108110610d1457610d14611444565b1a60f81b828281518110610d2a57610d2a611444565b60200101906001600160f81b031916908160001a90535060049490941c93610d518161145a565b9050610ce3565b508315610da75760405162461bcd60e51b815260206004820181905260248201527f537472696e67733a20686578206c656e67746820696e73756666696369656e746044820152606401610322565b9392505050565b6040516001600160a01b0380851660248301528316604482015260648101829052610de69085906323b872dd60e01b90608401610bd4565b50505050565b6000610e41826040518060400160405280602081526020017f5361666545524332303a206c6f772d6c6576656c2063616c6c206661696c6564815250856001600160a01b0316610ebe9092919063ffffffff16565b8051909150156102b15780806020019051810190610e5f9190611471565b6102b15760405162461bcd60e51b815260206004820152602a60248201527f5361666545524332303a204552433230206f7065726174696f6e20646964206e6044820152691bdd081cdd58d8d9595960b21b6064820152608401610322565b6060610ecd8484600085610ed5565b949350505050565b606082471015610f365760405162461bcd60e51b815260206004820152602660248201527f416464726573733a20696e73756666696369656e742062616c616e636520666f6044820152651c8818d85b1b60d21b6064820152608401610322565b6001600160a01b0385163b610f8d5760405162461bcd60e51b815260206004820152601d60248201527f416464726573733a2063616c6c20746f206e6f6e2d636f6e74726163740000006044820152606401610322565b600080866001600160a01b03168587604051610fa99190611493565b60006040518083038185875af1925050503d8060008114610fe6576040519150601f19603f3d011682016040523d82523d6000602084013e610feb565b606091505b5091509150610ffb828286611006565b979650505050505050565b60608315611015575081610da7565b8251156110255782518084602001fd5b8160405162461bcd60e51b815260040161032291906113e3565b60006020828403121561105157600080fd5b81356001600160e01b031981168114610da757600080fd5b60006020828403121561107b57600080fd5b5035919050565b80356001600160a01b038116811461109957600080fd5b919050565b600080604083850312156110b157600080fd5b823591506110c160208401611082565b90509250929050565b600080600080600060a086880312156110e257600080fd5b6110eb86611082565b94506110f960208701611082565b93506040860135925060608601359150608086013560ff8116811461111d57600080fd5b809150509295509295909350565b60006020828403121561113d57600080fd5b610da782611082565b634e487b7160e01b600052601160045260246000fd5b600181815b8085111561119757816000190482111561117d5761117d611146565b8085161561118a57918102915b93841c9390800290611161565b509250929050565b6000826111ae57506001610279565b816111bb57506000610279565b81600181146111d157600281146111db576111f7565b6001915050610279565b60ff8411156111ec576111ec611146565b50506001821b610279565b5060208310610133831016604e8410600b841016171561121a575081810a610279565b611224838361115c565b806000190482111561123857611238611146565b029392505050565b6000610da7838361119f565b60006020828403121561125e57600080fd5b5051919050565b600081600019048311821515161561127f5761127f611146565b500290565b6000826112a157634e487b7160e01b600052601260045260246000fd5b500490565b60006001600160ff1b03818413828413808216868404861116156112cc576112cc611146565b600160ff1b60008712828116878305891216156112eb576112eb611146565b6000871292508782058712848416161561130757611307611146565b8785058712818416161561131d5761131d611146565b505050929093029392505050565b60008282101561133d5761133d611146565b500390565b60005b8381101561135d578181015183820152602001611345565b83811115610de65750506000910152565b7f416363657373436f6e74726f6c3a206163636f756e74200000000000000000008152600083516113a6816017850160208801611342565b7001034b99036b4b9b9b4b733903937b6329607d1b60179184019182015283516113d7816028840160208801611342565b01602801949350505050565b6020815260008251806020840152611402816040850160208701611342565b601f01601f19169190910160400192915050565b6000821982111561142957611429611146565b500190565b634e487b7160e01b600052604160045260246000fd5b634e487b7160e01b600052603260045260246000fd5b60008161146957611469611146565b506000190190565b60006020828403121561148357600080fd5b81518015158114610da757600080fd5b600082516114a5818460208701611342565b919091019291505056fea2646970667358221220e474171e5640d3d11378a03606b61160455ab4e2b6e9916be3beef41b5b6f90364736f6c634300080a0033",
  "linkReferences": {},
  "deployedLinkReferences": {}
}