{
  "_format": "hh-sol-artifact-1",
  "contractName": "HousePool",
  "sourceName": "contracts/HousePool.sol",
  "abi": [
    {
      "anonymous": false,
      "inputs": [
        {
          "indexed": true,
          "internalType": "bytes32",
          "name": "role",
          "type": "bytes32"
        },
        {
          "indexed": true,
          "internalType": "bytes32",
          "name": "previousAdminRole",
          "type": "bytes32"
        },
        {
          "indexed": true,
          "internalType": "bytes32",
          "name": "newAdminRole",
          "type": "bytes32"
        }
      ],
      "name": "RoleAdminChanged",
      "type": "event"
    },
    {
      "anonymous": false,
      "inputs": [
        {
          "indexed": true,
          "internalType": "bytes32",
          "name": "role",
          "type": "bytes32"
        },
        {
          "indexed": true,
          "internalType": "address",
          "name": "account",
          "type": "address"
        },
        {
          "indexed": true,
          "internalType": "address",
          "name": "sender",
          "type": "address"
        }
      ],
      "name": "RoleGranted",
      "type": "event"
    },
    {
      "anonymous": false,
      "inputs": [
        {
          "indexed": true,
          "internalType": "bytes32",
          "name": "role",
          "type": "bytes32"
        },
        {
          "indexed": true,
          "internalType": "address",
          "name": "account",
          "type": "address"
        },
        {
          "indexed": true,
          "internalType": "address",
          "name": "sender",
          "type": "address"
        }
      ],
      "name": "RoleRevoked",
      "type": "event"
    },
    {
      "inputs": [],
      "name": "DEFAULT_ADMIN_ROLE",
      "outputs": [
        {
          "internalType": "bytes32",
          "name": "",
          "type": "bytes32"
        }
      ],
      "stateMutability": "view",
      "type": "function"
    },
    {
      "inputs": [],
      "name": "MANAGER_ROLE",
      "outputs": [
        {
          "internalType": "bytes32",
          "name": "",
          "type": "bytes32"
        }
      ],
      "stateMutability": "view",
      "type": "function"
    },
    {
      "inputs": [
        {
          "internalType": "uint256",
          "name": "amount",
          "type": "uint256"
        }
      ],
      "name": "deposit_",
      "outputs": [],
      "stateMutability": "nonpayable",
      "type": "function"
    },
    {
      "inputs": [],
      "name": "getLiquidityStatus",
      "outputs": [
        {
          "internalType": "uint256",
          "name": "",
          "type": "uint256"
        }
      ],
      "stateMutability": "view",
      "type": "function"
    },
    {
      "inputs": [
        {
          "internalType": "address",
          "name": "user",
          "type": "address"
        }
      ],
      "name": "getMyLiquidity",
      "outputs": [
        {
          "internalType": "uint256",
          "name": "",
          "type": "uint256"
        }
      ],
      "stateMutability": "view",
      "type": "function"
    },
    {
      "inputs": [
        {
          "internalType": "bytes32",
          "name": "role",
          "type": "bytes32"
        }
      ],
      "name": "getRoleAdmin",
      "outputs": [
        {
          "internalType": "bytes32",
          "name": "",
          "type": "bytes32"
        }
      ],
      "stateMutability": "view",
      "type": "function"
    },
    {
      "inputs": [],
      "name": "getTokenPrice",
      "outputs": [
        {
          "internalType": "uint256",
          "name": "",
          "type": "uint256"
        }
      ],
      "stateMutability": "view",
      "type": "function"
    },
    {
      "inputs": [],
      "name": "getTokenWithdrawalPrice",
      "outputs": [
        {
          "internalType": "uint256",
          "name": "",
          "type": "uint256"
        }
      ],
      "stateMutability": "view",
      "type": "function"
    },
    {
      "inputs": [
        {
          "internalType": "bytes32",
          "name": "role",
          "type": "bytes32"
        },
        {
          "internalType": "address",
          "name": "account",
          "type": "address"
        }
      ],
      "name": "grantRole",
      "outputs": [],
      "stateMutability": "nonpayable",
      "type": "function"
    },
    {
      "inputs": [
        {
          "internalType": "bytes32",
          "name": "role",
          "type": "bytes32"
        },
        {
          "internalType": "address",
          "name": "account",
          "type": "address"
        }
      ],
      "name": "hasRole",
      "outputs": [
        {
          "internalType": "bool",
          "name": "",
          "type": "bool"
        }
      ],
      "stateMutability": "view",
      "type": "function"
    },
    {
      "inputs": [
        {
          "internalType": "string",
          "name": "name",
          "type": "string"
        },
        {
          "internalType": "address",
          "name": "_token",
          "type": "address"
        },
        {
          "internalType": "address",
          "name": "_claimToken",
          "type": "address"
        },
        {
          "internalType": "uint256",
          "name": "poolTokenPrice",
          "type": "uint256"
        },
        {
          "internalType": "uint256",
          "name": "poolTokenWithdrawalPrice",
          "type": "uint256"
        },
        {
          "internalType": "uint8",
          "name": "precision",
          "type": "uint8"
        }
      ],
      "name": "initialize",
      "outputs": [],
      "stateMutability": "nonpayable",
      "type": "function"
    },
    {
      "inputs": [],
      "name": "precisionDifference",
      "outputs": [
        {
          "internalType": "uint256",
          "name": "",
          "type": "uint256"
        }
      ],
      "stateMutability": "view",
      "type": "function"
    },
    {
      "inputs": [
        {
          "internalType": "bytes32",
          "name": "role",
          "type": "bytes32"
        },
        {
          "internalType": "address",
          "name": "account",
          "type": "address"
        }
      ],
      "name": "renounceRole",
      "outputs": [],
      "stateMutability": "nonpayable",
      "type": "function"
    },
    {
      "inputs": [
        {
          "internalType": "bytes32",
          "name": "role",
          "type": "bytes32"
        },
        {
          "internalType": "address",
          "name": "account",
          "type": "address"
        }
      ],
      "name": "revokeRole",
      "outputs": [],
      "stateMutability": "nonpayable",
      "type": "function"
    },
    {
      "inputs": [
        {
          "internalType": "bytes4",
          "name": "interfaceId",
          "type": "bytes4"
        }
      ],
      "name": "supportsInterface",
      "outputs": [
        {
          "internalType": "bool",
          "name": "",
          "type": "bool"
        }
      ],
      "stateMutability": "view",
      "type": "function"
    },
    {
      "inputs": [
        {
          "internalType": "uint256",
          "name": "amount",
          "type": "uint256"
        }
      ],
      "name": "withdraw_",
      "outputs": [],
      "stateMutability": "nonpayable",
      "type": "function"
    }
  ],
  "bytecode": "0x608060405234801561001057600080fd5b50611673806100206000396000f3fe608060405234801561001057600080fd5b50600436106101005760003560e01c8063653e9f1011610097578063a1cd223211610066578063a1cd2232146101f3578063a217fddf14610206578063d547741f1461020e578063ec87621c1461022157600080fd5b8063653e9f10146101bc5780636dbbd0f5146101c45780637daa1201146101cd57806391d14854146101e057600080fd5b806336568abe116100d357806336568abe146101865780633c0717fd146101995780634b94f50e146101a1578063639c066d146101a957600080fd5b806301ffc9a7146101055780630f5a5e181461012d578063248a9ca3146101425780632f2ff15d14610173575b600080fd5b6101186101133660046110ed565b610248565b60405190151581526020015b60405180910390f35b61014061013b366004611117565b61027f565b005b610165610150366004611117565b60009081526097602052604090206001015490565b604051908152602001610124565b61014061018136600461114c565b61028b565b61014061019436600461114c565b6102b6565b60cc54610165565b60ce54610165565b6101406101b7366004611117565b610339565b60cf54610165565b61016560cd5481565b6101406101db36600461119f565b610342565b6101186101ee36600461114c565b61048b565b610165610201366004611294565b6104b6565b610165600081565b61014061021c36600461114c565b610549565b6101657f241ecf16d79d0f8dbfb92cbc07fe17840425976cf0667f022fe9877caa831b0881565b60006001600160e01b03198216637965db0b60e01b148061027957506301ffc9a760e01b6001600160e01b03198316145b92915050565b6102888161056f565b50565b6000828152609760205260409020600101546102a78133610856565b6102b183836108ba565b505050565b6001600160a01b038116331461032b5760405162461bcd60e51b815260206004820152602f60248201527f416363657373436f6e74726f6c3a2063616e206f6e6c792072656e6f756e636560448201526e103937b632b9903337b91039b2b63360891b60648201526084015b60405180910390fd5b6103358282610940565b5050565b610288816109a7565b600054610100900460ff1661035d5760005460ff1615610361565b303b155b6103c45760405162461bcd60e51b815260206004820152602e60248201527f496e697469616c697a61626c653a20636f6e747261637420697320616c72656160448201526d191e481a5b9a5d1a585b1a5e995960921b6064820152608401610322565b600054610100900460ff161580156103e6576000805461ffff19166101011790555b86516103f99060c99060208a0190611054565b5060ca80546001600160a01b038089166001600160a01b03199283161790925560cb8054928816929091169190911790556104356000336108ba565b61045f7f241ecf16d79d0f8dbfb92cbc07fe17840425976cf0667f022fe9877caa831b08336108ba565b60ce84905560cf83905560ff821660cd558015610482576000805461ff00191690555b50505050505050565b60009182526097602090815260408084206001600160a01b0393909316845291905290205460ff1690565b60006104c46012600a6113a9565b60ce5460cb546040516370a0823160e01b81526001600160a01b038681166004830152909116906370a0823190602401602060405180830381865afa158015610511573d6000803e3d6000fd5b505050506040513d601f19601f8201168201806040525081019061053591906113b5565b61053f91906113ce565b61027991906113ed565b6000828152609760205260409020600101546105658133610856565b6102b18383610940565b600260015414156105c25760405162461bcd60e51b815260206004820152601f60248201527f5265656e7472616e637947756172643a207265656e7472616e742063616c6c006044820152606401610322565b60026001558061060d5760405162461bcd60e51b8152602060048201526016602482015275121bdd5cd9541bdbdb0e8816995c9bc8105b5bdd5b9d60521b6044820152606401610322565b60cf5461061c6012600a6113a9565b60cb546040516370a0823160e01b81523360048201526001600160a01b03909116906370a0823190602401602060405180830381865afa158015610664573d6000803e3d6000fd5b505050506040513d601f19601f8201168201806040525081019061068891906113b5565b61069291906113ed565b61069c91906113ce565b60cd546106aa90600a6113a9565b6106b490836113ce565b111580156106db575060cc5460cd546106ce90600a6113a9565b6106d8908361140f565b13155b6107275760405162461bcd60e51b815260206004820152601a60248201527f486f757365506f6f6c203a2063616e27742077697468647261770000000000006044820152606401610322565b60cf546000906107396012600a6113a9565b60cd5461074790600a6113a9565b61075190856113ce565b61075b91906113ce565b61076591906113ed565b905060cd54600a61077691906113a9565b61078090836113ce565b60cc60008282546107919190611494565b909155505060cd546107a490600a6113a9565b6107ae90836113ce565b33600090815260d06020526040812080549091906107cd908490611494565b909155505060ca546107e9906001600160a01b03163384610bbd565b60cb54604051632770a7eb60e21b8152336004820152602481018390526001600160a01b0390911690639dc29fac906044015b600060405180830381600087803b15801561083657600080fd5b505af115801561084a573d6000803e3d6000fd5b50506001805550505050565b610860828261048b565b61033557610878816001600160a01b03166014610c20565b610883836020610c20565b6040516020016108949291906114d7565b60408051601f198184030181529082905262461bcd60e51b82526103229160040161154c565b6108c4828261048b565b6103355760008281526097602090815260408083206001600160a01b03851684529091529020805460ff191660011790556108fc3390565b6001600160a01b0316816001600160a01b0316837f2f8788117e7eff1d82e926ec794901d17c78024a50270940304540a733656f0d60405160405180910390a45050565b61094a828261048b565b156103355760008281526097602090815260408083206001600160a01b0385168085529252808320805460ff1916905551339285917ff6391f5c32d9c69d2a47ea670b442974b53935d1edc7fd64eb21e047a839171b9190a45050565b600260015414156109fa5760405162461bcd60e51b815260206004820152601f60248201527f5265656e7472616e637947756172643a207265656e7472616e742063616c6c006044820152606401610322565b60026001558015801590610a79575060ca546040516370a0823160e01b81523360048201526001600160a01b03909116906370a0823190602401602060405180830381865afa158015610a51573d6000803e3d6000fd5b505050506040513d601f19601f82011682018060405250810190610a7591906113b5565b8111155b610ac55760405162461bcd60e51b815260206004820152601c60248201527f486f757365506f6f6c3a20436865636b207468652042616c616e6365000000006044820152606401610322565b60cd54610ad390600a6113a9565b610add90826113ce565b60cc6000828254610aee919061157f565b909155505060cd54610b0190600a6113a9565b610b0b90826113ce565b33600090815260d0602052604081208054909190610b2a90849061157f565b909155505060ca54610b47906001600160a01b0316333084610dc3565b60ce54600090610b596012600a6113a9565b60cd54610b6790600a6113a9565b610b7190856113ce565b610b7b91906113ce565b610b8591906113ed565b60cb546040516340c10f1960e01b8152336004820152602481018390529192506001600160a01b0316906340c10f199060440161081c565b6040516001600160a01b0383166024820152604481018290526102b190849063a9059cbb60e01b906064015b60408051601f198184030181529190526020810180516001600160e01b03166001600160e01b031990931692909217909152610e01565b60606000610c2f8360026113ce565b610c3a90600261157f565b67ffffffffffffffff811115610c5257610c52611178565b6040519080825280601f01601f191660200182016040528015610c7c576020820181803683370190505b509050600360fc1b81600081518110610c9757610c97611597565b60200101906001600160f81b031916908160001a905350600f60fb1b81600181518110610cc657610cc6611597565b60200101906001600160f81b031916908160001a9053506000610cea8460026113ce565b610cf590600161157f565b90505b6001811115610d6d576f181899199a1a9b1b9c1cb0b131b232b360811b85600f1660108110610d2957610d29611597565b1a60f81b828281518110610d3f57610d3f611597565b60200101906001600160f81b031916908160001a90535060049490941c93610d66816115ad565b9050610cf8565b508315610dbc5760405162461bcd60e51b815260206004820181905260248201527f537472696e67733a20686578206c656e67746820696e73756666696369656e746044820152606401610322565b9392505050565b6040516001600160a01b0380851660248301528316604482015260648101829052610dfb9085906323b872dd60e01b90608401610be9565b50505050565b6000610e56826040518060400160405280602081526020017f5361666545524332303a206c6f772d6c6576656c2063616c6c206661696c6564815250856001600160a01b0316610ed39092919063ffffffff16565b8051909150156102b15780806020019051810190610e7491906115c4565b6102b15760405162461bcd60e51b815260206004820152602a60248201527f5361666545524332303a204552433230206f7065726174696f6e20646964206e6044820152691bdd081cdd58d8d9595960b21b6064820152608401610322565b6060610ee28484600085610eea565b949350505050565b606082471015610f4b5760405162461bcd60e51b815260206004820152602660248201527f416464726573733a20696e73756666696369656e742062616c616e636520666f6044820152651c8818d85b1b60d21b6064820152608401610322565b6001600160a01b0385163b610fa25760405162461bcd60e51b815260206004820152601d60248201527f416464726573733a2063616c6c20746f206e6f6e2d636f6e74726163740000006044820152606401610322565b600080866001600160a01b03168587604051610fbe91906115e6565b60006040518083038185875af1925050503d8060008114610ffb576040519150601f19603f3d011682016040523d82523d6000602084013e611000565b606091505b509150915061101082828661101b565b979650505050505050565b6060831561102a575081610dbc565b82511561103a5782518084602001fd5b8160405162461bcd60e51b8152600401610322919061154c565b82805461106090611602565b90600052602060002090601f01602090048101928261108257600085556110c8565b82601f1061109b57805160ff19168380011785556110c8565b828001600101855582156110c8579182015b828111156110c85782518255916020019190600101906110ad565b506110d49291506110d8565b5090565b5b808211156110d457600081556001016110d9565b6000602082840312156110ff57600080fd5b81356001600160e01b031981168114610dbc57600080fd5b60006020828403121561112957600080fd5b5035919050565b80356001600160a01b038116811461114757600080fd5b919050565b6000806040838503121561115f57600080fd5b8235915061116f60208401611130565b90509250929050565b634e487b7160e01b600052604160045260246000fd5b803560ff8116811461114757600080fd5b60008060008060008060c087890312156111b857600080fd5b863567ffffffffffffffff808211156111d057600080fd5b818901915089601f8301126111e457600080fd5b8135818111156111f6576111f6611178565b604051601f8201601f19908116603f0116810190838211818310171561121e5761121e611178565b816040528281528c602084870101111561123757600080fd5b82602086016020830137600060208483010152809a50505050505061125e60208801611130565b945061126c60408801611130565b9350606087013592506080870135915061128860a0880161118e565b90509295509295509295565b6000602082840312156112a657600080fd5b610dbc82611130565b634e487b7160e01b600052601160045260246000fd5b600181815b808511156113005781600019048211156112e6576112e66112af565b808516156112f357918102915b93841c93908002906112ca565b509250929050565b60008261131757506001610279565b8161132457506000610279565b816001811461133a576002811461134457611360565b6001915050610279565b60ff841115611355576113556112af565b50506001821b610279565b5060208310610133831016604e8410600b8410161715611383575081810a610279565b61138d83836112c5565b80600019048211156113a1576113a16112af565b029392505050565b6000610dbc8383611308565b6000602082840312156113c757600080fd5b5051919050565b60008160001904831182151516156113e8576113e86112af565b500290565b60008261140a57634e487b7160e01b600052601260045260246000fd5b500490565b60006001600160ff1b0381841382841380821686840486111615611435576114356112af565b600160ff1b6000871282811687830589121615611454576114546112af565b60008712925087820587128484161615611470576114706112af565b87850587128184161615611486576114866112af565b505050929093029392505050565b6000828210156114a6576114a66112af565b500390565b60005b838110156114c65781810151838201526020016114ae565b83811115610dfb5750506000910152565b7f416363657373436f6e74726f6c3a206163636f756e742000000000000000000081526000835161150f8160178501602088016114ab565b7001034b99036b4b9b9b4b733903937b6329607d1b60179184019182015283516115408160288401602088016114ab565b01602801949350505050565b602081526000825180602084015261156b8160408501602087016114ab565b601f01601f19169190910160400192915050565b60008219821115611592576115926112af565b500190565b634e487b7160e01b600052603260045260246000fd5b6000816115bc576115bc6112af565b506000190190565b6000602082840312156115d657600080fd5b81518015158114610dbc57600080fd5b600082516115f88184602087016114ab565b9190910192915050565b600181811c9082168061161657607f821691505b6020821081141561163757634e487b7160e01b600052602260045260246000fd5b5091905056fea2646970667358221220c182ed5406e6adcb8b0cefee4d37bd3c1c8a030cf4f7074fdb275ca85b2d9b8264736f6c634300080a0033",
  "linkReferences": {},
  "deployedLinkReferences": {}
}