{
  "_format": "hh-sol-artifact-1",
  "contractName": "Rewarder",
  "sourceName": "contracts/Rewarder.sol",
  "abi": [
    {
      "inputs": [
        {
          "internalType": "contract IERC20",
          "name": "_rewardToken",
          "type": "address"
        },
        {
          "internalType": "uint256",
          "name": "_rewardPerSecond",
          "type": "uint256"
        },
        {
          "internalType": "address",
          "name": "_LFI_FARM",
          "type": "address"
        }
      ],
      "stateMutability": "nonpayable",
      "type": "constructor"
    },
    {
      "anonymous": false,
      "inputs": [],
      "name": "LogInit",
      "type": "event"
    },
    {
      "anonymous": false,
      "inputs": [
        {
          "indexed": true,
          "internalType": "address",
          "name": "user",
          "type": "address"
        },
        {
          "indexed": true,
          "internalType": "uint256",
          "name": "pid",
          "type": "uint256"
        },
        {
          "indexed": false,
          "internalType": "uint256",
          "name": "amount",
          "type": "uint256"
        },
        {
          "indexed": true,
          "internalType": "address",
          "name": "to",
          "type": "address"
        }
      ],
      "name": "LogOnReward",
      "type": "event"
    },
    {
      "anonymous": false,
      "inputs": [
        {
          "indexed": true,
          "internalType": "uint256",
          "name": "pid",
          "type": "uint256"
        },
        {
          "indexed": false,
          "internalType": "uint256",
          "name": "allocPoint",
          "type": "uint256"
        }
      ],
      "name": "LogPoolAddition",
      "type": "event"
    },
    {
      "anonymous": false,
      "inputs": [
        {
          "indexed": false,
          "internalType": "uint256",
          "name": "rewardPerSecond",
          "type": "uint256"
        }
      ],
      "name": "LogRewardPerSecond",
      "type": "event"
    },
    {
      "anonymous": false,
      "inputs": [
        {
          "indexed": true,
          "internalType": "uint256",
          "name": "pid",
          "type": "uint256"
        },
        {
          "indexed": false,
          "internalType": "uint256",
          "name": "allocPoint",
          "type": "uint256"
        }
      ],
      "name": "LogSetPool",
      "type": "event"
    },
    {
      "anonymous": false,
      "inputs": [
        {
          "indexed": true,
          "internalType": "uint256",
          "name": "pid",
          "type": "uint256"
        },
        {
          "indexed": false,
          "internalType": "uint256",
          "name": "lastRewardTime",
          "type": "uint256"
        },
        {
          "indexed": false,
          "internalType": "uint256",
          "name": "lpSupply",
          "type": "uint256"
        },
        {
          "indexed": false,
          "internalType": "uint256",
          "name": "accRewardPerShare",
          "type": "uint256"
        }
      ],
      "name": "LogUpdatePool",
      "type": "event"
    },
    {
      "anonymous": false,
      "inputs": [
        {
          "indexed": true,
          "internalType": "address",
          "name": "previousOwner",
          "type": "address"
        },
        {
          "indexed": true,
          "internalType": "address",
          "name": "newOwner",
          "type": "address"
        }
      ],
      "name": "OwnershipTransferred",
      "type": "event"
    },
    {
      "inputs": [
        {
          "internalType": "uint256",
          "name": "allocPoint",
          "type": "uint256"
        },
        {
          "internalType": "uint256",
          "name": "_pid",
          "type": "uint256"
        }
      ],
      "name": "add",
      "outputs": [],
      "stateMutability": "nonpayable",
      "type": "function"
    },
    {
      "inputs": [
        {
          "internalType": "uint256[]",
          "name": "pids",
          "type": "uint256[]"
        }
      ],
      "name": "massUpdatePools",
      "outputs": [],
      "stateMutability": "nonpayable",
      "type": "function"
    },
    {
      "inputs": [
        {
          "internalType": "uint256",
          "name": "pid",
          "type": "uint256"
        },
        {
          "internalType": "address",
          "name": "_user",
          "type": "address"
        },
        {
          "internalType": "address",
          "name": "to",
          "type": "address"
        },
        {
          "internalType": "uint256",
          "name": "",
          "type": "uint256"
        },
        {
          "internalType": "uint256",
          "name": "lpToken",
          "type": "uint256"
        }
      ],
      "name": "onReward",
      "outputs": [],
      "stateMutability": "nonpayable",
      "type": "function"
    },
    {
      "inputs": [],
      "name": "owner",
      "outputs": [
        {
          "internalType": "address",
          "name": "",
          "type": "address"
        }
      ],
      "stateMutability": "view",
      "type": "function"
    },
    {
      "inputs": [
        {
          "internalType": "uint256",
          "name": "_pid",
          "type": "uint256"
        },
        {
          "internalType": "address",
          "name": "_user",
          "type": "address"
        }
      ],
      "name": "pendingToken",
      "outputs": [
        {
          "internalType": "uint256",
          "name": "pending",
          "type": "uint256"
        }
      ],
      "stateMutability": "view",
      "type": "function"
    },
    {
      "inputs": [
        {
          "internalType": "uint256",
          "name": "pid",
          "type": "uint256"
        },
        {
          "internalType": "address",
          "name": "user",
          "type": "address"
        },
        {
          "internalType": "uint256",
          "name": "",
          "type": "uint256"
        }
      ],
      "name": "pendingTokens",
      "outputs": [
        {
          "internalType": "contract IERC20[]",
          "name": "rewardTokens",
          "type": "address[]"
        },
        {
          "internalType": "uint256[]",
          "name": "rewardAmounts",
          "type": "uint256[]"
        }
      ],
      "stateMutability": "view",
      "type": "function"
    },
    {
      "inputs": [
        {
          "internalType": "uint256",
          "name": "",
          "type": "uint256"
        }
      ],
      "name": "poolIds",
      "outputs": [
        {
          "internalType": "uint256",
          "name": "",
          "type": "uint256"
        }
      ],
      "stateMutability": "view",
      "type": "function"
    },
    {
      "inputs": [
        {
          "internalType": "uint256",
          "name": "",
          "type": "uint256"
        }
      ],
      "name": "poolInfo",
      "outputs": [
        {
          "internalType": "uint256",
          "name": "accRewardPerShare",
          "type": "uint256"
        },
        {
          "internalType": "uint256",
          "name": "lastRewardTime",
          "type": "uint256"
        },
        {
          "internalType": "uint256",
          "name": "allocPoint",
          "type": "uint256"
        }
      ],
      "stateMutability": "view",
      "type": "function"
    },
    {
      "inputs": [],
      "name": "poolLength",
      "outputs": [
        {
          "internalType": "uint256",
          "name": "pools",
          "type": "uint256"
        }
      ],
      "stateMutability": "view",
      "type": "function"
    },
    {
      "inputs": [],
      "name": "renounceOwnership",
      "outputs": [],
      "stateMutability": "nonpayable",
      "type": "function"
    },
    {
      "inputs": [],
      "name": "rewardPerSecond",
      "outputs": [
        {
          "internalType": "uint256",
          "name": "",
          "type": "uint256"
        }
      ],
      "stateMutability": "view",
      "type": "function"
    },
    {
      "inputs": [
        {
          "internalType": "uint256",
          "name": "_pid",
          "type": "uint256"
        },
        {
          "internalType": "uint256",
          "name": "_allocPoint",
          "type": "uint256"
        }
      ],
      "name": "set",
      "outputs": [],
      "stateMutability": "nonpayable",
      "type": "function"
    },
    {
      "inputs": [
        {
          "internalType": "uint256",
          "name": "_rewardPerSecond",
          "type": "uint256"
        }
      ],
      "name": "setRewardPerSecond",
      "outputs": [],
      "stateMutability": "nonpayable",
      "type": "function"
    },
    {
      "inputs": [
        {
          "internalType": "address",
          "name": "newOwner",
          "type": "address"
        }
      ],
      "name": "transferOwnership",
      "outputs": [],
      "stateMutability": "nonpayable",
      "type": "function"
    },
    {
      "inputs": [
        {
          "internalType": "uint256",
          "name": "pid",
          "type": "uint256"
        }
      ],
      "name": "updatePool",
      "outputs": [
        {
          "components": [
            {
              "internalType": "uint256",
              "name": "accRewardPerShare",
              "type": "uint256"
            },
            {
              "internalType": "uint256",
              "name": "lastRewardTime",
              "type": "uint256"
            },
            {
              "internalType": "uint256",
              "name": "allocPoint",
              "type": "uint256"
            }
          ],
          "internalType": "struct Rewarder.PoolInfo",
          "name": "pool",
          "type": "tuple"
        }
      ],
      "stateMutability": "nonpayable",
      "type": "function"
    },
    {
      "inputs": [
        {
          "internalType": "uint256",
          "name": "",
          "type": "uint256"
        },
        {
          "internalType": "address",
          "name": "",
          "type": "address"
        }
      ],
      "name": "userInfo",
      "outputs": [
        {
          "internalType": "uint256",
          "name": "amount",
          "type": "uint256"
        },
        {
          "internalType": "uint256",
          "name": "rewardDebt",
          "type": "uint256"
        }
      ],
      "stateMutability": "view",
      "type": "function"
    }
  ],
  "bytecode": "0x60806040523480156200001157600080fd5b5060405162002b6d38038062002b6d83398181016040528101906200003791906200029f565b620000576200004b620000e960201b60201c565b620000f160201b60201c565b82600160006101000a81548173ffffffffffffffffffffffffffffffffffffffff021916908373ffffffffffffffffffffffffffffffffffffffff1602179055508160068190555080600760006101000a81548173ffffffffffffffffffffffffffffffffffffffff021916908373ffffffffffffffffffffffffffffffffffffffff160217905550505050620002fb565b600033905090565b60008060009054906101000a900473ffffffffffffffffffffffffffffffffffffffff169050816000806101000a81548173ffffffffffffffffffffffffffffffffffffffff021916908373ffffffffffffffffffffffffffffffffffffffff1602179055508173ffffffffffffffffffffffffffffffffffffffff168173ffffffffffffffffffffffffffffffffffffffff167f8be0079c531659141344cd1fd0a4f28419497f9722a3daafe3b4186f6b6457e060405160405180910390a35050565b600080fd5b600073ffffffffffffffffffffffffffffffffffffffff82169050919050565b6000620001e782620001ba565b9050919050565b6000620001fb82620001da565b9050919050565b6200020d81620001ee565b81146200021957600080fd5b50565b6000815190506200022d8162000202565b92915050565b6000819050919050565b620002488162000233565b81146200025457600080fd5b50565b60008151905062000268816200023d565b92915050565b6200027981620001da565b81146200028557600080fd5b50565b60008151905062000299816200026e565b92915050565b600080600060608486031215620002bb57620002ba620001b5565b5b6000620002cb868287016200021c565b9350506020620002de8682870162000257565b9250506040620002f18682870162000288565b9150509250925092565b612862806200030b6000396000f3fe608060405234801561001057600080fd5b50600436106101005760003560e01c806369883b4e116100975780638f10369a116100665780638f10369a1461029957806393f1a40b146102b7578063d63b3c49146102e8578063f2fde38b1461031957610100565b806369883b4e14610225578063715018a614610255578063771602f71461025f5780638da5cb5b1461027b57610100565b806348e43af4116100d357806348e43af41461018d57806351eb05a6146101bd57806357a5b58c146101ed57806366da58151461020957610100565b8063081e3eda146101055780631526fe27146101235780631ab06ee51461015557806344af0fa714610171575b600080fd5b61010d610335565b60405161011a91906119df565b60405180910390f35b61013d60048036038101906101389190611a30565b610342565b60405161014c93929190611a5d565b60405180910390f35b61016f600480360381019061016a9190611a94565b61036c565b005b61018b60048036038101906101869190611b32565b610474565b005b6101a760048036038101906101a29190611bad565b610950565b6040516101b491906119df565b60405180910390f35b6101d760048036038101906101d29190611a30565b610beb565b6040516101e49190611c3e565b60405180910390f35b61020760048036038101906102029190611cbe565b610e84565b005b610223600480360381019061021e9190611a30565b610ed1565b005b61023f600480360381019061023a9190611a30565b610f8e565b60405161024c91906119df565b60405180910390f35b61025d610fb2565b005b61027960048036038101906102749190611a94565b61103a565b005b6102836111e3565b6040516102909190611d1a565b60405180910390f35b6102a161120c565b6040516102ae91906119df565b60405180910390f35b6102d160048036038101906102cc9190611bad565b611212565b6040516102df929190611d35565b60405180910390f35b61030260048036038101906102fd9190611d5e565b611243565b604051610310929190611f6e565b60405180910390f35b610333600480360381019061032e9190611fa5565b61138d565b005b6000600380549050905090565b60026020528060005260406000206000915090508060000154908060010154908060020154905083565b610374611485565b73ffffffffffffffffffffffffffffffffffffffff166103926111e3565b73ffffffffffffffffffffffffffffffffffffffff16146103e8576040517f08c379a00000000000000000000000000000000000000000000000000000000081526004016103df9061202f565b60405180910390fd5b80600260008481526020019081526020016000206002015460055461040d919061207e565b61041791906120b2565b600581905550806002600084815260200190815260200160002060020181905550817f942cc7e17a17c164bd977f32ab8c54265d5b9d481e4e352bf874f1e568874e7c8260405161046891906119df565b60405180910390a25050565b600760009054906101000a900473ffffffffffffffffffffffffffffffffffffffff1673ffffffffffffffffffffffffffffffffffffffff163373ffffffffffffffffffffffffffffffffffffffff1614610504576040517f08c379a00000000000000000000000000000000000000000000000000000000081526004016104fb9061217a565b60405180910390fd5b600061050f86610beb565b905060006004600088815260200190815260200160002060008773ffffffffffffffffffffffffffffffffffffffff1673ffffffffffffffffffffffffffffffffffffffff168152602001908152602001600020905060006105aa6040518060400160405280600b81526020017f7573657220416d6f756e74000000000000000000000000000000000000000000815250836000015461148d565b6000826000015411156108af576105f66040518060400160405280601381526020017f50656e64696e67204265666f72652063616c63000000000000000000000000008152508261148d565b6106d06040518060400160405280601181526020017f546f2042616c616e6365206265666f7265000000000000000000000000000000815250600160009054906101000a900473ffffffffffffffffffffffffffffffffffffffff1673ffffffffffffffffffffffffffffffffffffffff166370a08231896040518263ffffffff1660e01b815260040161068a9190611d1a565b602060405180830381865afa1580156106a7573d6000803e3d6000fd5b505050506040513d601f19601f820116820180604052508101906106cb91906121af565b61148d565b816001015464e8d4a51000846000015184600001546106ef91906121dc565b6106f99190612265565b610703919061207e565b9050606490506107568682600160009054906101000a900473ffffffffffffffffffffffffffffffffffffffff1673ffffffffffffffffffffffffffffffffffffffff166115299092919063ffffffff16565b6107956040518060400160405280600281526020017f746f000000000000000000000000000000000000000000000000000000000000815250876115af565b6107d46040518060400160405280600781526020017f70656e64696e67000000000000000000000000000000000000000000000000008152508261148d565b6108ae6040518060400160405280600a81526020017f546f2042616c616e636500000000000000000000000000000000000000000000815250600160009054906101000a900473ffffffffffffffffffffffffffffffffffffffff1673ffffffffffffffffffffffffffffffffffffffff166370a08231896040518263ffffffff1660e01b81526004016108689190611d1a565b602060405180830381865afa158015610885573d6000803e3d6000fd5b505050506040513d601f19601f820116820180604052508101906108a991906121af565b61148d565b5b83826000018190555064e8d4a510008360000151856108ce91906121dc565b6108d89190612265565b82600101819055508573ffffffffffffffffffffffffffffffffffffffff16888873ffffffffffffffffffffffffffffffffffffffff167f2ece88ca2bc08dd018db50e1d25a20bf1241e5fab1c396caa51f01a54bd2f75b8460405161093e91906119df565b60405180910390a45050505050505050565b600080600260008581526020019081526020016000206040518060600160405290816000820154815260200160018201548152602001600282015481525050905060006004600086815260200190815260200160002060008573ffffffffffffffffffffffffffffffffffffffff1673ffffffffffffffffffffffffffffffffffffffff16815260200190815260200160002090506000826000015190506000600760009054906101000a900473ffffffffffffffffffffffffffffffffffffffff1673ffffffffffffffffffffffffffffffffffffffff166378ed5d1f886040518263ffffffff1660e01b8152600401610a4b91906119df565b602060405180830381865afa158015610a68573d6000803e3d6000fd5b505050506040513d601f19601f82011682018060405250810190610a8c91906122d4565b73ffffffffffffffffffffffffffffffffffffffff166370a08231600760009054906101000a900473ffffffffffffffffffffffffffffffffffffffff166040518263ffffffff1660e01b8152600401610ae69190611d1a565b602060405180830381865afa158015610b03573d6000803e3d6000fd5b505050506040513d601f19601f82011682018060405250810190610b2791906121af565b9050836020015142118015610b3d575060008114155b15610bb0576000846020015142610b54919061207e565b90506000600554866040015160065484610b6e91906121dc565b610b7891906121dc565b610b829190612265565b90508264e8d4a5100082610b9691906121dc565b610ba09190612265565b84610bab91906120b2565b935050505b826001015464e8d4a51000838560000154610bcb91906121dc565b610bd59190612265565b610bdf919061207e565b94505050505092915050565b610bf36119a5565b60026000838152602001908152602001600020604051806060016040529081600082015481526020016001820154815260200160028201548152505090508060200151421115610e7f576000600760009054906101000a900473ffffffffffffffffffffffffffffffffffffffff1673ffffffffffffffffffffffffffffffffffffffff166378ed5d1f846040518263ffffffff1660e01b8152600401610c9a91906119df565b602060405180830381865afa158015610cb7573d6000803e3d6000fd5b505050506040513d601f19601f82011682018060405250810190610cdb91906122d4565b73ffffffffffffffffffffffffffffffffffffffff166370a08231600760009054906101000a900473ffffffffffffffffffffffffffffffffffffffff166040518263ffffffff1660e01b8152600401610d359190611d1a565b602060405180830381865afa158015610d52573d6000803e3d6000fd5b505050506040513d601f19601f82011682018060405250810190610d7691906121af565b90506000811115610dfa576000826020015142610d93919061207e565b90506000600554846040015160065484610dad91906121dc565b610db791906121dc565b610dc19190612265565b90508264e8d4a5100082610dd591906121dc565b610ddf9190612265565b8460000151610dee91906120b2565b84600001818152505050505b428260200181815250508160026000858152602001908152602001600020600082015181600001556020820151816001015560408201518160020155905050827fcb7325664a4a3b7c7223eefc492a97ca4fdf94d46884621e5a8fae5a04b2b9d28360200151838560000151604051610e7593929190611a5d565b60405180910390a2505b919050565b600082829050905060005b81811015610ecb57610eb9848483818110610ead57610eac612301565b5b90506020020135610beb565b5080610ec490612330565b9050610e8f565b50505050565b610ed9611485565b73ffffffffffffffffffffffffffffffffffffffff16610ef76111e3565b73ffffffffffffffffffffffffffffffffffffffff1614610f4d576040517f08c379a0000000000000000000000000000000000000000000000000000000008152600401610f449061202f565b60405180910390fd5b806006819055507fde89cb17ac7f58f94792b3e91e086ed85403819c24ceea882491f960ccb1a27881604051610f8391906119df565b60405180910390a150565b60038181548110610f9e57600080fd5b906000526020600020016000915090505481565b610fba611485565b73ffffffffffffffffffffffffffffffffffffffff16610fd86111e3565b73ffffffffffffffffffffffffffffffffffffffff161461102e576040517f08c379a00000000000000000000000000000000000000000000000000000000081526004016110259061202f565b60405180910390fd5b611038600061164b565b565b611042611485565b73ffffffffffffffffffffffffffffffffffffffff166110606111e3565b73ffffffffffffffffffffffffffffffffffffffff16146110b6576040517f08c379a00000000000000000000000000000000000000000000000000000000081526004016110ad9061202f565b60405180910390fd5b600060026000838152602001908152602001600020600101541461110f576040517f08c379a0000000000000000000000000000000000000000000000000000000008152600401611106906123c5565b60405180910390fd5b6000429050826005600082825461112691906120b2565b9250508190555060405180606001604052806000815260200182815260200184815250600260008481526020019081526020016000206000820151816000015560208201518160010155604082015181600201559050506003829080600181540180825580915050600190039060005260206000200160009091909190915055817f38410508059921573ab9ebdca2a5034be738d236366b8f32de4434ea95ed3c81846040516111d691906119df565b60405180910390a2505050565b60008060009054906101000a900473ffffffffffffffffffffffffffffffffffffffff16905090565b60065481565b6004602052816000526040600020602052806000526040600020600091509150508060000154908060010154905082565b6060806000600167ffffffffffffffff811115611263576112626123e5565b5b6040519080825280602002602001820160405280156112915781602001602082028036833780820191505090505b509050600160009054906101000a900473ffffffffffffffffffffffffffffffffffffffff16816000815181106112cb576112ca612301565b5b602002602001019073ffffffffffffffffffffffffffffffffffffffff16908173ffffffffffffffffffffffffffffffffffffffff16815250506000600167ffffffffffffffff811115611322576113216123e5565b5b6040519080825280602002602001820160405280156113505781602001602082028036833780820191505090505b50905061135d8787610950565b8160008151811061137157611370612301565b5b6020026020010181815250508181935093505050935093915050565b611395611485565b73ffffffffffffffffffffffffffffffffffffffff166113b36111e3565b73ffffffffffffffffffffffffffffffffffffffff1614611409576040517f08c379a00000000000000000000000000000000000000000000000000000000081526004016114009061202f565b60405180910390fd5b600073ffffffffffffffffffffffffffffffffffffffff168173ffffffffffffffffffffffffffffffffffffffff161415611479576040517f08c379a000000000000000000000000000000000000000000000000000000000815260040161147090612486565b60405180910390fd5b6114828161164b565b50565b600033905090565b61152582826040516024016114a392919061252e565b6040516020818303038152906040527f9710a9d0000000000000000000000000000000000000000000000000000000007bffffffffffffffffffffffffffffffffffffffffffffffffffffffff19166020820180517bffffffffffffffffffffffffffffffffffffffffffffffffffffffff838183161783525050505061170f565b5050565b6115aa8363a9059cbb60e01b848460405160240161154892919061255e565b604051602081830303815290604052907bffffffffffffffffffffffffffffffffffffffffffffffffffffffff19166020820180517bffffffffffffffffffffffffffffffffffffffffffffffffffffffff8381831617835250505050611738565b505050565b61164782826040516024016115c5929190612587565b6040516020818303038152906040527f319af333000000000000000000000000000000000000000000000000000000007bffffffffffffffffffffffffffffffffffffffffffffffffffffffff19166020820180517bffffffffffffffffffffffffffffffffffffffffffffffffffffffff838183161783525050505061170f565b5050565b60008060009054906101000a900473ffffffffffffffffffffffffffffffffffffffff169050816000806101000a81548173ffffffffffffffffffffffffffffffffffffffff021916908373ffffffffffffffffffffffffffffffffffffffff1602179055508173ffffffffffffffffffffffffffffffffffffffff168173ffffffffffffffffffffffffffffffffffffffff167f8be0079c531659141344cd1fd0a4f28419497f9722a3daafe3b4186f6b6457e060405160405180910390a35050565b60008151905060006a636f6e736f6c652e6c6f679050602083016000808483855afa5050505050565b600061179a826040518060400160405280602081526020017f5361666545524332303a206c6f772d6c6576656c2063616c6c206661696c65648152508573ffffffffffffffffffffffffffffffffffffffff166117ff9092919063ffffffff16565b90506000815111156117fa57808060200190518101906117ba91906125ef565b6117f9576040517f08c379a00000000000000000000000000000000000000000000000000000000081526004016117f09061268e565b60405180910390fd5b5b505050565b606061180e8484600085611817565b90509392505050565b60608247101561185c576040517f08c379a000000000000000000000000000000000000000000000000000000000815260040161185390612720565b60405180910390fd5b6118658561192b565b6118a4576040517f08c379a000000000000000000000000000000000000000000000000000000000815260040161189b9061278c565b60405180910390fd5b6000808673ffffffffffffffffffffffffffffffffffffffff1685876040516118cd91906127f3565b60006040518083038185875af1925050503d806000811461190a576040519150601f19603f3d011682016040523d82523d6000602084013e61190f565b606091505b509150915061191f82828661193e565b92505050949350505050565b600080823b905060008111915050919050565b6060831561194e5782905061199e565b6000835111156119615782518084602001fd5b816040517f08c379a0000000000000000000000000000000000000000000000000000000008152600401611995919061280a565b60405180910390fd5b9392505050565b60405180606001604052806000815260200160008152602001600081525090565b6000819050919050565b6119d9816119c6565b82525050565b60006020820190506119f460008301846119d0565b92915050565b600080fd5b600080fd5b611a0d816119c6565b8114611a1857600080fd5b50565b600081359050611a2a81611a04565b92915050565b600060208284031215611a4657611a456119fa565b5b6000611a5484828501611a1b565b91505092915050565b6000606082019050611a7260008301866119d0565b611a7f60208301856119d0565b611a8c60408301846119d0565b949350505050565b60008060408385031215611aab57611aaa6119fa565b5b6000611ab985828601611a1b565b9250506020611aca85828601611a1b565b9150509250929050565b600073ffffffffffffffffffffffffffffffffffffffff82169050919050565b6000611aff82611ad4565b9050919050565b611b0f81611af4565b8114611b1a57600080fd5b50565b600081359050611b2c81611b06565b92915050565b600080600080600060a08688031215611b4e57611b4d6119fa565b5b6000611b5c88828901611a1b565b9550506020611b6d88828901611b1d565b9450506040611b7e88828901611b1d565b9350506060611b8f88828901611a1b565b9250506080611ba088828901611a1b565b9150509295509295909350565b60008060408385031215611bc457611bc36119fa565b5b6000611bd285828601611a1b565b9250506020611be385828601611b1d565b9150509250929050565b611bf6816119c6565b82525050565b606082016000820151611c126000850182611bed565b506020820151611c256020850182611bed565b506040820151611c386040850182611bed565b50505050565b6000606082019050611c536000830184611bfc565b92915050565b600080fd5b600080fd5b600080fd5b60008083601f840112611c7e57611c7d611c59565b5b8235905067ffffffffffffffff811115611c9b57611c9a611c5e565b5b602083019150836020820283011115611cb757611cb6611c63565b5b9250929050565b60008060208385031215611cd557611cd46119fa565b5b600083013567ffffffffffffffff811115611cf357611cf26119ff565b5b611cff85828601611c68565b92509250509250929050565b611d1481611af4565b82525050565b6000602082019050611d2f6000830184611d0b565b92915050565b6000604082019050611d4a60008301856119d0565b611d5760208301846119d0565b9392505050565b600080600060608486031215611d7757611d766119fa565b5b6000611d8586828701611a1b565b9350506020611d9686828701611b1d565b9250506040611da786828701611a1b565b9150509250925092565b600081519050919050565b600082825260208201905092915050565b6000819050602082019050919050565b6000819050919050565b6000611e02611dfd611df884611ad4565b611ddd565b611ad4565b9050919050565b6000611e1482611de7565b9050919050565b6000611e2682611e09565b9050919050565b611e3681611e1b565b82525050565b6000611e488383611e2d565b60208301905092915050565b6000602082019050919050565b6000611e6c82611db1565b611e768185611dbc565b9350611e8183611dcd565b8060005b83811015611eb2578151611e998882611e3c565b9750611ea483611e54565b925050600181019050611e85565b5085935050505092915050565b600081519050919050565b600082825260208201905092915050565b6000819050602082019050919050565b6000611ef78383611bed565b60208301905092915050565b6000602082019050919050565b6000611f1b82611ebf565b611f258185611eca565b9350611f3083611edb565b8060005b83811015611f61578151611f488882611eeb565b9750611f5383611f03565b925050600181019050611f34565b5085935050505092915050565b60006040820190508181036000830152611f888185611e61565b90508181036020830152611f9c8184611f10565b90509392505050565b600060208284031215611fbb57611fba6119fa565b5b6000611fc984828501611b1d565b91505092915050565b600082825260208201905092915050565b7f4f776e61626c653a2063616c6c6572206973206e6f7420746865206f776e6572600082015250565b6000612019602083611fd2565b915061202482611fe3565b602082019050919050565b600060208201905081810360008301526120488161200c565b9050919050565b7f4e487b7100000000000000000000000000000000000000000000000000000000600052601160045260246000fd5b6000612089826119c6565b9150612094836119c6565b9250828210156120a7576120a661204f565b5b828203905092915050565b60006120bd826119c6565b91506120c8836119c6565b9250827fffffffffffffffffffffffffffffffffffffffffffffffffffffffffffffffff038211156120fd576120fc61204f565b5b828201905092915050565b7f4f6e6c79204d4356322063616e2063616c6c20746869732066756e6374696f6e60008201527f2e00000000000000000000000000000000000000000000000000000000000000602082015250565b6000612164602183611fd2565b915061216f82612108565b604082019050919050565b6000602082019050818103600083015261219381612157565b9050919050565b6000815190506121a981611a04565b92915050565b6000602082840312156121c5576121c46119fa565b5b60006121d38482850161219a565b91505092915050565b60006121e7826119c6565b91506121f2836119c6565b9250817fffffffffffffffffffffffffffffffffffffffffffffffffffffffffffffffff048311821515161561222b5761222a61204f565b5b828202905092915050565b7f4e487b7100000000000000000000000000000000000000000000000000000000600052601260045260246000fd5b6000612270826119c6565b915061227b836119c6565b92508261228b5761228a612236565b5b828204905092915050565b60006122a182611af4565b9050919050565b6122b181612296565b81146122bc57600080fd5b50565b6000815190506122ce816122a8565b92915050565b6000602082840312156122ea576122e96119fa565b5b60006122f8848285016122bf565b91505092915050565b7f4e487b7100000000000000000000000000000000000000000000000000000000600052603260045260246000fd5b600061233b826119c6565b91507fffffffffffffffffffffffffffffffffffffffffffffffffffffffffffffffff82141561236e5761236d61204f565b5b600182019050919050565b7f506f6f6c20616c72656164792065786973747300000000000000000000000000600082015250565b60006123af601383611fd2565b91506123ba82612379565b602082019050919050565b600060208201905081810360008301526123de816123a2565b9050919050565b7f4e487b7100000000000000000000000000000000000000000000000000000000600052604160045260246000fd5b7f4f776e61626c653a206e6577206f776e657220697320746865207a65726f206160008201527f6464726573730000000000000000000000000000000000000000000000000000602082015250565b6000612470602683611fd2565b915061247b82612414565b604082019050919050565b6000602082019050818103600083015261249f81612463565b9050919050565b600081519050919050565b60005b838110156124cf5780820151818401526020810190506124b4565b838111156124de576000848401525b50505050565b6000601f19601f8301169050919050565b6000612500826124a6565b61250a8185611fd2565b935061251a8185602086016124b1565b612523816124e4565b840191505092915050565b6000604082019050818103600083015261254881856124f5565b905061255760208301846119d0565b9392505050565b60006040820190506125736000830185611d0b565b61258060208301846119d0565b9392505050565b600060408201905081810360008301526125a181856124f5565b90506125b06020830184611d0b565b9392505050565b60008115159050919050565b6125cc816125b7565b81146125d757600080fd5b50565b6000815190506125e9816125c3565b92915050565b600060208284031215612605576126046119fa565b5b6000612613848285016125da565b91505092915050565b7f5361666545524332303a204552433230206f7065726174696f6e20646964206e60008201527f6f74207375636365656400000000000000000000000000000000000000000000602082015250565b6000612678602a83611fd2565b91506126838261261c565b604082019050919050565b600060208201905081810360008301526126a78161266b565b9050919050565b7f416464726573733a20696e73756666696369656e742062616c616e636520666f60008201527f722063616c6c0000000000000000000000000000000000000000000000000000602082015250565b600061270a602683611fd2565b9150612715826126ae565b604082019050919050565b60006020820190508181036000830152612739816126fd565b9050919050565b7f416464726573733a2063616c6c20746f206e6f6e2d636f6e7472616374000000600082015250565b6000612776601d83611fd2565b915061278182612740565b602082019050919050565b600060208201905081810360008301526127a581612769565b9050919050565b600081519050919050565b600081905092915050565b60006127cd826127ac565b6127d781856127b7565b93506127e78185602086016124b1565b80840191505092915050565b60006127ff82846127c2565b915081905092915050565b6000602082019050818103600083015261282481846124f5565b90509291505056fea26469706673582212207958555fdd7f1bc154a04e954b14f79b59a6f187bae2bbc1026d6f69d4a4f69d64736f6c634300080a0033",
  "linkReferences": {},
  "deployedLinkReferences": {}
}