{
  "_format": "hh-sol-artifact-1",
  "contractName": "Rewarder",
  "sourceName": "contracts/Rewarder.sol",
  "abi": [
    {
      "inputs": [
        {
          "internalType": "contract IERC20",
          "name": "_rewardToken",
          "type": "address"
        },
        {
          "internalType": "uint256",
          "name": "_rewardPerSecond",
          "type": "uint256"
        },
        {
          "internalType": "address",
          "name": "_LFI_FARM",
          "type": "address"
        }
      ],
      "stateMutability": "nonpayable",
      "type": "constructor"
    },
    {
      "anonymous": false,
      "inputs": [],
      "name": "LogInit",
      "type": "event"
    },
    {
      "anonymous": false,
      "inputs": [
        {
          "indexed": true,
          "internalType": "address",
          "name": "user",
          "type": "address"
        },
        {
          "indexed": true,
          "internalType": "uint256",
          "name": "pid",
          "type": "uint256"
        },
        {
          "indexed": false,
          "internalType": "uint256",
          "name": "amount",
          "type": "uint256"
        },
        {
          "indexed": true,
          "internalType": "address",
          "name": "to",
          "type": "address"
        }
      ],
      "name": "LogOnReward",
      "type": "event"
    },
    {
      "anonymous": false,
      "inputs": [
        {
          "indexed": true,
          "internalType": "uint256",
          "name": "pid",
          "type": "uint256"
        },
        {
          "indexed": false,
          "internalType": "uint256",
          "name": "allocPoint",
          "type": "uint256"
        }
      ],
      "name": "LogPoolAddition",
      "type": "event"
    },
    {
      "anonymous": false,
      "inputs": [
        {
          "indexed": false,
          "internalType": "uint256",
          "name": "rewardPerSecond",
          "type": "uint256"
        }
      ],
      "name": "LogRewardPerSecond",
      "type": "event"
    },
    {
      "anonymous": false,
      "inputs": [
        {
          "indexed": true,
          "internalType": "uint256",
          "name": "pid",
          "type": "uint256"
        },
        {
          "indexed": false,
          "internalType": "uint256",
          "name": "allocPoint",
          "type": "uint256"
        }
      ],
      "name": "LogSetPool",
      "type": "event"
    },
    {
      "anonymous": false,
      "inputs": [
        {
          "indexed": true,
          "internalType": "uint256",
          "name": "pid",
          "type": "uint256"
        },
        {
          "indexed": false,
          "internalType": "uint256",
          "name": "lastRewardTime",
          "type": "uint256"
        },
        {
          "indexed": false,
          "internalType": "uint256",
          "name": "lpSupply",
          "type": "uint256"
        },
        {
          "indexed": false,
          "internalType": "uint256",
          "name": "accRewardPerShare",
          "type": "uint256"
        }
      ],
      "name": "LogUpdatePool",
      "type": "event"
    },
    {
      "anonymous": false,
      "inputs": [
        {
          "indexed": true,
          "internalType": "address",
          "name": "previousOwner",
          "type": "address"
        },
        {
          "indexed": true,
          "internalType": "address",
          "name": "newOwner",
          "type": "address"
        }
      ],
      "name": "OwnershipTransferred",
      "type": "event"
    },
    {
      "inputs": [
        {
          "internalType": "uint256",
          "name": "allocPoint",
          "type": "uint256"
        },
        {
          "internalType": "uint256",
          "name": "_pid",
          "type": "uint256"
        }
      ],
      "name": "add",
      "outputs": [],
      "stateMutability": "nonpayable",
      "type": "function"
    },
    {
      "inputs": [
        {
          "internalType": "uint256[]",
          "name": "pids",
          "type": "uint256[]"
        }
      ],
      "name": "massUpdatePools",
      "outputs": [],
      "stateMutability": "nonpayable",
      "type": "function"
    },
    {
      "inputs": [
        {
          "internalType": "uint256",
          "name": "pid",
          "type": "uint256"
        },
        {
          "internalType": "address",
          "name": "_user",
          "type": "address"
        },
        {
          "internalType": "address",
          "name": "to",
          "type": "address"
        },
        {
          "internalType": "uint256",
          "name": "",
          "type": "uint256"
        },
        {
          "internalType": "uint256",
          "name": "lpToken",
          "type": "uint256"
        }
      ],
      "name": "onReward",
      "outputs": [],
      "stateMutability": "nonpayable",
      "type": "function"
    },
    {
      "inputs": [],
      "name": "owner",
      "outputs": [
        {
          "internalType": "address",
          "name": "",
          "type": "address"
        }
      ],
      "stateMutability": "view",
      "type": "function"
    },
    {
      "inputs": [
        {
          "internalType": "uint256",
          "name": "_pid",
          "type": "uint256"
        },
        {
          "internalType": "address",
          "name": "_user",
          "type": "address"
        }
      ],
      "name": "pendingToken",
      "outputs": [
        {
          "internalType": "uint256",
          "name": "pending",
          "type": "uint256"
        }
      ],
      "stateMutability": "view",
      "type": "function"
    },
    {
      "inputs": [
        {
          "internalType": "uint256",
          "name": "pid",
          "type": "uint256"
        },
        {
          "internalType": "address",
          "name": "user",
          "type": "address"
        },
        {
          "internalType": "uint256",
          "name": "",
          "type": "uint256"
        }
      ],
      "name": "pendingTokens",
      "outputs": [
        {
          "internalType": "contract IERC20[]",
          "name": "rewardTokens",
          "type": "address[]"
        },
        {
          "internalType": "uint256[]",
          "name": "rewardAmounts",
          "type": "uint256[]"
        }
      ],
      "stateMutability": "view",
      "type": "function"
    },
    {
      "inputs": [
        {
          "internalType": "uint256",
          "name": "",
          "type": "uint256"
        }
      ],
      "name": "poolIds",
      "outputs": [
        {
          "internalType": "uint256",
          "name": "",
          "type": "uint256"
        }
      ],
      "stateMutability": "view",
      "type": "function"
    },
    {
      "inputs": [
        {
          "internalType": "uint256",
          "name": "",
          "type": "uint256"
        }
      ],
      "name": "poolInfo",
      "outputs": [
        {
          "internalType": "uint256",
          "name": "accRewardPerShare",
          "type": "uint256"
        },
        {
          "internalType": "uint256",
          "name": "lastRewardTime",
          "type": "uint256"
        },
        {
          "internalType": "uint256",
          "name": "allocPoint",
          "type": "uint256"
        }
      ],
      "stateMutability": "view",
      "type": "function"
    },
    {
      "inputs": [],
      "name": "poolLength",
      "outputs": [
        {
          "internalType": "uint256",
          "name": "pools",
          "type": "uint256"
        }
      ],
      "stateMutability": "view",
      "type": "function"
    },
    {
      "inputs": [],
      "name": "renounceOwnership",
      "outputs": [],
      "stateMutability": "nonpayable",
      "type": "function"
    },
    {
      "inputs": [],
      "name": "rewardPerSecond",
      "outputs": [
        {
          "internalType": "uint256",
          "name": "",
          "type": "uint256"
        }
      ],
      "stateMutability": "view",
      "type": "function"
    },
    {
      "inputs": [
        {
          "internalType": "uint256",
          "name": "_pid",
          "type": "uint256"
        },
        {
          "internalType": "uint256",
          "name": "_allocPoint",
          "type": "uint256"
        }
      ],
      "name": "set",
      "outputs": [],
      "stateMutability": "nonpayable",
      "type": "function"
    },
    {
      "inputs": [
        {
          "internalType": "uint256",
          "name": "_rewardPerSecond",
          "type": "uint256"
        }
      ],
      "name": "setRewardPerSecond",
      "outputs": [],
      "stateMutability": "nonpayable",
      "type": "function"
    },
    {
      "inputs": [
        {
          "internalType": "address",
          "name": "newOwner",
          "type": "address"
        }
      ],
      "name": "transferOwnership",
      "outputs": [],
      "stateMutability": "nonpayable",
      "type": "function"
    },
    {
      "inputs": [
        {
          "internalType": "uint256",
          "name": "pid",
          "type": "uint256"
        }
      ],
      "name": "updatePool",
      "outputs": [
        {
          "components": [
            {
              "internalType": "uint256",
              "name": "accRewardPerShare",
              "type": "uint256"
            },
            {
              "internalType": "uint256",
              "name": "lastRewardTime",
              "type": "uint256"
            },
            {
              "internalType": "uint256",
              "name": "allocPoint",
              "type": "uint256"
            }
          ],
          "internalType": "struct Rewarder.PoolInfo",
          "name": "pool",
          "type": "tuple"
        }
      ],
      "stateMutability": "nonpayable",
      "type": "function"
    },
    {
      "inputs": [
        {
          "internalType": "uint256",
          "name": "",
          "type": "uint256"
        },
        {
          "internalType": "address",
          "name": "",
          "type": "address"
        }
      ],
      "name": "userInfo",
      "outputs": [
        {
          "internalType": "uint256",
          "name": "amount",
          "type": "uint256"
        },
        {
          "internalType": "uint256",
          "name": "rewardDebt",
          "type": "uint256"
        }
      ],
      "stateMutability": "view",
      "type": "function"
    }
  ],
  "bytecode": "0x60806040523480156200001157600080fd5b50604051620026f3380380620026f383398181016040528101906200003791906200029f565b620000576200004b620000e960201b60201c565b620000f160201b60201c565b82600160006101000a81548173ffffffffffffffffffffffffffffffffffffffff021916908373ffffffffffffffffffffffffffffffffffffffff1602179055508160068190555080600760006101000a81548173ffffffffffffffffffffffffffffffffffffffff021916908373ffffffffffffffffffffffffffffffffffffffff160217905550505050620002fb565b600033905090565b60008060009054906101000a900473ffffffffffffffffffffffffffffffffffffffff169050816000806101000a81548173ffffffffffffffffffffffffffffffffffffffff021916908373ffffffffffffffffffffffffffffffffffffffff1602179055508173ffffffffffffffffffffffffffffffffffffffff168173ffffffffffffffffffffffffffffffffffffffff167f8be0079c531659141344cd1fd0a4f28419497f9722a3daafe3b4186f6b6457e060405160405180910390a35050565b600080fd5b600073ffffffffffffffffffffffffffffffffffffffff82169050919050565b6000620001e782620001ba565b9050919050565b6000620001fb82620001da565b9050919050565b6200020d81620001ee565b81146200021957600080fd5b50565b6000815190506200022d8162000202565b92915050565b6000819050919050565b620002488162000233565b81146200025457600080fd5b50565b60008151905062000268816200023d565b92915050565b6200027981620001da565b81146200028557600080fd5b50565b60008151905062000299816200026e565b92915050565b600080600060608486031215620002bb57620002ba620001b5565b5b6000620002cb868287016200021c565b9350506020620002de8682870162000257565b9250506040620002f18682870162000288565b9150509250925092565b6123e8806200030b6000396000f3fe608060405234801561001057600080fd5b50600436106101005760003560e01c806369883b4e116100975780638f10369a116100665780638f10369a1461029957806393f1a40b146102b7578063d63b3c49146102e8578063f2fde38b1461031957610100565b806369883b4e14610225578063715018a614610255578063771602f71461025f5780638da5cb5b1461027b57610100565b806348e43af4116100d357806348e43af41461018d57806351eb05a6146101bd57806357a5b58c146101ed57806366da58151461020957610100565b8063081e3eda146101055780631526fe27146101235780631ab06ee51461015557806344af0fa714610171575b600080fd5b61010d610335565b60405161011a91906115c5565b60405180910390f35b61013d60048036038101906101389190611616565b610342565b60405161014c93929190611643565b60405180910390f35b61016f600480360381019061016a919061167a565b61036c565b005b61018b60048036038101906101869190611718565b610474565b005b6101a760048036038101906101a29190611793565b610697565b6040516101b491906115c5565b60405180910390f35b6101d760048036038101906101d29190611616565b610932565b6040516101e49190611824565b60405180910390f35b610207600480360381019061020291906118a4565b610bcb565b005b610223600480360381019061021e9190611616565b610c18565b005b61023f600480360381019061023a9190611616565b610cd5565b60405161024c91906115c5565b60405180910390f35b61025d610cf9565b005b6102796004803603810190610274919061167a565b610d81565b005b610283610f2a565b6040516102909190611900565b60405180910390f35b6102a1610f53565b6040516102ae91906115c5565b60405180910390f35b6102d160048036038101906102cc9190611793565b610f59565b6040516102df92919061191b565b60405180910390f35b61030260048036038101906102fd9190611944565b610f8a565b604051610310929190611b54565b60405180910390f35b610333600480360381019061032e9190611b8b565b6110d4565b005b6000600380549050905090565b60026020528060005260406000206000915090508060000154908060010154908060020154905083565b6103746111cc565b73ffffffffffffffffffffffffffffffffffffffff16610392610f2a565b73ffffffffffffffffffffffffffffffffffffffff16146103e8576040517f08c379a00000000000000000000000000000000000000000000000000000000081526004016103df90611c15565b60405180910390fd5b80600260008481526020019081526020016000206002015460055461040d9190611c64565b6104179190611c98565b600581905550806002600084815260200190815260200160002060020181905550817f942cc7e17a17c164bd977f32ab8c54265d5b9d481e4e352bf874f1e568874e7c8260405161046891906115c5565b60405180910390a25050565b600760009054906101000a900473ffffffffffffffffffffffffffffffffffffffff1673ffffffffffffffffffffffffffffffffffffffff163373ffffffffffffffffffffffffffffffffffffffff1614610504576040517f08c379a00000000000000000000000000000000000000000000000000000000081526004016104fb90611d60565b60405180910390fd5b600061050f86610932565b905060006004600088815260200190815260200160002060008773ffffffffffffffffffffffffffffffffffffffff1673ffffffffffffffffffffffffffffffffffffffff1681526020019081526020016000209050600080826000015411156105f657816001015464e8d4a51000846000015184600001546105929190611d80565b61059c9190611e09565b6105a69190611c64565b90506105f58682600160009054906101000a900473ffffffffffffffffffffffffffffffffffffffff1673ffffffffffffffffffffffffffffffffffffffff166111d49092919063ffffffff16565b5b83826000018190555064e8d4a510008360000151856106159190611d80565b61061f9190611e09565b82600101819055508573ffffffffffffffffffffffffffffffffffffffff16888873ffffffffffffffffffffffffffffffffffffffff167f2ece88ca2bc08dd018db50e1d25a20bf1241e5fab1c396caa51f01a54bd2f75b8460405161068591906115c5565b60405180910390a45050505050505050565b600080600260008581526020019081526020016000206040518060600160405290816000820154815260200160018201548152602001600282015481525050905060006004600086815260200190815260200160002060008573ffffffffffffffffffffffffffffffffffffffff1673ffffffffffffffffffffffffffffffffffffffff16815260200190815260200160002090506000826000015190506000600760009054906101000a900473ffffffffffffffffffffffffffffffffffffffff1673ffffffffffffffffffffffffffffffffffffffff166378ed5d1f886040518263ffffffff1660e01b815260040161079291906115c5565b602060405180830381865afa1580156107af573d6000803e3d6000fd5b505050506040513d601f19601f820116820180604052508101906107d39190611e78565b73ffffffffffffffffffffffffffffffffffffffff166370a08231600760009054906101000a900473ffffffffffffffffffffffffffffffffffffffff166040518263ffffffff1660e01b815260040161082d9190611900565b602060405180830381865afa15801561084a573d6000803e3d6000fd5b505050506040513d601f19601f8201168201806040525081019061086e9190611eba565b9050836020015142118015610884575060008114155b156108f757600084602001514261089b9190611c64565b905060006005548660400151600654846108b59190611d80565b6108bf9190611d80565b6108c99190611e09565b90508264e8d4a51000826108dd9190611d80565b6108e79190611e09565b846108f29190611c98565b935050505b826001015464e8d4a510008385600001546109129190611d80565b61091c9190611e09565b6109269190611c64565b94505050505092915050565b61093a61158b565b60026000838152602001908152602001600020604051806060016040529081600082015481526020016001820154815260200160028201548152505090508060200151421115610bc6576000600760009054906101000a900473ffffffffffffffffffffffffffffffffffffffff1673ffffffffffffffffffffffffffffffffffffffff166378ed5d1f846040518263ffffffff1660e01b81526004016109e191906115c5565b602060405180830381865afa1580156109fe573d6000803e3d6000fd5b505050506040513d601f19601f82011682018060405250810190610a229190611e78565b73ffffffffffffffffffffffffffffffffffffffff166370a08231600760009054906101000a900473ffffffffffffffffffffffffffffffffffffffff166040518263ffffffff1660e01b8152600401610a7c9190611900565b602060405180830381865afa158015610a99573d6000803e3d6000fd5b505050506040513d601f19601f82011682018060405250810190610abd9190611eba565b90506000811115610b41576000826020015142610ada9190611c64565b90506000600554846040015160065484610af49190611d80565b610afe9190611d80565b610b089190611e09565b90508264e8d4a5100082610b1c9190611d80565b610b269190611e09565b8460000151610b359190611c98565b84600001818152505050505b428260200181815250508160026000858152602001908152602001600020600082015181600001556020820151816001015560408201518160020155905050827fcb7325664a4a3b7c7223eefc492a97ca4fdf94d46884621e5a8fae5a04b2b9d28360200151838560000151604051610bbc93929190611643565b60405180910390a2505b919050565b600082829050905060005b81811015610c1257610c00848483818110610bf457610bf3611ee7565b5b90506020020135610932565b5080610c0b90611f16565b9050610bd6565b50505050565b610c206111cc565b73ffffffffffffffffffffffffffffffffffffffff16610c3e610f2a565b73ffffffffffffffffffffffffffffffffffffffff1614610c94576040517f08c379a0000000000000000000000000000000000000000000000000000000008152600401610c8b90611c15565b60405180910390fd5b806006819055507fde89cb17ac7f58f94792b3e91e086ed85403819c24ceea882491f960ccb1a27881604051610cca91906115c5565b60405180910390a150565b60038181548110610ce557600080fd5b906000526020600020016000915090505481565b610d016111cc565b73ffffffffffffffffffffffffffffffffffffffff16610d1f610f2a565b73ffffffffffffffffffffffffffffffffffffffff1614610d75576040517f08c379a0000000000000000000000000000000000000000000000000000000008152600401610d6c90611c15565b60405180910390fd5b610d7f600061125a565b565b610d896111cc565b73ffffffffffffffffffffffffffffffffffffffff16610da7610f2a565b73ffffffffffffffffffffffffffffffffffffffff1614610dfd576040517f08c379a0000000000000000000000000000000000000000000000000000000008152600401610df490611c15565b60405180910390fd5b6000600260008381526020019081526020016000206001015414610e56576040517f08c379a0000000000000000000000000000000000000000000000000000000008152600401610e4d90611fab565b60405180910390fd5b60004290508260056000828254610e6d9190611c98565b9250508190555060405180606001604052806000815260200182815260200184815250600260008481526020019081526020016000206000820151816000015560208201518160010155604082015181600201559050506003829080600181540180825580915050600190039060005260206000200160009091909190915055817f38410508059921573ab9ebdca2a5034be738d236366b8f32de4434ea95ed3c8184604051610f1d91906115c5565b60405180910390a2505050565b60008060009054906101000a900473ffffffffffffffffffffffffffffffffffffffff16905090565b60065481565b6004602052816000526040600020602052806000526040600020600091509150508060000154908060010154905082565b6060806000600167ffffffffffffffff811115610faa57610fa9611fcb565b5b604051908082528060200260200182016040528015610fd85781602001602082028036833780820191505090505b509050600160009054906101000a900473ffffffffffffffffffffffffffffffffffffffff168160008151811061101257611011611ee7565b5b602002602001019073ffffffffffffffffffffffffffffffffffffffff16908173ffffffffffffffffffffffffffffffffffffffff16815250506000600167ffffffffffffffff81111561106957611068611fcb565b5b6040519080825280602002602001820160405280156110975781602001602082028036833780820191505090505b5090506110a48787610697565b816000815181106110b8576110b7611ee7565b5b6020026020010181815250508181935093505050935093915050565b6110dc6111cc565b73ffffffffffffffffffffffffffffffffffffffff166110fa610f2a565b73ffffffffffffffffffffffffffffffffffffffff1614611150576040517f08c379a000000000000000000000000000000000000000000000000000000000815260040161114790611c15565b60405180910390fd5b600073ffffffffffffffffffffffffffffffffffffffff168173ffffffffffffffffffffffffffffffffffffffff1614156111c0576040517f08c379a00000000000000000000000000000000000000000000000000000000081526004016111b79061206c565b60405180910390fd5b6111c98161125a565b50565b600033905090565b6112558363a9059cbb60e01b84846040516024016111f392919061208c565b604051602081830303815290604052907bffffffffffffffffffffffffffffffffffffffffffffffffffffffff19166020820180517bffffffffffffffffffffffffffffffffffffffffffffffffffffffff838183161783525050505061131e565b505050565b60008060009054906101000a900473ffffffffffffffffffffffffffffffffffffffff169050816000806101000a81548173ffffffffffffffffffffffffffffffffffffffff021916908373ffffffffffffffffffffffffffffffffffffffff1602179055508173ffffffffffffffffffffffffffffffffffffffff168173ffffffffffffffffffffffffffffffffffffffff167f8be0079c531659141344cd1fd0a4f28419497f9722a3daafe3b4186f6b6457e060405160405180910390a35050565b6000611380826040518060400160405280602081526020017f5361666545524332303a206c6f772d6c6576656c2063616c6c206661696c65648152508573ffffffffffffffffffffffffffffffffffffffff166113e59092919063ffffffff16565b90506000815111156113e057808060200190518101906113a091906120ed565b6113df576040517f08c379a00000000000000000000000000000000000000000000000000000000081526004016113d69061218c565b60405180910390fd5b5b505050565b60606113f484846000856113fd565b90509392505050565b606082471015611442576040517f08c379a00000000000000000000000000000000000000000000000000000000081526004016114399061221e565b60405180910390fd5b61144b85611511565b61148a576040517f08c379a00000000000000000000000000000000000000000000000000000000081526004016114819061228a565b60405180910390fd5b6000808673ffffffffffffffffffffffffffffffffffffffff1685876040516114b39190612324565b60006040518083038185875af1925050503d80600081146114f0576040519150601f19603f3d011682016040523d82523d6000602084013e6114f5565b606091505b5091509150611505828286611524565b92505050949350505050565b600080823b905060008111915050919050565b6060831561153457829050611584565b6000835111156115475782518084602001fd5b816040517f08c379a000000000000000000000000000000000000000000000000000000000815260040161157b9190612390565b60405180910390fd5b9392505050565b60405180606001604052806000815260200160008152602001600081525090565b6000819050919050565b6115bf816115ac565b82525050565b60006020820190506115da60008301846115b6565b92915050565b600080fd5b600080fd5b6115f3816115ac565b81146115fe57600080fd5b50565b600081359050611610816115ea565b92915050565b60006020828403121561162c5761162b6115e0565b5b600061163a84828501611601565b91505092915050565b600060608201905061165860008301866115b6565b61166560208301856115b6565b61167260408301846115b6565b949350505050565b60008060408385031215611691576116906115e0565b5b600061169f85828601611601565b92505060206116b085828601611601565b9150509250929050565b600073ffffffffffffffffffffffffffffffffffffffff82169050919050565b60006116e5826116ba565b9050919050565b6116f5816116da565b811461170057600080fd5b50565b600081359050611712816116ec565b92915050565b600080600080600060a08688031215611734576117336115e0565b5b600061174288828901611601565b955050602061175388828901611703565b945050604061176488828901611703565b935050606061177588828901611601565b925050608061178688828901611601565b9150509295509295909350565b600080604083850312156117aa576117a96115e0565b5b60006117b885828601611601565b92505060206117c985828601611703565b9150509250929050565b6117dc816115ac565b82525050565b6060820160008201516117f860008501826117d3565b50602082015161180b60208501826117d3565b50604082015161181e60408501826117d3565b50505050565b600060608201905061183960008301846117e2565b92915050565b600080fd5b600080fd5b600080fd5b60008083601f8401126118645761186361183f565b5b8235905067ffffffffffffffff81111561188157611880611844565b5b60208301915083602082028301111561189d5761189c611849565b5b9250929050565b600080602083850312156118bb576118ba6115e0565b5b600083013567ffffffffffffffff8111156118d9576118d86115e5565b5b6118e58582860161184e565b92509250509250929050565b6118fa816116da565b82525050565b600060208201905061191560008301846118f1565b92915050565b600060408201905061193060008301856115b6565b61193d60208301846115b6565b9392505050565b60008060006060848603121561195d5761195c6115e0565b5b600061196b86828701611601565b935050602061197c86828701611703565b925050604061198d86828701611601565b9150509250925092565b600081519050919050565b600082825260208201905092915050565b6000819050602082019050919050565b6000819050919050565b60006119e86119e36119de846116ba565b6119c3565b6116ba565b9050919050565b60006119fa826119cd565b9050919050565b6000611a0c826119ef565b9050919050565b611a1c81611a01565b82525050565b6000611a2e8383611a13565b60208301905092915050565b6000602082019050919050565b6000611a5282611997565b611a5c81856119a2565b9350611a67836119b3565b8060005b83811015611a98578151611a7f8882611a22565b9750611a8a83611a3a565b925050600181019050611a6b565b5085935050505092915050565b600081519050919050565b600082825260208201905092915050565b6000819050602082019050919050565b6000611add83836117d3565b60208301905092915050565b6000602082019050919050565b6000611b0182611aa5565b611b0b8185611ab0565b9350611b1683611ac1565b8060005b83811015611b47578151611b2e8882611ad1565b9750611b3983611ae9565b925050600181019050611b1a565b5085935050505092915050565b60006040820190508181036000830152611b6e8185611a47565b90508181036020830152611b828184611af6565b90509392505050565b600060208284031215611ba157611ba06115e0565b5b6000611baf84828501611703565b91505092915050565b600082825260208201905092915050565b7f4f776e61626c653a2063616c6c6572206973206e6f7420746865206f776e6572600082015250565b6000611bff602083611bb8565b9150611c0a82611bc9565b602082019050919050565b60006020820190508181036000830152611c2e81611bf2565b9050919050565b7f4e487b7100000000000000000000000000000000000000000000000000000000600052601160045260246000fd5b6000611c6f826115ac565b9150611c7a836115ac565b925082821015611c8d57611c8c611c35565b5b828203905092915050565b6000611ca3826115ac565b9150611cae836115ac565b9250827fffffffffffffffffffffffffffffffffffffffffffffffffffffffffffffffff03821115611ce357611ce2611c35565b5b828201905092915050565b7f4f6e6c79204d4356322063616e2063616c6c20746869732066756e6374696f6e60008201527f2e00000000000000000000000000000000000000000000000000000000000000602082015250565b6000611d4a602183611bb8565b9150611d5582611cee565b604082019050919050565b60006020820190508181036000830152611d7981611d3d565b9050919050565b6000611d8b826115ac565b9150611d96836115ac565b9250817fffffffffffffffffffffffffffffffffffffffffffffffffffffffffffffffff0483118215151615611dcf57611dce611c35565b5b828202905092915050565b7f4e487b7100000000000000000000000000000000000000000000000000000000600052601260045260246000fd5b6000611e14826115ac565b9150611e1f836115ac565b925082611e2f57611e2e611dda565b5b828204905092915050565b6000611e45826116da565b9050919050565b611e5581611e3a565b8114611e6057600080fd5b50565b600081519050611e7281611e4c565b92915050565b600060208284031215611e8e57611e8d6115e0565b5b6000611e9c84828501611e63565b91505092915050565b600081519050611eb4816115ea565b92915050565b600060208284031215611ed057611ecf6115e0565b5b6000611ede84828501611ea5565b91505092915050565b7f4e487b7100000000000000000000000000000000000000000000000000000000600052603260045260246000fd5b6000611f21826115ac565b91507fffffffffffffffffffffffffffffffffffffffffffffffffffffffffffffffff821415611f5457611f53611c35565b5b600182019050919050565b7f506f6f6c20616c72656164792065786973747300000000000000000000000000600082015250565b6000611f95601383611bb8565b9150611fa082611f5f565b602082019050919050565b60006020820190508181036000830152611fc481611f88565b9050919050565b7f4e487b7100000000000000000000000000000000000000000000000000000000600052604160045260246000fd5b7f4f776e61626c653a206e6577206f776e657220697320746865207a65726f206160008201527f6464726573730000000000000000000000000000000000000000000000000000602082015250565b6000612056602683611bb8565b915061206182611ffa565b604082019050919050565b6000602082019050818103600083015261208581612049565b9050919050565b60006040820190506120a160008301856118f1565b6120ae60208301846115b6565b9392505050565b60008115159050919050565b6120ca816120b5565b81146120d557600080fd5b50565b6000815190506120e7816120c1565b92915050565b600060208284031215612103576121026115e0565b5b6000612111848285016120d8565b91505092915050565b7f5361666545524332303a204552433230206f7065726174696f6e20646964206e60008201527f6f74207375636365656400000000000000000000000000000000000000000000602082015250565b6000612176602a83611bb8565b91506121818261211a565b604082019050919050565b600060208201905081810360008301526121a581612169565b9050919050565b7f416464726573733a20696e73756666696369656e742062616c616e636520666f60008201527f722063616c6c0000000000000000000000000000000000000000000000000000602082015250565b6000612208602683611bb8565b9150612213826121ac565b604082019050919050565b60006020820190508181036000830152612237816121fb565b9050919050565b7f416464726573733a2063616c6c20746f206e6f6e2d636f6e7472616374000000600082015250565b6000612274601d83611bb8565b915061227f8261223e565b602082019050919050565b600060208201905081810360008301526122a381612267565b9050919050565b600081519050919050565b600081905092915050565b60005b838110156122de5780820151818401526020810190506122c3565b838111156122ed576000848401525b50505050565b60006122fe826122aa565b61230881856122b5565b93506123188185602086016122c0565b80840191505092915050565b600061233082846122f3565b915081905092915050565b600081519050919050565b6000601f19601f8301169050919050565b60006123628261233b565b61236c8185611bb8565b935061237c8185602086016122c0565b61238581612346565b840191505092915050565b600060208201905081810360008301526123aa8184612357565b90509291505056fea2646970667358221220510500f683ec8ce6fd85b912e549552b99ba5085a645758b7e8393f33c78678a64736f6c634300080a0033",
  "linkReferences": {},
  "deployedLinkReferences": {}
}