{
  "_format": "hh-sol-artifact-1",
  "contractName": "FrontendHelper",
  "sourceName": "contracts/FrontendHelper.sol",
  "abi": [
    {
      "inputs": [
        {
          "internalType": "address",
          "name": "_admin",
          "type": "address"
        },
        {
          "internalType": "address[]",
          "name": "housePools",
          "type": "address[]"
        }
      ],
      "stateMutability": "nonpayable",
      "type": "constructor"
    },
    {
      "anonymous": false,
      "inputs": [
        {
          "indexed": true,
          "internalType": "bytes32",
          "name": "role",
          "type": "bytes32"
        },
        {
          "indexed": true,
          "internalType": "bytes32",
          "name": "previousAdminRole",
          "type": "bytes32"
        },
        {
          "indexed": true,
          "internalType": "bytes32",
          "name": "newAdminRole",
          "type": "bytes32"
        }
      ],
      "name": "RoleAdminChanged",
      "type": "event"
    },
    {
      "anonymous": false,
      "inputs": [
        {
          "indexed": true,
          "internalType": "bytes32",
          "name": "role",
          "type": "bytes32"
        },
        {
          "indexed": true,
          "internalType": "address",
          "name": "account",
          "type": "address"
        },
        {
          "indexed": true,
          "internalType": "address",
          "name": "sender",
          "type": "address"
        }
      ],
      "name": "RoleGranted",
      "type": "event"
    },
    {
      "anonymous": false,
      "inputs": [
        {
          "indexed": true,
          "internalType": "bytes32",
          "name": "role",
          "type": "bytes32"
        },
        {
          "indexed": true,
          "internalType": "address",
          "name": "account",
          "type": "address"
        },
        {
          "indexed": true,
          "internalType": "address",
          "name": "sender",
          "type": "address"
        }
      ],
      "name": "RoleRevoked",
      "type": "event"
    },
    {
      "inputs": [],
      "name": "DEFAULT_ADMIN_ROLE",
      "outputs": [
        {
          "internalType": "bytes32",
          "name": "",
          "type": "bytes32"
        }
      ],
      "stateMutability": "view",
      "type": "function"
    },
    {
      "inputs": [],
      "name": "getPoolInformation",
      "outputs": [
        {
          "components": [
            {
              "internalType": "address",
              "name": "housePool",
              "type": "address"
            },
            {
              "internalType": "uint256",
              "name": "liquidity",
              "type": "uint256"
            }
          ],
          "internalType": "struct FrontendHelper.HousePoolLiquidity[]",
          "name": "housePoolLiquidity",
          "type": "tuple[]"
        }
      ],
      "stateMutability": "view",
      "type": "function"
    },
    {
      "inputs": [
        {
          "internalType": "bytes32",
          "name": "role",
          "type": "bytes32"
        }
      ],
      "name": "getRoleAdmin",
      "outputs": [
        {
          "internalType": "bytes32",
          "name": "",
          "type": "bytes32"
        }
      ],
      "stateMutability": "view",
      "type": "function"
    },
    {
      "inputs": [
        {
          "internalType": "bytes32",
          "name": "role",
          "type": "bytes32"
        },
        {
          "internalType": "address",
          "name": "account",
          "type": "address"
        }
      ],
      "name": "grantRole",
      "outputs": [],
      "stateMutability": "nonpayable",
      "type": "function"
    },
    {
      "inputs": [
        {
          "internalType": "bytes32",
          "name": "role",
          "type": "bytes32"
        },
        {
          "internalType": "address",
          "name": "account",
          "type": "address"
        }
      ],
      "name": "hasRole",
      "outputs": [
        {
          "internalType": "bool",
          "name": "",
          "type": "bool"
        }
      ],
      "stateMutability": "view",
      "type": "function"
    },
    {
      "inputs": [
        {
          "internalType": "bytes32",
          "name": "role",
          "type": "bytes32"
        },
        {
          "internalType": "address",
          "name": "account",
          "type": "address"
        }
      ],
      "name": "renounceRole",
      "outputs": [],
      "stateMutability": "nonpayable",
      "type": "function"
    },
    {
      "inputs": [
        {
          "internalType": "bytes32",
          "name": "role",
          "type": "bytes32"
        },
        {
          "internalType": "address",
          "name": "account",
          "type": "address"
        }
      ],
      "name": "revokeRole",
      "outputs": [],
      "stateMutability": "nonpayable",
      "type": "function"
    },
    {
      "inputs": [
        {
          "internalType": "address[]",
          "name": "housePools",
          "type": "address[]"
        }
      ],
      "name": "setPools",
      "outputs": [],
      "stateMutability": "nonpayable",
      "type": "function"
    },
    {
      "inputs": [
        {
          "internalType": "bytes4",
          "name": "interfaceId",
          "type": "bytes4"
        }
      ],
      "name": "supportsInterface",
      "outputs": [
        {
          "internalType": "bool",
          "name": "",
          "type": "bool"
        }
      ],
      "stateMutability": "view",
      "type": "function"
    }
  ],
  "bytecode": "0x60806040523480156200001157600080fd5b5060405162000d6c38038062000d6c8339810160408190526200003491620001c3565b620000416000836200005f565b8051620000569060019060208401906200010f565b505050620002ac565b6200006b82826200006f565b5050565b6000828152602081815260408083206001600160a01b038516845290915290205460ff166200006b576000828152602081815260408083206001600160a01b03851684529091529020805460ff19166001179055620000cb3390565b6001600160a01b0316816001600160a01b0316837f2f8788117e7eff1d82e926ec794901d17c78024a50270940304540a733656f0d60405160405180910390a45050565b82805482825590600052602060002090810192821562000167579160200282015b828111156200016757825182546001600160a01b0319166001600160a01b0390911617825560209092019160019091019062000130565b506200017592915062000179565b5090565b5b808211156200017557600081556001016200017a565b80516001600160a01b0381168114620001a857600080fd5b919050565b634e487b7160e01b600052604160045260246000fd5b60008060408385031215620001d757600080fd5b620001e28362000190565b602084810151919350906001600160401b03808211156200020257600080fd5b818601915086601f8301126200021757600080fd5b8151818111156200022c576200022c620001ad565b8060051b604051601f19603f83011681018181108582111715620002545762000254620001ad565b6040529182528482019250838101850191898311156200027357600080fd5b938501935b828510156200029c576200028c8562000190565b8452938501939285019262000278565b8096505050505050509250929050565b610ab080620002bc6000396000f3fe608060405234801561001057600080fd5b50600436106100935760003560e01c8063487496161161006657806348749616146101195780638544c53b1461012e57806391d1485414610141578063a217fddf14610154578063d547741f1461015c57600080fd5b806301ffc9a714610098578063248a9ca3146100c05780632f2ff15d146100f157806336568abe14610106575b600080fd5b6100ab6100a6366004610736565b61016f565b60405190151581526020015b60405180910390f35b6100e36100ce366004610760565b60009081526020819052604090206001015490565b6040519081526020016100b7565b6101046100ff366004610795565b6101a6565b005b610104610114366004610795565b6101d1565b610121610254565b6040516100b791906107c1565b61010461013c36600461082f565b61035e565b6100ab61014f366004610795565b61037d565b6100e3600081565b61010461016a366004610795565b6103a6565b60006001600160e01b03198216637965db0b60e01b14806101a057506301ffc9a760e01b6001600160e01b03198316145b92915050565b6000828152602081905260409020600101546101c281336103cc565b6101cc8383610430565b505050565b6001600160a01b03811633146102465760405162461bcd60e51b815260206004820152602f60248201527f416363657373436f6e74726f6c3a2063616e206f6e6c792072656e6f756e636560448201526e103937b632b9903337b91039b2b63360891b60648201526084015b60405180910390fd5b61025082826104b4565b5050565b60608060005b60015481101561035857604051806040016040528060018381548110610282576102826108f4565b600091825260209182902001546001600160a01b03168252600180549290910191849081106102b3576102b36108f4565b6000918252602091829020015460408051633c0717fd60e01b815290516001600160a01b0390921692633c0717fd926004808401938290030181865afa158015610301573d6000803e3d6000fd5b505050506040513d601f19601f82011682018060405250810190610325919061090a565b81525082828151811061033a5761033a6108f4565b6020026020010181905250808061035090610939565b91505061025a565b50919050565b600061036a81336103cc565b81516101cc9060019060208501906106bc565b6000918252602082815260408084206001600160a01b0393909316845291905290205460ff1690565b6000828152602081905260409020600101546103c281336103cc565b6101cc83836104b4565b6103d6828261037d565b610250576103ee816001600160a01b03166014610519565b6103f9836020610519565b60405160200161040a929190610984565b60408051601f198184030181529082905262461bcd60e51b825261023d916004016109f9565b61043a828261037d565b610250576000828152602081815260408083206001600160a01b03851684529091529020805460ff191660011790556104703390565b6001600160a01b0316816001600160a01b0316837f2f8788117e7eff1d82e926ec794901d17c78024a50270940304540a733656f0d60405160405180910390a45050565b6104be828261037d565b15610250576000828152602081815260408083206001600160a01b0385168085529252808320805460ff1916905551339285917ff6391f5c32d9c69d2a47ea670b442974b53935d1edc7fd64eb21e047a839171b9190a45050565b60606000610528836002610a2c565b610533906002610a4b565b67ffffffffffffffff81111561054b5761054b610819565b6040519080825280601f01601f191660200182016040528015610575576020820181803683370190505b509050600360fc1b81600081518110610590576105906108f4565b60200101906001600160f81b031916908160001a905350600f60fb1b816001815181106105bf576105bf6108f4565b60200101906001600160f81b031916908160001a90535060006105e3846002610a2c565b6105ee906001610a4b565b90505b6001811115610666576f181899199a1a9b1b9c1cb0b131b232b360811b85600f1660108110610622576106226108f4565b1a60f81b828281518110610638576106386108f4565b60200101906001600160f81b031916908160001a90535060049490941c9361065f81610a63565b90506105f1565b5083156106b55760405162461bcd60e51b815260206004820181905260248201527f537472696e67733a20686578206c656e67746820696e73756666696369656e74604482015260640161023d565b9392505050565b828054828255906000526020600020908101928215610711579160200282015b8281111561071157825182546001600160a01b0319166001600160a01b039091161782556020909201916001909101906106dc565b5061071d929150610721565b5090565b5b8082111561071d5760008155600101610722565b60006020828403121561074857600080fd5b81356001600160e01b0319811681146106b557600080fd5b60006020828403121561077257600080fd5b5035919050565b80356001600160a01b038116811461079057600080fd5b919050565b600080604083850312156107a857600080fd5b823591506107b860208401610779565b90509250929050565b602080825282518282018190526000919060409081850190868401855b8281101561080c57815180516001600160a01b031685528601518685015292840192908501906001016107de565b5091979650505050505050565b634e487b7160e01b600052604160045260246000fd5b6000602080838503121561084257600080fd5b823567ffffffffffffffff8082111561085a57600080fd5b818501915085601f83011261086e57600080fd5b81358181111561088057610880610819565b8060051b604051601f19603f830116810181811085821117156108a5576108a5610819565b6040529182528482019250838101850191888311156108c357600080fd5b938501935b828510156108e8576108d985610779565b845293850193928501926108c8565b98975050505050505050565b634e487b7160e01b600052603260045260246000fd5b60006020828403121561091c57600080fd5b5051919050565b634e487b7160e01b600052601160045260246000fd5b600060001982141561094d5761094d610923565b5060010190565b60005b8381101561096f578181015183820152602001610957565b8381111561097e576000848401525b50505050565b7f416363657373436f6e74726f6c3a206163636f756e74200000000000000000008152600083516109bc816017850160208801610954565b7001034b99036b4b9b9b4b733903937b6329607d1b60179184019182015283516109ed816028840160208801610954565b01602801949350505050565b6020815260008251806020840152610a18816040850160208701610954565b601f01601f19169190910160400192915050565b6000816000190483118215151615610a4657610a46610923565b500290565b60008219821115610a5e57610a5e610923565b500190565b600081610a7257610a72610923565b50600019019056fea2646970667358221220b913563d0d5a89e291ff2cec4fb310cb53af08f2ffdc34685da06ec6731ebaf864736f6c634300080a0033",
  "linkReferences": {},
  "deployedLinkReferences": {}
}