{
  "_format": "hh-sol-artifact-1",
  "contractName": "HousePoolWETH",
  "sourceName": "contracts/HousePoolWETHV1.sol",
  "abi": [
    {
      "anonymous": false,
      "inputs": [
        {
          "indexed": true,
          "internalType": "bytes32",
          "name": "role",
          "type": "bytes32"
        },
        {
          "indexed": true,
          "internalType": "bytes32",
          "name": "previousAdminRole",
          "type": "bytes32"
        },
        {
          "indexed": true,
          "internalType": "bytes32",
          "name": "newAdminRole",
          "type": "bytes32"
        }
      ],
      "name": "RoleAdminChanged",
      "type": "event"
    },
    {
      "anonymous": false,
      "inputs": [
        {
          "indexed": true,
          "internalType": "bytes32",
          "name": "role",
          "type": "bytes32"
        },
        {
          "indexed": true,
          "internalType": "address",
          "name": "account",
          "type": "address"
        },
        {
          "indexed": true,
          "internalType": "address",
          "name": "sender",
          "type": "address"
        }
      ],
      "name": "RoleGranted",
      "type": "event"
    },
    {
      "anonymous": false,
      "inputs": [
        {
          "indexed": true,
          "internalType": "bytes32",
          "name": "role",
          "type": "bytes32"
        },
        {
          "indexed": true,
          "internalType": "address",
          "name": "account",
          "type": "address"
        },
        {
          "indexed": true,
          "internalType": "address",
          "name": "sender",
          "type": "address"
        }
      ],
      "name": "RoleRevoked",
      "type": "event"
    },
    {
      "inputs": [],
      "name": "DATA_PROVIDER_ORACLE",
      "outputs": [
        {
          "internalType": "bytes32",
          "name": "",
          "type": "bytes32"
        }
      ],
      "stateMutability": "view",
      "type": "function"
    },
    {
      "inputs": [],
      "name": "DEFAULT_ADMIN_ROLE",
      "outputs": [
        {
          "internalType": "bytes32",
          "name": "",
          "type": "bytes32"
        }
      ],
      "stateMutability": "view",
      "type": "function"
    },
    {
      "inputs": [],
      "name": "HOUSE_POOL_DATA_PROVIDER",
      "outputs": [
        {
          "internalType": "bytes32",
          "name": "",
          "type": "bytes32"
        }
      ],
      "stateMutability": "view",
      "type": "function"
    },
    {
      "inputs": [
        {
          "internalType": "uint256",
          "name": "amountWETH",
          "type": "uint256"
        },
        {
          "internalType": "bytes",
          "name": "approval",
          "type": "bytes"
        },
        {
          "components": [
            {
              "internalType": "int256",
              "name": "expectedValue",
              "type": "int256"
            },
            {
              "internalType": "int256",
              "name": "maxExposure",
              "type": "int256"
            },
            {
              "internalType": "uint256",
              "name": "deadline",
              "type": "uint256"
            },
            {
              "internalType": "address",
              "name": "signer",
              "type": "address"
            }
          ],
          "internalType": "struct HousePoolWETH.ValuesOfInterest",
          "name": "approvedValues",
          "type": "tuple"
        }
      ],
      "name": "deposit",
      "outputs": [],
      "stateMutability": "nonpayable",
      "type": "function"
    },
    {
      "inputs": [
        {
          "internalType": "uint256",
          "name": "WETHMicro",
          "type": "uint256"
        }
      ],
      "name": "deposit_",
      "outputs": [],
      "stateMutability": "nonpayable",
      "type": "function"
    },
    {
      "inputs": [],
      "name": "getBettingStakes",
      "outputs": [
        {
          "internalType": "uint256",
          "name": "",
          "type": "uint256"
        }
      ],
      "stateMutability": "view",
      "type": "function"
    },
    {
      "inputs": [],
      "name": "getEV",
      "outputs": [
        {
          "internalType": "int256",
          "name": "",
          "type": "int256"
        }
      ],
      "stateMutability": "view",
      "type": "function"
    },
    {
      "inputs": [],
      "name": "getLiquidityStatus",
      "outputs": [
        {
          "internalType": "uint256",
          "name": "",
          "type": "uint256"
        }
      ],
      "stateMutability": "view",
      "type": "function"
    },
    {
      "inputs": [],
      "name": "getMaxExposure",
      "outputs": [
        {
          "internalType": "int256",
          "name": "",
          "type": "int256"
        }
      ],
      "stateMutability": "view",
      "type": "function"
    },
    {
      "inputs": [
        {
          "internalType": "address",
          "name": "_user",
          "type": "address"
        }
      ],
      "name": "getMyBalance",
      "outputs": [
        {
          "internalType": "uint256",
          "name": "",
          "type": "uint256"
        }
      ],
      "stateMutability": "view",
      "type": "function"
    },
    {
      "inputs": [
        {
          "internalType": "address",
          "name": "_user",
          "type": "address"
        }
      ],
      "name": "getMyLiquidity",
      "outputs": [
        {
          "internalType": "uint256",
          "name": "",
          "type": "uint256"
        }
      ],
      "stateMutability": "view",
      "type": "function"
    },
    {
      "inputs": [
        {
          "internalType": "bytes32",
          "name": "role",
          "type": "bytes32"
        }
      ],
      "name": "getRoleAdmin",
      "outputs": [
        {
          "internalType": "bytes32",
          "name": "",
          "type": "bytes32"
        }
      ],
      "stateMutability": "view",
      "type": "function"
    },
    {
      "inputs": [],
      "name": "getTVLofPool",
      "outputs": [
        {
          "internalType": "int256",
          "name": "",
          "type": "int256"
        }
      ],
      "stateMutability": "view",
      "type": "function"
    },
    {
      "inputs": [],
      "name": "getTokenPrice",
      "outputs": [
        {
          "internalType": "uint256",
          "name": "",
          "type": "uint256"
        }
      ],
      "stateMutability": "view",
      "type": "function"
    },
    {
      "inputs": [],
      "name": "getTokenWithdrawlPrice",
      "outputs": [
        {
          "internalType": "uint256",
          "name": "",
          "type": "uint256"
        }
      ],
      "stateMutability": "view",
      "type": "function"
    },
    {
      "inputs": [],
      "name": "getTreasuryAmount",
      "outputs": [
        {
          "internalType": "uint256",
          "name": "",
          "type": "uint256"
        }
      ],
      "stateMutability": "view",
      "type": "function"
    },
    {
      "inputs": [
        {
          "internalType": "bytes32",
          "name": "role",
          "type": "bytes32"
        },
        {
          "internalType": "address",
          "name": "account",
          "type": "address"
        }
      ],
      "name": "grantRole",
      "outputs": [],
      "stateMutability": "nonpayable",
      "type": "function"
    },
    {
      "inputs": [
        {
          "internalType": "bytes32",
          "name": "role",
          "type": "bytes32"
        },
        {
          "internalType": "address",
          "name": "account",
          "type": "address"
        }
      ],
      "name": "hasRole",
      "outputs": [
        {
          "internalType": "bool",
          "name": "",
          "type": "bool"
        }
      ],
      "stateMutability": "view",
      "type": "function"
    },
    {
      "inputs": [
        {
          "internalType": "address",
          "name": "_owner",
          "type": "address"
        },
        {
          "internalType": "address",
          "name": "_WETH",
          "type": "address"
        },
        {
          "internalType": "address",
          "name": "_claimToken",
          "type": "address"
        },
        {
          "internalType": "string",
          "name": "_name",
          "type": "string"
        },
        {
          "internalType": "string",
          "name": "_version",
          "type": "string"
        }
      ],
      "name": "initialize",
      "outputs": [],
      "stateMutability": "nonpayable",
      "type": "function"
    },
    {
      "inputs": [
        {
          "internalType": "bytes32",
          "name": "role",
          "type": "bytes32"
        },
        {
          "internalType": "address",
          "name": "account",
          "type": "address"
        }
      ],
      "name": "renounceRole",
      "outputs": [],
      "stateMutability": "nonpayable",
      "type": "function"
    },
    {
      "inputs": [
        {
          "internalType": "bytes32",
          "name": "role",
          "type": "bytes32"
        },
        {
          "internalType": "address",
          "name": "account",
          "type": "address"
        }
      ],
      "name": "revokeRole",
      "outputs": [],
      "stateMutability": "nonpayable",
      "type": "function"
    },
    {
      "inputs": [
        {
          "internalType": "uint256",
          "name": "bettingAmount",
          "type": "uint256"
        }
      ],
      "name": "setBettingStakes",
      "outputs": [],
      "stateMutability": "nonpayable",
      "type": "function"
    },
    {
      "inputs": [
        {
          "internalType": "bytes",
          "name": "sig_",
          "type": "bytes"
        },
        {
          "components": [
            {
              "internalType": "int256",
              "name": "expectedValue",
              "type": "int256"
            },
            {
              "internalType": "int256",
              "name": "maxExposure",
              "type": "int256"
            },
            {
              "internalType": "uint256",
              "name": "deadline",
              "type": "uint256"
            },
            {
              "internalType": "address",
              "name": "signer",
              "type": "address"
            }
          ],
          "internalType": "struct HousePoolWETH.ValuesOfInterest",
          "name": "voi_",
          "type": "tuple"
        }
      ],
      "name": "setVOI",
      "outputs": [],
      "stateMutability": "nonpayable",
      "type": "function"
    },
    {
      "inputs": [
        {
          "internalType": "bool",
          "name": "outcome",
          "type": "bool"
        },
        {
          "internalType": "uint256",
          "name": "betAmount",
          "type": "uint256"
        }
      ],
      "name": "simulateOutcome",
      "outputs": [],
      "stateMutability": "nonpayable",
      "type": "function"
    },
    {
      "inputs": [
        {
          "internalType": "bytes4",
          "name": "interfaceId",
          "type": "bytes4"
        }
      ],
      "name": "supportsInterface",
      "outputs": [
        {
          "internalType": "bool",
          "name": "",
          "type": "bool"
        }
      ],
      "stateMutability": "view",
      "type": "function"
    },
    {
      "inputs": [],
      "name": "voi",
      "outputs": [
        {
          "internalType": "int256",
          "name": "expectedValue",
          "type": "int256"
        },
        {
          "internalType": "int256",
          "name": "maxExposure",
          "type": "int256"
        },
        {
          "internalType": "uint256",
          "name": "deadline",
          "type": "uint256"
        },
        {
          "internalType": "address",
          "name": "signer",
          "type": "address"
        }
      ],
      "stateMutability": "view",
      "type": "function"
    },
    {
      "inputs": [
        {
          "internalType": "uint256",
          "name": "amountWETH",
          "type": "uint256"
        },
        {
          "internalType": "bytes",
          "name": "approval",
          "type": "bytes"
        },
        {
          "components": [
            {
              "internalType": "int256",
              "name": "expectedValue",
              "type": "int256"
            },
            {
              "internalType": "int256",
              "name": "maxExposure",
              "type": "int256"
            },
            {
              "internalType": "uint256",
              "name": "deadline",
              "type": "uint256"
            },
            {
              "internalType": "address",
              "name": "signer",
              "type": "address"
            }
          ],
          "internalType": "struct HousePoolWETH.ValuesOfInterest",
          "name": "approvedValues",
          "type": "tuple"
        }
      ],
      "name": "withdraw",
      "outputs": [],
      "stateMutability": "nonpayable",
      "type": "function"
    },
    {
      "inputs": [
        {
          "internalType": "uint256",
          "name": "WETHMicro",
          "type": "uint256"
        }
      ],
      "name": "withdraw_",
      "outputs": [],
      "stateMutability": "nonpayable",
      "type": "function"
    }
  ],
  "bytecode": "0x608060405234801561001057600080fd5b50614215806100206000396000f3fe608060405234801561001057600080fd5b50600436106101c45760003560e01c8063639c066d116100f9578063b3ce252411610097578063d547741f11610071578063d547741f146104e2578063d75d07c2146104fe578063e20fcf001461051c578063e678ff251461053a576101c4565b8063b3ce252414610485578063be1cd712146104a3578063cd08a1df146104c4576101c4565b806391d14854116100d357806391d14854146103eb578063a1cd22321461041b578063a217fddf1461044b578063a43f324114610469576101c4565b8063639c066d146103835780637e3ef7cd1461039f57806383b43589146103cf576101c4565b80633c0717fd116101665780634f6d45a2116101405780634f6d45a21461030d578063508c81a21461032957806353f52847146103475780635a5d622314610365576101c4565b80633c0717fd146102b5578063409c86ca146102d35780634b94f50e146102ef576101c4565b8063218f296e116101a2578063218f296e14610231578063248a9ca31461024d5780632f2ff15d1461027d57806336568abe14610299576101c4565b806301ffc9a7146101c95780630f5a5e18146101f957806320ab744914610215575b600080fd5b6101e360048036038101906101de9190612985565b610558565b6040516101f091906129cd565b60405180910390f35b610213600480360381019061020e9190612a1e565b6105d2565b005b61022f600480360381019061022a9190612ca2565b6105de565b005b61024b60048036038101906102469190612ca2565b61081f565b005b61026760048036038101906102629190612d47565b610a60565b6040516102749190612d83565b60405180910390f35b61029760048036038101906102929190612d9e565b610a80565b005b6102b360048036038101906102ae9190612d9e565b610aa9565b005b6102bd610b2c565b6040516102ca9190612ded565b60405180910390f35b6102ed60048036038101906102e89190612a1e565b610b36565b005b6102f7610b40565b6040516103049190612ded565b60405180910390f35b61032760048036038101906103229190612e34565b610b4a565b005b610331610c38565b60405161033e9190612d83565b60405180910390f35b61034f610c5c565b60405161035c9190612e83565b60405180910390f35b61036d610c66565b60405161037a9190612e83565b60405180910390f35b61039d60048036038101906103989190612a1e565b610c73565b005b6103b960048036038101906103b49190612e9e565b610c7f565b6040516103c69190612ded565b60405180910390f35b6103e960048036038101906103e49190612f6c565b610cc8565b005b61040560048036038101906104009190612d9e565b610ea2565b60405161041291906129cd565b60405180910390f35b61043560048036038101906104309190612e9e565b610f0d565b6040516104429190612ded565b60405180910390f35b610453610fd7565b6040516104609190612d83565b60405180910390f35b610483600480360381019061047e919061301f565b610fde565b005b61048d611248565b60405161049a9190612ded565b60405180910390f35b6104ab611252565b6040516104bb949392919061308a565b60405180910390f35b6104cc611290565b6040516104d99190612e83565b60405180910390f35b6104fc60048036038101906104f79190612d9e565b61129d565b005b6105066112c6565b6040516105139190612d83565b60405180910390f35b6105246112ea565b6040516105319190612ded565b60405180910390f35b6105426112f4565b60405161054f9190612ded565b60405180910390f35b60007f7965db0b000000000000000000000000000000000000000000000000000000007bffffffffffffffffffffffffffffffffffffffffffffffffffffffff1916827bffffffffffffffffffffffffffffffffffffffffffffffffffffffff191614806105cb57506105ca826112fe565b5b9050919050565b6105db81611368565b50565b8082600061068e7f382f778b38ac8a684a068262bd90ef9739279743851e0bc20a2bf85f56a2550c84606001518560000151866020015160746000896060015173ffffffffffffffffffffffffffffffffffffffff1673ffffffffffffffffffffffffffffffffffffffff168152602001908152602001600020548860400151604051602001610673969594939291906130cf565b604051602081830303815290604052805190602001206117a7565b905061069f836060015182846117c1565b6106de576040517f08c379a00000000000000000000000000000000000000000000000000000000081526004016106d59061318d565b60405180910390fd5b600073ffffffffffffffffffffffffffffffffffffffff16836060015173ffffffffffffffffffffffffffffffffffffffff161415610752576040517f08c379a0000000000000000000000000000000000000000000000000000000008152600401610749906131f9565b60405180910390fd5b6107807feed754290b7b7033469899aa55827c9480fc90a4843b45b7f455d0ac50d3e6ce8460600151610ea2565b6107bf576040517f08c379a00000000000000000000000000000000000000000000000000000000081526004016107b69061328b565b60405180910390fd5b82604001514310610805576040517f08c379a00000000000000000000000000000000000000000000000000000000081526004016107fc9061331d565b60405180910390fd5b61080e846119a6565b61081786611368565b505050505050565b808260006108cf7f382f778b38ac8a684a068262bd90ef9739279743851e0bc20a2bf85f56a2550c84606001518560000151866020015160746000896060015173ffffffffffffffffffffffffffffffffffffffff1673ffffffffffffffffffffffffffffffffffffffff1681526020019081526020016000205488604001516040516020016108b4969594939291906130cf565b604051602081830303815290604052805190602001206117a7565b90506108e0836060015182846117c1565b61091f576040517f08c379a00000000000000000000000000000000000000000000000000000000081526004016109169061318d565b60405180910390fd5b600073ffffffffffffffffffffffffffffffffffffffff16836060015173ffffffffffffffffffffffffffffffffffffffff161415610993576040517f08c379a000000000000000000000000000000000000000000000000000000000815260040161098a906131f9565b60405180910390fd5b6109c17feed754290b7b7033469899aa55827c9480fc90a4843b45b7f455d0ac50d3e6ce8460600151610ea2565b610a00576040517f08c379a00000000000000000000000000000000000000000000000000000000081526004016109f79061328b565b60405180910390fd5b82604001514310610a46576040517f08c379a0000000000000000000000000000000000000000000000000000000008152600401610a3d9061331d565b60405180910390fd5b610a4f846119a6565b610a58866119e5565b505050505050565b600060336000838152602001908152602001600020600101549050919050565b610a8982610a60565b610a9a81610a95611d7c565b611d84565b610aa48383611e21565b505050565b610ab1611d7c565b73ffffffffffffffffffffffffffffffffffffffff168173ffffffffffffffffffffffffffffffffffffffff1614610b1e576040517f08c379a0000000000000000000000000000000000000000000000000000000008152600401610b15906133af565b60405180910390fd5b610b288282611f02565b5050565b6000606954905090565b8060688190555050565b6000607254905090565b600015158215151415610bb257606481610b64919061342d565b606a6000828254610b75919061345e565b925050819055506063606482610b8b919061342d565b610b9591906134b4565b60696000828254610ba6919061345e565b92505081905550610bf3565b6064606854610bc1919061342d565b606a6000828254610bd2919061345e565b925050819055508060686000828254610beb919061350e565b925050819055505b6000606e600001819055506000606e60010181905550606a54606b6000828254610c1d9190613542565b92505081905550610c2c611fe4565b610c3461213b565b5050565b7fce95e3899a3f9149fc26a34674875210907ee3c0dddf61ac603f89e90c1b5f9e81565b6000606b54905090565b6000606e60010154905090565b610c7c816119e5565b50565b6000607560008373ffffffffffffffffffffffffffffffffffffffff1673ffffffffffffffffffffffffffffffffffffffff168152602001908152602001600020549050919050565b600060019054906101000a900460ff16610cf05760008054906101000a900460ff1615610cf9565b610cf8612292565b5b610d38576040517f08c379a0000000000000000000000000000000000000000000000000000000008152600401610d2f90613648565b60405180910390fd5b60008060019054906101000a900460ff161590508015610d88576001600060016101000a81548160ff02191690831515021790555060016000806101000a81548160ff0219169083151502179055505b610d9283836122a3565b84606c60006101000a81548173ffffffffffffffffffffffffffffffffffffffff021916908373ffffffffffffffffffffffffffffffffffffffff16021790555083606d60006101000a81548173ffffffffffffffffffffffffffffffffffffffff021916908373ffffffffffffffffffffffffffffffffffffffff160217905550610e216000801b87612300565b60016012610e2f919061350e565b600a610e3b919061379b565b6001610e4791906134b4565b60728190555060016012610e5b919061350e565b600a610e67919061379b565b6001610e7391906134b4565b6073819055508015610e9a5760008060016101000a81548160ff0219169083151502179055505b505050505050565b60006033600084815260200190815260200160002060000160008373ffffffffffffffffffffffffffffffffffffffff1673ffffffffffffffffffffffffffffffffffffffff16815260200190815260200160002060009054906101000a900460ff16905092915050565b60006012600a610f1d919061379b565b607254606d60009054906101000a900473ffffffffffffffffffffffffffffffffffffffff1673ffffffffffffffffffffffffffffffffffffffff166370a08231856040518263ffffffff1660e01b8152600401610f7b91906137e6565b602060405180830381865afa158015610f98573d6000803e3d6000fd5b505050506040513d601f19601f82011682018060405250810190610fbc9190613816565b610fc691906134b4565b610fd0919061342d565b9050919050565b6000801b81565b8082600061108e7f382f778b38ac8a684a068262bd90ef9739279743851e0bc20a2bf85f56a2550c84606001518560000151866020015160746000896060015173ffffffffffffffffffffffffffffffffffffffff1673ffffffffffffffffffffffffffffffffffffffff168152602001908152602001600020548860400151604051602001611073969594939291906130cf565b604051602081830303815290604052805190602001206117a7565b905061109f836060015182846117c1565b6110de576040517f08c379a00000000000000000000000000000000000000000000000000000000081526004016110d59061318d565b60405180910390fd5b600073ffffffffffffffffffffffffffffffffffffffff16836060015173ffffffffffffffffffffffffffffffffffffffff161415611152576040517f08c379a0000000000000000000000000000000000000000000000000000000008152600401611149906131f9565b60405180910390fd5b6111807feed754290b7b7033469899aa55827c9480fc90a4843b45b7f455d0ac50d3e6ce8460600151610ea2565b6111bf576040517f08c379a00000000000000000000000000000000000000000000000000000000081526004016111b69061328b565b60405180910390fd5b82604001514310611205576040517f08c379a00000000000000000000000000000000000000000000000000000000081526004016111fc9061331d565b60405180910390fd5b7fce95e3899a3f9149fc26a34674875210907ee3c0dddf61ac603f89e90c1b5f9e61123781611232611d7c565b611d84565b611240856119a6565b505050505050565b6000607354905090565b606e8060000154908060010154908060020154908060030160009054906101000a900473ffffffffffffffffffffffffffffffffffffffff16905084565b6000606e60000154905090565b6112a682610a60565b6112b7816112b2611d7c565b611d84565b6112c18383611f02565b505050565b7feed754290b7b7033469899aa55827c9480fc90a4843b45b7f455d0ac50d3e6ce81565b6000606a54905090565b6000606854905090565b60007f01ffc9a7000000000000000000000000000000000000000000000000000000007bffffffffffffffffffffffffffffffffffffffffffffffffffffffff1916827bffffffffffffffffffffffffffffffffffffffffffffffffffffffff1916149050919050565b600260015414156113ae576040517f08c379a00000000000000000000000000000000000000000000000000000000081526004016113a59061388f565b60405180910390fd5b6002600181905550600081116113f9576040517f08c379a00000000000000000000000000000000000000000000000000000000081526004016113f0906138fb565b60405180910390fd5b6073546012600a61140a919061379b565b606d60009054906101000a900473ffffffffffffffffffffffffffffffffffffffff1673ffffffffffffffffffffffffffffffffffffffff166370a08231336040518263ffffffff1660e01b815260040161146591906137e6565b602060405180830381865afa158015611482573d6000803e3d6000fd5b505050506040513d601f19601f820116820180604052508101906114a69190613816565b6114b0919061342d565b6114ba91906134b4565b6000600a6114c8919061379b565b826114d391906134b4565b1115801561150b5750606e600101546069546114ef919061391b565b6000600a6114fd919061379b565b8261150891906139af565b13155b61154a576040517f08c379a000000000000000000000000000000000000000000000000000000000815260040161154190613b12565b60405180910390fd5b60006073546012600a61155d919061379b565b6000600a61156b919061379b565b8461157691906134b4565b61158091906134b4565b61158a919061342d565b90506000600a61159a919061379b565b826115a591906134b4565b606960008282546115b6919061350e565b925050819055506000600a6115cb919061379b565b826115d691906139af565b606b60008282546115e7919061391b565b925050819055506000600a6115fc919061379b565b8261160791906134b4565b607560003373ffffffffffffffffffffffffffffffffffffffff1673ffffffffffffffffffffffffffffffffffffffff1681526020019081526020016000206000828254611655919061350e565b92505081905550606c60009054906101000a900473ffffffffffffffffffffffffffffffffffffffff1673ffffffffffffffffffffffffffffffffffffffff1663a9059cbb33846040518363ffffffff1660e01b81526004016116b9929190613b32565b6020604051808303816000875af11580156116d8573d6000803e3d6000fd5b505050506040513d601f19601f820116820180604052508101906116fc9190613b70565b50606d60009054906101000a900473ffffffffffffffffffffffffffffffffffffffff1673ffffffffffffffffffffffffffffffffffffffff16639dc29fac33836040518363ffffffff1660e01b815260040161175a929190613b32565b600060405180830381600087803b15801561177457600080fd5b505af1158015611788573d6000803e3d6000fd5b5050505061179461213b565b61179c611fe4565b506001808190555050565b60006117ba6117b461230e565b8361234e565b9050919050565b60008060006117d08585612381565b91509150600060048111156117e8576117e7613b9d565b5b8160048111156117fb576117fa613b9d565b5b14801561183357508573ffffffffffffffffffffffffffffffffffffffff168273ffffffffffffffffffffffffffffffffffffffff16145b156118435760019250505061199f565b6000808773ffffffffffffffffffffffffffffffffffffffff16631626ba7e60e01b8888604051602401611878929190613c54565b604051602081830303815290604052907bffffffffffffffffffffffffffffffffffffffffffffffffffffffff19166020820180517bffffffffffffffffffffffffffffffffffffffffffffffffffffffff83818316178352505050506040516118e29190613cc0565b600060405180830381855afa9150503d806000811461191d576040519150601f19603f3d011682016040523d82523d6000602084013e611922565b606091505b5091509150818015611935575060208151145b80156119985750631626ba7e60e01b7bffffffffffffffffffffffffffffffffffffffffffffffffffffffff1916818060200190518101906119779190613cec565b7bffffffffffffffffffffffffffffffffffffffffffffffffffffffff1916145b9450505050505b9392505050565b606e600001548160000151146119c4576119c38160000151612404565b5b606e600101548160200151146119e2576119e18160200151612422565b5b50565b60026001541415611a2b576040517f08c379a0000000000000000000000000000000000000000000000000000000008152600401611a229061388f565b60405180910390fd5b6002600181905550600081118015611ade5750606c60009054906101000a900473ffffffffffffffffffffffffffffffffffffffff1673ffffffffffffffffffffffffffffffffffffffff166370a08231336040518263ffffffff1660e01b8152600401611a9991906137e6565b602060405180830381865afa158015611ab6573d6000803e3d6000fd5b505050506040513d601f19601f82011682018060405250810190611ada9190613816565b8111155b611b1d576040517f08c379a0000000000000000000000000000000000000000000000000000000008152600401611b1490613d65565b60405180910390fd5b6000600a611b2b919061379b565b81611b3691906134b4565b60696000828254611b47919061345e565b925050819055506000600a611b5c919061379b565b81611b6791906134b4565b606b6000828254611b789190613542565b925050819055506000600a611b8d919061379b565b81611b9891906134b4565b607560003373ffffffffffffffffffffffffffffffffffffffff1673ffffffffffffffffffffffffffffffffffffffff1681526020019081526020016000206000828254611be6919061345e565b92505081905550606c60009054906101000a900473ffffffffffffffffffffffffffffffffffffffff1673ffffffffffffffffffffffffffffffffffffffff166323b872dd3330846040518463ffffffff1660e01b8152600401611c4c93929190613d85565b6020604051808303816000875af1158015611c6b573d6000803e3d6000fd5b505050506040513d601f19601f82011682018060405250810190611c8f9190613b70565b5060006072546012600a611ca3919061379b565b6000600a611cb1919061379b565b84611cbc91906134b4565b611cc691906134b4565b611cd0919061342d565b9050606d60009054906101000a900473ffffffffffffffffffffffffffffffffffffffff1673ffffffffffffffffffffffffffffffffffffffff166340c10f1933836040518363ffffffff1660e01b8152600401611d2f929190613b32565b600060405180830381600087803b158015611d4957600080fd5b505af1158015611d5d573d6000803e3d6000fd5b50505050611d69611fe4565b611d7161213b565b506001808190555050565b600033905090565b611d8e8282610ea2565b611e1d57611db38173ffffffffffffffffffffffffffffffffffffffff16601461242f565b611dc18360001c602061242f565b604051602001611dd2929190613e9b565b6040516020818303038152906040526040517f08c379a0000000000000000000000000000000000000000000000000000000008152600401611e149190613f0e565b60405180910390fd5b5050565b611e2b8282610ea2565b611efe5760016033600084815260200190815260200160002060000160008373ffffffffffffffffffffffffffffffffffffffff1673ffffffffffffffffffffffffffffffffffffffff16815260200190815260200160002060006101000a81548160ff021916908315150217905550611ea3611d7c565b73ffffffffffffffffffffffffffffffffffffffff168173ffffffffffffffffffffffffffffffffffffffff16837f2f8788117e7eff1d82e926ec794901d17c78024a50270940304540a733656f0d60405160405180910390a45b5050565b611f0c8282610ea2565b15611fe05760006033600084815260200190815260200160002060000160008373ffffffffffffffffffffffffffffffffffffffff1673ffffffffffffffffffffffffffffffffffffffff16815260200190815260200160002060006101000a81548160ff021916908315150217905550611f85611d7c565b73ffffffffffffffffffffffffffffffffffffffff168173ffffffffffffffffffffffffffffffffffffffff16837ff6391f5c32d9c69d2a47ea670b442974b53935d1edc7fd64eb21e047a839171b60405160405180910390a45b5050565b6000606d60009054906101000a900473ffffffffffffffffffffffffffffffffffffffff1673ffffffffffffffffffffffffffffffffffffffff166318160ddd6040518163ffffffff1660e01b8152600401602060405180830381865afa158015612053573d6000803e3d6000fd5b505050506040513d601f19601f820116820180604052508101906120779190613816565b1461213957606d60009054906101000a900473ffffffffffffffffffffffffffffffffffffffff1673ffffffffffffffffffffffffffffffffffffffff166318160ddd6040518163ffffffff1660e01b8152600401602060405180830381865afa1580156120e9573d6000803e3d6000fd5b505050506040513d601f19601f8201168201806040525081019061210d9190613816565b6012600a61211b919061379b565b606b5461212891906134b4565b612132919061342d565b6072819055505b565b6000606d60009054906101000a900473ffffffffffffffffffffffffffffffffffffffff1673ffffffffffffffffffffffffffffffffffffffff166318160ddd6040518163ffffffff1660e01b8152600401602060405180830381865afa1580156121aa573d6000803e3d6000fd5b505050506040513d601f19601f820116820180604052508101906121ce9190613816565b1461229057606d60009054906101000a900473ffffffffffffffffffffffffffffffffffffffff1673ffffffffffffffffffffffffffffffffffffffff166318160ddd6040518163ffffffff1660e01b8152600401602060405180830381865afa158015612240573d6000803e3d6000fd5b505050506040513d601f19601f820116820180604052508101906122649190613816565b6012600a612272919061379b565b60695461227f91906134b4565b612289919061342d565b6073819055505b565b600061229d3061266b565b15905090565b600060019054906101000a900460ff166122f2576040517f08c379a00000000000000000000000000000000000000000000000000000000081526004016122e990613fa2565b60405180910390fd5b6122fc828261268e565b5050565b61230a8282611e21565b5050565b60006123497f8b73c3c69bb8fe3d512ecc4cf759cc79239f7b179b0ffacaa9a75d522b39400f61233c612709565b612344612713565b61271d565b905090565b6000828260405160200161236392919061402f565b60405160208183030381529060405280519060200120905092915050565b6000806041835114156123c35760008060006020860151925060408601519150606086015160001a90506123b787828585612757565b945094505050506123fd565b6040835114156123f45760008060208501519150604085015190506123e9868383612864565b9350935050506123fd565b60006002915091505b9250929050565b61240d816128b2565b80606e6000018190555061241f611fe4565b50565b80606e6001018190555050565b60606000600283600261244291906134b4565b61244c919061345e565b67ffffffffffffffff81111561246557612464612a66565b5b6040519080825280601f01601f1916602001820160405280156124975781602001600182028036833780820191505090505b5090507f3000000000000000000000000000000000000000000000000000000000000000816000815181106124cf576124ce614066565b5b60200101907effffffffffffffffffffffffffffffffffffffffffffffffffffffffffffff1916908160001a9053507f78000000000000000000000000000000000000000000000000000000000000008160018151811061253357612532614066565b5b60200101907effffffffffffffffffffffffffffffffffffffffffffffffffffffffffffff1916908160001a9053506000600184600261257391906134b4565b61257d919061345e565b90505b600181111561261d577f3031323334353637383961626364656600000000000000000000000000000000600f8616601081106125bf576125be614066565b5b1a60f81b8282815181106125d6576125d5614066565b5b60200101907effffffffffffffffffffffffffffffffffffffffffffffffffffffffffffff1916908160001a905350600485901c94508061261690614095565b9050612580565b5060008414612661576040517f08c379a00000000000000000000000000000000000000000000000000000000081526004016126589061410b565b60405180910390fd5b8091505092915050565b6000808273ffffffffffffffffffffffffffffffffffffffff163b119050919050565b600060019054906101000a900460ff166126dd576040517f08c379a00000000000000000000000000000000000000000000000000000000081526004016126d490613fa2565b60405180910390fd5b600082805190602001209050600082805190602001209050816034819055508060358190555050505050565b6000603454905090565b6000603554905090565b6000838383463060405160200161273895949392919061412b565b6040516020818303038152906040528051906020012090509392505050565b6000807f7fffffffffffffffffffffffffffffff5d576e7357a4501ddfe92f46681b20a08360001c111561279257600060039150915061285b565b601b8560ff16141580156127aa5750601c8560ff1614155b156127bc57600060049150915061285b565b6000600187878787604051600081526020016040526040516127e1949392919061419a565b6020604051602081039080840390855afa158015612803573d6000803e3d6000fd5b505050602060405103519050600073ffffffffffffffffffffffffffffffffffffffff168173ffffffffffffffffffffffffffffffffffffffff1614156128525760006001925092505061285b565b80600092509250505b94509492505050565b6000806000807f7fffffffffffffffffffffffffffffffffffffffffffffffffffffffffffffff85169150601b8560ff1c0190506128a487828885612757565b935093505050935093915050565b6000606e6000015414156128de5780606b60008282546128d29190613542565b92505081905550612916565b606e60000154606b60008282546128f5919061391b565b9250508190555080606b600082825461290e9190613542565b925050819055505b50565b6000604051905090565b600080fd5b600080fd5b60007fffffffff0000000000000000000000000000000000000000000000000000000082169050919050565b6129628161292d565b811461296d57600080fd5b50565b60008135905061297f81612959565b92915050565b60006020828403121561299b5761299a612923565b5b60006129a984828501612970565b91505092915050565b60008115159050919050565b6129c7816129b2565b82525050565b60006020820190506129e260008301846129be565b92915050565b6000819050919050565b6129fb816129e8565b8114612a0657600080fd5b50565b600081359050612a18816129f2565b92915050565b600060208284031215612a3457612a33612923565b5b6000612a4284828501612a09565b91505092915050565b600080fd5b600080fd5b6000601f19601f8301169050919050565b7f4e487b7100000000000000000000000000000000000000000000000000000000600052604160045260246000fd5b612a9e82612a55565b810181811067ffffffffffffffff82111715612abd57612abc612a66565b5b80604052505050565b6000612ad0612919565b9050612adc8282612a95565b919050565b600067ffffffffffffffff821115612afc57612afb612a66565b5b612b0582612a55565b9050602081019050919050565b82818337600083830152505050565b6000612b34612b2f84612ae1565b612ac6565b905082815260208101848484011115612b5057612b4f612a50565b5b612b5b848285612b12565b509392505050565b600082601f830112612b7857612b77612a4b565b5b8135612b88848260208601612b21565b91505092915050565b600080fd5b6000819050919050565b612ba981612b96565b8114612bb457600080fd5b50565b600081359050612bc681612ba0565b92915050565b600073ffffffffffffffffffffffffffffffffffffffff82169050919050565b6000612bf782612bcc565b9050919050565b612c0781612bec565b8114612c1257600080fd5b50565b600081359050612c2481612bfe565b92915050565b600060808284031215612c4057612c3f612b91565b5b612c4a6080612ac6565b90506000612c5a84828501612bb7565b6000830152506020612c6e84828501612bb7565b6020830152506040612c8284828501612a09565b6040830152506060612c9684828501612c15565b60608301525092915050565b600080600060c08486031215612cbb57612cba612923565b5b6000612cc986828701612a09565b935050602084013567ffffffffffffffff811115612cea57612ce9612928565b5b612cf686828701612b63565b9250506040612d0786828701612c2a565b9150509250925092565b6000819050919050565b612d2481612d11565b8114612d2f57600080fd5b50565b600081359050612d4181612d1b565b92915050565b600060208284031215612d5d57612d5c612923565b5b6000612d6b84828501612d32565b91505092915050565b612d7d81612d11565b82525050565b6000602082019050612d986000830184612d74565b92915050565b60008060408385031215612db557612db4612923565b5b6000612dc385828601612d32565b9250506020612dd485828601612c15565b9150509250929050565b612de7816129e8565b82525050565b6000602082019050612e026000830184612dde565b92915050565b612e11816129b2565b8114612e1c57600080fd5b50565b600081359050612e2e81612e08565b92915050565b60008060408385031215612e4b57612e4a612923565b5b6000612e5985828601612e1f565b9250506020612e6a85828601612a09565b9150509250929050565b612e7d81612b96565b82525050565b6000602082019050612e986000830184612e74565b92915050565b600060208284031215612eb457612eb3612923565b5b6000612ec284828501612c15565b91505092915050565b600067ffffffffffffffff821115612ee657612ee5612a66565b5b612eef82612a55565b9050602081019050919050565b6000612f0f612f0a84612ecb565b612ac6565b905082815260208101848484011115612f2b57612f2a612a50565b5b612f36848285612b12565b509392505050565b600082601f830112612f5357612f52612a4b565b5b8135612f63848260208601612efc565b91505092915050565b600080600080600060a08688031215612f8857612f87612923565b5b6000612f9688828901612c15565b9550506020612fa788828901612c15565b9450506040612fb888828901612c15565b935050606086013567ffffffffffffffff811115612fd957612fd8612928565b5b612fe588828901612f3e565b925050608086013567ffffffffffffffff81111561300657613005612928565b5b61301288828901612f3e565b9150509295509295909350565b60008060a0838503121561303657613035612923565b5b600083013567ffffffffffffffff81111561305457613053612928565b5b61306085828601612b63565b925050602061307185828601612c2a565b9150509250929050565b61308481612bec565b82525050565b600060808201905061309f6000830187612e74565b6130ac6020830186612e74565b6130b96040830185612dde565b6130c6606083018461307b565b95945050505050565b600060c0820190506130e46000830189612d74565b6130f1602083018861307b565b6130fe6040830187612e74565b61310b6060830186612e74565b6131186080830185612dde565b61312560a0830184612dde565b979650505050505050565b600082825260208201905092915050565b7f486f757365506f6f6c574554483a20696e76616c6964207369676e6174757265600082015250565b6000613177602083613130565b915061318282613141565b602082019050919050565b600060208201905081810360008301526131a68161316a565b9050919050565b7f486f757365506f6f6c574554483a20696e76616c6964207369676e6572000000600082015250565b60006131e3601d83613130565b91506131ee826131ad565b602082019050919050565b60006020820190508181036000830152613212816131d6565b9050919050565b7f486f757365506f6f6c574554483a20756e617574686f7269736564207369676e60008201527f6572000000000000000000000000000000000000000000000000000000000000602082015250565b6000613275602283613130565b915061328082613219565b604082019050919050565b600060208201905081810360008301526132a481613268565b9050919050565b7f486f757365506f6f6c574554483a207369676e6564207472616e73616374696f60008201527f6e20657870697265640000000000000000000000000000000000000000000000602082015250565b6000613307602983613130565b9150613312826132ab565b604082019050919050565b60006020820190508181036000830152613336816132fa565b9050919050565b7f416363657373436f6e74726f6c3a2063616e206f6e6c792072656e6f756e636560008201527f20726f6c657320666f722073656c660000000000000000000000000000000000602082015250565b6000613399602f83613130565b91506133a48261333d565b604082019050919050565b600060208201905081810360008301526133c88161338c565b9050919050565b7f4e487b7100000000000000000000000000000000000000000000000000000000600052601260045260246000fd5b7f4e487b7100000000000000000000000000000000000000000000000000000000600052601160045260246000fd5b6000613438826129e8565b9150613443836129e8565b925082613453576134526133cf565b5b828204905092915050565b6000613469826129e8565b9150613474836129e8565b9250827fffffffffffffffffffffffffffffffffffffffffffffffffffffffffffffffff038211156134a9576134a86133fe565b5b828201905092915050565b60006134bf826129e8565b91506134ca836129e8565b9250817fffffffffffffffffffffffffffffffffffffffffffffffffffffffffffffffff0483118215151615613503576135026133fe565b5b828202905092915050565b6000613519826129e8565b9150613524836129e8565b925082821015613537576135366133fe565b5b828203905092915050565b600061354d82612b96565b915061355883612b96565b9250817f7fffffffffffffffffffffffffffffffffffffffffffffffffffffffffffffff03831360008312151615613593576135926133fe565b5b817f80000000000000000000000000000000000000000000000000000000000000000383126000831216156135cb576135ca6133fe565b5b828201905092915050565b7f496e697469616c697a61626c653a20636f6e747261637420697320616c72656160008201527f647920696e697469616c697a6564000000000000000000000000000000000000602082015250565b6000613632602e83613130565b915061363d826135d6565b604082019050919050565b6000602082019050818103600083015261366181613625565b9050919050565b60008160011c9050919050565b6000808291508390505b60018511156136bf5780860481111561369b5761369a6133fe565b5b60018516156136aa5780820291505b80810290506136b885613668565b945061367f565b94509492505050565b6000826136d85760019050613794565b816136e65760009050613794565b81600181146136fc576002811461370657613735565b6001915050613794565b60ff841115613718576137176133fe565b5b8360020a91508482111561372f5761372e6133fe565b5b50613794565b5060208310610133831016604e8410600b841016171561376a5782820a905083811115613765576137646133fe565b5b613794565b6137778484846001613675565b9250905081840481111561378e5761378d6133fe565b5b81810290505b9392505050565b60006137a6826129e8565b91506137b1836129e8565b92506137de7fffffffffffffffffffffffffffffffffffffffffffffffffffffffffffffffff84846136c8565b905092915050565b60006020820190506137fb600083018461307b565b92915050565b600081519050613810816129f2565b92915050565b60006020828403121561382c5761382b612923565b5b600061383a84828501613801565b91505092915050565b7f5265656e7472616e637947756172643a207265656e7472616e742063616c6c00600082015250565b6000613879601f83613130565b915061388482613843565b602082019050919050565b600060208201905081810360008301526138a88161386c565b9050919050565b7f57455448486f757365506f6f6c3a205a65726f20416d6f756e74000000000000600082015250565b60006138e5601a83613130565b91506138f0826138af565b602082019050919050565b60006020820190508181036000830152613914816138d8565b9050919050565b600061392682612b96565b915061393183612b96565b9250827f80000000000000000000000000000000000000000000000000000000000000000182126000841215161561396c5761396b6133fe565b5b827f7fffffffffffffffffffffffffffffffffffffffffffffffffffffffffffffff0182136000841216156139a4576139a36133fe565b5b828203905092915050565b60006139ba82612b96565b91506139c583612b96565b9250827f7fffffffffffffffffffffffffffffffffffffffffffffffffffffffffffffff0482116000841360008413161615613a0457613a036133fe565b5b817f80000000000000000000000000000000000000000000000000000000000000000583126000841260008413161615613a4157613a406133fe565b5b827f80000000000000000000000000000000000000000000000000000000000000000582126000841360008412161615613a7e57613a7d6133fe565b5b827f7fffffffffffffffffffffffffffffffffffffffffffffffffffffffffffffff0582126000841260008412161615613abb57613aba6133fe565b5b828202905092915050565b7f57455448486f757365506f6f6c203a2063616e27742077697468647261770000600082015250565b6000613afc601e83613130565b9150613b0782613ac6565b602082019050919050565b60006020820190508181036000830152613b2b81613aef565b9050919050565b6000604082019050613b47600083018561307b565b613b546020830184612dde565b9392505050565b600081519050613b6a81612e08565b92915050565b600060208284031215613b8657613b85612923565b5b6000613b9484828501613b5b565b91505092915050565b7f4e487b7100000000000000000000000000000000000000000000000000000000600052602160045260246000fd5b600081519050919050565b600082825260208201905092915050565b60005b83811015613c06578082015181840152602081019050613beb565b83811115613c15576000848401525b50505050565b6000613c2682613bcc565b613c308185613bd7565b9350613c40818560208601613be8565b613c4981612a55565b840191505092915050565b6000604082019050613c696000830185612d74565b8181036020830152613c7b8184613c1b565b90509392505050565b600081905092915050565b6000613c9a82613bcc565b613ca48185613c84565b9350613cb4818560208601613be8565b80840191505092915050565b6000613ccc8284613c8f565b915081905092915050565b600081519050613ce681612959565b92915050565b600060208284031215613d0257613d01612923565b5b6000613d1084828501613cd7565b91505092915050565b7f57455448486f757365506f6f6c3a20436865636b207468652042616c616e6365600082015250565b6000613d4f602083613130565b9150613d5a82613d19565b602082019050919050565b60006020820190508181036000830152613d7e81613d42565b9050919050565b6000606082019050613d9a600083018661307b565b613da7602083018561307b565b613db46040830184612dde565b949350505050565b600081905092915050565b7f416363657373436f6e74726f6c3a206163636f756e7420000000000000000000600082015250565b6000613dfd601783613dbc565b9150613e0882613dc7565b601782019050919050565b600081519050919050565b6000613e2982613e13565b613e338185613dbc565b9350613e43818560208601613be8565b80840191505092915050565b7f206973206d697373696e6720726f6c6520000000000000000000000000000000600082015250565b6000613e85601183613dbc565b9150613e9082613e4f565b601182019050919050565b6000613ea682613df0565b9150613eb28285613e1e565b9150613ebd82613e78565b9150613ec98284613e1e565b91508190509392505050565b6000613ee082613e13565b613eea8185613130565b9350613efa818560208601613be8565b613f0381612a55565b840191505092915050565b60006020820190508181036000830152613f288184613ed5565b905092915050565b7f496e697469616c697a61626c653a20636f6e7472616374206973206e6f74206960008201527f6e697469616c697a696e67000000000000000000000000000000000000000000602082015250565b6000613f8c602b83613130565b9150613f9782613f30565b604082019050919050565b60006020820190508181036000830152613fbb81613f7f565b9050919050565b7f1901000000000000000000000000000000000000000000000000000000000000600082015250565b6000613ff8600283613dbc565b915061400382613fc2565b600282019050919050565b6000819050919050565b61402961402482612d11565b61400e565b82525050565b600061403a82613feb565b91506140468285614018565b6020820191506140568284614018565b6020820191508190509392505050565b7f4e487b7100000000000000000000000000000000000000000000000000000000600052603260045260246000fd5b60006140a0826129e8565b915060008214156140b4576140b36133fe565b5b600182039050919050565b7f537472696e67733a20686578206c656e67746820696e73756666696369656e74600082015250565b60006140f5602083613130565b9150614100826140bf565b602082019050919050565b60006020820190508181036000830152614124816140e8565b9050919050565b600060a0820190506141406000830188612d74565b61414d6020830187612d74565b61415a6040830186612d74565b6141676060830185612dde565b614174608083018461307b565b9695505050505050565b600060ff82169050919050565b6141948161417e565b82525050565b60006080820190506141af6000830187612d74565b6141bc602083018661418b565b6141c96040830185612d74565b6141d66060830184612d74565b9594505050505056fea264697066735822122033432853992812318833d1ce055582e29463f502efe7ad35bf7aed223d591fd764736f6c634300080a0033",
  "linkReferences": {},
  "deployedLinkReferences": {}
}