{
  "_format": "hh-sol-artifact-1",
  "contractName": "SafeMath",
  "sourceName": "contracts/mockWBTCToken.sol",
  "abi": [
    {
      "inputs": [
        {
          "internalType": "uint256",
          "name": "a",
          "type": "uint256"
        },
        {
          "internalType": "uint256",
          "name": "b",
          "type": "uint256"
        }
      ],
      "name": "safeAdd",
      "outputs": [
        {
          "internalType": "uint256",
          "name": "c",
          "type": "uint256"
        }
      ],
      "stateMutability": "pure",
      "type": "function"
    },
    {
      "inputs": [
        {
          "internalType": "uint256",
          "name": "a",
          "type": "uint256"
        },
        {
          "internalType": "uint256",
          "name": "b",
          "type": "uint256"
        }
      ],
      "name": "safeSub",
      "outputs": [
        {
          "internalType": "uint256",
          "name": "c",
          "type": "uint256"
        }
      ],
      "stateMutability": "pure",
      "type": "function"
    }
  ],
  "bytecode": "0x608060405234801561001057600080fd5b506103ca806100206000396000f3fe608060405234801561001057600080fd5b50600436106100365760003560e01c8063a293d1e81461003b578063e6cb90131461006b575b600080fd5b61005560048036038101906100509190610188565b61009b565b60405161006291906101d7565b60405180910390f35b61008560048036038101906100809190610188565b6100f4565b60405161009291906101d7565b60405180910390f35b6000828211156100e0576040517f08c379a00000000000000000000000000000000000000000000000000000000081526004016100d79061024f565b60405180910390fd5b81836100ec919061029e565b905092915050565b6000818361010291906102d2565b905082811015610147576040517f08c379a000000000000000000000000000000000000000000000000000000000815260040161013e90610374565b60405180910390fd5b92915050565b600080fd5b6000819050919050565b61016581610152565b811461017057600080fd5b50565b6000813590506101828161015c565b92915050565b6000806040838503121561019f5761019e61014d565b5b60006101ad85828601610173565b92505060206101be85828601610173565b9150509250929050565b6101d181610152565b82525050565b60006020820190506101ec60008301846101c8565b92915050565b600082825260208201905092915050565b7f536166654d6174683a207375627472616374696f6e206f766572666c6f770000600082015250565b6000610239601e836101f2565b915061024482610203565b602082019050919050565b600060208201905081810360008301526102688161022c565b9050919050565b7f4e487b7100000000000000000000000000000000000000000000000000000000600052601160045260246000fd5b60006102a982610152565b91506102b483610152565b9250828210156102c7576102c661026f565b5b828203905092915050565b60006102dd82610152565b91506102e883610152565b9250827fffffffffffffffffffffffffffffffffffffffffffffffffffffffffffffffff0382111561031d5761031c61026f565b5b828201905092915050565b7f536166654d6174683a206164646974696f6e206f766572666c6f770000000000600082015250565b600061035e601b836101f2565b915061036982610328565b602082019050919050565b6000602082019050818103600083015261038d81610351565b905091905056fea2646970667358221220b09ae6d609b11530f673af2b18990912dd93b4bed9c7c5562ada593f989fcedd64736f6c634300080a0033",
  "linkReferences": {},
  "deployedLinkReferences": {}
}