{
  "_format": "hh-sol-artifact-1",
  "contractName": "simpleVesting",
  "sourceName": "contracts/simpleVesting.sol",
  "abi": [
    {
      "inputs": [
        {
          "internalType": "address",
          "name": "token_",
          "type": "address"
        },
        {
          "internalType": "uint256",
          "name": "_startTime",
          "type": "uint256"
        }
      ],
      "stateMutability": "nonpayable",
      "type": "constructor"
    },
    {
      "anonymous": false,
      "inputs": [
        {
          "indexed": true,
          "internalType": "address",
          "name": "previousOwner",
          "type": "address"
        },
        {
          "indexed": true,
          "internalType": "address",
          "name": "newOwner",
          "type": "address"
        }
      ],
      "name": "OwnershipTransferred",
      "type": "event"
    },
    {
      "anonymous": false,
      "inputs": [
        {
          "indexed": true,
          "internalType": "bytes32",
          "name": "role",
          "type": "bytes32"
        },
        {
          "indexed": true,
          "internalType": "bytes32",
          "name": "previousAdminRole",
          "type": "bytes32"
        },
        {
          "indexed": true,
          "internalType": "bytes32",
          "name": "newAdminRole",
          "type": "bytes32"
        }
      ],
      "name": "RoleAdminChanged",
      "type": "event"
    },
    {
      "anonymous": false,
      "inputs": [
        {
          "indexed": true,
          "internalType": "bytes32",
          "name": "role",
          "type": "bytes32"
        },
        {
          "indexed": true,
          "internalType": "address",
          "name": "account",
          "type": "address"
        },
        {
          "indexed": true,
          "internalType": "address",
          "name": "sender",
          "type": "address"
        }
      ],
      "name": "RoleGranted",
      "type": "event"
    },
    {
      "anonymous": false,
      "inputs": [
        {
          "indexed": true,
          "internalType": "bytes32",
          "name": "role",
          "type": "bytes32"
        },
        {
          "indexed": true,
          "internalType": "address",
          "name": "account",
          "type": "address"
        },
        {
          "indexed": true,
          "internalType": "address",
          "name": "sender",
          "type": "address"
        }
      ],
      "name": "RoleRevoked",
      "type": "event"
    },
    {
      "anonymous": false,
      "inputs": [
        {
          "indexed": true,
          "internalType": "address",
          "name": "accout",
          "type": "address"
        },
        {
          "indexed": false,
          "internalType": "uint256",
          "name": "amount",
          "type": "uint256"
        }
      ],
      "name": "TokenVested",
      "type": "event"
    },
    {
      "inputs": [],
      "name": "DEFAULT_ADMIN_ROLE",
      "outputs": [
        {
          "internalType": "bytes32",
          "name": "",
          "type": "bytes32"
        }
      ],
      "stateMutability": "view",
      "type": "function"
    },
    {
      "inputs": [],
      "name": "MANAGER_ROLE",
      "outputs": [
        {
          "internalType": "bytes32",
          "name": "",
          "type": "bytes32"
        }
      ],
      "stateMutability": "view",
      "type": "function"
    },
    {
      "inputs": [
        {
          "internalType": "uint256",
          "name": "id",
          "type": "uint256"
        }
      ],
      "name": "computeReleasableAmount",
      "outputs": [
        {
          "internalType": "uint256",
          "name": "_amount",
          "type": "uint256"
        }
      ],
      "stateMutability": "view",
      "type": "function"
    },
    {
      "inputs": [
        {
          "internalType": "bytes32",
          "name": "role",
          "type": "bytes32"
        }
      ],
      "name": "getRoleAdmin",
      "outputs": [
        {
          "internalType": "bytes32",
          "name": "",
          "type": "bytes32"
        }
      ],
      "stateMutability": "view",
      "type": "function"
    },
    {
      "inputs": [],
      "name": "getStartTime",
      "outputs": [
        {
          "internalType": "uint256",
          "name": "",
          "type": "uint256"
        }
      ],
      "stateMutability": "view",
      "type": "function"
    },
    {
      "inputs": [],
      "name": "getToken",
      "outputs": [
        {
          "internalType": "address",
          "name": "",
          "type": "address"
        }
      ],
      "stateMutability": "view",
      "type": "function"
    },
    {
      "inputs": [
        {
          "internalType": "uint256",
          "name": "id",
          "type": "uint256"
        }
      ],
      "name": "getVestingAccountById",
      "outputs": [
        {
          "internalType": "address",
          "name": "",
          "type": "address"
        }
      ],
      "stateMutability": "view",
      "type": "function"
    },
    {
      "inputs": [],
      "name": "getVestingAccountsCount",
      "outputs": [
        {
          "internalType": "uint256",
          "name": "",
          "type": "uint256"
        }
      ],
      "stateMutability": "view",
      "type": "function"
    },
    {
      "inputs": [
        {
          "internalType": "address",
          "name": "account",
          "type": "address"
        }
      ],
      "name": "getVestingScheduleByAddress",
      "outputs": [
        {
          "components": [
            {
              "internalType": "uint256",
              "name": "vestingId",
              "type": "uint256"
            },
            {
              "internalType": "address",
              "name": "recipient",
              "type": "address"
            },
            {
              "internalType": "uint256",
              "name": "vestingPeriod",
              "type": "uint256"
            },
            {
              "internalType": "uint256",
              "name": "allocatedAmount",
              "type": "uint256"
            },
            {
              "internalType": "uint256",
              "name": "vestedAmount",
              "type": "uint256"
            },
            {
              "internalType": "bool",
              "name": "isEnded",
              "type": "bool"
            }
          ],
          "internalType": "struct simpleVesting.VestingSchedule",
          "name": "",
          "type": "tuple"
        }
      ],
      "stateMutability": "view",
      "type": "function"
    },
    {
      "inputs": [
        {
          "internalType": "uint256",
          "name": "id",
          "type": "uint256"
        }
      ],
      "name": "getVestingScheduleById",
      "outputs": [
        {
          "components": [
            {
              "internalType": "uint256",
              "name": "vestingId",
              "type": "uint256"
            },
            {
              "internalType": "address",
              "name": "recipient",
              "type": "address"
            },
            {
              "internalType": "uint256",
              "name": "vestingPeriod",
              "type": "uint256"
            },
            {
              "internalType": "uint256",
              "name": "allocatedAmount",
              "type": "uint256"
            },
            {
              "internalType": "uint256",
              "name": "vestedAmount",
              "type": "uint256"
            },
            {
              "internalType": "bool",
              "name": "isEnded",
              "type": "bool"
            }
          ],
          "internalType": "struct simpleVesting.VestingSchedule",
          "name": "",
          "type": "tuple"
        }
      ],
      "stateMutability": "view",
      "type": "function"
    },
    {
      "inputs": [],
      "name": "getVestingTotalAmount",
      "outputs": [
        {
          "internalType": "uint256",
          "name": "",
          "type": "uint256"
        }
      ],
      "stateMutability": "view",
      "type": "function"
    },
    {
      "inputs": [
        {
          "internalType": "bytes32",
          "name": "role",
          "type": "bytes32"
        },
        {
          "internalType": "address",
          "name": "account",
          "type": "address"
        }
      ],
      "name": "grantRole",
      "outputs": [],
      "stateMutability": "nonpayable",
      "type": "function"
    },
    {
      "inputs": [
        {
          "internalType": "bytes32",
          "name": "role",
          "type": "bytes32"
        },
        {
          "internalType": "address",
          "name": "account",
          "type": "address"
        }
      ],
      "name": "hasRole",
      "outputs": [
        {
          "internalType": "bool",
          "name": "",
          "type": "bool"
        }
      ],
      "stateMutability": "view",
      "type": "function"
    },
    {
      "inputs": [],
      "name": "owner",
      "outputs": [
        {
          "internalType": "address",
          "name": "",
          "type": "address"
        }
      ],
      "stateMutability": "view",
      "type": "function"
    },
    {
      "inputs": [],
      "name": "renounceOwnership",
      "outputs": [],
      "stateMutability": "nonpayable",
      "type": "function"
    },
    {
      "inputs": [
        {
          "internalType": "bytes32",
          "name": "role",
          "type": "bytes32"
        },
        {
          "internalType": "address",
          "name": "account",
          "type": "address"
        }
      ],
      "name": "renounceRole",
      "outputs": [],
      "stateMutability": "nonpayable",
      "type": "function"
    },
    {
      "inputs": [
        {
          "internalType": "bytes32",
          "name": "role",
          "type": "bytes32"
        },
        {
          "internalType": "address",
          "name": "account",
          "type": "address"
        }
      ],
      "name": "revokeRole",
      "outputs": [],
      "stateMutability": "nonpayable",
      "type": "function"
    },
    {
      "inputs": [],
      "name": "startTime",
      "outputs": [
        {
          "internalType": "uint256",
          "name": "",
          "type": "uint256"
        }
      ],
      "stateMutability": "view",
      "type": "function"
    },
    {
      "inputs": [
        {
          "internalType": "bytes4",
          "name": "interfaceId",
          "type": "bytes4"
        }
      ],
      "name": "supportsInterface",
      "outputs": [
        {
          "internalType": "bool",
          "name": "",
          "type": "bool"
        }
      ],
      "stateMutability": "view",
      "type": "function"
    },
    {
      "inputs": [
        {
          "internalType": "address",
          "name": "newOwner",
          "type": "address"
        }
      ],
      "name": "transferOwnership",
      "outputs": [],
      "stateMutability": "nonpayable",
      "type": "function"
    },
    {
      "inputs": [],
      "name": "transferVestedTokens",
      "outputs": [],
      "stateMutability": "nonpayable",
      "type": "function"
    },
    {
      "inputs": [
        {
          "internalType": "uint256",
          "name": "",
          "type": "uint256"
        }
      ],
      "name": "vestingAccounts",
      "outputs": [
        {
          "internalType": "address",
          "name": "",
          "type": "address"
        }
      ],
      "stateMutability": "view",
      "type": "function"
    },
    {
      "inputs": [],
      "name": "vestingScheduleCounter",
      "outputs": [
        {
          "internalType": "uint256",
          "name": "",
          "type": "uint256"
        }
      ],
      "stateMutability": "view",
      "type": "function"
    }
  ],
  "bytecode": "0x60a060405260006007553480156200001657600080fd5b50604051620030993803806200309983398181016040528101906200003c919062000951565b6200005c620000506200026760201b60201c565b6200026f60201b60201c565b60018081905550600073ffffffffffffffffffffffffffffffffffffffff168273ffffffffffffffffffffffffffffffffffffffff1614156200009e57600080fd5b8173ffffffffffffffffffffffffffffffffffffffff1660808173ffffffffffffffffffffffffffffffffffffffff168152505080600881905550620000ee6000801b336200033360201b60201c565b620001207f241ecf16d79d0f8dbfb92cbc07fe17840425976cf0667f022fe9877caa831b08336200033360201b60201c565b6001600960006101000a81548163ffffffff021916908363ffffffff1602179055506000601290506200018d7370997970c51812dc3a010c7d01b50e0d17dc79c860b483600a62000172919062000b28565b61271062000181919062000b79565b6200042560201b60201c565b620001d3733c44cdddb6a900fa2b585dd299e03d12fa4293bc61016883600a620001b8919062000b28565b614e20620001c7919062000b79565b6200042560201b60201c565b620002187390f79bf6eb2c4f870365e785982e1f101e93b906605a83600a620001fd919062000b28565b6175306200020c919062000b79565b6200042560201b60201c565b6200025e7315d34aaf54267db7d7c367839aaf71a00a2c6a6561016883600a62000243919062000b28565b619c4062000252919062000b79565b6200042560201b60201c565b50505062000dec565b600033905090565b60008060009054906101000a900473ffffffffffffffffffffffffffffffffffffffff169050816000806101000a81548173ffffffffffffffffffffffffffffffffffffffff021916908373ffffffffffffffffffffffffffffffffffffffff1602179055508173ffffffffffffffffffffffffffffffffffffffff168173ffffffffffffffffffffffffffffffffffffffff167f8be0079c531659141344cd1fd0a4f28419497f9722a3daafe3b4186f6b6457e060405160405180910390a35050565b620003458282620007e860201b60201c565b620004215760016002600084815260200190815260200160002060000160008373ffffffffffffffffffffffffffffffffffffffff1673ffffffffffffffffffffffffffffffffffffffff16815260200190815260200160002060006101000a81548160ff021916908315150217905550620003c66200026760201b60201c565b73ffffffffffffffffffffffffffffffffffffffff168173ffffffffffffffffffffffffffffffffffffffff16837f2f8788117e7eff1d82e926ec794901d17c78024a50270940304540a733656f0d60405160405180910390a45b5050565b620004356200026760201b60201c565b73ffffffffffffffffffffffffffffffffffffffff166200045b6200085360201b60201c565b73ffffffffffffffffffffffffffffffffffffffff1614620004b4576040517f08c379a0000000000000000000000000000000000000000000000000000000008152600401620004ab9062000c3b565b60405180910390fd5b60008211620004fa576040517f08c379a0000000000000000000000000000000000000000000000000000000008152600401620004f19062000cad565b60405180910390fd5b6000811162000540576040517f08c379a0000000000000000000000000000000000000000000000000000000008152600401620005379062000d1f565b60405180910390fd5b8260056000600754815260200190815260200160002060006101000a81548173ffffffffffffffffffffffffffffffffffffffff021916908373ffffffffffffffffffffffffffffffffffffffff16021790555060006040518060c0016040528060075481526020018573ffffffffffffffffffffffffffffffffffffffff16815260200162000611603c620005fd600960009054906101000a900463ffffffff1663ffffffff16886200087c60201b62000dad1790919060201c565b6200087c60201b62000dad1790919060201c565b81526020018381526020016000815260200160001515815250905080600360008673ffffffffffffffffffffffffffffffffffffffff1673ffffffffffffffffffffffffffffffffffffffff1681526020019081526020016000206000820151816000015560208201518160010160006101000a81548173ffffffffffffffffffffffffffffffffffffffff021916908373ffffffffffffffffffffffffffffffffffffffff16021790555060408201518160020155606082015181600301556080820151816004015560a08201518160050160006101000a81548160ff021916908315150217905550905050806004600060075481526020019081526020016000206000820151816000015560208201518160010160006101000a81548173ffffffffffffffffffffffffffffffffffffffff021916908373ffffffffffffffffffffffffffffffffffffffff16021790555060408201518160020155606082015181600301556080820151816004015560a08201518160050160006101000a81548160ff02191690831515021790555090505060076000815480929190620007bb9062000d41565b9190505550620007dc826006546200089460201b62000dc31790919060201c565b60068190555050505050565b60006002600084815260200190815260200160002060000160008373ffffffffffffffffffffffffffffffffffffffff1673ffffffffffffffffffffffffffffffffffffffff16815260200190815260200160002060009054906101000a900460ff16905092915050565b60008060009054906101000a900473ffffffffffffffffffffffffffffffffffffffff16905090565b600081836200088c919062000b79565b905092915050565b60008183620008a4919062000d8f565b905092915050565b600080fd5b600073ffffffffffffffffffffffffffffffffffffffff82169050919050565b6000620008de82620008b1565b9050919050565b620008f081620008d1565b8114620008fc57600080fd5b50565b6000815190506200091081620008e5565b92915050565b6000819050919050565b6200092b8162000916565b81146200093757600080fd5b50565b6000815190506200094b8162000920565b92915050565b600080604083850312156200096b576200096a620008ac565b5b60006200097b85828601620008ff565b92505060206200098e858286016200093a565b9150509250929050565b7f4e487b7100000000000000000000000000000000000000000000000000000000600052601160045260246000fd5b60008160011c9050919050565b6000808291508390505b600185111562000a2657808604811115620009fe57620009fd62000998565b5b600185161562000a0e5780820291505b808102905062000a1e85620009c7565b9450620009de565b94509492505050565b60008262000a41576001905062000b14565b8162000a51576000905062000b14565b816001811462000a6a576002811462000a755762000aab565b600191505062000b14565b60ff84111562000a8a5762000a8962000998565b5b8360020a91508482111562000aa45762000aa362000998565b5b5062000b14565b5060208310610133831016604e8410600b841016171562000ae55782820a90508381111562000adf5762000ade62000998565b5b62000b14565b62000af48484846001620009d4565b9250905081840481111562000b0e5762000b0d62000998565b5b81810290505b9392505050565b600060ff82169050919050565b600062000b358262000916565b915062000b428362000b1b565b925062000b717fffffffffffffffffffffffffffffffffffffffffffffffffffffffffffffffff848462000a2f565b905092915050565b600062000b868262000916565b915062000b938362000916565b9250817fffffffffffffffffffffffffffffffffffffffffffffffffffffffffffffffff048311821515161562000bcf5762000bce62000998565b5b828202905092915050565b600082825260208201905092915050565b7f4f776e61626c653a2063616c6c6572206973206e6f7420746865206f776e6572600082015250565b600062000c2360208362000bda565b915062000c308262000beb565b602082019050919050565b6000602082019050818103600083015262000c568162000c14565b9050919050565b7f56657374696e6720706572696f64206d757374206265203e2030000000000000600082015250565b600062000c95601a8362000bda565b915062000ca28262000c5d565b602082019050919050565b6000602082019050818103600083015262000cc88162000c86565b9050919050565b7f56657374696e6720616d6f756e74206d757374206265203e2030000000000000600082015250565b600062000d07601a8362000bda565b915062000d148262000ccf565b602082019050919050565b6000602082019050818103600083015262000d3a8162000cf8565b9050919050565b600062000d4e8262000916565b91507fffffffffffffffffffffffffffffffffffffffffffffffffffffffffffffffff82141562000d845762000d8362000998565b5b600182019050919050565b600062000d9c8262000916565b915062000da98362000916565b9250827fffffffffffffffffffffffffffffffffffffffffffffffffffffffffffffffff0382111562000de15762000de062000998565b5b828201905092915050565b60805161228a62000e0f600039600081816106f0015261126b015261228a6000f3fe608060405234801561001057600080fd5b506004361061014d5760003560e01c80633bedde7d116100c3578063a217fddf1161007c578063a217fddf146103c8578063ab33c679146103e6578063c828371e146103f0578063d547741f1461040e578063ec87621c1461042a578063f2fde38b146104485761014d565b80633bedde7d14610304578063435b536514610334578063715018a61461035257806378e979251461035c5780638da5cb5b1461037a57806391d14854146103985761014d565b80632b14fc42116101155780632b14fc42146102305780632cfcb423146102605780632e2630de1461027e5780632f2ff15d1461029c57806336568abe146102b857806336dd68c6146102d45761014d565b806301ffc9a714610152578063145d544b1461018257806321c1e36c146101b257806321df0da7146101e2578063248a9ca314610200575b600080fd5b61016c600480360381019061016791906116b0565b610464565b60405161017991906116f8565b60405180910390f35b61019c60048036038101906101979190611749565b6104de565b6040516101a99190611785565b60405180910390f35b6101cc60048036038101906101c79190611749565b610626565b6040516101d9919061187a565b60405180910390f35b6101ea6106ec565b6040516101f791906118a4565b60405180910390f35b61021a600480360381019061021591906118f5565b610714565b6040516102279190611931565b60405180910390f35b61024a60048036038101906102459190611749565b610734565b60405161025791906118a4565b60405180910390f35b6102686107b8565b6040516102759190611785565b60405180910390f35b6102866107c2565b6040516102939190611785565b60405180910390f35b6102b660048036038101906102b19190611978565b6107cc565b005b6102d260048036038101906102cd9190611978565b6107f5565b005b6102ee60048036038101906102e99190611749565b610878565b6040516102fb91906118a4565b60405180910390f35b61031e600480360381019061031991906119b8565b6108ab565b60405161032b919061187a565b60405180910390f35b61033c61099d565b6040516103499190611785565b60405180910390f35b61035a6109a3565b005b610364610a2b565b6040516103719190611785565b60405180910390f35b610382610a31565b60405161038f91906118a4565b60405180910390f35b6103b260048036038101906103ad9190611978565b610a5a565b6040516103bf91906116f8565b60405180910390f35b6103d0610ac5565b6040516103dd9190611931565b60405180910390f35b6103ee610acc565b005b6103f8610c5e565b6040516104059190611785565b60405180910390f35b61042860048036038101906104239190611978565b610c68565b005b610432610c91565b60405161043f9190611931565b60405180910390f35b610462600480360381019061045d91906119b8565b610cb5565b005b60007f7965db0b000000000000000000000000000000000000000000000000000000007bffffffffffffffffffffffffffffffffffffffffffffffffffffffff1916827bffffffffffffffffffffffffffffffffffffffffffffffffffffffff191614806104d757506104d682610dd9565b5b9050919050565b60006004600083815260200190815260200160002060050160009054906101000a900460ff16156105125760009050610621565b6008544210156105255760009050610620565b6105506004600084815260200190815260200160002060020154600854610dc390919063ffffffff16565b421115610596576004600083815260200190815260200160002060040154600460008481526020019081526020016000206003015461058f9190611a14565b905061061f565b61061c600460008481526020019081526020016000206004015461060e6004600086815260200190815260200160002060020154610600600854426105db9190611a14565b6004600089815260200190815260200160002060030154610dad90919063ffffffff16565b610e4390919063ffffffff16565b610e5990919063ffffffff16565b90505b5b5b919050565b61062e611605565b600460008381526020019081526020016000206040518060c0016040529081600082015481526020016001820160009054906101000a900473ffffffffffffffffffffffffffffffffffffffff1673ffffffffffffffffffffffffffffffffffffffff1673ffffffffffffffffffffffffffffffffffffffff1681526020016002820154815260200160038201548152602001600482015481526020016005820160009054906101000a900460ff1615151515815250509050919050565b60007f0000000000000000000000000000000000000000000000000000000000000000905090565b600060026000838152602001908152602001600020600101549050919050565b6000600754821061077a576040517f08c379a000000000000000000000000000000000000000000000000000000000815260040161077190611acb565b60405180910390fd5b6004600083815260200190815260200160002060010160009054906101000a900473ffffffffffffffffffffffffffffffffffffffff169050919050565b6000600754905090565b6000600654905090565b6107d582610714565b6107e6816107e1610e6f565b610e77565b6107f08383610f14565b505050565b6107fd610e6f565b73ffffffffffffffffffffffffffffffffffffffff168173ffffffffffffffffffffffffffffffffffffffff161461086a576040517f08c379a000000000000000000000000000000000000000000000000000000000815260040161086190611b5d565b60405180910390fd5b6108748282610ff5565b5050565b60056020528060005260406000206000915054906101000a900473ffffffffffffffffffffffffffffffffffffffff1681565b6108b3611605565b600360008373ffffffffffffffffffffffffffffffffffffffff1673ffffffffffffffffffffffffffffffffffffffff1681526020019081526020016000206040518060c0016040529081600082015481526020016001820160009054906101000a900473ffffffffffffffffffffffffffffffffffffffff1673ffffffffffffffffffffffffffffffffffffffff1673ffffffffffffffffffffffffffffffffffffffff1681526020016002820154815260200160038201548152602001600482015481526020016005820160009054906101000a900460ff1615151515815250509050919050565b60075481565b6109ab610e6f565b73ffffffffffffffffffffffffffffffffffffffff166109c9610a31565b73ffffffffffffffffffffffffffffffffffffffff1614610a1f576040517f08c379a0000000000000000000000000000000000000000000000000000000008152600401610a1690611bc9565b60405180910390fd5b610a2960006110d7565b565b60085481565b60008060009054906101000a900473ffffffffffffffffffffffffffffffffffffffff16905090565b60006002600084815260200190815260200160002060000160008373ffffffffffffffffffffffffffffffffffffffff1673ffffffffffffffffffffffffffffffffffffffff16815260200190815260200160002060009054906101000a900460ff16905092915050565b6000801b81565b7f241ecf16d79d0f8dbfb92cbc07fe17840425976cf0667f022fe9877caa831b08610afe81610af9610e6f565b610e77565b60026001541415610b44576040517f08c379a0000000000000000000000000000000000000000000000000000000008152600401610b3b90611c35565b60405180910390fd5b60026001819055506008544211610b90576040517f08c379a0000000000000000000000000000000000000000000000000000000008152600401610b8790611ca1565b60405180910390fd5b60006001905060005b600754811015610be7576004600082815260200190815260200160002060050160009054906101000a900460ff16610bd45760009150610be7565b8080610bdf90611cc1565b915050610b99565b508015610c29576040517f08c379a0000000000000000000000000000000000000000000000000000000008152600401610c2090611d56565b60405180910390fd5b60005b600754811015610c5257610c3f8161119b565b8080610c4a90611cc1565b915050610c2c565b50506001808190555050565b6000600854905090565b610c7182610714565b610c8281610c7d610e6f565b610e77565b610c8c8383610ff5565b505050565b7f241ecf16d79d0f8dbfb92cbc07fe17840425976cf0667f022fe9877caa831b0881565b610cbd610e6f565b73ffffffffffffffffffffffffffffffffffffffff16610cdb610a31565b73ffffffffffffffffffffffffffffffffffffffff1614610d31576040517f08c379a0000000000000000000000000000000000000000000000000000000008152600401610d2890611bc9565b60405180910390fd5b600073ffffffffffffffffffffffffffffffffffffffff168173ffffffffffffffffffffffffffffffffffffffff161415610da1576040517f08c379a0000000000000000000000000000000000000000000000000000000008152600401610d9890611de8565b60405180910390fd5b610daa816110d7565b50565b60008183610dbb9190611e08565b905092915050565b60008183610dd19190611e62565b905092915050565b60007f01ffc9a7000000000000000000000000000000000000000000000000000000007bffffffffffffffffffffffffffffffffffffffffffffffffffffffff1916827bffffffffffffffffffffffffffffffffffffffffffffffffffffffff1916149050919050565b60008183610e519190611ee7565b905092915050565b60008183610e679190611a14565b905092915050565b600033905090565b610e818282610a5a565b610f1057610ea68173ffffffffffffffffffffffffffffffffffffffff1660146113c9565b610eb48360001c60206113c9565b604051602001610ec592919061202a565b6040516020818303038152906040526040517f08c379a0000000000000000000000000000000000000000000000000000000008152600401610f0791906120ae565b60405180910390fd5b5050565b610f1e8282610a5a565b610ff15760016002600084815260200190815260200160002060000160008373ffffffffffffffffffffffffffffffffffffffff1673ffffffffffffffffffffffffffffffffffffffff16815260200190815260200160002060006101000a81548160ff021916908315150217905550610f96610e6f565b73ffffffffffffffffffffffffffffffffffffffff168173ffffffffffffffffffffffffffffffffffffffff16837f2f8788117e7eff1d82e926ec794901d17c78024a50270940304540a733656f0d60405160405180910390a45b5050565b610fff8282610a5a565b156110d35760006002600084815260200190815260200160002060000160008373ffffffffffffffffffffffffffffffffffffffff1673ffffffffffffffffffffffffffffffffffffffff16815260200190815260200160002060006101000a81548160ff021916908315150217905550611078610e6f565b73ffffffffffffffffffffffffffffffffffffffff168173ffffffffffffffffffffffffffffffffffffffff16837ff6391f5c32d9c69d2a47ea670b442974b53935d1edc7fd64eb21e047a839171b60405160405180910390a45b5050565b60008060009054906101000a900473ffffffffffffffffffffffffffffffffffffffff169050816000806101000a81548173ffffffffffffffffffffffffffffffffffffffff021916908373ffffffffffffffffffffffffffffffffffffffff1602179055508173ffffffffffffffffffffffffffffffffffffffff168173ffffffffffffffffffffffffffffffffffffffff167f8be0079c531659141344cd1fd0a4f28419497f9722a3daafe3b4186f6b6457e060405160405180910390a35050565b7f241ecf16d79d0f8dbfb92cbc07fe17840425976cf0667f022fe9877caa831b086111cd816111c8610e6f565b610e77565b60006111d8836104de565b9050806004600085815260200190815260200160002060040160008282546112009190611e62565b925050819055506112326004600085815260200190815260200160002060020154600854610dc390919063ffffffff16565b4211156112695760016004600085815260200190815260200160002060050160006101000a81548160ff0219169083151502179055505b7f000000000000000000000000000000000000000000000000000000000000000073ffffffffffffffffffffffffffffffffffffffff166323b872dd336004600087815260200190815260200160002060010160009054906101000a900473ffffffffffffffffffffffffffffffffffffffff16846040518463ffffffff1660e01b81526004016112fc939291906120d0565b6020604051808303816000875af115801561131b573d6000803e3d6000fd5b505050506040513d601f19601f8201168201806040525081019061133f9190612133565b506004600084815260200190815260200160002060010160009054906101000a900473ffffffffffffffffffffffffffffffffffffffff1673ffffffffffffffffffffffffffffffffffffffff167f7e04575a9d5f6038ea6ee0bb1a2cfe0ae38555fddafec1dec4d69b504b72ba18826040516113bc9190611785565b60405180910390a2505050565b6060600060028360026113dc9190611e08565b6113e69190611e62565b67ffffffffffffffff8111156113ff576113fe612160565b5b6040519080825280601f01601f1916602001820160405280156114315781602001600182028036833780820191505090505b5090507f3000000000000000000000000000000000000000000000000000000000000000816000815181106114695761146861218f565b5b60200101907effffffffffffffffffffffffffffffffffffffffffffffffffffffffffffff1916908160001a9053507f7800000000000000000000000000000000000000000000000000000000000000816001815181106114cd576114cc61218f565b5b60200101907effffffffffffffffffffffffffffffffffffffffffffffffffffffffffffff1916908160001a9053506000600184600261150d9190611e08565b6115179190611e62565b90505b60018111156115b7577f3031323334353637383961626364656600000000000000000000000000000000600f8616601081106115595761155861218f565b5b1a60f81b8282815181106115705761156f61218f565b5b60200101907effffffffffffffffffffffffffffffffffffffffffffffffffffffffffffff1916908160001a905350600485901c9450806115b0906121be565b905061151a565b50600084146115fb576040517f08c379a00000000000000000000000000000000000000000000000000000000081526004016115f290612234565b60405180910390fd5b8091505092915050565b6040518060c0016040528060008152602001600073ffffffffffffffffffffffffffffffffffffffff1681526020016000815260200160008152602001600081526020016000151581525090565b600080fd5b60007fffffffff0000000000000000000000000000000000000000000000000000000082169050919050565b61168d81611658565b811461169857600080fd5b50565b6000813590506116aa81611684565b92915050565b6000602082840312156116c6576116c5611653565b5b60006116d48482850161169b565b91505092915050565b60008115159050919050565b6116f2816116dd565b82525050565b600060208201905061170d60008301846116e9565b92915050565b6000819050919050565b61172681611713565b811461173157600080fd5b50565b6000813590506117438161171d565b92915050565b60006020828403121561175f5761175e611653565b5b600061176d84828501611734565b91505092915050565b61177f81611713565b82525050565b600060208201905061179a6000830184611776565b92915050565b6117a981611713565b82525050565b600073ffffffffffffffffffffffffffffffffffffffff82169050919050565b60006117da826117af565b9050919050565b6117ea816117cf565b82525050565b6117f9816116dd565b82525050565b60c08201600082015161181560008501826117a0565b50602082015161182860208501826117e1565b50604082015161183b60408501826117a0565b50606082015161184e60608501826117a0565b50608082015161186160808501826117a0565b5060a082015161187460a08501826117f0565b50505050565b600060c08201905061188f60008301846117ff565b92915050565b61189e816117cf565b82525050565b60006020820190506118b96000830184611895565b92915050565b6000819050919050565b6118d2816118bf565b81146118dd57600080fd5b50565b6000813590506118ef816118c9565b92915050565b60006020828403121561190b5761190a611653565b5b6000611919848285016118e0565b91505092915050565b61192b816118bf565b82525050565b60006020820190506119466000830184611922565b92915050565b611955816117cf565b811461196057600080fd5b50565b6000813590506119728161194c565b92915050565b6000806040838503121561198f5761198e611653565b5b600061199d858286016118e0565b92505060206119ae85828601611963565b9150509250929050565b6000602082840312156119ce576119cd611653565b5b60006119dc84828501611963565b91505092915050565b7f4e487b7100000000000000000000000000000000000000000000000000000000600052601160045260246000fd5b6000611a1f82611713565b9150611a2a83611713565b925082821015611a3d57611a3c6119e5565b5b828203905092915050565b600082825260208201905092915050565b7f73696d706c6556657374696e673a20696e646578206f7574206f6620626f756e60008201527f6473000000000000000000000000000000000000000000000000000000000000602082015250565b6000611ab5602283611a48565b9150611ac082611a59565b604082019050919050565b60006020820190508181036000830152611ae481611aa8565b9050919050565b7f416363657373436f6e74726f6c3a2063616e206f6e6c792072656e6f756e636560008201527f20726f6c657320666f722073656c660000000000000000000000000000000000602082015250565b6000611b47602f83611a48565b9150611b5282611aeb565b604082019050919050565b60006020820190508181036000830152611b7681611b3a565b9050919050565b7f4f776e61626c653a2063616c6c6572206973206e6f7420746865206f776e6572600082015250565b6000611bb3602083611a48565b9150611bbe82611b7d565b602082019050919050565b60006020820190508181036000830152611be281611ba6565b9050919050565b7f5265656e7472616e637947756172643a207265656e7472616e742063616c6c00600082015250565b6000611c1f601f83611a48565b9150611c2a82611be9565b602082019050919050565b60006020820190508181036000830152611c4e81611c12565b9050919050565b7f56657374696e67206973206e6f7420737461727465642e000000000000000000600082015250565b6000611c8b601783611a48565b9150611c9682611c55565b602082019050919050565b60006020820190508181036000830152611cba81611c7e565b9050919050565b6000611ccc82611713565b91507fffffffffffffffffffffffffffffffffffffffffffffffffffffffffffffffff821415611cff57611cfe6119e5565b5b600182019050919050565b7f56657374696e6720697320656e6465642e000000000000000000000000000000600082015250565b6000611d40601183611a48565b9150611d4b82611d0a565b602082019050919050565b60006020820190508181036000830152611d6f81611d33565b9050919050565b7f4f776e61626c653a206e6577206f776e657220697320746865207a65726f206160008201527f6464726573730000000000000000000000000000000000000000000000000000602082015250565b6000611dd2602683611a48565b9150611ddd82611d76565b604082019050919050565b60006020820190508181036000830152611e0181611dc5565b9050919050565b6000611e1382611713565b9150611e1e83611713565b9250817fffffffffffffffffffffffffffffffffffffffffffffffffffffffffffffffff0483118215151615611e5757611e566119e5565b5b828202905092915050565b6000611e6d82611713565b9150611e7883611713565b9250827fffffffffffffffffffffffffffffffffffffffffffffffffffffffffffffffff03821115611ead57611eac6119e5565b5b828201905092915050565b7f4e487b7100000000000000000000000000000000000000000000000000000000600052601260045260246000fd5b6000611ef282611713565b9150611efd83611713565b925082611f0d57611f0c611eb8565b5b828204905092915050565b600081905092915050565b7f416363657373436f6e74726f6c3a206163636f756e7420000000000000000000600082015250565b6000611f59601783611f18565b9150611f6482611f23565b601782019050919050565b600081519050919050565b60005b83811015611f98578082015181840152602081019050611f7d565b83811115611fa7576000848401525b50505050565b6000611fb882611f6f565b611fc28185611f18565b9350611fd2818560208601611f7a565b80840191505092915050565b7f206973206d697373696e6720726f6c6520000000000000000000000000000000600082015250565b6000612014601183611f18565b915061201f82611fde565b601182019050919050565b600061203582611f4c565b91506120418285611fad565b915061204c82612007565b91506120588284611fad565b91508190509392505050565b6000601f19601f8301169050919050565b600061208082611f6f565b61208a8185611a48565b935061209a818560208601611f7a565b6120a381612064565b840191505092915050565b600060208201905081810360008301526120c88184612075565b905092915050565b60006060820190506120e56000830186611895565b6120f26020830185611895565b6120ff6040830184611776565b949350505050565b612110816116dd565b811461211b57600080fd5b50565b60008151905061212d81612107565b92915050565b60006020828403121561214957612148611653565b5b60006121578482850161211e565b91505092915050565b7f4e487b7100000000000000000000000000000000000000000000000000000000600052604160045260246000fd5b7f4e487b7100000000000000000000000000000000000000000000000000000000600052603260045260246000fd5b60006121c982611713565b915060008214156121dd576121dc6119e5565b5b600182039050919050565b7f537472696e67733a20686578206c656e67746820696e73756666696369656e74600082015250565b600061221e602083611a48565b9150612229826121e8565b602082019050919050565b6000602082019050818103600083015261224d81612211565b905091905056fea2646970667358221220d233393a601ad88e3284ca611a182f2965dff23ed5dd4b86667af2fded3ce36664736f6c634300080a0033",
  "linkReferences": {},
  "deployedLinkReferences": {}
}