{
  "_format": "hh-sol-artifact-1",
  "contractName": "WBTCclaimToken",
  "sourceName": "contracts/WBTCclaimToken.sol",
  "abi": [
    {
      "inputs": [],
      "stateMutability": "nonpayable",
      "type": "constructor"
    },
    {
      "anonymous": false,
      "inputs": [
        {
          "indexed": true,
          "internalType": "address",
          "name": "owner",
          "type": "address"
        },
        {
          "indexed": true,
          "internalType": "address",
          "name": "spender",
          "type": "address"
        },
        {
          "indexed": false,
          "internalType": "uint256",
          "name": "value",
          "type": "uint256"
        }
      ],
      "name": "Approval",
      "type": "event"
    },
    {
      "anonymous": false,
      "inputs": [
        {
          "indexed": true,
          "internalType": "address",
          "name": "from",
          "type": "address"
        },
        {
          "indexed": true,
          "internalType": "address",
          "name": "to",
          "type": "address"
        },
        {
          "indexed": false,
          "internalType": "uint256",
          "name": "value",
          "type": "uint256"
        }
      ],
      "name": "Transfer",
      "type": "event"
    },
    {
      "inputs": [],
      "name": "_totalSupply",
      "outputs": [
        {
          "internalType": "uint256",
          "name": "",
          "type": "uint256"
        }
      ],
      "stateMutability": "view",
      "type": "function"
    },
    {
      "inputs": [
        {
          "internalType": "address",
          "name": "account",
          "type": "address"
        }
      ],
      "name": "addAdmin",
      "outputs": [],
      "stateMutability": "nonpayable",
      "type": "function"
    },
    {
      "inputs": [
        {
          "internalType": "address",
          "name": "tokenOwner",
          "type": "address"
        },
        {
          "internalType": "address",
          "name": "spender",
          "type": "address"
        }
      ],
      "name": "allowance",
      "outputs": [
        {
          "internalType": "uint256",
          "name": "remaining",
          "type": "uint256"
        }
      ],
      "stateMutability": "view",
      "type": "function"
    },
    {
      "inputs": [
        {
          "internalType": "address",
          "name": "spender",
          "type": "address"
        },
        {
          "internalType": "uint256",
          "name": "tokens",
          "type": "uint256"
        }
      ],
      "name": "approve",
      "outputs": [
        {
          "internalType": "bool",
          "name": "success",
          "type": "bool"
        }
      ],
      "stateMutability": "nonpayable",
      "type": "function"
    },
    {
      "inputs": [
        {
          "internalType": "address",
          "name": "tokenOwner",
          "type": "address"
        }
      ],
      "name": "balanceOf",
      "outputs": [
        {
          "internalType": "uint256",
          "name": "getBalance",
          "type": "uint256"
        }
      ],
      "stateMutability": "view",
      "type": "function"
    },
    {
      "inputs": [
        {
          "internalType": "address",
          "name": "account",
          "type": "address"
        },
        {
          "internalType": "uint256",
          "name": "tokens",
          "type": "uint256"
        }
      ],
      "name": "burn",
      "outputs": [],
      "stateMutability": "nonpayable",
      "type": "function"
    },
    {
      "inputs": [],
      "name": "decimals",
      "outputs": [
        {
          "internalType": "uint8",
          "name": "",
          "type": "uint8"
        }
      ],
      "stateMutability": "view",
      "type": "function"
    },
    {
      "inputs": [],
      "name": "initialSupply",
      "outputs": [
        {
          "internalType": "uint256",
          "name": "",
          "type": "uint256"
        }
      ],
      "stateMutability": "view",
      "type": "function"
    },
    {
      "inputs": [
        {
          "internalType": "address",
          "name": "account",
          "type": "address"
        }
      ],
      "name": "isAdmin",
      "outputs": [
        {
          "internalType": "bool",
          "name": "",
          "type": "bool"
        }
      ],
      "stateMutability": "view",
      "type": "function"
    },
    {
      "inputs": [
        {
          "internalType": "address",
          "name": "account",
          "type": "address"
        },
        {
          "internalType": "uint256",
          "name": "tokens",
          "type": "uint256"
        }
      ],
      "name": "mint",
      "outputs": [],
      "stateMutability": "nonpayable",
      "type": "function"
    },
    {
      "inputs": [],
      "name": "name",
      "outputs": [
        {
          "internalType": "string",
          "name": "",
          "type": "string"
        }
      ],
      "stateMutability": "view",
      "type": "function"
    },
    {
      "inputs": [],
      "name": "owner",
      "outputs": [
        {
          "internalType": "address",
          "name": "",
          "type": "address"
        }
      ],
      "stateMutability": "view",
      "type": "function"
    },
    {
      "inputs": [
        {
          "internalType": "address",
          "name": "account",
          "type": "address"
        }
      ],
      "name": "removeAdmin",
      "outputs": [],
      "stateMutability": "nonpayable",
      "type": "function"
    },
    {
      "inputs": [],
      "name": "symbol",
      "outputs": [
        {
          "internalType": "string",
          "name": "",
          "type": "string"
        }
      ],
      "stateMutability": "view",
      "type": "function"
    },
    {
      "inputs": [],
      "name": "totalSupply",
      "outputs": [
        {
          "internalType": "uint256",
          "name": "",
          "type": "uint256"
        }
      ],
      "stateMutability": "view",
      "type": "function"
    },
    {
      "inputs": [
        {
          "internalType": "address",
          "name": "to",
          "type": "address"
        },
        {
          "internalType": "uint256",
          "name": "tokens",
          "type": "uint256"
        }
      ],
      "name": "transfer",
      "outputs": [
        {
          "internalType": "bool",
          "name": "success",
          "type": "bool"
        }
      ],
      "stateMutability": "nonpayable",
      "type": "function"
    },
    {
      "inputs": [
        {
          "internalType": "address",
          "name": "from",
          "type": "address"
        },
        {
          "internalType": "address",
          "name": "to",
          "type": "address"
        },
        {
          "internalType": "uint256",
          "name": "tokens",
          "type": "uint256"
        }
      ],
      "name": "transferFrom",
      "outputs": [
        {
          "internalType": "bool",
          "name": "success",
          "type": "bool"
        }
      ],
      "stateMutability": "nonpayable",
      "type": "function"
    }
  ],
  "bytecode": "0x608060405234801561001057600080fd5b506040805180820190915260088082526704c46574254434c560c41b6020909201918252610040916003916100e9565b506040805180820190915260088082526704c46574254434c560c41b6020909201918252610070916004916100e9565b5060008054601260ff1990911617815560018190556002819055338082526005602090815260408084208490558354610100600160a81b0319166101008402178455518381529192917fddf252ad1be2c89b69c2b068fc378daa952ba7f163c4a11628f55a4df523b3ef910160405180910390a36101bd565b8280546100f590610182565b90600052602060002090601f016020900481019282610117576000855561015d565b82601f1061013057805160ff191683800117855561015d565b8280016001018555821561015d579182015b8281111561015d578251825591602001919060010190610142565b5061016992915061016d565b5090565b5b80821115610169576000815560010161016e565b600181811c9082168061019657607f821691505b602082108114156101b757634e487b7160e01b600052602260045260246000fd5b50919050565b610b3f806101cc6000396000f3fe608060405234801561001057600080fd5b506004361061010b5760003560e01c80633eaaf86b116100a25780638da5cb5b116100715780638da5cb5b1461022257806395d89b41146102525780639dc29fac1461025a578063a9059cbb1461026d578063dd62ed3e1461028057600080fd5b80633eaaf86b146101ca57806340c10f19146101d357806370480275146101e657806370a08231146101f957600080fd5b806323b872dd116100de57806323b872dd1461017c57806324d7806c1461018f578063313ce567146101a2578063378dc3dc146101c157600080fd5b806306fdde0314610110578063095ea7b31461012e5780631785f53c1461015157806318160ddd14610166575b600080fd5b6101186102b9565b60405161012591906108f6565b60405180910390f35b61014161013c366004610962565b610347565b6040519015158152602001610125565b61016461015f36600461098c565b6103b3565b005b61016e6103f0565b604051908152602001610125565b61014161018a3660046109ae565b61042e565b61014161019d36600461098c565b61054e565b6000546101af9060ff1681565b60405160ff9091168152602001610125565b61016e60025481565b61016e60015481565b6101646101e1366004610962565b61058e565b6101646101f436600461098c565b610692565b61016e61020736600461098c565b6001600160a01b031660009081526005602052604090205490565b60005461023a9061010090046001600160a01b031681565b6040516001600160a01b039091168152602001610125565b6101186106d2565b610164610268366004610962565b6106df565b61014161027b366004610962565b610847565b61016e61028e3660046109ea565b6001600160a01b03918216600090815260066020908152604080832093909416825291909152205490565b600380546102c690610a1d565b80601f01602080910402602001604051908101604052809291908181526020018280546102f290610a1d565b801561033f5780601f106103145761010080835404028352916020019161033f565b820191906000526020600020905b81548152906001019060200180831161032257829003601f168201915b505050505081565b3360008181526006602090815260408083206001600160a01b038716808552925280832085905551919290917f8c5be1e5ebec7d5bd14f71427d1e84f3dd0314c0f7b2291e5b200ac8c7c3b925906103a29086815260200190565b60405180910390a350600192915050565b60005461010090046001600160a01b031633146103cf57600080fd5b6001600160a01b03166000908152600760205260409020805460ff19169055565b600080805260056020527f05b8ccbb9d4d8fb16ea74ce3c29a41f1b461fbdaff4714a0d9a8eb05499746bc546001546104299190610a6e565b905090565b60006001600160a01b03831661045f5760405162461bcd60e51b815260040161045690610a85565b60405180910390fd5b6001600160a01b038416600090815260056020526040902054610483908390610a6e565b6001600160a01b03851660009081526005602090815260408083209390935560068152828220338352905220546104bb908390610a6e565b6001600160a01b0380861660009081526006602090815260408083203384528252808320949094559186168152600590915220546104fa908390610ad1565b6001600160a01b038085166000818152600560205260409081902093909355915190861690600080516020610aea8339815191529061053c9086815260200190565b60405180910390a35060019392505050565b6000805461010090046001600160a01b0316331461056b57600080fd5b506001600160a01b03811660009081526007602052604090205460ff165b919050565b3360009081526007602052604090205460ff166105aa57600080fd5b6001600160a01b0382166106115760405162461bcd60e51b815260206004820152602860248201527f57425443636c61696d546f6b656e3a204d696e742066726f6d2061207a65726f604482015267206164647265737360c01b6064820152608401610456565b6001600160a01b038216600090815260056020526040902054610635908290610ad1565b6001600160a01b03831660009081526005602052604090205560015461065c908290610ad1565b6001556040518181526001600160a01b03831690600090600080516020610aea8339815191529060200160405180910390a35050565b60005461010090046001600160a01b031633146106ae57600080fd5b6001600160a01b03166000908152600760205260409020805460ff19166001179055565b600480546102c690610a1d565b3360009081526007602052604090205460ff166106fb57600080fd5b6001600160a01b0382166107625760405162461bcd60e51b815260206004820152602860248201527f57425443636c61696d546f6b656e3a204275726e2066726f6d2061207a65726f604482015267206164647265737360c01b6064820152608401610456565b6001600160a01b038216600090815260056020526040902054818110156107df5760405162461bcd60e51b815260206004820152602b60248201527f57425443636c61696d546f6b656e3a204275726e20616d6f756e74206578636560448201526a6564732042616c616e636560a81b6064820152608401610456565b6107e98282610a6e565b6001600160a01b038416600090815260056020526040902055600154610810908390610a6e565b6001556040518281526000906001600160a01b03851690600080516020610aea8339815191529060200160405180910390a3505050565b60006001600160a01b03831661086f5760405162461bcd60e51b815260040161045690610a85565b3360009081526005602052604090205461088a908390610a6e565b33600090815260056020526040808220929092556001600160a01b038516815220546108b7908390610ad1565b6001600160a01b038416600081815260056020526040908190209290925590513390600080516020610aea833981519152906103a29086815260200190565b600060208083528351808285015260005b8181101561092357858101830151858201604001528201610907565b81811115610935576000604083870101525b50601f01601f1916929092016040019392505050565b80356001600160a01b038116811461058957600080fd5b6000806040838503121561097557600080fd5b61097e8361094b565b946020939093013593505050565b60006020828403121561099e57600080fd5b6109a78261094b565b9392505050565b6000806000606084860312156109c357600080fd5b6109cc8461094b565b92506109da6020850161094b565b9150604084013590509250925092565b600080604083850312156109fd57600080fd5b610a068361094b565b9150610a146020840161094b565b90509250929050565b600181811c90821680610a3157607f821691505b60208210811415610a5257634e487b7160e01b600052602260045260246000fd5b50919050565b634e487b7160e01b600052601160045260246000fd5b600082821015610a8057610a80610a58565b500390565b6020808252602c908201527f57425443636c61696d546f6b656e3a20416464726573732073686f756c64206e60408201526b6f742062652061207a65726f60a01b606082015260800190565b60008219821115610ae457610ae4610a58565b50019056feddf252ad1be2c89b69c2b068fc378daa952ba7f163c4a11628f55a4df523b3efa2646970667358221220d4a9bc1f6e95e376f6a1a9c28539ae0d9fe872aea2475ed5f60e38726ca98bf864736f6c634300080a0033",
  "linkReferences": {},
  "deployedLinkReferences": {}
}