{
  "_format": "hh-sol-artifact-1",
  "contractName": "mockWETHToken",
  "sourceName": "contracts/mockWETHToken.sol",
  "abi": [
    {
      "inputs": [],
      "stateMutability": "nonpayable",
      "type": "constructor"
    },
    {
      "anonymous": false,
      "inputs": [
        {
          "indexed": true,
          "internalType": "address",
          "name": "owner",
          "type": "address"
        },
        {
          "indexed": true,
          "internalType": "address",
          "name": "spender",
          "type": "address"
        },
        {
          "indexed": false,
          "internalType": "uint256",
          "name": "value",
          "type": "uint256"
        }
      ],
      "name": "Approval",
      "type": "event"
    },
    {
      "anonymous": false,
      "inputs": [
        {
          "indexed": true,
          "internalType": "address",
          "name": "from",
          "type": "address"
        },
        {
          "indexed": true,
          "internalType": "address",
          "name": "to",
          "type": "address"
        },
        {
          "indexed": false,
          "internalType": "uint256",
          "name": "value",
          "type": "uint256"
        }
      ],
      "name": "Transfer",
      "type": "event"
    },
    {
      "inputs": [],
      "name": "_totalSupply",
      "outputs": [
        {
          "internalType": "uint256",
          "name": "",
          "type": "uint256"
        }
      ],
      "stateMutability": "view",
      "type": "function"
    },
    {
      "inputs": [
        {
          "internalType": "address",
          "name": "tokenOwner",
          "type": "address"
        },
        {
          "internalType": "address",
          "name": "spender",
          "type": "address"
        }
      ],
      "name": "allowance",
      "outputs": [
        {
          "internalType": "uint256",
          "name": "remaining",
          "type": "uint256"
        }
      ],
      "stateMutability": "view",
      "type": "function"
    },
    {
      "inputs": [
        {
          "internalType": "address",
          "name": "spender",
          "type": "address"
        },
        {
          "internalType": "uint256",
          "name": "tokens",
          "type": "uint256"
        }
      ],
      "name": "approve",
      "outputs": [
        {
          "internalType": "bool",
          "name": "success",
          "type": "bool"
        }
      ],
      "stateMutability": "nonpayable",
      "type": "function"
    },
    {
      "inputs": [
        {
          "internalType": "address",
          "name": "tokenOwner",
          "type": "address"
        }
      ],
      "name": "balanceOf",
      "outputs": [
        {
          "internalType": "uint256",
          "name": "getBalance",
          "type": "uint256"
        }
      ],
      "stateMutability": "view",
      "type": "function"
    },
    {
      "inputs": [],
      "name": "decimals",
      "outputs": [
        {
          "internalType": "uint8",
          "name": "",
          "type": "uint8"
        }
      ],
      "stateMutability": "view",
      "type": "function"
    },
    {
      "inputs": [],
      "name": "initialSupply",
      "outputs": [
        {
          "internalType": "uint256",
          "name": "",
          "type": "uint256"
        }
      ],
      "stateMutability": "view",
      "type": "function"
    },
    {
      "inputs": [],
      "name": "name",
      "outputs": [
        {
          "internalType": "string",
          "name": "",
          "type": "string"
        }
      ],
      "stateMutability": "view",
      "type": "function"
    },
    {
      "inputs": [],
      "name": "owner",
      "outputs": [
        {
          "internalType": "address",
          "name": "",
          "type": "address"
        }
      ],
      "stateMutability": "view",
      "type": "function"
    },
    {
      "inputs": [],
      "name": "symbol",
      "outputs": [
        {
          "internalType": "string",
          "name": "",
          "type": "string"
        }
      ],
      "stateMutability": "view",
      "type": "function"
    },
    {
      "inputs": [],
      "name": "totalSupply",
      "outputs": [
        {
          "internalType": "uint256",
          "name": "",
          "type": "uint256"
        }
      ],
      "stateMutability": "view",
      "type": "function"
    },
    {
      "inputs": [
        {
          "internalType": "address",
          "name": "to",
          "type": "address"
        },
        {
          "internalType": "uint256",
          "name": "tokens",
          "type": "uint256"
        }
      ],
      "name": "transfer",
      "outputs": [
        {
          "internalType": "bool",
          "name": "success",
          "type": "bool"
        }
      ],
      "stateMutability": "nonpayable",
      "type": "function"
    },
    {
      "inputs": [
        {
          "internalType": "address",
          "name": "from",
          "type": "address"
        },
        {
          "internalType": "address",
          "name": "to",
          "type": "address"
        },
        {
          "internalType": "uint256",
          "name": "tokens",
          "type": "uint256"
        }
      ],
      "name": "transferFrom",
      "outputs": [
        {
          "internalType": "bool",
          "name": "success",
          "type": "bool"
        }
      ],
      "stateMutability": "nonpayable",
      "type": "function"
    }
  ],
  "bytecode": "0x60806040523480156200001157600080fd5b5060408051808201909152600d8082526c36b7b1b5aba2aa242a37b5b2b760991b602090920191825262000048916000916200010f565b50604080518082019091526005808252640e8ae8aa8960db1b602090920191825262000077916001916200010f565b506002805460ff191660129081179091556200009590600a620002ca565b620000a590633b9aca00620002df565b60048190556003819055336000818152600660209081526040808320859055600580546001600160a01b0319168517905551938452919290917fddf252ad1be2c89b69c2b068fc378daa952ba7f163c4a11628f55a4df523b3ef910160405180910390a36200033e565b8280546200011d9062000301565b90600052602060002090601f0160209004810192826200014157600085556200018c565b82601f106200015c57805160ff19168380011785556200018c565b828001600101855582156200018c579182015b828111156200018c5782518255916020019190600101906200016f565b506200019a9291506200019e565b5090565b5b808211156200019a57600081556001016200019f565b634e487b7160e01b600052601160045260246000fd5b600181815b808511156200020c578160001904821115620001f057620001f0620001b5565b80851615620001fe57918102915b93841c9390800290620001d0565b509250929050565b6000826200022557506001620002c4565b816200023457506000620002c4565b81600181146200024d5760028114620002585762000278565b6001915050620002c4565b60ff8411156200026c576200026c620001b5565b50506001821b620002c4565b5060208310610133831016604e8410600b84101617156200029d575081810a620002c4565b620002a98383620001cb565b8060001904821115620002c057620002c0620001b5565b0290505b92915050565b6000620002d8838362000214565b9392505050565b6000816000190483118215151615620002fc57620002fc620001b5565b500290565b600181811c908216806200031657607f821691505b602082108114156200033857634e487b7160e01b600052602260045260246000fd5b50919050565b6106e7806200034e6000396000f3fe608060405234801561001057600080fd5b50600436106100b45760003560e01c80633eaaf86b116100715780633eaaf86b1461014b57806370a08231146101545780638da5cb5b1461017d57806395d89b41146101a8578063a9059cbb146101b0578063dd62ed3e146101c357600080fd5b806306fdde03146100b9578063095ea7b3146100d757806318160ddd146100fa57806323b872dd14610110578063313ce56714610123578063378dc3dc14610142575b600080fd5b6100c16101fc565b6040516100ce9190610505565b60405180910390f35b6100ea6100e5366004610576565b61028a565b60405190151581526020016100ce565b6101026102f6565b6040519081526020016100ce565b6100ea61011e3660046105a0565b610334565b6002546101309060ff1681565b60405160ff90911681526020016100ce565b61010260035481565b61010260045481565b6101026101623660046105dc565b6001600160a01b031660009081526006602052604090205490565b600554610190906001600160a01b031681565b6040516001600160a01b0390911681526020016100ce565b6100c161044a565b6100ea6101be366004610576565b610457565b6101026101d13660046105fe565b6001600160a01b03918216600090815260076020908152604080832093909416825291909152205490565b6000805461020990610631565b80601f016020809104026020016040519081016040528092919081815260200182805461023590610631565b80156102825780601f1061025757610100808354040283529160200191610282565b820191906000526020600020905b81548152906001019060200180831161026557829003601f168201915b505050505081565b3360008181526007602090815260408083206001600160a01b038716808552925280832085905551919290917f8c5be1e5ebec7d5bd14f71427d1e84f3dd0314c0f7b2291e5b200ac8c7c3b925906102e59086815260200190565b60405180910390a350600192915050565b600080805260066020527f54cdd369e4e8a8515e52ca72ec816c2101831ad1f18bf44102ed171459c9b4f85460045461032f9190610682565b905090565b60006001600160a01b03831661034957600080fd5b6001600160a01b03841660009081526006602052604090205461036d908390610682565b6001600160a01b03851660009081526006602090815260408083209390935560078152828220338352905220546103a5908390610682565b6001600160a01b0380861660009081526007602090815260408083203384528252808320949094559186168152600690915220546103e4908390610699565b6001600160a01b0380851660008181526006602052604090819020939093559151908616907fddf252ad1be2c89b69c2b068fc378daa952ba7f163c4a11628f55a4df523b3ef906104389086815260200190565b60405180910390a35060019392505050565b6001805461020990610631565b60006001600160a01b03831661046c57600080fd5b33600090815260066020526040902054610487908390610682565b33600090815260066020526040808220929092556001600160a01b038516815220546104b4908390610699565b6001600160a01b0384166000818152600660205260409081902092909255905133907fddf252ad1be2c89b69c2b068fc378daa952ba7f163c4a11628f55a4df523b3ef906102e59086815260200190565b600060208083528351808285015260005b8181101561053257858101830151858201604001528201610516565b81811115610544576000604083870101525b50601f01601f1916929092016040019392505050565b80356001600160a01b038116811461057157600080fd5b919050565b6000806040838503121561058957600080fd5b6105928361055a565b946020939093013593505050565b6000806000606084860312156105b557600080fd5b6105be8461055a565b92506105cc6020850161055a565b9150604084013590509250925092565b6000602082840312156105ee57600080fd5b6105f78261055a565b9392505050565b6000806040838503121561061157600080fd5b61061a8361055a565b91506106286020840161055a565b90509250929050565b600181811c9082168061064557607f821691505b6020821081141561066657634e487b7160e01b600052602260045260246000fd5b50919050565b634e487b7160e01b600052601160045260246000fd5b6000828210156106945761069461066c565b500390565b600082198211156106ac576106ac61066c565b50019056fea2646970667358221220d22281259c7c0e9e3e84b7634a5629df94837e665f445ab150ee071f3078cf2364736f6c634300080a0033",
  "linkReferences": {},
  "deployedLinkReferences": {}
}