{
  "_format": "hh-sol-artifact-1",
  "contractName": "mockWETHToken",
  "sourceName": "contracts/mockWETHToken.sol",
  "abi": [
    {
      "inputs": [],
      "stateMutability": "nonpayable",
      "type": "constructor"
    },
    {
      "anonymous": false,
      "inputs": [
        {
          "indexed": true,
          "internalType": "address",
          "name": "owner",
          "type": "address"
        },
        {
          "indexed": true,
          "internalType": "address",
          "name": "spender",
          "type": "address"
        },
        {
          "indexed": false,
          "internalType": "uint256",
          "name": "value",
          "type": "uint256"
        }
      ],
      "name": "Approval",
      "type": "event"
    },
    {
      "anonymous": false,
      "inputs": [
        {
          "indexed": true,
          "internalType": "address",
          "name": "from",
          "type": "address"
        },
        {
          "indexed": true,
          "internalType": "address",
          "name": "to",
          "type": "address"
        },
        {
          "indexed": false,
          "internalType": "uint256",
          "name": "value",
          "type": "uint256"
        }
      ],
      "name": "Transfer",
      "type": "event"
    },
    {
      "inputs": [],
      "name": "_totalSupply",
      "outputs": [
        {
          "internalType": "uint256",
          "name": "",
          "type": "uint256"
        }
      ],
      "stateMutability": "view",
      "type": "function"
    },
    {
      "inputs": [
        {
          "internalType": "address",
          "name": "tokenOwner",
          "type": "address"
        },
        {
          "internalType": "address",
          "name": "spender",
          "type": "address"
        }
      ],
      "name": "allowance",
      "outputs": [
        {
          "internalType": "uint256",
          "name": "remaining",
          "type": "uint256"
        }
      ],
      "stateMutability": "view",
      "type": "function"
    },
    {
      "inputs": [
        {
          "internalType": "address",
          "name": "spender",
          "type": "address"
        },
        {
          "internalType": "uint256",
          "name": "tokens",
          "type": "uint256"
        }
      ],
      "name": "approve",
      "outputs": [
        {
          "internalType": "bool",
          "name": "success",
          "type": "bool"
        }
      ],
      "stateMutability": "nonpayable",
      "type": "function"
    },
    {
      "inputs": [
        {
          "internalType": "address",
          "name": "tokenOwner",
          "type": "address"
        }
      ],
      "name": "balanceOf",
      "outputs": [
        {
          "internalType": "uint256",
          "name": "getBalance",
          "type": "uint256"
        }
      ],
      "stateMutability": "view",
      "type": "function"
    },
    {
      "inputs": [],
      "name": "decimals",
      "outputs": [
        {
          "internalType": "uint8",
          "name": "",
          "type": "uint8"
        }
      ],
      "stateMutability": "view",
      "type": "function"
    },
    {
      "inputs": [],
      "name": "initialSupply",
      "outputs": [
        {
          "internalType": "uint256",
          "name": "",
          "type": "uint256"
        }
      ],
      "stateMutability": "view",
      "type": "function"
    },
    {
      "inputs": [],
      "name": "name",
      "outputs": [
        {
          "internalType": "string",
          "name": "",
          "type": "string"
        }
      ],
      "stateMutability": "view",
      "type": "function"
    },
    {
      "inputs": [],
      "name": "owner",
      "outputs": [
        {
          "internalType": "address",
          "name": "",
          "type": "address"
        }
      ],
      "stateMutability": "view",
      "type": "function"
    },
    {
      "inputs": [],
      "name": "symbol",
      "outputs": [
        {
          "internalType": "string",
          "name": "",
          "type": "string"
        }
      ],
      "stateMutability": "view",
      "type": "function"
    },
    {
      "inputs": [],
      "name": "totalSupply",
      "outputs": [
        {
          "internalType": "uint256",
          "name": "",
          "type": "uint256"
        }
      ],
      "stateMutability": "view",
      "type": "function"
    },
    {
      "inputs": [
        {
          "internalType": "address",
          "name": "to",
          "type": "address"
        },
        {
          "internalType": "uint256",
          "name": "tokens",
          "type": "uint256"
        }
      ],
      "name": "transfer",
      "outputs": [
        {
          "internalType": "bool",
          "name": "success",
          "type": "bool"
        }
      ],
      "stateMutability": "nonpayable",
      "type": "function"
    },
    {
      "inputs": [
        {
          "internalType": "address",
          "name": "from",
          "type": "address"
        },
        {
          "internalType": "address",
          "name": "to",
          "type": "address"
        },
        {
          "internalType": "uint256",
          "name": "tokens",
          "type": "uint256"
        }
      ],
      "name": "transferFrom",
      "outputs": [
        {
          "internalType": "bool",
          "name": "success",
          "type": "bool"
        }
      ],
      "stateMutability": "nonpayable",
      "type": "function"
    }
  ],
  "bytecode": "0x60806040523480156200001157600080fd5b506040518060400160405280600d81526020017f6d6f636b57455448546f6b656e00000000000000000000000000000000000000815250600090805190602001906200005f92919062000202565b506040518060400160405280600581526020017f745745544800000000000000000000000000000000000000000000000000000081525060019080519060200190620000ad92919062000202565b506012600260006101000a81548160ff021916908360ff160217905550600260009054906101000a900460ff1660ff16600a620000eb91906200043f565b633b9aca00620000fc919062000490565b600481905550600454600381905550600454600660003373ffffffffffffffffffffffffffffffffffffffff1673ffffffffffffffffffffffffffffffffffffffff1681526020019081526020016000208190555033600560006101000a81548173ffffffffffffffffffffffffffffffffffffffff021916908373ffffffffffffffffffffffffffffffffffffffff1602179055503373ffffffffffffffffffffffffffffffffffffffff16600073ffffffffffffffffffffffffffffffffffffffff167fddf252ad1be2c89b69c2b068fc378daa952ba7f163c4a11628f55a4df523b3ef600454604051620001f4919062000502565b60405180910390a362000584565b82805462000210906200054e565b90600052602060002090601f01602090048101928262000234576000855562000280565b82601f106200024f57805160ff191683800117855562000280565b8280016001018555821562000280579182015b828111156200027f57825182559160200191906001019062000262565b5b5090506200028f919062000293565b5090565b5b80821115620002ae57600081600090555060010162000294565b5090565b7f4e487b7100000000000000000000000000000000000000000000000000000000600052601160045260246000fd5b60008160011c9050919050565b6000808291508390505b60018511156200034057808604811115620003185762000317620002b2565b5b6001851615620003285780820291505b80810290506200033885620002e1565b9450620002f8565b94509492505050565b6000826200035b57600190506200042e565b816200036b57600090506200042e565b81600181146200038457600281146200038f57620003c5565b60019150506200042e565b60ff841115620003a457620003a3620002b2565b5b8360020a915084821115620003be57620003bd620002b2565b5b506200042e565b5060208310610133831016604e8410600b8410161715620003ff5782820a905083811115620003f957620003f8620002b2565b5b6200042e565b6200040e8484846001620002ee565b92509050818404811115620004285762000427620002b2565b5b81810290505b9392505050565b6000819050919050565b60006200044c8262000435565b9150620004598362000435565b9250620004887fffffffffffffffffffffffffffffffffffffffffffffffffffffffffffffffff848462000349565b905092915050565b60006200049d8262000435565b9150620004aa8362000435565b9250817fffffffffffffffffffffffffffffffffffffffffffffffffffffffffffffffff0483118215151615620004e657620004e5620002b2565b5b828202905092915050565b620004fc8162000435565b82525050565b6000602082019050620005196000830184620004f1565b92915050565b7f4e487b7100000000000000000000000000000000000000000000000000000000600052602260045260246000fd5b600060028204905060018216806200056757607f821691505b602082108114156200057e576200057d6200051f565b5b50919050565b610eec80620005946000396000f3fe608060405234801561001057600080fd5b50600436106100b45760003560e01c80633eaaf86b116100715780633eaaf86b1461019157806370a08231146101af5780638da5cb5b146101df57806395d89b41146101fd578063a9059cbb1461021b578063dd62ed3e1461024b576100b4565b806306fdde03146100b9578063095ea7b3146100d757806318160ddd1461010757806323b872dd14610125578063313ce56714610155578063378dc3dc14610173575b600080fd5b6100c161027b565b6040516100ce9190610b20565b60405180910390f35b6100f160048036038101906100ec9190610bdb565b610309565b6040516100fe9190610c36565b60405180910390f35b61010f6103fb565b60405161011c9190610c60565b60405180910390f35b61013f600480360381019061013a9190610c7b565b61044f565b60405161014c9190610c36565b60405180910390f35b61015d61071e565b60405161016a9190610cea565b60405180910390f35b61017b610731565b6040516101889190610c60565b60405180910390f35b610199610737565b6040516101a69190610c60565b60405180910390f35b6101c960048036038101906101c49190610d05565b61073d565b6040516101d69190610c60565b60405180910390f35b6101e7610786565b6040516101f49190610d41565b60405180910390f35b6102056107ac565b6040516102129190610b20565b60405180910390f35b61023560048036038101906102309190610bdb565b61083a565b6040516102429190610c36565b60405180910390f35b61026560048036038101906102609190610d5c565b610a00565b6040516102729190610c60565b60405180910390f35b6000805461028890610dcb565b80601f01602080910402602001604051908101604052809291908181526020018280546102b490610dcb565b80156103015780601f106102d657610100808354040283529160200191610301565b820191906000526020600020905b8154815290600101906020018083116102e457829003601f168201915b505050505081565b600081600760003373ffffffffffffffffffffffffffffffffffffffff1673ffffffffffffffffffffffffffffffffffffffff16815260200190815260200160002060008573ffffffffffffffffffffffffffffffffffffffff1673ffffffffffffffffffffffffffffffffffffffff168152602001908152602001600020819055508273ffffffffffffffffffffffffffffffffffffffff163373ffffffffffffffffffffffffffffffffffffffff167f8c5be1e5ebec7d5bd14f71427d1e84f3dd0314c0f7b2291e5b200ac8c7c3b925846040516103e99190610c60565b60405180910390a36001905092915050565b6000600660008073ffffffffffffffffffffffffffffffffffffffff1673ffffffffffffffffffffffffffffffffffffffff1681526020019081526020016000205460045461044a9190610e2c565b905090565b60008073ffffffffffffffffffffffffffffffffffffffff168373ffffffffffffffffffffffffffffffffffffffff16141561048a57600080fd5b81600660008673ffffffffffffffffffffffffffffffffffffffff1673ffffffffffffffffffffffffffffffffffffffff168152602001908152602001600020546104d59190610e2c565b600660008673ffffffffffffffffffffffffffffffffffffffff1673ffffffffffffffffffffffffffffffffffffffff1681526020019081526020016000208190555081600760008673ffffffffffffffffffffffffffffffffffffffff1673ffffffffffffffffffffffffffffffffffffffff16815260200190815260200160002060003373ffffffffffffffffffffffffffffffffffffffff1673ffffffffffffffffffffffffffffffffffffffff168152602001908152602001600020546105a09190610e2c565b600760008673ffffffffffffffffffffffffffffffffffffffff1673ffffffffffffffffffffffffffffffffffffffff16815260200190815260200160002060003373ffffffffffffffffffffffffffffffffffffffff1673ffffffffffffffffffffffffffffffffffffffff1681526020019081526020016000208190555081600660008573ffffffffffffffffffffffffffffffffffffffff1673ffffffffffffffffffffffffffffffffffffffff1681526020019081526020016000205461066b9190610e60565b600660008573ffffffffffffffffffffffffffffffffffffffff1673ffffffffffffffffffffffffffffffffffffffff168152602001908152602001600020819055508273ffffffffffffffffffffffffffffffffffffffff168473ffffffffffffffffffffffffffffffffffffffff167fddf252ad1be2c89b69c2b068fc378daa952ba7f163c4a11628f55a4df523b3ef8460405161070b9190610c60565b60405180910390a3600190509392505050565b600260009054906101000a900460ff1681565b60035481565b60045481565b6000600660008373ffffffffffffffffffffffffffffffffffffffff1673ffffffffffffffffffffffffffffffffffffffff168152602001908152602001600020549050919050565b600560009054906101000a900473ffffffffffffffffffffffffffffffffffffffff1681565b600180546107b990610dcb565b80601f01602080910402602001604051908101604052809291908181526020018280546107e590610dcb565b80156108325780601f1061080757610100808354040283529160200191610832565b820191906000526020600020905b81548152906001019060200180831161081557829003601f168201915b505050505081565b60008073ffffffffffffffffffffffffffffffffffffffff168373ffffffffffffffffffffffffffffffffffffffff16141561087557600080fd5b81600660003373ffffffffffffffffffffffffffffffffffffffff1673ffffffffffffffffffffffffffffffffffffffff168152602001908152602001600020546108c09190610e2c565b600660003373ffffffffffffffffffffffffffffffffffffffff1673ffffffffffffffffffffffffffffffffffffffff1681526020019081526020016000208190555081600660008573ffffffffffffffffffffffffffffffffffffffff1673ffffffffffffffffffffffffffffffffffffffff1681526020019081526020016000205461094e9190610e60565b600660008573ffffffffffffffffffffffffffffffffffffffff1673ffffffffffffffffffffffffffffffffffffffff168152602001908152602001600020819055508273ffffffffffffffffffffffffffffffffffffffff163373ffffffffffffffffffffffffffffffffffffffff167fddf252ad1be2c89b69c2b068fc378daa952ba7f163c4a11628f55a4df523b3ef846040516109ee9190610c60565b60405180910390a36001905092915050565b6000600760008473ffffffffffffffffffffffffffffffffffffffff1673ffffffffffffffffffffffffffffffffffffffff16815260200190815260200160002060008373ffffffffffffffffffffffffffffffffffffffff1673ffffffffffffffffffffffffffffffffffffffff16815260200190815260200160002054905092915050565b600081519050919050565b600082825260208201905092915050565b60005b83811015610ac1578082015181840152602081019050610aa6565b83811115610ad0576000848401525b50505050565b6000601f19601f8301169050919050565b6000610af282610a87565b610afc8185610a92565b9350610b0c818560208601610aa3565b610b1581610ad6565b840191505092915050565b60006020820190508181036000830152610b3a8184610ae7565b905092915050565b600080fd5b600073ffffffffffffffffffffffffffffffffffffffff82169050919050565b6000610b7282610b47565b9050919050565b610b8281610b67565b8114610b8d57600080fd5b50565b600081359050610b9f81610b79565b92915050565b6000819050919050565b610bb881610ba5565b8114610bc357600080fd5b50565b600081359050610bd581610baf565b92915050565b60008060408385031215610bf257610bf1610b42565b5b6000610c0085828601610b90565b9250506020610c1185828601610bc6565b9150509250929050565b60008115159050919050565b610c3081610c1b565b82525050565b6000602082019050610c4b6000830184610c27565b92915050565b610c5a81610ba5565b82525050565b6000602082019050610c756000830184610c51565b92915050565b600080600060608486031215610c9457610c93610b42565b5b6000610ca286828701610b90565b9350506020610cb386828701610b90565b9250506040610cc486828701610bc6565b9150509250925092565b600060ff82169050919050565b610ce481610cce565b82525050565b6000602082019050610cff6000830184610cdb565b92915050565b600060208284031215610d1b57610d1a610b42565b5b6000610d2984828501610b90565b91505092915050565b610d3b81610b67565b82525050565b6000602082019050610d566000830184610d32565b92915050565b60008060408385031215610d7357610d72610b42565b5b6000610d8185828601610b90565b9250506020610d9285828601610b90565b9150509250929050565b7f4e487b7100000000000000000000000000000000000000000000000000000000600052602260045260246000fd5b60006002820490506001821680610de357607f821691505b60208210811415610df757610df6610d9c565b5b50919050565b7f4e487b7100000000000000000000000000000000000000000000000000000000600052601160045260246000fd5b6000610e3782610ba5565b9150610e4283610ba5565b925082821015610e5557610e54610dfd565b5b828203905092915050565b6000610e6b82610ba5565b9150610e7683610ba5565b9250827fffffffffffffffffffffffffffffffffffffffffffffffffffffffffffffffff03821115610eab57610eaa610dfd565b5b82820190509291505056fea264697066735822122041a76e5e4317d5a0768e31998f44cce129f031aca8a19bf9de389e576ee0844864736f6c634300080a0033",
  "linkReferences": {},
  "deployedLinkReferences": {}
}