{
  "_format": "hh-sol-artifact-1",
  "contractName": "vesting",
  "sourceName": "contracts/vesting.sol",
  "abi": [
    {
      "inputs": [
        {
          "internalType": "address",
          "name": "token_",
          "type": "address"
        },
        {
          "internalType": "uint256",
          "name": "_startTime",
          "type": "uint256"
        }
      ],
      "stateMutability": "nonpayable",
      "type": "constructor"
    },
    {
      "anonymous": false,
      "inputs": [
        {
          "indexed": false,
          "internalType": "uint256",
          "name": "amount",
          "type": "uint256"
        }
      ],
      "name": "DepositTokenToContract",
      "type": "event"
    },
    {
      "anonymous": false,
      "inputs": [
        {
          "indexed": true,
          "internalType": "address",
          "name": "previousOwner",
          "type": "address"
        },
        {
          "indexed": true,
          "internalType": "address",
          "name": "newOwner",
          "type": "address"
        }
      ],
      "name": "OwnershipTransferred",
      "type": "event"
    },
    {
      "anonymous": false,
      "inputs": [
        {
          "indexed": true,
          "internalType": "bytes32",
          "name": "role",
          "type": "bytes32"
        },
        {
          "indexed": true,
          "internalType": "bytes32",
          "name": "previousAdminRole",
          "type": "bytes32"
        },
        {
          "indexed": true,
          "internalType": "bytes32",
          "name": "newAdminRole",
          "type": "bytes32"
        }
      ],
      "name": "RoleAdminChanged",
      "type": "event"
    },
    {
      "anonymous": false,
      "inputs": [
        {
          "indexed": true,
          "internalType": "bytes32",
          "name": "role",
          "type": "bytes32"
        },
        {
          "indexed": true,
          "internalType": "address",
          "name": "account",
          "type": "address"
        },
        {
          "indexed": true,
          "internalType": "address",
          "name": "sender",
          "type": "address"
        }
      ],
      "name": "RoleGranted",
      "type": "event"
    },
    {
      "anonymous": false,
      "inputs": [
        {
          "indexed": true,
          "internalType": "bytes32",
          "name": "role",
          "type": "bytes32"
        },
        {
          "indexed": true,
          "internalType": "address",
          "name": "account",
          "type": "address"
        },
        {
          "indexed": true,
          "internalType": "address",
          "name": "sender",
          "type": "address"
        }
      ],
      "name": "RoleRevoked",
      "type": "event"
    },
    {
      "anonymous": false,
      "inputs": [
        {
          "indexed": true,
          "internalType": "address",
          "name": "accout",
          "type": "address"
        },
        {
          "indexed": false,
          "internalType": "uint256",
          "name": "amount",
          "type": "uint256"
        }
      ],
      "name": "TokenVested",
      "type": "event"
    },
    {
      "anonymous": false,
      "inputs": [
        {
          "indexed": false,
          "internalType": "uint256",
          "name": "amount",
          "type": "uint256"
        }
      ],
      "name": "WithdrawTokenToContract",
      "type": "event"
    },
    {
      "inputs": [],
      "name": "DEFAULT_ADMIN_ROLE",
      "outputs": [
        {
          "internalType": "bytes32",
          "name": "",
          "type": "bytes32"
        }
      ],
      "stateMutability": "view",
      "type": "function"
    },
    {
      "inputs": [],
      "name": "MANAGER_ROLE",
      "outputs": [
        {
          "internalType": "bytes32",
          "name": "",
          "type": "bytes32"
        }
      ],
      "stateMutability": "view",
      "type": "function"
    },
    {
      "inputs": [],
      "name": "claim",
      "outputs": [],
      "stateMutability": "nonpayable",
      "type": "function"
    },
    {
      "inputs": [
        {
          "internalType": "address",
          "name": "to",
          "type": "address"
        }
      ],
      "name": "claimTo",
      "outputs": [],
      "stateMutability": "nonpayable",
      "type": "function"
    },
    {
      "inputs": [
        {
          "internalType": "uint256",
          "name": "id",
          "type": "uint256"
        }
      ],
      "name": "computeReleasableAmount",
      "outputs": [
        {
          "internalType": "uint256",
          "name": "_amount",
          "type": "uint256"
        }
      ],
      "stateMutability": "view",
      "type": "function"
    },
    {
      "inputs": [
        {
          "internalType": "address",
          "name": "_recipient",
          "type": "address"
        },
        {
          "internalType": "uint256",
          "name": "_vestingPeriod",
          "type": "uint256"
        },
        {
          "internalType": "uint256",
          "name": "_cliffPeriod",
          "type": "uint256"
        },
        {
          "internalType": "uint256",
          "name": "_amount",
          "type": "uint256"
        }
      ],
      "name": "createVestingSchedule",
      "outputs": [],
      "stateMutability": "nonpayable",
      "type": "function"
    },
    {
      "inputs": [
        {
          "internalType": "uint256",
          "name": "_amount",
          "type": "uint256"
        }
      ],
      "name": "depositVestingAmount",
      "outputs": [],
      "stateMutability": "nonpayable",
      "type": "function"
    },
    {
      "inputs": [
        {
          "internalType": "address",
          "name": "account",
          "type": "address"
        }
      ],
      "name": "getClaimable",
      "outputs": [
        {
          "internalType": "uint256",
          "name": "",
          "type": "uint256"
        }
      ],
      "stateMutability": "view",
      "type": "function"
    },
    {
      "inputs": [
        {
          "internalType": "bytes32",
          "name": "role",
          "type": "bytes32"
        }
      ],
      "name": "getRoleAdmin",
      "outputs": [
        {
          "internalType": "bytes32",
          "name": "",
          "type": "bytes32"
        }
      ],
      "stateMutability": "view",
      "type": "function"
    },
    {
      "inputs": [],
      "name": "getStartTime",
      "outputs": [
        {
          "internalType": "uint256",
          "name": "",
          "type": "uint256"
        }
      ],
      "stateMutability": "view",
      "type": "function"
    },
    {
      "inputs": [],
      "name": "getToken",
      "outputs": [
        {
          "internalType": "address",
          "name": "",
          "type": "address"
        }
      ],
      "stateMutability": "view",
      "type": "function"
    },
    {
      "inputs": [],
      "name": "getTotalVestingAmount",
      "outputs": [
        {
          "internalType": "uint256",
          "name": "",
          "type": "uint256"
        }
      ],
      "stateMutability": "view",
      "type": "function"
    },
    {
      "inputs": [
        {
          "internalType": "uint256",
          "name": "id",
          "type": "uint256"
        }
      ],
      "name": "getVestingAccountById",
      "outputs": [
        {
          "internalType": "address",
          "name": "",
          "type": "address"
        }
      ],
      "stateMutability": "view",
      "type": "function"
    },
    {
      "inputs": [],
      "name": "getVestingAccountsCount",
      "outputs": [
        {
          "internalType": "uint256",
          "name": "",
          "type": "uint256"
        }
      ],
      "stateMutability": "view",
      "type": "function"
    },
    {
      "inputs": [
        {
          "internalType": "address",
          "name": "account",
          "type": "address"
        }
      ],
      "name": "getVestingScheduleByAddress",
      "outputs": [
        {
          "components": [
            {
              "internalType": "uint256",
              "name": "vestingId",
              "type": "uint256"
            },
            {
              "internalType": "address",
              "name": "recipient",
              "type": "address"
            },
            {
              "internalType": "uint256",
              "name": "vestingPeriod",
              "type": "uint256"
            },
            {
              "internalType": "uint256",
              "name": "cliffPeriod",
              "type": "uint256"
            },
            {
              "internalType": "uint256",
              "name": "allocatedAmount",
              "type": "uint256"
            },
            {
              "internalType": "uint256",
              "name": "vestedAmount",
              "type": "uint256"
            },
            {
              "internalType": "bool",
              "name": "vestingEnded",
              "type": "bool"
            }
          ],
          "internalType": "struct vesting.VestingSchedule",
          "name": "",
          "type": "tuple"
        }
      ],
      "stateMutability": "view",
      "type": "function"
    },
    {
      "inputs": [
        {
          "internalType": "uint256",
          "name": "id",
          "type": "uint256"
        }
      ],
      "name": "getVestingScheduleById",
      "outputs": [
        {
          "components": [
            {
              "internalType": "uint256",
              "name": "vestingId",
              "type": "uint256"
            },
            {
              "internalType": "address",
              "name": "recipient",
              "type": "address"
            },
            {
              "internalType": "uint256",
              "name": "vestingPeriod",
              "type": "uint256"
            },
            {
              "internalType": "uint256",
              "name": "cliffPeriod",
              "type": "uint256"
            },
            {
              "internalType": "uint256",
              "name": "allocatedAmount",
              "type": "uint256"
            },
            {
              "internalType": "uint256",
              "name": "vestedAmount",
              "type": "uint256"
            },
            {
              "internalType": "bool",
              "name": "vestingEnded",
              "type": "bool"
            }
          ],
          "internalType": "struct vesting.VestingSchedule",
          "name": "",
          "type": "tuple"
        }
      ],
      "stateMutability": "view",
      "type": "function"
    },
    {
      "inputs": [
        {
          "internalType": "bytes32",
          "name": "role",
          "type": "bytes32"
        },
        {
          "internalType": "address",
          "name": "account",
          "type": "address"
        }
      ],
      "name": "grantRole",
      "outputs": [],
      "stateMutability": "nonpayable",
      "type": "function"
    },
    {
      "inputs": [
        {
          "internalType": "bytes32",
          "name": "role",
          "type": "bytes32"
        },
        {
          "internalType": "address",
          "name": "account",
          "type": "address"
        }
      ],
      "name": "hasRole",
      "outputs": [
        {
          "internalType": "bool",
          "name": "",
          "type": "bool"
        }
      ],
      "stateMutability": "view",
      "type": "function"
    },
    {
      "inputs": [],
      "name": "owner",
      "outputs": [
        {
          "internalType": "address",
          "name": "",
          "type": "address"
        }
      ],
      "stateMutability": "view",
      "type": "function"
    },
    {
      "inputs": [],
      "name": "remainingVestingAmount",
      "outputs": [
        {
          "internalType": "uint256",
          "name": "",
          "type": "uint256"
        }
      ],
      "stateMutability": "view",
      "type": "function"
    },
    {
      "inputs": [],
      "name": "renounceOwnership",
      "outputs": [],
      "stateMutability": "nonpayable",
      "type": "function"
    },
    {
      "inputs": [
        {
          "internalType": "bytes32",
          "name": "role",
          "type": "bytes32"
        },
        {
          "internalType": "address",
          "name": "account",
          "type": "address"
        }
      ],
      "name": "renounceRole",
      "outputs": [],
      "stateMutability": "nonpayable",
      "type": "function"
    },
    {
      "inputs": [
        {
          "internalType": "bytes32",
          "name": "role",
          "type": "bytes32"
        },
        {
          "internalType": "address",
          "name": "account",
          "type": "address"
        }
      ],
      "name": "revokeRole",
      "outputs": [],
      "stateMutability": "nonpayable",
      "type": "function"
    },
    {
      "inputs": [],
      "name": "startTime",
      "outputs": [
        {
          "internalType": "uint256",
          "name": "",
          "type": "uint256"
        }
      ],
      "stateMutability": "view",
      "type": "function"
    },
    {
      "inputs": [
        {
          "internalType": "bytes4",
          "name": "interfaceId",
          "type": "bytes4"
        }
      ],
      "name": "supportsInterface",
      "outputs": [
        {
          "internalType": "bool",
          "name": "",
          "type": "bool"
        }
      ],
      "stateMutability": "view",
      "type": "function"
    },
    {
      "inputs": [
        {
          "internalType": "address",
          "name": "newOwner",
          "type": "address"
        }
      ],
      "name": "transferOwnership",
      "outputs": [],
      "stateMutability": "nonpayable",
      "type": "function"
    },
    {
      "inputs": [],
      "name": "transferVestedTokens",
      "outputs": [],
      "stateMutability": "nonpayable",
      "type": "function"
    },
    {
      "inputs": [
        {
          "internalType": "uint256",
          "name": "",
          "type": "uint256"
        }
      ],
      "name": "vestingAccounts",
      "outputs": [
        {
          "internalType": "address",
          "name": "",
          "type": "address"
        }
      ],
      "stateMutability": "view",
      "type": "function"
    },
    {
      "inputs": [],
      "name": "vestingScheduleCounter",
      "outputs": [
        {
          "internalType": "uint256",
          "name": "",
          "type": "uint256"
        }
      ],
      "stateMutability": "view",
      "type": "function"
    }
  ],
  "bytecode": "0x60a060405260006008553480156200001657600080fd5b5060405162001cce38038062001cce8339810160408190526200003991620001b4565b6200004433620000bf565b600180556001600160a01b0382166200005c57600080fd5b6001600160a01b03821660805260098190556200007b6000336200010f565b620000a77f241ecf16d79d0f8dbfb92cbc07fe17840425976cf0667f022fe9877caa831b08336200010f565b5050600a805463ffffffff19166001179055620001f0565b600080546001600160a01b038381166001600160a01b0319831681178455604051919092169283917f8be0079c531659141344cd1fd0a4f28419497f9722a3daafe3b4186f6b6457e09190a35050565b60008281526002602090815260408083206001600160a01b038516845290915290205460ff16620001b05760008281526002602090815260408083206001600160a01b03851684529091529020805460ff191660011790556200016f3390565b6001600160a01b0316816001600160a01b0316837f2f8788117e7eff1d82e926ec794901d17c78024a50270940304540a733656f0d60405160405180910390a45b5050565b60008060408385031215620001c857600080fd5b82516001600160a01b0381168114620001e057600080fd5b6020939093015192949293505050565b608051611aa662000228600039600081816102960152818161091301528181610ed601528181611266015261140b0152611aa66000f3fe608060405234801561001057600080fd5b50600436106101cf5760003560e01c80634e71d92d11610104578063a583024b116100a2578063d547741f11610071578063d547741f14610410578063ec87621c14610423578063f2fde38b1461044a578063fad9221e1461045d57600080fd5b8063a583024b146103e4578063a8b28296146103f7578063ab33c67914610400578063c828371e1461040857600080fd5b80638da5cb5b116100de5780638da5cb5b146103a557806391d14854146103b6578063a217fddf146103c9578063a262f5f8146103d157600080fd5b80634e71d92d1461038c578063715018a61461039457806378e979251461039c57600080fd5b80632cfcb4231161017157806336dd68c61161014b57806336dd68c6146103345780633bedde7d1461035d5780633f4e8e8014610370578063435b53651461038357600080fd5b80632cfcb423146103045780632f2ff15d1461030c57806336568abe1461032157600080fd5b806321c1e36c116101ad57806321c1e36c1461022557806321df0da714610294578063248a9ca3146102ce5780632b14fc42146102f157600080fd5b806301ffc9a7146101d4578063145d544b146101fc57806317a769551461021d575b600080fd5b6101e76101e2366004611733565b610470565b60405190151581526020015b60405180910390f35b61020f61020a36600461175d565b6104a7565b6040519081526020016101f3565b60065461020f565b61023861023336600461175d565b6105a8565b6040516101f39190815181526020808301516001600160a01b03169082015260408083015190820152606080830151908201526080808301519082015260a0808301519082015260c09182015115159181019190915260e00190565b7f00000000000000000000000000000000000000000000000000000000000000005b6040516001600160a01b0390911681526020016101f3565b61020f6102dc36600461175d565b60009081526002602052604090206001015490565b6102b66102ff36600461175d565b610620565b60085461020f565b61031f61031a36600461178d565b61068e565b005b61031f61032f36600461178d565b6106b9565b6102b661034236600461175d565b6005602052600090815260409020546001600160a01b031681565b61023861036b3660046117b9565b610737565b61031f61037e3660046117d4565b6107b9565b61020f60085481565b61031f610b5c565b61031f610b67565b61020f60095481565b6000546001600160a01b03166102b6565b6101e76103c436600461178d565b610b9b565b61020f600081565b61031f6103df3660046117b9565b610bc6565b61020f6103f23660046117b9565b610bd2565b61020f60075481565b61031f610bf4565b60095461020f565b61031f61041e36600461178d565b610d73565b61020f7f241ecf16d79d0f8dbfb92cbc07fe17840425976cf0667f022fe9877caa831b0881565b61031f6104583660046117b9565b610d99565b61031f61046b36600461175d565b610e31565b60006001600160e01b03198216637965db0b60e01b14806104a157506301ffc9a760e01b6001600160e01b03198316145b92915050565b60008181526004602052604081206006015460ff16156104c957506000919050565b6009544210156104db57506000919050565b6000828152600460205260409020600201546009546104fa9190611823565b421061052357600082815260046020819052604090912060058101549101546104a1919061183b565b6000828152600460205260409020600301546009546105429190611823565b421061059f576000828152600460205260409020600581015460029091015460095461056e904261183b565b6000858152600460208190526040909120015461058b9190611852565b6105959190611871565b6104a1919061183b565b5060005b919050565b6105b06116eb565b50600090815260046020818152604092839020835160e0810185528154815260018201546001600160a01b03169281019290925260028101549382019390935260038301546060820152908201546080820152600582015460a082015260069091015460ff16151560c082015290565b600060085482111561066f5760405162461bcd60e51b8152602060048201526013602482015272496e646578206f7574206f6620626f756e647360681b60448201526064015b60405180910390fd5b506000908152600460205260409020600101546001600160a01b031690565b6000828152600260205260409020600101546106aa8133610f98565b6106b48383610ffc565b505050565b6001600160a01b03811633146107295760405162461bcd60e51b815260206004820152602f60248201527f416363657373436f6e74726f6c3a2063616e206f6e6c792072656e6f756e636560448201526e103937b632b9903337b91039b2b63360891b6064820152608401610666565b6107338282611082565b5050565b61073f6116eb565b506001600160a01b039081166000908152600360208181526040808420548452600480835293819020815160e08101835281548152600182015490961692860192909252600282015490850152908101546060840152908101546080830152600581015460a08301526006015460ff16151560c082015290565b6000546001600160a01b031633146107e35760405162461bcd60e51b815260040161066690611893565b600083116108335760405162461bcd60e51b815260206004820152601a60248201527f56657374696e6720706572696f64206d757374206265203e20300000000000006044820152606401610666565b600081116108835760405162461bcd60e51b815260206004820152601a60248201527f56657374696e6720616d6f756e74206d757374206265203e20300000000000006044820152606401610666565b6001600160a01b038416600090815260036020526040902054156108fe5760405162461bcd60e51b815260206004820152602c60248201527f56657374696e6720697320616c72656164792065786973747320666f7220746860448201526b1a5cc81c9958da5c1a595b9d60a21b6064820152608401610666565b6040516370a0823160e01b81523060048201527f00000000000000000000000000000000000000000000000000000000000000006001600160a01b0316906370a0823190602401602060405180830381865afa158015610962573d6000803e3d6000fd5b505050506040513d601f19601f8201168201806040525081019061098691906118c8565b816006546109949190611823565b11156109fa5760405162461bcd60e51b815260206004820152602f60248201527f4e6f7420656e6f7567682066756e647320746f20636f766572206e657720766560448201526e39ba34b7339039b1b432b23ab6329760891b6064820152608401610666565b60088054906000610a0a836118e1565b909155505060088054600090815260056020908152604080832080546001600160a01b0319166001600160a01b038a16908117909155815160e0810183529454855291840191909152600a5491929190820190610a6d9063ffffffff1687611852565b610a7890603c611852565b8152600a54602090910190610a939063ffffffff1686611852565b610a9e90603c611852565b815260208082018590526000604080840182905260609384018290526008546001600160a01b038b81168452600380865283852083905591845260048086529383902087518155948701516001860180546001600160a01b03191691909216179055908501516002840155928401519282019290925560808301519181019190915560a0820151600582015560c08201516006918201805460ff191691151591909117905554909150610b52908390611823565b6006555050505050565b610b65336110e9565b565b6000546001600160a01b03163314610b915760405162461bcd60e51b815260040161066690611893565b610b65600061134e565b60009182526002602090815260408084206001600160a01b0393909316845291905290205460ff1690565b610bcf816110e9565b50565b6001600160a01b0381166000908152600360205260408120546104a1906104a7565b60026001541415610c475760405162461bcd60e51b815260206004820152601f60248201527f5265656e7472616e637947756172643a207265656e7472616e742063616c6c006044820152606401610666565b60026001556009544211610c9d5760405162461bcd60e51b815260206004820152601860248201527f56657374696e6720686173206e6f7420737461727465642e00000000000000006044820152606401610666565b6001805b6008548111610cde5760008181526004602052604090206006015460ff16610ccc5760009150610cde565b80610cd6816118e1565b915050610ca1565b508015610d225760405162461bcd60e51b81526020600482015260126024820152712b32b9ba34b733903430b99032b73232b21760711b6044820152606401610666565b600060075411610d445760405162461bcd60e51b8152600401610666906118fc565b60015b6008548111610d6b57610d598161139e565b80610d63816118e1565b915050610d47565b505060018055565b600082815260026020526040902060010154610d8f8133610f98565b6106b48383611082565b6000546001600160a01b03163314610dc35760405162461bcd60e51b815260040161066690611893565b6001600160a01b038116610e285760405162461bcd60e51b815260206004820152602660248201527f4f776e61626c653a206e6577206f776e657220697320746865207a65726f206160448201526564647265737360d01b6064820152608401610666565b610bcf8161134e565b7f241ecf16d79d0f8dbfb92cbc07fe17840425976cf0667f022fe9877caa831b08610e5c8133610f98565b60026001541415610eaf5760405162461bcd60e51b815260206004820152601f60248201527f5265656e7472616e637947756172643a207265656e7472616e742063616c6c006044820152606401610666565b60026001556040516323b872dd60e01b8152336004820152306024820152604481018390527f00000000000000000000000000000000000000000000000000000000000000006001600160a01b0316906323b872dd906064016020604051808303816000875af1158015610f27573d6000803e3d6000fd5b505050506040513d601f19601f82011682018060405250810190610f4b9190611933565b5081600754610f5a9190611823565b6007556040518281527f7396064ff688f3fb444b0893a9ebdb4507fbd1863f3440d7d36f2dd58c03a45d9060200160405180910390a1505060018055565b610fa28282610b9b565b61073357610fba816001600160a01b03166014611548565b610fc5836020611548565b604051602001610fd6929190611985565b60408051601f198184030181529082905262461bcd60e51b8252610666916004016119fa565b6110068282610b9b565b6107335760008281526002602090815260408083206001600160a01b03851684529091529020805460ff1916600117905561103e3390565b6001600160a01b0316816001600160a01b0316837f2f8788117e7eff1d82e926ec794901d17c78024a50270940304540a733656f0d60405160405180910390a45050565b61108c8282610b9b565b156107335760008281526002602090815260408083206001600160a01b0385168085529252808320805460ff1916905551339285917ff6391f5c32d9c69d2a47ea670b442974b53935d1edc7fd64eb21e047a839171b9190a45050565b336000908152600360205260409020546111455760405162461bcd60e51b815260206004820181905260248201527f56657374696e67207363686564756c6520646f6573206e6f742065786973742e6044820152606401610666565b33600090815260036020818152604080842054808552600490925290922001546009546111729190611823565b42116111d05760405162461bcd60e51b815260206004820152602760248201527f43616e6e6f7420636c61696d206265666f726520636c69666620706572696f64604482015266399032b732399760c91b6064820152608401610666565b60006111db826104a7565b905080600754116111fe5760405162461bcd60e51b8152600401610666906118fc565b60008281526004602052604090206002015460095461121d9190611823565b4210611240576000828152600460205260409020600601805460ff191660011790555b60405163a9059cbb60e01b81526001600160a01b038481166004830152602482018390527f0000000000000000000000000000000000000000000000000000000000000000169063a9059cbb906044016020604051808303816000875af11580156112af573d6000803e3d6000fd5b505050506040513d601f19601f820116820180604052508101906112d39190611933565b50600082815260046020526040812060050180548392906112f5908490611823565b909155505060075461130890829061183b565b6007556040518181526001600160a01b038416907f7e04575a9d5f6038ea6ee0bb1a2cfe0ae38555fddafec1dec4d69b504b72ba189060200160405180910390a2505050565b600080546001600160a01b038381166001600160a01b0319831681178455604051919092169283917f8be0079c531659141344cd1fd0a4f28419497f9722a3daafe3b4186f6b6457e09190a35050565b6000600754116113c05760405162461bcd60e51b8152600401610666906118fc565b60006113cb826104a7565b60008381526004602081905260409182902060010154915163a9059cbb60e01b81526001600160a01b0392831691810191909152602481018390529192507f0000000000000000000000000000000000000000000000000000000000000000169063a9059cbb906044016020604051808303816000875af1158015611454573d6000803e3d6000fd5b505050506040513d601f19601f820116820180604052508101906114789190611933565b506000828152600460205260408120600501805483929061149a908490611823565b90915550506000828152600460205260409020600201546009546114be9190611823565b42106114e1576000828152600460205260409020600601805460ff191660011790555b806007546114ef919061183b565b6007556000828152600460209081526040918290206001015491518381526001600160a01b03909216917f7e04575a9d5f6038ea6ee0bb1a2cfe0ae38555fddafec1dec4d69b504b72ba18910160405180910390a25050565b60606000611557836002611852565b611562906002611823565b67ffffffffffffffff81111561157a5761157a611a2d565b6040519080825280601f01601f1916602001820160405280156115a4576020820181803683370190505b509050600360fc1b816000815181106115bf576115bf611a43565b60200101906001600160f81b031916908160001a905350600f60fb1b816001815181106115ee576115ee611a43565b60200101906001600160f81b031916908160001a9053506000611612846002611852565b61161d906001611823565b90505b6001811115611695576f181899199a1a9b1b9c1cb0b131b232b360811b85600f166010811061165157611651611a43565b1a60f81b82828151811061166757611667611a43565b60200101906001600160f81b031916908160001a90535060049490941c9361168e81611a59565b9050611620565b5083156116e45760405162461bcd60e51b815260206004820181905260248201527f537472696e67733a20686578206c656e67746820696e73756666696369656e746044820152606401610666565b9392505050565b6040518060e001604052806000815260200160006001600160a01b03168152602001600081526020016000815260200160008152602001600081526020016000151581525090565b60006020828403121561174557600080fd5b81356001600160e01b0319811681146116e457600080fd5b60006020828403121561176f57600080fd5b5035919050565b80356001600160a01b03811681146105a357600080fd5b600080604083850312156117a057600080fd5b823591506117b060208401611776565b90509250929050565b6000602082840312156117cb57600080fd5b6116e482611776565b600080600080608085870312156117ea57600080fd5b6117f385611776565b966020860135965060408601359560600135945092505050565b634e487b7160e01b600052601160045260246000fd5b600082198211156118365761183661180d565b500190565b60008282101561184d5761184d61180d565b500390565b600081600019048311821515161561186c5761186c61180d565b500290565b60008261188e57634e487b7160e01b600052601260045260246000fd5b500490565b6020808252818101527f4f776e61626c653a2063616c6c6572206973206e6f7420746865206f776e6572604082015260600190565b6000602082840312156118da57600080fd5b5051919050565b60006000198214156118f5576118f561180d565b5060010190565b6020808252601f908201527f4e6f2072656d61696e696e6720746f6b656e7320746f207472616e7366657200604082015260600190565b60006020828403121561194557600080fd5b815180151581146116e457600080fd5b60005b83811015611970578181015183820152602001611958565b8381111561197f576000848401525b50505050565b7f416363657373436f6e74726f6c3a206163636f756e74200000000000000000008152600083516119bd816017850160208801611955565b7001034b99036b4b9b9b4b733903937b6329607d1b60179184019182015283516119ee816028840160208801611955565b01602801949350505050565b6020815260008251806020840152611a19816040850160208701611955565b601f01601f19169190910160400192915050565b634e487b7160e01b600052604160045260246000fd5b634e487b7160e01b600052603260045260246000fd5b600081611a6857611a6861180d565b50600019019056fea2646970667358221220eb3820a7ca37a1edeb39aa67122ad8809e9019120da499bcb672452bf3d550df64736f6c634300080a0033",
  "linkReferences": {},
  "deployedLinkReferences": {}
}