{
  "_format": "hh-sol-artifact-1",
  "contractName": "vesting",
  "sourceName": "contracts/vesting.sol",
  "abi": [
    {
      "inputs": [
        {
          "internalType": "address",
          "name": "token_",
          "type": "address"
        },
        {
          "internalType": "uint256",
          "name": "_startTime",
          "type": "uint256"
        }
      ],
      "stateMutability": "nonpayable",
      "type": "constructor"
    },
    {
      "anonymous": false,
      "inputs": [
        {
          "indexed": false,
          "internalType": "uint256",
          "name": "amount",
          "type": "uint256"
        }
      ],
      "name": "DepositTokenToContract",
      "type": "event"
    },
    {
      "anonymous": false,
      "inputs": [
        {
          "indexed": true,
          "internalType": "address",
          "name": "previousOwner",
          "type": "address"
        },
        {
          "indexed": true,
          "internalType": "address",
          "name": "newOwner",
          "type": "address"
        }
      ],
      "name": "OwnershipTransferred",
      "type": "event"
    },
    {
      "anonymous": false,
      "inputs": [
        {
          "indexed": true,
          "internalType": "bytes32",
          "name": "role",
          "type": "bytes32"
        },
        {
          "indexed": true,
          "internalType": "bytes32",
          "name": "previousAdminRole",
          "type": "bytes32"
        },
        {
          "indexed": true,
          "internalType": "bytes32",
          "name": "newAdminRole",
          "type": "bytes32"
        }
      ],
      "name": "RoleAdminChanged",
      "type": "event"
    },
    {
      "anonymous": false,
      "inputs": [
        {
          "indexed": true,
          "internalType": "bytes32",
          "name": "role",
          "type": "bytes32"
        },
        {
          "indexed": true,
          "internalType": "address",
          "name": "account",
          "type": "address"
        },
        {
          "indexed": true,
          "internalType": "address",
          "name": "sender",
          "type": "address"
        }
      ],
      "name": "RoleGranted",
      "type": "event"
    },
    {
      "anonymous": false,
      "inputs": [
        {
          "indexed": true,
          "internalType": "bytes32",
          "name": "role",
          "type": "bytes32"
        },
        {
          "indexed": true,
          "internalType": "address",
          "name": "account",
          "type": "address"
        },
        {
          "indexed": true,
          "internalType": "address",
          "name": "sender",
          "type": "address"
        }
      ],
      "name": "RoleRevoked",
      "type": "event"
    },
    {
      "anonymous": false,
      "inputs": [
        {
          "indexed": true,
          "internalType": "address",
          "name": "accout",
          "type": "address"
        },
        {
          "indexed": false,
          "internalType": "uint256",
          "name": "amount",
          "type": "uint256"
        }
      ],
      "name": "TokenVested",
      "type": "event"
    },
    {
      "inputs": [],
      "name": "DEFAULT_ADMIN_ROLE",
      "outputs": [
        {
          "internalType": "bytes32",
          "name": "",
          "type": "bytes32"
        }
      ],
      "stateMutability": "view",
      "type": "function"
    },
    {
      "inputs": [],
      "name": "MANAGER_ROLE",
      "outputs": [
        {
          "internalType": "bytes32",
          "name": "",
          "type": "bytes32"
        }
      ],
      "stateMutability": "view",
      "type": "function"
    },
    {
      "inputs": [
        {
          "internalType": "uint256",
          "name": "id",
          "type": "uint256"
        }
      ],
      "name": "computeReleasableAmount",
      "outputs": [
        {
          "internalType": "uint256",
          "name": "_amount",
          "type": "uint256"
        }
      ],
      "stateMutability": "view",
      "type": "function"
    },
    {
      "inputs": [
        {
          "internalType": "uint256",
          "name": "_amount",
          "type": "uint256"
        }
      ],
      "name": "depositVestingAmount",
      "outputs": [],
      "stateMutability": "nonpayable",
      "type": "function"
    },
    {
      "inputs": [
        {
          "internalType": "bytes32",
          "name": "role",
          "type": "bytes32"
        }
      ],
      "name": "getRoleAdmin",
      "outputs": [
        {
          "internalType": "bytes32",
          "name": "",
          "type": "bytes32"
        }
      ],
      "stateMutability": "view",
      "type": "function"
    },
    {
      "inputs": [],
      "name": "getStartTime",
      "outputs": [
        {
          "internalType": "uint256",
          "name": "",
          "type": "uint256"
        }
      ],
      "stateMutability": "view",
      "type": "function"
    },
    {
      "inputs": [],
      "name": "getToken",
      "outputs": [
        {
          "internalType": "address",
          "name": "",
          "type": "address"
        }
      ],
      "stateMutability": "view",
      "type": "function"
    },
    {
      "inputs": [
        {
          "internalType": "uint256",
          "name": "id",
          "type": "uint256"
        }
      ],
      "name": "getVestingAccountById",
      "outputs": [
        {
          "internalType": "address",
          "name": "",
          "type": "address"
        }
      ],
      "stateMutability": "view",
      "type": "function"
    },
    {
      "inputs": [],
      "name": "getVestingAccountsCount",
      "outputs": [
        {
          "internalType": "uint256",
          "name": "",
          "type": "uint256"
        }
      ],
      "stateMutability": "view",
      "type": "function"
    },
    {
      "inputs": [
        {
          "internalType": "address",
          "name": "account",
          "type": "address"
        }
      ],
      "name": "getVestingScheduleByAddress",
      "outputs": [
        {
          "components": [
            {
              "internalType": "uint256",
              "name": "vestingId",
              "type": "uint256"
            },
            {
              "internalType": "address",
              "name": "recipient",
              "type": "address"
            },
            {
              "internalType": "uint256",
              "name": "vestingPeriod",
              "type": "uint256"
            },
            {
              "internalType": "uint256",
              "name": "cliffPeriod",
              "type": "uint256"
            },
            {
              "internalType": "uint256",
              "name": "allocatedAmount",
              "type": "uint256"
            },
            {
              "internalType": "uint256",
              "name": "vestedAmount",
              "type": "uint256"
            },
            {
              "internalType": "bool",
              "name": "isEnded",
              "type": "bool"
            }
          ],
          "internalType": "struct vesting.VestingSchedule",
          "name": "",
          "type": "tuple"
        }
      ],
      "stateMutability": "view",
      "type": "function"
    },
    {
      "inputs": [
        {
          "internalType": "uint256",
          "name": "id",
          "type": "uint256"
        }
      ],
      "name": "getVestingScheduleById",
      "outputs": [
        {
          "components": [
            {
              "internalType": "uint256",
              "name": "vestingId",
              "type": "uint256"
            },
            {
              "internalType": "address",
              "name": "recipient",
              "type": "address"
            },
            {
              "internalType": "uint256",
              "name": "vestingPeriod",
              "type": "uint256"
            },
            {
              "internalType": "uint256",
              "name": "cliffPeriod",
              "type": "uint256"
            },
            {
              "internalType": "uint256",
              "name": "allocatedAmount",
              "type": "uint256"
            },
            {
              "internalType": "uint256",
              "name": "vestedAmount",
              "type": "uint256"
            },
            {
              "internalType": "bool",
              "name": "isEnded",
              "type": "bool"
            }
          ],
          "internalType": "struct vesting.VestingSchedule",
          "name": "",
          "type": "tuple"
        }
      ],
      "stateMutability": "view",
      "type": "function"
    },
    {
      "inputs": [],
      "name": "getVestingTotalAmount",
      "outputs": [
        {
          "internalType": "uint256",
          "name": "",
          "type": "uint256"
        }
      ],
      "stateMutability": "view",
      "type": "function"
    },
    {
      "inputs": [
        {
          "internalType": "bytes32",
          "name": "role",
          "type": "bytes32"
        },
        {
          "internalType": "address",
          "name": "account",
          "type": "address"
        }
      ],
      "name": "grantRole",
      "outputs": [],
      "stateMutability": "nonpayable",
      "type": "function"
    },
    {
      "inputs": [
        {
          "internalType": "bytes32",
          "name": "role",
          "type": "bytes32"
        },
        {
          "internalType": "address",
          "name": "account",
          "type": "address"
        }
      ],
      "name": "hasRole",
      "outputs": [
        {
          "internalType": "bool",
          "name": "",
          "type": "bool"
        }
      ],
      "stateMutability": "view",
      "type": "function"
    },
    {
      "inputs": [],
      "name": "owner",
      "outputs": [
        {
          "internalType": "address",
          "name": "",
          "type": "address"
        }
      ],
      "stateMutability": "view",
      "type": "function"
    },
    {
      "inputs": [],
      "name": "renounceOwnership",
      "outputs": [],
      "stateMutability": "nonpayable",
      "type": "function"
    },
    {
      "inputs": [
        {
          "internalType": "bytes32",
          "name": "role",
          "type": "bytes32"
        },
        {
          "internalType": "address",
          "name": "account",
          "type": "address"
        }
      ],
      "name": "renounceRole",
      "outputs": [],
      "stateMutability": "nonpayable",
      "type": "function"
    },
    {
      "inputs": [
        {
          "internalType": "bytes32",
          "name": "role",
          "type": "bytes32"
        },
        {
          "internalType": "address",
          "name": "account",
          "type": "address"
        }
      ],
      "name": "revokeRole",
      "outputs": [],
      "stateMutability": "nonpayable",
      "type": "function"
    },
    {
      "inputs": [],
      "name": "startTime",
      "outputs": [
        {
          "internalType": "uint256",
          "name": "",
          "type": "uint256"
        }
      ],
      "stateMutability": "view",
      "type": "function"
    },
    {
      "inputs": [
        {
          "internalType": "bytes4",
          "name": "interfaceId",
          "type": "bytes4"
        }
      ],
      "name": "supportsInterface",
      "outputs": [
        {
          "internalType": "bool",
          "name": "",
          "type": "bool"
        }
      ],
      "stateMutability": "view",
      "type": "function"
    },
    {
      "inputs": [],
      "name": "totalRemainedVestingAmount",
      "outputs": [
        {
          "internalType": "uint256",
          "name": "",
          "type": "uint256"
        }
      ],
      "stateMutability": "view",
      "type": "function"
    },
    {
      "inputs": [
        {
          "internalType": "address",
          "name": "newOwner",
          "type": "address"
        }
      ],
      "name": "transferOwnership",
      "outputs": [],
      "stateMutability": "nonpayable",
      "type": "function"
    },
    {
      "inputs": [],
      "name": "transferVestedTokens",
      "outputs": [],
      "stateMutability": "nonpayable",
      "type": "function"
    },
    {
      "inputs": [
        {
          "internalType": "uint256",
          "name": "",
          "type": "uint256"
        }
      ],
      "name": "vestingAccounts",
      "outputs": [
        {
          "internalType": "address",
          "name": "",
          "type": "address"
        }
      ],
      "stateMutability": "view",
      "type": "function"
    },
    {
      "inputs": [],
      "name": "vestingScheduleCounter",
      "outputs": [
        {
          "internalType": "uint256",
          "name": "",
          "type": "uint256"
        }
      ],
      "stateMutability": "view",
      "type": "function"
    }
  ],
  "bytecode": "0x60a060405260006008553480156200001657600080fd5b506040516200213838038062002138833981016040819052620000399162000b13565b62000044336200079d565b600180556001600160a01b0382166200005c57600080fd5b6001600160a01b03821660805260098190556200007b600033620007ed565b620000a77f241ecf16d79d0f8dbfb92cbc07fe17840425976cf0667f022fe9877caa831b0833620007ed565b600a805463ffffffff19166001178155601290620000ff907327106c0f5c450ed30b4547681992709808964600906104479060b690620000e990869062000c62565b620000f9906306dac2c062000c7a565b62000878565b6200013973fda31099fcb1fc146b7bd93dd99dd7f6c081c56061044760b66200012a85600a62000c62565b620000f9906298968062000c7a565b6200017272e294652292776e4d59f416ef35a73cae0e01dc61044760b66200016385600a62000c62565b620000f990624c4b4062000c7a565b6200019d738959f1d534c83a3031ef4b8e5aaf0c2ab954dde461044760b66200012a85600a62000c62565b620001d773bcb5ba11f7aa02df7d7e607ec83f3f24880807a161044760b6620001c885600a62000c62565b620000f990621e848062000c7a565b6200020273bc9f27d42d2d9dfb3ea58dae8dfb22dc9934e0fd61044760b6620001c885600a62000c62565b6200022d73e96703dbe09aa2f3f172c01d0fbd6f4408ff83c261044760b6620001c885600a62000c62565b6200025873ad6f284437367357f9d4c825d95a7122e4ad60ab61044760b6620001c885600a62000c62565b62000283739c999f738693ab7d5faebddd7b0f1564dadeab0061044760b6620001c885600a62000c62565b620002cb73ce46f9afb2cd26030021c24dc1ab52116b19b68a61016d605b620002ae60038662000c9c565b620002bb90600a62000c62565b620000f99063c6aea15562000c7a565b620002f673555187752ef6d73758862b5d364aab362c996d0e61016d605b620002ae60038662000c9c565b62000321735e46884a77e0ac5f3126e30720bd5218814dc5e261016d605b620002ae60038662000c9c565b6200034c73f49779d278f9b25e0ac50c44cad48ca74e50d04361016d605b6200012a85600a62000c62565b6200038673fe27c67d7a05e7d6c9c83672454a7db7f1fd3ef161016d605b6200037785600a62000c62565b620000f990622625a062000c7a565b620003c0736f557741b2e0f1ed9563e1088f257c0086b5c8b061016d605b620003b185600a62000c62565b620000f990620f424062000c7a565b620003eb73ec4636af52275d303b71f2544389e363a061923461016d605b6200037785600a62000c62565b6200041673cf808867dfd2bffb9444cf9981c3a2c2b984b33061016d605b6200037785600a62000c62565b6200044173e0c6023b6c292d23f41dcee3424cd24547ddca9061016d605b6200016385600a62000c62565b6200047b73c8c8559ab47c68b2a5f24d8f559ae95290cd68df61016d605b6200046c85600a62000c62565b620000f990620493e062000c7a565b620004b573dd930d3453fbefd41938e2048a6fb49c7d3cc71f61016d605b620004a685600a62000c62565b620000f9906207a12062000c7a565b620004e0735e351a2387512b4c19c78b530fc872925362d37f61016d605b620004a685600a62000c62565b6200052973824f0e73561d2e154f8e54dca2987f960114c60161016d60006200050b60048662000c9c565b6200051890600a62000c62565b620000f99064018d5d42ab62000c7a565b620005547328ad1d1559f0ff9a9ecf4e261305b5811b8786f561016d60006200050b60048662000c9c565b6200057f732bc474a6285527c708827f924333e904860ffa8661016d60006200050b60048662000c9c565b620005aa7385b0157c74d77c5952fa31f9e2a55025a09f697e61016d60006200050b60048662000c9c565b620005d5733cd734d663aaf9d51da45f14019dfc4ecafead7361016d6000620002ae60048662000c9c565b6200060f738b47e534964ec0389138b43ca39f598f18806fec61016d60006200060085600a62000c62565b620000f99062035b6062000c7a565b6200064a73cb2052f7cb59bcbd77f0ec8ae27ef61b39ff57c361016d60006200063a85600a62000c62565b620000f9906302faf08062000c7a565b620006757349a323cc2fa5f9a138f30794b9348e43065d8da261016d60006200012a85600a62000c62565b620006a073265c50ddc99c986912d4f7cc8357303baeeb01d961016d6000620002ae60038662000c9c565b620006cb73a9f28648cab79322fb50912ae00d68e5dc5e704f61016d6000620002ae60038662000c9c565b620006f673a37e4ef510150e942def77b79d262d5fb31299ee61016d60006200050b60048662000c9c565b6200073e731fcd4f6046fe53f914d7e7379cee359790b0e9ff61016d60006200072160048662000c9c565b6200072e90600a62000c62565b620000f99063635750ab62000c7a565b620007697309a855d54c987d8e437a975f92a4e4f10bab235c61044760b66200012a85600a62000c62565b620007947316f700f8713ca47c6693dbdd814126f7a1704f8761044760b66200012a85600a62000c62565b50505062000cfb565b600080546001600160a01b038381166001600160a01b0319831681178455604051919092169283917f8be0079c531659141344cd1fd0a4f28419497f9722a3daafe3b4186f6b6457e09190a35050565b620007f9828262000ae6565b620008745760008281526002602090815260408083206001600160a01b03851684529091529020805460ff19166001179055620008333390565b6001600160a01b0316816001600160a01b0316837f2f8788117e7eff1d82e926ec794901d17c78024a50270940304540a733656f0d60405160405180910390a45b5050565b6000546001600160a01b03163314620008d85760405162461bcd60e51b815260206004820181905260248201527f4f776e61626c653a2063616c6c6572206973206e6f7420746865206f776e657260448201526064015b60405180910390fd5b600083116200092a5760405162461bcd60e51b815260206004820152601a60248201527f56657374696e6720706572696f64206d757374206265203e20300000000000006044820152606401620008cf565b600081116200097c5760405162461bcd60e51b815260206004820152601a60248201527f56657374696e6720616d6f756e74206d757374206265203e20300000000000006044820152606401620008cf565b60088054600090815260056020908152604080832080546001600160a01b0319166001600160a01b038a16908117909155815160e0810183529454855291840191909152600a5491929190820190620009dc9063ffffffff168762000c7a565b620009e990603c62000c7a565b8152600a5460209091019062000a069063ffffffff168662000c7a565b62000a1390603c62000c7a565b81526020808201859052600060408084018290526060938401829052600880546001600160a01b038c811685526003808752848620839055918552600480875284862089518155968901516001880180546001600160a01b0319169190931617909155928701516002860155948601519484019490945560808501519083015560a0840151600583015560c08401516006909201805460ff191692151592909217909155815492935062000ac78362000cc2565b91905055508160065462000adc919062000ce0565b6006555050505050565b60008281526002602090815260408083206001600160a01b038516845290915290205460ff165b92915050565b6000806040838503121562000b2757600080fd5b82516001600160a01b038116811462000b3f57600080fd5b6020939093015192949293505050565b634e487b7160e01b600052601160045260246000fd5b600181815b8085111562000ba657816000190482111562000b8a5762000b8a62000b4f565b8085161562000b9857918102915b93841c939080029062000b6a565b509250929050565b60008262000bbf5750600162000b0d565b8162000bce5750600062000b0d565b816001811462000be7576002811462000bf25762000c12565b600191505062000b0d565b60ff84111562000c065762000c0662000b4f565b50506001821b62000b0d565b5060208310610133831016604e8410600b841016171562000c37575081810a62000b0d565b62000c43838362000b65565b806000190482111562000c5a5762000c5a62000b4f565b029392505050565b600062000c7360ff84168362000bae565b9392505050565b600081600019048311821515161562000c975762000c9762000b4f565b500290565b600060ff821660ff84168082101562000cb95762000cb962000b4f565b90039392505050565b600060001982141562000cd95762000cd962000b4f565b5060010190565b6000821982111562000cf65762000cf662000b4f565b500190565b60805161141362000d256000396000818161023201528181610af50152610e7b01526114136000f3fe608060405234801561001057600080fd5b50600436106101735760003560e01c8063435b5365116100de578063a217fddf11610097578063d547741f11610071578063d547741f14610373578063ec87621c14610386578063f2fde38b1461039b578063fad9221e146103ae57600080fd5b8063a217fddf1461035b578063ab33c67914610363578063c828371e1461036b57600080fd5b8063435b536514610314578063715018a61461031d57806378e97925146103255780638da5cb5b1461032e57806391d148541461033f578063934425b61461035257600080fd5b80632cfcb423116101305780632cfcb423146102a05780632e2630de146102a85780632f2ff15d146102b057806336568abe146102c557806336dd68c6146102d85780633bedde7d1461030157600080fd5b806301ffc9a714610178578063145d544b146101a057806321c1e36c146101c157806321df0da714610230578063248a9ca31461026a5780632b14fc421461028d575b600080fd5b61018b61018636600461113e565b6103c1565b60405190151581526020015b60405180910390f35b6101b36101ae366004611168565b6103f8565b604051908152602001610197565b6101d46101cf366004611168565b6104fb565b6040516101979190815181526020808301516001600160a01b03169082015260408083015190820152606080830151908201526080808301519082015260a0808301519082015260c09182015115159181019190915260e00190565b7f00000000000000000000000000000000000000000000000000000000000000005b6040516001600160a01b039091168152602001610197565b6101b3610278366004611168565b60009081526002602052604090206001015490565b61025261029b366004611168565b610573565b6008546101b3565b6006546101b3565b6102c36102be366004611198565b6105ea565b005b6102c36102d3366004611198565b610615565b6102526102e6366004611168565b6005602052600090815260409020546001600160a01b031681565b6101d461030f3660046111c4565b610693565b6101b360085481565b6102c3610715565b6101b360095481565b6000546001600160a01b0316610252565b61018b61034d366004611198565b61077b565b6101b360075481565b6101b3600081565b6102c36107a6565b6009546101b3565b6102c3610381366004611198565b610971565b6101b36000805160206113be83398151915281565b6102c36103a93660046111c4565b610997565b6102c36103bc366004611168565b610a62565b60006001600160e01b03198216637965db0b60e01b14806103f257506301ffc9a760e01b6001600160e01b03198316145b92915050565b60008181526004602052604081206006015460ff161561041a57506000919050565b60095442101561042c57506000919050565b60008281526004602052604090206002015460095461044b91906111f5565b42111561047557600082815260046020819052604090912060058101549101546103f2919061120d565b60008281526004602052604090206003015460095461049491906111f5565b4211156104f257600082815260046020526040902060058101546002909101546009546104c1904261120d565b600085815260046020819052604090912001546104de9190611224565b6104e89190611243565b6103f2919061120d565b5060005b919050565b6105036110f6565b50600090815260046020818152604092839020835160e0810185528154815260018201546001600160a01b03169281019290925260028101549382019390935260038301546060820152908201546080820152600582015460a082015260069091015460ff16151560c082015290565b600060085482106105cb5760405162461bcd60e51b815260206004820152601c60248201527f76657374696e673a20696e646578206f7574206f6620626f756e64730000000060448201526064015b60405180910390fd5b506000908152600460205260409020600101546001600160a01b031690565b6000828152600260205260409020600101546106068133610bb7565b6106108383610c1b565b505050565b6001600160a01b03811633146106855760405162461bcd60e51b815260206004820152602f60248201527f416363657373436f6e74726f6c3a2063616e206f6e6c792072656e6f756e636560448201526e103937b632b9903337b91039b2b63360891b60648201526084016105c2565b61068f8282610ca1565b5050565b61069b6110f6565b506001600160a01b039081166000908152600360208181526040808420548452600480835293819020815160e08101835281548152600182015490961692860192909252600282015490850152908101546060840152908101546080830152600581015460a08301526006015460ff16151560c082015290565b6000546001600160a01b0316331461076f5760405162461bcd60e51b815260206004820181905260248201527f4f776e61626c653a2063616c6c6572206973206e6f7420746865206f776e657260448201526064016105c2565b6107796000610d08565b565b60009182526002602090815260408084206001600160a01b0393909316845291905290205460ff1690565b6000805160206113be8339815191526107bf8133610bb7565b600260015414156108125760405162461bcd60e51b815260206004820152601f60248201527f5265656e7472616e637947756172643a207265656e7472616e742063616c6c0060448201526064016105c2565b600260015560095442116108685760405162461bcd60e51b815260206004820152601760248201527f56657374696e67206973206e6f7420737461727465642e00000000000000000060448201526064016105c2565b6000600754116108ba5760405162461bcd60e51b815260206004820152601a60248201527f4e6f742072656d61696e65642076657374696e6720746f6b656e00000000000060448201526064016105c2565b600160005b6008548110156108fd5760008181526004602052604090206006015460ff166108eb57600091506108fd565b806108f581611265565b9150506108bf565b5080156109405760405162461bcd60e51b81526020600482015260116024820152702b32b9ba34b7339034b99032b73232b21760791b60448201526064016105c2565b60005b6008548110156109685761095681610d58565b8061096081611265565b915050610943565b50506001805550565b60008281526002602052604090206001015461098d8133610bb7565b6106108383610ca1565b6000546001600160a01b031633146109f15760405162461bcd60e51b815260206004820181905260248201527f4f776e61626c653a2063616c6c6572206973206e6f7420746865206f776e657260448201526064016105c2565b6001600160a01b038116610a565760405162461bcd60e51b815260206004820152602660248201527f4f776e61626c653a206e6577206f776e657220697320746865207a65726f206160448201526564647265737360d01b60648201526084016105c2565b610a5f81610d08565b50565b6000805160206113be833981519152610a7b8133610bb7565b60026001541415610ace5760405162461bcd60e51b815260206004820152601f60248201527f5265656e7472616e637947756172643a207265656e7472616e742063616c6c0060448201526064016105c2565b60026001556040516323b872dd60e01b8152336004820152306024820152604481018390527f00000000000000000000000000000000000000000000000000000000000000006001600160a01b0316906323b872dd906064016020604051808303816000875af1158015610b46573d6000803e3d6000fd5b505050506040513d601f19601f82011682018060405250810190610b6a9190611280565b5081600754610b7991906111f5565b6007556040518281527f7396064ff688f3fb444b0893a9ebdb4507fbd1863f3440d7d36f2dd58c03a45d9060200160405180910390a1505060018055565b610bc1828261077b565b61068f57610bd9816001600160a01b03166014610f53565b610be4836020610f53565b604051602001610bf59291906112d2565b60408051601f198184030181529082905262461bcd60e51b82526105c291600401611347565b610c25828261077b565b61068f5760008281526002602090815260408083206001600160a01b03851684529091529020805460ff19166001179055610c5d3390565b6001600160a01b0316816001600160a01b0316837f2f8788117e7eff1d82e926ec794901d17c78024a50270940304540a733656f0d60405160405180910390a45050565b610cab828261077b565b1561068f5760008281526002602090815260408083206001600160a01b0385168085529252808320805460ff1916905551339285917ff6391f5c32d9c69d2a47ea670b442974b53935d1edc7fd64eb21e047a839171b9190a45050565b600080546001600160a01b038381166001600160a01b0319831681178455604051919092169283917f8be0079c531659141344cd1fd0a4f28419497f9722a3daafe3b4186f6b6457e09190a35050565b6000805160206113be833981519152610d718133610bb7565b600060075411610dc35760405162461bcd60e51b815260206004820152601a60248201527f4e6f742072656d61696e65642076657374696e6720746f6b656e00000000000060448201526064016105c2565b6000610dce836103f8565b905080600460008581526020019081526020016000206005016000828254610df691906111f5565b9091555050600083815260046020526040902060020154600954610e1a91906111f5565b421115610e3e576000838152600460205260409020600601805460ff191660011790555b60008381526004602081905260409182902060010154915163a9059cbb60e01b81526001600160a01b0392831691810191909152602481018390527f00000000000000000000000000000000000000000000000000000000000000009091169063a9059cbb906044016020604051808303816000875af1158015610ec6573d6000803e3d6000fd5b505050506040513d601f19601f82011682018060405250810190610eea9190611280565b5080600754610ef9919061120d565b6007556000838152600460209081526040918290206001015491518381526001600160a01b03909216917f7e04575a9d5f6038ea6ee0bb1a2cfe0ae38555fddafec1dec4d69b504b72ba18910160405180910390a2505050565b60606000610f62836002611224565b610f6d9060026111f5565b67ffffffffffffffff811115610f8557610f8561137a565b6040519080825280601f01601f191660200182016040528015610faf576020820181803683370190505b509050600360fc1b81600081518110610fca57610fca611390565b60200101906001600160f81b031916908160001a905350600f60fb1b81600181518110610ff957610ff9611390565b60200101906001600160f81b031916908160001a905350600061101d846002611224565b6110289060016111f5565b90505b60018111156110a0576f181899199a1a9b1b9c1cb0b131b232b360811b85600f166010811061105c5761105c611390565b1a60f81b82828151811061107257611072611390565b60200101906001600160f81b031916908160001a90535060049490941c93611099816113a6565b905061102b565b5083156110ef5760405162461bcd60e51b815260206004820181905260248201527f537472696e67733a20686578206c656e67746820696e73756666696369656e7460448201526064016105c2565b9392505050565b6040518060e001604052806000815260200160006001600160a01b03168152602001600081526020016000815260200160008152602001600081526020016000151581525090565b60006020828403121561115057600080fd5b81356001600160e01b0319811681146110ef57600080fd5b60006020828403121561117a57600080fd5b5035919050565b80356001600160a01b03811681146104f657600080fd5b600080604083850312156111ab57600080fd5b823591506111bb60208401611181565b90509250929050565b6000602082840312156111d657600080fd5b6110ef82611181565b634e487b7160e01b600052601160045260246000fd5b60008219821115611208576112086111df565b500190565b60008282101561121f5761121f6111df565b500390565b600081600019048311821515161561123e5761123e6111df565b500290565b60008261126057634e487b7160e01b600052601260045260246000fd5b500490565b6000600019821415611279576112796111df565b5060010190565b60006020828403121561129257600080fd5b815180151581146110ef57600080fd5b60005b838110156112bd5781810151838201526020016112a5565b838111156112cc576000848401525b50505050565b7f416363657373436f6e74726f6c3a206163636f756e742000000000000000000081526000835161130a8160178501602088016112a2565b7001034b99036b4b9b9b4b733903937b6329607d1b601791840191820152835161133b8160288401602088016112a2565b01602801949350505050565b60208152600082518060208401526113668160408501602087016112a2565b601f01601f19169190910160400192915050565b634e487b7160e01b600052604160045260246000fd5b634e487b7160e01b600052603260045260246000fd5b6000816113b5576113b56111df565b50600019019056fe241ecf16d79d0f8dbfb92cbc07fe17840425976cf0667f022fe9877caa831b08a26469706673582212205171cbb5605eb0cf99677d8af5ef2b620280fa6e393e239fe5adb3435a33d67b64736f6c634300080a0033",
  "linkReferences": {},
  "deployedLinkReferences": {}
}