{
  "_format": "hh-sol-artifact-1",
  "contractName": "vesting",
  "sourceName": "contracts/vesting.sol",
  "abi": [
    {
      "inputs": [
        {
          "internalType": "address",
          "name": "token_",
          "type": "address"
        },
        {
          "internalType": "uint256",
          "name": "_startTime",
          "type": "uint256"
        }
      ],
      "stateMutability": "nonpayable",
      "type": "constructor"
    },
    {
      "anonymous": false,
      "inputs": [
        {
          "indexed": false,
          "internalType": "uint256",
          "name": "amount",
          "type": "uint256"
        }
      ],
      "name": "DepositTokenToContract",
      "type": "event"
    },
    {
      "anonymous": false,
      "inputs": [
        {
          "indexed": true,
          "internalType": "address",
          "name": "previousOwner",
          "type": "address"
        },
        {
          "indexed": true,
          "internalType": "address",
          "name": "newOwner",
          "type": "address"
        }
      ],
      "name": "OwnershipTransferred",
      "type": "event"
    },
    {
      "anonymous": false,
      "inputs": [
        {
          "indexed": true,
          "internalType": "bytes32",
          "name": "role",
          "type": "bytes32"
        },
        {
          "indexed": true,
          "internalType": "bytes32",
          "name": "previousAdminRole",
          "type": "bytes32"
        },
        {
          "indexed": true,
          "internalType": "bytes32",
          "name": "newAdminRole",
          "type": "bytes32"
        }
      ],
      "name": "RoleAdminChanged",
      "type": "event"
    },
    {
      "anonymous": false,
      "inputs": [
        {
          "indexed": true,
          "internalType": "bytes32",
          "name": "role",
          "type": "bytes32"
        },
        {
          "indexed": true,
          "internalType": "address",
          "name": "account",
          "type": "address"
        },
        {
          "indexed": true,
          "internalType": "address",
          "name": "sender",
          "type": "address"
        }
      ],
      "name": "RoleGranted",
      "type": "event"
    },
    {
      "anonymous": false,
      "inputs": [
        {
          "indexed": true,
          "internalType": "bytes32",
          "name": "role",
          "type": "bytes32"
        },
        {
          "indexed": true,
          "internalType": "address",
          "name": "account",
          "type": "address"
        },
        {
          "indexed": true,
          "internalType": "address",
          "name": "sender",
          "type": "address"
        }
      ],
      "name": "RoleRevoked",
      "type": "event"
    },
    {
      "anonymous": false,
      "inputs": [
        {
          "indexed": true,
          "internalType": "address",
          "name": "accout",
          "type": "address"
        },
        {
          "indexed": false,
          "internalType": "uint256",
          "name": "amount",
          "type": "uint256"
        }
      ],
      "name": "TokenVested",
      "type": "event"
    },
    {
      "inputs": [],
      "name": "DEFAULT_ADMIN_ROLE",
      "outputs": [
        {
          "internalType": "bytes32",
          "name": "",
          "type": "bytes32"
        }
      ],
      "stateMutability": "view",
      "type": "function"
    },
    {
      "inputs": [],
      "name": "MANAGER_ROLE",
      "outputs": [
        {
          "internalType": "bytes32",
          "name": "",
          "type": "bytes32"
        }
      ],
      "stateMutability": "view",
      "type": "function"
    },
    {
      "inputs": [
        {
          "internalType": "uint256",
          "name": "id",
          "type": "uint256"
        }
      ],
      "name": "computeReleasableAmount",
      "outputs": [
        {
          "internalType": "uint256",
          "name": "_amount",
          "type": "uint256"
        }
      ],
      "stateMutability": "view",
      "type": "function"
    },
    {
      "inputs": [
        {
          "internalType": "uint256",
          "name": "_amount",
          "type": "uint256"
        }
      ],
      "name": "depositVestingAmount",
      "outputs": [],
      "stateMutability": "nonpayable",
      "type": "function"
    },
    {
      "inputs": [
        {
          "internalType": "bytes32",
          "name": "role",
          "type": "bytes32"
        }
      ],
      "name": "getRoleAdmin",
      "outputs": [
        {
          "internalType": "bytes32",
          "name": "",
          "type": "bytes32"
        }
      ],
      "stateMutability": "view",
      "type": "function"
    },
    {
      "inputs": [],
      "name": "getStartTime",
      "outputs": [
        {
          "internalType": "uint256",
          "name": "",
          "type": "uint256"
        }
      ],
      "stateMutability": "view",
      "type": "function"
    },
    {
      "inputs": [],
      "name": "getToken",
      "outputs": [
        {
          "internalType": "address",
          "name": "",
          "type": "address"
        }
      ],
      "stateMutability": "view",
      "type": "function"
    },
    {
      "inputs": [
        {
          "internalType": "uint256",
          "name": "id",
          "type": "uint256"
        }
      ],
      "name": "getVestingAccountById",
      "outputs": [
        {
          "internalType": "address",
          "name": "",
          "type": "address"
        }
      ],
      "stateMutability": "view",
      "type": "function"
    },
    {
      "inputs": [],
      "name": "getVestingAccountsCount",
      "outputs": [
        {
          "internalType": "uint256",
          "name": "",
          "type": "uint256"
        }
      ],
      "stateMutability": "view",
      "type": "function"
    },
    {
      "inputs": [
        {
          "internalType": "address",
          "name": "account",
          "type": "address"
        }
      ],
      "name": "getVestingScheduleByAddress",
      "outputs": [
        {
          "components": [
            {
              "internalType": "uint256",
              "name": "vestingId",
              "type": "uint256"
            },
            {
              "internalType": "address",
              "name": "recipient",
              "type": "address"
            },
            {
              "internalType": "uint256",
              "name": "vestingPeriod",
              "type": "uint256"
            },
            {
              "internalType": "uint256",
              "name": "allocatedAmount",
              "type": "uint256"
            },
            {
              "internalType": "uint256",
              "name": "vestedAmount",
              "type": "uint256"
            },
            {
              "internalType": "bool",
              "name": "isEnded",
              "type": "bool"
            }
          ],
          "internalType": "struct vesting.VestingSchedule",
          "name": "",
          "type": "tuple"
        }
      ],
      "stateMutability": "view",
      "type": "function"
    },
    {
      "inputs": [
        {
          "internalType": "uint256",
          "name": "id",
          "type": "uint256"
        }
      ],
      "name": "getVestingScheduleById",
      "outputs": [
        {
          "components": [
            {
              "internalType": "uint256",
              "name": "vestingId",
              "type": "uint256"
            },
            {
              "internalType": "address",
              "name": "recipient",
              "type": "address"
            },
            {
              "internalType": "uint256",
              "name": "vestingPeriod",
              "type": "uint256"
            },
            {
              "internalType": "uint256",
              "name": "allocatedAmount",
              "type": "uint256"
            },
            {
              "internalType": "uint256",
              "name": "vestedAmount",
              "type": "uint256"
            },
            {
              "internalType": "bool",
              "name": "isEnded",
              "type": "bool"
            }
          ],
          "internalType": "struct vesting.VestingSchedule",
          "name": "",
          "type": "tuple"
        }
      ],
      "stateMutability": "view",
      "type": "function"
    },
    {
      "inputs": [],
      "name": "getVestingTotalAmount",
      "outputs": [
        {
          "internalType": "uint256",
          "name": "",
          "type": "uint256"
        }
      ],
      "stateMutability": "view",
      "type": "function"
    },
    {
      "inputs": [
        {
          "internalType": "bytes32",
          "name": "role",
          "type": "bytes32"
        },
        {
          "internalType": "address",
          "name": "account",
          "type": "address"
        }
      ],
      "name": "grantRole",
      "outputs": [],
      "stateMutability": "nonpayable",
      "type": "function"
    },
    {
      "inputs": [
        {
          "internalType": "bytes32",
          "name": "role",
          "type": "bytes32"
        },
        {
          "internalType": "address",
          "name": "account",
          "type": "address"
        }
      ],
      "name": "hasRole",
      "outputs": [
        {
          "internalType": "bool",
          "name": "",
          "type": "bool"
        }
      ],
      "stateMutability": "view",
      "type": "function"
    },
    {
      "inputs": [],
      "name": "owner",
      "outputs": [
        {
          "internalType": "address",
          "name": "",
          "type": "address"
        }
      ],
      "stateMutability": "view",
      "type": "function"
    },
    {
      "inputs": [],
      "name": "renounceOwnership",
      "outputs": [],
      "stateMutability": "nonpayable",
      "type": "function"
    },
    {
      "inputs": [
        {
          "internalType": "bytes32",
          "name": "role",
          "type": "bytes32"
        },
        {
          "internalType": "address",
          "name": "account",
          "type": "address"
        }
      ],
      "name": "renounceRole",
      "outputs": [],
      "stateMutability": "nonpayable",
      "type": "function"
    },
    {
      "inputs": [
        {
          "internalType": "bytes32",
          "name": "role",
          "type": "bytes32"
        },
        {
          "internalType": "address",
          "name": "account",
          "type": "address"
        }
      ],
      "name": "revokeRole",
      "outputs": [],
      "stateMutability": "nonpayable",
      "type": "function"
    },
    {
      "inputs": [],
      "name": "startTime",
      "outputs": [
        {
          "internalType": "uint256",
          "name": "",
          "type": "uint256"
        }
      ],
      "stateMutability": "view",
      "type": "function"
    },
    {
      "inputs": [
        {
          "internalType": "bytes4",
          "name": "interfaceId",
          "type": "bytes4"
        }
      ],
      "name": "supportsInterface",
      "outputs": [
        {
          "internalType": "bool",
          "name": "",
          "type": "bool"
        }
      ],
      "stateMutability": "view",
      "type": "function"
    },
    {
      "inputs": [],
      "name": "totalRemainedVestingAmount",
      "outputs": [
        {
          "internalType": "uint256",
          "name": "",
          "type": "uint256"
        }
      ],
      "stateMutability": "view",
      "type": "function"
    },
    {
      "inputs": [
        {
          "internalType": "address",
          "name": "newOwner",
          "type": "address"
        }
      ],
      "name": "transferOwnership",
      "outputs": [],
      "stateMutability": "nonpayable",
      "type": "function"
    },
    {
      "inputs": [],
      "name": "transferVestedTokens",
      "outputs": [],
      "stateMutability": "nonpayable",
      "type": "function"
    },
    {
      "inputs": [
        {
          "internalType": "uint256",
          "name": "",
          "type": "uint256"
        }
      ],
      "name": "vestingAccounts",
      "outputs": [
        {
          "internalType": "address",
          "name": "",
          "type": "address"
        }
      ],
      "stateMutability": "view",
      "type": "function"
    },
    {
      "inputs": [],
      "name": "vestingScheduleCounter",
      "outputs": [
        {
          "internalType": "uint256",
          "name": "",
          "type": "uint256"
        }
      ],
      "stateMutability": "view",
      "type": "function"
    }
  ],
  "bytecode": "0x60a060405260006008553480156200001657600080fd5b50604051620032b9380380620032b983398181016040528101906200003c9190620008fd565b6200005c620000506200026760201b60201c565b6200026f60201b60201c565b60018081905550600073ffffffffffffffffffffffffffffffffffffffff168273ffffffffffffffffffffffffffffffffffffffff1614156200009e57600080fd5b8173ffffffffffffffffffffffffffffffffffffffff1660808173ffffffffffffffffffffffffffffffffffffffff168152505080600981905550620000ee6000801b336200033360201b60201c565b620001207f241ecf16d79d0f8dbfb92cbc07fe17840425976cf0667f022fe9877caa831b08336200033360201b60201c565b6001600a60006101000a81548163ffffffff021916908363ffffffff1602179055506000601290506200018d7370997970c51812dc3a010c7d01b50e0d17dc79c860b483600a62000172919062000ad4565b61271062000181919062000b25565b6200042560201b60201c565b620001d3733c44cdddb6a900fa2b585dd299e03d12fa4293bc61016883600a620001b8919062000ad4565b614e20620001c7919062000b25565b6200042560201b60201c565b620002187390f79bf6eb2c4f870365e785982e1f101e93b906605a83600a620001fd919062000ad4565b6175306200020c919062000b25565b6200042560201b60201c565b6200025e7315d34aaf54267db7d7c367839aaf71a00a2c6a6561016883600a62000243919062000ad4565b619c4062000252919062000b25565b6200042560201b60201c565b50505062000d98565b600033905090565b60008060009054906101000a900473ffffffffffffffffffffffffffffffffffffffff169050816000806101000a81548173ffffffffffffffffffffffffffffffffffffffff021916908373ffffffffffffffffffffffffffffffffffffffff1602179055508173ffffffffffffffffffffffffffffffffffffffff168173ffffffffffffffffffffffffffffffffffffffff167f8be0079c531659141344cd1fd0a4f28419497f9722a3daafe3b4186f6b6457e060405160405180910390a35050565b620003458282620007c460201b60201c565b620004215760016002600084815260200190815260200160002060000160008373ffffffffffffffffffffffffffffffffffffffff1673ffffffffffffffffffffffffffffffffffffffff16815260200190815260200160002060006101000a81548160ff021916908315150217905550620003c66200026760201b60201c565b73ffffffffffffffffffffffffffffffffffffffff168173ffffffffffffffffffffffffffffffffffffffff16837f2f8788117e7eff1d82e926ec794901d17c78024a50270940304540a733656f0d60405160405180910390a45b5050565b620004356200026760201b60201c565b73ffffffffffffffffffffffffffffffffffffffff166200045b6200082f60201b60201c565b73ffffffffffffffffffffffffffffffffffffffff1614620004b4576040517f08c379a0000000000000000000000000000000000000000000000000000000008152600401620004ab9062000be7565b60405180910390fd5b60008211620004fa576040517f08c379a0000000000000000000000000000000000000000000000000000000008152600401620004f19062000c59565b60405180910390fd5b6000811162000540576040517f08c379a0000000000000000000000000000000000000000000000000000000008152600401620005379062000ccb565b60405180910390fd5b8260056000600854815260200190815260200160002060006101000a81548173ffffffffffffffffffffffffffffffffffffffff021916908373ffffffffffffffffffffffffffffffffffffffff16021790555060006040518060c0016040528060085481526020018573ffffffffffffffffffffffffffffffffffffffff168152602001603c600a60009054906101000a900463ffffffff1663ffffffff1686620005ed919062000b25565b620005f9919062000b25565b81526020018381526020016000815260200160001515815250905080600360008673ffffffffffffffffffffffffffffffffffffffff1673ffffffffffffffffffffffffffffffffffffffff1681526020019081526020016000206000820151816000015560208201518160010160006101000a81548173ffffffffffffffffffffffffffffffffffffffff021916908373ffffffffffffffffffffffffffffffffffffffff16021790555060408201518160020155606082015181600301556080820151816004015560a08201518160050160006101000a81548160ff021916908315150217905550905050806004600060085481526020019081526020016000206000820151816000015560208201518160010160006101000a81548173ffffffffffffffffffffffffffffffffffffffff021916908373ffffffffffffffffffffffffffffffffffffffff16021790555060408201518160020155606082015181600301556080820151816004015560a08201518160050160006101000a81548160ff02191690831515021790555090505060086000815480929190620007a39062000ced565b919050555081600654620007b8919062000d3b565b60068190555050505050565b60006002600084815260200190815260200160002060000160008373ffffffffffffffffffffffffffffffffffffffff1673ffffffffffffffffffffffffffffffffffffffff16815260200190815260200160002060009054906101000a900460ff16905092915050565b60008060009054906101000a900473ffffffffffffffffffffffffffffffffffffffff16905090565b600080fd5b600073ffffffffffffffffffffffffffffffffffffffff82169050919050565b60006200088a826200085d565b9050919050565b6200089c816200087d565b8114620008a857600080fd5b50565b600081519050620008bc8162000891565b92915050565b6000819050919050565b620008d781620008c2565b8114620008e357600080fd5b50565b600081519050620008f781620008cc565b92915050565b6000806040838503121562000917576200091662000858565b5b60006200092785828601620008ab565b92505060206200093a85828601620008e6565b9150509250929050565b7f4e487b7100000000000000000000000000000000000000000000000000000000600052601160045260246000fd5b60008160011c9050919050565b6000808291508390505b6001851115620009d257808604811115620009aa57620009a962000944565b5b6001851615620009ba5780820291505b8081029050620009ca8562000973565b94506200098a565b94509492505050565b600082620009ed576001905062000ac0565b81620009fd576000905062000ac0565b816001811462000a16576002811462000a215762000a57565b600191505062000ac0565b60ff84111562000a365762000a3562000944565b5b8360020a91508482111562000a505762000a4f62000944565b5b5062000ac0565b5060208310610133831016604e8410600b841016171562000a915782820a90508381111562000a8b5762000a8a62000944565b5b62000ac0565b62000aa0848484600162000980565b9250905081840481111562000aba5762000ab962000944565b5b81810290505b9392505050565b600060ff82169050919050565b600062000ae182620008c2565b915062000aee8362000ac7565b925062000b1d7fffffffffffffffffffffffffffffffffffffffffffffffffffffffffffffffff8484620009db565b905092915050565b600062000b3282620008c2565b915062000b3f83620008c2565b9250817fffffffffffffffffffffffffffffffffffffffffffffffffffffffffffffffff048311821515161562000b7b5762000b7a62000944565b5b828202905092915050565b600082825260208201905092915050565b7f4f776e61626c653a2063616c6c6572206973206e6f7420746865206f776e6572600082015250565b600062000bcf60208362000b86565b915062000bdc8262000b97565b602082019050919050565b6000602082019050818103600083015262000c028162000bc0565b9050919050565b7f56657374696e6720706572696f64206d757374206265203e2030000000000000600082015250565b600062000c41601a8362000b86565b915062000c4e8262000c09565b602082019050919050565b6000602082019050818103600083015262000c748162000c32565b9050919050565b7f56657374696e6720616d6f756e74206d757374206265203e2030000000000000600082015250565b600062000cb3601a8362000b86565b915062000cc08262000c7b565b602082019050919050565b6000602082019050818103600083015262000ce68162000ca4565b9050919050565b600062000cfa82620008c2565b91507fffffffffffffffffffffffffffffffffffffffffffffffffffffffffffffffff82141562000d305762000d2f62000944565b5b600182019050919050565b600062000d4882620008c2565b915062000d5583620008c2565b9250827fffffffffffffffffffffffffffffffffffffffffffffffffffffffffffffffff0382111562000d8d5762000d8c62000944565b5b828201905092915050565b6080516124f762000dc26000396000818161073401528181610ebe015261145701526124f76000f3fe608060405234801561001057600080fd5b50600436106101735760003560e01c8063435b5365116100de578063a217fddf11610097578063d547741f11610071578063d547741f14610452578063ec87621c1461046e578063f2fde38b1461048c578063fad9221e146104a857610173565b8063a217fddf1461040c578063ab33c6791461042a578063c828371e1461043457610173565b8063435b53651461035a578063715018a61461037857806378e97925146103825780638da5cb5b146103a057806391d14854146103be578063934425b6146103ee57610173565b80632cfcb423116101305780632cfcb423146102865780632e2630de146102a45780632f2ff15d146102c257806336568abe146102de57806336dd68c6146102fa5780633bedde7d1461032a57610173565b806301ffc9a714610178578063145d544b146101a857806321c1e36c146101d857806321df0da714610208578063248a9ca3146102265780632b14fc4214610256575b600080fd5b610192600480360381019061018d91906118ae565b6104c4565b60405161019f91906118f6565b60405180910390f35b6101c260048036038101906101bd9190611947565b61053e565b6040516101cf9190611983565b60405180910390f35b6101f260048036038101906101ed9190611947565b61066a565b6040516101ff9190611a78565b60405180910390f35b610210610730565b60405161021d9190611aa2565b60405180910390f35b610240600480360381019061023b9190611af3565b610758565b60405161024d9190611b2f565b60405180910390f35b610270600480360381019061026b9190611947565b610778565b60405161027d9190611aa2565b60405180910390f35b61028e6107fc565b60405161029b9190611983565b60405180910390f35b6102ac610806565b6040516102b99190611983565b60405180910390f35b6102dc60048036038101906102d79190611b76565b610810565b005b6102f860048036038101906102f39190611b76565b610839565b005b610314600480360381019061030f9190611947565b6108bc565b6040516103219190611aa2565b60405180910390f35b610344600480360381019061033f9190611bb6565b6108ef565b6040516103519190611a78565b60405180910390f35b6103626109e1565b60405161036f9190611983565b60405180910390f35b6103806109e7565b005b61038a610a6f565b6040516103979190611983565b60405180910390f35b6103a8610a75565b6040516103b59190611aa2565b60405180910390f35b6103d860048036038101906103d39190611b76565b610a9e565b6040516103e591906118f6565b60405180910390f35b6103f6610b09565b6040516104039190611983565b60405180910390f35b610414610b0f565b6040516104219190611b2f565b60405180910390f35b610432610b16565b005b61043c610ced565b6040516104499190611983565b60405180910390f35b61046c60048036038101906104679190611b76565b610cf7565b005b610476610d20565b6040516104839190611b2f565b60405180910390f35b6104a660048036038101906104a19190611bb6565b610d44565b005b6104c260048036038101906104bd9190611947565b610e3c565b005b60007f7965db0b000000000000000000000000000000000000000000000000000000007bffffffffffffffffffffffffffffffffffffffffffffffffffffffff1916827bffffffffffffffffffffffffffffffffffffffffffffffffffffffff19161480610537575061053682610fb3565b5b9050919050565b60006004600083815260200190815260200160002060050160009054906101000a900460ff16156105725760009050610665565b6009544210156105855760009050610664565b60046000838152602001908152602001600020600201546009546105a99190611c12565b4211156105ef57600460008381526020019081526020016000206004015460046000848152602001908152602001600020600301546105e89190611c68565b9050610663565b600460008381526020019081526020016000206004015460046000848152602001908152602001600020600201546009544261062b9190611c68565b600460008681526020019081526020016000206003015461064c9190611c9c565b6106569190611d25565b6106609190611c68565b90505b5b5b919050565b610672611803565b600460008381526020019081526020016000206040518060c0016040529081600082015481526020016001820160009054906101000a900473ffffffffffffffffffffffffffffffffffffffff1673ffffffffffffffffffffffffffffffffffffffff1673ffffffffffffffffffffffffffffffffffffffff1681526020016002820154815260200160038201548152602001600482015481526020016005820160009054906101000a900460ff1615151515815250509050919050565b60007f0000000000000000000000000000000000000000000000000000000000000000905090565b600060026000838152602001908152602001600020600101549050919050565b600060085482106107be576040517f08c379a00000000000000000000000000000000000000000000000000000000081526004016107b590611db3565b60405180910390fd5b6004600083815260200190815260200160002060010160009054906101000a900473ffffffffffffffffffffffffffffffffffffffff169050919050565b6000600854905090565b6000600654905090565b61081982610758565b61082a8161082561101d565b611025565b61083483836110c2565b505050565b61084161101d565b73ffffffffffffffffffffffffffffffffffffffff168173ffffffffffffffffffffffffffffffffffffffff16146108ae576040517f08c379a00000000000000000000000000000000000000000000000000000000081526004016108a590611e45565b60405180910390fd5b6108b882826111a3565b5050565b60056020528060005260406000206000915054906101000a900473ffffffffffffffffffffffffffffffffffffffff1681565b6108f7611803565b600360008373ffffffffffffffffffffffffffffffffffffffff1673ffffffffffffffffffffffffffffffffffffffff1681526020019081526020016000206040518060c0016040529081600082015481526020016001820160009054906101000a900473ffffffffffffffffffffffffffffffffffffffff1673ffffffffffffffffffffffffffffffffffffffff1673ffffffffffffffffffffffffffffffffffffffff1681526020016002820154815260200160038201548152602001600482015481526020016005820160009054906101000a900460ff1615151515815250509050919050565b60085481565b6109ef61101d565b73ffffffffffffffffffffffffffffffffffffffff16610a0d610a75565b73ffffffffffffffffffffffffffffffffffffffff1614610a63576040517f08c379a0000000000000000000000000000000000000000000000000000000008152600401610a5a90611eb1565b60405180910390fd5b610a6d6000611285565b565b60095481565b60008060009054906101000a900473ffffffffffffffffffffffffffffffffffffffff16905090565b60006002600084815260200190815260200160002060000160008373ffffffffffffffffffffffffffffffffffffffff1673ffffffffffffffffffffffffffffffffffffffff16815260200190815260200160002060009054906101000a900460ff16905092915050565b60075481565b6000801b81565b7f241ecf16d79d0f8dbfb92cbc07fe17840425976cf0667f022fe9877caa831b08610b4881610b4361101d565b611025565b60026001541415610b8e576040517f08c379a0000000000000000000000000000000000000000000000000000000008152600401610b8590611f1d565b60405180910390fd5b60026001819055506009544211610bda576040517f08c379a0000000000000000000000000000000000000000000000000000000008152600401610bd190611f89565b60405180910390fd5b600060075411610c1f576040517f08c379a0000000000000000000000000000000000000000000000000000000008152600401610c1690611ff5565b60405180910390fd5b60006001905060005b600854811015610c76576004600082815260200190815260200160002060050160009054906101000a900460ff16610c635760009150610c76565b8080610c6e90612015565b915050610c28565b508015610cb8576040517f08c379a0000000000000000000000000000000000000000000000000000000008152600401610caf906120aa565b60405180910390fd5b60005b600854811015610ce157610cce81611349565b8080610cd990612015565b915050610cbb565b50506001808190555050565b6000600954905090565b610d0082610758565b610d1181610d0c61101d565b611025565b610d1b83836111a3565b505050565b7f241ecf16d79d0f8dbfb92cbc07fe17840425976cf0667f022fe9877caa831b0881565b610d4c61101d565b73ffffffffffffffffffffffffffffffffffffffff16610d6a610a75565b73ffffffffffffffffffffffffffffffffffffffff1614610dc0576040517f08c379a0000000000000000000000000000000000000000000000000000000008152600401610db790611eb1565b60405180910390fd5b600073ffffffffffffffffffffffffffffffffffffffff168173ffffffffffffffffffffffffffffffffffffffff161415610e30576040517f08c379a0000000000000000000000000000000000000000000000000000000008152600401610e279061213c565b60405180910390fd5b610e3981611285565b50565b7f241ecf16d79d0f8dbfb92cbc07fe17840425976cf0667f022fe9877caa831b08610e6e81610e6961101d565b611025565b60026001541415610eb4576040517f08c379a0000000000000000000000000000000000000000000000000000000008152600401610eab90611f1d565b60405180910390fd5b60026001819055507f000000000000000000000000000000000000000000000000000000000000000073ffffffffffffffffffffffffffffffffffffffff166323b872dd3330856040518463ffffffff1660e01b8152600401610f199392919061215c565b6020604051808303816000875af1158015610f38573d6000803e3d6000fd5b505050506040513d601f19601f82011682018060405250810190610f5c91906121bf565b5081600754610f6b9190611c12565b6007819055507f7396064ff688f3fb444b0893a9ebdb4507fbd1863f3440d7d36f2dd58c03a45d82604051610fa09190611983565b60405180910390a1600180819055505050565b60007f01ffc9a7000000000000000000000000000000000000000000000000000000007bffffffffffffffffffffffffffffffffffffffffffffffffffffffff1916827bffffffffffffffffffffffffffffffffffffffffffffffffffffffff1916149050919050565b600033905090565b61102f8282610a9e565b6110be576110548173ffffffffffffffffffffffffffffffffffffffff1660146115c7565b6110628360001c60206115c7565b6040516020016110739291906122fe565b6040516020818303038152906040526040517f08c379a00000000000000000000000000000000000000000000000000000000081526004016110b59190612382565b60405180910390fd5b5050565b6110cc8282610a9e565b61119f5760016002600084815260200190815260200160002060000160008373ffffffffffffffffffffffffffffffffffffffff1673ffffffffffffffffffffffffffffffffffffffff16815260200190815260200160002060006101000a81548160ff02191690831515021790555061114461101d565b73ffffffffffffffffffffffffffffffffffffffff168173ffffffffffffffffffffffffffffffffffffffff16837f2f8788117e7eff1d82e926ec794901d17c78024a50270940304540a733656f0d60405160405180910390a45b5050565b6111ad8282610a9e565b156112815760006002600084815260200190815260200160002060000160008373ffffffffffffffffffffffffffffffffffffffff1673ffffffffffffffffffffffffffffffffffffffff16815260200190815260200160002060006101000a81548160ff02191690831515021790555061122661101d565b73ffffffffffffffffffffffffffffffffffffffff168173ffffffffffffffffffffffffffffffffffffffff16837ff6391f5c32d9c69d2a47ea670b442974b53935d1edc7fd64eb21e047a839171b60405160405180910390a45b5050565b60008060009054906101000a900473ffffffffffffffffffffffffffffffffffffffff169050816000806101000a81548173ffffffffffffffffffffffffffffffffffffffff021916908373ffffffffffffffffffffffffffffffffffffffff1602179055508173ffffffffffffffffffffffffffffffffffffffff168173ffffffffffffffffffffffffffffffffffffffff167f8be0079c531659141344cd1fd0a4f28419497f9722a3daafe3b4186f6b6457e060405160405180910390a35050565b7f241ecf16d79d0f8dbfb92cbc07fe17840425976cf0667f022fe9877caa831b0861137b8161137661101d565b611025565b6000600754116113c0576040517f08c379a00000000000000000000000000000000000000000000000000000000081526004016113b790611ff5565b60405180910390fd5b60006113cb8361053e565b9050806004600085815260200190815260200160002060040160008282546113f39190611c12565b92505081905550600460008481526020019081526020016000206002015460095461141e9190611c12565b4211156114555760016004600085815260200190815260200160002060050160006101000a81548160ff0219169083151502179055505b7f000000000000000000000000000000000000000000000000000000000000000073ffffffffffffffffffffffffffffffffffffffff1663a9059cbb6004600086815260200190815260200160002060010160009054906101000a900473ffffffffffffffffffffffffffffffffffffffff16836040518363ffffffff1660e01b81526004016114e69291906123a4565b6020604051808303816000875af1158015611505573d6000803e3d6000fd5b505050506040513d601f19601f8201168201806040525081019061152991906121bf565b50806007546115389190611c68565b6007819055506004600084815260200190815260200160002060010160009054906101000a900473ffffffffffffffffffffffffffffffffffffffff1673ffffffffffffffffffffffffffffffffffffffff167f7e04575a9d5f6038ea6ee0bb1a2cfe0ae38555fddafec1dec4d69b504b72ba18826040516115ba9190611983565b60405180910390a2505050565b6060600060028360026115da9190611c9c565b6115e49190611c12565b67ffffffffffffffff8111156115fd576115fc6123cd565b5b6040519080825280601f01601f19166020018201604052801561162f5781602001600182028036833780820191505090505b5090507f300000000000000000000000000000000000000000000000000000000000000081600081518110611667576116666123fc565b5b60200101907effffffffffffffffffffffffffffffffffffffffffffffffffffffffffffff1916908160001a9053507f7800000000000000000000000000000000000000000000000000000000000000816001815181106116cb576116ca6123fc565b5b60200101907effffffffffffffffffffffffffffffffffffffffffffffffffffffffffffff1916908160001a9053506000600184600261170b9190611c9c565b6117159190611c12565b90505b60018111156117b5577f3031323334353637383961626364656600000000000000000000000000000000600f861660108110611757576117566123fc565b5b1a60f81b82828151811061176e5761176d6123fc565b5b60200101907effffffffffffffffffffffffffffffffffffffffffffffffffffffffffffff1916908160001a905350600485901c9450806117ae9061242b565b9050611718565b50600084146117f9576040517f08c379a00000000000000000000000000000000000000000000000000000000081526004016117f0906124a1565b60405180910390fd5b8091505092915050565b6040518060c0016040528060008152602001600073ffffffffffffffffffffffffffffffffffffffff1681526020016000815260200160008152602001600081526020016000151581525090565b600080fd5b60007fffffffff0000000000000000000000000000000000000000000000000000000082169050919050565b61188b81611856565b811461189657600080fd5b50565b6000813590506118a881611882565b92915050565b6000602082840312156118c4576118c3611851565b5b60006118d284828501611899565b91505092915050565b60008115159050919050565b6118f0816118db565b82525050565b600060208201905061190b60008301846118e7565b92915050565b6000819050919050565b61192481611911565b811461192f57600080fd5b50565b6000813590506119418161191b565b92915050565b60006020828403121561195d5761195c611851565b5b600061196b84828501611932565b91505092915050565b61197d81611911565b82525050565b60006020820190506119986000830184611974565b92915050565b6119a781611911565b82525050565b600073ffffffffffffffffffffffffffffffffffffffff82169050919050565b60006119d8826119ad565b9050919050565b6119e8816119cd565b82525050565b6119f7816118db565b82525050565b60c082016000820151611a13600085018261199e565b506020820151611a2660208501826119df565b506040820151611a39604085018261199e565b506060820151611a4c606085018261199e565b506080820151611a5f608085018261199e565b5060a0820151611a7260a08501826119ee565b50505050565b600060c082019050611a8d60008301846119fd565b92915050565b611a9c816119cd565b82525050565b6000602082019050611ab76000830184611a93565b92915050565b6000819050919050565b611ad081611abd565b8114611adb57600080fd5b50565b600081359050611aed81611ac7565b92915050565b600060208284031215611b0957611b08611851565b5b6000611b1784828501611ade565b91505092915050565b611b2981611abd565b82525050565b6000602082019050611b446000830184611b20565b92915050565b611b53816119cd565b8114611b5e57600080fd5b50565b600081359050611b7081611b4a565b92915050565b60008060408385031215611b8d57611b8c611851565b5b6000611b9b85828601611ade565b9250506020611bac85828601611b61565b9150509250929050565b600060208284031215611bcc57611bcb611851565b5b6000611bda84828501611b61565b91505092915050565b7f4e487b7100000000000000000000000000000000000000000000000000000000600052601160045260246000fd5b6000611c1d82611911565b9150611c2883611911565b9250827fffffffffffffffffffffffffffffffffffffffffffffffffffffffffffffffff03821115611c5d57611c5c611be3565b5b828201905092915050565b6000611c7382611911565b9150611c7e83611911565b925082821015611c9157611c90611be3565b5b828203905092915050565b6000611ca782611911565b9150611cb283611911565b9250817fffffffffffffffffffffffffffffffffffffffffffffffffffffffffffffffff0483118215151615611ceb57611cea611be3565b5b828202905092915050565b7f4e487b7100000000000000000000000000000000000000000000000000000000600052601260045260246000fd5b6000611d3082611911565b9150611d3b83611911565b925082611d4b57611d4a611cf6565b5b828204905092915050565b600082825260208201905092915050565b7f76657374696e673a20696e646578206f7574206f6620626f756e647300000000600082015250565b6000611d9d601c83611d56565b9150611da882611d67565b602082019050919050565b60006020820190508181036000830152611dcc81611d90565b9050919050565b7f416363657373436f6e74726f6c3a2063616e206f6e6c792072656e6f756e636560008201527f20726f6c657320666f722073656c660000000000000000000000000000000000602082015250565b6000611e2f602f83611d56565b9150611e3a82611dd3565b604082019050919050565b60006020820190508181036000830152611e5e81611e22565b9050919050565b7f4f776e61626c653a2063616c6c6572206973206e6f7420746865206f776e6572600082015250565b6000611e9b602083611d56565b9150611ea682611e65565b602082019050919050565b60006020820190508181036000830152611eca81611e8e565b9050919050565b7f5265656e7472616e637947756172643a207265656e7472616e742063616c6c00600082015250565b6000611f07601f83611d56565b9150611f1282611ed1565b602082019050919050565b60006020820190508181036000830152611f3681611efa565b9050919050565b7f56657374696e67206973206e6f7420737461727465642e000000000000000000600082015250565b6000611f73601783611d56565b9150611f7e82611f3d565b602082019050919050565b60006020820190508181036000830152611fa281611f66565b9050919050565b7f4e6f742072656d61696e65642076657374696e6720746f6b656e000000000000600082015250565b6000611fdf601a83611d56565b9150611fea82611fa9565b602082019050919050565b6000602082019050818103600083015261200e81611fd2565b9050919050565b600061202082611911565b91507fffffffffffffffffffffffffffffffffffffffffffffffffffffffffffffffff82141561205357612052611be3565b5b600182019050919050565b7f56657374696e6720697320656e6465642e000000000000000000000000000000600082015250565b6000612094601183611d56565b915061209f8261205e565b602082019050919050565b600060208201905081810360008301526120c381612087565b9050919050565b7f4f776e61626c653a206e6577206f776e657220697320746865207a65726f206160008201527f6464726573730000000000000000000000000000000000000000000000000000602082015250565b6000612126602683611d56565b9150612131826120ca565b604082019050919050565b6000602082019050818103600083015261215581612119565b9050919050565b60006060820190506121716000830186611a93565b61217e6020830185611a93565b61218b6040830184611974565b949350505050565b61219c816118db565b81146121a757600080fd5b50565b6000815190506121b981612193565b92915050565b6000602082840312156121d5576121d4611851565b5b60006121e3848285016121aa565b91505092915050565b600081905092915050565b7f416363657373436f6e74726f6c3a206163636f756e7420000000000000000000600082015250565b600061222d6017836121ec565b9150612238826121f7565b601782019050919050565b600081519050919050565b60005b8381101561226c578082015181840152602081019050612251565b8381111561227b576000848401525b50505050565b600061228c82612243565b61229681856121ec565b93506122a681856020860161224e565b80840191505092915050565b7f206973206d697373696e6720726f6c6520000000000000000000000000000000600082015250565b60006122e86011836121ec565b91506122f3826122b2565b601182019050919050565b600061230982612220565b91506123158285612281565b9150612320826122db565b915061232c8284612281565b91508190509392505050565b6000601f19601f8301169050919050565b600061235482612243565b61235e8185611d56565b935061236e81856020860161224e565b61237781612338565b840191505092915050565b6000602082019050818103600083015261239c8184612349565b905092915050565b60006040820190506123b96000830185611a93565b6123c66020830184611974565b9392505050565b7f4e487b7100000000000000000000000000000000000000000000000000000000600052604160045260246000fd5b7f4e487b7100000000000000000000000000000000000000000000000000000000600052603260045260246000fd5b600061243682611911565b9150600082141561244a57612449611be3565b5b600182039050919050565b7f537472696e67733a20686578206c656e67746820696e73756666696369656e74600082015250565b600061248b602083611d56565b915061249682612455565b602082019050919050565b600060208201905081810360008301526124ba8161247e565b905091905056fea2646970667358221220409b24da4d2fc33c6dea51fb78c329c3ba7e54307b8873983347ff200192ba2e64736f6c634300080a0033",
  "linkReferences": {},
  "deployedLinkReferences": {}
}