{
  "_format": "hh-sol-artifact-1",
  "contractName": "HousePoolUSDC",
  "sourceName": "contracts/HousePoolUSDC.sol",
  "abi": [
    {
      "inputs": [
        {
          "internalType": "address",
          "name": "_owner",
          "type": "address"
        },
        {
          "internalType": "address",
          "name": "_usdc",
          "type": "address"
        },
        {
          "internalType": "address",
          "name": "_claimToken",
          "type": "address"
        },
        {
          "internalType": "address",
          "name": "_rewardToken",
          "type": "address"
        },
        {
          "internalType": "string",
          "name": "_name",
          "type": "string"
        },
        {
          "internalType": "string",
          "name": "_version",
          "type": "string"
        }
      ],
      "stateMutability": "nonpayable",
      "type": "constructor"
    },
    {
      "anonymous": false,
      "inputs": [
        {
          "indexed": true,
          "internalType": "uint256",
          "name": "fid",
          "type": "uint256"
        },
        {
          "indexed": false,
          "internalType": "uint256",
          "name": "allocatedPoints",
          "type": "uint256"
        },
        {
          "indexed": true,
          "internalType": "contract IERC20",
          "name": "lpToken",
          "type": "address"
        }
      ],
      "name": "FarmCreated",
      "type": "event"
    },
    {
      "anonymous": false,
      "inputs": [
        {
          "indexed": true,
          "internalType": "address",
          "name": "depositor",
          "type": "address"
        },
        {
          "indexed": true,
          "internalType": "uint256",
          "name": "fid",
          "type": "uint256"
        },
        {
          "indexed": false,
          "internalType": "uint256",
          "name": "amount",
          "type": "uint256"
        },
        {
          "indexed": true,
          "internalType": "address",
          "name": "benefitor",
          "type": "address"
        }
      ],
      "name": "FarmDeposit",
      "type": "event"
    },
    {
      "anonymous": false,
      "inputs": [
        {
          "indexed": true,
          "internalType": "address",
          "name": "requestor",
          "type": "address"
        },
        {
          "indexed": true,
          "internalType": "uint256",
          "name": "fid",
          "type": "uint256"
        },
        {
          "indexed": false,
          "internalType": "uint256",
          "name": "amount",
          "type": "uint256"
        },
        {
          "indexed": true,
          "internalType": "address",
          "name": "receiver",
          "type": "address"
        }
      ],
      "name": "FarmHarvest",
      "type": "event"
    },
    {
      "anonymous": false,
      "inputs": [
        {
          "indexed": true,
          "internalType": "uint256",
          "name": "fid",
          "type": "uint256"
        },
        {
          "indexed": false,
          "internalType": "uint256",
          "name": "lastRewardTime",
          "type": "uint256"
        },
        {
          "indexed": false,
          "internalType": "uint256",
          "name": "lpSupply",
          "type": "uint256"
        },
        {
          "indexed": false,
          "internalType": "uint256",
          "name": "accRewardPerShare",
          "type": "uint256"
        }
      ],
      "name": "FarmUpdated",
      "type": "event"
    },
    {
      "anonymous": false,
      "inputs": [
        {
          "indexed": true,
          "internalType": "address",
          "name": "requestor",
          "type": "address"
        },
        {
          "indexed": true,
          "internalType": "uint256",
          "name": "fid",
          "type": "uint256"
        },
        {
          "indexed": false,
          "internalType": "uint256",
          "name": "amount",
          "type": "uint256"
        },
        {
          "indexed": true,
          "internalType": "address",
          "name": "receiver",
          "type": "address"
        }
      ],
      "name": "FarmWithdraw",
      "type": "event"
    },
    {
      "anonymous": false,
      "inputs": [
        {
          "indexed": false,
          "internalType": "uint256",
          "name": "newRewardPerSecond",
          "type": "uint256"
        }
      ],
      "name": "RewardPerSecondUpdated",
      "type": "event"
    },
    {
      "anonymous": false,
      "inputs": [
        {
          "indexed": true,
          "internalType": "bytes32",
          "name": "role",
          "type": "bytes32"
        },
        {
          "indexed": true,
          "internalType": "bytes32",
          "name": "previousAdminRole",
          "type": "bytes32"
        },
        {
          "indexed": true,
          "internalType": "bytes32",
          "name": "newAdminRole",
          "type": "bytes32"
        }
      ],
      "name": "RoleAdminChanged",
      "type": "event"
    },
    {
      "anonymous": false,
      "inputs": [
        {
          "indexed": true,
          "internalType": "bytes32",
          "name": "role",
          "type": "bytes32"
        },
        {
          "indexed": true,
          "internalType": "address",
          "name": "account",
          "type": "address"
        },
        {
          "indexed": true,
          "internalType": "address",
          "name": "sender",
          "type": "address"
        }
      ],
      "name": "RoleGranted",
      "type": "event"
    },
    {
      "anonymous": false,
      "inputs": [
        {
          "indexed": true,
          "internalType": "bytes32",
          "name": "role",
          "type": "bytes32"
        },
        {
          "indexed": true,
          "internalType": "address",
          "name": "account",
          "type": "address"
        },
        {
          "indexed": true,
          "internalType": "address",
          "name": "sender",
          "type": "address"
        }
      ],
      "name": "RoleRevoked",
      "type": "event"
    },
    {
      "inputs": [],
      "name": "DATA_PROVIDER_ORACLE",
      "outputs": [
        {
          "internalType": "bytes32",
          "name": "",
          "type": "bytes32"
        }
      ],
      "stateMutability": "view",
      "type": "function"
    },
    {
      "inputs": [],
      "name": "DEFAULT_ADMIN_ROLE",
      "outputs": [
        {
          "internalType": "bytes32",
          "name": "",
          "type": "bytes32"
        }
      ],
      "stateMutability": "view",
      "type": "function"
    },
    {
      "inputs": [],
      "name": "HOUSE_POOL_DATA_PROVIDER",
      "outputs": [
        {
          "internalType": "bytes32",
          "name": "",
          "type": "bytes32"
        }
      ],
      "stateMutability": "view",
      "type": "function"
    },
    {
      "inputs": [
        {
          "internalType": "contract IERC20",
          "name": "_token",
          "type": "address"
        }
      ],
      "name": "checkFarmDoesntExist",
      "outputs": [],
      "stateMutability": "view",
      "type": "function"
    },
    {
      "inputs": [
        {
          "internalType": "uint256",
          "name": "allocPoint",
          "type": "uint256"
        },
        {
          "internalType": "contract IERC20",
          "name": "lpToken",
          "type": "address"
        }
      ],
      "name": "createFarm",
      "outputs": [],
      "stateMutability": "nonpayable",
      "type": "function"
    },
    {
      "inputs": [
        {
          "internalType": "uint256",
          "name": "amountUSDC",
          "type": "uint256"
        },
        {
          "internalType": "bytes",
          "name": "approval",
          "type": "bytes"
        },
        {
          "components": [
            {
              "internalType": "int256",
              "name": "expectedValue",
              "type": "int256"
            },
            {
              "internalType": "int256",
              "name": "maxExposure",
              "type": "int256"
            },
            {
              "internalType": "uint256",
              "name": "deadline",
              "type": "uint256"
            },
            {
              "internalType": "address",
              "name": "signer",
              "type": "address"
            }
          ],
          "internalType": "struct HousePoolUSDC.ValuesOfInterest",
          "name": "approvedValues",
          "type": "tuple"
        }
      ],
      "name": "deposit",
      "outputs": [],
      "stateMutability": "nonpayable",
      "type": "function"
    },
    {
      "inputs": [
        {
          "internalType": "uint256",
          "name": "fid",
          "type": "uint256"
        },
        {
          "internalType": "uint256",
          "name": "lpAmount",
          "type": "uint256"
        },
        {
          "internalType": "address",
          "name": "benefitor",
          "type": "address"
        }
      ],
      "name": "depositLP",
      "outputs": [],
      "stateMutability": "nonpayable",
      "type": "function"
    },
    {
      "inputs": [
        {
          "internalType": "uint256",
          "name": "usdcMicro",
          "type": "uint256"
        }
      ],
      "name": "deposit_",
      "outputs": [],
      "stateMutability": "nonpayable",
      "type": "function"
    },
    {
      "inputs": [
        {
          "internalType": "uint256",
          "name": "",
          "type": "uint256"
        }
      ],
      "name": "farmInfo",
      "outputs": [
        {
          "internalType": "uint256",
          "name": "accRewardPerShare",
          "type": "uint256"
        },
        {
          "internalType": "uint256",
          "name": "lastRewardTime",
          "type": "uint256"
        },
        {
          "internalType": "uint256",
          "name": "allocPoint",
          "type": "uint256"
        }
      ],
      "stateMutability": "view",
      "type": "function"
    },
    {
      "inputs": [],
      "name": "getBettingStakes",
      "outputs": [
        {
          "internalType": "uint256",
          "name": "",
          "type": "uint256"
        }
      ],
      "stateMutability": "view",
      "type": "function"
    },
    {
      "inputs": [],
      "name": "getEV",
      "outputs": [
        {
          "internalType": "int256",
          "name": "",
          "type": "int256"
        }
      ],
      "stateMutability": "view",
      "type": "function"
    },
    {
      "inputs": [],
      "name": "getFarmCount",
      "outputs": [
        {
          "internalType": "uint256",
          "name": "farmCount",
          "type": "uint256"
        }
      ],
      "stateMutability": "view",
      "type": "function"
    },
    {
      "inputs": [],
      "name": "getLiquidityStatus",
      "outputs": [
        {
          "internalType": "uint256",
          "name": "",
          "type": "uint256"
        }
      ],
      "stateMutability": "view",
      "type": "function"
    },
    {
      "inputs": [],
      "name": "getMaxExposure",
      "outputs": [
        {
          "internalType": "int256",
          "name": "",
          "type": "int256"
        }
      ],
      "stateMutability": "view",
      "type": "function"
    },
    {
      "inputs": [
        {
          "internalType": "address",
          "name": "_user",
          "type": "address"
        }
      ],
      "name": "getMyBalance",
      "outputs": [
        {
          "internalType": "uint256",
          "name": "",
          "type": "uint256"
        }
      ],
      "stateMutability": "view",
      "type": "function"
    },
    {
      "inputs": [
        {
          "internalType": "bytes32",
          "name": "role",
          "type": "bytes32"
        }
      ],
      "name": "getRoleAdmin",
      "outputs": [
        {
          "internalType": "bytes32",
          "name": "",
          "type": "bytes32"
        }
      ],
      "stateMutability": "view",
      "type": "function"
    },
    {
      "inputs": [],
      "name": "getTVLofPool",
      "outputs": [
        {
          "internalType": "int256",
          "name": "",
          "type": "int256"
        }
      ],
      "stateMutability": "view",
      "type": "function"
    },
    {
      "inputs": [],
      "name": "getTokenPrice",
      "outputs": [
        {
          "internalType": "uint256",
          "name": "",
          "type": "uint256"
        }
      ],
      "stateMutability": "view",
      "type": "function"
    },
    {
      "inputs": [],
      "name": "getTokenWithdrawlPrice",
      "outputs": [
        {
          "internalType": "uint256",
          "name": "",
          "type": "uint256"
        }
      ],
      "stateMutability": "view",
      "type": "function"
    },
    {
      "inputs": [],
      "name": "getTreasuryAmount",
      "outputs": [
        {
          "internalType": "uint256",
          "name": "",
          "type": "uint256"
        }
      ],
      "stateMutability": "view",
      "type": "function"
    },
    {
      "inputs": [
        {
          "internalType": "bytes32",
          "name": "role",
          "type": "bytes32"
        },
        {
          "internalType": "address",
          "name": "account",
          "type": "address"
        }
      ],
      "name": "grantRole",
      "outputs": [],
      "stateMutability": "nonpayable",
      "type": "function"
    },
    {
      "inputs": [
        {
          "internalType": "uint256",
          "name": "fid",
          "type": "uint256"
        },
        {
          "internalType": "address",
          "name": "receiver",
          "type": "address"
        }
      ],
      "name": "harvest",
      "outputs": [],
      "stateMutability": "nonpayable",
      "type": "function"
    },
    {
      "inputs": [
        {
          "internalType": "address",
          "name": "receiver",
          "type": "address"
        }
      ],
      "name": "harvestAll",
      "outputs": [],
      "stateMutability": "nonpayable",
      "type": "function"
    },
    {
      "inputs": [
        {
          "internalType": "bytes32",
          "name": "role",
          "type": "bytes32"
        },
        {
          "internalType": "address",
          "name": "account",
          "type": "address"
        }
      ],
      "name": "hasRole",
      "outputs": [
        {
          "internalType": "bool",
          "name": "",
          "type": "bool"
        }
      ],
      "stateMutability": "view",
      "type": "function"
    },
    {
      "inputs": [
        {
          "internalType": "uint256",
          "name": "",
          "type": "uint256"
        }
      ],
      "name": "lpTokens",
      "outputs": [
        {
          "internalType": "contract IERC20",
          "name": "",
          "type": "address"
        }
      ],
      "stateMutability": "view",
      "type": "function"
    },
    {
      "inputs": [
        {
          "internalType": "uint256",
          "name": "fid",
          "type": "uint256"
        }
      ],
      "name": "refreshFarm",
      "outputs": [
        {
          "components": [
            {
              "internalType": "uint256",
              "name": "accRewardPerShare",
              "type": "uint256"
            },
            {
              "internalType": "uint256",
              "name": "lastRewardTime",
              "type": "uint256"
            },
            {
              "internalType": "uint256",
              "name": "allocPoint",
              "type": "uint256"
            }
          ],
          "internalType": "struct HousePoolUSDC.FarmInfo",
          "name": "farm",
          "type": "tuple"
        }
      ],
      "stateMutability": "nonpayable",
      "type": "function"
    },
    {
      "inputs": [
        {
          "internalType": "bytes32",
          "name": "role",
          "type": "bytes32"
        },
        {
          "internalType": "address",
          "name": "account",
          "type": "address"
        }
      ],
      "name": "renounceRole",
      "outputs": [],
      "stateMutability": "nonpayable",
      "type": "function"
    },
    {
      "inputs": [
        {
          "internalType": "bytes32",
          "name": "role",
          "type": "bytes32"
        },
        {
          "internalType": "address",
          "name": "account",
          "type": "address"
        }
      ],
      "name": "revokeRole",
      "outputs": [],
      "stateMutability": "nonpayable",
      "type": "function"
    },
    {
      "inputs": [],
      "name": "reward",
      "outputs": [
        {
          "internalType": "contract IRewardToken",
          "name": "",
          "type": "address"
        }
      ],
      "stateMutability": "view",
      "type": "function"
    },
    {
      "inputs": [],
      "name": "rewardPerSecond",
      "outputs": [
        {
          "internalType": "uint256",
          "name": "",
          "type": "uint256"
        }
      ],
      "stateMutability": "view",
      "type": "function"
    },
    {
      "inputs": [
        {
          "internalType": "uint256",
          "name": "bettingAmount",
          "type": "uint256"
        }
      ],
      "name": "setBettingStakes",
      "outputs": [],
      "stateMutability": "nonpayable",
      "type": "function"
    },
    {
      "inputs": [
        {
          "internalType": "uint256",
          "name": "_rewardPerSecond",
          "type": "uint256"
        }
      ],
      "name": "setRewardPerSecond",
      "outputs": [],
      "stateMutability": "nonpayable",
      "type": "function"
    },
    {
      "inputs": [
        {
          "internalType": "bytes",
          "name": "sig_",
          "type": "bytes"
        },
        {
          "components": [
            {
              "internalType": "int256",
              "name": "expectedValue",
              "type": "int256"
            },
            {
              "internalType": "int256",
              "name": "maxExposure",
              "type": "int256"
            },
            {
              "internalType": "uint256",
              "name": "deadline",
              "type": "uint256"
            },
            {
              "internalType": "address",
              "name": "signer",
              "type": "address"
            }
          ],
          "internalType": "struct HousePoolUSDC.ValuesOfInterest",
          "name": "voi_",
          "type": "tuple"
        }
      ],
      "name": "setVOI",
      "outputs": [],
      "stateMutability": "nonpayable",
      "type": "function"
    },
    {
      "inputs": [
        {
          "internalType": "bool",
          "name": "outcome",
          "type": "bool"
        },
        {
          "internalType": "uint256",
          "name": "betAmount",
          "type": "uint256"
        }
      ],
      "name": "simulateOutcome",
      "outputs": [],
      "stateMutability": "nonpayable",
      "type": "function"
    },
    {
      "inputs": [
        {
          "internalType": "bytes4",
          "name": "interfaceId",
          "type": "bytes4"
        }
      ],
      "name": "supportsInterface",
      "outputs": [
        {
          "internalType": "bool",
          "name": "",
          "type": "bool"
        }
      ],
      "stateMutability": "view",
      "type": "function"
    },
    {
      "inputs": [],
      "name": "totalAllocPoint",
      "outputs": [
        {
          "internalType": "uint256",
          "name": "",
          "type": "uint256"
        }
      ],
      "stateMutability": "view",
      "type": "function"
    },
    {
      "inputs": [
        {
          "internalType": "uint256",
          "name": "",
          "type": "uint256"
        },
        {
          "internalType": "address",
          "name": "",
          "type": "address"
        }
      ],
      "name": "userInfo",
      "outputs": [
        {
          "internalType": "uint256",
          "name": "amount",
          "type": "uint256"
        },
        {
          "internalType": "int256",
          "name": "rewardDebt",
          "type": "int256"
        }
      ],
      "stateMutability": "view",
      "type": "function"
    },
    {
      "inputs": [],
      "name": "voi",
      "outputs": [
        {
          "internalType": "int256",
          "name": "expectedValue",
          "type": "int256"
        },
        {
          "internalType": "int256",
          "name": "maxExposure",
          "type": "int256"
        },
        {
          "internalType": "uint256",
          "name": "deadline",
          "type": "uint256"
        },
        {
          "internalType": "address",
          "name": "signer",
          "type": "address"
        }
      ],
      "stateMutability": "view",
      "type": "function"
    },
    {
      "inputs": [
        {
          "internalType": "uint256",
          "name": "amountUSDC",
          "type": "uint256"
        },
        {
          "internalType": "bytes",
          "name": "approval",
          "type": "bytes"
        },
        {
          "components": [
            {
              "internalType": "int256",
              "name": "expectedValue",
              "type": "int256"
            },
            {
              "internalType": "int256",
              "name": "maxExposure",
              "type": "int256"
            },
            {
              "internalType": "uint256",
              "name": "deadline",
              "type": "uint256"
            },
            {
              "internalType": "address",
              "name": "signer",
              "type": "address"
            }
          ],
          "internalType": "struct HousePoolUSDC.ValuesOfInterest",
          "name": "approvedValues",
          "type": "tuple"
        }
      ],
      "name": "withdraw",
      "outputs": [],
      "stateMutability": "nonpayable",
      "type": "function"
    },
    {
      "inputs": [
        {
          "internalType": "uint256",
          "name": "fid",
          "type": "uint256"
        },
        {
          "internalType": "uint256",
          "name": "lpAmount",
          "type": "uint256"
        },
        {
          "internalType": "address",
          "name": "receiver",
          "type": "address"
        }
      ],
      "name": "withdrawLP",
      "outputs": [],
      "stateMutability": "nonpayable",
      "type": "function"
    },
    {
      "inputs": [
        {
          "internalType": "uint256",
          "name": "usdcMicro",
          "type": "uint256"
        }
      ],
      "name": "withdraw_",
      "outputs": [],
      "stateMutability": "nonpayable",
      "type": "function"
    }
  ],
  "bytecode": "0x6101406040526012600a62000015919062000562565b6064620000239190620005b3565b600f556012600a62000036919062000562565b6064620000449190620005b3565b60105560006014553480156200005957600080fd5b5060405162005e5f38038062005e5f83398181016040528101906200007f919062000816565b8181600160008190555060008280519060200120905060008280519060200120905060007f8b73c3c69bb8fe3d512ecc4cf759cc79239f7b179b0ffacaa9a75d522b39400f90508260e081815250508161010081815250504660a08181525050620000f28184846200021f60201b60201c565b608081815250503073ffffffffffffffffffffffffffffffffffffffff1660c08173ffffffffffffffffffffffffffffffffffffffff1681525050806101208181525050505050505084600960006101000a81548173ffffffffffffffffffffffffffffffffffffffff021916908373ffffffffffffffffffffffffffffffffffffffff16021790555083600a60006101000a81548173ffffffffffffffffffffffffffffffffffffffff021916908373ffffffffffffffffffffffffffffffffffffffff16021790555082600460006101000a81548173ffffffffffffffffffffffffffffffffffffffff021916908373ffffffffffffffffffffffffffffffffffffffff160217905550620002136000801b876200025b60201b60201c565b5050505050506200098a565b600083838346306040516020016200023c9594939291906200092d565b6040516020818303038152906040528051906020012090509392505050565b6200026d82826200027160201b60201c565b5050565b6200028382826200036260201b60201c565b6200035e57600180600084815260200190815260200160002060000160008373ffffffffffffffffffffffffffffffffffffffff1673ffffffffffffffffffffffffffffffffffffffff16815260200190815260200160002060006101000a81548160ff02191690831515021790555062000303620003cd60201b60201c565b73ffffffffffffffffffffffffffffffffffffffff168173ffffffffffffffffffffffffffffffffffffffff16837f2f8788117e7eff1d82e926ec794901d17c78024a50270940304540a733656f0d60405160405180910390a45b5050565b60006001600084815260200190815260200160002060000160008373ffffffffffffffffffffffffffffffffffffffff1673ffffffffffffffffffffffffffffffffffffffff16815260200190815260200160002060009054906101000a900460ff16905092915050565b600033905090565b7f4e487b7100000000000000000000000000000000000000000000000000000000600052601160045260246000fd5b60008160011c9050919050565b6000808291508390505b600185111562000463578086048111156200043b576200043a620003d5565b5b60018516156200044b5780820291505b80810290506200045b8562000404565b94506200041b565b94509492505050565b6000826200047e576001905062000551565b816200048e576000905062000551565b8160018114620004a75760028114620004b257620004e8565b600191505062000551565b60ff841115620004c757620004c6620003d5565b5b8360020a915084821115620004e157620004e0620003d5565b5b5062000551565b5060208310610133831016604e8410600b8410161715620005225782820a9050838111156200051c576200051b620003d5565b5b62000551565b62000531848484600162000411565b925090508184048111156200054b576200054a620003d5565b5b81810290505b9392505050565b6000819050919050565b60006200056f8262000558565b91506200057c8362000558565b9250620005ab7fffffffffffffffffffffffffffffffffffffffffffffffffffffffffffffffff84846200046c565b905092915050565b6000620005c08262000558565b9150620005cd8362000558565b9250817fffffffffffffffffffffffffffffffffffffffffffffffffffffffffffffffff0483118215151615620006095762000608620003d5565b5b828202905092915050565b6000604051905090565b600080fd5b600080fd5b600073ffffffffffffffffffffffffffffffffffffffff82169050919050565b6000620006558262000628565b9050919050565b620006678162000648565b81146200067357600080fd5b50565b60008151905062000687816200065c565b92915050565b600080fd5b600080fd5b6000601f19601f8301169050919050565b7f4e487b7100000000000000000000000000000000000000000000000000000000600052604160045260246000fd5b620006e28262000697565b810181811067ffffffffffffffff82111715620007045762000703620006a8565b5b80604052505050565b60006200071962000614565b9050620007278282620006d7565b919050565b600067ffffffffffffffff8211156200074a5762000749620006a8565b5b620007558262000697565b9050602081019050919050565b60005b838110156200078257808201518184015260208101905062000765565b8381111562000792576000848401525b50505050565b6000620007af620007a9846200072c565b6200070d565b905082815260208101848484011115620007ce57620007cd62000692565b5b620007db84828562000762565b509392505050565b600082601f830112620007fb57620007fa6200068d565b5b81516200080d84826020860162000798565b91505092915050565b60008060008060008060c087890312156200083657620008356200061e565b5b60006200084689828a0162000676565b96505060206200085989828a0162000676565b95505060406200086c89828a0162000676565b94505060606200087f89828a0162000676565b935050608087015167ffffffffffffffff811115620008a357620008a262000623565b5b620008b189828a01620007e3565b92505060a087015167ffffffffffffffff811115620008d557620008d462000623565b5b620008e389828a01620007e3565b9150509295509295509295565b6000819050919050565b6200090581620008f0565b82525050565b620009168162000558565b82525050565b620009278162000648565b82525050565b600060a082019050620009446000830188620008fa565b620009536020830187620008fa565b620009626040830186620008fa565b6200097160608301856200090b565b6200098060808301846200091c565b9695505050505050565b60805160a05160c05160e0516101005161012051615485620009da600039600061314401526000613186015260006131650152600061309a015260006130f00152600061311901526154856000f3fe608060405234801561001057600080fd5b50600436106102535760003560e01c80635a5d6223116101465780639bde8099116100c3578063cb8bcf9211610087578063cb8bcf92146106d6578063cd08a1df14610706578063d547741f14610724578063d75d07c214610740578063e20fcf001461075e578063e678ff251461077c57610253565b80639bde809914610641578063a217fddf1461065d578063a43f32411461067b578063b3ce252414610697578063be1cd712146106b557610253565b80637d279ea01161010a5780637d279ea0146105765780637e3ef7cd146105925780638f10369a146105c257806391d14854146105e057806393f1a40b1461061057610253565b80635a5d6223146104d2578063639c066d146104f057806366da58151461050c578063699bdca9146105285780637d21c9671461054457610253565b80632f2ff15d116101d45780634b94f50e116101985780634b94f50e146104405780634ef916be1461045e5780634f6d45a21461047a578063508c81a21461049657806353f52847146104b457610253565b80632f2ff15d146103b057806336568abe146103cc5780633c0717fd146103e8578063409c86ca14610406578063429692a71461042257610253565b80631bb5e2dc1161021b5780631bb5e2dc146102fa57806320ab74491461032a578063218f296e14610346578063228cb73314610362578063248a9ca31461038057610253565b8063011d28ed1461025857806301ffc9a7146102745780630f5a5e18146102a457806317caf6f1146102c057806318fccc76146102de575b600080fd5b610272600480360381019061026d9190613938565b61079a565b005b61028e600480360381019061028991906139e3565b610926565b60405161029b9190613a2b565b60405180910390f35b6102be60048036038101906102b99190613a46565b6109a0565b005b6102c86109ac565b6040516102d59190613a82565b60405180910390f35b6102f860048036038101906102f39190613a9d565b6109b2565b005b610314600480360381019061030f9190613a46565b610ad0565b6040516103219190613b3c565b60405180910390f35b610344600480360381019061033f9190613d50565b610b0f565b005b610360600480360381019061035b9190613d50565b610da9565b005b61036a611043565b6040516103779190613de0565b60405180910390f35b61039a60048036038101906103959190613e31565b611069565b6040516103a79190613e6d565b60405180910390f35b6103ca60048036038101906103c59190613e88565b611089565b005b6103e660048036038101906103e19190613e88565b6110b2565b005b6103f0611135565b6040516103fd9190613a82565b60405180910390f35b610420600480360381019061041b9190613a46565b61113f565b005b61042a611149565b6040516104379190613a82565b60405180910390f35b610448611156565b6040516104559190613a82565b60405180910390f35b61047860048036038101906104739190613f06565b611160565b005b610494600480360381019061048f9190613f72565b6112c6565b005b61049e6113b4565b6040516104ab9190613e6d565b60405180910390f35b6104bc6113d8565b6040516104c99190613fc1565b60405180910390f35b6104da6113e2565b6040516104e79190613fc1565b60405180910390f35b61050a60048036038101906105059190613a46565b6113ef565b005b61052660048036038101906105219190613a46565b6113fb565b005b610542600480360381019061053d9190613fdc565b611452565b005b61055e60048036038101906105599190613a46565b6114e0565b60405161056d93929190614009565b60405180910390f35b610590600480360381019061058b9190613938565b61151a565b005b6105ac60048036038101906105a79190613fdc565b6116a8565b6040516105b99190613a82565b60405180910390f35b6105ca6116f1565b6040516105d79190613a82565b60405180910390f35b6105fa60048036038101906105f59190613e88565b6116f7565b6040516106079190613a2b565b60405180910390f35b61062a60048036038101906106259190613a9d565b611762565b604051610638929190614040565b60405180910390f35b61065b60048036038101906106569190614069565b611793565b005b610665611867565b6040516106729190613e6d565b60405180910390f35b61069560048036038101906106909190614096565b61186e565b005b61069f611b31565b6040516106ac9190613a82565b60405180910390f35b6106bd611b3b565b6040516106cd9493929190614101565b60405180910390f35b6106f060048036038101906106eb9190613a46565b611b79565b6040516106fd9190614197565b60405180910390f35b61070e611db1565b60405161071b9190613fc1565b60405180910390f35b61073e60048036038101906107399190613e88565b611dbe565b005b610748611de7565b6040516107559190613e6d565b60405180910390f35b610766611e0b565b6040516107739190613a82565b60405180910390f35b610784611e15565b6040516107919190613a82565b60405180910390f35b60006107a584611b79565b905060006013600086815260200190815260200160002060003373ffffffffffffffffffffffffffffffffffffffff1673ffffffffffffffffffffffffffffffffffffffff168152602001908152602001600020905064e8d4a5100082600001518561081191906141e1565b61081b919061426a565b81600101600082825461082e919061429b565b9250508190555083816000016000828254610849919061432f565b925050819055506108b983856003888154811061086957610868614363565b5b9060005260206000200160009054906101000a900473ffffffffffffffffffffffffffffffffffffffff1673ffffffffffffffffffffffffffffffffffffffff16611e1f9092919063ffffffff16565b8273ffffffffffffffffffffffffffffffffffffffff16853373ffffffffffffffffffffffffffffffffffffffff167fc9da9141b9ad9eed3c5b5d7e7799519c54f06cc3ee3f1c49c16f2f297660baef876040516109179190613a82565b60405180910390a45050505050565b60007f7965db0b000000000000000000000000000000000000000000000000000000007bffffffffffffffffffffffffffffffffffffffffffffffffffffffff1916827bffffffffffffffffffffffffffffffffffffffffffffffffffffffff19161480610999575061099882611ea5565b5b9050919050565b6109a981611f0f565b50565b60145481565b60006109bd83611b79565b905060006013600085815260200190815260200160002060003373ffffffffffffffffffffffffffffffffffffffff1673ffffffffffffffffffffffffffffffffffffffff1681526020019081526020016000209050600064e8d4a5100083600001518360000154610a2f91906141e1565b610a39919061426a565b90506000826001015482610a4d919061429b565b9050818360010181905550610a62858261234e565b8473ffffffffffffffffffffffffffffffffffffffff16863373ffffffffffffffffffffffffffffffffffffffff167f8019192f65b34fad6bf2766db2d26c808d77abc63af77b2ba2e329ab18aa8a0d84604051610ac09190613a82565b60405180910390a4505050505050565b60038181548110610ae057600080fd5b906000526020600020016000915054906101000a900473ffffffffffffffffffffffffffffffffffffffff1681565b80826000610bbf7f382f778b38ac8a684a068262bd90ef9739279743851e0bc20a2bf85f56a2550c84606001518560000151866020015160116000896060015173ffffffffffffffffffffffffffffffffffffffff1673ffffffffffffffffffffffffffffffffffffffff168152602001908152602001600020548860400151604051602001610ba496959493929190614392565b6040516020818303038152906040528051906020012061245b565b9050610bd083606001518284612475565b610c0f576040517f08c379a0000000000000000000000000000000000000000000000000000000008152600401610c0690614450565b60405180910390fd5b600073ffffffffffffffffffffffffffffffffffffffff16836060015173ffffffffffffffffffffffffffffffffffffffff161415610c83576040517f08c379a0000000000000000000000000000000000000000000000000000000008152600401610c7a906144bc565b60405180910390fd5b610cb17feed754290b7b7033469899aa55827c9480fc90a4843b45b7f455d0ac50d3e6ce84606001516116f7565b610cf0576040517f08c379a0000000000000000000000000000000000000000000000000000000008152600401610ce79061454e565b60405180910390fd5b82604001514310610d36576040517f08c379a0000000000000000000000000000000000000000000000000000000008152600401610d2d906145e0565b60405180910390fd5b60116000846060015173ffffffffffffffffffffffffffffffffffffffff1673ffffffffffffffffffffffffffffffffffffffff1681526020019081526020016000206000815480929190610d8a90614600565b9190505550610d988461265a565b610da186611f0f565b505050505050565b80826000610e597f382f778b38ac8a684a068262bd90ef9739279743851e0bc20a2bf85f56a2550c84606001518560000151866020015160116000896060015173ffffffffffffffffffffffffffffffffffffffff1673ffffffffffffffffffffffffffffffffffffffff168152602001908152602001600020548860400151604051602001610e3e96959493929190614392565b6040516020818303038152906040528051906020012061245b565b9050610e6a83606001518284612475565b610ea9576040517f08c379a0000000000000000000000000000000000000000000000000000000008152600401610ea090614450565b60405180910390fd5b600073ffffffffffffffffffffffffffffffffffffffff16836060015173ffffffffffffffffffffffffffffffffffffffff161415610f1d576040517f08c379a0000000000000000000000000000000000000000000000000000000008152600401610f14906144bc565b60405180910390fd5b610f4b7feed754290b7b7033469899aa55827c9480fc90a4843b45b7f455d0ac50d3e6ce84606001516116f7565b610f8a576040517f08c379a0000000000000000000000000000000000000000000000000000000008152600401610f819061454e565b60405180910390fd5b82604001514310610fd0576040517f08c379a0000000000000000000000000000000000000000000000000000000008152600401610fc7906145e0565b60405180910390fd5b60116000846060015173ffffffffffffffffffffffffffffffffffffffff1673ffffffffffffffffffffffffffffffffffffffff168152602001908152602001600020600081548092919061102490614600565b91905055506110328461265a565b61103b86612699565b505050505050565b600460009054906101000a900473ffffffffffffffffffffffffffffffffffffffff1681565b600060016000838152602001908152602001600020600101549050919050565b61109282611069565b6110a38161109e612a31565b612a39565b6110ad8383612ad6565b505050565b6110ba612a31565b73ffffffffffffffffffffffffffffffffffffffff168173ffffffffffffffffffffffffffffffffffffffff1614611127576040517f08c379a000000000000000000000000000000000000000000000000000000000815260040161111e906146bb565b60405180910390fd5b6111318282612bb6565b5050565b6000600654905090565b8060058190555050565b6000600280549050905090565b6000600f54905090565b6000801b61117581611170612a31565b612a39565b61117e82611793565b826014600082825461119091906146db565b92505081905550600260405180606001604052806000815260200142815260200185815250908060018154018082558091505060019003906000526020600020906003020160009091909190915060008201518160000155602082015181600101556040820151816002015550506003829080600181540180825580915050600190039060005260206000200160009091909190916101000a81548173ffffffffffffffffffffffffffffffffffffffff021916908373ffffffffffffffffffffffffffffffffffffffff1602179055508173ffffffffffffffffffffffffffffffffffffffff16600160038054905061128a919061432f565b7f61c9bf39bb035d6f43bf12aa7b22bfec1d61788e90b7249fad7625529c115181856040516112b99190613a82565b60405180910390a3505050565b60001515821515141561132e576064816112e0919061426a565b600760008282546112f191906146db565b925050819055506063606482611307919061426a565b61131191906141e1565b6006600082825461132291906146db565b9250508190555061136f565b606460055461133d919061426a565b6007600082825461134e91906146db565b925050819055508060056000828254611367919061432f565b925050819055505b6000600b600001819055506000600b60010181905550600754600860008282546113999190614731565b925050819055506113a8612c98565b6113b0612def565b5050565b7fce95e3899a3f9149fc26a34674875210907ee3c0dddf61ac603f89e90c1b5f9e81565b6000600854905090565b6000600b60010154905090565b6113f881612699565b50565b6000801b6114108161140b612a31565b612a39565b816015819055507f951c6f64eb06ec6a6682072cda71420984dd55199006684bb820a80fd7e98793826040516114469190613a82565b60405180910390a15050565b60005b6002805490508110156114dc5760006013600083815260200190815260200160002060003373ffffffffffffffffffffffffffffffffffffffff1673ffffffffffffffffffffffffffffffffffffffff1681526020019081526020016000206000015411156114c9576114c881836109b2565b5b80806114d490614600565b915050611455565b5050565b600281815481106114f057600080fd5b90600052602060002090600302016000915090508060000154908060010154908060020154905083565b600061152584611b79565b905060006013600086815260200190815260200160002060008473ffffffffffffffffffffffffffffffffffffffff1673ffffffffffffffffffffffffffffffffffffffff16815260200190815260200160002090508381600001600082825461158f91906146db565b9250508190555064e8d4a510008260000151856115ac91906141e1565b6115b6919061426a565b8160010160008282546115c99190614731565b9250508190555061163b333086600389815481106115ea576115e9614363565b5b9060005260206000200160009054906101000a900473ffffffffffffffffffffffffffffffffffffffff1673ffffffffffffffffffffffffffffffffffffffff16612f46909392919063ffffffff16565b8273ffffffffffffffffffffffffffffffffffffffff16853373ffffffffffffffffffffffffffffffffffffffff167f8f3ed488ccb8ee9d27a4cb66377f8127c651bd8f8b68df7b23d7b5676961787f876040516116999190613a82565b60405180910390a45050505050565b6000601260008373ffffffffffffffffffffffffffffffffffffffff1673ffffffffffffffffffffffffffffffffffffffff168152602001908152602001600020549050919050565b60155481565b60006001600084815260200190815260200160002060000160008373ffffffffffffffffffffffffffffffffffffffff1673ffffffffffffffffffffffffffffffffffffffff16815260200190815260200160002060009054906101000a900460ff16905092915050565b6013602052816000526040600020602052806000526040600020600091509150508060000154908060010154905082565b60005b600280549050811015611863578173ffffffffffffffffffffffffffffffffffffffff16600382815481106117ce576117cd614363565b5b9060005260206000200160009054906101000a900473ffffffffffffffffffffffffffffffffffffffff1673ffffffffffffffffffffffffffffffffffffffff161415611850576040517f08c379a000000000000000000000000000000000000000000000000000000000815260040161184790614811565b60405180910390fd5b808061185b90614600565b915050611796565b5050565b6000801b81565b8082600061191e7f382f778b38ac8a684a068262bd90ef9739279743851e0bc20a2bf85f56a2550c84606001518560000151866020015160116000896060015173ffffffffffffffffffffffffffffffffffffffff1673ffffffffffffffffffffffffffffffffffffffff16815260200190815260200160002054886040015160405160200161190396959493929190614392565b6040516020818303038152906040528051906020012061245b565b905061192f83606001518284612475565b61196e576040517f08c379a000000000000000000000000000000000000000000000000000000000815260040161196590614450565b60405180910390fd5b600073ffffffffffffffffffffffffffffffffffffffff16836060015173ffffffffffffffffffffffffffffffffffffffff1614156119e2576040517f08c379a00000000000000000000000000000000000000000000000000000000081526004016119d9906144bc565b60405180910390fd5b611a107feed754290b7b7033469899aa55827c9480fc90a4843b45b7f455d0ac50d3e6ce84606001516116f7565b611a4f576040517f08c379a0000000000000000000000000000000000000000000000000000000008152600401611a469061454e565b60405180910390fd5b82604001514310611a95576040517f08c379a0000000000000000000000000000000000000000000000000000000008152600401611a8c906145e0565b60405180910390fd5b60116000846060015173ffffffffffffffffffffffffffffffffffffffff1673ffffffffffffffffffffffffffffffffffffffff1681526020019081526020016000206000815480929190611ae990614600565b91905055507fce95e3899a3f9149fc26a34674875210907ee3c0dddf61ac603f89e90c1b5f9e611b2081611b1b612a31565b612a39565b611b298561265a565b505050505050565b6000601054905090565b600b8060000154908060010154908060020154908060030160009054906101000a900473ffffffffffffffffffffffffffffffffffffffff16905084565b611b8161386f565b60028281548110611b9557611b94614363565b5b9060005260206000209060030201604051806060016040529081600082015481526020016001820154815260200160028201548152505090504281602001511015611dac57600060038381548110611bf057611bef614363565b5b9060005260206000200160009054906101000a900473ffffffffffffffffffffffffffffffffffffffff1673ffffffffffffffffffffffffffffffffffffffff166370a08231306040518263ffffffff1660e01b8152600401611c539190614831565b602060405180830381865afa158015611c70573d6000803e3d6000fd5b505050506040513d601f19601f82011682018060405250810190611c949190614861565b90506000811115611d18576000826020015142611cb1919061432f565b90506000601454846040015160155484611ccb91906141e1565b611cd591906141e1565b611cdf919061426a565b90508264e8d4a5100082611cf391906141e1565b611cfd919061426a565b84600001818151611d0e91906146db565b9150818152505050505b428260200181815250508160028481548110611d3757611d36614363565b5b9060005260206000209060030201600082015181600001556020820151816001015560408201518160020155905050827f7afa65e874128c36660ee87dc188d5db7715c3183d701645e98701b5ef8cd9138360200151838560000151604051611da293929190614009565b60405180910390a2505b919050565b6000600b60000154905090565b611dc782611069565b611dd881611dd3612a31565b612a39565b611de28383612bb6565b505050565b7feed754290b7b7033469899aa55827c9480fc90a4843b45b7f455d0ac50d3e6ce81565b6000600754905090565b6000600554905090565b611ea08363a9059cbb60e01b8484604051602401611e3e92919061488e565b604051602081830303815290604052907bffffffffffffffffffffffffffffffffffffffffffffffffffffffff19166020820180517bffffffffffffffffffffffffffffffffffffffffffffffffffffffff8381831617835250505050612fcf565b505050565b60007f01ffc9a7000000000000000000000000000000000000000000000000000000007bffffffffffffffffffffffffffffffffffffffffffffffffffffffff1916827bffffffffffffffffffffffffffffffffffffffffffffffffffffffff1916149050919050565b60026000541415611f55576040517f08c379a0000000000000000000000000000000000000000000000000000000008152600401611f4c90614903565b60405180910390fd5b600260008190555060008111611fa0576040517f08c379a0000000000000000000000000000000000000000000000000000000008152600401611f979061496f565b60405180910390fd5b6010546012600a611fb19190614ac2565b600a60009054906101000a900473ffffffffffffffffffffffffffffffffffffffff1673ffffffffffffffffffffffffffffffffffffffff166370a08231336040518263ffffffff1660e01b815260040161200c9190614831565b602060405180830381865afa158015612029573d6000803e3d6000fd5b505050506040513d601f19601f8201168201806040525081019061204d9190614861565b612057919061426a565b61206191906141e1565b600c600a61206f9190614ac2565b8261207a91906141e1565b111580156120b15750600b60010154600654612096919061429b565b600c600a6120a49190614ac2565b826120af9190614b0d565b125b6120f0576040517f08c379a00000000000000000000000000000000000000000000000000000000081526004016120e790614c70565b60405180910390fd5b60006010546012600a6121039190614ac2565b600c600a6121119190614ac2565b8461211c91906141e1565b61212691906141e1565b612130919061426a565b9050600c600a6121409190614ac2565b8261214b91906141e1565b6006600082825461215c919061432f565b92505081905550600c600a6121719190614ac2565b8261217c9190614b0d565b6008600082825461218d919061429b565b92505081905550600c600a6121a29190614ac2565b826121ad91906141e1565b601260003373ffffffffffffffffffffffffffffffffffffffff1673ffffffffffffffffffffffffffffffffffffffff16815260200190815260200160002060008282546121fb919061432f565b92505081905550600960009054906101000a900473ffffffffffffffffffffffffffffffffffffffff1673ffffffffffffffffffffffffffffffffffffffff1663a9059cbb33846040518363ffffffff1660e01b815260040161225f92919061488e565b6020604051808303816000875af115801561227e573d6000803e3d6000fd5b505050506040513d601f19601f820116820180604052508101906122a29190614ca5565b50600a60009054906101000a900473ffffffffffffffffffffffffffffffffffffffff1673ffffffffffffffffffffffffffffffffffffffff16639dc29fac33836040518363ffffffff1660e01b815260040161230092919061488e565b600060405180830381600087803b15801561231a57600080fd5b505af115801561232e573d6000803e3d6000fd5b5050505061233a612def565b612342612c98565b50600160008190555050565b600073ffffffffffffffffffffffffffffffffffffffff168273ffffffffffffffffffffffffffffffffffffffff1614156123be576040517f08c379a00000000000000000000000000000000000000000000000000000000081526004016123b590614d1e565b60405180910390fd5b600081111561245757600460009054906101000a900473ffffffffffffffffffffffffffffffffffffffff1673ffffffffffffffffffffffffffffffffffffffff166340c10f1983836040518363ffffffff1660e01b815260040161242492919061488e565b600060405180830381600087803b15801561243e57600080fd5b505af1158015612452573d6000803e3d6000fd5b505050505b5050565b600061246e612468613096565b836131b0565b9050919050565b600080600061248485856131e3565b915091506000600481111561249c5761249b614d3e565b5b8160048111156124af576124ae614d3e565b5b1480156124e757508573ffffffffffffffffffffffffffffffffffffffff168273ffffffffffffffffffffffffffffffffffffffff16145b156124f757600192505050612653565b6000808773ffffffffffffffffffffffffffffffffffffffff16631626ba7e60e01b888860405160240161252c929190614df5565b604051602081830303815290604052907bffffffffffffffffffffffffffffffffffffffffffffffffffffffff19166020820180517bffffffffffffffffffffffffffffffffffffffffffffffffffffffff83818316178352505050506040516125969190614e61565b600060405180830381855afa9150503d80600081146125d1576040519150601f19603f3d011682016040523d82523d6000602084013e6125d6565b606091505b50915091508180156125e9575060208151145b801561264c5750631626ba7e60e01b7bffffffffffffffffffffffffffffffffffffffffffffffffffffffff19168180602001905181019061262b9190614e8d565b7bffffffffffffffffffffffffffffffffffffffffffffffffffffffff1916145b9450505050505b9392505050565b600b60000154816000015114612678576126778160000151613266565b5b600b60010154816020015114612696576126958160200151613284565b5b50565b600260005414156126df576040517f08c379a00000000000000000000000000000000000000000000000000000000081526004016126d690614903565b60405180910390fd5b60026000819055506000811180156127925750600960009054906101000a900473ffffffffffffffffffffffffffffffffffffffff1673ffffffffffffffffffffffffffffffffffffffff166370a08231336040518263ffffffff1660e01b815260040161274d9190614831565b602060405180830381865afa15801561276a573d6000803e3d6000fd5b505050506040513d601f19601f8201168201806040525081019061278e9190614861565b8111155b6127d1576040517f08c379a00000000000000000000000000000000000000000000000000000000081526004016127c890614f06565b60405180910390fd5b600c600a6127df9190614ac2565b816127ea91906141e1565b600660008282546127fb91906146db565b92505081905550600c600a6128109190614ac2565b8161281b91906141e1565b6008600082825461282c9190614731565b92505081905550600c600a6128419190614ac2565b8161284c91906141e1565b601260003373ffffffffffffffffffffffffffffffffffffffff1673ffffffffffffffffffffffffffffffffffffffff168152602001908152602001600020600082825461289a91906146db565b92505081905550600960009054906101000a900473ffffffffffffffffffffffffffffffffffffffff1673ffffffffffffffffffffffffffffffffffffffff166323b872dd3330846040518463ffffffff1660e01b815260040161290093929190614f26565b6020604051808303816000875af115801561291f573d6000803e3d6000fd5b505050506040513d601f19601f820116820180604052508101906129439190614ca5565b506000600f546012600a6129579190614ac2565b600c600a6129659190614ac2565b8461297091906141e1565b61297a91906141e1565b612984919061426a565b9050600a60009054906101000a900473ffffffffffffffffffffffffffffffffffffffff1673ffffffffffffffffffffffffffffffffffffffff166340c10f1933836040518363ffffffff1660e01b81526004016129e392919061488e565b600060405180830381600087803b1580156129fd57600080fd5b505af1158015612a11573d6000803e3d6000fd5b50505050612a1d612c98565b612a25612def565b50600160008190555050565b600033905090565b612a4382826116f7565b612ad257612a688173ffffffffffffffffffffffffffffffffffffffff166014613291565b612a768360001c6020613291565b604051602001612a8792919061503c565b6040516020818303038152906040526040517f08c379a0000000000000000000000000000000000000000000000000000000008152600401612ac991906150af565b60405180910390fd5b5050565b612ae082826116f7565b612bb257600180600084815260200190815260200160002060000160008373ffffffffffffffffffffffffffffffffffffffff1673ffffffffffffffffffffffffffffffffffffffff16815260200190815260200160002060006101000a81548160ff021916908315150217905550612b57612a31565b73ffffffffffffffffffffffffffffffffffffffff168173ffffffffffffffffffffffffffffffffffffffff16837f2f8788117e7eff1d82e926ec794901d17c78024a50270940304540a733656f0d60405160405180910390a45b5050565b612bc082826116f7565b15612c945760006001600084815260200190815260200160002060000160008373ffffffffffffffffffffffffffffffffffffffff1673ffffffffffffffffffffffffffffffffffffffff16815260200190815260200160002060006101000a81548160ff021916908315150217905550612c39612a31565b73ffffffffffffffffffffffffffffffffffffffff168173ffffffffffffffffffffffffffffffffffffffff16837ff6391f5c32d9c69d2a47ea670b442974b53935d1edc7fd64eb21e047a839171b60405160405180910390a45b5050565b6000600a60009054906101000a900473ffffffffffffffffffffffffffffffffffffffff1673ffffffffffffffffffffffffffffffffffffffff166318160ddd6040518163ffffffff1660e01b8152600401602060405180830381865afa158015612d07573d6000803e3d6000fd5b505050506040513d601f19601f82011682018060405250810190612d2b9190614861565b14612ded57600a60009054906101000a900473ffffffffffffffffffffffffffffffffffffffff1673ffffffffffffffffffffffffffffffffffffffff166318160ddd6040518163ffffffff1660e01b8152600401602060405180830381865afa158015612d9d573d6000803e3d6000fd5b505050506040513d601f19601f82011682018060405250810190612dc19190614861565b6012600a612dcf9190614ac2565b600854612ddc91906141e1565b612de6919061426a565b600f819055505b565b6000600a60009054906101000a900473ffffffffffffffffffffffffffffffffffffffff1673ffffffffffffffffffffffffffffffffffffffff166318160ddd6040518163ffffffff1660e01b8152600401602060405180830381865afa158015612e5e573d6000803e3d6000fd5b505050506040513d601f19601f82011682018060405250810190612e829190614861565b14612f4457600a60009054906101000a900473ffffffffffffffffffffffffffffffffffffffff1673ffffffffffffffffffffffffffffffffffffffff166318160ddd6040518163ffffffff1660e01b8152600401602060405180830381865afa158015612ef4573d6000803e3d6000fd5b505050506040513d601f19601f82011682018060405250810190612f189190614861565b6012600a612f269190614ac2565b600654612f3391906141e1565b612f3d919061426a565b6010819055505b565b612fc9846323b872dd60e01b858585604051602401612f6793929190614f26565b604051602081830303815290604052907bffffffffffffffffffffffffffffffffffffffffffffffffffffffff19166020820180517bffffffffffffffffffffffffffffffffffffffffffffffffffffffff8381831617835250505050612fcf565b50505050565b6000613031826040518060400160405280602081526020017f5361666545524332303a206c6f772d6c6576656c2063616c6c206661696c65648152508573ffffffffffffffffffffffffffffffffffffffff166134cd9092919063ffffffff16565b905060008151111561309157808060200190518101906130519190614ca5565b613090576040517f08c379a000000000000000000000000000000000000000000000000000000000815260040161308790615143565b60405180910390fd5b5b505050565b60007f000000000000000000000000000000000000000000000000000000000000000073ffffffffffffffffffffffffffffffffffffffff163073ffffffffffffffffffffffffffffffffffffffff1614801561311257507f000000000000000000000000000000000000000000000000000000000000000046145b1561313f577f000000000000000000000000000000000000000000000000000000000000000090506131ad565b6131aa7f00000000000000000000000000000000000000000000000000000000000000007f00000000000000000000000000000000000000000000000000000000000000007f00000000000000000000000000000000000000000000000000000000000000006134e5565b90505b90565b600082826040516020016131c59291906151d0565b60405160208183030381529060405280519060200120905092915050565b6000806041835114156132255760008060006020860151925060408601519150606086015160001a90506132198782858561351f565b9450945050505061325f565b60408351141561325657600080602085015191506040850151905061324b86838361362c565b93509350505061325f565b60006002915091505b9250929050565b61326f8161367a565b80600b60000181905550613281612c98565b50565b80600b6001018190555050565b6060600060028360026132a491906141e1565b6132ae91906146db565b67ffffffffffffffff8111156132c7576132c6613b72565b5b6040519080825280601f01601f1916602001820160405280156132f95781602001600182028036833780820191505090505b5090507f30000000000000000000000000000000000000000000000000000000000000008160008151811061333157613330614363565b5b60200101907effffffffffffffffffffffffffffffffffffffffffffffffffffffffffffff1916908160001a9053507f78000000000000000000000000000000000000000000000000000000000000008160018151811061339557613394614363565b5b60200101907effffffffffffffffffffffffffffffffffffffffffffffffffffffffffffff1916908160001a905350600060018460026133d591906141e1565b6133df91906146db565b90505b600181111561347f577f3031323334353637383961626364656600000000000000000000000000000000600f86166010811061342157613420614363565b5b1a60f81b82828151811061343857613437614363565b5b60200101907effffffffffffffffffffffffffffffffffffffffffffffffffffffffffffff1916908160001a905350600485901c94508061347890615207565b90506133e2565b50600084146134c3576040517f08c379a00000000000000000000000000000000000000000000000000000000081526004016134ba9061527d565b60405180910390fd5b8091505092915050565b60606134dc84846000856136e1565b90509392505050565b6000838383463060405160200161350095949392919061529d565b6040516020818303038152906040528051906020012090509392505050565b6000807f7fffffffffffffffffffffffffffffff5d576e7357a4501ddfe92f46681b20a08360001c111561355a576000600391509150613623565b601b8560ff16141580156135725750601c8560ff1614155b15613584576000600491509150613623565b6000600187878787604051600081526020016040526040516135a9949392919061530c565b6020604051602081039080840390855afa1580156135cb573d6000803e3d6000fd5b505050602060405103519050600073ffffffffffffffffffffffffffffffffffffffff168173ffffffffffffffffffffffffffffffffffffffff16141561361a57600060019250925050613623565b80600092509250505b94509492505050565b6000806000807f7fffffffffffffffffffffffffffffffffffffffffffffffffffffffffffffff85169150601b8560ff1c01905061366c8782888561351f565b935093505050935093915050565b6000600b6000015414156136a657806008600082825461369a9190614731565b925050819055506136de565b600b60000154600860008282546136bd919061429b565b9250508190555080600860008282546136d69190614731565b925050819055505b50565b606082471015613726576040517f08c379a000000000000000000000000000000000000000000000000000000000815260040161371d906153c3565b60405180910390fd5b61372f856137f5565b61376e576040517f08c379a00000000000000000000000000000000000000000000000000000000081526004016137659061542f565b60405180910390fd5b6000808673ffffffffffffffffffffffffffffffffffffffff1685876040516137979190614e61565b60006040518083038185875af1925050503d80600081146137d4576040519150601f19603f3d011682016040523d82523d6000602084013e6137d9565b606091505b50915091506137e9828286613808565b92505050949350505050565b600080823b905060008111915050919050565b6060831561381857829050613868565b60008351111561382b5782518084602001fd5b816040517f08c379a000000000000000000000000000000000000000000000000000000000815260040161385f91906150af565b60405180910390fd5b9392505050565b60405180606001604052806000815260200160008152602001600081525090565b6000604051905090565b600080fd5b600080fd5b6000819050919050565b6138b7816138a4565b81146138c257600080fd5b50565b6000813590506138d4816138ae565b92915050565b600073ffffffffffffffffffffffffffffffffffffffff82169050919050565b6000613905826138da565b9050919050565b613915816138fa565b811461392057600080fd5b50565b6000813590506139328161390c565b92915050565b6000806000606084860312156139515761395061389a565b5b600061395f868287016138c5565b9350506020613970868287016138c5565b925050604061398186828701613923565b9150509250925092565b60007fffffffff0000000000000000000000000000000000000000000000000000000082169050919050565b6139c08161398b565b81146139cb57600080fd5b50565b6000813590506139dd816139b7565b92915050565b6000602082840312156139f9576139f861389a565b5b6000613a07848285016139ce565b91505092915050565b60008115159050919050565b613a2581613a10565b82525050565b6000602082019050613a406000830184613a1c565b92915050565b600060208284031215613a5c57613a5b61389a565b5b6000613a6a848285016138c5565b91505092915050565b613a7c816138a4565b82525050565b6000602082019050613a976000830184613a73565b92915050565b60008060408385031215613ab457613ab361389a565b5b6000613ac2858286016138c5565b9250506020613ad385828601613923565b9150509250929050565b6000819050919050565b6000613b02613afd613af8846138da565b613add565b6138da565b9050919050565b6000613b1482613ae7565b9050919050565b6000613b2682613b09565b9050919050565b613b3681613b1b565b82525050565b6000602082019050613b516000830184613b2d565b92915050565b600080fd5b600080fd5b6000601f19601f8301169050919050565b7f4e487b7100000000000000000000000000000000000000000000000000000000600052604160045260246000fd5b613baa82613b61565b810181811067ffffffffffffffff82111715613bc957613bc8613b72565b5b80604052505050565b6000613bdc613890565b9050613be88282613ba1565b919050565b600067ffffffffffffffff821115613c0857613c07613b72565b5b613c1182613b61565b9050602081019050919050565b82818337600083830152505050565b6000613c40613c3b84613bed565b613bd2565b905082815260208101848484011115613c5c57613c5b613b5c565b5b613c67848285613c1e565b509392505050565b600082601f830112613c8457613c83613b57565b5b8135613c94848260208601613c2d565b91505092915050565b600080fd5b6000819050919050565b613cb581613ca2565b8114613cc057600080fd5b50565b600081359050613cd281613cac565b92915050565b600060808284031215613cee57613ced613c9d565b5b613cf86080613bd2565b90506000613d0884828501613cc3565b6000830152506020613d1c84828501613cc3565b6020830152506040613d30848285016138c5565b6040830152506060613d4484828501613923565b60608301525092915050565b600080600060c08486031215613d6957613d6861389a565b5b6000613d77868287016138c5565b935050602084013567ffffffffffffffff811115613d9857613d9761389f565b5b613da486828701613c6f565b9250506040613db586828701613cd8565b9150509250925092565b6000613dca82613b09565b9050919050565b613dda81613dbf565b82525050565b6000602082019050613df56000830184613dd1565b92915050565b6000819050919050565b613e0e81613dfb565b8114613e1957600080fd5b50565b600081359050613e2b81613e05565b92915050565b600060208284031215613e4757613e4661389a565b5b6000613e5584828501613e1c565b91505092915050565b613e6781613dfb565b82525050565b6000602082019050613e826000830184613e5e565b92915050565b60008060408385031215613e9f57613e9e61389a565b5b6000613ead85828601613e1c565b9250506020613ebe85828601613923565b9150509250929050565b6000613ed3826138fa565b9050919050565b613ee381613ec8565b8114613eee57600080fd5b50565b600081359050613f0081613eda565b92915050565b60008060408385031215613f1d57613f1c61389a565b5b6000613f2b858286016138c5565b9250506020613f3c85828601613ef1565b9150509250929050565b613f4f81613a10565b8114613f5a57600080fd5b50565b600081359050613f6c81613f46565b92915050565b60008060408385031215613f8957613f8861389a565b5b6000613f9785828601613f5d565b9250506020613fa8858286016138c5565b9150509250929050565b613fbb81613ca2565b82525050565b6000602082019050613fd66000830184613fb2565b92915050565b600060208284031215613ff257613ff161389a565b5b600061400084828501613923565b91505092915050565b600060608201905061401e6000830186613a73565b61402b6020830185613a73565b6140386040830184613a73565b949350505050565b60006040820190506140556000830185613a73565b6140626020830184613fb2565b9392505050565b60006020828403121561407f5761407e61389a565b5b600061408d84828501613ef1565b91505092915050565b60008060a083850312156140ad576140ac61389a565b5b600083013567ffffffffffffffff8111156140cb576140ca61389f565b5b6140d785828601613c6f565b92505060206140e885828601613cd8565b9150509250929050565b6140fb816138fa565b82525050565b60006080820190506141166000830187613fb2565b6141236020830186613fb2565b6141306040830185613a73565b61413d60608301846140f2565b95945050505050565b61414f816138a4565b82525050565b60608201600082015161416b6000850182614146565b50602082015161417e6020850182614146565b5060408201516141916040850182614146565b50505050565b60006060820190506141ac6000830184614155565b92915050565b7f4e487b7100000000000000000000000000000000000000000000000000000000600052601160045260246000fd5b60006141ec826138a4565b91506141f7836138a4565b9250817fffffffffffffffffffffffffffffffffffffffffffffffffffffffffffffffff04831182151516156142305761422f6141b2565b5b828202905092915050565b7f4e487b7100000000000000000000000000000000000000000000000000000000600052601260045260246000fd5b6000614275826138a4565b9150614280836138a4565b9250826142905761428f61423b565b5b828204905092915050565b60006142a682613ca2565b91506142b183613ca2565b9250827f8000000000000000000000000000000000000000000000000000000000000000018212600084121516156142ec576142eb6141b2565b5b827f7fffffffffffffffffffffffffffffffffffffffffffffffffffffffffffffff018213600084121615614324576143236141b2565b5b828203905092915050565b600061433a826138a4565b9150614345836138a4565b925082821015614358576143576141b2565b5b828203905092915050565b7f4e487b7100000000000000000000000000000000000000000000000000000000600052603260045260246000fd5b600060c0820190506143a76000830189613e5e565b6143b460208301886140f2565b6143c16040830187613fb2565b6143ce6060830186613fb2565b6143db6080830185613a73565b6143e860a0830184613a73565b979650505050505050565b600082825260208201905092915050565b7f486f757365506f6f6c555344433a20696e76616c6964207369676e6174757265600082015250565b600061443a6020836143f3565b915061444582614404565b602082019050919050565b600060208201905081810360008301526144698161442d565b9050919050565b7f486f757365506f6f6c555344433a20696e76616c6964207369676e6572000000600082015250565b60006144a6601d836143f3565b91506144b182614470565b602082019050919050565b600060208201905081810360008301526144d581614499565b9050919050565b7f486f757365506f6f6c555344433a20756e617574686f7269736564207369676e60008201527f6572000000000000000000000000000000000000000000000000000000000000602082015250565b60006145386022836143f3565b9150614543826144dc565b604082019050919050565b600060208201905081810360008301526145678161452b565b9050919050565b7f486f757365506f6f6c555344433a207369676e6564207472616e73616374696f60008201527f6e20657870697265640000000000000000000000000000000000000000000000602082015250565b60006145ca6029836143f3565b91506145d58261456e565b604082019050919050565b600060208201905081810360008301526145f9816145bd565b9050919050565b600061460b826138a4565b91507fffffffffffffffffffffffffffffffffffffffffffffffffffffffffffffffff82141561463e5761463d6141b2565b5b600182019050919050565b7f416363657373436f6e74726f6c3a2063616e206f6e6c792072656e6f756e636560008201527f20726f6c657320666f722073656c660000000000000000000000000000000000602082015250565b60006146a5602f836143f3565b91506146b082614649565b604082019050919050565b600060208201905081810360008301526146d481614698565b9050919050565b60006146e6826138a4565b91506146f1836138a4565b9250827fffffffffffffffffffffffffffffffffffffffffffffffffffffffffffffffff03821115614726576147256141b2565b5b828201905092915050565b600061473c82613ca2565b915061474783613ca2565b9250817f7fffffffffffffffffffffffffffffffffffffffffffffffffffffffffffffff03831360008312151615614782576147816141b2565b5b817f80000000000000000000000000000000000000000000000000000000000000000383126000831216156147ba576147b96141b2565b5b828201905092915050565b7f4661726d2065786973747320616c726561647900000000000000000000000000600082015250565b60006147fb6013836143f3565b9150614806826147c5565b602082019050919050565b6000602082019050818103600083015261482a816147ee565b9050919050565b600060208201905061484660008301846140f2565b92915050565b60008151905061485b816138ae565b92915050565b6000602082840312156148775761487661389a565b5b60006148858482850161484c565b91505092915050565b60006040820190506148a360008301856140f2565b6148b06020830184613a73565b9392505050565b7f5265656e7472616e637947756172643a207265656e7472616e742063616c6c00600082015250565b60006148ed601f836143f3565b91506148f8826148b7565b602082019050919050565b6000602082019050818103600083015261491c816148e0565b9050919050565b7f55534443486f757365506f6f6c3a205a65726f20416d6f756e74000000000000600082015250565b6000614959601a836143f3565b915061496482614923565b602082019050919050565b600060208201905081810360008301526149888161494c565b9050919050565b60008160011c9050919050565b6000808291508390505b60018511156149e6578086048111156149c2576149c16141b2565b5b60018516156149d15780820291505b80810290506149df8561498f565b94506149a6565b94509492505050565b6000826149ff5760019050614abb565b81614a0d5760009050614abb565b8160018114614a235760028114614a2d57614a5c565b6001915050614abb565b60ff841115614a3f57614a3e6141b2565b5b8360020a915084821115614a5657614a556141b2565b5b50614abb565b5060208310610133831016604e8410600b8410161715614a915782820a905083811115614a8c57614a8b6141b2565b5b614abb565b614a9e848484600161499c565b92509050818404811115614ab557614ab46141b2565b5b81810290505b9392505050565b6000614acd826138a4565b9150614ad8836138a4565b9250614b057fffffffffffffffffffffffffffffffffffffffffffffffffffffffffffffffff84846149ef565b905092915050565b6000614b1882613ca2565b9150614b2383613ca2565b9250827f7fffffffffffffffffffffffffffffffffffffffffffffffffffffffffffffff0482116000841360008413161615614b6257614b616141b2565b5b817f80000000000000000000000000000000000000000000000000000000000000000583126000841260008413161615614b9f57614b9e6141b2565b5b827f80000000000000000000000000000000000000000000000000000000000000000582126000841360008412161615614bdc57614bdb6141b2565b5b827f7fffffffffffffffffffffffffffffffffffffffffffffffffffffffffffffff0582126000841260008412161615614c1957614c186141b2565b5b828202905092915050565b7f55534443486f757365506f6f6c203a2063616e27742077697468647261770000600082015250565b6000614c5a601e836143f3565b9150614c6582614c24565b602082019050919050565b60006020820190508181036000830152614c8981614c4d565b9050919050565b600081519050614c9f81613f46565b92915050565b600060208284031215614cbb57614cba61389a565b5b6000614cc984828501614c90565b91505092915050565b7f496e76616c696420616464726573730000000000000000000000000000000000600082015250565b6000614d08600f836143f3565b9150614d1382614cd2565b602082019050919050565b60006020820190508181036000830152614d3781614cfb565b9050919050565b7f4e487b7100000000000000000000000000000000000000000000000000000000600052602160045260246000fd5b600081519050919050565b600082825260208201905092915050565b60005b83811015614da7578082015181840152602081019050614d8c565b83811115614db6576000848401525b50505050565b6000614dc782614d6d565b614dd18185614d78565b9350614de1818560208601614d89565b614dea81613b61565b840191505092915050565b6000604082019050614e0a6000830185613e5e565b8181036020830152614e1c8184614dbc565b90509392505050565b600081905092915050565b6000614e3b82614d6d565b614e458185614e25565b9350614e55818560208601614d89565b80840191505092915050565b6000614e6d8284614e30565b915081905092915050565b600081519050614e87816139b7565b92915050565b600060208284031215614ea357614ea261389a565b5b6000614eb184828501614e78565b91505092915050565b7f55534443486f757365506f6f6c3a20436865636b207468652042616c616e6365600082015250565b6000614ef06020836143f3565b9150614efb82614eba565b602082019050919050565b60006020820190508181036000830152614f1f81614ee3565b9050919050565b6000606082019050614f3b60008301866140f2565b614f4860208301856140f2565b614f556040830184613a73565b949350505050565b600081905092915050565b7f416363657373436f6e74726f6c3a206163636f756e7420000000000000000000600082015250565b6000614f9e601783614f5d565b9150614fa982614f68565b601782019050919050565b600081519050919050565b6000614fca82614fb4565b614fd48185614f5d565b9350614fe4818560208601614d89565b80840191505092915050565b7f206973206d697373696e6720726f6c6520000000000000000000000000000000600082015250565b6000615026601183614f5d565b915061503182614ff0565b601182019050919050565b600061504782614f91565b91506150538285614fbf565b915061505e82615019565b915061506a8284614fbf565b91508190509392505050565b600061508182614fb4565b61508b81856143f3565b935061509b818560208601614d89565b6150a481613b61565b840191505092915050565b600060208201905081810360008301526150c98184615076565b905092915050565b7f5361666545524332303a204552433230206f7065726174696f6e20646964206e60008201527f6f74207375636365656400000000000000000000000000000000000000000000602082015250565b600061512d602a836143f3565b9150615138826150d1565b604082019050919050565b6000602082019050818103600083015261515c81615120565b9050919050565b7f1901000000000000000000000000000000000000000000000000000000000000600082015250565b6000615199600283614f5d565b91506151a482615163565b600282019050919050565b6000819050919050565b6151ca6151c582613dfb565b6151af565b82525050565b60006151db8261518c565b91506151e782856151b9565b6020820191506151f782846151b9565b6020820191508190509392505050565b6000615212826138a4565b91506000821415615226576152256141b2565b5b600182039050919050565b7f537472696e67733a20686578206c656e67746820696e73756666696369656e74600082015250565b60006152676020836143f3565b915061527282615231565b602082019050919050565b600060208201905081810360008301526152968161525a565b9050919050565b600060a0820190506152b26000830188613e5e565b6152bf6020830187613e5e565b6152cc6040830186613e5e565b6152d96060830185613a73565b6152e660808301846140f2565b9695505050505050565b600060ff82169050919050565b615306816152f0565b82525050565b60006080820190506153216000830187613e5e565b61532e60208301866152fd565b61533b6040830185613e5e565b6153486060830184613e5e565b95945050505050565b7f416464726573733a20696e73756666696369656e742062616c616e636520666f60008201527f722063616c6c0000000000000000000000000000000000000000000000000000602082015250565b60006153ad6026836143f3565b91506153b882615351565b604082019050919050565b600060208201905081810360008301526153dc816153a0565b9050919050565b7f416464726573733a2063616c6c20746f206e6f6e2d636f6e7472616374000000600082015250565b6000615419601d836143f3565b9150615424826153e3565b602082019050919050565b600060208201905081810360008301526154488161540c565b905091905056fea2646970667358221220e56a9d6f985d92140c7b4f210ab73892956ac22abf0c2f31f6b860ee5ae1160564736f6c634300080a0033",
  "linkReferences": {},
  "deployedLinkReferences": {}
}