{
  "_format": "hh-sol-artifact-1",
  "contractName": "HousePoolUSDC",
  "sourceName": "contracts/HousePoolUSDC.sol",
  "abi": [
    {
      "anonymous": false,
      "inputs": [
        {
          "indexed": true,
          "internalType": "bytes32",
          "name": "role",
          "type": "bytes32"
        },
        {
          "indexed": true,
          "internalType": "bytes32",
          "name": "previousAdminRole",
          "type": "bytes32"
        },
        {
          "indexed": true,
          "internalType": "bytes32",
          "name": "newAdminRole",
          "type": "bytes32"
        }
      ],
      "name": "RoleAdminChanged",
      "type": "event"
    },
    {
      "anonymous": false,
      "inputs": [
        {
          "indexed": true,
          "internalType": "bytes32",
          "name": "role",
          "type": "bytes32"
        },
        {
          "indexed": true,
          "internalType": "address",
          "name": "account",
          "type": "address"
        },
        {
          "indexed": true,
          "internalType": "address",
          "name": "sender",
          "type": "address"
        }
      ],
      "name": "RoleGranted",
      "type": "event"
    },
    {
      "anonymous": false,
      "inputs": [
        {
          "indexed": true,
          "internalType": "bytes32",
          "name": "role",
          "type": "bytes32"
        },
        {
          "indexed": true,
          "internalType": "address",
          "name": "account",
          "type": "address"
        },
        {
          "indexed": true,
          "internalType": "address",
          "name": "sender",
          "type": "address"
        }
      ],
      "name": "RoleRevoked",
      "type": "event"
    },
    {
      "inputs": [],
      "name": "DATA_PROVIDER_ORACLE",
      "outputs": [
        {
          "internalType": "bytes32",
          "name": "",
          "type": "bytes32"
        }
      ],
      "stateMutability": "view",
      "type": "function"
    },
    {
      "inputs": [],
      "name": "DEFAULT_ADMIN_ROLE",
      "outputs": [
        {
          "internalType": "bytes32",
          "name": "",
          "type": "bytes32"
        }
      ],
      "stateMutability": "view",
      "type": "function"
    },
    {
      "inputs": [],
      "name": "HOUSE_POOL_DATA_PROVIDER",
      "outputs": [
        {
          "internalType": "bytes32",
          "name": "",
          "type": "bytes32"
        }
      ],
      "stateMutability": "view",
      "type": "function"
    },
    {
      "inputs": [
        {
          "internalType": "uint256",
          "name": "amountUSDC",
          "type": "uint256"
        },
        {
          "internalType": "bytes",
          "name": "approval",
          "type": "bytes"
        },
        {
          "components": [
            {
              "internalType": "int256",
              "name": "expectedValue",
              "type": "int256"
            },
            {
              "internalType": "int256",
              "name": "maxExposure",
              "type": "int256"
            },
            {
              "internalType": "uint256",
              "name": "deadline",
              "type": "uint256"
            },
            {
              "internalType": "address",
              "name": "signer",
              "type": "address"
            }
          ],
          "internalType": "struct HousePoolUSDC.ValuesOfInterest",
          "name": "approvedValues",
          "type": "tuple"
        }
      ],
      "name": "deposit",
      "outputs": [],
      "stateMutability": "nonpayable",
      "type": "function"
    },
    {
      "inputs": [
        {
          "internalType": "uint256",
          "name": "usdcMicro",
          "type": "uint256"
        }
      ],
      "name": "deposit_",
      "outputs": [],
      "stateMutability": "nonpayable",
      "type": "function"
    },
    {
      "inputs": [],
      "name": "getEV",
      "outputs": [
        {
          "internalType": "int256",
          "name": "",
          "type": "int256"
        }
      ],
      "stateMutability": "view",
      "type": "function"
    },
    {
      "inputs": [],
      "name": "getLiquidityStatus",
      "outputs": [
        {
          "internalType": "uint256",
          "name": "",
          "type": "uint256"
        }
      ],
      "stateMutability": "view",
      "type": "function"
    },
    {
      "inputs": [],
      "name": "getMaxExposure",
      "outputs": [
        {
          "internalType": "int256",
          "name": "",
          "type": "int256"
        }
      ],
      "stateMutability": "view",
      "type": "function"
    },
    {
      "inputs": [
        {
          "internalType": "address",
          "name": "_user",
          "type": "address"
        }
      ],
      "name": "getMyLiquidity",
      "outputs": [
        {
          "internalType": "uint256",
          "name": "",
          "type": "uint256"
        }
      ],
      "stateMutability": "view",
      "type": "function"
    },
    {
      "inputs": [
        {
          "internalType": "bytes32",
          "name": "role",
          "type": "bytes32"
        }
      ],
      "name": "getRoleAdmin",
      "outputs": [
        {
          "internalType": "bytes32",
          "name": "",
          "type": "bytes32"
        }
      ],
      "stateMutability": "view",
      "type": "function"
    },
    {
      "inputs": [],
      "name": "getTVLofPool",
      "outputs": [
        {
          "internalType": "int256",
          "name": "",
          "type": "int256"
        }
      ],
      "stateMutability": "view",
      "type": "function"
    },
    {
      "inputs": [],
      "name": "getTokenPrice",
      "outputs": [
        {
          "internalType": "uint256",
          "name": "",
          "type": "uint256"
        }
      ],
      "stateMutability": "view",
      "type": "function"
    },
    {
      "inputs": [],
      "name": "getTokenWithdrawlPrice",
      "outputs": [
        {
          "internalType": "uint256",
          "name": "",
          "type": "uint256"
        }
      ],
      "stateMutability": "view",
      "type": "function"
    },
    {
      "inputs": [],
      "name": "getTreasuryAmount",
      "outputs": [
        {
          "internalType": "uint256",
          "name": "",
          "type": "uint256"
        }
      ],
      "stateMutability": "view",
      "type": "function"
    },
    {
      "inputs": [
        {
          "internalType": "bytes32",
          "name": "role",
          "type": "bytes32"
        },
        {
          "internalType": "address",
          "name": "account",
          "type": "address"
        }
      ],
      "name": "grantRole",
      "outputs": [],
      "stateMutability": "nonpayable",
      "type": "function"
    },
    {
      "inputs": [
        {
          "internalType": "bytes32",
          "name": "role",
          "type": "bytes32"
        },
        {
          "internalType": "address",
          "name": "account",
          "type": "address"
        }
      ],
      "name": "hasRole",
      "outputs": [
        {
          "internalType": "bool",
          "name": "",
          "type": "bool"
        }
      ],
      "stateMutability": "view",
      "type": "function"
    },
    {
      "inputs": [
        {
          "internalType": "address",
          "name": "_owner",
          "type": "address"
        },
        {
          "internalType": "address",
          "name": "_usdc",
          "type": "address"
        },
        {
          "internalType": "address",
          "name": "_claimToken",
          "type": "address"
        },
        {
          "internalType": "string",
          "name": "_name",
          "type": "string"
        },
        {
          "internalType": "string",
          "name": "_version",
          "type": "string"
        }
      ],
      "name": "initialize",
      "outputs": [],
      "stateMutability": "nonpayable",
      "type": "function"
    },
    {
      "inputs": [
        {
          "internalType": "bytes32",
          "name": "role",
          "type": "bytes32"
        },
        {
          "internalType": "address",
          "name": "account",
          "type": "address"
        }
      ],
      "name": "renounceRole",
      "outputs": [],
      "stateMutability": "nonpayable",
      "type": "function"
    },
    {
      "inputs": [
        {
          "internalType": "bytes32",
          "name": "role",
          "type": "bytes32"
        },
        {
          "internalType": "address",
          "name": "account",
          "type": "address"
        }
      ],
      "name": "revokeRole",
      "outputs": [],
      "stateMutability": "nonpayable",
      "type": "function"
    },
    {
      "inputs": [
        {
          "internalType": "bytes",
          "name": "sig_",
          "type": "bytes"
        },
        {
          "components": [
            {
              "internalType": "int256",
              "name": "expectedValue",
              "type": "int256"
            },
            {
              "internalType": "int256",
              "name": "maxExposure",
              "type": "int256"
            },
            {
              "internalType": "uint256",
              "name": "deadline",
              "type": "uint256"
            },
            {
              "internalType": "address",
              "name": "signer",
              "type": "address"
            }
          ],
          "internalType": "struct HousePoolUSDC.ValuesOfInterest",
          "name": "voi_",
          "type": "tuple"
        }
      ],
      "name": "setVOI",
      "outputs": [],
      "stateMutability": "nonpayable",
      "type": "function"
    },
    {
      "inputs": [
        {
          "internalType": "bytes4",
          "name": "interfaceId",
          "type": "bytes4"
        }
      ],
      "name": "supportsInterface",
      "outputs": [
        {
          "internalType": "bool",
          "name": "",
          "type": "bool"
        }
      ],
      "stateMutability": "view",
      "type": "function"
    },
    {
      "inputs": [],
      "name": "voi",
      "outputs": [
        {
          "internalType": "int256",
          "name": "expectedValue",
          "type": "int256"
        },
        {
          "internalType": "int256",
          "name": "maxExposure",
          "type": "int256"
        },
        {
          "internalType": "uint256",
          "name": "deadline",
          "type": "uint256"
        },
        {
          "internalType": "address",
          "name": "signer",
          "type": "address"
        }
      ],
      "stateMutability": "view",
      "type": "function"
    },
    {
      "inputs": [
        {
          "internalType": "uint256",
          "name": "amountUSDC",
          "type": "uint256"
        },
        {
          "internalType": "bytes",
          "name": "approval",
          "type": "bytes"
        },
        {
          "components": [
            {
              "internalType": "int256",
              "name": "expectedValue",
              "type": "int256"
            },
            {
              "internalType": "int256",
              "name": "maxExposure",
              "type": "int256"
            },
            {
              "internalType": "uint256",
              "name": "deadline",
              "type": "uint256"
            },
            {
              "internalType": "address",
              "name": "signer",
              "type": "address"
            }
          ],
          "internalType": "struct HousePoolUSDC.ValuesOfInterest",
          "name": "approvedValues",
          "type": "tuple"
        }
      ],
      "name": "withdraw",
      "outputs": [],
      "stateMutability": "nonpayable",
      "type": "function"
    },
    {
      "inputs": [
        {
          "internalType": "uint256",
          "name": "usdcMicro",
          "type": "uint256"
        }
      ],
      "name": "withdraw_",
      "outputs": [],
      "stateMutability": "nonpayable",
      "type": "function"
    }
  ],
  "bytecode": "0x60806040526000606a5534801561001557600080fd5b506143cf806100256000396000f3fe608060405234801561001057600080fd5b50600436106101585760003560e01c8063639c066d116100c3578063b3ce25241161007c578063b3ce2524146103b1578063be1cd712146103cf578063cd08a1df146103f0578063d547741f1461040e578063d75d07c21461042a578063e20fcf001461044857610158565b8063639c066d146102df57806383b43589146102fb57806391d1485414610317578063a1cd223214610347578063a217fddf14610377578063a43f32411461039557610158565b806336568abe1161011557806336568abe1461022d5780633c0717fd146102495780634b94f50e14610267578063508c81a21461028557806353f52847146102a35780635a5d6223146102c157610158565b806301ffc9a71461015d5780630f5a5e181461018d57806320ab7449146101a9578063218f296e146101c5578063248a9ca3146101e15780632f2ff15d14610211575b600080fd5b61017760048036038101906101729190612a04565b610466565b6040516101849190612a4c565b60405180910390f35b6101a760048036038101906101a29190612a9d565b6104e0565b005b6101c360048036038101906101be9190612d21565b6104ec565b005b6101df60048036038101906101da9190612d21565b61072d565b005b6101fb60048036038101906101f69190612dc6565b61096e565b6040516102089190612e02565b60405180910390f35b61022b60048036038101906102269190612e1d565b61098e565b005b61024760048036038101906102429190612e1d565b6109b7565b005b610251610a3a565b60405161025e9190612e6c565b60405180910390f35b61026f610a44565b60405161027c9190612e6c565b60405180910390f35b61028d610a4e565b60405161029a9190612e02565b60405180910390f35b6102ab610a72565b6040516102b89190612e96565b60405180910390f35b6102c9610a7c565b6040516102d69190612e96565b60405180910390f35b6102f960048036038101906102f49190612a9d565b610a89565b005b61031560048036038101906103109190612f52565b610a95565b005b610331600480360381019061032c9190612e1d565b610c57565b60405161033e9190612a4c565b60405180910390f35b610361600480360381019061035c9190613005565b610cc2565b60405161036e9190612e6c565b60405180910390f35b61037f610d8c565b60405161038c9190612e02565b60405180910390f35b6103af60048036038101906103aa9190613032565b610d93565b005b6103b9610ffd565b6040516103c69190612e6c565b60405180910390f35b6103d7611007565b6040516103e7949392919061309d565b60405180910390f35b6103f8611045565b6040516104059190612e96565b60405180910390f35b61042860048036038101906104239190612e1d565b611052565b005b61043261107b565b60405161043f9190612e02565b60405180910390f35b61045061109f565b60405161045d9190612e6c565b60405180910390f35b60007f7965db0b000000000000000000000000000000000000000000000000000000007bffffffffffffffffffffffffffffffffffffffffffffffffffffffff1916827bffffffffffffffffffffffffffffffffffffffffffffffffffffffff191614806104d957506104d8826110a9565b5b9050919050565b6104e981611113565b50565b8082600061059c7f382f778b38ac8a684a068262bd90ef9739279743851e0bc20a2bf85f56a2550c84606001518560000151866020015160746000896060015173ffffffffffffffffffffffffffffffffffffffff1673ffffffffffffffffffffffffffffffffffffffff168152602001908152602001600020548860400151604051602001610581969594939291906130e2565b604051602081830303815290604052805190602001206114fe565b90506105ad83606001518284611518565b6105ec576040517f08c379a00000000000000000000000000000000000000000000000000000000081526004016105e3906131a0565b60405180910390fd5b600073ffffffffffffffffffffffffffffffffffffffff16836060015173ffffffffffffffffffffffffffffffffffffffff161415610660576040517f08c379a00000000000000000000000000000000000000000000000000000000081526004016106579061320c565b60405180910390fd5b61068e7feed754290b7b7033469899aa55827c9480fc90a4843b45b7f455d0ac50d3e6ce8460600151610c57565b6106cd576040517f08c379a00000000000000000000000000000000000000000000000000000000081526004016106c49061329e565b60405180910390fd5b82604001514310610713576040517f08c379a000000000000000000000000000000000000000000000000000000000815260040161070a90613330565b60405180910390fd5b61071c846116fd565b61072586611113565b505050505050565b808260006107dd7f382f778b38ac8a684a068262bd90ef9739279743851e0bc20a2bf85f56a2550c84606001518560000151866020015160746000896060015173ffffffffffffffffffffffffffffffffffffffff1673ffffffffffffffffffffffffffffffffffffffff1681526020019081526020016000205488604001516040516020016107c2969594939291906130e2565b604051602081830303815290604052805190602001206114fe565b90506107ee83606001518284611518565b61082d576040517f08c379a0000000000000000000000000000000000000000000000000000000008152600401610824906131a0565b60405180910390fd5b600073ffffffffffffffffffffffffffffffffffffffff16836060015173ffffffffffffffffffffffffffffffffffffffff1614156108a1576040517f08c379a00000000000000000000000000000000000000000000000000000000081526004016108989061320c565b60405180910390fd5b6108cf7feed754290b7b7033469899aa55827c9480fc90a4843b45b7f455d0ac50d3e6ce8460600151610c57565b61090e576040517f08c379a00000000000000000000000000000000000000000000000000000000081526004016109059061329e565b60405180910390fd5b82604001514310610954576040517f08c379a000000000000000000000000000000000000000000000000000000000815260040161094b90613330565b60405180910390fd5b61095d846116fd565b6109668661173c565b505050505050565b600060336000838152602001908152602001600020600101549050919050565b6109978261096e565b6109a8816109a3611a7f565b611a87565b6109b28383611b24565b505050565b6109bf611a7f565b73ffffffffffffffffffffffffffffffffffffffff168173ffffffffffffffffffffffffffffffffffffffff1614610a2c576040517f08c379a0000000000000000000000000000000000000000000000000000000008152600401610a23906133c2565b60405180910390fd5b610a368282611c05565b5050565b6000606954905090565b6000607254905090565b7fce95e3899a3f9149fc26a34674875210907ee3c0dddf61ac603f89e90c1b5f9e81565b6000606b54905090565b6000606e60010154905090565b610a928161173c565b50565b600060019054906101000a900460ff16610abd5760008054906101000a900460ff1615610ac6565b610ac5611ce7565b5b610b05576040517f08c379a0000000000000000000000000000000000000000000000000000000008152600401610afc90613454565b60405180910390fd5b60008060019054906101000a900460ff161590508015610b55576001600060016101000a81548160ff02191690831515021790555060016000806101000a81548160ff0219169083151502179055505b610b5f8383611cf8565b84606c60006101000a81548173ffffffffffffffffffffffffffffffffffffffff021916908373ffffffffffffffffffffffffffffffffffffffff16021790555083606d60006101000a81548173ffffffffffffffffffffffffffffffffffffffff021916908373ffffffffffffffffffffffffffffffffffffffff160217905550610bee6000801b87611d55565b6012600a610bfc91906135d6565b6064610c089190613621565b6072819055506012600a610c1c91906135d6565b6064610c289190613621565b6073819055508015610c4f5760008060016101000a81548160ff0219169083151502179055505b505050505050565b60006033600084815260200190815260200160002060000160008373ffffffffffffffffffffffffffffffffffffffff1673ffffffffffffffffffffffffffffffffffffffff16815260200190815260200160002060009054906101000a900460ff16905092915050565b60006012600a610cd291906135d6565b607254606d60009054906101000a900473ffffffffffffffffffffffffffffffffffffffff1673ffffffffffffffffffffffffffffffffffffffff166370a08231856040518263ffffffff1660e01b8152600401610d30919061367b565b602060405180830381865afa158015610d4d573d6000803e3d6000fd5b505050506040513d601f19601f82011682018060405250810190610d7191906136ab565b610d7b9190613621565b610d859190613707565b9050919050565b6000801b81565b80826000610e437f382f778b38ac8a684a068262bd90ef9739279743851e0bc20a2bf85f56a2550c84606001518560000151866020015160746000896060015173ffffffffffffffffffffffffffffffffffffffff1673ffffffffffffffffffffffffffffffffffffffff168152602001908152602001600020548860400151604051602001610e28969594939291906130e2565b604051602081830303815290604052805190602001206114fe565b9050610e5483606001518284611518565b610e93576040517f08c379a0000000000000000000000000000000000000000000000000000000008152600401610e8a906131a0565b60405180910390fd5b600073ffffffffffffffffffffffffffffffffffffffff16836060015173ffffffffffffffffffffffffffffffffffffffff161415610f07576040517f08c379a0000000000000000000000000000000000000000000000000000000008152600401610efe9061320c565b60405180910390fd5b610f357feed754290b7b7033469899aa55827c9480fc90a4843b45b7f455d0ac50d3e6ce8460600151610c57565b610f74576040517f08c379a0000000000000000000000000000000000000000000000000000000008152600401610f6b9061329e565b60405180910390fd5b82604001514310610fba576040517f08c379a0000000000000000000000000000000000000000000000000000000008152600401610fb190613330565b60405180910390fd5b7fce95e3899a3f9149fc26a34674875210907ee3c0dddf61ac603f89e90c1b5f9e610fec81610fe7611a7f565b611a87565b610ff5856116fd565b505050505050565b6000607354905090565b606e8060000154908060010154908060020154908060030160009054906101000a900473ffffffffffffffffffffffffffffffffffffffff16905084565b6000606e60000154905090565b61105b8261096e565b61106c81611067611a7f565b611a87565b6110768383611c05565b505050565b7feed754290b7b7033469899aa55827c9480fc90a4843b45b7f455d0ac50d3e6ce81565b6000606a54905090565b60007f01ffc9a7000000000000000000000000000000000000000000000000000000007bffffffffffffffffffffffffffffffffffffffffffffffffffffffff1916827bffffffffffffffffffffffffffffffffffffffffffffffffffffffff1916149050919050565b60026001541415611159576040517f08c379a000000000000000000000000000000000000000000000000000000000815260040161115090613784565b60405180910390fd5b6002600181905550600081116111a4576040517f08c379a000000000000000000000000000000000000000000000000000000000815260040161119b906137f0565b60405180910390fd5b6073546012600a6111b591906135d6565b606d60009054906101000a900473ffffffffffffffffffffffffffffffffffffffff1673ffffffffffffffffffffffffffffffffffffffff166370a08231336040518263ffffffff1660e01b8152600401611210919061367b565b602060405180830381865afa15801561122d573d6000803e3d6000fd5b505050506040513d601f19601f8201168201806040525081019061125191906136ab565b61125b9190613707565b6112659190613621565b600c600a61127391906135d6565b8261127e9190613621565b111580156112b65750606e6001015460695461129a9190613810565b600c600a6112a891906135d6565b826112b391906138a4565b13155b6112f5576040517f08c379a00000000000000000000000000000000000000000000000000000000081526004016112ec90613a07565b60405180910390fd5b60006073546012600a61130891906135d6565b600c600a61131691906135d6565b846113219190613621565b61132b9190613621565b6113359190613707565b9050600c600a61134591906135d6565b826113509190613621565b606960008282546113619190613a27565b92505081905550600c600a61137691906135d6565b8261138191906138a4565b606b60008282546113929190613810565b92505081905550600c600a6113a791906135d6565b826113b29190613621565b607560003373ffffffffffffffffffffffffffffffffffffffff1673ffffffffffffffffffffffffffffffffffffffff16815260200190815260200160002060008282546114009190613a27565b925050819055506114543383606c60009054906101000a900473ffffffffffffffffffffffffffffffffffffffff1673ffffffffffffffffffffffffffffffffffffffff16611d639092919063ffffffff16565b606d60009054906101000a900473ffffffffffffffffffffffffffffffffffffffff1673ffffffffffffffffffffffffffffffffffffffff16639dc29fac33836040518363ffffffff1660e01b81526004016114b1929190613a5b565b600060405180830381600087803b1580156114cb57600080fd5b505af11580156114df573d6000803e3d6000fd5b505050506114eb611de9565b6114f3611f40565b506001808190555050565b600061151161150b612097565b836120d7565b9050919050565b6000806000611527858561210a565b915091506000600481111561153f5761153e613a84565b5b81600481111561155257611551613a84565b5b14801561158a57508573ffffffffffffffffffffffffffffffffffffffff168273ffffffffffffffffffffffffffffffffffffffff16145b1561159a576001925050506116f6565b6000808773ffffffffffffffffffffffffffffffffffffffff16631626ba7e60e01b88886040516024016115cf929190613b3b565b604051602081830303815290604052907bffffffffffffffffffffffffffffffffffffffffffffffffffffffff19166020820180517bffffffffffffffffffffffffffffffffffffffffffffffffffffffff83818316178352505050506040516116399190613ba7565b600060405180830381855afa9150503d8060008114611674576040519150601f19603f3d011682016040523d82523d6000602084013e611679565b606091505b509150915081801561168c575060208151145b80156116ef5750631626ba7e60e01b7bffffffffffffffffffffffffffffffffffffffffffffffffffffffff1916818060200190518101906116ce9190613bd3565b7bffffffffffffffffffffffffffffffffffffffffffffffffffffffff1916145b9450505050505b9392505050565b606e6000015481600001511461171b5761171a816000015161218d565b5b606e600101548160200151146117395761173881602001516121ab565b5b50565b60026001541415611782576040517f08c379a000000000000000000000000000000000000000000000000000000000815260040161177990613784565b60405180910390fd5b60026001819055506000811180156118355750606c60009054906101000a900473ffffffffffffffffffffffffffffffffffffffff1673ffffffffffffffffffffffffffffffffffffffff166370a08231336040518263ffffffff1660e01b81526004016117f0919061367b565b602060405180830381865afa15801561180d573d6000803e3d6000fd5b505050506040513d601f19601f8201168201806040525081019061183191906136ab565b8111155b611874576040517f08c379a000000000000000000000000000000000000000000000000000000000815260040161186b90613c4c565b60405180910390fd5b600c600a61188291906135d6565b8161188d9190613621565b6069600082825461189e9190613c6c565b92505081905550600c600a6118b391906135d6565b816118be9190613621565b606b60008282546118cf9190613cc2565b92505081905550600c600a6118e491906135d6565b816118ef9190613621565b607560003373ffffffffffffffffffffffffffffffffffffffff1673ffffffffffffffffffffffffffffffffffffffff168152602001908152602001600020600082825461193d9190613c6c565b92505081905550611993333083606c60009054906101000a900473ffffffffffffffffffffffffffffffffffffffff1673ffffffffffffffffffffffffffffffffffffffff166121b8909392919063ffffffff16565b60006072546012600a6119a691906135d6565b600c600a6119b491906135d6565b846119bf9190613621565b6119c99190613621565b6119d39190613707565b9050606d60009054906101000a900473ffffffffffffffffffffffffffffffffffffffff1673ffffffffffffffffffffffffffffffffffffffff166340c10f1933836040518363ffffffff1660e01b8152600401611a32929190613a5b565b600060405180830381600087803b158015611a4c57600080fd5b505af1158015611a60573d6000803e3d6000fd5b50505050611a6c611f40565b611a74611de9565b506001808190555050565b600033905090565b611a918282610c57565b611b2057611ab68173ffffffffffffffffffffffffffffffffffffffff166014612241565b611ac48360001c6020612241565b604051602001611ad5929190613e35565b6040516020818303038152906040526040517f08c379a0000000000000000000000000000000000000000000000000000000008152600401611b179190613ea8565b60405180910390fd5b5050565b611b2e8282610c57565b611c015760016033600084815260200190815260200160002060000160008373ffffffffffffffffffffffffffffffffffffffff1673ffffffffffffffffffffffffffffffffffffffff16815260200190815260200160002060006101000a81548160ff021916908315150217905550611ba6611a7f565b73ffffffffffffffffffffffffffffffffffffffff168173ffffffffffffffffffffffffffffffffffffffff16837f2f8788117e7eff1d82e926ec794901d17c78024a50270940304540a733656f0d60405160405180910390a45b5050565b611c0f8282610c57565b15611ce35760006033600084815260200190815260200160002060000160008373ffffffffffffffffffffffffffffffffffffffff1673ffffffffffffffffffffffffffffffffffffffff16815260200190815260200160002060006101000a81548160ff021916908315150217905550611c88611a7f565b73ffffffffffffffffffffffffffffffffffffffff168173ffffffffffffffffffffffffffffffffffffffff16837ff6391f5c32d9c69d2a47ea670b442974b53935d1edc7fd64eb21e047a839171b60405160405180910390a45b5050565b6000611cf23061247d565b15905090565b600060019054906101000a900460ff16611d47576040517f08c379a0000000000000000000000000000000000000000000000000000000008152600401611d3e90613f3c565b60405180910390fd5b611d5182826124a0565b5050565b611d5f8282611b24565b5050565b611de48363a9059cbb60e01b8484604051602401611d82929190613a5b565b604051602081830303815290604052907bffffffffffffffffffffffffffffffffffffffffffffffffffffffff19166020820180517bffffffffffffffffffffffffffffffffffffffffffffffffffffffff838183161783525050505061251b565b505050565b6000606d60009054906101000a900473ffffffffffffffffffffffffffffffffffffffff1673ffffffffffffffffffffffffffffffffffffffff166318160ddd6040518163ffffffff1660e01b8152600401602060405180830381865afa158015611e58573d6000803e3d6000fd5b505050506040513d601f19601f82011682018060405250810190611e7c91906136ab565b14611f3e57606d60009054906101000a900473ffffffffffffffffffffffffffffffffffffffff1673ffffffffffffffffffffffffffffffffffffffff166318160ddd6040518163ffffffff1660e01b8152600401602060405180830381865afa158015611eee573d6000803e3d6000fd5b505050506040513d601f19601f82011682018060405250810190611f1291906136ab565b6012600a611f2091906135d6565b606954611f2d9190613621565b611f379190613707565b6073819055505b565b6000606d60009054906101000a900473ffffffffffffffffffffffffffffffffffffffff1673ffffffffffffffffffffffffffffffffffffffff166318160ddd6040518163ffffffff1660e01b8152600401602060405180830381865afa158015611faf573d6000803e3d6000fd5b505050506040513d601f19601f82011682018060405250810190611fd391906136ab565b1461209557606d60009054906101000a900473ffffffffffffffffffffffffffffffffffffffff1673ffffffffffffffffffffffffffffffffffffffff166318160ddd6040518163ffffffff1660e01b8152600401602060405180830381865afa158015612045573d6000803e3d6000fd5b505050506040513d601f19601f8201168201806040525081019061206991906136ab565b6012600a61207791906135d6565b606b546120849190613621565b61208e9190613707565b6072819055505b565b60006120d27f8b73c3c69bb8fe3d512ecc4cf759cc79239f7b179b0ffacaa9a75d522b39400f6120c56125e2565b6120cd6125ec565b6125f6565b905090565b600082826040516020016120ec929190613fc9565b60405160208183030381529060405280519060200120905092915050565b60008060418351141561214c5760008060006020860151925060408601519150606086015160001a905061214087828585612630565b94509450505050612186565b60408351141561217d57600080602085015191506040850151905061217286838361273d565b935093505050612186565b60006002915091505b9250929050565b6121968161278b565b80606e600001819055506121a8611f40565b50565b80606e6001018190555050565b61223b846323b872dd60e01b8585856040516024016121d993929190614000565b604051602081830303815290604052907bffffffffffffffffffffffffffffffffffffffffffffffffffffffff19166020820180517bffffffffffffffffffffffffffffffffffffffffffffffffffffffff838183161783525050505061251b565b50505050565b6060600060028360026122549190613621565b61225e9190613c6c565b67ffffffffffffffff81111561227757612276612ae5565b5b6040519080825280601f01601f1916602001820160405280156122a95781602001600182028036833780820191505090505b5090507f3000000000000000000000000000000000000000000000000000000000000000816000815181106122e1576122e0614037565b5b60200101907effffffffffffffffffffffffffffffffffffffffffffffffffffffffffffff1916908160001a9053507f78000000000000000000000000000000000000000000000000000000000000008160018151811061234557612344614037565b5b60200101907effffffffffffffffffffffffffffffffffffffffffffffffffffffffffffff1916908160001a905350600060018460026123859190613621565b61238f9190613c6c565b90505b600181111561242f577f3031323334353637383961626364656600000000000000000000000000000000600f8616601081106123d1576123d0614037565b5b1a60f81b8282815181106123e8576123e7614037565b5b60200101907effffffffffffffffffffffffffffffffffffffffffffffffffffffffffffff1916908160001a905350600485901c94508061242890614066565b9050612392565b5060008414612473576040517f08c379a000000000000000000000000000000000000000000000000000000000815260040161246a906140dc565b60405180910390fd5b8091505092915050565b6000808273ffffffffffffffffffffffffffffffffffffffff163b119050919050565b600060019054906101000a900460ff166124ef576040517f08c379a00000000000000000000000000000000000000000000000000000000081526004016124e690613f3c565b60405180910390fd5b600082805190602001209050600082805190602001209050816034819055508060358190555050505050565b600061257d826040518060400160405280602081526020017f5361666545524332303a206c6f772d6c6576656c2063616c6c206661696c65648152508573ffffffffffffffffffffffffffffffffffffffff166127f29092919063ffffffff16565b90506000815111156125dd578080602001905181019061259d9190614128565b6125dc576040517f08c379a00000000000000000000000000000000000000000000000000000000081526004016125d3906141c7565b60405180910390fd5b5b505050565b6000603454905090565b6000603554905090565b600083838346306040516020016126119594939291906141e7565b6040516020818303038152906040528051906020012090509392505050565b6000807f7fffffffffffffffffffffffffffffff5d576e7357a4501ddfe92f46681b20a08360001c111561266b576000600391509150612734565b601b8560ff16141580156126835750601c8560ff1614155b15612695576000600491509150612734565b6000600187878787604051600081526020016040526040516126ba9493929190614256565b6020604051602081039080840390855afa1580156126dc573d6000803e3d6000fd5b505050602060405103519050600073ffffffffffffffffffffffffffffffffffffffff168173ffffffffffffffffffffffffffffffffffffffff16141561272b57600060019250925050612734565b80600092509250505b94509492505050565b6000806000807f7fffffffffffffffffffffffffffffffffffffffffffffffffffffffffffffff85169150601b8560ff1c01905061277d87828885612630565b935093505050935093915050565b6000606e6000015414156127b75780606b60008282546127ab9190613cc2565b925050819055506127ef565b606e60000154606b60008282546127ce9190613810565b9250508190555080606b60008282546127e79190613cc2565b925050819055505b50565b6060612801848460008561280a565b90509392505050565b60608247101561284f576040517f08c379a00000000000000000000000000000000000000000000000000000000081526004016128469061430d565b60405180910390fd5b6128588561291e565b612897576040517f08c379a000000000000000000000000000000000000000000000000000000000815260040161288e90614379565b60405180910390fd5b6000808673ffffffffffffffffffffffffffffffffffffffff1685876040516128c09190613ba7565b60006040518083038185875af1925050503d80600081146128fd576040519150601f19603f3d011682016040523d82523d6000602084013e612902565b606091505b5091509150612912828286612931565b92505050949350505050565b600080823b905060008111915050919050565b6060831561294157829050612991565b6000835111156129545782518084602001fd5b816040517f08c379a00000000000000000000000000000000000000000000000000000000081526004016129889190613ea8565b60405180910390fd5b9392505050565b6000604051905090565b600080fd5b600080fd5b60007fffffffff0000000000000000000000000000000000000000000000000000000082169050919050565b6129e1816129ac565b81146129ec57600080fd5b50565b6000813590506129fe816129d8565b92915050565b600060208284031215612a1a57612a196129a2565b5b6000612a28848285016129ef565b91505092915050565b60008115159050919050565b612a4681612a31565b82525050565b6000602082019050612a616000830184612a3d565b92915050565b6000819050919050565b612a7a81612a67565b8114612a8557600080fd5b50565b600081359050612a9781612a71565b92915050565b600060208284031215612ab357612ab26129a2565b5b6000612ac184828501612a88565b91505092915050565b600080fd5b600080fd5b6000601f19601f8301169050919050565b7f4e487b7100000000000000000000000000000000000000000000000000000000600052604160045260246000fd5b612b1d82612ad4565b810181811067ffffffffffffffff82111715612b3c57612b3b612ae5565b5b80604052505050565b6000612b4f612998565b9050612b5b8282612b14565b919050565b600067ffffffffffffffff821115612b7b57612b7a612ae5565b5b612b8482612ad4565b9050602081019050919050565b82818337600083830152505050565b6000612bb3612bae84612b60565b612b45565b905082815260208101848484011115612bcf57612bce612acf565b5b612bda848285612b91565b509392505050565b600082601f830112612bf757612bf6612aca565b5b8135612c07848260208601612ba0565b91505092915050565b600080fd5b6000819050919050565b612c2881612c15565b8114612c3357600080fd5b50565b600081359050612c4581612c1f565b92915050565b600073ffffffffffffffffffffffffffffffffffffffff82169050919050565b6000612c7682612c4b565b9050919050565b612c8681612c6b565b8114612c9157600080fd5b50565b600081359050612ca381612c7d565b92915050565b600060808284031215612cbf57612cbe612c10565b5b612cc96080612b45565b90506000612cd984828501612c36565b6000830152506020612ced84828501612c36565b6020830152506040612d0184828501612a88565b6040830152506060612d1584828501612c94565b60608301525092915050565b600080600060c08486031215612d3a57612d396129a2565b5b6000612d4886828701612a88565b935050602084013567ffffffffffffffff811115612d6957612d686129a7565b5b612d7586828701612be2565b9250506040612d8686828701612ca9565b9150509250925092565b6000819050919050565b612da381612d90565b8114612dae57600080fd5b50565b600081359050612dc081612d9a565b92915050565b600060208284031215612ddc57612ddb6129a2565b5b6000612dea84828501612db1565b91505092915050565b612dfc81612d90565b82525050565b6000602082019050612e176000830184612df3565b92915050565b60008060408385031215612e3457612e336129a2565b5b6000612e4285828601612db1565b9250506020612e5385828601612c94565b9150509250929050565b612e6681612a67565b82525050565b6000602082019050612e816000830184612e5d565b92915050565b612e9081612c15565b82525050565b6000602082019050612eab6000830184612e87565b92915050565b600067ffffffffffffffff821115612ecc57612ecb612ae5565b5b612ed582612ad4565b9050602081019050919050565b6000612ef5612ef084612eb1565b612b45565b905082815260208101848484011115612f1157612f10612acf565b5b612f1c848285612b91565b509392505050565b600082601f830112612f3957612f38612aca565b5b8135612f49848260208601612ee2565b91505092915050565b600080600080600060a08688031215612f6e57612f6d6129a2565b5b6000612f7c88828901612c94565b9550506020612f8d88828901612c94565b9450506040612f9e88828901612c94565b935050606086013567ffffffffffffffff811115612fbf57612fbe6129a7565b5b612fcb88828901612f24565b925050608086013567ffffffffffffffff811115612fec57612feb6129a7565b5b612ff888828901612f24565b9150509295509295909350565b60006020828403121561301b5761301a6129a2565b5b600061302984828501612c94565b91505092915050565b60008060a08385031215613049576130486129a2565b5b600083013567ffffffffffffffff811115613067576130666129a7565b5b61307385828601612be2565b925050602061308485828601612ca9565b9150509250929050565b61309781612c6b565b82525050565b60006080820190506130b26000830187612e87565b6130bf6020830186612e87565b6130cc6040830185612e5d565b6130d9606083018461308e565b95945050505050565b600060c0820190506130f76000830189612df3565b613104602083018861308e565b6131116040830187612e87565b61311e6060830186612e87565b61312b6080830185612e5d565b61313860a0830184612e5d565b979650505050505050565b600082825260208201905092915050565b7f486f757365506f6f6c555344433a20696e76616c6964207369676e6174757265600082015250565b600061318a602083613143565b915061319582613154565b602082019050919050565b600060208201905081810360008301526131b98161317d565b9050919050565b7f486f757365506f6f6c555344433a20696e76616c6964207369676e6572000000600082015250565b60006131f6601d83613143565b9150613201826131c0565b602082019050919050565b60006020820190508181036000830152613225816131e9565b9050919050565b7f486f757365506f6f6c555344433a20756e617574686f7269736564207369676e60008201527f6572000000000000000000000000000000000000000000000000000000000000602082015250565b6000613288602283613143565b91506132938261322c565b604082019050919050565b600060208201905081810360008301526132b78161327b565b9050919050565b7f486f757365506f6f6c555344433a207369676e6564207472616e73616374696f60008201527f6e20657870697265640000000000000000000000000000000000000000000000602082015250565b600061331a602983613143565b9150613325826132be565b604082019050919050565b600060208201905081810360008301526133498161330d565b9050919050565b7f416363657373436f6e74726f6c3a2063616e206f6e6c792072656e6f756e636560008201527f20726f6c657320666f722073656c660000000000000000000000000000000000602082015250565b60006133ac602f83613143565b91506133b782613350565b604082019050919050565b600060208201905081810360008301526133db8161339f565b9050919050565b7f496e697469616c697a61626c653a20636f6e747261637420697320616c72656160008201527f647920696e697469616c697a6564000000000000000000000000000000000000602082015250565b600061343e602e83613143565b9150613449826133e2565b604082019050919050565b6000602082019050818103600083015261346d81613431565b9050919050565b7f4e487b7100000000000000000000000000000000000000000000000000000000600052601160045260246000fd5b60008160011c9050919050565b6000808291508390505b60018511156134fa578086048111156134d6576134d5613474565b5b60018516156134e55780820291505b80810290506134f3856134a3565b94506134ba565b94509492505050565b60008261351357600190506135cf565b8161352157600090506135cf565b8160018114613537576002811461354157613570565b60019150506135cf565b60ff84111561355357613552613474565b5b8360020a91508482111561356a57613569613474565b5b506135cf565b5060208310610133831016604e8410600b84101617156135a55782820a9050838111156135a05761359f613474565b5b6135cf565b6135b284848460016134b0565b925090508184048111156135c9576135c8613474565b5b81810290505b9392505050565b60006135e182612a67565b91506135ec83612a67565b92506136197fffffffffffffffffffffffffffffffffffffffffffffffffffffffffffffffff8484613503565b905092915050565b600061362c82612a67565b915061363783612a67565b9250817fffffffffffffffffffffffffffffffffffffffffffffffffffffffffffffffff04831182151516156136705761366f613474565b5b828202905092915050565b6000602082019050613690600083018461308e565b92915050565b6000815190506136a581612a71565b92915050565b6000602082840312156136c1576136c06129a2565b5b60006136cf84828501613696565b91505092915050565b7f4e487b7100000000000000000000000000000000000000000000000000000000600052601260045260246000fd5b600061371282612a67565b915061371d83612a67565b92508261372d5761372c6136d8565b5b828204905092915050565b7f5265656e7472616e637947756172643a207265656e7472616e742063616c6c00600082015250565b600061376e601f83613143565b915061377982613738565b602082019050919050565b6000602082019050818103600083015261379d81613761565b9050919050565b7f55534443486f757365506f6f6c3a205a65726f20416d6f756e74000000000000600082015250565b60006137da601a83613143565b91506137e5826137a4565b602082019050919050565b60006020820190508181036000830152613809816137cd565b9050919050565b600061381b82612c15565b915061382683612c15565b9250827f80000000000000000000000000000000000000000000000000000000000000000182126000841215161561386157613860613474565b5b827f7fffffffffffffffffffffffffffffffffffffffffffffffffffffffffffffff01821360008412161561389957613898613474565b5b828203905092915050565b60006138af82612c15565b91506138ba83612c15565b9250827f7fffffffffffffffffffffffffffffffffffffffffffffffffffffffffffffff04821160008413600084131616156138f9576138f8613474565b5b817f8000000000000000000000000000000000000000000000000000000000000000058312600084126000841316161561393657613935613474565b5b827f8000000000000000000000000000000000000000000000000000000000000000058212600084136000841216161561397357613972613474565b5b827f7fffffffffffffffffffffffffffffffffffffffffffffffffffffffffffffff05821260008412600084121616156139b0576139af613474565b5b828202905092915050565b7f55534443486f757365506f6f6c203a2063616e27742077697468647261770000600082015250565b60006139f1601e83613143565b91506139fc826139bb565b602082019050919050565b60006020820190508181036000830152613a20816139e4565b9050919050565b6000613a3282612a67565b9150613a3d83612a67565b925082821015613a5057613a4f613474565b5b828203905092915050565b6000604082019050613a70600083018561308e565b613a7d6020830184612e5d565b9392505050565b7f4e487b7100000000000000000000000000000000000000000000000000000000600052602160045260246000fd5b600081519050919050565b600082825260208201905092915050565b60005b83811015613aed578082015181840152602081019050613ad2565b83811115613afc576000848401525b50505050565b6000613b0d82613ab3565b613b178185613abe565b9350613b27818560208601613acf565b613b3081612ad4565b840191505092915050565b6000604082019050613b506000830185612df3565b8181036020830152613b628184613b02565b90509392505050565b600081905092915050565b6000613b8182613ab3565b613b8b8185613b6b565b9350613b9b818560208601613acf565b80840191505092915050565b6000613bb38284613b76565b915081905092915050565b600081519050613bcd816129d8565b92915050565b600060208284031215613be957613be86129a2565b5b6000613bf784828501613bbe565b91505092915050565b7f55534443486f757365506f6f6c3a20436865636b207468652042616c616e6365600082015250565b6000613c36602083613143565b9150613c4182613c00565b602082019050919050565b60006020820190508181036000830152613c6581613c29565b9050919050565b6000613c7782612a67565b9150613c8283612a67565b9250827fffffffffffffffffffffffffffffffffffffffffffffffffffffffffffffffff03821115613cb757613cb6613474565b5b828201905092915050565b6000613ccd82612c15565b9150613cd883612c15565b9250817f7fffffffffffffffffffffffffffffffffffffffffffffffffffffffffffffff03831360008312151615613d1357613d12613474565b5b817f8000000000000000000000000000000000000000000000000000000000000000038312600083121615613d4b57613d4a613474565b5b828201905092915050565b600081905092915050565b7f416363657373436f6e74726f6c3a206163636f756e7420000000000000000000600082015250565b6000613d97601783613d56565b9150613da282613d61565b601782019050919050565b600081519050919050565b6000613dc382613dad565b613dcd8185613d56565b9350613ddd818560208601613acf565b80840191505092915050565b7f206973206d697373696e6720726f6c6520000000000000000000000000000000600082015250565b6000613e1f601183613d56565b9150613e2a82613de9565b601182019050919050565b6000613e4082613d8a565b9150613e4c8285613db8565b9150613e5782613e12565b9150613e638284613db8565b91508190509392505050565b6000613e7a82613dad565b613e848185613143565b9350613e94818560208601613acf565b613e9d81612ad4565b840191505092915050565b60006020820190508181036000830152613ec28184613e6f565b905092915050565b7f496e697469616c697a61626c653a20636f6e7472616374206973206e6f74206960008201527f6e697469616c697a696e67000000000000000000000000000000000000000000602082015250565b6000613f26602b83613143565b9150613f3182613eca565b604082019050919050565b60006020820190508181036000830152613f5581613f19565b9050919050565b7f1901000000000000000000000000000000000000000000000000000000000000600082015250565b6000613f92600283613d56565b9150613f9d82613f5c565b600282019050919050565b6000819050919050565b613fc3613fbe82612d90565b613fa8565b82525050565b6000613fd482613f85565b9150613fe08285613fb2565b602082019150613ff08284613fb2565b6020820191508190509392505050565b6000606082019050614015600083018661308e565b614022602083018561308e565b61402f6040830184612e5d565b949350505050565b7f4e487b7100000000000000000000000000000000000000000000000000000000600052603260045260246000fd5b600061407182612a67565b9150600082141561408557614084613474565b5b600182039050919050565b7f537472696e67733a20686578206c656e67746820696e73756666696369656e74600082015250565b60006140c6602083613143565b91506140d182614090565b602082019050919050565b600060208201905081810360008301526140f5816140b9565b9050919050565b61410581612a31565b811461411057600080fd5b50565b600081519050614122816140fc565b92915050565b60006020828403121561413e5761413d6129a2565b5b600061414c84828501614113565b91505092915050565b7f5361666545524332303a204552433230206f7065726174696f6e20646964206e60008201527f6f74207375636365656400000000000000000000000000000000000000000000602082015250565b60006141b1602a83613143565b91506141bc82614155565b604082019050919050565b600060208201905081810360008301526141e0816141a4565b9050919050565b600060a0820190506141fc6000830188612df3565b6142096020830187612df3565b6142166040830186612df3565b6142236060830185612e5d565b614230608083018461308e565b9695505050505050565b600060ff82169050919050565b6142508161423a565b82525050565b600060808201905061426b6000830187612df3565b6142786020830186614247565b6142856040830185612df3565b6142926060830184612df3565b95945050505050565b7f416464726573733a20696e73756666696369656e742062616c616e636520666f60008201527f722063616c6c0000000000000000000000000000000000000000000000000000602082015250565b60006142f7602683613143565b91506143028261429b565b604082019050919050565b60006020820190508181036000830152614326816142ea565b9050919050565b7f416464726573733a2063616c6c20746f206e6f6e2d636f6e7472616374000000600082015250565b6000614363601d83613143565b915061436e8261432d565b602082019050919050565b6000602082019050818103600083015261439281614356565b905091905056fea264697066735822122053e375f638bb6dc8d3ed6583e778495d275d7cf52350a066b4a41ced7bbaef5864736f6c634300080a0033",
  "linkReferences": {},
  "deployedLinkReferences": {}
}