{
  "_format": "hh-sol-artifact-1",
  "contractName": "HousePoolUSDC",
  "sourceName": "contracts/HousePoolUSDC.sol",
  "abi": [
    {
      "anonymous": false,
      "inputs": [
        {
          "indexed": true,
          "internalType": "bytes32",
          "name": "role",
          "type": "bytes32"
        },
        {
          "indexed": true,
          "internalType": "bytes32",
          "name": "previousAdminRole",
          "type": "bytes32"
        },
        {
          "indexed": true,
          "internalType": "bytes32",
          "name": "newAdminRole",
          "type": "bytes32"
        }
      ],
      "name": "RoleAdminChanged",
      "type": "event"
    },
    {
      "anonymous": false,
      "inputs": [
        {
          "indexed": true,
          "internalType": "bytes32",
          "name": "role",
          "type": "bytes32"
        },
        {
          "indexed": true,
          "internalType": "address",
          "name": "account",
          "type": "address"
        },
        {
          "indexed": true,
          "internalType": "address",
          "name": "sender",
          "type": "address"
        }
      ],
      "name": "RoleGranted",
      "type": "event"
    },
    {
      "anonymous": false,
      "inputs": [
        {
          "indexed": true,
          "internalType": "bytes32",
          "name": "role",
          "type": "bytes32"
        },
        {
          "indexed": true,
          "internalType": "address",
          "name": "account",
          "type": "address"
        },
        {
          "indexed": true,
          "internalType": "address",
          "name": "sender",
          "type": "address"
        }
      ],
      "name": "RoleRevoked",
      "type": "event"
    },
    {
      "inputs": [],
      "name": "DEFAULT_ADMIN_ROLE",
      "outputs": [
        {
          "internalType": "bytes32",
          "name": "",
          "type": "bytes32"
        }
      ],
      "stateMutability": "view",
      "type": "function"
    },
    {
      "inputs": [
        {
          "internalType": "uint256",
          "name": "usdcMicro",
          "type": "uint256"
        }
      ],
      "name": "deposit_",
      "outputs": [],
      "stateMutability": "nonpayable",
      "type": "function"
    },
    {
      "inputs": [],
      "name": "getLiquidityStatus",
      "outputs": [
        {
          "internalType": "uint256",
          "name": "",
          "type": "uint256"
        }
      ],
      "stateMutability": "view",
      "type": "function"
    },
    {
      "inputs": [
        {
          "internalType": "address",
          "name": "_user",
          "type": "address"
        }
      ],
      "name": "getMyLiquidity",
      "outputs": [
        {
          "internalType": "uint256",
          "name": "",
          "type": "uint256"
        }
      ],
      "stateMutability": "view",
      "type": "function"
    },
    {
      "inputs": [
        {
          "internalType": "bytes32",
          "name": "role",
          "type": "bytes32"
        }
      ],
      "name": "getRoleAdmin",
      "outputs": [
        {
          "internalType": "bytes32",
          "name": "",
          "type": "bytes32"
        }
      ],
      "stateMutability": "view",
      "type": "function"
    },
    {
      "inputs": [],
      "name": "getTokenPrice",
      "outputs": [
        {
          "internalType": "uint256",
          "name": "",
          "type": "uint256"
        }
      ],
      "stateMutability": "view",
      "type": "function"
    },
    {
      "inputs": [],
      "name": "getTokenWithdrawlPrice",
      "outputs": [
        {
          "internalType": "uint256",
          "name": "",
          "type": "uint256"
        }
      ],
      "stateMutability": "view",
      "type": "function"
    },
    {
      "inputs": [
        {
          "internalType": "bytes32",
          "name": "role",
          "type": "bytes32"
        },
        {
          "internalType": "address",
          "name": "account",
          "type": "address"
        }
      ],
      "name": "grantRole",
      "outputs": [],
      "stateMutability": "nonpayable",
      "type": "function"
    },
    {
      "inputs": [
        {
          "internalType": "bytes32",
          "name": "role",
          "type": "bytes32"
        },
        {
          "internalType": "address",
          "name": "account",
          "type": "address"
        }
      ],
      "name": "hasRole",
      "outputs": [
        {
          "internalType": "bool",
          "name": "",
          "type": "bool"
        }
      ],
      "stateMutability": "view",
      "type": "function"
    },
    {
      "inputs": [
        {
          "internalType": "address",
          "name": "_owner",
          "type": "address"
        },
        {
          "internalType": "address",
          "name": "_usdc",
          "type": "address"
        },
        {
          "internalType": "address",
          "name": "_claimToken",
          "type": "address"
        },
        {
          "internalType": "string",
          "name": "_name",
          "type": "string"
        },
        {
          "internalType": "string",
          "name": "_version",
          "type": "string"
        }
      ],
      "name": "initialize",
      "outputs": [],
      "stateMutability": "nonpayable",
      "type": "function"
    },
    {
      "inputs": [
        {
          "internalType": "bytes32",
          "name": "role",
          "type": "bytes32"
        },
        {
          "internalType": "address",
          "name": "account",
          "type": "address"
        }
      ],
      "name": "renounceRole",
      "outputs": [],
      "stateMutability": "nonpayable",
      "type": "function"
    },
    {
      "inputs": [
        {
          "internalType": "bytes32",
          "name": "role",
          "type": "bytes32"
        },
        {
          "internalType": "address",
          "name": "account",
          "type": "address"
        }
      ],
      "name": "revokeRole",
      "outputs": [],
      "stateMutability": "nonpayable",
      "type": "function"
    },
    {
      "inputs": [
        {
          "internalType": "bytes4",
          "name": "interfaceId",
          "type": "bytes4"
        }
      ],
      "name": "supportsInterface",
      "outputs": [
        {
          "internalType": "bool",
          "name": "",
          "type": "bool"
        }
      ],
      "stateMutability": "view",
      "type": "function"
    },
    {
      "inputs": [
        {
          "internalType": "uint256",
          "name": "usdcMicro",
          "type": "uint256"
        }
      ],
      "name": "withdraw_",
      "outputs": [],
      "stateMutability": "nonpayable",
      "type": "function"
    }
  ],
  "bytecode": "0x608060405234801561001057600080fd5b5061299d806100206000396000f3fe608060405234801561001057600080fd5b50600436106100ea5760003560e01c8063639c066d1161008c578063a1cd223211610066578063a1cd223214610247578063a217fddf14610277578063b3ce252414610295578063d547741f146102b3576100ea565b8063639c066d146101df57806383b43589146101fb57806391d1485414610217576100ea565b80632f2ff15d116100c85780632f2ff15d1461016b57806336568abe146101875780633c0717fd146101a35780634b94f50e146101c1576100ea565b806301ffc9a7146100ef5780630f5a5e181461011f578063248a9ca31461013b575b600080fd5b6101096004803603810190610104919061181e565b6102cf565b6040516101169190611866565b60405180910390f35b610139600480360381019061013491906118b7565b610349565b005b6101556004803603810190610150919061191a565b610355565b6040516101629190611956565b60405180910390f35b610185600480360381019061018091906119cf565b610375565b005b6101a1600480360381019061019c91906119cf565b61039e565b005b6101ab610421565b6040516101b89190611a1e565b60405180910390f35b6101c961042b565b6040516101d69190611a1e565b60405180910390f35b6101f960048036038101906101f491906118b7565b610435565b005b61021560048036038101906102109190611b7f565b610441565b005b610231600480360381019061022c91906119cf565b610603565b60405161023e9190611866565b60405180910390f35b610261600480360381019061025c9190611c32565b61066e565b60405161026e9190611a1e565b60405180910390f35b61027f610738565b60405161028c9190611956565b60405180910390f35b61029d61073f565b6040516102aa9190611a1e565b60405180910390f35b6102cd60048036038101906102c891906119cf565b610749565b005b60007f7965db0b000000000000000000000000000000000000000000000000000000007bffffffffffffffffffffffffffffffffffffffffffffffffffffffff1916827bffffffffffffffffffffffffffffffffffffffffffffffffffffffff19161480610342575061034182610772565b5b9050919050565b610352816107dc565b50565b600060336000838152602001908152602001600020600101549050919050565b61037e82610355565b61038f8161038a610b76565b610b7e565b6103998383610c1b565b505050565b6103a6610b76565b73ffffffffffffffffffffffffffffffffffffffff168173ffffffffffffffffffffffffffffffffffffffff1614610413576040517f08c379a000000000000000000000000000000000000000000000000000000000815260040161040a90611ce2565b60405180910390fd5b61041d8282610cfc565b5050565b6000606854905090565b6000606b54905090565b61043e81610dde565b50565b600060019054906101000a900460ff166104695760008054906101000a900460ff1615610472565b6104716110e0565b5b6104b1576040517f08c379a00000000000000000000000000000000000000000000000000000000081526004016104a890611d74565b60405180910390fd5b60008060019054906101000a900460ff161590508015610501576001600060016101000a81548160ff02191690831515021790555060016000806101000a81548160ff0219169083151502179055505b61050b83836110f1565b84606960006101000a81548173ffffffffffffffffffffffffffffffffffffffff021916908373ffffffffffffffffffffffffffffffffffffffff16021790555083606a60006101000a81548173ffffffffffffffffffffffffffffffffffffffff021916908373ffffffffffffffffffffffffffffffffffffffff16021790555061059a6000801b8761114e565b6012600a6105a89190611ef6565b60646105b49190611f41565b606b819055506012600a6105c89190611ef6565b60646105d49190611f41565b606c8190555080156105fb5760008060016101000a81548160ff0219169083151502179055505b505050505050565b60006033600084815260200190815260200160002060000160008373ffffffffffffffffffffffffffffffffffffffff1673ffffffffffffffffffffffffffffffffffffffff16815260200190815260200160002060009054906101000a900460ff16905092915050565b60006012600a61067e9190611ef6565b606b54606a60009054906101000a900473ffffffffffffffffffffffffffffffffffffffff1673ffffffffffffffffffffffffffffffffffffffff166370a08231856040518263ffffffff1660e01b81526004016106dc9190611faa565b602060405180830381865afa1580156106f9573d6000803e3d6000fd5b505050506040513d601f19601f8201168201806040525081019061071d9190611fda565b6107279190611f41565b6107319190612036565b9050919050565b6000801b81565b6000606c54905090565b61075282610355565b6107638161075e610b76565b610b7e565b61076d8383610cfc565b505050565b60007f01ffc9a7000000000000000000000000000000000000000000000000000000007bffffffffffffffffffffffffffffffffffffffffffffffffffffffff1916827bffffffffffffffffffffffffffffffffffffffffffffffffffffffff1916149050919050565b60026001541415610822576040517f08c379a0000000000000000000000000000000000000000000000000000000008152600401610819906120b3565b60405180910390fd5b60026001819055506000811161086d576040517f08c379a00000000000000000000000000000000000000000000000000000000081526004016108649061211f565b60405180910390fd5b606c546012600a61087e9190611ef6565b606a60009054906101000a900473ffffffffffffffffffffffffffffffffffffffff1673ffffffffffffffffffffffffffffffffffffffff166370a08231336040518263ffffffff1660e01b81526004016108d99190611faa565b602060405180830381865afa1580156108f6573d6000803e3d6000fd5b505050506040513d601f19601f8201168201806040525081019061091a9190611fda565b6109249190612036565b61092e9190611f41565b600c600a61093c9190611ef6565b826109479190611f41565b1115801561096f5750606854600c600a6109619190611ef6565b8261096c9190612149565b13155b6109ae576040517f08c379a00000000000000000000000000000000000000000000000000000000081526004016109a5906122ac565b60405180910390fd5b6000606c546012600a6109c19190611ef6565b600c600a6109cf9190611ef6565b846109da9190611f41565b6109e49190611f41565b6109ee9190612036565b9050600c600a6109fe9190611ef6565b82610a099190611f41565b60686000828254610a1a91906122cc565b92505081905550600c600a610a2f9190611ef6565b82610a3a9190611f41565b606d60003373ffffffffffffffffffffffffffffffffffffffff1673ffffffffffffffffffffffffffffffffffffffff1681526020019081526020016000206000828254610a8891906122cc565b92505081905550610adc3383606960009054906101000a900473ffffffffffffffffffffffffffffffffffffffff1673ffffffffffffffffffffffffffffffffffffffff1661115c9092919063ffffffff16565b606a60009054906101000a900473ffffffffffffffffffffffffffffffffffffffff1673ffffffffffffffffffffffffffffffffffffffff16639dc29fac33836040518363ffffffff1660e01b8152600401610b39929190612300565b600060405180830381600087803b158015610b5357600080fd5b505af1158015610b67573d6000803e3d6000fd5b50505050506001808190555050565b600033905090565b610b888282610603565b610c1757610bad8173ffffffffffffffffffffffffffffffffffffffff1660146111e2565b610bbb8360001c60206111e2565b604051602001610bcc92919061243b565b6040516020818303038152906040526040517f08c379a0000000000000000000000000000000000000000000000000000000008152600401610c0e91906124ae565b60405180910390fd5b5050565b610c258282610603565b610cf85760016033600084815260200190815260200160002060000160008373ffffffffffffffffffffffffffffffffffffffff1673ffffffffffffffffffffffffffffffffffffffff16815260200190815260200160002060006101000a81548160ff021916908315150217905550610c9d610b76565b73ffffffffffffffffffffffffffffffffffffffff168173ffffffffffffffffffffffffffffffffffffffff16837f2f8788117e7eff1d82e926ec794901d17c78024a50270940304540a733656f0d60405160405180910390a45b5050565b610d068282610603565b15610dda5760006033600084815260200190815260200160002060000160008373ffffffffffffffffffffffffffffffffffffffff1673ffffffffffffffffffffffffffffffffffffffff16815260200190815260200160002060006101000a81548160ff021916908315150217905550610d7f610b76565b73ffffffffffffffffffffffffffffffffffffffff168173ffffffffffffffffffffffffffffffffffffffff16837ff6391f5c32d9c69d2a47ea670b442974b53935d1edc7fd64eb21e047a839171b60405160405180910390a45b5050565b60026001541415610e24576040517f08c379a0000000000000000000000000000000000000000000000000000000008152600401610e1b906120b3565b60405180910390fd5b6002600181905550600081118015610ed75750606960009054906101000a900473ffffffffffffffffffffffffffffffffffffffff1673ffffffffffffffffffffffffffffffffffffffff166370a08231336040518263ffffffff1660e01b8152600401610e929190611faa565b602060405180830381865afa158015610eaf573d6000803e3d6000fd5b505050506040513d601f19601f82011682018060405250810190610ed39190611fda565b8111155b610f16576040517f08c379a0000000000000000000000000000000000000000000000000000000008152600401610f0d9061251c565b60405180910390fd5b600c600a610f249190611ef6565b81610f2f9190611f41565b60686000828254610f40919061253c565b92505081905550600c600a610f559190611ef6565b81610f609190611f41565b606d60003373ffffffffffffffffffffffffffffffffffffffff1673ffffffffffffffffffffffffffffffffffffffff1681526020019081526020016000206000828254610fae919061253c565b92505081905550611004333083606960009054906101000a900473ffffffffffffffffffffffffffffffffffffffff1673ffffffffffffffffffffffffffffffffffffffff1661141e909392919063ffffffff16565b6000606b546012600a6110179190611ef6565b600c600a6110259190611ef6565b846110309190611f41565b61103a9190611f41565b6110449190612036565b9050606a60009054906101000a900473ffffffffffffffffffffffffffffffffffffffff1673ffffffffffffffffffffffffffffffffffffffff166340c10f1933836040518363ffffffff1660e01b81526004016110a3929190612300565b600060405180830381600087803b1580156110bd57600080fd5b505af11580156110d1573d6000803e3d6000fd5b50505050506001808190555050565b60006110eb306114a7565b15905090565b600060019054906101000a900460ff16611140576040517f08c379a000000000000000000000000000000000000000000000000000000000815260040161113790612604565b60405180910390fd5b61114a82826114ca565b5050565b6111588282610c1b565b5050565b6111dd8363a9059cbb60e01b848460405160240161117b929190612300565b604051602081830303815290604052907bffffffffffffffffffffffffffffffffffffffffffffffffffffffff19166020820180517bffffffffffffffffffffffffffffffffffffffffffffffffffffffff8381831617835250505050611545565b505050565b6060600060028360026111f59190611f41565b6111ff919061253c565b67ffffffffffffffff81111561121857611217611a54565b5b6040519080825280601f01601f19166020018201604052801561124a5781602001600182028036833780820191505090505b5090507f30000000000000000000000000000000000000000000000000000000000000008160008151811061128257611281612624565b5b60200101907effffffffffffffffffffffffffffffffffffffffffffffffffffffffffffff1916908160001a9053507f7800000000000000000000000000000000000000000000000000000000000000816001815181106112e6576112e5612624565b5b60200101907effffffffffffffffffffffffffffffffffffffffffffffffffffffffffffff1916908160001a905350600060018460026113269190611f41565b611330919061253c565b90505b60018111156113d0577f3031323334353637383961626364656600000000000000000000000000000000600f86166010811061137257611371612624565b5b1a60f81b82828151811061138957611388612624565b5b60200101907effffffffffffffffffffffffffffffffffffffffffffffffffffffffffffff1916908160001a905350600485901c9450806113c990612653565b9050611333565b5060008414611414576040517f08c379a000000000000000000000000000000000000000000000000000000000815260040161140b906126c9565b60405180910390fd5b8091505092915050565b6114a1846323b872dd60e01b85858560405160240161143f939291906126e9565b604051602081830303815290604052907bffffffffffffffffffffffffffffffffffffffffffffffffffffffff19166020820180517bffffffffffffffffffffffffffffffffffffffffffffffffffffffff8381831617835250505050611545565b50505050565b6000808273ffffffffffffffffffffffffffffffffffffffff163b119050919050565b600060019054906101000a900460ff16611519576040517f08c379a000000000000000000000000000000000000000000000000000000000815260040161151090612604565b60405180910390fd5b600082805190602001209050600082805190602001209050816034819055508060358190555050505050565b60006115a7826040518060400160405280602081526020017f5361666545524332303a206c6f772d6c6576656c2063616c6c206661696c65648152508573ffffffffffffffffffffffffffffffffffffffff1661160c9092919063ffffffff16565b905060008151111561160757808060200190518101906115c7919061274c565b611606576040517f08c379a00000000000000000000000000000000000000000000000000000000081526004016115fd906127eb565b60405180910390fd5b5b505050565b606061161b8484600085611624565b90509392505050565b606082471015611669576040517f08c379a00000000000000000000000000000000000000000000000000000000081526004016116609061287d565b60405180910390fd5b61167285611738565b6116b1576040517f08c379a00000000000000000000000000000000000000000000000000000000081526004016116a8906128e9565b60405180910390fd5b6000808673ffffffffffffffffffffffffffffffffffffffff1685876040516116da9190612950565b60006040518083038185875af1925050503d8060008114611717576040519150601f19603f3d011682016040523d82523d6000602084013e61171c565b606091505b509150915061172c82828661174b565b92505050949350505050565b600080823b905060008111915050919050565b6060831561175b578290506117ab565b60008351111561176e5782518084602001fd5b816040517f08c379a00000000000000000000000000000000000000000000000000000000081526004016117a291906124ae565b60405180910390fd5b9392505050565b6000604051905090565b600080fd5b600080fd5b60007fffffffff0000000000000000000000000000000000000000000000000000000082169050919050565b6117fb816117c6565b811461180657600080fd5b50565b600081359050611818816117f2565b92915050565b600060208284031215611834576118336117bc565b5b600061184284828501611809565b91505092915050565b60008115159050919050565b6118608161184b565b82525050565b600060208201905061187b6000830184611857565b92915050565b6000819050919050565b61189481611881565b811461189f57600080fd5b50565b6000813590506118b18161188b565b92915050565b6000602082840312156118cd576118cc6117bc565b5b60006118db848285016118a2565b91505092915050565b6000819050919050565b6118f7816118e4565b811461190257600080fd5b50565b600081359050611914816118ee565b92915050565b6000602082840312156119305761192f6117bc565b5b600061193e84828501611905565b91505092915050565b611950816118e4565b82525050565b600060208201905061196b6000830184611947565b92915050565b600073ffffffffffffffffffffffffffffffffffffffff82169050919050565b600061199c82611971565b9050919050565b6119ac81611991565b81146119b757600080fd5b50565b6000813590506119c9816119a3565b92915050565b600080604083850312156119e6576119e56117bc565b5b60006119f485828601611905565b9250506020611a05858286016119ba565b9150509250929050565b611a1881611881565b82525050565b6000602082019050611a336000830184611a0f565b92915050565b600080fd5b600080fd5b6000601f19601f8301169050919050565b7f4e487b7100000000000000000000000000000000000000000000000000000000600052604160045260246000fd5b611a8c82611a43565b810181811067ffffffffffffffff82111715611aab57611aaa611a54565b5b80604052505050565b6000611abe6117b2565b9050611aca8282611a83565b919050565b600067ffffffffffffffff821115611aea57611ae9611a54565b5b611af382611a43565b9050602081019050919050565b82818337600083830152505050565b6000611b22611b1d84611acf565b611ab4565b905082815260208101848484011115611b3e57611b3d611a3e565b5b611b49848285611b00565b509392505050565b600082601f830112611b6657611b65611a39565b5b8135611b76848260208601611b0f565b91505092915050565b600080600080600060a08688031215611b9b57611b9a6117bc565b5b6000611ba9888289016119ba565b9550506020611bba888289016119ba565b9450506040611bcb888289016119ba565b935050606086013567ffffffffffffffff811115611bec57611beb6117c1565b5b611bf888828901611b51565b925050608086013567ffffffffffffffff811115611c1957611c186117c1565b5b611c2588828901611b51565b9150509295509295909350565b600060208284031215611c4857611c476117bc565b5b6000611c56848285016119ba565b91505092915050565b600082825260208201905092915050565b7f416363657373436f6e74726f6c3a2063616e206f6e6c792072656e6f756e636560008201527f20726f6c657320666f722073656c660000000000000000000000000000000000602082015250565b6000611ccc602f83611c5f565b9150611cd782611c70565b604082019050919050565b60006020820190508181036000830152611cfb81611cbf565b9050919050565b7f496e697469616c697a61626c653a20636f6e747261637420697320616c72656160008201527f647920696e697469616c697a6564000000000000000000000000000000000000602082015250565b6000611d5e602e83611c5f565b9150611d6982611d02565b604082019050919050565b60006020820190508181036000830152611d8d81611d51565b9050919050565b7f4e487b7100000000000000000000000000000000000000000000000000000000600052601160045260246000fd5b60008160011c9050919050565b6000808291508390505b6001851115611e1a57808604811115611df657611df5611d94565b5b6001851615611e055780820291505b8081029050611e1385611dc3565b9450611dda565b94509492505050565b600082611e335760019050611eef565b81611e415760009050611eef565b8160018114611e575760028114611e6157611e90565b6001915050611eef565b60ff841115611e7357611e72611d94565b5b8360020a915084821115611e8a57611e89611d94565b5b50611eef565b5060208310610133831016604e8410600b8410161715611ec55782820a905083811115611ec057611ebf611d94565b5b611eef565b611ed28484846001611dd0565b92509050818404811115611ee957611ee8611d94565b5b81810290505b9392505050565b6000611f0182611881565b9150611f0c83611881565b9250611f397fffffffffffffffffffffffffffffffffffffffffffffffffffffffffffffffff8484611e23565b905092915050565b6000611f4c82611881565b9150611f5783611881565b9250817fffffffffffffffffffffffffffffffffffffffffffffffffffffffffffffffff0483118215151615611f9057611f8f611d94565b5b828202905092915050565b611fa481611991565b82525050565b6000602082019050611fbf6000830184611f9b565b92915050565b600081519050611fd48161188b565b92915050565b600060208284031215611ff057611fef6117bc565b5b6000611ffe84828501611fc5565b91505092915050565b7f4e487b7100000000000000000000000000000000000000000000000000000000600052601260045260246000fd5b600061204182611881565b915061204c83611881565b92508261205c5761205b612007565b5b828204905092915050565b7f5265656e7472616e637947756172643a207265656e7472616e742063616c6c00600082015250565b600061209d601f83611c5f565b91506120a882612067565b602082019050919050565b600060208201905081810360008301526120cc81612090565b9050919050565b7f55534443486f757365506f6f6c3a205a65726f20416d6f756e74000000000000600082015250565b6000612109601a83611c5f565b9150612114826120d3565b602082019050919050565b60006020820190508181036000830152612138816120fc565b9050919050565b6000819050919050565b60006121548261213f565b915061215f8361213f565b9250827f7fffffffffffffffffffffffffffffffffffffffffffffffffffffffffffffff048211600084136000841316161561219e5761219d611d94565b5b817f800000000000000000000000000000000000000000000000000000000000000005831260008412600084131616156121db576121da611d94565b5b827f8000000000000000000000000000000000000000000000000000000000000000058212600084136000841216161561221857612217611d94565b5b827f7fffffffffffffffffffffffffffffffffffffffffffffffffffffffffffffff058212600084126000841216161561225557612254611d94565b5b828202905092915050565b7f55534443486f757365506f6f6c203a2063616e27742077697468647261770000600082015250565b6000612296601e83611c5f565b91506122a182612260565b602082019050919050565b600060208201905081810360008301526122c581612289565b9050919050565b60006122d782611881565b91506122e283611881565b9250828210156122f5576122f4611d94565b5b828203905092915050565b60006040820190506123156000830185611f9b565b6123226020830184611a0f565b9392505050565b600081905092915050565b7f416363657373436f6e74726f6c3a206163636f756e7420000000000000000000600082015250565b600061236a601783612329565b915061237582612334565b601782019050919050565b600081519050919050565b60005b838110156123a957808201518184015260208101905061238e565b838111156123b8576000848401525b50505050565b60006123c982612380565b6123d38185612329565b93506123e381856020860161238b565b80840191505092915050565b7f206973206d697373696e6720726f6c6520000000000000000000000000000000600082015250565b6000612425601183612329565b9150612430826123ef565b601182019050919050565b60006124468261235d565b915061245282856123be565b915061245d82612418565b915061246982846123be565b91508190509392505050565b600061248082612380565b61248a8185611c5f565b935061249a81856020860161238b565b6124a381611a43565b840191505092915050565b600060208201905081810360008301526124c88184612475565b905092915050565b7f55534443486f757365506f6f6c3a20436865636b207468652042616c616e6365600082015250565b6000612506602083611c5f565b9150612511826124d0565b602082019050919050565b60006020820190508181036000830152612535816124f9565b9050919050565b600061254782611881565b915061255283611881565b9250827fffffffffffffffffffffffffffffffffffffffffffffffffffffffffffffffff0382111561258757612586611d94565b5b828201905092915050565b7f496e697469616c697a61626c653a20636f6e7472616374206973206e6f74206960008201527f6e697469616c697a696e67000000000000000000000000000000000000000000602082015250565b60006125ee602b83611c5f565b91506125f982612592565b604082019050919050565b6000602082019050818103600083015261261d816125e1565b9050919050565b7f4e487b7100000000000000000000000000000000000000000000000000000000600052603260045260246000fd5b600061265e82611881565b9150600082141561267257612671611d94565b5b600182039050919050565b7f537472696e67733a20686578206c656e67746820696e73756666696369656e74600082015250565b60006126b3602083611c5f565b91506126be8261267d565b602082019050919050565b600060208201905081810360008301526126e2816126a6565b9050919050565b60006060820190506126fe6000830186611f9b565b61270b6020830185611f9b565b6127186040830184611a0f565b949350505050565b6127298161184b565b811461273457600080fd5b50565b60008151905061274681612720565b92915050565b600060208284031215612762576127616117bc565b5b600061277084828501612737565b91505092915050565b7f5361666545524332303a204552433230206f7065726174696f6e20646964206e60008201527f6f74207375636365656400000000000000000000000000000000000000000000602082015250565b60006127d5602a83611c5f565b91506127e082612779565b604082019050919050565b60006020820190508181036000830152612804816127c8565b9050919050565b7f416464726573733a20696e73756666696369656e742062616c616e636520666f60008201527f722063616c6c0000000000000000000000000000000000000000000000000000602082015250565b6000612867602683611c5f565b91506128728261280b565b604082019050919050565b600060208201905081810360008301526128968161285a565b9050919050565b7f416464726573733a2063616c6c20746f206e6f6e2d636f6e7472616374000000600082015250565b60006128d3601d83611c5f565b91506128de8261289d565b602082019050919050565b60006020820190508181036000830152612902816128c6565b9050919050565b600081519050919050565b600081905092915050565b600061292a82612909565b6129348185612914565b935061294481856020860161238b565b80840191505092915050565b600061295c828461291f565b91508190509291505056fea2646970667358221220528313ac706b4dd0bb507de1b4e05b5ef2772c38a3cd97a2428b3f542d03672264736f6c634300080a0033",
  "linkReferences": {},
  "deployedLinkReferences": {}
}