{
  "_format": "hh-sol-artifact-1",
  "contractName": "HousePoolUSDC",
  "sourceName": "contracts/HousePoolUSDC.sol",
  "abi": [
    {
      "anonymous": false,
      "inputs": [
        {
          "indexed": true,
          "internalType": "bytes32",
          "name": "role",
          "type": "bytes32"
        },
        {
          "indexed": true,
          "internalType": "bytes32",
          "name": "previousAdminRole",
          "type": "bytes32"
        },
        {
          "indexed": true,
          "internalType": "bytes32",
          "name": "newAdminRole",
          "type": "bytes32"
        }
      ],
      "name": "RoleAdminChanged",
      "type": "event"
    },
    {
      "anonymous": false,
      "inputs": [
        {
          "indexed": true,
          "internalType": "bytes32",
          "name": "role",
          "type": "bytes32"
        },
        {
          "indexed": true,
          "internalType": "address",
          "name": "account",
          "type": "address"
        },
        {
          "indexed": true,
          "internalType": "address",
          "name": "sender",
          "type": "address"
        }
      ],
      "name": "RoleGranted",
      "type": "event"
    },
    {
      "anonymous": false,
      "inputs": [
        {
          "indexed": true,
          "internalType": "bytes32",
          "name": "role",
          "type": "bytes32"
        },
        {
          "indexed": true,
          "internalType": "address",
          "name": "account",
          "type": "address"
        },
        {
          "indexed": true,
          "internalType": "address",
          "name": "sender",
          "type": "address"
        }
      ],
      "name": "RoleRevoked",
      "type": "event"
    },
    {
      "inputs": [],
      "name": "DEFAULT_ADMIN_ROLE",
      "outputs": [
        {
          "internalType": "bytes32",
          "name": "",
          "type": "bytes32"
        }
      ],
      "stateMutability": "view",
      "type": "function"
    },
    {
      "inputs": [
        {
          "internalType": "uint256",
          "name": "usdcMicro",
          "type": "uint256"
        }
      ],
      "name": "deposit_",
      "outputs": [],
      "stateMutability": "nonpayable",
      "type": "function"
    },
    {
      "inputs": [],
      "name": "getLiquidityStatus",
      "outputs": [
        {
          "internalType": "uint256",
          "name": "",
          "type": "uint256"
        }
      ],
      "stateMutability": "view",
      "type": "function"
    },
    {
      "inputs": [
        {
          "internalType": "address",
          "name": "_user",
          "type": "address"
        }
      ],
      "name": "getMyLiquidity",
      "outputs": [
        {
          "internalType": "uint256",
          "name": "",
          "type": "uint256"
        }
      ],
      "stateMutability": "view",
      "type": "function"
    },
    {
      "inputs": [
        {
          "internalType": "bytes32",
          "name": "role",
          "type": "bytes32"
        }
      ],
      "name": "getRoleAdmin",
      "outputs": [
        {
          "internalType": "bytes32",
          "name": "",
          "type": "bytes32"
        }
      ],
      "stateMutability": "view",
      "type": "function"
    },
    {
      "inputs": [],
      "name": "getTokenPrice",
      "outputs": [
        {
          "internalType": "uint256",
          "name": "",
          "type": "uint256"
        }
      ],
      "stateMutability": "view",
      "type": "function"
    },
    {
      "inputs": [],
      "name": "getTokenWithdrawlPrice",
      "outputs": [
        {
          "internalType": "uint256",
          "name": "",
          "type": "uint256"
        }
      ],
      "stateMutability": "view",
      "type": "function"
    },
    {
      "inputs": [
        {
          "internalType": "bytes32",
          "name": "role",
          "type": "bytes32"
        },
        {
          "internalType": "address",
          "name": "account",
          "type": "address"
        }
      ],
      "name": "grantRole",
      "outputs": [],
      "stateMutability": "nonpayable",
      "type": "function"
    },
    {
      "inputs": [
        {
          "internalType": "bytes32",
          "name": "role",
          "type": "bytes32"
        },
        {
          "internalType": "address",
          "name": "account",
          "type": "address"
        }
      ],
      "name": "hasRole",
      "outputs": [
        {
          "internalType": "bool",
          "name": "",
          "type": "bool"
        }
      ],
      "stateMutability": "view",
      "type": "function"
    },
    {
      "inputs": [
        {
          "internalType": "address",
          "name": "_owner",
          "type": "address"
        },
        {
          "internalType": "address",
          "name": "_usdc",
          "type": "address"
        },
        {
          "internalType": "address",
          "name": "_claimToken",
          "type": "address"
        }
      ],
      "name": "initialize",
      "outputs": [],
      "stateMutability": "nonpayable",
      "type": "function"
    },
    {
      "inputs": [
        {
          "internalType": "bytes32",
          "name": "role",
          "type": "bytes32"
        },
        {
          "internalType": "address",
          "name": "account",
          "type": "address"
        }
      ],
      "name": "renounceRole",
      "outputs": [],
      "stateMutability": "nonpayable",
      "type": "function"
    },
    {
      "inputs": [
        {
          "internalType": "bytes32",
          "name": "role",
          "type": "bytes32"
        },
        {
          "internalType": "address",
          "name": "account",
          "type": "address"
        }
      ],
      "name": "revokeRole",
      "outputs": [],
      "stateMutability": "nonpayable",
      "type": "function"
    },
    {
      "inputs": [
        {
          "internalType": "bytes4",
          "name": "interfaceId",
          "type": "bytes4"
        }
      ],
      "name": "supportsInterface",
      "outputs": [
        {
          "internalType": "bool",
          "name": "",
          "type": "bool"
        }
      ],
      "stateMutability": "view",
      "type": "function"
    },
    {
      "inputs": [
        {
          "internalType": "uint256",
          "name": "usdcMicro",
          "type": "uint256"
        }
      ],
      "name": "withdraw_",
      "outputs": [],
      "stateMutability": "nonpayable",
      "type": "function"
    }
  ],
  "bytecode": "0x608060405234801561001057600080fd5b5061146b806100206000396000f3fe608060405234801561001057600080fd5b50600436106100ea5760003560e01c8063639c066d1161008c578063a217fddf11610066578063a217fddf146101cc578063b3ce2524146101d4578063c0c53b8b146101dc578063d547741f146101ef57600080fd5b8063639c066d1461019357806391d14854146101a6578063a1cd2232146101b957600080fd5b80632f2ff15d116100c85780632f2ff15d1461015d57806336568abe146101705780633c0717fd146101835780634b94f50e1461018b57600080fd5b806301ffc9a7146100ef5780630f5a5e1814610117578063248a9ca31461012c575b600080fd5b6101026100fd366004610fe3565b610202565b60405190151581526020015b60405180910390f35b61012a61012536600461100d565b610239565b005b61014f61013a36600461100d565b60009081526033602052604090206001015490565b60405190815260200161010e565b61012a61016b366004611042565b610245565b61012a61017e366004611042565b610270565b60345461014f565b60375461014f565b61012a6101a136600461100d565b6102f3565b6101026101b4366004611042565b6102fc565b61014f6101c736600461106e565b610327565b61014f600081565b60385461014f565b61012a6101ea366004611089565b6103ba565b61012a6101fd366004611042565b6104e5565b60006001600160e01b03198216637965db0b60e01b148061023357506301ffc9a760e01b6001600160e01b03198316145b92915050565b6102428161050b565b50565b60008281526033602052604090206001015461026181336107ef565b61026b8383610853565b505050565b6001600160a01b03811633146102e55760405162461bcd60e51b815260206004820152602f60248201527f416363657373436f6e74726f6c3a2063616e206f6e6c792072656e6f756e636560448201526e103937b632b9903337b91039b2b63360891b60648201526084015b60405180910390fd5b6102ef82826108d9565b5050565b61024281610940565b60009182526033602090815260408084206001600160a01b0393909316845291905290205460ff1690565b60006103356012600a6111c6565b6037546036546040516370a0823160e01b81526001600160a01b038681166004830152909116906370a0823190602401602060405180830381865afa158015610382573d6000803e3d6000fd5b505050506040513d601f19601f820116820180604052508101906103a691906111d2565b6103b091906111eb565b610233919061120a565b600054610100900460ff166103d55760005460ff16156103d9565b303b155b61043c5760405162461bcd60e51b815260206004820152602e60248201527f496e697469616c697a61626c653a20636f6e747261637420697320616c72656160448201526d191e481a5b9a5d1a585b1a5e995960921b60648201526084016102dc565b600054610100900460ff1615801561045e576000805461ffff19166101011790555b603580546001600160a01b038086166001600160a01b0319928316179092556036805492851692909116919091179055610499600085610b51565b6104a56012600a6111c6565b6104b09060646111eb565b6037556104bf6012600a6111c6565b6104ca9060646111eb565b60385580156104df576000805461ff00191690555b50505050565b60008281526033602052604090206001015461050181336107ef565b61026b83836108d9565b6002600154141561055e5760405162461bcd60e51b815260206004820152601f60248201527f5265656e7472616e637947756172643a207265656e7472616e742063616c6c0060448201526064016102dc565b6002600155806105b05760405162461bcd60e51b815260206004820152601a60248201527f55534443486f757365506f6f6c3a205a65726f20416d6f756e7400000000000060448201526064016102dc565b6038546105bf6012600a6111c6565b6036546040516370a0823160e01b81523360048201526001600160a01b03909116906370a0823190602401602060405180830381865afa158015610607573d6000803e3d6000fd5b505050506040513d601f19601f8201168201806040525081019061062b91906111d2565b610635919061120a565b61063f91906111eb565b61064b600c600a6111c6565b61065590836111eb565b1115801561067a575060345461066d600c600a6111c6565b610677908361122c565b13155b6106c65760405162461bcd60e51b815260206004820152601e60248201527f55534443486f757365506f6f6c203a2063616e2774207769746864726177000060448201526064016102dc565b6038546000906106d86012600a6111c6565b6106e4600c600a6111c6565b6106ee90856111eb565b6106f891906111eb565b610702919061120a565b9050610710600c600a6111c6565b61071a90836111eb565b6034600082825461072b91906112b1565b9091555061073d9050600c600a6111c6565b61074790836111eb565b33600090815260396020526040812080549091906107669084906112b1565b9091555050603554610782906001600160a01b03163384610b5b565b603654604051632770a7eb60e21b8152336004820152602481018390526001600160a01b0390911690639dc29fac906044015b600060405180830381600087803b1580156107cf57600080fd5b505af11580156107e3573d6000803e3d6000fd5b50506001805550505050565b6107f982826102fc565b6102ef57610811816001600160a01b03166014610bbe565b61081c836020610bbe565b60405160200161082d9291906112f4565b60408051601f198184030181529082905262461bcd60e51b82526102dc91600401611369565b61085d82826102fc565b6102ef5760008281526033602090815260408083206001600160a01b03851684529091529020805460ff191660011790556108953390565b6001600160a01b0316816001600160a01b0316837f2f8788117e7eff1d82e926ec794901d17c78024a50270940304540a733656f0d60405160405180910390a45050565b6108e382826102fc565b156102ef5760008281526033602090815260408083206001600160a01b0385168085529252808320805460ff1916905551339285917ff6391f5c32d9c69d2a47ea670b442974b53935d1edc7fd64eb21e047a839171b9190a45050565b600260015414156109935760405162461bcd60e51b815260206004820152601f60248201527f5265656e7472616e637947756172643a207265656e7472616e742063616c6c0060448201526064016102dc565b60026001558015801590610a1257506035546040516370a0823160e01b81523360048201526001600160a01b03909116906370a0823190602401602060405180830381865afa1580156109ea573d6000803e3d6000fd5b505050506040513d601f19601f82011682018060405250810190610a0e91906111d2565b8111155b610a5e5760405162461bcd60e51b815260206004820181905260248201527f55534443486f757365506f6f6c3a20436865636b207468652042616c616e636560448201526064016102dc565b610a6a600c600a6111c6565b610a7490826111eb565b60346000828254610a85919061139c565b90915550610a979050600c600a6111c6565b610aa190826111eb565b3360009081526039602052604081208054909190610ac090849061139c565b9091555050603554610add906001600160a01b0316333084610d61565b603754600090610aef6012600a6111c6565b610afb600c600a6111c6565b610b0590856111eb565b610b0f91906111eb565b610b19919061120a565b6036546040516340c10f1960e01b8152336004820152602481018390529192506001600160a01b0316906340c10f19906044016107b5565b6102ef8282610853565b6040516001600160a01b03831660248201526044810182905261026b90849063a9059cbb60e01b906064015b60408051601f198184030181529190526020810180516001600160e01b03166001600160e01b031990931692909217909152610d99565b60606000610bcd8360026111eb565b610bd890600261139c565b67ffffffffffffffff811115610bf057610bf06113b4565b6040519080825280601f01601f191660200182016040528015610c1a576020820181803683370190505b509050600360fc1b81600081518110610c3557610c356113ca565b60200101906001600160f81b031916908160001a905350600f60fb1b81600181518110610c6457610c646113ca565b60200101906001600160f81b031916908160001a9053506000610c888460026111eb565b610c9390600161139c565b90505b6001811115610d0b576f181899199a1a9b1b9c1cb0b131b232b360811b85600f1660108110610cc757610cc76113ca565b1a60f81b828281518110610cdd57610cdd6113ca565b60200101906001600160f81b031916908160001a90535060049490941c93610d04816113e0565b9050610c96565b508315610d5a5760405162461bcd60e51b815260206004820181905260248201527f537472696e67733a20686578206c656e67746820696e73756666696369656e7460448201526064016102dc565b9392505050565b6040516001600160a01b03808516602483015283166044820152606481018290526104df9085906323b872dd60e01b90608401610b87565b6000610dee826040518060400160405280602081526020017f5361666545524332303a206c6f772d6c6576656c2063616c6c206661696c6564815250856001600160a01b0316610e6b9092919063ffffffff16565b80519091501561026b5780806020019051810190610e0c91906113f7565b61026b5760405162461bcd60e51b815260206004820152602a60248201527f5361666545524332303a204552433230206f7065726174696f6e20646964206e6044820152691bdd081cdd58d8d9595960b21b60648201526084016102dc565b6060610e7a8484600085610e82565b949350505050565b606082471015610ee35760405162461bcd60e51b815260206004820152602660248201527f416464726573733a20696e73756666696369656e742062616c616e636520666f6044820152651c8818d85b1b60d21b60648201526084016102dc565b843b610f315760405162461bcd60e51b815260206004820152601d60248201527f416464726573733a2063616c6c20746f206e6f6e2d636f6e747261637400000060448201526064016102dc565b600080866001600160a01b03168587604051610f4d9190611419565b60006040518083038185875af1925050503d8060008114610f8a576040519150601f19603f3d011682016040523d82523d6000602084013e610f8f565b606091505b5091509150610f9f828286610faa565b979650505050505050565b60608315610fb9575081610d5a565b825115610fc95782518084602001fd5b8160405162461bcd60e51b81526004016102dc9190611369565b600060208284031215610ff557600080fd5b81356001600160e01b031981168114610d5a57600080fd5b60006020828403121561101f57600080fd5b5035919050565b80356001600160a01b038116811461103d57600080fd5b919050565b6000806040838503121561105557600080fd5b8235915061106560208401611026565b90509250929050565b60006020828403121561108057600080fd5b610d5a82611026565b60008060006060848603121561109e57600080fd5b6110a784611026565b92506110b560208501611026565b91506110c360408501611026565b90509250925092565b634e487b7160e01b600052601160045260246000fd5b600181815b8085111561111d578160001904821115611103576111036110cc565b8085161561111057918102915b93841c93908002906110e7565b509250929050565b60008261113457506001610233565b8161114157506000610233565b816001811461115757600281146111615761117d565b6001915050610233565b60ff841115611172576111726110cc565b50506001821b610233565b5060208310610133831016604e8410600b84101617156111a0575081810a610233565b6111aa83836110e2565b80600019048211156111be576111be6110cc565b029392505050565b6000610d5a8383611125565b6000602082840312156111e457600080fd5b5051919050565b6000816000190483118215151615611205576112056110cc565b500290565b60008261122757634e487b7160e01b600052601260045260246000fd5b500490565b60006001600160ff1b0381841382841380821686840486111615611252576112526110cc565b600160ff1b6000871282811687830589121615611271576112716110cc565b6000871292508782058712848416161561128d5761128d6110cc565b878505871281841616156112a3576112a36110cc565b505050929093029392505050565b6000828210156112c3576112c36110cc565b500390565b60005b838110156112e35781810151838201526020016112cb565b838111156104df5750506000910152565b7f416363657373436f6e74726f6c3a206163636f756e742000000000000000000081526000835161132c8160178501602088016112c8565b7001034b99036b4b9b9b4b733903937b6329607d1b601791840191820152835161135d8160288401602088016112c8565b01602801949350505050565b60208152600082518060208401526113888160408501602087016112c8565b601f01601f19169190910160400192915050565b600082198211156113af576113af6110cc565b500190565b634e487b7160e01b600052604160045260246000fd5b634e487b7160e01b600052603260045260246000fd5b6000816113ef576113ef6110cc565b506000190190565b60006020828403121561140957600080fd5b81518015158114610d5a57600080fd5b6000825161142b8184602087016112c8565b919091019291505056fea2646970667358221220701ef9f7f2fa293c59ead139b2d2067c8142a8509cfc9120d6e94598913355f064736f6c634300080a0033",
  "linkReferences": {},
  "deployedLinkReferences": {}
}