{
  "_format": "hh-sol-artifact-1",
  "contractName": "VLFI",
  "sourceName": "contracts/VLFI.sol",
  "abi": [
    {
      "inputs": [
        {
          "internalType": "string",
          "name": "name",
          "type": "string"
        },
        {
          "internalType": "string",
          "name": "symbol",
          "type": "string"
        },
        {
          "internalType": "contract IERC20",
          "name": "stakedToken",
          "type": "address"
        },
        {
          "internalType": "uint256",
          "name": "cooldownSeconds",
          "type": "uint256"
        },
        {
          "internalType": "uint256",
          "name": "unstakeWindow",
          "type": "uint256"
        },
        {
          "internalType": "uint256",
          "name": "rewardsPerSecond",
          "type": "uint256"
        },
        {
          "internalType": "uint256",
          "name": "treasuryWithdrawlPercentage",
          "type": "uint256"
        }
      ],
      "stateMutability": "nonpayable",
      "type": "constructor"
    },
    {
      "anonymous": false,
      "inputs": [
        {
          "indexed": true,
          "internalType": "address",
          "name": "owner",
          "type": "address"
        },
        {
          "indexed": true,
          "internalType": "address",
          "name": "spender",
          "type": "address"
        },
        {
          "indexed": false,
          "internalType": "uint256",
          "name": "value",
          "type": "uint256"
        }
      ],
      "name": "Approval",
      "type": "event"
    },
    {
      "anonymous": false,
      "inputs": [
        {
          "indexed": true,
          "internalType": "address",
          "name": "user",
          "type": "address"
        }
      ],
      "name": "CooldownActivated",
      "type": "event"
    },
    {
      "anonymous": false,
      "inputs": [
        {
          "indexed": true,
          "internalType": "address",
          "name": "from",
          "type": "address"
        },
        {
          "indexed": true,
          "internalType": "address",
          "name": "to",
          "type": "address"
        },
        {
          "indexed": false,
          "internalType": "uint256",
          "name": "amount",
          "type": "uint256"
        }
      ],
      "name": "RewardsClaimed",
      "type": "event"
    },
    {
      "anonymous": false,
      "inputs": [
        {
          "indexed": true,
          "internalType": "bytes32",
          "name": "role",
          "type": "bytes32"
        },
        {
          "indexed": true,
          "internalType": "bytes32",
          "name": "previousAdminRole",
          "type": "bytes32"
        },
        {
          "indexed": true,
          "internalType": "bytes32",
          "name": "newAdminRole",
          "type": "bytes32"
        }
      ],
      "name": "RoleAdminChanged",
      "type": "event"
    },
    {
      "anonymous": false,
      "inputs": [
        {
          "indexed": true,
          "internalType": "bytes32",
          "name": "role",
          "type": "bytes32"
        },
        {
          "indexed": true,
          "internalType": "address",
          "name": "account",
          "type": "address"
        },
        {
          "indexed": true,
          "internalType": "address",
          "name": "sender",
          "type": "address"
        }
      ],
      "name": "RoleGranted",
      "type": "event"
    },
    {
      "anonymous": false,
      "inputs": [
        {
          "indexed": true,
          "internalType": "bytes32",
          "name": "role",
          "type": "bytes32"
        },
        {
          "indexed": true,
          "internalType": "address",
          "name": "account",
          "type": "address"
        },
        {
          "indexed": true,
          "internalType": "address",
          "name": "sender",
          "type": "address"
        }
      ],
      "name": "RoleRevoked",
      "type": "event"
    },
    {
      "anonymous": false,
      "inputs": [
        {
          "indexed": true,
          "internalType": "address",
          "name": "from",
          "type": "address"
        },
        {
          "indexed": true,
          "internalType": "address",
          "name": "onBehalfOf",
          "type": "address"
        },
        {
          "indexed": false,
          "internalType": "uint256",
          "name": "amount",
          "type": "uint256"
        }
      ],
      "name": "Staked",
      "type": "event"
    },
    {
      "anonymous": false,
      "inputs": [
        {
          "indexed": true,
          "internalType": "address",
          "name": "from",
          "type": "address"
        },
        {
          "indexed": true,
          "internalType": "address",
          "name": "to",
          "type": "address"
        },
        {
          "indexed": false,
          "internalType": "uint256",
          "name": "value",
          "type": "uint256"
        }
      ],
      "name": "Transfer",
      "type": "event"
    },
    {
      "anonymous": false,
      "inputs": [
        {
          "indexed": true,
          "internalType": "address",
          "name": "from",
          "type": "address"
        },
        {
          "indexed": true,
          "internalType": "address",
          "name": "to",
          "type": "address"
        },
        {
          "indexed": false,
          "internalType": "uint256",
          "name": "amount",
          "type": "uint256"
        }
      ],
      "name": "UnStaked",
      "type": "event"
    },
    {
      "inputs": [],
      "name": "DEFAULT_ADMIN_ROLE",
      "outputs": [
        {
          "internalType": "bytes32",
          "name": "",
          "type": "bytes32"
        }
      ],
      "stateMutability": "view",
      "type": "function"
    },
    {
      "inputs": [],
      "name": "DOMAIN_SEPARATOR",
      "outputs": [
        {
          "internalType": "bytes32",
          "name": "",
          "type": "bytes32"
        }
      ],
      "stateMutability": "view",
      "type": "function"
    },
    {
      "inputs": [],
      "name": "MANAGER_ROLE",
      "outputs": [
        {
          "internalType": "bytes32",
          "name": "",
          "type": "bytes32"
        }
      ],
      "stateMutability": "view",
      "type": "function"
    },
    {
      "inputs": [],
      "name": "STAKED_TOKEN",
      "outputs": [
        {
          "internalType": "contract IERC20",
          "name": "",
          "type": "address"
        }
      ],
      "stateMutability": "view",
      "type": "function"
    },
    {
      "inputs": [],
      "name": "activateCooldown",
      "outputs": [],
      "stateMutability": "nonpayable",
      "type": "function"
    },
    {
      "inputs": [
        {
          "internalType": "address",
          "name": "owner",
          "type": "address"
        },
        {
          "internalType": "address",
          "name": "spender",
          "type": "address"
        }
      ],
      "name": "allowance",
      "outputs": [
        {
          "internalType": "uint256",
          "name": "",
          "type": "uint256"
        }
      ],
      "stateMutability": "view",
      "type": "function"
    },
    {
      "inputs": [
        {
          "internalType": "address",
          "name": "spender",
          "type": "address"
        },
        {
          "internalType": "uint256",
          "name": "amount",
          "type": "uint256"
        }
      ],
      "name": "approve",
      "outputs": [
        {
          "internalType": "bool",
          "name": "",
          "type": "bool"
        }
      ],
      "stateMutability": "nonpayable",
      "type": "function"
    },
    {
      "inputs": [
        {
          "internalType": "address",
          "name": "account",
          "type": "address"
        }
      ],
      "name": "balanceOf",
      "outputs": [
        {
          "internalType": "uint256",
          "name": "",
          "type": "uint256"
        }
      ],
      "stateMutability": "view",
      "type": "function"
    },
    {
      "inputs": [
        {
          "internalType": "address",
          "name": "to",
          "type": "address"
        }
      ],
      "name": "claimRewards",
      "outputs": [],
      "stateMutability": "nonpayable",
      "type": "function"
    },
    {
      "inputs": [],
      "name": "createFarm",
      "outputs": [],
      "stateMutability": "nonpayable",
      "type": "function"
    },
    {
      "inputs": [],
      "name": "decimals",
      "outputs": [
        {
          "internalType": "uint8",
          "name": "",
          "type": "uint8"
        }
      ],
      "stateMutability": "view",
      "type": "function"
    },
    {
      "inputs": [
        {
          "internalType": "address",
          "name": "spender",
          "type": "address"
        },
        {
          "internalType": "uint256",
          "name": "subtractedValue",
          "type": "uint256"
        }
      ],
      "name": "decreaseAllowance",
      "outputs": [
        {
          "internalType": "bool",
          "name": "",
          "type": "bool"
        }
      ],
      "stateMutability": "nonpayable",
      "type": "function"
    },
    {
      "inputs": [],
      "name": "getAccRewardPerShare",
      "outputs": [
        {
          "internalType": "uint256",
          "name": "",
          "type": "uint256"
        }
      ],
      "stateMutability": "view",
      "type": "function"
    },
    {
      "inputs": [
        {
          "internalType": "address",
          "name": "staker",
          "type": "address"
        }
      ],
      "name": "getCooldown",
      "outputs": [
        {
          "internalType": "uint256",
          "name": "",
          "type": "uint256"
        }
      ],
      "stateMutability": "view",
      "type": "function"
    },
    {
      "inputs": [],
      "name": "getCooldownSeconds",
      "outputs": [
        {
          "internalType": "uint256",
          "name": "",
          "type": "uint256"
        }
      ],
      "stateMutability": "view",
      "type": "function"
    },
    {
      "inputs": [],
      "name": "getLastRewardTime",
      "outputs": [
        {
          "internalType": "uint256",
          "name": "",
          "type": "uint256"
        }
      ],
      "stateMutability": "view",
      "type": "function"
    },
    {
      "inputs": [],
      "name": "getLiquidityStatus",
      "outputs": [
        {
          "internalType": "uint256",
          "name": "",
          "type": "uint256"
        }
      ],
      "stateMutability": "view",
      "type": "function"
    },
    {
      "inputs": [
        {
          "internalType": "uint256",
          "name": "userCooldownTimestamp",
          "type": "uint256"
        },
        {
          "internalType": "uint256",
          "name": "amountToReceive",
          "type": "uint256"
        },
        {
          "internalType": "address",
          "name": "toAddress",
          "type": "address"
        },
        {
          "internalType": "uint256",
          "name": "toBalance",
          "type": "uint256"
        }
      ],
      "name": "getNextCooldownTimestamp",
      "outputs": [
        {
          "internalType": "uint256",
          "name": "",
          "type": "uint256"
        }
      ],
      "stateMutability": "view",
      "type": "function"
    },
    {
      "inputs": [],
      "name": "getRewardPerSecond",
      "outputs": [
        {
          "internalType": "uint256",
          "name": "",
          "type": "uint256"
        }
      ],
      "stateMutability": "view",
      "type": "function"
    },
    {
      "inputs": [
        {
          "internalType": "address",
          "name": "benefitor",
          "type": "address"
        }
      ],
      "name": "getRewards",
      "outputs": [
        {
          "internalType": "uint256",
          "name": "pendingRewards",
          "type": "uint256"
        }
      ],
      "stateMutability": "view",
      "type": "function"
    },
    {
      "inputs": [
        {
          "internalType": "bytes32",
          "name": "role",
          "type": "bytes32"
        }
      ],
      "name": "getRoleAdmin",
      "outputs": [
        {
          "internalType": "bytes32",
          "name": "",
          "type": "bytes32"
        }
      ],
      "stateMutability": "view",
      "type": "function"
    },
    {
      "inputs": [],
      "name": "getUnstakeWindowTime",
      "outputs": [
        {
          "internalType": "uint256",
          "name": "",
          "type": "uint256"
        }
      ],
      "stateMutability": "view",
      "type": "function"
    },
    {
      "inputs": [
        {
          "internalType": "address",
          "name": "user",
          "type": "address"
        }
      ],
      "name": "getUserLFIDeposits",
      "outputs": [
        {
          "internalType": "uint256",
          "name": "",
          "type": "uint256"
        }
      ],
      "stateMutability": "view",
      "type": "function"
    },
    {
      "inputs": [
        {
          "internalType": "address",
          "name": "benefitor",
          "type": "address"
        }
      ],
      "name": "getUserRewardDebt",
      "outputs": [
        {
          "internalType": "int256",
          "name": "",
          "type": "int256"
        }
      ],
      "stateMutability": "view",
      "type": "function"
    },
    {
      "inputs": [
        {
          "internalType": "address",
          "name": "benefitor",
          "type": "address"
        }
      ],
      "name": "getUserVLFIAmount",
      "outputs": [
        {
          "internalType": "uint256",
          "name": "",
          "type": "uint256"
        }
      ],
      "stateMutability": "view",
      "type": "function"
    },
    {
      "inputs": [
        {
          "internalType": "bytes32",
          "name": "role",
          "type": "bytes32"
        },
        {
          "internalType": "address",
          "name": "account",
          "type": "address"
        }
      ],
      "name": "grantRole",
      "outputs": [],
      "stateMutability": "nonpayable",
      "type": "function"
    },
    {
      "inputs": [
        {
          "internalType": "bytes32",
          "name": "role",
          "type": "bytes32"
        },
        {
          "internalType": "address",
          "name": "account",
          "type": "address"
        }
      ],
      "name": "hasRole",
      "outputs": [
        {
          "internalType": "bool",
          "name": "",
          "type": "bool"
        }
      ],
      "stateMutability": "view",
      "type": "function"
    },
    {
      "inputs": [
        {
          "internalType": "address",
          "name": "spender",
          "type": "address"
        },
        {
          "internalType": "uint256",
          "name": "addedValue",
          "type": "uint256"
        }
      ],
      "name": "increaseAllowance",
      "outputs": [
        {
          "internalType": "bool",
          "name": "",
          "type": "bool"
        }
      ],
      "stateMutability": "nonpayable",
      "type": "function"
    },
    {
      "inputs": [],
      "name": "maxTreasuryWithdrawalPercentage",
      "outputs": [
        {
          "internalType": "uint256",
          "name": "",
          "type": "uint256"
        }
      ],
      "stateMutability": "view",
      "type": "function"
    },
    {
      "inputs": [],
      "name": "name",
      "outputs": [
        {
          "internalType": "string",
          "name": "",
          "type": "string"
        }
      ],
      "stateMutability": "view",
      "type": "function"
    },
    {
      "inputs": [
        {
          "internalType": "address",
          "name": "owner",
          "type": "address"
        }
      ],
      "name": "nonces",
      "outputs": [
        {
          "internalType": "uint256",
          "name": "",
          "type": "uint256"
        }
      ],
      "stateMutability": "view",
      "type": "function"
    },
    {
      "inputs": [
        {
          "internalType": "address",
          "name": "owner",
          "type": "address"
        },
        {
          "internalType": "address",
          "name": "spender",
          "type": "address"
        },
        {
          "internalType": "uint256",
          "name": "value",
          "type": "uint256"
        },
        {
          "internalType": "uint256",
          "name": "deadline",
          "type": "uint256"
        },
        {
          "internalType": "uint8",
          "name": "v",
          "type": "uint8"
        },
        {
          "internalType": "bytes32",
          "name": "r",
          "type": "bytes32"
        },
        {
          "internalType": "bytes32",
          "name": "s",
          "type": "bytes32"
        }
      ],
      "name": "permit",
      "outputs": [],
      "stateMutability": "nonpayable",
      "type": "function"
    },
    {
      "inputs": [
        {
          "internalType": "address",
          "name": "owner",
          "type": "address"
        },
        {
          "internalType": "address",
          "name": "spender",
          "type": "address"
        },
        {
          "internalType": "uint256",
          "name": "value",
          "type": "uint256"
        },
        {
          "internalType": "uint256",
          "name": "deadline",
          "type": "uint256"
        },
        {
          "internalType": "uint8",
          "name": "v",
          "type": "uint8"
        },
        {
          "internalType": "bytes32",
          "name": "r",
          "type": "bytes32"
        },
        {
          "internalType": "bytes32",
          "name": "s",
          "type": "bytes32"
        },
        {
          "internalType": "address",
          "name": "onBehalfOf",
          "type": "address"
        },
        {
          "internalType": "uint256",
          "name": "LFIamount",
          "type": "uint256"
        }
      ],
      "name": "permitAndStake",
      "outputs": [],
      "stateMutability": "nonpayable",
      "type": "function"
    },
    {
      "inputs": [
        {
          "internalType": "bytes32",
          "name": "role",
          "type": "bytes32"
        },
        {
          "internalType": "address",
          "name": "account",
          "type": "address"
        }
      ],
      "name": "renounceRole",
      "outputs": [],
      "stateMutability": "nonpayable",
      "type": "function"
    },
    {
      "inputs": [
        {
          "internalType": "bytes32",
          "name": "role",
          "type": "bytes32"
        },
        {
          "internalType": "address",
          "name": "account",
          "type": "address"
        }
      ],
      "name": "revokeRole",
      "outputs": [],
      "stateMutability": "nonpayable",
      "type": "function"
    },
    {
      "inputs": [
        {
          "internalType": "uint256",
          "name": "coolDownSeconds",
          "type": "uint256"
        }
      ],
      "name": "setCooldownSeconds",
      "outputs": [],
      "stateMutability": "nonpayable",
      "type": "function"
    },
    {
      "inputs": [
        {
          "internalType": "uint256",
          "name": "percentage",
          "type": "uint256"
        }
      ],
      "name": "setMaxTreasuryWithdrawalPercentage",
      "outputs": [],
      "stateMutability": "nonpayable",
      "type": "function"
    },
    {
      "inputs": [
        {
          "internalType": "uint256",
          "name": "_rewardPerSecond",
          "type": "uint256"
        }
      ],
      "name": "setRewardPerSecond",
      "outputs": [],
      "stateMutability": "nonpayable",
      "type": "function"
    },
    {
      "inputs": [
        {
          "internalType": "uint256",
          "name": "unstakeWindow",
          "type": "uint256"
        }
      ],
      "name": "setUnstakeWindowTime",
      "outputs": [],
      "stateMutability": "nonpayable",
      "type": "function"
    },
    {
      "inputs": [
        {
          "internalType": "address",
          "name": "onBehalfOf",
          "type": "address"
        },
        {
          "internalType": "uint256",
          "name": "amount",
          "type": "uint256"
        }
      ],
      "name": "stake",
      "outputs": [],
      "stateMutability": "nonpayable",
      "type": "function"
    },
    {
      "inputs": [
        {
          "internalType": "bytes4",
          "name": "interfaceId",
          "type": "bytes4"
        }
      ],
      "name": "supportsInterface",
      "outputs": [
        {
          "internalType": "bool",
          "name": "",
          "type": "bool"
        }
      ],
      "stateMutability": "view",
      "type": "function"
    },
    {
      "inputs": [],
      "name": "symbol",
      "outputs": [
        {
          "internalType": "string",
          "name": "",
          "type": "string"
        }
      ],
      "stateMutability": "view",
      "type": "function"
    },
    {
      "inputs": [],
      "name": "totalSupply",
      "outputs": [
        {
          "internalType": "uint256",
          "name": "",
          "type": "uint256"
        }
      ],
      "stateMutability": "view",
      "type": "function"
    },
    {
      "inputs": [
        {
          "internalType": "address",
          "name": "recipient",
          "type": "address"
        },
        {
          "internalType": "uint256",
          "name": "amount",
          "type": "uint256"
        }
      ],
      "name": "transfer",
      "outputs": [
        {
          "internalType": "bool",
          "name": "",
          "type": "bool"
        }
      ],
      "stateMutability": "nonpayable",
      "type": "function"
    },
    {
      "inputs": [
        {
          "internalType": "address",
          "name": "sender",
          "type": "address"
        },
        {
          "internalType": "address",
          "name": "recipient",
          "type": "address"
        },
        {
          "internalType": "uint256",
          "name": "amount",
          "type": "uint256"
        }
      ],
      "name": "transferFrom",
      "outputs": [
        {
          "internalType": "bool",
          "name": "",
          "type": "bool"
        }
      ],
      "stateMutability": "nonpayable",
      "type": "function"
    },
    {
      "inputs": [
        {
          "internalType": "address",
          "name": "to",
          "type": "address"
        },
        {
          "internalType": "uint256",
          "name": "treasuryWithdrawl",
          "type": "uint256"
        }
      ],
      "name": "transferToTreasury",
      "outputs": [],
      "stateMutability": "nonpayable",
      "type": "function"
    },
    {
      "inputs": [
        {
          "internalType": "address",
          "name": "to",
          "type": "address"
        },
        {
          "internalType": "uint256",
          "name": "amount",
          "type": "uint256"
        }
      ],
      "name": "unStake",
      "outputs": [],
      "stateMutability": "nonpayable",
      "type": "function"
    },
    {
      "inputs": [],
      "name": "updateFarm",
      "outputs": [
        {
          "components": [
            {
              "internalType": "uint256",
              "name": "accRewardsPerShare",
              "type": "uint256"
            },
            {
              "internalType": "uint256",
              "name": "lastRewardTime",
              "type": "uint256"
            }
          ],
          "internalType": "struct VLFI.FarmInfo",
          "name": "farm",
          "type": "tuple"
        }
      ],
      "stateMutability": "nonpayable",
      "type": "function"
    },
    {
      "inputs": [],
      "name": "updateRewardsToClaim",
      "outputs": [],
      "stateMutability": "nonpayable",
      "type": "function"
    }
  ],
  "bytecode": "0x6101806040527f6e71edae12b1b97f4d1f60370fef10105fa2faae0126114a169c64845d6126c9610140908152506012600a6200003d919062000a03565b6103e86200004c919062000a54565b600b553480156200005c57600080fd5b506040516200691138038062006911833981810160405281019062000082919062000cfc565b86806040518060400160405280600181526020017f310000000000000000000000000000000000000000000000000000000000000081525089898160039080519060200190620000d4929190620007c6565b508060049080519060200190620000ed929190620007c6565b50505060008280519060200120905060008280519060200120905060007f8b73c3c69bb8fe3d512ecc4cf759cc79239f7b179b0ffacaa9a75d522b39400f90508260e081815250508161010081815250504660a08181525050620001598184846200026260201b60201c565b608081815250503073ffffffffffffffffffffffffffffffffffffffff1660c08173ffffffffffffffffffffffffffffffffffffffff16815250508061012081815250505050505050508473ffffffffffffffffffffffffffffffffffffffff166101608173ffffffffffffffffffffffffffffffffffffffff168152505083600c8190555082600d8190555080600e81905550620002026000801b336200029e60201b60201c565b620002347f241ecf16d79d0f8dbfb92cbc07fe17840425976cf0667f022fe9877caa831b08336200029e60201b60201c565b62000245826200039060201b60201c565b62000255620003c060201b60201c565b50505050505050620011be565b600083838346306040516020016200027f95949392919062000e2a565b6040516020818303038152906040528051906020012090509392505050565b620002b082826200043460201b60201c565b6200038c5760016006600084815260200190815260200160002060000160008373ffffffffffffffffffffffffffffffffffffffff1673ffffffffffffffffffffffffffffffffffffffff16815260200190815260200160002060006101000a81548160ff021916908315150217905550620003316200049f60201b60201c565b73ffffffffffffffffffffffffffffffffffffffff168173ffffffffffffffffffffffffffffffffffffffff16837f2f8788117e7eff1d82e926ec794901d17c78024a50270940304540a733656f0d60405160405180910390a45b5050565b6000801b620003b581620003a96200049f60201b60201c565b620004a760201b60201c565b816009819055505050565b7f241ecf16d79d0f8dbfb92cbc07fe17840425976cf0667f022fe9877caa831b086200040281620003f66200049f60201b60201c565b620004a760201b60201c565b604051806040016040528060008152602001428152506007600082015181600001556020820151816001015590505050565b60006006600084815260200190815260200160002060000160008373ffffffffffffffffffffffffffffffffffffffff1673ffffffffffffffffffffffffffffffffffffffff16815260200190815260200160002060009054906101000a900460ff16905092915050565b600033905090565b620004b982826200043460201b60201c565b6200056757620004ec8173ffffffffffffffffffffffffffffffffffffffff1660146200056b60201b620022ae1760201c565b620005078360001c60206200056b60201b620022ae1760201c565b6040516020016200051a92919062000f74565b6040516020818303038152906040526040517f08c379a00000000000000000000000000000000000000000000000000000000081526004016200055e919062001008565b60405180910390fd5b5050565b60606000600283600262000580919062000a54565b6200058c91906200102c565b67ffffffffffffffff811115620005a857620005a762000ae4565b5b6040519080825280601f01601f191660200182016040528015620005db5781602001600182028036833780820191505090505b5090507f30000000000000000000000000000000000000000000000000000000000000008160008151811062000616576200061562001089565b5b60200101907effffffffffffffffffffffffffffffffffffffffffffffffffffffffffffff1916908160001a9053507f7800000000000000000000000000000000000000000000000000000000000000816001815181106200067d576200067c62001089565b5b60200101907effffffffffffffffffffffffffffffffffffffffffffffffffffffffffffff1916908160001a90535060006001846002620006bf919062000a54565b620006cb91906200102c565b90505b600181111562000775577f3031323334353637383961626364656600000000000000000000000000000000600f86166010811062000711576200071062001089565b5b1a60f81b8282815181106200072b576200072a62001089565b5b60200101907effffffffffffffffffffffffffffffffffffffffffffffffffffffffffffff1916908160001a905350600485901c9450806200076d90620010b8565b9050620006ce565b5060008414620007bc576040517f08c379a0000000000000000000000000000000000000000000000000000000008152600401620007b39062001137565b60405180910390fd5b8091505092915050565b828054620007d49062001188565b90600052602060002090601f016020900481019282620007f8576000855562000844565b82601f106200081357805160ff191683800117855562000844565b8280016001018555821562000844579182015b828111156200084357825182559160200191906001019062000826565b5b50905062000853919062000857565b5090565b5b808211156200087257600081600090555060010162000858565b5090565b7f4e487b7100000000000000000000000000000000000000000000000000000000600052601160045260246000fd5b60008160011c9050919050565b6000808291508390505b60018511156200090457808604811115620008dc57620008db62000876565b5b6001851615620008ec5780820291505b8081029050620008fc85620008a5565b9450620008bc565b94509492505050565b6000826200091f5760019050620009f2565b816200092f5760009050620009f2565b8160018114620009485760028114620009535762000989565b6001915050620009f2565b60ff84111562000968576200096762000876565b5b8360020a91508482111562000982576200098162000876565b5b50620009f2565b5060208310610133831016604e8410600b8410161715620009c35782820a905083811115620009bd57620009bc62000876565b5b620009f2565b620009d28484846001620008b2565b92509050818404811115620009ec57620009eb62000876565b5b81810290505b9392505050565b6000819050919050565b600062000a1082620009f9565b915062000a1d83620009f9565b925062000a4c7fffffffffffffffffffffffffffffffffffffffffffffffffffffffffffffffff84846200090d565b905092915050565b600062000a6182620009f9565b915062000a6e83620009f9565b9250817fffffffffffffffffffffffffffffffffffffffffffffffffffffffffffffffff048311821515161562000aaa5762000aa962000876565b5b828202905092915050565b6000604051905090565b600080fd5b600080fd5b600080fd5b600080fd5b6000601f19601f8301169050919050565b7f4e487b7100000000000000000000000000000000000000000000000000000000600052604160045260246000fd5b62000b1e8262000ad3565b810181811067ffffffffffffffff8211171562000b405762000b3f62000ae4565b5b80604052505050565b600062000b5562000ab5565b905062000b63828262000b13565b919050565b600067ffffffffffffffff82111562000b865762000b8562000ae4565b5b62000b918262000ad3565b9050602081019050919050565b60005b8381101562000bbe57808201518184015260208101905062000ba1565b8381111562000bce576000848401525b50505050565b600062000beb62000be58462000b68565b62000b49565b90508281526020810184848401111562000c0a5762000c0962000ace565b5b62000c1784828562000b9e565b509392505050565b600082601f83011262000c375762000c3662000ac9565b5b815162000c4984826020860162000bd4565b91505092915050565b600073ffffffffffffffffffffffffffffffffffffffff82169050919050565b600062000c7f8262000c52565b9050919050565b600062000c938262000c72565b9050919050565b62000ca58162000c86565b811462000cb157600080fd5b50565b60008151905062000cc58162000c9a565b92915050565b62000cd681620009f9565b811462000ce257600080fd5b50565b60008151905062000cf68162000ccb565b92915050565b600080600080600080600060e0888a03121562000d1e5762000d1d62000abf565b5b600088015167ffffffffffffffff81111562000d3f5762000d3e62000ac4565b5b62000d4d8a828b0162000c1f565b975050602088015167ffffffffffffffff81111562000d715762000d7062000ac4565b5b62000d7f8a828b0162000c1f565b965050604062000d928a828b0162000cb4565b955050606062000da58a828b0162000ce5565b945050608062000db88a828b0162000ce5565b93505060a062000dcb8a828b0162000ce5565b92505060c062000dde8a828b0162000ce5565b91505092959891949750929550565b6000819050919050565b62000e028162000ded565b82525050565b62000e1381620009f9565b82525050565b62000e248162000c72565b82525050565b600060a08201905062000e41600083018862000df7565b62000e50602083018762000df7565b62000e5f604083018662000df7565b62000e6e606083018562000e08565b62000e7d608083018462000e19565b9695505050505050565b600081905092915050565b7f416363657373436f6e74726f6c3a206163636f756e7420000000000000000000600082015250565b600062000eca60178362000e87565b915062000ed78262000e92565b601782019050919050565b600081519050919050565b600062000efa8262000ee2565b62000f06818562000e87565b935062000f1881856020860162000b9e565b80840191505092915050565b7f206973206d697373696e6720726f6c6520000000000000000000000000000000600082015250565b600062000f5c60118362000e87565b915062000f698262000f24565b601182019050919050565b600062000f818262000ebb565b915062000f8f828562000eed565b915062000f9c8262000f4d565b915062000faa828462000eed565b91508190509392505050565b600082825260208201905092915050565b600062000fd48262000ee2565b62000fe0818562000fb6565b935062000ff281856020860162000b9e565b62000ffd8162000ad3565b840191505092915050565b6000602082019050818103600083015262001024818462000fc7565b905092915050565b60006200103982620009f9565b91506200104683620009f9565b9250827fffffffffffffffffffffffffffffffffffffffffffffffffffffffffffffffff038211156200107e576200107d62000876565b5b828201905092915050565b7f4e487b7100000000000000000000000000000000000000000000000000000000600052603260045260246000fd5b6000620010c582620009f9565b91506000821415620010dc57620010db62000876565b5b600182039050919050565b7f537472696e67733a20686578206c656e67746820696e73756666696369656e74600082015250565b60006200111f60208362000fb6565b91506200112c82620010e7565b602082019050919050565b60006020820190508181036000830152620011528162001110565b9050919050565b7f4e487b7100000000000000000000000000000000000000000000000000000000600052602260045260246000fd5b60006002820490506001821680620011a157607f821691505b60208210811415620011b857620011b762001159565b5b50919050565b60805160a05160c05160e051610100516101205161014051610160516156ca6200124760003960008181610c88015281816113910152818161175101528181611a5401528181611e2d01526120310152600061189501526000612be701526000612c2901526000612c0801526000612b3d01526000612b9301526000612bbc01526156ca6000f3fe608060405234801561001057600080fd5b50600436106102bb5760003560e01c8063733d07be11610182578063adc9772e116100e9578063d9393814116100a2578063ec87621c1161007c578063ec87621c146108d2578063ef5cfb8c146108f0578063f1cc432a1461090c578063f54ca63c1461093c576102bb565b8063d939381414610868578063da5b4ee714610884578063dd62ed3e146108a2576102bb565b8063adc9772e146107aa578063c61fbcc5146107c6578063d505accf146107f6578063d547741f14610812578063d876246f1461082e578063d92aec591461084c576102bb565b80639a00a6a31161013b5780639a00a6a3146106c45780639dd267e6146106f4578063a217fddf14610710578063a457c2d71461072e578063a9059cbb1461075e578063ad88918f1461078e576102bb565b8063733d07be146105ca57806379ee54f7146105fa5780637b5b11571461062a5780637ecebe001461064657806391d148541461067657806395d89b41146106a6576102bb565b80633644e515116102265780634853b3b2116101df5780634853b3b21461051c5780635ac3ce1214610526578063616e0bf91461054257806366da5815146105605780636c07d9fe1461057c57806370a082311461059a576102bb565b80633644e5151461044657806336568abe14610464578063395093511461048057806339b84ecf146104b05780633c0717fd146104e05780633e340dae146104fe576102bb565b80631f477ea9116102785780631f477ea91461037057806323b872dd1461038e578063248a9ca3146103be5780632f2ff15d146103ee578063312f6b831461040a578063313ce56714610428576102bb565b806301ffc9a7146102c057806306fdde03146102f0578063095ea7b31461030e5780630e5b47bc1461033e57806318160ddd146103485780631d5ec3cb14610366575b600080fd5b6102da60048036038101906102d59190613b00565b61095a565b6040516102e79190613b48565b60405180910390f35b6102f86109d4565b6040516103059190613bfc565b60405180910390f35b61032860048036038101906103239190613cb2565b610a66565b6040516103359190613b48565b60405180910390f35b610346610a84565b005b610350610acd565b60405161035d9190613d01565b60405180910390f35b61036e610ad7565b005b610378610b3b565b6040516103859190613d01565b60405180910390f35b6103a860048036038101906103a39190613d1c565b610b45565b6040516103b59190613b48565b60405180910390f35b6103d860048036038101906103d39190613da5565b610c3d565b6040516103e59190613de1565b60405180910390f35b61040860048036038101906104039190613dfc565b610c5d565b005b610412610c86565b60405161041f9190613e9b565b60405180910390f35b610430610caa565b60405161043d9190613ed2565b60405180910390f35b61044e610cb3565b60405161045b9190613de1565b60405180910390f35b61047e60048036038101906104799190613dfc565b610cc2565b005b61049a60048036038101906104959190613cb2565b610d45565b6040516104a79190613b48565b60405180910390f35b6104ca60048036038101906104c59190613eed565b610df1565b6040516104d79190613d01565b60405180910390f35b6104e8610e3a565b6040516104f59190613d01565b60405180910390f35b610506610e44565b6040516105139190613d01565b60405180910390f35b610524610e51565b005b610540600480360381019061053b9190613f1a565b610f26565b005b61054a610f63565b6040516105579190613d01565b60405180910390f35b61057a60048036038101906105759190613f1a565b610f6d565b005b610584610f8d565b6040516105919190613d01565b60405180910390f35b6105b460048036038101906105af9190613eed565b610f9a565b6040516105c19190613d01565b60405180910390f35b6105e460048036038101906105df9190613eed565b610fe2565b6040516105f19190613d01565b60405180910390f35b610614600480360381019061060f9190613eed565b61102e565b6040516106219190613d01565b60405180910390f35b610644600480360381019061063f9190613f1a565b611157565b005b610660600480360381019061065b9190613eed565b611194565b60405161066d9190613d01565b60405180910390f35b610690600480360381019061068b9190613dfc565b6111e4565b60405161069d9190613b48565b60405180910390f35b6106ae61124f565b6040516106bb9190613bfc565b60405180910390f35b6106de60048036038101906106d99190613eed565b6112e1565b6040516106eb9190613d01565b60405180910390f35b61070e60048036038101906107099190613cb2565b61132a565b005b6107186113db565b6040516107259190613de1565b60405180910390f35b61074860048036038101906107439190613cb2565b6113e2565b6040516107559190613b48565b60405180910390f35b61077860048036038101906107739190613cb2565b6114cd565b6040516107859190613b48565b60405180910390f35b6107a860048036038101906107a39190613f1a565b6114eb565b005b6107c460048036038101906107bf9190613cb2565b611528565b005b6107e060048036038101906107db9190613eed565b611802565b6040516107ed9190613f60565b60405180910390f35b610810600480360381019061080b9190613fa7565b61184e565b005b61082c60048036038101906108279190613dfc565b611990565b005b6108366119b9565b6040516108439190613d01565b60405180910390f35b61086660048036038101906108619190614049565b6119bf565b005b610882600480360381019061087d9190613cb2565b611a46565b005b61088c611ede565b6040516108999190613d01565b60405180910390f35b6108bc60048036038101906108b79190614113565b611ee8565b6040516108c99190613d01565b60405180910390f35b6108da611f6f565b6040516108e79190613de1565b60405180910390f35b61090a60048036038101906109059190613eed565b611f93565b005b61092660048036038101906109219190614153565b6120e1565b6040516109339190613d01565b60405180910390f35b6109446121d9565b60405161095191906141f8565b60405180910390f35b60007f7965db0b000000000000000000000000000000000000000000000000000000007bffffffffffffffffffffffffffffffffffffffffffffffffffffffff1916827bffffffffffffffffffffffffffffffffffffffffffffffffffffffff191614806109cd57506109cc826124ea565b5b9050919050565b6060600380546109e390614242565b80601f0160208091040260200160405190810160405280929190818152602001828054610a0f90614242565b8015610a5c5780601f10610a3157610100808354040283529160200191610a5c565b820191906000526020600020905b815481529060010190602001808311610a3f57829003601f168201915b5050505050905090565b6000610a7a610a73612554565b848461255c565b6001905092915050565b600080600f60003373ffffffffffffffffffffffffffffffffffffffff1673ffffffffffffffffffffffffffffffffffffffff1681526020019081526020016000208190555050565b6000600254905090565b7f241ecf16d79d0f8dbfb92cbc07fe17840425976cf0667f022fe9877caa831b08610b0981610b04612554565b612727565b604051806040016040528060008152602001428152506007600082015181600001556020820151816001015590505050565b6000600d54905090565b6000610b528484846127c4565b6000600160008673ffffffffffffffffffffffffffffffffffffffff1673ffffffffffffffffffffffffffffffffffffffff1681526020019081526020016000206000610b9d612554565b73ffffffffffffffffffffffffffffffffffffffff1673ffffffffffffffffffffffffffffffffffffffff16815260200190815260200160002054905082811015610c1d576040517f08c379a0000000000000000000000000000000000000000000000000000000008152600401610c14906142e6565b60405180910390fd5b610c3185610c29612554565b85840361255c565b60019150509392505050565b600060066000838152602001908152602001600020600101549050919050565b610c6682610c3d565b610c7781610c72612554565b612727565b610c818383612a58565b505050565b7f000000000000000000000000000000000000000000000000000000000000000081565b60006012905090565b6000610cbd612b39565b905090565b610cca612554565b73ffffffffffffffffffffffffffffffffffffffff168173ffffffffffffffffffffffffffffffffffffffff1614610d37576040517f08c379a0000000000000000000000000000000000000000000000000000000008152600401610d2e90614378565b60405180910390fd5b610d418282612c53565b5050565b6000610de7610d52612554565b848460016000610d60612554565b73ffffffffffffffffffffffffffffffffffffffff1673ffffffffffffffffffffffffffffffffffffffff16815260200190815260200160002060008873ffffffffffffffffffffffffffffffffffffffff1673ffffffffffffffffffffffffffffffffffffffff16815260200190815260200160002054610de291906143c7565b61255c565b6001905092915050565b6000601060008373ffffffffffffffffffffffffffffffffffffffff1673ffffffffffffffffffffffffffffffffffffffff168152602001908152602001600020549050919050565b6000600a54905090565b6000600760010154905090565b6000610e5c33610f9a565b1415610e9d576040517f08c379a0000000000000000000000000000000000000000000000000000000008152600401610e9490614469565b60405180910390fd5b42601060003373ffffffffffffffffffffffffffffffffffffffff1673ffffffffffffffffffffffffffffffffffffffff168152602001908152602001600020819055503373ffffffffffffffffffffffffffffffffffffffff167f06458eacc93d062b1d92c6575f39b0c1d64541d6881846fecef52a42c7c8000860405160405180910390a2565b7f241ecf16d79d0f8dbfb92cbc07fe17840425976cf0667f022fe9877caa831b08610f5881610f53612554565b612727565b81600e819055505050565b6000600c54905090565b6000801b610f8281610f7d612554565b612727565b816009819055505050565b6000600760000154905090565b60008060008373ffffffffffffffffffffffffffffffffffffffff1673ffffffffffffffffffffffffffffffffffffffff168152602001908152602001600020549050919050565b6000601260008373ffffffffffffffffffffffffffffffffffffffff1673ffffffffffffffffffffffffffffffffffffffff168152602001908152602001600020600001549050919050565b60008060076040518060400160405290816000820154815260200160018201548152505090506000601260008573ffffffffffffffffffffffffffffffffffffffff1673ffffffffffffffffffffffffffffffffffffffff168152602001908152602001600020905060008260000151905060006110aa610acd565b90508360200151421180156110c0575060008114155b1561111a5760008460200151426110d79190614489565b90506000600954826110e991906144bd565b905082670de0b6b3a76400008261110091906144bd565b61110a9190614546565b8461111591906143c7565b935050505b8260010154670de0b6b3a764000083856000015461113891906144bd565b6111429190614546565b61114c9190614577565b945050505050919050565b7f241ecf16d79d0f8dbfb92cbc07fe17840425976cf0667f022fe9877caa831b0861118981611184612554565b612727565b81600c819055505050565b60006111dd600560008473ffffffffffffffffffffffffffffffffffffffff1673ffffffffffffffffffffffffffffffffffffffff168152602001908152602001600020612d35565b9050919050565b60006006600084815260200190815260200160002060000160008373ffffffffffffffffffffffffffffffffffffffff1673ffffffffffffffffffffffffffffffffffffffff16815260200190815260200160002060009054906101000a900460ff16905092915050565b60606004805461125e90614242565b80601f016020809104026020016040519081016040528092919081815260200182805461128a90614242565b80156112d75780601f106112ac576101008083540402835291602001916112d7565b820191906000526020600020905b8154815290600101906020018083116112ba57829003601f168201915b5050505050905090565b6000601160008373ffffffffffffffffffffffffffffffffffffffff1673ffffffffffffffffffffffffffffffffffffffff168152602001908152602001600020549050919050565b7f241ecf16d79d0f8dbfb92cbc07fe17840425976cf0667f022fe9877caa831b0861135c81611357612554565b612727565b6000612710600e54600a5461137191906144bd565b61137b9190614546565b90508083111561138a57600080fd5b6113d584847f000000000000000000000000000000000000000000000000000000000000000073ffffffffffffffffffffffffffffffffffffffff16612d439092919063ffffffff16565b50505050565b6000801b81565b600080600160006113f1612554565b73ffffffffffffffffffffffffffffffffffffffff1673ffffffffffffffffffffffffffffffffffffffff16815260200190815260200160002060008573ffffffffffffffffffffffffffffffffffffffff1673ffffffffffffffffffffffffffffffffffffffff168152602001908152602001600020549050828110156114ae576040517f08c379a00000000000000000000000000000000000000000000000000000000081526004016114a59061467d565b60405180910390fd5b6114c26114b9612554565b8585840361255c565b600191505092915050565b60006114e16114da612554565b84846127c4565b6001905092915050565b7f241ecf16d79d0f8dbfb92cbc07fe17840425976cf0667f022fe9877caa831b0861151d81611518612554565b612727565b81600d819055505050565b600081141561156c576040517f08c379a0000000000000000000000000000000000000000000000000000000008152600401611563906146e9565b60405180910390fd5b600061157783610f9a565b905060006115836121d9565b90506000601260003373ffffffffffffffffffffffffffffffffffffffff1673ffffffffffffffffffffffffffffffffffffffff1681526020019081526020016000209050600b54670de0b6b3a7640000856115df91906144bd565b6115e99190614546565b8160000160008282546115fc91906143c7565b92505081905550670de0b6b3a76400008260000151600b54670de0b6b3a76400008761162891906144bd565b6116329190614546565b61163c91906144bd565b6116469190614546565b8160010160008282546116599190614709565b9250508190555083601160003373ffffffffffffffffffffffffffffffffffffffff1673ffffffffffffffffffffffffffffffffffffffff16815260200190815260200160002060008282546116af91906143c7565b9250508190555083600a60008282546116c891906143c7565b925050819055506116dc60008587866120e1565b601060008773ffffffffffffffffffffffffffffffffffffffff1673ffffffffffffffffffffffffffffffffffffffff1681526020019081526020016000208190555061174985600b54670de0b6b3a76400008761173a91906144bd565b6117449190614546565b612dc9565b6117963330867f000000000000000000000000000000000000000000000000000000000000000073ffffffffffffffffffffffffffffffffffffffff16612f29909392919063ffffffff16565b8473ffffffffffffffffffffffffffffffffffffffff163373ffffffffffffffffffffffffffffffffffffffff167f5dac0c1b1112564a045ba943c9d50270893e8e826c49be8e7073adc713ab7bd7866040516117f39190613d01565b60405180910390a35050505050565b6000601260008373ffffffffffffffffffffffffffffffffffffffff1673ffffffffffffffffffffffffffffffffffffffff168152602001908152602001600020600101549050919050565b83421115611891576040517f08c379a0000000000000000000000000000000000000000000000000000000008152600401611888906147e9565b60405180910390fd5b60007f00000000000000000000000000000000000000000000000000000000000000008888886118c08c612fb2565b896040516020016118d696959493929190614818565b60405160208183030381529060405280519060200120905060006118f982613010565b905060006119098287878761302a565b90508973ffffffffffffffffffffffffffffffffffffffff168173ffffffffffffffffffffffffffffffffffffffff1614611979576040517f08c379a0000000000000000000000000000000000000000000000000000000008152600401611970906148c5565b60405180910390fd5b6119848a8a8a61255c565b50505050505050505050565b61199982610c3d565b6119aa816119a5612554565b612727565b6119b48383612c53565b505050565b600e5481565b6119ce8989898989898961184e565b3073ffffffffffffffffffffffffffffffffffffffff1663adc9772e83836040518363ffffffff1660e01b8152600401611a099291906148e5565b600060405180830381600087803b158015611a2357600080fd5b505af1158015611a37573d6000803e3d6000fd5b50505050505050505050505050565b60008114158015611af057507f000000000000000000000000000000000000000000000000000000000000000073ffffffffffffffffffffffffffffffffffffffff166370a08231336040518263ffffffff1660e01b8152600401611aab919061490e565b602060405180830381865afa158015611ac8573d6000803e3d6000fd5b505050506040513d601f19601f82011682018060405250810190611aec919061493e565b8111155b611b2f576040517f08c379a0000000000000000000000000000000000000000000000000000000008152600401611b26906146e9565b60405180910390fd5b6000601060003373ffffffffffffffffffffffffffffffffffffffff1673ffffffffffffffffffffffffffffffffffffffff168152602001908152602001600020549050600c5481611b8191906143c7565b4211611bc2576040517f08c379a0000000000000000000000000000000000000000000000000000000008152600401611bb9906149b7565b60405180910390fd5b600d54600c5482611bd391906143c7565b42611bde9190614489565b1115611c1f576040517f08c379a0000000000000000000000000000000000000000000000000000000008152600401611c1690614a23565b60405180910390fd5b6000611c2a33610f9a565b90506000611c366121d9565b90506000601260003373ffffffffffffffffffffffffffffffffffffffff1673ffffffffffffffffffffffffffffffffffffffff1681526020019081526020016000209050670de0b6b3a76400008260000151600b54670de0b6b3a764000088611ca091906144bd565b611caa9190614546565b611cb491906144bd565b611cbe9190614546565b816001016000828254611cd19190614577565b92505081905550600b54670de0b6b3a764000086611cef91906144bd565b611cf99190614546565b816000016000828254611d0c9190614489565b9250508190555084601160003373ffffffffffffffffffffffffffffffffffffffff1673ffffffffffffffffffffffffffffffffffffffff1681526020019081526020016000206000828254611d629190614489565b9250508190555084600a6000828254611d7b9190614489565b92505081905550611dac33600b54670de0b6b3a764000088611d9d91906144bd565b611da79190614546565b613055565b6000600b54670de0b6b3a764000087611dc591906144bd565b611dcf9190614546565b84611dda9190614489565b1415611e26576000601060003373ffffffffffffffffffffffffffffffffffffffff1673ffffffffffffffffffffffffffffffffffffffff168152602001908152602001600020819055505b611e7186867f000000000000000000000000000000000000000000000000000000000000000073ffffffffffffffffffffffffffffffffffffffff16612d439092919063ffffffff16565b3373ffffffffffffffffffffffffffffffffffffffff163373ffffffffffffffffffffffffffffffffffffffff167f8a3c16627a0e7a870a5d5cd0121ca5d80e2efd0ec7198a11644f1a516ac3709387604051611ece9190613d01565b60405180910390a3505050505050565b6000600954905090565b6000600160008473ffffffffffffffffffffffffffffffffffffffff1673ffffffffffffffffffffffffffffffffffffffff16815260200190815260200160002060008373ffffffffffffffffffffffffffffffffffffffff1673ffffffffffffffffffffffffffffffffffffffff16815260200190815260200160002054905092915050565b7f241ecf16d79d0f8dbfb92cbc07fe17840425976cf0667f022fe9877caa831b0881565b6000611f9d6121d9565b90506000601260003373ffffffffffffffffffffffffffffffffffffffff1673ffffffffffffffffffffffffffffffffffffffff16815260200190815260200160002090506000670de0b6b3a76400008360000151836000015461200191906144bd565b61200b9190614546565b9050600082600101548261201f9190614577565b905081836001018190555061207585827f000000000000000000000000000000000000000000000000000000000000000073ffffffffffffffffffffffffffffffffffffffff16612d439092919063ffffffff16565b8473ffffffffffffffffffffffffffffffffffffffff163373ffffffffffffffffffffffffffffffffffffffff167f9310ccfcb8de723f578a9e4282ea9f521f05ae40dc08f3068dfad528a65ee3c7836040516120d29190613d01565b60405180910390a35050505050565b600080601060008573ffffffffffffffffffffffffffffffffffffffff1673ffffffffffffffffffffffffffffffffffffffff16815260200190815260200160002054905060008114156121395760009150506121d1565b6000600d54600c544261214c9190614489565b6121569190614489565b90508181111561216957600091506121cb565b6000878211612178578761217a565b425b90508281101561218f578293505050506121d1565b848761219b91906143c7565b83866121a791906144bd565b82896121b391906144bd565b6121bd91906143c7565b6121c79190614546565b9250505b81925050505b949350505050565b6121e1613a89565b600760405180604001604052908160008201548152602001600182015481525050905042816020015110156122ab57600061221a610acd565b905060008111156122855760008260200151426122379190614489565b905060006009548261224991906144bd565b905082670de0b6b3a76400008261226091906144bd565b61226a9190614546565b8460000181815161227b91906143c7565b9150818152505050505b428260200181815250508160076000820151816000015560208201518160010155905050505b90565b6060600060028360026122c191906144bd565b6122cb91906143c7565b67ffffffffffffffff8111156122e4576122e3614a43565b5b6040519080825280601f01601f1916602001820160405280156123165781602001600182028036833780820191505090505b5090507f30000000000000000000000000000000000000000000000000000000000000008160008151811061234e5761234d614a72565b5b60200101907effffffffffffffffffffffffffffffffffffffffffffffffffffffffffffff1916908160001a9053507f7800000000000000000000000000000000000000000000000000000000000000816001815181106123b2576123b1614a72565b5b60200101907effffffffffffffffffffffffffffffffffffffffffffffffffffffffffffff1916908160001a905350600060018460026123f291906144bd565b6123fc91906143c7565b90505b600181111561249c577f3031323334353637383961626364656600000000000000000000000000000000600f86166010811061243e5761243d614a72565b5b1a60f81b82828151811061245557612454614a72565b5b60200101907effffffffffffffffffffffffffffffffffffffffffffffffffffffffffffff1916908160001a905350600485901c94508061249590614aa1565b90506123ff565b50600084146124e0576040517f08c379a00000000000000000000000000000000000000000000000000000000081526004016124d790614b17565b60405180910390fd5b8091505092915050565b60007f01ffc9a7000000000000000000000000000000000000000000000000000000007bffffffffffffffffffffffffffffffffffffffffffffffffffffffff1916827bffffffffffffffffffffffffffffffffffffffffffffffffffffffff1916149050919050565b600033905090565b600073ffffffffffffffffffffffffffffffffffffffff168373ffffffffffffffffffffffffffffffffffffffff1614156125cc576040517f08c379a00000000000000000000000000000000000000000000000000000000081526004016125c390614ba9565b60405180910390fd5b600073ffffffffffffffffffffffffffffffffffffffff168273ffffffffffffffffffffffffffffffffffffffff16141561263c576040517f08c379a000000000000000000000000000000000000000000000000000000000815260040161263390614c3b565b60405180910390fd5b80600160008573ffffffffffffffffffffffffffffffffffffffff1673ffffffffffffffffffffffffffffffffffffffff16815260200190815260200160002060008473ffffffffffffffffffffffffffffffffffffffff1673ffffffffffffffffffffffffffffffffffffffff168152602001908152602001600020819055508173ffffffffffffffffffffffffffffffffffffffff168373ffffffffffffffffffffffffffffffffffffffff167f8c5be1e5ebec7d5bd14f71427d1e84f3dd0314c0f7b2291e5b200ac8c7c3b9258360405161271a9190613d01565b60405180910390a3505050565b61273182826111e4565b6127c0576127568173ffffffffffffffffffffffffffffffffffffffff1660146122ae565b6127648360001c60206122ae565b604051602001612775929190614d2f565b6040516020818303038152906040526040517f08c379a00000000000000000000000000000000000000000000000000000000081526004016127b79190613bfc565b60405180910390fd5b5050565b60006127cf84610f9a565b905060006127db6121d9565b90506000601260008773ffffffffffffffffffffffffffffffffffffffff1673ffffffffffffffffffffffffffffffffffffffff1681526020019081526020016000209050670de0b6b3a764000082600001518561283991906144bd565b6128439190614546565b8160010160008282546128569190614577565b92505081905550838160000160008282546128719190614489565b925050819055508473ffffffffffffffffffffffffffffffffffffffff168673ffffffffffffffffffffffffffffffffffffffff1614612a455760006128b686610f9a565b90506000601260008873ffffffffffffffffffffffffffffffffffffffff1673ffffffffffffffffffffffffffffffffffffffff1681526020019081526020016000209050670de0b6b3a764000084600001518761291491906144bd565b61291e9190614546565b8160010160008282546129319190614709565b925050819055508581600001600082825461294c91906143c7565b925050819055506000601060008a73ffffffffffffffffffffffffffffffffffffffff1673ffffffffffffffffffffffffffffffffffffffff1681526020019081526020016000205490506129a381888a866120e1565b601060008a73ffffffffffffffffffffffffffffffffffffffff1673ffffffffffffffffffffffffffffffffffffffff1681526020019081526020016000208190555086861480156129f6575060008114155b15612a41576000601060008b73ffffffffffffffffffffffffffffffffffffffff1673ffffffffffffffffffffffffffffffffffffffff168152602001908152602001600020819055505b5050505b612a5086868661322c565b505050505050565b612a6282826111e4565b612b355760016006600084815260200190815260200160002060000160008373ffffffffffffffffffffffffffffffffffffffff1673ffffffffffffffffffffffffffffffffffffffff16815260200190815260200160002060006101000a81548160ff021916908315150217905550612ada612554565b73ffffffffffffffffffffffffffffffffffffffff168173ffffffffffffffffffffffffffffffffffffffff16837f2f8788117e7eff1d82e926ec794901d17c78024a50270940304540a733656f0d60405160405180910390a45b5050565b60007f000000000000000000000000000000000000000000000000000000000000000073ffffffffffffffffffffffffffffffffffffffff163073ffffffffffffffffffffffffffffffffffffffff16148015612bb557507f000000000000000000000000000000000000000000000000000000000000000046145b15612be2577f00000000000000000000000000000000000000000000000000000000000000009050612c50565b612c4d7f00000000000000000000000000000000000000000000000000000000000000007f00000000000000000000000000000000000000000000000000000000000000007f00000000000000000000000000000000000000000000000000000000000000006134ad565b90505b90565b612c5d82826111e4565b15612d315760006006600084815260200190815260200160002060000160008373ffffffffffffffffffffffffffffffffffffffff1673ffffffffffffffffffffffffffffffffffffffff16815260200190815260200160002060006101000a81548160ff021916908315150217905550612cd6612554565b73ffffffffffffffffffffffffffffffffffffffff168173ffffffffffffffffffffffffffffffffffffffff16837ff6391f5c32d9c69d2a47ea670b442974b53935d1edc7fd64eb21e047a839171b60405160405180910390a45b5050565b600081600001549050919050565b612dc48363a9059cbb60e01b8484604051602401612d629291906148e5565b604051602081830303815290604052907bffffffffffffffffffffffffffffffffffffffffffffffffffffffff19166020820180517bffffffffffffffffffffffffffffffffffffffffffffffffffffffff83818316178352505050506134e7565b505050565b600073ffffffffffffffffffffffffffffffffffffffff168273ffffffffffffffffffffffffffffffffffffffff161415612e39576040517f08c379a0000000000000000000000000000000000000000000000000000000008152600401612e3090614db5565b60405180910390fd5b612e45600083836135ae565b8060026000828254612e5791906143c7565b92505081905550806000808473ffffffffffffffffffffffffffffffffffffffff1673ffffffffffffffffffffffffffffffffffffffff1681526020019081526020016000206000828254612eac91906143c7565b925050819055508173ffffffffffffffffffffffffffffffffffffffff16600073ffffffffffffffffffffffffffffffffffffffff167fddf252ad1be2c89b69c2b068fc378daa952ba7f163c4a11628f55a4df523b3ef83604051612f119190613d01565b60405180910390a3612f25600083836135b3565b5050565b612fac846323b872dd60e01b858585604051602401612f4a93929190614dd5565b604051602081830303815290604052907bffffffffffffffffffffffffffffffffffffffffffffffffffffffff19166020820180517bffffffffffffffffffffffffffffffffffffffffffffffffffffffff83818316178352505050506134e7565b50505050565b600080600560008473ffffffffffffffffffffffffffffffffffffffff1673ffffffffffffffffffffffffffffffffffffffff1681526020019081526020016000209050612fff81612d35565b915061300a816135b8565b50919050565b600061302361301d612b39565b836135ce565b9050919050565b600080600061303b87878787613601565b915091506130488161370e565b8192505050949350505050565b600073ffffffffffffffffffffffffffffffffffffffff168273ffffffffffffffffffffffffffffffffffffffff1614156130c5576040517f08c379a00000000000000000000000000000000000000000000000000000000081526004016130bc90614e7e565b60405180910390fd5b6130d1826000836135ae565b60008060008473ffffffffffffffffffffffffffffffffffffffff1673ffffffffffffffffffffffffffffffffffffffff16815260200190815260200160002054905081811015613157576040517f08c379a000000000000000000000000000000000000000000000000000000000815260040161314e90614f10565b60405180910390fd5b8181036000808573ffffffffffffffffffffffffffffffffffffffff1673ffffffffffffffffffffffffffffffffffffffff1681526020019081526020016000208190555081600260008282546131ae9190614489565b92505081905550600073ffffffffffffffffffffffffffffffffffffffff168373ffffffffffffffffffffffffffffffffffffffff167fddf252ad1be2c89b69c2b068fc378daa952ba7f163c4a11628f55a4df523b3ef846040516132139190613d01565b60405180910390a3613227836000846135b3565b505050565b600073ffffffffffffffffffffffffffffffffffffffff168373ffffffffffffffffffffffffffffffffffffffff16141561329c576040517f08c379a000000000000000000000000000000000000000000000000000000000815260040161329390614fa2565b60405180910390fd5b600073ffffffffffffffffffffffffffffffffffffffff168273ffffffffffffffffffffffffffffffffffffffff16141561330c576040517f08c379a000000000000000000000000000000000000000000000000000000000815260040161330390615034565b60405180910390fd5b6133178383836135ae565b60008060008573ffffffffffffffffffffffffffffffffffffffff1673ffffffffffffffffffffffffffffffffffffffff1681526020019081526020016000205490508181101561339d576040517f08c379a0000000000000000000000000000000000000000000000000000000008152600401613394906150c6565b60405180910390fd5b8181036000808673ffffffffffffffffffffffffffffffffffffffff1673ffffffffffffffffffffffffffffffffffffffff16815260200190815260200160002081905550816000808573ffffffffffffffffffffffffffffffffffffffff1673ffffffffffffffffffffffffffffffffffffffff168152602001908152602001600020600082825461343091906143c7565b925050819055508273ffffffffffffffffffffffffffffffffffffffff168473ffffffffffffffffffffffffffffffffffffffff167fddf252ad1be2c89b69c2b068fc378daa952ba7f163c4a11628f55a4df523b3ef846040516134949190613d01565b60405180910390a36134a78484846135b3565b50505050565b600083838346306040516020016134c89594939291906150e6565b6040516020818303038152906040528051906020012090509392505050565b6000613549826040518060400160405280602081526020017f5361666545524332303a206c6f772d6c6576656c2063616c6c206661696c65648152508573ffffffffffffffffffffffffffffffffffffffff166138e39092919063ffffffff16565b90506000815111156135a957808060200190518101906135699190615165565b6135a8576040517f08c379a000000000000000000000000000000000000000000000000000000000815260040161359f90615204565b60405180910390fd5b5b505050565b505050565b505050565b6001816000016000828254019250508190555050565b600082826040516020016135e3929190615291565b60405160208183030381529060405280519060200120905092915050565b6000807f7fffffffffffffffffffffffffffffff5d576e7357a4501ddfe92f46681b20a08360001c111561363c576000600391509150613705565b601b8560ff16141580156136545750601c8560ff1614155b15613666576000600491509150613705565b60006001878787876040516000815260200160405260405161368b94939291906152c8565b6020604051602081039080840390855afa1580156136ad573d6000803e3d6000fd5b505050602060405103519050600073ffffffffffffffffffffffffffffffffffffffff168173ffffffffffffffffffffffffffffffffffffffff1614156136fc57600060019250925050613705565b80600092509250505b94509492505050565b600060048111156137225761372161530d565b5b8160048111156137355761373461530d565b5b1415613740576138e0565b600160048111156137545761375361530d565b5b8160048111156137675761376661530d565b5b14156137a8576040517f08c379a000000000000000000000000000000000000000000000000000000000815260040161379f90615388565b60405180910390fd5b600260048111156137bc576137bb61530d565b5b8160048111156137cf576137ce61530d565b5b1415613810576040517f08c379a0000000000000000000000000000000000000000000000000000000008152600401613807906153f4565b60405180910390fd5b600360048111156138245761382361530d565b5b8160048111156138375761383661530d565b5b1415613878576040517f08c379a000000000000000000000000000000000000000000000000000000000815260040161386f90615486565b60405180910390fd5b60048081111561388b5761388a61530d565b5b81600481111561389e5761389d61530d565b5b14156138df576040517f08c379a00000000000000000000000000000000000000000000000000000000081526004016138d690615518565b60405180910390fd5b5b50565b60606138f284846000856138fb565b90509392505050565b606082471015613940576040517f08c379a0000000000000000000000000000000000000000000000000000000008152600401613937906155aa565b60405180910390fd5b61394985613a0f565b613988576040517f08c379a000000000000000000000000000000000000000000000000000000000815260040161397f90615616565b60405180910390fd5b6000808673ffffffffffffffffffffffffffffffffffffffff1685876040516139b1919061567d565b60006040518083038185875af1925050503d80600081146139ee576040519150601f19603f3d011682016040523d82523d6000602084013e6139f3565b606091505b5091509150613a03828286613a22565b92505050949350505050565b600080823b905060008111915050919050565b60608315613a3257829050613a82565b600083511115613a455782518084602001fd5b816040517f08c379a0000000000000000000000000000000000000000000000000000000008152600401613a799190613bfc565b60405180910390fd5b9392505050565b604051806040016040528060008152602001600081525090565b600080fd5b60007fffffffff0000000000000000000000000000000000000000000000000000000082169050919050565b613add81613aa8565b8114613ae857600080fd5b50565b600081359050613afa81613ad4565b92915050565b600060208284031215613b1657613b15613aa3565b5b6000613b2484828501613aeb565b91505092915050565b60008115159050919050565b613b4281613b2d565b82525050565b6000602082019050613b5d6000830184613b39565b92915050565b600081519050919050565b600082825260208201905092915050565b60005b83811015613b9d578082015181840152602081019050613b82565b83811115613bac576000848401525b50505050565b6000601f19601f8301169050919050565b6000613bce82613b63565b613bd88185613b6e565b9350613be8818560208601613b7f565b613bf181613bb2565b840191505092915050565b60006020820190508181036000830152613c168184613bc3565b905092915050565b600073ffffffffffffffffffffffffffffffffffffffff82169050919050565b6000613c4982613c1e565b9050919050565b613c5981613c3e565b8114613c6457600080fd5b50565b600081359050613c7681613c50565b92915050565b6000819050919050565b613c8f81613c7c565b8114613c9a57600080fd5b50565b600081359050613cac81613c86565b92915050565b60008060408385031215613cc957613cc8613aa3565b5b6000613cd785828601613c67565b9250506020613ce885828601613c9d565b9150509250929050565b613cfb81613c7c565b82525050565b6000602082019050613d166000830184613cf2565b92915050565b600080600060608486031215613d3557613d34613aa3565b5b6000613d4386828701613c67565b9350506020613d5486828701613c67565b9250506040613d6586828701613c9d565b9150509250925092565b6000819050919050565b613d8281613d6f565b8114613d8d57600080fd5b50565b600081359050613d9f81613d79565b92915050565b600060208284031215613dbb57613dba613aa3565b5b6000613dc984828501613d90565b91505092915050565b613ddb81613d6f565b82525050565b6000602082019050613df66000830184613dd2565b92915050565b60008060408385031215613e1357613e12613aa3565b5b6000613e2185828601613d90565b9250506020613e3285828601613c67565b9150509250929050565b6000819050919050565b6000613e61613e5c613e5784613c1e565b613e3c565b613c1e565b9050919050565b6000613e7382613e46565b9050919050565b6000613e8582613e68565b9050919050565b613e9581613e7a565b82525050565b6000602082019050613eb06000830184613e8c565b92915050565b600060ff82169050919050565b613ecc81613eb6565b82525050565b6000602082019050613ee76000830184613ec3565b92915050565b600060208284031215613f0357613f02613aa3565b5b6000613f1184828501613c67565b91505092915050565b600060208284031215613f3057613f2f613aa3565b5b6000613f3e84828501613c9d565b91505092915050565b6000819050919050565b613f5a81613f47565b82525050565b6000602082019050613f756000830184613f51565b92915050565b613f8481613eb6565b8114613f8f57600080fd5b50565b600081359050613fa181613f7b565b92915050565b600080600080600080600060e0888a031215613fc657613fc5613aa3565b5b6000613fd48a828b01613c67565b9750506020613fe58a828b01613c67565b9650506040613ff68a828b01613c9d565b95505060606140078a828b01613c9d565b94505060806140188a828b01613f92565b93505060a06140298a828b01613d90565b92505060c061403a8a828b01613d90565b91505092959891949750929550565b60008060008060008060008060006101208a8c03121561406c5761406b613aa3565b5b600061407a8c828d01613c67565b995050602061408b8c828d01613c67565b985050604061409c8c828d01613c9d565b97505060606140ad8c828d01613c9d565b96505060806140be8c828d01613f92565b95505060a06140cf8c828d01613d90565b94505060c06140e08c828d01613d90565b93505060e06140f18c828d01613c67565b9250506101006141038c828d01613c9d565b9150509295985092959850929598565b6000806040838503121561412a57614129613aa3565b5b600061413885828601613c67565b925050602061414985828601613c67565b9150509250929050565b6000806000806080858703121561416d5761416c613aa3565b5b600061417b87828801613c9d565b945050602061418c87828801613c9d565b935050604061419d87828801613c67565b92505060606141ae87828801613c9d565b91505092959194509250565b6141c381613c7c565b82525050565b6040820160008201516141df60008501826141ba565b5060208201516141f260208501826141ba565b50505050565b600060408201905061420d60008301846141c9565b92915050565b7f4e487b7100000000000000000000000000000000000000000000000000000000600052602260045260246000fd5b6000600282049050600182168061425a57607f821691505b6020821081141561426e5761426d614213565b5b50919050565b7f45524332303a207472616e7366657220616d6f756e742065786365656473206160008201527f6c6c6f77616e6365000000000000000000000000000000000000000000000000602082015250565b60006142d0602883613b6e565b91506142db82614274565b604082019050919050565b600060208201905081810360008301526142ff816142c3565b9050919050565b7f416363657373436f6e74726f6c3a2063616e206f6e6c792072656e6f756e636560008201527f20726f6c657320666f722073656c660000000000000000000000000000000000602082015250565b6000614362602f83613b6e565b915061436d82614306565b604082019050919050565b6000602082019050818103600083015261439181614355565b9050919050565b7f4e487b7100000000000000000000000000000000000000000000000000000000600052601160045260246000fd5b60006143d282613c7c565b91506143dd83613c7c565b9250827fffffffffffffffffffffffffffffffffffffffffffffffffffffffffffffffff0382111561441257614411614398565b5b828201905092915050565b7f564c46493a494e56414c49445f42414c414e43455f4f4e5f434f4f4c444f574e600082015250565b6000614453602083613b6e565b915061445e8261441d565b602082019050919050565b6000602082019050818103600083015261448281614446565b9050919050565b600061449482613c7c565b915061449f83613c7c565b9250828210156144b2576144b1614398565b5b828203905092915050565b60006144c882613c7c565b91506144d383613c7c565b9250817fffffffffffffffffffffffffffffffffffffffffffffffffffffffffffffffff048311821515161561450c5761450b614398565b5b828202905092915050565b7f4e487b7100000000000000000000000000000000000000000000000000000000600052601260045260246000fd5b600061455182613c7c565b915061455c83613c7c565b92508261456c5761456b614517565b5b828204905092915050565b600061458282613f47565b915061458d83613f47565b9250827f8000000000000000000000000000000000000000000000000000000000000000018212600084121516156145c8576145c7614398565b5b827f7fffffffffffffffffffffffffffffffffffffffffffffffffffffffffffffff018213600084121615614600576145ff614398565b5b828203905092915050565b7f45524332303a2064656372656173656420616c6c6f77616e63652062656c6f7760008201527f207a65726f000000000000000000000000000000000000000000000000000000602082015250565b6000614667602583613b6e565b91506146728261460b565b604082019050919050565b600060208201905081810360008301526146968161465a565b9050919050565b7f564c46493a494e56414c49445f414d4f554e5400000000000000000000000000600082015250565b60006146d3601383613b6e565b91506146de8261469d565b602082019050919050565b60006020820190508181036000830152614702816146c6565b9050919050565b600061471482613f47565b915061471f83613f47565b9250817f7fffffffffffffffffffffffffffffffffffffffffffffffffffffffffffffff0383136000831215161561475a57614759614398565b5b817f800000000000000000000000000000000000000000000000000000000000000003831260008312161561479257614791614398565b5b828201905092915050565b7f45524332305065726d69743a206578706972656420646561646c696e65000000600082015250565b60006147d3601d83613b6e565b91506147de8261479d565b602082019050919050565b60006020820190508181036000830152614802816147c6565b9050919050565b61481281613c3e565b82525050565b600060c08201905061482d6000830189613dd2565b61483a6020830188614809565b6148476040830187614809565b6148546060830186613cf2565b6148616080830185613cf2565b61486e60a0830184613cf2565b979650505050505050565b7f45524332305065726d69743a20696e76616c6964207369676e61747572650000600082015250565b60006148af601e83613b6e565b91506148ba82614879565b602082019050919050565b600060208201905081810360008301526148de816148a2565b9050919050565b60006040820190506148fa6000830185614809565b6149076020830184613cf2565b9392505050565b60006020820190506149236000830184614809565b92915050565b60008151905061493881613c86565b92915050565b60006020828403121561495457614953613aa3565b5b600061496284828501614929565b91505092915050565b7f564c46493a434f4f4c444f574e5f4e4f545f434f4d504c455445000000000000600082015250565b60006149a1601a83613b6e565b91506149ac8261496b565b602082019050919050565b600060208201905081810360008301526149d081614994565b9050919050565b7f564c46493a554e5354414b455f57494e444f575f46494e495348454400000000600082015250565b6000614a0d601c83613b6e565b9150614a18826149d7565b602082019050919050565b60006020820190508181036000830152614a3c81614a00565b9050919050565b7f4e487b7100000000000000000000000000000000000000000000000000000000600052604160045260246000fd5b7f4e487b7100000000000000000000000000000000000000000000000000000000600052603260045260246000fd5b6000614aac82613c7c565b91506000821415614ac057614abf614398565b5b600182039050919050565b7f537472696e67733a20686578206c656e67746820696e73756666696369656e74600082015250565b6000614b01602083613b6e565b9150614b0c82614acb565b602082019050919050565b60006020820190508181036000830152614b3081614af4565b9050919050565b7f45524332303a20617070726f76652066726f6d20746865207a65726f2061646460008201527f7265737300000000000000000000000000000000000000000000000000000000602082015250565b6000614b93602483613b6e565b9150614b9e82614b37565b604082019050919050565b60006020820190508181036000830152614bc281614b86565b9050919050565b7f45524332303a20617070726f766520746f20746865207a65726f20616464726560008201527f7373000000000000000000000000000000000000000000000000000000000000602082015250565b6000614c25602283613b6e565b9150614c3082614bc9565b604082019050919050565b60006020820190508181036000830152614c5481614c18565b9050919050565b600081905092915050565b7f416363657373436f6e74726f6c3a206163636f756e7420000000000000000000600082015250565b6000614c9c601783614c5b565b9150614ca782614c66565b601782019050919050565b6000614cbd82613b63565b614cc78185614c5b565b9350614cd7818560208601613b7f565b80840191505092915050565b7f206973206d697373696e6720726f6c6520000000000000000000000000000000600082015250565b6000614d19601183614c5b565b9150614d2482614ce3565b601182019050919050565b6000614d3a82614c8f565b9150614d468285614cb2565b9150614d5182614d0c565b9150614d5d8284614cb2565b91508190509392505050565b7f45524332303a206d696e7420746f20746865207a65726f206164647265737300600082015250565b6000614d9f601f83613b6e565b9150614daa82614d69565b602082019050919050565b60006020820190508181036000830152614dce81614d92565b9050919050565b6000606082019050614dea6000830186614809565b614df76020830185614809565b614e046040830184613cf2565b949350505050565b7f45524332303a206275726e2066726f6d20746865207a65726f2061646472657360008201527f7300000000000000000000000000000000000000000000000000000000000000602082015250565b6000614e68602183613b6e565b9150614e7382614e0c565b604082019050919050565b60006020820190508181036000830152614e9781614e5b565b9050919050565b7f45524332303a206275726e20616d6f756e7420657863656564732062616c616e60008201527f6365000000000000000000000000000000000000000000000000000000000000602082015250565b6000614efa602283613b6e565b9150614f0582614e9e565b604082019050919050565b60006020820190508181036000830152614f2981614eed565b9050919050565b7f45524332303a207472616e736665722066726f6d20746865207a65726f20616460008201527f6472657373000000000000000000000000000000000000000000000000000000602082015250565b6000614f8c602583613b6e565b9150614f9782614f30565b604082019050919050565b60006020820190508181036000830152614fbb81614f7f565b9050919050565b7f45524332303a207472616e7366657220746f20746865207a65726f206164647260008201527f6573730000000000000000000000000000000000000000000000000000000000602082015250565b600061501e602383613b6e565b915061502982614fc2565b604082019050919050565b6000602082019050818103600083015261504d81615011565b9050919050565b7f45524332303a207472616e7366657220616d6f756e742065786365656473206260008201527f616c616e63650000000000000000000000000000000000000000000000000000602082015250565b60006150b0602683613b6e565b91506150bb82615054565b604082019050919050565b600060208201905081810360008301526150df816150a3565b9050919050565b600060a0820190506150fb6000830188613dd2565b6151086020830187613dd2565b6151156040830186613dd2565b6151226060830185613cf2565b61512f6080830184614809565b9695505050505050565b61514281613b2d565b811461514d57600080fd5b50565b60008151905061515f81615139565b92915050565b60006020828403121561517b5761517a613aa3565b5b600061518984828501615150565b91505092915050565b7f5361666545524332303a204552433230206f7065726174696f6e20646964206e60008201527f6f74207375636365656400000000000000000000000000000000000000000000602082015250565b60006151ee602a83613b6e565b91506151f982615192565b604082019050919050565b6000602082019050818103600083015261521d816151e1565b9050919050565b7f1901000000000000000000000000000000000000000000000000000000000000600082015250565b600061525a600283614c5b565b915061526582615224565b600282019050919050565b6000819050919050565b61528b61528682613d6f565b615270565b82525050565b600061529c8261524d565b91506152a8828561527a565b6020820191506152b8828461527a565b6020820191508190509392505050565b60006080820190506152dd6000830187613dd2565b6152ea6020830186613ec3565b6152f76040830185613dd2565b6153046060830184613dd2565b95945050505050565b7f4e487b7100000000000000000000000000000000000000000000000000000000600052602160045260246000fd5b7f45434453413a20696e76616c6964207369676e61747572650000000000000000600082015250565b6000615372601883613b6e565b915061537d8261533c565b602082019050919050565b600060208201905081810360008301526153a181615365565b9050919050565b7f45434453413a20696e76616c6964207369676e6174757265206c656e67746800600082015250565b60006153de601f83613b6e565b91506153e9826153a8565b602082019050919050565b6000602082019050818103600083015261540d816153d1565b9050919050565b7f45434453413a20696e76616c6964207369676e6174757265202773272076616c60008201527f7565000000000000000000000000000000000000000000000000000000000000602082015250565b6000615470602283613b6e565b915061547b82615414565b604082019050919050565b6000602082019050818103600083015261549f81615463565b9050919050565b7f45434453413a20696e76616c6964207369676e6174757265202776272076616c60008201527f7565000000000000000000000000000000000000000000000000000000000000602082015250565b6000615502602283613b6e565b915061550d826154a6565b604082019050919050565b60006020820190508181036000830152615531816154f5565b9050919050565b7f416464726573733a20696e73756666696369656e742062616c616e636520666f60008201527f722063616c6c0000000000000000000000000000000000000000000000000000602082015250565b6000615594602683613b6e565b915061559f82615538565b604082019050919050565b600060208201905081810360008301526155c381615587565b9050919050565b7f416464726573733a2063616c6c20746f206e6f6e2d636f6e7472616374000000600082015250565b6000615600601d83613b6e565b915061560b826155ca565b602082019050919050565b6000602082019050818103600083015261562f816155f3565b9050919050565b600081519050919050565b600081905092915050565b600061565782615636565b6156618185615641565b9350615671818560208601613b7f565b80840191505092915050565b6000615689828461564c565b91508190509291505056fea2646970667358221220003a1865b50ed0db26ccdab00eb11fcfca2f41b2f9d979686c291e980ff28c1364736f6c634300080a0033",
  "linkReferences": {},
  "deployedLinkReferences": {}
}