{
  "_format": "hh-sol-artifact-1",
  "contractName": "VLFIT2",
  "sourceName": "contracts/VLFI.sol",
  "abi": [
    {
      "anonymous": false,
      "inputs": [
        {
          "indexed": true,
          "internalType": "address",
          "name": "owner",
          "type": "address"
        },
        {
          "indexed": true,
          "internalType": "address",
          "name": "spender",
          "type": "address"
        },
        {
          "indexed": false,
          "internalType": "uint256",
          "name": "value",
          "type": "uint256"
        }
      ],
      "name": "Approval",
      "type": "event"
    },
    {
      "anonymous": false,
      "inputs": [
        {
          "indexed": true,
          "internalType": "address",
          "name": "user",
          "type": "address"
        }
      ],
      "name": "CooldownActivated",
      "type": "event"
    },
    {
      "anonymous": false,
      "inputs": [
        {
          "indexed": true,
          "internalType": "address",
          "name": "delegator",
          "type": "address"
        },
        {
          "indexed": true,
          "internalType": "address",
          "name": "fromDelegate",
          "type": "address"
        },
        {
          "indexed": true,
          "internalType": "address",
          "name": "toDelegate",
          "type": "address"
        }
      ],
      "name": "DelegateChanged",
      "type": "event"
    },
    {
      "anonymous": false,
      "inputs": [
        {
          "indexed": true,
          "internalType": "address",
          "name": "delegate",
          "type": "address"
        },
        {
          "indexed": false,
          "internalType": "uint256",
          "name": "previousBalance",
          "type": "uint256"
        },
        {
          "indexed": false,
          "internalType": "uint256",
          "name": "newBalance",
          "type": "uint256"
        }
      ],
      "name": "DelegateVotesChanged",
      "type": "event"
    },
    {
      "anonymous": false,
      "inputs": [
        {
          "indexed": true,
          "internalType": "address",
          "name": "from",
          "type": "address"
        },
        {
          "indexed": true,
          "internalType": "address",
          "name": "to",
          "type": "address"
        },
        {
          "indexed": false,
          "internalType": "uint256",
          "name": "amount",
          "type": "uint256"
        }
      ],
      "name": "RewardsClaimed",
      "type": "event"
    },
    {
      "anonymous": false,
      "inputs": [
        {
          "indexed": true,
          "internalType": "bytes32",
          "name": "role",
          "type": "bytes32"
        },
        {
          "indexed": true,
          "internalType": "bytes32",
          "name": "previousAdminRole",
          "type": "bytes32"
        },
        {
          "indexed": true,
          "internalType": "bytes32",
          "name": "newAdminRole",
          "type": "bytes32"
        }
      ],
      "name": "RoleAdminChanged",
      "type": "event"
    },
    {
      "anonymous": false,
      "inputs": [
        {
          "indexed": true,
          "internalType": "bytes32",
          "name": "role",
          "type": "bytes32"
        },
        {
          "indexed": true,
          "internalType": "address",
          "name": "account",
          "type": "address"
        },
        {
          "indexed": true,
          "internalType": "address",
          "name": "sender",
          "type": "address"
        }
      ],
      "name": "RoleGranted",
      "type": "event"
    },
    {
      "anonymous": false,
      "inputs": [
        {
          "indexed": true,
          "internalType": "bytes32",
          "name": "role",
          "type": "bytes32"
        },
        {
          "indexed": true,
          "internalType": "address",
          "name": "account",
          "type": "address"
        },
        {
          "indexed": true,
          "internalType": "address",
          "name": "sender",
          "type": "address"
        }
      ],
      "name": "RoleRevoked",
      "type": "event"
    },
    {
      "anonymous": false,
      "inputs": [
        {
          "indexed": true,
          "internalType": "address",
          "name": "from",
          "type": "address"
        },
        {
          "indexed": true,
          "internalType": "address",
          "name": "onBehalfOf",
          "type": "address"
        },
        {
          "indexed": false,
          "internalType": "uint256",
          "name": "amount",
          "type": "uint256"
        }
      ],
      "name": "Staked",
      "type": "event"
    },
    {
      "anonymous": false,
      "inputs": [
        {
          "indexed": true,
          "internalType": "address",
          "name": "from",
          "type": "address"
        },
        {
          "indexed": true,
          "internalType": "address",
          "name": "to",
          "type": "address"
        },
        {
          "indexed": false,
          "internalType": "uint256",
          "name": "value",
          "type": "uint256"
        }
      ],
      "name": "Transfer",
      "type": "event"
    },
    {
      "anonymous": false,
      "inputs": [
        {
          "indexed": true,
          "internalType": "address",
          "name": "from",
          "type": "address"
        },
        {
          "indexed": true,
          "internalType": "address",
          "name": "to",
          "type": "address"
        },
        {
          "indexed": false,
          "internalType": "uint256",
          "name": "amount",
          "type": "uint256"
        }
      ],
      "name": "UnStaked",
      "type": "event"
    },
    {
      "inputs": [],
      "name": "DEFAULT_ADMIN_ROLE",
      "outputs": [
        {
          "internalType": "bytes32",
          "name": "",
          "type": "bytes32"
        }
      ],
      "stateMutability": "view",
      "type": "function"
    },
    {
      "inputs": [],
      "name": "DOMAIN_SEPARATOR",
      "outputs": [
        {
          "internalType": "bytes32",
          "name": "",
          "type": "bytes32"
        }
      ],
      "stateMutability": "view",
      "type": "function"
    },
    {
      "inputs": [],
      "name": "MANAGER_ROLE",
      "outputs": [
        {
          "internalType": "bytes32",
          "name": "",
          "type": "bytes32"
        }
      ],
      "stateMutability": "view",
      "type": "function"
    },
    {
      "inputs": [],
      "name": "STAKED_TOKEN",
      "outputs": [
        {
          "internalType": "contract ILFIToken",
          "name": "",
          "type": "address"
        }
      ],
      "stateMutability": "view",
      "type": "function"
    },
    {
      "inputs": [],
      "name": "activateCooldown",
      "outputs": [],
      "stateMutability": "nonpayable",
      "type": "function"
    },
    {
      "inputs": [
        {
          "internalType": "address",
          "name": "owner",
          "type": "address"
        },
        {
          "internalType": "address",
          "name": "spender",
          "type": "address"
        }
      ],
      "name": "allowance",
      "outputs": [
        {
          "internalType": "uint256",
          "name": "",
          "type": "uint256"
        }
      ],
      "stateMutability": "view",
      "type": "function"
    },
    {
      "inputs": [
        {
          "internalType": "address",
          "name": "spender",
          "type": "address"
        },
        {
          "internalType": "uint256",
          "name": "amount",
          "type": "uint256"
        }
      ],
      "name": "approve",
      "outputs": [
        {
          "internalType": "bool",
          "name": "",
          "type": "bool"
        }
      ],
      "stateMutability": "nonpayable",
      "type": "function"
    },
    {
      "inputs": [
        {
          "internalType": "address",
          "name": "account",
          "type": "address"
        }
      ],
      "name": "balanceOf",
      "outputs": [
        {
          "internalType": "uint256",
          "name": "",
          "type": "uint256"
        }
      ],
      "stateMutability": "view",
      "type": "function"
    },
    {
      "inputs": [
        {
          "internalType": "address",
          "name": "account",
          "type": "address"
        },
        {
          "internalType": "uint32",
          "name": "pos",
          "type": "uint32"
        }
      ],
      "name": "checkpoints",
      "outputs": [
        {
          "components": [
            {
              "internalType": "uint32",
              "name": "fromBlock",
              "type": "uint32"
            },
            {
              "internalType": "uint224",
              "name": "votes",
              "type": "uint224"
            }
          ],
          "internalType": "struct ERC20VotesUpgradeable.Checkpoint",
          "name": "",
          "type": "tuple"
        }
      ],
      "stateMutability": "view",
      "type": "function"
    },
    {
      "inputs": [
        {
          "internalType": "address",
          "name": "to",
          "type": "address"
        }
      ],
      "name": "claimRewards",
      "outputs": [],
      "stateMutability": "nonpayable",
      "type": "function"
    },
    {
      "inputs": [],
      "name": "createFarm",
      "outputs": [],
      "stateMutability": "nonpayable",
      "type": "function"
    },
    {
      "inputs": [],
      "name": "decimals",
      "outputs": [
        {
          "internalType": "uint8",
          "name": "",
          "type": "uint8"
        }
      ],
      "stateMutability": "view",
      "type": "function"
    },
    {
      "inputs": [
        {
          "internalType": "address",
          "name": "spender",
          "type": "address"
        },
        {
          "internalType": "uint256",
          "name": "subtractedValue",
          "type": "uint256"
        }
      ],
      "name": "decreaseAllowance",
      "outputs": [
        {
          "internalType": "bool",
          "name": "",
          "type": "bool"
        }
      ],
      "stateMutability": "nonpayable",
      "type": "function"
    },
    {
      "inputs": [
        {
          "internalType": "address",
          "name": "delegatee",
          "type": "address"
        }
      ],
      "name": "delegate",
      "outputs": [],
      "stateMutability": "nonpayable",
      "type": "function"
    },
    {
      "inputs": [
        {
          "internalType": "address",
          "name": "delegatee",
          "type": "address"
        },
        {
          "internalType": "uint256",
          "name": "nonce",
          "type": "uint256"
        },
        {
          "internalType": "uint256",
          "name": "expiry",
          "type": "uint256"
        },
        {
          "internalType": "uint8",
          "name": "v",
          "type": "uint8"
        },
        {
          "internalType": "bytes32",
          "name": "r",
          "type": "bytes32"
        },
        {
          "internalType": "bytes32",
          "name": "s",
          "type": "bytes32"
        }
      ],
      "name": "delegateBySig",
      "outputs": [],
      "stateMutability": "nonpayable",
      "type": "function"
    },
    {
      "inputs": [
        {
          "internalType": "address",
          "name": "account",
          "type": "address"
        }
      ],
      "name": "delegates",
      "outputs": [
        {
          "internalType": "address",
          "name": "",
          "type": "address"
        }
      ],
      "stateMutability": "view",
      "type": "function"
    },
    {
      "inputs": [],
      "name": "getAccRewardPerShare",
      "outputs": [
        {
          "internalType": "uint256",
          "name": "",
          "type": "uint256"
        }
      ],
      "stateMutability": "view",
      "type": "function"
    },
    {
      "inputs": [
        {
          "internalType": "address",
          "name": "staker",
          "type": "address"
        }
      ],
      "name": "getCooldown",
      "outputs": [
        {
          "internalType": "uint256",
          "name": "",
          "type": "uint256"
        }
      ],
      "stateMutability": "view",
      "type": "function"
    },
    {
      "inputs": [],
      "name": "getCooldownSeconds",
      "outputs": [
        {
          "internalType": "uint256",
          "name": "",
          "type": "uint256"
        }
      ],
      "stateMutability": "view",
      "type": "function"
    },
    {
      "inputs": [],
      "name": "getLastRewardTime",
      "outputs": [
        {
          "internalType": "uint256",
          "name": "",
          "type": "uint256"
        }
      ],
      "stateMutability": "view",
      "type": "function"
    },
    {
      "inputs": [],
      "name": "getLiquidityStatus",
      "outputs": [
        {
          "internalType": "uint256",
          "name": "",
          "type": "uint256"
        }
      ],
      "stateMutability": "view",
      "type": "function"
    },
    {
      "inputs": [
        {
          "internalType": "uint256",
          "name": "userCooldownTimestamp",
          "type": "uint256"
        },
        {
          "internalType": "uint256",
          "name": "amountToReceive",
          "type": "uint256"
        },
        {
          "internalType": "address",
          "name": "toAddress",
          "type": "address"
        },
        {
          "internalType": "uint256",
          "name": "toBalance",
          "type": "uint256"
        }
      ],
      "name": "getNextCooldownTimestamp",
      "outputs": [
        {
          "internalType": "uint256",
          "name": "",
          "type": "uint256"
        }
      ],
      "stateMutability": "view",
      "type": "function"
    },
    {
      "inputs": [
        {
          "internalType": "uint256",
          "name": "blockNumber",
          "type": "uint256"
        }
      ],
      "name": "getPastTotalSupply",
      "outputs": [
        {
          "internalType": "uint256",
          "name": "",
          "type": "uint256"
        }
      ],
      "stateMutability": "view",
      "type": "function"
    },
    {
      "inputs": [
        {
          "internalType": "address",
          "name": "account",
          "type": "address"
        },
        {
          "internalType": "uint256",
          "name": "blockNumber",
          "type": "uint256"
        }
      ],
      "name": "getPastVotes",
      "outputs": [
        {
          "internalType": "uint256",
          "name": "",
          "type": "uint256"
        }
      ],
      "stateMutability": "view",
      "type": "function"
    },
    {
      "inputs": [],
      "name": "getRewardPerSecond",
      "outputs": [
        {
          "internalType": "uint256",
          "name": "",
          "type": "uint256"
        }
      ],
      "stateMutability": "view",
      "type": "function"
    },
    {
      "inputs": [
        {
          "internalType": "address",
          "name": "benefitor",
          "type": "address"
        }
      ],
      "name": "getRewards",
      "outputs": [
        {
          "internalType": "uint256",
          "name": "pendingRewards",
          "type": "uint256"
        }
      ],
      "stateMutability": "view",
      "type": "function"
    },
    {
      "inputs": [
        {
          "internalType": "bytes32",
          "name": "role",
          "type": "bytes32"
        }
      ],
      "name": "getRoleAdmin",
      "outputs": [
        {
          "internalType": "bytes32",
          "name": "",
          "type": "bytes32"
        }
      ],
      "stateMutability": "view",
      "type": "function"
    },
    {
      "inputs": [],
      "name": "getUnstakeWindowTime",
      "outputs": [
        {
          "internalType": "uint256",
          "name": "",
          "type": "uint256"
        }
      ],
      "stateMutability": "view",
      "type": "function"
    },
    {
      "inputs": [
        {
          "internalType": "address",
          "name": "user",
          "type": "address"
        }
      ],
      "name": "getUserLFIDeposits",
      "outputs": [
        {
          "internalType": "uint256",
          "name": "",
          "type": "uint256"
        }
      ],
      "stateMutability": "view",
      "type": "function"
    },
    {
      "inputs": [
        {
          "internalType": "address",
          "name": "benefitor",
          "type": "address"
        }
      ],
      "name": "getUserRewardDebt",
      "outputs": [
        {
          "internalType": "int256",
          "name": "",
          "type": "int256"
        }
      ],
      "stateMutability": "view",
      "type": "function"
    },
    {
      "inputs": [
        {
          "internalType": "address",
          "name": "benefitor",
          "type": "address"
        }
      ],
      "name": "getUserVLFIAmount",
      "outputs": [
        {
          "internalType": "uint256",
          "name": "",
          "type": "uint256"
        }
      ],
      "stateMutability": "view",
      "type": "function"
    },
    {
      "inputs": [
        {
          "internalType": "address",
          "name": "account",
          "type": "address"
        }
      ],
      "name": "getVotes",
      "outputs": [
        {
          "internalType": "uint256",
          "name": "",
          "type": "uint256"
        }
      ],
      "stateMutability": "view",
      "type": "function"
    },
    {
      "inputs": [
        {
          "internalType": "bytes32",
          "name": "role",
          "type": "bytes32"
        },
        {
          "internalType": "address",
          "name": "account",
          "type": "address"
        }
      ],
      "name": "grantRole",
      "outputs": [],
      "stateMutability": "nonpayable",
      "type": "function"
    },
    {
      "inputs": [
        {
          "internalType": "bytes32",
          "name": "role",
          "type": "bytes32"
        },
        {
          "internalType": "address",
          "name": "account",
          "type": "address"
        }
      ],
      "name": "hasRole",
      "outputs": [
        {
          "internalType": "bool",
          "name": "",
          "type": "bool"
        }
      ],
      "stateMutability": "view",
      "type": "function"
    },
    {
      "inputs": [
        {
          "internalType": "address",
          "name": "spender",
          "type": "address"
        },
        {
          "internalType": "uint256",
          "name": "addedValue",
          "type": "uint256"
        }
      ],
      "name": "increaseAllowance",
      "outputs": [
        {
          "internalType": "bool",
          "name": "",
          "type": "bool"
        }
      ],
      "stateMutability": "nonpayable",
      "type": "function"
    },
    {
      "inputs": [
        {
          "internalType": "string",
          "name": "name",
          "type": "string"
        },
        {
          "internalType": "string",
          "name": "symbol",
          "type": "string"
        },
        {
          "internalType": "contract ILFIToken",
          "name": "stakedToken",
          "type": "address"
        },
        {
          "internalType": "uint256",
          "name": "cooldownSeconds",
          "type": "uint256"
        },
        {
          "internalType": "uint256",
          "name": "unstakeWindow",
          "type": "uint256"
        },
        {
          "internalType": "uint256",
          "name": "rewardsPerSecond",
          "type": "uint256"
        },
        {
          "internalType": "uint256",
          "name": "treasuryWithdrawlPercentage",
          "type": "uint256"
        }
      ],
      "name": "initialize",
      "outputs": [],
      "stateMutability": "nonpayable",
      "type": "function"
    },
    {
      "inputs": [],
      "name": "maxTreasuryWithdrawalPercentage",
      "outputs": [
        {
          "internalType": "uint256",
          "name": "",
          "type": "uint256"
        }
      ],
      "stateMutability": "view",
      "type": "function"
    },
    {
      "inputs": [],
      "name": "name",
      "outputs": [
        {
          "internalType": "string",
          "name": "",
          "type": "string"
        }
      ],
      "stateMutability": "view",
      "type": "function"
    },
    {
      "inputs": [
        {
          "internalType": "address",
          "name": "owner",
          "type": "address"
        }
      ],
      "name": "nonces",
      "outputs": [
        {
          "internalType": "uint256",
          "name": "",
          "type": "uint256"
        }
      ],
      "stateMutability": "view",
      "type": "function"
    },
    {
      "inputs": [
        {
          "internalType": "address",
          "name": "account",
          "type": "address"
        }
      ],
      "name": "numCheckpoints",
      "outputs": [
        {
          "internalType": "uint32",
          "name": "",
          "type": "uint32"
        }
      ],
      "stateMutability": "view",
      "type": "function"
    },
    {
      "inputs": [
        {
          "internalType": "address",
          "name": "owner",
          "type": "address"
        },
        {
          "internalType": "address",
          "name": "spender",
          "type": "address"
        },
        {
          "internalType": "uint256",
          "name": "value",
          "type": "uint256"
        },
        {
          "internalType": "uint256",
          "name": "deadline",
          "type": "uint256"
        },
        {
          "internalType": "uint8",
          "name": "v",
          "type": "uint8"
        },
        {
          "internalType": "bytes32",
          "name": "r",
          "type": "bytes32"
        },
        {
          "internalType": "bytes32",
          "name": "s",
          "type": "bytes32"
        }
      ],
      "name": "permit",
      "outputs": [],
      "stateMutability": "nonpayable",
      "type": "function"
    },
    {
      "inputs": [
        {
          "internalType": "address",
          "name": "owner",
          "type": "address"
        },
        {
          "internalType": "address",
          "name": "spender",
          "type": "address"
        },
        {
          "internalType": "uint256",
          "name": "value",
          "type": "uint256"
        },
        {
          "internalType": "uint256",
          "name": "deadline",
          "type": "uint256"
        },
        {
          "internalType": "uint8",
          "name": "v",
          "type": "uint8"
        },
        {
          "internalType": "bytes32",
          "name": "r",
          "type": "bytes32"
        },
        {
          "internalType": "bytes32",
          "name": "s",
          "type": "bytes32"
        },
        {
          "internalType": "address",
          "name": "onBehalfOf",
          "type": "address"
        },
        {
          "internalType": "uint256",
          "name": "LFIamount",
          "type": "uint256"
        }
      ],
      "name": "permitAndStake",
      "outputs": [],
      "stateMutability": "nonpayable",
      "type": "function"
    },
    {
      "inputs": [
        {
          "internalType": "bytes32",
          "name": "role",
          "type": "bytes32"
        },
        {
          "internalType": "address",
          "name": "account",
          "type": "address"
        }
      ],
      "name": "renounceRole",
      "outputs": [],
      "stateMutability": "nonpayable",
      "type": "function"
    },
    {
      "inputs": [
        {
          "internalType": "bytes32",
          "name": "role",
          "type": "bytes32"
        },
        {
          "internalType": "address",
          "name": "account",
          "type": "address"
        }
      ],
      "name": "revokeRole",
      "outputs": [],
      "stateMutability": "nonpayable",
      "type": "function"
    },
    {
      "inputs": [
        {
          "internalType": "uint256",
          "name": "coolDownSeconds",
          "type": "uint256"
        }
      ],
      "name": "setCooldownSeconds",
      "outputs": [],
      "stateMutability": "nonpayable",
      "type": "function"
    },
    {
      "inputs": [
        {
          "internalType": "uint256",
          "name": "percentage",
          "type": "uint256"
        }
      ],
      "name": "setMaxTreasuryWithdrawalPercentage",
      "outputs": [],
      "stateMutability": "nonpayable",
      "type": "function"
    },
    {
      "inputs": [
        {
          "internalType": "uint256",
          "name": "_rewardPerSecond",
          "type": "uint256"
        }
      ],
      "name": "setRewardPerSecond",
      "outputs": [],
      "stateMutability": "nonpayable",
      "type": "function"
    },
    {
      "inputs": [
        {
          "internalType": "uint256",
          "name": "unstakeWindow",
          "type": "uint256"
        }
      ],
      "name": "setUnstakeWindowTime",
      "outputs": [],
      "stateMutability": "nonpayable",
      "type": "function"
    },
    {
      "inputs": [
        {
          "internalType": "address",
          "name": "onBehalfOf",
          "type": "address"
        },
        {
          "internalType": "uint256",
          "name": "amount",
          "type": "uint256"
        }
      ],
      "name": "stake",
      "outputs": [],
      "stateMutability": "nonpayable",
      "type": "function"
    },
    {
      "inputs": [
        {
          "internalType": "bytes4",
          "name": "interfaceId",
          "type": "bytes4"
        }
      ],
      "name": "supportsInterface",
      "outputs": [
        {
          "internalType": "bool",
          "name": "",
          "type": "bool"
        }
      ],
      "stateMutability": "view",
      "type": "function"
    },
    {
      "inputs": [],
      "name": "symbol",
      "outputs": [
        {
          "internalType": "string",
          "name": "",
          "type": "string"
        }
      ],
      "stateMutability": "view",
      "type": "function"
    },
    {
      "inputs": [],
      "name": "totalSupply",
      "outputs": [
        {
          "internalType": "uint256",
          "name": "",
          "type": "uint256"
        }
      ],
      "stateMutability": "view",
      "type": "function"
    },
    {
      "inputs": [
        {
          "internalType": "address",
          "name": "to",
          "type": "address"
        },
        {
          "internalType": "uint256",
          "name": "amount",
          "type": "uint256"
        }
      ],
      "name": "transfer",
      "outputs": [
        {
          "internalType": "bool",
          "name": "",
          "type": "bool"
        }
      ],
      "stateMutability": "nonpayable",
      "type": "function"
    },
    {
      "inputs": [
        {
          "internalType": "address",
          "name": "from",
          "type": "address"
        },
        {
          "internalType": "address",
          "name": "to",
          "type": "address"
        },
        {
          "internalType": "uint256",
          "name": "amount",
          "type": "uint256"
        }
      ],
      "name": "transferFrom",
      "outputs": [
        {
          "internalType": "bool",
          "name": "",
          "type": "bool"
        }
      ],
      "stateMutability": "nonpayable",
      "type": "function"
    },
    {
      "inputs": [
        {
          "internalType": "address",
          "name": "to",
          "type": "address"
        },
        {
          "internalType": "uint256",
          "name": "treasuryWithdrawal",
          "type": "uint256"
        }
      ],
      "name": "transferToTreasury",
      "outputs": [],
      "stateMutability": "nonpayable",
      "type": "function"
    },
    {
      "inputs": [
        {
          "internalType": "address",
          "name": "to",
          "type": "address"
        },
        {
          "internalType": "uint256",
          "name": "amount",
          "type": "uint256"
        }
      ],
      "name": "unStake",
      "outputs": [],
      "stateMutability": "nonpayable",
      "type": "function"
    },
    {
      "inputs": [
        {
          "internalType": "address",
          "name": "to",
          "type": "address"
        }
      ],
      "name": "unStakeMax",
      "outputs": [],
      "stateMutability": "nonpayable",
      "type": "function"
    },
    {
      "inputs": [],
      "name": "updateFarm",
      "outputs": [
        {
          "components": [
            {
              "internalType": "uint256",
              "name": "accRewardsPerShare",
              "type": "uint256"
            },
            {
              "internalType": "uint256",
              "name": "lastRewardTime",
              "type": "uint256"
            }
          ],
          "internalType": "struct VLFIT2.FarmInfo",
          "name": "farm",
          "type": "tuple"
        }
      ],
      "stateMutability": "nonpayable",
      "type": "function"
    }
  ],
  "bytecode": "0x608060405234801561001057600080fd5b50613c6e806100206000396000f3fe608060405234801561001057600080fd5b506004361061038e5760003560e01c806379ee54f7116101de578063adc9772e1161010f578063d9393814116100ad578063ef5cfb8c1161007c578063ef5cfb8c1461080c578063f1127ed81461081f578063f1cc432a1461085c578063f54ca63c1461086f57600080fd5b8063d9393814146107a2578063da5b4ee7146107b5578063dd62ed3e146107be578063ec87621c146107f757600080fd5b8063d505accf116100e9578063d505accf1461075f578063d547741f14610772578063d876246f14610785578063d92aec591461078f57600080fd5b8063adc9772e1461070c578063c3cda5201461071f578063c61fbcc51461073257600080fd5b80639a00a6a31161017c578063a217fddf11610156578063a217fddf146106cb578063a457c2d7146106d3578063a9059cbb146106e6578063ad88918f146106f957600080fd5b80639a00a6a31461067b5780639ab24eb0146106a55780639dd267e6146106b857600080fd5b80637ecebe00116101b85780637ecebe001461063a5780638e539e8c1461064d57806391d148541461066057806395d89b411461067357600080fd5b806379ee54f7146106015780637a45c441146106145780637b5b11571461062757600080fd5b806339b84ecf116102c35780635ac3ce12116102615780636c07d9fe116102305780636c07d9fe146105935780636fcfff451461059c57806370a08231146105c4578063733d07be146105d757600080fd5b80635ac3ce12146105515780635c19a95c14610564578063616e0bf91461057757806366da58151461058057600080fd5b80633c0717fd1161029d5780633c0717fd1461050a5780633e340dae146105135780634853b3b21461051c578063587cde1e1461052457600080fd5b806339b84ecf146104ba5780633a46b1a8146104e45780633a8f437e146104f757600080fd5b8063248a9ca311610330578063313ce5671161030a578063313ce5671461047d5780633644e5151461048c57806336568abe1461049457806339509351146104a757600080fd5b8063248a9ca31461041b5780632f2ff15d1461043e578063312f6b831461045157600080fd5b806318160ddd1161036c57806318160ddd146103e35780631d5ec3cb146103f55780631f477ea9146103ff57806323b872dd1461040857600080fd5b806301ffc9a71461039357806306fdde03146103bb578063095ea7b3146103d0575b600080fd5b6103a66103a13660046133f1565b610892565b60405190151581526020015b60405180910390f35b6103c36108c9565b6040516103b29190613447565b6103a66103de36600461348f565b61095b565b6067545b6040519081526020016103b2565b6103fd610973565b005b610166546103e7565b6103a66104163660046134bb565b6109af565b6103e76104293660046134fc565b600090815260fe602052604090206001015490565b6103fd61044c366004613515565b6109d3565b61016254610465906001600160a01b031681565b6040516001600160a01b0390911681526020016103b2565b604051601281526020016103b2565b6103e76109fe565b6103fd6104a2366004613515565b610a0d565b6103a66104b536600461348f565b610a90565b6103e76104c8366004613545565b6001600160a01b0316600090815261016b602052604090205490565b6103e76104f236600461348f565b610acf565b6103fd610505366004613545565b610b4a565b610163546103e7565b61016a546103e7565b6103fd610b6e565b610465610532366004613545565b6001600160a01b03908116600090815261013060205260409020541690565b6103fd61055f3660046134fc565b610bfe565b6103fd610572366004613545565b610c1e565b610165546103e7565b6103fd61058e3660046134fc565b610c2b565b610169546103e7565b6105af6105aa366004613545565b610c54565b60405163ffffffff90911681526020016103b2565b6103e76105d2366004613545565b610c77565b6103e76105e5366004613545565b6001600160a01b0316600090815261016d602052604090205490565b6103e761060f366004613545565b610c92565b6103fd610622366004613605565b610d78565b6103fd6106353660046134fc565b610ec9565b6103e7610648366004613545565b610ee9565b6103e761065b3660046134fc565b610f07565b6103a661066e366004613515565b610f64565b6103c3610f8f565b6103e7610689366004613545565b6001600160a01b0316600090815261016c602052604090205490565b6103e76106b3366004613545565b610f9e565b6103fd6106c636600461348f565b611027565b6103e7600081565b6103a66106e136600461348f565b6110ef565b6103a66106f436600461348f565b611181565b6103fd6107073660046134fc565b61118f565b6103fd61071a36600461348f565b6111af565b6103fd61072d3660046136b6565b6113fc565b6103e7610740366004613545565b6001600160a01b0316600090815261016d602052604090206001015490565b6103fd61076d366004613710565b611532565b6103fd610780366004613515565b611678565b6103e76101685481565b6103fd61079d36600461377e565b61169e565b6103fd6107b036600461348f565b611740565b610167546103e7565b6103e76107cc36600461380b565b6001600160a01b03918216600090815260666020908152604080832093909416825291909152205490565b6103e7600080516020613c1983398151915281565b6103fd61081a366004613545565b611aeb565b61083261082d366004613839565b611c09565b60408051825163ffffffff1681526020928301516001600160e01b031692810192909252016103b2565b6103e761086a366004613870565b611c8e565b610877611d51565b604080518251815260209283015192810192909252016103b2565b60006001600160e01b03198216637965db0b60e01b14806108c357506301ffc9a760e01b6001600160e01b03198316145b92915050565b6060606880546108d8906138af565b80601f0160208091040260200160405190810160405280929190818152602001828054610904906138af565b80156109515780601f1061092657610100808354040283529160200191610951565b820191906000526020600020905b81548152906001019060200180831161093457829003601f168201915b5050505050905090565b600033610969818585611e07565b5060019392505050565b600080516020613c1983398151915261098c8133611f2b565b506040805180820190915260008082524260209092018290526101695561016a55565b6000336109bd858285611f8f565b6109c8858585612021565b506001949350505050565b600082815260fe60205260409020600101546109ef8133611f2b565b6109f983836121af565b505050565b6000610a08612235565b905090565b6001600160a01b0381163314610a825760405162461bcd60e51b815260206004820152602f60248201527f416363657373436f6e74726f6c3a2063616e206f6e6c792072656e6f756e636560448201526e103937b632b9903337b91039b2b63360891b60648201526084015b60405180910390fd5b610a8c82826122b0565b5050565b3360008181526066602090815260408083206001600160a01b03871684529091528120549091906109699082908690610aca9087906138fa565b611e07565b6000438210610b205760405162461bcd60e51b815260206004820152601f60248201527f4552433230566f7465733a20626c6f636b206e6f7420796574206d696e6564006044820152606401610a79565b6001600160a01b038316600090815261013160205260409020610b439083612317565b9392505050565b6001600160a01b038116600090815261016c6020526040902054610a8c8282611740565b610b7733610c77565b610bc35760405162461bcd60e51b815260206004820181905260248201527f564c46493a494e56414c49445f42414c414e43455f4f4e5f434f4f4c444f574e6044820152606401610a79565b33600081815261016b6020526040808220429055517f06458eacc93d062b1d92c6575f39b0c1d64541d6881846fecef52a42c7c800089190a2565b600080516020613c19833981519152610c178133611f2b565b5061016855565b610c2833826123d4565b50565b600080516020613c19833981519152610c448133611f2b565b610c4c611d51565b505061016755565b6001600160a01b038116600090815261013160205260408120546108c390612465565b6001600160a01b031660009081526065602052604090205490565b60408051808201825261016954815261016a546020808301919091526001600160a01b038416600090815261016d909152918220815183610cd260675490565b9050836020015142118015610ce657508015155b15610d3e576000846020015142610cfd9190613912565b905060006101675482610d109190613929565b905082610d25670de0b6b3a764000083613929565b610d2f9190613948565b610d3990856138fa565b935050505b60018301548354670de0b6b3a764000090610d5a908590613929565b610d649190613948565b610d6e919061396a565b9695505050505050565b600054610100900460ff16610d935760005460ff1615610d97565b303b155b610dfa5760405162461bcd60e51b815260206004820152602e60248201527f496e697469616c697a61626c653a20636f6e747261637420697320616c72656160448201526d191e481a5b9a5d1a585b1a5e995960921b6064820152608401610a79565b600054610100900460ff16158015610e1c576000805461ffff19166101011790555b610e2688886124ce565b610e2f886124ff565b61016280546001600160a01b0319166001600160a01b038816179055610165859055610166849055610e636012600a613a8d565b610e6f906103e8613929565b61016455610168829055610e846000336121af565b610e9c600080516020613c19833981519152336121af565b610ea583610c2b565b610ead610973565b8015610ebf576000805461ff00191690555b5050505050505050565b600080516020613c19833981519152610ee28133611f2b565b5061016555565b6001600160a01b038116600090815260cb60205260408120546108c3565b6000438210610f585760405162461bcd60e51b815260206004820152601f60248201527f4552433230566f7465733a20626c6f636b206e6f7420796574206d696e6564006044820152606401610a79565b6108c361013283612317565b600091825260fe602090815260408084206001600160a01b0393909316845291905290205460ff1690565b6060606980546108d8906138af565b6001600160a01b038116600090815261013160205260408120548015611014576001600160a01b038316600090815261013160205260409020610fe2600183613912565b81548110610ff257610ff2613a99565b60009182526020909120015464010000000090046001600160e01b0316611017565b60005b6001600160e01b03169392505050565b600080516020613c198339815191526110408133611f2b565b600061271061016854610163546110579190613929565b6110619190613948565b90508083111561107057600080fd5b6101625460405163a9059cbb60e01b81526001600160a01b038681166004830152602482018690529091169063a9059cbb906044016020604051808303816000875af11580156110c4573d6000803e3d6000fd5b505050506040513d601f19601f820116820180604052508101906110e89190613aaf565b5050505050565b3360008181526066602090815260408083206001600160a01b0387168452909152812054909190838110156111745760405162461bcd60e51b815260206004820152602560248201527f45524332303a2064656372656173656420616c6c6f77616e63652062656c6f77604482015264207a65726f60d81b6064820152608401610a79565b6109c88286868403611e07565b600033610969818585612021565b600080516020613c198339815191526111a88133611f2b565b5061016655565b806111f25760405162461bcd60e51b8152602060048201526013602482015272159311924e9253959053125117d05353d55395606a1b6044820152606401610a79565b60006111fd83610c77565b90506000611209611d51565b33600090815261016d60205260409020610164549192509061123385670de0b6b3a7640000613929565b61123d9190613948565b81600001600082825461125091906138fa565b9091555050815161016454670de0b6b3a764000091906112708784613929565b61127a9190613948565b6112849190613929565b61128e9190613948565b8160010160008282546112a19190613ad1565b909155505033600090815261016c6020526040812080548692906112c69084906138fa565b925050819055508361016360008282546112e091906138fa565b909155506112f390506000858786611c8e565b6001600160a01b038616600090815261016b60205260409020556101645461133890869061132987670de0b6b3a7640000613929565b6113339190613948565b612552565b610162546040516323b872dd60e01b8152336004820152306024820152604481018690526001600160a01b03909116906323b872dd906064016020604051808303816000875af1158015611390573d6000803e3d6000fd5b505050506040513d601f19601f820116820180604052508101906113b49190613aaf565b506040518481526001600160a01b0386169033907f5dac0c1b1112564a045ba943c9d50270893e8e826c49be8e7073adc713ab7bd79060200160405180910390a35050505050565b8342111561144c5760405162461bcd60e51b815260206004820152601d60248201527f4552433230566f7465733a207369676e617475726520657870697265640000006044820152606401610a79565b604080517fe48329057bfd03d55e49b547132e39cffd9c1820ad7b9d4c5307691425d15adf60208201526001600160a01b0388169181019190915260608101869052608081018590526000906114c6906114be9060a0016040516020818303038152906040528051906020012061255c565b8585856125aa565b90506114d1816125c8565b861461151f5760405162461bcd60e51b815260206004820152601960248201527f4552433230566f7465733a20696e76616c6964206e6f6e6365000000000000006044820152606401610a79565b61152981886123d4565b50505050505050565b834211156115825760405162461bcd60e51b815260206004820152601d60248201527f45524332305065726d69743a206578706972656420646561646c696e650000006044820152606401610a79565b600060cc548888886115938c6125c8565b6040805160208101969096526001600160a01b0394851690860152929091166060840152608083015260a082015260c0810186905260e00160405160208183030381529060405280519060200120905060006115ee8261255c565b905060006115fe828787876125aa565b9050896001600160a01b0316816001600160a01b0316146116615760405162461bcd60e51b815260206004820152601e60248201527f45524332305065726d69743a20696e76616c6964207369676e617475726500006044820152606401610a79565b61166c8a8a8a611e07565b50505050505050505050565b600082815260fe60205260409020600101546116948133611f2b565b6109f983836122b0565b6101625460405163d505accf60e01b81526001600160a01b038b811660048301528a81166024830152604482018a90526064820189905260ff8816608483015260a4820187905260c482018690529091169063d505accf9060e401600060405180830381600087803b15801561171357600080fd5b505af1158015611727573d6000803e3d6000fd5b5050505061173582826111af565b505050505050505050565b80158015906117bb5750610162546040516370a0823160e01b81523360048201526001600160a01b03909116906370a0823190602401602060405180830381865afa158015611793573d6000803e3d6000fd5b505050506040513d601f19601f820116820180604052508101906117b79190613b12565b8111155b6117fd5760405162461bcd60e51b8152602060048201526013602482015272159311924e9253959053125117d05353d55395606a1b6044820152606401610a79565b33600090815261016b60205260409020546101655461181c90826138fa565b421161186a5760405162461bcd60e51b815260206004820152601a60248201527f564c46493a434f4f4c444f574e5f4e4f545f434f4d504c4554450000000000006044820152606401610a79565b610166546101655461187c90836138fa565b6118869042613912565b11156118d45760405162461bcd60e51b815260206004820152601c60248201527f564c46493a554e5354414b455f57494e444f575f46494e4953484544000000006044820152606401610a79565b60006118df33610c77565b905060006118eb611d51565b33600090815261016d602052604090206101645482519293509091670de0b6b3a7640000919061191b8884613929565b6119259190613929565b61192f9190613948565b6119399190613948565b81600101600082825461194c919061396a565b90915550506101645461196786670de0b6b3a7640000613929565b6119719190613948565b8160000160008282546119849190613912565b909155505033600090815261016c6020526040812080548792906119a9908490613912565b925050819055508461016360008282546119c39190613912565b9091555050610164546119f39033906119e488670de0b6b3a7640000613929565b6119ee9190613948565b6125f0565b61016454611a0986670de0b6b3a7640000613929565b611a139190613948565b611a1d9084613912565b611a335733600090815261016b60205260408120555b6101625460405163a9059cbb60e01b81526001600160a01b038881166004830152602482018890529091169063a9059cbb906044016020604051808303816000875af1158015611a87573d6000803e3d6000fd5b505050506040513d601f19601f82011682018060405250810190611aab9190613aaf565b50604051858152339081907f8a3c16627a0e7a870a5d5cd0121ca5d80e2efd0ec7198a11644f1a516ac370939060200160405180910390a3505050505050565b6000611af5611d51565b33600090815261016d60205260408120825181549394509092670de0b6b3a764000091611b2191613929565b611b2b9190613948565b90506000826001015482611b3f919061396a565b600184018390556040518181529091506001600160a01b0386169033907f9310ccfcb8de723f578a9e4282ea9f521f05ae40dc08f3068dfad528a65ee3c79060200160405180910390a36101625460405163a9059cbb60e01b81526001600160a01b038781166004830152602482018490529091169063a9059cbb906044016020604051808303816000875af1158015611bdd573d6000803e3d6000fd5b505050506040513d601f19601f82011682018060405250810190611c019190613aaf565b505050505050565b60408051808201909152600080825260208201526001600160a01b038316600090815261013160205260409020805463ffffffff8416908110611c4e57611c4e613a99565b60009182526020918290206040805180820190915291015463ffffffff8116825264010000000090046001600160e01b0316918101919091529392505050565b6001600160a01b038216600090815261016b602052604081205480611cb7576000915050611d49565b6000610166546101655442611ccc9190613912565b611cd69190613912565b905081811115611ce95760009150611d45565b6000878211611cf85787611cfa565b425b905082811015611d0f57829350505050611d49565b611d1985886138fa565b611d238487613929565b611d2d838a613929565b611d3791906138fa565b611d419190613948565b9250505b5090505b949350505050565b6040805180820182526000808252602091820152815180830190925261016954825261016a54908201819052421115611e04576000611d8f60675490565b90508015611df0576000826020015142611da99190613912565b905060006101675482611dbc9190613929565b905082611dd1670de0b6b3a764000083613929565b611ddb9190613948565b84518590611dea9083906138fa565b90525050505b50426020820181905281516101695561016a555b90565b6001600160a01b038316611e695760405162461bcd60e51b8152602060048201526024808201527f45524332303a20617070726f76652066726f6d20746865207a65726f206164646044820152637265737360e01b6064820152608401610a79565b6001600160a01b038216611eca5760405162461bcd60e51b815260206004820152602260248201527f45524332303a20617070726f766520746f20746865207a65726f206164647265604482015261737360f01b6064820152608401610a79565b6001600160a01b0383811660008181526066602090815260408083209487168084529482529182902085905590518481527f8c5be1e5ebec7d5bd14f71427d1e84f3dd0314c0f7b2291e5b200ac8c7c3b925910160405180910390a3505050565b611f358282610f64565b610a8c57611f4d816001600160a01b031660146125fa565b611f588360206125fa565b604051602001611f69929190613b2b565b60408051601f198184030181529082905262461bcd60e51b8252610a7991600401613447565b6001600160a01b03838116600090815260666020908152604080832093861683529290522054600019811461201b578181101561200e5760405162461bcd60e51b815260206004820152601d60248201527f45524332303a20696e73756666696369656e7420616c6c6f77616e63650000006044820152606401610a79565b61201b8484848403611e07565b50505050565b600061202c84610c77565b90506000612038611d51565b6001600160a01b038616600090815261016d60205260409020815191925090670de0b6b3a76400009061206b9086613929565b6120759190613948565b816001016000828254612088919061396a565b90915550508054849082906000906120a1908490613912565b90915550506001600160a01b03868116908616146121a45760006120c486610c77565b6001600160a01b038716600090815261016d60205260409020845191925090670de0b6b3a7640000906120f79088613929565b6121019190613948565b8160010160008282546121149190613ad1565b909155505080548690829060009061212d9084906138fa565b90915550506001600160a01b038816600090815261016b602052604090205461215881888a86611c8e565b6001600160a01b038916600090815261016b6020526040902055858714801561218057508015155b156121a0576001600160a01b038916600090815261016b60205260408120555b5050505b611c01868686612796565b6121b98282610f64565b610a8c57600082815260fe602090815260408083206001600160a01b03851684529091529020805460ff191660011790556121f13390565b6001600160a01b0316816001600160a01b0316837f2f8788117e7eff1d82e926ec794901d17c78024a50270940304540a733656f0d60405160405180910390a45050565b6000610a087f8b73c3c69bb8fe3d512ecc4cf759cc79239f7b179b0ffacaa9a75d522b39400f61226460975490565b6098546040805160208101859052908101839052606081018290524660808201523060a082015260009060c0016040516020818303038152906040528051906020012090509392505050565b6122ba8282610f64565b15610a8c57600082815260fe602090815260408083206001600160a01b0385168085529252808320805460ff1916905551339285917ff6391f5c32d9c69d2a47ea670b442974b53935d1edc7fd64eb21e047a839171b9190a45050565b8154600090815b8181101561237b576000612332828461296a565b90508486828154811061234757612347613a99565b60009182526020909120015463ffffffff16111561236757809250612375565b6123728160016138fa565b91505b5061231e565b81156123bf578461238d600184613912565b8154811061239d5761239d613a99565b60009182526020909120015464010000000090046001600160e01b03166123c2565b60005b6001600160e01b031695945050505050565b6001600160a01b0382811660009081526101306020526040812054909116906123fc84610c77565b6001600160a01b038581166000818152610130602052604080822080546001600160a01b031916898616908117909155905194955093928616927f3134e8a2e6d97e929a7e54011ea5485d7d196dd5f0ba4d4ef95803e8e3fc257f9190a461201b828483612985565b600063ffffffff8211156124ca5760405162461bcd60e51b815260206004820152602660248201527f53616665436173743a2076616c756520646f65736e27742066697420696e203360448201526532206269747360d01b6064820152608401610a79565b5090565b600054610100900460ff166124f55760405162461bcd60e51b8152600401610a7990613ba0565b610a8c8282612ac4565b600054610100900460ff166125265760405162461bcd60e51b8152600401610a7990613ba0565b61254981604051806040016040528060018152602001603160f81b815250612b12565b610c2881612b53565b610a8c8282612ba1565b60006108c3612569612235565b8360405161190160f01b6020820152602281018390526042810182905260009060620160405160208183030381529060405280519060200120905092915050565b60008060006125bb87878787612c2c565b91509150611d4581612d19565b6001600160a01b038116600090815260cb602052604090208054600181018255905b50919050565b610a8c8282612ed4565b60606000612609836002613929565b6126149060026138fa565b67ffffffffffffffff81111561262c5761262c613562565b6040519080825280601f01601f191660200182016040528015612656576020820181803683370190505b509050600360fc1b8160008151811061267157612671613a99565b60200101906001600160f81b031916908160001a905350600f60fb1b816001815181106126a0576126a0613a99565b60200101906001600160f81b031916908160001a90535060006126c4846002613929565b6126cf9060016138fa565b90505b6001811115612747576f181899199a1a9b1b9c1cb0b131b232b360811b85600f166010811061270357612703613a99565b1a60f81b82828151811061271957612719613a99565b60200101906001600160f81b031916908160001a90535060049490941c9361274081613beb565b90506126d2565b508315610b435760405162461bcd60e51b815260206004820181905260248201527f537472696e67733a20686578206c656e67746820696e73756666696369656e746044820152606401610a79565b6001600160a01b0383166127fa5760405162461bcd60e51b815260206004820152602560248201527f45524332303a207472616e736665722066726f6d20746865207a65726f206164604482015264647265737360d81b6064820152608401610a79565b6001600160a01b03821661285c5760405162461bcd60e51b815260206004820152602360248201527f45524332303a207472616e7366657220746f20746865207a65726f206164647260448201526265737360e81b6064820152608401610a79565b6001600160a01b038316600090815260656020526040902054818110156128d45760405162461bcd60e51b815260206004820152602660248201527f45524332303a207472616e7366657220616d6f756e7420657863656564732062604482015265616c616e636560d01b6064820152608401610a79565b6001600160a01b0380851660009081526065602052604080822085850390559185168152908120805484929061290b9084906138fa565b92505081905550826001600160a01b0316846001600160a01b03167fddf252ad1be2c89b69c2b068fc378daa952ba7f163c4a11628f55a4df523b3ef8460405161295791815260200190565b60405180910390a361201b848484612eed565b60006129796002848418613948565b610b43908484166138fa565b816001600160a01b0316836001600160a01b0316141580156129a75750600081115b156109f9576001600160a01b03831615612a36576001600160a01b03831660009081526101316020526040812081906129e390612ef885612f04565b91509150846001600160a01b03167fdec2bacdd2f05b59de34da9b523dff8be42e5e38e818c82fdb0bae774387a7248383604051612a2b929190918252602082015260400190565b60405180910390a250505b6001600160a01b038216156109f9576001600160a01b0382166000908152610131602052604081208190612a6d9061307d85612f04565b91509150836001600160a01b03167fdec2bacdd2f05b59de34da9b523dff8be42e5e38e818c82fdb0bae774387a7248383604051612ab5929190918252602082015260400190565b60405180910390a25050505050565b600054610100900460ff16612aeb5760405162461bcd60e51b8152600401610a7990613ba0565b8151612afe906068906020850190613361565b5080516109f9906069906020840190613361565b600054610100900460ff16612b395760405162461bcd60e51b8152600401610a7990613ba0565b815160209283012081519190920120609791909155609855565b600054610100900460ff16612b7a5760405162461bcd60e51b8152600401610a7990613ba0565b507f6e71edae12b1b97f4d1f60370fef10105fa2faae0126114a169c64845d6126c960cc55565b612bab8282613089565b6067546001600160e01b031015612c1d5760405162461bcd60e51b815260206004820152603060248201527f4552433230566f7465733a20746f74616c20737570706c79207269736b73206f60448201526f766572666c6f77696e6720766f74657360801b6064820152608401610a79565b61201b61013261307d83612f04565b6000807f7fffffffffffffffffffffffffffffff5d576e7357a4501ddfe92f46681b20a0831115612c635750600090506003612d10565b8460ff16601b14158015612c7b57508460ff16601c14155b15612c8c5750600090506004612d10565b6040805160008082526020820180845289905260ff881692820192909252606081018690526080810185905260019060a0016020604051602081039080840390855afa158015612ce0573d6000803e3d6000fd5b5050604051601f1901519150506001600160a01b038116612d0957600060019250925050612d10565b9150600090505b94509492505050565b6000816004811115612d2d57612d2d613c02565b1415612d365750565b6001816004811115612d4a57612d4a613c02565b1415612d985760405162461bcd60e51b815260206004820152601860248201527f45434453413a20696e76616c6964207369676e617475726500000000000000006044820152606401610a79565b6002816004811115612dac57612dac613c02565b1415612dfa5760405162461bcd60e51b815260206004820152601f60248201527f45434453413a20696e76616c6964207369676e6174757265206c656e677468006044820152606401610a79565b6003816004811115612e0e57612e0e613c02565b1415612e675760405162461bcd60e51b815260206004820152602260248201527f45434453413a20696e76616c6964207369676e6174757265202773272076616c604482015261756560f01b6064820152608401610a79565b6004816004811115612e7b57612e7b613c02565b1415610c285760405162461bcd60e51b815260206004820152602260248201527f45434453413a20696e76616c6964207369676e6174757265202776272076616c604482015261756560f01b6064820152608401610a79565b612ede8282613170565b61201b610132612ef883612f04565b6109f98383836132c5565b6000610b438284613912565b825460009081908015612f4f5785612f1d600183613912565b81548110612f2d57612f2d613a99565b60009182526020909120015464010000000090046001600160e01b0316612f52565b60005b6001600160e01b03169250612f6b83858763ffffffff16565b9150600081118015612fa957504386612f85600184613912565b81548110612f9557612f95613a99565b60009182526020909120015463ffffffff16145b1561300957612fb7826132f8565b86612fc3600184613912565b81548110612fd357612fd3613a99565b9060005260206000200160000160046101000a8154816001600160e01b0302191690836001600160e01b03160217905550613074565b85604051806040016040528061301e43612465565b63ffffffff168152602001613032856132f8565b6001600160e01b0390811690915282546001810184556000938452602093849020835194909301519091166401000000000263ffffffff909316929092179101555b50935093915050565b6000610b4382846138fa565b6001600160a01b0382166130df5760405162461bcd60e51b815260206004820152601f60248201527f45524332303a206d696e7420746f20746865207a65726f2061646472657373006044820152606401610a79565b80606760008282546130f191906138fa565b90915550506001600160a01b0382166000908152606560205260408120805483929061311e9084906138fa565b90915550506040518181526001600160a01b038316906000907fddf252ad1be2c89b69c2b068fc378daa952ba7f163c4a11628f55a4df523b3ef9060200160405180910390a3610a8c60008383612eed565b6001600160a01b0382166131d05760405162461bcd60e51b815260206004820152602160248201527f45524332303a206275726e2066726f6d20746865207a65726f206164647265736044820152607360f81b6064820152608401610a79565b6001600160a01b038216600090815260656020526040902054818110156132445760405162461bcd60e51b815260206004820152602260248201527f45524332303a206275726e20616d6f756e7420657863656564732062616c616e604482015261636560f01b6064820152608401610a79565b6001600160a01b0383166000908152606560205260408120838303905560678054849290613273908490613912565b90915550506040518281526000906001600160a01b038516907fddf252ad1be2c89b69c2b068fc378daa952ba7f163c4a11628f55a4df523b3ef9060200160405180910390a36109f983600084612eed565b6001600160a01b03838116600090815261013060205260408082205485841683529120546109f992918216911683612985565b60006001600160e01b038211156124ca5760405162461bcd60e51b815260206004820152602760248201527f53616665436173743a2076616c756520646f65736e27742066697420696e20326044820152663234206269747360c81b6064820152608401610a79565b82805461336d906138af565b90600052602060002090601f01602090048101928261338f57600085556133d5565b82601f106133a857805160ff19168380011785556133d5565b828001600101855582156133d5579182015b828111156133d55782518255916020019190600101906133ba565b506124ca9291505b808211156124ca57600081556001016133dd565b60006020828403121561340357600080fd5b81356001600160e01b031981168114610b4357600080fd5b60005b8381101561343657818101518382015260200161341e565b8381111561201b5750506000910152565b602081526000825180602084015261346681604085016020870161341b565b601f01601f19169190910160400192915050565b6001600160a01b0381168114610c2857600080fd5b600080604083850312156134a257600080fd5b82356134ad8161347a565b946020939093013593505050565b6000806000606084860312156134d057600080fd5b83356134db8161347a565b925060208401356134eb8161347a565b929592945050506040919091013590565b60006020828403121561350e57600080fd5b5035919050565b6000806040838503121561352857600080fd5b82359150602083013561353a8161347a565b809150509250929050565b60006020828403121561355757600080fd5b8135610b438161347a565b634e487b7160e01b600052604160045260246000fd5b600082601f83011261358957600080fd5b813567ffffffffffffffff808211156135a4576135a4613562565b604051601f8301601f19908116603f011681019082821181831017156135cc576135cc613562565b816040528381528660208588010111156135e557600080fd5b836020870160208301376000602085830101528094505050505092915050565b600080600080600080600060e0888a03121561362057600080fd5b873567ffffffffffffffff8082111561363857600080fd5b6136448b838c01613578565b985060208a013591508082111561365a57600080fd5b506136678a828b01613578565b96505060408801356136788161347a565b969995985095966060810135965060808101359560a0820135955060c0909101359350915050565b803560ff811681146136b157600080fd5b919050565b60008060008060008060c087890312156136cf57600080fd5b86356136da8161347a565b955060208701359450604087013593506136f6606088016136a0565b92506080870135915060a087013590509295509295509295565b600080600080600080600060e0888a03121561372b57600080fd5b87356137368161347a565b965060208801356137468161347a565b95506040880135945060608801359350613762608089016136a0565b925060a0880135915060c0880135905092959891949750929550565b60008060008060008060008060006101208a8c03121561379d57600080fd5b89356137a88161347a565b985060208a01356137b88161347a565b975060408a0135965060608a013595506137d460808b016136a0565b945060a08a0135935060c08a0135925060e08a01356137f28161347a565b809250506101008a013590509295985092959850929598565b6000806040838503121561381e57600080fd5b82356138298161347a565b9150602083013561353a8161347a565b6000806040838503121561384c57600080fd5b82356138578161347a565b9150602083013563ffffffff8116811461353a57600080fd5b6000806000806080858703121561388657600080fd5b8435935060208501359250604085013561389f8161347a565b9396929550929360600135925050565b600181811c908216806138c357607f821691505b602082108114156125ea57634e487b7160e01b600052602260045260246000fd5b634e487b7160e01b600052601160045260246000fd5b6000821982111561390d5761390d6138e4565b500190565b600082821015613924576139246138e4565b500390565b6000816000190483118215151615613943576139436138e4565b500290565b60008261396557634e487b7160e01b600052601260045260246000fd5b500490565b60008083128015600160ff1b850184121615613988576139886138e4565b6001600160ff1b03840183138116156139a3576139a36138e4565b50500390565b600181815b808511156139e45781600019048211156139ca576139ca6138e4565b808516156139d757918102915b93841c93908002906139ae565b509250929050565b6000826139fb575060016108c3565b81613a08575060006108c3565b8160018114613a1e5760028114613a2857613a44565b60019150506108c3565b60ff841115613a3957613a396138e4565b50506001821b6108c3565b5060208310610133831016604e8410600b8410161715613a67575081810a6108c3565b613a7183836139a9565b8060001904821115613a8557613a856138e4565b029392505050565b6000610b4383836139ec565b634e487b7160e01b600052603260045260246000fd5b600060208284031215613ac157600080fd5b81518015158114610b4357600080fd5b600080821280156001600160ff1b0384900385131615613af357613af36138e4565b600160ff1b8390038412811615613b0c57613b0c6138e4565b50500190565b600060208284031215613b2457600080fd5b5051919050565b7f416363657373436f6e74726f6c3a206163636f756e7420000000000000000000815260008351613b6381601785016020880161341b565b7001034b99036b4b9b9b4b733903937b6329607d1b6017918401918201528351613b9481602884016020880161341b565b01602801949350505050565b6020808252602b908201527f496e697469616c697a61626c653a20636f6e7472616374206973206e6f74206960408201526a6e697469616c697a696e6760a81b606082015260800190565b600081613bfa57613bfa6138e4565b506000190190565b634e487b7160e01b600052602160045260246000fdfe241ecf16d79d0f8dbfb92cbc07fe17840425976cf0667f022fe9877caa831b08a26469706673582212206b2d78b0224378f0ab5e76225162d1503041a3f2160719118321b7a42f3c673864736f6c634300080a0033",
  "linkReferences": {},
  "deployedLinkReferences": {}
}