{
  "_format": "hh-sol-artifact-1",
  "contractName": "VLFI",
  "sourceName": "contracts/VLFI.sol",
  "abi": [
    {
      "inputs": [
        {
          "internalType": "string",
          "name": "name",
          "type": "string"
        },
        {
          "internalType": "string",
          "name": "symbol",
          "type": "string"
        },
        {
          "internalType": "contract IERC20",
          "name": "stakedToken",
          "type": "address"
        },
        {
          "internalType": "uint256",
          "name": "cooldownSeconds",
          "type": "uint256"
        },
        {
          "internalType": "uint256",
          "name": "unstakeWindow",
          "type": "uint256"
        }
      ],
      "stateMutability": "nonpayable",
      "type": "constructor"
    },
    {
      "anonymous": false,
      "inputs": [
        {
          "indexed": true,
          "internalType": "address",
          "name": "owner",
          "type": "address"
        },
        {
          "indexed": true,
          "internalType": "address",
          "name": "spender",
          "type": "address"
        },
        {
          "indexed": false,
          "internalType": "uint256",
          "name": "value",
          "type": "uint256"
        }
      ],
      "name": "Approval",
      "type": "event"
    },
    {
      "anonymous": false,
      "inputs": [
        {
          "indexed": true,
          "internalType": "address",
          "name": "from",
          "type": "address"
        },
        {
          "indexed": true,
          "internalType": "address",
          "name": "onBehalfOf",
          "type": "address"
        },
        {
          "indexed": false,
          "internalType": "uint256",
          "name": "amount",
          "type": "uint256"
        }
      ],
      "name": "Deposited",
      "type": "event"
    },
    {
      "anonymous": false,
      "inputs": [
        {
          "indexed": true,
          "internalType": "address",
          "name": "from",
          "type": "address"
        },
        {
          "indexed": true,
          "internalType": "address",
          "name": "to",
          "type": "address"
        },
        {
          "indexed": false,
          "internalType": "uint256",
          "name": "amount",
          "type": "uint256"
        }
      ],
      "name": "Redeemed",
      "type": "event"
    },
    {
      "anonymous": false,
      "inputs": [
        {
          "indexed": true,
          "internalType": "address",
          "name": "from",
          "type": "address"
        },
        {
          "indexed": true,
          "internalType": "address",
          "name": "to",
          "type": "address"
        },
        {
          "indexed": false,
          "internalType": "uint256",
          "name": "value",
          "type": "uint256"
        }
      ],
      "name": "Transfer",
      "type": "event"
    },
    {
      "inputs": [],
      "name": "STAKED_TOKEN",
      "outputs": [
        {
          "internalType": "contract IERC20",
          "name": "",
          "type": "address"
        }
      ],
      "stateMutability": "view",
      "type": "function"
    },
    {
      "inputs": [
        {
          "internalType": "address",
          "name": "owner",
          "type": "address"
        },
        {
          "internalType": "address",
          "name": "spender",
          "type": "address"
        }
      ],
      "name": "allowance",
      "outputs": [
        {
          "internalType": "uint256",
          "name": "",
          "type": "uint256"
        }
      ],
      "stateMutability": "view",
      "type": "function"
    },
    {
      "inputs": [
        {
          "internalType": "address",
          "name": "spender",
          "type": "address"
        },
        {
          "internalType": "uint256",
          "name": "amount",
          "type": "uint256"
        }
      ],
      "name": "approve",
      "outputs": [
        {
          "internalType": "bool",
          "name": "",
          "type": "bool"
        }
      ],
      "stateMutability": "nonpayable",
      "type": "function"
    },
    {
      "inputs": [
        {
          "internalType": "address",
          "name": "account",
          "type": "address"
        }
      ],
      "name": "balanceOf",
      "outputs": [
        {
          "internalType": "uint256",
          "name": "",
          "type": "uint256"
        }
      ],
      "stateMutability": "view",
      "type": "function"
    },
    {
      "inputs": [
        {
          "internalType": "address",
          "name": "to",
          "type": "address"
        }
      ],
      "name": "claimRewards",
      "outputs": [],
      "stateMutability": "nonpayable",
      "type": "function"
    },
    {
      "inputs": [],
      "name": "cooldown",
      "outputs": [],
      "stateMutability": "nonpayable",
      "type": "function"
    },
    {
      "inputs": [],
      "name": "createFarm",
      "outputs": [],
      "stateMutability": "nonpayable",
      "type": "function"
    },
    {
      "inputs": [],
      "name": "decimals",
      "outputs": [
        {
          "internalType": "uint8",
          "name": "",
          "type": "uint8"
        }
      ],
      "stateMutability": "view",
      "type": "function"
    },
    {
      "inputs": [
        {
          "internalType": "address",
          "name": "spender",
          "type": "address"
        },
        {
          "internalType": "uint256",
          "name": "subtractedValue",
          "type": "uint256"
        }
      ],
      "name": "decreaseAllowance",
      "outputs": [
        {
          "internalType": "bool",
          "name": "",
          "type": "bool"
        }
      ],
      "stateMutability": "nonpayable",
      "type": "function"
    },
    {
      "inputs": [],
      "name": "getCooldownSeconds",
      "outputs": [
        {
          "internalType": "uint256",
          "name": "",
          "type": "uint256"
        }
      ],
      "stateMutability": "view",
      "type": "function"
    },
    {
      "inputs": [],
      "name": "getFarmAccRewardPerShare",
      "outputs": [
        {
          "internalType": "uint256",
          "name": "",
          "type": "uint256"
        }
      ],
      "stateMutability": "view",
      "type": "function"
    },
    {
      "inputs": [],
      "name": "getFarmLastRewardTime",
      "outputs": [
        {
          "internalType": "uint256",
          "name": "",
          "type": "uint256"
        }
      ],
      "stateMutability": "view",
      "type": "function"
    },
    {
      "inputs": [
        {
          "internalType": "uint256",
          "name": "userCooldownTimestamp",
          "type": "uint256"
        },
        {
          "internalType": "uint256",
          "name": "amountToReceive",
          "type": "uint256"
        },
        {
          "internalType": "address",
          "name": "toAddress",
          "type": "address"
        },
        {
          "internalType": "uint256",
          "name": "toBalance",
          "type": "uint256"
        }
      ],
      "name": "getNextCooldownTimestamp",
      "outputs": [
        {
          "internalType": "uint256",
          "name": "",
          "type": "uint256"
        }
      ],
      "stateMutability": "view",
      "type": "function"
    },
    {
      "inputs": [
        {
          "internalType": "address",
          "name": "staker",
          "type": "address"
        }
      ],
      "name": "getStakersCooldowns",
      "outputs": [
        {
          "internalType": "uint256",
          "name": "",
          "type": "uint256"
        }
      ],
      "stateMutability": "view",
      "type": "function"
    },
    {
      "inputs": [],
      "name": "getUnstakeWindowTime",
      "outputs": [
        {
          "internalType": "uint256",
          "name": "",
          "type": "uint256"
        }
      ],
      "stateMutability": "view",
      "type": "function"
    },
    {
      "inputs": [
        {
          "internalType": "address",
          "name": "benefitor",
          "type": "address"
        }
      ],
      "name": "getUserAmount",
      "outputs": [
        {
          "internalType": "uint256",
          "name": "",
          "type": "uint256"
        }
      ],
      "stateMutability": "view",
      "type": "function"
    },
    {
      "inputs": [
        {
          "internalType": "address",
          "name": "user",
          "type": "address"
        }
      ],
      "name": "getUserDeposits",
      "outputs": [
        {
          "internalType": "uint256",
          "name": "",
          "type": "uint256"
        }
      ],
      "stateMutability": "view",
      "type": "function"
    },
    {
      "inputs": [
        {
          "internalType": "address",
          "name": "benefitor",
          "type": "address"
        }
      ],
      "name": "getUserRewardDebt",
      "outputs": [
        {
          "internalType": "int256",
          "name": "",
          "type": "int256"
        }
      ],
      "stateMutability": "view",
      "type": "function"
    },
    {
      "inputs": [
        {
          "internalType": "address",
          "name": "spender",
          "type": "address"
        },
        {
          "internalType": "uint256",
          "name": "addedValue",
          "type": "uint256"
        }
      ],
      "name": "increaseAllowance",
      "outputs": [
        {
          "internalType": "bool",
          "name": "",
          "type": "bool"
        }
      ],
      "stateMutability": "nonpayable",
      "type": "function"
    },
    {
      "inputs": [],
      "name": "name",
      "outputs": [
        {
          "internalType": "string",
          "name": "",
          "type": "string"
        }
      ],
      "stateMutability": "view",
      "type": "function"
    },
    {
      "inputs": [
        {
          "internalType": "address",
          "name": "benefitor",
          "type": "address"
        }
      ],
      "name": "pendingReward",
      "outputs": [
        {
          "internalType": "uint256",
          "name": "pendingRewards",
          "type": "uint256"
        }
      ],
      "stateMutability": "view",
      "type": "function"
    },
    {
      "inputs": [
        {
          "internalType": "address",
          "name": "to",
          "type": "address"
        },
        {
          "internalType": "uint256",
          "name": "amount",
          "type": "uint256"
        }
      ],
      "name": "redeem",
      "outputs": [],
      "stateMutability": "nonpayable",
      "type": "function"
    },
    {
      "inputs": [],
      "name": "rewardPerSecond",
      "outputs": [
        {
          "internalType": "uint256",
          "name": "",
          "type": "uint256"
        }
      ],
      "stateMutability": "view",
      "type": "function"
    },
    {
      "inputs": [
        {
          "internalType": "uint256",
          "name": "coolDownSeconds",
          "type": "uint256"
        }
      ],
      "name": "setCooldownSeconds",
      "outputs": [],
      "stateMutability": "nonpayable",
      "type": "function"
    },
    {
      "inputs": [
        {
          "internalType": "uint256",
          "name": "_rewardPerSecond",
          "type": "uint256"
        }
      ],
      "name": "setRewardPerSecond",
      "outputs": [],
      "stateMutability": "nonpayable",
      "type": "function"
    },
    {
      "inputs": [
        {
          "internalType": "uint256",
          "name": "unstakeWindow",
          "type": "uint256"
        }
      ],
      "name": "setUnstakeWindowTime",
      "outputs": [],
      "stateMutability": "nonpayable",
      "type": "function"
    },
    {
      "inputs": [
        {
          "internalType": "address",
          "name": "onBehalfOf",
          "type": "address"
        },
        {
          "internalType": "uint256",
          "name": "amount",
          "type": "uint256"
        }
      ],
      "name": "stake",
      "outputs": [],
      "stateMutability": "nonpayable",
      "type": "function"
    },
    {
      "inputs": [],
      "name": "symbol",
      "outputs": [
        {
          "internalType": "string",
          "name": "",
          "type": "string"
        }
      ],
      "stateMutability": "view",
      "type": "function"
    },
    {
      "inputs": [],
      "name": "totalSupply",
      "outputs": [
        {
          "internalType": "uint256",
          "name": "",
          "type": "uint256"
        }
      ],
      "stateMutability": "view",
      "type": "function"
    },
    {
      "inputs": [
        {
          "internalType": "address",
          "name": "to",
          "type": "address"
        },
        {
          "internalType": "uint256",
          "name": "amount",
          "type": "uint256"
        }
      ],
      "name": "transfer",
      "outputs": [
        {
          "internalType": "bool",
          "name": "",
          "type": "bool"
        }
      ],
      "stateMutability": "nonpayable",
      "type": "function"
    },
    {
      "inputs": [
        {
          "internalType": "address",
          "name": "sender",
          "type": "address"
        },
        {
          "internalType": "address",
          "name": "recipient",
          "type": "address"
        },
        {
          "internalType": "uint256",
          "name": "amount",
          "type": "uint256"
        }
      ],
      "name": "transferFrom",
      "outputs": [
        {
          "internalType": "bool",
          "name": "",
          "type": "bool"
        }
      ],
      "stateMutability": "nonpayable",
      "type": "function"
    },
    {
      "inputs": [],
      "name": "updateFarm",
      "outputs": [
        {
          "components": [
            {
              "internalType": "uint256",
              "name": "accRewardsPerShare",
              "type": "uint256"
            },
            {
              "internalType": "uint256",
              "name": "lastRewardTime",
              "type": "uint256"
            }
          ],
          "internalType": "struct VLFI.FarmInfo",
          "name": "farm",
          "type": "tuple"
        }
      ],
      "stateMutability": "nonpayable",
      "type": "function"
    },
    {
      "inputs": [],
      "name": "updateRewardsToClaim",
      "outputs": [],
      "stateMutability": "nonpayable",
      "type": "function"
    }
  ],
  "bytecode": "0x60a06040526012600a62000014919062000319565b6103e86200002391906200036a565b6009553480156200003357600080fd5b50604051620041ae380380620041ae833981810160405281019062000059919062000612565b8484816003908051906020019062000073929190620000dc565b5080600490805190602001906200008c929190620000dc565b5050508273ffffffffffffffffffffffffffffffffffffffff1660808173ffffffffffffffffffffffffffffffffffffffff168152505081600a8190555080600b8190555050505050506200073d565b828054620000ea9062000707565b90600052602060002090601f0160209004810192826200010e57600085556200015a565b82601f106200012957805160ff19168380011785556200015a565b828001600101855582156200015a579182015b82811115620001595782518255916020019190600101906200013c565b5b5090506200016991906200016d565b5090565b5b80821115620001885760008160009055506001016200016e565b5090565b7f4e487b7100000000000000000000000000000000000000000000000000000000600052601160045260246000fd5b60008160011c9050919050565b6000808291508390505b60018511156200021a57808604811115620001f257620001f16200018c565b5b6001851615620002025780820291505b80810290506200021285620001bb565b9450620001d2565b94509492505050565b60008262000235576001905062000308565b8162000245576000905062000308565b81600181146200025e576002811462000269576200029f565b600191505062000308565b60ff8411156200027e576200027d6200018c565b5b8360020a9150848211156200029857620002976200018c565b5b5062000308565b5060208310610133831016604e8410600b8410161715620002d95782820a905083811115620002d357620002d26200018c565b5b62000308565b620002e88484846001620001c8565b925090508184048111156200030257620003016200018c565b5b81810290505b9392505050565b6000819050919050565b600062000326826200030f565b915062000333836200030f565b9250620003627fffffffffffffffffffffffffffffffffffffffffffffffffffffffffffffffff848462000223565b905092915050565b600062000377826200030f565b915062000384836200030f565b9250817fffffffffffffffffffffffffffffffffffffffffffffffffffffffffffffffff0483118215151615620003c057620003bf6200018c565b5b828202905092915050565b6000604051905090565b600080fd5b600080fd5b600080fd5b600080fd5b6000601f19601f8301169050919050565b7f4e487b7100000000000000000000000000000000000000000000000000000000600052604160045260246000fd5b6200043482620003e9565b810181811067ffffffffffffffff82111715620004565762000455620003fa565b5b80604052505050565b60006200046b620003cb565b905062000479828262000429565b919050565b600067ffffffffffffffff8211156200049c576200049b620003fa565b5b620004a782620003e9565b9050602081019050919050565b60005b83811015620004d4578082015181840152602081019050620004b7565b83811115620004e4576000848401525b50505050565b600062000501620004fb846200047e565b6200045f565b90508281526020810184848401111562000520576200051f620003e4565b5b6200052d848285620004b4565b509392505050565b600082601f8301126200054d576200054c620003df565b5b81516200055f848260208601620004ea565b91505092915050565b600073ffffffffffffffffffffffffffffffffffffffff82169050919050565b6000620005958262000568565b9050919050565b6000620005a98262000588565b9050919050565b620005bb816200059c565b8114620005c757600080fd5b50565b600081519050620005db81620005b0565b92915050565b620005ec816200030f565b8114620005f857600080fd5b50565b6000815190506200060c81620005e1565b92915050565b600080600080600060a08688031215620006315762000630620003d5565b5b600086015167ffffffffffffffff811115620006525762000651620003da565b5b620006608882890162000535565b955050602086015167ffffffffffffffff811115620006845762000683620003da565b5b620006928882890162000535565b9450506040620006a588828901620005ca565b9350506060620006b888828901620005fb565b9250506080620006cb88828901620005fb565b9150509295509295909350565b7f4e487b7100000000000000000000000000000000000000000000000000000000600052602260045260246000fd5b600060028204905060018216806200072057607f821691505b60208210811415620007375762000736620006d8565b5b50919050565b608051613a406200076e60003960008181610a7a01528181610ccf015281816116a7015261191a0152613a406000f3fe608060405234801561001057600080fd5b50600436106101fb5760003560e01c806366da58151161011a578063ad88918f116100ad578063ef5cfb8c1161007c578063ef5cfb8c146105b6578063f1cc432a146105d2578063f40f0f5214610602578063f54ca63c14610632578063fec2105b14610650576101fb565b8063ad88918f1461051e578063adc9772e1461053a578063c61fbcc514610556578063dd62ed3e14610586576101fb565b80638f10369a116100e95780638f10369a1461048257806395d89b41146104a0578063a457c2d7146104be578063a9059cbb146104ee576101fb565b806366da58151461041057806370a082311461042c578063787a08a61461045c5780637b5b115714610466576101fb565b80632a5bf6d211610192578063395093511161016157806339509351146103865780634854fd3c146103b65780634d978b44146103d4578063616e0bf9146103f2576101fb565b80632a5bf6d2146102ea578063312f6b831461031a578063313ce56714610338578063327a943a14610356576101fb565b80631d5ec3cb116101ce5780631d5ec3cb146102765780631e9a6950146102805780631f477ea91461029c57806323b872dd146102ba576101fb565b806306fdde0314610200578063095ea7b31461021e5780630e5b47bc1461024e57806318160ddd14610258575b600080fd5b610208610680565b60405161021591906128c1565b60405180910390f35b6102386004803603810190610233919061297c565b610712565b60405161024591906129d7565b60405180910390f35b610256610730565b005b610260610779565b60405161026d9190612a01565b60405180910390f35b61027e610783565b005b61029a6004803603810190610295919061297c565b6107b4565b005b6102a4610b82565b6040516102b19190612a01565b60405180910390f35b6102d460048036038101906102cf9190612a1c565b610b8c565b6040516102e191906129d7565b60405180910390f35b61030460048036038101906102ff9190612a6f565b610c84565b6040516103119190612a01565b60405180910390f35b610322610ccd565b60405161032f9190612afb565b60405180910390f35b610340610cf1565b60405161034d9190612b32565b60405180910390f35b610370600480360381019061036b9190612a6f565b610cfa565b60405161037d9190612a01565b60405180910390f35b6103a0600480360381019061039b919061297c565b610d46565b6040516103ad91906129d7565b60405180910390f35b6103be610df2565b6040516103cb9190612a01565b60405180910390f35b6103dc610dff565b6040516103e99190612a01565b60405180910390f35b6103fa610e0c565b6040516104079190612a01565b60405180910390f35b61042a60048036038101906104259190612b4d565b610e16565b005b61044660048036038101906104419190612a6f565b610e20565b6040516104539190612a01565b60405180910390f35b610464610e68565b005b610480600480360381019061047b9190612b4d565b610efa565b005b61048a610f04565b6040516104979190612a01565b60405180910390f35b6104a8610f0a565b6040516104b591906128c1565b60405180910390f35b6104d860048036038101906104d3919061297c565b610f9c565b6040516104e591906129d7565b60405180910390f35b6105086004803603810190610503919061297c565b611087565b60405161051591906129d7565b60405180910390f35b61053860048036038101906105339190612b4d565b6114e3565b005b610554600480360381019061054f919061297c565b6114ed565b005b610570600480360381019061056b9190612a6f565b6117ae565b60405161057d9190612b93565b60405180910390f35b6105a0600480360381019061059b9190612bae565b6117fa565b6040516105ad9190612a01565b60405180910390f35b6105d060048036038101906105cb9190612a6f565b611881565b005b6105ec60048036038101906105e79190612bee565b6119be565b6040516105f99190612a01565b60405180910390f35b61061c60048036038101906106179190612a6f565b611ab6565b6040516106299190612a01565b60405180910390f35b61063a611bdf565b6040516106479190612c93565b60405180910390f35b61066a60048036038101906106659190612a6f565b611cb4565b6040516106779190612a01565b60405180910390f35b60606003805461068f90612cdd565b80601f01602080910402602001604051908101604052809291908181526020018280546106bb90612cdd565b80156107085780601f106106dd57610100808354040283529160200191610708565b820191906000526020600020905b8154815290600101906020018083116106eb57829003601f168201915b5050505050905090565b600061072661071f611cfd565b8484611d05565b6001905092915050565b600080600c60003373ffffffffffffffffffffffffffffffffffffffff1673ffffffffffffffffffffffffffffffffffffffff1681526020019081526020016000208190555050565b6000600254905090565b6040518060400160405280600081526020014281525060056000820151816000015560208201518160010155905050565b60008114156107f8576040517f08c379a00000000000000000000000000000000000000000000000000000000081526004016107ef90612d5b565b60405180910390fd5b6000600d60003373ffffffffffffffffffffffffffffffffffffffff1673ffffffffffffffffffffffffffffffffffffffff168152602001908152602001600020549050600a548161084a9190612daa565b421161088b576040517f08c379a000000000000000000000000000000000000000000000000000000000815260040161088290612e4c565b60405180910390fd5b600b54600a548261089c9190612daa565b426108a79190612e6c565b11156108e8576040517f08c379a00000000000000000000000000000000000000000000000000000000081526004016108df90612eec565b60405180910390fd5b60006108f333610e20565b905060008184116109045783610906565b815b90506000610912611bdf565b90506000600860003373ffffffffffffffffffffffffffffffffffffffff1673ffffffffffffffffffffffffffffffffffffffff1681526020019081526020016000209050670de0b6b3a76400008260000151600954670de0b6b3a76400008661097c9190612f0c565b6109869190612f95565b6109909190612f0c565b61099a9190612f95565b8160010160008282546109ad9190612fc6565b92505081905550600954670de0b6b3a7640000846109cb9190612f0c565b6109d59190612f95565b8160000160008282546109e89190612e6c565b92505081905550610a1933600954670de0b6b3a764000086610a0a9190612f0c565b610a149190612f95565b611ed0565b60008385610a279190612e6c565b1415610a73576000600d60003373ffffffffffffffffffffffffffffffffffffffff1673ffffffffffffffffffffffffffffffffffffffff168152602001908152602001600020819055505b610abe87847f000000000000000000000000000000000000000000000000000000000000000073ffffffffffffffffffffffffffffffffffffffff166120a79092919063ffffffff16565b85600e60003373ffffffffffffffffffffffffffffffffffffffff1673ffffffffffffffffffffffffffffffffffffffff1681526020019081526020016000206000828254610b0d9190612e6c565b925050819055503373ffffffffffffffffffffffffffffffffffffffff163373ffffffffffffffffffffffffffffffffffffffff167f27d4634c833b7622a0acddbf7f746183625f105945e95c723ad1d5a9f2a0b6fc85604051610b719190612a01565b60405180910390a350505050505050565b6000600b54905090565b6000610b9984848461212d565b6000600160008673ffffffffffffffffffffffffffffffffffffffff1673ffffffffffffffffffffffffffffffffffffffff1681526020019081526020016000206000610be4611cfd565b73ffffffffffffffffffffffffffffffffffffffff1673ffffffffffffffffffffffffffffffffffffffff16815260200190815260200160002054905082811015610c64576040517f08c379a0000000000000000000000000000000000000000000000000000000008152600401610c5b906130cc565b60405180910390fd5b610c7885610c70611cfd565b858403611d05565b60019150509392505050565b6000600e60008373ffffffffffffffffffffffffffffffffffffffff1673ffffffffffffffffffffffffffffffffffffffff168152602001908152602001600020549050919050565b7f000000000000000000000000000000000000000000000000000000000000000081565b60006012905090565b6000600860008373ffffffffffffffffffffffffffffffffffffffff1673ffffffffffffffffffffffffffffffffffffffff168152602001908152602001600020600001549050919050565b6000610de8610d53611cfd565b848460016000610d61611cfd565b73ffffffffffffffffffffffffffffffffffffffff1673ffffffffffffffffffffffffffffffffffffffff16815260200190815260200160002060008873ffffffffffffffffffffffffffffffffffffffff1673ffffffffffffffffffffffffffffffffffffffff16815260200190815260200160002054610de39190612daa565b611d05565b6001905092915050565b6000600560010154905090565b6000600560000154905090565b6000600a54905090565b8060078190555050565b60008060008373ffffffffffffffffffffffffffffffffffffffff1673ffffffffffffffffffffffffffffffffffffffff168152602001908152602001600020549050919050565b6000610e7333610e20565b1415610eb4576040517f08c379a0000000000000000000000000000000000000000000000000000000008152600401610eab90613138565b60405180910390fd5b42600d60003373ffffffffffffffffffffffffffffffffffffffff1673ffffffffffffffffffffffffffffffffffffffff16815260200190815260200160002081905550565b80600a8190555050565b60075481565b606060048054610f1990612cdd565b80601f0160208091040260200160405190810160405280929190818152602001828054610f4590612cdd565b8015610f925780601f10610f6757610100808354040283529160200191610f92565b820191906000526020600020905b815481529060010190602001808311610f7557829003601f168201915b5050505050905090565b60008060016000610fab611cfd565b73ffffffffffffffffffffffffffffffffffffffff1673ffffffffffffffffffffffffffffffffffffffff16815260200190815260200160002060008573ffffffffffffffffffffffffffffffffffffffff1673ffffffffffffffffffffffffffffffffffffffff16815260200190815260200160002054905082811015611068576040517f08c379a000000000000000000000000000000000000000000000000000000000815260040161105f906131ca565b60405180910390fd5b61107c611073611cfd565b85858403611d05565b600191505092915050565b60008273ffffffffffffffffffffffffffffffffffffffff163373ffffffffffffffffffffffffffffffffffffffff1614156110f8576040517f08c379a00000000000000000000000000000000000000000000000000000000081526004016110ef90613236565b60405180910390fd5b61110133610e20565b82111561110d57600080fd5b600061111833610e20565b9050600061112585610e20565b90506000600d60003373ffffffffffffffffffffffffffffffffffffffff1673ffffffffffffffffffffffffffffffffffffffff168152602001908152602001600020549050600a54816111799190612daa565b42116111ba576040517f08c379a00000000000000000000000000000000000000000000000000000000081526004016111b190612e4c565b60405180910390fd5b600b54600a54826111cb9190612daa565b426111d69190612e6c565b1115611217576040517f08c379a000000000000000000000000000000000000000000000000000000000815260040161120e90612eec565b60405180910390fd5b6000611221611bdf565b90506000600860003373ffffffffffffffffffffffffffffffffffffffff1673ffffffffffffffffffffffffffffffffffffffff1681526020019081526020016000209050670de0b6b3a76400008260000151600954670de0b6b3a76400008a61128b9190612f0c565b6112959190612f95565b61129f9190612f0c565b6112a99190612f95565b8160010160008282546112bc9190612fc6565b92505081905550600954670de0b6b3a7640000886112da9190612f0c565b6112e49190612f95565b8160000160008282546112f79190612e6c565b925050819055506000600860008a73ffffffffffffffffffffffffffffffffffffffff1673ffffffffffffffffffffffffffffffffffffffff1681526020019081526020016000209050670de0b6b3a76400008360000151600954670de0b6b3a76400008b6113669190612f0c565b6113709190612f95565b61137a9190612f0c565b6113849190612f95565b8160010160008282546113979190613256565b92505081905550600954670de0b6b3a7640000896113b59190612f0c565b6113bf9190612f95565b8160000160008282546113d29190612daa565b925050819055506000600d60003373ffffffffffffffffffffffffffffffffffffffff1673ffffffffffffffffffffffffffffffffffffffff168152602001908152602001600020549050611429818a8c896119be565b600d60008c73ffffffffffffffffffffffffffffffffffffffff1673ffffffffffffffffffffffffffffffffffffffff16815260200190815260200160002081905550888714801561147c575060008114155b156114c7576000600d60003373ffffffffffffffffffffffffffffffffffffffff1673ffffffffffffffffffffffffffffffffffffffff168152602001908152602001600020819055505b6114d2338b8b61212d565b600197505050505050505092915050565b80600b8190555050565b6000811415611531576040517f08c379a000000000000000000000000000000000000000000000000000000000815260040161152890612d5b565b60405180910390fd5b600061153c83610e20565b90506000611548611bdf565b90506000600860003373ffffffffffffffffffffffffffffffffffffffff1673ffffffffffffffffffffffffffffffffffffffff1681526020019081526020016000209050600954670de0b6b3a7640000856115a49190612f0c565b6115ae9190612f95565b8160000160008282546115c19190612daa565b92505081905550670de0b6b3a76400008260000151600954670de0b6b3a7640000876115ed9190612f0c565b6115f79190612f95565b6116019190612f0c565b61160b9190612f95565b81600101600082825461161e9190613256565b9250508190555061163260008587866119be565b600d60008773ffffffffffffffffffffffffffffffffffffffff1673ffffffffffffffffffffffffffffffffffffffff1681526020019081526020016000208190555061169f85600954670de0b6b3a7640000876116909190612f0c565b61169a9190612f95565b6123ae565b6116ec3330867f000000000000000000000000000000000000000000000000000000000000000073ffffffffffffffffffffffffffffffffffffffff1661250e909392919063ffffffff16565b83600e60003373ffffffffffffffffffffffffffffffffffffffff1673ffffffffffffffffffffffffffffffffffffffff168152602001908152602001600020600082825461173b9190612daa565b925050819055508473ffffffffffffffffffffffffffffffffffffffff163373ffffffffffffffffffffffffffffffffffffffff167f8752a472e571a816aea92eec8dae9baf628e840f4929fbcc2d155e6233ff68a78660405161179f9190612a01565b60405180910390a35050505050565b6000600860008373ffffffffffffffffffffffffffffffffffffffff1673ffffffffffffffffffffffffffffffffffffffff168152602001908152602001600020600101549050919050565b6000600160008473ffffffffffffffffffffffffffffffffffffffff1673ffffffffffffffffffffffffffffffffffffffff16815260200190815260200160002060008373ffffffffffffffffffffffffffffffffffffffff1673ffffffffffffffffffffffffffffffffffffffff16815260200190815260200160002054905092915050565b600061188b611bdf565b90506000600860003373ffffffffffffffffffffffffffffffffffffffff1673ffffffffffffffffffffffffffffffffffffffff16815260200190815260200160002090506000670de0b6b3a7640000836000015183600001546118ef9190612f0c565b6118f99190612f95565b9050600082600101548261190d9190612fc6565b90508183600101819055507f000000000000000000000000000000000000000000000000000000000000000073ffffffffffffffffffffffffffffffffffffffff1663a9059cbb86836040518363ffffffff1660e01b81526004016119739291906132f9565b6020604051808303816000875af1158015611992573d6000803e3d6000fd5b505050506040513d601f19601f820116820180604052508101906119b6919061334e565b505050505050565b600080600d60008573ffffffffffffffffffffffffffffffffffffffff1673ffffffffffffffffffffffffffffffffffffffff1681526020019081526020016000205490506000811415611a16576000915050611aae565b6000600b54600a5442611a299190612e6c565b611a339190612e6c565b905081811115611a465760009150611aa8565b6000878211611a555787611a57565b425b905082811015611a6c57829350505050611aae565b8487611a789190612daa565b8386611a849190612f0c565b8289611a909190612f0c565b611a9a9190612daa565b611aa49190612f95565b9250505b81925050505b949350505050565b60008060056040518060400160405290816000820154815260200160018201548152505090506000600860008573ffffffffffffffffffffffffffffffffffffffff1673ffffffffffffffffffffffffffffffffffffffff16815260200190815260200160002090506000826000015190506000611b32610779565b9050836020015142118015611b48575060008114155b15611ba2576000846020015142611b5f9190612e6c565b9050600060075482611b719190612f0c565b905082670de0b6b3a764000082611b889190612f0c565b611b929190612f95565b84611b9d9190612daa565b935050505b8260010154670de0b6b3a7640000838560000154611bc09190612f0c565b611bca9190612f95565b611bd49190612fc6565b945050505050919050565b611be761280e565b60056040518060400160405290816000820154815260200160018201548152505090504281602001511015611cb1576000611c20610779565b90506000811115611c8b576000826020015142611c3d9190612e6c565b9050600060075482611c4f9190612f0c565b905082670de0b6b3a764000082611c669190612f0c565b611c709190612f95565b84600001818151611c819190612daa565b9150818152505050505b428260200181815250508160056000820151816000015560208201518160010155905050505b90565b6000600d60008373ffffffffffffffffffffffffffffffffffffffff1673ffffffffffffffffffffffffffffffffffffffff168152602001908152602001600020549050919050565b600033905090565b600073ffffffffffffffffffffffffffffffffffffffff168373ffffffffffffffffffffffffffffffffffffffff161415611d75576040517f08c379a0000000000000000000000000000000000000000000000000000000008152600401611d6c906133ed565b60405180910390fd5b600073ffffffffffffffffffffffffffffffffffffffff168273ffffffffffffffffffffffffffffffffffffffff161415611de5576040517f08c379a0000000000000000000000000000000000000000000000000000000008152600401611ddc9061347f565b60405180910390fd5b80600160008573ffffffffffffffffffffffffffffffffffffffff1673ffffffffffffffffffffffffffffffffffffffff16815260200190815260200160002060008473ffffffffffffffffffffffffffffffffffffffff1673ffffffffffffffffffffffffffffffffffffffff168152602001908152602001600020819055508173ffffffffffffffffffffffffffffffffffffffff168373ffffffffffffffffffffffffffffffffffffffff167f8c5be1e5ebec7d5bd14f71427d1e84f3dd0314c0f7b2291e5b200ac8c7c3b92583604051611ec39190612a01565b60405180910390a3505050565b600073ffffffffffffffffffffffffffffffffffffffff168273ffffffffffffffffffffffffffffffffffffffff161415611f40576040517f08c379a0000000000000000000000000000000000000000000000000000000008152600401611f3790613511565b60405180910390fd5b611f4c82600083612597565b60008060008473ffffffffffffffffffffffffffffffffffffffff1673ffffffffffffffffffffffffffffffffffffffff16815260200190815260200160002054905081811015611fd2576040517f08c379a0000000000000000000000000000000000000000000000000000000008152600401611fc9906135a3565b60405180910390fd5b8181036000808573ffffffffffffffffffffffffffffffffffffffff1673ffffffffffffffffffffffffffffffffffffffff1681526020019081526020016000208190555081600260008282546120299190612e6c565b92505081905550600073ffffffffffffffffffffffffffffffffffffffff168373ffffffffffffffffffffffffffffffffffffffff167fddf252ad1be2c89b69c2b068fc378daa952ba7f163c4a11628f55a4df523b3ef8460405161208e9190612a01565b60405180910390a36120a28360008461259c565b505050565b6121288363a9059cbb60e01b84846040516024016120c69291906132f9565b604051602081830303815290604052907bffffffffffffffffffffffffffffffffffffffffffffffffffffffff19166020820180517bffffffffffffffffffffffffffffffffffffffffffffffffffffffff83818316178352505050506125a1565b505050565b600073ffffffffffffffffffffffffffffffffffffffff168373ffffffffffffffffffffffffffffffffffffffff16141561219d576040517f08c379a000000000000000000000000000000000000000000000000000000000815260040161219490613635565b60405180910390fd5b600073ffffffffffffffffffffffffffffffffffffffff168273ffffffffffffffffffffffffffffffffffffffff16141561220d576040517f08c379a0000000000000000000000000000000000000000000000000000000008152600401612204906136c7565b60405180910390fd5b612218838383612597565b60008060008573ffffffffffffffffffffffffffffffffffffffff1673ffffffffffffffffffffffffffffffffffffffff1681526020019081526020016000205490508181101561229e576040517f08c379a000000000000000000000000000000000000000000000000000000000815260040161229590613759565b60405180910390fd5b8181036000808673ffffffffffffffffffffffffffffffffffffffff1673ffffffffffffffffffffffffffffffffffffffff16815260200190815260200160002081905550816000808573ffffffffffffffffffffffffffffffffffffffff1673ffffffffffffffffffffffffffffffffffffffff16815260200190815260200160002060008282546123319190612daa565b925050819055508273ffffffffffffffffffffffffffffffffffffffff168473ffffffffffffffffffffffffffffffffffffffff167fddf252ad1be2c89b69c2b068fc378daa952ba7f163c4a11628f55a4df523b3ef846040516123959190612a01565b60405180910390a36123a884848461259c565b50505050565b600073ffffffffffffffffffffffffffffffffffffffff168273ffffffffffffffffffffffffffffffffffffffff16141561241e576040517f08c379a0000000000000000000000000000000000000000000000000000000008152600401612415906137c5565b60405180910390fd5b61242a60008383612597565b806002600082825461243c9190612daa565b92505081905550806000808473ffffffffffffffffffffffffffffffffffffffff1673ffffffffffffffffffffffffffffffffffffffff16815260200190815260200160002060008282546124919190612daa565b925050819055508173ffffffffffffffffffffffffffffffffffffffff16600073ffffffffffffffffffffffffffffffffffffffff167fddf252ad1be2c89b69c2b068fc378daa952ba7f163c4a11628f55a4df523b3ef836040516124f69190612a01565b60405180910390a361250a6000838361259c565b5050565b612591846323b872dd60e01b85858560405160240161252f939291906137e5565b604051602081830303815290604052907bffffffffffffffffffffffffffffffffffffffffffffffffffffffff19166020820180517bffffffffffffffffffffffffffffffffffffffffffffffffffffffff83818316178352505050506125a1565b50505050565b505050565b505050565b6000612603826040518060400160405280602081526020017f5361666545524332303a206c6f772d6c6576656c2063616c6c206661696c65648152508573ffffffffffffffffffffffffffffffffffffffff166126689092919063ffffffff16565b90506000815111156126635780806020019051810190612623919061334e565b612662576040517f08c379a00000000000000000000000000000000000000000000000000000000081526004016126599061388e565b60405180910390fd5b5b505050565b60606126778484600085612680565b90509392505050565b6060824710156126c5576040517f08c379a00000000000000000000000000000000000000000000000000000000081526004016126bc90613920565b60405180910390fd5b6126ce85612794565b61270d576040517f08c379a00000000000000000000000000000000000000000000000000000000081526004016127049061398c565b60405180910390fd5b6000808673ffffffffffffffffffffffffffffffffffffffff16858760405161273691906139f3565b60006040518083038185875af1925050503d8060008114612773576040519150601f19603f3d011682016040523d82523d6000602084013e612778565b606091505b50915091506127888282866127a7565b92505050949350505050565b600080823b905060008111915050919050565b606083156127b757829050612807565b6000835111156127ca5782518084602001fd5b816040517f08c379a00000000000000000000000000000000000000000000000000000000081526004016127fe91906128c1565b60405180910390fd5b9392505050565b604051806040016040528060008152602001600081525090565b600081519050919050565b600082825260208201905092915050565b60005b83811015612862578082015181840152602081019050612847565b83811115612871576000848401525b50505050565b6000601f19601f8301169050919050565b600061289382612828565b61289d8185612833565b93506128ad818560208601612844565b6128b681612877565b840191505092915050565b600060208201905081810360008301526128db8184612888565b905092915050565b600080fd5b600073ffffffffffffffffffffffffffffffffffffffff82169050919050565b6000612913826128e8565b9050919050565b61292381612908565b811461292e57600080fd5b50565b6000813590506129408161291a565b92915050565b6000819050919050565b61295981612946565b811461296457600080fd5b50565b60008135905061297681612950565b92915050565b60008060408385031215612993576129926128e3565b5b60006129a185828601612931565b92505060206129b285828601612967565b9150509250929050565b60008115159050919050565b6129d1816129bc565b82525050565b60006020820190506129ec60008301846129c8565b92915050565b6129fb81612946565b82525050565b6000602082019050612a1660008301846129f2565b92915050565b600080600060608486031215612a3557612a346128e3565b5b6000612a4386828701612931565b9350506020612a5486828701612931565b9250506040612a6586828701612967565b9150509250925092565b600060208284031215612a8557612a846128e3565b5b6000612a9384828501612931565b91505092915050565b6000819050919050565b6000612ac1612abc612ab7846128e8565b612a9c565b6128e8565b9050919050565b6000612ad382612aa6565b9050919050565b6000612ae582612ac8565b9050919050565b612af581612ada565b82525050565b6000602082019050612b106000830184612aec565b92915050565b600060ff82169050919050565b612b2c81612b16565b82525050565b6000602082019050612b476000830184612b23565b92915050565b600060208284031215612b6357612b626128e3565b5b6000612b7184828501612967565b91505092915050565b6000819050919050565b612b8d81612b7a565b82525050565b6000602082019050612ba86000830184612b84565b92915050565b60008060408385031215612bc557612bc46128e3565b5b6000612bd385828601612931565b9250506020612be485828601612931565b9150509250929050565b60008060008060808587031215612c0857612c076128e3565b5b6000612c1687828801612967565b9450506020612c2787828801612967565b9350506040612c3887828801612931565b9250506060612c4987828801612967565b91505092959194509250565b612c5e81612946565b82525050565b604082016000820151612c7a6000850182612c55565b506020820151612c8d6020850182612c55565b50505050565b6000604082019050612ca86000830184612c64565b92915050565b7f4e487b7100000000000000000000000000000000000000000000000000000000600052602260045260246000fd5b60006002820490506001821680612cf557607f821691505b60208210811415612d0957612d08612cae565b5b50919050565b7f564c46493a494e56414c49445f414d4f554e5400000000000000000000000000600082015250565b6000612d45601383612833565b9150612d5082612d0f565b602082019050919050565b60006020820190508181036000830152612d7481612d38565b9050919050565b7f4e487b7100000000000000000000000000000000000000000000000000000000600052601160045260246000fd5b6000612db582612946565b9150612dc083612946565b9250827fffffffffffffffffffffffffffffffffffffffffffffffffffffffffffffffff03821115612df557612df4612d7b565b5b828201905092915050565b7f564c46493a494e53554646494349454e545f434f4f4c444f574e000000000000600082015250565b6000612e36601a83612833565b9150612e4182612e00565b602082019050919050565b60006020820190508181036000830152612e6581612e29565b9050919050565b6000612e7782612946565b9150612e8283612946565b925082821015612e9557612e94612d7b565b5b828203905092915050565b7f564c46493a554e5354414b455f57494e444f575f46494e495348454400000000600082015250565b6000612ed6601c83612833565b9150612ee182612ea0565b602082019050919050565b60006020820190508181036000830152612f0581612ec9565b9050919050565b6000612f1782612946565b9150612f2283612946565b9250817fffffffffffffffffffffffffffffffffffffffffffffffffffffffffffffffff0483118215151615612f5b57612f5a612d7b565b5b828202905092915050565b7f4e487b7100000000000000000000000000000000000000000000000000000000600052601260045260246000fd5b6000612fa082612946565b9150612fab83612946565b925082612fbb57612fba612f66565b5b828204905092915050565b6000612fd182612b7a565b9150612fdc83612b7a565b9250827f80000000000000000000000000000000000000000000000000000000000000000182126000841215161561301757613016612d7b565b5b827f7fffffffffffffffffffffffffffffffffffffffffffffffffffffffffffffff01821360008412161561304f5761304e612d7b565b5b828203905092915050565b7f45524332303a207472616e7366657220616d6f756e742065786365656473206160008201527f6c6c6f77616e6365000000000000000000000000000000000000000000000000602082015250565b60006130b6602883612833565b91506130c18261305a565b604082019050919050565b600060208201905081810360008301526130e5816130a9565b9050919050565b7f564c46493a494e56414c49445f42414c414e43455f4f4e5f434f4f4c444f574e600082015250565b6000613122602083612833565b915061312d826130ec565b602082019050919050565b6000602082019050818103600083015261315181613115565b9050919050565b7f45524332303a2064656372656173656420616c6c6f77616e63652062656c6f7760008201527f207a65726f000000000000000000000000000000000000000000000000000000602082015250565b60006131b4602583612833565b91506131bf82613158565b604082019050919050565b600060208201905081810360008301526131e3816131a7565b9050919050565b7f564c46493a20494e56414c4944205452414e5346455200000000000000000000600082015250565b6000613220601683612833565b915061322b826131ea565b602082019050919050565b6000602082019050818103600083015261324f81613213565b9050919050565b600061326182612b7a565b915061326c83612b7a565b9250817f7fffffffffffffffffffffffffffffffffffffffffffffffffffffffffffffff038313600083121516156132a7576132a6612d7b565b5b817f80000000000000000000000000000000000000000000000000000000000000000383126000831216156132df576132de612d7b565b5b828201905092915050565b6132f381612908565b82525050565b600060408201905061330e60008301856132ea565b61331b60208301846129f2565b9392505050565b61332b816129bc565b811461333657600080fd5b50565b60008151905061334881613322565b92915050565b600060208284031215613364576133636128e3565b5b600061337284828501613339565b91505092915050565b7f45524332303a20617070726f76652066726f6d20746865207a65726f2061646460008201527f7265737300000000000000000000000000000000000000000000000000000000602082015250565b60006133d7602483612833565b91506133e28261337b565b604082019050919050565b60006020820190508181036000830152613406816133ca565b9050919050565b7f45524332303a20617070726f766520746f20746865207a65726f20616464726560008201527f7373000000000000000000000000000000000000000000000000000000000000602082015250565b6000613469602283612833565b91506134748261340d565b604082019050919050565b600060208201905081810360008301526134988161345c565b9050919050565b7f45524332303a206275726e2066726f6d20746865207a65726f2061646472657360008201527f7300000000000000000000000000000000000000000000000000000000000000602082015250565b60006134fb602183612833565b91506135068261349f565b604082019050919050565b6000602082019050818103600083015261352a816134ee565b9050919050565b7f45524332303a206275726e20616d6f756e7420657863656564732062616c616e60008201527f6365000000000000000000000000000000000000000000000000000000000000602082015250565b600061358d602283612833565b915061359882613531565b604082019050919050565b600060208201905081810360008301526135bc81613580565b9050919050565b7f45524332303a207472616e736665722066726f6d20746865207a65726f20616460008201527f6472657373000000000000000000000000000000000000000000000000000000602082015250565b600061361f602583612833565b915061362a826135c3565b604082019050919050565b6000602082019050818103600083015261364e81613612565b9050919050565b7f45524332303a207472616e7366657220746f20746865207a65726f206164647260008201527f6573730000000000000000000000000000000000000000000000000000000000602082015250565b60006136b1602383612833565b91506136bc82613655565b604082019050919050565b600060208201905081810360008301526136e0816136a4565b9050919050565b7f45524332303a207472616e7366657220616d6f756e742065786365656473206260008201527f616c616e63650000000000000000000000000000000000000000000000000000602082015250565b6000613743602683612833565b915061374e826136e7565b604082019050919050565b6000602082019050818103600083015261377281613736565b9050919050565b7f45524332303a206d696e7420746f20746865207a65726f206164647265737300600082015250565b60006137af601f83612833565b91506137ba82613779565b602082019050919050565b600060208201905081810360008301526137de816137a2565b9050919050565b60006060820190506137fa60008301866132ea565b61380760208301856132ea565b61381460408301846129f2565b949350505050565b7f5361666545524332303a204552433230206f7065726174696f6e20646964206e60008201527f6f74207375636365656400000000000000000000000000000000000000000000602082015250565b6000613878602a83612833565b91506138838261381c565b604082019050919050565b600060208201905081810360008301526138a78161386b565b9050919050565b7f416464726573733a20696e73756666696369656e742062616c616e636520666f60008201527f722063616c6c0000000000000000000000000000000000000000000000000000602082015250565b600061390a602683612833565b9150613915826138ae565b604082019050919050565b60006020820190508181036000830152613939816138fd565b9050919050565b7f416464726573733a2063616c6c20746f206e6f6e2d636f6e7472616374000000600082015250565b6000613976601d83612833565b915061398182613940565b602082019050919050565b600060208201905081810360008301526139a581613969565b9050919050565b600081519050919050565b600081905092915050565b60006139cd826139ac565b6139d781856139b7565b93506139e7818560208601612844565b80840191505092915050565b60006139ff82846139c2565b91508190509291505056fea2646970667358221220db1a29358a3c3570eb224bd62da664ca69f459da4e75dc7702830c03c00c947164736f6c634300080a0033",
  "linkReferences": {},
  "deployedLinkReferences": {}
}