{
  "_format": "hh-sol-artifact-1",
  "contractName": "VLFI",
  "sourceName": "contracts/VLFI.sol",
  "abi": [
    {
      "anonymous": false,
      "inputs": [
        {
          "indexed": true,
          "internalType": "address",
          "name": "owner",
          "type": "address"
        },
        {
          "indexed": true,
          "internalType": "address",
          "name": "spender",
          "type": "address"
        },
        {
          "indexed": false,
          "internalType": "uint256",
          "name": "value",
          "type": "uint256"
        }
      ],
      "name": "Approval",
      "type": "event"
    },
    {
      "anonymous": false,
      "inputs": [
        {
          "indexed": true,
          "internalType": "address",
          "name": "user",
          "type": "address"
        }
      ],
      "name": "CooldownActivated",
      "type": "event"
    },
    {
      "anonymous": false,
      "inputs": [
        {
          "indexed": true,
          "internalType": "address",
          "name": "delegator",
          "type": "address"
        },
        {
          "indexed": true,
          "internalType": "address",
          "name": "fromDelegate",
          "type": "address"
        },
        {
          "indexed": true,
          "internalType": "address",
          "name": "toDelegate",
          "type": "address"
        }
      ],
      "name": "DelegateChanged",
      "type": "event"
    },
    {
      "anonymous": false,
      "inputs": [
        {
          "indexed": true,
          "internalType": "address",
          "name": "delegate",
          "type": "address"
        },
        {
          "indexed": false,
          "internalType": "uint256",
          "name": "previousBalance",
          "type": "uint256"
        },
        {
          "indexed": false,
          "internalType": "uint256",
          "name": "newBalance",
          "type": "uint256"
        }
      ],
      "name": "DelegateVotesChanged",
      "type": "event"
    },
    {
      "anonymous": false,
      "inputs": [
        {
          "indexed": true,
          "internalType": "address",
          "name": "from",
          "type": "address"
        },
        {
          "indexed": true,
          "internalType": "address",
          "name": "to",
          "type": "address"
        },
        {
          "indexed": false,
          "internalType": "uint256",
          "name": "amount",
          "type": "uint256"
        }
      ],
      "name": "RewardsClaimed",
      "type": "event"
    },
    {
      "anonymous": false,
      "inputs": [
        {
          "indexed": true,
          "internalType": "bytes32",
          "name": "role",
          "type": "bytes32"
        },
        {
          "indexed": true,
          "internalType": "bytes32",
          "name": "previousAdminRole",
          "type": "bytes32"
        },
        {
          "indexed": true,
          "internalType": "bytes32",
          "name": "newAdminRole",
          "type": "bytes32"
        }
      ],
      "name": "RoleAdminChanged",
      "type": "event"
    },
    {
      "anonymous": false,
      "inputs": [
        {
          "indexed": true,
          "internalType": "bytes32",
          "name": "role",
          "type": "bytes32"
        },
        {
          "indexed": true,
          "internalType": "address",
          "name": "account",
          "type": "address"
        },
        {
          "indexed": true,
          "internalType": "address",
          "name": "sender",
          "type": "address"
        }
      ],
      "name": "RoleGranted",
      "type": "event"
    },
    {
      "anonymous": false,
      "inputs": [
        {
          "indexed": true,
          "internalType": "bytes32",
          "name": "role",
          "type": "bytes32"
        },
        {
          "indexed": true,
          "internalType": "address",
          "name": "account",
          "type": "address"
        },
        {
          "indexed": true,
          "internalType": "address",
          "name": "sender",
          "type": "address"
        }
      ],
      "name": "RoleRevoked",
      "type": "event"
    },
    {
      "anonymous": false,
      "inputs": [
        {
          "indexed": true,
          "internalType": "address",
          "name": "from",
          "type": "address"
        },
        {
          "indexed": true,
          "internalType": "address",
          "name": "onBehalfOf",
          "type": "address"
        },
        {
          "indexed": false,
          "internalType": "uint256",
          "name": "amount",
          "type": "uint256"
        }
      ],
      "name": "Staked",
      "type": "event"
    },
    {
      "anonymous": false,
      "inputs": [
        {
          "indexed": true,
          "internalType": "address",
          "name": "from",
          "type": "address"
        },
        {
          "indexed": true,
          "internalType": "address",
          "name": "to",
          "type": "address"
        },
        {
          "indexed": false,
          "internalType": "uint256",
          "name": "value",
          "type": "uint256"
        }
      ],
      "name": "Transfer",
      "type": "event"
    },
    {
      "anonymous": false,
      "inputs": [
        {
          "indexed": true,
          "internalType": "address",
          "name": "from",
          "type": "address"
        },
        {
          "indexed": true,
          "internalType": "address",
          "name": "to",
          "type": "address"
        },
        {
          "indexed": false,
          "internalType": "uint256",
          "name": "amount",
          "type": "uint256"
        }
      ],
      "name": "UnStaked",
      "type": "event"
    },
    {
      "inputs": [],
      "name": "DEFAULT_ADMIN_ROLE",
      "outputs": [
        {
          "internalType": "bytes32",
          "name": "",
          "type": "bytes32"
        }
      ],
      "stateMutability": "view",
      "type": "function"
    },
    {
      "inputs": [],
      "name": "DOMAIN_SEPARATOR",
      "outputs": [
        {
          "internalType": "bytes32",
          "name": "",
          "type": "bytes32"
        }
      ],
      "stateMutability": "view",
      "type": "function"
    },
    {
      "inputs": [],
      "name": "MANAGER_ROLE",
      "outputs": [
        {
          "internalType": "bytes32",
          "name": "",
          "type": "bytes32"
        }
      ],
      "stateMutability": "view",
      "type": "function"
    },
    {
      "inputs": [],
      "name": "STAKED_TOKEN",
      "outputs": [
        {
          "internalType": "contract IERC20Upgradeable",
          "name": "",
          "type": "address"
        }
      ],
      "stateMutability": "view",
      "type": "function"
    },
    {
      "inputs": [],
      "name": "activateCooldown",
      "outputs": [],
      "stateMutability": "nonpayable",
      "type": "function"
    },
    {
      "inputs": [
        {
          "internalType": "address",
          "name": "owner",
          "type": "address"
        },
        {
          "internalType": "address",
          "name": "spender",
          "type": "address"
        }
      ],
      "name": "allowance",
      "outputs": [
        {
          "internalType": "uint256",
          "name": "",
          "type": "uint256"
        }
      ],
      "stateMutability": "view",
      "type": "function"
    },
    {
      "inputs": [
        {
          "internalType": "address",
          "name": "spender",
          "type": "address"
        },
        {
          "internalType": "uint256",
          "name": "amount",
          "type": "uint256"
        }
      ],
      "name": "approve",
      "outputs": [
        {
          "internalType": "bool",
          "name": "",
          "type": "bool"
        }
      ],
      "stateMutability": "nonpayable",
      "type": "function"
    },
    {
      "inputs": [
        {
          "internalType": "address",
          "name": "account",
          "type": "address"
        }
      ],
      "name": "balanceOf",
      "outputs": [
        {
          "internalType": "uint256",
          "name": "",
          "type": "uint256"
        }
      ],
      "stateMutability": "view",
      "type": "function"
    },
    {
      "inputs": [
        {
          "internalType": "address",
          "name": "account",
          "type": "address"
        },
        {
          "internalType": "uint32",
          "name": "pos",
          "type": "uint32"
        }
      ],
      "name": "checkpoints",
      "outputs": [
        {
          "components": [
            {
              "internalType": "uint32",
              "name": "fromBlock",
              "type": "uint32"
            },
            {
              "internalType": "uint224",
              "name": "votes",
              "type": "uint224"
            }
          ],
          "internalType": "struct ERC20VotesUpgradeable.Checkpoint",
          "name": "",
          "type": "tuple"
        }
      ],
      "stateMutability": "view",
      "type": "function"
    },
    {
      "inputs": [
        {
          "internalType": "address",
          "name": "to",
          "type": "address"
        }
      ],
      "name": "claimRewards",
      "outputs": [],
      "stateMutability": "nonpayable",
      "type": "function"
    },
    {
      "inputs": [],
      "name": "createFarm",
      "outputs": [],
      "stateMutability": "nonpayable",
      "type": "function"
    },
    {
      "inputs": [],
      "name": "decimals",
      "outputs": [
        {
          "internalType": "uint8",
          "name": "",
          "type": "uint8"
        }
      ],
      "stateMutability": "view",
      "type": "function"
    },
    {
      "inputs": [
        {
          "internalType": "address",
          "name": "spender",
          "type": "address"
        },
        {
          "internalType": "uint256",
          "name": "subtractedValue",
          "type": "uint256"
        }
      ],
      "name": "decreaseAllowance",
      "outputs": [
        {
          "internalType": "bool",
          "name": "",
          "type": "bool"
        }
      ],
      "stateMutability": "nonpayable",
      "type": "function"
    },
    {
      "inputs": [
        {
          "internalType": "address",
          "name": "delegatee",
          "type": "address"
        }
      ],
      "name": "delegate",
      "outputs": [],
      "stateMutability": "nonpayable",
      "type": "function"
    },
    {
      "inputs": [
        {
          "internalType": "address",
          "name": "delegatee",
          "type": "address"
        },
        {
          "internalType": "uint256",
          "name": "nonce",
          "type": "uint256"
        },
        {
          "internalType": "uint256",
          "name": "expiry",
          "type": "uint256"
        },
        {
          "internalType": "uint8",
          "name": "v",
          "type": "uint8"
        },
        {
          "internalType": "bytes32",
          "name": "r",
          "type": "bytes32"
        },
        {
          "internalType": "bytes32",
          "name": "s",
          "type": "bytes32"
        }
      ],
      "name": "delegateBySig",
      "outputs": [],
      "stateMutability": "nonpayable",
      "type": "function"
    },
    {
      "inputs": [
        {
          "internalType": "address",
          "name": "account",
          "type": "address"
        }
      ],
      "name": "delegates",
      "outputs": [
        {
          "internalType": "address",
          "name": "",
          "type": "address"
        }
      ],
      "stateMutability": "view",
      "type": "function"
    },
    {
      "inputs": [],
      "name": "getAccRewardPerShare",
      "outputs": [
        {
          "internalType": "uint256",
          "name": "",
          "type": "uint256"
        }
      ],
      "stateMutability": "view",
      "type": "function"
    },
    {
      "inputs": [
        {
          "internalType": "address",
          "name": "staker",
          "type": "address"
        }
      ],
      "name": "getCooldown",
      "outputs": [
        {
          "internalType": "uint256",
          "name": "",
          "type": "uint256"
        }
      ],
      "stateMutability": "view",
      "type": "function"
    },
    {
      "inputs": [],
      "name": "getCooldownSeconds",
      "outputs": [
        {
          "internalType": "uint256",
          "name": "",
          "type": "uint256"
        }
      ],
      "stateMutability": "view",
      "type": "function"
    },
    {
      "inputs": [],
      "name": "getLastRewardTime",
      "outputs": [
        {
          "internalType": "uint256",
          "name": "",
          "type": "uint256"
        }
      ],
      "stateMutability": "view",
      "type": "function"
    },
    {
      "inputs": [],
      "name": "getLiquidityStatus",
      "outputs": [
        {
          "internalType": "uint256",
          "name": "",
          "type": "uint256"
        }
      ],
      "stateMutability": "view",
      "type": "function"
    },
    {
      "inputs": [
        {
          "internalType": "uint256",
          "name": "userCooldownTimestamp",
          "type": "uint256"
        },
        {
          "internalType": "uint256",
          "name": "amountToReceive",
          "type": "uint256"
        },
        {
          "internalType": "address",
          "name": "toAddress",
          "type": "address"
        },
        {
          "internalType": "uint256",
          "name": "toBalance",
          "type": "uint256"
        }
      ],
      "name": "getNextCooldownTimestamp",
      "outputs": [
        {
          "internalType": "uint256",
          "name": "",
          "type": "uint256"
        }
      ],
      "stateMutability": "view",
      "type": "function"
    },
    {
      "inputs": [
        {
          "internalType": "uint256",
          "name": "blockNumber",
          "type": "uint256"
        }
      ],
      "name": "getPastTotalSupply",
      "outputs": [
        {
          "internalType": "uint256",
          "name": "",
          "type": "uint256"
        }
      ],
      "stateMutability": "view",
      "type": "function"
    },
    {
      "inputs": [
        {
          "internalType": "address",
          "name": "account",
          "type": "address"
        },
        {
          "internalType": "uint256",
          "name": "blockNumber",
          "type": "uint256"
        }
      ],
      "name": "getPastVotes",
      "outputs": [
        {
          "internalType": "uint256",
          "name": "",
          "type": "uint256"
        }
      ],
      "stateMutability": "view",
      "type": "function"
    },
    {
      "inputs": [],
      "name": "getRewardPerSecond",
      "outputs": [
        {
          "internalType": "uint256",
          "name": "",
          "type": "uint256"
        }
      ],
      "stateMutability": "view",
      "type": "function"
    },
    {
      "inputs": [
        {
          "internalType": "address",
          "name": "benefitor",
          "type": "address"
        }
      ],
      "name": "getRewards",
      "outputs": [
        {
          "internalType": "uint256",
          "name": "pendingRewards",
          "type": "uint256"
        }
      ],
      "stateMutability": "view",
      "type": "function"
    },
    {
      "inputs": [
        {
          "internalType": "bytes32",
          "name": "role",
          "type": "bytes32"
        }
      ],
      "name": "getRoleAdmin",
      "outputs": [
        {
          "internalType": "bytes32",
          "name": "",
          "type": "bytes32"
        }
      ],
      "stateMutability": "view",
      "type": "function"
    },
    {
      "inputs": [],
      "name": "getUnstakeWindowTime",
      "outputs": [
        {
          "internalType": "uint256",
          "name": "",
          "type": "uint256"
        }
      ],
      "stateMutability": "view",
      "type": "function"
    },
    {
      "inputs": [
        {
          "internalType": "address",
          "name": "user",
          "type": "address"
        }
      ],
      "name": "getUserLFIDeposits",
      "outputs": [
        {
          "internalType": "uint256",
          "name": "",
          "type": "uint256"
        }
      ],
      "stateMutability": "view",
      "type": "function"
    },
    {
      "inputs": [
        {
          "internalType": "address",
          "name": "benefitor",
          "type": "address"
        }
      ],
      "name": "getUserRewardDebt",
      "outputs": [
        {
          "internalType": "int256",
          "name": "",
          "type": "int256"
        }
      ],
      "stateMutability": "view",
      "type": "function"
    },
    {
      "inputs": [
        {
          "internalType": "address",
          "name": "benefitor",
          "type": "address"
        }
      ],
      "name": "getUserVLFIAmount",
      "outputs": [
        {
          "internalType": "uint256",
          "name": "",
          "type": "uint256"
        }
      ],
      "stateMutability": "view",
      "type": "function"
    },
    {
      "inputs": [
        {
          "internalType": "address",
          "name": "account",
          "type": "address"
        }
      ],
      "name": "getVotes",
      "outputs": [
        {
          "internalType": "uint256",
          "name": "",
          "type": "uint256"
        }
      ],
      "stateMutability": "view",
      "type": "function"
    },
    {
      "inputs": [
        {
          "internalType": "bytes32",
          "name": "role",
          "type": "bytes32"
        },
        {
          "internalType": "address",
          "name": "account",
          "type": "address"
        }
      ],
      "name": "grantRole",
      "outputs": [],
      "stateMutability": "nonpayable",
      "type": "function"
    },
    {
      "inputs": [
        {
          "internalType": "bytes32",
          "name": "role",
          "type": "bytes32"
        },
        {
          "internalType": "address",
          "name": "account",
          "type": "address"
        }
      ],
      "name": "hasRole",
      "outputs": [
        {
          "internalType": "bool",
          "name": "",
          "type": "bool"
        }
      ],
      "stateMutability": "view",
      "type": "function"
    },
    {
      "inputs": [
        {
          "internalType": "address",
          "name": "spender",
          "type": "address"
        },
        {
          "internalType": "uint256",
          "name": "addedValue",
          "type": "uint256"
        }
      ],
      "name": "increaseAllowance",
      "outputs": [
        {
          "internalType": "bool",
          "name": "",
          "type": "bool"
        }
      ],
      "stateMutability": "nonpayable",
      "type": "function"
    },
    {
      "inputs": [
        {
          "internalType": "string",
          "name": "name",
          "type": "string"
        },
        {
          "internalType": "string",
          "name": "symbol",
          "type": "string"
        },
        {
          "internalType": "contract IERC20Upgradeable",
          "name": "stakedToken",
          "type": "address"
        },
        {
          "internalType": "uint256",
          "name": "cooldownSeconds",
          "type": "uint256"
        },
        {
          "internalType": "uint256",
          "name": "unstakeWindow",
          "type": "uint256"
        },
        {
          "internalType": "uint256",
          "name": "rewardsPerSecond",
          "type": "uint256"
        },
        {
          "internalType": "uint256",
          "name": "treasuryWithdrawlPercentage",
          "type": "uint256"
        }
      ],
      "name": "initialize",
      "outputs": [],
      "stateMutability": "nonpayable",
      "type": "function"
    },
    {
      "inputs": [],
      "name": "maxTreasuryWithdrawalPercentage",
      "outputs": [
        {
          "internalType": "uint256",
          "name": "",
          "type": "uint256"
        }
      ],
      "stateMutability": "view",
      "type": "function"
    },
    {
      "inputs": [],
      "name": "name",
      "outputs": [
        {
          "internalType": "string",
          "name": "",
          "type": "string"
        }
      ],
      "stateMutability": "view",
      "type": "function"
    },
    {
      "inputs": [
        {
          "internalType": "address",
          "name": "owner",
          "type": "address"
        }
      ],
      "name": "nonces",
      "outputs": [
        {
          "internalType": "uint256",
          "name": "",
          "type": "uint256"
        }
      ],
      "stateMutability": "view",
      "type": "function"
    },
    {
      "inputs": [
        {
          "internalType": "address",
          "name": "account",
          "type": "address"
        }
      ],
      "name": "numCheckpoints",
      "outputs": [
        {
          "internalType": "uint32",
          "name": "",
          "type": "uint32"
        }
      ],
      "stateMutability": "view",
      "type": "function"
    },
    {
      "inputs": [
        {
          "internalType": "address",
          "name": "owner",
          "type": "address"
        },
        {
          "internalType": "address",
          "name": "spender",
          "type": "address"
        },
        {
          "internalType": "uint256",
          "name": "value",
          "type": "uint256"
        },
        {
          "internalType": "uint256",
          "name": "deadline",
          "type": "uint256"
        },
        {
          "internalType": "uint8",
          "name": "v",
          "type": "uint8"
        },
        {
          "internalType": "bytes32",
          "name": "r",
          "type": "bytes32"
        },
        {
          "internalType": "bytes32",
          "name": "s",
          "type": "bytes32"
        }
      ],
      "name": "permit",
      "outputs": [],
      "stateMutability": "nonpayable",
      "type": "function"
    },
    {
      "inputs": [
        {
          "internalType": "address",
          "name": "owner",
          "type": "address"
        },
        {
          "internalType": "address",
          "name": "spender",
          "type": "address"
        },
        {
          "internalType": "uint256",
          "name": "value",
          "type": "uint256"
        },
        {
          "internalType": "uint256",
          "name": "deadline",
          "type": "uint256"
        },
        {
          "internalType": "uint8",
          "name": "v",
          "type": "uint8"
        },
        {
          "internalType": "bytes32",
          "name": "r",
          "type": "bytes32"
        },
        {
          "internalType": "bytes32",
          "name": "s",
          "type": "bytes32"
        },
        {
          "internalType": "address",
          "name": "onBehalfOf",
          "type": "address"
        },
        {
          "internalType": "uint256",
          "name": "LFIamount",
          "type": "uint256"
        }
      ],
      "name": "permitAndStake",
      "outputs": [],
      "stateMutability": "nonpayable",
      "type": "function"
    },
    {
      "inputs": [
        {
          "internalType": "bytes32",
          "name": "role",
          "type": "bytes32"
        },
        {
          "internalType": "address",
          "name": "account",
          "type": "address"
        }
      ],
      "name": "renounceRole",
      "outputs": [],
      "stateMutability": "nonpayable",
      "type": "function"
    },
    {
      "inputs": [
        {
          "internalType": "bytes32",
          "name": "role",
          "type": "bytes32"
        },
        {
          "internalType": "address",
          "name": "account",
          "type": "address"
        }
      ],
      "name": "revokeRole",
      "outputs": [],
      "stateMutability": "nonpayable",
      "type": "function"
    },
    {
      "inputs": [
        {
          "internalType": "uint256",
          "name": "coolDownSeconds",
          "type": "uint256"
        }
      ],
      "name": "setCooldownSeconds",
      "outputs": [],
      "stateMutability": "nonpayable",
      "type": "function"
    },
    {
      "inputs": [
        {
          "internalType": "uint256",
          "name": "percentage",
          "type": "uint256"
        }
      ],
      "name": "setMaxTreasuryWithdrawalPercentage",
      "outputs": [],
      "stateMutability": "nonpayable",
      "type": "function"
    },
    {
      "inputs": [
        {
          "internalType": "uint256",
          "name": "_rewardPerSecond",
          "type": "uint256"
        }
      ],
      "name": "setRewardPerSecond",
      "outputs": [],
      "stateMutability": "nonpayable",
      "type": "function"
    },
    {
      "inputs": [
        {
          "internalType": "uint256",
          "name": "unstakeWindow",
          "type": "uint256"
        }
      ],
      "name": "setUnstakeWindowTime",
      "outputs": [],
      "stateMutability": "nonpayable",
      "type": "function"
    },
    {
      "inputs": [
        {
          "internalType": "address",
          "name": "onBehalfOf",
          "type": "address"
        },
        {
          "internalType": "uint256",
          "name": "amount",
          "type": "uint256"
        }
      ],
      "name": "stake",
      "outputs": [],
      "stateMutability": "nonpayable",
      "type": "function"
    },
    {
      "inputs": [
        {
          "internalType": "bytes4",
          "name": "interfaceId",
          "type": "bytes4"
        }
      ],
      "name": "supportsInterface",
      "outputs": [
        {
          "internalType": "bool",
          "name": "",
          "type": "bool"
        }
      ],
      "stateMutability": "view",
      "type": "function"
    },
    {
      "inputs": [],
      "name": "symbol",
      "outputs": [
        {
          "internalType": "string",
          "name": "",
          "type": "string"
        }
      ],
      "stateMutability": "view",
      "type": "function"
    },
    {
      "inputs": [],
      "name": "totalSupply",
      "outputs": [
        {
          "internalType": "uint256",
          "name": "",
          "type": "uint256"
        }
      ],
      "stateMutability": "view",
      "type": "function"
    },
    {
      "inputs": [
        {
          "internalType": "address",
          "name": "to",
          "type": "address"
        },
        {
          "internalType": "uint256",
          "name": "amount",
          "type": "uint256"
        }
      ],
      "name": "transfer",
      "outputs": [
        {
          "internalType": "bool",
          "name": "",
          "type": "bool"
        }
      ],
      "stateMutability": "nonpayable",
      "type": "function"
    },
    {
      "inputs": [
        {
          "internalType": "address",
          "name": "from",
          "type": "address"
        },
        {
          "internalType": "address",
          "name": "to",
          "type": "address"
        },
        {
          "internalType": "uint256",
          "name": "amount",
          "type": "uint256"
        }
      ],
      "name": "transferFrom",
      "outputs": [
        {
          "internalType": "bool",
          "name": "",
          "type": "bool"
        }
      ],
      "stateMutability": "nonpayable",
      "type": "function"
    },
    {
      "inputs": [
        {
          "internalType": "address",
          "name": "to",
          "type": "address"
        },
        {
          "internalType": "uint256",
          "name": "treasuryWithdrawl",
          "type": "uint256"
        }
      ],
      "name": "transferToTreasury",
      "outputs": [],
      "stateMutability": "nonpayable",
      "type": "function"
    },
    {
      "inputs": [
        {
          "internalType": "address",
          "name": "to",
          "type": "address"
        },
        {
          "internalType": "uint256",
          "name": "amount",
          "type": "uint256"
        }
      ],
      "name": "unStake",
      "outputs": [],
      "stateMutability": "nonpayable",
      "type": "function"
    },
    {
      "inputs": [],
      "name": "updateFarm",
      "outputs": [
        {
          "components": [
            {
              "internalType": "uint256",
              "name": "accRewardsPerShare",
              "type": "uint256"
            },
            {
              "internalType": "uint256",
              "name": "lastRewardTime",
              "type": "uint256"
            }
          ],
          "internalType": "struct VLFI.FarmInfo",
          "name": "farm",
          "type": "tuple"
        }
      ],
      "stateMutability": "nonpayable",
      "type": "function"
    },
    {
      "inputs": [],
      "name": "updateRewardsToClaim",
      "outputs": [],
      "stateMutability": "nonpayable",
      "type": "function"
    }
  ],
  "bytecode": "0x60806040526012600a620000149190620001c8565b6103e862000023919062000219565b610166553480156200003457600080fd5b506200027a565b7f4e487b7100000000000000000000000000000000000000000000000000000000600052601160045260246000fd5b60008160011c9050919050565b6000808291508390505b6001851115620000c957808604811115620000a157620000a06200003b565b5b6001851615620000b15780820291505b8081029050620000c1856200006a565b945062000081565b94509492505050565b600082620000e45760019050620001b7565b81620000f45760009050620001b7565b81600181146200010d576002811462000118576200014e565b6001915050620001b7565b60ff8411156200012d576200012c6200003b565b5b8360020a9150848211156200014757620001466200003b565b5b50620001b7565b5060208310610133831016604e8410600b8410161715620001885782820a9050838111156200018257620001816200003b565b5b620001b7565b62000197848484600162000077565b92509050818404811115620001b157620001b06200003b565b5b81810290505b9392505050565b6000819050919050565b6000620001d582620001be565b9150620001e283620001be565b9250620002117fffffffffffffffffffffffffffffffffffffffffffffffffffffffffffffffff8484620000d2565b905092915050565b60006200022682620001be565b91506200023383620001be565b9250817fffffffffffffffffffffffffffffffffffffffffffffffffffffffffffffffff04831182151516156200026f576200026e6200003b565b5b828202905092915050565b617363806200028a6000396000f3fe608060405234801561001057600080fd5b506004361061038e5760003560e01c806379ee54f7116101de578063adc9772e1161010f578063d9393814116100ad578063ef5cfb8c1161007c578063ef5cfb8c14610b07578063f1127ed814610b23578063f1cc432a14610b53578063f54ca63c14610b835761038e565b8063d939381414610a7f578063da5b4ee714610a9b578063dd62ed3e14610ab9578063ec87621c14610ae95761038e565b8063d505accf116100e9578063d505accf14610a0d578063d547741f14610a29578063d876246f14610a45578063d92aec5914610a635761038e565b8063adc9772e146109a5578063c3cda520146109c1578063c61fbcc5146109dd5761038e565b80639a00a6a31161017c578063a217fddf11610156578063a217fddf1461090b578063a457c2d714610929578063a9059cbb14610959578063ad88918f146109895761038e565b80639a00a6a31461088f5780639ab24eb0146108bf5780639dd267e6146108ef5761038e565b80637ecebe00116101b85780637ecebe00146107e15780638e539e8c1461081157806391d148541461084157806395d89b41146108715761038e565b806379ee54f7146107795780637a45c441146107a95780637b5b1157146107c55761038e565b806339509351116102c35780635ac3ce12116102615780636c07d9fe116102305780636c07d9fe146106cb5780636fcfff45146106e957806370a0823114610719578063733d07be146107495761038e565b80635ac3ce12146106595780635c19a95c14610675578063616e0bf91461069157806366da5815146106af5761038e565b80633c0717fd1161029d5780633c0717fd146105e35780633e340dae146106015780634853b3b21461061f578063587cde1e146106295761038e565b8063395093511461055357806339b84ecf146105835780633a46b1a8146105b35761038e565b806323b872dd11610330578063312f6b831161030a578063312f6b83146104dd578063313ce567146104fb5780633644e5151461051957806336568abe146105375761038e565b806323b872dd14610461578063248a9ca3146104915780632f2ff15d146104c15761038e565b80630e5b47bc1161036c5780630e5b47bc1461041157806318160ddd1461041b5780631d5ec3cb146104395780631f477ea9146104435761038e565b806301ffc9a71461039357806306fdde03146103c3578063095ea7b3146103e1575b600080fd5b6103ad60048036038101906103a89190614f52565b610ba1565b6040516103ba9190614f9a565b60405180910390f35b6103cb610c1b565b6040516103d8919061504e565b60405180910390f35b6103fb60048036038101906103f69190615104565b610cad565b6040516104089190614f9a565b60405180910390f35b610419610cd0565b005b610423610d1a565b6040516104309190615153565b60405180910390f35b610441610d24565b005b61044b610d89565b6040516104589190615153565b60405180910390f35b61047b6004803603810190610476919061516e565b610d94565b6040516104889190614f9a565b60405180910390f35b6104ab60048036038101906104a691906151f7565b610dc3565b6040516104b89190615233565b60405180910390f35b6104db60048036038101906104d6919061524e565b610de3565b005b6104e5610e0c565b6040516104f291906152ed565b60405180910390f35b610503610e33565b6040516105109190615324565b60405180910390f35b610521610e3c565b60405161052e9190615233565b60405180910390f35b610551600480360381019061054c919061524e565b610e4b565b005b61056d60048036038101906105689190615104565b610ece565b60405161057a9190614f9a565b60405180910390f35b61059d6004803603810190610598919061533f565b610f78565b6040516105aa9190615153565b60405180910390f35b6105cd60048036038101906105c89190615104565b610fc2565b6040516105da9190615153565b60405180910390f35b6105eb611057565b6040516105f89190615153565b60405180910390f35b610609611062565b6040516106169190615153565b60405180910390f35b610627611070565b005b610643600480360381019061063e919061533f565b611146565b604051610650919061537b565b60405180910390f35b610673600480360381019061066e9190615396565b6111b0565b005b61068f600480360381019061068a919061533f565b6111ee565b005b610699611202565b6040516106a69190615153565b60405180910390f35b6106c960048036038101906106c49190615396565b61120d565b005b6106d361122e565b6040516106e09190615153565b60405180910390f35b61070360048036038101906106fe919061533f565b61123c565b60405161071091906153e2565b60405180910390f35b610733600480360381019061072e919061533f565b611291565b6040516107409190615153565b60405180910390f35b610763600480360381019061075e919061533f565b6112da565b6040516107709190615153565b60405180910390f35b610793600480360381019061078e919061533f565b611327565b6040516107a09190615153565b60405180910390f35b6107c360048036038101906107be9190615570565b611453565b005b6107df60048036038101906107da9190615396565b6115f3565b005b6107fb60048036038101906107f6919061533f565b611631565b6040516108089190615153565b60405180910390f35b61082b60048036038101906108269190615396565b611681565b6040516108389190615153565b60405180910390f35b61085b6004803603810190610856919061524e565b6116d8565b6040516108689190614f9a565b60405180910390f35b610879611743565b604051610886919061504e565b60405180910390f35b6108a960048036038101906108a4919061533f565b6117d5565b6040516108b69190615153565b60405180910390f35b6108d960048036038101906108d4919061533f565b61181f565b6040516108e69190615153565b60405180910390f35b61090960048036038101906109049190615104565b611932565b005b6109136119e8565b6040516109209190615233565b60405180910390f35b610943600480360381019061093e9190615104565b6119ef565b6040516109509190614f9a565b60405180910390f35b610973600480360381019061096e9190615104565b611ad9565b6040516109809190614f9a565b60405180910390f35b6109a3600480360381019061099e9190615396565b611afc565b005b6109bf60048036038101906109ba9190615104565b611b3a565b005b6109db60048036038101906109d69190615676565b611e1e565b005b6109f760048036038101906109f2919061533f565b611f22565b604051610a04919061571c565b60405180910390f35b610a276004803603810190610a229190615737565b611f6f565b005b610a436004803603810190610a3e919061524e565b612093565b005b610a4d6120bc565b604051610a5a9190615153565b60405180910390f35b610a7d6004803603810190610a7891906157d9565b6120c3565b005b610a996004803603810190610a949190615104565b61214a565b005b610aa36125f4565b604051610ab09190615153565b60405180910390f35b610ad36004803603810190610ace91906158a3565b6125ff565b604051610ae09190615153565b60405180910390f35b610af1612686565b604051610afe9190615233565b60405180910390f35b610b216004803603810190610b1c919061533f565b6126aa565b005b610b3d6004803603810190610b38919061590f565b6127fc565b604051610b4a91906159c4565b60405180910390f35b610b6d6004803603810190610b6891906159df565b61290d565b604051610b7a9190615153565b60405180910390f35b610b8b612a08565b604051610b989190615a84565b60405180910390f35b60007f7965db0b000000000000000000000000000000000000000000000000000000007bffffffffffffffffffffffffffffffffffffffffffffffffffffffff1916827bffffffffffffffffffffffffffffffffffffffffffffffffffffffff19161480610c145750610c1382612ae0565b5b9050919050565b606060688054610c2a90615ace565b80601f0160208091040260200160405190810160405280929190818152602001828054610c5690615ace565b8015610ca35780601f10610c7857610100808354040283529160200191610ca3565b820191906000526020600020905b815481529060010190602001808311610c8657829003601f168201915b5050505050905090565b600080610cb8612b4a565b9050610cc5818585612b52565b600191505092915050565b60008061016b60003373ffffffffffffffffffffffffffffffffffffffff1673ffffffffffffffffffffffffffffffffffffffff1681526020019081526020016000208190555050565b6000606754905090565b7f241ecf16d79d0f8dbfb92cbc07fe17840425976cf0667f022fe9877caa831b08610d5681610d51612b4a565b612d1d565b60405180604001604052806000815260200142815250610162600082015181600001556020820151816001015590505050565b600061016954905090565b600080610d9f612b4a565b9050610dac858285612dba565b610db7858585612e46565b60019150509392505050565b600060fe6000838152602001908152602001600020600101549050919050565b610dec82610dc3565b610dfd81610df8612b4a565b612d1d565b610e0783836130df565b505050565b61016760009054906101000a900473ffffffffffffffffffffffffffffffffffffffff1681565b60006012905090565b6000610e466131c0565b905090565b610e53612b4a565b73ffffffffffffffffffffffffffffffffffffffff168173ffffffffffffffffffffffffffffffffffffffff1614610ec0576040517f08c379a0000000000000000000000000000000000000000000000000000000008152600401610eb790615b72565b60405180910390fd5b610eca8282613200565b5050565b600080610ed9612b4a565b9050610f6d818585606660008673ffffffffffffffffffffffffffffffffffffffff1673ffffffffffffffffffffffffffffffffffffffff16815260200190815260200160002060008973ffffffffffffffffffffffffffffffffffffffff1673ffffffffffffffffffffffffffffffffffffffff16815260200190815260200160002054610f689190615bc1565b612b52565b600191505092915050565b600061016c60008373ffffffffffffffffffffffffffffffffffffffff1673ffffffffffffffffffffffffffffffffffffffff168152602001908152602001600020549050919050565b6000438210611006576040517f08c379a0000000000000000000000000000000000000000000000000000000008152600401610ffd90615c63565b60405180910390fd5b61104f61013160008573ffffffffffffffffffffffffffffffffffffffff1673ffffffffffffffffffffffffffffffffffffffff168152602001908152602001600020836132e2565b905092915050565b600061016554905090565b600061016260010154905090565b600061107b33611291565b14156110bc576040517f08c379a00000000000000000000000000000000000000000000000000000000081526004016110b390615ccf565b60405180910390fd5b4261016c60003373ffffffffffffffffffffffffffffffffffffffff1673ffffffffffffffffffffffffffffffffffffffff168152602001908152602001600020819055503373ffffffffffffffffffffffffffffffffffffffff167f06458eacc93d062b1d92c6575f39b0c1d64541d6881846fecef52a42c7c8000860405160405180910390a2565b600061013060008373ffffffffffffffffffffffffffffffffffffffff1673ffffffffffffffffffffffffffffffffffffffff16815260200190815260200160002060009054906101000a900473ffffffffffffffffffffffffffffffffffffffff169050919050565b7f241ecf16d79d0f8dbfb92cbc07fe17840425976cf0667f022fe9877caa831b086111e2816111dd612b4a565b612d1d565b8161016a819055505050565b6111ff6111f9612b4a565b826133ee565b50565b600061016854905090565b6000801b6112228161121d612b4a565b612d1d565b81610164819055505050565b600061016260000154905090565b600061128a61013160008473ffffffffffffffffffffffffffffffffffffffff1673ffffffffffffffffffffffffffffffffffffffff16815260200190815260200160002080549050613509565b9050919050565b6000606560008373ffffffffffffffffffffffffffffffffffffffff1673ffffffffffffffffffffffffffffffffffffffff168152602001908152602001600020549050919050565b600061016e60008373ffffffffffffffffffffffffffffffffffffffff1673ffffffffffffffffffffffffffffffffffffffff168152602001908152602001600020600001549050919050565b600080610162604051806040016040529081600082015481526020016001820154815250509050600061016e60008573ffffffffffffffffffffffffffffffffffffffff1673ffffffffffffffffffffffffffffffffffffffff168152602001908152602001600020905060008260000151905060006113a5610d1a565b90508360200151421180156113bb575060008114155b156114165760008460200151426113d29190615cef565b9050600061016454826113e59190615d23565b905082670de0b6b3a7640000826113fc9190615d23565b6114069190615dac565b846114119190615bc1565b935050505b8260010154670de0b6b3a76400008385600001546114349190615d23565b61143e9190615dac565b6114489190615ddd565b945050505050919050565b600060019054906101000a900460ff1661147b5760008054906101000a900460ff1615611484565b61148361355c565b5b6114c3576040517f08c379a00000000000000000000000000000000000000000000000000000000081526004016114ba90615ee3565b60405180910390fd5b60008060019054906101000a900460ff161590508015611513576001600060016101000a81548160ff02191690831515021790555060016000806101000a81548160ff0219169083151502179055505b61151d888861356d565b611526886135ca565b8561016760006101000a81548173ffffffffffffffffffffffffffffffffffffffff021916908373ffffffffffffffffffffffffffffffffffffffff160217905550846101688190555083610169819055508161016a8190555061158d6000801b336130df565b6115b77f241ecf16d79d0f8dbfb92cbc07fe17840425976cf0667f022fe9877caa831b08336130df565b6115c08361120d565b6115c8610d24565b80156115e95760008060016101000a81548160ff0219169083151502179055505b5050505050505050565b7f241ecf16d79d0f8dbfb92cbc07fe17840425976cf0667f022fe9877caa831b0861162581611620612b4a565b612d1d565b81610168819055505050565b600061167a60cb60008473ffffffffffffffffffffffffffffffffffffffff1673ffffffffffffffffffffffffffffffffffffffff168152602001908152602001600020613664565b9050919050565b60004382106116c5576040517f08c379a00000000000000000000000000000000000000000000000000000000081526004016116bc90615c63565b60405180910390fd5b6116d1610132836132e2565b9050919050565b600060fe600084815260200190815260200160002060000160008373ffffffffffffffffffffffffffffffffffffffff1673ffffffffffffffffffffffffffffffffffffffff16815260200190815260200160002060009054906101000a900460ff16905092915050565b60606069805461175290615ace565b80601f016020809104026020016040519081016040528092919081815260200182805461177e90615ace565b80156117cb5780601f106117a0576101008083540402835291602001916117cb565b820191906000526020600020905b8154815290600101906020018083116117ae57829003601f168201915b5050505050905090565b600061016d60008373ffffffffffffffffffffffffffffffffffffffff1673ffffffffffffffffffffffffffffffffffffffff168152602001908152602001600020549050919050565b60008061013160008473ffffffffffffffffffffffffffffffffffffffff1673ffffffffffffffffffffffffffffffffffffffff168152602001908152602001600020805490509050600081146119095761013160008473ffffffffffffffffffffffffffffffffffffffff1673ffffffffffffffffffffffffffffffffffffffff1681526020019081526020016000206001826118bd9190615cef565b815481106118ce576118cd615f03565b5b9060005260206000200160000160049054906101000a90047bffffffffffffffffffffffffffffffffffffffffffffffffffffffff1661190c565b60005b7bffffffffffffffffffffffffffffffffffffffffffffffffffffffff16915050919050565b7f241ecf16d79d0f8dbfb92cbc07fe17840425976cf0667f022fe9877caa831b086119648161195f612b4a565b612d1d565b600061271061016a546101655461197b9190615d23565b6119859190615dac565b90508083111561199457600080fd5b6119e2848461016760009054906101000a900473ffffffffffffffffffffffffffffffffffffffff1673ffffffffffffffffffffffffffffffffffffffff166136729092919063ffffffff16565b50505050565b6000801b81565b6000806119fa612b4a565b90506000606660008373ffffffffffffffffffffffffffffffffffffffff1673ffffffffffffffffffffffffffffffffffffffff16815260200190815260200160002060008673ffffffffffffffffffffffffffffffffffffffff1673ffffffffffffffffffffffffffffffffffffffff16815260200190815260200160002054905083811015611ac0576040517f08c379a0000000000000000000000000000000000000000000000000000000008152600401611ab790615fa4565b60405180910390fd5b611acd8286868403612b52565b60019250505092915050565b600080611ae4612b4a565b9050611af1818585612e46565b600191505092915050565b7f241ecf16d79d0f8dbfb92cbc07fe17840425976cf0667f022fe9877caa831b08611b2e81611b29612b4a565b612d1d565b81610169819055505050565b6000811415611b7e576040517f08c379a0000000000000000000000000000000000000000000000000000000008152600401611b7590616010565b60405180910390fd5b6000611b8983611291565b90506000611b95612a08565b9050600061016e60003373ffffffffffffffffffffffffffffffffffffffff1673ffffffffffffffffffffffffffffffffffffffff168152602001908152602001600020905061016654670de0b6b3a764000085611bf39190615d23565b611bfd9190615dac565b816000016000828254611c109190615bc1565b92505081905550670de0b6b3a7640000826000015161016654670de0b6b3a764000087611c3d9190615d23565b611c479190615dac565b611c519190615d23565b611c5b9190615dac565b816001016000828254611c6e9190616030565b925050819055508361016d60003373ffffffffffffffffffffffffffffffffffffffff1673ffffffffffffffffffffffffffffffffffffffff1681526020019081526020016000206000828254611cc59190615bc1565b92505081905550836101656000828254611cdf9190615bc1565b92505081905550611cf3600085878661290d565b61016c60008773ffffffffffffffffffffffffffffffffffffffff1673ffffffffffffffffffffffffffffffffffffffff16815260200190815260200160002081905550611d628561016654670de0b6b3a764000087611d539190615d23565b611d5d9190615dac565b6136f8565b611db233308661016760009054906101000a900473ffffffffffffffffffffffffffffffffffffffff1673ffffffffffffffffffffffffffffffffffffffff16613706909392919063ffffffff16565b8473ffffffffffffffffffffffffffffffffffffffff163373ffffffffffffffffffffffffffffffffffffffff167f5dac0c1b1112564a045ba943c9d50270893e8e826c49be8e7073adc713ab7bd786604051611e0f9190615153565b60405180910390a35050505050565b83421115611e61576040517f08c379a0000000000000000000000000000000000000000000000000000000008152600401611e5890616110565b60405180910390fd5b6000611ec3611ebb7fe48329057bfd03d55e49b547132e39cffd9c1820ad7b9d4c5307691425d15adf898989604051602001611ea09493929190616130565b6040516020818303038152906040528051906020012061378f565b8585856137a9565b9050611ece816137d4565b8614611f0f576040517f08c379a0000000000000000000000000000000000000000000000000000000008152600401611f06906161c1565b60405180910390fd5b611f1981886133ee565b50505050505050565b600061016e60008373ffffffffffffffffffffffffffffffffffffffff1673ffffffffffffffffffffffffffffffffffffffff168152602001908152602001600020600101549050919050565b83421115611fb2576040517f08c379a0000000000000000000000000000000000000000000000000000000008152600401611fa99061622d565b60405180910390fd5b600060cc54888888611fc38c6137d4565b89604051602001611fd99695949392919061624d565b6040516020818303038152906040528051906020012090506000611ffc8261378f565b9050600061200c828787876137a9565b90508973ffffffffffffffffffffffffffffffffffffffff168173ffffffffffffffffffffffffffffffffffffffff161461207c576040517f08c379a0000000000000000000000000000000000000000000000000000000008152600401612073906162fa565b60405180910390fd5b6120878a8a8a612b52565b50505050505050505050565b61209c82610dc3565b6120ad816120a8612b4a565b612d1d565b6120b78383613200565b505050565b61016a5481565b6120d289898989898989611f6f565b3073ffffffffffffffffffffffffffffffffffffffff1663adc9772e83836040518363ffffffff1660e01b815260040161210d92919061631a565b600060405180830381600087803b15801561212757600080fd5b505af115801561213b573d6000803e3d6000fd5b50505050505050505050505050565b600081141580156121f7575061016760009054906101000a900473ffffffffffffffffffffffffffffffffffffffff1673ffffffffffffffffffffffffffffffffffffffff166370a08231336040518263ffffffff1660e01b81526004016121b2919061537b565b602060405180830381865afa1580156121cf573d6000803e3d6000fd5b505050506040513d601f19601f820116820180604052508101906121f39190616358565b8111155b612236576040517f08c379a000000000000000000000000000000000000000000000000000000000815260040161222d90616010565b60405180910390fd5b600061016c60003373ffffffffffffffffffffffffffffffffffffffff1673ffffffffffffffffffffffffffffffffffffffff168152602001908152602001600020549050610168548161228a9190615bc1565b42116122cb576040517f08c379a00000000000000000000000000000000000000000000000000000000081526004016122c2906163d1565b60405180910390fd5b6101695461016854826122de9190615bc1565b426122e99190615cef565b111561232a576040517f08c379a00000000000000000000000000000000000000000000000000000000081526004016123219061643d565b60405180910390fd5b600061233533611291565b90506000612341612a08565b9050600061016e60003373ffffffffffffffffffffffffffffffffffffffff1673ffffffffffffffffffffffffffffffffffffffff1681526020019081526020016000209050670de0b6b3a7640000826000015161016654670de0b6b3a7640000886123ad9190615d23565b6123b79190615dac565b6123c19190615d23565b6123cb9190615dac565b8160010160008282546123de9190615ddd565b9250508190555061016654670de0b6b3a7640000866123fd9190615d23565b6124079190615dac565b81600001600082825461241a9190615cef565b925050819055508461016d60003373ffffffffffffffffffffffffffffffffffffffff1673ffffffffffffffffffffffffffffffffffffffff16815260200190815260200160002060008282546124719190615cef565b9250508190555084610165600082825461248b9190615cef565b925050819055506124bd3361016654670de0b6b3a7640000886124ae9190615d23565b6124b89190615dac565b613832565b600061016654670de0b6b3a7640000876124d79190615d23565b6124e19190615dac565b846124ec9190615cef565b141561253957600061016c60003373ffffffffffffffffffffffffffffffffffffffff1673ffffffffffffffffffffffffffffffffffffffff168152602001908152602001600020819055505b612587868661016760009054906101000a900473ffffffffffffffffffffffffffffffffffffffff1673ffffffffffffffffffffffffffffffffffffffff166136729092919063ffffffff16565b3373ffffffffffffffffffffffffffffffffffffffff163373ffffffffffffffffffffffffffffffffffffffff167f8a3c16627a0e7a870a5d5cd0121ca5d80e2efd0ec7198a11644f1a516ac37093876040516125e49190615153565b60405180910390a3505050505050565b600061016454905090565b6000606660008473ffffffffffffffffffffffffffffffffffffffff1673ffffffffffffffffffffffffffffffffffffffff16815260200190815260200160002060008373ffffffffffffffffffffffffffffffffffffffff1673ffffffffffffffffffffffffffffffffffffffff16815260200190815260200160002054905092915050565b7f241ecf16d79d0f8dbfb92cbc07fe17840425976cf0667f022fe9877caa831b0881565b60006126b4612a08565b9050600061016e60003373ffffffffffffffffffffffffffffffffffffffff1673ffffffffffffffffffffffffffffffffffffffff16815260200190815260200160002090506000670de0b6b3a7640000836000015183600001546127199190615d23565b6127239190615dac565b905060008260010154826127379190615ddd565b9050818360010181905550612790858261016760009054906101000a900473ffffffffffffffffffffffffffffffffffffffff1673ffffffffffffffffffffffffffffffffffffffff166136729092919063ffffffff16565b8473ffffffffffffffffffffffffffffffffffffffff163373ffffffffffffffffffffffffffffffffffffffff167f9310ccfcb8de723f578a9e4282ea9f521f05ae40dc08f3068dfad528a65ee3c7836040516127ed9190615153565b60405180910390a35050505050565b612804614deb565b61013160008473ffffffffffffffffffffffffffffffffffffffff1673ffffffffffffffffffffffffffffffffffffffff1681526020019081526020016000208263ffffffff168154811061285c5761285b615f03565b5b906000526020600020016040518060400160405290816000820160009054906101000a900463ffffffff1663ffffffff1663ffffffff1681526020016000820160049054906101000a90047bffffffffffffffffffffffffffffffffffffffffffffffffffffffff167bffffffffffffffffffffffffffffffffffffffffffffffffffffffff167bffffffffffffffffffffffffffffffffffffffffffffffffffffffff1681525050905092915050565b60008061016c60008573ffffffffffffffffffffffffffffffffffffffff1673ffffffffffffffffffffffffffffffffffffffff1681526020019081526020016000205490506000811415612966576000915050612a00565b600061016954610168544261297b9190615cef565b6129859190615cef565b90508181111561299857600091506129fa565b60008782116129a757876129a9565b425b9050828110156129be57829350505050612a00565b84876129ca9190615bc1565b83866129d69190615d23565b82896129e29190615d23565b6129ec9190615bc1565b6129f69190615dac565b9250505b81925050505b949350505050565b612a10614e29565b6101626040518060400160405290816000820154815260200160018201548152505090504281602001511015612add576000612a4a610d1a565b90506000811115612ab6576000826020015142612a679190615cef565b905060006101645482612a7a9190615d23565b905082670de0b6b3a764000082612a919190615d23565b612a9b9190615dac565b84600001818151612aac9190615bc1565b9150818152505050505b42826020018181525050816101626000820151816000015560208201518160010155905050505b90565b60007f01ffc9a7000000000000000000000000000000000000000000000000000000007bffffffffffffffffffffffffffffffffffffffffffffffffffffffff1916827bffffffffffffffffffffffffffffffffffffffffffffffffffffffff1916149050919050565b600033905090565b600073ffffffffffffffffffffffffffffffffffffffff168373ffffffffffffffffffffffffffffffffffffffff161415612bc2576040517f08c379a0000000000000000000000000000000000000000000000000000000008152600401612bb9906164cf565b60405180910390fd5b600073ffffffffffffffffffffffffffffffffffffffff168273ffffffffffffffffffffffffffffffffffffffff161415612c32576040517f08c379a0000000000000000000000000000000000000000000000000000000008152600401612c2990616561565b60405180910390fd5b80606660008573ffffffffffffffffffffffffffffffffffffffff1673ffffffffffffffffffffffffffffffffffffffff16815260200190815260200160002060008473ffffffffffffffffffffffffffffffffffffffff1673ffffffffffffffffffffffffffffffffffffffff168152602001908152602001600020819055508173ffffffffffffffffffffffffffffffffffffffff168373ffffffffffffffffffffffffffffffffffffffff167f8c5be1e5ebec7d5bd14f71427d1e84f3dd0314c0f7b2291e5b200ac8c7c3b92583604051612d109190615153565b60405180910390a3505050565b612d2782826116d8565b612db657612d4c8173ffffffffffffffffffffffffffffffffffffffff166014613840565b612d5a8360001c6020613840565b604051602001612d6b929190616655565b6040516020818303038152906040526040517f08c379a0000000000000000000000000000000000000000000000000000000008152600401612dad919061504e565b60405180910390fd5b5050565b6000612dc684846125ff565b90507fffffffffffffffffffffffffffffffffffffffffffffffffffffffffffffffff8114612e405781811015612e32576040517f08c379a0000000000000000000000000000000000000000000000000000000008152600401612e29906166db565b60405180910390fd5b612e3f8484848403612b52565b5b50505050565b6000612e5184611291565b90506000612e5d612a08565b9050600061016e60008773ffffffffffffffffffffffffffffffffffffffff1673ffffffffffffffffffffffffffffffffffffffff1681526020019081526020016000209050670de0b6b3a7640000826000015185612ebc9190615d23565b612ec69190615dac565b816001016000828254612ed99190615ddd565b9250508190555083816000016000828254612ef49190615cef565b925050819055508473ffffffffffffffffffffffffffffffffffffffff168673ffffffffffffffffffffffffffffffffffffffff16146130cc576000612f3986611291565b9050600061016e60008873ffffffffffffffffffffffffffffffffffffffff1673ffffffffffffffffffffffffffffffffffffffff1681526020019081526020016000209050670de0b6b3a7640000846000015187612f989190615d23565b612fa29190615dac565b816001016000828254612fb59190616030565b9250508190555085816000016000828254612fd09190615bc1565b92505081905550600061016c60008a73ffffffffffffffffffffffffffffffffffffffff1673ffffffffffffffffffffffffffffffffffffffff16815260200190815260200160002054905061302881888a8661290d565b61016c60008a73ffffffffffffffffffffffffffffffffffffffff1673ffffffffffffffffffffffffffffffffffffffff16815260200190815260200160002081905550868614801561307c575060008114155b156130c857600061016c60008b73ffffffffffffffffffffffffffffffffffffffff1673ffffffffffffffffffffffffffffffffffffffff168152602001908152602001600020819055505b5050505b6130d7868686613a7c565b505050505050565b6130e982826116d8565b6131bc57600160fe600084815260200190815260200160002060000160008373ffffffffffffffffffffffffffffffffffffffff1673ffffffffffffffffffffffffffffffffffffffff16815260200190815260200160002060006101000a81548160ff021916908315150217905550613161612b4a565b73ffffffffffffffffffffffffffffffffffffffff168173ffffffffffffffffffffffffffffffffffffffff16837f2f8788117e7eff1d82e926ec794901d17c78024a50270940304540a733656f0d60405160405180910390a45b5050565b60006131fb7f8b73c3c69bb8fe3d512ecc4cf759cc79239f7b179b0ffacaa9a75d522b39400f6131ee613d00565b6131f6613d0a565b613d14565b905090565b61320a82826116d8565b156132de57600060fe600084815260200190815260200160002060000160008373ffffffffffffffffffffffffffffffffffffffff1673ffffffffffffffffffffffffffffffffffffffff16815260200190815260200160002060006101000a81548160ff021916908315150217905550613283612b4a565b73ffffffffffffffffffffffffffffffffffffffff168173ffffffffffffffffffffffffffffffffffffffff16837ff6391f5c32d9c69d2a47ea670b442974b53935d1edc7fd64eb21e047a839171b60405160405180910390a45b5050565b6000808380549050905060005b818110156133615760006133038284613d4e565b90508486828154811061331957613318615f03565b5b9060005260206000200160000160009054906101000a900463ffffffff1663ffffffff16111561334b5780925061335b565b6001816133589190615bc1565b91505b506132ef565b600082146133c357846001836133779190615cef565b8154811061338857613387615f03565b5b9060005260206000200160000160049054906101000a90047bffffffffffffffffffffffffffffffffffffffffffffffffffffffff166133c6565b60005b7bffffffffffffffffffffffffffffffffffffffffffffffffffffffff169250505092915050565b60006133f983611146565b9050600061340684611291565b90508261013060008673ffffffffffffffffffffffffffffffffffffffff1673ffffffffffffffffffffffffffffffffffffffff16815260200190815260200160002060006101000a81548173ffffffffffffffffffffffffffffffffffffffff021916908373ffffffffffffffffffffffffffffffffffffffff1602179055508273ffffffffffffffffffffffffffffffffffffffff168273ffffffffffffffffffffffffffffffffffffffff168573ffffffffffffffffffffffffffffffffffffffff167f3134e8a2e6d97e929a7e54011ea5485d7d196dd5f0ba4d4ef95803e8e3fc257f60405160405180910390a4613503828483613d74565b50505050565b600063ffffffff8016821115613554576040517f08c379a000000000000000000000000000000000000000000000000000000000815260040161354b9061676d565b60405180910390fd5b819050919050565b600061356730613f6f565b15905090565b600060019054906101000a900460ff166135bc576040517f08c379a00000000000000000000000000000000000000000000000000000000081526004016135b3906167ff565b60405180910390fd5b6135c68282613f92565b5050565b600060019054906101000a900460ff16613619576040517f08c379a0000000000000000000000000000000000000000000000000000000008152600401613610906167ff565b60405180910390fd5b613658816040518060400160405280600181526020017f3100000000000000000000000000000000000000000000000000000000000000815250614013565b6136618161408e565b50565b600081600001549050919050565b6136f38363a9059cbb60e01b848460405160240161369192919061631a565b604051602081830303815290604052907bffffffffffffffffffffffffffffffffffffffffffffffffffffffff19166020820180517bffffffffffffffffffffffffffffffffffffffffffffffffffffffff8381831617835250505050614107565b505050565b61370282826141ce565b5050565b613789846323b872dd60e01b8585856040516024016137279392919061681f565b604051602081830303815290604052907bffffffffffffffffffffffffffffffffffffffffffffffffffffffff19166020820180517bffffffffffffffffffffffffffffffffffffffffffffffffffffffff8381831617835250505050614107565b50505050565b60006137a261379c6131c0565b8361425c565b9050919050565b60008060006137ba8787878761428f565b915091506137c78161439c565b8192505050949350505050565b60008060cb60008473ffffffffffffffffffffffffffffffffffffffff1673ffffffffffffffffffffffffffffffffffffffff168152602001908152602001600020905061382181613664565b915061382c81614571565b50919050565b61383c8282614587565b5050565b6060600060028360026138539190615d23565b61385d9190615bc1565b67ffffffffffffffff81111561387657613875615407565b5b6040519080825280601f01601f1916602001820160405280156138a85781602001600182028036833780820191505090505b5090507f3000000000000000000000000000000000000000000000000000000000000000816000815181106138e0576138df615f03565b5b60200101907effffffffffffffffffffffffffffffffffffffffffffffffffffffffffffff1916908160001a9053507f78000000000000000000000000000000000000000000000000000000000000008160018151811061394457613943615f03565b5b60200101907effffffffffffffffffffffffffffffffffffffffffffffffffffffffffffff1916908160001a905350600060018460026139849190615d23565b61398e9190615bc1565b90505b6001811115613a2e577f3031323334353637383961626364656600000000000000000000000000000000600f8616601081106139d0576139cf615f03565b5b1a60f81b8282815181106139e7576139e6615f03565b5b60200101907effffffffffffffffffffffffffffffffffffffffffffffffffffffffffffff1916908160001a905350600485901c945080613a2790616856565b9050613991565b5060008414613a72576040517f08c379a0000000000000000000000000000000000000000000000000000000008152600401613a69906168cc565b60405180910390fd5b8091505092915050565b600073ffffffffffffffffffffffffffffffffffffffff168373ffffffffffffffffffffffffffffffffffffffff161415613aec576040517f08c379a0000000000000000000000000000000000000000000000000000000008152600401613ae39061695e565b60405180910390fd5b600073ffffffffffffffffffffffffffffffffffffffff168273ffffffffffffffffffffffffffffffffffffffff161415613b5c576040517f08c379a0000000000000000000000000000000000000000000000000000000008152600401613b53906169f0565b60405180910390fd5b613b678383836145a6565b6000606560008573ffffffffffffffffffffffffffffffffffffffff1673ffffffffffffffffffffffffffffffffffffffff16815260200190815260200160002054905081811015613bee576040517f08c379a0000000000000000000000000000000000000000000000000000000008152600401613be590616a82565b60405180910390fd5b818103606560008673ffffffffffffffffffffffffffffffffffffffff1673ffffffffffffffffffffffffffffffffffffffff1681526020019081526020016000208190555081606560008573ffffffffffffffffffffffffffffffffffffffff1673ffffffffffffffffffffffffffffffffffffffff1681526020019081526020016000206000828254613c839190615bc1565b925050819055508273ffffffffffffffffffffffffffffffffffffffff168473ffffffffffffffffffffffffffffffffffffffff167fddf252ad1be2c89b69c2b068fc378daa952ba7f163c4a11628f55a4df523b3ef84604051613ce79190615153565b60405180910390a3613cfa8484846145ab565b50505050565b6000609754905090565b6000609854905090565b60008383834630604051602001613d2f959493929190616aa2565b6040516020818303038152906040528051906020012090509392505050565b60006002828418613d5f9190615dac565b828416613d6c9190615bc1565b905092915050565b8173ffffffffffffffffffffffffffffffffffffffff168373ffffffffffffffffffffffffffffffffffffffff1614158015613db05750600081115b15613f6a57600073ffffffffffffffffffffffffffffffffffffffff168373ffffffffffffffffffffffffffffffffffffffff1614613e8f57600080613e3861013160008773ffffffffffffffffffffffffffffffffffffffff1673ffffffffffffffffffffffffffffffffffffffff1681526020019081526020016000206145bb856145d1565b915091508473ffffffffffffffffffffffffffffffffffffffff167fdec2bacdd2f05b59de34da9b523dff8be42e5e38e818c82fdb0bae774387a7248383604051613e84929190616af5565b60405180910390a250505b600073ffffffffffffffffffffffffffffffffffffffff168273ffffffffffffffffffffffffffffffffffffffff1614613f6957600080613f1261013160008673ffffffffffffffffffffffffffffffffffffffff1673ffffffffffffffffffffffffffffffffffffffff168152602001908152602001600020614849856145d1565b915091508373ffffffffffffffffffffffffffffffffffffffff167fdec2bacdd2f05b59de34da9b523dff8be42e5e38e818c82fdb0bae774387a7248383604051613f5e929190616af5565b60405180910390a250505b5b505050565b6000808273ffffffffffffffffffffffffffffffffffffffff163b119050919050565b600060019054906101000a900460ff16613fe1576040517f08c379a0000000000000000000000000000000000000000000000000000000008152600401613fd8906167ff565b60405180910390fd5b8160689080519060200190613ff7929190614e43565b50806069908051906020019061400e929190614e43565b505050565b600060019054906101000a900460ff16614062576040517f08c379a0000000000000000000000000000000000000000000000000000000008152600401614059906167ff565b60405180910390fd5b600082805190602001209050600082805190602001209050816097819055508060988190555050505050565b600060019054906101000a900460ff166140dd576040517f08c379a00000000000000000000000000000000000000000000000000000000081526004016140d4906167ff565b60405180910390fd5b7f6e71edae12b1b97f4d1f60370fef10105fa2faae0126114a169c64845d6126c960cc8190555050565b6000614169826040518060400160405280602081526020017f5361666545524332303a206c6f772d6c6576656c2063616c6c206661696c65648152508573ffffffffffffffffffffffffffffffffffffffff1661485f9092919063ffffffff16565b90506000815111156141c957808060200190518101906141899190616b4a565b6141c8576040517f08c379a00000000000000000000000000000000000000000000000000000000081526004016141bf90616be9565b60405180910390fd5b5b505050565b6141d88282614877565b6141e06149d8565b7bffffffffffffffffffffffffffffffffffffffffffffffffffffffff16614206610d1a565b1115614247576040517f08c379a000000000000000000000000000000000000000000000000000000000815260040161423e90616c7b565b60405180910390fd5b614256610132614849836145d1565b50505050565b60008282604051602001614271929190616d08565b60405160208183030381529060405280519060200120905092915050565b6000807f7fffffffffffffffffffffffffffffff5d576e7357a4501ddfe92f46681b20a08360001c11156142ca576000600391509150614393565b601b8560ff16141580156142e25750601c8560ff1614155b156142f4576000600491509150614393565b6000600187878787604051600081526020016040526040516143199493929190616d3f565b6020604051602081039080840390855afa15801561433b573d6000803e3d6000fd5b505050602060405103519050600073ffffffffffffffffffffffffffffffffffffffff168173ffffffffffffffffffffffffffffffffffffffff16141561438a57600060019250925050614393565b80600092509250505b94509492505050565b600060048111156143b0576143af616d84565b5b8160048111156143c3576143c2616d84565b5b14156143ce5761456e565b600160048111156143e2576143e1616d84565b5b8160048111156143f5576143f4616d84565b5b1415614436576040517f08c379a000000000000000000000000000000000000000000000000000000000815260040161442d90616dff565b60405180910390fd5b6002600481111561444a57614449616d84565b5b81600481111561445d5761445c616d84565b5b141561449e576040517f08c379a000000000000000000000000000000000000000000000000000000000815260040161449590616e6b565b60405180910390fd5b600360048111156144b2576144b1616d84565b5b8160048111156144c5576144c4616d84565b5b1415614506576040517f08c379a00000000000000000000000000000000000000000000000000000000081526004016144fd90616efd565b60405180910390fd5b60048081111561451957614518616d84565b5b81600481111561452c5761452b616d84565b5b141561456d576040517f08c379a000000000000000000000000000000000000000000000000000000000815260040161456490616f8f565b60405180910390fd5b5b50565b6001816000016000828254019250508190555050565b61459182826149fc565b6145a06101326145bb836145d1565b50505050565b505050565b6145b6838383614bd5565b505050565b600081836145c99190615cef565b905092915050565b6000806000858054905090506000811461463f57856001826145f39190615cef565b8154811061460457614603615f03565b5b9060005260206000200160000160049054906101000a90047bffffffffffffffffffffffffffffffffffffffffffffffffffffffff16614642565b60005b7bffffffffffffffffffffffffffffffffffffffffffffffffffffffff16925061467083858763ffffffff16565b91506000811180156146c35750438660018361468c9190615cef565b8154811061469d5761469c615f03565b5b9060005260206000200160000160009054906101000a900463ffffffff1663ffffffff16145b15614750576146d182614c00565b866001836146df9190615cef565b815481106146f0576146ef615f03565b5b9060005260206000200160000160046101000a8154817bffffffffffffffffffffffffffffffffffffffffffffffffffffffff02191690837bffffffffffffffffffffffffffffffffffffffffffffffffffffffff160217905550614840565b85604051806040016040528061476543613509565b63ffffffff16815260200161477985614c00565b7bffffffffffffffffffffffffffffffffffffffffffffffffffffffff168152509080600181540180825580915050600190039060005260206000200160009091909190915060008201518160000160006101000a81548163ffffffff021916908363ffffffff16021790555060208201518160000160046101000a8154817bffffffffffffffffffffffffffffffffffffffffffffffffffffffff02191690837bffffffffffffffffffffffffffffffffffffffffffffffffffffffff16021790555050505b50935093915050565b600081836148579190615bc1565b905092915050565b606061486e8484600085614c6b565b90509392505050565b600073ffffffffffffffffffffffffffffffffffffffff168273ffffffffffffffffffffffffffffffffffffffff1614156148e7576040517f08c379a00000000000000000000000000000000000000000000000000000000081526004016148de90616ffb565b60405180910390fd5b6148f3600083836145a6565b80606760008282546149059190615bc1565b9250508190555080606560008473ffffffffffffffffffffffffffffffffffffffff1673ffffffffffffffffffffffffffffffffffffffff168152602001908152602001600020600082825461495b9190615bc1565b925050819055508173ffffffffffffffffffffffffffffffffffffffff16600073ffffffffffffffffffffffffffffffffffffffff167fddf252ad1be2c89b69c2b068fc378daa952ba7f163c4a11628f55a4df523b3ef836040516149c09190615153565b60405180910390a36149d4600083836145ab565b5050565b60007bffffffffffffffffffffffffffffffffffffffffffffffffffffffff905090565b600073ffffffffffffffffffffffffffffffffffffffff168273ffffffffffffffffffffffffffffffffffffffff161415614a6c576040517f08c379a0000000000000000000000000000000000000000000000000000000008152600401614a639061708d565b60405180910390fd5b614a78826000836145a6565b6000606560008473ffffffffffffffffffffffffffffffffffffffff1673ffffffffffffffffffffffffffffffffffffffff16815260200190815260200160002054905081811015614aff576040517f08c379a0000000000000000000000000000000000000000000000000000000008152600401614af69061711f565b60405180910390fd5b818103606560008573ffffffffffffffffffffffffffffffffffffffff1673ffffffffffffffffffffffffffffffffffffffff168152602001908152602001600020819055508160676000828254614b579190615cef565b92505081905550600073ffffffffffffffffffffffffffffffffffffffff168373ffffffffffffffffffffffffffffffffffffffff167fddf252ad1be2c89b69c2b068fc378daa952ba7f163c4a11628f55a4df523b3ef84604051614bbc9190615153565b60405180910390a3614bd0836000846145ab565b505050565b614be0838383614d7f565b614bfb614bec84611146565b614bf584611146565b83613d74565b505050565b60007bffffffffffffffffffffffffffffffffffffffffffffffffffffffff8016821115614c63576040517f08c379a0000000000000000000000000000000000000000000000000000000008152600401614c5a906171b1565b60405180910390fd5b819050919050565b606082471015614cb0576040517f08c379a0000000000000000000000000000000000000000000000000000000008152600401614ca790617243565b60405180910390fd5b614cb985613f6f565b614cf8576040517f08c379a0000000000000000000000000000000000000000000000000000000008152600401614cef906172af565b60405180910390fd5b6000808673ffffffffffffffffffffffffffffffffffffffff168587604051614d219190617316565b60006040518083038185875af1925050503d8060008114614d5e576040519150601f19603f3d011682016040523d82523d6000602084013e614d63565b606091505b5091509150614d73828286614d84565b92505050949350505050565b505050565b60608315614d9457829050614de4565b600083511115614da75782518084602001fd5b816040517f08c379a0000000000000000000000000000000000000000000000000000000008152600401614ddb919061504e565b60405180910390fd5b9392505050565b6040518060400160405280600063ffffffff16815260200160007bffffffffffffffffffffffffffffffffffffffffffffffffffffffff1681525090565b604051806040016040528060008152602001600081525090565b828054614e4f90615ace565b90600052602060002090601f016020900481019282614e715760008555614eb8565b82601f10614e8a57805160ff1916838001178555614eb8565b82800160010185558215614eb8579182015b82811115614eb7578251825591602001919060010190614e9c565b5b509050614ec59190614ec9565b5090565b5b80821115614ee2576000816000905550600101614eca565b5090565b6000604051905090565b600080fd5b600080fd5b60007fffffffff0000000000000000000000000000000000000000000000000000000082169050919050565b614f2f81614efa565b8114614f3a57600080fd5b50565b600081359050614f4c81614f26565b92915050565b600060208284031215614f6857614f67614ef0565b5b6000614f7684828501614f3d565b91505092915050565b60008115159050919050565b614f9481614f7f565b82525050565b6000602082019050614faf6000830184614f8b565b92915050565b600081519050919050565b600082825260208201905092915050565b60005b83811015614fef578082015181840152602081019050614fd4565b83811115614ffe576000848401525b50505050565b6000601f19601f8301169050919050565b600061502082614fb5565b61502a8185614fc0565b935061503a818560208601614fd1565b61504381615004565b840191505092915050565b600060208201905081810360008301526150688184615015565b905092915050565b600073ffffffffffffffffffffffffffffffffffffffff82169050919050565b600061509b82615070565b9050919050565b6150ab81615090565b81146150b657600080fd5b50565b6000813590506150c8816150a2565b92915050565b6000819050919050565b6150e1816150ce565b81146150ec57600080fd5b50565b6000813590506150fe816150d8565b92915050565b6000806040838503121561511b5761511a614ef0565b5b6000615129858286016150b9565b925050602061513a858286016150ef565b9150509250929050565b61514d816150ce565b82525050565b60006020820190506151686000830184615144565b92915050565b60008060006060848603121561518757615186614ef0565b5b6000615195868287016150b9565b93505060206151a6868287016150b9565b92505060406151b7868287016150ef565b9150509250925092565b6000819050919050565b6151d4816151c1565b81146151df57600080fd5b50565b6000813590506151f1816151cb565b92915050565b60006020828403121561520d5761520c614ef0565b5b600061521b848285016151e2565b91505092915050565b61522d816151c1565b82525050565b60006020820190506152486000830184615224565b92915050565b6000806040838503121561526557615264614ef0565b5b6000615273858286016151e2565b9250506020615284858286016150b9565b9150509250929050565b6000819050919050565b60006152b36152ae6152a984615070565b61528e565b615070565b9050919050565b60006152c582615298565b9050919050565b60006152d7826152ba565b9050919050565b6152e7816152cc565b82525050565b600060208201905061530260008301846152de565b92915050565b600060ff82169050919050565b61531e81615308565b82525050565b60006020820190506153396000830184615315565b92915050565b60006020828403121561535557615354614ef0565b5b6000615363848285016150b9565b91505092915050565b61537581615090565b82525050565b6000602082019050615390600083018461536c565b92915050565b6000602082840312156153ac576153ab614ef0565b5b60006153ba848285016150ef565b91505092915050565b600063ffffffff82169050919050565b6153dc816153c3565b82525050565b60006020820190506153f760008301846153d3565b92915050565b600080fd5b600080fd5b7f4e487b7100000000000000000000000000000000000000000000000000000000600052604160045260246000fd5b61543f82615004565b810181811067ffffffffffffffff8211171561545e5761545d615407565b5b80604052505050565b6000615471614ee6565b905061547d8282615436565b919050565b600067ffffffffffffffff82111561549d5761549c615407565b5b6154a682615004565b9050602081019050919050565b82818337600083830152505050565b60006154d56154d084615482565b615467565b9050828152602081018484840111156154f1576154f0615402565b5b6154fc8482856154b3565b509392505050565b600082601f830112615519576155186153fd565b5b81356155298482602086016154c2565b91505092915050565b600061553d82615090565b9050919050565b61554d81615532565b811461555857600080fd5b50565b60008135905061556a81615544565b92915050565b600080600080600080600060e0888a03121561558f5761558e614ef0565b5b600088013567ffffffffffffffff8111156155ad576155ac614ef5565b5b6155b98a828b01615504565b975050602088013567ffffffffffffffff8111156155da576155d9614ef5565b5b6155e68a828b01615504565b96505060406155f78a828b0161555b565b95505060606156088a828b016150ef565b94505060806156198a828b016150ef565b93505060a061562a8a828b016150ef565b92505060c061563b8a828b016150ef565b91505092959891949750929550565b61565381615308565b811461565e57600080fd5b50565b6000813590506156708161564a565b92915050565b60008060008060008060c0878903121561569357615692614ef0565b5b60006156a189828a016150b9565b96505060206156b289828a016150ef565b95505060406156c389828a016150ef565b94505060606156d489828a01615661565b93505060806156e589828a016151e2565b92505060a06156f689828a016151e2565b9150509295509295509295565b6000819050919050565b61571681615703565b82525050565b6000602082019050615731600083018461570d565b92915050565b600080600080600080600060e0888a03121561575657615755614ef0565b5b60006157648a828b016150b9565b97505060206157758a828b016150b9565b96505060406157868a828b016150ef565b95505060606157978a828b016150ef565b94505060806157a88a828b01615661565b93505060a06157b98a828b016151e2565b92505060c06157ca8a828b016151e2565b91505092959891949750929550565b60008060008060008060008060006101208a8c0312156157fc576157fb614ef0565b5b600061580a8c828d016150b9565b995050602061581b8c828d016150b9565b985050604061582c8c828d016150ef565b975050606061583d8c828d016150ef565b965050608061584e8c828d01615661565b95505060a061585f8c828d016151e2565b94505060c06158708c828d016151e2565b93505060e06158818c828d016150b9565b9250506101006158938c828d016150ef565b9150509295985092959850929598565b600080604083850312156158ba576158b9614ef0565b5b60006158c8858286016150b9565b92505060206158d9858286016150b9565b9150509250929050565b6158ec816153c3565b81146158f757600080fd5b50565b600081359050615909816158e3565b92915050565b6000806040838503121561592657615925614ef0565b5b6000615934858286016150b9565b9250506020615945858286016158fa565b9150509250929050565b615958816153c3565b82525050565b60007bffffffffffffffffffffffffffffffffffffffffffffffffffffffff82169050919050565b61598f8161595e565b82525050565b6040820160008201516159ab600085018261594f565b5060208201516159be6020850182615986565b50505050565b60006040820190506159d96000830184615995565b92915050565b600080600080608085870312156159f9576159f8614ef0565b5b6000615a07878288016150ef565b9450506020615a18878288016150ef565b9350506040615a29878288016150b9565b9250506060615a3a878288016150ef565b91505092959194509250565b615a4f816150ce565b82525050565b604082016000820151615a6b6000850182615a46565b506020820151615a7e6020850182615a46565b50505050565b6000604082019050615a996000830184615a55565b92915050565b7f4e487b7100000000000000000000000000000000000000000000000000000000600052602260045260246000fd5b60006002820490506001821680615ae657607f821691505b60208210811415615afa57615af9615a9f565b5b50919050565b7f416363657373436f6e74726f6c3a2063616e206f6e6c792072656e6f756e636560008201527f20726f6c657320666f722073656c660000000000000000000000000000000000602082015250565b6000615b5c602f83614fc0565b9150615b6782615b00565b604082019050919050565b60006020820190508181036000830152615b8b81615b4f565b9050919050565b7f4e487b7100000000000000000000000000000000000000000000000000000000600052601160045260246000fd5b6000615bcc826150ce565b9150615bd7836150ce565b9250827fffffffffffffffffffffffffffffffffffffffffffffffffffffffffffffffff03821115615c0c57615c0b615b92565b5b828201905092915050565b7f4552433230566f7465733a20626c6f636b206e6f7420796574206d696e656400600082015250565b6000615c4d601f83614fc0565b9150615c5882615c17565b602082019050919050565b60006020820190508181036000830152615c7c81615c40565b9050919050565b7f564c46493a494e56414c49445f42414c414e43455f4f4e5f434f4f4c444f574e600082015250565b6000615cb9602083614fc0565b9150615cc482615c83565b602082019050919050565b60006020820190508181036000830152615ce881615cac565b9050919050565b6000615cfa826150ce565b9150615d05836150ce565b925082821015615d1857615d17615b92565b5b828203905092915050565b6000615d2e826150ce565b9150615d39836150ce565b9250817fffffffffffffffffffffffffffffffffffffffffffffffffffffffffffffffff0483118215151615615d7257615d71615b92565b5b828202905092915050565b7f4e487b7100000000000000000000000000000000000000000000000000000000600052601260045260246000fd5b6000615db7826150ce565b9150615dc2836150ce565b925082615dd257615dd1615d7d565b5b828204905092915050565b6000615de882615703565b9150615df383615703565b9250827f800000000000000000000000000000000000000000000000000000000000000001821260008412151615615e2e57615e2d615b92565b5b827f7fffffffffffffffffffffffffffffffffffffffffffffffffffffffffffffff018213600084121615615e6657615e65615b92565b5b828203905092915050565b7f496e697469616c697a61626c653a20636f6e747261637420697320616c72656160008201527f647920696e697469616c697a6564000000000000000000000000000000000000602082015250565b6000615ecd602e83614fc0565b9150615ed882615e71565b604082019050919050565b60006020820190508181036000830152615efc81615ec0565b9050919050565b7f4e487b7100000000000000000000000000000000000000000000000000000000600052603260045260246000fd5b7f45524332303a2064656372656173656420616c6c6f77616e63652062656c6f7760008201527f207a65726f000000000000000000000000000000000000000000000000000000602082015250565b6000615f8e602583614fc0565b9150615f9982615f32565b604082019050919050565b60006020820190508181036000830152615fbd81615f81565b9050919050565b7f564c46493a494e56414c49445f414d4f554e5400000000000000000000000000600082015250565b6000615ffa601383614fc0565b915061600582615fc4565b602082019050919050565b6000602082019050818103600083015261602981615fed565b9050919050565b600061603b82615703565b915061604683615703565b9250817f7fffffffffffffffffffffffffffffffffffffffffffffffffffffffffffffff0383136000831215161561608157616080615b92565b5b817f80000000000000000000000000000000000000000000000000000000000000000383126000831216156160b9576160b8615b92565b5b828201905092915050565b7f4552433230566f7465733a207369676e61747572652065787069726564000000600082015250565b60006160fa601d83614fc0565b9150616105826160c4565b602082019050919050565b60006020820190508181036000830152616129816160ed565b9050919050565b60006080820190506161456000830187615224565b616152602083018661536c565b61615f6040830185615144565b61616c6060830184615144565b95945050505050565b7f4552433230566f7465733a20696e76616c6964206e6f6e636500000000000000600082015250565b60006161ab601983614fc0565b91506161b682616175565b602082019050919050565b600060208201905081810360008301526161da8161619e565b9050919050565b7f45524332305065726d69743a206578706972656420646561646c696e65000000600082015250565b6000616217601d83614fc0565b9150616222826161e1565b602082019050919050565b600060208201905081810360008301526162468161620a565b9050919050565b600060c0820190506162626000830189615224565b61626f602083018861536c565b61627c604083018761536c565b6162896060830186615144565b6162966080830185615144565b6162a360a0830184615144565b979650505050505050565b7f45524332305065726d69743a20696e76616c6964207369676e61747572650000600082015250565b60006162e4601e83614fc0565b91506162ef826162ae565b602082019050919050565b60006020820190508181036000830152616313816162d7565b9050919050565b600060408201905061632f600083018561536c565b61633c6020830184615144565b9392505050565b600081519050616352816150d8565b92915050565b60006020828403121561636e5761636d614ef0565b5b600061637c84828501616343565b91505092915050565b7f564c46493a434f4f4c444f574e5f4e4f545f434f4d504c455445000000000000600082015250565b60006163bb601a83614fc0565b91506163c682616385565b602082019050919050565b600060208201905081810360008301526163ea816163ae565b9050919050565b7f564c46493a554e5354414b455f57494e444f575f46494e495348454400000000600082015250565b6000616427601c83614fc0565b9150616432826163f1565b602082019050919050565b600060208201905081810360008301526164568161641a565b9050919050565b7f45524332303a20617070726f76652066726f6d20746865207a65726f2061646460008201527f7265737300000000000000000000000000000000000000000000000000000000602082015250565b60006164b9602483614fc0565b91506164c48261645d565b604082019050919050565b600060208201905081810360008301526164e8816164ac565b9050919050565b7f45524332303a20617070726f766520746f20746865207a65726f20616464726560008201527f7373000000000000000000000000000000000000000000000000000000000000602082015250565b600061654b602283614fc0565b9150616556826164ef565b604082019050919050565b6000602082019050818103600083015261657a8161653e565b9050919050565b600081905092915050565b7f416363657373436f6e74726f6c3a206163636f756e7420000000000000000000600082015250565b60006165c2601783616581565b91506165cd8261658c565b601782019050919050565b60006165e382614fb5565b6165ed8185616581565b93506165fd818560208601614fd1565b80840191505092915050565b7f206973206d697373696e6720726f6c6520000000000000000000000000000000600082015250565b600061663f601183616581565b915061664a82616609565b601182019050919050565b6000616660826165b5565b915061666c82856165d8565b915061667782616632565b915061668382846165d8565b91508190509392505050565b7f45524332303a20696e73756666696369656e7420616c6c6f77616e6365000000600082015250565b60006166c5601d83614fc0565b91506166d08261668f565b602082019050919050565b600060208201905081810360008301526166f4816166b8565b9050919050565b7f53616665436173743a2076616c756520646f65736e27742066697420696e203360008201527f3220626974730000000000000000000000000000000000000000000000000000602082015250565b6000616757602683614fc0565b9150616762826166fb565b604082019050919050565b600060208201905081810360008301526167868161674a565b9050919050565b7f496e697469616c697a61626c653a20636f6e7472616374206973206e6f74206960008201527f6e697469616c697a696e67000000000000000000000000000000000000000000602082015250565b60006167e9602b83614fc0565b91506167f48261678d565b604082019050919050565b60006020820190508181036000830152616818816167dc565b9050919050565b6000606082019050616834600083018661536c565b616841602083018561536c565b61684e6040830184615144565b949350505050565b6000616861826150ce565b9150600082141561687557616874615b92565b5b600182039050919050565b7f537472696e67733a20686578206c656e67746820696e73756666696369656e74600082015250565b60006168b6602083614fc0565b91506168c182616880565b602082019050919050565b600060208201905081810360008301526168e5816168a9565b9050919050565b7f45524332303a207472616e736665722066726f6d20746865207a65726f20616460008201527f6472657373000000000000000000000000000000000000000000000000000000602082015250565b6000616948602583614fc0565b9150616953826168ec565b604082019050919050565b600060208201905081810360008301526169778161693b565b9050919050565b7f45524332303a207472616e7366657220746f20746865207a65726f206164647260008201527f6573730000000000000000000000000000000000000000000000000000000000602082015250565b60006169da602383614fc0565b91506169e58261697e565b604082019050919050565b60006020820190508181036000830152616a09816169cd565b9050919050565b7f45524332303a207472616e7366657220616d6f756e742065786365656473206260008201527f616c616e63650000000000000000000000000000000000000000000000000000602082015250565b6000616a6c602683614fc0565b9150616a7782616a10565b604082019050919050565b60006020820190508181036000830152616a9b81616a5f565b9050919050565b600060a082019050616ab76000830188615224565b616ac46020830187615224565b616ad16040830186615224565b616ade6060830185615144565b616aeb608083018461536c565b9695505050505050565b6000604082019050616b0a6000830185615144565b616b176020830184615144565b9392505050565b616b2781614f7f565b8114616b3257600080fd5b50565b600081519050616b4481616b1e565b92915050565b600060208284031215616b6057616b5f614ef0565b5b6000616b6e84828501616b35565b91505092915050565b7f5361666545524332303a204552433230206f7065726174696f6e20646964206e60008201527f6f74207375636365656400000000000000000000000000000000000000000000602082015250565b6000616bd3602a83614fc0565b9150616bde82616b77565b604082019050919050565b60006020820190508181036000830152616c0281616bc6565b9050919050565b7f4552433230566f7465733a20746f74616c20737570706c79207269736b73206f60008201527f766572666c6f77696e6720766f74657300000000000000000000000000000000602082015250565b6000616c65603083614fc0565b9150616c7082616c09565b604082019050919050565b60006020820190508181036000830152616c9481616c58565b9050919050565b7f1901000000000000000000000000000000000000000000000000000000000000600082015250565b6000616cd1600283616581565b9150616cdc82616c9b565b600282019050919050565b6000819050919050565b616d02616cfd826151c1565b616ce7565b82525050565b6000616d1382616cc4565b9150616d1f8285616cf1565b602082019150616d2f8284616cf1565b6020820191508190509392505050565b6000608082019050616d546000830187615224565b616d616020830186615315565b616d6e6040830185615224565b616d7b6060830184615224565b95945050505050565b7f4e487b7100000000000000000000000000000000000000000000000000000000600052602160045260246000fd5b7f45434453413a20696e76616c6964207369676e61747572650000000000000000600082015250565b6000616de9601883614fc0565b9150616df482616db3565b602082019050919050565b60006020820190508181036000830152616e1881616ddc565b9050919050565b7f45434453413a20696e76616c6964207369676e6174757265206c656e67746800600082015250565b6000616e55601f83614fc0565b9150616e6082616e1f565b602082019050919050565b60006020820190508181036000830152616e8481616e48565b9050919050565b7f45434453413a20696e76616c6964207369676e6174757265202773272076616c60008201527f7565000000000000000000000000000000000000000000000000000000000000602082015250565b6000616ee7602283614fc0565b9150616ef282616e8b565b604082019050919050565b60006020820190508181036000830152616f1681616eda565b9050919050565b7f45434453413a20696e76616c6964207369676e6174757265202776272076616c60008201527f7565000000000000000000000000000000000000000000000000000000000000602082015250565b6000616f79602283614fc0565b9150616f8482616f1d565b604082019050919050565b60006020820190508181036000830152616fa881616f6c565b9050919050565b7f45524332303a206d696e7420746f20746865207a65726f206164647265737300600082015250565b6000616fe5601f83614fc0565b9150616ff082616faf565b602082019050919050565b6000602082019050818103600083015261701481616fd8565b9050919050565b7f45524332303a206275726e2066726f6d20746865207a65726f2061646472657360008201527f7300000000000000000000000000000000000000000000000000000000000000602082015250565b6000617077602183614fc0565b91506170828261701b565b604082019050919050565b600060208201905081810360008301526170a68161706a565b9050919050565b7f45524332303a206275726e20616d6f756e7420657863656564732062616c616e60008201527f6365000000000000000000000000000000000000000000000000000000000000602082015250565b6000617109602283614fc0565b9150617114826170ad565b604082019050919050565b60006020820190508181036000830152617138816170fc565b9050919050565b7f53616665436173743a2076616c756520646f65736e27742066697420696e203260008201527f3234206269747300000000000000000000000000000000000000000000000000602082015250565b600061719b602783614fc0565b91506171a68261713f565b604082019050919050565b600060208201905081810360008301526171ca8161718e565b9050919050565b7f416464726573733a20696e73756666696369656e742062616c616e636520666f60008201527f722063616c6c0000000000000000000000000000000000000000000000000000602082015250565b600061722d602683614fc0565b9150617238826171d1565b604082019050919050565b6000602082019050818103600083015261725c81617220565b9050919050565b7f416464726573733a2063616c6c20746f206e6f6e2d636f6e7472616374000000600082015250565b6000617299601d83614fc0565b91506172a482617263565b602082019050919050565b600060208201905081810360008301526172c88161728c565b9050919050565b600081519050919050565b600081905092915050565b60006172f0826172cf565b6172fa81856172da565b935061730a818560208601614fd1565b80840191505092915050565b600061732282846172e5565b91508190509291505056fea26469706673582212206ca99fae36e9f80ac2433ee97bc3bcb664aaeeeea20221267ef6e1876477615264736f6c634300080a0033",
  "linkReferences": {},
  "deployedLinkReferences": {}
}