{
  "_format": "hh-sol-artifact-1",
  "contractName": "VLFI",
  "sourceName": "contracts/VLFI.sol",
  "abi": [
    {
      "anonymous": false,
      "inputs": [
        {
          "indexed": true,
          "internalType": "address",
          "name": "owner",
          "type": "address"
        },
        {
          "indexed": true,
          "internalType": "address",
          "name": "spender",
          "type": "address"
        },
        {
          "indexed": false,
          "internalType": "uint256",
          "name": "value",
          "type": "uint256"
        }
      ],
      "name": "Approval",
      "type": "event"
    },
    {
      "anonymous": false,
      "inputs": [
        {
          "indexed": true,
          "internalType": "address",
          "name": "user",
          "type": "address"
        }
      ],
      "name": "CooldownActivated",
      "type": "event"
    },
    {
      "anonymous": false,
      "inputs": [
        {
          "indexed": true,
          "internalType": "address",
          "name": "delegator",
          "type": "address"
        },
        {
          "indexed": true,
          "internalType": "address",
          "name": "fromDelegate",
          "type": "address"
        },
        {
          "indexed": true,
          "internalType": "address",
          "name": "toDelegate",
          "type": "address"
        }
      ],
      "name": "DelegateChanged",
      "type": "event"
    },
    {
      "anonymous": false,
      "inputs": [
        {
          "indexed": true,
          "internalType": "address",
          "name": "delegate",
          "type": "address"
        },
        {
          "indexed": false,
          "internalType": "uint256",
          "name": "previousBalance",
          "type": "uint256"
        },
        {
          "indexed": false,
          "internalType": "uint256",
          "name": "newBalance",
          "type": "uint256"
        }
      ],
      "name": "DelegateVotesChanged",
      "type": "event"
    },
    {
      "anonymous": false,
      "inputs": [
        {
          "indexed": true,
          "internalType": "address",
          "name": "from",
          "type": "address"
        },
        {
          "indexed": true,
          "internalType": "address",
          "name": "to",
          "type": "address"
        },
        {
          "indexed": false,
          "internalType": "uint256",
          "name": "amount",
          "type": "uint256"
        }
      ],
      "name": "RewardsClaimed",
      "type": "event"
    },
    {
      "anonymous": false,
      "inputs": [
        {
          "indexed": true,
          "internalType": "bytes32",
          "name": "role",
          "type": "bytes32"
        },
        {
          "indexed": true,
          "internalType": "bytes32",
          "name": "previousAdminRole",
          "type": "bytes32"
        },
        {
          "indexed": true,
          "internalType": "bytes32",
          "name": "newAdminRole",
          "type": "bytes32"
        }
      ],
      "name": "RoleAdminChanged",
      "type": "event"
    },
    {
      "anonymous": false,
      "inputs": [
        {
          "indexed": true,
          "internalType": "bytes32",
          "name": "role",
          "type": "bytes32"
        },
        {
          "indexed": true,
          "internalType": "address",
          "name": "account",
          "type": "address"
        },
        {
          "indexed": true,
          "internalType": "address",
          "name": "sender",
          "type": "address"
        }
      ],
      "name": "RoleGranted",
      "type": "event"
    },
    {
      "anonymous": false,
      "inputs": [
        {
          "indexed": true,
          "internalType": "bytes32",
          "name": "role",
          "type": "bytes32"
        },
        {
          "indexed": true,
          "internalType": "address",
          "name": "account",
          "type": "address"
        },
        {
          "indexed": true,
          "internalType": "address",
          "name": "sender",
          "type": "address"
        }
      ],
      "name": "RoleRevoked",
      "type": "event"
    },
    {
      "anonymous": false,
      "inputs": [
        {
          "indexed": true,
          "internalType": "address",
          "name": "from",
          "type": "address"
        },
        {
          "indexed": true,
          "internalType": "address",
          "name": "onBehalfOf",
          "type": "address"
        },
        {
          "indexed": false,
          "internalType": "uint256",
          "name": "amount",
          "type": "uint256"
        }
      ],
      "name": "Staked",
      "type": "event"
    },
    {
      "anonymous": false,
      "inputs": [
        {
          "indexed": true,
          "internalType": "address",
          "name": "from",
          "type": "address"
        },
        {
          "indexed": true,
          "internalType": "address",
          "name": "to",
          "type": "address"
        },
        {
          "indexed": false,
          "internalType": "uint256",
          "name": "value",
          "type": "uint256"
        }
      ],
      "name": "Transfer",
      "type": "event"
    },
    {
      "anonymous": false,
      "inputs": [
        {
          "indexed": true,
          "internalType": "address",
          "name": "from",
          "type": "address"
        },
        {
          "indexed": true,
          "internalType": "address",
          "name": "to",
          "type": "address"
        },
        {
          "indexed": false,
          "internalType": "uint256",
          "name": "amount",
          "type": "uint256"
        }
      ],
      "name": "UnStaked",
      "type": "event"
    },
    {
      "inputs": [],
      "name": "DEFAULT_ADMIN_ROLE",
      "outputs": [
        {
          "internalType": "bytes32",
          "name": "",
          "type": "bytes32"
        }
      ],
      "stateMutability": "view",
      "type": "function"
    },
    {
      "inputs": [],
      "name": "DOMAIN_SEPARATOR",
      "outputs": [
        {
          "internalType": "bytes32",
          "name": "",
          "type": "bytes32"
        }
      ],
      "stateMutability": "view",
      "type": "function"
    },
    {
      "inputs": [],
      "name": "MANAGER_ROLE",
      "outputs": [
        {
          "internalType": "bytes32",
          "name": "",
          "type": "bytes32"
        }
      ],
      "stateMutability": "view",
      "type": "function"
    },
    {
      "inputs": [],
      "name": "STAKED_TOKEN",
      "outputs": [
        {
          "internalType": "contract ILFIToken",
          "name": "",
          "type": "address"
        }
      ],
      "stateMutability": "view",
      "type": "function"
    },
    {
      "inputs": [],
      "name": "activateCooldown",
      "outputs": [],
      "stateMutability": "nonpayable",
      "type": "function"
    },
    {
      "inputs": [
        {
          "internalType": "address",
          "name": "owner",
          "type": "address"
        },
        {
          "internalType": "address",
          "name": "spender",
          "type": "address"
        }
      ],
      "name": "allowance",
      "outputs": [
        {
          "internalType": "uint256",
          "name": "",
          "type": "uint256"
        }
      ],
      "stateMutability": "view",
      "type": "function"
    },
    {
      "inputs": [
        {
          "internalType": "address",
          "name": "spender",
          "type": "address"
        },
        {
          "internalType": "uint256",
          "name": "amount",
          "type": "uint256"
        }
      ],
      "name": "approve",
      "outputs": [
        {
          "internalType": "bool",
          "name": "",
          "type": "bool"
        }
      ],
      "stateMutability": "nonpayable",
      "type": "function"
    },
    {
      "inputs": [
        {
          "internalType": "address",
          "name": "account",
          "type": "address"
        }
      ],
      "name": "balanceOf",
      "outputs": [
        {
          "internalType": "uint256",
          "name": "",
          "type": "uint256"
        }
      ],
      "stateMutability": "view",
      "type": "function"
    },
    {
      "inputs": [
        {
          "internalType": "address",
          "name": "account",
          "type": "address"
        },
        {
          "internalType": "uint32",
          "name": "pos",
          "type": "uint32"
        }
      ],
      "name": "checkpoints",
      "outputs": [
        {
          "components": [
            {
              "internalType": "uint32",
              "name": "fromBlock",
              "type": "uint32"
            },
            {
              "internalType": "uint224",
              "name": "votes",
              "type": "uint224"
            }
          ],
          "internalType": "struct ERC20VotesUpgradeable.Checkpoint",
          "name": "",
          "type": "tuple"
        }
      ],
      "stateMutability": "view",
      "type": "function"
    },
    {
      "inputs": [
        {
          "internalType": "address",
          "name": "to",
          "type": "address"
        }
      ],
      "name": "claimRewards",
      "outputs": [],
      "stateMutability": "nonpayable",
      "type": "function"
    },
    {
      "inputs": [],
      "name": "createFarm",
      "outputs": [],
      "stateMutability": "nonpayable",
      "type": "function"
    },
    {
      "inputs": [],
      "name": "decimals",
      "outputs": [
        {
          "internalType": "uint8",
          "name": "",
          "type": "uint8"
        }
      ],
      "stateMutability": "view",
      "type": "function"
    },
    {
      "inputs": [
        {
          "internalType": "address",
          "name": "spender",
          "type": "address"
        },
        {
          "internalType": "uint256",
          "name": "subtractedValue",
          "type": "uint256"
        }
      ],
      "name": "decreaseAllowance",
      "outputs": [
        {
          "internalType": "bool",
          "name": "",
          "type": "bool"
        }
      ],
      "stateMutability": "nonpayable",
      "type": "function"
    },
    {
      "inputs": [
        {
          "internalType": "address",
          "name": "delegatee",
          "type": "address"
        }
      ],
      "name": "delegate",
      "outputs": [],
      "stateMutability": "nonpayable",
      "type": "function"
    },
    {
      "inputs": [
        {
          "internalType": "address",
          "name": "delegatee",
          "type": "address"
        },
        {
          "internalType": "uint256",
          "name": "nonce",
          "type": "uint256"
        },
        {
          "internalType": "uint256",
          "name": "expiry",
          "type": "uint256"
        },
        {
          "internalType": "uint8",
          "name": "v",
          "type": "uint8"
        },
        {
          "internalType": "bytes32",
          "name": "r",
          "type": "bytes32"
        },
        {
          "internalType": "bytes32",
          "name": "s",
          "type": "bytes32"
        }
      ],
      "name": "delegateBySig",
      "outputs": [],
      "stateMutability": "nonpayable",
      "type": "function"
    },
    {
      "inputs": [
        {
          "internalType": "address",
          "name": "account",
          "type": "address"
        }
      ],
      "name": "delegates",
      "outputs": [
        {
          "internalType": "address",
          "name": "",
          "type": "address"
        }
      ],
      "stateMutability": "view",
      "type": "function"
    },
    {
      "inputs": [],
      "name": "getAccRewardPerShare",
      "outputs": [
        {
          "internalType": "uint256",
          "name": "",
          "type": "uint256"
        }
      ],
      "stateMutability": "view",
      "type": "function"
    },
    {
      "inputs": [
        {
          "internalType": "address",
          "name": "staker",
          "type": "address"
        }
      ],
      "name": "getCooldown",
      "outputs": [
        {
          "internalType": "uint256",
          "name": "",
          "type": "uint256"
        }
      ],
      "stateMutability": "view",
      "type": "function"
    },
    {
      "inputs": [],
      "name": "getCooldownSeconds",
      "outputs": [
        {
          "internalType": "uint256",
          "name": "",
          "type": "uint256"
        }
      ],
      "stateMutability": "view",
      "type": "function"
    },
    {
      "inputs": [],
      "name": "getLastRewardTime",
      "outputs": [
        {
          "internalType": "uint256",
          "name": "",
          "type": "uint256"
        }
      ],
      "stateMutability": "view",
      "type": "function"
    },
    {
      "inputs": [],
      "name": "getLiquidityStatus",
      "outputs": [
        {
          "internalType": "uint256",
          "name": "",
          "type": "uint256"
        }
      ],
      "stateMutability": "view",
      "type": "function"
    },
    {
      "inputs": [
        {
          "internalType": "uint256",
          "name": "userCooldownTimestamp",
          "type": "uint256"
        },
        {
          "internalType": "uint256",
          "name": "amountToReceive",
          "type": "uint256"
        },
        {
          "internalType": "address",
          "name": "toAddress",
          "type": "address"
        },
        {
          "internalType": "uint256",
          "name": "toBalance",
          "type": "uint256"
        }
      ],
      "name": "getNextCooldownTimestamp",
      "outputs": [
        {
          "internalType": "uint256",
          "name": "",
          "type": "uint256"
        }
      ],
      "stateMutability": "view",
      "type": "function"
    },
    {
      "inputs": [
        {
          "internalType": "uint256",
          "name": "blockNumber",
          "type": "uint256"
        }
      ],
      "name": "getPastTotalSupply",
      "outputs": [
        {
          "internalType": "uint256",
          "name": "",
          "type": "uint256"
        }
      ],
      "stateMutability": "view",
      "type": "function"
    },
    {
      "inputs": [
        {
          "internalType": "address",
          "name": "account",
          "type": "address"
        },
        {
          "internalType": "uint256",
          "name": "blockNumber",
          "type": "uint256"
        }
      ],
      "name": "getPastVotes",
      "outputs": [
        {
          "internalType": "uint256",
          "name": "",
          "type": "uint256"
        }
      ],
      "stateMutability": "view",
      "type": "function"
    },
    {
      "inputs": [],
      "name": "getRewardPerSecond",
      "outputs": [
        {
          "internalType": "uint256",
          "name": "",
          "type": "uint256"
        }
      ],
      "stateMutability": "view",
      "type": "function"
    },
    {
      "inputs": [
        {
          "internalType": "address",
          "name": "benefitor",
          "type": "address"
        }
      ],
      "name": "getRewards",
      "outputs": [
        {
          "internalType": "uint256",
          "name": "pendingRewards",
          "type": "uint256"
        }
      ],
      "stateMutability": "view",
      "type": "function"
    },
    {
      "inputs": [
        {
          "internalType": "bytes32",
          "name": "role",
          "type": "bytes32"
        }
      ],
      "name": "getRoleAdmin",
      "outputs": [
        {
          "internalType": "bytes32",
          "name": "",
          "type": "bytes32"
        }
      ],
      "stateMutability": "view",
      "type": "function"
    },
    {
      "inputs": [],
      "name": "getUnstakeWindowTime",
      "outputs": [
        {
          "internalType": "uint256",
          "name": "",
          "type": "uint256"
        }
      ],
      "stateMutability": "view",
      "type": "function"
    },
    {
      "inputs": [
        {
          "internalType": "address",
          "name": "user",
          "type": "address"
        }
      ],
      "name": "getUserLFIDeposits",
      "outputs": [
        {
          "internalType": "uint256",
          "name": "",
          "type": "uint256"
        }
      ],
      "stateMutability": "view",
      "type": "function"
    },
    {
      "inputs": [
        {
          "internalType": "address",
          "name": "benefitor",
          "type": "address"
        }
      ],
      "name": "getUserRewardDebt",
      "outputs": [
        {
          "internalType": "int256",
          "name": "",
          "type": "int256"
        }
      ],
      "stateMutability": "view",
      "type": "function"
    },
    {
      "inputs": [
        {
          "internalType": "address",
          "name": "benefitor",
          "type": "address"
        }
      ],
      "name": "getUserVLFIAmount",
      "outputs": [
        {
          "internalType": "uint256",
          "name": "",
          "type": "uint256"
        }
      ],
      "stateMutability": "view",
      "type": "function"
    },
    {
      "inputs": [
        {
          "internalType": "address",
          "name": "account",
          "type": "address"
        }
      ],
      "name": "getVotes",
      "outputs": [
        {
          "internalType": "uint256",
          "name": "",
          "type": "uint256"
        }
      ],
      "stateMutability": "view",
      "type": "function"
    },
    {
      "inputs": [
        {
          "internalType": "bytes32",
          "name": "role",
          "type": "bytes32"
        },
        {
          "internalType": "address",
          "name": "account",
          "type": "address"
        }
      ],
      "name": "grantRole",
      "outputs": [],
      "stateMutability": "nonpayable",
      "type": "function"
    },
    {
      "inputs": [
        {
          "internalType": "bytes32",
          "name": "role",
          "type": "bytes32"
        },
        {
          "internalType": "address",
          "name": "account",
          "type": "address"
        }
      ],
      "name": "hasRole",
      "outputs": [
        {
          "internalType": "bool",
          "name": "",
          "type": "bool"
        }
      ],
      "stateMutability": "view",
      "type": "function"
    },
    {
      "inputs": [
        {
          "internalType": "address",
          "name": "spender",
          "type": "address"
        },
        {
          "internalType": "uint256",
          "name": "addedValue",
          "type": "uint256"
        }
      ],
      "name": "increaseAllowance",
      "outputs": [
        {
          "internalType": "bool",
          "name": "",
          "type": "bool"
        }
      ],
      "stateMutability": "nonpayable",
      "type": "function"
    },
    {
      "inputs": [
        {
          "internalType": "string",
          "name": "name",
          "type": "string"
        },
        {
          "internalType": "string",
          "name": "symbol",
          "type": "string"
        },
        {
          "internalType": "contract ILFIToken",
          "name": "stakedToken",
          "type": "address"
        },
        {
          "internalType": "uint256",
          "name": "cooldownSeconds",
          "type": "uint256"
        },
        {
          "internalType": "uint256",
          "name": "unstakeWindow",
          "type": "uint256"
        },
        {
          "internalType": "uint256",
          "name": "rewardsPerSecond",
          "type": "uint256"
        },
        {
          "internalType": "uint256",
          "name": "treasuryWithdrawlPercentage",
          "type": "uint256"
        }
      ],
      "name": "initialize",
      "outputs": [],
      "stateMutability": "nonpayable",
      "type": "function"
    },
    {
      "inputs": [],
      "name": "maxTreasuryWithdrawalPercentage",
      "outputs": [
        {
          "internalType": "uint256",
          "name": "",
          "type": "uint256"
        }
      ],
      "stateMutability": "view",
      "type": "function"
    },
    {
      "inputs": [],
      "name": "name",
      "outputs": [
        {
          "internalType": "string",
          "name": "",
          "type": "string"
        }
      ],
      "stateMutability": "view",
      "type": "function"
    },
    {
      "inputs": [
        {
          "internalType": "address",
          "name": "owner",
          "type": "address"
        }
      ],
      "name": "nonces",
      "outputs": [
        {
          "internalType": "uint256",
          "name": "",
          "type": "uint256"
        }
      ],
      "stateMutability": "view",
      "type": "function"
    },
    {
      "inputs": [
        {
          "internalType": "address",
          "name": "account",
          "type": "address"
        }
      ],
      "name": "numCheckpoints",
      "outputs": [
        {
          "internalType": "uint32",
          "name": "",
          "type": "uint32"
        }
      ],
      "stateMutability": "view",
      "type": "function"
    },
    {
      "inputs": [
        {
          "internalType": "address",
          "name": "owner",
          "type": "address"
        },
        {
          "internalType": "address",
          "name": "spender",
          "type": "address"
        },
        {
          "internalType": "uint256",
          "name": "value",
          "type": "uint256"
        },
        {
          "internalType": "uint256",
          "name": "deadline",
          "type": "uint256"
        },
        {
          "internalType": "uint8",
          "name": "v",
          "type": "uint8"
        },
        {
          "internalType": "bytes32",
          "name": "r",
          "type": "bytes32"
        },
        {
          "internalType": "bytes32",
          "name": "s",
          "type": "bytes32"
        }
      ],
      "name": "permit",
      "outputs": [],
      "stateMutability": "nonpayable",
      "type": "function"
    },
    {
      "inputs": [
        {
          "internalType": "address",
          "name": "owner",
          "type": "address"
        },
        {
          "internalType": "address",
          "name": "spender",
          "type": "address"
        },
        {
          "internalType": "uint256",
          "name": "value",
          "type": "uint256"
        },
        {
          "internalType": "uint256",
          "name": "deadline",
          "type": "uint256"
        },
        {
          "internalType": "uint8",
          "name": "v",
          "type": "uint8"
        },
        {
          "internalType": "bytes32",
          "name": "r",
          "type": "bytes32"
        },
        {
          "internalType": "bytes32",
          "name": "s",
          "type": "bytes32"
        },
        {
          "internalType": "address",
          "name": "onBehalfOf",
          "type": "address"
        },
        {
          "internalType": "uint256",
          "name": "LFIamount",
          "type": "uint256"
        }
      ],
      "name": "permitAndStake",
      "outputs": [],
      "stateMutability": "nonpayable",
      "type": "function"
    },
    {
      "inputs": [
        {
          "internalType": "bytes32",
          "name": "role",
          "type": "bytes32"
        },
        {
          "internalType": "address",
          "name": "account",
          "type": "address"
        }
      ],
      "name": "renounceRole",
      "outputs": [],
      "stateMutability": "nonpayable",
      "type": "function"
    },
    {
      "inputs": [
        {
          "internalType": "bytes32",
          "name": "role",
          "type": "bytes32"
        },
        {
          "internalType": "address",
          "name": "account",
          "type": "address"
        }
      ],
      "name": "revokeRole",
      "outputs": [],
      "stateMutability": "nonpayable",
      "type": "function"
    },
    {
      "inputs": [
        {
          "internalType": "uint256",
          "name": "coolDownSeconds",
          "type": "uint256"
        }
      ],
      "name": "setCooldownSeconds",
      "outputs": [],
      "stateMutability": "nonpayable",
      "type": "function"
    },
    {
      "inputs": [
        {
          "internalType": "uint256",
          "name": "percentage",
          "type": "uint256"
        }
      ],
      "name": "setMaxTreasuryWithdrawalPercentage",
      "outputs": [],
      "stateMutability": "nonpayable",
      "type": "function"
    },
    {
      "inputs": [
        {
          "internalType": "uint256",
          "name": "_rewardPerSecond",
          "type": "uint256"
        }
      ],
      "name": "setRewardPerSecond",
      "outputs": [],
      "stateMutability": "nonpayable",
      "type": "function"
    },
    {
      "inputs": [
        {
          "internalType": "uint256",
          "name": "unstakeWindow",
          "type": "uint256"
        }
      ],
      "name": "setUnstakeWindowTime",
      "outputs": [],
      "stateMutability": "nonpayable",
      "type": "function"
    },
    {
      "inputs": [
        {
          "internalType": "address",
          "name": "onBehalfOf",
          "type": "address"
        },
        {
          "internalType": "uint256",
          "name": "amount",
          "type": "uint256"
        }
      ],
      "name": "stake",
      "outputs": [],
      "stateMutability": "nonpayable",
      "type": "function"
    },
    {
      "inputs": [
        {
          "internalType": "bytes4",
          "name": "interfaceId",
          "type": "bytes4"
        }
      ],
      "name": "supportsInterface",
      "outputs": [
        {
          "internalType": "bool",
          "name": "",
          "type": "bool"
        }
      ],
      "stateMutability": "view",
      "type": "function"
    },
    {
      "inputs": [],
      "name": "symbol",
      "outputs": [
        {
          "internalType": "string",
          "name": "",
          "type": "string"
        }
      ],
      "stateMutability": "view",
      "type": "function"
    },
    {
      "inputs": [],
      "name": "totalSupply",
      "outputs": [
        {
          "internalType": "uint256",
          "name": "",
          "type": "uint256"
        }
      ],
      "stateMutability": "view",
      "type": "function"
    },
    {
      "inputs": [
        {
          "internalType": "address",
          "name": "to",
          "type": "address"
        },
        {
          "internalType": "uint256",
          "name": "amount",
          "type": "uint256"
        }
      ],
      "name": "transfer",
      "outputs": [
        {
          "internalType": "bool",
          "name": "",
          "type": "bool"
        }
      ],
      "stateMutability": "nonpayable",
      "type": "function"
    },
    {
      "inputs": [
        {
          "internalType": "address",
          "name": "from",
          "type": "address"
        },
        {
          "internalType": "address",
          "name": "to",
          "type": "address"
        },
        {
          "internalType": "uint256",
          "name": "amount",
          "type": "uint256"
        }
      ],
      "name": "transferFrom",
      "outputs": [
        {
          "internalType": "bool",
          "name": "",
          "type": "bool"
        }
      ],
      "stateMutability": "nonpayable",
      "type": "function"
    },
    {
      "inputs": [
        {
          "internalType": "address",
          "name": "to",
          "type": "address"
        },
        {
          "internalType": "uint256",
          "name": "treasuryWithdrawal",
          "type": "uint256"
        }
      ],
      "name": "transferToTreasury",
      "outputs": [],
      "stateMutability": "nonpayable",
      "type": "function"
    },
    {
      "inputs": [
        {
          "internalType": "address",
          "name": "to",
          "type": "address"
        },
        {
          "internalType": "uint256",
          "name": "amount",
          "type": "uint256"
        }
      ],
      "name": "unStake",
      "outputs": [],
      "stateMutability": "nonpayable",
      "type": "function"
    },
    {
      "inputs": [
        {
          "internalType": "address",
          "name": "to",
          "type": "address"
        }
      ],
      "name": "unStakeMax",
      "outputs": [],
      "stateMutability": "nonpayable",
      "type": "function"
    },
    {
      "inputs": [],
      "name": "updateFarm",
      "outputs": [
        {
          "components": [
            {
              "internalType": "uint256",
              "name": "accRewardsPerShare",
              "type": "uint256"
            },
            {
              "internalType": "uint256",
              "name": "lastRewardTime",
              "type": "uint256"
            }
          ],
          "internalType": "struct VLFI.FarmInfo",
          "name": "farm",
          "type": "tuple"
        }
      ],
      "stateMutability": "nonpayable",
      "type": "function"
    }
  ],
  "bytecode": "0x608060405234801561001057600080fd5b50613c65806100206000396000f3fe608060405234801561001057600080fd5b506004361061038e5760003560e01c806379ee54f7116101de578063adc9772e1161010f578063d9393814116100ad578063ef5cfb8c1161007c578063ef5cfb8c1461080c578063f1127ed81461081f578063f1cc432a1461085c578063f54ca63c1461086f57600080fd5b8063d9393814146107a2578063da5b4ee7146107b5578063dd62ed3e146107be578063ec87621c146107f757600080fd5b8063d505accf116100e9578063d505accf1461075f578063d547741f14610772578063d876246f14610785578063d92aec591461078f57600080fd5b8063adc9772e1461070c578063c3cda5201461071f578063c61fbcc51461073257600080fd5b80639a00a6a31161017c578063a217fddf11610156578063a217fddf146106cb578063a457c2d7146106d3578063a9059cbb146106e6578063ad88918f146106f957600080fd5b80639a00a6a31461067b5780639ab24eb0146106a55780639dd267e6146106b857600080fd5b80637ecebe00116101b85780637ecebe001461063a5780638e539e8c1461064d57806391d148541461066057806395d89b411461067357600080fd5b806379ee54f7146106015780637a45c441146106145780637b5b11571461062757600080fd5b806339b84ecf116102c35780635ac3ce12116102615780636c07d9fe116102305780636c07d9fe146105935780636fcfff451461059c57806370a08231146105c4578063733d07be146105d757600080fd5b80635ac3ce12146105515780635c19a95c14610564578063616e0bf91461057757806366da58151461058057600080fd5b80633c0717fd1161029d5780633c0717fd1461050a5780633e340dae146105135780634853b3b21461051c578063587cde1e1461052457600080fd5b806339b84ecf146104ba5780633a46b1a8146104e45780633a8f437e146104f757600080fd5b8063248a9ca311610330578063313ce5671161030a578063313ce5671461047d5780633644e5151461048c57806336568abe1461049457806339509351146104a757600080fd5b8063248a9ca31461041b5780632f2ff15d1461043e578063312f6b831461045157600080fd5b806318160ddd1161036c57806318160ddd146103e35780631d5ec3cb146103f55780631f477ea9146103ff57806323b872dd1461040857600080fd5b806301ffc9a71461039357806306fdde03146103bb578063095ea7b3146103d0575b600080fd5b6103a66103a13660046133e8565b610892565b60405190151581526020015b60405180910390f35b6103c36108c9565b6040516103b2919061343e565b6103a66103de366004613486565b61095b565b6067545b6040519081526020016103b2565b6103fd610973565b005b610166546103e7565b6103a66104163660046134b2565b6109af565b6103e76104293660046134f3565b600090815260fe602052604090206001015490565b6103fd61044c36600461350c565b6109d3565b61016254610465906001600160a01b031681565b6040516001600160a01b0390911681526020016103b2565b604051601281526020016103b2565b6103e76109fe565b6103fd6104a236600461350c565b610a0d565b6103a66104b5366004613486565b610a90565b6103e76104c836600461353c565b6001600160a01b0316600090815261016b602052604090205490565b6103e76104f2366004613486565b610acf565b6103fd61050536600461353c565b610b4a565b610163546103e7565b61016a546103e7565b6103fd610b6e565b61046561053236600461353c565b6001600160a01b03908116600090815261013060205260409020541690565b6103fd61055f3660046134f3565b610bfe565b6103fd61057236600461353c565b610c1e565b610165546103e7565b6103fd61058e3660046134f3565b610c2b565b610169546103e7565b6105af6105aa36600461353c565b610c4b565b60405163ffffffff90911681526020016103b2565b6103e76105d236600461353c565b610c6e565b6103e76105e536600461353c565b6001600160a01b0316600090815261016d602052604090205490565b6103e761060f36600461353c565b610c89565b6103fd6106223660046135fc565b610d6f565b6103fd6106353660046134f3565b610ec0565b6103e761064836600461353c565b610ee0565b6103e761065b3660046134f3565b610efe565b6103a661066e36600461350c565b610f5b565b6103c3610f86565b6103e761068936600461353c565b6001600160a01b0316600090815261016c602052604090205490565b6103e76106b336600461353c565b610f95565b6103fd6106c6366004613486565b61101e565b6103e7600081565b6103a66106e1366004613486565b6110e6565b6103a66106f4366004613486565b611178565b6103fd6107073660046134f3565b611186565b6103fd61071a366004613486565b6111a6565b6103fd61072d3660046136ad565b6113f3565b6103e761074036600461353c565b6001600160a01b0316600090815261016d602052604090206001015490565b6103fd61076d366004613707565b611529565b6103fd61078036600461350c565b61166f565b6103e76101685481565b6103fd61079d366004613775565b611695565b6103fd6107b0366004613486565b611737565b610167546103e7565b6103e76107cc366004613802565b6001600160a01b03918216600090815260666020908152604080832093909416825291909152205490565b6103e7600080516020613c1083398151915281565b6103fd61081a36600461353c565b611ae2565b61083261082d366004613830565b611c00565b60408051825163ffffffff1681526020928301516001600160e01b031692810192909252016103b2565b6103e761086a366004613867565b611c85565b610877611d48565b604080518251815260209283015192810192909252016103b2565b60006001600160e01b03198216637965db0b60e01b14806108c357506301ffc9a760e01b6001600160e01b03198316145b92915050565b6060606880546108d8906138a6565b80601f0160208091040260200160405190810160405280929190818152602001828054610904906138a6565b80156109515780601f1061092657610100808354040283529160200191610951565b820191906000526020600020905b81548152906001019060200180831161093457829003601f168201915b5050505050905090565b600033610969818585611dfe565b5060019392505050565b600080516020613c1083398151915261098c8133611f22565b506040805180820190915260008082524260209092018290526101695561016a55565b6000336109bd858285611f86565b6109c8858585612018565b506001949350505050565b600082815260fe60205260409020600101546109ef8133611f22565b6109f983836121a6565b505050565b6000610a0861222c565b905090565b6001600160a01b0381163314610a825760405162461bcd60e51b815260206004820152602f60248201527f416363657373436f6e74726f6c3a2063616e206f6e6c792072656e6f756e636560448201526e103937b632b9903337b91039b2b63360891b60648201526084015b60405180910390fd5b610a8c82826122a7565b5050565b3360008181526066602090815260408083206001600160a01b03871684529091528120549091906109699082908690610aca9087906138f1565b611dfe565b6000438210610b205760405162461bcd60e51b815260206004820152601f60248201527f4552433230566f7465733a20626c6f636b206e6f7420796574206d696e6564006044820152606401610a79565b6001600160a01b038316600090815261013160205260409020610b43908361230e565b9392505050565b6001600160a01b038116600090815261016c6020526040902054610a8c8282611737565b610b7733610c6e565b610bc35760405162461bcd60e51b815260206004820181905260248201527f564c46493a494e56414c49445f42414c414e43455f4f4e5f434f4f4c444f574e6044820152606401610a79565b33600081815261016b6020526040808220429055517f06458eacc93d062b1d92c6575f39b0c1d64541d6881846fecef52a42c7c800089190a2565b600080516020613c10833981519152610c178133611f22565b5061016855565b610c2833826123cb565b50565b600080516020613c10833981519152610c448133611f22565b5061016755565b6001600160a01b038116600090815261013160205260408120546108c39061245c565b6001600160a01b031660009081526065602052604090205490565b60408051808201825261016954815261016a546020808301919091526001600160a01b038416600090815261016d909152918220815183610cc960675490565b9050836020015142118015610cdd57508015155b15610d35576000846020015142610cf49190613909565b905060006101675482610d079190613920565b905082610d1c670de0b6b3a764000083613920565b610d26919061393f565b610d3090856138f1565b935050505b60018301548354670de0b6b3a764000090610d51908590613920565b610d5b919061393f565b610d659190613961565b9695505050505050565b600054610100900460ff16610d8a5760005460ff1615610d8e565b303b155b610df15760405162461bcd60e51b815260206004820152602e60248201527f496e697469616c697a61626c653a20636f6e747261637420697320616c72656160448201526d191e481a5b9a5d1a585b1a5e995960921b6064820152608401610a79565b600054610100900460ff16158015610e13576000805461ffff19166101011790555b610e1d88886124c5565b610e26886124f6565b61016280546001600160a01b0319166001600160a01b038816179055610165859055610166849055610e5a6012600a613a84565b610e66906103e8613920565b61016455610168829055610e7b6000336121a6565b610e93600080516020613c10833981519152336121a6565b610e9c83610c2b565b610ea4610973565b8015610eb6576000805461ff00191690555b5050505050505050565b600080516020613c10833981519152610ed98133611f22565b5061016555565b6001600160a01b038116600090815260cb60205260408120546108c3565b6000438210610f4f5760405162461bcd60e51b815260206004820152601f60248201527f4552433230566f7465733a20626c6f636b206e6f7420796574206d696e6564006044820152606401610a79565b6108c36101328361230e565b600091825260fe602090815260408084206001600160a01b0393909316845291905290205460ff1690565b6060606980546108d8906138a6565b6001600160a01b03811660009081526101316020526040812054801561100b576001600160a01b038316600090815261013160205260409020610fd9600183613909565b81548110610fe957610fe9613a90565b60009182526020909120015464010000000090046001600160e01b031661100e565b60005b6001600160e01b03169392505050565b600080516020613c108339815191526110378133611f22565b6000612710610168546101635461104e9190613920565b611058919061393f565b90508083111561106757600080fd5b6101625460405163a9059cbb60e01b81526001600160a01b038681166004830152602482018690529091169063a9059cbb906044016020604051808303816000875af11580156110bb573d6000803e3d6000fd5b505050506040513d601f19601f820116820180604052508101906110df9190613aa6565b5050505050565b3360008181526066602090815260408083206001600160a01b03871684529091528120549091908381101561116b5760405162461bcd60e51b815260206004820152602560248201527f45524332303a2064656372656173656420616c6c6f77616e63652062656c6f77604482015264207a65726f60d81b6064820152608401610a79565b6109c88286868403611dfe565b600033610969818585612018565b600080516020613c1083398151915261119f8133611f22565b5061016655565b806111e95760405162461bcd60e51b8152602060048201526013602482015272159311924e9253959053125117d05353d55395606a1b6044820152606401610a79565b60006111f483610c6e565b90506000611200611d48565b33600090815261016d60205260409020610164549192509061122a85670de0b6b3a7640000613920565b611234919061393f565b81600001600082825461124791906138f1565b9091555050815161016454670de0b6b3a764000091906112678784613920565b611271919061393f565b61127b9190613920565b611285919061393f565b8160010160008282546112989190613ac8565b909155505033600090815261016c6020526040812080548692906112bd9084906138f1565b925050819055508361016360008282546112d791906138f1565b909155506112ea90506000858786611c85565b6001600160a01b038616600090815261016b60205260409020556101645461132f90869061132087670de0b6b3a7640000613920565b61132a919061393f565b612549565b610162546040516323b872dd60e01b8152336004820152306024820152604481018690526001600160a01b03909116906323b872dd906064016020604051808303816000875af1158015611387573d6000803e3d6000fd5b505050506040513d601f19601f820116820180604052508101906113ab9190613aa6565b506040518481526001600160a01b0386169033907f5dac0c1b1112564a045ba943c9d50270893e8e826c49be8e7073adc713ab7bd79060200160405180910390a35050505050565b834211156114435760405162461bcd60e51b815260206004820152601d60248201527f4552433230566f7465733a207369676e617475726520657870697265640000006044820152606401610a79565b604080517fe48329057bfd03d55e49b547132e39cffd9c1820ad7b9d4c5307691425d15adf60208201526001600160a01b0388169181019190915260608101869052608081018590526000906114bd906114b59060a00160405160208183030381529060405280519060200120612553565b8585856125a1565b90506114c8816125bf565b86146115165760405162461bcd60e51b815260206004820152601960248201527f4552433230566f7465733a20696e76616c6964206e6f6e6365000000000000006044820152606401610a79565b61152081886123cb565b50505050505050565b834211156115795760405162461bcd60e51b815260206004820152601d60248201527f45524332305065726d69743a206578706972656420646561646c696e650000006044820152606401610a79565b600060cc5488888861158a8c6125bf565b6040805160208101969096526001600160a01b0394851690860152929091166060840152608083015260a082015260c0810186905260e00160405160208183030381529060405280519060200120905060006115e582612553565b905060006115f5828787876125a1565b9050896001600160a01b0316816001600160a01b0316146116585760405162461bcd60e51b815260206004820152601e60248201527f45524332305065726d69743a20696e76616c6964207369676e617475726500006044820152606401610a79565b6116638a8a8a611dfe565b50505050505050505050565b600082815260fe602052604090206001015461168b8133611f22565b6109f983836122a7565b6101625460405163d505accf60e01b81526001600160a01b038b811660048301528a81166024830152604482018a90526064820189905260ff8816608483015260a4820187905260c482018690529091169063d505accf9060e401600060405180830381600087803b15801561170a57600080fd5b505af115801561171e573d6000803e3d6000fd5b5050505061172c82826111a6565b505050505050505050565b80158015906117b25750610162546040516370a0823160e01b81523360048201526001600160a01b03909116906370a0823190602401602060405180830381865afa15801561178a573d6000803e3d6000fd5b505050506040513d601f19601f820116820180604052508101906117ae9190613b09565b8111155b6117f45760405162461bcd60e51b8152602060048201526013602482015272159311924e9253959053125117d05353d55395606a1b6044820152606401610a79565b33600090815261016b60205260409020546101655461181390826138f1565b42116118615760405162461bcd60e51b815260206004820152601a60248201527f564c46493a434f4f4c444f574e5f4e4f545f434f4d504c4554450000000000006044820152606401610a79565b610166546101655461187390836138f1565b61187d9042613909565b11156118cb5760405162461bcd60e51b815260206004820152601c60248201527f564c46493a554e5354414b455f57494e444f575f46494e4953484544000000006044820152606401610a79565b60006118d633610c6e565b905060006118e2611d48565b33600090815261016d602052604090206101645482519293509091670de0b6b3a764000091906119128884613920565b61191c9190613920565b611926919061393f565b611930919061393f565b8160010160008282546119439190613961565b90915550506101645461195e86670de0b6b3a7640000613920565b611968919061393f565b81600001600082825461197b9190613909565b909155505033600090815261016c6020526040812080548792906119a0908490613909565b925050819055508461016360008282546119ba9190613909565b9091555050610164546119ea9033906119db88670de0b6b3a7640000613920565b6119e5919061393f565b6125e7565b61016454611a0086670de0b6b3a7640000613920565b611a0a919061393f565b611a149084613909565b611a2a5733600090815261016b60205260408120555b6101625460405163a9059cbb60e01b81526001600160a01b038881166004830152602482018890529091169063a9059cbb906044016020604051808303816000875af1158015611a7e573d6000803e3d6000fd5b505050506040513d601f19601f82011682018060405250810190611aa29190613aa6565b50604051858152339081907f8a3c16627a0e7a870a5d5cd0121ca5d80e2efd0ec7198a11644f1a516ac370939060200160405180910390a3505050505050565b6000611aec611d48565b33600090815261016d60205260408120825181549394509092670de0b6b3a764000091611b1891613920565b611b22919061393f565b90506000826001015482611b369190613961565b600184018390556040518181529091506001600160a01b0386169033907f9310ccfcb8de723f578a9e4282ea9f521f05ae40dc08f3068dfad528a65ee3c79060200160405180910390a36101625460405163a9059cbb60e01b81526001600160a01b038781166004830152602482018490529091169063a9059cbb906044016020604051808303816000875af1158015611bd4573d6000803e3d6000fd5b505050506040513d601f19601f82011682018060405250810190611bf89190613aa6565b505050505050565b60408051808201909152600080825260208201526001600160a01b038316600090815261013160205260409020805463ffffffff8416908110611c4557611c45613a90565b60009182526020918290206040805180820190915291015463ffffffff8116825264010000000090046001600160e01b0316918101919091529392505050565b6001600160a01b038216600090815261016b602052604081205480611cae576000915050611d40565b6000610166546101655442611cc39190613909565b611ccd9190613909565b905081811115611ce05760009150611d3c565b6000878211611cef5787611cf1565b425b905082811015611d0657829350505050611d40565b611d1085886138f1565b611d1a8487613920565b611d24838a613920565b611d2e91906138f1565b611d38919061393f565b9250505b5090505b949350505050565b6040805180820182526000808252602091820152815180830190925261016954825261016a54908201819052421115611dfb576000611d8660675490565b90508015611de7576000826020015142611da09190613909565b905060006101675482611db39190613920565b905082611dc8670de0b6b3a764000083613920565b611dd2919061393f565b84518590611de19083906138f1565b90525050505b50426020820181905281516101695561016a555b90565b6001600160a01b038316611e605760405162461bcd60e51b8152602060048201526024808201527f45524332303a20617070726f76652066726f6d20746865207a65726f206164646044820152637265737360e01b6064820152608401610a79565b6001600160a01b038216611ec15760405162461bcd60e51b815260206004820152602260248201527f45524332303a20617070726f766520746f20746865207a65726f206164647265604482015261737360f01b6064820152608401610a79565b6001600160a01b0383811660008181526066602090815260408083209487168084529482529182902085905590518481527f8c5be1e5ebec7d5bd14f71427d1e84f3dd0314c0f7b2291e5b200ac8c7c3b925910160405180910390a3505050565b611f2c8282610f5b565b610a8c57611f44816001600160a01b031660146125f1565b611f4f8360206125f1565b604051602001611f60929190613b22565b60408051601f198184030181529082905262461bcd60e51b8252610a799160040161343e565b6001600160a01b03838116600090815260666020908152604080832093861683529290522054600019811461201257818110156120055760405162461bcd60e51b815260206004820152601d60248201527f45524332303a20696e73756666696369656e7420616c6c6f77616e63650000006044820152606401610a79565b6120128484848403611dfe565b50505050565b600061202384610c6e565b9050600061202f611d48565b6001600160a01b038616600090815261016d60205260409020815191925090670de0b6b3a7640000906120629086613920565b61206c919061393f565b81600101600082825461207f9190613961565b9091555050805484908290600090612098908490613909565b90915550506001600160a01b038681169086161461219b5760006120bb86610c6e565b6001600160a01b038716600090815261016d60205260409020845191925090670de0b6b3a7640000906120ee9088613920565b6120f8919061393f565b81600101600082825461210b9190613ac8565b90915550508054869082906000906121249084906138f1565b90915550506001600160a01b038816600090815261016b602052604090205461214f81888a86611c85565b6001600160a01b038916600090815261016b6020526040902055858714801561217757508015155b15612197576001600160a01b038916600090815261016b60205260408120555b5050505b611bf886868661278d565b6121b08282610f5b565b610a8c57600082815260fe602090815260408083206001600160a01b03851684529091529020805460ff191660011790556121e83390565b6001600160a01b0316816001600160a01b0316837f2f8788117e7eff1d82e926ec794901d17c78024a50270940304540a733656f0d60405160405180910390a45050565b6000610a087f8b73c3c69bb8fe3d512ecc4cf759cc79239f7b179b0ffacaa9a75d522b39400f61225b60975490565b6098546040805160208101859052908101839052606081018290524660808201523060a082015260009060c0016040516020818303038152906040528051906020012090509392505050565b6122b18282610f5b565b15610a8c57600082815260fe602090815260408083206001600160a01b0385168085529252808320805460ff1916905551339285917ff6391f5c32d9c69d2a47ea670b442974b53935d1edc7fd64eb21e047a839171b9190a45050565b8154600090815b818110156123725760006123298284612961565b90508486828154811061233e5761233e613a90565b60009182526020909120015463ffffffff16111561235e5780925061236c565b6123698160016138f1565b91505b50612315565b81156123b65784612384600184613909565b8154811061239457612394613a90565b60009182526020909120015464010000000090046001600160e01b03166123b9565b60005b6001600160e01b031695945050505050565b6001600160a01b0382811660009081526101306020526040812054909116906123f384610c6e565b6001600160a01b038581166000818152610130602052604080822080546001600160a01b031916898616908117909155905194955093928616927f3134e8a2e6d97e929a7e54011ea5485d7d196dd5f0ba4d4ef95803e8e3fc257f9190a461201282848361297c565b600063ffffffff8211156124c15760405162461bcd60e51b815260206004820152602660248201527f53616665436173743a2076616c756520646f65736e27742066697420696e203360448201526532206269747360d01b6064820152608401610a79565b5090565b600054610100900460ff166124ec5760405162461bcd60e51b8152600401610a7990613b97565b610a8c8282612abb565b600054610100900460ff1661251d5760405162461bcd60e51b8152600401610a7990613b97565b61254081604051806040016040528060018152602001603160f81b815250612b09565b610c2881612b4a565b610a8c8282612b98565b60006108c361256061222c565b8360405161190160f01b6020820152602281018390526042810182905260009060620160405160208183030381529060405280519060200120905092915050565b60008060006125b287878787612c23565b91509150611d3c81612d10565b6001600160a01b038116600090815260cb602052604090208054600181018255905b50919050565b610a8c8282612ecb565b60606000612600836002613920565b61260b9060026138f1565b67ffffffffffffffff81111561262357612623613559565b6040519080825280601f01601f19166020018201604052801561264d576020820181803683370190505b509050600360fc1b8160008151811061266857612668613a90565b60200101906001600160f81b031916908160001a905350600f60fb1b8160018151811061269757612697613a90565b60200101906001600160f81b031916908160001a90535060006126bb846002613920565b6126c69060016138f1565b90505b600181111561273e576f181899199a1a9b1b9c1cb0b131b232b360811b85600f16601081106126fa576126fa613a90565b1a60f81b82828151811061271057612710613a90565b60200101906001600160f81b031916908160001a90535060049490941c9361273781613be2565b90506126c9565b508315610b435760405162461bcd60e51b815260206004820181905260248201527f537472696e67733a20686578206c656e67746820696e73756666696369656e746044820152606401610a79565b6001600160a01b0383166127f15760405162461bcd60e51b815260206004820152602560248201527f45524332303a207472616e736665722066726f6d20746865207a65726f206164604482015264647265737360d81b6064820152608401610a79565b6001600160a01b0382166128535760405162461bcd60e51b815260206004820152602360248201527f45524332303a207472616e7366657220746f20746865207a65726f206164647260448201526265737360e81b6064820152608401610a79565b6001600160a01b038316600090815260656020526040902054818110156128cb5760405162461bcd60e51b815260206004820152602660248201527f45524332303a207472616e7366657220616d6f756e7420657863656564732062604482015265616c616e636560d01b6064820152608401610a79565b6001600160a01b038085166000908152606560205260408082208585039055918516815290812080548492906129029084906138f1565b92505081905550826001600160a01b0316846001600160a01b03167fddf252ad1be2c89b69c2b068fc378daa952ba7f163c4a11628f55a4df523b3ef8460405161294e91815260200190565b60405180910390a3612012848484612ee4565b6000612970600284841861393f565b610b43908484166138f1565b816001600160a01b0316836001600160a01b03161415801561299e5750600081115b156109f9576001600160a01b03831615612a2d576001600160a01b03831660009081526101316020526040812081906129da90612eef85612efb565b91509150846001600160a01b03167fdec2bacdd2f05b59de34da9b523dff8be42e5e38e818c82fdb0bae774387a7248383604051612a22929190918252602082015260400190565b60405180910390a250505b6001600160a01b038216156109f9576001600160a01b0382166000908152610131602052604081208190612a649061307485612efb565b91509150836001600160a01b03167fdec2bacdd2f05b59de34da9b523dff8be42e5e38e818c82fdb0bae774387a7248383604051612aac929190918252602082015260400190565b60405180910390a25050505050565b600054610100900460ff16612ae25760405162461bcd60e51b8152600401610a7990613b97565b8151612af5906068906020850190613358565b5080516109f9906069906020840190613358565b600054610100900460ff16612b305760405162461bcd60e51b8152600401610a7990613b97565b815160209283012081519190920120609791909155609855565b600054610100900460ff16612b715760405162461bcd60e51b8152600401610a7990613b97565b507f6e71edae12b1b97f4d1f60370fef10105fa2faae0126114a169c64845d6126c960cc55565b612ba28282613080565b6067546001600160e01b031015612c145760405162461bcd60e51b815260206004820152603060248201527f4552433230566f7465733a20746f74616c20737570706c79207269736b73206f60448201526f766572666c6f77696e6720766f74657360801b6064820152608401610a79565b61201261013261307483612efb565b6000807f7fffffffffffffffffffffffffffffff5d576e7357a4501ddfe92f46681b20a0831115612c5a5750600090506003612d07565b8460ff16601b14158015612c7257508460ff16601c14155b15612c835750600090506004612d07565b6040805160008082526020820180845289905260ff881692820192909252606081018690526080810185905260019060a0016020604051602081039080840390855afa158015612cd7573d6000803e3d6000fd5b5050604051601f1901519150506001600160a01b038116612d0057600060019250925050612d07565b9150600090505b94509492505050565b6000816004811115612d2457612d24613bf9565b1415612d2d5750565b6001816004811115612d4157612d41613bf9565b1415612d8f5760405162461bcd60e51b815260206004820152601860248201527f45434453413a20696e76616c6964207369676e617475726500000000000000006044820152606401610a79565b6002816004811115612da357612da3613bf9565b1415612df15760405162461bcd60e51b815260206004820152601f60248201527f45434453413a20696e76616c6964207369676e6174757265206c656e677468006044820152606401610a79565b6003816004811115612e0557612e05613bf9565b1415612e5e5760405162461bcd60e51b815260206004820152602260248201527f45434453413a20696e76616c6964207369676e6174757265202773272076616c604482015261756560f01b6064820152608401610a79565b6004816004811115612e7257612e72613bf9565b1415610c285760405162461bcd60e51b815260206004820152602260248201527f45434453413a20696e76616c6964207369676e6174757265202776272076616c604482015261756560f01b6064820152608401610a79565b612ed58282613167565b612012610132612eef83612efb565b6109f98383836132bc565b6000610b438284613909565b825460009081908015612f465785612f14600183613909565b81548110612f2457612f24613a90565b60009182526020909120015464010000000090046001600160e01b0316612f49565b60005b6001600160e01b03169250612f6283858763ffffffff16565b9150600081118015612fa057504386612f7c600184613909565b81548110612f8c57612f8c613a90565b60009182526020909120015463ffffffff16145b1561300057612fae826132ef565b86612fba600184613909565b81548110612fca57612fca613a90565b9060005260206000200160000160046101000a8154816001600160e01b0302191690836001600160e01b0316021790555061306b565b8560405180604001604052806130154361245c565b63ffffffff168152602001613029856132ef565b6001600160e01b0390811690915282546001810184556000938452602093849020835194909301519091166401000000000263ffffffff909316929092179101555b50935093915050565b6000610b4382846138f1565b6001600160a01b0382166130d65760405162461bcd60e51b815260206004820152601f60248201527f45524332303a206d696e7420746f20746865207a65726f2061646472657373006044820152606401610a79565b80606760008282546130e891906138f1565b90915550506001600160a01b038216600090815260656020526040812080548392906131159084906138f1565b90915550506040518181526001600160a01b038316906000907fddf252ad1be2c89b69c2b068fc378daa952ba7f163c4a11628f55a4df523b3ef9060200160405180910390a3610a8c60008383612ee4565b6001600160a01b0382166131c75760405162461bcd60e51b815260206004820152602160248201527f45524332303a206275726e2066726f6d20746865207a65726f206164647265736044820152607360f81b6064820152608401610a79565b6001600160a01b0382166000908152606560205260409020548181101561323b5760405162461bcd60e51b815260206004820152602260248201527f45524332303a206275726e20616d6f756e7420657863656564732062616c616e604482015261636560f01b6064820152608401610a79565b6001600160a01b038316600090815260656020526040812083830390556067805484929061326a908490613909565b90915550506040518281526000906001600160a01b038516907fddf252ad1be2c89b69c2b068fc378daa952ba7f163c4a11628f55a4df523b3ef9060200160405180910390a36109f983600084612ee4565b6001600160a01b03838116600090815261013060205260408082205485841683529120546109f99291821691168361297c565b60006001600160e01b038211156124c15760405162461bcd60e51b815260206004820152602760248201527f53616665436173743a2076616c756520646f65736e27742066697420696e20326044820152663234206269747360c81b6064820152608401610a79565b828054613364906138a6565b90600052602060002090601f01602090048101928261338657600085556133cc565b82601f1061339f57805160ff19168380011785556133cc565b828001600101855582156133cc579182015b828111156133cc5782518255916020019190600101906133b1565b506124c19291505b808211156124c157600081556001016133d4565b6000602082840312156133fa57600080fd5b81356001600160e01b031981168114610b4357600080fd5b60005b8381101561342d578181015183820152602001613415565b838111156120125750506000910152565b602081526000825180602084015261345d816040850160208701613412565b601f01601f19169190910160400192915050565b6001600160a01b0381168114610c2857600080fd5b6000806040838503121561349957600080fd5b82356134a481613471565b946020939093013593505050565b6000806000606084860312156134c757600080fd5b83356134d281613471565b925060208401356134e281613471565b929592945050506040919091013590565b60006020828403121561350557600080fd5b5035919050565b6000806040838503121561351f57600080fd5b82359150602083013561353181613471565b809150509250929050565b60006020828403121561354e57600080fd5b8135610b4381613471565b634e487b7160e01b600052604160045260246000fd5b600082601f83011261358057600080fd5b813567ffffffffffffffff8082111561359b5761359b613559565b604051601f8301601f19908116603f011681019082821181831017156135c3576135c3613559565b816040528381528660208588010111156135dc57600080fd5b836020870160208301376000602085830101528094505050505092915050565b600080600080600080600060e0888a03121561361757600080fd5b873567ffffffffffffffff8082111561362f57600080fd5b61363b8b838c0161356f565b985060208a013591508082111561365157600080fd5b5061365e8a828b0161356f565b965050604088013561366f81613471565b969995985095966060810135965060808101359560a0820135955060c0909101359350915050565b803560ff811681146136a857600080fd5b919050565b60008060008060008060c087890312156136c657600080fd5b86356136d181613471565b955060208701359450604087013593506136ed60608801613697565b92506080870135915060a087013590509295509295509295565b600080600080600080600060e0888a03121561372257600080fd5b873561372d81613471565b9650602088013561373d81613471565b9550604088013594506060880135935061375960808901613697565b925060a0880135915060c0880135905092959891949750929550565b60008060008060008060008060006101208a8c03121561379457600080fd5b893561379f81613471565b985060208a01356137af81613471565b975060408a0135965060608a013595506137cb60808b01613697565b945060a08a0135935060c08a0135925060e08a01356137e981613471565b809250506101008a013590509295985092959850929598565b6000806040838503121561381557600080fd5b823561382081613471565b9150602083013561353181613471565b6000806040838503121561384357600080fd5b823561384e81613471565b9150602083013563ffffffff8116811461353157600080fd5b6000806000806080858703121561387d57600080fd5b8435935060208501359250604085013561389681613471565b9396929550929360600135925050565b600181811c908216806138ba57607f821691505b602082108114156125e157634e487b7160e01b600052602260045260246000fd5b634e487b7160e01b600052601160045260246000fd5b60008219821115613904576139046138db565b500190565b60008282101561391b5761391b6138db565b500390565b600081600019048311821515161561393a5761393a6138db565b500290565b60008261395c57634e487b7160e01b600052601260045260246000fd5b500490565b60008083128015600160ff1b85018412161561397f5761397f6138db565b6001600160ff1b038401831381161561399a5761399a6138db565b50500390565b600181815b808511156139db5781600019048211156139c1576139c16138db565b808516156139ce57918102915b93841c93908002906139a5565b509250929050565b6000826139f2575060016108c3565b816139ff575060006108c3565b8160018114613a155760028114613a1f57613a3b565b60019150506108c3565b60ff841115613a3057613a306138db565b50506001821b6108c3565b5060208310610133831016604e8410600b8410161715613a5e575081810a6108c3565b613a6883836139a0565b8060001904821115613a7c57613a7c6138db565b029392505050565b6000610b4383836139e3565b634e487b7160e01b600052603260045260246000fd5b600060208284031215613ab857600080fd5b81518015158114610b4357600080fd5b600080821280156001600160ff1b0384900385131615613aea57613aea6138db565b600160ff1b8390038412811615613b0357613b036138db565b50500190565b600060208284031215613b1b57600080fd5b5051919050565b7f416363657373436f6e74726f6c3a206163636f756e7420000000000000000000815260008351613b5a816017850160208801613412565b7001034b99036b4b9b9b4b733903937b6329607d1b6017918401918201528351613b8b816028840160208801613412565b01602801949350505050565b6020808252602b908201527f496e697469616c697a61626c653a20636f6e7472616374206973206e6f74206960408201526a6e697469616c697a696e6760a81b606082015260800190565b600081613bf157613bf16138db565b506000190190565b634e487b7160e01b600052602160045260246000fdfe241ecf16d79d0f8dbfb92cbc07fe17840425976cf0667f022fe9877caa831b08a2646970667358221220558063f2fe6e400d0810b91db8385aa013d4fb8e7e60aa17f061fca1ca4decc864736f6c634300080a0033",
  "linkReferences": {},
  "deployedLinkReferences": {}
}