{
  "_format": "hh-sol-artifact-1",
  "contractName": "VLFI",
  "sourceName": "contracts/VLFI.sol",
  "abi": [
    {
      "inputs": [
        {
          "internalType": "string",
          "name": "name",
          "type": "string"
        },
        {
          "internalType": "string",
          "name": "symbol",
          "type": "string"
        },
        {
          "internalType": "contract IERC20",
          "name": "stakedToken",
          "type": "address"
        },
        {
          "internalType": "uint256",
          "name": "cooldownSeconds",
          "type": "uint256"
        },
        {
          "internalType": "uint256",
          "name": "unstakeWindow",
          "type": "uint256"
        },
        {
          "internalType": "uint256",
          "name": "rewardsPerSecond",
          "type": "uint256"
        },
        {
          "internalType": "uint256",
          "name": "treasuryWithdrawlPercentage",
          "type": "uint256"
        }
      ],
      "stateMutability": "nonpayable",
      "type": "constructor"
    },
    {
      "anonymous": false,
      "inputs": [
        {
          "indexed": true,
          "internalType": "address",
          "name": "owner",
          "type": "address"
        },
        {
          "indexed": true,
          "internalType": "address",
          "name": "spender",
          "type": "address"
        },
        {
          "indexed": false,
          "internalType": "uint256",
          "name": "value",
          "type": "uint256"
        }
      ],
      "name": "Approval",
      "type": "event"
    },
    {
      "anonymous": false,
      "inputs": [
        {
          "indexed": true,
          "internalType": "address",
          "name": "user",
          "type": "address"
        }
      ],
      "name": "CooldownActivated",
      "type": "event"
    },
    {
      "anonymous": false,
      "inputs": [
        {
          "indexed": true,
          "internalType": "address",
          "name": "from",
          "type": "address"
        },
        {
          "indexed": true,
          "internalType": "address",
          "name": "to",
          "type": "address"
        },
        {
          "indexed": false,
          "internalType": "uint256",
          "name": "amount",
          "type": "uint256"
        }
      ],
      "name": "RewardsClaimed",
      "type": "event"
    },
    {
      "anonymous": false,
      "inputs": [
        {
          "indexed": true,
          "internalType": "bytes32",
          "name": "role",
          "type": "bytes32"
        },
        {
          "indexed": true,
          "internalType": "bytes32",
          "name": "previousAdminRole",
          "type": "bytes32"
        },
        {
          "indexed": true,
          "internalType": "bytes32",
          "name": "newAdminRole",
          "type": "bytes32"
        }
      ],
      "name": "RoleAdminChanged",
      "type": "event"
    },
    {
      "anonymous": false,
      "inputs": [
        {
          "indexed": true,
          "internalType": "bytes32",
          "name": "role",
          "type": "bytes32"
        },
        {
          "indexed": true,
          "internalType": "address",
          "name": "account",
          "type": "address"
        },
        {
          "indexed": true,
          "internalType": "address",
          "name": "sender",
          "type": "address"
        }
      ],
      "name": "RoleGranted",
      "type": "event"
    },
    {
      "anonymous": false,
      "inputs": [
        {
          "indexed": true,
          "internalType": "bytes32",
          "name": "role",
          "type": "bytes32"
        },
        {
          "indexed": true,
          "internalType": "address",
          "name": "account",
          "type": "address"
        },
        {
          "indexed": true,
          "internalType": "address",
          "name": "sender",
          "type": "address"
        }
      ],
      "name": "RoleRevoked",
      "type": "event"
    },
    {
      "anonymous": false,
      "inputs": [
        {
          "indexed": true,
          "internalType": "address",
          "name": "from",
          "type": "address"
        },
        {
          "indexed": true,
          "internalType": "address",
          "name": "onBehalfOf",
          "type": "address"
        },
        {
          "indexed": false,
          "internalType": "uint256",
          "name": "amount",
          "type": "uint256"
        }
      ],
      "name": "Staked",
      "type": "event"
    },
    {
      "anonymous": false,
      "inputs": [
        {
          "indexed": true,
          "internalType": "address",
          "name": "from",
          "type": "address"
        },
        {
          "indexed": true,
          "internalType": "address",
          "name": "to",
          "type": "address"
        },
        {
          "indexed": false,
          "internalType": "uint256",
          "name": "value",
          "type": "uint256"
        }
      ],
      "name": "Transfer",
      "type": "event"
    },
    {
      "anonymous": false,
      "inputs": [
        {
          "indexed": true,
          "internalType": "address",
          "name": "from",
          "type": "address"
        },
        {
          "indexed": true,
          "internalType": "address",
          "name": "to",
          "type": "address"
        },
        {
          "indexed": false,
          "internalType": "uint256",
          "name": "amount",
          "type": "uint256"
        }
      ],
      "name": "UnStaked",
      "type": "event"
    },
    {
      "inputs": [],
      "name": "DEFAULT_ADMIN_ROLE",
      "outputs": [
        {
          "internalType": "bytes32",
          "name": "",
          "type": "bytes32"
        }
      ],
      "stateMutability": "view",
      "type": "function"
    },
    {
      "inputs": [],
      "name": "DOMAIN_SEPARATOR",
      "outputs": [
        {
          "internalType": "bytes32",
          "name": "",
          "type": "bytes32"
        }
      ],
      "stateMutability": "view",
      "type": "function"
    },
    {
      "inputs": [],
      "name": "MANAGER_ROLE",
      "outputs": [
        {
          "internalType": "bytes32",
          "name": "",
          "type": "bytes32"
        }
      ],
      "stateMutability": "view",
      "type": "function"
    },
    {
      "inputs": [],
      "name": "STAKED_TOKEN",
      "outputs": [
        {
          "internalType": "contract IERC20",
          "name": "",
          "type": "address"
        }
      ],
      "stateMutability": "view",
      "type": "function"
    },
    {
      "inputs": [],
      "name": "activateCooldown",
      "outputs": [],
      "stateMutability": "nonpayable",
      "type": "function"
    },
    {
      "inputs": [
        {
          "internalType": "address",
          "name": "owner",
          "type": "address"
        },
        {
          "internalType": "address",
          "name": "spender",
          "type": "address"
        }
      ],
      "name": "allowance",
      "outputs": [
        {
          "internalType": "uint256",
          "name": "",
          "type": "uint256"
        }
      ],
      "stateMutability": "view",
      "type": "function"
    },
    {
      "inputs": [
        {
          "internalType": "address",
          "name": "spender",
          "type": "address"
        },
        {
          "internalType": "uint256",
          "name": "amount",
          "type": "uint256"
        }
      ],
      "name": "approve",
      "outputs": [
        {
          "internalType": "bool",
          "name": "",
          "type": "bool"
        }
      ],
      "stateMutability": "nonpayable",
      "type": "function"
    },
    {
      "inputs": [
        {
          "internalType": "address",
          "name": "account",
          "type": "address"
        }
      ],
      "name": "balanceOf",
      "outputs": [
        {
          "internalType": "uint256",
          "name": "",
          "type": "uint256"
        }
      ],
      "stateMutability": "view",
      "type": "function"
    },
    {
      "inputs": [
        {
          "internalType": "address",
          "name": "to",
          "type": "address"
        }
      ],
      "name": "claimRewards",
      "outputs": [],
      "stateMutability": "nonpayable",
      "type": "function"
    },
    {
      "inputs": [],
      "name": "createFarm",
      "outputs": [],
      "stateMutability": "nonpayable",
      "type": "function"
    },
    {
      "inputs": [],
      "name": "decimals",
      "outputs": [
        {
          "internalType": "uint8",
          "name": "",
          "type": "uint8"
        }
      ],
      "stateMutability": "view",
      "type": "function"
    },
    {
      "inputs": [
        {
          "internalType": "address",
          "name": "spender",
          "type": "address"
        },
        {
          "internalType": "uint256",
          "name": "subtractedValue",
          "type": "uint256"
        }
      ],
      "name": "decreaseAllowance",
      "outputs": [
        {
          "internalType": "bool",
          "name": "",
          "type": "bool"
        }
      ],
      "stateMutability": "nonpayable",
      "type": "function"
    },
    {
      "inputs": [
        {
          "internalType": "address",
          "name": "staker",
          "type": "address"
        }
      ],
      "name": "getCooldown",
      "outputs": [
        {
          "internalType": "uint256",
          "name": "",
          "type": "uint256"
        }
      ],
      "stateMutability": "view",
      "type": "function"
    },
    {
      "inputs": [],
      "name": "getCooldownSeconds",
      "outputs": [
        {
          "internalType": "uint256",
          "name": "",
          "type": "uint256"
        }
      ],
      "stateMutability": "view",
      "type": "function"
    },
    {
      "inputs": [],
      "name": "getFarmAccRewardPerShare",
      "outputs": [
        {
          "internalType": "uint256",
          "name": "",
          "type": "uint256"
        }
      ],
      "stateMutability": "view",
      "type": "function"
    },
    {
      "inputs": [],
      "name": "getFarmLastRewardTime",
      "outputs": [
        {
          "internalType": "uint256",
          "name": "",
          "type": "uint256"
        }
      ],
      "stateMutability": "view",
      "type": "function"
    },
    {
      "inputs": [],
      "name": "getLiquidityStatus",
      "outputs": [
        {
          "internalType": "uint256",
          "name": "",
          "type": "uint256"
        }
      ],
      "stateMutability": "view",
      "type": "function"
    },
    {
      "inputs": [
        {
          "internalType": "uint256",
          "name": "userCooldownTimestamp",
          "type": "uint256"
        },
        {
          "internalType": "uint256",
          "name": "amountToReceive",
          "type": "uint256"
        },
        {
          "internalType": "address",
          "name": "toAddress",
          "type": "address"
        },
        {
          "internalType": "uint256",
          "name": "toBalance",
          "type": "uint256"
        }
      ],
      "name": "getNextCooldownTimestamp",
      "outputs": [
        {
          "internalType": "uint256",
          "name": "",
          "type": "uint256"
        }
      ],
      "stateMutability": "view",
      "type": "function"
    },
    {
      "inputs": [
        {
          "internalType": "address",
          "name": "benefitor",
          "type": "address"
        }
      ],
      "name": "getRewards",
      "outputs": [
        {
          "internalType": "uint256",
          "name": "pendingRewards",
          "type": "uint256"
        }
      ],
      "stateMutability": "view",
      "type": "function"
    },
    {
      "inputs": [
        {
          "internalType": "bytes32",
          "name": "role",
          "type": "bytes32"
        }
      ],
      "name": "getRoleAdmin",
      "outputs": [
        {
          "internalType": "bytes32",
          "name": "",
          "type": "bytes32"
        }
      ],
      "stateMutability": "view",
      "type": "function"
    },
    {
      "inputs": [],
      "name": "getUnstakeWindowTime",
      "outputs": [
        {
          "internalType": "uint256",
          "name": "",
          "type": "uint256"
        }
      ],
      "stateMutability": "view",
      "type": "function"
    },
    {
      "inputs": [
        {
          "internalType": "address",
          "name": "user",
          "type": "address"
        }
      ],
      "name": "getUserLFIDeposits",
      "outputs": [
        {
          "internalType": "uint256",
          "name": "",
          "type": "uint256"
        }
      ],
      "stateMutability": "view",
      "type": "function"
    },
    {
      "inputs": [
        {
          "internalType": "address",
          "name": "benefitor",
          "type": "address"
        }
      ],
      "name": "getUserRewardDebt",
      "outputs": [
        {
          "internalType": "int256",
          "name": "",
          "type": "int256"
        }
      ],
      "stateMutability": "view",
      "type": "function"
    },
    {
      "inputs": [
        {
          "internalType": "address",
          "name": "benefitor",
          "type": "address"
        }
      ],
      "name": "getUserVLFIAmount",
      "outputs": [
        {
          "internalType": "uint256",
          "name": "",
          "type": "uint256"
        }
      ],
      "stateMutability": "view",
      "type": "function"
    },
    {
      "inputs": [
        {
          "internalType": "bytes32",
          "name": "role",
          "type": "bytes32"
        },
        {
          "internalType": "address",
          "name": "account",
          "type": "address"
        }
      ],
      "name": "grantRole",
      "outputs": [],
      "stateMutability": "nonpayable",
      "type": "function"
    },
    {
      "inputs": [
        {
          "internalType": "bytes32",
          "name": "role",
          "type": "bytes32"
        },
        {
          "internalType": "address",
          "name": "account",
          "type": "address"
        }
      ],
      "name": "hasRole",
      "outputs": [
        {
          "internalType": "bool",
          "name": "",
          "type": "bool"
        }
      ],
      "stateMutability": "view",
      "type": "function"
    },
    {
      "inputs": [
        {
          "internalType": "address",
          "name": "spender",
          "type": "address"
        },
        {
          "internalType": "uint256",
          "name": "addedValue",
          "type": "uint256"
        }
      ],
      "name": "increaseAllowance",
      "outputs": [
        {
          "internalType": "bool",
          "name": "",
          "type": "bool"
        }
      ],
      "stateMutability": "nonpayable",
      "type": "function"
    },
    {
      "inputs": [],
      "name": "maxTreasuryWithdrawalPercentage",
      "outputs": [
        {
          "internalType": "uint256",
          "name": "",
          "type": "uint256"
        }
      ],
      "stateMutability": "view",
      "type": "function"
    },
    {
      "inputs": [],
      "name": "name",
      "outputs": [
        {
          "internalType": "string",
          "name": "",
          "type": "string"
        }
      ],
      "stateMutability": "view",
      "type": "function"
    },
    {
      "inputs": [
        {
          "internalType": "address",
          "name": "owner",
          "type": "address"
        }
      ],
      "name": "nonces",
      "outputs": [
        {
          "internalType": "uint256",
          "name": "",
          "type": "uint256"
        }
      ],
      "stateMutability": "view",
      "type": "function"
    },
    {
      "inputs": [
        {
          "internalType": "address",
          "name": "owner",
          "type": "address"
        },
        {
          "internalType": "address",
          "name": "spender",
          "type": "address"
        },
        {
          "internalType": "uint256",
          "name": "value",
          "type": "uint256"
        },
        {
          "internalType": "uint256",
          "name": "deadline",
          "type": "uint256"
        },
        {
          "internalType": "uint8",
          "name": "v",
          "type": "uint8"
        },
        {
          "internalType": "bytes32",
          "name": "r",
          "type": "bytes32"
        },
        {
          "internalType": "bytes32",
          "name": "s",
          "type": "bytes32"
        }
      ],
      "name": "permit",
      "outputs": [],
      "stateMutability": "nonpayable",
      "type": "function"
    },
    {
      "inputs": [
        {
          "internalType": "address",
          "name": "owner",
          "type": "address"
        },
        {
          "internalType": "address",
          "name": "spender",
          "type": "address"
        },
        {
          "internalType": "uint256",
          "name": "value",
          "type": "uint256"
        },
        {
          "internalType": "uint256",
          "name": "deadline",
          "type": "uint256"
        },
        {
          "internalType": "uint8",
          "name": "v",
          "type": "uint8"
        },
        {
          "internalType": "bytes32",
          "name": "r",
          "type": "bytes32"
        },
        {
          "internalType": "bytes32",
          "name": "s",
          "type": "bytes32"
        },
        {
          "internalType": "address",
          "name": "onBehalfOf",
          "type": "address"
        },
        {
          "internalType": "uint256",
          "name": "LFIamount",
          "type": "uint256"
        }
      ],
      "name": "permitAndStake",
      "outputs": [],
      "stateMutability": "nonpayable",
      "type": "function"
    },
    {
      "inputs": [
        {
          "internalType": "bytes32",
          "name": "role",
          "type": "bytes32"
        },
        {
          "internalType": "address",
          "name": "account",
          "type": "address"
        }
      ],
      "name": "renounceRole",
      "outputs": [],
      "stateMutability": "nonpayable",
      "type": "function"
    },
    {
      "inputs": [
        {
          "internalType": "bytes32",
          "name": "role",
          "type": "bytes32"
        },
        {
          "internalType": "address",
          "name": "account",
          "type": "address"
        }
      ],
      "name": "revokeRole",
      "outputs": [],
      "stateMutability": "nonpayable",
      "type": "function"
    },
    {
      "inputs": [
        {
          "internalType": "uint256",
          "name": "coolDownSeconds",
          "type": "uint256"
        }
      ],
      "name": "setCooldownSeconds",
      "outputs": [],
      "stateMutability": "nonpayable",
      "type": "function"
    },
    {
      "inputs": [
        {
          "internalType": "uint256",
          "name": "percentage",
          "type": "uint256"
        }
      ],
      "name": "setMaxTreasuryWithdrawalPercentage",
      "outputs": [],
      "stateMutability": "nonpayable",
      "type": "function"
    },
    {
      "inputs": [
        {
          "internalType": "uint256",
          "name": "_rewardPerSecond",
          "type": "uint256"
        }
      ],
      "name": "setRewardPerSecond",
      "outputs": [],
      "stateMutability": "nonpayable",
      "type": "function"
    },
    {
      "inputs": [
        {
          "internalType": "uint256",
          "name": "unstakeWindow",
          "type": "uint256"
        }
      ],
      "name": "setUnstakeWindowTime",
      "outputs": [],
      "stateMutability": "nonpayable",
      "type": "function"
    },
    {
      "inputs": [
        {
          "internalType": "address",
          "name": "onBehalfOf",
          "type": "address"
        },
        {
          "internalType": "uint256",
          "name": "amount",
          "type": "uint256"
        }
      ],
      "name": "stake",
      "outputs": [],
      "stateMutability": "nonpayable",
      "type": "function"
    },
    {
      "inputs": [
        {
          "internalType": "bytes4",
          "name": "interfaceId",
          "type": "bytes4"
        }
      ],
      "name": "supportsInterface",
      "outputs": [
        {
          "internalType": "bool",
          "name": "",
          "type": "bool"
        }
      ],
      "stateMutability": "view",
      "type": "function"
    },
    {
      "inputs": [],
      "name": "symbol",
      "outputs": [
        {
          "internalType": "string",
          "name": "",
          "type": "string"
        }
      ],
      "stateMutability": "view",
      "type": "function"
    },
    {
      "inputs": [],
      "name": "totalSupply",
      "outputs": [
        {
          "internalType": "uint256",
          "name": "",
          "type": "uint256"
        }
      ],
      "stateMutability": "view",
      "type": "function"
    },
    {
      "inputs": [
        {
          "internalType": "address",
          "name": "recipient",
          "type": "address"
        },
        {
          "internalType": "uint256",
          "name": "amount",
          "type": "uint256"
        }
      ],
      "name": "transfer",
      "outputs": [
        {
          "internalType": "bool",
          "name": "",
          "type": "bool"
        }
      ],
      "stateMutability": "nonpayable",
      "type": "function"
    },
    {
      "inputs": [
        {
          "internalType": "address",
          "name": "sender",
          "type": "address"
        },
        {
          "internalType": "address",
          "name": "recipient",
          "type": "address"
        },
        {
          "internalType": "uint256",
          "name": "amount",
          "type": "uint256"
        }
      ],
      "name": "transferFrom",
      "outputs": [
        {
          "internalType": "bool",
          "name": "",
          "type": "bool"
        }
      ],
      "stateMutability": "nonpayable",
      "type": "function"
    },
    {
      "inputs": [
        {
          "internalType": "address",
          "name": "to",
          "type": "address"
        },
        {
          "internalType": "uint256",
          "name": "treasuryWithdrawl",
          "type": "uint256"
        }
      ],
      "name": "transferToTreasury",
      "outputs": [],
      "stateMutability": "nonpayable",
      "type": "function"
    },
    {
      "inputs": [
        {
          "internalType": "address",
          "name": "to",
          "type": "address"
        },
        {
          "internalType": "uint256",
          "name": "amount",
          "type": "uint256"
        }
      ],
      "name": "unStake",
      "outputs": [],
      "stateMutability": "nonpayable",
      "type": "function"
    },
    {
      "inputs": [],
      "name": "updateFarm",
      "outputs": [
        {
          "components": [
            {
              "internalType": "uint256",
              "name": "accRewardsPerShare",
              "type": "uint256"
            },
            {
              "internalType": "uint256",
              "name": "lastRewardTime",
              "type": "uint256"
            }
          ],
          "internalType": "struct VLFI.FarmInfo",
          "name": "farm",
          "type": "tuple"
        }
      ],
      "stateMutability": "nonpayable",
      "type": "function"
    },
    {
      "inputs": [],
      "name": "updateRewardsToClaim",
      "outputs": [],
      "stateMutability": "nonpayable",
      "type": "function"
    }
  ],
  "bytecode": "0x6101806040527f6e71edae12b1b97f4d1f60370fef10105fa2faae0126114a169c64845d6126c9610140908152506012600a6200003d919062000a03565b6103e86200004c919062000a54565b600b553480156200005c57600080fd5b50604051620068cd380380620068cd833981810160405281019062000082919062000cfc565b86806040518060400160405280600181526020017f310000000000000000000000000000000000000000000000000000000000000081525089898160039080519060200190620000d4929190620007c6565b508060049080519060200190620000ed929190620007c6565b50505060008280519060200120905060008280519060200120905060007f8b73c3c69bb8fe3d512ecc4cf759cc79239f7b179b0ffacaa9a75d522b39400f90508260e081815250508161010081815250504660a08181525050620001598184846200026260201b60201c565b608081815250503073ffffffffffffffffffffffffffffffffffffffff1660c08173ffffffffffffffffffffffffffffffffffffffff16815250508061012081815250505050505050508473ffffffffffffffffffffffffffffffffffffffff166101608173ffffffffffffffffffffffffffffffffffffffff168152505083600c8190555082600d8190555080600e81905550620002026000801b336200029e60201b60201c565b620002347f241ecf16d79d0f8dbfb92cbc07fe17840425976cf0667f022fe9877caa831b08336200029e60201b60201c565b62000245826200039060201b60201c565b62000255620003c060201b60201c565b50505050505050620011be565b600083838346306040516020016200027f95949392919062000e2a565b6040516020818303038152906040528051906020012090509392505050565b620002b082826200043460201b60201c565b6200038c5760016006600084815260200190815260200160002060000160008373ffffffffffffffffffffffffffffffffffffffff1673ffffffffffffffffffffffffffffffffffffffff16815260200190815260200160002060006101000a81548160ff021916908315150217905550620003316200049f60201b60201c565b73ffffffffffffffffffffffffffffffffffffffff168173ffffffffffffffffffffffffffffffffffffffff16837f2f8788117e7eff1d82e926ec794901d17c78024a50270940304540a733656f0d60405160405180910390a45b5050565b6000801b620003b581620003a96200049f60201b60201c565b620004a760201b60201c565b816009819055505050565b7f241ecf16d79d0f8dbfb92cbc07fe17840425976cf0667f022fe9877caa831b086200040281620003f66200049f60201b60201c565b620004a760201b60201c565b604051806040016040528060008152602001428152506007600082015181600001556020820151816001015590505050565b60006006600084815260200190815260200160002060000160008373ffffffffffffffffffffffffffffffffffffffff1673ffffffffffffffffffffffffffffffffffffffff16815260200190815260200160002060009054906101000a900460ff16905092915050565b600033905090565b620004b982826200043460201b60201c565b6200056757620004ec8173ffffffffffffffffffffffffffffffffffffffff1660146200056b60201b6200226a1760201c565b620005078360001c60206200056b60201b6200226a1760201c565b6040516020016200051a92919062000f74565b6040516020818303038152906040526040517f08c379a00000000000000000000000000000000000000000000000000000000081526004016200055e919062001008565b60405180910390fd5b5050565b60606000600283600262000580919062000a54565b6200058c91906200102c565b67ffffffffffffffff811115620005a857620005a762000ae4565b5b6040519080825280601f01601f191660200182016040528015620005db5781602001600182028036833780820191505090505b5090507f30000000000000000000000000000000000000000000000000000000000000008160008151811062000616576200061562001089565b5b60200101907effffffffffffffffffffffffffffffffffffffffffffffffffffffffffffff1916908160001a9053507f7800000000000000000000000000000000000000000000000000000000000000816001815181106200067d576200067c62001089565b5b60200101907effffffffffffffffffffffffffffffffffffffffffffffffffffffffffffff1916908160001a90535060006001846002620006bf919062000a54565b620006cb91906200102c565b90505b600181111562000775577f3031323334353637383961626364656600000000000000000000000000000000600f86166010811062000711576200071062001089565b5b1a60f81b8282815181106200072b576200072a62001089565b5b60200101907effffffffffffffffffffffffffffffffffffffffffffffffffffffffffffff1916908160001a905350600485901c9450806200076d90620010b8565b9050620006ce565b5060008414620007bc576040517f08c379a0000000000000000000000000000000000000000000000000000000008152600401620007b39062001137565b60405180910390fd5b8091505092915050565b828054620007d49062001188565b90600052602060002090601f016020900481019282620007f8576000855562000844565b82601f106200081357805160ff191683800117855562000844565b8280016001018555821562000844579182015b828111156200084357825182559160200191906001019062000826565b5b50905062000853919062000857565b5090565b5b808211156200087257600081600090555060010162000858565b5090565b7f4e487b7100000000000000000000000000000000000000000000000000000000600052601160045260246000fd5b60008160011c9050919050565b6000808291508390505b60018511156200090457808604811115620008dc57620008db62000876565b5b6001851615620008ec5780820291505b8081029050620008fc85620008a5565b9450620008bc565b94509492505050565b6000826200091f5760019050620009f2565b816200092f5760009050620009f2565b8160018114620009485760028114620009535762000989565b6001915050620009f2565b60ff84111562000968576200096762000876565b5b8360020a91508482111562000982576200098162000876565b5b50620009f2565b5060208310610133831016604e8410600b8410161715620009c35782820a905083811115620009bd57620009bc62000876565b5b620009f2565b620009d28484846001620008b2565b92509050818404811115620009ec57620009eb62000876565b5b81810290505b9392505050565b6000819050919050565b600062000a1082620009f9565b915062000a1d83620009f9565b925062000a4c7fffffffffffffffffffffffffffffffffffffffffffffffffffffffffffffffff84846200090d565b905092915050565b600062000a6182620009f9565b915062000a6e83620009f9565b9250817fffffffffffffffffffffffffffffffffffffffffffffffffffffffffffffffff048311821515161562000aaa5762000aa962000876565b5b828202905092915050565b6000604051905090565b600080fd5b600080fd5b600080fd5b600080fd5b6000601f19601f8301169050919050565b7f4e487b7100000000000000000000000000000000000000000000000000000000600052604160045260246000fd5b62000b1e8262000ad3565b810181811067ffffffffffffffff8211171562000b405762000b3f62000ae4565b5b80604052505050565b600062000b5562000ab5565b905062000b63828262000b13565b919050565b600067ffffffffffffffff82111562000b865762000b8562000ae4565b5b62000b918262000ad3565b9050602081019050919050565b60005b8381101562000bbe57808201518184015260208101905062000ba1565b8381111562000bce576000848401525b50505050565b600062000beb62000be58462000b68565b62000b49565b90508281526020810184848401111562000c0a5762000c0962000ace565b5b62000c1784828562000b9e565b509392505050565b600082601f83011262000c375762000c3662000ac9565b5b815162000c4984826020860162000bd4565b91505092915050565b600073ffffffffffffffffffffffffffffffffffffffff82169050919050565b600062000c7f8262000c52565b9050919050565b600062000c938262000c72565b9050919050565b62000ca58162000c86565b811462000cb157600080fd5b50565b60008151905062000cc58162000c9a565b92915050565b62000cd681620009f9565b811462000ce257600080fd5b50565b60008151905062000cf68162000ccb565b92915050565b600080600080600080600060e0888a03121562000d1e5762000d1d62000abf565b5b600088015167ffffffffffffffff81111562000d3f5762000d3e62000ac4565b5b62000d4d8a828b0162000c1f565b975050602088015167ffffffffffffffff81111562000d715762000d7062000ac4565b5b62000d7f8a828b0162000c1f565b965050604062000d928a828b0162000cb4565b955050606062000da58a828b0162000ce5565b945050608062000db88a828b0162000ce5565b93505060a062000dcb8a828b0162000ce5565b92505060c062000dde8a828b0162000ce5565b91505092959891949750929550565b6000819050919050565b62000e028162000ded565b82525050565b62000e1381620009f9565b82525050565b62000e248162000c72565b82525050565b600060a08201905062000e41600083018862000df7565b62000e50602083018762000df7565b62000e5f604083018662000df7565b62000e6e606083018562000e08565b62000e7d608083018462000e19565b9695505050505050565b600081905092915050565b7f416363657373436f6e74726f6c3a206163636f756e7420000000000000000000600082015250565b600062000eca60178362000e87565b915062000ed78262000e92565b601782019050919050565b600081519050919050565b600062000efa8262000ee2565b62000f06818562000e87565b935062000f1881856020860162000b9e565b80840191505092915050565b7f206973206d697373696e6720726f6c6520000000000000000000000000000000600082015250565b600062000f5c60118362000e87565b915062000f698262000f24565b601182019050919050565b600062000f818262000ebb565b915062000f8f828562000eed565b915062000f9c8262000f4d565b915062000faa828462000eed565b91508190509392505050565b600082825260208201905092915050565b600062000fd48262000ee2565b62000fe0818562000fb6565b935062000ff281856020860162000b9e565b62000ffd8162000ad3565b840191505092915050565b6000602082019050818103600083015262001024818462000fc7565b905092915050565b60006200103982620009f9565b91506200104683620009f9565b9250827fffffffffffffffffffffffffffffffffffffffffffffffffffffffffffffffff038211156200107e576200107d62000876565b5b828201905092915050565b7f4e487b7100000000000000000000000000000000000000000000000000000000600052603260045260246000fd5b6000620010c582620009f9565b91506000821415620010dc57620010db62000876565b5b600182039050919050565b7f537472696e67733a20686578206c656e67746820696e73756666696369656e74600082015250565b60006200111f60208362000fb6565b91506200112c82620010e7565b602082019050919050565b60006020820190508181036000830152620011528162001110565b9050919050565b7f4e487b7100000000000000000000000000000000000000000000000000000000600052602260045260246000fd5b60006002820490506001821680620011a157607f821691505b60208210811415620011b857620011b762001159565b5b50919050565b60805160a05160c05160e051610100516101205161014051610160516156866200124760003960008181610c4f015281816113570152818161171701528181611a1a01528181611df30152611fed0152600061185b01526000612ba301526000612be501526000612bc401526000612af901526000612b4f01526000612b7801526156866000f3fe608060405234801561001057600080fd5b50600436106102a05760003560e01c8063733d07be11610167578063adc9772e116100ce578063d939381411610087578063d93938141461084d578063dd62ed3e14610869578063ec87621c14610899578063ef5cfb8c146108b7578063f1cc432a146108d3578063f54ca63c14610903576102a0565b8063adc9772e1461078f578063c61fbcc5146107ab578063d505accf146107db578063d547741f146107f7578063d876246f14610813578063d92aec5914610831576102a0565b80639a00a6a3116101205780639a00a6a3146106a95780639dd267e6146106d9578063a217fddf146106f5578063a457c2d714610713578063a9059cbb14610743578063ad88918f14610773576102a0565b8063733d07be146105af57806379ee54f7146105df5780637b5b11571461060f5780637ecebe001461062b57806391d148541461065b57806395d89b411461068b576102a0565b80633644e5151161020b5780634854fd3c116101c45780634854fd3c146104ed5780634d978b441461050b5780635ac3ce1214610529578063616e0bf91461054557806366da58151461056357806370a082311461057f576102a0565b80633644e5151461042b57806336568abe14610449578063395093511461046557806339b84ecf146104955780633c0717fd146104c55780634853b3b2146104e3576102a0565b80631f477ea91161025d5780631f477ea91461035557806323b872dd14610373578063248a9ca3146103a35780632f2ff15d146103d3578063312f6b83146103ef578063313ce5671461040d576102a0565b806301ffc9a7146102a557806306fdde03146102d5578063095ea7b3146102f35780630e5b47bc1461032357806318160ddd1461032d5780631d5ec3cb1461034b575b600080fd5b6102bf60048036038101906102ba9190613abc565b610921565b6040516102cc9190613b04565b60405180910390f35b6102dd61099b565b6040516102ea9190613bb8565b60405180910390f35b61030d60048036038101906103089190613c6e565b610a2d565b60405161031a9190613b04565b60405180910390f35b61032b610a4b565b005b610335610a94565b6040516103429190613cbd565b60405180910390f35b610353610a9e565b005b61035d610b02565b60405161036a9190613cbd565b60405180910390f35b61038d60048036038101906103889190613cd8565b610b0c565b60405161039a9190613b04565b60405180910390f35b6103bd60048036038101906103b89190613d61565b610c04565b6040516103ca9190613d9d565b60405180910390f35b6103ed60048036038101906103e89190613db8565b610c24565b005b6103f7610c4d565b6040516104049190613e57565b60405180910390f35b610415610c71565b6040516104229190613e8e565b60405180910390f35b610433610c7a565b6040516104409190613d9d565b60405180910390f35b610463600480360381019061045e9190613db8565b610c89565b005b61047f600480360381019061047a9190613c6e565b610d0c565b60405161048c9190613b04565b60405180910390f35b6104af60048036038101906104aa9190613ea9565b610db8565b6040516104bc9190613cbd565b60405180910390f35b6104cd610e01565b6040516104da9190613cbd565b60405180910390f35b6104eb610e0b565b005b6104f5610ee0565b6040516105029190613cbd565b60405180910390f35b610513610eed565b6040516105209190613cbd565b60405180910390f35b610543600480360381019061053e9190613ed6565b610efa565b005b61054d610f37565b60405161055a9190613cbd565b60405180910390f35b61057d60048036038101906105789190613ed6565b610f41565b005b61059960048036038101906105949190613ea9565b610f61565b6040516105a69190613cbd565b60405180910390f35b6105c960048036038101906105c49190613ea9565b610fa9565b6040516105d69190613cbd565b60405180910390f35b6105f960048036038101906105f49190613ea9565b610ff5565b6040516106069190613cbd565b60405180910390f35b61062960048036038101906106249190613ed6565b61111e565b005b61064560048036038101906106409190613ea9565b61115b565b6040516106529190613cbd565b60405180910390f35b61067560048036038101906106709190613db8565b6111ab565b6040516106829190613b04565b60405180910390f35b610693611216565b6040516106a09190613bb8565b60405180910390f35b6106c360048036038101906106be9190613ea9565b6112a8565b6040516106d09190613cbd565b60405180910390f35b6106f360048036038101906106ee9190613c6e565b6112f1565b005b6106fd6113a1565b60405161070a9190613d9d565b60405180910390f35b61072d60048036038101906107289190613c6e565b6113a8565b60405161073a9190613b04565b60405180910390f35b61075d60048036038101906107589190613c6e565b611493565b60405161076a9190613b04565b60405180910390f35b61078d60048036038101906107889190613ed6565b6114b1565b005b6107a960048036038101906107a49190613c6e565b6114ee565b005b6107c560048036038101906107c09190613ea9565b6117c8565b6040516107d29190613f1c565b60405180910390f35b6107f560048036038101906107f09190613f63565b611814565b005b610811600480360381019061080c9190613db8565b611956565b005b61081b61197f565b6040516108289190613cbd565b60405180910390f35b61084b60048036038101906108469190614005565b611985565b005b61086760048036038101906108629190613c6e565b611a0c565b005b610883600480360381019061087e91906140cf565b611ea4565b6040516108909190613cbd565b60405180910390f35b6108a1611f2b565b6040516108ae9190613d9d565b60405180910390f35b6108d160048036038101906108cc9190613ea9565b611f4f565b005b6108ed60048036038101906108e8919061410f565b61209d565b6040516108fa9190613cbd565b60405180910390f35b61090b612195565b60405161091891906141b4565b60405180910390f35b60007f7965db0b000000000000000000000000000000000000000000000000000000007bffffffffffffffffffffffffffffffffffffffffffffffffffffffff1916827bffffffffffffffffffffffffffffffffffffffffffffffffffffffff191614806109945750610993826124a6565b5b9050919050565b6060600380546109aa906141fe565b80601f01602080910402602001604051908101604052809291908181526020018280546109d6906141fe565b8015610a235780601f106109f857610100808354040283529160200191610a23565b820191906000526020600020905b815481529060010190602001808311610a0657829003601f168201915b5050505050905090565b6000610a41610a3a612510565b8484612518565b6001905092915050565b600080600f60003373ffffffffffffffffffffffffffffffffffffffff1673ffffffffffffffffffffffffffffffffffffffff1681526020019081526020016000208190555050565b6000600254905090565b7f241ecf16d79d0f8dbfb92cbc07fe17840425976cf0667f022fe9877caa831b08610ad081610acb612510565b6126e3565b604051806040016040528060008152602001428152506007600082015181600001556020820151816001015590505050565b6000600d54905090565b6000610b19848484612780565b6000600160008673ffffffffffffffffffffffffffffffffffffffff1673ffffffffffffffffffffffffffffffffffffffff1681526020019081526020016000206000610b64612510565b73ffffffffffffffffffffffffffffffffffffffff1673ffffffffffffffffffffffffffffffffffffffff16815260200190815260200160002054905082811015610be4576040517f08c379a0000000000000000000000000000000000000000000000000000000008152600401610bdb906142a2565b60405180910390fd5b610bf885610bf0612510565b858403612518565b60019150509392505050565b600060066000838152602001908152602001600020600101549050919050565b610c2d82610c04565b610c3e81610c39612510565b6126e3565b610c488383612a14565b505050565b7f000000000000000000000000000000000000000000000000000000000000000081565b60006012905090565b6000610c84612af5565b905090565b610c91612510565b73ffffffffffffffffffffffffffffffffffffffff168173ffffffffffffffffffffffffffffffffffffffff1614610cfe576040517f08c379a0000000000000000000000000000000000000000000000000000000008152600401610cf590614334565b60405180910390fd5b610d088282612c0f565b5050565b6000610dae610d19612510565b848460016000610d27612510565b73ffffffffffffffffffffffffffffffffffffffff1673ffffffffffffffffffffffffffffffffffffffff16815260200190815260200160002060008873ffffffffffffffffffffffffffffffffffffffff1673ffffffffffffffffffffffffffffffffffffffff16815260200190815260200160002054610da99190614383565b612518565b6001905092915050565b6000601060008373ffffffffffffffffffffffffffffffffffffffff1673ffffffffffffffffffffffffffffffffffffffff168152602001908152602001600020549050919050565b6000600a54905090565b6000610e1633610f61565b1415610e57576040517f08c379a0000000000000000000000000000000000000000000000000000000008152600401610e4e90614425565b60405180910390fd5b42601060003373ffffffffffffffffffffffffffffffffffffffff1673ffffffffffffffffffffffffffffffffffffffff168152602001908152602001600020819055503373ffffffffffffffffffffffffffffffffffffffff167f06458eacc93d062b1d92c6575f39b0c1d64541d6881846fecef52a42c7c8000860405160405180910390a2565b6000600760010154905090565b6000600760000154905090565b7f241ecf16d79d0f8dbfb92cbc07fe17840425976cf0667f022fe9877caa831b08610f2c81610f27612510565b6126e3565b81600e819055505050565b6000600c54905090565b6000801b610f5681610f51612510565b6126e3565b816009819055505050565b60008060008373ffffffffffffffffffffffffffffffffffffffff1673ffffffffffffffffffffffffffffffffffffffff168152602001908152602001600020549050919050565b6000601260008373ffffffffffffffffffffffffffffffffffffffff1673ffffffffffffffffffffffffffffffffffffffff168152602001908152602001600020600001549050919050565b60008060076040518060400160405290816000820154815260200160018201548152505090506000601260008573ffffffffffffffffffffffffffffffffffffffff1673ffffffffffffffffffffffffffffffffffffffff16815260200190815260200160002090506000826000015190506000611071610a94565b9050836020015142118015611087575060008114155b156110e157600084602001514261109e9190614445565b90506000600954826110b09190614479565b905082670de0b6b3a7640000826110c79190614479565b6110d19190614502565b846110dc9190614383565b935050505b8260010154670de0b6b3a76400008385600001546110ff9190614479565b6111099190614502565b6111139190614533565b945050505050919050565b7f241ecf16d79d0f8dbfb92cbc07fe17840425976cf0667f022fe9877caa831b086111508161114b612510565b6126e3565b81600c819055505050565b60006111a4600560008473ffffffffffffffffffffffffffffffffffffffff1673ffffffffffffffffffffffffffffffffffffffff168152602001908152602001600020612cf1565b9050919050565b60006006600084815260200190815260200160002060000160008373ffffffffffffffffffffffffffffffffffffffff1673ffffffffffffffffffffffffffffffffffffffff16815260200190815260200160002060009054906101000a900460ff16905092915050565b606060048054611225906141fe565b80601f0160208091040260200160405190810160405280929190818152602001828054611251906141fe565b801561129e5780601f106112735761010080835404028352916020019161129e565b820191906000526020600020905b81548152906001019060200180831161128157829003601f168201915b5050505050905090565b6000601160008373ffffffffffffffffffffffffffffffffffffffff1673ffffffffffffffffffffffffffffffffffffffff168152602001908152602001600020549050919050565b7f241ecf16d79d0f8dbfb92cbc07fe17840425976cf0667f022fe9877caa831b086113238161131e612510565b6126e3565b60006064600e54600a546113379190614479565b6113419190614502565b90508083111561135057600080fd5b61139b84847f000000000000000000000000000000000000000000000000000000000000000073ffffffffffffffffffffffffffffffffffffffff16612cff9092919063ffffffff16565b50505050565b6000801b81565b600080600160006113b7612510565b73ffffffffffffffffffffffffffffffffffffffff1673ffffffffffffffffffffffffffffffffffffffff16815260200190815260200160002060008573ffffffffffffffffffffffffffffffffffffffff1673ffffffffffffffffffffffffffffffffffffffff16815260200190815260200160002054905082811015611474576040517f08c379a000000000000000000000000000000000000000000000000000000000815260040161146b90614639565b60405180910390fd5b61148861147f612510565b85858403612518565b600191505092915050565b60006114a76114a0612510565b8484612780565b6001905092915050565b7f241ecf16d79d0f8dbfb92cbc07fe17840425976cf0667f022fe9877caa831b086114e3816114de612510565b6126e3565b81600d819055505050565b6000811415611532576040517f08c379a0000000000000000000000000000000000000000000000000000000008152600401611529906146a5565b60405180910390fd5b600061153d83610f61565b90506000611549612195565b90506000601260003373ffffffffffffffffffffffffffffffffffffffff1673ffffffffffffffffffffffffffffffffffffffff1681526020019081526020016000209050600b54670de0b6b3a7640000856115a59190614479565b6115af9190614502565b8160000160008282546115c29190614383565b92505081905550670de0b6b3a76400008260000151600b54670de0b6b3a7640000876115ee9190614479565b6115f89190614502565b6116029190614479565b61160c9190614502565b81600101600082825461161f91906146c5565b9250508190555083601160003373ffffffffffffffffffffffffffffffffffffffff1673ffffffffffffffffffffffffffffffffffffffff16815260200190815260200160002060008282546116759190614383565b9250508190555083600a600082825461168e9190614383565b925050819055506116a2600085878661209d565b601060008773ffffffffffffffffffffffffffffffffffffffff1673ffffffffffffffffffffffffffffffffffffffff1681526020019081526020016000208190555061170f85600b54670de0b6b3a7640000876117009190614479565b61170a9190614502565b612d85565b61175c3330867f000000000000000000000000000000000000000000000000000000000000000073ffffffffffffffffffffffffffffffffffffffff16612ee5909392919063ffffffff16565b8473ffffffffffffffffffffffffffffffffffffffff163373ffffffffffffffffffffffffffffffffffffffff167f5dac0c1b1112564a045ba943c9d50270893e8e826c49be8e7073adc713ab7bd7866040516117b99190613cbd565b60405180910390a35050505050565b6000601260008373ffffffffffffffffffffffffffffffffffffffff1673ffffffffffffffffffffffffffffffffffffffff168152602001908152602001600020600101549050919050565b83421115611857576040517f08c379a000000000000000000000000000000000000000000000000000000000815260040161184e906147a5565b60405180910390fd5b60007f00000000000000000000000000000000000000000000000000000000000000008888886118868c612f6e565b8960405160200161189c969594939291906147d4565b60405160208183030381529060405280519060200120905060006118bf82612fcc565b905060006118cf82878787612fe6565b90508973ffffffffffffffffffffffffffffffffffffffff168173ffffffffffffffffffffffffffffffffffffffff161461193f576040517f08c379a000000000000000000000000000000000000000000000000000000000815260040161193690614881565b60405180910390fd5b61194a8a8a8a612518565b50505050505050505050565b61195f82610c04565b6119708161196b612510565b6126e3565b61197a8383612c0f565b505050565b600e5481565b61199489898989898989611814565b3073ffffffffffffffffffffffffffffffffffffffff1663adc9772e83836040518363ffffffff1660e01b81526004016119cf9291906148a1565b600060405180830381600087803b1580156119e957600080fd5b505af11580156119fd573d6000803e3d6000fd5b50505050505050505050505050565b60008114158015611ab657507f000000000000000000000000000000000000000000000000000000000000000073ffffffffffffffffffffffffffffffffffffffff166370a08231336040518263ffffffff1660e01b8152600401611a7191906148ca565b602060405180830381865afa158015611a8e573d6000803e3d6000fd5b505050506040513d601f19601f82011682018060405250810190611ab291906148fa565b8111155b611af5576040517f08c379a0000000000000000000000000000000000000000000000000000000008152600401611aec906146a5565b60405180910390fd5b6000601060003373ffffffffffffffffffffffffffffffffffffffff1673ffffffffffffffffffffffffffffffffffffffff168152602001908152602001600020549050600c5481611b479190614383565b4211611b88576040517f08c379a0000000000000000000000000000000000000000000000000000000008152600401611b7f90614973565b60405180910390fd5b600d54600c5482611b999190614383565b42611ba49190614445565b1115611be5576040517f08c379a0000000000000000000000000000000000000000000000000000000008152600401611bdc906149df565b60405180910390fd5b6000611bf033610f61565b90506000611bfc612195565b90506000601260003373ffffffffffffffffffffffffffffffffffffffff1673ffffffffffffffffffffffffffffffffffffffff1681526020019081526020016000209050670de0b6b3a76400008260000151600b54670de0b6b3a764000088611c669190614479565b611c709190614502565b611c7a9190614479565b611c849190614502565b816001016000828254611c979190614533565b92505081905550600b54670de0b6b3a764000086611cb59190614479565b611cbf9190614502565b816000016000828254611cd29190614445565b9250508190555084601160003373ffffffffffffffffffffffffffffffffffffffff1673ffffffffffffffffffffffffffffffffffffffff1681526020019081526020016000206000828254611d289190614445565b9250508190555084600a6000828254611d419190614445565b92505081905550611d7233600b54670de0b6b3a764000088611d639190614479565b611d6d9190614502565b613011565b6000600b54670de0b6b3a764000087611d8b9190614479565b611d959190614502565b84611da09190614445565b1415611dec576000601060003373ffffffffffffffffffffffffffffffffffffffff1673ffffffffffffffffffffffffffffffffffffffff168152602001908152602001600020819055505b611e3786867f000000000000000000000000000000000000000000000000000000000000000073ffffffffffffffffffffffffffffffffffffffff16612cff9092919063ffffffff16565b3373ffffffffffffffffffffffffffffffffffffffff163373ffffffffffffffffffffffffffffffffffffffff167f8a3c16627a0e7a870a5d5cd0121ca5d80e2efd0ec7198a11644f1a516ac3709387604051611e949190613cbd565b60405180910390a3505050505050565b6000600160008473ffffffffffffffffffffffffffffffffffffffff1673ffffffffffffffffffffffffffffffffffffffff16815260200190815260200160002060008373ffffffffffffffffffffffffffffffffffffffff1673ffffffffffffffffffffffffffffffffffffffff16815260200190815260200160002054905092915050565b7f241ecf16d79d0f8dbfb92cbc07fe17840425976cf0667f022fe9877caa831b0881565b6000611f59612195565b90506000601260003373ffffffffffffffffffffffffffffffffffffffff1673ffffffffffffffffffffffffffffffffffffffff16815260200190815260200160002090506000670de0b6b3a764000083600001518360000154611fbd9190614479565b611fc79190614502565b90506000826001015482611fdb9190614533565b905081836001018190555061203185827f000000000000000000000000000000000000000000000000000000000000000073ffffffffffffffffffffffffffffffffffffffff16612cff9092919063ffffffff16565b8473ffffffffffffffffffffffffffffffffffffffff163373ffffffffffffffffffffffffffffffffffffffff167f9310ccfcb8de723f578a9e4282ea9f521f05ae40dc08f3068dfad528a65ee3c78360405161208e9190613cbd565b60405180910390a35050505050565b600080601060008573ffffffffffffffffffffffffffffffffffffffff1673ffffffffffffffffffffffffffffffffffffffff16815260200190815260200160002054905060008114156120f557600091505061218d565b6000600d54600c54426121089190614445565b6121129190614445565b9050818111156121255760009150612187565b60008782116121345787612136565b425b90508281101561214b5782935050505061218d565b84876121579190614383565b83866121639190614479565b828961216f9190614479565b6121799190614383565b6121839190614502565b9250505b81925050505b949350505050565b61219d613a45565b600760405180604001604052908160008201548152602001600182015481525050905042816020015110156122675760006121d6610a94565b905060008111156122415760008260200151426121f39190614445565b90506000600954826122059190614479565b905082670de0b6b3a76400008261221c9190614479565b6122269190614502565b846000018181516122379190614383565b9150818152505050505b428260200181815250508160076000820151816000015560208201518160010155905050505b90565b60606000600283600261227d9190614479565b6122879190614383565b67ffffffffffffffff8111156122a05761229f6149ff565b5b6040519080825280601f01601f1916602001820160405280156122d25781602001600182028036833780820191505090505b5090507f30000000000000000000000000000000000000000000000000000000000000008160008151811061230a57612309614a2e565b5b60200101907effffffffffffffffffffffffffffffffffffffffffffffffffffffffffffff1916908160001a9053507f78000000000000000000000000000000000000000000000000000000000000008160018151811061236e5761236d614a2e565b5b60200101907effffffffffffffffffffffffffffffffffffffffffffffffffffffffffffff1916908160001a905350600060018460026123ae9190614479565b6123b89190614383565b90505b6001811115612458577f3031323334353637383961626364656600000000000000000000000000000000600f8616601081106123fa576123f9614a2e565b5b1a60f81b82828151811061241157612410614a2e565b5b60200101907effffffffffffffffffffffffffffffffffffffffffffffffffffffffffffff1916908160001a905350600485901c94508061245190614a5d565b90506123bb565b506000841461249c576040517f08c379a000000000000000000000000000000000000000000000000000000000815260040161249390614ad3565b60405180910390fd5b8091505092915050565b60007f01ffc9a7000000000000000000000000000000000000000000000000000000007bffffffffffffffffffffffffffffffffffffffffffffffffffffffff1916827bffffffffffffffffffffffffffffffffffffffffffffffffffffffff1916149050919050565b600033905090565b600073ffffffffffffffffffffffffffffffffffffffff168373ffffffffffffffffffffffffffffffffffffffff161415612588576040517f08c379a000000000000000000000000000000000000000000000000000000000815260040161257f90614b65565b60405180910390fd5b600073ffffffffffffffffffffffffffffffffffffffff168273ffffffffffffffffffffffffffffffffffffffff1614156125f8576040517f08c379a00000000000000000000000000000000000000000000000000000000081526004016125ef90614bf7565b60405180910390fd5b80600160008573ffffffffffffffffffffffffffffffffffffffff1673ffffffffffffffffffffffffffffffffffffffff16815260200190815260200160002060008473ffffffffffffffffffffffffffffffffffffffff1673ffffffffffffffffffffffffffffffffffffffff168152602001908152602001600020819055508173ffffffffffffffffffffffffffffffffffffffff168373ffffffffffffffffffffffffffffffffffffffff167f8c5be1e5ebec7d5bd14f71427d1e84f3dd0314c0f7b2291e5b200ac8c7c3b925836040516126d69190613cbd565b60405180910390a3505050565b6126ed82826111ab565b61277c576127128173ffffffffffffffffffffffffffffffffffffffff16601461226a565b6127208360001c602061226a565b604051602001612731929190614ceb565b6040516020818303038152906040526040517f08c379a00000000000000000000000000000000000000000000000000000000081526004016127739190613bb8565b60405180910390fd5b5050565b600061278b84610f61565b90506000612797612195565b90506000601260008773ffffffffffffffffffffffffffffffffffffffff1673ffffffffffffffffffffffffffffffffffffffff1681526020019081526020016000209050670de0b6b3a76400008260000151856127f59190614479565b6127ff9190614502565b8160010160008282546128129190614533565b925050819055508381600001600082825461282d9190614445565b925050819055508473ffffffffffffffffffffffffffffffffffffffff168673ffffffffffffffffffffffffffffffffffffffff1614612a0157600061287286610f61565b90506000601260008873ffffffffffffffffffffffffffffffffffffffff1673ffffffffffffffffffffffffffffffffffffffff1681526020019081526020016000209050670de0b6b3a76400008460000151876128d09190614479565b6128da9190614502565b8160010160008282546128ed91906146c5565b92505081905550858160000160008282546129089190614383565b925050819055506000601060008a73ffffffffffffffffffffffffffffffffffffffff1673ffffffffffffffffffffffffffffffffffffffff16815260200190815260200160002054905061295f81888a8661209d565b601060008a73ffffffffffffffffffffffffffffffffffffffff1673ffffffffffffffffffffffffffffffffffffffff1681526020019081526020016000208190555086861480156129b2575060008114155b156129fd576000601060008b73ffffffffffffffffffffffffffffffffffffffff1673ffffffffffffffffffffffffffffffffffffffff168152602001908152602001600020819055505b5050505b612a0c8686866131e8565b505050505050565b612a1e82826111ab565b612af15760016006600084815260200190815260200160002060000160008373ffffffffffffffffffffffffffffffffffffffff1673ffffffffffffffffffffffffffffffffffffffff16815260200190815260200160002060006101000a81548160ff021916908315150217905550612a96612510565b73ffffffffffffffffffffffffffffffffffffffff168173ffffffffffffffffffffffffffffffffffffffff16837f2f8788117e7eff1d82e926ec794901d17c78024a50270940304540a733656f0d60405160405180910390a45b5050565b60007f000000000000000000000000000000000000000000000000000000000000000073ffffffffffffffffffffffffffffffffffffffff163073ffffffffffffffffffffffffffffffffffffffff16148015612b7157507f000000000000000000000000000000000000000000000000000000000000000046145b15612b9e577f00000000000000000000000000000000000000000000000000000000000000009050612c0c565b612c097f00000000000000000000000000000000000000000000000000000000000000007f00000000000000000000000000000000000000000000000000000000000000007f0000000000000000000000000000000000000000000000000000000000000000613469565b90505b90565b612c1982826111ab565b15612ced5760006006600084815260200190815260200160002060000160008373ffffffffffffffffffffffffffffffffffffffff1673ffffffffffffffffffffffffffffffffffffffff16815260200190815260200160002060006101000a81548160ff021916908315150217905550612c92612510565b73ffffffffffffffffffffffffffffffffffffffff168173ffffffffffffffffffffffffffffffffffffffff16837ff6391f5c32d9c69d2a47ea670b442974b53935d1edc7fd64eb21e047a839171b60405160405180910390a45b5050565b600081600001549050919050565b612d808363a9059cbb60e01b8484604051602401612d1e9291906148a1565b604051602081830303815290604052907bffffffffffffffffffffffffffffffffffffffffffffffffffffffff19166020820180517bffffffffffffffffffffffffffffffffffffffffffffffffffffffff83818316178352505050506134a3565b505050565b600073ffffffffffffffffffffffffffffffffffffffff168273ffffffffffffffffffffffffffffffffffffffff161415612df5576040517f08c379a0000000000000000000000000000000000000000000000000000000008152600401612dec90614d71565b60405180910390fd5b612e016000838361356a565b8060026000828254612e139190614383565b92505081905550806000808473ffffffffffffffffffffffffffffffffffffffff1673ffffffffffffffffffffffffffffffffffffffff1681526020019081526020016000206000828254612e689190614383565b925050819055508173ffffffffffffffffffffffffffffffffffffffff16600073ffffffffffffffffffffffffffffffffffffffff167fddf252ad1be2c89b69c2b068fc378daa952ba7f163c4a11628f55a4df523b3ef83604051612ecd9190613cbd565b60405180910390a3612ee16000838361356f565b5050565b612f68846323b872dd60e01b858585604051602401612f0693929190614d91565b604051602081830303815290604052907bffffffffffffffffffffffffffffffffffffffffffffffffffffffff19166020820180517bffffffffffffffffffffffffffffffffffffffffffffffffffffffff83818316178352505050506134a3565b50505050565b600080600560008473ffffffffffffffffffffffffffffffffffffffff1673ffffffffffffffffffffffffffffffffffffffff1681526020019081526020016000209050612fbb81612cf1565b9150612fc681613574565b50919050565b6000612fdf612fd9612af5565b8361358a565b9050919050565b6000806000612ff7878787876135bd565b91509150613004816136ca565b8192505050949350505050565b600073ffffffffffffffffffffffffffffffffffffffff168273ffffffffffffffffffffffffffffffffffffffff161415613081576040517f08c379a000000000000000000000000000000000000000000000000000000000815260040161307890614e3a565b60405180910390fd5b61308d8260008361356a565b60008060008473ffffffffffffffffffffffffffffffffffffffff1673ffffffffffffffffffffffffffffffffffffffff16815260200190815260200160002054905081811015613113576040517f08c379a000000000000000000000000000000000000000000000000000000000815260040161310a90614ecc565b60405180910390fd5b8181036000808573ffffffffffffffffffffffffffffffffffffffff1673ffffffffffffffffffffffffffffffffffffffff16815260200190815260200160002081905550816002600082825461316a9190614445565b92505081905550600073ffffffffffffffffffffffffffffffffffffffff168373ffffffffffffffffffffffffffffffffffffffff167fddf252ad1be2c89b69c2b068fc378daa952ba7f163c4a11628f55a4df523b3ef846040516131cf9190613cbd565b60405180910390a36131e38360008461356f565b505050565b600073ffffffffffffffffffffffffffffffffffffffff168373ffffffffffffffffffffffffffffffffffffffff161415613258576040517f08c379a000000000000000000000000000000000000000000000000000000000815260040161324f90614f5e565b60405180910390fd5b600073ffffffffffffffffffffffffffffffffffffffff168273ffffffffffffffffffffffffffffffffffffffff1614156132c8576040517f08c379a00000000000000000000000000000000000000000000000000000000081526004016132bf90614ff0565b60405180910390fd5b6132d383838361356a565b60008060008573ffffffffffffffffffffffffffffffffffffffff1673ffffffffffffffffffffffffffffffffffffffff16815260200190815260200160002054905081811015613359576040517f08c379a000000000000000000000000000000000000000000000000000000000815260040161335090615082565b60405180910390fd5b8181036000808673ffffffffffffffffffffffffffffffffffffffff1673ffffffffffffffffffffffffffffffffffffffff16815260200190815260200160002081905550816000808573ffffffffffffffffffffffffffffffffffffffff1673ffffffffffffffffffffffffffffffffffffffff16815260200190815260200160002060008282546133ec9190614383565b925050819055508273ffffffffffffffffffffffffffffffffffffffff168473ffffffffffffffffffffffffffffffffffffffff167fddf252ad1be2c89b69c2b068fc378daa952ba7f163c4a11628f55a4df523b3ef846040516134509190613cbd565b60405180910390a361346384848461356f565b50505050565b600083838346306040516020016134849594939291906150a2565b6040516020818303038152906040528051906020012090509392505050565b6000613505826040518060400160405280602081526020017f5361666545524332303a206c6f772d6c6576656c2063616c6c206661696c65648152508573ffffffffffffffffffffffffffffffffffffffff1661389f9092919063ffffffff16565b905060008151111561356557808060200190518101906135259190615121565b613564576040517f08c379a000000000000000000000000000000000000000000000000000000000815260040161355b906151c0565b60405180910390fd5b5b505050565b505050565b505050565b6001816000016000828254019250508190555050565b6000828260405160200161359f92919061524d565b60405160208183030381529060405280519060200120905092915050565b6000807f7fffffffffffffffffffffffffffffff5d576e7357a4501ddfe92f46681b20a08360001c11156135f85760006003915091506136c1565b601b8560ff16141580156136105750601c8560ff1614155b156136225760006004915091506136c1565b6000600187878787604051600081526020016040526040516136479493929190615284565b6020604051602081039080840390855afa158015613669573d6000803e3d6000fd5b505050602060405103519050600073ffffffffffffffffffffffffffffffffffffffff168173ffffffffffffffffffffffffffffffffffffffff1614156136b8576000600192509250506136c1565b80600092509250505b94509492505050565b600060048111156136de576136dd6152c9565b5b8160048111156136f1576136f06152c9565b5b14156136fc5761389c565b600160048111156137105761370f6152c9565b5b816004811115613723576137226152c9565b5b1415613764576040517f08c379a000000000000000000000000000000000000000000000000000000000815260040161375b90615344565b60405180910390fd5b60026004811115613778576137776152c9565b5b81600481111561378b5761378a6152c9565b5b14156137cc576040517f08c379a00000000000000000000000000000000000000000000000000000000081526004016137c3906153b0565b60405180910390fd5b600360048111156137e0576137df6152c9565b5b8160048111156137f3576137f26152c9565b5b1415613834576040517f08c379a000000000000000000000000000000000000000000000000000000000815260040161382b90615442565b60405180910390fd5b600480811115613847576138466152c9565b5b81600481111561385a576138596152c9565b5b141561389b576040517f08c379a0000000000000000000000000000000000000000000000000000000008152600401613892906154d4565b60405180910390fd5b5b50565b60606138ae84846000856138b7565b90509392505050565b6060824710156138fc576040517f08c379a00000000000000000000000000000000000000000000000000000000081526004016138f390615566565b60405180910390fd5b613905856139cb565b613944576040517f08c379a000000000000000000000000000000000000000000000000000000000815260040161393b906155d2565b60405180910390fd5b6000808673ffffffffffffffffffffffffffffffffffffffff16858760405161396d9190615639565b60006040518083038185875af1925050503d80600081146139aa576040519150601f19603f3d011682016040523d82523d6000602084013e6139af565b606091505b50915091506139bf8282866139de565b92505050949350505050565b600080823b905060008111915050919050565b606083156139ee57829050613a3e565b600083511115613a015782518084602001fd5b816040517f08c379a0000000000000000000000000000000000000000000000000000000008152600401613a359190613bb8565b60405180910390fd5b9392505050565b604051806040016040528060008152602001600081525090565b600080fd5b60007fffffffff0000000000000000000000000000000000000000000000000000000082169050919050565b613a9981613a64565b8114613aa457600080fd5b50565b600081359050613ab681613a90565b92915050565b600060208284031215613ad257613ad1613a5f565b5b6000613ae084828501613aa7565b91505092915050565b60008115159050919050565b613afe81613ae9565b82525050565b6000602082019050613b196000830184613af5565b92915050565b600081519050919050565b600082825260208201905092915050565b60005b83811015613b59578082015181840152602081019050613b3e565b83811115613b68576000848401525b50505050565b6000601f19601f8301169050919050565b6000613b8a82613b1f565b613b948185613b2a565b9350613ba4818560208601613b3b565b613bad81613b6e565b840191505092915050565b60006020820190508181036000830152613bd28184613b7f565b905092915050565b600073ffffffffffffffffffffffffffffffffffffffff82169050919050565b6000613c0582613bda565b9050919050565b613c1581613bfa565b8114613c2057600080fd5b50565b600081359050613c3281613c0c565b92915050565b6000819050919050565b613c4b81613c38565b8114613c5657600080fd5b50565b600081359050613c6881613c42565b92915050565b60008060408385031215613c8557613c84613a5f565b5b6000613c9385828601613c23565b9250506020613ca485828601613c59565b9150509250929050565b613cb781613c38565b82525050565b6000602082019050613cd26000830184613cae565b92915050565b600080600060608486031215613cf157613cf0613a5f565b5b6000613cff86828701613c23565b9350506020613d1086828701613c23565b9250506040613d2186828701613c59565b9150509250925092565b6000819050919050565b613d3e81613d2b565b8114613d4957600080fd5b50565b600081359050613d5b81613d35565b92915050565b600060208284031215613d7757613d76613a5f565b5b6000613d8584828501613d4c565b91505092915050565b613d9781613d2b565b82525050565b6000602082019050613db26000830184613d8e565b92915050565b60008060408385031215613dcf57613dce613a5f565b5b6000613ddd85828601613d4c565b9250506020613dee85828601613c23565b9150509250929050565b6000819050919050565b6000613e1d613e18613e1384613bda565b613df8565b613bda565b9050919050565b6000613e2f82613e02565b9050919050565b6000613e4182613e24565b9050919050565b613e5181613e36565b82525050565b6000602082019050613e6c6000830184613e48565b92915050565b600060ff82169050919050565b613e8881613e72565b82525050565b6000602082019050613ea36000830184613e7f565b92915050565b600060208284031215613ebf57613ebe613a5f565b5b6000613ecd84828501613c23565b91505092915050565b600060208284031215613eec57613eeb613a5f565b5b6000613efa84828501613c59565b91505092915050565b6000819050919050565b613f1681613f03565b82525050565b6000602082019050613f316000830184613f0d565b92915050565b613f4081613e72565b8114613f4b57600080fd5b50565b600081359050613f5d81613f37565b92915050565b600080600080600080600060e0888a031215613f8257613f81613a5f565b5b6000613f908a828b01613c23565b9750506020613fa18a828b01613c23565b9650506040613fb28a828b01613c59565b9550506060613fc38a828b01613c59565b9450506080613fd48a828b01613f4e565b93505060a0613fe58a828b01613d4c565b92505060c0613ff68a828b01613d4c565b91505092959891949750929550565b60008060008060008060008060006101208a8c03121561402857614027613a5f565b5b60006140368c828d01613c23565b99505060206140478c828d01613c23565b98505060406140588c828d01613c59565b97505060606140698c828d01613c59565b965050608061407a8c828d01613f4e565b95505060a061408b8c828d01613d4c565b94505060c061409c8c828d01613d4c565b93505060e06140ad8c828d01613c23565b9250506101006140bf8c828d01613c59565b9150509295985092959850929598565b600080604083850312156140e6576140e5613a5f565b5b60006140f485828601613c23565b925050602061410585828601613c23565b9150509250929050565b6000806000806080858703121561412957614128613a5f565b5b600061413787828801613c59565b945050602061414887828801613c59565b935050604061415987828801613c23565b925050606061416a87828801613c59565b91505092959194509250565b61417f81613c38565b82525050565b60408201600082015161419b6000850182614176565b5060208201516141ae6020850182614176565b50505050565b60006040820190506141c96000830184614185565b92915050565b7f4e487b7100000000000000000000000000000000000000000000000000000000600052602260045260246000fd5b6000600282049050600182168061421657607f821691505b6020821081141561422a576142296141cf565b5b50919050565b7f45524332303a207472616e7366657220616d6f756e742065786365656473206160008201527f6c6c6f77616e6365000000000000000000000000000000000000000000000000602082015250565b600061428c602883613b2a565b915061429782614230565b604082019050919050565b600060208201905081810360008301526142bb8161427f565b9050919050565b7f416363657373436f6e74726f6c3a2063616e206f6e6c792072656e6f756e636560008201527f20726f6c657320666f722073656c660000000000000000000000000000000000602082015250565b600061431e602f83613b2a565b9150614329826142c2565b604082019050919050565b6000602082019050818103600083015261434d81614311565b9050919050565b7f4e487b7100000000000000000000000000000000000000000000000000000000600052601160045260246000fd5b600061438e82613c38565b915061439983613c38565b9250827fffffffffffffffffffffffffffffffffffffffffffffffffffffffffffffffff038211156143ce576143cd614354565b5b828201905092915050565b7f564c46493a494e56414c49445f42414c414e43455f4f4e5f434f4f4c444f574e600082015250565b600061440f602083613b2a565b915061441a826143d9565b602082019050919050565b6000602082019050818103600083015261443e81614402565b9050919050565b600061445082613c38565b915061445b83613c38565b92508282101561446e5761446d614354565b5b828203905092915050565b600061448482613c38565b915061448f83613c38565b9250817fffffffffffffffffffffffffffffffffffffffffffffffffffffffffffffffff04831182151516156144c8576144c7614354565b5b828202905092915050565b7f4e487b7100000000000000000000000000000000000000000000000000000000600052601260045260246000fd5b600061450d82613c38565b915061451883613c38565b925082614528576145276144d3565b5b828204905092915050565b600061453e82613f03565b915061454983613f03565b9250827f80000000000000000000000000000000000000000000000000000000000000000182126000841215161561458457614583614354565b5b827f7fffffffffffffffffffffffffffffffffffffffffffffffffffffffffffffff0182136000841216156145bc576145bb614354565b5b828203905092915050565b7f45524332303a2064656372656173656420616c6c6f77616e63652062656c6f7760008201527f207a65726f000000000000000000000000000000000000000000000000000000602082015250565b6000614623602583613b2a565b915061462e826145c7565b604082019050919050565b6000602082019050818103600083015261465281614616565b9050919050565b7f564c46493a494e56414c49445f414d4f554e5400000000000000000000000000600082015250565b600061468f601383613b2a565b915061469a82614659565b602082019050919050565b600060208201905081810360008301526146be81614682565b9050919050565b60006146d082613f03565b91506146db83613f03565b9250817f7fffffffffffffffffffffffffffffffffffffffffffffffffffffffffffffff0383136000831215161561471657614715614354565b5b817f800000000000000000000000000000000000000000000000000000000000000003831260008312161561474e5761474d614354565b5b828201905092915050565b7f45524332305065726d69743a206578706972656420646561646c696e65000000600082015250565b600061478f601d83613b2a565b915061479a82614759565b602082019050919050565b600060208201905081810360008301526147be81614782565b9050919050565b6147ce81613bfa565b82525050565b600060c0820190506147e96000830189613d8e565b6147f660208301886147c5565b61480360408301876147c5565b6148106060830186613cae565b61481d6080830185613cae565b61482a60a0830184613cae565b979650505050505050565b7f45524332305065726d69743a20696e76616c6964207369676e61747572650000600082015250565b600061486b601e83613b2a565b915061487682614835565b602082019050919050565b6000602082019050818103600083015261489a8161485e565b9050919050565b60006040820190506148b660008301856147c5565b6148c36020830184613cae565b9392505050565b60006020820190506148df60008301846147c5565b92915050565b6000815190506148f481613c42565b92915050565b6000602082840312156149105761490f613a5f565b5b600061491e848285016148e5565b91505092915050565b7f564c46493a434f4f4c444f574e5f4e4f545f434f4d504c455445000000000000600082015250565b600061495d601a83613b2a565b915061496882614927565b602082019050919050565b6000602082019050818103600083015261498c81614950565b9050919050565b7f564c46493a554e5354414b455f57494e444f575f46494e495348454400000000600082015250565b60006149c9601c83613b2a565b91506149d482614993565b602082019050919050565b600060208201905081810360008301526149f8816149bc565b9050919050565b7f4e487b7100000000000000000000000000000000000000000000000000000000600052604160045260246000fd5b7f4e487b7100000000000000000000000000000000000000000000000000000000600052603260045260246000fd5b6000614a6882613c38565b91506000821415614a7c57614a7b614354565b5b600182039050919050565b7f537472696e67733a20686578206c656e67746820696e73756666696369656e74600082015250565b6000614abd602083613b2a565b9150614ac882614a87565b602082019050919050565b60006020820190508181036000830152614aec81614ab0565b9050919050565b7f45524332303a20617070726f76652066726f6d20746865207a65726f2061646460008201527f7265737300000000000000000000000000000000000000000000000000000000602082015250565b6000614b4f602483613b2a565b9150614b5a82614af3565b604082019050919050565b60006020820190508181036000830152614b7e81614b42565b9050919050565b7f45524332303a20617070726f766520746f20746865207a65726f20616464726560008201527f7373000000000000000000000000000000000000000000000000000000000000602082015250565b6000614be1602283613b2a565b9150614bec82614b85565b604082019050919050565b60006020820190508181036000830152614c1081614bd4565b9050919050565b600081905092915050565b7f416363657373436f6e74726f6c3a206163636f756e7420000000000000000000600082015250565b6000614c58601783614c17565b9150614c6382614c22565b601782019050919050565b6000614c7982613b1f565b614c838185614c17565b9350614c93818560208601613b3b565b80840191505092915050565b7f206973206d697373696e6720726f6c6520000000000000000000000000000000600082015250565b6000614cd5601183614c17565b9150614ce082614c9f565b601182019050919050565b6000614cf682614c4b565b9150614d028285614c6e565b9150614d0d82614cc8565b9150614d198284614c6e565b91508190509392505050565b7f45524332303a206d696e7420746f20746865207a65726f206164647265737300600082015250565b6000614d5b601f83613b2a565b9150614d6682614d25565b602082019050919050565b60006020820190508181036000830152614d8a81614d4e565b9050919050565b6000606082019050614da660008301866147c5565b614db360208301856147c5565b614dc06040830184613cae565b949350505050565b7f45524332303a206275726e2066726f6d20746865207a65726f2061646472657360008201527f7300000000000000000000000000000000000000000000000000000000000000602082015250565b6000614e24602183613b2a565b9150614e2f82614dc8565b604082019050919050565b60006020820190508181036000830152614e5381614e17565b9050919050565b7f45524332303a206275726e20616d6f756e7420657863656564732062616c616e60008201527f6365000000000000000000000000000000000000000000000000000000000000602082015250565b6000614eb6602283613b2a565b9150614ec182614e5a565b604082019050919050565b60006020820190508181036000830152614ee581614ea9565b9050919050565b7f45524332303a207472616e736665722066726f6d20746865207a65726f20616460008201527f6472657373000000000000000000000000000000000000000000000000000000602082015250565b6000614f48602583613b2a565b9150614f5382614eec565b604082019050919050565b60006020820190508181036000830152614f7781614f3b565b9050919050565b7f45524332303a207472616e7366657220746f20746865207a65726f206164647260008201527f6573730000000000000000000000000000000000000000000000000000000000602082015250565b6000614fda602383613b2a565b9150614fe582614f7e565b604082019050919050565b6000602082019050818103600083015261500981614fcd565b9050919050565b7f45524332303a207472616e7366657220616d6f756e742065786365656473206260008201527f616c616e63650000000000000000000000000000000000000000000000000000602082015250565b600061506c602683613b2a565b915061507782615010565b604082019050919050565b6000602082019050818103600083015261509b8161505f565b9050919050565b600060a0820190506150b76000830188613d8e565b6150c46020830187613d8e565b6150d16040830186613d8e565b6150de6060830185613cae565b6150eb60808301846147c5565b9695505050505050565b6150fe81613ae9565b811461510957600080fd5b50565b60008151905061511b816150f5565b92915050565b60006020828403121561513757615136613a5f565b5b60006151458482850161510c565b91505092915050565b7f5361666545524332303a204552433230206f7065726174696f6e20646964206e60008201527f6f74207375636365656400000000000000000000000000000000000000000000602082015250565b60006151aa602a83613b2a565b91506151b58261514e565b604082019050919050565b600060208201905081810360008301526151d98161519d565b9050919050565b7f1901000000000000000000000000000000000000000000000000000000000000600082015250565b6000615216600283614c17565b9150615221826151e0565b600282019050919050565b6000819050919050565b61524761524282613d2b565b61522c565b82525050565b600061525882615209565b91506152648285615236565b6020820191506152748284615236565b6020820191508190509392505050565b60006080820190506152996000830187613d8e565b6152a66020830186613e7f565b6152b36040830185613d8e565b6152c06060830184613d8e565b95945050505050565b7f4e487b7100000000000000000000000000000000000000000000000000000000600052602160045260246000fd5b7f45434453413a20696e76616c6964207369676e61747572650000000000000000600082015250565b600061532e601883613b2a565b9150615339826152f8565b602082019050919050565b6000602082019050818103600083015261535d81615321565b9050919050565b7f45434453413a20696e76616c6964207369676e6174757265206c656e67746800600082015250565b600061539a601f83613b2a565b91506153a582615364565b602082019050919050565b600060208201905081810360008301526153c98161538d565b9050919050565b7f45434453413a20696e76616c6964207369676e6174757265202773272076616c60008201527f7565000000000000000000000000000000000000000000000000000000000000602082015250565b600061542c602283613b2a565b9150615437826153d0565b604082019050919050565b6000602082019050818103600083015261545b8161541f565b9050919050565b7f45434453413a20696e76616c6964207369676e6174757265202776272076616c60008201527f7565000000000000000000000000000000000000000000000000000000000000602082015250565b60006154be602283613b2a565b91506154c982615462565b604082019050919050565b600060208201905081810360008301526154ed816154b1565b9050919050565b7f416464726573733a20696e73756666696369656e742062616c616e636520666f60008201527f722063616c6c0000000000000000000000000000000000000000000000000000602082015250565b6000615550602683613b2a565b915061555b826154f4565b604082019050919050565b6000602082019050818103600083015261557f81615543565b9050919050565b7f416464726573733a2063616c6c20746f206e6f6e2d636f6e7472616374000000600082015250565b60006155bc601d83613b2a565b91506155c782615586565b602082019050919050565b600060208201905081810360008301526155eb816155af565b9050919050565b600081519050919050565b600081905092915050565b6000615613826155f2565b61561d81856155fd565b935061562d818560208601613b3b565b80840191505092915050565b60006156458284615608565b91508190509291505056fea2646970667358221220994c15d08ae8f43763cfc67cdf781f864e4e93be1808c9d862dda4447400c7b564736f6c634300080a0033",
  "linkReferences": {},
  "deployedLinkReferences": {}
}