{
  "_format": "hh-sol-artifact-1",
  "contractName": "VLFI",
  "sourceName": "contracts/VLFI.sol",
  "abi": [
    {
      "inputs": [
        {
          "internalType": "string",
          "name": "name",
          "type": "string"
        },
        {
          "internalType": "string",
          "name": "symbol",
          "type": "string"
        },
        {
          "internalType": "contract IERC20",
          "name": "stakedToken",
          "type": "address"
        },
        {
          "internalType": "uint256",
          "name": "cooldownSeconds",
          "type": "uint256"
        },
        {
          "internalType": "uint256",
          "name": "unstakeWindow",
          "type": "uint256"
        }
      ],
      "stateMutability": "nonpayable",
      "type": "constructor"
    },
    {
      "anonymous": false,
      "inputs": [
        {
          "indexed": true,
          "internalType": "address",
          "name": "owner",
          "type": "address"
        },
        {
          "indexed": true,
          "internalType": "address",
          "name": "spender",
          "type": "address"
        },
        {
          "indexed": false,
          "internalType": "uint256",
          "name": "value",
          "type": "uint256"
        }
      ],
      "name": "Approval",
      "type": "event"
    },
    {
      "anonymous": false,
      "inputs": [
        {
          "indexed": true,
          "internalType": "address",
          "name": "from",
          "type": "address"
        },
        {
          "indexed": true,
          "internalType": "address",
          "name": "onBehalfOf",
          "type": "address"
        },
        {
          "indexed": false,
          "internalType": "uint256",
          "name": "amount",
          "type": "uint256"
        }
      ],
      "name": "Deposited",
      "type": "event"
    },
    {
      "anonymous": false,
      "inputs": [
        {
          "indexed": true,
          "internalType": "address",
          "name": "from",
          "type": "address"
        },
        {
          "indexed": true,
          "internalType": "address",
          "name": "to",
          "type": "address"
        },
        {
          "indexed": false,
          "internalType": "uint256",
          "name": "amount",
          "type": "uint256"
        }
      ],
      "name": "Redeemed",
      "type": "event"
    },
    {
      "anonymous": false,
      "inputs": [
        {
          "indexed": true,
          "internalType": "address",
          "name": "from",
          "type": "address"
        },
        {
          "indexed": true,
          "internalType": "address",
          "name": "to",
          "type": "address"
        },
        {
          "indexed": false,
          "internalType": "uint256",
          "name": "value",
          "type": "uint256"
        }
      ],
      "name": "Transfer",
      "type": "event"
    },
    {
      "inputs": [],
      "name": "COOLDOWN_SECONDS",
      "outputs": [
        {
          "internalType": "uint256",
          "name": "",
          "type": "uint256"
        }
      ],
      "stateMutability": "view",
      "type": "function"
    },
    {
      "inputs": [],
      "name": "STAKED_TOKEN",
      "outputs": [
        {
          "internalType": "contract IERC20",
          "name": "",
          "type": "address"
        }
      ],
      "stateMutability": "view",
      "type": "function"
    },
    {
      "inputs": [],
      "name": "UNSTAKE_WINDOW",
      "outputs": [
        {
          "internalType": "uint256",
          "name": "",
          "type": "uint256"
        }
      ],
      "stateMutability": "view",
      "type": "function"
    },
    {
      "inputs": [
        {
          "internalType": "address",
          "name": "owner",
          "type": "address"
        },
        {
          "internalType": "address",
          "name": "spender",
          "type": "address"
        }
      ],
      "name": "allowance",
      "outputs": [
        {
          "internalType": "uint256",
          "name": "",
          "type": "uint256"
        }
      ],
      "stateMutability": "view",
      "type": "function"
    },
    {
      "inputs": [
        {
          "internalType": "address",
          "name": "spender",
          "type": "address"
        },
        {
          "internalType": "uint256",
          "name": "amount",
          "type": "uint256"
        }
      ],
      "name": "approve",
      "outputs": [
        {
          "internalType": "bool",
          "name": "",
          "type": "bool"
        }
      ],
      "stateMutability": "nonpayable",
      "type": "function"
    },
    {
      "inputs": [
        {
          "internalType": "address",
          "name": "account",
          "type": "address"
        }
      ],
      "name": "balanceOf",
      "outputs": [
        {
          "internalType": "uint256",
          "name": "",
          "type": "uint256"
        }
      ],
      "stateMutability": "view",
      "type": "function"
    },
    {
      "inputs": [],
      "name": "claimRewards",
      "outputs": [],
      "stateMutability": "nonpayable",
      "type": "function"
    },
    {
      "inputs": [],
      "name": "cooldown",
      "outputs": [],
      "stateMutability": "nonpayable",
      "type": "function"
    },
    {
      "inputs": [],
      "name": "createFarm",
      "outputs": [],
      "stateMutability": "nonpayable",
      "type": "function"
    },
    {
      "inputs": [],
      "name": "decimals",
      "outputs": [
        {
          "internalType": "uint8",
          "name": "",
          "type": "uint8"
        }
      ],
      "stateMutability": "view",
      "type": "function"
    },
    {
      "inputs": [
        {
          "internalType": "address",
          "name": "spender",
          "type": "address"
        },
        {
          "internalType": "uint256",
          "name": "subtractedValue",
          "type": "uint256"
        }
      ],
      "name": "decreaseAllowance",
      "outputs": [
        {
          "internalType": "bool",
          "name": "",
          "type": "bool"
        }
      ],
      "stateMutability": "nonpayable",
      "type": "function"
    },
    {
      "inputs": [
        {
          "internalType": "uint256",
          "name": "amount",
          "type": "uint256"
        }
      ],
      "name": "depositLFI",
      "outputs": [],
      "stateMutability": "nonpayable",
      "type": "function"
    },
    {
      "inputs": [],
      "name": "farmInfo",
      "outputs": [
        {
          "internalType": "uint256",
          "name": "accRewardsPerShare",
          "type": "uint256"
        },
        {
          "internalType": "uint256",
          "name": "lastRewardTime",
          "type": "uint256"
        }
      ],
      "stateMutability": "view",
      "type": "function"
    },
    {
      "inputs": [
        {
          "internalType": "uint256",
          "name": "userCooldownTimestamp",
          "type": "uint256"
        },
        {
          "internalType": "uint256",
          "name": "amountToReceive",
          "type": "uint256"
        },
        {
          "internalType": "address",
          "name": "toAddress",
          "type": "address"
        },
        {
          "internalType": "uint256",
          "name": "toBalance",
          "type": "uint256"
        }
      ],
      "name": "getNextCooldownTimestamp",
      "outputs": [
        {
          "internalType": "uint256",
          "name": "",
          "type": "uint256"
        }
      ],
      "stateMutability": "view",
      "type": "function"
    },
    {
      "inputs": [
        {
          "internalType": "address",
          "name": "spender",
          "type": "address"
        },
        {
          "internalType": "uint256",
          "name": "addedValue",
          "type": "uint256"
        }
      ],
      "name": "increaseAllowance",
      "outputs": [
        {
          "internalType": "bool",
          "name": "",
          "type": "bool"
        }
      ],
      "stateMutability": "nonpayable",
      "type": "function"
    },
    {
      "inputs": [],
      "name": "name",
      "outputs": [
        {
          "internalType": "string",
          "name": "",
          "type": "string"
        }
      ],
      "stateMutability": "view",
      "type": "function"
    },
    {
      "inputs": [],
      "name": "pendingReward",
      "outputs": [
        {
          "internalType": "uint256",
          "name": "pendingRewards",
          "type": "uint256"
        }
      ],
      "stateMutability": "view",
      "type": "function"
    },
    {
      "inputs": [
        {
          "internalType": "uint256",
          "name": "amount",
          "type": "uint256"
        }
      ],
      "name": "redeemLFI",
      "outputs": [],
      "stateMutability": "nonpayable",
      "type": "function"
    },
    {
      "inputs": [],
      "name": "rewardPerSecond",
      "outputs": [
        {
          "internalType": "uint256",
          "name": "",
          "type": "uint256"
        }
      ],
      "stateMutability": "view",
      "type": "function"
    },
    {
      "inputs": [
        {
          "internalType": "uint256",
          "name": "_rewardPerSecond",
          "type": "uint256"
        }
      ],
      "name": "setRewardPerSecond",
      "outputs": [],
      "stateMutability": "nonpayable",
      "type": "function"
    },
    {
      "inputs": [
        {
          "internalType": "address",
          "name": "",
          "type": "address"
        }
      ],
      "name": "stakerRewardsToClaim",
      "outputs": [
        {
          "internalType": "uint256",
          "name": "",
          "type": "uint256"
        }
      ],
      "stateMutability": "view",
      "type": "function"
    },
    {
      "inputs": [
        {
          "internalType": "address",
          "name": "",
          "type": "address"
        }
      ],
      "name": "stakersCooldowns",
      "outputs": [
        {
          "internalType": "uint256",
          "name": "",
          "type": "uint256"
        }
      ],
      "stateMutability": "view",
      "type": "function"
    },
    {
      "inputs": [],
      "name": "symbol",
      "outputs": [
        {
          "internalType": "string",
          "name": "",
          "type": "string"
        }
      ],
      "stateMutability": "view",
      "type": "function"
    },
    {
      "inputs": [],
      "name": "totalSupply",
      "outputs": [
        {
          "internalType": "uint256",
          "name": "",
          "type": "uint256"
        }
      ],
      "stateMutability": "view",
      "type": "function"
    },
    {
      "inputs": [
        {
          "internalType": "address",
          "name": "to",
          "type": "address"
        },
        {
          "internalType": "uint256",
          "name": "amount",
          "type": "uint256"
        }
      ],
      "name": "transfer",
      "outputs": [
        {
          "internalType": "bool",
          "name": "",
          "type": "bool"
        }
      ],
      "stateMutability": "nonpayable",
      "type": "function"
    },
    {
      "inputs": [
        {
          "internalType": "address",
          "name": "sender",
          "type": "address"
        },
        {
          "internalType": "address",
          "name": "recipient",
          "type": "address"
        },
        {
          "internalType": "uint256",
          "name": "amount",
          "type": "uint256"
        }
      ],
      "name": "transferFrom",
      "outputs": [
        {
          "internalType": "bool",
          "name": "",
          "type": "bool"
        }
      ],
      "stateMutability": "nonpayable",
      "type": "function"
    },
    {
      "inputs": [],
      "name": "updateFarm",
      "outputs": [
        {
          "components": [
            {
              "internalType": "uint256",
              "name": "accRewardsPerShare",
              "type": "uint256"
            },
            {
              "internalType": "uint256",
              "name": "lastRewardTime",
              "type": "uint256"
            }
          ],
          "internalType": "struct VLFI.FarmInfo",
          "name": "farm",
          "type": "tuple"
        }
      ],
      "stateMutability": "nonpayable",
      "type": "function"
    },
    {
      "inputs": [],
      "name": "updateRewardsToClaim",
      "outputs": [],
      "stateMutability": "nonpayable",
      "type": "function"
    },
    {
      "inputs": [
        {
          "internalType": "address",
          "name": "",
          "type": "address"
        }
      ],
      "name": "userInfo",
      "outputs": [
        {
          "internalType": "uint256",
          "name": "amount",
          "type": "uint256"
        },
        {
          "internalType": "int256",
          "name": "rewardDebt",
          "type": "int256"
        }
      ],
      "stateMutability": "view",
      "type": "function"
    },
    {
      "inputs": [
        {
          "internalType": "address",
          "name": "",
          "type": "address"
        }
      ],
      "name": "userLFIDeposits",
      "outputs": [
        {
          "internalType": "uint256",
          "name": "",
          "type": "uint256"
        }
      ],
      "stateMutability": "view",
      "type": "function"
    }
  ],
  "bytecode": "0x60e06040526012600a6200001491906200031b565b6103e86200002391906200036c565b6009553480156200003357600080fd5b5060405162003e0b38038062003e0b833981810160405281019062000059919062000614565b8484816003908051906020019062000073929190620000de565b5080600490805190602001906200008c929190620000de565b5050508273ffffffffffffffffffffffffffffffffffffffff1660808173ffffffffffffffffffffffffffffffffffffffff16815250508160a081815250508060c0818152505050505050506200073f565b828054620000ec9062000709565b90600052602060002090601f0160209004810192826200011057600085556200015c565b82601f106200012b57805160ff19168380011785556200015c565b828001600101855582156200015c579182015b828111156200015b5782518255916020019190600101906200013e565b5b5090506200016b91906200016f565b5090565b5b808211156200018a57600081600090555060010162000170565b5090565b7f4e487b7100000000000000000000000000000000000000000000000000000000600052601160045260246000fd5b60008160011c9050919050565b6000808291508390505b60018511156200021c57808604811115620001f457620001f36200018e565b5b6001851615620002045780820291505b80810290506200021485620001bd565b9450620001d4565b94509492505050565b6000826200023757600190506200030a565b816200024757600090506200030a565b81600181146200026057600281146200026b57620002a1565b60019150506200030a565b60ff84111562000280576200027f6200018e565b5b8360020a9150848211156200029a57620002996200018e565b5b506200030a565b5060208310610133831016604e8410600b8410161715620002db5782820a905083811115620002d557620002d46200018e565b5b6200030a565b620002ea8484846001620001ca565b925090508184048111156200030457620003036200018e565b5b81810290505b9392505050565b6000819050919050565b6000620003288262000311565b9150620003358362000311565b9250620003647fffffffffffffffffffffffffffffffffffffffffffffffffffffffffffffffff848462000225565b905092915050565b6000620003798262000311565b9150620003868362000311565b9250817fffffffffffffffffffffffffffffffffffffffffffffffffffffffffffffffff0483118215151615620003c257620003c16200018e565b5b828202905092915050565b6000604051905090565b600080fd5b600080fd5b600080fd5b600080fd5b6000601f19601f8301169050919050565b7f4e487b7100000000000000000000000000000000000000000000000000000000600052604160045260246000fd5b6200043682620003eb565b810181811067ffffffffffffffff82111715620004585762000457620003fc565b5b80604052505050565b60006200046d620003cd565b90506200047b82826200042b565b919050565b600067ffffffffffffffff8211156200049e576200049d620003fc565b5b620004a982620003eb565b9050602081019050919050565b60005b83811015620004d6578082015181840152602081019050620004b9565b83811115620004e6576000848401525b50505050565b600062000503620004fd8462000480565b62000461565b905082815260208101848484011115620005225762000521620003e6565b5b6200052f848285620004b6565b509392505050565b600082601f8301126200054f576200054e620003e1565b5b815162000561848260208601620004ec565b91505092915050565b600073ffffffffffffffffffffffffffffffffffffffff82169050919050565b600062000597826200056a565b9050919050565b6000620005ab826200058a565b9050919050565b620005bd816200059e565b8114620005c957600080fd5b50565b600081519050620005dd81620005b2565b92915050565b620005ee8162000311565b8114620005fa57600080fd5b50565b6000815190506200060e81620005e3565b92915050565b600080600080600060a08688031215620006335762000632620003d7565b5b600086015167ffffffffffffffff811115620006545762000653620003dc565b5b620006628882890162000537565b955050602086015167ffffffffffffffff811115620006865762000685620003dc565b5b620006948882890162000537565b9450506040620006a788828901620005cc565b9350506060620006ba88828901620005fd565b9250506080620006cd88828901620005fd565b9150509295509295909350565b7f4e487b7100000000000000000000000000000000000000000000000000000000600052602260045260246000fd5b600060028204905060018216806200072257607f821691505b60208210811415620007395762000738620006da565b5b50919050565b60805160a05160c051613664620007a7600039600081816109b7015281816110f201526117a9015260008181610e97015281816110850152818161111301526117ca01526000818161098a01528181610a7201528181610d7b015261131b01526136646000f3fe608060405234801561001057600080fd5b50600436106101da5760003560e01c80634e253ad0116101045780638f10369a116100a2578063a9059cbb11610071578063a9059cbb14610539578063dd62ed3e14610569578063f1cc432a14610599578063f54ca63c146105c9576101da565b80638f10369a146104b157806395d89b41146104cf5780639f1d2ffa146104ed578063a457c2d714610509576101da565b806370a08231116100de57806370a082311461042957806372b49d6314610459578063787a08a6146104775780637e90d7ef14610481576101da565b80634e253ad0146103c157806366da5815146103dd5780636fbc92a2146103f9576101da565b80631d49d66c1161017c578063313ce5671161014b578063313ce5671461034b578063359c4a9614610369578063372500ab146103875780633950935114610391576101da565b80631d49d66c146102d45780631d5ec3cb146102f357806323b872dd146102fd578063312f6b831461032d576101da565b80630e5b47bc116101b85780630e5b47bc1461025d578063137ee36e1461026757806318160ddd146102855780631959a002146102a3576101da565b806306fdde03146101df578063091030c3146101fd578063095ea7b31461022d575b600080fd5b6101e76105e7565b6040516101f4919061251a565b60405180910390f35b6102176004803603810190610212919061259f565b610679565b60405161022491906125e5565b60405180910390f35b6102476004803603810190610242919061262c565b610691565b6040516102549190612687565b60405180910390f35b6102656106af565b005b61026f6106f8565b60405161027c91906125e5565b60405180910390f35b61028d61081f565b60405161029a91906125e5565b60405180910390f35b6102bd60048036038101906102b8919061259f565b610829565b6040516102cb9291906126bb565b60405180910390f35b6102dc61084d565b6040516102ea9291906126e4565b60405180910390f35b6102fb61085f565b005b6103176004803603810190610312919061270d565b610890565b6040516103249190612687565b60405180910390f35b610335610988565b60405161034291906127bf565b60405180910390f35b6103536109ac565b60405161036091906127f6565b60405180910390f35b6103716109b5565b60405161037e91906125e5565b60405180910390f35b61038f6109d9565b005b6103ab60048036038101906103a6919061262c565b610b15565b6040516103b89190612687565b60405180910390f35b6103db60048036038101906103d69190612811565b610bc1565b005b6103f760048036038101906103f29190612811565b610e2b565b005b610413600480360381019061040e919061259f565b610e35565b60405161042091906125e5565b60405180910390f35b610443600480360381019061043e919061259f565b610e4d565b60405161045091906125e5565b60405180910390f35b610461610e95565b60405161046e91906125e5565b60405180910390f35b61047f610eb9565b005b61049b6004803603810190610496919061259f565b610f4b565b6040516104a891906125e5565b60405180910390f35b6104b9610f63565b6040516104c691906125e5565b60405180910390f35b6104d7610f69565b6040516104e4919061251a565b60405180910390f35b61050760048036038101906105029190612811565b610ffb565b005b610523600480360381019061051e919061262c565b6113cc565b6040516105309190612687565b60405180910390f35b610553600480360381019061054e919061262c565b6114b7565b6040516105609190612687565b60405180910390f35b610583600480360381019061057e919061283e565b6116c6565b60405161059091906125e5565b60405180910390f35b6105b360048036038101906105ae919061287e565b61174d565b6040516105c091906125e5565b60405180910390f35b6105d1611881565b6040516105de9190612923565b60405180910390f35b6060600380546105f69061296d565b80601f01602080910402602001604051908101604052809291908181526020018280546106229061296d565b801561066f5780601f106106445761010080835404028352916020019161066f565b820191906000526020600020905b81548152906001019060200180831161065257829003601f168201915b5050505050905090565b600b6020528060005260406000206000915090505481565b60006106a561069e611956565b848461195e565b6001905092915050565b600080600a60003373ffffffffffffffffffffffffffffffffffffffff1673ffffffffffffffffffffffffffffffffffffffff1681526020019081526020016000208190555050565b60008060056040518060400160405290816000820154815260200160018201548152505090506000600860003373ffffffffffffffffffffffffffffffffffffffff1673ffffffffffffffffffffffffffffffffffffffff1681526020019081526020016000209050600082600001519050600061077461081f565b905083602001514211801561078a575060008114155b156107e45760008460200151426107a191906129ce565b90506000600754826107b39190612a02565b905082670de0b6b3a7640000826107ca9190612a02565b6107d49190612a8b565b846107df9190612abc565b935050505b8260010154670de0b6b3a76400008385600001546108029190612a02565b61080c9190612a8b565b6108169190612b12565b94505050505090565b6000600254905090565b60086020528060005260406000206000915090508060000154908060010154905082565b60058060000154908060010154905082565b6040518060400160405280600081526020014281525060056000820151816000015560208201518160010155905050565b600061089d848484611b29565b6000600160008673ffffffffffffffffffffffffffffffffffffffff1673ffffffffffffffffffffffffffffffffffffffff16815260200190815260200160002060006108e8611956565b73ffffffffffffffffffffffffffffffffffffffff1673ffffffffffffffffffffffffffffffffffffffff16815260200190815260200160002054905082811015610968576040517f08c379a000000000000000000000000000000000000000000000000000000000815260040161095f90612c18565b60405180910390fd5b61097c85610974611956565b85840361195e565b60019150509392505050565b7f000000000000000000000000000000000000000000000000000000000000000081565b60006012905090565b7f000000000000000000000000000000000000000000000000000000000000000081565b60006109e3611881565b90506000600860003373ffffffffffffffffffffffffffffffffffffffff1673ffffffffffffffffffffffffffffffffffffffff16815260200190815260200160002090506000670de0b6b3a764000083600001518360000154610a479190612a02565b610a519190612a8b565b90506000826001015482610a659190612b12565b90508183600101819055507f000000000000000000000000000000000000000000000000000000000000000073ffffffffffffffffffffffffffffffffffffffff1663a9059cbb33836040518363ffffffff1660e01b8152600401610acb929190612c47565b6020604051808303816000875af1158015610aea573d6000803e3d6000fd5b505050506040513d601f19601f82011682018060405250810190610b0e9190612c9c565b5050505050565b6000610bb7610b22611956565b848460016000610b30611956565b73ffffffffffffffffffffffffffffffffffffffff1673ffffffffffffffffffffffffffffffffffffffff16815260200190815260200160002060008873ffffffffffffffffffffffffffffffffffffffff1673ffffffffffffffffffffffffffffffffffffffff16815260200190815260200160002054610bb29190612abc565b61195e565b6001905092915050565b6000811415610c05576040517f08c379a0000000000000000000000000000000000000000000000000000000008152600401610bfc90612d15565b60405180910390fd5b6000610c1033610e4d565b90506000610c1c611881565b90506000600860003373ffffffffffffffffffffffffffffffffffffffff1673ffffffffffffffffffffffffffffffffffffffff1681526020019081526020016000209050670de0b6b3a764000060095485610c789190612a8b565b610c829190612a02565b816000016000828254610c959190612abc565b92505081905550670de0b6b3a76400008260000151670de0b6b3a764000060095487610cc19190612a8b565b610ccb9190612a02565b610cd59190612a02565b610cdf9190612a8b565b816001016000828254610cf29190612d35565b92505081905550610d06600085338661174d565b600b60003373ffffffffffffffffffffffffffffffffffffffff1673ffffffffffffffffffffffffffffffffffffffff16815260200190815260200160002081905550610d7333670de0b6b3a764000060095487610d649190612a8b565b610d6e9190612a02565b611daa565b610dc03330867f000000000000000000000000000000000000000000000000000000000000000073ffffffffffffffffffffffffffffffffffffffff16611f0a909392919063ffffffff16565b3373ffffffffffffffffffffffffffffffffffffffff163373ffffffffffffffffffffffffffffffffffffffff167f8752a472e571a816aea92eec8dae9baf628e840f4929fbcc2d155e6233ff68a786604051610e1d91906125e5565b60405180910390a350505050565b8060078190555050565b600c6020528060005260406000206000915090505481565b60008060008373ffffffffffffffffffffffffffffffffffffffff1673ffffffffffffffffffffffffffffffffffffffff168152602001908152602001600020549050919050565b7f000000000000000000000000000000000000000000000000000000000000000081565b6000610ec433610e4d565b1415610f05576040517f08c379a0000000000000000000000000000000000000000000000000000000008152600401610efc90612e15565b60405180910390fd5b42600b60003373ffffffffffffffffffffffffffffffffffffffff1673ffffffffffffffffffffffffffffffffffffffff16815260200190815260200160002081905550565b600a6020528060005260406000206000915090505481565b60075481565b606060048054610f789061296d565b80601f0160208091040260200160405190810160405280929190818152602001828054610fa49061296d565b8015610ff15780601f10610fc657610100808354040283529160200191610ff1565b820191906000526020600020905b815481529060010190602001808311610fd457829003601f168201915b5050505050905090565b600081141561103f576040517f08c379a000000000000000000000000000000000000000000000000000000000815260040161103690612d15565b60405180910390fd5b6000600b60003373ffffffffffffffffffffffffffffffffffffffff1673ffffffffffffffffffffffffffffffffffffffff1681526020019081526020016000205490507f0000000000000000000000000000000000000000000000000000000000000000816110af9190612abc565b42116110f0576040517f08c379a00000000000000000000000000000000000000000000000000000000081526004016110e790612e81565b60405180910390fd5b7f00000000000000000000000000000000000000000000000000000000000000007f00000000000000000000000000000000000000000000000000000000000000008261113d9190612abc565b4261114891906129ce565b1115611189576040517f08c379a000000000000000000000000000000000000000000000000000000000815260040161118090612eed565b60405180910390fd5b600061119433610e4d565b905060008184116111a557836111a7565b815b905060006111b3611881565b90506000600860003373ffffffffffffffffffffffffffffffffffffffff1673ffffffffffffffffffffffffffffffffffffffff1681526020019081526020016000209050670de0b6b3a76400008260000151670de0b6b3a76400006009548661121d9190612a8b565b6112279190612a02565b6112319190612a02565b61123b9190612a8b565b81600101600082825461124e9190612b12565b92505081905550670de0b6b3a76400006009548461126c9190612a8b565b6112769190612a02565b81600001600082825461128991906129ce565b925050819055506112ba33670de0b6b3a7640000600954866112ab9190612a8b565b6112b59190612a02565b611f93565b600083856112c891906129ce565b1415611314576000600b60003373ffffffffffffffffffffffffffffffffffffffff1673ffffffffffffffffffffffffffffffffffffffff168152602001908152602001600020819055505b61135f33847f000000000000000000000000000000000000000000000000000000000000000073ffffffffffffffffffffffffffffffffffffffff1661216a9092919063ffffffff16565b3373ffffffffffffffffffffffffffffffffffffffff163373ffffffffffffffffffffffffffffffffffffffff167f27d4634c833b7622a0acddbf7f746183625f105945e95c723ad1d5a9f2a0b6fc856040516113bc91906125e5565b60405180910390a3505050505050565b600080600160006113db611956565b73ffffffffffffffffffffffffffffffffffffffff1673ffffffffffffffffffffffffffffffffffffffff16815260200190815260200160002060008573ffffffffffffffffffffffffffffffffffffffff1673ffffffffffffffffffffffffffffffffffffffff16815260200190815260200160002054905082811015611498576040517f08c379a000000000000000000000000000000000000000000000000000000000815260040161148f90612f7f565b60405180910390fd5b6114ac6114a3611956565b8585840361195e565b600191505092915050565b6000806114c333610e4d565b905060006114cf6106f8565b9050600081600a60003373ffffffffffffffffffffffffffffffffffffffff1673ffffffffffffffffffffffffffffffffffffffff1681526020019081526020016000205461151e9190612abc565b90508573ffffffffffffffffffffffffffffffffffffffff163373ffffffffffffffffffffffffffffffffffffffff16146116ae57600061155e87610e4d565b9050600061156a6106f8565b9050600081600a60003373ffffffffffffffffffffffffffffffffffffffff1673ffffffffffffffffffffffffffffffffffffffff168152602001908152602001600020546115b99190612abc565b90506000600b60003373ffffffffffffffffffffffffffffffffffffffff1673ffffffffffffffffffffffffffffffffffffffff16815260200190815260200160002054905061160b818a8c8761174d565b600b60008c73ffffffffffffffffffffffffffffffffffffffff1673ffffffffffffffffffffffffffffffffffffffff16815260200190815260200160002081905550888714801561165e575060008114155b156116a9576000600b60003373ffffffffffffffffffffffffffffffffffffffff1673ffffffffffffffffffffffffffffffffffffffff168152602001908152602001600020819055505b505050505b6116b9338787611b29565b6001935050505092915050565b6000600160008473ffffffffffffffffffffffffffffffffffffffff1673ffffffffffffffffffffffffffffffffffffffff16815260200190815260200160002060008373ffffffffffffffffffffffffffffffffffffffff1673ffffffffffffffffffffffffffffffffffffffff16815260200190815260200160002054905092915050565b600080600b60008573ffffffffffffffffffffffffffffffffffffffff1673ffffffffffffffffffffffffffffffffffffffff16815260200190815260200160002054905060008114156117a5576000915050611879565b60007f00000000000000000000000000000000000000000000000000000000000000007f0000000000000000000000000000000000000000000000000000000000000000426117f491906129ce565b6117fe91906129ce565b9050818111156118115760009150611873565b60008782116118205787611822565b425b90508281101561183757829350505050611879565b84876118439190612abc565b838661184f9190612a02565b828961185b9190612a02565b6118659190612abc565b61186f9190612a8b565b9250505b81925050505b949350505050565b611889612467565b600560405180604001604052908160008201548152602001600182015481525050905042816020015110156119535760006118c261081f565b9050600081111561192d5760008260200151426118df91906129ce565b90506000600754826118f19190612a02565b905082670de0b6b3a7640000826119089190612a02565b6119129190612a8b565b846000018181516119239190612abc565b9150818152505050505b428260200181815250508160056000820151816000015560208201518160010155905050505b90565b600033905090565b600073ffffffffffffffffffffffffffffffffffffffff168373ffffffffffffffffffffffffffffffffffffffff1614156119ce576040517f08c379a00000000000000000000000000000000000000000000000000000000081526004016119c590613011565b60405180910390fd5b600073ffffffffffffffffffffffffffffffffffffffff168273ffffffffffffffffffffffffffffffffffffffff161415611a3e576040517f08c379a0000000000000000000000000000000000000000000000000000000008152600401611a35906130a3565b60405180910390fd5b80600160008573ffffffffffffffffffffffffffffffffffffffff1673ffffffffffffffffffffffffffffffffffffffff16815260200190815260200160002060008473ffffffffffffffffffffffffffffffffffffffff1673ffffffffffffffffffffffffffffffffffffffff168152602001908152602001600020819055508173ffffffffffffffffffffffffffffffffffffffff168373ffffffffffffffffffffffffffffffffffffffff167f8c5be1e5ebec7d5bd14f71427d1e84f3dd0314c0f7b2291e5b200ac8c7c3b92583604051611b1c91906125e5565b60405180910390a3505050565b600073ffffffffffffffffffffffffffffffffffffffff168373ffffffffffffffffffffffffffffffffffffffff161415611b99576040517f08c379a0000000000000000000000000000000000000000000000000000000008152600401611b9090613135565b60405180910390fd5b600073ffffffffffffffffffffffffffffffffffffffff168273ffffffffffffffffffffffffffffffffffffffff161415611c09576040517f08c379a0000000000000000000000000000000000000000000000000000000008152600401611c00906131c7565b60405180910390fd5b611c148383836121f0565b60008060008573ffffffffffffffffffffffffffffffffffffffff1673ffffffffffffffffffffffffffffffffffffffff16815260200190815260200160002054905081811015611c9a576040517f08c379a0000000000000000000000000000000000000000000000000000000008152600401611c9190613259565b60405180910390fd5b8181036000808673ffffffffffffffffffffffffffffffffffffffff1673ffffffffffffffffffffffffffffffffffffffff16815260200190815260200160002081905550816000808573ffffffffffffffffffffffffffffffffffffffff1673ffffffffffffffffffffffffffffffffffffffff1681526020019081526020016000206000828254611d2d9190612abc565b925050819055508273ffffffffffffffffffffffffffffffffffffffff168473ffffffffffffffffffffffffffffffffffffffff167fddf252ad1be2c89b69c2b068fc378daa952ba7f163c4a11628f55a4df523b3ef84604051611d9191906125e5565b60405180910390a3611da48484846121f5565b50505050565b600073ffffffffffffffffffffffffffffffffffffffff168273ffffffffffffffffffffffffffffffffffffffff161415611e1a576040517f08c379a0000000000000000000000000000000000000000000000000000000008152600401611e11906132c5565b60405180910390fd5b611e26600083836121f0565b8060026000828254611e389190612abc565b92505081905550806000808473ffffffffffffffffffffffffffffffffffffffff1673ffffffffffffffffffffffffffffffffffffffff1681526020019081526020016000206000828254611e8d9190612abc565b925050819055508173ffffffffffffffffffffffffffffffffffffffff16600073ffffffffffffffffffffffffffffffffffffffff167fddf252ad1be2c89b69c2b068fc378daa952ba7f163c4a11628f55a4df523b3ef83604051611ef291906125e5565b60405180910390a3611f06600083836121f5565b5050565b611f8d846323b872dd60e01b858585604051602401611f2b939291906132e5565b604051602081830303815290604052907bffffffffffffffffffffffffffffffffffffffffffffffffffffffff19166020820180517bffffffffffffffffffffffffffffffffffffffffffffffffffffffff83818316178352505050506121fa565b50505050565b600073ffffffffffffffffffffffffffffffffffffffff168273ffffffffffffffffffffffffffffffffffffffff161415612003576040517f08c379a0000000000000000000000000000000000000000000000000000000008152600401611ffa9061338e565b60405180910390fd5b61200f826000836121f0565b60008060008473ffffffffffffffffffffffffffffffffffffffff1673ffffffffffffffffffffffffffffffffffffffff16815260200190815260200160002054905081811015612095576040517f08c379a000000000000000000000000000000000000000000000000000000000815260040161208c90613420565b60405180910390fd5b8181036000808573ffffffffffffffffffffffffffffffffffffffff1673ffffffffffffffffffffffffffffffffffffffff1681526020019081526020016000208190555081600260008282546120ec91906129ce565b92505081905550600073ffffffffffffffffffffffffffffffffffffffff168373ffffffffffffffffffffffffffffffffffffffff167fddf252ad1be2c89b69c2b068fc378daa952ba7f163c4a11628f55a4df523b3ef8460405161215191906125e5565b60405180910390a3612165836000846121f5565b505050565b6121eb8363a9059cbb60e01b8484604051602401612189929190612c47565b604051602081830303815290604052907bffffffffffffffffffffffffffffffffffffffffffffffffffffffff19166020820180517bffffffffffffffffffffffffffffffffffffffffffffffffffffffff83818316178352505050506121fa565b505050565b505050565b505050565b600061225c826040518060400160405280602081526020017f5361666545524332303a206c6f772d6c6576656c2063616c6c206661696c65648152508573ffffffffffffffffffffffffffffffffffffffff166122c19092919063ffffffff16565b90506000815111156122bc578080602001905181019061227c9190612c9c565b6122bb576040517f08c379a00000000000000000000000000000000000000000000000000000000081526004016122b2906134b2565b60405180910390fd5b5b505050565b60606122d084846000856122d9565b90509392505050565b60608247101561231e576040517f08c379a000000000000000000000000000000000000000000000000000000000815260040161231590613544565b60405180910390fd5b612327856123ed565b612366576040517f08c379a000000000000000000000000000000000000000000000000000000000815260040161235d906135b0565b60405180910390fd5b6000808673ffffffffffffffffffffffffffffffffffffffff16858760405161238f9190613617565b60006040518083038185875af1925050503d80600081146123cc576040519150601f19603f3d011682016040523d82523d6000602084013e6123d1565b606091505b50915091506123e1828286612400565b92505050949350505050565b600080823b905060008111915050919050565b6060831561241057829050612460565b6000835111156124235782518084602001fd5b816040517f08c379a0000000000000000000000000000000000000000000000000000000008152600401612457919061251a565b60405180910390fd5b9392505050565b604051806040016040528060008152602001600081525090565b600081519050919050565b600082825260208201905092915050565b60005b838110156124bb5780820151818401526020810190506124a0565b838111156124ca576000848401525b50505050565b6000601f19601f8301169050919050565b60006124ec82612481565b6124f6818561248c565b935061250681856020860161249d565b61250f816124d0565b840191505092915050565b6000602082019050818103600083015261253481846124e1565b905092915050565b600080fd5b600073ffffffffffffffffffffffffffffffffffffffff82169050919050565b600061256c82612541565b9050919050565b61257c81612561565b811461258757600080fd5b50565b60008135905061259981612573565b92915050565b6000602082840312156125b5576125b461253c565b5b60006125c38482850161258a565b91505092915050565b6000819050919050565b6125df816125cc565b82525050565b60006020820190506125fa60008301846125d6565b92915050565b612609816125cc565b811461261457600080fd5b50565b60008135905061262681612600565b92915050565b600080604083850312156126435761264261253c565b5b60006126518582860161258a565b925050602061266285828601612617565b9150509250929050565b60008115159050919050565b6126818161266c565b82525050565b600060208201905061269c6000830184612678565b92915050565b6000819050919050565b6126b5816126a2565b82525050565b60006040820190506126d060008301856125d6565b6126dd60208301846126ac565b9392505050565b60006040820190506126f960008301856125d6565b61270660208301846125d6565b9392505050565b6000806000606084860312156127265761272561253c565b5b60006127348682870161258a565b93505060206127458682870161258a565b925050604061275686828701612617565b9150509250925092565b6000819050919050565b600061278561278061277b84612541565b612760565b612541565b9050919050565b60006127978261276a565b9050919050565b60006127a98261278c565b9050919050565b6127b98161279e565b82525050565b60006020820190506127d460008301846127b0565b92915050565b600060ff82169050919050565b6127f0816127da565b82525050565b600060208201905061280b60008301846127e7565b92915050565b6000602082840312156128275761282661253c565b5b600061283584828501612617565b91505092915050565b600080604083850312156128555761285461253c565b5b60006128638582860161258a565b92505060206128748582860161258a565b9150509250929050565b600080600080608085870312156128985761289761253c565b5b60006128a687828801612617565b94505060206128b787828801612617565b93505060406128c88782880161258a565b92505060606128d987828801612617565b91505092959194509250565b6128ee816125cc565b82525050565b60408201600082015161290a60008501826128e5565b50602082015161291d60208501826128e5565b50505050565b600060408201905061293860008301846128f4565b92915050565b7f4e487b7100000000000000000000000000000000000000000000000000000000600052602260045260246000fd5b6000600282049050600182168061298557607f821691505b602082108114156129995761299861293e565b5b50919050565b7f4e487b7100000000000000000000000000000000000000000000000000000000600052601160045260246000fd5b60006129d9826125cc565b91506129e4836125cc565b9250828210156129f7576129f661299f565b5b828203905092915050565b6000612a0d826125cc565b9150612a18836125cc565b9250817fffffffffffffffffffffffffffffffffffffffffffffffffffffffffffffffff0483118215151615612a5157612a5061299f565b5b828202905092915050565b7f4e487b7100000000000000000000000000000000000000000000000000000000600052601260045260246000fd5b6000612a96826125cc565b9150612aa1836125cc565b925082612ab157612ab0612a5c565b5b828204905092915050565b6000612ac7826125cc565b9150612ad2836125cc565b9250827fffffffffffffffffffffffffffffffffffffffffffffffffffffffffffffffff03821115612b0757612b0661299f565b5b828201905092915050565b6000612b1d826126a2565b9150612b28836126a2565b9250827f800000000000000000000000000000000000000000000000000000000000000001821260008412151615612b6357612b6261299f565b5b827f7fffffffffffffffffffffffffffffffffffffffffffffffffffffffffffffff018213600084121615612b9b57612b9a61299f565b5b828203905092915050565b7f45524332303a207472616e7366657220616d6f756e742065786365656473206160008201527f6c6c6f77616e6365000000000000000000000000000000000000000000000000602082015250565b6000612c0260288361248c565b9150612c0d82612ba6565b604082019050919050565b60006020820190508181036000830152612c3181612bf5565b9050919050565b612c4181612561565b82525050565b6000604082019050612c5c6000830185612c38565b612c6960208301846125d6565b9392505050565b612c798161266c565b8114612c8457600080fd5b50565b600081519050612c9681612c70565b92915050565b600060208284031215612cb257612cb161253c565b5b6000612cc084828501612c87565b91505092915050565b7f564c46493a494e56414c49445f414d4f554e5400000000000000000000000000600082015250565b6000612cff60138361248c565b9150612d0a82612cc9565b602082019050919050565b60006020820190508181036000830152612d2e81612cf2565b9050919050565b6000612d40826126a2565b9150612d4b836126a2565b9250817f7fffffffffffffffffffffffffffffffffffffffffffffffffffffffffffffff03831360008312151615612d8657612d8561299f565b5b817f8000000000000000000000000000000000000000000000000000000000000000038312600083121615612dbe57612dbd61299f565b5b828201905092915050565b7f564c46493a494e56414c49445f42414c414e43455f4f4e5f434f4f4c444f574e600082015250565b6000612dff60208361248c565b9150612e0a82612dc9565b602082019050919050565b60006020820190508181036000830152612e2e81612df2565b9050919050565b7f564c46493a494e53554646494349454e545f434f4f4c444f574e000000000000600082015250565b6000612e6b601a8361248c565b9150612e7682612e35565b602082019050919050565b60006020820190508181036000830152612e9a81612e5e565b9050919050565b7f564c46493a554e5354414b455f57494e444f575f46494e495348454400000000600082015250565b6000612ed7601c8361248c565b9150612ee282612ea1565b602082019050919050565b60006020820190508181036000830152612f0681612eca565b9050919050565b7f45524332303a2064656372656173656420616c6c6f77616e63652062656c6f7760008201527f207a65726f000000000000000000000000000000000000000000000000000000602082015250565b6000612f6960258361248c565b9150612f7482612f0d565b604082019050919050565b60006020820190508181036000830152612f9881612f5c565b9050919050565b7f45524332303a20617070726f76652066726f6d20746865207a65726f2061646460008201527f7265737300000000000000000000000000000000000000000000000000000000602082015250565b6000612ffb60248361248c565b915061300682612f9f565b604082019050919050565b6000602082019050818103600083015261302a81612fee565b9050919050565b7f45524332303a20617070726f766520746f20746865207a65726f20616464726560008201527f7373000000000000000000000000000000000000000000000000000000000000602082015250565b600061308d60228361248c565b915061309882613031565b604082019050919050565b600060208201905081810360008301526130bc81613080565b9050919050565b7f45524332303a207472616e736665722066726f6d20746865207a65726f20616460008201527f6472657373000000000000000000000000000000000000000000000000000000602082015250565b600061311f60258361248c565b915061312a826130c3565b604082019050919050565b6000602082019050818103600083015261314e81613112565b9050919050565b7f45524332303a207472616e7366657220746f20746865207a65726f206164647260008201527f6573730000000000000000000000000000000000000000000000000000000000602082015250565b60006131b160238361248c565b91506131bc82613155565b604082019050919050565b600060208201905081810360008301526131e0816131a4565b9050919050565b7f45524332303a207472616e7366657220616d6f756e742065786365656473206260008201527f616c616e63650000000000000000000000000000000000000000000000000000602082015250565b600061324360268361248c565b915061324e826131e7565b604082019050919050565b6000602082019050818103600083015261327281613236565b9050919050565b7f45524332303a206d696e7420746f20746865207a65726f206164647265737300600082015250565b60006132af601f8361248c565b91506132ba82613279565b602082019050919050565b600060208201905081810360008301526132de816132a2565b9050919050565b60006060820190506132fa6000830186612c38565b6133076020830185612c38565b61331460408301846125d6565b949350505050565b7f45524332303a206275726e2066726f6d20746865207a65726f2061646472657360008201527f7300000000000000000000000000000000000000000000000000000000000000602082015250565b600061337860218361248c565b91506133838261331c565b604082019050919050565b600060208201905081810360008301526133a78161336b565b9050919050565b7f45524332303a206275726e20616d6f756e7420657863656564732062616c616e60008201527f6365000000000000000000000000000000000000000000000000000000000000602082015250565b600061340a60228361248c565b9150613415826133ae565b604082019050919050565b60006020820190508181036000830152613439816133fd565b9050919050565b7f5361666545524332303a204552433230206f7065726174696f6e20646964206e60008201527f6f74207375636365656400000000000000000000000000000000000000000000602082015250565b600061349c602a8361248c565b91506134a782613440565b604082019050919050565b600060208201905081810360008301526134cb8161348f565b9050919050565b7f416464726573733a20696e73756666696369656e742062616c616e636520666f60008201527f722063616c6c0000000000000000000000000000000000000000000000000000602082015250565b600061352e60268361248c565b9150613539826134d2565b604082019050919050565b6000602082019050818103600083015261355d81613521565b9050919050565b7f416464726573733a2063616c6c20746f206e6f6e2d636f6e7472616374000000600082015250565b600061359a601d8361248c565b91506135a582613564565b602082019050919050565b600060208201905081810360008301526135c98161358d565b9050919050565b600081519050919050565b600081905092915050565b60006135f1826135d0565b6135fb81856135db565b935061360b81856020860161249d565b80840191505092915050565b600061362382846135e6565b91508190509291505056fea264697066735822122077bec197c7a0327bea37098aa00d2b6e28731673b74e0fb82ff436393d7aa0eb64736f6c634300080a0033",
  "linkReferences": {},
  "deployedLinkReferences": {}
}