{
  "_format": "hh-sol-artifact-1",
  "contractName": "VLFI",
  "sourceName": "contracts/VLFI.sol",
  "abi": [
    {
      "anonymous": false,
      "inputs": [
        {
          "indexed": true,
          "internalType": "address",
          "name": "owner",
          "type": "address"
        },
        {
          "indexed": true,
          "internalType": "address",
          "name": "spender",
          "type": "address"
        },
        {
          "indexed": false,
          "internalType": "uint256",
          "name": "value",
          "type": "uint256"
        }
      ],
      "name": "Approval",
      "type": "event"
    },
    {
      "anonymous": false,
      "inputs": [
        {
          "indexed": true,
          "internalType": "address",
          "name": "user",
          "type": "address"
        }
      ],
      "name": "CooldownActivated",
      "type": "event"
    },
    {
      "anonymous": false,
      "inputs": [
        {
          "indexed": true,
          "internalType": "address",
          "name": "delegator",
          "type": "address"
        },
        {
          "indexed": true,
          "internalType": "address",
          "name": "fromDelegate",
          "type": "address"
        },
        {
          "indexed": true,
          "internalType": "address",
          "name": "toDelegate",
          "type": "address"
        }
      ],
      "name": "DelegateChanged",
      "type": "event"
    },
    {
      "anonymous": false,
      "inputs": [
        {
          "indexed": true,
          "internalType": "address",
          "name": "delegate",
          "type": "address"
        },
        {
          "indexed": false,
          "internalType": "uint256",
          "name": "previousBalance",
          "type": "uint256"
        },
        {
          "indexed": false,
          "internalType": "uint256",
          "name": "newBalance",
          "type": "uint256"
        }
      ],
      "name": "DelegateVotesChanged",
      "type": "event"
    },
    {
      "anonymous": false,
      "inputs": [
        {
          "indexed": true,
          "internalType": "address",
          "name": "from",
          "type": "address"
        },
        {
          "indexed": true,
          "internalType": "address",
          "name": "to",
          "type": "address"
        },
        {
          "indexed": false,
          "internalType": "uint256",
          "name": "amount",
          "type": "uint256"
        }
      ],
      "name": "RewardsClaimed",
      "type": "event"
    },
    {
      "anonymous": false,
      "inputs": [
        {
          "indexed": true,
          "internalType": "bytes32",
          "name": "role",
          "type": "bytes32"
        },
        {
          "indexed": true,
          "internalType": "bytes32",
          "name": "previousAdminRole",
          "type": "bytes32"
        },
        {
          "indexed": true,
          "internalType": "bytes32",
          "name": "newAdminRole",
          "type": "bytes32"
        }
      ],
      "name": "RoleAdminChanged",
      "type": "event"
    },
    {
      "anonymous": false,
      "inputs": [
        {
          "indexed": true,
          "internalType": "bytes32",
          "name": "role",
          "type": "bytes32"
        },
        {
          "indexed": true,
          "internalType": "address",
          "name": "account",
          "type": "address"
        },
        {
          "indexed": true,
          "internalType": "address",
          "name": "sender",
          "type": "address"
        }
      ],
      "name": "RoleGranted",
      "type": "event"
    },
    {
      "anonymous": false,
      "inputs": [
        {
          "indexed": true,
          "internalType": "bytes32",
          "name": "role",
          "type": "bytes32"
        },
        {
          "indexed": true,
          "internalType": "address",
          "name": "account",
          "type": "address"
        },
        {
          "indexed": true,
          "internalType": "address",
          "name": "sender",
          "type": "address"
        }
      ],
      "name": "RoleRevoked",
      "type": "event"
    },
    {
      "anonymous": false,
      "inputs": [
        {
          "indexed": true,
          "internalType": "address",
          "name": "from",
          "type": "address"
        },
        {
          "indexed": true,
          "internalType": "address",
          "name": "onBehalfOf",
          "type": "address"
        },
        {
          "indexed": false,
          "internalType": "uint256",
          "name": "amount",
          "type": "uint256"
        }
      ],
      "name": "Staked",
      "type": "event"
    },
    {
      "anonymous": false,
      "inputs": [
        {
          "indexed": true,
          "internalType": "address",
          "name": "from",
          "type": "address"
        },
        {
          "indexed": true,
          "internalType": "address",
          "name": "to",
          "type": "address"
        },
        {
          "indexed": false,
          "internalType": "uint256",
          "name": "value",
          "type": "uint256"
        }
      ],
      "name": "Transfer",
      "type": "event"
    },
    {
      "anonymous": false,
      "inputs": [
        {
          "indexed": true,
          "internalType": "address",
          "name": "from",
          "type": "address"
        },
        {
          "indexed": true,
          "internalType": "address",
          "name": "to",
          "type": "address"
        },
        {
          "indexed": false,
          "internalType": "uint256",
          "name": "amount",
          "type": "uint256"
        }
      ],
      "name": "UnStaked",
      "type": "event"
    },
    {
      "inputs": [],
      "name": "DEFAULT_ADMIN_ROLE",
      "outputs": [
        {
          "internalType": "bytes32",
          "name": "",
          "type": "bytes32"
        }
      ],
      "stateMutability": "view",
      "type": "function"
    },
    {
      "inputs": [],
      "name": "DOMAIN_SEPARATOR",
      "outputs": [
        {
          "internalType": "bytes32",
          "name": "",
          "type": "bytes32"
        }
      ],
      "stateMutability": "view",
      "type": "function"
    },
    {
      "inputs": [],
      "name": "MANAGER_ROLE",
      "outputs": [
        {
          "internalType": "bytes32",
          "name": "",
          "type": "bytes32"
        }
      ],
      "stateMutability": "view",
      "type": "function"
    },
    {
      "inputs": [],
      "name": "STAKED_TOKEN",
      "outputs": [
        {
          "internalType": "contract ILFIToken",
          "name": "",
          "type": "address"
        }
      ],
      "stateMutability": "view",
      "type": "function"
    },
    {
      "inputs": [],
      "name": "activateCooldown",
      "outputs": [],
      "stateMutability": "nonpayable",
      "type": "function"
    },
    {
      "inputs": [
        {
          "internalType": "address",
          "name": "owner",
          "type": "address"
        },
        {
          "internalType": "address",
          "name": "spender",
          "type": "address"
        }
      ],
      "name": "allowance",
      "outputs": [
        {
          "internalType": "uint256",
          "name": "",
          "type": "uint256"
        }
      ],
      "stateMutability": "view",
      "type": "function"
    },
    {
      "inputs": [
        {
          "internalType": "address",
          "name": "spender",
          "type": "address"
        },
        {
          "internalType": "uint256",
          "name": "amount",
          "type": "uint256"
        }
      ],
      "name": "approve",
      "outputs": [
        {
          "internalType": "bool",
          "name": "",
          "type": "bool"
        }
      ],
      "stateMutability": "nonpayable",
      "type": "function"
    },
    {
      "inputs": [
        {
          "internalType": "address",
          "name": "account",
          "type": "address"
        }
      ],
      "name": "balanceOf",
      "outputs": [
        {
          "internalType": "uint256",
          "name": "",
          "type": "uint256"
        }
      ],
      "stateMutability": "view",
      "type": "function"
    },
    {
      "inputs": [
        {
          "internalType": "address",
          "name": "account",
          "type": "address"
        },
        {
          "internalType": "uint32",
          "name": "pos",
          "type": "uint32"
        }
      ],
      "name": "checkpoints",
      "outputs": [
        {
          "components": [
            {
              "internalType": "uint32",
              "name": "fromBlock",
              "type": "uint32"
            },
            {
              "internalType": "uint224",
              "name": "votes",
              "type": "uint224"
            }
          ],
          "internalType": "struct ERC20VotesUpgradeable.Checkpoint",
          "name": "",
          "type": "tuple"
        }
      ],
      "stateMutability": "view",
      "type": "function"
    },
    {
      "inputs": [
        {
          "internalType": "address",
          "name": "to",
          "type": "address"
        }
      ],
      "name": "claimRewards",
      "outputs": [],
      "stateMutability": "nonpayable",
      "type": "function"
    },
    {
      "inputs": [],
      "name": "createFarm",
      "outputs": [],
      "stateMutability": "nonpayable",
      "type": "function"
    },
    {
      "inputs": [],
      "name": "decimals",
      "outputs": [
        {
          "internalType": "uint8",
          "name": "",
          "type": "uint8"
        }
      ],
      "stateMutability": "view",
      "type": "function"
    },
    {
      "inputs": [
        {
          "internalType": "address",
          "name": "spender",
          "type": "address"
        },
        {
          "internalType": "uint256",
          "name": "subtractedValue",
          "type": "uint256"
        }
      ],
      "name": "decreaseAllowance",
      "outputs": [
        {
          "internalType": "bool",
          "name": "",
          "type": "bool"
        }
      ],
      "stateMutability": "nonpayable",
      "type": "function"
    },
    {
      "inputs": [
        {
          "internalType": "address",
          "name": "delegatee",
          "type": "address"
        }
      ],
      "name": "delegate",
      "outputs": [],
      "stateMutability": "nonpayable",
      "type": "function"
    },
    {
      "inputs": [
        {
          "internalType": "address",
          "name": "delegatee",
          "type": "address"
        },
        {
          "internalType": "uint256",
          "name": "nonce",
          "type": "uint256"
        },
        {
          "internalType": "uint256",
          "name": "expiry",
          "type": "uint256"
        },
        {
          "internalType": "uint8",
          "name": "v",
          "type": "uint8"
        },
        {
          "internalType": "bytes32",
          "name": "r",
          "type": "bytes32"
        },
        {
          "internalType": "bytes32",
          "name": "s",
          "type": "bytes32"
        }
      ],
      "name": "delegateBySig",
      "outputs": [],
      "stateMutability": "nonpayable",
      "type": "function"
    },
    {
      "inputs": [
        {
          "internalType": "address",
          "name": "account",
          "type": "address"
        }
      ],
      "name": "delegates",
      "outputs": [
        {
          "internalType": "address",
          "name": "",
          "type": "address"
        }
      ],
      "stateMutability": "view",
      "type": "function"
    },
    {
      "inputs": [],
      "name": "getAccRewardPerShare",
      "outputs": [
        {
          "internalType": "uint256",
          "name": "",
          "type": "uint256"
        }
      ],
      "stateMutability": "view",
      "type": "function"
    },
    {
      "inputs": [
        {
          "internalType": "address",
          "name": "staker",
          "type": "address"
        }
      ],
      "name": "getCooldown",
      "outputs": [
        {
          "internalType": "uint256",
          "name": "",
          "type": "uint256"
        }
      ],
      "stateMutability": "view",
      "type": "function"
    },
    {
      "inputs": [],
      "name": "getCooldownSeconds",
      "outputs": [
        {
          "internalType": "uint256",
          "name": "",
          "type": "uint256"
        }
      ],
      "stateMutability": "view",
      "type": "function"
    },
    {
      "inputs": [],
      "name": "getLastRewardTime",
      "outputs": [
        {
          "internalType": "uint256",
          "name": "",
          "type": "uint256"
        }
      ],
      "stateMutability": "view",
      "type": "function"
    },
    {
      "inputs": [],
      "name": "getLiquidityStatus",
      "outputs": [
        {
          "internalType": "uint256",
          "name": "",
          "type": "uint256"
        }
      ],
      "stateMutability": "view",
      "type": "function"
    },
    {
      "inputs": [
        {
          "internalType": "uint256",
          "name": "userCooldownTimestamp",
          "type": "uint256"
        },
        {
          "internalType": "uint256",
          "name": "amountToReceive",
          "type": "uint256"
        },
        {
          "internalType": "address",
          "name": "toAddress",
          "type": "address"
        },
        {
          "internalType": "uint256",
          "name": "toBalance",
          "type": "uint256"
        }
      ],
      "name": "getNextCooldownTimestamp",
      "outputs": [
        {
          "internalType": "uint256",
          "name": "",
          "type": "uint256"
        }
      ],
      "stateMutability": "view",
      "type": "function"
    },
    {
      "inputs": [
        {
          "internalType": "uint256",
          "name": "blockNumber",
          "type": "uint256"
        }
      ],
      "name": "getPastTotalSupply",
      "outputs": [
        {
          "internalType": "uint256",
          "name": "",
          "type": "uint256"
        }
      ],
      "stateMutability": "view",
      "type": "function"
    },
    {
      "inputs": [
        {
          "internalType": "address",
          "name": "account",
          "type": "address"
        },
        {
          "internalType": "uint256",
          "name": "blockNumber",
          "type": "uint256"
        }
      ],
      "name": "getPastVotes",
      "outputs": [
        {
          "internalType": "uint256",
          "name": "",
          "type": "uint256"
        }
      ],
      "stateMutability": "view",
      "type": "function"
    },
    {
      "inputs": [],
      "name": "getRewardPerSecond",
      "outputs": [
        {
          "internalType": "uint256",
          "name": "",
          "type": "uint256"
        }
      ],
      "stateMutability": "view",
      "type": "function"
    },
    {
      "inputs": [
        {
          "internalType": "address",
          "name": "benefitor",
          "type": "address"
        }
      ],
      "name": "getRewards",
      "outputs": [
        {
          "internalType": "uint256",
          "name": "pendingRewards",
          "type": "uint256"
        }
      ],
      "stateMutability": "view",
      "type": "function"
    },
    {
      "inputs": [
        {
          "internalType": "bytes32",
          "name": "role",
          "type": "bytes32"
        }
      ],
      "name": "getRoleAdmin",
      "outputs": [
        {
          "internalType": "bytes32",
          "name": "",
          "type": "bytes32"
        }
      ],
      "stateMutability": "view",
      "type": "function"
    },
    {
      "inputs": [],
      "name": "getUnstakeWindowTime",
      "outputs": [
        {
          "internalType": "uint256",
          "name": "",
          "type": "uint256"
        }
      ],
      "stateMutability": "view",
      "type": "function"
    },
    {
      "inputs": [
        {
          "internalType": "address",
          "name": "user",
          "type": "address"
        }
      ],
      "name": "getUserLFIDeposits",
      "outputs": [
        {
          "internalType": "uint256",
          "name": "",
          "type": "uint256"
        }
      ],
      "stateMutability": "view",
      "type": "function"
    },
    {
      "inputs": [
        {
          "internalType": "address",
          "name": "benefitor",
          "type": "address"
        }
      ],
      "name": "getUserRewardDebt",
      "outputs": [
        {
          "internalType": "int256",
          "name": "",
          "type": "int256"
        }
      ],
      "stateMutability": "view",
      "type": "function"
    },
    {
      "inputs": [
        {
          "internalType": "address",
          "name": "benefitor",
          "type": "address"
        }
      ],
      "name": "getUserVLFIAmount",
      "outputs": [
        {
          "internalType": "uint256",
          "name": "",
          "type": "uint256"
        }
      ],
      "stateMutability": "view",
      "type": "function"
    },
    {
      "inputs": [
        {
          "internalType": "address",
          "name": "account",
          "type": "address"
        }
      ],
      "name": "getVotes",
      "outputs": [
        {
          "internalType": "uint256",
          "name": "",
          "type": "uint256"
        }
      ],
      "stateMutability": "view",
      "type": "function"
    },
    {
      "inputs": [
        {
          "internalType": "bytes32",
          "name": "role",
          "type": "bytes32"
        },
        {
          "internalType": "address",
          "name": "account",
          "type": "address"
        }
      ],
      "name": "grantRole",
      "outputs": [],
      "stateMutability": "nonpayable",
      "type": "function"
    },
    {
      "inputs": [
        {
          "internalType": "bytes32",
          "name": "role",
          "type": "bytes32"
        },
        {
          "internalType": "address",
          "name": "account",
          "type": "address"
        }
      ],
      "name": "hasRole",
      "outputs": [
        {
          "internalType": "bool",
          "name": "",
          "type": "bool"
        }
      ],
      "stateMutability": "view",
      "type": "function"
    },
    {
      "inputs": [
        {
          "internalType": "address",
          "name": "spender",
          "type": "address"
        },
        {
          "internalType": "uint256",
          "name": "addedValue",
          "type": "uint256"
        }
      ],
      "name": "increaseAllowance",
      "outputs": [
        {
          "internalType": "bool",
          "name": "",
          "type": "bool"
        }
      ],
      "stateMutability": "nonpayable",
      "type": "function"
    },
    {
      "inputs": [
        {
          "internalType": "string",
          "name": "name",
          "type": "string"
        },
        {
          "internalType": "string",
          "name": "symbol",
          "type": "string"
        },
        {
          "internalType": "contract ILFIToken",
          "name": "stakedToken",
          "type": "address"
        },
        {
          "internalType": "uint256",
          "name": "cooldownSeconds",
          "type": "uint256"
        },
        {
          "internalType": "uint256",
          "name": "unstakeWindow",
          "type": "uint256"
        },
        {
          "internalType": "uint256",
          "name": "rewardsPerSecond",
          "type": "uint256"
        }
      ],
      "name": "initialize",
      "outputs": [],
      "stateMutability": "nonpayable",
      "type": "function"
    },
    {
      "inputs": [],
      "name": "name",
      "outputs": [
        {
          "internalType": "string",
          "name": "",
          "type": "string"
        }
      ],
      "stateMutability": "view",
      "type": "function"
    },
    {
      "inputs": [
        {
          "internalType": "address",
          "name": "owner",
          "type": "address"
        }
      ],
      "name": "nonces",
      "outputs": [
        {
          "internalType": "uint256",
          "name": "",
          "type": "uint256"
        }
      ],
      "stateMutability": "view",
      "type": "function"
    },
    {
      "inputs": [
        {
          "internalType": "address",
          "name": "account",
          "type": "address"
        }
      ],
      "name": "numCheckpoints",
      "outputs": [
        {
          "internalType": "uint32",
          "name": "",
          "type": "uint32"
        }
      ],
      "stateMutability": "view",
      "type": "function"
    },
    {
      "inputs": [
        {
          "internalType": "address",
          "name": "owner",
          "type": "address"
        },
        {
          "internalType": "address",
          "name": "spender",
          "type": "address"
        },
        {
          "internalType": "uint256",
          "name": "value",
          "type": "uint256"
        },
        {
          "internalType": "uint256",
          "name": "deadline",
          "type": "uint256"
        },
        {
          "internalType": "uint8",
          "name": "v",
          "type": "uint8"
        },
        {
          "internalType": "bytes32",
          "name": "r",
          "type": "bytes32"
        },
        {
          "internalType": "bytes32",
          "name": "s",
          "type": "bytes32"
        }
      ],
      "name": "permit",
      "outputs": [],
      "stateMutability": "nonpayable",
      "type": "function"
    },
    {
      "inputs": [
        {
          "internalType": "address",
          "name": "owner",
          "type": "address"
        },
        {
          "internalType": "address",
          "name": "spender",
          "type": "address"
        },
        {
          "internalType": "uint256",
          "name": "value",
          "type": "uint256"
        },
        {
          "internalType": "uint256",
          "name": "deadline",
          "type": "uint256"
        },
        {
          "internalType": "uint8",
          "name": "v",
          "type": "uint8"
        },
        {
          "internalType": "bytes32",
          "name": "r",
          "type": "bytes32"
        },
        {
          "internalType": "bytes32",
          "name": "s",
          "type": "bytes32"
        },
        {
          "internalType": "address",
          "name": "onBehalfOf",
          "type": "address"
        }
      ],
      "name": "permitAndStake",
      "outputs": [],
      "stateMutability": "nonpayable",
      "type": "function"
    },
    {
      "inputs": [
        {
          "internalType": "bytes32",
          "name": "role",
          "type": "bytes32"
        },
        {
          "internalType": "address",
          "name": "account",
          "type": "address"
        }
      ],
      "name": "renounceRole",
      "outputs": [],
      "stateMutability": "nonpayable",
      "type": "function"
    },
    {
      "inputs": [
        {
          "internalType": "bytes32",
          "name": "role",
          "type": "bytes32"
        },
        {
          "internalType": "address",
          "name": "account",
          "type": "address"
        }
      ],
      "name": "revokeRole",
      "outputs": [],
      "stateMutability": "nonpayable",
      "type": "function"
    },
    {
      "inputs": [
        {
          "internalType": "uint256",
          "name": "coolDownSeconds",
          "type": "uint256"
        }
      ],
      "name": "setCooldownSeconds",
      "outputs": [],
      "stateMutability": "nonpayable",
      "type": "function"
    },
    {
      "inputs": [
        {
          "internalType": "uint256",
          "name": "_rewardPerSecond",
          "type": "uint256"
        }
      ],
      "name": "setRewardPerSecond",
      "outputs": [],
      "stateMutability": "nonpayable",
      "type": "function"
    },
    {
      "inputs": [
        {
          "internalType": "uint256",
          "name": "unstakeWindow",
          "type": "uint256"
        }
      ],
      "name": "setUnstakeWindowTime",
      "outputs": [],
      "stateMutability": "nonpayable",
      "type": "function"
    },
    {
      "inputs": [
        {
          "internalType": "address",
          "name": "onBehalfOf",
          "type": "address"
        },
        {
          "internalType": "uint256",
          "name": "amount",
          "type": "uint256"
        }
      ],
      "name": "stake",
      "outputs": [],
      "stateMutability": "nonpayable",
      "type": "function"
    },
    {
      "inputs": [
        {
          "internalType": "bytes4",
          "name": "interfaceId",
          "type": "bytes4"
        }
      ],
      "name": "supportsInterface",
      "outputs": [
        {
          "internalType": "bool",
          "name": "",
          "type": "bool"
        }
      ],
      "stateMutability": "view",
      "type": "function"
    },
    {
      "inputs": [],
      "name": "symbol",
      "outputs": [
        {
          "internalType": "string",
          "name": "",
          "type": "string"
        }
      ],
      "stateMutability": "view",
      "type": "function"
    },
    {
      "inputs": [],
      "name": "totalSupply",
      "outputs": [
        {
          "internalType": "uint256",
          "name": "",
          "type": "uint256"
        }
      ],
      "stateMutability": "view",
      "type": "function"
    },
    {
      "inputs": [
        {
          "internalType": "address",
          "name": "to",
          "type": "address"
        },
        {
          "internalType": "uint256",
          "name": "amount",
          "type": "uint256"
        }
      ],
      "name": "transfer",
      "outputs": [
        {
          "internalType": "bool",
          "name": "",
          "type": "bool"
        }
      ],
      "stateMutability": "nonpayable",
      "type": "function"
    },
    {
      "inputs": [
        {
          "internalType": "address",
          "name": "from",
          "type": "address"
        },
        {
          "internalType": "address",
          "name": "to",
          "type": "address"
        },
        {
          "internalType": "uint256",
          "name": "amount",
          "type": "uint256"
        }
      ],
      "name": "transferFrom",
      "outputs": [
        {
          "internalType": "bool",
          "name": "",
          "type": "bool"
        }
      ],
      "stateMutability": "nonpayable",
      "type": "function"
    },
    {
      "inputs": [
        {
          "internalType": "address",
          "name": "to",
          "type": "address"
        },
        {
          "internalType": "uint256",
          "name": "amount",
          "type": "uint256"
        }
      ],
      "name": "unStake",
      "outputs": [],
      "stateMutability": "nonpayable",
      "type": "function"
    },
    {
      "inputs": [
        {
          "internalType": "address",
          "name": "to",
          "type": "address"
        }
      ],
      "name": "unStakeMax",
      "outputs": [],
      "stateMutability": "nonpayable",
      "type": "function"
    },
    {
      "inputs": [],
      "name": "updateFarm",
      "outputs": [
        {
          "components": [
            {
              "internalType": "uint256",
              "name": "accRewardsPerShare",
              "type": "uint256"
            },
            {
              "internalType": "uint256",
              "name": "lastRewardTime",
              "type": "uint256"
            }
          ],
          "internalType": "struct VLFI.FarmInfo",
          "name": "farm",
          "type": "tuple"
        }
      ],
      "stateMutability": "nonpayable",
      "type": "function"
    }
  ],
  "bytecode": "0x608060405234801561001057600080fd5b50613a95806100206000396000f3fe608060405234801561001057600080fd5b506004361061035d5760003560e01c806370a08231116101d3578063ad88918f11610104578063da5b4ee7116100a2578063ef5cfb8c1161007c578063ef5cfb8c146107ab578063f1127ed8146107be578063f1cc432a146107fb578063f54ca63c1461080e57600080fd5b8063da5b4ee714610754578063dd62ed3e1461075d578063ec87621c1461079657600080fd5b8063c61fbcc5116100de578063c61fbcc5146106ee578063d505accf1461071b578063d547741f1461072e578063d93938141461074157600080fd5b8063ad88918f146106b5578063adc9772e146106c8578063c3cda520146106db57600080fd5b806395d89b41116101715780639ab24eb01161014b5780639ab24eb014610674578063a217fddf14610687578063a457c2d71461068f578063a9059cbb146106a257600080fd5b806395d89b411461062f57806398094be0146106375780639a00a6a31461064a57600080fd5b80637b5b1157116101ad5780637b5b1157146105e35780637ecebe00146105f65780638e539e8c1461060957806391d148541461061c57600080fd5b806370a0823114610593578063733d07be146105a657806379ee54f7146105d057600080fd5b806339509351116102ad5780634853b3b21161024b578063616e0bf911610225578063616e0bf91461054657806366da58151461054f5780636c07d9fe146105625780636fcfff451461056b57600080fd5b80634853b3b2146104fe578063587cde1e146105065780635c19a95c1461053357600080fd5b80633a8f437e116102875780633a8f437e146104c65780633c0717fd146104d95780633d100a3a146104e25780633e340dae146104f557600080fd5b8063395093511461047657806339b84ecf146104895780633a46b1a8146104b357600080fd5b806323b872dd1161031a578063312f6b83116102f4578063312f6b8314610420578063313ce5671461044c5780633644e5151461045b57806336568abe1461046357600080fd5b806323b872dd146103d7578063248a9ca3146103ea5780632f2ff15d1461040d57600080fd5b806301ffc9a71461036257806306fdde031461038a578063095ea7b31461039f57806318160ddd146103b25780631d5ec3cb146103c45780631f477ea9146103ce575b600080fd5b610375610370366004613244565b610831565b60405190151581526020015b60405180910390f35b610392610868565b604051610381919061329a565b6103756103ad3660046132e2565b6108fa565b6067545b604051908152602001610381565b6103cc610912565b005b610166546103b6565b6103756103e536600461330e565b61094e565b6103b66103f836600461334f565b600090815260fe602052604090206001015490565b6103cc61041b366004613368565b610972565b61016254610434906001600160a01b031681565b6040516001600160a01b039091168152602001610381565b60405160128152602001610381565b6103b661099d565b6103cc610471366004613368565b6109ac565b6103756104843660046132e2565b610a2f565b6103b6610497366004613398565b6001600160a01b0316600090815261016a602052604090205490565b6103b66104c13660046132e2565b610a6e565b6103cc6104d4366004613398565b610ae9565b610163546103b6565b6103cc6104f03660046133cb565b610b0d565b610169546103b6565b6103cc610bae565b610434610514366004613398565b6001600160a01b03908116600090815261013060205260409020541690565b6103cc610541366004613398565b610c3e565b610165546103b6565b6103cc61055d36600461334f565b610c4b565b610168546103b6565b61057e610579366004613398565b610c74565b60405163ffffffff9091168152602001610381565b6103b66105a1366004613398565b610c97565b6103b66105b4366004613398565b6001600160a01b0316600090815261016c602052604090205490565b6103b66105de366004613398565b610cb2565b6103cc6105f136600461334f565b610d98565b6103b6610604366004613398565b610db8565b6103b661061736600461334f565b610dd6565b61037561062a366004613368565b610e33565b610392610e5e565b6103cc6106453660046134f1565b610e6d565b6103b6610658366004613398565b6001600160a01b0316600090815261016b602052604090205490565b6103b6610682366004613398565b610fb7565b6103b6600081565b61037561069d3660046132e2565b611040565b6103756106b03660046132e2565b6110d2565b6103cc6106c336600461334f565b6110e0565b6103cc6106d63660046132e2565b611100565b6103cc6106e9366004613583565b61134d565b6103b66106fc366004613398565b6001600160a01b0316600090815261016c602052604090206001015490565b6103cc6107293660046135dd565b61147a565b6103cc61073c366004613368565b6115c0565b6103cc61074f3660046132e2565b6115e6565b610167546103b6565b6103b661076b36600461364b565b6001600160a01b03918216600090815260666020908152604080832093909416825291909152205490565b6103b6600080516020613a4083398151915281565b6103cc6107b9366004613398565b61193e565b6107d16107cc366004613679565b611a5c565b60408051825163ffffffff1681526020928301516001600160e01b03169281019290925201610381565b6103b66108093660046136b0565b611ae1565b610816611ba4565b60408051825181526020928301519281019290925201610381565b60006001600160e01b03198216637965db0b60e01b148061086257506301ffc9a760e01b6001600160e01b03198316145b92915050565b606060688054610877906136ef565b80601f01602080910402602001604051908101604052809291908181526020018280546108a3906136ef565b80156108f05780601f106108c5576101008083540402835291602001916108f0565b820191906000526020600020905b8154815290600101906020018083116108d357829003601f168201915b5050505050905090565b600033610908818585611c5a565b5060019392505050565b600080516020613a4083398151915261092b8133611d7e565b506040805180820190915260008082524260209092018290526101685561016955565b60003361095c858285611de2565b610967858585611e74565b506001949350505050565b600082815260fe602052604090206001015461098e8133611d7e565b6109988383612002565b505050565b60006109a7612088565b905090565b6001600160a01b0381163314610a215760405162461bcd60e51b815260206004820152602f60248201527f416363657373436f6e74726f6c3a2063616e206f6e6c792072656e6f756e636560448201526e103937b632b9903337b91039b2b63360891b60648201526084015b60405180910390fd5b610a2b8282612103565b5050565b3360008181526066602090815260408083206001600160a01b03871684529091528120549091906109089082908690610a6990879061373a565b611c5a565b6000438210610abf5760405162461bcd60e51b815260206004820152601f60248201527f4552433230566f7465733a20626c6f636b206e6f7420796574206d696e6564006044820152606401610a18565b6001600160a01b038316600090815261013160205260409020610ae2908361216a565b9392505050565b6001600160a01b038116600090815261016b6020526040902054610a2b82826115e6565b6101625460405163d505accf60e01b81526001600160a01b038a811660048301528981166024830152604482018990526064820188905260ff8716608483015260a4820186905260c482018590529091169063d505accf9060e401600060405180830381600087803b158015610b8257600080fd5b505af1158015610b96573d6000803e3d6000fd5b50505050610ba48187611100565b5050505050505050565b610bb733610c97565b610c035760405162461bcd60e51b815260206004820181905260248201527f564c46493a494e56414c49445f42414c414e43455f4f4e5f434f4f4c444f574e6044820152606401610a18565b33600081815261016a6020526040808220429055517f06458eacc93d062b1d92c6575f39b0c1d64541d6881846fecef52a42c7c800089190a2565b610c483382612227565b50565b600080516020613a40833981519152610c648133611d7e565b610c6c611ba4565b505061016755565b6001600160a01b03811660009081526101316020526040812054610862906122b8565b6001600160a01b031660009081526065602052604090205490565b604080518082018252610168548152610169546020808301919091526001600160a01b038416600090815261016c909152918220815183610cf260675490565b9050836020015142118015610d0657508015155b15610d5e576000846020015142610d1d9190613752565b905060006101675482610d309190613769565b905082610d45670de0b6b3a764000083613769565b610d4f9190613788565b610d59908561373a565b935050505b60018301548354670de0b6b3a764000090610d7a908590613769565b610d849190613788565b610d8e91906137aa565b9695505050505050565b600080516020613a40833981519152610db18133611d7e565b5061016555565b6001600160a01b038116600090815260cb6020526040812054610862565b6000438210610e275760405162461bcd60e51b815260206004820152601f60248201527f4552433230566f7465733a20626c6f636b206e6f7420796574206d696e6564006044820152606401610a18565b6108626101328361216a565b600091825260fe602090815260408084206001600160a01b0393909316845291905290205460ff1690565b606060698054610877906136ef565b600054610100900460ff16610e885760005460ff1615610e8c565b303b155b610eef5760405162461bcd60e51b815260206004820152602e60248201527f496e697469616c697a61626c653a20636f6e747261637420697320616c72656160448201526d191e481a5b9a5d1a585b1a5e995960921b6064820152608401610a18565b600054610100900460ff16158015610f11576000805461ffff19166101011790555b610f1b8787612321565b610f2487612352565b61016280546001600160a01b0319166001600160a01b038716179055610165849055610166839055610f586012600a6138cd565b610f64906103e8613769565b61016455610f73600033612002565b610f8b600080516020613a4083398151915233612002565b610f9482610c4b565b610f9c610912565b8015610fae576000805461ff00191690555b50505050505050565b6001600160a01b03811660009081526101316020526040812054801561102d576001600160a01b038316600090815261013160205260409020610ffb600183613752565b8154811061100b5761100b6138d9565b60009182526020909120015464010000000090046001600160e01b0316611030565b60005b6001600160e01b03169392505050565b3360008181526066602090815260408083206001600160a01b0387168452909152812054909190838110156110c55760405162461bcd60e51b815260206004820152602560248201527f45524332303a2064656372656173656420616c6c6f77616e63652062656c6f77604482015264207a65726f60d81b6064820152608401610a18565b6109678286868403611c5a565b600033610908818585611e74565b600080516020613a408339815191526110f98133611d7e565b5061016655565b806111435760405162461bcd60e51b8152602060048201526013602482015272159311924e9253959053125117d05353d55395606a1b6044820152606401610a18565b600061114e83610c97565b9050600061115a611ba4565b33600090815261016c60205260409020610164549192509061118485670de0b6b3a7640000613769565b61118e9190613788565b8160000160008282546111a1919061373a565b9091555050815161016454670de0b6b3a764000091906111c18784613769565b6111cb9190613788565b6111d59190613769565b6111df9190613788565b8160010160008282546111f291906138ef565b909155505033600090815261016b60205260408120805486929061121790849061373a565b92505081905550836101636000828254611231919061373a565b9091555061124490506000858786611ae1565b6001600160a01b038616600090815261016a60205260409020556101645461128990869061127a87670de0b6b3a7640000613769565b6112849190613788565b6123a5565b610162546040516323b872dd60e01b8152336004820152306024820152604481018690526001600160a01b03909116906323b872dd906064016020604051808303816000875af11580156112e1573d6000803e3d6000fd5b505050506040513d601f19601f820116820180604052508101906113059190613930565b506040518481526001600160a01b0386169033907f5dac0c1b1112564a045ba943c9d50270893e8e826c49be8e7073adc713ab7bd79060200160405180910390a35050505050565b8342111561139d5760405162461bcd60e51b815260206004820152601d60248201527f4552433230566f7465733a207369676e617475726520657870697265640000006044820152606401610a18565b604080517fe48329057bfd03d55e49b547132e39cffd9c1820ad7b9d4c5307691425d15adf60208201526001600160a01b0388169181019190915260608101869052608081018590526000906114179061140f9060a001604051602081830303815290604052805190602001206123af565b8585856123fd565b90506114228161241b565b86146114705760405162461bcd60e51b815260206004820152601960248201527f4552433230566f7465733a20696e76616c6964206e6f6e6365000000000000006044820152606401610a18565b610fae8188612227565b834211156114ca5760405162461bcd60e51b815260206004820152601d60248201527f45524332305065726d69743a206578706972656420646561646c696e650000006044820152606401610a18565b600060cc548888886114db8c61241b565b6040805160208101969096526001600160a01b0394851690860152929091166060840152608083015260a082015260c0810186905260e0016040516020818303038152906040528051906020012090506000611536826123af565b90506000611546828787876123fd565b9050896001600160a01b0316816001600160a01b0316146115a95760405162461bcd60e51b815260206004820152601e60248201527f45524332305065726d69743a20696e76616c6964207369676e617475726500006044820152606401610a18565b6115b48a8a8a611c5a565b50505050505050505050565b600082815260fe60205260409020600101546115dc8133611d7e565b6109988383612103565b801580159061160e57506001600160a01b038216600090815261016b60205260409020548111155b6116505760405162461bcd60e51b8152602060048201526013602482015272159311924e9253959053125117d05353d55395606a1b6044820152606401610a18565b33600090815261016a60205260409020546101655461166f908261373a565b42116116bd5760405162461bcd60e51b815260206004820152601a60248201527f564c46493a434f4f4c444f574e5f4e4f545f434f4d504c4554450000000000006044820152606401610a18565b61016654610165546116cf908361373a565b6116d99042613752565b11156117275760405162461bcd60e51b815260206004820152601c60248201527f564c46493a554e5354414b455f57494e444f575f46494e4953484544000000006044820152606401610a18565b600061173233610c97565b9050600061173e611ba4565b33600090815261016c602052604090206101645482519293509091670de0b6b3a7640000919061176e8884613769565b6117789190613769565b6117829190613788565b61178c9190613788565b81600101600082825461179f91906137aa565b9091555050610164546117ba86670de0b6b3a7640000613769565b6117c49190613788565b8160000160008282546117d79190613752565b909155505033600090815261016b6020526040812080548792906117fc908490613752565b925050819055508461016360008282546118169190613752565b90915550506101645461184690339061183788670de0b6b3a7640000613769565b6118419190613788565b612443565b6101645461185c86670de0b6b3a7640000613769565b6118669190613788565b6118709084613752565b6118865733600090815261016a60205260408120555b6101625460405163a9059cbb60e01b81526001600160a01b038881166004830152602482018890529091169063a9059cbb906044016020604051808303816000875af11580156118da573d6000803e3d6000fd5b505050506040513d601f19601f820116820180604052508101906118fe9190613930565b50604051858152339081907f8a3c16627a0e7a870a5d5cd0121ca5d80e2efd0ec7198a11644f1a516ac370939060200160405180910390a3505050505050565b6000611948611ba4565b33600090815261016c60205260408120825181549394509092670de0b6b3a76400009161197491613769565b61197e9190613788565b9050600082600101548261199291906137aa565b600184018390556040518181529091506001600160a01b0386169033907f9310ccfcb8de723f578a9e4282ea9f521f05ae40dc08f3068dfad528a65ee3c79060200160405180910390a36101625460405163a9059cbb60e01b81526001600160a01b038781166004830152602482018490529091169063a9059cbb906044016020604051808303816000875af1158015611a30573d6000803e3d6000fd5b505050506040513d601f19601f82011682018060405250810190611a549190613930565b505050505050565b60408051808201909152600080825260208201526001600160a01b038316600090815261013160205260409020805463ffffffff8416908110611aa157611aa16138d9565b60009182526020918290206040805180820190915291015463ffffffff8116825264010000000090046001600160e01b0316918101919091529392505050565b6001600160a01b038216600090815261016a602052604081205480611b0a576000915050611b9c565b6000610166546101655442611b1f9190613752565b611b299190613752565b905081811115611b3c5760009150611b98565b6000878211611b4b5787611b4d565b425b905082811015611b6257829350505050611b9c565b611b6c858861373a565b611b768487613769565b611b80838a613769565b611b8a919061373a565b611b949190613788565b9250505b5090505b949350505050565b6040805180820182526000808252602091820152815180830190925261016854825261016954908201819052421115611c57576000611be260675490565b90508015611c43576000826020015142611bfc9190613752565b905060006101675482611c0f9190613769565b905082611c24670de0b6b3a764000083613769565b611c2e9190613788565b84518590611c3d90839061373a565b90525050505b504260208201819052815161016855610169555b90565b6001600160a01b038316611cbc5760405162461bcd60e51b8152602060048201526024808201527f45524332303a20617070726f76652066726f6d20746865207a65726f206164646044820152637265737360e01b6064820152608401610a18565b6001600160a01b038216611d1d5760405162461bcd60e51b815260206004820152602260248201527f45524332303a20617070726f766520746f20746865207a65726f206164647265604482015261737360f01b6064820152608401610a18565b6001600160a01b0383811660008181526066602090815260408083209487168084529482529182902085905590518481527f8c5be1e5ebec7d5bd14f71427d1e84f3dd0314c0f7b2291e5b200ac8c7c3b925910160405180910390a3505050565b611d888282610e33565b610a2b57611da0816001600160a01b0316601461244d565b611dab83602061244d565b604051602001611dbc929190613952565b60408051601f198184030181529082905262461bcd60e51b8252610a189160040161329a565b6001600160a01b038381166000908152606660209081526040808320938616835292905220546000198114611e6e5781811015611e615760405162461bcd60e51b815260206004820152601d60248201527f45524332303a20696e73756666696369656e7420616c6c6f77616e63650000006044820152606401610a18565b611e6e8484848403611c5a565b50505050565b6000611e7f84610c97565b90506000611e8b611ba4565b6001600160a01b038616600090815261016c60205260409020815191925090670de0b6b3a764000090611ebe9086613769565b611ec89190613788565b816001016000828254611edb91906137aa565b9091555050805484908290600090611ef4908490613752565b90915550506001600160a01b0386811690861614611ff7576000611f1786610c97565b6001600160a01b038716600090815261016c60205260409020845191925090670de0b6b3a764000090611f4a9088613769565b611f549190613788565b816001016000828254611f6791906138ef565b9091555050805486908290600090611f8090849061373a565b90915550506001600160a01b038816600090815261016a6020526040902054611fab81888a86611ae1565b6001600160a01b038916600090815261016a60205260409020558587148015611fd357508015155b15611ff3576001600160a01b038916600090815261016a60205260408120555b5050505b611a548686866125e9565b61200c8282610e33565b610a2b57600082815260fe602090815260408083206001600160a01b03851684529091529020805460ff191660011790556120443390565b6001600160a01b0316816001600160a01b0316837f2f8788117e7eff1d82e926ec794901d17c78024a50270940304540a733656f0d60405160405180910390a45050565b60006109a77f8b73c3c69bb8fe3d512ecc4cf759cc79239f7b179b0ffacaa9a75d522b39400f6120b760975490565b6098546040805160208101859052908101839052606081018290524660808201523060a082015260009060c0016040516020818303038152906040528051906020012090509392505050565b61210d8282610e33565b15610a2b57600082815260fe602090815260408083206001600160a01b0385168085529252808320805460ff1916905551339285917ff6391f5c32d9c69d2a47ea670b442974b53935d1edc7fd64eb21e047a839171b9190a45050565b8154600090815b818110156121ce57600061218582846127bd565b90508486828154811061219a5761219a6138d9565b60009182526020909120015463ffffffff1611156121ba578092506121c8565b6121c581600161373a565b91505b50612171565b811561221257846121e0600184613752565b815481106121f0576121f06138d9565b60009182526020909120015464010000000090046001600160e01b0316612215565b60005b6001600160e01b031695945050505050565b6001600160a01b03828116600090815261013060205260408120549091169061224f84610c97565b6001600160a01b038581166000818152610130602052604080822080546001600160a01b031916898616908117909155905194955093928616927f3134e8a2e6d97e929a7e54011ea5485d7d196dd5f0ba4d4ef95803e8e3fc257f9190a4611e6e8284836127d8565b600063ffffffff82111561231d5760405162461bcd60e51b815260206004820152602660248201527f53616665436173743a2076616c756520646f65736e27742066697420696e203360448201526532206269747360d01b6064820152608401610a18565b5090565b600054610100900460ff166123485760405162461bcd60e51b8152600401610a18906139c7565b610a2b8282612917565b600054610100900460ff166123795760405162461bcd60e51b8152600401610a18906139c7565b61239c81604051806040016040528060018152602001603160f81b815250612965565b610c48816129a6565b610a2b82826129f4565b60006108626123bc612088565b8360405161190160f01b6020820152602281018390526042810182905260009060620160405160208183030381529060405280519060200120905092915050565b600080600061240e87878787612a7f565b91509150611b9881612b6c565b6001600160a01b038116600090815260cb602052604090208054600181018255905b50919050565b610a2b8282612d27565b6060600061245c836002613769565b61246790600261373a565b67ffffffffffffffff81111561247f5761247f61344e565b6040519080825280601f01601f1916602001820160405280156124a9576020820181803683370190505b509050600360fc1b816000815181106124c4576124c46138d9565b60200101906001600160f81b031916908160001a905350600f60fb1b816001815181106124f3576124f36138d9565b60200101906001600160f81b031916908160001a9053506000612517846002613769565b61252290600161373a565b90505b600181111561259a576f181899199a1a9b1b9c1cb0b131b232b360811b85600f1660108110612556576125566138d9565b1a60f81b82828151811061256c5761256c6138d9565b60200101906001600160f81b031916908160001a90535060049490941c9361259381613a12565b9050612525565b508315610ae25760405162461bcd60e51b815260206004820181905260248201527f537472696e67733a20686578206c656e67746820696e73756666696369656e746044820152606401610a18565b6001600160a01b03831661264d5760405162461bcd60e51b815260206004820152602560248201527f45524332303a207472616e736665722066726f6d20746865207a65726f206164604482015264647265737360d81b6064820152608401610a18565b6001600160a01b0382166126af5760405162461bcd60e51b815260206004820152602360248201527f45524332303a207472616e7366657220746f20746865207a65726f206164647260448201526265737360e81b6064820152608401610a18565b6001600160a01b038316600090815260656020526040902054818110156127275760405162461bcd60e51b815260206004820152602660248201527f45524332303a207472616e7366657220616d6f756e7420657863656564732062604482015265616c616e636560d01b6064820152608401610a18565b6001600160a01b0380851660009081526065602052604080822085850390559185168152908120805484929061275e90849061373a565b92505081905550826001600160a01b0316846001600160a01b03167fddf252ad1be2c89b69c2b068fc378daa952ba7f163c4a11628f55a4df523b3ef846040516127aa91815260200190565b60405180910390a3611e6e848484612d40565b60006127cc6002848418613788565b610ae29084841661373a565b816001600160a01b0316836001600160a01b0316141580156127fa5750600081115b15610998576001600160a01b03831615612889576001600160a01b038316600090815261013160205260408120819061283690612d4b85612d57565b91509150846001600160a01b03167fdec2bacdd2f05b59de34da9b523dff8be42e5e38e818c82fdb0bae774387a724838360405161287e929190918252602082015260400190565b60405180910390a250505b6001600160a01b03821615610998576001600160a01b03821660009081526101316020526040812081906128c090612ed085612d57565b91509150836001600160a01b03167fdec2bacdd2f05b59de34da9b523dff8be42e5e38e818c82fdb0bae774387a7248383604051612908929190918252602082015260400190565b60405180910390a25050505050565b600054610100900460ff1661293e5760405162461bcd60e51b8152600401610a18906139c7565b81516129519060689060208501906131b4565b5080516109989060699060208401906131b4565b600054610100900460ff1661298c5760405162461bcd60e51b8152600401610a18906139c7565b815160209283012081519190920120609791909155609855565b600054610100900460ff166129cd5760405162461bcd60e51b8152600401610a18906139c7565b507f6e71edae12b1b97f4d1f60370fef10105fa2faae0126114a169c64845d6126c960cc55565b6129fe8282612edc565b6067546001600160e01b031015612a705760405162461bcd60e51b815260206004820152603060248201527f4552433230566f7465733a20746f74616c20737570706c79207269736b73206f60448201526f766572666c6f77696e6720766f74657360801b6064820152608401610a18565b611e6e610132612ed083612d57565b6000807f7fffffffffffffffffffffffffffffff5d576e7357a4501ddfe92f46681b20a0831115612ab65750600090506003612b63565b8460ff16601b14158015612ace57508460ff16601c14155b15612adf5750600090506004612b63565b6040805160008082526020820180845289905260ff881692820192909252606081018690526080810185905260019060a0016020604051602081039080840390855afa158015612b33573d6000803e3d6000fd5b5050604051601f1901519150506001600160a01b038116612b5c57600060019250925050612b63565b9150600090505b94509492505050565b6000816004811115612b8057612b80613a29565b1415612b895750565b6001816004811115612b9d57612b9d613a29565b1415612beb5760405162461bcd60e51b815260206004820152601860248201527f45434453413a20696e76616c6964207369676e617475726500000000000000006044820152606401610a18565b6002816004811115612bff57612bff613a29565b1415612c4d5760405162461bcd60e51b815260206004820152601f60248201527f45434453413a20696e76616c6964207369676e6174757265206c656e677468006044820152606401610a18565b6003816004811115612c6157612c61613a29565b1415612cba5760405162461bcd60e51b815260206004820152602260248201527f45434453413a20696e76616c6964207369676e6174757265202773272076616c604482015261756560f01b6064820152608401610a18565b6004816004811115612cce57612cce613a29565b1415610c485760405162461bcd60e51b815260206004820152602260248201527f45434453413a20696e76616c6964207369676e6174757265202776272076616c604482015261756560f01b6064820152608401610a18565b612d318282612fc3565b611e6e610132612d4b83612d57565b610998838383613118565b6000610ae28284613752565b825460009081908015612da25785612d70600183613752565b81548110612d8057612d806138d9565b60009182526020909120015464010000000090046001600160e01b0316612da5565b60005b6001600160e01b03169250612dbe83858763ffffffff16565b9150600081118015612dfc57504386612dd8600184613752565b81548110612de857612de86138d9565b60009182526020909120015463ffffffff16145b15612e5c57612e0a8261314b565b86612e16600184613752565b81548110612e2657612e266138d9565b9060005260206000200160000160046101000a8154816001600160e01b0302191690836001600160e01b03160217905550612ec7565b856040518060400160405280612e71436122b8565b63ffffffff168152602001612e858561314b565b6001600160e01b0390811690915282546001810184556000938452602093849020835194909301519091166401000000000263ffffffff909316929092179101555b50935093915050565b6000610ae2828461373a565b6001600160a01b038216612f325760405162461bcd60e51b815260206004820152601f60248201527f45524332303a206d696e7420746f20746865207a65726f2061646472657373006044820152606401610a18565b8060676000828254612f44919061373a565b90915550506001600160a01b03821660009081526065602052604081208054839290612f7190849061373a565b90915550506040518181526001600160a01b038316906000907fddf252ad1be2c89b69c2b068fc378daa952ba7f163c4a11628f55a4df523b3ef9060200160405180910390a3610a2b60008383612d40565b6001600160a01b0382166130235760405162461bcd60e51b815260206004820152602160248201527f45524332303a206275726e2066726f6d20746865207a65726f206164647265736044820152607360f81b6064820152608401610a18565b6001600160a01b038216600090815260656020526040902054818110156130975760405162461bcd60e51b815260206004820152602260248201527f45524332303a206275726e20616d6f756e7420657863656564732062616c616e604482015261636560f01b6064820152608401610a18565b6001600160a01b03831660009081526065602052604081208383039055606780548492906130c6908490613752565b90915550506040518281526000906001600160a01b038516907fddf252ad1be2c89b69c2b068fc378daa952ba7f163c4a11628f55a4df523b3ef9060200160405180910390a361099883600084612d40565b6001600160a01b0383811660009081526101306020526040808220548584168352912054610998929182169116836127d8565b60006001600160e01b0382111561231d5760405162461bcd60e51b815260206004820152602760248201527f53616665436173743a2076616c756520646f65736e27742066697420696e20326044820152663234206269747360c81b6064820152608401610a18565b8280546131c0906136ef565b90600052602060002090601f0160209004810192826131e25760008555613228565b82601f106131fb57805160ff1916838001178555613228565b82800160010185558215613228579182015b8281111561322857825182559160200191906001019061320d565b5061231d9291505b8082111561231d5760008155600101613230565b60006020828403121561325657600080fd5b81356001600160e01b031981168114610ae257600080fd5b60005b83811015613289578181015183820152602001613271565b83811115611e6e5750506000910152565b60208152600082518060208401526132b981604085016020870161326e565b601f01601f19169190910160400192915050565b6001600160a01b0381168114610c4857600080fd5b600080604083850312156132f557600080fd5b8235613300816132cd565b946020939093013593505050565b60008060006060848603121561332357600080fd5b833561332e816132cd565b9250602084013561333e816132cd565b929592945050506040919091013590565b60006020828403121561336157600080fd5b5035919050565b6000806040838503121561337b57600080fd5b82359150602083013561338d816132cd565b809150509250929050565b6000602082840312156133aa57600080fd5b8135610ae2816132cd565b803560ff811681146133c657600080fd5b919050565b600080600080600080600080610100898b0312156133e857600080fd5b88356133f3816132cd565b97506020890135613403816132cd565b9650604089013595506060890135945061341f60808a016133b5565b935060a0890135925060c0890135915060e089013561343d816132cd565b809150509295985092959890939650565b634e487b7160e01b600052604160045260246000fd5b600082601f83011261347557600080fd5b813567ffffffffffffffff808211156134905761349061344e565b604051601f8301601f19908116603f011681019082821181831017156134b8576134b861344e565b816040528381528660208588010111156134d157600080fd5b836020870160208301376000602085830101528094505050505092915050565b60008060008060008060c0878903121561350a57600080fd5b863567ffffffffffffffff8082111561352257600080fd5b61352e8a838b01613464565b9750602089013591508082111561354457600080fd5b5061355189828a01613464565b9550506040870135613562816132cd565b959894975094956060810135955060808101359460a0909101359350915050565b60008060008060008060c0878903121561359c57600080fd5b86356135a7816132cd565b955060208701359450604087013593506135c3606088016133b5565b92506080870135915060a087013590509295509295509295565b600080600080600080600060e0888a0312156135f857600080fd5b8735613603816132cd565b96506020880135613613816132cd565b9550604088013594506060880135935061362f608089016133b5565b925060a0880135915060c0880135905092959891949750929550565b6000806040838503121561365e57600080fd5b8235613669816132cd565b9150602083013561338d816132cd565b6000806040838503121561368c57600080fd5b8235613697816132cd565b9150602083013563ffffffff8116811461338d57600080fd5b600080600080608085870312156136c657600080fd5b843593506020850135925060408501356136df816132cd565b9396929550929360600135925050565b600181811c9082168061370357607f821691505b6020821081141561243d57634e487b7160e01b600052602260045260246000fd5b634e487b7160e01b600052601160045260246000fd5b6000821982111561374d5761374d613724565b500190565b60008282101561376457613764613724565b500390565b600081600019048311821515161561378357613783613724565b500290565b6000826137a557634e487b7160e01b600052601260045260246000fd5b500490565b60008083128015600160ff1b8501841216156137c8576137c8613724565b6001600160ff1b03840183138116156137e3576137e3613724565b50500390565b600181815b8085111561382457816000190482111561380a5761380a613724565b8085161561381757918102915b93841c93908002906137ee565b509250929050565b60008261383b57506001610862565b8161384857506000610862565b816001811461385e576002811461386857613884565b6001915050610862565b60ff84111561387957613879613724565b50506001821b610862565b5060208310610133831016604e8410600b84101617156138a7575081810a610862565b6138b183836137e9565b80600019048211156138c5576138c5613724565b029392505050565b6000610ae2838361382c565b634e487b7160e01b600052603260045260246000fd5b600080821280156001600160ff1b038490038513161561391157613911613724565b600160ff1b839003841281161561392a5761392a613724565b50500190565b60006020828403121561394257600080fd5b81518015158114610ae257600080fd5b7f416363657373436f6e74726f6c3a206163636f756e742000000000000000000081526000835161398a81601785016020880161326e565b7001034b99036b4b9b9b4b733903937b6329607d1b60179184019182015283516139bb81602884016020880161326e565b01602801949350505050565b6020808252602b908201527f496e697469616c697a61626c653a20636f6e7472616374206973206e6f74206960408201526a6e697469616c697a696e6760a81b606082015260800190565b600081613a2157613a21613724565b506000190190565b634e487b7160e01b600052602160045260246000fdfe241ecf16d79d0f8dbfb92cbc07fe17840425976cf0667f022fe9877caa831b08a2646970667358221220894fdae48caf9cd38610dd3f0ea03d8ca87d441e86e6c2c95f36d2571b11abff64736f6c634300080a0033",
  "linkReferences": {},
  "deployedLinkReferences": {}
}