{
  "_format": "hh-sol-artifact-1",
  "contractName": "VLFI",
  "sourceName": "contracts/VLFI.sol",
  "abi": [
    {
      "inputs": [
        {
          "internalType": "string",
          "name": "name",
          "type": "string"
        },
        {
          "internalType": "string",
          "name": "symbol",
          "type": "string"
        },
        {
          "internalType": "contract IERC20",
          "name": "stakedToken",
          "type": "address"
        },
        {
          "internalType": "uint256",
          "name": "cooldownSeconds",
          "type": "uint256"
        },
        {
          "internalType": "uint256",
          "name": "unstakeWindow",
          "type": "uint256"
        }
      ],
      "stateMutability": "nonpayable",
      "type": "constructor"
    },
    {
      "anonymous": false,
      "inputs": [
        {
          "indexed": true,
          "internalType": "address",
          "name": "owner",
          "type": "address"
        },
        {
          "indexed": true,
          "internalType": "address",
          "name": "spender",
          "type": "address"
        },
        {
          "indexed": false,
          "internalType": "uint256",
          "name": "value",
          "type": "uint256"
        }
      ],
      "name": "Approval",
      "type": "event"
    },
    {
      "anonymous": false,
      "inputs": [
        {
          "indexed": true,
          "internalType": "address",
          "name": "from",
          "type": "address"
        },
        {
          "indexed": true,
          "internalType": "address",
          "name": "onBehalfOf",
          "type": "address"
        },
        {
          "indexed": false,
          "internalType": "uint256",
          "name": "amount",
          "type": "uint256"
        }
      ],
      "name": "Staked",
      "type": "event"
    },
    {
      "anonymous": false,
      "inputs": [
        {
          "indexed": true,
          "internalType": "address",
          "name": "from",
          "type": "address"
        },
        {
          "indexed": true,
          "internalType": "address",
          "name": "to",
          "type": "address"
        },
        {
          "indexed": false,
          "internalType": "uint256",
          "name": "value",
          "type": "uint256"
        }
      ],
      "name": "Transfer",
      "type": "event"
    },
    {
      "anonymous": false,
      "inputs": [
        {
          "indexed": true,
          "internalType": "address",
          "name": "from",
          "type": "address"
        },
        {
          "indexed": true,
          "internalType": "address",
          "name": "to",
          "type": "address"
        },
        {
          "indexed": false,
          "internalType": "uint256",
          "name": "amount",
          "type": "uint256"
        }
      ],
      "name": "UnStaked",
      "type": "event"
    },
    {
      "inputs": [],
      "name": "STAKED_TOKEN",
      "outputs": [
        {
          "internalType": "contract IERC20",
          "name": "",
          "type": "address"
        }
      ],
      "stateMutability": "view",
      "type": "function"
    },
    {
      "inputs": [],
      "name": "activateCooldown",
      "outputs": [],
      "stateMutability": "nonpayable",
      "type": "function"
    },
    {
      "inputs": [
        {
          "internalType": "address",
          "name": "owner",
          "type": "address"
        },
        {
          "internalType": "address",
          "name": "spender",
          "type": "address"
        }
      ],
      "name": "allowance",
      "outputs": [
        {
          "internalType": "uint256",
          "name": "",
          "type": "uint256"
        }
      ],
      "stateMutability": "view",
      "type": "function"
    },
    {
      "inputs": [
        {
          "internalType": "address",
          "name": "spender",
          "type": "address"
        },
        {
          "internalType": "uint256",
          "name": "amount",
          "type": "uint256"
        }
      ],
      "name": "approve",
      "outputs": [
        {
          "internalType": "bool",
          "name": "",
          "type": "bool"
        }
      ],
      "stateMutability": "nonpayable",
      "type": "function"
    },
    {
      "inputs": [
        {
          "internalType": "address",
          "name": "account",
          "type": "address"
        }
      ],
      "name": "balanceOf",
      "outputs": [
        {
          "internalType": "uint256",
          "name": "",
          "type": "uint256"
        }
      ],
      "stateMutability": "view",
      "type": "function"
    },
    {
      "inputs": [
        {
          "internalType": "address",
          "name": "to",
          "type": "address"
        }
      ],
      "name": "claimRewards",
      "outputs": [],
      "stateMutability": "nonpayable",
      "type": "function"
    },
    {
      "inputs": [],
      "name": "createFarm",
      "outputs": [],
      "stateMutability": "nonpayable",
      "type": "function"
    },
    {
      "inputs": [],
      "name": "decimals",
      "outputs": [
        {
          "internalType": "uint8",
          "name": "",
          "type": "uint8"
        }
      ],
      "stateMutability": "view",
      "type": "function"
    },
    {
      "inputs": [
        {
          "internalType": "address",
          "name": "spender",
          "type": "address"
        },
        {
          "internalType": "uint256",
          "name": "subtractedValue",
          "type": "uint256"
        }
      ],
      "name": "decreaseAllowance",
      "outputs": [
        {
          "internalType": "bool",
          "name": "",
          "type": "bool"
        }
      ],
      "stateMutability": "nonpayable",
      "type": "function"
    },
    {
      "inputs": [
        {
          "internalType": "address",
          "name": "staker",
          "type": "address"
        }
      ],
      "name": "getCooldown",
      "outputs": [
        {
          "internalType": "uint256",
          "name": "",
          "type": "uint256"
        }
      ],
      "stateMutability": "view",
      "type": "function"
    },
    {
      "inputs": [],
      "name": "getCooldownSeconds",
      "outputs": [
        {
          "internalType": "uint256",
          "name": "",
          "type": "uint256"
        }
      ],
      "stateMutability": "view",
      "type": "function"
    },
    {
      "inputs": [],
      "name": "getFarmAccRewardPerShare",
      "outputs": [
        {
          "internalType": "uint256",
          "name": "",
          "type": "uint256"
        }
      ],
      "stateMutability": "view",
      "type": "function"
    },
    {
      "inputs": [],
      "name": "getFarmLastRewardTime",
      "outputs": [
        {
          "internalType": "uint256",
          "name": "",
          "type": "uint256"
        }
      ],
      "stateMutability": "view",
      "type": "function"
    },
    {
      "inputs": [
        {
          "internalType": "uint256",
          "name": "userCooldownTimestamp",
          "type": "uint256"
        },
        {
          "internalType": "uint256",
          "name": "amountToReceive",
          "type": "uint256"
        },
        {
          "internalType": "address",
          "name": "toAddress",
          "type": "address"
        },
        {
          "internalType": "uint256",
          "name": "toBalance",
          "type": "uint256"
        }
      ],
      "name": "getNextCooldownTimestamp",
      "outputs": [
        {
          "internalType": "uint256",
          "name": "",
          "type": "uint256"
        }
      ],
      "stateMutability": "view",
      "type": "function"
    },
    {
      "inputs": [
        {
          "internalType": "address",
          "name": "benefitor",
          "type": "address"
        }
      ],
      "name": "getRewards",
      "outputs": [
        {
          "internalType": "uint256",
          "name": "pendingRewards",
          "type": "uint256"
        }
      ],
      "stateMutability": "view",
      "type": "function"
    },
    {
      "inputs": [],
      "name": "getUnstakeWindowTime",
      "outputs": [
        {
          "internalType": "uint256",
          "name": "",
          "type": "uint256"
        }
      ],
      "stateMutability": "view",
      "type": "function"
    },
    {
      "inputs": [
        {
          "internalType": "address",
          "name": "user",
          "type": "address"
        }
      ],
      "name": "getUserLFIDeposits",
      "outputs": [
        {
          "internalType": "uint256",
          "name": "",
          "type": "uint256"
        }
      ],
      "stateMutability": "view",
      "type": "function"
    },
    {
      "inputs": [
        {
          "internalType": "address",
          "name": "benefitor",
          "type": "address"
        }
      ],
      "name": "getUserRewardDebt",
      "outputs": [
        {
          "internalType": "int256",
          "name": "",
          "type": "int256"
        }
      ],
      "stateMutability": "view",
      "type": "function"
    },
    {
      "inputs": [
        {
          "internalType": "address",
          "name": "benefitor",
          "type": "address"
        }
      ],
      "name": "getUserVLFIAmount",
      "outputs": [
        {
          "internalType": "uint256",
          "name": "",
          "type": "uint256"
        }
      ],
      "stateMutability": "view",
      "type": "function"
    },
    {
      "inputs": [
        {
          "internalType": "address",
          "name": "spender",
          "type": "address"
        },
        {
          "internalType": "uint256",
          "name": "addedValue",
          "type": "uint256"
        }
      ],
      "name": "increaseAllowance",
      "outputs": [
        {
          "internalType": "bool",
          "name": "",
          "type": "bool"
        }
      ],
      "stateMutability": "nonpayable",
      "type": "function"
    },
    {
      "inputs": [],
      "name": "name",
      "outputs": [
        {
          "internalType": "string",
          "name": "",
          "type": "string"
        }
      ],
      "stateMutability": "view",
      "type": "function"
    },
    {
      "inputs": [
        {
          "internalType": "uint256",
          "name": "coolDownSeconds",
          "type": "uint256"
        }
      ],
      "name": "setCooldownSeconds",
      "outputs": [],
      "stateMutability": "nonpayable",
      "type": "function"
    },
    {
      "inputs": [
        {
          "internalType": "uint256",
          "name": "_rewardPerSecond",
          "type": "uint256"
        }
      ],
      "name": "setRewardPerSecond",
      "outputs": [],
      "stateMutability": "nonpayable",
      "type": "function"
    },
    {
      "inputs": [
        {
          "internalType": "uint256",
          "name": "unstakeWindow",
          "type": "uint256"
        }
      ],
      "name": "setUnstakeWindowTime",
      "outputs": [],
      "stateMutability": "nonpayable",
      "type": "function"
    },
    {
      "inputs": [
        {
          "internalType": "address",
          "name": "onBehalfOf",
          "type": "address"
        },
        {
          "internalType": "uint256",
          "name": "amount",
          "type": "uint256"
        }
      ],
      "name": "stake",
      "outputs": [],
      "stateMutability": "nonpayable",
      "type": "function"
    },
    {
      "inputs": [],
      "name": "symbol",
      "outputs": [
        {
          "internalType": "string",
          "name": "",
          "type": "string"
        }
      ],
      "stateMutability": "view",
      "type": "function"
    },
    {
      "inputs": [],
      "name": "totalSupply",
      "outputs": [
        {
          "internalType": "uint256",
          "name": "",
          "type": "uint256"
        }
      ],
      "stateMutability": "view",
      "type": "function"
    },
    {
      "inputs": [
        {
          "internalType": "address",
          "name": "recipient",
          "type": "address"
        },
        {
          "internalType": "uint256",
          "name": "amount",
          "type": "uint256"
        }
      ],
      "name": "transfer",
      "outputs": [
        {
          "internalType": "bool",
          "name": "",
          "type": "bool"
        }
      ],
      "stateMutability": "nonpayable",
      "type": "function"
    },
    {
      "inputs": [
        {
          "internalType": "address",
          "name": "sender",
          "type": "address"
        },
        {
          "internalType": "address",
          "name": "recipient",
          "type": "address"
        },
        {
          "internalType": "uint256",
          "name": "amount",
          "type": "uint256"
        }
      ],
      "name": "transferFrom",
      "outputs": [
        {
          "internalType": "bool",
          "name": "",
          "type": "bool"
        }
      ],
      "stateMutability": "nonpayable",
      "type": "function"
    },
    {
      "inputs": [
        {
          "internalType": "address",
          "name": "to",
          "type": "address"
        },
        {
          "internalType": "uint256",
          "name": "amount",
          "type": "uint256"
        }
      ],
      "name": "unStake",
      "outputs": [],
      "stateMutability": "nonpayable",
      "type": "function"
    },
    {
      "inputs": [],
      "name": "updateFarm",
      "outputs": [
        {
          "components": [
            {
              "internalType": "uint256",
              "name": "accRewardsPerShare",
              "type": "uint256"
            },
            {
              "internalType": "uint256",
              "name": "lastRewardTime",
              "type": "uint256"
            }
          ],
          "internalType": "struct VLFI.FarmInfo",
          "name": "farm",
          "type": "tuple"
        }
      ],
      "stateMutability": "nonpayable",
      "type": "function"
    },
    {
      "inputs": [],
      "name": "updateRewardsToClaim",
      "outputs": [],
      "stateMutability": "nonpayable",
      "type": "function"
    }
  ],
  "bytecode": "0x60a06040526012600a62000014919062000319565b6103e86200002391906200036a565b6009553480156200003357600080fd5b506040516200407e3803806200407e833981810160405281019062000059919062000612565b8484816003908051906020019062000073929190620000dc565b5080600490805190602001906200008c929190620000dc565b5050508273ffffffffffffffffffffffffffffffffffffffff1660808173ffffffffffffffffffffffffffffffffffffffff168152505081600a8190555080600b8190555050505050506200073d565b828054620000ea9062000707565b90600052602060002090601f0160209004810192826200010e57600085556200015a565b82601f106200012957805160ff19168380011785556200015a565b828001600101855582156200015a579182015b82811115620001595782518255916020019190600101906200013c565b5b5090506200016991906200016d565b5090565b5b80821115620001885760008160009055506001016200016e565b5090565b7f4e487b7100000000000000000000000000000000000000000000000000000000600052601160045260246000fd5b60008160011c9050919050565b6000808291508390505b60018511156200021a57808604811115620001f257620001f16200018c565b5b6001851615620002025780820291505b80810290506200021285620001bb565b9450620001d2565b94509492505050565b60008262000235576001905062000308565b8162000245576000905062000308565b81600181146200025e576002811462000269576200029f565b600191505062000308565b60ff8411156200027e576200027d6200018c565b5b8360020a9150848211156200029857620002976200018c565b5b5062000308565b5060208310610133831016604e8410600b8410161715620002d95782820a905083811115620002d357620002d26200018c565b5b62000308565b620002e88484846001620001c8565b925090508184048111156200030257620003016200018c565b5b81810290505b9392505050565b6000819050919050565b600062000326826200030f565b915062000333836200030f565b9250620003627fffffffffffffffffffffffffffffffffffffffffffffffffffffffffffffffff848462000223565b905092915050565b600062000377826200030f565b915062000384836200030f565b9250817fffffffffffffffffffffffffffffffffffffffffffffffffffffffffffffffff0483118215151615620003c057620003bf6200018c565b5b828202905092915050565b6000604051905090565b600080fd5b600080fd5b600080fd5b600080fd5b6000601f19601f8301169050919050565b7f4e487b7100000000000000000000000000000000000000000000000000000000600052604160045260246000fd5b6200043482620003e9565b810181811067ffffffffffffffff82111715620004565762000455620003fa565b5b80604052505050565b60006200046b620003cb565b905062000479828262000429565b919050565b600067ffffffffffffffff8211156200049c576200049b620003fa565b5b620004a782620003e9565b9050602081019050919050565b60005b83811015620004d4578082015181840152602081019050620004b7565b83811115620004e4576000848401525b50505050565b600062000501620004fb846200047e565b6200045f565b90508281526020810184848401111562000520576200051f620003e4565b5b6200052d848285620004b4565b509392505050565b600082601f8301126200054d576200054c620003df565b5b81516200055f848260208601620004ea565b91505092915050565b600073ffffffffffffffffffffffffffffffffffffffff82169050919050565b6000620005958262000568565b9050919050565b6000620005a98262000588565b9050919050565b620005bb816200059c565b8114620005c757600080fd5b50565b600081519050620005db81620005b0565b92915050565b620005ec816200030f565b8114620005f857600080fd5b50565b6000815190506200060c81620005e1565b92915050565b600080600080600060a08688031215620006315762000630620003d5565b5b600086015167ffffffffffffffff811115620006525762000651620003da565b5b620006608882890162000535565b955050602086015167ffffffffffffffff811115620006845762000683620003da565b5b620006928882890162000535565b9450506040620006a588828901620005ca565b9350506060620006b888828901620005fb565b9250506080620006cb88828901620005fb565b9150509295509295909350565b7f4e487b7100000000000000000000000000000000000000000000000000000000600052602260045260246000fd5b600060028204905060018216806200072057607f821691505b60208210811415620007375762000736620006d8565b5b50919050565b608051613909620007756000396000818161088f01528181610fde0152818161113f015281816114a901526116d001526139096000f3fe608060405234801561001057600080fd5b50600436106101f05760003560e01c806370a082311161010f578063ad88918f116100a2578063dd62ed3e11610071578063dd62ed3e146105bd578063ef5cfb8c146105ed578063f1cc432a14610609578063f54ca63c14610639576101f0565b8063ad88918f14610539578063adc9772e14610555578063c61fbcc514610571578063d9393814146105a1576101f0565b806395d89b41116100de57806395d89b411461048b5780639a00a6a3146104a9578063a457c2d7146104d9578063a9059cbb14610509576101f0565b806370a08231146103df578063733d07be1461040f57806379ee54f71461043f5780637b5b11571461046f576101f0565b8063313ce567116101875780634854fd3c116101565780634854fd3c146103695780634d978b4414610387578063616e0bf9146103a557806366da5815146103c3576101f0565b8063313ce567146102e157806339509351146102ff57806339b84ecf1461032f5780634853b3b21461035f576101f0565b80631d5ec3cb116101c35780631d5ec3cb1461026b5780631f477ea91461027557806323b872dd14610293578063312f6b83146102c3576101f0565b806306fdde03146101f5578063095ea7b3146102135780630e5b47bc1461024357806318160ddd1461024d575b600080fd5b6101fd610657565b60405161020a9190612799565b60405180910390f35b61022d60048036038101906102289190612854565b6106e9565b60405161023a91906128af565b60405180910390f35b61024b610707565b005b610255610750565b60405161026291906128d9565b60405180910390f35b61027361075a565b005b61027d61078b565b60405161028a91906128d9565b60405180910390f35b6102ad60048036038101906102a891906128f4565b610795565b6040516102ba91906128af565b60405180910390f35b6102cb61088d565b6040516102d891906129a6565b60405180910390f35b6102e96108b1565b6040516102f691906129dd565b60405180910390f35b61031960048036038101906103149190612854565b6108ba565b60405161032691906128af565b60405180910390f35b610349600480360381019061034491906129f8565b610966565b60405161035691906128d9565b60405180910390f35b6103676109af565b005b610371610a41565b60405161037e91906128d9565b60405180910390f35b61038f610a4e565b60405161039c91906128d9565b60405180910390f35b6103ad610a5b565b6040516103ba91906128d9565b60405180910390f35b6103dd60048036038101906103d89190612a25565b610a65565b005b6103f960048036038101906103f491906129f8565b610a6f565b60405161040691906128d9565b60405180910390f35b610429600480360381019061042491906129f8565b610ab7565b60405161043691906128d9565b60405180910390f35b610459600480360381019061045491906129f8565b610b03565b60405161046691906128d9565b60405180910390f35b61048960048036038101906104849190612a25565b610c2c565b005b610493610c36565b6040516104a09190612799565b60405180910390f35b6104c360048036038101906104be91906129f8565b610cc8565b6040516104d091906128d9565b60405180910390f35b6104f360048036038101906104ee9190612854565b610d11565b60405161050091906128af565b60405180910390f35b610523600480360381019061051e9190612854565b610dfc565b60405161053091906128af565b60405180910390f35b610553600480360381019061054e9190612a25565b610e1a565b005b61056f600480360381019061056a9190612854565b610e24565b005b61058b600480360381019061058691906129f8565b6110e5565b6040516105989190612a6b565b60405180910390f35b6105bb60048036038101906105b69190612854565b611131565b005b6105d760048036038101906105d29190612a86565b6115b0565b6040516105e491906128d9565b60405180910390f35b610607600480360381019061060291906129f8565b611637565b005b610623600480360381019061061e9190612ac6565b611774565b60405161063091906128d9565b60405180910390f35b61064161186c565b60405161064e9190612b6b565b60405180910390f35b60606003805461066690612bb5565b80601f016020809104026020016040519081016040528092919081815260200182805461069290612bb5565b80156106df5780601f106106b4576101008083540402835291602001916106df565b820191906000526020600020905b8154815290600101906020018083116106c257829003601f168201915b5050505050905090565b60006106fd6106f6611941565b8484611949565b6001905092915050565b600080600c60003373ffffffffffffffffffffffffffffffffffffffff1673ffffffffffffffffffffffffffffffffffffffff1681526020019081526020016000208190555050565b6000600254905090565b6040518060400160405280600081526020014281525060056000820151816000015560208201518160010155905050565b6000600b54905090565b60006107a2848484611b14565b6000600160008673ffffffffffffffffffffffffffffffffffffffff1673ffffffffffffffffffffffffffffffffffffffff16815260200190815260200160002060006107ed611941565b73ffffffffffffffffffffffffffffffffffffffff1673ffffffffffffffffffffffffffffffffffffffff1681526020019081526020016000205490508281101561086d576040517f08c379a000000000000000000000000000000000000000000000000000000000815260040161086490612c59565b60405180910390fd5b61088185610879611941565b858403611949565b60019150509392505050565b7f000000000000000000000000000000000000000000000000000000000000000081565b60006012905090565b600061095c6108c7611941565b8484600160006108d5611941565b73ffffffffffffffffffffffffffffffffffffffff1673ffffffffffffffffffffffffffffffffffffffff16815260200190815260200160002060008873ffffffffffffffffffffffffffffffffffffffff1673ffffffffffffffffffffffffffffffffffffffff168152602001908152602001600020546109579190612ca8565b611949565b6001905092915050565b6000600d60008373ffffffffffffffffffffffffffffffffffffffff1673ffffffffffffffffffffffffffffffffffffffff168152602001908152602001600020549050919050565b60006109ba33610a6f565b14156109fb576040517f08c379a00000000000000000000000000000000000000000000000000000000081526004016109f290612d4a565b60405180910390fd5b42600d60003373ffffffffffffffffffffffffffffffffffffffff1673ffffffffffffffffffffffffffffffffffffffff16815260200190815260200160002081905550565b6000600560010154905090565b6000600560000154905090565b6000600a54905090565b8060078190555050565b60008060008373ffffffffffffffffffffffffffffffffffffffff1673ffffffffffffffffffffffffffffffffffffffff168152602001908152602001600020549050919050565b6000600860008373ffffffffffffffffffffffffffffffffffffffff1673ffffffffffffffffffffffffffffffffffffffff168152602001908152602001600020600001549050919050565b60008060056040518060400160405290816000820154815260200160018201548152505090506000600860008573ffffffffffffffffffffffffffffffffffffffff1673ffffffffffffffffffffffffffffffffffffffff16815260200190815260200160002090506000826000015190506000610b7f610750565b9050836020015142118015610b95575060008114155b15610bef576000846020015142610bac9190612d6a565b9050600060075482610bbe9190612d9e565b905082670de0b6b3a764000082610bd59190612d9e565b610bdf9190612e27565b84610bea9190612ca8565b935050505b8260010154670de0b6b3a7640000838560000154610c0d9190612d9e565b610c179190612e27565b610c219190612e58565b945050505050919050565b80600a8190555050565b606060048054610c4590612bb5565b80601f0160208091040260200160405190810160405280929190818152602001828054610c7190612bb5565b8015610cbe5780601f10610c9357610100808354040283529160200191610cbe565b820191906000526020600020905b815481529060010190602001808311610ca157829003601f168201915b5050505050905090565b6000600e60008373ffffffffffffffffffffffffffffffffffffffff1673ffffffffffffffffffffffffffffffffffffffff168152602001908152602001600020549050919050565b60008060016000610d20611941565b73ffffffffffffffffffffffffffffffffffffffff1673ffffffffffffffffffffffffffffffffffffffff16815260200190815260200160002060008573ffffffffffffffffffffffffffffffffffffffff1673ffffffffffffffffffffffffffffffffffffffff16815260200190815260200160002054905082811015610ddd576040517f08c379a0000000000000000000000000000000000000000000000000000000008152600401610dd490612f5e565b60405180910390fd5b610df1610de8611941565b85858403611949565b600191505092915050565b6000610e10610e09611941565b8484611b14565b6001905092915050565b80600b8190555050565b6000811415610e68576040517f08c379a0000000000000000000000000000000000000000000000000000000008152600401610e5f90612fca565b60405180910390fd5b6000610e7383610a6f565b90506000610e7f61186c565b90506000600860003373ffffffffffffffffffffffffffffffffffffffff1673ffffffffffffffffffffffffffffffffffffffff1681526020019081526020016000209050600954670de0b6b3a764000085610edb9190612d9e565b610ee59190612e27565b816000016000828254610ef89190612ca8565b92505081905550670de0b6b3a76400008260000151600954670de0b6b3a764000087610f249190612d9e565b610f2e9190612e27565b610f389190612d9e565b610f429190612e27565b816001016000828254610f559190612fea565b92505081905550610f696000858786611774565b600d60008773ffffffffffffffffffffffffffffffffffffffff1673ffffffffffffffffffffffffffffffffffffffff16815260200190815260200160002081905550610fd685600954670de0b6b3a764000087610fc79190612d9e565b610fd19190612e27565b611da8565b6110233330867f000000000000000000000000000000000000000000000000000000000000000073ffffffffffffffffffffffffffffffffffffffff16611f08909392919063ffffffff16565b83600e60003373ffffffffffffffffffffffffffffffffffffffff1673ffffffffffffffffffffffffffffffffffffffff16815260200190815260200160002060008282546110729190612ca8565b925050819055508473ffffffffffffffffffffffffffffffffffffffff163373ffffffffffffffffffffffffffffffffffffffff167f5dac0c1b1112564a045ba943c9d50270893e8e826c49be8e7073adc713ab7bd7866040516110d691906128d9565b60405180910390a35050505050565b6000600860008373ffffffffffffffffffffffffffffffffffffffff1673ffffffffffffffffffffffffffffffffffffffff168152602001908152602001600020600101549050919050565b600081141580156111db57507f000000000000000000000000000000000000000000000000000000000000000073ffffffffffffffffffffffffffffffffffffffff166370a08231336040518263ffffffff1660e01b8152600401611196919061308d565b602060405180830381865afa1580156111b3573d6000803e3d6000fd5b505050506040513d601f19601f820116820180604052508101906111d791906130bd565b8111155b61121a576040517f08c379a000000000000000000000000000000000000000000000000000000000815260040161121190612fca565b60405180910390fd5b6000600d60003373ffffffffffffffffffffffffffffffffffffffff1673ffffffffffffffffffffffffffffffffffffffff168152602001908152602001600020549050600a548161126c9190612ca8565b42116112ad576040517f08c379a00000000000000000000000000000000000000000000000000000000081526004016112a490613136565b60405180910390fd5b600b54600a54826112be9190612ca8565b426112c99190612d6a565b111561130a576040517f08c379a0000000000000000000000000000000000000000000000000000000008152600401611301906131a2565b60405180910390fd5b600061131533610a6f565b9050600061132161186c565b90506000600860003373ffffffffffffffffffffffffffffffffffffffff1673ffffffffffffffffffffffffffffffffffffffff1681526020019081526020016000209050670de0b6b3a76400008260000151600954670de0b6b3a76400008861138b9190612d9e565b6113959190612e27565b61139f9190612d9e565b6113a99190612e27565b8160010160008282546113bc9190612e58565b92505081905550600954670de0b6b3a7640000866113da9190612d9e565b6113e49190612e27565b8160000160008282546113f79190612d6a565b9250508190555061142833600954670de0b6b3a7640000886114199190612d9e565b6114239190612e27565b611f91565b6000600954670de0b6b3a7640000876114419190612d9e565b61144b9190612e27565b846114569190612d6a565b14156114a2576000600d60003373ffffffffffffffffffffffffffffffffffffffff1673ffffffffffffffffffffffffffffffffffffffff168152602001908152602001600020819055505b6114ed86867f000000000000000000000000000000000000000000000000000000000000000073ffffffffffffffffffffffffffffffffffffffff166121689092919063ffffffff16565b84600e60003373ffffffffffffffffffffffffffffffffffffffff1673ffffffffffffffffffffffffffffffffffffffff168152602001908152602001600020600082825461153c9190612d6a565b925050819055503373ffffffffffffffffffffffffffffffffffffffff163373ffffffffffffffffffffffffffffffffffffffff167f8a3c16627a0e7a870a5d5cd0121ca5d80e2efd0ec7198a11644f1a516ac37093876040516115a091906128d9565b60405180910390a3505050505050565b6000600160008473ffffffffffffffffffffffffffffffffffffffff1673ffffffffffffffffffffffffffffffffffffffff16815260200190815260200160002060008373ffffffffffffffffffffffffffffffffffffffff1673ffffffffffffffffffffffffffffffffffffffff16815260200190815260200160002054905092915050565b600061164161186c565b90506000600860003373ffffffffffffffffffffffffffffffffffffffff1673ffffffffffffffffffffffffffffffffffffffff16815260200190815260200160002090506000670de0b6b3a7640000836000015183600001546116a59190612d9e565b6116af9190612e27565b905060008260010154826116c39190612e58565b90508183600101819055507f000000000000000000000000000000000000000000000000000000000000000073ffffffffffffffffffffffffffffffffffffffff1663a9059cbb86836040518363ffffffff1660e01b81526004016117299291906131c2565b6020604051808303816000875af1158015611748573d6000803e3d6000fd5b505050506040513d601f19601f8201168201806040525081019061176c9190613217565b505050505050565b600080600d60008573ffffffffffffffffffffffffffffffffffffffff1673ffffffffffffffffffffffffffffffffffffffff16815260200190815260200160002054905060008114156117cc576000915050611864565b6000600b54600a54426117df9190612d6a565b6117e99190612d6a565b9050818111156117fc576000915061185e565b600087821161180b578761180d565b425b90508281101561182257829350505050611864565b848761182e9190612ca8565b838661183a9190612d9e565b82896118469190612d9e565b6118509190612ca8565b61185a9190612e27565b9250505b81925050505b949350505050565b6118746126e6565b6005604051806040016040529081600082015481526020016001820154815250509050428160200151101561193e5760006118ad610750565b905060008111156119185760008260200151426118ca9190612d6a565b90506000600754826118dc9190612d9e565b905082670de0b6b3a7640000826118f39190612d9e565b6118fd9190612e27565b8460000181815161190e9190612ca8565b9150818152505050505b428260200181815250508160056000820151816000015560208201518160010155905050505b90565b600033905090565b600073ffffffffffffffffffffffffffffffffffffffff168373ffffffffffffffffffffffffffffffffffffffff1614156119b9576040517f08c379a00000000000000000000000000000000000000000000000000000000081526004016119b0906132b6565b60405180910390fd5b600073ffffffffffffffffffffffffffffffffffffffff168273ffffffffffffffffffffffffffffffffffffffff161415611a29576040517f08c379a0000000000000000000000000000000000000000000000000000000008152600401611a2090613348565b60405180910390fd5b80600160008573ffffffffffffffffffffffffffffffffffffffff1673ffffffffffffffffffffffffffffffffffffffff16815260200190815260200160002060008473ffffffffffffffffffffffffffffffffffffffff1673ffffffffffffffffffffffffffffffffffffffff168152602001908152602001600020819055508173ffffffffffffffffffffffffffffffffffffffff168373ffffffffffffffffffffffffffffffffffffffff167f8c5be1e5ebec7d5bd14f71427d1e84f3dd0314c0f7b2291e5b200ac8c7c3b92583604051611b0791906128d9565b60405180910390a3505050565b6000611b1f84610a6f565b90506000611b2b61186c565b90506000600860008773ffffffffffffffffffffffffffffffffffffffff1673ffffffffffffffffffffffffffffffffffffffff1681526020019081526020016000209050670de0b6b3a7640000826000015185611b899190612d9e565b611b939190612e27565b816001016000828254611ba69190612e58565b9250508190555083816000016000828254611bc19190612d6a565b925050819055508473ffffffffffffffffffffffffffffffffffffffff168673ffffffffffffffffffffffffffffffffffffffff1614611d95576000611c0686610a6f565b90506000600860008873ffffffffffffffffffffffffffffffffffffffff1673ffffffffffffffffffffffffffffffffffffffff1681526020019081526020016000209050670de0b6b3a7640000846000015187611c649190612d9e565b611c6e9190612e27565b816001016000828254611c819190612fea565b9250508190555085816000016000828254611c9c9190612ca8565b925050819055506000600d60008a73ffffffffffffffffffffffffffffffffffffffff1673ffffffffffffffffffffffffffffffffffffffff168152602001908152602001600020549050611cf381888a86611774565b600d60008a73ffffffffffffffffffffffffffffffffffffffff1673ffffffffffffffffffffffffffffffffffffffff168152602001908152602001600020819055508686148015611d46575060008114155b15611d91576000600d60008b73ffffffffffffffffffffffffffffffffffffffff1673ffffffffffffffffffffffffffffffffffffffff168152602001908152602001600020819055505b5050505b611da08686866121ee565b505050505050565b600073ffffffffffffffffffffffffffffffffffffffff168273ffffffffffffffffffffffffffffffffffffffff161415611e18576040517f08c379a0000000000000000000000000000000000000000000000000000000008152600401611e0f906133b4565b60405180910390fd5b611e246000838361246f565b8060026000828254611e369190612ca8565b92505081905550806000808473ffffffffffffffffffffffffffffffffffffffff1673ffffffffffffffffffffffffffffffffffffffff1681526020019081526020016000206000828254611e8b9190612ca8565b925050819055508173ffffffffffffffffffffffffffffffffffffffff16600073ffffffffffffffffffffffffffffffffffffffff167fddf252ad1be2c89b69c2b068fc378daa952ba7f163c4a11628f55a4df523b3ef83604051611ef091906128d9565b60405180910390a3611f0460008383612474565b5050565b611f8b846323b872dd60e01b858585604051602401611f29939291906133d4565b604051602081830303815290604052907bffffffffffffffffffffffffffffffffffffffffffffffffffffffff19166020820180517bffffffffffffffffffffffffffffffffffffffffffffffffffffffff8381831617835250505050612479565b50505050565b600073ffffffffffffffffffffffffffffffffffffffff168273ffffffffffffffffffffffffffffffffffffffff161415612001576040517f08c379a0000000000000000000000000000000000000000000000000000000008152600401611ff89061347d565b60405180910390fd5b61200d8260008361246f565b60008060008473ffffffffffffffffffffffffffffffffffffffff1673ffffffffffffffffffffffffffffffffffffffff16815260200190815260200160002054905081811015612093576040517f08c379a000000000000000000000000000000000000000000000000000000000815260040161208a9061350f565b60405180910390fd5b8181036000808573ffffffffffffffffffffffffffffffffffffffff1673ffffffffffffffffffffffffffffffffffffffff1681526020019081526020016000208190555081600260008282546120ea9190612d6a565b92505081905550600073ffffffffffffffffffffffffffffffffffffffff168373ffffffffffffffffffffffffffffffffffffffff167fddf252ad1be2c89b69c2b068fc378daa952ba7f163c4a11628f55a4df523b3ef8460405161214f91906128d9565b60405180910390a361216383600084612474565b505050565b6121e98363a9059cbb60e01b84846040516024016121879291906131c2565b604051602081830303815290604052907bffffffffffffffffffffffffffffffffffffffffffffffffffffffff19166020820180517bffffffffffffffffffffffffffffffffffffffffffffffffffffffff8381831617835250505050612479565b505050565b600073ffffffffffffffffffffffffffffffffffffffff168373ffffffffffffffffffffffffffffffffffffffff16141561225e576040517f08c379a0000000000000000000000000000000000000000000000000000000008152600401612255906135a1565b60405180910390fd5b600073ffffffffffffffffffffffffffffffffffffffff168273ffffffffffffffffffffffffffffffffffffffff1614156122ce576040517f08c379a00000000000000000000000000000000000000000000000000000000081526004016122c590613633565b60405180910390fd5b6122d983838361246f565b60008060008573ffffffffffffffffffffffffffffffffffffffff1673ffffffffffffffffffffffffffffffffffffffff1681526020019081526020016000205490508181101561235f576040517f08c379a0000000000000000000000000000000000000000000000000000000008152600401612356906136c5565b60405180910390fd5b8181036000808673ffffffffffffffffffffffffffffffffffffffff1673ffffffffffffffffffffffffffffffffffffffff16815260200190815260200160002081905550816000808573ffffffffffffffffffffffffffffffffffffffff1673ffffffffffffffffffffffffffffffffffffffff16815260200190815260200160002060008282546123f29190612ca8565b925050819055508273ffffffffffffffffffffffffffffffffffffffff168473ffffffffffffffffffffffffffffffffffffffff167fddf252ad1be2c89b69c2b068fc378daa952ba7f163c4a11628f55a4df523b3ef8460405161245691906128d9565b60405180910390a3612469848484612474565b50505050565b505050565b505050565b60006124db826040518060400160405280602081526020017f5361666545524332303a206c6f772d6c6576656c2063616c6c206661696c65648152508573ffffffffffffffffffffffffffffffffffffffff166125409092919063ffffffff16565b905060008151111561253b57808060200190518101906124fb9190613217565b61253a576040517f08c379a000000000000000000000000000000000000000000000000000000000815260040161253190613757565b60405180910390fd5b5b505050565b606061254f8484600085612558565b90509392505050565b60608247101561259d576040517f08c379a0000000000000000000000000000000000000000000000000000000008152600401612594906137e9565b60405180910390fd5b6125a68561266c565b6125e5576040517f08c379a00000000000000000000000000000000000000000000000000000000081526004016125dc90613855565b60405180910390fd5b6000808673ffffffffffffffffffffffffffffffffffffffff16858760405161260e91906138bc565b60006040518083038185875af1925050503d806000811461264b576040519150601f19603f3d011682016040523d82523d6000602084013e612650565b606091505b509150915061266082828661267f565b92505050949350505050565b600080823b905060008111915050919050565b6060831561268f578290506126df565b6000835111156126a25782518084602001fd5b816040517f08c379a00000000000000000000000000000000000000000000000000000000081526004016126d69190612799565b60405180910390fd5b9392505050565b604051806040016040528060008152602001600081525090565b600081519050919050565b600082825260208201905092915050565b60005b8381101561273a57808201518184015260208101905061271f565b83811115612749576000848401525b50505050565b6000601f19601f8301169050919050565b600061276b82612700565b612775818561270b565b935061278581856020860161271c565b61278e8161274f565b840191505092915050565b600060208201905081810360008301526127b38184612760565b905092915050565b600080fd5b600073ffffffffffffffffffffffffffffffffffffffff82169050919050565b60006127eb826127c0565b9050919050565b6127fb816127e0565b811461280657600080fd5b50565b600081359050612818816127f2565b92915050565b6000819050919050565b6128318161281e565b811461283c57600080fd5b50565b60008135905061284e81612828565b92915050565b6000806040838503121561286b5761286a6127bb565b5b600061287985828601612809565b925050602061288a8582860161283f565b9150509250929050565b60008115159050919050565b6128a981612894565b82525050565b60006020820190506128c460008301846128a0565b92915050565b6128d38161281e565b82525050565b60006020820190506128ee60008301846128ca565b92915050565b60008060006060848603121561290d5761290c6127bb565b5b600061291b86828701612809565b935050602061292c86828701612809565b925050604061293d8682870161283f565b9150509250925092565b6000819050919050565b600061296c612967612962846127c0565b612947565b6127c0565b9050919050565b600061297e82612951565b9050919050565b600061299082612973565b9050919050565b6129a081612985565b82525050565b60006020820190506129bb6000830184612997565b92915050565b600060ff82169050919050565b6129d7816129c1565b82525050565b60006020820190506129f260008301846129ce565b92915050565b600060208284031215612a0e57612a0d6127bb565b5b6000612a1c84828501612809565b91505092915050565b600060208284031215612a3b57612a3a6127bb565b5b6000612a498482850161283f565b91505092915050565b6000819050919050565b612a6581612a52565b82525050565b6000602082019050612a806000830184612a5c565b92915050565b60008060408385031215612a9d57612a9c6127bb565b5b6000612aab85828601612809565b9250506020612abc85828601612809565b9150509250929050565b60008060008060808587031215612ae057612adf6127bb565b5b6000612aee8782880161283f565b9450506020612aff8782880161283f565b9350506040612b1087828801612809565b9250506060612b218782880161283f565b91505092959194509250565b612b368161281e565b82525050565b604082016000820151612b526000850182612b2d565b506020820151612b656020850182612b2d565b50505050565b6000604082019050612b806000830184612b3c565b92915050565b7f4e487b7100000000000000000000000000000000000000000000000000000000600052602260045260246000fd5b60006002820490506001821680612bcd57607f821691505b60208210811415612be157612be0612b86565b5b50919050565b7f45524332303a207472616e7366657220616d6f756e742065786365656473206160008201527f6c6c6f77616e6365000000000000000000000000000000000000000000000000602082015250565b6000612c4360288361270b565b9150612c4e82612be7565b604082019050919050565b60006020820190508181036000830152612c7281612c36565b9050919050565b7f4e487b7100000000000000000000000000000000000000000000000000000000600052601160045260246000fd5b6000612cb38261281e565b9150612cbe8361281e565b9250827fffffffffffffffffffffffffffffffffffffffffffffffffffffffffffffffff03821115612cf357612cf2612c79565b5b828201905092915050565b7f564c46493a494e56414c49445f42414c414e43455f4f4e5f434f4f4c444f574e600082015250565b6000612d3460208361270b565b9150612d3f82612cfe565b602082019050919050565b60006020820190508181036000830152612d6381612d27565b9050919050565b6000612d758261281e565b9150612d808361281e565b925082821015612d9357612d92612c79565b5b828203905092915050565b6000612da98261281e565b9150612db48361281e565b9250817fffffffffffffffffffffffffffffffffffffffffffffffffffffffffffffffff0483118215151615612ded57612dec612c79565b5b828202905092915050565b7f4e487b7100000000000000000000000000000000000000000000000000000000600052601260045260246000fd5b6000612e328261281e565b9150612e3d8361281e565b925082612e4d57612e4c612df8565b5b828204905092915050565b6000612e6382612a52565b9150612e6e83612a52565b9250827f800000000000000000000000000000000000000000000000000000000000000001821260008412151615612ea957612ea8612c79565b5b827f7fffffffffffffffffffffffffffffffffffffffffffffffffffffffffffffff018213600084121615612ee157612ee0612c79565b5b828203905092915050565b7f45524332303a2064656372656173656420616c6c6f77616e63652062656c6f7760008201527f207a65726f000000000000000000000000000000000000000000000000000000602082015250565b6000612f4860258361270b565b9150612f5382612eec565b604082019050919050565b60006020820190508181036000830152612f7781612f3b565b9050919050565b7f564c46493a494e56414c49445f414d4f554e5400000000000000000000000000600082015250565b6000612fb460138361270b565b9150612fbf82612f7e565b602082019050919050565b60006020820190508181036000830152612fe381612fa7565b9050919050565b6000612ff582612a52565b915061300083612a52565b9250817f7fffffffffffffffffffffffffffffffffffffffffffffffffffffffffffffff0383136000831215161561303b5761303a612c79565b5b817f800000000000000000000000000000000000000000000000000000000000000003831260008312161561307357613072612c79565b5b828201905092915050565b613087816127e0565b82525050565b60006020820190506130a2600083018461307e565b92915050565b6000815190506130b781612828565b92915050565b6000602082840312156130d3576130d26127bb565b5b60006130e1848285016130a8565b91505092915050565b7f564c46493a434f4f4c444f574e5f4e4f545f434f4d504c455445000000000000600082015250565b6000613120601a8361270b565b915061312b826130ea565b602082019050919050565b6000602082019050818103600083015261314f81613113565b9050919050565b7f564c46493a554e5354414b455f57494e444f575f46494e495348454400000000600082015250565b600061318c601c8361270b565b915061319782613156565b602082019050919050565b600060208201905081810360008301526131bb8161317f565b9050919050565b60006040820190506131d7600083018561307e565b6131e460208301846128ca565b9392505050565b6131f481612894565b81146131ff57600080fd5b50565b600081519050613211816131eb565b92915050565b60006020828403121561322d5761322c6127bb565b5b600061323b84828501613202565b91505092915050565b7f45524332303a20617070726f76652066726f6d20746865207a65726f2061646460008201527f7265737300000000000000000000000000000000000000000000000000000000602082015250565b60006132a060248361270b565b91506132ab82613244565b604082019050919050565b600060208201905081810360008301526132cf81613293565b9050919050565b7f45524332303a20617070726f766520746f20746865207a65726f20616464726560008201527f7373000000000000000000000000000000000000000000000000000000000000602082015250565b600061333260228361270b565b915061333d826132d6565b604082019050919050565b6000602082019050818103600083015261336181613325565b9050919050565b7f45524332303a206d696e7420746f20746865207a65726f206164647265737300600082015250565b600061339e601f8361270b565b91506133a982613368565b602082019050919050565b600060208201905081810360008301526133cd81613391565b9050919050565b60006060820190506133e9600083018661307e565b6133f6602083018561307e565b61340360408301846128ca565b949350505050565b7f45524332303a206275726e2066726f6d20746865207a65726f2061646472657360008201527f7300000000000000000000000000000000000000000000000000000000000000602082015250565b600061346760218361270b565b91506134728261340b565b604082019050919050565b600060208201905081810360008301526134968161345a565b9050919050565b7f45524332303a206275726e20616d6f756e7420657863656564732062616c616e60008201527f6365000000000000000000000000000000000000000000000000000000000000602082015250565b60006134f960228361270b565b91506135048261349d565b604082019050919050565b60006020820190508181036000830152613528816134ec565b9050919050565b7f45524332303a207472616e736665722066726f6d20746865207a65726f20616460008201527f6472657373000000000000000000000000000000000000000000000000000000602082015250565b600061358b60258361270b565b91506135968261352f565b604082019050919050565b600060208201905081810360008301526135ba8161357e565b9050919050565b7f45524332303a207472616e7366657220746f20746865207a65726f206164647260008201527f6573730000000000000000000000000000000000000000000000000000000000602082015250565b600061361d60238361270b565b9150613628826135c1565b604082019050919050565b6000602082019050818103600083015261364c81613610565b9050919050565b7f45524332303a207472616e7366657220616d6f756e742065786365656473206260008201527f616c616e63650000000000000000000000000000000000000000000000000000602082015250565b60006136af60268361270b565b91506136ba82613653565b604082019050919050565b600060208201905081810360008301526136de816136a2565b9050919050565b7f5361666545524332303a204552433230206f7065726174696f6e20646964206e60008201527f6f74207375636365656400000000000000000000000000000000000000000000602082015250565b6000613741602a8361270b565b915061374c826136e5565b604082019050919050565b6000602082019050818103600083015261377081613734565b9050919050565b7f416464726573733a20696e73756666696369656e742062616c616e636520666f60008201527f722063616c6c0000000000000000000000000000000000000000000000000000602082015250565b60006137d360268361270b565b91506137de82613777565b604082019050919050565b60006020820190508181036000830152613802816137c6565b9050919050565b7f416464726573733a2063616c6c20746f206e6f6e2d636f6e7472616374000000600082015250565b600061383f601d8361270b565b915061384a82613809565b602082019050919050565b6000602082019050818103600083015261386e81613832565b9050919050565b600081519050919050565b600081905092915050565b600061389682613875565b6138a08185613880565b93506138b081856020860161271c565b80840191505092915050565b60006138c8828461388b565b91508190509291505056fea2646970667358221220aaa4766c2cb3c501bfdeb7b3829c36c129958c8d9526daa48d5214272aaede8764736f6c634300080a0033",
  "linkReferences": {},
  "deployedLinkReferences": {}
}