{
  "_format": "hh-sol-artifact-1",
  "contractName": "VLFI",
  "sourceName": "contracts/VLFI.sol",
  "abi": [
    {
      "anonymous": false,
      "inputs": [
        {
          "indexed": true,
          "internalType": "address",
          "name": "owner",
          "type": "address"
        },
        {
          "indexed": true,
          "internalType": "address",
          "name": "spender",
          "type": "address"
        },
        {
          "indexed": false,
          "internalType": "uint256",
          "name": "value",
          "type": "uint256"
        }
      ],
      "name": "Approval",
      "type": "event"
    },
    {
      "anonymous": false,
      "inputs": [
        {
          "indexed": true,
          "internalType": "address",
          "name": "user",
          "type": "address"
        }
      ],
      "name": "CooldownActivated",
      "type": "event"
    },
    {
      "anonymous": false,
      "inputs": [
        {
          "indexed": true,
          "internalType": "address",
          "name": "delegator",
          "type": "address"
        },
        {
          "indexed": true,
          "internalType": "address",
          "name": "fromDelegate",
          "type": "address"
        },
        {
          "indexed": true,
          "internalType": "address",
          "name": "toDelegate",
          "type": "address"
        }
      ],
      "name": "DelegateChanged",
      "type": "event"
    },
    {
      "anonymous": false,
      "inputs": [
        {
          "indexed": true,
          "internalType": "address",
          "name": "delegate",
          "type": "address"
        },
        {
          "indexed": false,
          "internalType": "uint256",
          "name": "previousBalance",
          "type": "uint256"
        },
        {
          "indexed": false,
          "internalType": "uint256",
          "name": "newBalance",
          "type": "uint256"
        }
      ],
      "name": "DelegateVotesChanged",
      "type": "event"
    },
    {
      "anonymous": false,
      "inputs": [
        {
          "indexed": true,
          "internalType": "address",
          "name": "from",
          "type": "address"
        },
        {
          "indexed": true,
          "internalType": "address",
          "name": "to",
          "type": "address"
        },
        {
          "indexed": false,
          "internalType": "uint256",
          "name": "amount",
          "type": "uint256"
        }
      ],
      "name": "RewardsClaimed",
      "type": "event"
    },
    {
      "anonymous": false,
      "inputs": [
        {
          "indexed": true,
          "internalType": "bytes32",
          "name": "role",
          "type": "bytes32"
        },
        {
          "indexed": true,
          "internalType": "bytes32",
          "name": "previousAdminRole",
          "type": "bytes32"
        },
        {
          "indexed": true,
          "internalType": "bytes32",
          "name": "newAdminRole",
          "type": "bytes32"
        }
      ],
      "name": "RoleAdminChanged",
      "type": "event"
    },
    {
      "anonymous": false,
      "inputs": [
        {
          "indexed": true,
          "internalType": "bytes32",
          "name": "role",
          "type": "bytes32"
        },
        {
          "indexed": true,
          "internalType": "address",
          "name": "account",
          "type": "address"
        },
        {
          "indexed": true,
          "internalType": "address",
          "name": "sender",
          "type": "address"
        }
      ],
      "name": "RoleGranted",
      "type": "event"
    },
    {
      "anonymous": false,
      "inputs": [
        {
          "indexed": true,
          "internalType": "bytes32",
          "name": "role",
          "type": "bytes32"
        },
        {
          "indexed": true,
          "internalType": "address",
          "name": "account",
          "type": "address"
        },
        {
          "indexed": true,
          "internalType": "address",
          "name": "sender",
          "type": "address"
        }
      ],
      "name": "RoleRevoked",
      "type": "event"
    },
    {
      "anonymous": false,
      "inputs": [
        {
          "indexed": true,
          "internalType": "address",
          "name": "from",
          "type": "address"
        },
        {
          "indexed": true,
          "internalType": "address",
          "name": "onBehalfOf",
          "type": "address"
        },
        {
          "indexed": false,
          "internalType": "uint256",
          "name": "amount",
          "type": "uint256"
        }
      ],
      "name": "Staked",
      "type": "event"
    },
    {
      "anonymous": false,
      "inputs": [
        {
          "indexed": true,
          "internalType": "address",
          "name": "from",
          "type": "address"
        },
        {
          "indexed": true,
          "internalType": "address",
          "name": "to",
          "type": "address"
        },
        {
          "indexed": false,
          "internalType": "uint256",
          "name": "value",
          "type": "uint256"
        }
      ],
      "name": "Transfer",
      "type": "event"
    },
    {
      "anonymous": false,
      "inputs": [
        {
          "indexed": true,
          "internalType": "address",
          "name": "from",
          "type": "address"
        },
        {
          "indexed": true,
          "internalType": "address",
          "name": "to",
          "type": "address"
        },
        {
          "indexed": false,
          "internalType": "uint256",
          "name": "amount",
          "type": "uint256"
        }
      ],
      "name": "UnStaked",
      "type": "event"
    },
    {
      "inputs": [],
      "name": "DEFAULT_ADMIN_ROLE",
      "outputs": [
        {
          "internalType": "bytes32",
          "name": "",
          "type": "bytes32"
        }
      ],
      "stateMutability": "view",
      "type": "function"
    },
    {
      "inputs": [],
      "name": "DOMAIN_SEPARATOR",
      "outputs": [
        {
          "internalType": "bytes32",
          "name": "",
          "type": "bytes32"
        }
      ],
      "stateMutability": "view",
      "type": "function"
    },
    {
      "inputs": [],
      "name": "MANAGER_ROLE",
      "outputs": [
        {
          "internalType": "bytes32",
          "name": "",
          "type": "bytes32"
        }
      ],
      "stateMutability": "view",
      "type": "function"
    },
    {
      "inputs": [],
      "name": "STAKED_TOKEN",
      "outputs": [
        {
          "internalType": "contract ILFIToken",
          "name": "",
          "type": "address"
        }
      ],
      "stateMutability": "view",
      "type": "function"
    },
    {
      "inputs": [],
      "name": "activateCooldown",
      "outputs": [],
      "stateMutability": "nonpayable",
      "type": "function"
    },
    {
      "inputs": [
        {
          "internalType": "address",
          "name": "owner",
          "type": "address"
        },
        {
          "internalType": "address",
          "name": "spender",
          "type": "address"
        }
      ],
      "name": "allowance",
      "outputs": [
        {
          "internalType": "uint256",
          "name": "",
          "type": "uint256"
        }
      ],
      "stateMutability": "view",
      "type": "function"
    },
    {
      "inputs": [
        {
          "internalType": "address",
          "name": "spender",
          "type": "address"
        },
        {
          "internalType": "uint256",
          "name": "amount",
          "type": "uint256"
        }
      ],
      "name": "approve",
      "outputs": [
        {
          "internalType": "bool",
          "name": "",
          "type": "bool"
        }
      ],
      "stateMutability": "nonpayable",
      "type": "function"
    },
    {
      "inputs": [
        {
          "internalType": "address",
          "name": "account",
          "type": "address"
        }
      ],
      "name": "balanceOf",
      "outputs": [
        {
          "internalType": "uint256",
          "name": "",
          "type": "uint256"
        }
      ],
      "stateMutability": "view",
      "type": "function"
    },
    {
      "inputs": [
        {
          "internalType": "address",
          "name": "account",
          "type": "address"
        },
        {
          "internalType": "uint32",
          "name": "pos",
          "type": "uint32"
        }
      ],
      "name": "checkpoints",
      "outputs": [
        {
          "components": [
            {
              "internalType": "uint32",
              "name": "fromBlock",
              "type": "uint32"
            },
            {
              "internalType": "uint224",
              "name": "votes",
              "type": "uint224"
            }
          ],
          "internalType": "struct ERC20VotesUpgradeable.Checkpoint",
          "name": "",
          "type": "tuple"
        }
      ],
      "stateMutability": "view",
      "type": "function"
    },
    {
      "inputs": [
        {
          "internalType": "address",
          "name": "to",
          "type": "address"
        }
      ],
      "name": "claimRewards",
      "outputs": [],
      "stateMutability": "nonpayable",
      "type": "function"
    },
    {
      "inputs": [],
      "name": "createFarm",
      "outputs": [],
      "stateMutability": "nonpayable",
      "type": "function"
    },
    {
      "inputs": [],
      "name": "decimals",
      "outputs": [
        {
          "internalType": "uint8",
          "name": "",
          "type": "uint8"
        }
      ],
      "stateMutability": "view",
      "type": "function"
    },
    {
      "inputs": [
        {
          "internalType": "address",
          "name": "spender",
          "type": "address"
        },
        {
          "internalType": "uint256",
          "name": "subtractedValue",
          "type": "uint256"
        }
      ],
      "name": "decreaseAllowance",
      "outputs": [
        {
          "internalType": "bool",
          "name": "",
          "type": "bool"
        }
      ],
      "stateMutability": "nonpayable",
      "type": "function"
    },
    {
      "inputs": [
        {
          "internalType": "address",
          "name": "delegatee",
          "type": "address"
        }
      ],
      "name": "delegate",
      "outputs": [],
      "stateMutability": "nonpayable",
      "type": "function"
    },
    {
      "inputs": [
        {
          "internalType": "address",
          "name": "delegatee",
          "type": "address"
        },
        {
          "internalType": "uint256",
          "name": "nonce",
          "type": "uint256"
        },
        {
          "internalType": "uint256",
          "name": "expiry",
          "type": "uint256"
        },
        {
          "internalType": "uint8",
          "name": "v",
          "type": "uint8"
        },
        {
          "internalType": "bytes32",
          "name": "r",
          "type": "bytes32"
        },
        {
          "internalType": "bytes32",
          "name": "s",
          "type": "bytes32"
        }
      ],
      "name": "delegateBySig",
      "outputs": [],
      "stateMutability": "nonpayable",
      "type": "function"
    },
    {
      "inputs": [
        {
          "internalType": "address",
          "name": "account",
          "type": "address"
        }
      ],
      "name": "delegates",
      "outputs": [
        {
          "internalType": "address",
          "name": "",
          "type": "address"
        }
      ],
      "stateMutability": "view",
      "type": "function"
    },
    {
      "inputs": [],
      "name": "getAccRewardPerShare",
      "outputs": [
        {
          "internalType": "uint256",
          "name": "",
          "type": "uint256"
        }
      ],
      "stateMutability": "view",
      "type": "function"
    },
    {
      "inputs": [
        {
          "internalType": "address",
          "name": "staker",
          "type": "address"
        }
      ],
      "name": "getCooldown",
      "outputs": [
        {
          "internalType": "uint256",
          "name": "",
          "type": "uint256"
        }
      ],
      "stateMutability": "view",
      "type": "function"
    },
    {
      "inputs": [],
      "name": "getCooldownSeconds",
      "outputs": [
        {
          "internalType": "uint256",
          "name": "",
          "type": "uint256"
        }
      ],
      "stateMutability": "view",
      "type": "function"
    },
    {
      "inputs": [],
      "name": "getLastRewardTime",
      "outputs": [
        {
          "internalType": "uint256",
          "name": "",
          "type": "uint256"
        }
      ],
      "stateMutability": "view",
      "type": "function"
    },
    {
      "inputs": [],
      "name": "getLiquidityStatus",
      "outputs": [
        {
          "internalType": "uint256",
          "name": "",
          "type": "uint256"
        }
      ],
      "stateMutability": "view",
      "type": "function"
    },
    {
      "inputs": [
        {
          "internalType": "uint256",
          "name": "userCooldownTimestamp",
          "type": "uint256"
        },
        {
          "internalType": "uint256",
          "name": "amountToReceive",
          "type": "uint256"
        },
        {
          "internalType": "address",
          "name": "toAddress",
          "type": "address"
        },
        {
          "internalType": "uint256",
          "name": "toBalance",
          "type": "uint256"
        }
      ],
      "name": "getNextCooldownTimestamp",
      "outputs": [
        {
          "internalType": "uint256",
          "name": "",
          "type": "uint256"
        }
      ],
      "stateMutability": "view",
      "type": "function"
    },
    {
      "inputs": [
        {
          "internalType": "uint256",
          "name": "blockNumber",
          "type": "uint256"
        }
      ],
      "name": "getPastTotalSupply",
      "outputs": [
        {
          "internalType": "uint256",
          "name": "",
          "type": "uint256"
        }
      ],
      "stateMutability": "view",
      "type": "function"
    },
    {
      "inputs": [
        {
          "internalType": "address",
          "name": "account",
          "type": "address"
        },
        {
          "internalType": "uint256",
          "name": "blockNumber",
          "type": "uint256"
        }
      ],
      "name": "getPastVotes",
      "outputs": [
        {
          "internalType": "uint256",
          "name": "",
          "type": "uint256"
        }
      ],
      "stateMutability": "view",
      "type": "function"
    },
    {
      "inputs": [],
      "name": "getRewardPerSecond",
      "outputs": [
        {
          "internalType": "uint256",
          "name": "",
          "type": "uint256"
        }
      ],
      "stateMutability": "view",
      "type": "function"
    },
    {
      "inputs": [
        {
          "internalType": "address",
          "name": "benefitor",
          "type": "address"
        }
      ],
      "name": "getRewards",
      "outputs": [
        {
          "internalType": "uint256",
          "name": "pendingRewards",
          "type": "uint256"
        }
      ],
      "stateMutability": "view",
      "type": "function"
    },
    {
      "inputs": [
        {
          "internalType": "bytes32",
          "name": "role",
          "type": "bytes32"
        }
      ],
      "name": "getRoleAdmin",
      "outputs": [
        {
          "internalType": "bytes32",
          "name": "",
          "type": "bytes32"
        }
      ],
      "stateMutability": "view",
      "type": "function"
    },
    {
      "inputs": [],
      "name": "getUnstakeWindowTime",
      "outputs": [
        {
          "internalType": "uint256",
          "name": "",
          "type": "uint256"
        }
      ],
      "stateMutability": "view",
      "type": "function"
    },
    {
      "inputs": [
        {
          "internalType": "address",
          "name": "user",
          "type": "address"
        }
      ],
      "name": "getUserLFIDeposits",
      "outputs": [
        {
          "internalType": "uint256",
          "name": "",
          "type": "uint256"
        }
      ],
      "stateMutability": "view",
      "type": "function"
    },
    {
      "inputs": [
        {
          "internalType": "address",
          "name": "benefitor",
          "type": "address"
        }
      ],
      "name": "getUserRewardDebt",
      "outputs": [
        {
          "internalType": "int256",
          "name": "",
          "type": "int256"
        }
      ],
      "stateMutability": "view",
      "type": "function"
    },
    {
      "inputs": [
        {
          "internalType": "address",
          "name": "benefitor",
          "type": "address"
        }
      ],
      "name": "getUserVLFIAmount",
      "outputs": [
        {
          "internalType": "uint256",
          "name": "",
          "type": "uint256"
        }
      ],
      "stateMutability": "view",
      "type": "function"
    },
    {
      "inputs": [
        {
          "internalType": "address",
          "name": "account",
          "type": "address"
        }
      ],
      "name": "getVotes",
      "outputs": [
        {
          "internalType": "uint256",
          "name": "",
          "type": "uint256"
        }
      ],
      "stateMutability": "view",
      "type": "function"
    },
    {
      "inputs": [
        {
          "internalType": "bytes32",
          "name": "role",
          "type": "bytes32"
        },
        {
          "internalType": "address",
          "name": "account",
          "type": "address"
        }
      ],
      "name": "grantRole",
      "outputs": [],
      "stateMutability": "nonpayable",
      "type": "function"
    },
    {
      "inputs": [
        {
          "internalType": "bytes32",
          "name": "role",
          "type": "bytes32"
        },
        {
          "internalType": "address",
          "name": "account",
          "type": "address"
        }
      ],
      "name": "hasRole",
      "outputs": [
        {
          "internalType": "bool",
          "name": "",
          "type": "bool"
        }
      ],
      "stateMutability": "view",
      "type": "function"
    },
    {
      "inputs": [
        {
          "internalType": "address",
          "name": "spender",
          "type": "address"
        },
        {
          "internalType": "uint256",
          "name": "addedValue",
          "type": "uint256"
        }
      ],
      "name": "increaseAllowance",
      "outputs": [
        {
          "internalType": "bool",
          "name": "",
          "type": "bool"
        }
      ],
      "stateMutability": "nonpayable",
      "type": "function"
    },
    {
      "inputs": [
        {
          "internalType": "string",
          "name": "name",
          "type": "string"
        },
        {
          "internalType": "string",
          "name": "symbol",
          "type": "string"
        },
        {
          "internalType": "contract ILFIToken",
          "name": "stakedToken",
          "type": "address"
        },
        {
          "internalType": "uint256",
          "name": "cooldownSeconds",
          "type": "uint256"
        },
        {
          "internalType": "uint256",
          "name": "unstakeWindow",
          "type": "uint256"
        },
        {
          "internalType": "uint256",
          "name": "rewardsPerSecond",
          "type": "uint256"
        },
        {
          "internalType": "uint256",
          "name": "treasuryWithdrawlPercentage",
          "type": "uint256"
        }
      ],
      "name": "initialize",
      "outputs": [],
      "stateMutability": "nonpayable",
      "type": "function"
    },
    {
      "inputs": [],
      "name": "maxTreasuryWithdrawalPercentage",
      "outputs": [
        {
          "internalType": "uint256",
          "name": "",
          "type": "uint256"
        }
      ],
      "stateMutability": "view",
      "type": "function"
    },
    {
      "inputs": [],
      "name": "name",
      "outputs": [
        {
          "internalType": "string",
          "name": "",
          "type": "string"
        }
      ],
      "stateMutability": "view",
      "type": "function"
    },
    {
      "inputs": [
        {
          "internalType": "address",
          "name": "owner",
          "type": "address"
        }
      ],
      "name": "nonces",
      "outputs": [
        {
          "internalType": "uint256",
          "name": "",
          "type": "uint256"
        }
      ],
      "stateMutability": "view",
      "type": "function"
    },
    {
      "inputs": [
        {
          "internalType": "address",
          "name": "account",
          "type": "address"
        }
      ],
      "name": "numCheckpoints",
      "outputs": [
        {
          "internalType": "uint32",
          "name": "",
          "type": "uint32"
        }
      ],
      "stateMutability": "view",
      "type": "function"
    },
    {
      "inputs": [
        {
          "internalType": "address",
          "name": "owner",
          "type": "address"
        },
        {
          "internalType": "address",
          "name": "spender",
          "type": "address"
        },
        {
          "internalType": "uint256",
          "name": "value",
          "type": "uint256"
        },
        {
          "internalType": "uint256",
          "name": "deadline",
          "type": "uint256"
        },
        {
          "internalType": "uint8",
          "name": "v",
          "type": "uint8"
        },
        {
          "internalType": "bytes32",
          "name": "r",
          "type": "bytes32"
        },
        {
          "internalType": "bytes32",
          "name": "s",
          "type": "bytes32"
        }
      ],
      "name": "permit",
      "outputs": [],
      "stateMutability": "nonpayable",
      "type": "function"
    },
    {
      "inputs": [
        {
          "internalType": "address",
          "name": "owner",
          "type": "address"
        },
        {
          "internalType": "address",
          "name": "spender",
          "type": "address"
        },
        {
          "internalType": "uint256",
          "name": "value",
          "type": "uint256"
        },
        {
          "internalType": "uint256",
          "name": "deadline",
          "type": "uint256"
        },
        {
          "internalType": "uint8",
          "name": "v",
          "type": "uint8"
        },
        {
          "internalType": "bytes32",
          "name": "r",
          "type": "bytes32"
        },
        {
          "internalType": "bytes32",
          "name": "s",
          "type": "bytes32"
        },
        {
          "internalType": "address",
          "name": "onBehalfOf",
          "type": "address"
        },
        {
          "internalType": "uint256",
          "name": "LFIamount",
          "type": "uint256"
        }
      ],
      "name": "permitAndStake",
      "outputs": [],
      "stateMutability": "nonpayable",
      "type": "function"
    },
    {
      "inputs": [
        {
          "internalType": "bytes32",
          "name": "role",
          "type": "bytes32"
        },
        {
          "internalType": "address",
          "name": "account",
          "type": "address"
        }
      ],
      "name": "renounceRole",
      "outputs": [],
      "stateMutability": "nonpayable",
      "type": "function"
    },
    {
      "inputs": [
        {
          "internalType": "bytes32",
          "name": "role",
          "type": "bytes32"
        },
        {
          "internalType": "address",
          "name": "account",
          "type": "address"
        }
      ],
      "name": "revokeRole",
      "outputs": [],
      "stateMutability": "nonpayable",
      "type": "function"
    },
    {
      "inputs": [
        {
          "internalType": "uint256",
          "name": "coolDownSeconds",
          "type": "uint256"
        }
      ],
      "name": "setCooldownSeconds",
      "outputs": [],
      "stateMutability": "nonpayable",
      "type": "function"
    },
    {
      "inputs": [
        {
          "internalType": "uint256",
          "name": "percentage",
          "type": "uint256"
        }
      ],
      "name": "setMaxTreasuryWithdrawalPercentage",
      "outputs": [],
      "stateMutability": "nonpayable",
      "type": "function"
    },
    {
      "inputs": [
        {
          "internalType": "uint256",
          "name": "_rewardPerSecond",
          "type": "uint256"
        }
      ],
      "name": "setRewardPerSecond",
      "outputs": [],
      "stateMutability": "nonpayable",
      "type": "function"
    },
    {
      "inputs": [
        {
          "internalType": "uint256",
          "name": "unstakeWindow",
          "type": "uint256"
        }
      ],
      "name": "setUnstakeWindowTime",
      "outputs": [],
      "stateMutability": "nonpayable",
      "type": "function"
    },
    {
      "inputs": [
        {
          "internalType": "address",
          "name": "onBehalfOf",
          "type": "address"
        },
        {
          "internalType": "uint256",
          "name": "amount",
          "type": "uint256"
        }
      ],
      "name": "stake",
      "outputs": [],
      "stateMutability": "nonpayable",
      "type": "function"
    },
    {
      "inputs": [
        {
          "internalType": "bytes4",
          "name": "interfaceId",
          "type": "bytes4"
        }
      ],
      "name": "supportsInterface",
      "outputs": [
        {
          "internalType": "bool",
          "name": "",
          "type": "bool"
        }
      ],
      "stateMutability": "view",
      "type": "function"
    },
    {
      "inputs": [],
      "name": "symbol",
      "outputs": [
        {
          "internalType": "string",
          "name": "",
          "type": "string"
        }
      ],
      "stateMutability": "view",
      "type": "function"
    },
    {
      "inputs": [],
      "name": "totalSupply",
      "outputs": [
        {
          "internalType": "uint256",
          "name": "",
          "type": "uint256"
        }
      ],
      "stateMutability": "view",
      "type": "function"
    },
    {
      "inputs": [
        {
          "internalType": "address",
          "name": "to",
          "type": "address"
        },
        {
          "internalType": "uint256",
          "name": "amount",
          "type": "uint256"
        }
      ],
      "name": "transfer",
      "outputs": [
        {
          "internalType": "bool",
          "name": "",
          "type": "bool"
        }
      ],
      "stateMutability": "nonpayable",
      "type": "function"
    },
    {
      "inputs": [
        {
          "internalType": "address",
          "name": "from",
          "type": "address"
        },
        {
          "internalType": "address",
          "name": "to",
          "type": "address"
        },
        {
          "internalType": "uint256",
          "name": "amount",
          "type": "uint256"
        }
      ],
      "name": "transferFrom",
      "outputs": [
        {
          "internalType": "bool",
          "name": "",
          "type": "bool"
        }
      ],
      "stateMutability": "nonpayable",
      "type": "function"
    },
    {
      "inputs": [
        {
          "internalType": "address",
          "name": "to",
          "type": "address"
        },
        {
          "internalType": "uint256",
          "name": "treasuryWithdrawal",
          "type": "uint256"
        }
      ],
      "name": "transferToTreasury",
      "outputs": [],
      "stateMutability": "nonpayable",
      "type": "function"
    },
    {
      "inputs": [
        {
          "internalType": "address",
          "name": "to",
          "type": "address"
        },
        {
          "internalType": "uint256",
          "name": "amount",
          "type": "uint256"
        }
      ],
      "name": "unStake",
      "outputs": [],
      "stateMutability": "nonpayable",
      "type": "function"
    },
    {
      "inputs": [],
      "name": "updateFarm",
      "outputs": [
        {
          "components": [
            {
              "internalType": "uint256",
              "name": "accRewardsPerShare",
              "type": "uint256"
            },
            {
              "internalType": "uint256",
              "name": "lastRewardTime",
              "type": "uint256"
            }
          ],
          "internalType": "struct VLFI.FarmInfo",
          "name": "farm",
          "type": "tuple"
        }
      ],
      "stateMutability": "nonpayable",
      "type": "function"
    }
  ],
  "bytecode": "0x608060405234801561001057600080fd5b50613c2b806100206000396000f3fe608060405234801561001057600080fd5b50600436106103835760003560e01c806379ee54f7116101de578063adc9772e1161010f578063d9393814116100ad578063ef5cfb8c1161007c578063ef5cfb8c146107ee578063f1127ed814610801578063f1cc432a1461083e578063f54ca63c1461085157600080fd5b8063d939381414610784578063da5b4ee714610797578063dd62ed3e146107a0578063ec87621c146107d957600080fd5b8063d505accf116100e9578063d505accf14610741578063d547741f14610754578063d876246f14610767578063d92aec591461077157600080fd5b8063adc9772e146106ee578063c3cda52014610701578063c61fbcc51461071457600080fd5b80639a00a6a31161017c578063a217fddf11610156578063a217fddf146106ad578063a457c2d7146106b5578063a9059cbb146106c8578063ad88918f146106db57600080fd5b80639a00a6a31461065d5780639ab24eb0146106875780639dd267e61461069a57600080fd5b80637ecebe00116101b85780637ecebe001461061c5780638e539e8c1461062f57806391d148541461064257806395d89b411461065557600080fd5b806379ee54f7146105e35780637a45c441146105f65780637b5b11571461060957600080fd5b806339b84ecf116102b85780635c19a95c116102565780636c07d9fe116102305780636c07d9fe146105755780636fcfff451461057e57806370a08231146105a6578063733d07be146105b957600080fd5b80635c19a95c14610546578063616e0bf91461055957806366da58151461056257600080fd5b80633e340dae116102925780633e340dae146104f55780634853b3b2146104fe578063587cde1e146105065780635ac3ce121461053357600080fd5b806339b84ecf146104af5780633a46b1a8146104d95780633c0717fd146104ec57600080fd5b8063248a9ca311610325578063313ce567116102ff578063313ce567146104725780633644e5151461048157806336568abe14610489578063395093511461049c57600080fd5b8063248a9ca3146104105780632f2ff15d14610433578063312f6b831461044657600080fd5b806318160ddd1161036157806318160ddd146103d85780631d5ec3cb146103ea5780631f477ea9146103f457806323b872dd146103fd57600080fd5b806301ffc9a71461038857806306fdde03146103b0578063095ea7b3146103c5575b600080fd5b61039b6103963660046133ae565b610874565b60405190151581526020015b60405180910390f35b6103b86108ab565b6040516103a79190613404565b61039b6103d336600461344c565b61093d565b6067545b6040519081526020016103a7565b6103f2610955565b005b610166546103dc565b61039b61040b366004613478565b610991565b6103dc61041e3660046134b9565b600090815260fe602052604090206001015490565b6103f26104413660046134d2565b6109b5565b6101625461045a906001600160a01b031681565b6040516001600160a01b0390911681526020016103a7565b604051601281526020016103a7565b6103dc6109e0565b6103f26104973660046134d2565b6109ef565b61039b6104aa36600461344c565b610a72565b6103dc6104bd366004613502565b6001600160a01b0316600090815261016b602052604090205490565b6103dc6104e736600461344c565b610ab1565b610163546103dc565b61016a546103dc565b6103f2610b2c565b61045a610514366004613502565b6001600160a01b03908116600090815261013060205260409020541690565b6103f26105413660046134b9565b610bbc565b6103f2610554366004613502565b610bdc565b610165546103dc565b6103f26105703660046134b9565b610be9565b610169546103dc565b61059161058c366004613502565b610c09565b60405163ffffffff90911681526020016103a7565b6103dc6105b4366004613502565b610c2c565b6103dc6105c7366004613502565b6001600160a01b0316600090815261016d602052604090205490565b6103dc6105f1366004613502565b610c47565b6103f26106043660046135c2565b610d2d565b6103f26106173660046134b9565b610e7e565b6103dc61062a366004613502565b610e9e565b6103dc61063d3660046134b9565b610ebc565b61039b6106503660046134d2565b610f19565b6103b8610f44565b6103dc61066b366004613502565b6001600160a01b0316600090815261016c602052604090205490565b6103dc610695366004613502565b610f53565b6103f26106a836600461344c565b610fdc565b6103dc600081565b61039b6106c336600461344c565b6110a4565b61039b6106d636600461344c565b611136565b6103f26106e93660046134b9565b611144565b6103f26106fc36600461344c565b611164565b6103f261070f366004613673565b6113b2565b6103dc610722366004613502565b6001600160a01b0316600090815261016d602052604090206001015490565b6103f261074f3660046136cd565b6114e8565b6103f26107623660046134d2565b61162e565b6103dc6101685481565b6103f261077f36600461373b565b611654565b6103f261079236600461344c565b61174c565b610167546103dc565b6103dc6107ae3660046137c8565b6001600160a01b03918216600090815260666020908152604080832093909416825291909152205490565b6103dc600080516020613bd683398151915281565b6103f26107fc366004613502565b611aee565b61081461080f3660046137f6565b611bc6565b60408051825163ffffffff1681526020928301516001600160e01b031692810192909252016103a7565b6103dc61084c36600461382d565b611c4b565b610859611d0e565b604080518251815260209283015192810192909252016103a7565b60006001600160e01b03198216637965db0b60e01b14806108a557506301ffc9a760e01b6001600160e01b03198316145b92915050565b6060606880546108ba9061386c565b80601f01602080910402602001604051908101604052809291908181526020018280546108e69061386c565b80156109335780601f1061090857610100808354040283529160200191610933565b820191906000526020600020905b81548152906001019060200180831161091657829003601f168201915b5050505050905090565b60003361094b818585611dc4565b5060019392505050565b600080516020613bd683398151915261096e8133611ee8565b506040805180820190915260008082524260209092018290526101695561016a55565b60003361099f858285611f4c565b6109aa858585611fde565b506001949350505050565b600082815260fe60205260409020600101546109d18133611ee8565b6109db838361216c565b505050565b60006109ea6121f2565b905090565b6001600160a01b0381163314610a645760405162461bcd60e51b815260206004820152602f60248201527f416363657373436f6e74726f6c3a2063616e206f6e6c792072656e6f756e636560448201526e103937b632b9903337b91039b2b63360891b60648201526084015b60405180910390fd5b610a6e828261226d565b5050565b3360008181526066602090815260408083206001600160a01b038716845290915281205490919061094b9082908690610aac9087906138b7565b611dc4565b6000438210610b025760405162461bcd60e51b815260206004820152601f60248201527f4552433230566f7465733a20626c6f636b206e6f7420796574206d696e6564006044820152606401610a5b565b6001600160a01b038316600090815261013160205260409020610b2590836122d4565b9392505050565b610b3533610c2c565b610b815760405162461bcd60e51b815260206004820181905260248201527f564c46493a494e56414c49445f42414c414e43455f4f4e5f434f4f4c444f574e6044820152606401610a5b565b33600081815261016b6020526040808220429055517f06458eacc93d062b1d92c6575f39b0c1d64541d6881846fecef52a42c7c800089190a2565b600080516020613bd6833981519152610bd58133611ee8565b5061016855565b610be63382612391565b50565b600080516020613bd6833981519152610c028133611ee8565b5061016755565b6001600160a01b038116600090815261013160205260408120546108a590612422565b6001600160a01b031660009081526065602052604090205490565b60408051808201825261016954815261016a546020808301919091526001600160a01b038416600090815261016d909152918220815183610c8760675490565b9050836020015142118015610c9b57508015155b15610cf3576000846020015142610cb291906138cf565b905060006101675482610cc591906138e6565b905082610cda670de0b6b3a7640000836138e6565b610ce49190613905565b610cee90856138b7565b935050505b60018301548354670de0b6b3a764000090610d0f9085906138e6565b610d199190613905565b610d239190613927565b9695505050505050565b600054610100900460ff16610d485760005460ff1615610d4c565b303b155b610daf5760405162461bcd60e51b815260206004820152602e60248201527f496e697469616c697a61626c653a20636f6e747261637420697320616c72656160448201526d191e481a5b9a5d1a585b1a5e995960921b6064820152608401610a5b565b600054610100900460ff16158015610dd1576000805461ffff19166101011790555b610ddb888861248b565b610de4886124bc565b61016280546001600160a01b0319166001600160a01b038816179055610165859055610166849055610e186012600a613a4a565b610e24906103e86138e6565b61016455610168829055610e3960003361216c565b610e51600080516020613bd68339815191523361216c565b610e5a83610be9565b610e62610955565b8015610e74576000805461ff00191690555b5050505050505050565b600080516020613bd6833981519152610e978133611ee8565b5061016555565b6001600160a01b038116600090815260cb60205260408120546108a5565b6000438210610f0d5760405162461bcd60e51b815260206004820152601f60248201527f4552433230566f7465733a20626c6f636b206e6f7420796574206d696e6564006044820152606401610a5b565b6108a5610132836122d4565b600091825260fe602090815260408084206001600160a01b0393909316845291905290205460ff1690565b6060606980546108ba9061386c565b6001600160a01b038116600090815261013160205260408120548015610fc9576001600160a01b038316600090815261013160205260409020610f976001836138cf565b81548110610fa757610fa7613a56565b60009182526020909120015464010000000090046001600160e01b0316610fcc565b60005b6001600160e01b03169392505050565b600080516020613bd6833981519152610ff58133611ee8565b6000612710610168546101635461100c91906138e6565b6110169190613905565b90508083111561102557600080fd5b6101625460405163a9059cbb60e01b81526001600160a01b038681166004830152602482018690529091169063a9059cbb906044016020604051808303816000875af1158015611079573d6000803e3d6000fd5b505050506040513d601f19601f8201168201806040525081019061109d9190613a6c565b5050505050565b3360008181526066602090815260408083206001600160a01b0387168452909152812054909190838110156111295760405162461bcd60e51b815260206004820152602560248201527f45524332303a2064656372656173656420616c6c6f77616e63652062656c6f77604482015264207a65726f60d81b6064820152608401610a5b565b6109aa8286868403611dc4565b60003361094b818585611fde565b600080516020613bd683398151915261115d8133611ee8565b5061016655565b806111a75760405162461bcd60e51b8152602060048201526013602482015272159311924e9253959053125117d05353d55395606a1b6044820152606401610a5b565b60006111b283610c2c565b905060006111be611d0e565b33600090815261016d6020526040902061016454919250906111e885670de0b6b3a76400006138e6565b6111f29190613905565b81600001600082825461120591906138b7565b9091555050610164548251670de0b6b3a7640000919061122587846138e6565b61122f91906138e6565b6112399190613905565b6112439190613905565b8160010160008282546112569190613a8e565b909155505033600090815261016c60205260408120805486929061127b9084906138b7565b9250508190555083610163600082825461129591906138b7565b909155506112a890506000858786611c4b565b6001600160a01b038616600090815261016b6020526040902055610164546112ed9086906112de87670de0b6b3a76400006138e6565b6112e89190613905565b61250f565b6040518481526001600160a01b0386169033907f5dac0c1b1112564a045ba943c9d50270893e8e826c49be8e7073adc713ab7bd79060200160405180910390a3610162546040516323b872dd60e01b8152336004820152306024820152604481018690526001600160a01b03909116906323b872dd906064015b6020604051808303816000875af1158015611386573d6000803e3d6000fd5b505050506040513d601f19601f820116820180604052508101906113aa9190613a6c565b505050505050565b834211156114025760405162461bcd60e51b815260206004820152601d60248201527f4552433230566f7465733a207369676e617475726520657870697265640000006044820152606401610a5b565b604080517fe48329057bfd03d55e49b547132e39cffd9c1820ad7b9d4c5307691425d15adf60208201526001600160a01b03881691810191909152606081018690526080810185905260009061147c906114749060a00160405160208183030381529060405280519060200120612519565b858585612567565b905061148781612585565b86146114d55760405162461bcd60e51b815260206004820152601960248201527f4552433230566f7465733a20696e76616c6964206e6f6e6365000000000000006044820152606401610a5b565b6114df8188612391565b50505050505050565b834211156115385760405162461bcd60e51b815260206004820152601d60248201527f45524332305065726d69743a206578706972656420646561646c696e650000006044820152606401610a5b565b600060cc548888886115498c612585565b6040805160208101969096526001600160a01b0394851690860152929091166060840152608083015260a082015260c0810186905260e00160405160208183030381529060405280519060200120905060006115a482612519565b905060006115b482878787612567565b9050896001600160a01b0316816001600160a01b0316146116175760405162461bcd60e51b815260206004820152601e60248201527f45524332305065726d69743a20696e76616c6964207369676e617475726500006044820152606401610a5b565b6116228a8a8a611dc4565b50505050505050505050565b600082815260fe602052604090206001015461164a8133611ee8565b6109db838361226d565b6101625460405163d505accf60e01b81526001600160a01b038b811660048301528a81166024830152604482018a90526064820189905260ff8816608483015260a4820187905260c482018690529091169063d505accf9060e401600060405180830381600087803b1580156116c957600080fd5b505af11580156116dd573d6000803e3d6000fd5b50506040516356e4bb9760e11b81526001600160a01b03851660048201526024810184905230925063adc9772e9150604401600060405180830381600087803b15801561172957600080fd5b505af115801561173d573d6000803e3d6000fd5b50505050505050505050505050565b80158015906117c75750610162546040516370a0823160e01b81523360048201526001600160a01b03909116906370a0823190602401602060405180830381865afa15801561179f573d6000803e3d6000fd5b505050506040513d601f19601f820116820180604052508101906117c39190613acf565b8111155b6118095760405162461bcd60e51b8152602060048201526013602482015272159311924e9253959053125117d05353d55395606a1b6044820152606401610a5b565b33600090815261016b60205260409020546101655461182890826138b7565b42116118765760405162461bcd60e51b815260206004820152601a60248201527f564c46493a434f4f4c444f574e5f4e4f545f434f4d504c4554450000000000006044820152606401610a5b565b610166546101655461188890836138b7565b61189290426138cf565b11156118e05760405162461bcd60e51b815260206004820152601c60248201527f564c46493a554e5354414b455f57494e444f575f46494e4953484544000000006044820152606401610a5b565b60006118eb33610c2c565b905060006118f7611d0e565b33600090815261016d602052604090206101645482519293509091670de0b6b3a7640000919061192788846138e6565b61193191906138e6565b61193b9190613905565b6119459190613905565b8160010160008282546119589190613927565b90915550506101645461197386670de0b6b3a76400006138e6565b61197d9190613905565b81600001600082825461199091906138cf565b909155505033600090815261016c6020526040812080548792906119b59084906138cf565b925050819055508461016360008282546119cf91906138cf565b9091555050610164546119ff9033906119f088670de0b6b3a76400006138e6565b6119fa9190613905565b6125ad565b61016454611a1586670de0b6b3a76400006138e6565b611a1f9190613905565b611a2990846138cf565b611a3f5733600090815261016b60205260408120555b604051858152339081907f8a3c16627a0e7a870a5d5cd0121ca5d80e2efd0ec7198a11644f1a516ac370939060200160405180910390a36101625460405163a9059cbb60e01b81526001600160a01b038881166004830152602482018890529091169063a9059cbb906044016020604051808303816000875af1158015611aca573d6000803e3d6000fd5b505050506040513d601f19601f820116820180604052508101906114df9190613a6c565b6000611af8611d0e565b33600090815261016d60205260408120825181549394509092670de0b6b3a764000091611b24916138e6565b611b2e9190613905565b90506000826001015482611b429190613927565b600184018390556040518181529091506001600160a01b0386169033907f9310ccfcb8de723f578a9e4282ea9f521f05ae40dc08f3068dfad528a65ee3c79060200160405180910390a36101625460405163a9059cbb60e01b81526001600160a01b038781166004830152602482018490529091169063a9059cbb90604401611367565b60408051808201909152600080825260208201526001600160a01b038316600090815261013160205260409020805463ffffffff8416908110611c0b57611c0b613a56565b60009182526020918290206040805180820190915291015463ffffffff8116825264010000000090046001600160e01b0316918101919091529392505050565b6001600160a01b038216600090815261016b602052604081205480611c74576000915050611d06565b6000610166546101655442611c8991906138cf565b611c9391906138cf565b905081811115611ca65760009150611d02565b6000878211611cb55787611cb7565b425b905082811015611ccc57829350505050611d06565b611cd685886138b7565b611ce084876138e6565b611cea838a6138e6565b611cf491906138b7565b611cfe9190613905565b9250505b5090505b949350505050565b6040805180820182526000808252602091820152815180830190925261016954825261016a54908201819052421115611dc1576000611d4c60675490565b90508015611dad576000826020015142611d6691906138cf565b905060006101675482611d7991906138e6565b905082611d8e670de0b6b3a7640000836138e6565b611d989190613905565b84518590611da79083906138b7565b90525050505b50426020820181905281516101695561016a555b90565b6001600160a01b038316611e265760405162461bcd60e51b8152602060048201526024808201527f45524332303a20617070726f76652066726f6d20746865207a65726f206164646044820152637265737360e01b6064820152608401610a5b565b6001600160a01b038216611e875760405162461bcd60e51b815260206004820152602260248201527f45524332303a20617070726f766520746f20746865207a65726f206164647265604482015261737360f01b6064820152608401610a5b565b6001600160a01b0383811660008181526066602090815260408083209487168084529482529182902085905590518481527f8c5be1e5ebec7d5bd14f71427d1e84f3dd0314c0f7b2291e5b200ac8c7c3b925910160405180910390a3505050565b611ef28282610f19565b610a6e57611f0a816001600160a01b031660146125b7565b611f158360206125b7565b604051602001611f26929190613ae8565b60408051601f198184030181529082905262461bcd60e51b8252610a5b91600401613404565b6001600160a01b038381166000908152606660209081526040808320938616835292905220546000198114611fd85781811015611fcb5760405162461bcd60e51b815260206004820152601d60248201527f45524332303a20696e73756666696369656e7420616c6c6f77616e63650000006044820152606401610a5b565b611fd88484848403611dc4565b50505050565b6000611fe984610c2c565b90506000611ff5611d0e565b6001600160a01b038616600090815261016d60205260409020815191925090670de0b6b3a76400009061202890866138e6565b6120329190613905565b8160010160008282546120459190613927565b909155505080548490829060009061205e9084906138cf565b90915550506001600160a01b038681169086161461216157600061208186610c2c565b6001600160a01b038716600090815261016d60205260409020845191925090670de0b6b3a7640000906120b490886138e6565b6120be9190613905565b8160010160008282546120d19190613a8e565b90915550508054869082906000906120ea9084906138b7565b90915550506001600160a01b038816600090815261016b602052604090205461211581888a86611c4b565b6001600160a01b038916600090815261016b6020526040902055858714801561213d57508015155b1561215d576001600160a01b038916600090815261016b60205260408120555b5050505b6113aa868686612753565b6121768282610f19565b610a6e57600082815260fe602090815260408083206001600160a01b03851684529091529020805460ff191660011790556121ae3390565b6001600160a01b0316816001600160a01b0316837f2f8788117e7eff1d82e926ec794901d17c78024a50270940304540a733656f0d60405160405180910390a45050565b60006109ea7f8b73c3c69bb8fe3d512ecc4cf759cc79239f7b179b0ffacaa9a75d522b39400f61222160975490565b6098546040805160208101859052908101839052606081018290524660808201523060a082015260009060c0016040516020818303038152906040528051906020012090509392505050565b6122778282610f19565b15610a6e57600082815260fe602090815260408083206001600160a01b0385168085529252808320805460ff1916905551339285917ff6391f5c32d9c69d2a47ea670b442974b53935d1edc7fd64eb21e047a839171b9190a45050565b8154600090815b818110156123385760006122ef8284612927565b90508486828154811061230457612304613a56565b60009182526020909120015463ffffffff16111561232457809250612332565b61232f8160016138b7565b91505b506122db565b811561237c578461234a6001846138cf565b8154811061235a5761235a613a56565b60009182526020909120015464010000000090046001600160e01b031661237f565b60005b6001600160e01b031695945050505050565b6001600160a01b0382811660009081526101306020526040812054909116906123b984610c2c565b6001600160a01b038581166000818152610130602052604080822080546001600160a01b031916898616908117909155905194955093928616927f3134e8a2e6d97e929a7e54011ea5485d7d196dd5f0ba4d4ef95803e8e3fc257f9190a4611fd8828483612942565b600063ffffffff8211156124875760405162461bcd60e51b815260206004820152602660248201527f53616665436173743a2076616c756520646f65736e27742066697420696e203360448201526532206269747360d01b6064820152608401610a5b565b5090565b600054610100900460ff166124b25760405162461bcd60e51b8152600401610a5b90613b5d565b610a6e8282612a81565b600054610100900460ff166124e35760405162461bcd60e51b8152600401610a5b90613b5d565b61250681604051806040016040528060018152602001603160f81b815250612acf565b610be681612b10565b610a6e8282612b5e565b60006108a56125266121f2565b8360405161190160f01b6020820152602281018390526042810182905260009060620160405160208183030381529060405280519060200120905092915050565b600080600061257887878787612be9565b91509150611d0281612cd6565b6001600160a01b038116600090815260cb602052604090208054600181018255905b50919050565b610a6e8282612e91565b606060006125c68360026138e6565b6125d19060026138b7565b67ffffffffffffffff8111156125e9576125e961351f565b6040519080825280601f01601f191660200182016040528015612613576020820181803683370190505b509050600360fc1b8160008151811061262e5761262e613a56565b60200101906001600160f81b031916908160001a905350600f60fb1b8160018151811061265d5761265d613a56565b60200101906001600160f81b031916908160001a90535060006126818460026138e6565b61268c9060016138b7565b90505b6001811115612704576f181899199a1a9b1b9c1cb0b131b232b360811b85600f16601081106126c0576126c0613a56565b1a60f81b8282815181106126d6576126d6613a56565b60200101906001600160f81b031916908160001a90535060049490941c936126fd81613ba8565b905061268f565b508315610b255760405162461bcd60e51b815260206004820181905260248201527f537472696e67733a20686578206c656e67746820696e73756666696369656e746044820152606401610a5b565b6001600160a01b0383166127b75760405162461bcd60e51b815260206004820152602560248201527f45524332303a207472616e736665722066726f6d20746865207a65726f206164604482015264647265737360d81b6064820152608401610a5b565b6001600160a01b0382166128195760405162461bcd60e51b815260206004820152602360248201527f45524332303a207472616e7366657220746f20746865207a65726f206164647260448201526265737360e81b6064820152608401610a5b565b6001600160a01b038316600090815260656020526040902054818110156128915760405162461bcd60e51b815260206004820152602660248201527f45524332303a207472616e7366657220616d6f756e7420657863656564732062604482015265616c616e636560d01b6064820152608401610a5b565b6001600160a01b038085166000908152606560205260408082208585039055918516815290812080548492906128c89084906138b7565b92505081905550826001600160a01b0316846001600160a01b03167fddf252ad1be2c89b69c2b068fc378daa952ba7f163c4a11628f55a4df523b3ef8460405161291491815260200190565b60405180910390a3611fd8848484612eaa565b60006129366002848418613905565b610b25908484166138b7565b816001600160a01b0316836001600160a01b0316141580156129645750600081115b156109db576001600160a01b038316156129f3576001600160a01b03831660009081526101316020526040812081906129a090612eb585612ec1565b91509150846001600160a01b03167fdec2bacdd2f05b59de34da9b523dff8be42e5e38e818c82fdb0bae774387a72483836040516129e8929190918252602082015260400190565b60405180910390a250505b6001600160a01b038216156109db576001600160a01b0382166000908152610131602052604081208190612a2a9061303a85612ec1565b91509150836001600160a01b03167fdec2bacdd2f05b59de34da9b523dff8be42e5e38e818c82fdb0bae774387a7248383604051612a72929190918252602082015260400190565b60405180910390a25050505050565b600054610100900460ff16612aa85760405162461bcd60e51b8152600401610a5b90613b5d565b8151612abb90606890602085019061331e565b5080516109db90606990602084019061331e565b600054610100900460ff16612af65760405162461bcd60e51b8152600401610a5b90613b5d565b815160209283012081519190920120609791909155609855565b600054610100900460ff16612b375760405162461bcd60e51b8152600401610a5b90613b5d565b507f6e71edae12b1b97f4d1f60370fef10105fa2faae0126114a169c64845d6126c960cc55565b612b688282613046565b6067546001600160e01b031015612bda5760405162461bcd60e51b815260206004820152603060248201527f4552433230566f7465733a20746f74616c20737570706c79207269736b73206f60448201526f766572666c6f77696e6720766f74657360801b6064820152608401610a5b565b611fd861013261303a83612ec1565b6000807f7fffffffffffffffffffffffffffffff5d576e7357a4501ddfe92f46681b20a0831115612c205750600090506003612ccd565b8460ff16601b14158015612c3857508460ff16601c14155b15612c495750600090506004612ccd565b6040805160008082526020820180845289905260ff881692820192909252606081018690526080810185905260019060a0016020604051602081039080840390855afa158015612c9d573d6000803e3d6000fd5b5050604051601f1901519150506001600160a01b038116612cc657600060019250925050612ccd565b9150600090505b94509492505050565b6000816004811115612cea57612cea613bbf565b1415612cf35750565b6001816004811115612d0757612d07613bbf565b1415612d555760405162461bcd60e51b815260206004820152601860248201527f45434453413a20696e76616c6964207369676e617475726500000000000000006044820152606401610a5b565b6002816004811115612d6957612d69613bbf565b1415612db75760405162461bcd60e51b815260206004820152601f60248201527f45434453413a20696e76616c6964207369676e6174757265206c656e677468006044820152606401610a5b565b6003816004811115612dcb57612dcb613bbf565b1415612e245760405162461bcd60e51b815260206004820152602260248201527f45434453413a20696e76616c6964207369676e6174757265202773272076616c604482015261756560f01b6064820152608401610a5b565b6004816004811115612e3857612e38613bbf565b1415610be65760405162461bcd60e51b815260206004820152602260248201527f45434453413a20696e76616c6964207369676e6174757265202776272076616c604482015261756560f01b6064820152608401610a5b565b612e9b828261312d565b611fd8610132612eb583612ec1565b6109db838383613282565b6000610b2582846138cf565b825460009081908015612f0c5785612eda6001836138cf565b81548110612eea57612eea613a56565b60009182526020909120015464010000000090046001600160e01b0316612f0f565b60005b6001600160e01b03169250612f2883858763ffffffff16565b9150600081118015612f6657504386612f426001846138cf565b81548110612f5257612f52613a56565b60009182526020909120015463ffffffff16145b15612fc657612f74826132b5565b86612f806001846138cf565b81548110612f9057612f90613a56565b9060005260206000200160000160046101000a8154816001600160e01b0302191690836001600160e01b03160217905550613031565b856040518060400160405280612fdb43612422565b63ffffffff168152602001612fef856132b5565b6001600160e01b0390811690915282546001810184556000938452602093849020835194909301519091166401000000000263ffffffff909316929092179101555b50935093915050565b6000610b2582846138b7565b6001600160a01b03821661309c5760405162461bcd60e51b815260206004820152601f60248201527f45524332303a206d696e7420746f20746865207a65726f2061646472657373006044820152606401610a5b565b80606760008282546130ae91906138b7565b90915550506001600160a01b038216600090815260656020526040812080548392906130db9084906138b7565b90915550506040518181526001600160a01b038316906000907fddf252ad1be2c89b69c2b068fc378daa952ba7f163c4a11628f55a4df523b3ef9060200160405180910390a3610a6e60008383612eaa565b6001600160a01b03821661318d5760405162461bcd60e51b815260206004820152602160248201527f45524332303a206275726e2066726f6d20746865207a65726f206164647265736044820152607360f81b6064820152608401610a5b565b6001600160a01b038216600090815260656020526040902054818110156132015760405162461bcd60e51b815260206004820152602260248201527f45524332303a206275726e20616d6f756e7420657863656564732062616c616e604482015261636560f01b6064820152608401610a5b565b6001600160a01b03831660009081526065602052604081208383039055606780548492906132309084906138cf565b90915550506040518281526000906001600160a01b038516907fddf252ad1be2c89b69c2b068fc378daa952ba7f163c4a11628f55a4df523b3ef9060200160405180910390a36109db83600084612eaa565b6001600160a01b03838116600090815261013060205260408082205485841683529120546109db92918216911683612942565b60006001600160e01b038211156124875760405162461bcd60e51b815260206004820152602760248201527f53616665436173743a2076616c756520646f65736e27742066697420696e20326044820152663234206269747360c81b6064820152608401610a5b565b82805461332a9061386c565b90600052602060002090601f01602090048101928261334c5760008555613392565b82601f1061336557805160ff1916838001178555613392565b82800160010185558215613392579182015b82811115613392578251825591602001919060010190613377565b506124879291505b80821115612487576000815560010161339a565b6000602082840312156133c057600080fd5b81356001600160e01b031981168114610b2557600080fd5b60005b838110156133f35781810151838201526020016133db565b83811115611fd85750506000910152565b60208152600082518060208401526134238160408501602087016133d8565b601f01601f19169190910160400192915050565b6001600160a01b0381168114610be657600080fd5b6000806040838503121561345f57600080fd5b823561346a81613437565b946020939093013593505050565b60008060006060848603121561348d57600080fd5b833561349881613437565b925060208401356134a881613437565b929592945050506040919091013590565b6000602082840312156134cb57600080fd5b5035919050565b600080604083850312156134e557600080fd5b8235915060208301356134f781613437565b809150509250929050565b60006020828403121561351457600080fd5b8135610b2581613437565b634e487b7160e01b600052604160045260246000fd5b600082601f83011261354657600080fd5b813567ffffffffffffffff808211156135615761356161351f565b604051601f8301601f19908116603f011681019082821181831017156135895761358961351f565b816040528381528660208588010111156135a257600080fd5b836020870160208301376000602085830101528094505050505092915050565b600080600080600080600060e0888a0312156135dd57600080fd5b873567ffffffffffffffff808211156135f557600080fd5b6136018b838c01613535565b985060208a013591508082111561361757600080fd5b506136248a828b01613535565b965050604088013561363581613437565b969995985095966060810135965060808101359560a0820135955060c0909101359350915050565b803560ff8116811461366e57600080fd5b919050565b60008060008060008060c0878903121561368c57600080fd5b863561369781613437565b955060208701359450604087013593506136b36060880161365d565b92506080870135915060a087013590509295509295509295565b600080600080600080600060e0888a0312156136e857600080fd5b87356136f381613437565b9650602088013561370381613437565b9550604088013594506060880135935061371f6080890161365d565b925060a0880135915060c0880135905092959891949750929550565b60008060008060008060008060006101208a8c03121561375a57600080fd5b893561376581613437565b985060208a013561377581613437565b975060408a0135965060608a0135955061379160808b0161365d565b945060a08a0135935060c08a0135925060e08a01356137af81613437565b809250506101008a013590509295985092959850929598565b600080604083850312156137db57600080fd5b82356137e681613437565b915060208301356134f781613437565b6000806040838503121561380957600080fd5b823561381481613437565b9150602083013563ffffffff811681146134f757600080fd5b6000806000806080858703121561384357600080fd5b8435935060208501359250604085013561385c81613437565b9396929550929360600135925050565b600181811c9082168061388057607f821691505b602082108114156125a757634e487b7160e01b600052602260045260246000fd5b634e487b7160e01b600052601160045260246000fd5b600082198211156138ca576138ca6138a1565b500190565b6000828210156138e1576138e16138a1565b500390565b6000816000190483118215151615613900576139006138a1565b500290565b60008261392257634e487b7160e01b600052601260045260246000fd5b500490565b60008083128015600160ff1b850184121615613945576139456138a1565b6001600160ff1b0384018313811615613960576139606138a1565b50500390565b600181815b808511156139a1578160001904821115613987576139876138a1565b8085161561399457918102915b93841c939080029061396b565b509250929050565b6000826139b8575060016108a5565b816139c5575060006108a5565b81600181146139db57600281146139e557613a01565b60019150506108a5565b60ff8411156139f6576139f66138a1565b50506001821b6108a5565b5060208310610133831016604e8410600b8410161715613a24575081810a6108a5565b613a2e8383613966565b8060001904821115613a4257613a426138a1565b029392505050565b6000610b2583836139a9565b634e487b7160e01b600052603260045260246000fd5b600060208284031215613a7e57600080fd5b81518015158114610b2557600080fd5b600080821280156001600160ff1b0384900385131615613ab057613ab06138a1565b600160ff1b8390038412811615613ac957613ac96138a1565b50500190565b600060208284031215613ae157600080fd5b5051919050565b7f416363657373436f6e74726f6c3a206163636f756e7420000000000000000000815260008351613b208160178501602088016133d8565b7001034b99036b4b9b9b4b733903937b6329607d1b6017918401918201528351613b518160288401602088016133d8565b01602801949350505050565b6020808252602b908201527f496e697469616c697a61626c653a20636f6e7472616374206973206e6f74206960408201526a6e697469616c697a696e6760a81b606082015260800190565b600081613bb757613bb76138a1565b506000190190565b634e487b7160e01b600052602160045260246000fdfe241ecf16d79d0f8dbfb92cbc07fe17840425976cf0667f022fe9877caa831b08a26469706673582212201775c089fd7f01bd43033b3e8fb27c322d5f4625f19ceb6f46aad8902836e06564736f6c634300080a0033",
  "linkReferences": {},
  "deployedLinkReferences": {}
}