{
  "_format": "hh-sol-artifact-1",
  "contractName": "VLFI",
  "sourceName": "contracts/VLFI.sol",
  "abi": [
    {
      "anonymous": false,
      "inputs": [
        {
          "indexed": true,
          "internalType": "address",
          "name": "owner",
          "type": "address"
        },
        {
          "indexed": true,
          "internalType": "address",
          "name": "spender",
          "type": "address"
        },
        {
          "indexed": false,
          "internalType": "uint256",
          "name": "value",
          "type": "uint256"
        }
      ],
      "name": "Approval",
      "type": "event"
    },
    {
      "anonymous": false,
      "inputs": [
        {
          "indexed": true,
          "internalType": "address",
          "name": "user",
          "type": "address"
        }
      ],
      "name": "CooldownActivated",
      "type": "event"
    },
    {
      "anonymous": false,
      "inputs": [
        {
          "indexed": true,
          "internalType": "address",
          "name": "delegator",
          "type": "address"
        },
        {
          "indexed": true,
          "internalType": "address",
          "name": "fromDelegate",
          "type": "address"
        },
        {
          "indexed": true,
          "internalType": "address",
          "name": "toDelegate",
          "type": "address"
        }
      ],
      "name": "DelegateChanged",
      "type": "event"
    },
    {
      "anonymous": false,
      "inputs": [
        {
          "indexed": true,
          "internalType": "address",
          "name": "delegate",
          "type": "address"
        },
        {
          "indexed": false,
          "internalType": "uint256",
          "name": "previousBalance",
          "type": "uint256"
        },
        {
          "indexed": false,
          "internalType": "uint256",
          "name": "newBalance",
          "type": "uint256"
        }
      ],
      "name": "DelegateVotesChanged",
      "type": "event"
    },
    {
      "anonymous": false,
      "inputs": [
        {
          "indexed": true,
          "internalType": "address",
          "name": "from",
          "type": "address"
        },
        {
          "indexed": true,
          "internalType": "address",
          "name": "to",
          "type": "address"
        },
        {
          "indexed": false,
          "internalType": "uint256",
          "name": "amount",
          "type": "uint256"
        }
      ],
      "name": "RewardsClaimed",
      "type": "event"
    },
    {
      "anonymous": false,
      "inputs": [
        {
          "indexed": true,
          "internalType": "bytes32",
          "name": "role",
          "type": "bytes32"
        },
        {
          "indexed": true,
          "internalType": "bytes32",
          "name": "previousAdminRole",
          "type": "bytes32"
        },
        {
          "indexed": true,
          "internalType": "bytes32",
          "name": "newAdminRole",
          "type": "bytes32"
        }
      ],
      "name": "RoleAdminChanged",
      "type": "event"
    },
    {
      "anonymous": false,
      "inputs": [
        {
          "indexed": true,
          "internalType": "bytes32",
          "name": "role",
          "type": "bytes32"
        },
        {
          "indexed": true,
          "internalType": "address",
          "name": "account",
          "type": "address"
        },
        {
          "indexed": true,
          "internalType": "address",
          "name": "sender",
          "type": "address"
        }
      ],
      "name": "RoleGranted",
      "type": "event"
    },
    {
      "anonymous": false,
      "inputs": [
        {
          "indexed": true,
          "internalType": "bytes32",
          "name": "role",
          "type": "bytes32"
        },
        {
          "indexed": true,
          "internalType": "address",
          "name": "account",
          "type": "address"
        },
        {
          "indexed": true,
          "internalType": "address",
          "name": "sender",
          "type": "address"
        }
      ],
      "name": "RoleRevoked",
      "type": "event"
    },
    {
      "anonymous": false,
      "inputs": [
        {
          "indexed": true,
          "internalType": "address",
          "name": "from",
          "type": "address"
        },
        {
          "indexed": true,
          "internalType": "address",
          "name": "onBehalfOf",
          "type": "address"
        },
        {
          "indexed": false,
          "internalType": "uint256",
          "name": "amount",
          "type": "uint256"
        }
      ],
      "name": "Staked",
      "type": "event"
    },
    {
      "anonymous": false,
      "inputs": [
        {
          "indexed": true,
          "internalType": "address",
          "name": "from",
          "type": "address"
        },
        {
          "indexed": true,
          "internalType": "address",
          "name": "to",
          "type": "address"
        },
        {
          "indexed": false,
          "internalType": "uint256",
          "name": "value",
          "type": "uint256"
        }
      ],
      "name": "Transfer",
      "type": "event"
    },
    {
      "anonymous": false,
      "inputs": [
        {
          "indexed": true,
          "internalType": "address",
          "name": "from",
          "type": "address"
        },
        {
          "indexed": true,
          "internalType": "address",
          "name": "to",
          "type": "address"
        },
        {
          "indexed": false,
          "internalType": "uint256",
          "name": "amount",
          "type": "uint256"
        }
      ],
      "name": "UnStaked",
      "type": "event"
    },
    {
      "inputs": [],
      "name": "DEFAULT_ADMIN_ROLE",
      "outputs": [
        {
          "internalType": "bytes32",
          "name": "",
          "type": "bytes32"
        }
      ],
      "stateMutability": "view",
      "type": "function"
    },
    {
      "inputs": [],
      "name": "DOMAIN_SEPARATOR",
      "outputs": [
        {
          "internalType": "bytes32",
          "name": "",
          "type": "bytes32"
        }
      ],
      "stateMutability": "view",
      "type": "function"
    },
    {
      "inputs": [],
      "name": "MANAGER_ROLE",
      "outputs": [
        {
          "internalType": "bytes32",
          "name": "",
          "type": "bytes32"
        }
      ],
      "stateMutability": "view",
      "type": "function"
    },
    {
      "inputs": [],
      "name": "STAKED_TOKEN",
      "outputs": [
        {
          "internalType": "contract ILFIToken",
          "name": "",
          "type": "address"
        }
      ],
      "stateMutability": "view",
      "type": "function"
    },
    {
      "inputs": [],
      "name": "activateCooldown",
      "outputs": [],
      "stateMutability": "nonpayable",
      "type": "function"
    },
    {
      "inputs": [
        {
          "internalType": "address",
          "name": "owner",
          "type": "address"
        },
        {
          "internalType": "address",
          "name": "spender",
          "type": "address"
        }
      ],
      "name": "allowance",
      "outputs": [
        {
          "internalType": "uint256",
          "name": "",
          "type": "uint256"
        }
      ],
      "stateMutability": "view",
      "type": "function"
    },
    {
      "inputs": [
        {
          "internalType": "address",
          "name": "spender",
          "type": "address"
        },
        {
          "internalType": "uint256",
          "name": "amount",
          "type": "uint256"
        }
      ],
      "name": "approve",
      "outputs": [
        {
          "internalType": "bool",
          "name": "",
          "type": "bool"
        }
      ],
      "stateMutability": "nonpayable",
      "type": "function"
    },
    {
      "inputs": [
        {
          "internalType": "address",
          "name": "account",
          "type": "address"
        }
      ],
      "name": "balanceOf",
      "outputs": [
        {
          "internalType": "uint256",
          "name": "",
          "type": "uint256"
        }
      ],
      "stateMutability": "view",
      "type": "function"
    },
    {
      "inputs": [
        {
          "internalType": "address",
          "name": "account",
          "type": "address"
        },
        {
          "internalType": "uint32",
          "name": "pos",
          "type": "uint32"
        }
      ],
      "name": "checkpoints",
      "outputs": [
        {
          "components": [
            {
              "internalType": "uint32",
              "name": "fromBlock",
              "type": "uint32"
            },
            {
              "internalType": "uint224",
              "name": "votes",
              "type": "uint224"
            }
          ],
          "internalType": "struct ERC20VotesUpgradeable.Checkpoint",
          "name": "",
          "type": "tuple"
        }
      ],
      "stateMutability": "view",
      "type": "function"
    },
    {
      "inputs": [
        {
          "internalType": "address",
          "name": "to",
          "type": "address"
        }
      ],
      "name": "claimRewards",
      "outputs": [],
      "stateMutability": "nonpayable",
      "type": "function"
    },
    {
      "inputs": [],
      "name": "createFarm",
      "outputs": [],
      "stateMutability": "nonpayable",
      "type": "function"
    },
    {
      "inputs": [],
      "name": "decimals",
      "outputs": [
        {
          "internalType": "uint8",
          "name": "",
          "type": "uint8"
        }
      ],
      "stateMutability": "view",
      "type": "function"
    },
    {
      "inputs": [
        {
          "internalType": "address",
          "name": "spender",
          "type": "address"
        },
        {
          "internalType": "uint256",
          "name": "subtractedValue",
          "type": "uint256"
        }
      ],
      "name": "decreaseAllowance",
      "outputs": [
        {
          "internalType": "bool",
          "name": "",
          "type": "bool"
        }
      ],
      "stateMutability": "nonpayable",
      "type": "function"
    },
    {
      "inputs": [
        {
          "internalType": "address",
          "name": "delegatee",
          "type": "address"
        }
      ],
      "name": "delegate",
      "outputs": [],
      "stateMutability": "nonpayable",
      "type": "function"
    },
    {
      "inputs": [
        {
          "internalType": "address",
          "name": "delegatee",
          "type": "address"
        },
        {
          "internalType": "uint256",
          "name": "nonce",
          "type": "uint256"
        },
        {
          "internalType": "uint256",
          "name": "expiry",
          "type": "uint256"
        },
        {
          "internalType": "uint8",
          "name": "v",
          "type": "uint8"
        },
        {
          "internalType": "bytes32",
          "name": "r",
          "type": "bytes32"
        },
        {
          "internalType": "bytes32",
          "name": "s",
          "type": "bytes32"
        }
      ],
      "name": "delegateBySig",
      "outputs": [],
      "stateMutability": "nonpayable",
      "type": "function"
    },
    {
      "inputs": [
        {
          "internalType": "address",
          "name": "account",
          "type": "address"
        }
      ],
      "name": "delegates",
      "outputs": [
        {
          "internalType": "address",
          "name": "",
          "type": "address"
        }
      ],
      "stateMutability": "view",
      "type": "function"
    },
    {
      "inputs": [],
      "name": "getAccRewardPerShare",
      "outputs": [
        {
          "internalType": "uint256",
          "name": "",
          "type": "uint256"
        }
      ],
      "stateMutability": "view",
      "type": "function"
    },
    {
      "inputs": [
        {
          "internalType": "address",
          "name": "staker",
          "type": "address"
        }
      ],
      "name": "getCooldown",
      "outputs": [
        {
          "internalType": "uint256",
          "name": "",
          "type": "uint256"
        }
      ],
      "stateMutability": "view",
      "type": "function"
    },
    {
      "inputs": [],
      "name": "getCooldownSeconds",
      "outputs": [
        {
          "internalType": "uint256",
          "name": "",
          "type": "uint256"
        }
      ],
      "stateMutability": "view",
      "type": "function"
    },
    {
      "inputs": [],
      "name": "getLastRewardTime",
      "outputs": [
        {
          "internalType": "uint256",
          "name": "",
          "type": "uint256"
        }
      ],
      "stateMutability": "view",
      "type": "function"
    },
    {
      "inputs": [],
      "name": "getLiquidityStatus",
      "outputs": [
        {
          "internalType": "uint256",
          "name": "",
          "type": "uint256"
        }
      ],
      "stateMutability": "view",
      "type": "function"
    },
    {
      "inputs": [
        {
          "internalType": "uint256",
          "name": "userCooldownTimestamp",
          "type": "uint256"
        },
        {
          "internalType": "uint256",
          "name": "amountToReceive",
          "type": "uint256"
        },
        {
          "internalType": "address",
          "name": "toAddress",
          "type": "address"
        },
        {
          "internalType": "uint256",
          "name": "toBalance",
          "type": "uint256"
        }
      ],
      "name": "getNextCooldownTimestamp",
      "outputs": [
        {
          "internalType": "uint256",
          "name": "",
          "type": "uint256"
        }
      ],
      "stateMutability": "view",
      "type": "function"
    },
    {
      "inputs": [
        {
          "internalType": "uint256",
          "name": "blockNumber",
          "type": "uint256"
        }
      ],
      "name": "getPastTotalSupply",
      "outputs": [
        {
          "internalType": "uint256",
          "name": "",
          "type": "uint256"
        }
      ],
      "stateMutability": "view",
      "type": "function"
    },
    {
      "inputs": [
        {
          "internalType": "address",
          "name": "account",
          "type": "address"
        },
        {
          "internalType": "uint256",
          "name": "blockNumber",
          "type": "uint256"
        }
      ],
      "name": "getPastVotes",
      "outputs": [
        {
          "internalType": "uint256",
          "name": "",
          "type": "uint256"
        }
      ],
      "stateMutability": "view",
      "type": "function"
    },
    {
      "inputs": [],
      "name": "getRewardPerSecond",
      "outputs": [
        {
          "internalType": "uint256",
          "name": "",
          "type": "uint256"
        }
      ],
      "stateMutability": "view",
      "type": "function"
    },
    {
      "inputs": [
        {
          "internalType": "address",
          "name": "benefitor",
          "type": "address"
        }
      ],
      "name": "getRewards",
      "outputs": [
        {
          "internalType": "uint256",
          "name": "pendingRewards",
          "type": "uint256"
        }
      ],
      "stateMutability": "view",
      "type": "function"
    },
    {
      "inputs": [
        {
          "internalType": "bytes32",
          "name": "role",
          "type": "bytes32"
        }
      ],
      "name": "getRoleAdmin",
      "outputs": [
        {
          "internalType": "bytes32",
          "name": "",
          "type": "bytes32"
        }
      ],
      "stateMutability": "view",
      "type": "function"
    },
    {
      "inputs": [],
      "name": "getUnstakeWindowTime",
      "outputs": [
        {
          "internalType": "uint256",
          "name": "",
          "type": "uint256"
        }
      ],
      "stateMutability": "view",
      "type": "function"
    },
    {
      "inputs": [
        {
          "internalType": "address",
          "name": "user",
          "type": "address"
        }
      ],
      "name": "getUserLFIDeposits",
      "outputs": [
        {
          "internalType": "uint256",
          "name": "",
          "type": "uint256"
        }
      ],
      "stateMutability": "view",
      "type": "function"
    },
    {
      "inputs": [
        {
          "internalType": "address",
          "name": "benefitor",
          "type": "address"
        }
      ],
      "name": "getUserRewardDebt",
      "outputs": [
        {
          "internalType": "int256",
          "name": "",
          "type": "int256"
        }
      ],
      "stateMutability": "view",
      "type": "function"
    },
    {
      "inputs": [
        {
          "internalType": "address",
          "name": "benefitor",
          "type": "address"
        }
      ],
      "name": "getUserVLFIAmount",
      "outputs": [
        {
          "internalType": "uint256",
          "name": "",
          "type": "uint256"
        }
      ],
      "stateMutability": "view",
      "type": "function"
    },
    {
      "inputs": [
        {
          "internalType": "address",
          "name": "account",
          "type": "address"
        }
      ],
      "name": "getVotes",
      "outputs": [
        {
          "internalType": "uint256",
          "name": "",
          "type": "uint256"
        }
      ],
      "stateMutability": "view",
      "type": "function"
    },
    {
      "inputs": [
        {
          "internalType": "bytes32",
          "name": "role",
          "type": "bytes32"
        },
        {
          "internalType": "address",
          "name": "account",
          "type": "address"
        }
      ],
      "name": "grantRole",
      "outputs": [],
      "stateMutability": "nonpayable",
      "type": "function"
    },
    {
      "inputs": [
        {
          "internalType": "bytes32",
          "name": "role",
          "type": "bytes32"
        },
        {
          "internalType": "address",
          "name": "account",
          "type": "address"
        }
      ],
      "name": "hasRole",
      "outputs": [
        {
          "internalType": "bool",
          "name": "",
          "type": "bool"
        }
      ],
      "stateMutability": "view",
      "type": "function"
    },
    {
      "inputs": [
        {
          "internalType": "address",
          "name": "spender",
          "type": "address"
        },
        {
          "internalType": "uint256",
          "name": "addedValue",
          "type": "uint256"
        }
      ],
      "name": "increaseAllowance",
      "outputs": [
        {
          "internalType": "bool",
          "name": "",
          "type": "bool"
        }
      ],
      "stateMutability": "nonpayable",
      "type": "function"
    },
    {
      "inputs": [
        {
          "internalType": "string",
          "name": "name",
          "type": "string"
        },
        {
          "internalType": "string",
          "name": "symbol",
          "type": "string"
        },
        {
          "internalType": "contract ILFIToken",
          "name": "stakedToken",
          "type": "address"
        },
        {
          "internalType": "uint256",
          "name": "cooldownSeconds",
          "type": "uint256"
        },
        {
          "internalType": "uint256",
          "name": "unstakeWindow",
          "type": "uint256"
        },
        {
          "internalType": "uint256",
          "name": "rewardsPerSecond",
          "type": "uint256"
        }
      ],
      "name": "initialize",
      "outputs": [],
      "stateMutability": "nonpayable",
      "type": "function"
    },
    {
      "inputs": [],
      "name": "name",
      "outputs": [
        {
          "internalType": "string",
          "name": "",
          "type": "string"
        }
      ],
      "stateMutability": "view",
      "type": "function"
    },
    {
      "inputs": [
        {
          "internalType": "address",
          "name": "owner",
          "type": "address"
        }
      ],
      "name": "nonces",
      "outputs": [
        {
          "internalType": "uint256",
          "name": "",
          "type": "uint256"
        }
      ],
      "stateMutability": "view",
      "type": "function"
    },
    {
      "inputs": [
        {
          "internalType": "address",
          "name": "account",
          "type": "address"
        }
      ],
      "name": "numCheckpoints",
      "outputs": [
        {
          "internalType": "uint32",
          "name": "",
          "type": "uint32"
        }
      ],
      "stateMutability": "view",
      "type": "function"
    },
    {
      "inputs": [
        {
          "internalType": "address",
          "name": "owner",
          "type": "address"
        },
        {
          "internalType": "address",
          "name": "spender",
          "type": "address"
        },
        {
          "internalType": "uint256",
          "name": "value",
          "type": "uint256"
        },
        {
          "internalType": "uint256",
          "name": "deadline",
          "type": "uint256"
        },
        {
          "internalType": "uint8",
          "name": "v",
          "type": "uint8"
        },
        {
          "internalType": "bytes32",
          "name": "r",
          "type": "bytes32"
        },
        {
          "internalType": "bytes32",
          "name": "s",
          "type": "bytes32"
        }
      ],
      "name": "permit",
      "outputs": [],
      "stateMutability": "nonpayable",
      "type": "function"
    },
    {
      "inputs": [
        {
          "internalType": "address",
          "name": "owner",
          "type": "address"
        },
        {
          "internalType": "address",
          "name": "spender",
          "type": "address"
        },
        {
          "internalType": "uint256",
          "name": "deadline",
          "type": "uint256"
        },
        {
          "internalType": "uint8",
          "name": "v",
          "type": "uint8"
        },
        {
          "internalType": "bytes32",
          "name": "r",
          "type": "bytes32"
        },
        {
          "internalType": "bytes32",
          "name": "s",
          "type": "bytes32"
        },
        {
          "internalType": "address",
          "name": "onBehalfOf",
          "type": "address"
        },
        {
          "internalType": "uint256",
          "name": "LFIamount",
          "type": "uint256"
        }
      ],
      "name": "permitAndStake",
      "outputs": [],
      "stateMutability": "nonpayable",
      "type": "function"
    },
    {
      "inputs": [
        {
          "internalType": "bytes32",
          "name": "role",
          "type": "bytes32"
        },
        {
          "internalType": "address",
          "name": "account",
          "type": "address"
        }
      ],
      "name": "renounceRole",
      "outputs": [],
      "stateMutability": "nonpayable",
      "type": "function"
    },
    {
      "inputs": [
        {
          "internalType": "bytes32",
          "name": "role",
          "type": "bytes32"
        },
        {
          "internalType": "address",
          "name": "account",
          "type": "address"
        }
      ],
      "name": "revokeRole",
      "outputs": [],
      "stateMutability": "nonpayable",
      "type": "function"
    },
    {
      "inputs": [
        {
          "internalType": "uint256",
          "name": "coolDownSeconds",
          "type": "uint256"
        }
      ],
      "name": "setCooldownSeconds",
      "outputs": [],
      "stateMutability": "nonpayable",
      "type": "function"
    },
    {
      "inputs": [
        {
          "internalType": "uint256",
          "name": "_rewardPerSecond",
          "type": "uint256"
        }
      ],
      "name": "setRewardPerSecond",
      "outputs": [],
      "stateMutability": "nonpayable",
      "type": "function"
    },
    {
      "inputs": [
        {
          "internalType": "uint256",
          "name": "unstakeWindow",
          "type": "uint256"
        }
      ],
      "name": "setUnstakeWindowTime",
      "outputs": [],
      "stateMutability": "nonpayable",
      "type": "function"
    },
    {
      "inputs": [
        {
          "internalType": "address",
          "name": "onBehalfOf",
          "type": "address"
        },
        {
          "internalType": "uint256",
          "name": "amount",
          "type": "uint256"
        }
      ],
      "name": "stake",
      "outputs": [],
      "stateMutability": "nonpayable",
      "type": "function"
    },
    {
      "inputs": [
        {
          "internalType": "bytes4",
          "name": "interfaceId",
          "type": "bytes4"
        }
      ],
      "name": "supportsInterface",
      "outputs": [
        {
          "internalType": "bool",
          "name": "",
          "type": "bool"
        }
      ],
      "stateMutability": "view",
      "type": "function"
    },
    {
      "inputs": [],
      "name": "symbol",
      "outputs": [
        {
          "internalType": "string",
          "name": "",
          "type": "string"
        }
      ],
      "stateMutability": "view",
      "type": "function"
    },
    {
      "inputs": [],
      "name": "totalSupply",
      "outputs": [
        {
          "internalType": "uint256",
          "name": "",
          "type": "uint256"
        }
      ],
      "stateMutability": "view",
      "type": "function"
    },
    {
      "inputs": [
        {
          "internalType": "address",
          "name": "to",
          "type": "address"
        },
        {
          "internalType": "uint256",
          "name": "amount",
          "type": "uint256"
        }
      ],
      "name": "transfer",
      "outputs": [
        {
          "internalType": "bool",
          "name": "",
          "type": "bool"
        }
      ],
      "stateMutability": "nonpayable",
      "type": "function"
    },
    {
      "inputs": [
        {
          "internalType": "address",
          "name": "from",
          "type": "address"
        },
        {
          "internalType": "address",
          "name": "to",
          "type": "address"
        },
        {
          "internalType": "uint256",
          "name": "amount",
          "type": "uint256"
        }
      ],
      "name": "transferFrom",
      "outputs": [
        {
          "internalType": "bool",
          "name": "",
          "type": "bool"
        }
      ],
      "stateMutability": "nonpayable",
      "type": "function"
    },
    {
      "inputs": [
        {
          "internalType": "address",
          "name": "to",
          "type": "address"
        },
        {
          "internalType": "uint256",
          "name": "amount",
          "type": "uint256"
        }
      ],
      "name": "unStake",
      "outputs": [],
      "stateMutability": "nonpayable",
      "type": "function"
    },
    {
      "inputs": [],
      "name": "updateFarm",
      "outputs": [
        {
          "components": [
            {
              "internalType": "uint256",
              "name": "accRewardsPerShare",
              "type": "uint256"
            },
            {
              "internalType": "uint256",
              "name": "lastRewardTime",
              "type": "uint256"
            }
          ],
          "internalType": "struct VLFI.FarmInfo",
          "name": "farm",
          "type": "tuple"
        }
      ],
      "stateMutability": "nonpayable",
      "type": "function"
    }
  ],
  "bytecode": "0x608060405234801561001057600080fd5b50613a3a806100206000396000f3fe608060405234801561001057600080fd5b50600436106103425760003560e01c8063733d07be116101b8578063ad88918f11610104578063da5b4ee7116100a2578063ef5cfb8c1161007c578063ef5cfb8c1461077d578063f1127ed814610790578063f1cc432a146107cd578063f54ca63c146107e057600080fd5b8063da5b4ee714610726578063dd62ed3e1461072f578063ec87621c1461076857600080fd5b8063c61fbcc5116100de578063c61fbcc5146106c0578063d505accf146106ed578063d547741f14610700578063d93938141461071357600080fd5b8063ad88918f14610687578063adc9772e1461069a578063c3cda520146106ad57600080fd5b806395d89b41116101715780639ab24eb01161014b5780639ab24eb014610646578063a217fddf14610659578063a457c2d714610661578063a9059cbb1461067457600080fd5b806395d89b411461060157806398094be0146106095780639a00a6a31461061c57600080fd5b8063733d07be1461057857806379ee54f7146105a25780637b5b1157146105b55780637ecebe00146105c85780638e539e8c146105db57806391d14854146105ee57600080fd5b806339509351116102925780635c19a95c1161023057806366da58151161020a57806366da5815146105215780636c07d9fe146105345780636fcfff451461053d57806370a082311461056557600080fd5b80635c19a95c146104f25780635c57784514610505578063616e0bf91461051857600080fd5b80633c0717fd1161026c5780633c0717fd146104ab5780633e340dae146104b45780634853b3b2146104bd578063587cde1e146104c557600080fd5b8063395093511461045b57806339b84ecf1461046e5780633a46b1a81461049857600080fd5b806323b872dd116102ff578063312f6b83116102d9578063312f6b8314610405578063313ce567146104315780633644e5151461044057806336568abe1461044857600080fd5b806323b872dd146103bc578063248a9ca3146103cf5780632f2ff15d146103f257600080fd5b806301ffc9a71461034757806306fdde031461036f578063095ea7b31461038457806318160ddd146103975780631d5ec3cb146103a95780631f477ea9146103b3575b600080fd5b61035a6103553660046131e9565b610803565b60405190151581526020015b60405180910390f35b61037761083a565b604051610366919061323f565b61035a610392366004613287565b6108cc565b6067545b604051908152602001610366565b6103b16108e4565b005b6101665461039b565b61035a6103ca3660046132b3565b610920565b61039b6103dd3660046132f4565b600090815260fe602052604090206001015490565b6103b161040036600461330d565b610944565b61016254610419906001600160a01b031681565b6040516001600160a01b039091168152602001610366565b60405160128152602001610366565b61039b61096f565b6103b161045636600461330d565b61097e565b61035a610469366004613287565b610a01565b61039b61047c36600461333d565b6001600160a01b0316600090815261016a602052604090205490565b61039b6104a6366004613287565b610a40565b6101635461039b565b6101695461039b565b6103b1610abb565b6104196104d336600461333d565b6001600160a01b03908116600090815261013060205260409020541690565b6103b161050036600461333d565b610b4b565b6103b1610513366004613370565b610b58565b6101655461039b565b6103b161052f3660046132f4565b610bf9565b6101685461039b565b61055061054b36600461333d565b610c19565b60405163ffffffff9091168152602001610366565b61039b61057336600461333d565b610c3c565b61039b61058636600461333d565b6001600160a01b0316600090815261016c602052604090205490565b61039b6105b036600461333d565b610c57565b6103b16105c33660046132f4565b610d3d565b61039b6105d636600461333d565b610d5d565b61039b6105e93660046132f4565b610d7b565b61035a6105fc36600461330d565b610dd8565b610377610e03565b6103b1610617366004613496565b610e12565b61039b61062a36600461333d565b6001600160a01b0316600090815261016b602052604090205490565b61039b61065436600461333d565b610f5c565b61039b600081565b61035a61066f366004613287565b610fe5565b61035a610682366004613287565b611077565b6103b16106953660046132f4565b611085565b6103b16106a8366004613287565b6110a5565b6103b16106bb366004613528565b6112f2565b61039b6106ce36600461333d565b6001600160a01b0316600090815261016c602052604090206001015490565b6103b16106fb366004613582565b61141f565b6103b161070e36600461330d565b611565565b6103b1610721366004613287565b61158b565b6101675461039b565b61039b61073d3660046135f0565b6001600160a01b03918216600090815260666020908152604080832093909416825291909152205490565b61039b6000805160206139e583398151915281565b6103b161078b36600461333d565b6118e3565b6107a361079e36600461361e565b611a01565b60408051825163ffffffff1681526020928301516001600160e01b03169281019290925201610366565b61039b6107db366004613655565b611a86565b6107e8611b49565b60408051825181526020928301519281019290925201610366565b60006001600160e01b03198216637965db0b60e01b148061083457506301ffc9a760e01b6001600160e01b03198316145b92915050565b60606068805461084990613694565b80601f016020809104026020016040519081016040528092919081815260200182805461087590613694565b80156108c25780601f10610897576101008083540402835291602001916108c2565b820191906000526020600020905b8154815290600101906020018083116108a557829003601f168201915b5050505050905090565b6000336108da818585611bff565b5060019392505050565b6000805160206139e58339815191526108fd8133611d23565b506040805180820190915260008082524260209092018290526101685561016955565b60003361092e858285611d87565b610939858585611e19565b506001949350505050565b600082815260fe60205260409020600101546109608133611d23565b61096a8383611fa7565b505050565b600061097961202d565b905090565b6001600160a01b03811633146109f35760405162461bcd60e51b815260206004820152602f60248201527f416363657373436f6e74726f6c3a2063616e206f6e6c792072656e6f756e636560448201526e103937b632b9903337b91039b2b63360891b60648201526084015b60405180910390fd5b6109fd82826120a8565b5050565b3360008181526066602090815260408083206001600160a01b03871684529091528120549091906108da9082908690610a3b9087906136df565b611bff565b6000438210610a915760405162461bcd60e51b815260206004820152601f60248201527f4552433230566f7465733a20626c6f636b206e6f7420796574206d696e65640060448201526064016109ea565b6001600160a01b038316600090815261013160205260409020610ab4908361210f565b9392505050565b610ac433610c3c565b610b105760405162461bcd60e51b815260206004820181905260248201527f564c46493a494e56414c49445f42414c414e43455f4f4e5f434f4f4c444f574e60448201526064016109ea565b33600081815261016a6020526040808220429055517f06458eacc93d062b1d92c6575f39b0c1d64541d6881846fecef52a42c7c800089190a2565b610b5533826121cc565b50565b6101625460405163d505accf60e01b81526001600160a01b038a811660048301528981166024830152604482018490526064820189905260ff8816608483015260a4820187905260c482018690529091169063d505accf9060e401600060405180830381600087803b158015610bcd57600080fd5b505af1158015610be1573d6000803e3d6000fd5b50505050610bef82826110a5565b5050505050505050565b6000805160206139e5833981519152610c128133611d23565b5061016755565b6001600160a01b038116600090815261013160205260408120546108349061225d565b6001600160a01b031660009081526065602052604090205490565b604080518082018252610168548152610169546020808301919091526001600160a01b038416600090815261016c909152918220815183610c9760675490565b9050836020015142118015610cab57508015155b15610d03576000846020015142610cc291906136f7565b905060006101675482610cd5919061370e565b905082610cea670de0b6b3a76400008361370e565b610cf4919061372d565b610cfe90856136df565b935050505b60018301548354670de0b6b3a764000090610d1f90859061370e565b610d29919061372d565b610d33919061374f565b9695505050505050565b6000805160206139e5833981519152610d568133611d23565b5061016555565b6001600160a01b038116600090815260cb6020526040812054610834565b6000438210610dcc5760405162461bcd60e51b815260206004820152601f60248201527f4552433230566f7465733a20626c6f636b206e6f7420796574206d696e65640060448201526064016109ea565b6108346101328361210f565b600091825260fe602090815260408084206001600160a01b0393909316845291905290205460ff1690565b60606069805461084990613694565b600054610100900460ff16610e2d5760005460ff1615610e31565b303b155b610e945760405162461bcd60e51b815260206004820152602e60248201527f496e697469616c697a61626c653a20636f6e747261637420697320616c72656160448201526d191e481a5b9a5d1a585b1a5e995960921b60648201526084016109ea565b600054610100900460ff16158015610eb6576000805461ffff19166101011790555b610ec087876122c6565b610ec9876122f7565b61016280546001600160a01b0319166001600160a01b038716179055610165849055610166839055610efd6012600a613872565b610f09906103e861370e565b61016455610f18600033611fa7565b610f306000805160206139e583398151915233611fa7565b610f3982610bf9565b610f416108e4565b8015610f53576000805461ff00191690555b50505050505050565b6001600160a01b038116600090815261013160205260408120548015610fd2576001600160a01b038316600090815261013160205260409020610fa06001836136f7565b81548110610fb057610fb061387e565b60009182526020909120015464010000000090046001600160e01b0316610fd5565b60005b6001600160e01b03169392505050565b3360008181526066602090815260408083206001600160a01b03871684529091528120549091908381101561106a5760405162461bcd60e51b815260206004820152602560248201527f45524332303a2064656372656173656420616c6c6f77616e63652062656c6f77604482015264207a65726f60d81b60648201526084016109ea565b6109398286868403611bff565b6000336108da818585611e19565b6000805160206139e583398151915261109e8133611d23565b5061016655565b806110e85760405162461bcd60e51b8152602060048201526013602482015272159311924e9253959053125117d05353d55395606a1b60448201526064016109ea565b60006110f383610c3c565b905060006110ff611b49565b33600090815261016c60205260409020610164549192509061112985670de0b6b3a764000061370e565b611133919061372d565b81600001600082825461114691906136df565b9091555050815161016454670de0b6b3a76400009190611166878461370e565b611170919061372d565b61117a919061370e565b611184919061372d565b8160010160008282546111979190613894565b909155505033600090815261016b6020526040812080548692906111bc9084906136df565b925050819055508361016360008282546111d691906136df565b909155506111e990506000858786611a86565b6001600160a01b038616600090815261016a60205260409020556101645461122e90869061121f87670de0b6b3a764000061370e565b611229919061372d565b61234a565b610162546040516323b872dd60e01b8152336004820152306024820152604481018690526001600160a01b03909116906323b872dd906064016020604051808303816000875af1158015611286573d6000803e3d6000fd5b505050506040513d601f19601f820116820180604052508101906112aa91906138d5565b506040518481526001600160a01b0386169033907f5dac0c1b1112564a045ba943c9d50270893e8e826c49be8e7073adc713ab7bd79060200160405180910390a35050505050565b834211156113425760405162461bcd60e51b815260206004820152601d60248201527f4552433230566f7465733a207369676e6174757265206578706972656400000060448201526064016109ea565b604080517fe48329057bfd03d55e49b547132e39cffd9c1820ad7b9d4c5307691425d15adf60208201526001600160a01b0388169181019190915260608101869052608081018590526000906113bc906113b49060a00160405160208183030381529060405280519060200120612354565b8585856123a2565b90506113c7816123c0565b86146114155760405162461bcd60e51b815260206004820152601960248201527f4552433230566f7465733a20696e76616c6964206e6f6e63650000000000000060448201526064016109ea565b610f5381886121cc565b8342111561146f5760405162461bcd60e51b815260206004820152601d60248201527f45524332305065726d69743a206578706972656420646561646c696e6500000060448201526064016109ea565b600060cc548888886114808c6123c0565b6040805160208101969096526001600160a01b0394851690860152929091166060840152608083015260a082015260c0810186905260e00160405160208183030381529060405280519060200120905060006114db82612354565b905060006114eb828787876123a2565b9050896001600160a01b0316816001600160a01b03161461154e5760405162461bcd60e51b815260206004820152601e60248201527f45524332305065726d69743a20696e76616c6964207369676e6174757265000060448201526064016109ea565b6115598a8a8a611bff565b50505050505050505050565b600082815260fe60205260409020600101546115818133611d23565b61096a83836120a8565b80158015906115b357506001600160a01b038216600090815261016b60205260409020548111155b6115f55760405162461bcd60e51b8152602060048201526013602482015272159311924e9253959053125117d05353d55395606a1b60448201526064016109ea565b33600090815261016a60205260409020546101655461161490826136df565b42116116625760405162461bcd60e51b815260206004820152601a60248201527f564c46493a434f4f4c444f574e5f4e4f545f434f4d504c45544500000000000060448201526064016109ea565b610166546101655461167490836136df565b61167e90426136f7565b11156116cc5760405162461bcd60e51b815260206004820152601c60248201527f564c46493a554e5354414b455f57494e444f575f46494e49534845440000000060448201526064016109ea565b60006116d733610c3c565b905060006116e3611b49565b33600090815261016c602052604090206101645482519293509091670de0b6b3a76400009190611713888461370e565b61171d919061370e565b611727919061372d565b611731919061372d565b816001016000828254611744919061374f565b90915550506101645461175f86670de0b6b3a764000061370e565b611769919061372d565b81600001600082825461177c91906136f7565b909155505033600090815261016b6020526040812080548792906117a19084906136f7565b925050819055508461016360008282546117bb91906136f7565b9091555050610164546117eb9033906117dc88670de0b6b3a764000061370e565b6117e6919061372d565b6123e8565b6101645461180186670de0b6b3a764000061370e565b61180b919061372d565b61181590846136f7565b61182b5733600090815261016a60205260408120555b6101625460405163a9059cbb60e01b81526001600160a01b038881166004830152602482018890529091169063a9059cbb906044016020604051808303816000875af115801561187f573d6000803e3d6000fd5b505050506040513d601f19601f820116820180604052508101906118a391906138d5565b50604051858152339081907f8a3c16627a0e7a870a5d5cd0121ca5d80e2efd0ec7198a11644f1a516ac370939060200160405180910390a3505050505050565b60006118ed611b49565b33600090815261016c60205260408120825181549394509092670de0b6b3a7640000916119199161370e565b611923919061372d565b90506000826001015482611937919061374f565b600184018390556040518181529091506001600160a01b0386169033907f9310ccfcb8de723f578a9e4282ea9f521f05ae40dc08f3068dfad528a65ee3c79060200160405180910390a36101625460405163a9059cbb60e01b81526001600160a01b038781166004830152602482018490529091169063a9059cbb906044016020604051808303816000875af11580156119d5573d6000803e3d6000fd5b505050506040513d601f19601f820116820180604052508101906119f991906138d5565b505050505050565b60408051808201909152600080825260208201526001600160a01b038316600090815261013160205260409020805463ffffffff8416908110611a4657611a4661387e565b60009182526020918290206040805180820190915291015463ffffffff8116825264010000000090046001600160e01b0316918101919091529392505050565b6001600160a01b038216600090815261016a602052604081205480611aaf576000915050611b41565b6000610166546101655442611ac491906136f7565b611ace91906136f7565b905081811115611ae15760009150611b3d565b6000878211611af05787611af2565b425b905082811015611b0757829350505050611b41565b611b1185886136df565b611b1b848761370e565b611b25838a61370e565b611b2f91906136df565b611b39919061372d565b9250505b5090505b949350505050565b6040805180820182526000808252602091820152815180830190925261016854825261016954908201819052421115611bfc576000611b8760675490565b90508015611be8576000826020015142611ba191906136f7565b905060006101675482611bb4919061370e565b905082611bc9670de0b6b3a76400008361370e565b611bd3919061372d565b84518590611be29083906136df565b90525050505b504260208201819052815161016855610169555b90565b6001600160a01b038316611c615760405162461bcd60e51b8152602060048201526024808201527f45524332303a20617070726f76652066726f6d20746865207a65726f206164646044820152637265737360e01b60648201526084016109ea565b6001600160a01b038216611cc25760405162461bcd60e51b815260206004820152602260248201527f45524332303a20617070726f766520746f20746865207a65726f206164647265604482015261737360f01b60648201526084016109ea565b6001600160a01b0383811660008181526066602090815260408083209487168084529482529182902085905590518481527f8c5be1e5ebec7d5bd14f71427d1e84f3dd0314c0f7b2291e5b200ac8c7c3b925910160405180910390a3505050565b611d2d8282610dd8565b6109fd57611d45816001600160a01b031660146123f2565b611d508360206123f2565b604051602001611d619291906138f7565b60408051601f198184030181529082905262461bcd60e51b82526109ea9160040161323f565b6001600160a01b038381166000908152606660209081526040808320938616835292905220546000198114611e135781811015611e065760405162461bcd60e51b815260206004820152601d60248201527f45524332303a20696e73756666696369656e7420616c6c6f77616e636500000060448201526064016109ea565b611e138484848403611bff565b50505050565b6000611e2484610c3c565b90506000611e30611b49565b6001600160a01b038616600090815261016c60205260409020815191925090670de0b6b3a764000090611e63908661370e565b611e6d919061372d565b816001016000828254611e80919061374f565b9091555050805484908290600090611e999084906136f7565b90915550506001600160a01b0386811690861614611f9c576000611ebc86610c3c565b6001600160a01b038716600090815261016c60205260409020845191925090670de0b6b3a764000090611eef908861370e565b611ef9919061372d565b816001016000828254611f0c9190613894565b9091555050805486908290600090611f259084906136df565b90915550506001600160a01b038816600090815261016a6020526040902054611f5081888a86611a86565b6001600160a01b038916600090815261016a60205260409020558587148015611f7857508015155b15611f98576001600160a01b038916600090815261016a60205260408120555b5050505b6119f986868661258e565b611fb18282610dd8565b6109fd57600082815260fe602090815260408083206001600160a01b03851684529091529020805460ff19166001179055611fe93390565b6001600160a01b0316816001600160a01b0316837f2f8788117e7eff1d82e926ec794901d17c78024a50270940304540a733656f0d60405160405180910390a45050565b60006109797f8b73c3c69bb8fe3d512ecc4cf759cc79239f7b179b0ffacaa9a75d522b39400f61205c60975490565b6098546040805160208101859052908101839052606081018290524660808201523060a082015260009060c0016040516020818303038152906040528051906020012090509392505050565b6120b28282610dd8565b156109fd57600082815260fe602090815260408083206001600160a01b0385168085529252808320805460ff1916905551339285917ff6391f5c32d9c69d2a47ea670b442974b53935d1edc7fd64eb21e047a839171b9190a45050565b8154600090815b8181101561217357600061212a8284612762565b90508486828154811061213f5761213f61387e565b60009182526020909120015463ffffffff16111561215f5780925061216d565b61216a8160016136df565b91505b50612116565b81156121b757846121856001846136f7565b815481106121955761219561387e565b60009182526020909120015464010000000090046001600160e01b03166121ba565b60005b6001600160e01b031695945050505050565b6001600160a01b0382811660009081526101306020526040812054909116906121f484610c3c565b6001600160a01b038581166000818152610130602052604080822080546001600160a01b031916898616908117909155905194955093928616927f3134e8a2e6d97e929a7e54011ea5485d7d196dd5f0ba4d4ef95803e8e3fc257f9190a4611e1382848361277d565b600063ffffffff8211156122c25760405162461bcd60e51b815260206004820152602660248201527f53616665436173743a2076616c756520646f65736e27742066697420696e203360448201526532206269747360d01b60648201526084016109ea565b5090565b600054610100900460ff166122ed5760405162461bcd60e51b81526004016109ea9061396c565b6109fd82826128bc565b600054610100900460ff1661231e5760405162461bcd60e51b81526004016109ea9061396c565b61234181604051806040016040528060018152602001603160f81b81525061290a565b610b558161294b565b6109fd8282612999565b600061083461236161202d565b8360405161190160f01b6020820152602281018390526042810182905260009060620160405160208183030381529060405280519060200120905092915050565b60008060006123b387878787612a24565b91509150611b3d81612b11565b6001600160a01b038116600090815260cb602052604090208054600181018255905b50919050565b6109fd8282612ccc565b6060600061240183600261370e565b61240c9060026136df565b67ffffffffffffffff811115612424576124246133f3565b6040519080825280601f01601f19166020018201604052801561244e576020820181803683370190505b509050600360fc1b816000815181106124695761246961387e565b60200101906001600160f81b031916908160001a905350600f60fb1b816001815181106124985761249861387e565b60200101906001600160f81b031916908160001a90535060006124bc84600261370e565b6124c79060016136df565b90505b600181111561253f576f181899199a1a9b1b9c1cb0b131b232b360811b85600f16601081106124fb576124fb61387e565b1a60f81b8282815181106125115761251161387e565b60200101906001600160f81b031916908160001a90535060049490941c93612538816139b7565b90506124ca565b508315610ab45760405162461bcd60e51b815260206004820181905260248201527f537472696e67733a20686578206c656e67746820696e73756666696369656e7460448201526064016109ea565b6001600160a01b0383166125f25760405162461bcd60e51b815260206004820152602560248201527f45524332303a207472616e736665722066726f6d20746865207a65726f206164604482015264647265737360d81b60648201526084016109ea565b6001600160a01b0382166126545760405162461bcd60e51b815260206004820152602360248201527f45524332303a207472616e7366657220746f20746865207a65726f206164647260448201526265737360e81b60648201526084016109ea565b6001600160a01b038316600090815260656020526040902054818110156126cc5760405162461bcd60e51b815260206004820152602660248201527f45524332303a207472616e7366657220616d6f756e7420657863656564732062604482015265616c616e636560d01b60648201526084016109ea565b6001600160a01b038085166000908152606560205260408082208585039055918516815290812080548492906127039084906136df565b92505081905550826001600160a01b0316846001600160a01b03167fddf252ad1be2c89b69c2b068fc378daa952ba7f163c4a11628f55a4df523b3ef8460405161274f91815260200190565b60405180910390a3611e13848484612ce5565b6000612771600284841861372d565b610ab4908484166136df565b816001600160a01b0316836001600160a01b03161415801561279f5750600081115b1561096a576001600160a01b0383161561282e576001600160a01b03831660009081526101316020526040812081906127db90612cf085612cfc565b91509150846001600160a01b03167fdec2bacdd2f05b59de34da9b523dff8be42e5e38e818c82fdb0bae774387a7248383604051612823929190918252602082015260400190565b60405180910390a250505b6001600160a01b0382161561096a576001600160a01b038216600090815261013160205260408120819061286590612e7585612cfc565b91509150836001600160a01b03167fdec2bacdd2f05b59de34da9b523dff8be42e5e38e818c82fdb0bae774387a72483836040516128ad929190918252602082015260400190565b60405180910390a25050505050565b600054610100900460ff166128e35760405162461bcd60e51b81526004016109ea9061396c565b81516128f6906068906020850190613159565b50805161096a906069906020840190613159565b600054610100900460ff166129315760405162461bcd60e51b81526004016109ea9061396c565b815160209283012081519190920120609791909155609855565b600054610100900460ff166129725760405162461bcd60e51b81526004016109ea9061396c565b507f6e71edae12b1b97f4d1f60370fef10105fa2faae0126114a169c64845d6126c960cc55565b6129a38282612e81565b6067546001600160e01b031015612a155760405162461bcd60e51b815260206004820152603060248201527f4552433230566f7465733a20746f74616c20737570706c79207269736b73206f60448201526f766572666c6f77696e6720766f74657360801b60648201526084016109ea565b611e13610132612e7583612cfc565b6000807f7fffffffffffffffffffffffffffffff5d576e7357a4501ddfe92f46681b20a0831115612a5b5750600090506003612b08565b8460ff16601b14158015612a7357508460ff16601c14155b15612a845750600090506004612b08565b6040805160008082526020820180845289905260ff881692820192909252606081018690526080810185905260019060a0016020604051602081039080840390855afa158015612ad8573d6000803e3d6000fd5b5050604051601f1901519150506001600160a01b038116612b0157600060019250925050612b08565b9150600090505b94509492505050565b6000816004811115612b2557612b256139ce565b1415612b2e5750565b6001816004811115612b4257612b426139ce565b1415612b905760405162461bcd60e51b815260206004820152601860248201527f45434453413a20696e76616c6964207369676e6174757265000000000000000060448201526064016109ea565b6002816004811115612ba457612ba46139ce565b1415612bf25760405162461bcd60e51b815260206004820152601f60248201527f45434453413a20696e76616c6964207369676e6174757265206c656e6774680060448201526064016109ea565b6003816004811115612c0657612c066139ce565b1415612c5f5760405162461bcd60e51b815260206004820152602260248201527f45434453413a20696e76616c6964207369676e6174757265202773272076616c604482015261756560f01b60648201526084016109ea565b6004816004811115612c7357612c736139ce565b1415610b555760405162461bcd60e51b815260206004820152602260248201527f45434453413a20696e76616c6964207369676e6174757265202776272076616c604482015261756560f01b60648201526084016109ea565b612cd68282612f68565b611e13610132612cf083612cfc565b61096a8383836130bd565b6000610ab482846136f7565b825460009081908015612d475785612d156001836136f7565b81548110612d2557612d2561387e565b60009182526020909120015464010000000090046001600160e01b0316612d4a565b60005b6001600160e01b03169250612d6383858763ffffffff16565b9150600081118015612da157504386612d7d6001846136f7565b81548110612d8d57612d8d61387e565b60009182526020909120015463ffffffff16145b15612e0157612daf826130f0565b86612dbb6001846136f7565b81548110612dcb57612dcb61387e565b9060005260206000200160000160046101000a8154816001600160e01b0302191690836001600160e01b03160217905550612e6c565b856040518060400160405280612e164361225d565b63ffffffff168152602001612e2a856130f0565b6001600160e01b0390811690915282546001810184556000938452602093849020835194909301519091166401000000000263ffffffff909316929092179101555b50935093915050565b6000610ab482846136df565b6001600160a01b038216612ed75760405162461bcd60e51b815260206004820152601f60248201527f45524332303a206d696e7420746f20746865207a65726f20616464726573730060448201526064016109ea565b8060676000828254612ee991906136df565b90915550506001600160a01b03821660009081526065602052604081208054839290612f169084906136df565b90915550506040518181526001600160a01b038316906000907fddf252ad1be2c89b69c2b068fc378daa952ba7f163c4a11628f55a4df523b3ef9060200160405180910390a36109fd60008383612ce5565b6001600160a01b038216612fc85760405162461bcd60e51b815260206004820152602160248201527f45524332303a206275726e2066726f6d20746865207a65726f206164647265736044820152607360f81b60648201526084016109ea565b6001600160a01b0382166000908152606560205260409020548181101561303c5760405162461bcd60e51b815260206004820152602260248201527f45524332303a206275726e20616d6f756e7420657863656564732062616c616e604482015261636560f01b60648201526084016109ea565b6001600160a01b038316600090815260656020526040812083830390556067805484929061306b9084906136f7565b90915550506040518281526000906001600160a01b038516907fddf252ad1be2c89b69c2b068fc378daa952ba7f163c4a11628f55a4df523b3ef9060200160405180910390a361096a83600084612ce5565b6001600160a01b038381166000908152610130602052604080822054858416835291205461096a9291821691168361277d565b60006001600160e01b038211156122c25760405162461bcd60e51b815260206004820152602760248201527f53616665436173743a2076616c756520646f65736e27742066697420696e20326044820152663234206269747360c81b60648201526084016109ea565b82805461316590613694565b90600052602060002090601f01602090048101928261318757600085556131cd565b82601f106131a057805160ff19168380011785556131cd565b828001600101855582156131cd579182015b828111156131cd5782518255916020019190600101906131b2565b506122c29291505b808211156122c257600081556001016131d5565b6000602082840312156131fb57600080fd5b81356001600160e01b031981168114610ab457600080fd5b60005b8381101561322e578181015183820152602001613216565b83811115611e135750506000910152565b602081526000825180602084015261325e816040850160208701613213565b601f01601f19169190910160400192915050565b6001600160a01b0381168114610b5557600080fd5b6000806040838503121561329a57600080fd5b82356132a581613272565b946020939093013593505050565b6000806000606084860312156132c857600080fd5b83356132d381613272565b925060208401356132e381613272565b929592945050506040919091013590565b60006020828403121561330657600080fd5b5035919050565b6000806040838503121561332057600080fd5b82359150602083013561333281613272565b809150509250929050565b60006020828403121561334f57600080fd5b8135610ab481613272565b803560ff8116811461336b57600080fd5b919050565b600080600080600080600080610100898b03121561338d57600080fd5b883561339881613272565b975060208901356133a881613272565b9650604089013595506133bd60608a0161335a565b94506080890135935060a0890135925060c08901356133db81613272565b8092505060e089013590509295985092959890939650565b634e487b7160e01b600052604160045260246000fd5b600082601f83011261341a57600080fd5b813567ffffffffffffffff80821115613435576134356133f3565b604051601f8301601f19908116603f0116810190828211818310171561345d5761345d6133f3565b8160405283815286602085880101111561347657600080fd5b836020870160208301376000602085830101528094505050505092915050565b60008060008060008060c087890312156134af57600080fd5b863567ffffffffffffffff808211156134c757600080fd5b6134d38a838b01613409565b975060208901359150808211156134e957600080fd5b506134f689828a01613409565b955050604087013561350781613272565b959894975094956060810135955060808101359460a0909101359350915050565b60008060008060008060c0878903121561354157600080fd5b863561354c81613272565b955060208701359450604087013593506135686060880161335a565b92506080870135915060a087013590509295509295509295565b600080600080600080600060e0888a03121561359d57600080fd5b87356135a881613272565b965060208801356135b881613272565b955060408801359450606088013593506135d46080890161335a565b925060a0880135915060c0880135905092959891949750929550565b6000806040838503121561360357600080fd5b823561360e81613272565b9150602083013561333281613272565b6000806040838503121561363157600080fd5b823561363c81613272565b9150602083013563ffffffff8116811461333257600080fd5b6000806000806080858703121561366b57600080fd5b8435935060208501359250604085013561368481613272565b9396929550929360600135925050565b600181811c908216806136a857607f821691505b602082108114156123e257634e487b7160e01b600052602260045260246000fd5b634e487b7160e01b600052601160045260246000fd5b600082198211156136f2576136f26136c9565b500190565b600082821015613709576137096136c9565b500390565b6000816000190483118215151615613728576137286136c9565b500290565b60008261374a57634e487b7160e01b600052601260045260246000fd5b500490565b60008083128015600160ff1b85018412161561376d5761376d6136c9565b6001600160ff1b0384018313811615613788576137886136c9565b50500390565b600181815b808511156137c95781600019048211156137af576137af6136c9565b808516156137bc57918102915b93841c9390800290613793565b509250929050565b6000826137e057506001610834565b816137ed57506000610834565b8160018114613803576002811461380d57613829565b6001915050610834565b60ff84111561381e5761381e6136c9565b50506001821b610834565b5060208310610133831016604e8410600b841016171561384c575081810a610834565b613856838361378e565b806000190482111561386a5761386a6136c9565b029392505050565b6000610ab483836137d1565b634e487b7160e01b600052603260045260246000fd5b600080821280156001600160ff1b03849003851316156138b6576138b66136c9565b600160ff1b83900384128116156138cf576138cf6136c9565b50500190565b6000602082840312156138e757600080fd5b81518015158114610ab457600080fd5b7f416363657373436f6e74726f6c3a206163636f756e742000000000000000000081526000835161392f816017850160208801613213565b7001034b99036b4b9b9b4b733903937b6329607d1b6017918401918201528351613960816028840160208801613213565b01602801949350505050565b6020808252602b908201527f496e697469616c697a61626c653a20636f6e7472616374206973206e6f74206960408201526a6e697469616c697a696e6760a81b606082015260800190565b6000816139c6576139c66136c9565b506000190190565b634e487b7160e01b600052602160045260246000fdfe241ecf16d79d0f8dbfb92cbc07fe17840425976cf0667f022fe9877caa831b08a26469706673582212202c6bd4ec03f028337e2e07b641941f1672de9fce78d87009534748539d88cae764736f6c634300080a0033",
  "linkReferences": {},
  "deployedLinkReferences": {}
}