{
  "_format": "hh-sol-artifact-1",
  "contractName": "VLFI",
  "sourceName": "contracts/VLFI.sol",
  "abi": [
    {
      "inputs": [
        {
          "internalType": "string",
          "name": "name",
          "type": "string"
        },
        {
          "internalType": "string",
          "name": "symbol",
          "type": "string"
        },
        {
          "internalType": "contract IERC20",
          "name": "stakedToken",
          "type": "address"
        },
        {
          "internalType": "uint256",
          "name": "cooldownSeconds",
          "type": "uint256"
        },
        {
          "internalType": "uint256",
          "name": "unstakeWindow",
          "type": "uint256"
        }
      ],
      "stateMutability": "nonpayable",
      "type": "constructor"
    },
    {
      "anonymous": false,
      "inputs": [
        {
          "indexed": true,
          "internalType": "address",
          "name": "owner",
          "type": "address"
        },
        {
          "indexed": true,
          "internalType": "address",
          "name": "spender",
          "type": "address"
        },
        {
          "indexed": false,
          "internalType": "uint256",
          "name": "value",
          "type": "uint256"
        }
      ],
      "name": "Approval",
      "type": "event"
    },
    {
      "anonymous": false,
      "inputs": [
        {
          "indexed": true,
          "internalType": "address",
          "name": "from",
          "type": "address"
        },
        {
          "indexed": true,
          "internalType": "address",
          "name": "onBehalfOf",
          "type": "address"
        },
        {
          "indexed": false,
          "internalType": "uint256",
          "name": "amount",
          "type": "uint256"
        }
      ],
      "name": "Deposited",
      "type": "event"
    },
    {
      "anonymous": false,
      "inputs": [
        {
          "indexed": true,
          "internalType": "address",
          "name": "from",
          "type": "address"
        },
        {
          "indexed": true,
          "internalType": "address",
          "name": "to",
          "type": "address"
        },
        {
          "indexed": false,
          "internalType": "uint256",
          "name": "amount",
          "type": "uint256"
        }
      ],
      "name": "Redeemed",
      "type": "event"
    },
    {
      "anonymous": false,
      "inputs": [
        {
          "indexed": true,
          "internalType": "address",
          "name": "from",
          "type": "address"
        },
        {
          "indexed": true,
          "internalType": "address",
          "name": "to",
          "type": "address"
        },
        {
          "indexed": false,
          "internalType": "uint256",
          "name": "value",
          "type": "uint256"
        }
      ],
      "name": "Transfer",
      "type": "event"
    },
    {
      "inputs": [],
      "name": "COOLDOWN_SECONDS",
      "outputs": [
        {
          "internalType": "uint256",
          "name": "",
          "type": "uint256"
        }
      ],
      "stateMutability": "view",
      "type": "function"
    },
    {
      "inputs": [],
      "name": "STAKED_TOKEN",
      "outputs": [
        {
          "internalType": "contract IERC20",
          "name": "",
          "type": "address"
        }
      ],
      "stateMutability": "view",
      "type": "function"
    },
    {
      "inputs": [],
      "name": "UNSTAKE_WINDOW",
      "outputs": [
        {
          "internalType": "uint256",
          "name": "",
          "type": "uint256"
        }
      ],
      "stateMutability": "view",
      "type": "function"
    },
    {
      "inputs": [
        {
          "internalType": "address",
          "name": "owner",
          "type": "address"
        },
        {
          "internalType": "address",
          "name": "spender",
          "type": "address"
        }
      ],
      "name": "allowance",
      "outputs": [
        {
          "internalType": "uint256",
          "name": "",
          "type": "uint256"
        }
      ],
      "stateMutability": "view",
      "type": "function"
    },
    {
      "inputs": [
        {
          "internalType": "address",
          "name": "spender",
          "type": "address"
        },
        {
          "internalType": "uint256",
          "name": "amount",
          "type": "uint256"
        }
      ],
      "name": "approve",
      "outputs": [
        {
          "internalType": "bool",
          "name": "",
          "type": "bool"
        }
      ],
      "stateMutability": "nonpayable",
      "type": "function"
    },
    {
      "inputs": [
        {
          "internalType": "address",
          "name": "account",
          "type": "address"
        }
      ],
      "name": "balanceOf",
      "outputs": [
        {
          "internalType": "uint256",
          "name": "",
          "type": "uint256"
        }
      ],
      "stateMutability": "view",
      "type": "function"
    },
    {
      "inputs": [],
      "name": "claimRewards",
      "outputs": [],
      "stateMutability": "nonpayable",
      "type": "function"
    },
    {
      "inputs": [],
      "name": "cooldown",
      "outputs": [],
      "stateMutability": "nonpayable",
      "type": "function"
    },
    {
      "inputs": [],
      "name": "createFarm",
      "outputs": [],
      "stateMutability": "nonpayable",
      "type": "function"
    },
    {
      "inputs": [],
      "name": "decimals",
      "outputs": [
        {
          "internalType": "uint8",
          "name": "",
          "type": "uint8"
        }
      ],
      "stateMutability": "view",
      "type": "function"
    },
    {
      "inputs": [
        {
          "internalType": "address",
          "name": "spender",
          "type": "address"
        },
        {
          "internalType": "uint256",
          "name": "subtractedValue",
          "type": "uint256"
        }
      ],
      "name": "decreaseAllowance",
      "outputs": [
        {
          "internalType": "bool",
          "name": "",
          "type": "bool"
        }
      ],
      "stateMutability": "nonpayable",
      "type": "function"
    },
    {
      "inputs": [
        {
          "internalType": "uint256",
          "name": "amount",
          "type": "uint256"
        }
      ],
      "name": "depositLFI",
      "outputs": [],
      "stateMutability": "nonpayable",
      "type": "function"
    },
    {
      "inputs": [],
      "name": "farmInfo",
      "outputs": [
        {
          "internalType": "uint256",
          "name": "accRewardsPerShare",
          "type": "uint256"
        },
        {
          "internalType": "uint256",
          "name": "lastRewardTime",
          "type": "uint256"
        }
      ],
      "stateMutability": "view",
      "type": "function"
    },
    {
      "inputs": [
        {
          "internalType": "uint256",
          "name": "userCooldownTimestamp",
          "type": "uint256"
        },
        {
          "internalType": "uint256",
          "name": "amountToReceive",
          "type": "uint256"
        },
        {
          "internalType": "address",
          "name": "toAddress",
          "type": "address"
        },
        {
          "internalType": "uint256",
          "name": "toBalance",
          "type": "uint256"
        }
      ],
      "name": "getNextCooldownTimestamp",
      "outputs": [
        {
          "internalType": "uint256",
          "name": "",
          "type": "uint256"
        }
      ],
      "stateMutability": "view",
      "type": "function"
    },
    {
      "inputs": [
        {
          "internalType": "address",
          "name": "spender",
          "type": "address"
        },
        {
          "internalType": "uint256",
          "name": "addedValue",
          "type": "uint256"
        }
      ],
      "name": "increaseAllowance",
      "outputs": [
        {
          "internalType": "bool",
          "name": "",
          "type": "bool"
        }
      ],
      "stateMutability": "nonpayable",
      "type": "function"
    },
    {
      "inputs": [],
      "name": "name",
      "outputs": [
        {
          "internalType": "string",
          "name": "",
          "type": "string"
        }
      ],
      "stateMutability": "view",
      "type": "function"
    },
    {
      "inputs": [],
      "name": "pendingReward",
      "outputs": [
        {
          "internalType": "uint256",
          "name": "pendingRewards",
          "type": "uint256"
        }
      ],
      "stateMutability": "view",
      "type": "function"
    },
    {
      "inputs": [
        {
          "internalType": "uint256",
          "name": "amount",
          "type": "uint256"
        }
      ],
      "name": "redeemLFI",
      "outputs": [],
      "stateMutability": "nonpayable",
      "type": "function"
    },
    {
      "inputs": [],
      "name": "rewardPerSecond",
      "outputs": [
        {
          "internalType": "uint256",
          "name": "",
          "type": "uint256"
        }
      ],
      "stateMutability": "view",
      "type": "function"
    },
    {
      "inputs": [
        {
          "internalType": "uint256",
          "name": "_rewardPerSecond",
          "type": "uint256"
        }
      ],
      "name": "setRewardPerSecond",
      "outputs": [],
      "stateMutability": "nonpayable",
      "type": "function"
    },
    {
      "inputs": [
        {
          "internalType": "address",
          "name": "",
          "type": "address"
        }
      ],
      "name": "stakerRewardsToClaim",
      "outputs": [
        {
          "internalType": "uint256",
          "name": "",
          "type": "uint256"
        }
      ],
      "stateMutability": "view",
      "type": "function"
    },
    {
      "inputs": [
        {
          "internalType": "address",
          "name": "",
          "type": "address"
        }
      ],
      "name": "stakersCooldowns",
      "outputs": [
        {
          "internalType": "uint256",
          "name": "",
          "type": "uint256"
        }
      ],
      "stateMutability": "view",
      "type": "function"
    },
    {
      "inputs": [],
      "name": "symbol",
      "outputs": [
        {
          "internalType": "string",
          "name": "",
          "type": "string"
        }
      ],
      "stateMutability": "view",
      "type": "function"
    },
    {
      "inputs": [],
      "name": "totalSupply",
      "outputs": [
        {
          "internalType": "uint256",
          "name": "",
          "type": "uint256"
        }
      ],
      "stateMutability": "view",
      "type": "function"
    },
    {
      "inputs": [
        {
          "internalType": "address",
          "name": "to",
          "type": "address"
        },
        {
          "internalType": "uint256",
          "name": "amount",
          "type": "uint256"
        }
      ],
      "name": "transfer",
      "outputs": [
        {
          "internalType": "bool",
          "name": "",
          "type": "bool"
        }
      ],
      "stateMutability": "nonpayable",
      "type": "function"
    },
    {
      "inputs": [
        {
          "internalType": "address",
          "name": "sender",
          "type": "address"
        },
        {
          "internalType": "address",
          "name": "recipient",
          "type": "address"
        },
        {
          "internalType": "uint256",
          "name": "amount",
          "type": "uint256"
        }
      ],
      "name": "transferFrom",
      "outputs": [
        {
          "internalType": "bool",
          "name": "",
          "type": "bool"
        }
      ],
      "stateMutability": "nonpayable",
      "type": "function"
    },
    {
      "inputs": [],
      "name": "updateFarm",
      "outputs": [
        {
          "components": [
            {
              "internalType": "uint256",
              "name": "accRewardsPerShare",
              "type": "uint256"
            },
            {
              "internalType": "uint256",
              "name": "lastRewardTime",
              "type": "uint256"
            }
          ],
          "internalType": "struct VLFI.FarmInfo",
          "name": "farm",
          "type": "tuple"
        }
      ],
      "stateMutability": "nonpayable",
      "type": "function"
    },
    {
      "inputs": [],
      "name": "updateRewardsToClaim",
      "outputs": [],
      "stateMutability": "nonpayable",
      "type": "function"
    },
    {
      "inputs": [
        {
          "internalType": "address",
          "name": "",
          "type": "address"
        }
      ],
      "name": "userInfo",
      "outputs": [
        {
          "internalType": "uint256",
          "name": "amount",
          "type": "uint256"
        },
        {
          "internalType": "int256",
          "name": "rewardDebt",
          "type": "int256"
        }
      ],
      "stateMutability": "view",
      "type": "function"
    },
    {
      "inputs": [
        {
          "internalType": "address",
          "name": "",
          "type": "address"
        }
      ],
      "name": "userLFIDeposits",
      "outputs": [
        {
          "internalType": "uint256",
          "name": "",
          "type": "uint256"
        }
      ],
      "stateMutability": "view",
      "type": "function"
    }
  ],
  "bytecode": "0x60e06040526012600a6200001491906200031b565b6103e86200002391906200036c565b6009553480156200003357600080fd5b5060405162003e8738038062003e87833981810160405281019062000059919062000614565b8484816003908051906020019062000073929190620000de565b5080600490805190602001906200008c929190620000de565b5050508273ffffffffffffffffffffffffffffffffffffffff1660808173ffffffffffffffffffffffffffffffffffffffff16815250508160a081815250508060c0818152505050505050506200073f565b828054620000ec9062000709565b90600052602060002090601f0160209004810192826200011057600085556200015c565b82601f106200012b57805160ff19168380011785556200015c565b828001600101855582156200015c579182015b828111156200015b5782518255916020019190600101906200013e565b5b5090506200016b91906200016f565b5090565b5b808211156200018a57600081600090555060010162000170565b5090565b7f4e487b7100000000000000000000000000000000000000000000000000000000600052601160045260246000fd5b60008160011c9050919050565b6000808291508390505b60018511156200021c57808604811115620001f457620001f36200018e565b5b6001851615620002045780820291505b80810290506200021485620001bd565b9450620001d4565b94509492505050565b6000826200023757600190506200030a565b816200024757600090506200030a565b81600181146200026057600281146200026b57620002a1565b60019150506200030a565b60ff84111562000280576200027f6200018e565b5b8360020a9150848211156200029a57620002996200018e565b5b506200030a565b5060208310610133831016604e8410600b8410161715620002db5782820a905083811115620002d557620002d46200018e565b5b6200030a565b620002ea8484846001620001ca565b925090508184048111156200030457620003036200018e565b5b81810290505b9392505050565b6000819050919050565b6000620003288262000311565b9150620003358362000311565b9250620003647fffffffffffffffffffffffffffffffffffffffffffffffffffffffffffffffff848462000225565b905092915050565b6000620003798262000311565b9150620003868362000311565b9250817fffffffffffffffffffffffffffffffffffffffffffffffffffffffffffffffff0483118215151615620003c257620003c16200018e565b5b828202905092915050565b6000604051905090565b600080fd5b600080fd5b600080fd5b600080fd5b6000601f19601f8301169050919050565b7f4e487b7100000000000000000000000000000000000000000000000000000000600052604160045260246000fd5b6200043682620003eb565b810181811067ffffffffffffffff82111715620004585762000457620003fc565b5b80604052505050565b60006200046d620003cd565b90506200047b82826200042b565b919050565b600067ffffffffffffffff8211156200049e576200049d620003fc565b5b620004a982620003eb565b9050602081019050919050565b60005b83811015620004d6578082015181840152602081019050620004b9565b83811115620004e6576000848401525b50505050565b600062000503620004fd8462000480565b62000461565b905082815260208101848484011115620005225762000521620003e6565b5b6200052f848285620004b6565b509392505050565b600082601f8301126200054f576200054e620003e1565b5b815162000561848260208601620004ec565b91505092915050565b600073ffffffffffffffffffffffffffffffffffffffff82169050919050565b600062000597826200056a565b9050919050565b6000620005ab826200058a565b9050919050565b620005bd816200059e565b8114620005c957600080fd5b50565b600081519050620005dd81620005b2565b92915050565b620005ee8162000311565b8114620005fa57600080fd5b50565b6000815190506200060e81620005e3565b92915050565b600080600080600060a08688031215620006335762000632620003d7565b5b600086015167ffffffffffffffff811115620006545762000653620003dc565b5b620006628882890162000537565b955050602086015167ffffffffffffffff811115620006865762000685620003dc565b5b620006948882890162000537565b9450506040620006a788828901620005cc565b9350506060620006ba88828901620005fd565b9250506080620006cd88828901620005fd565b9150509295509295909350565b7f4e487b7100000000000000000000000000000000000000000000000000000000600052602260045260246000fd5b600060028204905060018216806200072257607f821691505b60208210811415620007395762000738620006da565b5b50919050565b60805160a05160c0516136e0620007a7600039600081816109b7015281816110f20152611825015260008181610e970152818161108501528181611113015261184601526000818161098a01528181610a7201528181610d7b015261131b01526136e06000f3fe608060405234801561001057600080fd5b50600436106101da5760003560e01c80634e253ad0116101045780638f10369a116100a2578063a9059cbb11610071578063a9059cbb14610539578063dd62ed3e14610569578063f1cc432a14610599578063f54ca63c146105c9576101da565b80638f10369a146104b157806395d89b41146104cf5780639f1d2ffa146104ed578063a457c2d714610509576101da565b806370a08231116100de57806370a082311461042957806372b49d6314610459578063787a08a6146104775780637e90d7ef14610481576101da565b80634e253ad0146103c157806366da5815146103dd5780636fbc92a2146103f9576101da565b80631d49d66c1161017c578063313ce5671161014b578063313ce5671461034b578063359c4a9614610369578063372500ab146103875780633950935114610391576101da565b80631d49d66c146102d45780631d5ec3cb146102f357806323b872dd146102fd578063312f6b831461032d576101da565b80630e5b47bc116101b85780630e5b47bc1461025d578063137ee36e1461026757806318160ddd146102855780631959a002146102a3576101da565b806306fdde03146101df578063091030c3146101fd578063095ea7b31461022d575b600080fd5b6101e76105e7565b6040516101f49190612596565b60405180910390f35b6102176004803603810190610212919061261b565b610679565b6040516102249190612661565b60405180910390f35b610247600480360381019061024291906126a8565b610691565b6040516102549190612703565b60405180910390f35b6102656106af565b005b61026f6106f8565b60405161027c9190612661565b60405180910390f35b61028d61081f565b60405161029a9190612661565b60405180910390f35b6102bd60048036038101906102b8919061261b565b610829565b6040516102cb929190612737565b60405180910390f35b6102dc61084d565b6040516102ea929190612760565b60405180910390f35b6102fb61085f565b005b61031760048036038101906103129190612789565b610890565b6040516103249190612703565b60405180910390f35b610335610988565b604051610342919061283b565b60405180910390f35b6103536109ac565b6040516103609190612872565b60405180910390f35b6103716109b5565b60405161037e9190612661565b60405180910390f35b61038f6109d9565b005b6103ab60048036038101906103a691906126a8565b610b15565b6040516103b89190612703565b60405180910390f35b6103db60048036038101906103d6919061288d565b610bc1565b005b6103f760048036038101906103f2919061288d565b610e2b565b005b610413600480360381019061040e919061261b565b610e35565b6040516104209190612661565b60405180910390f35b610443600480360381019061043e919061261b565b610e4d565b6040516104509190612661565b60405180910390f35b610461610e95565b60405161046e9190612661565b60405180910390f35b61047f610eb9565b005b61049b6004803603810190610496919061261b565b610f4b565b6040516104a89190612661565b60405180910390f35b6104b9610f63565b6040516104c69190612661565b60405180910390f35b6104d7610f69565b6040516104e49190612596565b60405180910390f35b6105076004803603810190610502919061288d565b610ffb565b005b610523600480360381019061051e91906126a8565b6113cc565b6040516105309190612703565b60405180910390f35b610553600480360381019061054e91906126a8565b6114b7565b6040516105609190612703565b60405180910390f35b610583600480360381019061057e91906128ba565b611742565b6040516105909190612661565b60405180910390f35b6105b360048036038101906105ae91906128fa565b6117c9565b6040516105c09190612661565b60405180910390f35b6105d16118fd565b6040516105de919061299f565b60405180910390f35b6060600380546105f6906129e9565b80601f0160208091040260200160405190810160405280929190818152602001828054610622906129e9565b801561066f5780601f106106445761010080835404028352916020019161066f565b820191906000526020600020905b81548152906001019060200180831161065257829003601f168201915b5050505050905090565b600b6020528060005260406000206000915090505481565b60006106a561069e6119d2565b84846119da565b6001905092915050565b600080600a60003373ffffffffffffffffffffffffffffffffffffffff1673ffffffffffffffffffffffffffffffffffffffff1681526020019081526020016000208190555050565b60008060056040518060400160405290816000820154815260200160018201548152505090506000600860003373ffffffffffffffffffffffffffffffffffffffff1673ffffffffffffffffffffffffffffffffffffffff1681526020019081526020016000209050600082600001519050600061077461081f565b905083602001514211801561078a575060008114155b156107e45760008460200151426107a19190612a4a565b90506000600754826107b39190612a7e565b905082670de0b6b3a7640000826107ca9190612a7e565b6107d49190612b07565b846107df9190612b38565b935050505b8260010154670de0b6b3a76400008385600001546108029190612a7e565b61080c9190612b07565b6108169190612b8e565b94505050505090565b6000600254905090565b60086020528060005260406000206000915090508060000154908060010154905082565b60058060000154908060010154905082565b6040518060400160405280600081526020014281525060056000820151816000015560208201518160010155905050565b600061089d848484611ba5565b6000600160008673ffffffffffffffffffffffffffffffffffffffff1673ffffffffffffffffffffffffffffffffffffffff16815260200190815260200160002060006108e86119d2565b73ffffffffffffffffffffffffffffffffffffffff1673ffffffffffffffffffffffffffffffffffffffff16815260200190815260200160002054905082811015610968576040517f08c379a000000000000000000000000000000000000000000000000000000000815260040161095f90612c94565b60405180910390fd5b61097c856109746119d2565b8584036119da565b60019150509392505050565b7f000000000000000000000000000000000000000000000000000000000000000081565b60006012905090565b7f000000000000000000000000000000000000000000000000000000000000000081565b60006109e36118fd565b90506000600860003373ffffffffffffffffffffffffffffffffffffffff1673ffffffffffffffffffffffffffffffffffffffff16815260200190815260200160002090506000670de0b6b3a764000083600001518360000154610a479190612a7e565b610a519190612b07565b90506000826001015482610a659190612b8e565b90508183600101819055507f000000000000000000000000000000000000000000000000000000000000000073ffffffffffffffffffffffffffffffffffffffff1663a9059cbb33836040518363ffffffff1660e01b8152600401610acb929190612cc3565b6020604051808303816000875af1158015610aea573d6000803e3d6000fd5b505050506040513d601f19601f82011682018060405250810190610b0e9190612d18565b5050505050565b6000610bb7610b226119d2565b848460016000610b306119d2565b73ffffffffffffffffffffffffffffffffffffffff1673ffffffffffffffffffffffffffffffffffffffff16815260200190815260200160002060008873ffffffffffffffffffffffffffffffffffffffff1673ffffffffffffffffffffffffffffffffffffffff16815260200190815260200160002054610bb29190612b38565b6119da565b6001905092915050565b6000811415610c05576040517f08c379a0000000000000000000000000000000000000000000000000000000008152600401610bfc90612d91565b60405180910390fd5b6000610c1033610e4d565b90506000610c1c6118fd565b90506000600860003373ffffffffffffffffffffffffffffffffffffffff1673ffffffffffffffffffffffffffffffffffffffff1681526020019081526020016000209050600954670de0b6b3a764000085610c789190612a7e565b610c829190612b07565b816000016000828254610c959190612b38565b92505081905550670de0b6b3a76400008260000151600954670de0b6b3a764000087610cc19190612a7e565b610ccb9190612b07565b610cd59190612a7e565b610cdf9190612b07565b816001016000828254610cf29190612db1565b92505081905550610d0660008533866117c9565b600b60003373ffffffffffffffffffffffffffffffffffffffff1673ffffffffffffffffffffffffffffffffffffffff16815260200190815260200160002081905550610d7333600954670de0b6b3a764000087610d649190612a7e565b610d6e9190612b07565b611e26565b610dc03330867f000000000000000000000000000000000000000000000000000000000000000073ffffffffffffffffffffffffffffffffffffffff16611f86909392919063ffffffff16565b3373ffffffffffffffffffffffffffffffffffffffff163373ffffffffffffffffffffffffffffffffffffffff167f8752a472e571a816aea92eec8dae9baf628e840f4929fbcc2d155e6233ff68a786604051610e1d9190612661565b60405180910390a350505050565b8060078190555050565b600c6020528060005260406000206000915090505481565b60008060008373ffffffffffffffffffffffffffffffffffffffff1673ffffffffffffffffffffffffffffffffffffffff168152602001908152602001600020549050919050565b7f000000000000000000000000000000000000000000000000000000000000000081565b6000610ec433610e4d565b1415610f05576040517f08c379a0000000000000000000000000000000000000000000000000000000008152600401610efc90612e91565b60405180910390fd5b42600b60003373ffffffffffffffffffffffffffffffffffffffff1673ffffffffffffffffffffffffffffffffffffffff16815260200190815260200160002081905550565b600a6020528060005260406000206000915090505481565b60075481565b606060048054610f78906129e9565b80601f0160208091040260200160405190810160405280929190818152602001828054610fa4906129e9565b8015610ff15780601f10610fc657610100808354040283529160200191610ff1565b820191906000526020600020905b815481529060010190602001808311610fd457829003601f168201915b5050505050905090565b600081141561103f576040517f08c379a000000000000000000000000000000000000000000000000000000000815260040161103690612d91565b60405180910390fd5b6000600b60003373ffffffffffffffffffffffffffffffffffffffff1673ffffffffffffffffffffffffffffffffffffffff1681526020019081526020016000205490507f0000000000000000000000000000000000000000000000000000000000000000816110af9190612b38565b42116110f0576040517f08c379a00000000000000000000000000000000000000000000000000000000081526004016110e790612efd565b60405180910390fd5b7f00000000000000000000000000000000000000000000000000000000000000007f00000000000000000000000000000000000000000000000000000000000000008261113d9190612b38565b426111489190612a4a565b1115611189576040517f08c379a000000000000000000000000000000000000000000000000000000000815260040161118090612f69565b60405180910390fd5b600061119433610e4d565b905060008184116111a557836111a7565b815b905060006111b36118fd565b90506000600860003373ffffffffffffffffffffffffffffffffffffffff1673ffffffffffffffffffffffffffffffffffffffff1681526020019081526020016000209050670de0b6b3a76400008260000151600954670de0b6b3a76400008661121d9190612a7e565b6112279190612b07565b6112319190612a7e565b61123b9190612b07565b81600101600082825461124e9190612b8e565b92505081905550600954670de0b6b3a76400008461126c9190612a7e565b6112769190612b07565b8160000160008282546112899190612a4a565b925050819055506112ba33600954670de0b6b3a7640000866112ab9190612a7e565b6112b59190612b07565b61200f565b600083856112c89190612a4a565b1415611314576000600b60003373ffffffffffffffffffffffffffffffffffffffff1673ffffffffffffffffffffffffffffffffffffffff168152602001908152602001600020819055505b61135f33847f000000000000000000000000000000000000000000000000000000000000000073ffffffffffffffffffffffffffffffffffffffff166121e69092919063ffffffff16565b3373ffffffffffffffffffffffffffffffffffffffff163373ffffffffffffffffffffffffffffffffffffffff167f27d4634c833b7622a0acddbf7f746183625f105945e95c723ad1d5a9f2a0b6fc856040516113bc9190612661565b60405180910390a3505050505050565b600080600160006113db6119d2565b73ffffffffffffffffffffffffffffffffffffffff1673ffffffffffffffffffffffffffffffffffffffff16815260200190815260200160002060008573ffffffffffffffffffffffffffffffffffffffff1673ffffffffffffffffffffffffffffffffffffffff16815260200190815260200160002054905082811015611498576040517f08c379a000000000000000000000000000000000000000000000000000000000815260040161148f90612ffb565b60405180910390fd5b6114ac6114a36119d2565b858584036119da565b600191505092915050565b6000806114c333610e4d565b905060006114cf6106f8565b905080600a60003373ffffffffffffffffffffffffffffffffffffffff1673ffffffffffffffffffffffffffffffffffffffff1681526020019081526020016000205461151c9190612b38565b600a60003373ffffffffffffffffffffffffffffffffffffffff1673ffffffffffffffffffffffffffffffffffffffff168152602001908152602001600020819055508473ffffffffffffffffffffffffffffffffffffffff163373ffffffffffffffffffffffffffffffffffffffff161461172b57600061159d86610e4d565b905060006115a96106f8565b905080600a60008973ffffffffffffffffffffffffffffffffffffffff1673ffffffffffffffffffffffffffffffffffffffff168152602001908152602001600020546115f69190612b38565b600a60008973ffffffffffffffffffffffffffffffffffffffff1673ffffffffffffffffffffffffffffffffffffffff168152602001908152602001600020819055506000600b60003373ffffffffffffffffffffffffffffffffffffffff1673ffffffffffffffffffffffffffffffffffffffff16815260200190815260200160002054905061168981888a866117c9565b600b60008a73ffffffffffffffffffffffffffffffffffffffff1673ffffffffffffffffffffffffffffffffffffffff1681526020019081526020016000208190555086851480156116dc575060008114155b15611727576000600b60003373ffffffffffffffffffffffffffffffffffffffff1673ffffffffffffffffffffffffffffffffffffffff168152602001908152602001600020819055505b5050505b611736338686611ba5565b60019250505092915050565b6000600160008473ffffffffffffffffffffffffffffffffffffffff1673ffffffffffffffffffffffffffffffffffffffff16815260200190815260200160002060008373ffffffffffffffffffffffffffffffffffffffff1673ffffffffffffffffffffffffffffffffffffffff16815260200190815260200160002054905092915050565b600080600b60008573ffffffffffffffffffffffffffffffffffffffff1673ffffffffffffffffffffffffffffffffffffffff16815260200190815260200160002054905060008114156118215760009150506118f5565b60007f00000000000000000000000000000000000000000000000000000000000000007f0000000000000000000000000000000000000000000000000000000000000000426118709190612a4a565b61187a9190612a4a565b90508181111561188d57600091506118ef565b600087821161189c578761189e565b425b9050828110156118b3578293505050506118f5565b84876118bf9190612b38565b83866118cb9190612a7e565b82896118d79190612a7e565b6118e19190612b38565b6118eb9190612b07565b9250505b81925050505b949350505050565b6119056124e3565b600560405180604001604052908160008201548152602001600182015481525050905042816020015110156119cf57600061193e61081f565b905060008111156119a957600082602001514261195b9190612a4a565b905060006007548261196d9190612a7e565b905082670de0b6b3a7640000826119849190612a7e565b61198e9190612b07565b8460000181815161199f9190612b38565b9150818152505050505b428260200181815250508160056000820151816000015560208201518160010155905050505b90565b600033905090565b600073ffffffffffffffffffffffffffffffffffffffff168373ffffffffffffffffffffffffffffffffffffffff161415611a4a576040517f08c379a0000000000000000000000000000000000000000000000000000000008152600401611a419061308d565b60405180910390fd5b600073ffffffffffffffffffffffffffffffffffffffff168273ffffffffffffffffffffffffffffffffffffffff161415611aba576040517f08c379a0000000000000000000000000000000000000000000000000000000008152600401611ab19061311f565b60405180910390fd5b80600160008573ffffffffffffffffffffffffffffffffffffffff1673ffffffffffffffffffffffffffffffffffffffff16815260200190815260200160002060008473ffffffffffffffffffffffffffffffffffffffff1673ffffffffffffffffffffffffffffffffffffffff168152602001908152602001600020819055508173ffffffffffffffffffffffffffffffffffffffff168373ffffffffffffffffffffffffffffffffffffffff167f8c5be1e5ebec7d5bd14f71427d1e84f3dd0314c0f7b2291e5b200ac8c7c3b92583604051611b989190612661565b60405180910390a3505050565b600073ffffffffffffffffffffffffffffffffffffffff168373ffffffffffffffffffffffffffffffffffffffff161415611c15576040517f08c379a0000000000000000000000000000000000000000000000000000000008152600401611c0c906131b1565b60405180910390fd5b600073ffffffffffffffffffffffffffffffffffffffff168273ffffffffffffffffffffffffffffffffffffffff161415611c85576040517f08c379a0000000000000000000000000000000000000000000000000000000008152600401611c7c90613243565b60405180910390fd5b611c9083838361226c565b60008060008573ffffffffffffffffffffffffffffffffffffffff1673ffffffffffffffffffffffffffffffffffffffff16815260200190815260200160002054905081811015611d16576040517f08c379a0000000000000000000000000000000000000000000000000000000008152600401611d0d906132d5565b60405180910390fd5b8181036000808673ffffffffffffffffffffffffffffffffffffffff1673ffffffffffffffffffffffffffffffffffffffff16815260200190815260200160002081905550816000808573ffffffffffffffffffffffffffffffffffffffff1673ffffffffffffffffffffffffffffffffffffffff1681526020019081526020016000206000828254611da99190612b38565b925050819055508273ffffffffffffffffffffffffffffffffffffffff168473ffffffffffffffffffffffffffffffffffffffff167fddf252ad1be2c89b69c2b068fc378daa952ba7f163c4a11628f55a4df523b3ef84604051611e0d9190612661565b60405180910390a3611e20848484612271565b50505050565b600073ffffffffffffffffffffffffffffffffffffffff168273ffffffffffffffffffffffffffffffffffffffff161415611e96576040517f08c379a0000000000000000000000000000000000000000000000000000000008152600401611e8d90613341565b60405180910390fd5b611ea26000838361226c565b8060026000828254611eb49190612b38565b92505081905550806000808473ffffffffffffffffffffffffffffffffffffffff1673ffffffffffffffffffffffffffffffffffffffff1681526020019081526020016000206000828254611f099190612b38565b925050819055508173ffffffffffffffffffffffffffffffffffffffff16600073ffffffffffffffffffffffffffffffffffffffff167fddf252ad1be2c89b69c2b068fc378daa952ba7f163c4a11628f55a4df523b3ef83604051611f6e9190612661565b60405180910390a3611f8260008383612271565b5050565b612009846323b872dd60e01b858585604051602401611fa793929190613361565b604051602081830303815290604052907bffffffffffffffffffffffffffffffffffffffffffffffffffffffff19166020820180517bffffffffffffffffffffffffffffffffffffffffffffffffffffffff8381831617835250505050612276565b50505050565b600073ffffffffffffffffffffffffffffffffffffffff168273ffffffffffffffffffffffffffffffffffffffff16141561207f576040517f08c379a00000000000000000000000000000000000000000000000000000000081526004016120769061340a565b60405180910390fd5b61208b8260008361226c565b60008060008473ffffffffffffffffffffffffffffffffffffffff1673ffffffffffffffffffffffffffffffffffffffff16815260200190815260200160002054905081811015612111576040517f08c379a00000000000000000000000000000000000000000000000000000000081526004016121089061349c565b60405180910390fd5b8181036000808573ffffffffffffffffffffffffffffffffffffffff1673ffffffffffffffffffffffffffffffffffffffff1681526020019081526020016000208190555081600260008282546121689190612a4a565b92505081905550600073ffffffffffffffffffffffffffffffffffffffff168373ffffffffffffffffffffffffffffffffffffffff167fddf252ad1be2c89b69c2b068fc378daa952ba7f163c4a11628f55a4df523b3ef846040516121cd9190612661565b60405180910390a36121e183600084612271565b505050565b6122678363a9059cbb60e01b8484604051602401612205929190612cc3565b604051602081830303815290604052907bffffffffffffffffffffffffffffffffffffffffffffffffffffffff19166020820180517bffffffffffffffffffffffffffffffffffffffffffffffffffffffff8381831617835250505050612276565b505050565b505050565b505050565b60006122d8826040518060400160405280602081526020017f5361666545524332303a206c6f772d6c6576656c2063616c6c206661696c65648152508573ffffffffffffffffffffffffffffffffffffffff1661233d9092919063ffffffff16565b905060008151111561233857808060200190518101906122f89190612d18565b612337576040517f08c379a000000000000000000000000000000000000000000000000000000000815260040161232e9061352e565b60405180910390fd5b5b505050565b606061234c8484600085612355565b90509392505050565b60608247101561239a576040517f08c379a0000000000000000000000000000000000000000000000000000000008152600401612391906135c0565b60405180910390fd5b6123a385612469565b6123e2576040517f08c379a00000000000000000000000000000000000000000000000000000000081526004016123d99061362c565b60405180910390fd5b6000808673ffffffffffffffffffffffffffffffffffffffff16858760405161240b9190613693565b60006040518083038185875af1925050503d8060008114612448576040519150601f19603f3d011682016040523d82523d6000602084013e61244d565b606091505b509150915061245d82828661247c565b92505050949350505050565b600080823b905060008111915050919050565b6060831561248c578290506124dc565b60008351111561249f5782518084602001fd5b816040517f08c379a00000000000000000000000000000000000000000000000000000000081526004016124d39190612596565b60405180910390fd5b9392505050565b604051806040016040528060008152602001600081525090565b600081519050919050565b600082825260208201905092915050565b60005b8381101561253757808201518184015260208101905061251c565b83811115612546576000848401525b50505050565b6000601f19601f8301169050919050565b6000612568826124fd565b6125728185612508565b9350612582818560208601612519565b61258b8161254c565b840191505092915050565b600060208201905081810360008301526125b0818461255d565b905092915050565b600080fd5b600073ffffffffffffffffffffffffffffffffffffffff82169050919050565b60006125e8826125bd565b9050919050565b6125f8816125dd565b811461260357600080fd5b50565b600081359050612615816125ef565b92915050565b600060208284031215612631576126306125b8565b5b600061263f84828501612606565b91505092915050565b6000819050919050565b61265b81612648565b82525050565b60006020820190506126766000830184612652565b92915050565b61268581612648565b811461269057600080fd5b50565b6000813590506126a28161267c565b92915050565b600080604083850312156126bf576126be6125b8565b5b60006126cd85828601612606565b92505060206126de85828601612693565b9150509250929050565b60008115159050919050565b6126fd816126e8565b82525050565b600060208201905061271860008301846126f4565b92915050565b6000819050919050565b6127318161271e565b82525050565b600060408201905061274c6000830185612652565b6127596020830184612728565b9392505050565b60006040820190506127756000830185612652565b6127826020830184612652565b9392505050565b6000806000606084860312156127a2576127a16125b8565b5b60006127b086828701612606565b93505060206127c186828701612606565b92505060406127d286828701612693565b9150509250925092565b6000819050919050565b60006128016127fc6127f7846125bd565b6127dc565b6125bd565b9050919050565b6000612813826127e6565b9050919050565b600061282582612808565b9050919050565b6128358161281a565b82525050565b6000602082019050612850600083018461282c565b92915050565b600060ff82169050919050565b61286c81612856565b82525050565b60006020820190506128876000830184612863565b92915050565b6000602082840312156128a3576128a26125b8565b5b60006128b184828501612693565b91505092915050565b600080604083850312156128d1576128d06125b8565b5b60006128df85828601612606565b92505060206128f085828601612606565b9150509250929050565b60008060008060808587031215612914576129136125b8565b5b600061292287828801612693565b945050602061293387828801612693565b935050604061294487828801612606565b925050606061295587828801612693565b91505092959194509250565b61296a81612648565b82525050565b6040820160008201516129866000850182612961565b5060208201516129996020850182612961565b50505050565b60006040820190506129b46000830184612970565b92915050565b7f4e487b7100000000000000000000000000000000000000000000000000000000600052602260045260246000fd5b60006002820490506001821680612a0157607f821691505b60208210811415612a1557612a146129ba565b5b50919050565b7f4e487b7100000000000000000000000000000000000000000000000000000000600052601160045260246000fd5b6000612a5582612648565b9150612a6083612648565b925082821015612a7357612a72612a1b565b5b828203905092915050565b6000612a8982612648565b9150612a9483612648565b9250817fffffffffffffffffffffffffffffffffffffffffffffffffffffffffffffffff0483118215151615612acd57612acc612a1b565b5b828202905092915050565b7f4e487b7100000000000000000000000000000000000000000000000000000000600052601260045260246000fd5b6000612b1282612648565b9150612b1d83612648565b925082612b2d57612b2c612ad8565b5b828204905092915050565b6000612b4382612648565b9150612b4e83612648565b9250827fffffffffffffffffffffffffffffffffffffffffffffffffffffffffffffffff03821115612b8357612b82612a1b565b5b828201905092915050565b6000612b998261271e565b9150612ba48361271e565b9250827f800000000000000000000000000000000000000000000000000000000000000001821260008412151615612bdf57612bde612a1b565b5b827f7fffffffffffffffffffffffffffffffffffffffffffffffffffffffffffffff018213600084121615612c1757612c16612a1b565b5b828203905092915050565b7f45524332303a207472616e7366657220616d6f756e742065786365656473206160008201527f6c6c6f77616e6365000000000000000000000000000000000000000000000000602082015250565b6000612c7e602883612508565b9150612c8982612c22565b604082019050919050565b60006020820190508181036000830152612cad81612c71565b9050919050565b612cbd816125dd565b82525050565b6000604082019050612cd86000830185612cb4565b612ce56020830184612652565b9392505050565b612cf5816126e8565b8114612d0057600080fd5b50565b600081519050612d1281612cec565b92915050565b600060208284031215612d2e57612d2d6125b8565b5b6000612d3c84828501612d03565b91505092915050565b7f564c46493a494e56414c49445f414d4f554e5400000000000000000000000000600082015250565b6000612d7b601383612508565b9150612d8682612d45565b602082019050919050565b60006020820190508181036000830152612daa81612d6e565b9050919050565b6000612dbc8261271e565b9150612dc78361271e565b9250817f7fffffffffffffffffffffffffffffffffffffffffffffffffffffffffffffff03831360008312151615612e0257612e01612a1b565b5b817f8000000000000000000000000000000000000000000000000000000000000000038312600083121615612e3a57612e39612a1b565b5b828201905092915050565b7f564c46493a494e56414c49445f42414c414e43455f4f4e5f434f4f4c444f574e600082015250565b6000612e7b602083612508565b9150612e8682612e45565b602082019050919050565b60006020820190508181036000830152612eaa81612e6e565b9050919050565b7f564c46493a494e53554646494349454e545f434f4f4c444f574e000000000000600082015250565b6000612ee7601a83612508565b9150612ef282612eb1565b602082019050919050565b60006020820190508181036000830152612f1681612eda565b9050919050565b7f564c46493a554e5354414b455f57494e444f575f46494e495348454400000000600082015250565b6000612f53601c83612508565b9150612f5e82612f1d565b602082019050919050565b60006020820190508181036000830152612f8281612f46565b9050919050565b7f45524332303a2064656372656173656420616c6c6f77616e63652062656c6f7760008201527f207a65726f000000000000000000000000000000000000000000000000000000602082015250565b6000612fe5602583612508565b9150612ff082612f89565b604082019050919050565b6000602082019050818103600083015261301481612fd8565b9050919050565b7f45524332303a20617070726f76652066726f6d20746865207a65726f2061646460008201527f7265737300000000000000000000000000000000000000000000000000000000602082015250565b6000613077602483612508565b91506130828261301b565b604082019050919050565b600060208201905081810360008301526130a68161306a565b9050919050565b7f45524332303a20617070726f766520746f20746865207a65726f20616464726560008201527f7373000000000000000000000000000000000000000000000000000000000000602082015250565b6000613109602283612508565b9150613114826130ad565b604082019050919050565b60006020820190508181036000830152613138816130fc565b9050919050565b7f45524332303a207472616e736665722066726f6d20746865207a65726f20616460008201527f6472657373000000000000000000000000000000000000000000000000000000602082015250565b600061319b602583612508565b91506131a68261313f565b604082019050919050565b600060208201905081810360008301526131ca8161318e565b9050919050565b7f45524332303a207472616e7366657220746f20746865207a65726f206164647260008201527f6573730000000000000000000000000000000000000000000000000000000000602082015250565b600061322d602383612508565b9150613238826131d1565b604082019050919050565b6000602082019050818103600083015261325c81613220565b9050919050565b7f45524332303a207472616e7366657220616d6f756e742065786365656473206260008201527f616c616e63650000000000000000000000000000000000000000000000000000602082015250565b60006132bf602683612508565b91506132ca82613263565b604082019050919050565b600060208201905081810360008301526132ee816132b2565b9050919050565b7f45524332303a206d696e7420746f20746865207a65726f206164647265737300600082015250565b600061332b601f83612508565b9150613336826132f5565b602082019050919050565b6000602082019050818103600083015261335a8161331e565b9050919050565b60006060820190506133766000830186612cb4565b6133836020830185612cb4565b6133906040830184612652565b949350505050565b7f45524332303a206275726e2066726f6d20746865207a65726f2061646472657360008201527f7300000000000000000000000000000000000000000000000000000000000000602082015250565b60006133f4602183612508565b91506133ff82613398565b604082019050919050565b60006020820190508181036000830152613423816133e7565b9050919050565b7f45524332303a206275726e20616d6f756e7420657863656564732062616c616e60008201527f6365000000000000000000000000000000000000000000000000000000000000602082015250565b6000613486602283612508565b91506134918261342a565b604082019050919050565b600060208201905081810360008301526134b581613479565b9050919050565b7f5361666545524332303a204552433230206f7065726174696f6e20646964206e60008201527f6f74207375636365656400000000000000000000000000000000000000000000602082015250565b6000613518602a83612508565b9150613523826134bc565b604082019050919050565b600060208201905081810360008301526135478161350b565b9050919050565b7f416464726573733a20696e73756666696369656e742062616c616e636520666f60008201527f722063616c6c0000000000000000000000000000000000000000000000000000602082015250565b60006135aa602683612508565b91506135b58261354e565b604082019050919050565b600060208201905081810360008301526135d98161359d565b9050919050565b7f416464726573733a2063616c6c20746f206e6f6e2d636f6e7472616374000000600082015250565b6000613616601d83612508565b9150613621826135e0565b602082019050919050565b6000602082019050818103600083015261364581613609565b9050919050565b600081519050919050565b600081905092915050565b600061366d8261364c565b6136778185613657565b9350613687818560208601612519565b80840191505092915050565b600061369f8284613662565b91508190509291505056fea264697066735822122080cde42ab37928be7c26dc92cce0cf756d8586456db6ff474c75abb2df0d7a2e64736f6c634300080a0033",
  "linkReferences": {},
  "deployedLinkReferences": {}
}