{
  "_format": "hh-sol-artifact-1",
  "contractName": "VLFI",
  "sourceName": "contracts/VLFI.sol",
  "abi": [
    {
      "anonymous": false,
      "inputs": [
        {
          "indexed": true,
          "internalType": "address",
          "name": "owner",
          "type": "address"
        },
        {
          "indexed": true,
          "internalType": "address",
          "name": "spender",
          "type": "address"
        },
        {
          "indexed": false,
          "internalType": "uint256",
          "name": "value",
          "type": "uint256"
        }
      ],
      "name": "Approval",
      "type": "event"
    },
    {
      "anonymous": false,
      "inputs": [
        {
          "indexed": true,
          "internalType": "address",
          "name": "user",
          "type": "address"
        }
      ],
      "name": "CooldownActivated",
      "type": "event"
    },
    {
      "anonymous": false,
      "inputs": [
        {
          "indexed": true,
          "internalType": "address",
          "name": "delegator",
          "type": "address"
        },
        {
          "indexed": true,
          "internalType": "address",
          "name": "fromDelegate",
          "type": "address"
        },
        {
          "indexed": true,
          "internalType": "address",
          "name": "toDelegate",
          "type": "address"
        }
      ],
      "name": "DelegateChanged",
      "type": "event"
    },
    {
      "anonymous": false,
      "inputs": [
        {
          "indexed": true,
          "internalType": "address",
          "name": "delegate",
          "type": "address"
        },
        {
          "indexed": false,
          "internalType": "uint256",
          "name": "previousBalance",
          "type": "uint256"
        },
        {
          "indexed": false,
          "internalType": "uint256",
          "name": "newBalance",
          "type": "uint256"
        }
      ],
      "name": "DelegateVotesChanged",
      "type": "event"
    },
    {
      "anonymous": false,
      "inputs": [
        {
          "indexed": true,
          "internalType": "address",
          "name": "from",
          "type": "address"
        },
        {
          "indexed": true,
          "internalType": "address",
          "name": "to",
          "type": "address"
        },
        {
          "indexed": false,
          "internalType": "uint256",
          "name": "amount",
          "type": "uint256"
        }
      ],
      "name": "RewardsClaimed",
      "type": "event"
    },
    {
      "anonymous": false,
      "inputs": [
        {
          "indexed": true,
          "internalType": "bytes32",
          "name": "role",
          "type": "bytes32"
        },
        {
          "indexed": true,
          "internalType": "bytes32",
          "name": "previousAdminRole",
          "type": "bytes32"
        },
        {
          "indexed": true,
          "internalType": "bytes32",
          "name": "newAdminRole",
          "type": "bytes32"
        }
      ],
      "name": "RoleAdminChanged",
      "type": "event"
    },
    {
      "anonymous": false,
      "inputs": [
        {
          "indexed": true,
          "internalType": "bytes32",
          "name": "role",
          "type": "bytes32"
        },
        {
          "indexed": true,
          "internalType": "address",
          "name": "account",
          "type": "address"
        },
        {
          "indexed": true,
          "internalType": "address",
          "name": "sender",
          "type": "address"
        }
      ],
      "name": "RoleGranted",
      "type": "event"
    },
    {
      "anonymous": false,
      "inputs": [
        {
          "indexed": true,
          "internalType": "bytes32",
          "name": "role",
          "type": "bytes32"
        },
        {
          "indexed": true,
          "internalType": "address",
          "name": "account",
          "type": "address"
        },
        {
          "indexed": true,
          "internalType": "address",
          "name": "sender",
          "type": "address"
        }
      ],
      "name": "RoleRevoked",
      "type": "event"
    },
    {
      "anonymous": false,
      "inputs": [
        {
          "indexed": true,
          "internalType": "address",
          "name": "from",
          "type": "address"
        },
        {
          "indexed": true,
          "internalType": "address",
          "name": "onBehalfOf",
          "type": "address"
        },
        {
          "indexed": false,
          "internalType": "uint256",
          "name": "amount",
          "type": "uint256"
        }
      ],
      "name": "Staked",
      "type": "event"
    },
    {
      "anonymous": false,
      "inputs": [
        {
          "indexed": true,
          "internalType": "address",
          "name": "from",
          "type": "address"
        },
        {
          "indexed": true,
          "internalType": "address",
          "name": "to",
          "type": "address"
        },
        {
          "indexed": false,
          "internalType": "uint256",
          "name": "value",
          "type": "uint256"
        }
      ],
      "name": "Transfer",
      "type": "event"
    },
    {
      "anonymous": false,
      "inputs": [
        {
          "indexed": true,
          "internalType": "address",
          "name": "from",
          "type": "address"
        },
        {
          "indexed": true,
          "internalType": "address",
          "name": "to",
          "type": "address"
        },
        {
          "indexed": false,
          "internalType": "uint256",
          "name": "amount",
          "type": "uint256"
        }
      ],
      "name": "UnStaked",
      "type": "event"
    },
    {
      "inputs": [],
      "name": "DEFAULT_ADMIN_ROLE",
      "outputs": [
        {
          "internalType": "bytes32",
          "name": "",
          "type": "bytes32"
        }
      ],
      "stateMutability": "view",
      "type": "function"
    },
    {
      "inputs": [],
      "name": "DOMAIN_SEPARATOR",
      "outputs": [
        {
          "internalType": "bytes32",
          "name": "",
          "type": "bytes32"
        }
      ],
      "stateMutability": "view",
      "type": "function"
    },
    {
      "inputs": [],
      "name": "MANAGER_ROLE",
      "outputs": [
        {
          "internalType": "bytes32",
          "name": "",
          "type": "bytes32"
        }
      ],
      "stateMutability": "view",
      "type": "function"
    },
    {
      "inputs": [],
      "name": "STAKED_TOKEN",
      "outputs": [
        {
          "internalType": "contract ILFIToken",
          "name": "",
          "type": "address"
        }
      ],
      "stateMutability": "view",
      "type": "function"
    },
    {
      "inputs": [],
      "name": "activateCooldown",
      "outputs": [],
      "stateMutability": "nonpayable",
      "type": "function"
    },
    {
      "inputs": [
        {
          "internalType": "address",
          "name": "owner",
          "type": "address"
        },
        {
          "internalType": "address",
          "name": "spender",
          "type": "address"
        }
      ],
      "name": "allowance",
      "outputs": [
        {
          "internalType": "uint256",
          "name": "",
          "type": "uint256"
        }
      ],
      "stateMutability": "view",
      "type": "function"
    },
    {
      "inputs": [
        {
          "internalType": "address",
          "name": "spender",
          "type": "address"
        },
        {
          "internalType": "uint256",
          "name": "amount",
          "type": "uint256"
        }
      ],
      "name": "approve",
      "outputs": [
        {
          "internalType": "bool",
          "name": "",
          "type": "bool"
        }
      ],
      "stateMutability": "nonpayable",
      "type": "function"
    },
    {
      "inputs": [
        {
          "internalType": "address",
          "name": "account",
          "type": "address"
        }
      ],
      "name": "balanceOf",
      "outputs": [
        {
          "internalType": "uint256",
          "name": "",
          "type": "uint256"
        }
      ],
      "stateMutability": "view",
      "type": "function"
    },
    {
      "inputs": [
        {
          "internalType": "address",
          "name": "account",
          "type": "address"
        },
        {
          "internalType": "uint32",
          "name": "pos",
          "type": "uint32"
        }
      ],
      "name": "checkpoints",
      "outputs": [
        {
          "components": [
            {
              "internalType": "uint32",
              "name": "fromBlock",
              "type": "uint32"
            },
            {
              "internalType": "uint224",
              "name": "votes",
              "type": "uint224"
            }
          ],
          "internalType": "struct ERC20VotesUpgradeable.Checkpoint",
          "name": "",
          "type": "tuple"
        }
      ],
      "stateMutability": "view",
      "type": "function"
    },
    {
      "inputs": [
        {
          "internalType": "address",
          "name": "to",
          "type": "address"
        }
      ],
      "name": "claimRewards",
      "outputs": [],
      "stateMutability": "nonpayable",
      "type": "function"
    },
    {
      "inputs": [],
      "name": "createFarm",
      "outputs": [],
      "stateMutability": "nonpayable",
      "type": "function"
    },
    {
      "inputs": [],
      "name": "decimals",
      "outputs": [
        {
          "internalType": "uint8",
          "name": "",
          "type": "uint8"
        }
      ],
      "stateMutability": "view",
      "type": "function"
    },
    {
      "inputs": [
        {
          "internalType": "address",
          "name": "spender",
          "type": "address"
        },
        {
          "internalType": "uint256",
          "name": "subtractedValue",
          "type": "uint256"
        }
      ],
      "name": "decreaseAllowance",
      "outputs": [
        {
          "internalType": "bool",
          "name": "",
          "type": "bool"
        }
      ],
      "stateMutability": "nonpayable",
      "type": "function"
    },
    {
      "inputs": [
        {
          "internalType": "address",
          "name": "delegatee",
          "type": "address"
        }
      ],
      "name": "delegate",
      "outputs": [],
      "stateMutability": "nonpayable",
      "type": "function"
    },
    {
      "inputs": [
        {
          "internalType": "address",
          "name": "delegatee",
          "type": "address"
        },
        {
          "internalType": "uint256",
          "name": "nonce",
          "type": "uint256"
        },
        {
          "internalType": "uint256",
          "name": "expiry",
          "type": "uint256"
        },
        {
          "internalType": "uint8",
          "name": "v",
          "type": "uint8"
        },
        {
          "internalType": "bytes32",
          "name": "r",
          "type": "bytes32"
        },
        {
          "internalType": "bytes32",
          "name": "s",
          "type": "bytes32"
        }
      ],
      "name": "delegateBySig",
      "outputs": [],
      "stateMutability": "nonpayable",
      "type": "function"
    },
    {
      "inputs": [
        {
          "internalType": "address",
          "name": "account",
          "type": "address"
        }
      ],
      "name": "delegates",
      "outputs": [
        {
          "internalType": "address",
          "name": "",
          "type": "address"
        }
      ],
      "stateMutability": "view",
      "type": "function"
    },
    {
      "inputs": [],
      "name": "getAccRewardPerShare",
      "outputs": [
        {
          "internalType": "uint256",
          "name": "",
          "type": "uint256"
        }
      ],
      "stateMutability": "view",
      "type": "function"
    },
    {
      "inputs": [
        {
          "internalType": "address",
          "name": "staker",
          "type": "address"
        }
      ],
      "name": "getCooldown",
      "outputs": [
        {
          "internalType": "uint256",
          "name": "",
          "type": "uint256"
        }
      ],
      "stateMutability": "view",
      "type": "function"
    },
    {
      "inputs": [],
      "name": "getCooldownSeconds",
      "outputs": [
        {
          "internalType": "uint256",
          "name": "",
          "type": "uint256"
        }
      ],
      "stateMutability": "view",
      "type": "function"
    },
    {
      "inputs": [],
      "name": "getLastRewardTime",
      "outputs": [
        {
          "internalType": "uint256",
          "name": "",
          "type": "uint256"
        }
      ],
      "stateMutability": "view",
      "type": "function"
    },
    {
      "inputs": [],
      "name": "getLiquidityStatus",
      "outputs": [
        {
          "internalType": "uint256",
          "name": "",
          "type": "uint256"
        }
      ],
      "stateMutability": "view",
      "type": "function"
    },
    {
      "inputs": [
        {
          "internalType": "uint256",
          "name": "userCooldownTimestamp",
          "type": "uint256"
        },
        {
          "internalType": "uint256",
          "name": "amountToReceive",
          "type": "uint256"
        },
        {
          "internalType": "address",
          "name": "toAddress",
          "type": "address"
        },
        {
          "internalType": "uint256",
          "name": "toBalance",
          "type": "uint256"
        }
      ],
      "name": "getNextCooldownTimestamp",
      "outputs": [
        {
          "internalType": "uint256",
          "name": "",
          "type": "uint256"
        }
      ],
      "stateMutability": "view",
      "type": "function"
    },
    {
      "inputs": [
        {
          "internalType": "uint256",
          "name": "blockNumber",
          "type": "uint256"
        }
      ],
      "name": "getPastTotalSupply",
      "outputs": [
        {
          "internalType": "uint256",
          "name": "",
          "type": "uint256"
        }
      ],
      "stateMutability": "view",
      "type": "function"
    },
    {
      "inputs": [
        {
          "internalType": "address",
          "name": "account",
          "type": "address"
        },
        {
          "internalType": "uint256",
          "name": "blockNumber",
          "type": "uint256"
        }
      ],
      "name": "getPastVotes",
      "outputs": [
        {
          "internalType": "uint256",
          "name": "",
          "type": "uint256"
        }
      ],
      "stateMutability": "view",
      "type": "function"
    },
    {
      "inputs": [],
      "name": "getRewardPerSecond",
      "outputs": [
        {
          "internalType": "uint256",
          "name": "",
          "type": "uint256"
        }
      ],
      "stateMutability": "view",
      "type": "function"
    },
    {
      "inputs": [
        {
          "internalType": "address",
          "name": "benefitor",
          "type": "address"
        }
      ],
      "name": "getRewards",
      "outputs": [
        {
          "internalType": "uint256",
          "name": "pendingRewards",
          "type": "uint256"
        }
      ],
      "stateMutability": "view",
      "type": "function"
    },
    {
      "inputs": [
        {
          "internalType": "bytes32",
          "name": "role",
          "type": "bytes32"
        }
      ],
      "name": "getRoleAdmin",
      "outputs": [
        {
          "internalType": "bytes32",
          "name": "",
          "type": "bytes32"
        }
      ],
      "stateMutability": "view",
      "type": "function"
    },
    {
      "inputs": [],
      "name": "getUnstakeWindowTime",
      "outputs": [
        {
          "internalType": "uint256",
          "name": "",
          "type": "uint256"
        }
      ],
      "stateMutability": "view",
      "type": "function"
    },
    {
      "inputs": [
        {
          "internalType": "address",
          "name": "user",
          "type": "address"
        }
      ],
      "name": "getUserLFIDeposits",
      "outputs": [
        {
          "internalType": "uint256",
          "name": "",
          "type": "uint256"
        }
      ],
      "stateMutability": "view",
      "type": "function"
    },
    {
      "inputs": [
        {
          "internalType": "address",
          "name": "benefitor",
          "type": "address"
        }
      ],
      "name": "getUserRewardDebt",
      "outputs": [
        {
          "internalType": "int256",
          "name": "",
          "type": "int256"
        }
      ],
      "stateMutability": "view",
      "type": "function"
    },
    {
      "inputs": [
        {
          "internalType": "address",
          "name": "benefitor",
          "type": "address"
        }
      ],
      "name": "getUserVLFIAmount",
      "outputs": [
        {
          "internalType": "uint256",
          "name": "",
          "type": "uint256"
        }
      ],
      "stateMutability": "view",
      "type": "function"
    },
    {
      "inputs": [
        {
          "internalType": "address",
          "name": "account",
          "type": "address"
        }
      ],
      "name": "getVotes",
      "outputs": [
        {
          "internalType": "uint256",
          "name": "",
          "type": "uint256"
        }
      ],
      "stateMutability": "view",
      "type": "function"
    },
    {
      "inputs": [
        {
          "internalType": "bytes32",
          "name": "role",
          "type": "bytes32"
        },
        {
          "internalType": "address",
          "name": "account",
          "type": "address"
        }
      ],
      "name": "grantRole",
      "outputs": [],
      "stateMutability": "nonpayable",
      "type": "function"
    },
    {
      "inputs": [
        {
          "internalType": "bytes32",
          "name": "role",
          "type": "bytes32"
        },
        {
          "internalType": "address",
          "name": "account",
          "type": "address"
        }
      ],
      "name": "hasRole",
      "outputs": [
        {
          "internalType": "bool",
          "name": "",
          "type": "bool"
        }
      ],
      "stateMutability": "view",
      "type": "function"
    },
    {
      "inputs": [
        {
          "internalType": "address",
          "name": "spender",
          "type": "address"
        },
        {
          "internalType": "uint256",
          "name": "addedValue",
          "type": "uint256"
        }
      ],
      "name": "increaseAllowance",
      "outputs": [
        {
          "internalType": "bool",
          "name": "",
          "type": "bool"
        }
      ],
      "stateMutability": "nonpayable",
      "type": "function"
    },
    {
      "inputs": [
        {
          "internalType": "string",
          "name": "name",
          "type": "string"
        },
        {
          "internalType": "string",
          "name": "symbol",
          "type": "string"
        },
        {
          "internalType": "contract ILFIToken",
          "name": "stakedToken",
          "type": "address"
        },
        {
          "internalType": "uint256",
          "name": "cooldownSeconds",
          "type": "uint256"
        },
        {
          "internalType": "uint256",
          "name": "unstakeWindow",
          "type": "uint256"
        },
        {
          "internalType": "uint256",
          "name": "rewardsPerSecond",
          "type": "uint256"
        },
        {
          "internalType": "uint256",
          "name": "treasuryWithdrawlPercentage",
          "type": "uint256"
        }
      ],
      "name": "initialize",
      "outputs": [],
      "stateMutability": "nonpayable",
      "type": "function"
    },
    {
      "inputs": [],
      "name": "maxTreasuryWithdrawalPercentage",
      "outputs": [
        {
          "internalType": "uint256",
          "name": "",
          "type": "uint256"
        }
      ],
      "stateMutability": "view",
      "type": "function"
    },
    {
      "inputs": [],
      "name": "name",
      "outputs": [
        {
          "internalType": "string",
          "name": "",
          "type": "string"
        }
      ],
      "stateMutability": "view",
      "type": "function"
    },
    {
      "inputs": [
        {
          "internalType": "address",
          "name": "owner",
          "type": "address"
        }
      ],
      "name": "nonces",
      "outputs": [
        {
          "internalType": "uint256",
          "name": "",
          "type": "uint256"
        }
      ],
      "stateMutability": "view",
      "type": "function"
    },
    {
      "inputs": [
        {
          "internalType": "address",
          "name": "account",
          "type": "address"
        }
      ],
      "name": "numCheckpoints",
      "outputs": [
        {
          "internalType": "uint32",
          "name": "",
          "type": "uint32"
        }
      ],
      "stateMutability": "view",
      "type": "function"
    },
    {
      "inputs": [
        {
          "internalType": "address",
          "name": "owner",
          "type": "address"
        },
        {
          "internalType": "address",
          "name": "spender",
          "type": "address"
        },
        {
          "internalType": "uint256",
          "name": "value",
          "type": "uint256"
        },
        {
          "internalType": "uint256",
          "name": "deadline",
          "type": "uint256"
        },
        {
          "internalType": "uint8",
          "name": "v",
          "type": "uint8"
        },
        {
          "internalType": "bytes32",
          "name": "r",
          "type": "bytes32"
        },
        {
          "internalType": "bytes32",
          "name": "s",
          "type": "bytes32"
        }
      ],
      "name": "permit",
      "outputs": [],
      "stateMutability": "nonpayable",
      "type": "function"
    },
    {
      "inputs": [
        {
          "internalType": "address",
          "name": "owner",
          "type": "address"
        },
        {
          "internalType": "address",
          "name": "spender",
          "type": "address"
        },
        {
          "internalType": "uint256",
          "name": "value",
          "type": "uint256"
        },
        {
          "internalType": "uint256",
          "name": "deadline",
          "type": "uint256"
        },
        {
          "internalType": "uint8",
          "name": "v",
          "type": "uint8"
        },
        {
          "internalType": "bytes32",
          "name": "r",
          "type": "bytes32"
        },
        {
          "internalType": "bytes32",
          "name": "s",
          "type": "bytes32"
        },
        {
          "internalType": "address",
          "name": "onBehalfOf",
          "type": "address"
        },
        {
          "internalType": "uint256",
          "name": "LFIamount",
          "type": "uint256"
        }
      ],
      "name": "permitAndStake",
      "outputs": [],
      "stateMutability": "nonpayable",
      "type": "function"
    },
    {
      "inputs": [
        {
          "internalType": "bytes32",
          "name": "role",
          "type": "bytes32"
        },
        {
          "internalType": "address",
          "name": "account",
          "type": "address"
        }
      ],
      "name": "renounceRole",
      "outputs": [],
      "stateMutability": "nonpayable",
      "type": "function"
    },
    {
      "inputs": [
        {
          "internalType": "bytes32",
          "name": "role",
          "type": "bytes32"
        },
        {
          "internalType": "address",
          "name": "account",
          "type": "address"
        }
      ],
      "name": "revokeRole",
      "outputs": [],
      "stateMutability": "nonpayable",
      "type": "function"
    },
    {
      "inputs": [
        {
          "internalType": "uint256",
          "name": "coolDownSeconds",
          "type": "uint256"
        }
      ],
      "name": "setCooldownSeconds",
      "outputs": [],
      "stateMutability": "nonpayable",
      "type": "function"
    },
    {
      "inputs": [
        {
          "internalType": "uint256",
          "name": "percentage",
          "type": "uint256"
        }
      ],
      "name": "setMaxTreasuryWithdrawalPercentage",
      "outputs": [],
      "stateMutability": "nonpayable",
      "type": "function"
    },
    {
      "inputs": [
        {
          "internalType": "uint256",
          "name": "_rewardPerSecond",
          "type": "uint256"
        }
      ],
      "name": "setRewardPerSecond",
      "outputs": [],
      "stateMutability": "nonpayable",
      "type": "function"
    },
    {
      "inputs": [
        {
          "internalType": "uint256",
          "name": "unstakeWindow",
          "type": "uint256"
        }
      ],
      "name": "setUnstakeWindowTime",
      "outputs": [],
      "stateMutability": "nonpayable",
      "type": "function"
    },
    {
      "inputs": [
        {
          "internalType": "address",
          "name": "onBehalfOf",
          "type": "address"
        },
        {
          "internalType": "uint256",
          "name": "amount",
          "type": "uint256"
        }
      ],
      "name": "stake",
      "outputs": [],
      "stateMutability": "nonpayable",
      "type": "function"
    },
    {
      "inputs": [
        {
          "internalType": "bytes4",
          "name": "interfaceId",
          "type": "bytes4"
        }
      ],
      "name": "supportsInterface",
      "outputs": [
        {
          "internalType": "bool",
          "name": "",
          "type": "bool"
        }
      ],
      "stateMutability": "view",
      "type": "function"
    },
    {
      "inputs": [],
      "name": "symbol",
      "outputs": [
        {
          "internalType": "string",
          "name": "",
          "type": "string"
        }
      ],
      "stateMutability": "view",
      "type": "function"
    },
    {
      "inputs": [],
      "name": "totalSupply",
      "outputs": [
        {
          "internalType": "uint256",
          "name": "",
          "type": "uint256"
        }
      ],
      "stateMutability": "view",
      "type": "function"
    },
    {
      "inputs": [
        {
          "internalType": "address",
          "name": "to",
          "type": "address"
        },
        {
          "internalType": "uint256",
          "name": "amount",
          "type": "uint256"
        }
      ],
      "name": "transfer",
      "outputs": [
        {
          "internalType": "bool",
          "name": "",
          "type": "bool"
        }
      ],
      "stateMutability": "nonpayable",
      "type": "function"
    },
    {
      "inputs": [
        {
          "internalType": "address",
          "name": "from",
          "type": "address"
        },
        {
          "internalType": "address",
          "name": "to",
          "type": "address"
        },
        {
          "internalType": "uint256",
          "name": "amount",
          "type": "uint256"
        }
      ],
      "name": "transferFrom",
      "outputs": [
        {
          "internalType": "bool",
          "name": "",
          "type": "bool"
        }
      ],
      "stateMutability": "nonpayable",
      "type": "function"
    },
    {
      "inputs": [
        {
          "internalType": "address",
          "name": "to",
          "type": "address"
        },
        {
          "internalType": "uint256",
          "name": "treasuryWithdrawal",
          "type": "uint256"
        }
      ],
      "name": "transferToTreasury",
      "outputs": [],
      "stateMutability": "nonpayable",
      "type": "function"
    },
    {
      "inputs": [
        {
          "internalType": "address",
          "name": "to",
          "type": "address"
        },
        {
          "internalType": "uint256",
          "name": "amount",
          "type": "uint256"
        }
      ],
      "name": "unStake",
      "outputs": [],
      "stateMutability": "nonpayable",
      "type": "function"
    },
    {
      "inputs": [],
      "name": "updateFarm",
      "outputs": [
        {
          "components": [
            {
              "internalType": "uint256",
              "name": "accRewardsPerShare",
              "type": "uint256"
            },
            {
              "internalType": "uint256",
              "name": "lastRewardTime",
              "type": "uint256"
            }
          ],
          "internalType": "struct VLFI.FarmInfo",
          "name": "farm",
          "type": "tuple"
        }
      ],
      "stateMutability": "nonpayable",
      "type": "function"
    }
  ],
  "bytecode": "0x608060405234801561001057600080fd5b50613c23806100206000396000f3fe608060405234801561001057600080fd5b50600436106103835760003560e01c806379ee54f7116101de578063adc9772e1161010f578063d9393814116100ad578063ef5cfb8c1161007c578063ef5cfb8c146107ee578063f1127ed814610801578063f1cc432a1461083e578063f54ca63c1461085157600080fd5b8063d939381414610784578063da5b4ee714610797578063dd62ed3e146107a0578063ec87621c146107d957600080fd5b8063d505accf116100e9578063d505accf14610741578063d547741f14610754578063d876246f14610767578063d92aec591461077157600080fd5b8063adc9772e146106ee578063c3cda52014610701578063c61fbcc51461071457600080fd5b80639a00a6a31161017c578063a217fddf11610156578063a217fddf146106ad578063a457c2d7146106b5578063a9059cbb146106c8578063ad88918f146106db57600080fd5b80639a00a6a31461065d5780639ab24eb0146106875780639dd267e61461069a57600080fd5b80637ecebe00116101b85780637ecebe001461061c5780638e539e8c1461062f57806391d148541461064257806395d89b411461065557600080fd5b806379ee54f7146105e35780637a45c441146105f65780637b5b11571461060957600080fd5b806339b84ecf116102b85780635c19a95c116102565780636c07d9fe116102305780636c07d9fe146105755780636fcfff451461057e57806370a08231146105a6578063733d07be146105b957600080fd5b80635c19a95c14610546578063616e0bf91461055957806366da58151461056257600080fd5b80633e340dae116102925780633e340dae146104f55780634853b3b2146104fe578063587cde1e146105065780635ac3ce121461053357600080fd5b806339b84ecf146104af5780633a46b1a8146104d95780633c0717fd146104ec57600080fd5b8063248a9ca311610325578063313ce567116102ff578063313ce567146104725780633644e5151461048157806336568abe14610489578063395093511461049c57600080fd5b8063248a9ca3146104105780632f2ff15d14610433578063312f6b831461044657600080fd5b806318160ddd1161036157806318160ddd146103d85780631d5ec3cb146103ea5780631f477ea9146103f457806323b872dd146103fd57600080fd5b806301ffc9a71461038857806306fdde03146103b0578063095ea7b3146103c5575b600080fd5b61039b6103963660046133a6565b610874565b60405190151581526020015b60405180910390f35b6103b86108ab565b6040516103a791906133fc565b61039b6103d3366004613444565b61093d565b6067545b6040519081526020016103a7565b6103f2610955565b005b610166546103dc565b61039b61040b366004613470565b610991565b6103dc61041e3660046134b1565b600090815260fe602052604090206001015490565b6103f26104413660046134ca565b6109b5565b6101625461045a906001600160a01b031681565b6040516001600160a01b0390911681526020016103a7565b604051601281526020016103a7565b6103dc6109e0565b6103f26104973660046134ca565b6109ef565b61039b6104aa366004613444565b610a72565b6103dc6104bd3660046134fa565b6001600160a01b0316600090815261016b602052604090205490565b6103dc6104e7366004613444565b610ab1565b610163546103dc565b61016a546103dc565b6103f2610b2c565b61045a6105143660046134fa565b6001600160a01b03908116600090815261013060205260409020541690565b6103f26105413660046134b1565b610bbc565b6103f26105543660046134fa565b610bdc565b610165546103dc565b6103f26105703660046134b1565b610be9565b610169546103dc565b61059161058c3660046134fa565b610c09565b60405163ffffffff90911681526020016103a7565b6103dc6105b43660046134fa565b610c2c565b6103dc6105c73660046134fa565b6001600160a01b0316600090815261016d602052604090205490565b6103dc6105f13660046134fa565b610c47565b6103f26106043660046135ba565b610d2d565b6103f26106173660046134b1565b610e7e565b6103dc61062a3660046134fa565b610e9e565b6103dc61063d3660046134b1565b610ebc565b61039b6106503660046134ca565b610f19565b6103b8610f44565b6103dc61066b3660046134fa565b6001600160a01b0316600090815261016c602052604090205490565b6103dc6106953660046134fa565b610f53565b6103f26106a8366004613444565b610fdc565b6103dc600081565b61039b6106c3366004613444565b6110a4565b61039b6106d6366004613444565b611136565b6103f26106e93660046134b1565b611144565b6103f26106fc366004613444565b611164565b6103f261070f36600461366b565b6113b1565b6103dc6107223660046134fa565b6001600160a01b0316600090815261016d602052604090206001015490565b6103f261074f3660046136c5565b6114e7565b6103f26107623660046134ca565b61162d565b6103dc6101685481565b6103f261077f366004613733565b611653565b6103f2610792366004613444565b6116f5565b610167546103dc565b6103dc6107ae3660046137c0565b6001600160a01b03918216600090815260666020908152604080832093909416825291909152205490565b6103dc600080516020613bce83398151915281565b6103f26107fc3660046134fa565b611aa0565b61081461080f3660046137ee565b611bbe565b60408051825163ffffffff1681526020928301516001600160e01b031692810192909252016103a7565b6103dc61084c366004613825565b611c43565b610859611d06565b604080518251815260209283015192810192909252016103a7565b60006001600160e01b03198216637965db0b60e01b14806108a557506301ffc9a760e01b6001600160e01b03198316145b92915050565b6060606880546108ba90613864565b80601f01602080910402602001604051908101604052809291908181526020018280546108e690613864565b80156109335780601f1061090857610100808354040283529160200191610933565b820191906000526020600020905b81548152906001019060200180831161091657829003601f168201915b5050505050905090565b60003361094b818585611dbc565b5060019392505050565b600080516020613bce83398151915261096e8133611ee0565b506040805180820190915260008082524260209092018290526101695561016a55565b60003361099f858285611f44565b6109aa858585611fd6565b506001949350505050565b600082815260fe60205260409020600101546109d18133611ee0565b6109db8383612164565b505050565b60006109ea6121ea565b905090565b6001600160a01b0381163314610a645760405162461bcd60e51b815260206004820152602f60248201527f416363657373436f6e74726f6c3a2063616e206f6e6c792072656e6f756e636560448201526e103937b632b9903337b91039b2b63360891b60648201526084015b60405180910390fd5b610a6e8282612265565b5050565b3360008181526066602090815260408083206001600160a01b038716845290915281205490919061094b9082908690610aac9087906138af565b611dbc565b6000438210610b025760405162461bcd60e51b815260206004820152601f60248201527f4552433230566f7465733a20626c6f636b206e6f7420796574206d696e6564006044820152606401610a5b565b6001600160a01b038316600090815261013160205260409020610b2590836122cc565b9392505050565b610b3533610c2c565b610b815760405162461bcd60e51b815260206004820181905260248201527f564c46493a494e56414c49445f42414c414e43455f4f4e5f434f4f4c444f574e6044820152606401610a5b565b33600081815261016b6020526040808220429055517f06458eacc93d062b1d92c6575f39b0c1d64541d6881846fecef52a42c7c800089190a2565b600080516020613bce833981519152610bd58133611ee0565b5061016855565b610be63382612389565b50565b600080516020613bce833981519152610c028133611ee0565b5061016755565b6001600160a01b038116600090815261013160205260408120546108a59061241a565b6001600160a01b031660009081526065602052604090205490565b60408051808201825261016954815261016a546020808301919091526001600160a01b038416600090815261016d909152918220815183610c8760675490565b9050836020015142118015610c9b57508015155b15610cf3576000846020015142610cb291906138c7565b905060006101675482610cc591906138de565b905082610cda670de0b6b3a7640000836138de565b610ce491906138fd565b610cee90856138af565b935050505b60018301548354670de0b6b3a764000090610d0f9085906138de565b610d1991906138fd565b610d23919061391f565b9695505050505050565b600054610100900460ff16610d485760005460ff1615610d4c565b303b155b610daf5760405162461bcd60e51b815260206004820152602e60248201527f496e697469616c697a61626c653a20636f6e747261637420697320616c72656160448201526d191e481a5b9a5d1a585b1a5e995960921b6064820152608401610a5b565b600054610100900460ff16158015610dd1576000805461ffff19166101011790555b610ddb8888612483565b610de4886124b4565b61016280546001600160a01b0319166001600160a01b038816179055610165859055610166849055610e186012600a613a42565b610e24906103e86138de565b61016455610168829055610e39600033612164565b610e51600080516020613bce83398151915233612164565b610e5a83610be9565b610e62610955565b8015610e74576000805461ff00191690555b5050505050505050565b600080516020613bce833981519152610e978133611ee0565b5061016555565b6001600160a01b038116600090815260cb60205260408120546108a5565b6000438210610f0d5760405162461bcd60e51b815260206004820152601f60248201527f4552433230566f7465733a20626c6f636b206e6f7420796574206d696e6564006044820152606401610a5b565b6108a5610132836122cc565b600091825260fe602090815260408084206001600160a01b0393909316845291905290205460ff1690565b6060606980546108ba90613864565b6001600160a01b038116600090815261013160205260408120548015610fc9576001600160a01b038316600090815261013160205260409020610f976001836138c7565b81548110610fa757610fa7613a4e565b60009182526020909120015464010000000090046001600160e01b0316610fcc565b60005b6001600160e01b03169392505050565b600080516020613bce833981519152610ff58133611ee0565b6000612710610168546101635461100c91906138de565b61101691906138fd565b90508083111561102557600080fd5b6101625460405163a9059cbb60e01b81526001600160a01b038681166004830152602482018690529091169063a9059cbb906044016020604051808303816000875af1158015611079573d6000803e3d6000fd5b505050506040513d601f19601f8201168201806040525081019061109d9190613a64565b5050505050565b3360008181526066602090815260408083206001600160a01b0387168452909152812054909190838110156111295760405162461bcd60e51b815260206004820152602560248201527f45524332303a2064656372656173656420616c6c6f77616e63652062656c6f77604482015264207a65726f60d81b6064820152608401610a5b565b6109aa8286868403611dbc565b60003361094b818585611fd6565b600080516020613bce83398151915261115d8133611ee0565b5061016655565b806111a75760405162461bcd60e51b8152602060048201526013602482015272159311924e9253959053125117d05353d55395606a1b6044820152606401610a5b565b60006111b283610c2c565b905060006111be611d06565b33600090815261016d6020526040902061016454919250906111e885670de0b6b3a76400006138de565b6111f291906138fd565b81600001600082825461120591906138af565b9091555050815161016454670de0b6b3a7640000919061122587846138de565b61122f91906138fd565b61123991906138de565b61124391906138fd565b8160010160008282546112569190613a86565b909155505033600090815261016c60205260408120805486929061127b9084906138af565b9250508190555083610163600082825461129591906138af565b909155506112a890506000858786611c43565b6001600160a01b038616600090815261016b6020526040902055610164546112ed9086906112de87670de0b6b3a76400006138de565b6112e891906138fd565b612507565b610162546040516323b872dd60e01b8152336004820152306024820152604481018690526001600160a01b03909116906323b872dd906064016020604051808303816000875af1158015611345573d6000803e3d6000fd5b505050506040513d601f19601f820116820180604052508101906113699190613a64565b506040518481526001600160a01b0386169033907f5dac0c1b1112564a045ba943c9d50270893e8e826c49be8e7073adc713ab7bd79060200160405180910390a35050505050565b834211156114015760405162461bcd60e51b815260206004820152601d60248201527f4552433230566f7465733a207369676e617475726520657870697265640000006044820152606401610a5b565b604080517fe48329057bfd03d55e49b547132e39cffd9c1820ad7b9d4c5307691425d15adf60208201526001600160a01b03881691810191909152606081018690526080810185905260009061147b906114739060a00160405160208183030381529060405280519060200120612511565b85858561255f565b90506114868161257d565b86146114d45760405162461bcd60e51b815260206004820152601960248201527f4552433230566f7465733a20696e76616c6964206e6f6e6365000000000000006044820152606401610a5b565b6114de8188612389565b50505050505050565b834211156115375760405162461bcd60e51b815260206004820152601d60248201527f45524332305065726d69743a206578706972656420646561646c696e650000006044820152606401610a5b565b600060cc548888886115488c61257d565b6040805160208101969096526001600160a01b0394851690860152929091166060840152608083015260a082015260c0810186905260e00160405160208183030381529060405280519060200120905060006115a382612511565b905060006115b38287878761255f565b9050896001600160a01b0316816001600160a01b0316146116165760405162461bcd60e51b815260206004820152601e60248201527f45524332305065726d69743a20696e76616c6964207369676e617475726500006044820152606401610a5b565b6116218a8a8a611dbc565b50505050505050505050565b600082815260fe60205260409020600101546116498133611ee0565b6109db8383612265565b6101625460405163d505accf60e01b81526001600160a01b038b811660048301528a81166024830152604482018a90526064820189905260ff8816608483015260a4820187905260c482018690529091169063d505accf9060e401600060405180830381600087803b1580156116c857600080fd5b505af11580156116dc573d6000803e3d6000fd5b505050506116ea8282611164565b505050505050505050565b80158015906117705750610162546040516370a0823160e01b81523360048201526001600160a01b03909116906370a0823190602401602060405180830381865afa158015611748573d6000803e3d6000fd5b505050506040513d601f19601f8201168201806040525081019061176c9190613ac7565b8111155b6117b25760405162461bcd60e51b8152602060048201526013602482015272159311924e9253959053125117d05353d55395606a1b6044820152606401610a5b565b33600090815261016b6020526040902054610165546117d190826138af565b421161181f5760405162461bcd60e51b815260206004820152601a60248201527f564c46493a434f4f4c444f574e5f4e4f545f434f4d504c4554450000000000006044820152606401610a5b565b610166546101655461183190836138af565b61183b90426138c7565b11156118895760405162461bcd60e51b815260206004820152601c60248201527f564c46493a554e5354414b455f57494e444f575f46494e4953484544000000006044820152606401610a5b565b600061189433610c2c565b905060006118a0611d06565b33600090815261016d602052604090206101645482519293509091670de0b6b3a764000091906118d088846138de565b6118da91906138de565b6118e491906138fd565b6118ee91906138fd565b816001016000828254611901919061391f565b90915550506101645461191c86670de0b6b3a76400006138de565b61192691906138fd565b81600001600082825461193991906138c7565b909155505033600090815261016c60205260408120805487929061195e9084906138c7565b9250508190555084610163600082825461197891906138c7565b9091555050610164546119a890339061199988670de0b6b3a76400006138de565b6119a391906138fd565b6125a5565b610164546119be86670de0b6b3a76400006138de565b6119c891906138fd565b6119d290846138c7565b6119e85733600090815261016b60205260408120555b6101625460405163a9059cbb60e01b81526001600160a01b038881166004830152602482018890529091169063a9059cbb906044016020604051808303816000875af1158015611a3c573d6000803e3d6000fd5b505050506040513d601f19601f82011682018060405250810190611a609190613a64565b50604051858152339081907f8a3c16627a0e7a870a5d5cd0121ca5d80e2efd0ec7198a11644f1a516ac370939060200160405180910390a3505050505050565b6000611aaa611d06565b33600090815261016d60205260408120825181549394509092670de0b6b3a764000091611ad6916138de565b611ae091906138fd565b90506000826001015482611af4919061391f565b600184018390556040518181529091506001600160a01b0386169033907f9310ccfcb8de723f578a9e4282ea9f521f05ae40dc08f3068dfad528a65ee3c79060200160405180910390a36101625460405163a9059cbb60e01b81526001600160a01b038781166004830152602482018490529091169063a9059cbb906044016020604051808303816000875af1158015611b92573d6000803e3d6000fd5b505050506040513d601f19601f82011682018060405250810190611bb69190613a64565b505050505050565b60408051808201909152600080825260208201526001600160a01b038316600090815261013160205260409020805463ffffffff8416908110611c0357611c03613a4e565b60009182526020918290206040805180820190915291015463ffffffff8116825264010000000090046001600160e01b0316918101919091529392505050565b6001600160a01b038216600090815261016b602052604081205480611c6c576000915050611cfe565b6000610166546101655442611c8191906138c7565b611c8b91906138c7565b905081811115611c9e5760009150611cfa565b6000878211611cad5787611caf565b425b905082811015611cc457829350505050611cfe565b611cce85886138af565b611cd884876138de565b611ce2838a6138de565b611cec91906138af565b611cf691906138fd565b9250505b5090505b949350505050565b6040805180820182526000808252602091820152815180830190925261016954825261016a54908201819052421115611db9576000611d4460675490565b90508015611da5576000826020015142611d5e91906138c7565b905060006101675482611d7191906138de565b905082611d86670de0b6b3a7640000836138de565b611d9091906138fd565b84518590611d9f9083906138af565b90525050505b50426020820181905281516101695561016a555b90565b6001600160a01b038316611e1e5760405162461bcd60e51b8152602060048201526024808201527f45524332303a20617070726f76652066726f6d20746865207a65726f206164646044820152637265737360e01b6064820152608401610a5b565b6001600160a01b038216611e7f5760405162461bcd60e51b815260206004820152602260248201527f45524332303a20617070726f766520746f20746865207a65726f206164647265604482015261737360f01b6064820152608401610a5b565b6001600160a01b0383811660008181526066602090815260408083209487168084529482529182902085905590518481527f8c5be1e5ebec7d5bd14f71427d1e84f3dd0314c0f7b2291e5b200ac8c7c3b925910160405180910390a3505050565b611eea8282610f19565b610a6e57611f02816001600160a01b031660146125af565b611f0d8360206125af565b604051602001611f1e929190613ae0565b60408051601f198184030181529082905262461bcd60e51b8252610a5b916004016133fc565b6001600160a01b038381166000908152606660209081526040808320938616835292905220546000198114611fd05781811015611fc35760405162461bcd60e51b815260206004820152601d60248201527f45524332303a20696e73756666696369656e7420616c6c6f77616e63650000006044820152606401610a5b565b611fd08484848403611dbc565b50505050565b6000611fe184610c2c565b90506000611fed611d06565b6001600160a01b038616600090815261016d60205260409020815191925090670de0b6b3a76400009061202090866138de565b61202a91906138fd565b81600101600082825461203d919061391f565b90915550508054849082906000906120569084906138c7565b90915550506001600160a01b038681169086161461215957600061207986610c2c565b6001600160a01b038716600090815261016d60205260409020845191925090670de0b6b3a7640000906120ac90886138de565b6120b691906138fd565b8160010160008282546120c99190613a86565b90915550508054869082906000906120e29084906138af565b90915550506001600160a01b038816600090815261016b602052604090205461210d81888a86611c43565b6001600160a01b038916600090815261016b6020526040902055858714801561213557508015155b15612155576001600160a01b038916600090815261016b60205260408120555b5050505b611bb686868661274b565b61216e8282610f19565b610a6e57600082815260fe602090815260408083206001600160a01b03851684529091529020805460ff191660011790556121a63390565b6001600160a01b0316816001600160a01b0316837f2f8788117e7eff1d82e926ec794901d17c78024a50270940304540a733656f0d60405160405180910390a45050565b60006109ea7f8b73c3c69bb8fe3d512ecc4cf759cc79239f7b179b0ffacaa9a75d522b39400f61221960975490565b6098546040805160208101859052908101839052606081018290524660808201523060a082015260009060c0016040516020818303038152906040528051906020012090509392505050565b61226f8282610f19565b15610a6e57600082815260fe602090815260408083206001600160a01b0385168085529252808320805460ff1916905551339285917ff6391f5c32d9c69d2a47ea670b442974b53935d1edc7fd64eb21e047a839171b9190a45050565b8154600090815b818110156123305760006122e7828461291f565b9050848682815481106122fc576122fc613a4e565b60009182526020909120015463ffffffff16111561231c5780925061232a565b6123278160016138af565b91505b506122d3565b811561237457846123426001846138c7565b8154811061235257612352613a4e565b60009182526020909120015464010000000090046001600160e01b0316612377565b60005b6001600160e01b031695945050505050565b6001600160a01b0382811660009081526101306020526040812054909116906123b184610c2c565b6001600160a01b038581166000818152610130602052604080822080546001600160a01b031916898616908117909155905194955093928616927f3134e8a2e6d97e929a7e54011ea5485d7d196dd5f0ba4d4ef95803e8e3fc257f9190a4611fd082848361293a565b600063ffffffff82111561247f5760405162461bcd60e51b815260206004820152602660248201527f53616665436173743a2076616c756520646f65736e27742066697420696e203360448201526532206269747360d01b6064820152608401610a5b565b5090565b600054610100900460ff166124aa5760405162461bcd60e51b8152600401610a5b90613b55565b610a6e8282612a79565b600054610100900460ff166124db5760405162461bcd60e51b8152600401610a5b90613b55565b6124fe81604051806040016040528060018152602001603160f81b815250612ac7565b610be681612b08565b610a6e8282612b56565b60006108a561251e6121ea565b8360405161190160f01b6020820152602281018390526042810182905260009060620160405160208183030381529060405280519060200120905092915050565b600080600061257087878787612be1565b91509150611cfa81612cce565b6001600160a01b038116600090815260cb602052604090208054600181018255905b50919050565b610a6e8282612e89565b606060006125be8360026138de565b6125c99060026138af565b67ffffffffffffffff8111156125e1576125e1613517565b6040519080825280601f01601f19166020018201604052801561260b576020820181803683370190505b509050600360fc1b8160008151811061262657612626613a4e565b60200101906001600160f81b031916908160001a905350600f60fb1b8160018151811061265557612655613a4e565b60200101906001600160f81b031916908160001a90535060006126798460026138de565b6126849060016138af565b90505b60018111156126fc576f181899199a1a9b1b9c1cb0b131b232b360811b85600f16601081106126b8576126b8613a4e565b1a60f81b8282815181106126ce576126ce613a4e565b60200101906001600160f81b031916908160001a90535060049490941c936126f581613ba0565b9050612687565b508315610b255760405162461bcd60e51b815260206004820181905260248201527f537472696e67733a20686578206c656e67746820696e73756666696369656e746044820152606401610a5b565b6001600160a01b0383166127af5760405162461bcd60e51b815260206004820152602560248201527f45524332303a207472616e736665722066726f6d20746865207a65726f206164604482015264647265737360d81b6064820152608401610a5b565b6001600160a01b0382166128115760405162461bcd60e51b815260206004820152602360248201527f45524332303a207472616e7366657220746f20746865207a65726f206164647260448201526265737360e81b6064820152608401610a5b565b6001600160a01b038316600090815260656020526040902054818110156128895760405162461bcd60e51b815260206004820152602660248201527f45524332303a207472616e7366657220616d6f756e7420657863656564732062604482015265616c616e636560d01b6064820152608401610a5b565b6001600160a01b038085166000908152606560205260408082208585039055918516815290812080548492906128c09084906138af565b92505081905550826001600160a01b0316846001600160a01b03167fddf252ad1be2c89b69c2b068fc378daa952ba7f163c4a11628f55a4df523b3ef8460405161290c91815260200190565b60405180910390a3611fd0848484612ea2565b600061292e60028484186138fd565b610b25908484166138af565b816001600160a01b0316836001600160a01b03161415801561295c5750600081115b156109db576001600160a01b038316156129eb576001600160a01b038316600090815261013160205260408120819061299890612ead85612eb9565b91509150846001600160a01b03167fdec2bacdd2f05b59de34da9b523dff8be42e5e38e818c82fdb0bae774387a72483836040516129e0929190918252602082015260400190565b60405180910390a250505b6001600160a01b038216156109db576001600160a01b0382166000908152610131602052604081208190612a229061303285612eb9565b91509150836001600160a01b03167fdec2bacdd2f05b59de34da9b523dff8be42e5e38e818c82fdb0bae774387a7248383604051612a6a929190918252602082015260400190565b60405180910390a25050505050565b600054610100900460ff16612aa05760405162461bcd60e51b8152600401610a5b90613b55565b8151612ab3906068906020850190613316565b5080516109db906069906020840190613316565b600054610100900460ff16612aee5760405162461bcd60e51b8152600401610a5b90613b55565b815160209283012081519190920120609791909155609855565b600054610100900460ff16612b2f5760405162461bcd60e51b8152600401610a5b90613b55565b507f6e71edae12b1b97f4d1f60370fef10105fa2faae0126114a169c64845d6126c960cc55565b612b60828261303e565b6067546001600160e01b031015612bd25760405162461bcd60e51b815260206004820152603060248201527f4552433230566f7465733a20746f74616c20737570706c79207269736b73206f60448201526f766572666c6f77696e6720766f74657360801b6064820152608401610a5b565b611fd061013261303283612eb9565b6000807f7fffffffffffffffffffffffffffffff5d576e7357a4501ddfe92f46681b20a0831115612c185750600090506003612cc5565b8460ff16601b14158015612c3057508460ff16601c14155b15612c415750600090506004612cc5565b6040805160008082526020820180845289905260ff881692820192909252606081018690526080810185905260019060a0016020604051602081039080840390855afa158015612c95573d6000803e3d6000fd5b5050604051601f1901519150506001600160a01b038116612cbe57600060019250925050612cc5565b9150600090505b94509492505050565b6000816004811115612ce257612ce2613bb7565b1415612ceb5750565b6001816004811115612cff57612cff613bb7565b1415612d4d5760405162461bcd60e51b815260206004820152601860248201527f45434453413a20696e76616c6964207369676e617475726500000000000000006044820152606401610a5b565b6002816004811115612d6157612d61613bb7565b1415612daf5760405162461bcd60e51b815260206004820152601f60248201527f45434453413a20696e76616c6964207369676e6174757265206c656e677468006044820152606401610a5b565b6003816004811115612dc357612dc3613bb7565b1415612e1c5760405162461bcd60e51b815260206004820152602260248201527f45434453413a20696e76616c6964207369676e6174757265202773272076616c604482015261756560f01b6064820152608401610a5b565b6004816004811115612e3057612e30613bb7565b1415610be65760405162461bcd60e51b815260206004820152602260248201527f45434453413a20696e76616c6964207369676e6174757265202776272076616c604482015261756560f01b6064820152608401610a5b565b612e938282613125565b611fd0610132612ead83612eb9565b6109db83838361327a565b6000610b2582846138c7565b825460009081908015612f045785612ed26001836138c7565b81548110612ee257612ee2613a4e565b60009182526020909120015464010000000090046001600160e01b0316612f07565b60005b6001600160e01b03169250612f2083858763ffffffff16565b9150600081118015612f5e57504386612f3a6001846138c7565b81548110612f4a57612f4a613a4e565b60009182526020909120015463ffffffff16145b15612fbe57612f6c826132ad565b86612f786001846138c7565b81548110612f8857612f88613a4e565b9060005260206000200160000160046101000a8154816001600160e01b0302191690836001600160e01b03160217905550613029565b856040518060400160405280612fd34361241a565b63ffffffff168152602001612fe7856132ad565b6001600160e01b0390811690915282546001810184556000938452602093849020835194909301519091166401000000000263ffffffff909316929092179101555b50935093915050565b6000610b2582846138af565b6001600160a01b0382166130945760405162461bcd60e51b815260206004820152601f60248201527f45524332303a206d696e7420746f20746865207a65726f2061646472657373006044820152606401610a5b565b80606760008282546130a691906138af565b90915550506001600160a01b038216600090815260656020526040812080548392906130d39084906138af565b90915550506040518181526001600160a01b038316906000907fddf252ad1be2c89b69c2b068fc378daa952ba7f163c4a11628f55a4df523b3ef9060200160405180910390a3610a6e60008383612ea2565b6001600160a01b0382166131855760405162461bcd60e51b815260206004820152602160248201527f45524332303a206275726e2066726f6d20746865207a65726f206164647265736044820152607360f81b6064820152608401610a5b565b6001600160a01b038216600090815260656020526040902054818110156131f95760405162461bcd60e51b815260206004820152602260248201527f45524332303a206275726e20616d6f756e7420657863656564732062616c616e604482015261636560f01b6064820152608401610a5b565b6001600160a01b03831660009081526065602052604081208383039055606780548492906132289084906138c7565b90915550506040518281526000906001600160a01b038516907fddf252ad1be2c89b69c2b068fc378daa952ba7f163c4a11628f55a4df523b3ef9060200160405180910390a36109db83600084612ea2565b6001600160a01b03838116600090815261013060205260408082205485841683529120546109db9291821691168361293a565b60006001600160e01b0382111561247f5760405162461bcd60e51b815260206004820152602760248201527f53616665436173743a2076616c756520646f65736e27742066697420696e20326044820152663234206269747360c81b6064820152608401610a5b565b82805461332290613864565b90600052602060002090601f016020900481019282613344576000855561338a565b82601f1061335d57805160ff191683800117855561338a565b8280016001018555821561338a579182015b8281111561338a57825182559160200191906001019061336f565b5061247f9291505b8082111561247f5760008155600101613392565b6000602082840312156133b857600080fd5b81356001600160e01b031981168114610b2557600080fd5b60005b838110156133eb5781810151838201526020016133d3565b83811115611fd05750506000910152565b602081526000825180602084015261341b8160408501602087016133d0565b601f01601f19169190910160400192915050565b6001600160a01b0381168114610be657600080fd5b6000806040838503121561345757600080fd5b82356134628161342f565b946020939093013593505050565b60008060006060848603121561348557600080fd5b83356134908161342f565b925060208401356134a08161342f565b929592945050506040919091013590565b6000602082840312156134c357600080fd5b5035919050565b600080604083850312156134dd57600080fd5b8235915060208301356134ef8161342f565b809150509250929050565b60006020828403121561350c57600080fd5b8135610b258161342f565b634e487b7160e01b600052604160045260246000fd5b600082601f83011261353e57600080fd5b813567ffffffffffffffff8082111561355957613559613517565b604051601f8301601f19908116603f0116810190828211818310171561358157613581613517565b8160405283815286602085880101111561359a57600080fd5b836020870160208301376000602085830101528094505050505092915050565b600080600080600080600060e0888a0312156135d557600080fd5b873567ffffffffffffffff808211156135ed57600080fd5b6135f98b838c0161352d565b985060208a013591508082111561360f57600080fd5b5061361c8a828b0161352d565b965050604088013561362d8161342f565b969995985095966060810135965060808101359560a0820135955060c0909101359350915050565b803560ff8116811461366657600080fd5b919050565b60008060008060008060c0878903121561368457600080fd5b863561368f8161342f565b955060208701359450604087013593506136ab60608801613655565b92506080870135915060a087013590509295509295509295565b600080600080600080600060e0888a0312156136e057600080fd5b87356136eb8161342f565b965060208801356136fb8161342f565b9550604088013594506060880135935061371760808901613655565b925060a0880135915060c0880135905092959891949750929550565b60008060008060008060008060006101208a8c03121561375257600080fd5b893561375d8161342f565b985060208a013561376d8161342f565b975060408a0135965060608a0135955061378960808b01613655565b945060a08a0135935060c08a0135925060e08a01356137a78161342f565b809250506101008a013590509295985092959850929598565b600080604083850312156137d357600080fd5b82356137de8161342f565b915060208301356134ef8161342f565b6000806040838503121561380157600080fd5b823561380c8161342f565b9150602083013563ffffffff811681146134ef57600080fd5b6000806000806080858703121561383b57600080fd5b843593506020850135925060408501356138548161342f565b9396929550929360600135925050565b600181811c9082168061387857607f821691505b6020821081141561259f57634e487b7160e01b600052602260045260246000fd5b634e487b7160e01b600052601160045260246000fd5b600082198211156138c2576138c2613899565b500190565b6000828210156138d9576138d9613899565b500390565b60008160001904831182151516156138f8576138f8613899565b500290565b60008261391a57634e487b7160e01b600052601260045260246000fd5b500490565b60008083128015600160ff1b85018412161561393d5761393d613899565b6001600160ff1b038401831381161561395857613958613899565b50500390565b600181815b8085111561399957816000190482111561397f5761397f613899565b8085161561398c57918102915b93841c9390800290613963565b509250929050565b6000826139b0575060016108a5565b816139bd575060006108a5565b81600181146139d357600281146139dd576139f9565b60019150506108a5565b60ff8411156139ee576139ee613899565b50506001821b6108a5565b5060208310610133831016604e8410600b8410161715613a1c575081810a6108a5565b613a26838361395e565b8060001904821115613a3a57613a3a613899565b029392505050565b6000610b2583836139a1565b634e487b7160e01b600052603260045260246000fd5b600060208284031215613a7657600080fd5b81518015158114610b2557600080fd5b600080821280156001600160ff1b0384900385131615613aa857613aa8613899565b600160ff1b8390038412811615613ac157613ac1613899565b50500190565b600060208284031215613ad957600080fd5b5051919050565b7f416363657373436f6e74726f6c3a206163636f756e7420000000000000000000815260008351613b188160178501602088016133d0565b7001034b99036b4b9b9b4b733903937b6329607d1b6017918401918201528351613b498160288401602088016133d0565b01602801949350505050565b6020808252602b908201527f496e697469616c697a61626c653a20636f6e7472616374206973206e6f74206960408201526a6e697469616c697a696e6760a81b606082015260800190565b600081613baf57613baf613899565b506000190190565b634e487b7160e01b600052602160045260246000fdfe241ecf16d79d0f8dbfb92cbc07fe17840425976cf0667f022fe9877caa831b08a2646970667358221220bf977f64db8a4c1fbffeaae73c58ac87a4a57ed10c5cf35bee1dcca7f2e85ef964736f6c634300080a0033",
  "linkReferences": {},
  "deployedLinkReferences": {}
}