{
  "_format": "hh-sol-artifact-1",
  "contractName": "VLFI",
  "sourceName": "contracts/VLFI.sol",
  "abi": [
    {
      "anonymous": false,
      "inputs": [
        {
          "indexed": true,
          "internalType": "address",
          "name": "owner",
          "type": "address"
        },
        {
          "indexed": true,
          "internalType": "address",
          "name": "spender",
          "type": "address"
        },
        {
          "indexed": false,
          "internalType": "uint256",
          "name": "value",
          "type": "uint256"
        }
      ],
      "name": "Approval",
      "type": "event"
    },
    {
      "anonymous": false,
      "inputs": [
        {
          "indexed": true,
          "internalType": "address",
          "name": "user",
          "type": "address"
        }
      ],
      "name": "CooldownActivated",
      "type": "event"
    },
    {
      "anonymous": false,
      "inputs": [
        {
          "indexed": true,
          "internalType": "address",
          "name": "delegator",
          "type": "address"
        },
        {
          "indexed": true,
          "internalType": "address",
          "name": "fromDelegate",
          "type": "address"
        },
        {
          "indexed": true,
          "internalType": "address",
          "name": "toDelegate",
          "type": "address"
        }
      ],
      "name": "DelegateChanged",
      "type": "event"
    },
    {
      "anonymous": false,
      "inputs": [
        {
          "indexed": true,
          "internalType": "address",
          "name": "delegate",
          "type": "address"
        },
        {
          "indexed": false,
          "internalType": "uint256",
          "name": "previousBalance",
          "type": "uint256"
        },
        {
          "indexed": false,
          "internalType": "uint256",
          "name": "newBalance",
          "type": "uint256"
        }
      ],
      "name": "DelegateVotesChanged",
      "type": "event"
    },
    {
      "anonymous": false,
      "inputs": [
        {
          "indexed": true,
          "internalType": "address",
          "name": "from",
          "type": "address"
        },
        {
          "indexed": true,
          "internalType": "address",
          "name": "to",
          "type": "address"
        },
        {
          "indexed": false,
          "internalType": "uint256",
          "name": "amount",
          "type": "uint256"
        }
      ],
      "name": "RewardsClaimed",
      "type": "event"
    },
    {
      "anonymous": false,
      "inputs": [
        {
          "indexed": true,
          "internalType": "bytes32",
          "name": "role",
          "type": "bytes32"
        },
        {
          "indexed": true,
          "internalType": "bytes32",
          "name": "previousAdminRole",
          "type": "bytes32"
        },
        {
          "indexed": true,
          "internalType": "bytes32",
          "name": "newAdminRole",
          "type": "bytes32"
        }
      ],
      "name": "RoleAdminChanged",
      "type": "event"
    },
    {
      "anonymous": false,
      "inputs": [
        {
          "indexed": true,
          "internalType": "bytes32",
          "name": "role",
          "type": "bytes32"
        },
        {
          "indexed": true,
          "internalType": "address",
          "name": "account",
          "type": "address"
        },
        {
          "indexed": true,
          "internalType": "address",
          "name": "sender",
          "type": "address"
        }
      ],
      "name": "RoleGranted",
      "type": "event"
    },
    {
      "anonymous": false,
      "inputs": [
        {
          "indexed": true,
          "internalType": "bytes32",
          "name": "role",
          "type": "bytes32"
        },
        {
          "indexed": true,
          "internalType": "address",
          "name": "account",
          "type": "address"
        },
        {
          "indexed": true,
          "internalType": "address",
          "name": "sender",
          "type": "address"
        }
      ],
      "name": "RoleRevoked",
      "type": "event"
    },
    {
      "anonymous": false,
      "inputs": [
        {
          "indexed": true,
          "internalType": "address",
          "name": "from",
          "type": "address"
        },
        {
          "indexed": true,
          "internalType": "address",
          "name": "onBehalfOf",
          "type": "address"
        },
        {
          "indexed": false,
          "internalType": "uint256",
          "name": "amount",
          "type": "uint256"
        }
      ],
      "name": "Staked",
      "type": "event"
    },
    {
      "anonymous": false,
      "inputs": [
        {
          "indexed": true,
          "internalType": "address",
          "name": "from",
          "type": "address"
        },
        {
          "indexed": true,
          "internalType": "address",
          "name": "to",
          "type": "address"
        },
        {
          "indexed": false,
          "internalType": "uint256",
          "name": "value",
          "type": "uint256"
        }
      ],
      "name": "Transfer",
      "type": "event"
    },
    {
      "anonymous": false,
      "inputs": [
        {
          "indexed": true,
          "internalType": "address",
          "name": "from",
          "type": "address"
        },
        {
          "indexed": true,
          "internalType": "address",
          "name": "to",
          "type": "address"
        },
        {
          "indexed": false,
          "internalType": "uint256",
          "name": "amount",
          "type": "uint256"
        }
      ],
      "name": "UnStaked",
      "type": "event"
    },
    {
      "inputs": [],
      "name": "DEFAULT_ADMIN_ROLE",
      "outputs": [
        {
          "internalType": "bytes32",
          "name": "",
          "type": "bytes32"
        }
      ],
      "stateMutability": "view",
      "type": "function"
    },
    {
      "inputs": [],
      "name": "DOMAIN_SEPARATOR",
      "outputs": [
        {
          "internalType": "bytes32",
          "name": "",
          "type": "bytes32"
        }
      ],
      "stateMutability": "view",
      "type": "function"
    },
    {
      "inputs": [],
      "name": "MANAGER_ROLE",
      "outputs": [
        {
          "internalType": "bytes32",
          "name": "",
          "type": "bytes32"
        }
      ],
      "stateMutability": "view",
      "type": "function"
    },
    {
      "inputs": [],
      "name": "STAKED_TOKEN",
      "outputs": [
        {
          "internalType": "contract ILFIToken",
          "name": "",
          "type": "address"
        }
      ],
      "stateMutability": "view",
      "type": "function"
    },
    {
      "inputs": [],
      "name": "activateCooldown",
      "outputs": [],
      "stateMutability": "nonpayable",
      "type": "function"
    },
    {
      "inputs": [
        {
          "internalType": "address",
          "name": "owner",
          "type": "address"
        },
        {
          "internalType": "address",
          "name": "spender",
          "type": "address"
        }
      ],
      "name": "allowance",
      "outputs": [
        {
          "internalType": "uint256",
          "name": "",
          "type": "uint256"
        }
      ],
      "stateMutability": "view",
      "type": "function"
    },
    {
      "inputs": [
        {
          "internalType": "address",
          "name": "spender",
          "type": "address"
        },
        {
          "internalType": "uint256",
          "name": "amount",
          "type": "uint256"
        }
      ],
      "name": "approve",
      "outputs": [
        {
          "internalType": "bool",
          "name": "",
          "type": "bool"
        }
      ],
      "stateMutability": "nonpayable",
      "type": "function"
    },
    {
      "inputs": [
        {
          "internalType": "address",
          "name": "account",
          "type": "address"
        }
      ],
      "name": "balanceOf",
      "outputs": [
        {
          "internalType": "uint256",
          "name": "",
          "type": "uint256"
        }
      ],
      "stateMutability": "view",
      "type": "function"
    },
    {
      "inputs": [
        {
          "internalType": "address",
          "name": "account",
          "type": "address"
        },
        {
          "internalType": "uint32",
          "name": "pos",
          "type": "uint32"
        }
      ],
      "name": "checkpoints",
      "outputs": [
        {
          "components": [
            {
              "internalType": "uint32",
              "name": "fromBlock",
              "type": "uint32"
            },
            {
              "internalType": "uint224",
              "name": "votes",
              "type": "uint224"
            }
          ],
          "internalType": "struct ERC20VotesUpgradeable.Checkpoint",
          "name": "",
          "type": "tuple"
        }
      ],
      "stateMutability": "view",
      "type": "function"
    },
    {
      "inputs": [
        {
          "internalType": "address",
          "name": "to",
          "type": "address"
        }
      ],
      "name": "claimRewards",
      "outputs": [],
      "stateMutability": "nonpayable",
      "type": "function"
    },
    {
      "inputs": [],
      "name": "createFarm",
      "outputs": [],
      "stateMutability": "nonpayable",
      "type": "function"
    },
    {
      "inputs": [],
      "name": "decimals",
      "outputs": [
        {
          "internalType": "uint8",
          "name": "",
          "type": "uint8"
        }
      ],
      "stateMutability": "view",
      "type": "function"
    },
    {
      "inputs": [
        {
          "internalType": "address",
          "name": "spender",
          "type": "address"
        },
        {
          "internalType": "uint256",
          "name": "subtractedValue",
          "type": "uint256"
        }
      ],
      "name": "decreaseAllowance",
      "outputs": [
        {
          "internalType": "bool",
          "name": "",
          "type": "bool"
        }
      ],
      "stateMutability": "nonpayable",
      "type": "function"
    },
    {
      "inputs": [
        {
          "internalType": "address",
          "name": "delegatee",
          "type": "address"
        }
      ],
      "name": "delegate",
      "outputs": [],
      "stateMutability": "nonpayable",
      "type": "function"
    },
    {
      "inputs": [
        {
          "internalType": "address",
          "name": "delegatee",
          "type": "address"
        },
        {
          "internalType": "uint256",
          "name": "nonce",
          "type": "uint256"
        },
        {
          "internalType": "uint256",
          "name": "expiry",
          "type": "uint256"
        },
        {
          "internalType": "uint8",
          "name": "v",
          "type": "uint8"
        },
        {
          "internalType": "bytes32",
          "name": "r",
          "type": "bytes32"
        },
        {
          "internalType": "bytes32",
          "name": "s",
          "type": "bytes32"
        }
      ],
      "name": "delegateBySig",
      "outputs": [],
      "stateMutability": "nonpayable",
      "type": "function"
    },
    {
      "inputs": [
        {
          "internalType": "address",
          "name": "account",
          "type": "address"
        }
      ],
      "name": "delegates",
      "outputs": [
        {
          "internalType": "address",
          "name": "",
          "type": "address"
        }
      ],
      "stateMutability": "view",
      "type": "function"
    },
    {
      "inputs": [],
      "name": "getAccRewardPerShare",
      "outputs": [
        {
          "internalType": "uint256",
          "name": "",
          "type": "uint256"
        }
      ],
      "stateMutability": "view",
      "type": "function"
    },
    {
      "inputs": [
        {
          "internalType": "address",
          "name": "staker",
          "type": "address"
        }
      ],
      "name": "getCooldown",
      "outputs": [
        {
          "internalType": "uint256",
          "name": "",
          "type": "uint256"
        }
      ],
      "stateMutability": "view",
      "type": "function"
    },
    {
      "inputs": [],
      "name": "getCooldownSeconds",
      "outputs": [
        {
          "internalType": "uint256",
          "name": "",
          "type": "uint256"
        }
      ],
      "stateMutability": "view",
      "type": "function"
    },
    {
      "inputs": [],
      "name": "getLastRewardTime",
      "outputs": [
        {
          "internalType": "uint256",
          "name": "",
          "type": "uint256"
        }
      ],
      "stateMutability": "view",
      "type": "function"
    },
    {
      "inputs": [],
      "name": "getLiquidityStatus",
      "outputs": [
        {
          "internalType": "uint256",
          "name": "",
          "type": "uint256"
        }
      ],
      "stateMutability": "view",
      "type": "function"
    },
    {
      "inputs": [
        {
          "internalType": "uint256",
          "name": "userCooldownTimestamp",
          "type": "uint256"
        },
        {
          "internalType": "uint256",
          "name": "amountToReceive",
          "type": "uint256"
        },
        {
          "internalType": "address",
          "name": "toAddress",
          "type": "address"
        },
        {
          "internalType": "uint256",
          "name": "toBalance",
          "type": "uint256"
        }
      ],
      "name": "getNextCooldownTimestamp",
      "outputs": [
        {
          "internalType": "uint256",
          "name": "",
          "type": "uint256"
        }
      ],
      "stateMutability": "view",
      "type": "function"
    },
    {
      "inputs": [
        {
          "internalType": "uint256",
          "name": "blockNumber",
          "type": "uint256"
        }
      ],
      "name": "getPastTotalSupply",
      "outputs": [
        {
          "internalType": "uint256",
          "name": "",
          "type": "uint256"
        }
      ],
      "stateMutability": "view",
      "type": "function"
    },
    {
      "inputs": [
        {
          "internalType": "address",
          "name": "account",
          "type": "address"
        },
        {
          "internalType": "uint256",
          "name": "blockNumber",
          "type": "uint256"
        }
      ],
      "name": "getPastVotes",
      "outputs": [
        {
          "internalType": "uint256",
          "name": "",
          "type": "uint256"
        }
      ],
      "stateMutability": "view",
      "type": "function"
    },
    {
      "inputs": [],
      "name": "getRewardPerSecond",
      "outputs": [
        {
          "internalType": "uint256",
          "name": "",
          "type": "uint256"
        }
      ],
      "stateMutability": "view",
      "type": "function"
    },
    {
      "inputs": [
        {
          "internalType": "address",
          "name": "benefitor",
          "type": "address"
        }
      ],
      "name": "getRewards",
      "outputs": [
        {
          "internalType": "uint256",
          "name": "pendingRewards",
          "type": "uint256"
        }
      ],
      "stateMutability": "view",
      "type": "function"
    },
    {
      "inputs": [
        {
          "internalType": "bytes32",
          "name": "role",
          "type": "bytes32"
        }
      ],
      "name": "getRoleAdmin",
      "outputs": [
        {
          "internalType": "bytes32",
          "name": "",
          "type": "bytes32"
        }
      ],
      "stateMutability": "view",
      "type": "function"
    },
    {
      "inputs": [],
      "name": "getUnstakeWindowTime",
      "outputs": [
        {
          "internalType": "uint256",
          "name": "",
          "type": "uint256"
        }
      ],
      "stateMutability": "view",
      "type": "function"
    },
    {
      "inputs": [
        {
          "internalType": "address",
          "name": "user",
          "type": "address"
        }
      ],
      "name": "getUserLFIDeposits",
      "outputs": [
        {
          "internalType": "uint256",
          "name": "",
          "type": "uint256"
        }
      ],
      "stateMutability": "view",
      "type": "function"
    },
    {
      "inputs": [
        {
          "internalType": "address",
          "name": "benefitor",
          "type": "address"
        }
      ],
      "name": "getUserRewardDebt",
      "outputs": [
        {
          "internalType": "int256",
          "name": "",
          "type": "int256"
        }
      ],
      "stateMutability": "view",
      "type": "function"
    },
    {
      "inputs": [
        {
          "internalType": "address",
          "name": "benefitor",
          "type": "address"
        }
      ],
      "name": "getUserVLFIAmount",
      "outputs": [
        {
          "internalType": "uint256",
          "name": "",
          "type": "uint256"
        }
      ],
      "stateMutability": "view",
      "type": "function"
    },
    {
      "inputs": [
        {
          "internalType": "address",
          "name": "account",
          "type": "address"
        }
      ],
      "name": "getVotes",
      "outputs": [
        {
          "internalType": "uint256",
          "name": "",
          "type": "uint256"
        }
      ],
      "stateMutability": "view",
      "type": "function"
    },
    {
      "inputs": [
        {
          "internalType": "bytes32",
          "name": "role",
          "type": "bytes32"
        },
        {
          "internalType": "address",
          "name": "account",
          "type": "address"
        }
      ],
      "name": "grantRole",
      "outputs": [],
      "stateMutability": "nonpayable",
      "type": "function"
    },
    {
      "inputs": [
        {
          "internalType": "bytes32",
          "name": "role",
          "type": "bytes32"
        },
        {
          "internalType": "address",
          "name": "account",
          "type": "address"
        }
      ],
      "name": "hasRole",
      "outputs": [
        {
          "internalType": "bool",
          "name": "",
          "type": "bool"
        }
      ],
      "stateMutability": "view",
      "type": "function"
    },
    {
      "inputs": [
        {
          "internalType": "address",
          "name": "spender",
          "type": "address"
        },
        {
          "internalType": "uint256",
          "name": "addedValue",
          "type": "uint256"
        }
      ],
      "name": "increaseAllowance",
      "outputs": [
        {
          "internalType": "bool",
          "name": "",
          "type": "bool"
        }
      ],
      "stateMutability": "nonpayable",
      "type": "function"
    },
    {
      "inputs": [
        {
          "internalType": "string",
          "name": "name",
          "type": "string"
        },
        {
          "internalType": "string",
          "name": "symbol",
          "type": "string"
        },
        {
          "internalType": "contract ILFIToken",
          "name": "stakedToken",
          "type": "address"
        },
        {
          "internalType": "uint256",
          "name": "cooldownSeconds",
          "type": "uint256"
        },
        {
          "internalType": "uint256",
          "name": "unstakeWindow",
          "type": "uint256"
        },
        {
          "internalType": "uint256",
          "name": "rewardsPerSecond",
          "type": "uint256"
        },
        {
          "internalType": "uint256",
          "name": "treasuryWithdrawlPercentage",
          "type": "uint256"
        }
      ],
      "name": "initialize",
      "outputs": [],
      "stateMutability": "nonpayable",
      "type": "function"
    },
    {
      "inputs": [],
      "name": "maxTreasuryWithdrawalPercentage",
      "outputs": [
        {
          "internalType": "uint256",
          "name": "",
          "type": "uint256"
        }
      ],
      "stateMutability": "view",
      "type": "function"
    },
    {
      "inputs": [],
      "name": "name",
      "outputs": [
        {
          "internalType": "string",
          "name": "",
          "type": "string"
        }
      ],
      "stateMutability": "view",
      "type": "function"
    },
    {
      "inputs": [
        {
          "internalType": "address",
          "name": "owner",
          "type": "address"
        }
      ],
      "name": "nonces",
      "outputs": [
        {
          "internalType": "uint256",
          "name": "",
          "type": "uint256"
        }
      ],
      "stateMutability": "view",
      "type": "function"
    },
    {
      "inputs": [
        {
          "internalType": "address",
          "name": "account",
          "type": "address"
        }
      ],
      "name": "numCheckpoints",
      "outputs": [
        {
          "internalType": "uint32",
          "name": "",
          "type": "uint32"
        }
      ],
      "stateMutability": "view",
      "type": "function"
    },
    {
      "inputs": [
        {
          "internalType": "address",
          "name": "owner",
          "type": "address"
        },
        {
          "internalType": "address",
          "name": "spender",
          "type": "address"
        },
        {
          "internalType": "uint256",
          "name": "value",
          "type": "uint256"
        },
        {
          "internalType": "uint256",
          "name": "deadline",
          "type": "uint256"
        },
        {
          "internalType": "uint8",
          "name": "v",
          "type": "uint8"
        },
        {
          "internalType": "bytes32",
          "name": "r",
          "type": "bytes32"
        },
        {
          "internalType": "bytes32",
          "name": "s",
          "type": "bytes32"
        }
      ],
      "name": "permit",
      "outputs": [],
      "stateMutability": "nonpayable",
      "type": "function"
    },
    {
      "inputs": [
        {
          "internalType": "address",
          "name": "owner",
          "type": "address"
        },
        {
          "internalType": "address",
          "name": "spender",
          "type": "address"
        },
        {
          "internalType": "uint256",
          "name": "value",
          "type": "uint256"
        },
        {
          "internalType": "uint256",
          "name": "deadline",
          "type": "uint256"
        },
        {
          "internalType": "uint8",
          "name": "v",
          "type": "uint8"
        },
        {
          "internalType": "bytes32",
          "name": "r",
          "type": "bytes32"
        },
        {
          "internalType": "bytes32",
          "name": "s",
          "type": "bytes32"
        },
        {
          "internalType": "address",
          "name": "onBehalfOf",
          "type": "address"
        },
        {
          "internalType": "uint256",
          "name": "LFIamount",
          "type": "uint256"
        }
      ],
      "name": "permitAndStake",
      "outputs": [],
      "stateMutability": "nonpayable",
      "type": "function"
    },
    {
      "inputs": [
        {
          "internalType": "bytes32",
          "name": "role",
          "type": "bytes32"
        },
        {
          "internalType": "address",
          "name": "account",
          "type": "address"
        }
      ],
      "name": "renounceRole",
      "outputs": [],
      "stateMutability": "nonpayable",
      "type": "function"
    },
    {
      "inputs": [
        {
          "internalType": "bytes32",
          "name": "role",
          "type": "bytes32"
        },
        {
          "internalType": "address",
          "name": "account",
          "type": "address"
        }
      ],
      "name": "revokeRole",
      "outputs": [],
      "stateMutability": "nonpayable",
      "type": "function"
    },
    {
      "inputs": [
        {
          "internalType": "uint256",
          "name": "coolDownSeconds",
          "type": "uint256"
        }
      ],
      "name": "setCooldownSeconds",
      "outputs": [],
      "stateMutability": "nonpayable",
      "type": "function"
    },
    {
      "inputs": [
        {
          "internalType": "uint256",
          "name": "percentage",
          "type": "uint256"
        }
      ],
      "name": "setMaxTreasuryWithdrawalPercentage",
      "outputs": [],
      "stateMutability": "nonpayable",
      "type": "function"
    },
    {
      "inputs": [
        {
          "internalType": "uint256",
          "name": "_rewardPerSecond",
          "type": "uint256"
        }
      ],
      "name": "setRewardPerSecond",
      "outputs": [],
      "stateMutability": "nonpayable",
      "type": "function"
    },
    {
      "inputs": [
        {
          "internalType": "uint256",
          "name": "unstakeWindow",
          "type": "uint256"
        }
      ],
      "name": "setUnstakeWindowTime",
      "outputs": [],
      "stateMutability": "nonpayable",
      "type": "function"
    },
    {
      "inputs": [
        {
          "internalType": "address",
          "name": "onBehalfOf",
          "type": "address"
        },
        {
          "internalType": "uint256",
          "name": "amount",
          "type": "uint256"
        }
      ],
      "name": "stake",
      "outputs": [],
      "stateMutability": "nonpayable",
      "type": "function"
    },
    {
      "inputs": [
        {
          "internalType": "bytes4",
          "name": "interfaceId",
          "type": "bytes4"
        }
      ],
      "name": "supportsInterface",
      "outputs": [
        {
          "internalType": "bool",
          "name": "",
          "type": "bool"
        }
      ],
      "stateMutability": "view",
      "type": "function"
    },
    {
      "inputs": [],
      "name": "symbol",
      "outputs": [
        {
          "internalType": "string",
          "name": "",
          "type": "string"
        }
      ],
      "stateMutability": "view",
      "type": "function"
    },
    {
      "inputs": [],
      "name": "totalSupply",
      "outputs": [
        {
          "internalType": "uint256",
          "name": "",
          "type": "uint256"
        }
      ],
      "stateMutability": "view",
      "type": "function"
    },
    {
      "inputs": [
        {
          "internalType": "address",
          "name": "to",
          "type": "address"
        },
        {
          "internalType": "uint256",
          "name": "amount",
          "type": "uint256"
        }
      ],
      "name": "transfer",
      "outputs": [
        {
          "internalType": "bool",
          "name": "",
          "type": "bool"
        }
      ],
      "stateMutability": "nonpayable",
      "type": "function"
    },
    {
      "inputs": [
        {
          "internalType": "address",
          "name": "from",
          "type": "address"
        },
        {
          "internalType": "address",
          "name": "to",
          "type": "address"
        },
        {
          "internalType": "uint256",
          "name": "amount",
          "type": "uint256"
        }
      ],
      "name": "transferFrom",
      "outputs": [
        {
          "internalType": "bool",
          "name": "",
          "type": "bool"
        }
      ],
      "stateMutability": "nonpayable",
      "type": "function"
    },
    {
      "inputs": [
        {
          "internalType": "address",
          "name": "to",
          "type": "address"
        },
        {
          "internalType": "uint256",
          "name": "treasuryWithdrawal",
          "type": "uint256"
        }
      ],
      "name": "transferToTreasury",
      "outputs": [],
      "stateMutability": "nonpayable",
      "type": "function"
    },
    {
      "inputs": [],
      "name": "unStake",
      "outputs": [],
      "stateMutability": "nonpayable",
      "type": "function"
    },
    {
      "inputs": [],
      "name": "updateFarm",
      "outputs": [
        {
          "components": [
            {
              "internalType": "uint256",
              "name": "accRewardsPerShare",
              "type": "uint256"
            },
            {
              "internalType": "uint256",
              "name": "lastRewardTime",
              "type": "uint256"
            }
          ],
          "internalType": "struct VLFI.FarmInfo",
          "name": "farm",
          "type": "tuple"
        }
      ],
      "stateMutability": "nonpayable",
      "type": "function"
    }
  ],
  "bytecode": "0x608060405234801561001057600080fd5b50613b87806100206000396000f3fe608060405234801561001057600080fd5b50600436106103835760003560e01c806373cf575a116101de578063ad88918f1161010f578063d92aec59116100ad578063ef5cfb8c1161007c578063ef5cfb8c146107e3578063f1127ed8146107f6578063f1cc432a14610833578063f54ca63c1461084657600080fd5b8063d92aec5914610779578063da5b4ee71461078c578063dd62ed3e14610795578063ec87621c146107ce57600080fd5b8063c61fbcc5116100e9578063c61fbcc51461071c578063d505accf14610749578063d547741f1461075c578063d876246f1461076f57600080fd5b8063ad88918f146106e3578063adc9772e146106f6578063c3cda5201461070957600080fd5b806395d89b411161017c5780639dd267e6116101565780639dd267e6146106a2578063a217fddf146106b5578063a457c2d7146106bd578063a9059cbb146106d057600080fd5b806395d89b411461065d5780639a00a6a3146106655780639ab24eb01461068f57600080fd5b80637b5b1157116101b85780637b5b1157146106115780637ecebe00146106245780638e539e8c1461063757806391d148541461064a57600080fd5b806373cf575a146105e357806379ee54f7146105eb5780637a45c441146105fe57600080fd5b806339b84ecf116102b85780635c19a95c116102565780636c07d9fe116102305780636c07d9fe146105755780636fcfff451461057e57806370a08231146105a6578063733d07be146105b957600080fd5b80635c19a95c14610546578063616e0bf91461055957806366da58151461056257600080fd5b80633e340dae116102925780633e340dae146104f55780634853b3b2146104fe578063587cde1e146105065780635ac3ce121461053357600080fd5b806339b84ecf146104af5780633a46b1a8146104d95780633c0717fd146104ec57600080fd5b8063248a9ca311610325578063313ce567116102ff578063313ce567146104725780633644e5151461048157806336568abe14610489578063395093511461049c57600080fd5b8063248a9ca3146104105780632f2ff15d14610433578063312f6b831461044657600080fd5b806318160ddd1161036157806318160ddd146103d85780631d5ec3cb146103ea5780631f477ea9146103f457806323b872dd146103fd57600080fd5b806301ffc9a71461038857806306fdde03146103b0578063095ea7b3146103c5575b600080fd5b61039b610396366004613323565b610869565b60405190151581526020015b60405180910390f35b6103b86108a0565b6040516103a79190613379565b61039b6103d33660046133c1565b610932565b6067545b6040519081526020016103a7565b6103f261094a565b005b610166546103dc565b61039b61040b3660046133ed565b610986565b6103dc61041e36600461342e565b600090815260fe602052604090206001015490565b6103f2610441366004613447565b6109aa565b6101625461045a906001600160a01b031681565b6040516001600160a01b0390911681526020016103a7565b604051601281526020016103a7565b6103dc6109d5565b6103f2610497366004613447565b6109e4565b61039b6104aa3660046133c1565b610a67565b6103dc6104bd366004613477565b6001600160a01b0316600090815261016b602052604090205490565b6103dc6104e73660046133c1565b610aa6565b610163546103dc565b61016a546103dc565b6103f2610b21565b61045a610514366004613477565b6001600160a01b03908116600090815261013060205260409020541690565b6103f261054136600461342e565b610bb1565b6103f2610554366004613477565b610bd1565b610165546103dc565b6103f261057036600461342e565b610bde565b610169546103dc565b61059161058c366004613477565b610bfe565b60405163ffffffff90911681526020016103a7565b6103dc6105b4366004613477565b610c21565b6103dc6105c7366004613477565b6001600160a01b0316600090815261016d602052604090205490565b6103f2610c3c565b6103dc6105f9366004613477565b610f79565b6103f261060c366004613537565b61105f565b6103f261061f36600461342e565b6111b0565b6103dc610632366004613477565b6111d0565b6103dc61064536600461342e565b6111ee565b61039b610658366004613447565b61124b565b6103b8611276565b6103dc610673366004613477565b6001600160a01b0316600090815261016c602052604090205490565b6103dc61069d366004613477565b611285565b6103f26106b03660046133c1565b61130e565b6103dc600081565b61039b6106cb3660046133c1565b6113d6565b61039b6106de3660046133c1565b611468565b6103f26106f136600461342e565b611476565b6103f26107043660046133c1565b611496565b6103f26107173660046135e8565b6116d9565b6103dc61072a366004613477565b6001600160a01b0316600090815261016d602052604090206001015490565b6103f2610757366004613642565b61180f565b6103f261076a366004613447565b611955565b6103dc6101685481565b6103f26107873660046136b0565b61197b565b610167546103dc565b6103dc6107a336600461373d565b6001600160a01b03918216600090815260666020908152604080832093909416825291909152205490565b6103dc600080516020613b3283398151915281565b6103f26107f1366004613477565b611a1d565b61080961080436600461376b565b611b3b565b60408051825163ffffffff1681526020928301516001600160e01b031692810192909252016103a7565b6103dc6108413660046137a2565b611bc0565b61084e611c83565b604080518251815260209283015192810192909252016103a7565b60006001600160e01b03198216637965db0b60e01b148061089a57506301ffc9a760e01b6001600160e01b03198316145b92915050565b6060606880546108af906137e1565b80601f01602080910402602001604051908101604052809291908181526020018280546108db906137e1565b80156109285780601f106108fd57610100808354040283529160200191610928565b820191906000526020600020905b81548152906001019060200180831161090b57829003601f168201915b5050505050905090565b600033610940818585611d39565b5060019392505050565b600080516020613b328339815191526109638133611e5d565b506040805180820190915260008082524260209092018290526101695561016a55565b600033610994858285611ec1565b61099f858585611f53565b506001949350505050565b600082815260fe60205260409020600101546109c68133611e5d565b6109d083836120e1565b505050565b60006109df612167565b905090565b6001600160a01b0381163314610a595760405162461bcd60e51b815260206004820152602f60248201527f416363657373436f6e74726f6c3a2063616e206f6e6c792072656e6f756e636560448201526e103937b632b9903337b91039b2b63360891b60648201526084015b60405180910390fd5b610a6382826121e2565b5050565b3360008181526066602090815260408083206001600160a01b03871684529091528120549091906109409082908690610aa190879061382c565b611d39565b6000438210610af75760405162461bcd60e51b815260206004820152601f60248201527f4552433230566f7465733a20626c6f636b206e6f7420796574206d696e6564006044820152606401610a50565b6001600160a01b038316600090815261013160205260409020610b1a9083612249565b9392505050565b610b2a33610c21565b610b765760405162461bcd60e51b815260206004820181905260248201527f564c46493a494e56414c49445f42414c414e43455f4f4e5f434f4f4c444f574e6044820152606401610a50565b33600081815261016b6020526040808220429055517f06458eacc93d062b1d92c6575f39b0c1d64541d6881846fecef52a42c7c800089190a2565b600080516020613b32833981519152610bca8133611e5d565b5061016855565b610bdb3382612306565b50565b600080516020613b32833981519152610bf78133611e5d565b5061016755565b6001600160a01b0381166000908152610131602052604081205461089a90612397565b6001600160a01b031660009081526065602052604090205490565b33600090815261016c602052604090205480610c8d5760405162461bcd60e51b815260206004820152601060248201526f4e4f205354414b454420544f4b454e5360801b6044820152606401610a50565b33600090815261016b602052604090205461016554610cac908261382c565b4211610cfa5760405162461bcd60e51b815260206004820152601a60248201527f564c46493a434f4f4c444f574e5f4e4f545f434f4d504c4554450000000000006044820152606401610a50565b6101665461016554610d0c908361382c565b610d169042613844565b1115610d645760405162461bcd60e51b815260206004820152601c60248201527f564c46493a554e5354414b455f57494e444f575f46494e4953484544000000006044820152606401610a50565b6000610d6f33610c21565b90506000610d7b611c83565b33600090815261016d602052604090206101645482519293509091670de0b6b3a76400009190610dab888461385b565b610db5919061385b565b610dbf919061387a565b610dc9919061387a565b816001016000828254610ddc919061389c565b909155505061016454610df786670de0b6b3a764000061385b565b610e01919061387a565b816000016000828254610e149190613844565b909155505033600090815261016c602052604081208054879290610e39908490613844565b92505081905550846101636000828254610e539190613844565b909155505061016454610e83903390610e7488670de0b6b3a764000061385b565b610e7e919061387a565b612400565b61016454610e9986670de0b6b3a764000061385b565b610ea3919061387a565b610ead9084613844565b610ec35733600090815261016b60205260408120555b6101625460405163a9059cbb60e01b8152336004820152602481018790526001600160a01b039091169063a9059cbb906044016020604051808303816000875af1158015610f15573d6000803e3d6000fd5b505050506040513d601f19601f82011682018060405250810190610f3991906138db565b50604051858152339081907f8a3c16627a0e7a870a5d5cd0121ca5d80e2efd0ec7198a11644f1a516ac37093906020015b60405180910390a35050505050565b60408051808201825261016954815261016a546020808301919091526001600160a01b038416600090815261016d909152918220815183610fb960675490565b9050836020015142118015610fcd57508015155b15611025576000846020015142610fe49190613844565b905060006101675482610ff7919061385b565b90508261100c670de0b6b3a76400008361385b565b611016919061387a565b611020908561382c565b935050505b60018301548354670de0b6b3a76400009061104190859061385b565b61104b919061387a565b611055919061389c565b9695505050505050565b600054610100900460ff1661107a5760005460ff161561107e565b303b155b6110e15760405162461bcd60e51b815260206004820152602e60248201527f496e697469616c697a61626c653a20636f6e747261637420697320616c72656160448201526d191e481a5b9a5d1a585b1a5e995960921b6064820152608401610a50565b600054610100900460ff16158015611103576000805461ffff19166101011790555b61110d888861240a565b6111168861243b565b61016280546001600160a01b0319166001600160a01b03881617905561016585905561016684905561114a6012600a6139e1565b611156906103e861385b565b6101645561016882905561116b6000336120e1565b611183600080516020613b32833981519152336120e1565b61118c83610bde565b61119461094a565b80156111a6576000805461ff00191690555b5050505050505050565b600080516020613b328339815191526111c98133611e5d565b5061016555565b6001600160a01b038116600090815260cb602052604081205461089a565b600043821061123f5760405162461bcd60e51b815260206004820152601f60248201527f4552433230566f7465733a20626c6f636b206e6f7420796574206d696e6564006044820152606401610a50565b61089a61013283612249565b600091825260fe602090815260408084206001600160a01b0393909316845291905290205460ff1690565b6060606980546108af906137e1565b6001600160a01b0381166000908152610131602052604081205480156112fb576001600160a01b0383166000908152610131602052604090206112c9600183613844565b815481106112d9576112d96139ed565b60009182526020909120015464010000000090046001600160e01b03166112fe565b60005b6001600160e01b03169392505050565b600080516020613b328339815191526113278133611e5d565b6000612710610168546101635461133e919061385b565b611348919061387a565b90508083111561135757600080fd5b6101625460405163a9059cbb60e01b81526001600160a01b038681166004830152602482018690529091169063a9059cbb906044016020604051808303816000875af11580156113ab573d6000803e3d6000fd5b505050506040513d601f19601f820116820180604052508101906113cf91906138db565b5050505050565b3360008181526066602090815260408083206001600160a01b03871684529091528120549091908381101561145b5760405162461bcd60e51b815260206004820152602560248201527f45524332303a2064656372656173656420616c6c6f77616e63652062656c6f77604482015264207a65726f60d81b6064820152608401610a50565b61099f8286868403611d39565b600033610940818585611f53565b600080516020613b3283398151915261148f8133611e5d565b5061016655565b806114d95760405162461bcd60e51b8152602060048201526013602482015272159311924e9253959053125117d05353d55395606a1b6044820152606401610a50565b60006114e483610c21565b905060006114f0611c83565b33600090815261016d60205260409020610164549192509061151a85670de0b6b3a764000061385b565b611524919061387a565b816000016000828254611537919061382c565b9091555050815161016454670de0b6b3a76400009190611557878461385b565b611561919061387a565b61156b919061385b565b611575919061387a565b8160010160008282546115889190613a03565b909155505033600090815261016c6020526040812080548692906115ad90849061382c565b925050819055508361016360008282546115c7919061382c565b909155506115da90506000858786611bc0565b6001600160a01b038616600090815261016b60205260409020556101645461161f90869061161087670de0b6b3a764000061385b565b61161a919061387a565b61248e565b610162546040516323b872dd60e01b8152336004820152306024820152604481018690526001600160a01b03909116906323b872dd906064016020604051808303816000875af1158015611677573d6000803e3d6000fd5b505050506040513d601f19601f8201168201806040525081019061169b91906138db565b506040518481526001600160a01b0386169033907f5dac0c1b1112564a045ba943c9d50270893e8e826c49be8e7073adc713ab7bd790602001610f6a565b834211156117295760405162461bcd60e51b815260206004820152601d60248201527f4552433230566f7465733a207369676e617475726520657870697265640000006044820152606401610a50565b604080517fe48329057bfd03d55e49b547132e39cffd9c1820ad7b9d4c5307691425d15adf60208201526001600160a01b0388169181019190915260608101869052608081018590526000906117a39061179b9060a00160405160208183030381529060405280519060200120612498565b8585856124e6565b90506117ae81612504565b86146117fc5760405162461bcd60e51b815260206004820152601960248201527f4552433230566f7465733a20696e76616c6964206e6f6e6365000000000000006044820152606401610a50565b6118068188612306565b50505050505050565b8342111561185f5760405162461bcd60e51b815260206004820152601d60248201527f45524332305065726d69743a206578706972656420646561646c696e650000006044820152606401610a50565b600060cc548888886118708c612504565b6040805160208101969096526001600160a01b0394851690860152929091166060840152608083015260a082015260c0810186905260e00160405160208183030381529060405280519060200120905060006118cb82612498565b905060006118db828787876124e6565b9050896001600160a01b0316816001600160a01b03161461193e5760405162461bcd60e51b815260206004820152601e60248201527f45524332305065726d69743a20696e76616c6964207369676e617475726500006044820152606401610a50565b6119498a8a8a611d39565b50505050505050505050565b600082815260fe60205260409020600101546119718133611e5d565b6109d083836121e2565b6101625460405163d505accf60e01b81526001600160a01b038b811660048301528a81166024830152604482018a90526064820189905260ff8816608483015260a4820187905260c482018690529091169063d505accf9060e401600060405180830381600087803b1580156119f057600080fd5b505af1158015611a04573d6000803e3d6000fd5b50505050611a128282611496565b505050505050505050565b6000611a27611c83565b33600090815261016d60205260408120825181549394509092670de0b6b3a764000091611a539161385b565b611a5d919061387a565b90506000826001015482611a71919061389c565b600184018390556040518181529091506001600160a01b0386169033907f9310ccfcb8de723f578a9e4282ea9f521f05ae40dc08f3068dfad528a65ee3c79060200160405180910390a36101625460405163a9059cbb60e01b81526001600160a01b038781166004830152602482018490529091169063a9059cbb906044016020604051808303816000875af1158015611b0f573d6000803e3d6000fd5b505050506040513d601f19601f82011682018060405250810190611b3391906138db565b505050505050565b60408051808201909152600080825260208201526001600160a01b038316600090815261013160205260409020805463ffffffff8416908110611b8057611b806139ed565b60009182526020918290206040805180820190915291015463ffffffff8116825264010000000090046001600160e01b0316918101919091529392505050565b6001600160a01b038216600090815261016b602052604081205480611be9576000915050611c7b565b6000610166546101655442611bfe9190613844565b611c089190613844565b905081811115611c1b5760009150611c77565b6000878211611c2a5787611c2c565b425b905082811015611c4157829350505050611c7b565b611c4b858861382c565b611c55848761385b565b611c5f838a61385b565b611c69919061382c565b611c73919061387a565b9250505b5090505b949350505050565b6040805180820182526000808252602091820152815180830190925261016954825261016a54908201819052421115611d36576000611cc160675490565b90508015611d22576000826020015142611cdb9190613844565b905060006101675482611cee919061385b565b905082611d03670de0b6b3a76400008361385b565b611d0d919061387a565b84518590611d1c90839061382c565b90525050505b50426020820181905281516101695561016a555b90565b6001600160a01b038316611d9b5760405162461bcd60e51b8152602060048201526024808201527f45524332303a20617070726f76652066726f6d20746865207a65726f206164646044820152637265737360e01b6064820152608401610a50565b6001600160a01b038216611dfc5760405162461bcd60e51b815260206004820152602260248201527f45524332303a20617070726f766520746f20746865207a65726f206164647265604482015261737360f01b6064820152608401610a50565b6001600160a01b0383811660008181526066602090815260408083209487168084529482529182902085905590518481527f8c5be1e5ebec7d5bd14f71427d1e84f3dd0314c0f7b2291e5b200ac8c7c3b925910160405180910390a3505050565b611e67828261124b565b610a6357611e7f816001600160a01b0316601461252c565b611e8a83602061252c565b604051602001611e9b929190613a44565b60408051601f198184030181529082905262461bcd60e51b8252610a5091600401613379565b6001600160a01b038381166000908152606660209081526040808320938616835292905220546000198114611f4d5781811015611f405760405162461bcd60e51b815260206004820152601d60248201527f45524332303a20696e73756666696369656e7420616c6c6f77616e63650000006044820152606401610a50565b611f4d8484848403611d39565b50505050565b6000611f5e84610c21565b90506000611f6a611c83565b6001600160a01b038616600090815261016d60205260409020815191925090670de0b6b3a764000090611f9d908661385b565b611fa7919061387a565b816001016000828254611fba919061389c565b9091555050805484908290600090611fd3908490613844565b90915550506001600160a01b03868116908616146120d6576000611ff686610c21565b6001600160a01b038716600090815261016d60205260409020845191925090670de0b6b3a764000090612029908861385b565b612033919061387a565b8160010160008282546120469190613a03565b909155505080548690829060009061205f90849061382c565b90915550506001600160a01b038816600090815261016b602052604090205461208a81888a86611bc0565b6001600160a01b038916600090815261016b602052604090205585871480156120b257508015155b156120d2576001600160a01b038916600090815261016b60205260408120555b5050505b611b338686866126c8565b6120eb828261124b565b610a6357600082815260fe602090815260408083206001600160a01b03851684529091529020805460ff191660011790556121233390565b6001600160a01b0316816001600160a01b0316837f2f8788117e7eff1d82e926ec794901d17c78024a50270940304540a733656f0d60405160405180910390a45050565b60006109df7f8b73c3c69bb8fe3d512ecc4cf759cc79239f7b179b0ffacaa9a75d522b39400f61219660975490565b6098546040805160208101859052908101839052606081018290524660808201523060a082015260009060c0016040516020818303038152906040528051906020012090509392505050565b6121ec828261124b565b15610a6357600082815260fe602090815260408083206001600160a01b0385168085529252808320805460ff1916905551339285917ff6391f5c32d9c69d2a47ea670b442974b53935d1edc7fd64eb21e047a839171b9190a45050565b8154600090815b818110156122ad576000612264828461289c565b905084868281548110612279576122796139ed565b60009182526020909120015463ffffffff161115612299578092506122a7565b6122a481600161382c565b91505b50612250565b81156122f157846122bf600184613844565b815481106122cf576122cf6139ed565b60009182526020909120015464010000000090046001600160e01b03166122f4565b60005b6001600160e01b031695945050505050565b6001600160a01b03828116600090815261013060205260408120549091169061232e84610c21565b6001600160a01b038581166000818152610130602052604080822080546001600160a01b031916898616908117909155905194955093928616927f3134e8a2e6d97e929a7e54011ea5485d7d196dd5f0ba4d4ef95803e8e3fc257f9190a4611f4d8284836128b7565b600063ffffffff8211156123fc5760405162461bcd60e51b815260206004820152602660248201527f53616665436173743a2076616c756520646f65736e27742066697420696e203360448201526532206269747360d01b6064820152608401610a50565b5090565b610a6382826129f6565b600054610100900460ff166124315760405162461bcd60e51b8152600401610a5090613ab9565b610a638282612a0f565b600054610100900460ff166124625760405162461bcd60e51b8152600401610a5090613ab9565b61248581604051806040016040528060018152602001603160f81b815250612a5d565b610bdb81612a9e565b610a638282612aec565b600061089a6124a5612167565b8360405161190160f01b6020820152602281018390526042810182905260009060620160405160208183030381529060405280519060200120905092915050565b60008060006124f787878787612b77565b91509150611c7781612c64565b6001600160a01b038116600090815260cb602052604090208054600181018255905b50919050565b6060600061253b83600261385b565b61254690600261382c565b67ffffffffffffffff81111561255e5761255e613494565b6040519080825280601f01601f191660200182016040528015612588576020820181803683370190505b509050600360fc1b816000815181106125a3576125a36139ed565b60200101906001600160f81b031916908160001a905350600f60fb1b816001815181106125d2576125d26139ed565b60200101906001600160f81b031916908160001a90535060006125f684600261385b565b61260190600161382c565b90505b6001811115612679576f181899199a1a9b1b9c1cb0b131b232b360811b85600f1660108110612635576126356139ed565b1a60f81b82828151811061264b5761264b6139ed565b60200101906001600160f81b031916908160001a90535060049490941c9361267281613b04565b9050612604565b508315610b1a5760405162461bcd60e51b815260206004820181905260248201527f537472696e67733a20686578206c656e67746820696e73756666696369656e746044820152606401610a50565b6001600160a01b03831661272c5760405162461bcd60e51b815260206004820152602560248201527f45524332303a207472616e736665722066726f6d20746865207a65726f206164604482015264647265737360d81b6064820152608401610a50565b6001600160a01b03821661278e5760405162461bcd60e51b815260206004820152602360248201527f45524332303a207472616e7366657220746f20746865207a65726f206164647260448201526265737360e81b6064820152608401610a50565b6001600160a01b038316600090815260656020526040902054818110156128065760405162461bcd60e51b815260206004820152602660248201527f45524332303a207472616e7366657220616d6f756e7420657863656564732062604482015265616c616e636560d01b6064820152608401610a50565b6001600160a01b0380851660009081526065602052604080822085850390559185168152908120805484929061283d90849061382c565b92505081905550826001600160a01b0316846001600160a01b03167fddf252ad1be2c89b69c2b068fc378daa952ba7f163c4a11628f55a4df523b3ef8460405161288991815260200190565b60405180910390a3611f4d848484612e1f565b60006128ab600284841861387a565b610b1a9084841661382c565b816001600160a01b0316836001600160a01b0316141580156128d95750600081115b156109d0576001600160a01b03831615612968576001600160a01b038316600090815261013160205260408120819061291590612e2a85612e36565b91509150846001600160a01b03167fdec2bacdd2f05b59de34da9b523dff8be42e5e38e818c82fdb0bae774387a724838360405161295d929190918252602082015260400190565b60405180910390a250505b6001600160a01b038216156109d0576001600160a01b038216600090815261013160205260408120819061299f90612faf85612e36565b91509150836001600160a01b03167fdec2bacdd2f05b59de34da9b523dff8be42e5e38e818c82fdb0bae774387a72483836040516129e7929190918252602082015260400190565b60405180910390a25050505050565b612a008282612fbb565b611f4d610132612e2a83612e36565b600054610100900460ff16612a365760405162461bcd60e51b8152600401610a5090613ab9565b8151612a49906068906020850190613293565b5080516109d0906069906020840190613293565b600054610100900460ff16612a845760405162461bcd60e51b8152600401610a5090613ab9565b815160209283012081519190920120609791909155609855565b600054610100900460ff16612ac55760405162461bcd60e51b8152600401610a5090613ab9565b507f6e71edae12b1b97f4d1f60370fef10105fa2faae0126114a169c64845d6126c960cc55565b612af68282613110565b6067546001600160e01b031015612b685760405162461bcd60e51b815260206004820152603060248201527f4552433230566f7465733a20746f74616c20737570706c79207269736b73206f60448201526f766572666c6f77696e6720766f74657360801b6064820152608401610a50565b611f4d610132612faf83612e36565b6000807f7fffffffffffffffffffffffffffffff5d576e7357a4501ddfe92f46681b20a0831115612bae5750600090506003612c5b565b8460ff16601b14158015612bc657508460ff16601c14155b15612bd75750600090506004612c5b565b6040805160008082526020820180845289905260ff881692820192909252606081018690526080810185905260019060a0016020604051602081039080840390855afa158015612c2b573d6000803e3d6000fd5b5050604051601f1901519150506001600160a01b038116612c5457600060019250925050612c5b565b9150600090505b94509492505050565b6000816004811115612c7857612c78613b1b565b1415612c815750565b6001816004811115612c9557612c95613b1b565b1415612ce35760405162461bcd60e51b815260206004820152601860248201527f45434453413a20696e76616c6964207369676e617475726500000000000000006044820152606401610a50565b6002816004811115612cf757612cf7613b1b565b1415612d455760405162461bcd60e51b815260206004820152601f60248201527f45434453413a20696e76616c6964207369676e6174757265206c656e677468006044820152606401610a50565b6003816004811115612d5957612d59613b1b565b1415612db25760405162461bcd60e51b815260206004820152602260248201527f45434453413a20696e76616c6964207369676e6174757265202773272076616c604482015261756560f01b6064820152608401610a50565b6004816004811115612dc657612dc6613b1b565b1415610bdb5760405162461bcd60e51b815260206004820152602260248201527f45434453413a20696e76616c6964207369676e6174757265202776272076616c604482015261756560f01b6064820152608401610a50565b6109d08383836131f7565b6000610b1a8284613844565b825460009081908015612e815785612e4f600183613844565b81548110612e5f57612e5f6139ed565b60009182526020909120015464010000000090046001600160e01b0316612e84565b60005b6001600160e01b03169250612e9d83858763ffffffff16565b9150600081118015612edb57504386612eb7600184613844565b81548110612ec757612ec76139ed565b60009182526020909120015463ffffffff16145b15612f3b57612ee98261322a565b86612ef5600184613844565b81548110612f0557612f056139ed565b9060005260206000200160000160046101000a8154816001600160e01b0302191690836001600160e01b03160217905550612fa6565b856040518060400160405280612f5043612397565b63ffffffff168152602001612f648561322a565b6001600160e01b0390811690915282546001810184556000938452602093849020835194909301519091166401000000000263ffffffff909316929092179101555b50935093915050565b6000610b1a828461382c565b6001600160a01b03821661301b5760405162461bcd60e51b815260206004820152602160248201527f45524332303a206275726e2066726f6d20746865207a65726f206164647265736044820152607360f81b6064820152608401610a50565b6001600160a01b0382166000908152606560205260409020548181101561308f5760405162461bcd60e51b815260206004820152602260248201527f45524332303a206275726e20616d6f756e7420657863656564732062616c616e604482015261636560f01b6064820152608401610a50565b6001600160a01b03831660009081526065602052604081208383039055606780548492906130be908490613844565b90915550506040518281526000906001600160a01b038516907fddf252ad1be2c89b69c2b068fc378daa952ba7f163c4a11628f55a4df523b3ef9060200160405180910390a36109d083600084612e1f565b6001600160a01b0382166131665760405162461bcd60e51b815260206004820152601f60248201527f45524332303a206d696e7420746f20746865207a65726f2061646472657373006044820152606401610a50565b8060676000828254613178919061382c565b90915550506001600160a01b038216600090815260656020526040812080548392906131a590849061382c565b90915550506040518181526001600160a01b038316906000907fddf252ad1be2c89b69c2b068fc378daa952ba7f163c4a11628f55a4df523b3ef9060200160405180910390a3610a6360008383612e1f565b6001600160a01b03838116600090815261013060205260408082205485841683529120546109d0929182169116836128b7565b60006001600160e01b038211156123fc5760405162461bcd60e51b815260206004820152602760248201527f53616665436173743a2076616c756520646f65736e27742066697420696e20326044820152663234206269747360c81b6064820152608401610a50565b82805461329f906137e1565b90600052602060002090601f0160209004810192826132c15760008555613307565b82601f106132da57805160ff1916838001178555613307565b82800160010185558215613307579182015b828111156133075782518255916020019190600101906132ec565b506123fc9291505b808211156123fc576000815560010161330f565b60006020828403121561333557600080fd5b81356001600160e01b031981168114610b1a57600080fd5b60005b83811015613368578181015183820152602001613350565b83811115611f4d5750506000910152565b602081526000825180602084015261339881604085016020870161334d565b601f01601f19169190910160400192915050565b6001600160a01b0381168114610bdb57600080fd5b600080604083850312156133d457600080fd5b82356133df816133ac565b946020939093013593505050565b60008060006060848603121561340257600080fd5b833561340d816133ac565b9250602084013561341d816133ac565b929592945050506040919091013590565b60006020828403121561344057600080fd5b5035919050565b6000806040838503121561345a57600080fd5b82359150602083013561346c816133ac565b809150509250929050565b60006020828403121561348957600080fd5b8135610b1a816133ac565b634e487b7160e01b600052604160045260246000fd5b600082601f8301126134bb57600080fd5b813567ffffffffffffffff808211156134d6576134d6613494565b604051601f8301601f19908116603f011681019082821181831017156134fe576134fe613494565b8160405283815286602085880101111561351757600080fd5b836020870160208301376000602085830101528094505050505092915050565b600080600080600080600060e0888a03121561355257600080fd5b873567ffffffffffffffff8082111561356a57600080fd5b6135768b838c016134aa565b985060208a013591508082111561358c57600080fd5b506135998a828b016134aa565b96505060408801356135aa816133ac565b969995985095966060810135965060808101359560a0820135955060c0909101359350915050565b803560ff811681146135e357600080fd5b919050565b60008060008060008060c0878903121561360157600080fd5b863561360c816133ac565b95506020870135945060408701359350613628606088016135d2565b92506080870135915060a087013590509295509295509295565b600080600080600080600060e0888a03121561365d57600080fd5b8735613668816133ac565b96506020880135613678816133ac565b95506040880135945060608801359350613694608089016135d2565b925060a0880135915060c0880135905092959891949750929550565b60008060008060008060008060006101208a8c0312156136cf57600080fd5b89356136da816133ac565b985060208a01356136ea816133ac565b975060408a0135965060608a0135955061370660808b016135d2565b945060a08a0135935060c08a0135925060e08a0135613724816133ac565b809250506101008a013590509295985092959850929598565b6000806040838503121561375057600080fd5b823561375b816133ac565b9150602083013561346c816133ac565b6000806040838503121561377e57600080fd5b8235613789816133ac565b9150602083013563ffffffff8116811461346c57600080fd5b600080600080608085870312156137b857600080fd5b843593506020850135925060408501356137d1816133ac565b9396929550929360600135925050565b600181811c908216806137f557607f821691505b6020821081141561252657634e487b7160e01b600052602260045260246000fd5b634e487b7160e01b600052601160045260246000fd5b6000821982111561383f5761383f613816565b500190565b60008282101561385657613856613816565b500390565b600081600019048311821515161561387557613875613816565b500290565b60008261389757634e487b7160e01b600052601260045260246000fd5b500490565b60008083128015600160ff1b8501841216156138ba576138ba613816565b6001600160ff1b03840183138116156138d5576138d5613816565b50500390565b6000602082840312156138ed57600080fd5b81518015158114610b1a57600080fd5b600181815b8085111561393857816000190482111561391e5761391e613816565b8085161561392b57918102915b93841c9390800290613902565b509250929050565b60008261394f5750600161089a565b8161395c5750600061089a565b8160018114613972576002811461397c57613998565b600191505061089a565b60ff84111561398d5761398d613816565b50506001821b61089a565b5060208310610133831016604e8410600b84101617156139bb575081810a61089a565b6139c583836138fd565b80600019048211156139d9576139d9613816565b029392505050565b6000610b1a8383613940565b634e487b7160e01b600052603260045260246000fd5b600080821280156001600160ff1b0384900385131615613a2557613a25613816565b600160ff1b8390038412811615613a3e57613a3e613816565b50500190565b7f416363657373436f6e74726f6c3a206163636f756e7420000000000000000000815260008351613a7c81601785016020880161334d565b7001034b99036b4b9b9b4b733903937b6329607d1b6017918401918201528351613aad81602884016020880161334d565b01602801949350505050565b6020808252602b908201527f496e697469616c697a61626c653a20636f6e7472616374206973206e6f74206960408201526a6e697469616c697a696e6760a81b606082015260800190565b600081613b1357613b13613816565b506000190190565b634e487b7160e01b600052602160045260246000fdfe241ecf16d79d0f8dbfb92cbc07fe17840425976cf0667f022fe9877caa831b08a26469706673582212203a6e0c206f3dbdb7623e274ce5c10e86851891cc0b26bf56237c4fc0ad1d9f7464736f6c634300080a0033",
  "linkReferences": {},
  "deployedLinkReferences": {}
}