{
  "_format": "hh-sol-artifact-1",
  "contractName": "VLFI",
  "sourceName": "contracts/VLFI.sol",
  "abi": [
    {
      "anonymous": false,
      "inputs": [
        {
          "indexed": true,
          "internalType": "address",
          "name": "owner",
          "type": "address"
        },
        {
          "indexed": true,
          "internalType": "address",
          "name": "spender",
          "type": "address"
        },
        {
          "indexed": false,
          "internalType": "uint256",
          "name": "value",
          "type": "uint256"
        }
      ],
      "name": "Approval",
      "type": "event"
    },
    {
      "anonymous": false,
      "inputs": [
        {
          "indexed": true,
          "internalType": "address",
          "name": "user",
          "type": "address"
        }
      ],
      "name": "CooldownActivated",
      "type": "event"
    },
    {
      "anonymous": false,
      "inputs": [
        {
          "indexed": true,
          "internalType": "address",
          "name": "delegator",
          "type": "address"
        },
        {
          "indexed": true,
          "internalType": "address",
          "name": "fromDelegate",
          "type": "address"
        },
        {
          "indexed": true,
          "internalType": "address",
          "name": "toDelegate",
          "type": "address"
        }
      ],
      "name": "DelegateChanged",
      "type": "event"
    },
    {
      "anonymous": false,
      "inputs": [
        {
          "indexed": true,
          "internalType": "address",
          "name": "delegate",
          "type": "address"
        },
        {
          "indexed": false,
          "internalType": "uint256",
          "name": "previousBalance",
          "type": "uint256"
        },
        {
          "indexed": false,
          "internalType": "uint256",
          "name": "newBalance",
          "type": "uint256"
        }
      ],
      "name": "DelegateVotesChanged",
      "type": "event"
    },
    {
      "anonymous": false,
      "inputs": [
        {
          "indexed": true,
          "internalType": "address",
          "name": "from",
          "type": "address"
        },
        {
          "indexed": true,
          "internalType": "address",
          "name": "to",
          "type": "address"
        },
        {
          "indexed": false,
          "internalType": "uint256",
          "name": "amount",
          "type": "uint256"
        }
      ],
      "name": "RewardsClaimed",
      "type": "event"
    },
    {
      "anonymous": false,
      "inputs": [
        {
          "indexed": true,
          "internalType": "bytes32",
          "name": "role",
          "type": "bytes32"
        },
        {
          "indexed": true,
          "internalType": "bytes32",
          "name": "previousAdminRole",
          "type": "bytes32"
        },
        {
          "indexed": true,
          "internalType": "bytes32",
          "name": "newAdminRole",
          "type": "bytes32"
        }
      ],
      "name": "RoleAdminChanged",
      "type": "event"
    },
    {
      "anonymous": false,
      "inputs": [
        {
          "indexed": true,
          "internalType": "bytes32",
          "name": "role",
          "type": "bytes32"
        },
        {
          "indexed": true,
          "internalType": "address",
          "name": "account",
          "type": "address"
        },
        {
          "indexed": true,
          "internalType": "address",
          "name": "sender",
          "type": "address"
        }
      ],
      "name": "RoleGranted",
      "type": "event"
    },
    {
      "anonymous": false,
      "inputs": [
        {
          "indexed": true,
          "internalType": "bytes32",
          "name": "role",
          "type": "bytes32"
        },
        {
          "indexed": true,
          "internalType": "address",
          "name": "account",
          "type": "address"
        },
        {
          "indexed": true,
          "internalType": "address",
          "name": "sender",
          "type": "address"
        }
      ],
      "name": "RoleRevoked",
      "type": "event"
    },
    {
      "anonymous": false,
      "inputs": [
        {
          "indexed": true,
          "internalType": "address",
          "name": "from",
          "type": "address"
        },
        {
          "indexed": true,
          "internalType": "address",
          "name": "onBehalfOf",
          "type": "address"
        },
        {
          "indexed": false,
          "internalType": "uint256",
          "name": "amount",
          "type": "uint256"
        }
      ],
      "name": "Staked",
      "type": "event"
    },
    {
      "anonymous": false,
      "inputs": [
        {
          "indexed": true,
          "internalType": "address",
          "name": "from",
          "type": "address"
        },
        {
          "indexed": true,
          "internalType": "address",
          "name": "to",
          "type": "address"
        },
        {
          "indexed": false,
          "internalType": "uint256",
          "name": "value",
          "type": "uint256"
        }
      ],
      "name": "Transfer",
      "type": "event"
    },
    {
      "anonymous": false,
      "inputs": [
        {
          "indexed": true,
          "internalType": "address",
          "name": "from",
          "type": "address"
        },
        {
          "indexed": true,
          "internalType": "address",
          "name": "to",
          "type": "address"
        },
        {
          "indexed": false,
          "internalType": "uint256",
          "name": "amount",
          "type": "uint256"
        }
      ],
      "name": "UnStaked",
      "type": "event"
    },
    {
      "inputs": [],
      "name": "DEFAULT_ADMIN_ROLE",
      "outputs": [
        {
          "internalType": "bytes32",
          "name": "",
          "type": "bytes32"
        }
      ],
      "stateMutability": "view",
      "type": "function"
    },
    {
      "inputs": [],
      "name": "DOMAIN_SEPARATOR",
      "outputs": [
        {
          "internalType": "bytes32",
          "name": "",
          "type": "bytes32"
        }
      ],
      "stateMutability": "view",
      "type": "function"
    },
    {
      "inputs": [],
      "name": "MANAGER_ROLE",
      "outputs": [
        {
          "internalType": "bytes32",
          "name": "",
          "type": "bytes32"
        }
      ],
      "stateMutability": "view",
      "type": "function"
    },
    {
      "inputs": [],
      "name": "STAKED_TOKEN",
      "outputs": [
        {
          "internalType": "contract ILFIToken",
          "name": "",
          "type": "address"
        }
      ],
      "stateMutability": "view",
      "type": "function"
    },
    {
      "inputs": [],
      "name": "activateCooldown",
      "outputs": [],
      "stateMutability": "nonpayable",
      "type": "function"
    },
    {
      "inputs": [
        {
          "internalType": "address",
          "name": "owner",
          "type": "address"
        },
        {
          "internalType": "address",
          "name": "spender",
          "type": "address"
        }
      ],
      "name": "allowance",
      "outputs": [
        {
          "internalType": "uint256",
          "name": "",
          "type": "uint256"
        }
      ],
      "stateMutability": "view",
      "type": "function"
    },
    {
      "inputs": [
        {
          "internalType": "address",
          "name": "spender",
          "type": "address"
        },
        {
          "internalType": "uint256",
          "name": "amount",
          "type": "uint256"
        }
      ],
      "name": "approve",
      "outputs": [
        {
          "internalType": "bool",
          "name": "",
          "type": "bool"
        }
      ],
      "stateMutability": "nonpayable",
      "type": "function"
    },
    {
      "inputs": [
        {
          "internalType": "address",
          "name": "account",
          "type": "address"
        }
      ],
      "name": "balanceOf",
      "outputs": [
        {
          "internalType": "uint256",
          "name": "",
          "type": "uint256"
        }
      ],
      "stateMutability": "view",
      "type": "function"
    },
    {
      "inputs": [
        {
          "internalType": "address",
          "name": "account",
          "type": "address"
        },
        {
          "internalType": "uint32",
          "name": "pos",
          "type": "uint32"
        }
      ],
      "name": "checkpoints",
      "outputs": [
        {
          "components": [
            {
              "internalType": "uint32",
              "name": "fromBlock",
              "type": "uint32"
            },
            {
              "internalType": "uint224",
              "name": "votes",
              "type": "uint224"
            }
          ],
          "internalType": "struct ERC20VotesUpgradeable.Checkpoint",
          "name": "",
          "type": "tuple"
        }
      ],
      "stateMutability": "view",
      "type": "function"
    },
    {
      "inputs": [
        {
          "internalType": "address",
          "name": "to",
          "type": "address"
        }
      ],
      "name": "claimRewards",
      "outputs": [],
      "stateMutability": "nonpayable",
      "type": "function"
    },
    {
      "inputs": [],
      "name": "createFarm",
      "outputs": [],
      "stateMutability": "nonpayable",
      "type": "function"
    },
    {
      "inputs": [],
      "name": "decimals",
      "outputs": [
        {
          "internalType": "uint8",
          "name": "",
          "type": "uint8"
        }
      ],
      "stateMutability": "view",
      "type": "function"
    },
    {
      "inputs": [
        {
          "internalType": "address",
          "name": "spender",
          "type": "address"
        },
        {
          "internalType": "uint256",
          "name": "subtractedValue",
          "type": "uint256"
        }
      ],
      "name": "decreaseAllowance",
      "outputs": [
        {
          "internalType": "bool",
          "name": "",
          "type": "bool"
        }
      ],
      "stateMutability": "nonpayable",
      "type": "function"
    },
    {
      "inputs": [
        {
          "internalType": "address",
          "name": "delegatee",
          "type": "address"
        }
      ],
      "name": "delegate",
      "outputs": [],
      "stateMutability": "nonpayable",
      "type": "function"
    },
    {
      "inputs": [
        {
          "internalType": "address",
          "name": "delegatee",
          "type": "address"
        },
        {
          "internalType": "uint256",
          "name": "nonce",
          "type": "uint256"
        },
        {
          "internalType": "uint256",
          "name": "expiry",
          "type": "uint256"
        },
        {
          "internalType": "uint8",
          "name": "v",
          "type": "uint8"
        },
        {
          "internalType": "bytes32",
          "name": "r",
          "type": "bytes32"
        },
        {
          "internalType": "bytes32",
          "name": "s",
          "type": "bytes32"
        }
      ],
      "name": "delegateBySig",
      "outputs": [],
      "stateMutability": "nonpayable",
      "type": "function"
    },
    {
      "inputs": [
        {
          "internalType": "address",
          "name": "account",
          "type": "address"
        }
      ],
      "name": "delegates",
      "outputs": [
        {
          "internalType": "address",
          "name": "",
          "type": "address"
        }
      ],
      "stateMutability": "view",
      "type": "function"
    },
    {
      "inputs": [],
      "name": "getAccRewardPerShare",
      "outputs": [
        {
          "internalType": "uint256",
          "name": "",
          "type": "uint256"
        }
      ],
      "stateMutability": "view",
      "type": "function"
    },
    {
      "inputs": [
        {
          "internalType": "address",
          "name": "staker",
          "type": "address"
        }
      ],
      "name": "getCooldown",
      "outputs": [
        {
          "internalType": "uint256",
          "name": "",
          "type": "uint256"
        }
      ],
      "stateMutability": "view",
      "type": "function"
    },
    {
      "inputs": [],
      "name": "getCooldownSeconds",
      "outputs": [
        {
          "internalType": "uint256",
          "name": "",
          "type": "uint256"
        }
      ],
      "stateMutability": "view",
      "type": "function"
    },
    {
      "inputs": [],
      "name": "getLastRewardTime",
      "outputs": [
        {
          "internalType": "uint256",
          "name": "",
          "type": "uint256"
        }
      ],
      "stateMutability": "view",
      "type": "function"
    },
    {
      "inputs": [],
      "name": "getLiquidityStatus",
      "outputs": [
        {
          "internalType": "uint256",
          "name": "",
          "type": "uint256"
        }
      ],
      "stateMutability": "view",
      "type": "function"
    },
    {
      "inputs": [
        {
          "internalType": "uint256",
          "name": "userCooldownTimestamp",
          "type": "uint256"
        },
        {
          "internalType": "uint256",
          "name": "amountToReceive",
          "type": "uint256"
        },
        {
          "internalType": "address",
          "name": "toAddress",
          "type": "address"
        },
        {
          "internalType": "uint256",
          "name": "toBalance",
          "type": "uint256"
        }
      ],
      "name": "getNextCooldownTimestamp",
      "outputs": [
        {
          "internalType": "uint256",
          "name": "",
          "type": "uint256"
        }
      ],
      "stateMutability": "view",
      "type": "function"
    },
    {
      "inputs": [
        {
          "internalType": "uint256",
          "name": "blockNumber",
          "type": "uint256"
        }
      ],
      "name": "getPastTotalSupply",
      "outputs": [
        {
          "internalType": "uint256",
          "name": "",
          "type": "uint256"
        }
      ],
      "stateMutability": "view",
      "type": "function"
    },
    {
      "inputs": [
        {
          "internalType": "address",
          "name": "account",
          "type": "address"
        },
        {
          "internalType": "uint256",
          "name": "blockNumber",
          "type": "uint256"
        }
      ],
      "name": "getPastVotes",
      "outputs": [
        {
          "internalType": "uint256",
          "name": "",
          "type": "uint256"
        }
      ],
      "stateMutability": "view",
      "type": "function"
    },
    {
      "inputs": [],
      "name": "getRewardPerSecond",
      "outputs": [
        {
          "internalType": "uint256",
          "name": "",
          "type": "uint256"
        }
      ],
      "stateMutability": "view",
      "type": "function"
    },
    {
      "inputs": [
        {
          "internalType": "address",
          "name": "benefitor",
          "type": "address"
        }
      ],
      "name": "getRewards",
      "outputs": [
        {
          "internalType": "uint256",
          "name": "pendingRewards",
          "type": "uint256"
        }
      ],
      "stateMutability": "view",
      "type": "function"
    },
    {
      "inputs": [
        {
          "internalType": "bytes32",
          "name": "role",
          "type": "bytes32"
        }
      ],
      "name": "getRoleAdmin",
      "outputs": [
        {
          "internalType": "bytes32",
          "name": "",
          "type": "bytes32"
        }
      ],
      "stateMutability": "view",
      "type": "function"
    },
    {
      "inputs": [],
      "name": "getUnstakeWindowTime",
      "outputs": [
        {
          "internalType": "uint256",
          "name": "",
          "type": "uint256"
        }
      ],
      "stateMutability": "view",
      "type": "function"
    },
    {
      "inputs": [
        {
          "internalType": "address",
          "name": "user",
          "type": "address"
        }
      ],
      "name": "getUserLFIDeposits",
      "outputs": [
        {
          "internalType": "uint256",
          "name": "",
          "type": "uint256"
        }
      ],
      "stateMutability": "view",
      "type": "function"
    },
    {
      "inputs": [
        {
          "internalType": "address",
          "name": "benefitor",
          "type": "address"
        }
      ],
      "name": "getUserRewardDebt",
      "outputs": [
        {
          "internalType": "int256",
          "name": "",
          "type": "int256"
        }
      ],
      "stateMutability": "view",
      "type": "function"
    },
    {
      "inputs": [
        {
          "internalType": "address",
          "name": "benefitor",
          "type": "address"
        }
      ],
      "name": "getUserVLFIAmount",
      "outputs": [
        {
          "internalType": "uint256",
          "name": "",
          "type": "uint256"
        }
      ],
      "stateMutability": "view",
      "type": "function"
    },
    {
      "inputs": [
        {
          "internalType": "address",
          "name": "account",
          "type": "address"
        }
      ],
      "name": "getVotes",
      "outputs": [
        {
          "internalType": "uint256",
          "name": "",
          "type": "uint256"
        }
      ],
      "stateMutability": "view",
      "type": "function"
    },
    {
      "inputs": [
        {
          "internalType": "bytes32",
          "name": "role",
          "type": "bytes32"
        },
        {
          "internalType": "address",
          "name": "account",
          "type": "address"
        }
      ],
      "name": "grantRole",
      "outputs": [],
      "stateMutability": "nonpayable",
      "type": "function"
    },
    {
      "inputs": [
        {
          "internalType": "bytes32",
          "name": "role",
          "type": "bytes32"
        },
        {
          "internalType": "address",
          "name": "account",
          "type": "address"
        }
      ],
      "name": "hasRole",
      "outputs": [
        {
          "internalType": "bool",
          "name": "",
          "type": "bool"
        }
      ],
      "stateMutability": "view",
      "type": "function"
    },
    {
      "inputs": [
        {
          "internalType": "address",
          "name": "spender",
          "type": "address"
        },
        {
          "internalType": "uint256",
          "name": "addedValue",
          "type": "uint256"
        }
      ],
      "name": "increaseAllowance",
      "outputs": [
        {
          "internalType": "bool",
          "name": "",
          "type": "bool"
        }
      ],
      "stateMutability": "nonpayable",
      "type": "function"
    },
    {
      "inputs": [
        {
          "internalType": "string",
          "name": "name",
          "type": "string"
        },
        {
          "internalType": "string",
          "name": "symbol",
          "type": "string"
        },
        {
          "internalType": "contract ILFIToken",
          "name": "stakedToken",
          "type": "address"
        },
        {
          "internalType": "uint256",
          "name": "cooldownSeconds",
          "type": "uint256"
        },
        {
          "internalType": "uint256",
          "name": "unstakeWindow",
          "type": "uint256"
        },
        {
          "internalType": "uint256",
          "name": "rewardsPerSecond",
          "type": "uint256"
        }
      ],
      "name": "initialize",
      "outputs": [],
      "stateMutability": "nonpayable",
      "type": "function"
    },
    {
      "inputs": [],
      "name": "name",
      "outputs": [
        {
          "internalType": "string",
          "name": "",
          "type": "string"
        }
      ],
      "stateMutability": "view",
      "type": "function"
    },
    {
      "inputs": [
        {
          "internalType": "address",
          "name": "owner",
          "type": "address"
        }
      ],
      "name": "nonces",
      "outputs": [
        {
          "internalType": "uint256",
          "name": "",
          "type": "uint256"
        }
      ],
      "stateMutability": "view",
      "type": "function"
    },
    {
      "inputs": [
        {
          "internalType": "address",
          "name": "account",
          "type": "address"
        }
      ],
      "name": "numCheckpoints",
      "outputs": [
        {
          "internalType": "uint32",
          "name": "",
          "type": "uint32"
        }
      ],
      "stateMutability": "view",
      "type": "function"
    },
    {
      "inputs": [
        {
          "internalType": "address",
          "name": "owner",
          "type": "address"
        },
        {
          "internalType": "address",
          "name": "spender",
          "type": "address"
        },
        {
          "internalType": "uint256",
          "name": "value",
          "type": "uint256"
        },
        {
          "internalType": "uint256",
          "name": "deadline",
          "type": "uint256"
        },
        {
          "internalType": "uint8",
          "name": "v",
          "type": "uint8"
        },
        {
          "internalType": "bytes32",
          "name": "r",
          "type": "bytes32"
        },
        {
          "internalType": "bytes32",
          "name": "s",
          "type": "bytes32"
        }
      ],
      "name": "permit",
      "outputs": [],
      "stateMutability": "nonpayable",
      "type": "function"
    },
    {
      "inputs": [
        {
          "internalType": "address",
          "name": "owner",
          "type": "address"
        },
        {
          "internalType": "address",
          "name": "spender",
          "type": "address"
        },
        {
          "internalType": "uint256",
          "name": "value",
          "type": "uint256"
        },
        {
          "internalType": "uint256",
          "name": "deadline",
          "type": "uint256"
        },
        {
          "internalType": "uint8",
          "name": "v",
          "type": "uint8"
        },
        {
          "internalType": "bytes32",
          "name": "r",
          "type": "bytes32"
        },
        {
          "internalType": "bytes32",
          "name": "s",
          "type": "bytes32"
        },
        {
          "internalType": "address",
          "name": "onBehalfOf",
          "type": "address"
        }
      ],
      "name": "permitAndStake",
      "outputs": [],
      "stateMutability": "nonpayable",
      "type": "function"
    },
    {
      "inputs": [
        {
          "internalType": "bytes32",
          "name": "role",
          "type": "bytes32"
        },
        {
          "internalType": "address",
          "name": "account",
          "type": "address"
        }
      ],
      "name": "renounceRole",
      "outputs": [],
      "stateMutability": "nonpayable",
      "type": "function"
    },
    {
      "inputs": [
        {
          "internalType": "bytes32",
          "name": "role",
          "type": "bytes32"
        },
        {
          "internalType": "address",
          "name": "account",
          "type": "address"
        }
      ],
      "name": "revokeRole",
      "outputs": [],
      "stateMutability": "nonpayable",
      "type": "function"
    },
    {
      "inputs": [
        {
          "internalType": "uint256",
          "name": "coolDownSeconds",
          "type": "uint256"
        }
      ],
      "name": "setCooldownSeconds",
      "outputs": [],
      "stateMutability": "nonpayable",
      "type": "function"
    },
    {
      "inputs": [
        {
          "internalType": "uint256",
          "name": "_rewardPerSecond",
          "type": "uint256"
        }
      ],
      "name": "setRewardPerSecond",
      "outputs": [],
      "stateMutability": "nonpayable",
      "type": "function"
    },
    {
      "inputs": [
        {
          "internalType": "uint256",
          "name": "unstakeWindow",
          "type": "uint256"
        }
      ],
      "name": "setUnstakeWindowTime",
      "outputs": [],
      "stateMutability": "nonpayable",
      "type": "function"
    },
    {
      "inputs": [
        {
          "internalType": "address",
          "name": "onBehalfOf",
          "type": "address"
        },
        {
          "internalType": "uint256",
          "name": "amount",
          "type": "uint256"
        }
      ],
      "name": "stake",
      "outputs": [],
      "stateMutability": "nonpayable",
      "type": "function"
    },
    {
      "inputs": [
        {
          "internalType": "bytes4",
          "name": "interfaceId",
          "type": "bytes4"
        }
      ],
      "name": "supportsInterface",
      "outputs": [
        {
          "internalType": "bool",
          "name": "",
          "type": "bool"
        }
      ],
      "stateMutability": "view",
      "type": "function"
    },
    {
      "inputs": [],
      "name": "symbol",
      "outputs": [
        {
          "internalType": "string",
          "name": "",
          "type": "string"
        }
      ],
      "stateMutability": "view",
      "type": "function"
    },
    {
      "inputs": [],
      "name": "totalSupply",
      "outputs": [
        {
          "internalType": "uint256",
          "name": "",
          "type": "uint256"
        }
      ],
      "stateMutability": "view",
      "type": "function"
    },
    {
      "inputs": [
        {
          "internalType": "address",
          "name": "to",
          "type": "address"
        },
        {
          "internalType": "uint256",
          "name": "amount",
          "type": "uint256"
        }
      ],
      "name": "transfer",
      "outputs": [
        {
          "internalType": "bool",
          "name": "",
          "type": "bool"
        }
      ],
      "stateMutability": "nonpayable",
      "type": "function"
    },
    {
      "inputs": [
        {
          "internalType": "address",
          "name": "from",
          "type": "address"
        },
        {
          "internalType": "address",
          "name": "to",
          "type": "address"
        },
        {
          "internalType": "uint256",
          "name": "amount",
          "type": "uint256"
        }
      ],
      "name": "transferFrom",
      "outputs": [
        {
          "internalType": "bool",
          "name": "",
          "type": "bool"
        }
      ],
      "stateMutability": "nonpayable",
      "type": "function"
    },
    {
      "inputs": [
        {
          "internalType": "address",
          "name": "to",
          "type": "address"
        },
        {
          "internalType": "uint256",
          "name": "amount",
          "type": "uint256"
        }
      ],
      "name": "unStake",
      "outputs": [],
      "stateMutability": "nonpayable",
      "type": "function"
    },
    {
      "inputs": [],
      "name": "updateFarm",
      "outputs": [
        {
          "components": [
            {
              "internalType": "uint256",
              "name": "accRewardsPerShare",
              "type": "uint256"
            },
            {
              "internalType": "uint256",
              "name": "lastRewardTime",
              "type": "uint256"
            }
          ],
          "internalType": "struct VLFI.FarmInfo",
          "name": "farm",
          "type": "tuple"
        }
      ],
      "stateMutability": "nonpayable",
      "type": "function"
    }
  ],
  "bytecode": "0x608060405234801561001057600080fd5b50613a43806100206000396000f3fe608060405234801561001057600080fd5b50600436106103425760003560e01c8063733d07be116101b8578063ad88918f11610104578063da5b4ee7116100a2578063ef5cfb8c1161007c578063ef5cfb8c1461077d578063f1127ed814610790578063f1cc432a146107cd578063f54ca63c146107e057600080fd5b8063da5b4ee714610726578063dd62ed3e1461072f578063ec87621c1461076857600080fd5b8063c61fbcc5116100de578063c61fbcc5146106c0578063d505accf146106ed578063d547741f14610700578063d93938141461071357600080fd5b8063ad88918f14610687578063adc9772e1461069a578063c3cda520146106ad57600080fd5b806395d89b41116101715780639ab24eb01161014b5780639ab24eb014610646578063a217fddf14610659578063a457c2d714610661578063a9059cbb1461067457600080fd5b806395d89b411461060157806398094be0146106095780639a00a6a31461061c57600080fd5b8063733d07be1461057857806379ee54f7146105a25780637b5b1157146105b55780637ecebe00146105c85780638e539e8c146105db57806391d14854146105ee57600080fd5b80633950935111610292578063587cde1e1161023057806366da58151161020a57806366da5815146105215780636c07d9fe146105345780636fcfff451461053d57806370a082311461056557600080fd5b8063587cde1e146104d85780635c19a95c14610505578063616e0bf91461051857600080fd5b80633c0717fd1161026c5780633c0717fd146104ab5780633d100a3a146104b45780633e340dae146104c75780634853b3b2146104d057600080fd5b8063395093511461045b57806339b84ecf1461046e5780633a46b1a81461049857600080fd5b806323b872dd116102ff578063312f6b83116102d9578063312f6b8314610405578063313ce567146104315780633644e5151461044057806336568abe1461044857600080fd5b806323b872dd146103bc578063248a9ca3146103cf5780632f2ff15d146103f257600080fd5b806301ffc9a71461034757806306fdde031461036f578063095ea7b31461038457806318160ddd146103975780631d5ec3cb146103a95780631f477ea9146103b3575b600080fd5b61035a6103553660046131f2565b610803565b60405190151581526020015b60405180910390f35b61037761083a565b6040516103669190613248565b61035a610392366004613290565b6108cc565b6067545b604051908152602001610366565b6103b16108e4565b005b6101665461039b565b61035a6103ca3660046132bc565b610920565b61039b6103dd3660046132fd565b600090815260fe602052604090206001015490565b6103b1610400366004613316565b610944565b61016254610419906001600160a01b031681565b6040516001600160a01b039091168152602001610366565b60405160128152602001610366565b61039b61096f565b6103b1610456366004613316565b61097e565b61035a610469366004613290565b610a01565b61039b61047c366004613346565b6001600160a01b0316600090815261016a602052604090205490565b61039b6104a6366004613290565b610a40565b6101635461039b565b6103b16104c2366004613379565b610abb565b6101695461039b565b6103b1610b5c565b6104196104e6366004613346565b6001600160a01b03908116600090815261013060205260409020541690565b6103b1610513366004613346565b610bec565b6101655461039b565b6103b161052f3660046132fd565b610bf9565b6101685461039b565b61055061054b366004613346565b610c22565b60405163ffffffff9091168152602001610366565b61039b610573366004613346565b610c45565b61039b610586366004613346565b6001600160a01b0316600090815261016c602052604090205490565b61039b6105b0366004613346565b610c60565b6103b16105c33660046132fd565b610d46565b61039b6105d6366004613346565b610d66565b61039b6105e93660046132fd565b610d84565b61035a6105fc366004613316565b610de1565b610377610e0c565b6103b161061736600461349f565b610e1b565b61039b61062a366004613346565b6001600160a01b0316600090815261016b602052604090205490565b61039b610654366004613346565b610f65565b61039b600081565b61035a61066f366004613290565b610fee565b61035a610682366004613290565b611080565b6103b16106953660046132fd565b61108e565b6103b16106a8366004613290565b6110ae565b6103b16106bb366004613531565b6112fb565b61039b6106ce366004613346565b6001600160a01b0316600090815261016c602052604090206001015490565b6103b16106fb36600461358b565b611428565b6103b161070e366004613316565b61156e565b6103b1610721366004613290565b611594565b6101675461039b565b61039b61073d3660046135f9565b6001600160a01b03918216600090815260666020908152604080832093909416825291909152205490565b61039b6000805160206139ee83398151915281565b6103b161078b366004613346565b6118ec565b6107a361079e366004613627565b611a0a565b60408051825163ffffffff1681526020928301516001600160e01b03169281019290925201610366565b61039b6107db36600461365e565b611a8f565b6107e8611b52565b60408051825181526020928301519281019290925201610366565b60006001600160e01b03198216637965db0b60e01b148061083457506301ffc9a760e01b6001600160e01b03198316145b92915050565b6060606880546108499061369d565b80601f01602080910402602001604051908101604052809291908181526020018280546108759061369d565b80156108c25780601f10610897576101008083540402835291602001916108c2565b820191906000526020600020905b8154815290600101906020018083116108a557829003601f168201915b5050505050905090565b6000336108da818585611c08565b5060019392505050565b6000805160206139ee8339815191526108fd8133611d2c565b506040805180820190915260008082524260209092018290526101685561016955565b60003361092e858285611d90565b610939858585611e22565b506001949350505050565b600082815260fe60205260409020600101546109608133611d2c565b61096a8383611fb0565b505050565b6000610979612036565b905090565b6001600160a01b03811633146109f35760405162461bcd60e51b815260206004820152602f60248201527f416363657373436f6e74726f6c3a2063616e206f6e6c792072656e6f756e636560448201526e103937b632b9903337b91039b2b63360891b60648201526084015b60405180910390fd5b6109fd82826120b1565b5050565b3360008181526066602090815260408083206001600160a01b03871684529091528120549091906108da9082908690610a3b9087906136e8565b611c08565b6000438210610a915760405162461bcd60e51b815260206004820152601f60248201527f4552433230566f7465733a20626c6f636b206e6f7420796574206d696e65640060448201526064016109ea565b6001600160a01b038316600090815261013160205260409020610ab49083612118565b9392505050565b6101625460405163d505accf60e01b81526001600160a01b038a811660048301528981166024830152604482018990526064820188905260ff8716608483015260a4820186905260c482018590529091169063d505accf9060e401600060405180830381600087803b158015610b3057600080fd5b505af1158015610b44573d6000803e3d6000fd5b50505050610b5281876110ae565b5050505050505050565b610b6533610c45565b610bb15760405162461bcd60e51b815260206004820181905260248201527f564c46493a494e56414c49445f42414c414e43455f4f4e5f434f4f4c444f574e60448201526064016109ea565b33600081815261016a6020526040808220429055517f06458eacc93d062b1d92c6575f39b0c1d64541d6881846fecef52a42c7c800089190a2565b610bf633826121d5565b50565b6000805160206139ee833981519152610c128133611d2c565b610c1a611b52565b505061016755565b6001600160a01b0381166000908152610131602052604081205461083490612266565b6001600160a01b031660009081526065602052604090205490565b604080518082018252610168548152610169546020808301919091526001600160a01b038416600090815261016c909152918220815183610ca060675490565b9050836020015142118015610cb457508015155b15610d0c576000846020015142610ccb9190613700565b905060006101675482610cde9190613717565b905082610cf3670de0b6b3a764000083613717565b610cfd9190613736565b610d0790856136e8565b935050505b60018301548354670de0b6b3a764000090610d28908590613717565b610d329190613736565b610d3c9190613758565b9695505050505050565b6000805160206139ee833981519152610d5f8133611d2c565b5061016555565b6001600160a01b038116600090815260cb6020526040812054610834565b6000438210610dd55760405162461bcd60e51b815260206004820152601f60248201527f4552433230566f7465733a20626c6f636b206e6f7420796574206d696e65640060448201526064016109ea565b61083461013283612118565b600091825260fe602090815260408084206001600160a01b0393909316845291905290205460ff1690565b6060606980546108499061369d565b600054610100900460ff16610e365760005460ff1615610e3a565b303b155b610e9d5760405162461bcd60e51b815260206004820152602e60248201527f496e697469616c697a61626c653a20636f6e747261637420697320616c72656160448201526d191e481a5b9a5d1a585b1a5e995960921b60648201526084016109ea565b600054610100900460ff16158015610ebf576000805461ffff19166101011790555b610ec987876122cf565b610ed287612300565b61016280546001600160a01b0319166001600160a01b038716179055610165849055610166839055610f066012600a61387b565b610f12906103e8613717565b61016455610f21600033611fb0565b610f396000805160206139ee83398151915233611fb0565b610f4282610bf9565b610f4a6108e4565b8015610f5c576000805461ff00191690555b50505050505050565b6001600160a01b038116600090815261013160205260408120548015610fdb576001600160a01b038316600090815261013160205260409020610fa9600183613700565b81548110610fb957610fb9613887565b60009182526020909120015464010000000090046001600160e01b0316610fde565b60005b6001600160e01b03169392505050565b3360008181526066602090815260408083206001600160a01b0387168452909152812054909190838110156110735760405162461bcd60e51b815260206004820152602560248201527f45524332303a2064656372656173656420616c6c6f77616e63652062656c6f77604482015264207a65726f60d81b60648201526084016109ea565b6109398286868403611c08565b6000336108da818585611e22565b6000805160206139ee8339815191526110a78133611d2c565b5061016655565b806110f15760405162461bcd60e51b8152602060048201526013602482015272159311924e9253959053125117d05353d55395606a1b60448201526064016109ea565b60006110fc83610c45565b90506000611108611b52565b33600090815261016c60205260409020610164549192509061113285670de0b6b3a7640000613717565b61113c9190613736565b81600001600082825461114f91906136e8565b9091555050815161016454670de0b6b3a7640000919061116f8784613717565b6111799190613736565b6111839190613717565b61118d9190613736565b8160010160008282546111a0919061389d565b909155505033600090815261016b6020526040812080548692906111c59084906136e8565b925050819055508361016360008282546111df91906136e8565b909155506111f290506000858786611a8f565b6001600160a01b038616600090815261016a60205260409020556101645461123790869061122887670de0b6b3a7640000613717565b6112329190613736565b612353565b610162546040516323b872dd60e01b8152336004820152306024820152604481018690526001600160a01b03909116906323b872dd906064016020604051808303816000875af115801561128f573d6000803e3d6000fd5b505050506040513d601f19601f820116820180604052508101906112b391906138de565b506040518481526001600160a01b0386169033907f5dac0c1b1112564a045ba943c9d50270893e8e826c49be8e7073adc713ab7bd79060200160405180910390a35050505050565b8342111561134b5760405162461bcd60e51b815260206004820152601d60248201527f4552433230566f7465733a207369676e6174757265206578706972656400000060448201526064016109ea565b604080517fe48329057bfd03d55e49b547132e39cffd9c1820ad7b9d4c5307691425d15adf60208201526001600160a01b0388169181019190915260608101869052608081018590526000906113c5906113bd9060a0016040516020818303038152906040528051906020012061235d565b8585856123ab565b90506113d0816123c9565b861461141e5760405162461bcd60e51b815260206004820152601960248201527f4552433230566f7465733a20696e76616c6964206e6f6e63650000000000000060448201526064016109ea565b610f5c81886121d5565b834211156114785760405162461bcd60e51b815260206004820152601d60248201527f45524332305065726d69743a206578706972656420646561646c696e6500000060448201526064016109ea565b600060cc548888886114898c6123c9565b6040805160208101969096526001600160a01b0394851690860152929091166060840152608083015260a082015260c0810186905260e00160405160208183030381529060405280519060200120905060006114e48261235d565b905060006114f4828787876123ab565b9050896001600160a01b0316816001600160a01b0316146115575760405162461bcd60e51b815260206004820152601e60248201527f45524332305065726d69743a20696e76616c6964207369676e6174757265000060448201526064016109ea565b6115628a8a8a611c08565b50505050505050505050565b600082815260fe602052604090206001015461158a8133611d2c565b61096a83836120b1565b80158015906115bc57506001600160a01b038216600090815261016b60205260409020548111155b6115fe5760405162461bcd60e51b8152602060048201526013602482015272159311924e9253959053125117d05353d55395606a1b60448201526064016109ea565b33600090815261016a60205260409020546101655461161d90826136e8565b421161166b5760405162461bcd60e51b815260206004820152601a60248201527f564c46493a434f4f4c444f574e5f4e4f545f434f4d504c45544500000000000060448201526064016109ea565b610166546101655461167d90836136e8565b6116879042613700565b11156116d55760405162461bcd60e51b815260206004820152601c60248201527f564c46493a554e5354414b455f57494e444f575f46494e49534845440000000060448201526064016109ea565b60006116e033610c45565b905060006116ec611b52565b33600090815261016c602052604090206101645482519293509091670de0b6b3a7640000919061171c8884613717565b6117269190613717565b6117309190613736565b61173a9190613736565b81600101600082825461174d9190613758565b90915550506101645461176886670de0b6b3a7640000613717565b6117729190613736565b8160000160008282546117859190613700565b909155505033600090815261016b6020526040812080548792906117aa908490613700565b925050819055508461016360008282546117c49190613700565b9091555050610164546117f49033906117e588670de0b6b3a7640000613717565b6117ef9190613736565b6123f1565b6101645461180a86670de0b6b3a7640000613717565b6118149190613736565b61181e9084613700565b6118345733600090815261016a60205260408120555b6101625460405163a9059cbb60e01b81526001600160a01b038881166004830152602482018890529091169063a9059cbb906044016020604051808303816000875af1158015611888573d6000803e3d6000fd5b505050506040513d601f19601f820116820180604052508101906118ac91906138de565b50604051858152339081907f8a3c16627a0e7a870a5d5cd0121ca5d80e2efd0ec7198a11644f1a516ac370939060200160405180910390a3505050505050565b60006118f6611b52565b33600090815261016c60205260408120825181549394509092670de0b6b3a76400009161192291613717565b61192c9190613736565b905060008260010154826119409190613758565b600184018390556040518181529091506001600160a01b0386169033907f9310ccfcb8de723f578a9e4282ea9f521f05ae40dc08f3068dfad528a65ee3c79060200160405180910390a36101625460405163a9059cbb60e01b81526001600160a01b038781166004830152602482018490529091169063a9059cbb906044016020604051808303816000875af11580156119de573d6000803e3d6000fd5b505050506040513d601f19601f82011682018060405250810190611a0291906138de565b505050505050565b60408051808201909152600080825260208201526001600160a01b038316600090815261013160205260409020805463ffffffff8416908110611a4f57611a4f613887565b60009182526020918290206040805180820190915291015463ffffffff8116825264010000000090046001600160e01b0316918101919091529392505050565b6001600160a01b038216600090815261016a602052604081205480611ab8576000915050611b4a565b6000610166546101655442611acd9190613700565b611ad79190613700565b905081811115611aea5760009150611b46565b6000878211611af95787611afb565b425b905082811015611b1057829350505050611b4a565b611b1a85886136e8565b611b248487613717565b611b2e838a613717565b611b3891906136e8565b611b429190613736565b9250505b5090505b949350505050565b6040805180820182526000808252602091820152815180830190925261016854825261016954908201819052421115611c05576000611b9060675490565b90508015611bf1576000826020015142611baa9190613700565b905060006101675482611bbd9190613717565b905082611bd2670de0b6b3a764000083613717565b611bdc9190613736565b84518590611beb9083906136e8565b90525050505b504260208201819052815161016855610169555b90565b6001600160a01b038316611c6a5760405162461bcd60e51b8152602060048201526024808201527f45524332303a20617070726f76652066726f6d20746865207a65726f206164646044820152637265737360e01b60648201526084016109ea565b6001600160a01b038216611ccb5760405162461bcd60e51b815260206004820152602260248201527f45524332303a20617070726f766520746f20746865207a65726f206164647265604482015261737360f01b60648201526084016109ea565b6001600160a01b0383811660008181526066602090815260408083209487168084529482529182902085905590518481527f8c5be1e5ebec7d5bd14f71427d1e84f3dd0314c0f7b2291e5b200ac8c7c3b925910160405180910390a3505050565b611d368282610de1565b6109fd57611d4e816001600160a01b031660146123fb565b611d598360206123fb565b604051602001611d6a929190613900565b60408051601f198184030181529082905262461bcd60e51b82526109ea91600401613248565b6001600160a01b038381166000908152606660209081526040808320938616835292905220546000198114611e1c5781811015611e0f5760405162461bcd60e51b815260206004820152601d60248201527f45524332303a20696e73756666696369656e7420616c6c6f77616e636500000060448201526064016109ea565b611e1c8484848403611c08565b50505050565b6000611e2d84610c45565b90506000611e39611b52565b6001600160a01b038616600090815261016c60205260409020815191925090670de0b6b3a764000090611e6c9086613717565b611e769190613736565b816001016000828254611e899190613758565b9091555050805484908290600090611ea2908490613700565b90915550506001600160a01b0386811690861614611fa5576000611ec586610c45565b6001600160a01b038716600090815261016c60205260409020845191925090670de0b6b3a764000090611ef89088613717565b611f029190613736565b816001016000828254611f15919061389d565b9091555050805486908290600090611f2e9084906136e8565b90915550506001600160a01b038816600090815261016a6020526040902054611f5981888a86611a8f565b6001600160a01b038916600090815261016a60205260409020558587148015611f8157508015155b15611fa1576001600160a01b038916600090815261016a60205260408120555b5050505b611a02868686612597565b611fba8282610de1565b6109fd57600082815260fe602090815260408083206001600160a01b03851684529091529020805460ff19166001179055611ff23390565b6001600160a01b0316816001600160a01b0316837f2f8788117e7eff1d82e926ec794901d17c78024a50270940304540a733656f0d60405160405180910390a45050565b60006109797f8b73c3c69bb8fe3d512ecc4cf759cc79239f7b179b0ffacaa9a75d522b39400f61206560975490565b6098546040805160208101859052908101839052606081018290524660808201523060a082015260009060c0016040516020818303038152906040528051906020012090509392505050565b6120bb8282610de1565b156109fd57600082815260fe602090815260408083206001600160a01b0385168085529252808320805460ff1916905551339285917ff6391f5c32d9c69d2a47ea670b442974b53935d1edc7fd64eb21e047a839171b9190a45050565b8154600090815b8181101561217c576000612133828461276b565b90508486828154811061214857612148613887565b60009182526020909120015463ffffffff16111561216857809250612176565b6121738160016136e8565b91505b5061211f565b81156121c0578461218e600184613700565b8154811061219e5761219e613887565b60009182526020909120015464010000000090046001600160e01b03166121c3565b60005b6001600160e01b031695945050505050565b6001600160a01b0382811660009081526101306020526040812054909116906121fd84610c45565b6001600160a01b038581166000818152610130602052604080822080546001600160a01b031916898616908117909155905194955093928616927f3134e8a2e6d97e929a7e54011ea5485d7d196dd5f0ba4d4ef95803e8e3fc257f9190a4611e1c828483612786565b600063ffffffff8211156122cb5760405162461bcd60e51b815260206004820152602660248201527f53616665436173743a2076616c756520646f65736e27742066697420696e203360448201526532206269747360d01b60648201526084016109ea565b5090565b600054610100900460ff166122f65760405162461bcd60e51b81526004016109ea90613975565b6109fd82826128c5565b600054610100900460ff166123275760405162461bcd60e51b81526004016109ea90613975565b61234a81604051806040016040528060018152602001603160f81b815250612913565b610bf681612954565b6109fd82826129a2565b600061083461236a612036565b8360405161190160f01b6020820152602281018390526042810182905260009060620160405160208183030381529060405280519060200120905092915050565b60008060006123bc87878787612a2d565b91509150611b4681612b1a565b6001600160a01b038116600090815260cb602052604090208054600181018255905b50919050565b6109fd8282612cd5565b6060600061240a836002613717565b6124159060026136e8565b67ffffffffffffffff81111561242d5761242d6133fc565b6040519080825280601f01601f191660200182016040528015612457576020820181803683370190505b509050600360fc1b8160008151811061247257612472613887565b60200101906001600160f81b031916908160001a905350600f60fb1b816001815181106124a1576124a1613887565b60200101906001600160f81b031916908160001a90535060006124c5846002613717565b6124d09060016136e8565b90505b6001811115612548576f181899199a1a9b1b9c1cb0b131b232b360811b85600f166010811061250457612504613887565b1a60f81b82828151811061251a5761251a613887565b60200101906001600160f81b031916908160001a90535060049490941c93612541816139c0565b90506124d3565b508315610ab45760405162461bcd60e51b815260206004820181905260248201527f537472696e67733a20686578206c656e67746820696e73756666696369656e7460448201526064016109ea565b6001600160a01b0383166125fb5760405162461bcd60e51b815260206004820152602560248201527f45524332303a207472616e736665722066726f6d20746865207a65726f206164604482015264647265737360d81b60648201526084016109ea565b6001600160a01b03821661265d5760405162461bcd60e51b815260206004820152602360248201527f45524332303a207472616e7366657220746f20746865207a65726f206164647260448201526265737360e81b60648201526084016109ea565b6001600160a01b038316600090815260656020526040902054818110156126d55760405162461bcd60e51b815260206004820152602660248201527f45524332303a207472616e7366657220616d6f756e7420657863656564732062604482015265616c616e636560d01b60648201526084016109ea565b6001600160a01b0380851660009081526065602052604080822085850390559185168152908120805484929061270c9084906136e8565b92505081905550826001600160a01b0316846001600160a01b03167fddf252ad1be2c89b69c2b068fc378daa952ba7f163c4a11628f55a4df523b3ef8460405161275891815260200190565b60405180910390a3611e1c848484612cee565b600061277a6002848418613736565b610ab4908484166136e8565b816001600160a01b0316836001600160a01b0316141580156127a85750600081115b1561096a576001600160a01b03831615612837576001600160a01b03831660009081526101316020526040812081906127e490612cf985612d05565b91509150846001600160a01b03167fdec2bacdd2f05b59de34da9b523dff8be42e5e38e818c82fdb0bae774387a724838360405161282c929190918252602082015260400190565b60405180910390a250505b6001600160a01b0382161561096a576001600160a01b038216600090815261013160205260408120819061286e90612e7e85612d05565b91509150836001600160a01b03167fdec2bacdd2f05b59de34da9b523dff8be42e5e38e818c82fdb0bae774387a72483836040516128b6929190918252602082015260400190565b60405180910390a25050505050565b600054610100900460ff166128ec5760405162461bcd60e51b81526004016109ea90613975565b81516128ff906068906020850190613162565b50805161096a906069906020840190613162565b600054610100900460ff1661293a5760405162461bcd60e51b81526004016109ea90613975565b815160209283012081519190920120609791909155609855565b600054610100900460ff1661297b5760405162461bcd60e51b81526004016109ea90613975565b507f6e71edae12b1b97f4d1f60370fef10105fa2faae0126114a169c64845d6126c960cc55565b6129ac8282612e8a565b6067546001600160e01b031015612a1e5760405162461bcd60e51b815260206004820152603060248201527f4552433230566f7465733a20746f74616c20737570706c79207269736b73206f60448201526f766572666c6f77696e6720766f74657360801b60648201526084016109ea565b611e1c610132612e7e83612d05565b6000807f7fffffffffffffffffffffffffffffff5d576e7357a4501ddfe92f46681b20a0831115612a645750600090506003612b11565b8460ff16601b14158015612a7c57508460ff16601c14155b15612a8d5750600090506004612b11565b6040805160008082526020820180845289905260ff881692820192909252606081018690526080810185905260019060a0016020604051602081039080840390855afa158015612ae1573d6000803e3d6000fd5b5050604051601f1901519150506001600160a01b038116612b0a57600060019250925050612b11565b9150600090505b94509492505050565b6000816004811115612b2e57612b2e6139d7565b1415612b375750565b6001816004811115612b4b57612b4b6139d7565b1415612b995760405162461bcd60e51b815260206004820152601860248201527f45434453413a20696e76616c6964207369676e6174757265000000000000000060448201526064016109ea565b6002816004811115612bad57612bad6139d7565b1415612bfb5760405162461bcd60e51b815260206004820152601f60248201527f45434453413a20696e76616c6964207369676e6174757265206c656e6774680060448201526064016109ea565b6003816004811115612c0f57612c0f6139d7565b1415612c685760405162461bcd60e51b815260206004820152602260248201527f45434453413a20696e76616c6964207369676e6174757265202773272076616c604482015261756560f01b60648201526084016109ea565b6004816004811115612c7c57612c7c6139d7565b1415610bf65760405162461bcd60e51b815260206004820152602260248201527f45434453413a20696e76616c6964207369676e6174757265202776272076616c604482015261756560f01b60648201526084016109ea565b612cdf8282612f71565b611e1c610132612cf983612d05565b61096a8383836130c6565b6000610ab48284613700565b825460009081908015612d505785612d1e600183613700565b81548110612d2e57612d2e613887565b60009182526020909120015464010000000090046001600160e01b0316612d53565b60005b6001600160e01b03169250612d6c83858763ffffffff16565b9150600081118015612daa57504386612d86600184613700565b81548110612d9657612d96613887565b60009182526020909120015463ffffffff16145b15612e0a57612db8826130f9565b86612dc4600184613700565b81548110612dd457612dd4613887565b9060005260206000200160000160046101000a8154816001600160e01b0302191690836001600160e01b03160217905550612e75565b856040518060400160405280612e1f43612266565b63ffffffff168152602001612e33856130f9565b6001600160e01b0390811690915282546001810184556000938452602093849020835194909301519091166401000000000263ffffffff909316929092179101555b50935093915050565b6000610ab482846136e8565b6001600160a01b038216612ee05760405162461bcd60e51b815260206004820152601f60248201527f45524332303a206d696e7420746f20746865207a65726f20616464726573730060448201526064016109ea565b8060676000828254612ef291906136e8565b90915550506001600160a01b03821660009081526065602052604081208054839290612f1f9084906136e8565b90915550506040518181526001600160a01b038316906000907fddf252ad1be2c89b69c2b068fc378daa952ba7f163c4a11628f55a4df523b3ef9060200160405180910390a36109fd60008383612cee565b6001600160a01b038216612fd15760405162461bcd60e51b815260206004820152602160248201527f45524332303a206275726e2066726f6d20746865207a65726f206164647265736044820152607360f81b60648201526084016109ea565b6001600160a01b038216600090815260656020526040902054818110156130455760405162461bcd60e51b815260206004820152602260248201527f45524332303a206275726e20616d6f756e7420657863656564732062616c616e604482015261636560f01b60648201526084016109ea565b6001600160a01b0383166000908152606560205260408120838303905560678054849290613074908490613700565b90915550506040518281526000906001600160a01b038516907fddf252ad1be2c89b69c2b068fc378daa952ba7f163c4a11628f55a4df523b3ef9060200160405180910390a361096a83600084612cee565b6001600160a01b038381166000908152610130602052604080822054858416835291205461096a92918216911683612786565b60006001600160e01b038211156122cb5760405162461bcd60e51b815260206004820152602760248201527f53616665436173743a2076616c756520646f65736e27742066697420696e20326044820152663234206269747360c81b60648201526084016109ea565b82805461316e9061369d565b90600052602060002090601f01602090048101928261319057600085556131d6565b82601f106131a957805160ff19168380011785556131d6565b828001600101855582156131d6579182015b828111156131d65782518255916020019190600101906131bb565b506122cb9291505b808211156122cb57600081556001016131de565b60006020828403121561320457600080fd5b81356001600160e01b031981168114610ab457600080fd5b60005b8381101561323757818101518382015260200161321f565b83811115611e1c5750506000910152565b602081526000825180602084015261326781604085016020870161321c565b601f01601f19169190910160400192915050565b6001600160a01b0381168114610bf657600080fd5b600080604083850312156132a357600080fd5b82356132ae8161327b565b946020939093013593505050565b6000806000606084860312156132d157600080fd5b83356132dc8161327b565b925060208401356132ec8161327b565b929592945050506040919091013590565b60006020828403121561330f57600080fd5b5035919050565b6000806040838503121561332957600080fd5b82359150602083013561333b8161327b565b809150509250929050565b60006020828403121561335857600080fd5b8135610ab48161327b565b803560ff8116811461337457600080fd5b919050565b600080600080600080600080610100898b03121561339657600080fd5b88356133a18161327b565b975060208901356133b18161327b565b965060408901359550606089013594506133cd60808a01613363565b935060a0890135925060c0890135915060e08901356133eb8161327b565b809150509295985092959890939650565b634e487b7160e01b600052604160045260246000fd5b600082601f83011261342357600080fd5b813567ffffffffffffffff8082111561343e5761343e6133fc565b604051601f8301601f19908116603f01168101908282118183101715613466576134666133fc565b8160405283815286602085880101111561347f57600080fd5b836020870160208301376000602085830101528094505050505092915050565b60008060008060008060c087890312156134b857600080fd5b863567ffffffffffffffff808211156134d057600080fd5b6134dc8a838b01613412565b975060208901359150808211156134f257600080fd5b506134ff89828a01613412565b95505060408701356135108161327b565b959894975094956060810135955060808101359460a0909101359350915050565b60008060008060008060c0878903121561354a57600080fd5b86356135558161327b565b9550602087013594506040870135935061357160608801613363565b92506080870135915060a087013590509295509295509295565b600080600080600080600060e0888a0312156135a657600080fd5b87356135b18161327b565b965060208801356135c18161327b565b955060408801359450606088013593506135dd60808901613363565b925060a0880135915060c0880135905092959891949750929550565b6000806040838503121561360c57600080fd5b82356136178161327b565b9150602083013561333b8161327b565b6000806040838503121561363a57600080fd5b82356136458161327b565b9150602083013563ffffffff8116811461333b57600080fd5b6000806000806080858703121561367457600080fd5b8435935060208501359250604085013561368d8161327b565b9396929550929360600135925050565b600181811c908216806136b157607f821691505b602082108114156123eb57634e487b7160e01b600052602260045260246000fd5b634e487b7160e01b600052601160045260246000fd5b600082198211156136fb576136fb6136d2565b500190565b600082821015613712576137126136d2565b500390565b6000816000190483118215151615613731576137316136d2565b500290565b60008261375357634e487b7160e01b600052601260045260246000fd5b500490565b60008083128015600160ff1b850184121615613776576137766136d2565b6001600160ff1b0384018313811615613791576137916136d2565b50500390565b600181815b808511156137d25781600019048211156137b8576137b86136d2565b808516156137c557918102915b93841c939080029061379c565b509250929050565b6000826137e957506001610834565b816137f657506000610834565b816001811461380c576002811461381657613832565b6001915050610834565b60ff841115613827576138276136d2565b50506001821b610834565b5060208310610133831016604e8410600b8410161715613855575081810a610834565b61385f8383613797565b8060001904821115613873576138736136d2565b029392505050565b6000610ab483836137da565b634e487b7160e01b600052603260045260246000fd5b600080821280156001600160ff1b03849003851316156138bf576138bf6136d2565b600160ff1b83900384128116156138d8576138d86136d2565b50500190565b6000602082840312156138f057600080fd5b81518015158114610ab457600080fd5b7f416363657373436f6e74726f6c3a206163636f756e742000000000000000000081526000835161393881601785016020880161321c565b7001034b99036b4b9b9b4b733903937b6329607d1b601791840191820152835161396981602884016020880161321c565b01602801949350505050565b6020808252602b908201527f496e697469616c697a61626c653a20636f6e7472616374206973206e6f74206960408201526a6e697469616c697a696e6760a81b606082015260800190565b6000816139cf576139cf6136d2565b506000190190565b634e487b7160e01b600052602160045260246000fdfe241ecf16d79d0f8dbfb92cbc07fe17840425976cf0667f022fe9877caa831b08a2646970667358221220f507c61306c9aa0fe7d7d37524875aafa5bfbade0ab9d74d706a0517ace8bc1f64736f6c634300080a0033",
  "linkReferences": {},
  "deployedLinkReferences": {}
}