{
  "_format": "hh-sol-artifact-1",
  "contractName": "VLFI",
  "sourceName": "contracts/VLFI.sol",
  "abi": [
    {
      "inputs": [
        {
          "internalType": "string",
          "name": "name",
          "type": "string"
        },
        {
          "internalType": "string",
          "name": "symbol",
          "type": "string"
        },
        {
          "internalType": "contract IERC20",
          "name": "stakedToken",
          "type": "address"
        },
        {
          "internalType": "uint256",
          "name": "cooldownSeconds",
          "type": "uint256"
        },
        {
          "internalType": "uint256",
          "name": "unstakeWindow",
          "type": "uint256"
        }
      ],
      "stateMutability": "nonpayable",
      "type": "constructor"
    },
    {
      "anonymous": false,
      "inputs": [
        {
          "indexed": true,
          "internalType": "address",
          "name": "owner",
          "type": "address"
        },
        {
          "indexed": true,
          "internalType": "address",
          "name": "spender",
          "type": "address"
        },
        {
          "indexed": false,
          "internalType": "uint256",
          "name": "value",
          "type": "uint256"
        }
      ],
      "name": "Approval",
      "type": "event"
    },
    {
      "anonymous": false,
      "inputs": [
        {
          "indexed": true,
          "internalType": "address",
          "name": "from",
          "type": "address"
        },
        {
          "indexed": true,
          "internalType": "address",
          "name": "onBehalfOf",
          "type": "address"
        },
        {
          "indexed": false,
          "internalType": "uint256",
          "name": "amount",
          "type": "uint256"
        }
      ],
      "name": "Deposited",
      "type": "event"
    },
    {
      "anonymous": false,
      "inputs": [
        {
          "indexed": true,
          "internalType": "address",
          "name": "from",
          "type": "address"
        },
        {
          "indexed": true,
          "internalType": "address",
          "name": "to",
          "type": "address"
        },
        {
          "indexed": false,
          "internalType": "uint256",
          "name": "amount",
          "type": "uint256"
        }
      ],
      "name": "Redeemed",
      "type": "event"
    },
    {
      "anonymous": false,
      "inputs": [
        {
          "indexed": true,
          "internalType": "address",
          "name": "from",
          "type": "address"
        },
        {
          "indexed": true,
          "internalType": "address",
          "name": "to",
          "type": "address"
        },
        {
          "indexed": false,
          "internalType": "uint256",
          "name": "value",
          "type": "uint256"
        }
      ],
      "name": "Transfer",
      "type": "event"
    },
    {
      "inputs": [],
      "name": "COOLDOWN_SECONDS",
      "outputs": [
        {
          "internalType": "uint256",
          "name": "",
          "type": "uint256"
        }
      ],
      "stateMutability": "view",
      "type": "function"
    },
    {
      "inputs": [],
      "name": "STAKED_TOKEN",
      "outputs": [
        {
          "internalType": "contract IERC20",
          "name": "",
          "type": "address"
        }
      ],
      "stateMutability": "view",
      "type": "function"
    },
    {
      "inputs": [],
      "name": "UNSTAKE_WINDOW",
      "outputs": [
        {
          "internalType": "uint256",
          "name": "",
          "type": "uint256"
        }
      ],
      "stateMutability": "view",
      "type": "function"
    },
    {
      "inputs": [
        {
          "internalType": "address",
          "name": "owner",
          "type": "address"
        },
        {
          "internalType": "address",
          "name": "spender",
          "type": "address"
        }
      ],
      "name": "allowance",
      "outputs": [
        {
          "internalType": "uint256",
          "name": "",
          "type": "uint256"
        }
      ],
      "stateMutability": "view",
      "type": "function"
    },
    {
      "inputs": [
        {
          "internalType": "address",
          "name": "spender",
          "type": "address"
        },
        {
          "internalType": "uint256",
          "name": "amount",
          "type": "uint256"
        }
      ],
      "name": "approve",
      "outputs": [
        {
          "internalType": "bool",
          "name": "",
          "type": "bool"
        }
      ],
      "stateMutability": "nonpayable",
      "type": "function"
    },
    {
      "inputs": [
        {
          "internalType": "address",
          "name": "account",
          "type": "address"
        }
      ],
      "name": "balanceOf",
      "outputs": [
        {
          "internalType": "uint256",
          "name": "",
          "type": "uint256"
        }
      ],
      "stateMutability": "view",
      "type": "function"
    },
    {
      "inputs": [],
      "name": "claimRewards",
      "outputs": [],
      "stateMutability": "nonpayable",
      "type": "function"
    },
    {
      "inputs": [],
      "name": "cooldown",
      "outputs": [],
      "stateMutability": "nonpayable",
      "type": "function"
    },
    {
      "inputs": [],
      "name": "createFarm",
      "outputs": [],
      "stateMutability": "nonpayable",
      "type": "function"
    },
    {
      "inputs": [],
      "name": "decimals",
      "outputs": [
        {
          "internalType": "uint8",
          "name": "",
          "type": "uint8"
        }
      ],
      "stateMutability": "view",
      "type": "function"
    },
    {
      "inputs": [
        {
          "internalType": "address",
          "name": "spender",
          "type": "address"
        },
        {
          "internalType": "uint256",
          "name": "subtractedValue",
          "type": "uint256"
        }
      ],
      "name": "decreaseAllowance",
      "outputs": [
        {
          "internalType": "bool",
          "name": "",
          "type": "bool"
        }
      ],
      "stateMutability": "nonpayable",
      "type": "function"
    },
    {
      "inputs": [
        {
          "internalType": "uint256",
          "name": "amount",
          "type": "uint256"
        }
      ],
      "name": "depositLFI",
      "outputs": [],
      "stateMutability": "nonpayable",
      "type": "function"
    },
    {
      "inputs": [],
      "name": "farmInfo",
      "outputs": [
        {
          "internalType": "uint256",
          "name": "accRewardsPerShare",
          "type": "uint256"
        },
        {
          "internalType": "uint256",
          "name": "lastRewardTime",
          "type": "uint256"
        }
      ],
      "stateMutability": "view",
      "type": "function"
    },
    {
      "inputs": [
        {
          "internalType": "uint256",
          "name": "userCooldownTimestamp",
          "type": "uint256"
        },
        {
          "internalType": "uint256",
          "name": "amountToReceive",
          "type": "uint256"
        },
        {
          "internalType": "address",
          "name": "toAddress",
          "type": "address"
        },
        {
          "internalType": "uint256",
          "name": "toBalance",
          "type": "uint256"
        }
      ],
      "name": "getNextCooldownTimestamp",
      "outputs": [
        {
          "internalType": "uint256",
          "name": "",
          "type": "uint256"
        }
      ],
      "stateMutability": "view",
      "type": "function"
    },
    {
      "inputs": [
        {
          "internalType": "address",
          "name": "spender",
          "type": "address"
        },
        {
          "internalType": "uint256",
          "name": "addedValue",
          "type": "uint256"
        }
      ],
      "name": "increaseAllowance",
      "outputs": [
        {
          "internalType": "bool",
          "name": "",
          "type": "bool"
        }
      ],
      "stateMutability": "nonpayable",
      "type": "function"
    },
    {
      "inputs": [],
      "name": "name",
      "outputs": [
        {
          "internalType": "string",
          "name": "",
          "type": "string"
        }
      ],
      "stateMutability": "view",
      "type": "function"
    },
    {
      "inputs": [
        {
          "internalType": "uint256",
          "name": "amount",
          "type": "uint256"
        }
      ],
      "name": "redeemLFI",
      "outputs": [],
      "stateMutability": "nonpayable",
      "type": "function"
    },
    {
      "inputs": [],
      "name": "rewardPerSecond",
      "outputs": [
        {
          "internalType": "uint256",
          "name": "",
          "type": "uint256"
        }
      ],
      "stateMutability": "view",
      "type": "function"
    },
    {
      "inputs": [
        {
          "internalType": "uint256",
          "name": "_rewardPerSecond",
          "type": "uint256"
        }
      ],
      "name": "setRewardPerSecond",
      "outputs": [],
      "stateMutability": "nonpayable",
      "type": "function"
    },
    {
      "inputs": [
        {
          "internalType": "address",
          "name": "",
          "type": "address"
        }
      ],
      "name": "stakerRewardsToClaim",
      "outputs": [
        {
          "internalType": "uint256",
          "name": "",
          "type": "uint256"
        }
      ],
      "stateMutability": "view",
      "type": "function"
    },
    {
      "inputs": [
        {
          "internalType": "address",
          "name": "",
          "type": "address"
        }
      ],
      "name": "stakersCooldowns",
      "outputs": [
        {
          "internalType": "uint256",
          "name": "",
          "type": "uint256"
        }
      ],
      "stateMutability": "view",
      "type": "function"
    },
    {
      "inputs": [],
      "name": "symbol",
      "outputs": [
        {
          "internalType": "string",
          "name": "",
          "type": "string"
        }
      ],
      "stateMutability": "view",
      "type": "function"
    },
    {
      "inputs": [],
      "name": "totalSupply",
      "outputs": [
        {
          "internalType": "uint256",
          "name": "",
          "type": "uint256"
        }
      ],
      "stateMutability": "view",
      "type": "function"
    },
    {
      "inputs": [
        {
          "internalType": "address",
          "name": "recipient",
          "type": "address"
        },
        {
          "internalType": "uint256",
          "name": "amount",
          "type": "uint256"
        }
      ],
      "name": "transfer",
      "outputs": [
        {
          "internalType": "bool",
          "name": "",
          "type": "bool"
        }
      ],
      "stateMutability": "nonpayable",
      "type": "function"
    },
    {
      "inputs": [
        {
          "internalType": "address",
          "name": "sender",
          "type": "address"
        },
        {
          "internalType": "address",
          "name": "recipient",
          "type": "address"
        },
        {
          "internalType": "uint256",
          "name": "amount",
          "type": "uint256"
        }
      ],
      "name": "transferFrom",
      "outputs": [
        {
          "internalType": "bool",
          "name": "",
          "type": "bool"
        }
      ],
      "stateMutability": "nonpayable",
      "type": "function"
    },
    {
      "inputs": [],
      "name": "updateFarm",
      "outputs": [
        {
          "components": [
            {
              "internalType": "uint256",
              "name": "accRewardsPerShare",
              "type": "uint256"
            },
            {
              "internalType": "uint256",
              "name": "lastRewardTime",
              "type": "uint256"
            }
          ],
          "internalType": "struct VLFI.FarmInfo",
          "name": "farm",
          "type": "tuple"
        }
      ],
      "stateMutability": "nonpayable",
      "type": "function"
    },
    {
      "inputs": [
        {
          "internalType": "address",
          "name": "",
          "type": "address"
        }
      ],
      "name": "userInfo",
      "outputs": [
        {
          "internalType": "uint256",
          "name": "amount",
          "type": "uint256"
        },
        {
          "internalType": "int256",
          "name": "rewardDebt",
          "type": "int256"
        }
      ],
      "stateMutability": "view",
      "type": "function"
    },
    {
      "inputs": [
        {
          "internalType": "address",
          "name": "",
          "type": "address"
        }
      ],
      "name": "userLFIDeposits",
      "outputs": [
        {
          "internalType": "uint256",
          "name": "",
          "type": "uint256"
        }
      ],
      "stateMutability": "view",
      "type": "function"
    }
  ],
  "bytecode": "0x60e06040526012600a6200001491906200031b565b6103e86200002391906200036c565b6009553480156200003357600080fd5b5060405162003c9738038062003c97833981810160405281019062000059919062000614565b8484816003908051906020019062000073929190620000de565b5080600490805190602001906200008c929190620000de565b5050508273ffffffffffffffffffffffffffffffffffffffff1660808173ffffffffffffffffffffffffffffffffffffffff16815250508160a081815250508060c0818152505050505050506200073f565b828054620000ec9062000709565b90600052602060002090601f0160209004810192826200011057600085556200015c565b82601f106200012b57805160ff19168380011785556200015c565b828001600101855582156200015c579182015b828111156200015b5782518255916020019190600101906200013e565b5b5090506200016b91906200016f565b5090565b5b808211156200018a57600081600090555060010162000170565b5090565b7f4e487b7100000000000000000000000000000000000000000000000000000000600052601160045260246000fd5b60008160011c9050919050565b6000808291508390505b60018511156200021c57808604811115620001f457620001f36200018e565b5b6001851615620002045780820291505b80810290506200021485620001bd565b9450620001d4565b94509492505050565b6000826200023757600190506200030a565b816200024757600090506200030a565b81600181146200026057600281146200026b57620002a1565b60019150506200030a565b60ff84111562000280576200027f6200018e565b5b8360020a9150848211156200029a57620002996200018e565b5b506200030a565b5060208310610133831016604e8410600b8410161715620002db5782820a905083811115620002d557620002d46200018e565b5b6200030a565b620002ea8484846001620001ca565b925090508184048111156200030457620003036200018e565b5b81810290505b9392505050565b6000819050919050565b6000620003288262000311565b9150620003358362000311565b9250620003647fffffffffffffffffffffffffffffffffffffffffffffffffffffffffffffffff848462000225565b905092915050565b6000620003798262000311565b9150620003868362000311565b9250817fffffffffffffffffffffffffffffffffffffffffffffffffffffffffffffffff0483118215151615620003c257620003c16200018e565b5b828202905092915050565b6000604051905090565b600080fd5b600080fd5b600080fd5b600080fd5b6000601f19601f8301169050919050565b7f4e487b7100000000000000000000000000000000000000000000000000000000600052604160045260246000fd5b6200043682620003eb565b810181811067ffffffffffffffff82111715620004585762000457620003fc565b5b80604052505050565b60006200046d620003cd565b90506200047b82826200042b565b919050565b600067ffffffffffffffff8211156200049e576200049d620003fc565b5b620004a982620003eb565b9050602081019050919050565b60005b83811015620004d6578082015181840152602081019050620004b9565b83811115620004e6576000848401525b50505050565b600062000503620004fd8462000480565b62000461565b905082815260208101848484011115620005225762000521620003e6565b5b6200052f848285620004b6565b509392505050565b600082601f8301126200054f576200054e620003e1565b5b815162000561848260208601620004ec565b91505092915050565b600073ffffffffffffffffffffffffffffffffffffffff82169050919050565b600062000597826200056a565b9050919050565b6000620005ab826200058a565b9050919050565b620005bd816200059e565b8114620005c957600080fd5b50565b600081519050620005dd81620005b2565b92915050565b620005ee8162000311565b8114620005fa57600080fd5b50565b6000815190506200060e81620005e3565b92915050565b600080600080600060a08688031215620006335762000632620003d7565b5b600086015167ffffffffffffffff811115620006545762000653620003dc565b5b620006628882890162000537565b955050602086015167ffffffffffffffff811115620006865762000685620003dc565b5b620006948882890162000537565b9450506040620006a788828901620005cc565b9350506060620006ba88828901620005fd565b9250506080620006cd88828901620005fd565b9150509295509295909350565b7f4e487b7100000000000000000000000000000000000000000000000000000000600052602260045260246000fd5b600060028204905060018216806200072257607f821691505b60208210811415620007395762000738620006da565b5b50919050565b60805160a05160c0516134f0620007a76000396000818161080901528181610fbd0152611463015260008181610d6201528181610f5001528181610fde01526114840152600081816107dc0152818161090c01528181610c4601526111c601526134f06000f3fe608060405234801561001057600080fd5b50600436106101c45760003560e01c806366da5815116100f957806395d89b4111610097578063a9059cbb11610071578063a9059cbb146104fb578063dd62ed3e1461052b578063f1cc432a1461055b578063f54ca63c1461058b576101c4565b806395d89b41146104915780639f1d2ffa146104af578063a457c2d7146104cb576101c4565b806372b49d63116100d357806372b49d631461041b578063787a08a6146104395780637e90d7ef146104435780638f10369a14610473576101c4565b806366da58151461039f5780636fbc92a2146103bb57806370a08231146103eb576101c4565b806323b872dd11610166578063359c4a9611610140578063359c4a961461032b578063372500ab1461034957806339509351146103535780634e253ad014610383576101c4565b806323b872dd146102bf578063312f6b83146102ef578063313ce5671461030d576101c4565b806318160ddd116101a257806318160ddd146102475780631959a002146102655780631d49d66c146102965780631d5ec3cb146102b5576101c4565b806306fdde03146101c9578063091030c3146101e7578063095ea7b314610217575b600080fd5b6101d16105a9565b6040516101de91906123ef565b60405180910390f35b61020160048036038101906101fc9190612474565b61063b565b60405161020e91906124ba565b60405180910390f35b610231600480360381019061022c9190612501565b610653565b60405161023e919061255c565b60405180910390f35b61024f610671565b60405161025c91906124ba565b60405180910390f35b61027f600480360381019061027a9190612474565b61067b565b60405161028d929190612590565b60405180910390f35b61029e61069f565b6040516102ac9291906125b9565b60405180910390f35b6102bd6106b1565b005b6102d960048036038101906102d491906125e2565b6106e2565b6040516102e6919061255c565b60405180910390f35b6102f76107da565b6040516103049190612694565b60405180910390f35b6103156107fe565b60405161032291906126cb565b60405180910390f35b610333610807565b60405161034091906124ba565b60405180910390f35b61035161082b565b005b61036d60048036038101906103689190612501565b6109af565b60405161037a919061255c565b60405180910390f35b61039d600480360381019061039891906126e6565b610a5b565b005b6103b960048036038101906103b491906126e6565b610cf6565b005b6103d560048036038101906103d09190612474565b610d00565b6040516103e291906124ba565b60405180910390f35b61040560048036038101906104009190612474565b610d18565b60405161041291906124ba565b60405180910390f35b610423610d60565b60405161043091906124ba565b60405180910390f35b610441610d84565b005b61045d60048036038101906104589190612474565b610e16565b60405161046a91906124ba565b60405180910390f35b61047b610e2e565b60405161048891906124ba565b60405180910390f35b610499610e34565b6040516104a691906123ef565b60405180910390f35b6104c960048036038101906104c491906126e6565b610ec6565b005b6104e560048036038101906104e09190612501565b611277565b6040516104f2919061255c565b60405180910390f35b61051560048036038101906105109190612501565b611362565b604051610522919061255c565b60405180910390f35b61054560048036038101906105409190612713565b611380565b60405161055291906124ba565b60405180910390f35b61057560048036038101906105709190612753565b611407565b60405161058291906124ba565b60405180910390f35b61059361153b565b6040516105a091906127f8565b60405180910390f35b6060600380546105b890612842565b80601f01602080910402602001604051908101604052809291908181526020018280546105e490612842565b80156106315780601f1061060657610100808354040283529160200191610631565b820191906000526020600020905b81548152906001019060200180831161061457829003601f168201915b5050505050905090565b600b6020528060005260406000206000915090505481565b60006106676106606116cd565b84846116d5565b6001905092915050565b6000600254905090565b60086020528060005260406000206000915090508060000154908060010154905082565b60058060000154908060010154905082565b6040518060400160405280600081526020014281525060056000820151816000015560208201518160010155905050565b60006106ef8484846118a0565b6000600160008673ffffffffffffffffffffffffffffffffffffffff1673ffffffffffffffffffffffffffffffffffffffff168152602001908152602001600020600061073a6116cd565b73ffffffffffffffffffffffffffffffffffffffff1673ffffffffffffffffffffffffffffffffffffffff168152602001908152602001600020549050828110156107ba576040517f08c379a00000000000000000000000000000000000000000000000000000000081526004016107b1906128e6565b60405180910390fd5b6107ce856107c66116cd565b8584036116d5565b60019150509392505050565b7f000000000000000000000000000000000000000000000000000000000000000081565b60006012905090565b7f000000000000000000000000000000000000000000000000000000000000000081565b600061083561153b565b90506000600860003373ffffffffffffffffffffffffffffffffffffffff1673ffffffffffffffffffffffffffffffffffffffff16815260200190815260200160002090506000670de0b6b3a7640000836000015183600001546108999190612935565b6108a391906129be565b90506108ae81611b21565b60008260010154826108c091906129ef565b90506109016040518060400160405280601181526020017f50656e64696e672052657761726420697300000000000000000000000000000081525082611bba565b8183600101819055507f000000000000000000000000000000000000000000000000000000000000000073ffffffffffffffffffffffffffffffffffffffff1663a9059cbb33836040518363ffffffff1660e01b8152600401610965929190612a92565b6020604051808303816000875af1158015610984573d6000803e3d6000fd5b505050506040513d601f19601f820116820180604052508101906109a89190612ae7565b5050505050565b6000610a516109bc6116cd565b8484600160006109ca6116cd565b73ffffffffffffffffffffffffffffffffffffffff1673ffffffffffffffffffffffffffffffffffffffff16815260200190815260200160002060008873ffffffffffffffffffffffffffffffffffffffff1673ffffffffffffffffffffffffffffffffffffffff16815260200190815260200160002054610a4c9190612b14565b6116d5565b6001905092915050565b6000811415610a9f576040517f08c379a0000000000000000000000000000000000000000000000000000000008152600401610a9690612bb6565b60405180910390fd5b6000610aaa33610d18565b90506000610ab661153b565b90506000600860003373ffffffffffffffffffffffffffffffffffffffff1673ffffffffffffffffffffffffffffffffffffffff1681526020019081526020016000209050670de0b6b3a764000060095485610b1291906129be565b610b1c9190612935565b816000016000828254610b2f9190612b14565b92505081905550610b796040518060400160405280601281526020017f4661726d204163632052657761726473203a00000000000000000000000000008152508360000151611bba565b670de0b6b3a76400008260000151670de0b6b3a764000060095487610b9e91906129be565b610ba89190612935565b610bb29190612935565b610bbc91906129be565b8160010181905550610bd16000853386611407565b600b60003373ffffffffffffffffffffffffffffffffffffffff1673ffffffffffffffffffffffffffffffffffffffff16815260200190815260200160002081905550610c3e33670de0b6b3a764000060095487610c2f91906129be565b610c399190612935565b611c56565b610c8b3330867f000000000000000000000000000000000000000000000000000000000000000073ffffffffffffffffffffffffffffffffffffffff16611db6909392919063ffffffff16565b3373ffffffffffffffffffffffffffffffffffffffff163373ffffffffffffffffffffffffffffffffffffffff167f8752a472e571a816aea92eec8dae9baf628e840f4929fbcc2d155e6233ff68a786604051610ce891906124ba565b60405180910390a350505050565b8060078190555050565b600c6020528060005260406000206000915090505481565b60008060008373ffffffffffffffffffffffffffffffffffffffff1673ffffffffffffffffffffffffffffffffffffffff168152602001908152602001600020549050919050565b7f000000000000000000000000000000000000000000000000000000000000000081565b6000610d8f33610d18565b1415610dd0576040517f08c379a0000000000000000000000000000000000000000000000000000000008152600401610dc790612c22565b60405180910390fd5b42600b60003373ffffffffffffffffffffffffffffffffffffffff1673ffffffffffffffffffffffffffffffffffffffff16815260200190815260200160002081905550565b600a6020528060005260406000206000915090505481565b60075481565b606060048054610e4390612842565b80601f0160208091040260200160405190810160405280929190818152602001828054610e6f90612842565b8015610ebc5780601f10610e9157610100808354040283529160200191610ebc565b820191906000526020600020905b815481529060010190602001808311610e9f57829003601f168201915b5050505050905090565b6000811415610f0a576040517f08c379a0000000000000000000000000000000000000000000000000000000008152600401610f0190612bb6565b60405180910390fd5b6000600b60003373ffffffffffffffffffffffffffffffffffffffff1673ffffffffffffffffffffffffffffffffffffffff1681526020019081526020016000205490507f000000000000000000000000000000000000000000000000000000000000000081610f7a9190612b14565b4211610fbb576040517f08c379a0000000000000000000000000000000000000000000000000000000008152600401610fb290612c8e565b60405180910390fd5b7f00000000000000000000000000000000000000000000000000000000000000007f0000000000000000000000000000000000000000000000000000000000000000826110089190612b14565b426110139190612cae565b1115611054576040517f08c379a000000000000000000000000000000000000000000000000000000000815260040161104b90612d2e565b60405180910390fd5b600061105f33610d18565b905060008184116110705783611072565b815b9050600061107e61153b565b90506000600860003373ffffffffffffffffffffffffffffffffffffffff1673ffffffffffffffffffffffffffffffffffffffff1681526020019081526020016000209050670de0b6b3a76400008260000151856110dc9190612935565b6110e691906129be565b8160010160008282546110f991906129ef565b92505081905550670de0b6b3a76400006009548461111791906129be565b6111219190612935565b8160000160008282546111349190612cae565b9250508190555061116533670de0b6b3a76400006009548661115691906129be565b6111609190612935565b611e3f565b600083856111739190612cae565b14156111bf576000600b60003373ffffffffffffffffffffffffffffffffffffffff1673ffffffffffffffffffffffffffffffffffffffff168152602001908152602001600020819055505b61120a33847f000000000000000000000000000000000000000000000000000000000000000073ffffffffffffffffffffffffffffffffffffffff166120169092919063ffffffff16565b3373ffffffffffffffffffffffffffffffffffffffff163373ffffffffffffffffffffffffffffffffffffffff167f27d4634c833b7622a0acddbf7f746183625f105945e95c723ad1d5a9f2a0b6fc8560405161126791906124ba565b60405180910390a3505050505050565b600080600160006112866116cd565b73ffffffffffffffffffffffffffffffffffffffff1673ffffffffffffffffffffffffffffffffffffffff16815260200190815260200160002060008573ffffffffffffffffffffffffffffffffffffffff1673ffffffffffffffffffffffffffffffffffffffff16815260200190815260200160002054905082811015611343576040517f08c379a000000000000000000000000000000000000000000000000000000000815260040161133a90612dc0565b60405180910390fd5b61135761134e6116cd565b858584036116d5565b600191505092915050565b600061137661136f6116cd565b84846118a0565b6001905092915050565b6000600160008473ffffffffffffffffffffffffffffffffffffffff1673ffffffffffffffffffffffffffffffffffffffff16815260200190815260200160002060008373ffffffffffffffffffffffffffffffffffffffff1673ffffffffffffffffffffffffffffffffffffffff16815260200190815260200160002054905092915050565b600080600b60008573ffffffffffffffffffffffffffffffffffffffff1673ffffffffffffffffffffffffffffffffffffffff168152602001908152602001600020549050600081141561145f576000915050611533565b60007f00000000000000000000000000000000000000000000000000000000000000007f0000000000000000000000000000000000000000000000000000000000000000426114ae9190612cae565b6114b89190612cae565b9050818111156114cb576000915061152d565b60008782116114da57876114dc565b425b9050828110156114f157829350505050611533565b84876114fd9190612b14565b83866115099190612935565b82896115159190612935565b61151f9190612b14565b61152991906129be565b9250505b81925050505b949350505050565b61154361233c565b600560405180604001604052908160008201548152602001600182015481525050905042816020015110156116ca57600061157c610671565b90506115bd6040518060400160405280600e81526020017f4c50537570706c79206973203a2000000000000000000000000000000000000081525082611bba565b60008111156116a45760008260200151426115d89190612cae565b90506116196040518060400160405280600c81526020017f74696d652064696666203d20000000000000000000000000000000000000000081525082611bba565b6000600754826116299190612935565b905061166a6040518060400160405280601181526020017f72657761726420416d6f756e742069732000000000000000000000000000000081525082611bba565b82670de0b6b3a76400008261167f9190612935565b61168991906129be565b8460000181815161169a9190612b14565b9150818152505050505b428260200181815250508160056000820151816000015560208201518160010155905050505b90565b600033905090565b600073ffffffffffffffffffffffffffffffffffffffff168373ffffffffffffffffffffffffffffffffffffffff161415611745576040517f08c379a000000000000000000000000000000000000000000000000000000000815260040161173c90612e52565b60405180910390fd5b600073ffffffffffffffffffffffffffffffffffffffff168273ffffffffffffffffffffffffffffffffffffffff1614156117b5576040517f08c379a00000000000000000000000000000000000000000000000000000000081526004016117ac90612ee4565b60405180910390fd5b80600160008573ffffffffffffffffffffffffffffffffffffffff1673ffffffffffffffffffffffffffffffffffffffff16815260200190815260200160002060008473ffffffffffffffffffffffffffffffffffffffff1673ffffffffffffffffffffffffffffffffffffffff168152602001908152602001600020819055508173ffffffffffffffffffffffffffffffffffffffff168373ffffffffffffffffffffffffffffffffffffffff167f8c5be1e5ebec7d5bd14f71427d1e84f3dd0314c0f7b2291e5b200ac8c7c3b9258360405161189391906124ba565b60405180910390a3505050565b600073ffffffffffffffffffffffffffffffffffffffff168373ffffffffffffffffffffffffffffffffffffffff161415611910576040517f08c379a000000000000000000000000000000000000000000000000000000000815260040161190790612f76565b60405180910390fd5b600073ffffffffffffffffffffffffffffffffffffffff168273ffffffffffffffffffffffffffffffffffffffff161415611980576040517f08c379a000000000000000000000000000000000000000000000000000000000815260040161197790613008565b60405180910390fd5b61198b83838361209c565b60008060008573ffffffffffffffffffffffffffffffffffffffff1673ffffffffffffffffffffffffffffffffffffffff16815260200190815260200160002054905081811015611a11576040517f08c379a0000000000000000000000000000000000000000000000000000000008152600401611a089061309a565b60405180910390fd5b8181036000808673ffffffffffffffffffffffffffffffffffffffff1673ffffffffffffffffffffffffffffffffffffffff16815260200190815260200160002081905550816000808573ffffffffffffffffffffffffffffffffffffffff1673ffffffffffffffffffffffffffffffffffffffff1681526020019081526020016000206000828254611aa49190612b14565b925050819055508273ffffffffffffffffffffffffffffffffffffffff168473ffffffffffffffffffffffffffffffffffffffff167fddf252ad1be2c89b69c2b068fc378daa952ba7f163c4a11628f55a4df523b3ef84604051611b0891906124ba565b60405180910390a3611b1b8484846120a1565b50505050565b611bb781604051602401611b3591906130ba565b6040516020818303038152906040527f4e0c1d1d000000000000000000000000000000000000000000000000000000007bffffffffffffffffffffffffffffffffffffffffffffffffffffffff19166020820180517bffffffffffffffffffffffffffffffffffffffffffffffffffffffff83818316178352505050506120a6565b50565b611c528282604051602401611bd09291906130d5565b6040516020818303038152906040527f9710a9d0000000000000000000000000000000000000000000000000000000007bffffffffffffffffffffffffffffffffffffffffffffffffffffffff19166020820180517bffffffffffffffffffffffffffffffffffffffffffffffffffffffff83818316178352505050506120a6565b5050565b600073ffffffffffffffffffffffffffffffffffffffff168273ffffffffffffffffffffffffffffffffffffffff161415611cc6576040517f08c379a0000000000000000000000000000000000000000000000000000000008152600401611cbd90613151565b60405180910390fd5b611cd26000838361209c565b8060026000828254611ce49190612b14565b92505081905550806000808473ffffffffffffffffffffffffffffffffffffffff1673ffffffffffffffffffffffffffffffffffffffff1681526020019081526020016000206000828254611d399190612b14565b925050819055508173ffffffffffffffffffffffffffffffffffffffff16600073ffffffffffffffffffffffffffffffffffffffff167fddf252ad1be2c89b69c2b068fc378daa952ba7f163c4a11628f55a4df523b3ef83604051611d9e91906124ba565b60405180910390a3611db2600083836120a1565b5050565b611e39846323b872dd60e01b858585604051602401611dd793929190613171565b604051602081830303815290604052907bffffffffffffffffffffffffffffffffffffffffffffffffffffffff19166020820180517bffffffffffffffffffffffffffffffffffffffffffffffffffffffff83818316178352505050506120cf565b50505050565b600073ffffffffffffffffffffffffffffffffffffffff168273ffffffffffffffffffffffffffffffffffffffff161415611eaf576040517f08c379a0000000000000000000000000000000000000000000000000000000008152600401611ea69061321a565b60405180910390fd5b611ebb8260008361209c565b60008060008473ffffffffffffffffffffffffffffffffffffffff1673ffffffffffffffffffffffffffffffffffffffff16815260200190815260200160002054905081811015611f41576040517f08c379a0000000000000000000000000000000000000000000000000000000008152600401611f38906132ac565b60405180910390fd5b8181036000808573ffffffffffffffffffffffffffffffffffffffff1673ffffffffffffffffffffffffffffffffffffffff168152602001908152602001600020819055508160026000828254611f989190612cae565b92505081905550600073ffffffffffffffffffffffffffffffffffffffff168373ffffffffffffffffffffffffffffffffffffffff167fddf252ad1be2c89b69c2b068fc378daa952ba7f163c4a11628f55a4df523b3ef84604051611ffd91906124ba565b60405180910390a3612011836000846120a1565b505050565b6120978363a9059cbb60e01b8484604051602401612035929190612a92565b604051602081830303815290604052907bffffffffffffffffffffffffffffffffffffffffffffffffffffffff19166020820180517bffffffffffffffffffffffffffffffffffffffffffffffffffffffff83818316178352505050506120cf565b505050565b505050565b505050565b60008151905060006a636f6e736f6c652e6c6f679050602083016000808483855afa5050505050565b6000612131826040518060400160405280602081526020017f5361666545524332303a206c6f772d6c6576656c2063616c6c206661696c65648152508573ffffffffffffffffffffffffffffffffffffffff166121969092919063ffffffff16565b905060008151111561219157808060200190518101906121519190612ae7565b612190576040517f08c379a00000000000000000000000000000000000000000000000000000000081526004016121879061333e565b60405180910390fd5b5b505050565b60606121a584846000856121ae565b90509392505050565b6060824710156121f3576040517f08c379a00000000000000000000000000000000000000000000000000000000081526004016121ea906133d0565b60405180910390fd5b6121fc856122c2565b61223b576040517f08c379a00000000000000000000000000000000000000000000000000000000081526004016122329061343c565b60405180910390fd5b6000808673ffffffffffffffffffffffffffffffffffffffff16858760405161226491906134a3565b60006040518083038185875af1925050503d80600081146122a1576040519150601f19603f3d011682016040523d82523d6000602084013e6122a6565b606091505b50915091506122b68282866122d5565b92505050949350505050565b600080823b905060008111915050919050565b606083156122e557829050612335565b6000835111156122f85782518084602001fd5b816040517f08c379a000000000000000000000000000000000000000000000000000000000815260040161232c91906123ef565b60405180910390fd5b9392505050565b604051806040016040528060008152602001600081525090565b600081519050919050565b600082825260208201905092915050565b60005b83811015612390578082015181840152602081019050612375565b8381111561239f576000848401525b50505050565b6000601f19601f8301169050919050565b60006123c182612356565b6123cb8185612361565b93506123db818560208601612372565b6123e4816123a5565b840191505092915050565b6000602082019050818103600083015261240981846123b6565b905092915050565b600080fd5b600073ffffffffffffffffffffffffffffffffffffffff82169050919050565b600061244182612416565b9050919050565b61245181612436565b811461245c57600080fd5b50565b60008135905061246e81612448565b92915050565b60006020828403121561248a57612489612411565b5b60006124988482850161245f565b91505092915050565b6000819050919050565b6124b4816124a1565b82525050565b60006020820190506124cf60008301846124ab565b92915050565b6124de816124a1565b81146124e957600080fd5b50565b6000813590506124fb816124d5565b92915050565b6000806040838503121561251857612517612411565b5b60006125268582860161245f565b9250506020612537858286016124ec565b9150509250929050565b60008115159050919050565b61255681612541565b82525050565b6000602082019050612571600083018461254d565b92915050565b6000819050919050565b61258a81612577565b82525050565b60006040820190506125a560008301856124ab565b6125b26020830184612581565b9392505050565b60006040820190506125ce60008301856124ab565b6125db60208301846124ab565b9392505050565b6000806000606084860312156125fb576125fa612411565b5b60006126098682870161245f565b935050602061261a8682870161245f565b925050604061262b868287016124ec565b9150509250925092565b6000819050919050565b600061265a61265561265084612416565b612635565b612416565b9050919050565b600061266c8261263f565b9050919050565b600061267e82612661565b9050919050565b61268e81612673565b82525050565b60006020820190506126a96000830184612685565b92915050565b600060ff82169050919050565b6126c5816126af565b82525050565b60006020820190506126e060008301846126bc565b92915050565b6000602082840312156126fc576126fb612411565b5b600061270a848285016124ec565b91505092915050565b6000806040838503121561272a57612729612411565b5b60006127388582860161245f565b92505060206127498582860161245f565b9150509250929050565b6000806000806080858703121561276d5761276c612411565b5b600061277b878288016124ec565b945050602061278c878288016124ec565b935050604061279d8782880161245f565b92505060606127ae878288016124ec565b91505092959194509250565b6127c3816124a1565b82525050565b6040820160008201516127df60008501826127ba565b5060208201516127f260208501826127ba565b50505050565b600060408201905061280d60008301846127c9565b92915050565b7f4e487b7100000000000000000000000000000000000000000000000000000000600052602260045260246000fd5b6000600282049050600182168061285a57607f821691505b6020821081141561286e5761286d612813565b5b50919050565b7f45524332303a207472616e7366657220616d6f756e742065786365656473206160008201527f6c6c6f77616e6365000000000000000000000000000000000000000000000000602082015250565b60006128d0602883612361565b91506128db82612874565b604082019050919050565b600060208201905081810360008301526128ff816128c3565b9050919050565b7f4e487b7100000000000000000000000000000000000000000000000000000000600052601160045260246000fd5b6000612940826124a1565b915061294b836124a1565b9250817fffffffffffffffffffffffffffffffffffffffffffffffffffffffffffffffff048311821515161561298457612983612906565b5b828202905092915050565b7f4e487b7100000000000000000000000000000000000000000000000000000000600052601260045260246000fd5b60006129c9826124a1565b91506129d4836124a1565b9250826129e4576129e361298f565b5b828204905092915050565b60006129fa82612577565b9150612a0583612577565b9250827f800000000000000000000000000000000000000000000000000000000000000001821260008412151615612a4057612a3f612906565b5b827f7fffffffffffffffffffffffffffffffffffffffffffffffffffffffffffffff018213600084121615612a7857612a77612906565b5b828203905092915050565b612a8c81612436565b82525050565b6000604082019050612aa76000830185612a83565b612ab460208301846124ab565b9392505050565b612ac481612541565b8114612acf57600080fd5b50565b600081519050612ae181612abb565b92915050565b600060208284031215612afd57612afc612411565b5b6000612b0b84828501612ad2565b91505092915050565b6000612b1f826124a1565b9150612b2a836124a1565b9250827fffffffffffffffffffffffffffffffffffffffffffffffffffffffffffffffff03821115612b5f57612b5e612906565b5b828201905092915050565b7f564c46493a494e56414c49445f414d4f554e5400000000000000000000000000600082015250565b6000612ba0601383612361565b9150612bab82612b6a565b602082019050919050565b60006020820190508181036000830152612bcf81612b93565b9050919050565b7f564c46493a494e56414c49445f42414c414e43455f4f4e5f434f4f4c444f574e600082015250565b6000612c0c602083612361565b9150612c1782612bd6565b602082019050919050565b60006020820190508181036000830152612c3b81612bff565b9050919050565b7f564c46493a494e53554646494349454e545f434f4f4c444f574e000000000000600082015250565b6000612c78601a83612361565b9150612c8382612c42565b602082019050919050565b60006020820190508181036000830152612ca781612c6b565b9050919050565b6000612cb9826124a1565b9150612cc4836124a1565b925082821015612cd757612cd6612906565b5b828203905092915050565b7f564c46493a554e5354414b455f57494e444f575f46494e495348454400000000600082015250565b6000612d18601c83612361565b9150612d2382612ce2565b602082019050919050565b60006020820190508181036000830152612d4781612d0b565b9050919050565b7f45524332303a2064656372656173656420616c6c6f77616e63652062656c6f7760008201527f207a65726f000000000000000000000000000000000000000000000000000000602082015250565b6000612daa602583612361565b9150612db582612d4e565b604082019050919050565b60006020820190508181036000830152612dd981612d9d565b9050919050565b7f45524332303a20617070726f76652066726f6d20746865207a65726f2061646460008201527f7265737300000000000000000000000000000000000000000000000000000000602082015250565b6000612e3c602483612361565b9150612e4782612de0565b604082019050919050565b60006020820190508181036000830152612e6b81612e2f565b9050919050565b7f45524332303a20617070726f766520746f20746865207a65726f20616464726560008201527f7373000000000000000000000000000000000000000000000000000000000000602082015250565b6000612ece602283612361565b9150612ed982612e72565b604082019050919050565b60006020820190508181036000830152612efd81612ec1565b9050919050565b7f45524332303a207472616e736665722066726f6d20746865207a65726f20616460008201527f6472657373000000000000000000000000000000000000000000000000000000602082015250565b6000612f60602583612361565b9150612f6b82612f04565b604082019050919050565b60006020820190508181036000830152612f8f81612f53565b9050919050565b7f45524332303a207472616e7366657220746f20746865207a65726f206164647260008201527f6573730000000000000000000000000000000000000000000000000000000000602082015250565b6000612ff2602383612361565b9150612ffd82612f96565b604082019050919050565b6000602082019050818103600083015261302181612fe5565b9050919050565b7f45524332303a207472616e7366657220616d6f756e742065786365656473206260008201527f616c616e63650000000000000000000000000000000000000000000000000000602082015250565b6000613084602683612361565b915061308f82613028565b604082019050919050565b600060208201905081810360008301526130b381613077565b9050919050565b60006020820190506130cf6000830184612581565b92915050565b600060408201905081810360008301526130ef81856123b6565b90506130fe60208301846124ab565b9392505050565b7f45524332303a206d696e7420746f20746865207a65726f206164647265737300600082015250565b600061313b601f83612361565b915061314682613105565b602082019050919050565b6000602082019050818103600083015261316a8161312e565b9050919050565b60006060820190506131866000830186612a83565b6131936020830185612a83565b6131a060408301846124ab565b949350505050565b7f45524332303a206275726e2066726f6d20746865207a65726f2061646472657360008201527f7300000000000000000000000000000000000000000000000000000000000000602082015250565b6000613204602183612361565b915061320f826131a8565b604082019050919050565b60006020820190508181036000830152613233816131f7565b9050919050565b7f45524332303a206275726e20616d6f756e7420657863656564732062616c616e60008201527f6365000000000000000000000000000000000000000000000000000000000000602082015250565b6000613296602283612361565b91506132a18261323a565b604082019050919050565b600060208201905081810360008301526132c581613289565b9050919050565b7f5361666545524332303a204552433230206f7065726174696f6e20646964206e60008201527f6f74207375636365656400000000000000000000000000000000000000000000602082015250565b6000613328602a83612361565b9150613333826132cc565b604082019050919050565b600060208201905081810360008301526133578161331b565b9050919050565b7f416464726573733a20696e73756666696369656e742062616c616e636520666f60008201527f722063616c6c0000000000000000000000000000000000000000000000000000602082015250565b60006133ba602683612361565b91506133c58261335e565b604082019050919050565b600060208201905081810360008301526133e9816133ad565b9050919050565b7f416464726573733a2063616c6c20746f206e6f6e2d636f6e7472616374000000600082015250565b6000613426601d83612361565b9150613431826133f0565b602082019050919050565b6000602082019050818103600083015261345581613419565b9050919050565b600081519050919050565b600081905092915050565b600061347d8261345c565b6134878185613467565b9350613497818560208601612372565b80840191505092915050565b60006134af8284613472565b91508190509291505056fea2646970667358221220078c24f7b2a5a04a806ed8363e8c3ff5577f06d362eb04534f15748d92d49bd264736f6c634300080a0033",
  "linkReferences": {},
  "deployedLinkReferences": {}
}