{
  "_format": "hh-sol-artifact-1",
  "contractName": "HousePoolWBTC",
  "sourceName": "contracts/HousePoolWBTCV1.sol",
  "abi": [
    {
      "anonymous": false,
      "inputs": [
        {
          "indexed": true,
          "internalType": "bytes32",
          "name": "role",
          "type": "bytes32"
        },
        {
          "indexed": true,
          "internalType": "bytes32",
          "name": "previousAdminRole",
          "type": "bytes32"
        },
        {
          "indexed": true,
          "internalType": "bytes32",
          "name": "newAdminRole",
          "type": "bytes32"
        }
      ],
      "name": "RoleAdminChanged",
      "type": "event"
    },
    {
      "anonymous": false,
      "inputs": [
        {
          "indexed": true,
          "internalType": "bytes32",
          "name": "role",
          "type": "bytes32"
        },
        {
          "indexed": true,
          "internalType": "address",
          "name": "account",
          "type": "address"
        },
        {
          "indexed": true,
          "internalType": "address",
          "name": "sender",
          "type": "address"
        }
      ],
      "name": "RoleGranted",
      "type": "event"
    },
    {
      "anonymous": false,
      "inputs": [
        {
          "indexed": true,
          "internalType": "bytes32",
          "name": "role",
          "type": "bytes32"
        },
        {
          "indexed": true,
          "internalType": "address",
          "name": "account",
          "type": "address"
        },
        {
          "indexed": true,
          "internalType": "address",
          "name": "sender",
          "type": "address"
        }
      ],
      "name": "RoleRevoked",
      "type": "event"
    },
    {
      "inputs": [],
      "name": "DATA_PROVIDER_ORACLE",
      "outputs": [
        {
          "internalType": "bytes32",
          "name": "",
          "type": "bytes32"
        }
      ],
      "stateMutability": "view",
      "type": "function"
    },
    {
      "inputs": [],
      "name": "DEFAULT_ADMIN_ROLE",
      "outputs": [
        {
          "internalType": "bytes32",
          "name": "",
          "type": "bytes32"
        }
      ],
      "stateMutability": "view",
      "type": "function"
    },
    {
      "inputs": [],
      "name": "HOUSE_POOL_DATA_PROVIDER",
      "outputs": [
        {
          "internalType": "bytes32",
          "name": "",
          "type": "bytes32"
        }
      ],
      "stateMutability": "view",
      "type": "function"
    },
    {
      "inputs": [
        {
          "internalType": "uint256",
          "name": "amountWBTC",
          "type": "uint256"
        },
        {
          "internalType": "bytes",
          "name": "approval",
          "type": "bytes"
        },
        {
          "components": [
            {
              "internalType": "int256",
              "name": "expectedValue",
              "type": "int256"
            },
            {
              "internalType": "int256",
              "name": "maxExposure",
              "type": "int256"
            },
            {
              "internalType": "uint256",
              "name": "deadline",
              "type": "uint256"
            },
            {
              "internalType": "address",
              "name": "signer",
              "type": "address"
            }
          ],
          "internalType": "struct HousePoolWBTC.ValuesOfInterest",
          "name": "approvedValues",
          "type": "tuple"
        }
      ],
      "name": "deposit",
      "outputs": [],
      "stateMutability": "nonpayable",
      "type": "function"
    },
    {
      "inputs": [
        {
          "internalType": "uint256",
          "name": "WBTCMicro",
          "type": "uint256"
        }
      ],
      "name": "deposit_",
      "outputs": [],
      "stateMutability": "nonpayable",
      "type": "function"
    },
    {
      "inputs": [],
      "name": "getBettingStakes",
      "outputs": [
        {
          "internalType": "uint256",
          "name": "",
          "type": "uint256"
        }
      ],
      "stateMutability": "view",
      "type": "function"
    },
    {
      "inputs": [],
      "name": "getEV",
      "outputs": [
        {
          "internalType": "int256",
          "name": "",
          "type": "int256"
        }
      ],
      "stateMutability": "view",
      "type": "function"
    },
    {
      "inputs": [],
      "name": "getLiquidityStatus",
      "outputs": [
        {
          "internalType": "uint256",
          "name": "",
          "type": "uint256"
        }
      ],
      "stateMutability": "view",
      "type": "function"
    },
    {
      "inputs": [],
      "name": "getMaxExposure",
      "outputs": [
        {
          "internalType": "int256",
          "name": "",
          "type": "int256"
        }
      ],
      "stateMutability": "view",
      "type": "function"
    },
    {
      "inputs": [
        {
          "internalType": "address",
          "name": "_user",
          "type": "address"
        }
      ],
      "name": "getMyLiquidity",
      "outputs": [
        {
          "internalType": "uint256",
          "name": "",
          "type": "uint256"
        }
      ],
      "stateMutability": "view",
      "type": "function"
    },
    {
      "inputs": [
        {
          "internalType": "bytes32",
          "name": "role",
          "type": "bytes32"
        }
      ],
      "name": "getRoleAdmin",
      "outputs": [
        {
          "internalType": "bytes32",
          "name": "",
          "type": "bytes32"
        }
      ],
      "stateMutability": "view",
      "type": "function"
    },
    {
      "inputs": [],
      "name": "getTVLofPool",
      "outputs": [
        {
          "internalType": "int256",
          "name": "",
          "type": "int256"
        }
      ],
      "stateMutability": "view",
      "type": "function"
    },
    {
      "inputs": [],
      "name": "getTokenPrice",
      "outputs": [
        {
          "internalType": "uint256",
          "name": "",
          "type": "uint256"
        }
      ],
      "stateMutability": "view",
      "type": "function"
    },
    {
      "inputs": [],
      "name": "getTokenWithdrawlPrice",
      "outputs": [
        {
          "internalType": "uint256",
          "name": "",
          "type": "uint256"
        }
      ],
      "stateMutability": "view",
      "type": "function"
    },
    {
      "inputs": [],
      "name": "getTreasuryAmount",
      "outputs": [
        {
          "internalType": "uint256",
          "name": "",
          "type": "uint256"
        }
      ],
      "stateMutability": "view",
      "type": "function"
    },
    {
      "inputs": [
        {
          "internalType": "bytes32",
          "name": "role",
          "type": "bytes32"
        },
        {
          "internalType": "address",
          "name": "account",
          "type": "address"
        }
      ],
      "name": "grantRole",
      "outputs": [],
      "stateMutability": "nonpayable",
      "type": "function"
    },
    {
      "inputs": [
        {
          "internalType": "bytes32",
          "name": "role",
          "type": "bytes32"
        },
        {
          "internalType": "address",
          "name": "account",
          "type": "address"
        }
      ],
      "name": "hasRole",
      "outputs": [
        {
          "internalType": "bool",
          "name": "",
          "type": "bool"
        }
      ],
      "stateMutability": "view",
      "type": "function"
    },
    {
      "inputs": [
        {
          "internalType": "address",
          "name": "_owner",
          "type": "address"
        },
        {
          "internalType": "address",
          "name": "_WBTC",
          "type": "address"
        },
        {
          "internalType": "address",
          "name": "_claimToken",
          "type": "address"
        },
        {
          "internalType": "string",
          "name": "_name",
          "type": "string"
        },
        {
          "internalType": "string",
          "name": "_version",
          "type": "string"
        }
      ],
      "name": "initialize",
      "outputs": [],
      "stateMutability": "nonpayable",
      "type": "function"
    },
    {
      "inputs": [],
      "name": "lpTokenPrice",
      "outputs": [
        {
          "internalType": "uint256",
          "name": "",
          "type": "uint256"
        }
      ],
      "stateMutability": "view",
      "type": "function"
    },
    {
      "inputs": [],
      "name": "lpTokenWithdrawlPrice",
      "outputs": [
        {
          "internalType": "uint256",
          "name": "",
          "type": "uint256"
        }
      ],
      "stateMutability": "view",
      "type": "function"
    },
    {
      "inputs": [
        {
          "internalType": "bytes32",
          "name": "role",
          "type": "bytes32"
        },
        {
          "internalType": "address",
          "name": "account",
          "type": "address"
        }
      ],
      "name": "renounceRole",
      "outputs": [],
      "stateMutability": "nonpayable",
      "type": "function"
    },
    {
      "inputs": [
        {
          "internalType": "bytes32",
          "name": "role",
          "type": "bytes32"
        },
        {
          "internalType": "address",
          "name": "account",
          "type": "address"
        }
      ],
      "name": "revokeRole",
      "outputs": [],
      "stateMutability": "nonpayable",
      "type": "function"
    },
    {
      "inputs": [
        {
          "internalType": "uint256",
          "name": "bettingAmount",
          "type": "uint256"
        }
      ],
      "name": "setBettingStakes",
      "outputs": [],
      "stateMutability": "nonpayable",
      "type": "function"
    },
    {
      "inputs": [
        {
          "internalType": "bytes",
          "name": "sig_",
          "type": "bytes"
        },
        {
          "components": [
            {
              "internalType": "int256",
              "name": "expectedValue",
              "type": "int256"
            },
            {
              "internalType": "int256",
              "name": "maxExposure",
              "type": "int256"
            },
            {
              "internalType": "uint256",
              "name": "deadline",
              "type": "uint256"
            },
            {
              "internalType": "address",
              "name": "signer",
              "type": "address"
            }
          ],
          "internalType": "struct HousePoolWBTC.ValuesOfInterest",
          "name": "voi_",
          "type": "tuple"
        }
      ],
      "name": "setVOI",
      "outputs": [],
      "stateMutability": "nonpayable",
      "type": "function"
    },
    {
      "inputs": [
        {
          "internalType": "bool",
          "name": "outcome",
          "type": "bool"
        },
        {
          "internalType": "uint256",
          "name": "betAmount",
          "type": "uint256"
        }
      ],
      "name": "simulateOutcome",
      "outputs": [],
      "stateMutability": "nonpayable",
      "type": "function"
    },
    {
      "inputs": [
        {
          "internalType": "bytes4",
          "name": "interfaceId",
          "type": "bytes4"
        }
      ],
      "name": "supportsInterface",
      "outputs": [
        {
          "internalType": "bool",
          "name": "",
          "type": "bool"
        }
      ],
      "stateMutability": "view",
      "type": "function"
    },
    {
      "inputs": [],
      "name": "voi",
      "outputs": [
        {
          "internalType": "int256",
          "name": "expectedValue",
          "type": "int256"
        },
        {
          "internalType": "int256",
          "name": "maxExposure",
          "type": "int256"
        },
        {
          "internalType": "uint256",
          "name": "deadline",
          "type": "uint256"
        },
        {
          "internalType": "address",
          "name": "signer",
          "type": "address"
        }
      ],
      "stateMutability": "view",
      "type": "function"
    },
    {
      "inputs": [
        {
          "internalType": "uint256",
          "name": "amountWBTC",
          "type": "uint256"
        },
        {
          "internalType": "bytes",
          "name": "approval",
          "type": "bytes"
        },
        {
          "components": [
            {
              "internalType": "int256",
              "name": "expectedValue",
              "type": "int256"
            },
            {
              "internalType": "int256",
              "name": "maxExposure",
              "type": "int256"
            },
            {
              "internalType": "uint256",
              "name": "deadline",
              "type": "uint256"
            },
            {
              "internalType": "address",
              "name": "signer",
              "type": "address"
            }
          ],
          "internalType": "struct HousePoolWBTC.ValuesOfInterest",
          "name": "approvedValues",
          "type": "tuple"
        }
      ],
      "name": "withdraw",
      "outputs": [],
      "stateMutability": "nonpayable",
      "type": "function"
    },
    {
      "inputs": [
        {
          "internalType": "uint256",
          "name": "WBTCMicro",
          "type": "uint256"
        }
      ],
      "name": "withdraw_",
      "outputs": [],
      "stateMutability": "nonpayable",
      "type": "function"
    }
  ],
  "bytecode": "0x608060405234801561001057600080fd5b506141e5806100206000396000f3fe608060405234801561001057600080fd5b50600436106101cf5760003560e01c80635a5d622311610104578063b3ce2524116100a2578063d547741f11610071578063d547741f146104f9578063d75d07c214610515578063e20fcf0014610533578063e678ff2514610551576101cf565b8063b3ce25241461047e578063be1cd7121461049c578063c52cbd34146104bd578063cd08a1df146104db576101cf565b806391d14854116100de57806391d14854146103e4578063a1cd223214610414578063a217fddf14610444578063a43f324114610462576101cf565b80635a5d62231461038e578063639c066d146103ac57806383b43589146103c8576101cf565b80633c0717fd116101715780634b94f50e1161014b5780634b94f50e146103185780634f6d45a214610336578063508c81a21461035257806353f5284714610370576101cf565b80633c0717fd146102c0578063409c86ca146102de578063454175c0146102fa576101cf565b8063218f296e116101ad578063218f296e1461023c578063248a9ca3146102585780632f2ff15d1461028857806336568abe146102a4576101cf565b806301ffc9a7146101d45780630f5a5e181461020457806320ab744914610220575b600080fd5b6101ee60048036038101906101e99190612955565b61056f565b6040516101fb919061299d565b60405180910390f35b61021e600480360381019061021991906129ee565b6105e9565b005b61023a60048036038101906102359190612c72565b6105f5565b005b61025660048036038101906102519190612c72565b610836565b005b610272600480360381019061026d9190612d17565b610a77565b60405161027f9190612d53565b60405180910390f35b6102a2600480360381019061029d9190612d6e565b610a97565b005b6102be60048036038101906102b99190612d6e565b610ac0565b005b6102c8610b43565b6040516102d59190612dbd565b60405180910390f35b6102f860048036038101906102f391906129ee565b610b4d565b005b610302610b57565b60405161030f9190612dbd565b60405180910390f35b610320610b5d565b60405161032d9190612dbd565b60405180910390f35b610350600480360381019061034b9190612e04565b610b67565b005b61035a610c55565b6040516103679190612d53565b60405180910390f35b610378610c79565b6040516103859190612e53565b60405180910390f35b610396610c83565b6040516103a39190612e53565b60405180910390f35b6103c660048036038101906103c191906129ee565b610c90565b005b6103e260048036038101906103dd9190612f0f565b610c9c565b005b6103fe60048036038101906103f99190612d6e565b610e76565b60405161040b919061299d565b60405180910390f35b61042e60048036038101906104299190612fc2565b610ee1565b60405161043b9190612dbd565b60405180910390f35b61044c610fab565b6040516104599190612d53565b60405180910390f35b61047c60048036038101906104779190612fef565b610fb2565b005b61048661121c565b6040516104939190612dbd565b60405180910390f35b6104a4611226565b6040516104b4949392919061305a565b60405180910390f35b6104c5611264565b6040516104d29190612dbd565b60405180910390f35b6104e361126a565b6040516104f09190612e53565b60405180910390f35b610513600480360381019061050e9190612d6e565b611277565b005b61051d6112a0565b60405161052a9190612d53565b60405180910390f35b61053b6112c4565b6040516105489190612dbd565b60405180910390f35b6105596112ce565b6040516105669190612dbd565b60405180910390f35b60007f7965db0b000000000000000000000000000000000000000000000000000000007bffffffffffffffffffffffffffffffffffffffffffffffffffffffff1916827bffffffffffffffffffffffffffffffffffffffffffffffffffffffff191614806105e257506105e1826112d8565b5b9050919050565b6105f281611342565b50565b808260006106a57f382f778b38ac8a684a068262bd90ef9739279743851e0bc20a2bf85f56a2550c84606001518560000151866020015160746000896060015173ffffffffffffffffffffffffffffffffffffffff1673ffffffffffffffffffffffffffffffffffffffff16815260200190815260200160002054886040015160405160200161068a9695949392919061309f565b6040516020818303038152906040528051906020012061177b565b90506106b683606001518284611795565b6106f5576040517f08c379a00000000000000000000000000000000000000000000000000000000081526004016106ec9061315d565b60405180910390fd5b600073ffffffffffffffffffffffffffffffffffffffff16836060015173ffffffffffffffffffffffffffffffffffffffff161415610769576040517f08c379a0000000000000000000000000000000000000000000000000000000008152600401610760906131c9565b60405180910390fd5b6107977feed754290b7b7033469899aa55827c9480fc90a4843b45b7f455d0ac50d3e6ce8460600151610e76565b6107d6576040517f08c379a00000000000000000000000000000000000000000000000000000000081526004016107cd9061325b565b60405180910390fd5b8260400151431061081c576040517f08c379a0000000000000000000000000000000000000000000000000000000008152600401610813906132ed565b60405180910390fd5b6108258461197a565b61082e86611342565b505050505050565b808260006108e67f382f778b38ac8a684a068262bd90ef9739279743851e0bc20a2bf85f56a2550c84606001518560000151866020015160746000896060015173ffffffffffffffffffffffffffffffffffffffff1673ffffffffffffffffffffffffffffffffffffffff1681526020019081526020016000205488604001516040516020016108cb9695949392919061309f565b6040516020818303038152906040528051906020012061177b565b90506108f783606001518284611795565b610936576040517f08c379a000000000000000000000000000000000000000000000000000000000815260040161092d9061315d565b60405180910390fd5b600073ffffffffffffffffffffffffffffffffffffffff16836060015173ffffffffffffffffffffffffffffffffffffffff1614156109aa576040517f08c379a00000000000000000000000000000000000000000000000000000000081526004016109a1906131c9565b60405180910390fd5b6109d87feed754290b7b7033469899aa55827c9480fc90a4843b45b7f455d0ac50d3e6ce8460600151610e76565b610a17576040517f08c379a0000000000000000000000000000000000000000000000000000000008152600401610a0e9061325b565b60405180910390fd5b82604001514310610a5d576040517f08c379a0000000000000000000000000000000000000000000000000000000008152600401610a54906132ed565b60405180910390fd5b610a668461197a565b610a6f866119b9565b505050505050565b600060336000838152602001908152602001600020600101549050919050565b610aa082610a77565b610ab181610aac611d4c565b611d54565b610abb8383611df1565b505050565b610ac8611d4c565b73ffffffffffffffffffffffffffffffffffffffff168173ffffffffffffffffffffffffffffffffffffffff1614610b35576040517f08c379a0000000000000000000000000000000000000000000000000000000008152600401610b2c9061337f565b60405180910390fd5b610b3f8282611ed2565b5050565b6000606954905090565b8060688190555050565b60735481565b6000607254905090565b600015158215151415610bcf57606481610b8191906133fd565b606a6000828254610b92919061342e565b925050819055506063606482610ba891906133fd565b610bb29190613484565b60696000828254610bc3919061342e565b92505081905550610c10565b6064606854610bde91906133fd565b606a6000828254610bef919061342e565b925050819055508060686000828254610c0891906134de565b925050819055505b6000606e600001819055506000606e60010181905550606a54606b6000828254610c3a9190613512565b92505081905550610c49611fb4565b610c5161210b565b5050565b7fce95e3899a3f9149fc26a34674875210907ee3c0dddf61ac603f89e90c1b5f9e81565b6000606b54905090565b6000606e60010154905090565b610c99816119b9565b50565b600060019054906101000a900460ff16610cc45760008054906101000a900460ff1615610ccd565b610ccc612262565b5b610d0c576040517f08c379a0000000000000000000000000000000000000000000000000000000008152600401610d0390613618565b60405180910390fd5b60008060019054906101000a900460ff161590508015610d5c576001600060016101000a81548160ff02191690831515021790555060016000806101000a81548160ff0219169083151502179055505b610d668383612273565b84606c60006101000a81548173ffffffffffffffffffffffffffffffffffffffff021916908373ffffffffffffffffffffffffffffffffffffffff16021790555083606d60006101000a81548173ffffffffffffffffffffffffffffffffffffffff021916908373ffffffffffffffffffffffffffffffffffffffff160217905550610df56000801b876122d0565b60026012610e0391906134de565b600a610e0f919061376b565b6001610e1b9190613484565b60728190555060026012610e2f91906134de565b600a610e3b919061376b565b6001610e479190613484565b6073819055508015610e6e5760008060016101000a81548160ff0219169083151502179055505b505050505050565b60006033600084815260200190815260200160002060000160008373ffffffffffffffffffffffffffffffffffffffff1673ffffffffffffffffffffffffffffffffffffffff16815260200190815260200160002060009054906101000a900460ff16905092915050565b60006012600a610ef1919061376b565b607254606d60009054906101000a900473ffffffffffffffffffffffffffffffffffffffff1673ffffffffffffffffffffffffffffffffffffffff166370a08231856040518263ffffffff1660e01b8152600401610f4f91906137b6565b602060405180830381865afa158015610f6c573d6000803e3d6000fd5b505050506040513d601f19601f82011682018060405250810190610f9091906137e6565b610f9a9190613484565b610fa491906133fd565b9050919050565b6000801b81565b808260006110627f382f778b38ac8a684a068262bd90ef9739279743851e0bc20a2bf85f56a2550c84606001518560000151866020015160746000896060015173ffffffffffffffffffffffffffffffffffffffff1673ffffffffffffffffffffffffffffffffffffffff1681526020019081526020016000205488604001516040516020016110479695949392919061309f565b6040516020818303038152906040528051906020012061177b565b905061107383606001518284611795565b6110b2576040517f08c379a00000000000000000000000000000000000000000000000000000000081526004016110a99061315d565b60405180910390fd5b600073ffffffffffffffffffffffffffffffffffffffff16836060015173ffffffffffffffffffffffffffffffffffffffff161415611126576040517f08c379a000000000000000000000000000000000000000000000000000000000815260040161111d906131c9565b60405180910390fd5b6111547feed754290b7b7033469899aa55827c9480fc90a4843b45b7f455d0ac50d3e6ce8460600151610e76565b611193576040517f08c379a000000000000000000000000000000000000000000000000000000000815260040161118a9061325b565b60405180910390fd5b826040015143106111d9576040517f08c379a00000000000000000000000000000000000000000000000000000000081526004016111d0906132ed565b60405180910390fd5b7fce95e3899a3f9149fc26a34674875210907ee3c0dddf61ac603f89e90c1b5f9e61120b81611206611d4c565b611d54565b6112148561197a565b505050505050565b6000607354905090565b606e8060000154908060010154908060020154908060030160009054906101000a900473ffffffffffffffffffffffffffffffffffffffff16905084565b60725481565b6000606e60000154905090565b61128082610a77565b6112918161128c611d4c565b611d54565b61129b8383611ed2565b505050565b7feed754290b7b7033469899aa55827c9480fc90a4843b45b7f455d0ac50d3e6ce81565b6000606a54905090565b6000606854905090565b60007f01ffc9a7000000000000000000000000000000000000000000000000000000007bffffffffffffffffffffffffffffffffffffffffffffffffffffffff1916827bffffffffffffffffffffffffffffffffffffffffffffffffffffffff1916149050919050565b60026001541415611388576040517f08c379a000000000000000000000000000000000000000000000000000000000815260040161137f9061385f565b60405180910390fd5b6002600181905550600081116113d3576040517f08c379a00000000000000000000000000000000000000000000000000000000081526004016113ca906138cb565b60405180910390fd5b6073546012600a6113e4919061376b565b606d60009054906101000a900473ffffffffffffffffffffffffffffffffffffffff1673ffffffffffffffffffffffffffffffffffffffff166370a08231336040518263ffffffff1660e01b815260040161143f91906137b6565b602060405180830381865afa15801561145c573d6000803e3d6000fd5b505050506040513d601f19601f8201168201806040525081019061148091906137e6565b61148a91906133fd565b6114949190613484565b600a806114a1919061376b565b826114ac9190613484565b111580156114e35750606e600101546069546114c891906138eb565b600a806114d5919061376b565b826114e0919061397f565b13155b611522576040517f08c379a000000000000000000000000000000000000000000000000000000000815260040161151990613ae2565b60405180910390fd5b60006073546012600a611535919061376b565b600a80611542919061376b565b8461154d9190613484565b6115579190613484565b61156191906133fd565b9050600a80611570919061376b565b8261157b9190613484565b6069600082825461158c91906134de565b92505081905550600a806115a0919061376b565b826115ab919061397f565b606b60008282546115bc91906138eb565b92505081905550600a806115d0919061376b565b826115db9190613484565b607560003373ffffffffffffffffffffffffffffffffffffffff1673ffffffffffffffffffffffffffffffffffffffff168152602001908152602001600020600082825461162991906134de565b92505081905550606c60009054906101000a900473ffffffffffffffffffffffffffffffffffffffff1673ffffffffffffffffffffffffffffffffffffffff1663a9059cbb33846040518363ffffffff1660e01b815260040161168d929190613b02565b6020604051808303816000875af11580156116ac573d6000803e3d6000fd5b505050506040513d601f19601f820116820180604052508101906116d09190613b40565b50606d60009054906101000a900473ffffffffffffffffffffffffffffffffffffffff1673ffffffffffffffffffffffffffffffffffffffff16639dc29fac33836040518363ffffffff1660e01b815260040161172e929190613b02565b600060405180830381600087803b15801561174857600080fd5b505af115801561175c573d6000803e3d6000fd5b5050505061176861210b565b611770611fb4565b506001808190555050565b600061178e6117886122de565b8361231e565b9050919050565b60008060006117a48585612351565b91509150600060048111156117bc576117bb613b6d565b5b8160048111156117cf576117ce613b6d565b5b14801561180757508573ffffffffffffffffffffffffffffffffffffffff168273ffffffffffffffffffffffffffffffffffffffff16145b1561181757600192505050611973565b6000808773ffffffffffffffffffffffffffffffffffffffff16631626ba7e60e01b888860405160240161184c929190613c24565b604051602081830303815290604052907bffffffffffffffffffffffffffffffffffffffffffffffffffffffff19166020820180517bffffffffffffffffffffffffffffffffffffffffffffffffffffffff83818316178352505050506040516118b69190613c90565b600060405180830381855afa9150503d80600081146118f1576040519150601f19603f3d011682016040523d82523d6000602084013e6118f6565b606091505b5091509150818015611909575060208151145b801561196c5750631626ba7e60e01b7bffffffffffffffffffffffffffffffffffffffffffffffffffffffff19168180602001905181019061194b9190613cbc565b7bffffffffffffffffffffffffffffffffffffffffffffffffffffffff1916145b9450505050505b9392505050565b606e600001548160000151146119985761199781600001516123d4565b5b606e600101548160200151146119b6576119b581602001516123f2565b5b50565b600260015414156119ff576040517f08c379a00000000000000000000000000000000000000000000000000000000081526004016119f69061385f565b60405180910390fd5b6002600181905550600081118015611ab25750606c60009054906101000a900473ffffffffffffffffffffffffffffffffffffffff1673ffffffffffffffffffffffffffffffffffffffff166370a08231336040518263ffffffff1660e01b8152600401611a6d91906137b6565b602060405180830381865afa158015611a8a573d6000803e3d6000fd5b505050506040513d601f19601f82011682018060405250810190611aae91906137e6565b8111155b611af1576040517f08c379a0000000000000000000000000000000000000000000000000000000008152600401611ae890613d35565b60405180910390fd5b600a80611afe919061376b565b81611b099190613484565b60696000828254611b1a919061342e565b92505081905550600a80611b2e919061376b565b81611b399190613484565b606b6000828254611b4a9190613512565b92505081905550600a80611b5e919061376b565b81611b699190613484565b607560003373ffffffffffffffffffffffffffffffffffffffff1673ffffffffffffffffffffffffffffffffffffffff1681526020019081526020016000206000828254611bb7919061342e565b92505081905550606c60009054906101000a900473ffffffffffffffffffffffffffffffffffffffff1673ffffffffffffffffffffffffffffffffffffffff166323b872dd3330846040518463ffffffff1660e01b8152600401611c1d93929190613d55565b6020604051808303816000875af1158015611c3c573d6000803e3d6000fd5b505050506040513d601f19601f82011682018060405250810190611c609190613b40565b5060006072546012600a611c74919061376b565b600a80611c81919061376b565b84611c8c9190613484565b611c969190613484565b611ca091906133fd565b9050606d60009054906101000a900473ffffffffffffffffffffffffffffffffffffffff1673ffffffffffffffffffffffffffffffffffffffff166340c10f1933836040518363ffffffff1660e01b8152600401611cff929190613b02565b600060405180830381600087803b158015611d1957600080fd5b505af1158015611d2d573d6000803e3d6000fd5b50505050611d39611fb4565b611d4161210b565b506001808190555050565b600033905090565b611d5e8282610e76565b611ded57611d838173ffffffffffffffffffffffffffffffffffffffff1660146123ff565b611d918360001c60206123ff565b604051602001611da2929190613e6b565b6040516020818303038152906040526040517f08c379a0000000000000000000000000000000000000000000000000000000008152600401611de49190613ede565b60405180910390fd5b5050565b611dfb8282610e76565b611ece5760016033600084815260200190815260200160002060000160008373ffffffffffffffffffffffffffffffffffffffff1673ffffffffffffffffffffffffffffffffffffffff16815260200190815260200160002060006101000a81548160ff021916908315150217905550611e73611d4c565b73ffffffffffffffffffffffffffffffffffffffff168173ffffffffffffffffffffffffffffffffffffffff16837f2f8788117e7eff1d82e926ec794901d17c78024a50270940304540a733656f0d60405160405180910390a45b5050565b611edc8282610e76565b15611fb05760006033600084815260200190815260200160002060000160008373ffffffffffffffffffffffffffffffffffffffff1673ffffffffffffffffffffffffffffffffffffffff16815260200190815260200160002060006101000a81548160ff021916908315150217905550611f55611d4c565b73ffffffffffffffffffffffffffffffffffffffff168173ffffffffffffffffffffffffffffffffffffffff16837ff6391f5c32d9c69d2a47ea670b442974b53935d1edc7fd64eb21e047a839171b60405160405180910390a45b5050565b6000606d60009054906101000a900473ffffffffffffffffffffffffffffffffffffffff1673ffffffffffffffffffffffffffffffffffffffff166318160ddd6040518163ffffffff1660e01b8152600401602060405180830381865afa158015612023573d6000803e3d6000fd5b505050506040513d601f19601f8201168201806040525081019061204791906137e6565b1461210957606d60009054906101000a900473ffffffffffffffffffffffffffffffffffffffff1673ffffffffffffffffffffffffffffffffffffffff166318160ddd6040518163ffffffff1660e01b8152600401602060405180830381865afa1580156120b9573d6000803e3d6000fd5b505050506040513d601f19601f820116820180604052508101906120dd91906137e6565b6012600a6120eb919061376b565b606b546120f89190613484565b61210291906133fd565b6072819055505b565b6000606d60009054906101000a900473ffffffffffffffffffffffffffffffffffffffff1673ffffffffffffffffffffffffffffffffffffffff166318160ddd6040518163ffffffff1660e01b8152600401602060405180830381865afa15801561217a573d6000803e3d6000fd5b505050506040513d601f19601f8201168201806040525081019061219e91906137e6565b1461226057606d60009054906101000a900473ffffffffffffffffffffffffffffffffffffffff1673ffffffffffffffffffffffffffffffffffffffff166318160ddd6040518163ffffffff1660e01b8152600401602060405180830381865afa158015612210573d6000803e3d6000fd5b505050506040513d601f19601f8201168201806040525081019061223491906137e6565b6012600a612242919061376b565b60695461224f9190613484565b61225991906133fd565b6073819055505b565b600061226d3061263b565b15905090565b600060019054906101000a900460ff166122c2576040517f08c379a00000000000000000000000000000000000000000000000000000000081526004016122b990613f72565b60405180910390fd5b6122cc828261265e565b5050565b6122da8282611df1565b5050565b60006123197f8b73c3c69bb8fe3d512ecc4cf759cc79239f7b179b0ffacaa9a75d522b39400f61230c6126d9565b6123146126e3565b6126ed565b905090565b60008282604051602001612333929190613fff565b60405160208183030381529060405280519060200120905092915050565b6000806041835114156123935760008060006020860151925060408601519150606086015160001a905061238787828585612727565b945094505050506123cd565b6040835114156123c45760008060208501519150604085015190506123b9868383612834565b9350935050506123cd565b60006002915091505b9250929050565b6123dd81612882565b80606e600001819055506123ef611fb4565b50565b80606e6001018190555050565b6060600060028360026124129190613484565b61241c919061342e565b67ffffffffffffffff81111561243557612434612a36565b5b6040519080825280601f01601f1916602001820160405280156124675781602001600182028036833780820191505090505b5090507f30000000000000000000000000000000000000000000000000000000000000008160008151811061249f5761249e614036565b5b60200101907effffffffffffffffffffffffffffffffffffffffffffffffffffffffffffff1916908160001a9053507f78000000000000000000000000000000000000000000000000000000000000008160018151811061250357612502614036565b5b60200101907effffffffffffffffffffffffffffffffffffffffffffffffffffffffffffff1916908160001a905350600060018460026125439190613484565b61254d919061342e565b90505b60018111156125ed577f3031323334353637383961626364656600000000000000000000000000000000600f86166010811061258f5761258e614036565b5b1a60f81b8282815181106125a6576125a5614036565b5b60200101907effffffffffffffffffffffffffffffffffffffffffffffffffffffffffffff1916908160001a905350600485901c9450806125e690614065565b9050612550565b5060008414612631576040517f08c379a0000000000000000000000000000000000000000000000000000000008152600401612628906140db565b60405180910390fd5b8091505092915050565b6000808273ffffffffffffffffffffffffffffffffffffffff163b119050919050565b600060019054906101000a900460ff166126ad576040517f08c379a00000000000000000000000000000000000000000000000000000000081526004016126a490613f72565b60405180910390fd5b600082805190602001209050600082805190602001209050816034819055508060358190555050505050565b6000603454905090565b6000603554905090565b600083838346306040516020016127089594939291906140fb565b6040516020818303038152906040528051906020012090509392505050565b6000807f7fffffffffffffffffffffffffffffff5d576e7357a4501ddfe92f46681b20a08360001c111561276257600060039150915061282b565b601b8560ff161415801561277a5750601c8560ff1614155b1561278c57600060049150915061282b565b6000600187878787604051600081526020016040526040516127b1949392919061416a565b6020604051602081039080840390855afa1580156127d3573d6000803e3d6000fd5b505050602060405103519050600073ffffffffffffffffffffffffffffffffffffffff168173ffffffffffffffffffffffffffffffffffffffff1614156128225760006001925092505061282b565b80600092509250505b94509492505050565b6000806000807f7fffffffffffffffffffffffffffffffffffffffffffffffffffffffffffffff85169150601b8560ff1c01905061287487828885612727565b935093505050935093915050565b6000606e6000015414156128ae5780606b60008282546128a29190613512565b925050819055506128e6565b606e60000154606b60008282546128c591906138eb565b9250508190555080606b60008282546128de9190613512565b925050819055505b50565b6000604051905090565b600080fd5b600080fd5b60007fffffffff0000000000000000000000000000000000000000000000000000000082169050919050565b612932816128fd565b811461293d57600080fd5b50565b60008135905061294f81612929565b92915050565b60006020828403121561296b5761296a6128f3565b5b600061297984828501612940565b91505092915050565b60008115159050919050565b61299781612982565b82525050565b60006020820190506129b2600083018461298e565b92915050565b6000819050919050565b6129cb816129b8565b81146129d657600080fd5b50565b6000813590506129e8816129c2565b92915050565b600060208284031215612a0457612a036128f3565b5b6000612a12848285016129d9565b91505092915050565b600080fd5b600080fd5b6000601f19601f8301169050919050565b7f4e487b7100000000000000000000000000000000000000000000000000000000600052604160045260246000fd5b612a6e82612a25565b810181811067ffffffffffffffff82111715612a8d57612a8c612a36565b5b80604052505050565b6000612aa06128e9565b9050612aac8282612a65565b919050565b600067ffffffffffffffff821115612acc57612acb612a36565b5b612ad582612a25565b9050602081019050919050565b82818337600083830152505050565b6000612b04612aff84612ab1565b612a96565b905082815260208101848484011115612b2057612b1f612a20565b5b612b2b848285612ae2565b509392505050565b600082601f830112612b4857612b47612a1b565b5b8135612b58848260208601612af1565b91505092915050565b600080fd5b6000819050919050565b612b7981612b66565b8114612b8457600080fd5b50565b600081359050612b9681612b70565b92915050565b600073ffffffffffffffffffffffffffffffffffffffff82169050919050565b6000612bc782612b9c565b9050919050565b612bd781612bbc565b8114612be257600080fd5b50565b600081359050612bf481612bce565b92915050565b600060808284031215612c1057612c0f612b61565b5b612c1a6080612a96565b90506000612c2a84828501612b87565b6000830152506020612c3e84828501612b87565b6020830152506040612c52848285016129d9565b6040830152506060612c6684828501612be5565b60608301525092915050565b600080600060c08486031215612c8b57612c8a6128f3565b5b6000612c99868287016129d9565b935050602084013567ffffffffffffffff811115612cba57612cb96128f8565b5b612cc686828701612b33565b9250506040612cd786828701612bfa565b9150509250925092565b6000819050919050565b612cf481612ce1565b8114612cff57600080fd5b50565b600081359050612d1181612ceb565b92915050565b600060208284031215612d2d57612d2c6128f3565b5b6000612d3b84828501612d02565b91505092915050565b612d4d81612ce1565b82525050565b6000602082019050612d686000830184612d44565b92915050565b60008060408385031215612d8557612d846128f3565b5b6000612d9385828601612d02565b9250506020612da485828601612be5565b9150509250929050565b612db7816129b8565b82525050565b6000602082019050612dd26000830184612dae565b92915050565b612de181612982565b8114612dec57600080fd5b50565b600081359050612dfe81612dd8565b92915050565b60008060408385031215612e1b57612e1a6128f3565b5b6000612e2985828601612def565b9250506020612e3a858286016129d9565b9150509250929050565b612e4d81612b66565b82525050565b6000602082019050612e686000830184612e44565b92915050565b600067ffffffffffffffff821115612e8957612e88612a36565b5b612e9282612a25565b9050602081019050919050565b6000612eb2612ead84612e6e565b612a96565b905082815260208101848484011115612ece57612ecd612a20565b5b612ed9848285612ae2565b509392505050565b600082601f830112612ef657612ef5612a1b565b5b8135612f06848260208601612e9f565b91505092915050565b600080600080600060a08688031215612f2b57612f2a6128f3565b5b6000612f3988828901612be5565b9550506020612f4a88828901612be5565b9450506040612f5b88828901612be5565b935050606086013567ffffffffffffffff811115612f7c57612f7b6128f8565b5b612f8888828901612ee1565b925050608086013567ffffffffffffffff811115612fa957612fa86128f8565b5b612fb588828901612ee1565b9150509295509295909350565b600060208284031215612fd857612fd76128f3565b5b6000612fe684828501612be5565b91505092915050565b60008060a08385031215613006576130056128f3565b5b600083013567ffffffffffffffff811115613024576130236128f8565b5b61303085828601612b33565b925050602061304185828601612bfa565b9150509250929050565b61305481612bbc565b82525050565b600060808201905061306f6000830187612e44565b61307c6020830186612e44565b6130896040830185612dae565b613096606083018461304b565b95945050505050565b600060c0820190506130b46000830189612d44565b6130c1602083018861304b565b6130ce6040830187612e44565b6130db6060830186612e44565b6130e86080830185612dae565b6130f560a0830184612dae565b979650505050505050565b600082825260208201905092915050565b7f486f757365506f6f6c574254433a20696e76616c6964207369676e6174757265600082015250565b6000613147602083613100565b915061315282613111565b602082019050919050565b600060208201905081810360008301526131768161313a565b9050919050565b7f486f757365506f6f6c574254433a20696e76616c6964207369676e6572000000600082015250565b60006131b3601d83613100565b91506131be8261317d565b602082019050919050565b600060208201905081810360008301526131e2816131a6565b9050919050565b7f486f757365506f6f6c574254433a20756e617574686f7269736564207369676e60008201527f6572000000000000000000000000000000000000000000000000000000000000602082015250565b6000613245602283613100565b9150613250826131e9565b604082019050919050565b6000602082019050818103600083015261327481613238565b9050919050565b7f486f757365506f6f6c574254433a207369676e6564207472616e73616374696f60008201527f6e20657870697265640000000000000000000000000000000000000000000000602082015250565b60006132d7602983613100565b91506132e28261327b565b604082019050919050565b60006020820190508181036000830152613306816132ca565b9050919050565b7f416363657373436f6e74726f6c3a2063616e206f6e6c792072656e6f756e636560008201527f20726f6c657320666f722073656c660000000000000000000000000000000000602082015250565b6000613369602f83613100565b91506133748261330d565b604082019050919050565b600060208201905081810360008301526133988161335c565b9050919050565b7f4e487b7100000000000000000000000000000000000000000000000000000000600052601260045260246000fd5b7f4e487b7100000000000000000000000000000000000000000000000000000000600052601160045260246000fd5b6000613408826129b8565b9150613413836129b8565b9250826134235761342261339f565b5b828204905092915050565b6000613439826129b8565b9150613444836129b8565b9250827fffffffffffffffffffffffffffffffffffffffffffffffffffffffffffffffff03821115613479576134786133ce565b5b828201905092915050565b600061348f826129b8565b915061349a836129b8565b9250817fffffffffffffffffffffffffffffffffffffffffffffffffffffffffffffffff04831182151516156134d3576134d26133ce565b5b828202905092915050565b60006134e9826129b8565b91506134f4836129b8565b925082821015613507576135066133ce565b5b828203905092915050565b600061351d82612b66565b915061352883612b66565b9250817f7fffffffffffffffffffffffffffffffffffffffffffffffffffffffffffffff03831360008312151615613563576135626133ce565b5b817f800000000000000000000000000000000000000000000000000000000000000003831260008312161561359b5761359a6133ce565b5b828201905092915050565b7f496e697469616c697a61626c653a20636f6e747261637420697320616c72656160008201527f647920696e697469616c697a6564000000000000000000000000000000000000602082015250565b6000613602602e83613100565b915061360d826135a6565b604082019050919050565b60006020820190508181036000830152613631816135f5565b9050919050565b60008160011c9050919050565b6000808291508390505b600185111561368f5780860481111561366b5761366a6133ce565b5b600185161561367a5780820291505b808102905061368885613638565b945061364f565b94509492505050565b6000826136a85760019050613764565b816136b65760009050613764565b81600181146136cc57600281146136d657613705565b6001915050613764565b60ff8411156136e8576136e76133ce565b5b8360020a9150848211156136ff576136fe6133ce565b5b50613764565b5060208310610133831016604e8410600b841016171561373a5782820a905083811115613735576137346133ce565b5b613764565b6137478484846001613645565b9250905081840481111561375e5761375d6133ce565b5b81810290505b9392505050565b6000613776826129b8565b9150613781836129b8565b92506137ae7fffffffffffffffffffffffffffffffffffffffffffffffffffffffffffffffff8484613698565b905092915050565b60006020820190506137cb600083018461304b565b92915050565b6000815190506137e0816129c2565b92915050565b6000602082840312156137fc576137fb6128f3565b5b600061380a848285016137d1565b91505092915050565b7f5265656e7472616e637947756172643a207265656e7472616e742063616c6c00600082015250565b6000613849601f83613100565b915061385482613813565b602082019050919050565b600060208201905081810360008301526138788161383c565b9050919050565b7f57425443486f757365506f6f6c3a205a65726f20416d6f756e74000000000000600082015250565b60006138b5601a83613100565b91506138c08261387f565b602082019050919050565b600060208201905081810360008301526138e4816138a8565b9050919050565b60006138f682612b66565b915061390183612b66565b9250827f80000000000000000000000000000000000000000000000000000000000000000182126000841215161561393c5761393b6133ce565b5b827f7fffffffffffffffffffffffffffffffffffffffffffffffffffffffffffffff018213600084121615613974576139736133ce565b5b828203905092915050565b600061398a82612b66565b915061399583612b66565b9250827f7fffffffffffffffffffffffffffffffffffffffffffffffffffffffffffffff04821160008413600084131616156139d4576139d36133ce565b5b817f80000000000000000000000000000000000000000000000000000000000000000583126000841260008413161615613a1157613a106133ce565b5b827f80000000000000000000000000000000000000000000000000000000000000000582126000841360008412161615613a4e57613a4d6133ce565b5b827f7fffffffffffffffffffffffffffffffffffffffffffffffffffffffffffffff0582126000841260008412161615613a8b57613a8a6133ce565b5b828202905092915050565b7f57425443486f757365506f6f6c203a2063616e27742077697468647261770000600082015250565b6000613acc601e83613100565b9150613ad782613a96565b602082019050919050565b60006020820190508181036000830152613afb81613abf565b9050919050565b6000604082019050613b17600083018561304b565b613b246020830184612dae565b9392505050565b600081519050613b3a81612dd8565b92915050565b600060208284031215613b5657613b556128f3565b5b6000613b6484828501613b2b565b91505092915050565b7f4e487b7100000000000000000000000000000000000000000000000000000000600052602160045260246000fd5b600081519050919050565b600082825260208201905092915050565b60005b83811015613bd6578082015181840152602081019050613bbb565b83811115613be5576000848401525b50505050565b6000613bf682613b9c565b613c008185613ba7565b9350613c10818560208601613bb8565b613c1981612a25565b840191505092915050565b6000604082019050613c396000830185612d44565b8181036020830152613c4b8184613beb565b90509392505050565b600081905092915050565b6000613c6a82613b9c565b613c748185613c54565b9350613c84818560208601613bb8565b80840191505092915050565b6000613c9c8284613c5f565b915081905092915050565b600081519050613cb681612929565b92915050565b600060208284031215613cd257613cd16128f3565b5b6000613ce084828501613ca7565b91505092915050565b7f57425443486f757365506f6f6c3a20436865636b207468652042616c616e6365600082015250565b6000613d1f602083613100565b9150613d2a82613ce9565b602082019050919050565b60006020820190508181036000830152613d4e81613d12565b9050919050565b6000606082019050613d6a600083018661304b565b613d77602083018561304b565b613d846040830184612dae565b949350505050565b600081905092915050565b7f416363657373436f6e74726f6c3a206163636f756e7420000000000000000000600082015250565b6000613dcd601783613d8c565b9150613dd882613d97565b601782019050919050565b600081519050919050565b6000613df982613de3565b613e038185613d8c565b9350613e13818560208601613bb8565b80840191505092915050565b7f206973206d697373696e6720726f6c6520000000000000000000000000000000600082015250565b6000613e55601183613d8c565b9150613e6082613e1f565b601182019050919050565b6000613e7682613dc0565b9150613e828285613dee565b9150613e8d82613e48565b9150613e998284613dee565b91508190509392505050565b6000613eb082613de3565b613eba8185613100565b9350613eca818560208601613bb8565b613ed381612a25565b840191505092915050565b60006020820190508181036000830152613ef88184613ea5565b905092915050565b7f496e697469616c697a61626c653a20636f6e7472616374206973206e6f74206960008201527f6e697469616c697a696e67000000000000000000000000000000000000000000602082015250565b6000613f5c602b83613100565b9150613f6782613f00565b604082019050919050565b60006020820190508181036000830152613f8b81613f4f565b9050919050565b7f1901000000000000000000000000000000000000000000000000000000000000600082015250565b6000613fc8600283613d8c565b9150613fd382613f92565b600282019050919050565b6000819050919050565b613ff9613ff482612ce1565b613fde565b82525050565b600061400a82613fbb565b91506140168285613fe8565b6020820191506140268284613fe8565b6020820191508190509392505050565b7f4e487b7100000000000000000000000000000000000000000000000000000000600052603260045260246000fd5b6000614070826129b8565b91506000821415614084576140836133ce565b5b600182039050919050565b7f537472696e67733a20686578206c656e67746820696e73756666696369656e74600082015250565b60006140c5602083613100565b91506140d08261408f565b602082019050919050565b600060208201905081810360008301526140f4816140b8565b9050919050565b600060a0820190506141106000830188612d44565b61411d6020830187612d44565b61412a6040830186612d44565b6141376060830185612dae565b614144608083018461304b565b9695505050505050565b600060ff82169050919050565b6141648161414e565b82525050565b600060808201905061417f6000830187612d44565b61418c602083018661415b565b6141996040830185612d44565b6141a66060830184612d44565b9594505050505056fea26469706673582212207576d82d2d48a232fea5f1c61850f242c9197c1f6a98c7ede151f04b03f949b564736f6c634300080a0033",
  "linkReferences": {},
  "deployedLinkReferences": {}
}