{
  "_format": "hh-sol-artifact-1",
  "contractName": "HousePoolWETH",
  "sourceName": "contracts/HousePoolWETH.sol",
  "abi": [
    {
      "inputs": [
        {
          "internalType": "address",
          "name": "_owner",
          "type": "address"
        },
        {
          "internalType": "address",
          "name": "_WETH",
          "type": "address"
        },
        {
          "internalType": "address",
          "name": "_claimToken",
          "type": "address"
        },
        {
          "internalType": "string",
          "name": "_name",
          "type": "string"
        },
        {
          "internalType": "string",
          "name": "_version",
          "type": "string"
        }
      ],
      "stateMutability": "nonpayable",
      "type": "constructor"
    },
    {
      "anonymous": false,
      "inputs": [
        {
          "indexed": true,
          "internalType": "bytes32",
          "name": "role",
          "type": "bytes32"
        },
        {
          "indexed": true,
          "internalType": "bytes32",
          "name": "previousAdminRole",
          "type": "bytes32"
        },
        {
          "indexed": true,
          "internalType": "bytes32",
          "name": "newAdminRole",
          "type": "bytes32"
        }
      ],
      "name": "RoleAdminChanged",
      "type": "event"
    },
    {
      "anonymous": false,
      "inputs": [
        {
          "indexed": true,
          "internalType": "bytes32",
          "name": "role",
          "type": "bytes32"
        },
        {
          "indexed": true,
          "internalType": "address",
          "name": "account",
          "type": "address"
        },
        {
          "indexed": true,
          "internalType": "address",
          "name": "sender",
          "type": "address"
        }
      ],
      "name": "RoleGranted",
      "type": "event"
    },
    {
      "anonymous": false,
      "inputs": [
        {
          "indexed": true,
          "internalType": "bytes32",
          "name": "role",
          "type": "bytes32"
        },
        {
          "indexed": true,
          "internalType": "address",
          "name": "account",
          "type": "address"
        },
        {
          "indexed": true,
          "internalType": "address",
          "name": "sender",
          "type": "address"
        }
      ],
      "name": "RoleRevoked",
      "type": "event"
    },
    {
      "inputs": [],
      "name": "DATA_PROVIDER_ORACLE",
      "outputs": [
        {
          "internalType": "bytes32",
          "name": "",
          "type": "bytes32"
        }
      ],
      "stateMutability": "view",
      "type": "function"
    },
    {
      "inputs": [],
      "name": "DEFAULT_ADMIN_ROLE",
      "outputs": [
        {
          "internalType": "bytes32",
          "name": "",
          "type": "bytes32"
        }
      ],
      "stateMutability": "view",
      "type": "function"
    },
    {
      "inputs": [],
      "name": "HOUSE_POOL_DATA_PROVIDER",
      "outputs": [
        {
          "internalType": "bytes32",
          "name": "",
          "type": "bytes32"
        }
      ],
      "stateMutability": "view",
      "type": "function"
    },
    {
      "inputs": [
        {
          "internalType": "uint256",
          "name": "amountWETH",
          "type": "uint256"
        },
        {
          "internalType": "bytes",
          "name": "approval",
          "type": "bytes"
        },
        {
          "components": [
            {
              "internalType": "int256",
              "name": "expectedValue",
              "type": "int256"
            },
            {
              "internalType": "int256",
              "name": "maxExposure",
              "type": "int256"
            },
            {
              "internalType": "uint256",
              "name": "deadline",
              "type": "uint256"
            },
            {
              "internalType": "address",
              "name": "signer",
              "type": "address"
            }
          ],
          "internalType": "struct HousePoolWETH.ValuesOfInterest",
          "name": "approvedValues",
          "type": "tuple"
        }
      ],
      "name": "deposit",
      "outputs": [],
      "stateMutability": "nonpayable",
      "type": "function"
    },
    {
      "inputs": [
        {
          "internalType": "uint256",
          "name": "WETHMicro",
          "type": "uint256"
        }
      ],
      "name": "deposit_",
      "outputs": [],
      "stateMutability": "nonpayable",
      "type": "function"
    },
    {
      "inputs": [],
      "name": "getBettingStakes",
      "outputs": [
        {
          "internalType": "uint256",
          "name": "",
          "type": "uint256"
        }
      ],
      "stateMutability": "view",
      "type": "function"
    },
    {
      "inputs": [],
      "name": "getEV",
      "outputs": [
        {
          "internalType": "int256",
          "name": "",
          "type": "int256"
        }
      ],
      "stateMutability": "view",
      "type": "function"
    },
    {
      "inputs": [],
      "name": "getLiquidityStatus",
      "outputs": [
        {
          "internalType": "uint256",
          "name": "",
          "type": "uint256"
        }
      ],
      "stateMutability": "view",
      "type": "function"
    },
    {
      "inputs": [],
      "name": "getMaxExposure",
      "outputs": [
        {
          "internalType": "int256",
          "name": "",
          "type": "int256"
        }
      ],
      "stateMutability": "view",
      "type": "function"
    },
    {
      "inputs": [
        {
          "internalType": "address",
          "name": "_user",
          "type": "address"
        }
      ],
      "name": "getMyLiquidity",
      "outputs": [
        {
          "internalType": "uint256",
          "name": "",
          "type": "uint256"
        }
      ],
      "stateMutability": "view",
      "type": "function"
    },
    {
      "inputs": [
        {
          "internalType": "bytes32",
          "name": "role",
          "type": "bytes32"
        }
      ],
      "name": "getRoleAdmin",
      "outputs": [
        {
          "internalType": "bytes32",
          "name": "",
          "type": "bytes32"
        }
      ],
      "stateMutability": "view",
      "type": "function"
    },
    {
      "inputs": [],
      "name": "getTVLofPool",
      "outputs": [
        {
          "internalType": "int256",
          "name": "",
          "type": "int256"
        }
      ],
      "stateMutability": "view",
      "type": "function"
    },
    {
      "inputs": [],
      "name": "getTokenPrice",
      "outputs": [
        {
          "internalType": "uint256",
          "name": "",
          "type": "uint256"
        }
      ],
      "stateMutability": "view",
      "type": "function"
    },
    {
      "inputs": [],
      "name": "getTokenWithdrawlPrice",
      "outputs": [
        {
          "internalType": "uint256",
          "name": "",
          "type": "uint256"
        }
      ],
      "stateMutability": "view",
      "type": "function"
    },
    {
      "inputs": [],
      "name": "getTreasuryAmount",
      "outputs": [
        {
          "internalType": "uint256",
          "name": "",
          "type": "uint256"
        }
      ],
      "stateMutability": "view",
      "type": "function"
    },
    {
      "inputs": [
        {
          "internalType": "bytes32",
          "name": "role",
          "type": "bytes32"
        },
        {
          "internalType": "address",
          "name": "account",
          "type": "address"
        }
      ],
      "name": "grantRole",
      "outputs": [],
      "stateMutability": "nonpayable",
      "type": "function"
    },
    {
      "inputs": [
        {
          "internalType": "bytes32",
          "name": "role",
          "type": "bytes32"
        },
        {
          "internalType": "address",
          "name": "account",
          "type": "address"
        }
      ],
      "name": "hasRole",
      "outputs": [
        {
          "internalType": "bool",
          "name": "",
          "type": "bool"
        }
      ],
      "stateMutability": "view",
      "type": "function"
    },
    {
      "inputs": [
        {
          "internalType": "bytes32",
          "name": "role",
          "type": "bytes32"
        },
        {
          "internalType": "address",
          "name": "account",
          "type": "address"
        }
      ],
      "name": "renounceRole",
      "outputs": [],
      "stateMutability": "nonpayable",
      "type": "function"
    },
    {
      "inputs": [
        {
          "internalType": "bytes32",
          "name": "role",
          "type": "bytes32"
        },
        {
          "internalType": "address",
          "name": "account",
          "type": "address"
        }
      ],
      "name": "revokeRole",
      "outputs": [],
      "stateMutability": "nonpayable",
      "type": "function"
    },
    {
      "inputs": [
        {
          "internalType": "uint256",
          "name": "bettingAmount",
          "type": "uint256"
        }
      ],
      "name": "setBettingStakes",
      "outputs": [],
      "stateMutability": "nonpayable",
      "type": "function"
    },
    {
      "inputs": [
        {
          "internalType": "bytes",
          "name": "sig_",
          "type": "bytes"
        },
        {
          "components": [
            {
              "internalType": "int256",
              "name": "expectedValue",
              "type": "int256"
            },
            {
              "internalType": "int256",
              "name": "maxExposure",
              "type": "int256"
            },
            {
              "internalType": "uint256",
              "name": "deadline",
              "type": "uint256"
            },
            {
              "internalType": "address",
              "name": "signer",
              "type": "address"
            }
          ],
          "internalType": "struct HousePoolWETH.ValuesOfInterest",
          "name": "voi_",
          "type": "tuple"
        }
      ],
      "name": "setVOI",
      "outputs": [],
      "stateMutability": "nonpayable",
      "type": "function"
    },
    {
      "inputs": [
        {
          "internalType": "bool",
          "name": "outcome",
          "type": "bool"
        },
        {
          "internalType": "uint256",
          "name": "betAmount",
          "type": "uint256"
        }
      ],
      "name": "simulateOutcome",
      "outputs": [],
      "stateMutability": "nonpayable",
      "type": "function"
    },
    {
      "inputs": [
        {
          "internalType": "bytes4",
          "name": "interfaceId",
          "type": "bytes4"
        }
      ],
      "name": "supportsInterface",
      "outputs": [
        {
          "internalType": "bool",
          "name": "",
          "type": "bool"
        }
      ],
      "stateMutability": "view",
      "type": "function"
    },
    {
      "inputs": [],
      "name": "voi",
      "outputs": [
        {
          "internalType": "int256",
          "name": "expectedValue",
          "type": "int256"
        },
        {
          "internalType": "int256",
          "name": "maxExposure",
          "type": "int256"
        },
        {
          "internalType": "uint256",
          "name": "deadline",
          "type": "uint256"
        },
        {
          "internalType": "address",
          "name": "signer",
          "type": "address"
        }
      ],
      "stateMutability": "view",
      "type": "function"
    },
    {
      "inputs": [
        {
          "internalType": "uint256",
          "name": "amountWETH",
          "type": "uint256"
        },
        {
          "internalType": "bytes",
          "name": "approval",
          "type": "bytes"
        },
        {
          "components": [
            {
              "internalType": "int256",
              "name": "expectedValue",
              "type": "int256"
            },
            {
              "internalType": "int256",
              "name": "maxExposure",
              "type": "int256"
            },
            {
              "internalType": "uint256",
              "name": "deadline",
              "type": "uint256"
            },
            {
              "internalType": "address",
              "name": "signer",
              "type": "address"
            }
          ],
          "internalType": "struct HousePoolWETH.ValuesOfInterest",
          "name": "approvedValues",
          "type": "tuple"
        }
      ],
      "name": "withdraw",
      "outputs": [],
      "stateMutability": "nonpayable",
      "type": "function"
    },
    {
      "inputs": [
        {
          "internalType": "uint256",
          "name": "WETHMicro",
          "type": "uint256"
        }
      ],
      "name": "withdraw_",
      "outputs": [],
      "stateMutability": "nonpayable",
      "type": "function"
    }
  ],
  "bytecode": "0x61014060405260026012620000159190620003e3565b600a62000023919062000594565b6064620000319190620005e5565b600c5560026012620000449190620003e3565b600a62000052919062000594565b6064620000609190620005e5565b600d553480156200007057600080fd5b50604051620047f0380380620047f0833981810160405281019062000096919062000848565b8181600160008190555060008280519060200120905060008280519060200120905060007f8b73c3c69bb8fe3d512ecc4cf759cc79239f7b179b0ffacaa9a75d522b39400f90508260e081815250508161010081815250504660a0818152505062000109818484620001f460201b60201c565b608081815250503073ffffffffffffffffffffffffffffffffffffffff1660c08173ffffffffffffffffffffffffffffffffffffffff1681525050806101208181525050505050505083600660006101000a81548173ffffffffffffffffffffffffffffffffffffffff021916908373ffffffffffffffffffffffffffffffffffffffff16021790555082600760006101000a81548173ffffffffffffffffffffffffffffffffffffffff021916908373ffffffffffffffffffffffffffffffffffffffff160217905550620001e96000801b866200023060201b60201c565b5050505050620009a8565b60008383834630604051602001620002119594939291906200094b565b6040516020818303038152906040528051906020012090509392505050565b6200024282826200024660201b60201c565b5050565b6200025882826200033760201b60201c565b6200033357600180600084815260200190815260200160002060000160008373ffffffffffffffffffffffffffffffffffffffff1673ffffffffffffffffffffffffffffffffffffffff16815260200190815260200160002060006101000a81548160ff021916908315150217905550620002d8620003a260201b60201c565b73ffffffffffffffffffffffffffffffffffffffff168173ffffffffffffffffffffffffffffffffffffffff16837f2f8788117e7eff1d82e926ec794901d17c78024a50270940304540a733656f0d60405160405180910390a45b5050565b60006001600084815260200190815260200160002060000160008373ffffffffffffffffffffffffffffffffffffffff1673ffffffffffffffffffffffffffffffffffffffff16815260200190815260200160002060009054906101000a900460ff16905092915050565b600033905090565b6000819050919050565b7f4e487b7100000000000000000000000000000000000000000000000000000000600052601160045260246000fd5b6000620003f082620003aa565b9150620003fd83620003aa565b9250827fffffffffffffffffffffffffffffffffffffffffffffffffffffffffffffffff03821115620004355762000434620003b4565b5b828201905092915050565b60008160011c9050919050565b6000808291508390505b60018511156200049f57808604811115620004775762000476620003b4565b5b6001851615620004875780820291505b8081029050620004978562000440565b945062000457565b94509492505050565b600082620004ba57600190506200058d565b81620004ca57600090506200058d565b8160018114620004e35760028114620004ee5762000524565b60019150506200058d565b60ff841115620005035762000502620003b4565b5b8360020a9150848211156200051d576200051c620003b4565b5b506200058d565b5060208310610133831016604e8410600b84101617156200055e5782820a905083811115620005585762000557620003b4565b5b6200058d565b6200056d84848460016200044d565b92509050818404811115620005875762000586620003b4565b5b81810290505b9392505050565b6000620005a182620003aa565b9150620005ae83620003aa565b9250620005dd7fffffffffffffffffffffffffffffffffffffffffffffffffffffffffffffffff8484620004a8565b905092915050565b6000620005f282620003aa565b9150620005ff83620003aa565b9250817fffffffffffffffffffffffffffffffffffffffffffffffffffffffffffffffff04831182151516156200063b576200063a620003b4565b5b828202905092915050565b6000604051905090565b600080fd5b600080fd5b600073ffffffffffffffffffffffffffffffffffffffff82169050919050565b600062000687826200065a565b9050919050565b62000699816200067a565b8114620006a557600080fd5b50565b600081519050620006b9816200068e565b92915050565b600080fd5b600080fd5b6000601f19601f8301169050919050565b7f4e487b7100000000000000000000000000000000000000000000000000000000600052604160045260246000fd5b6200071482620006c9565b810181811067ffffffffffffffff82111715620007365762000735620006da565b5b80604052505050565b60006200074b62000646565b905062000759828262000709565b919050565b600067ffffffffffffffff8211156200077c576200077b620006da565b5b6200078782620006c9565b9050602081019050919050565b60005b83811015620007b457808201518184015260208101905062000797565b83811115620007c4576000848401525b50505050565b6000620007e1620007db846200075e565b6200073f565b9050828152602081018484840111156200080057620007ff620006c4565b5b6200080d84828562000794565b509392505050565b600082601f8301126200082d576200082c620006bf565b5b81516200083f848260208601620007ca565b91505092915050565b600080600080600060a0868803121562000867576200086662000650565b5b60006200087788828901620006a8565b95505060206200088a88828901620006a8565b94505060406200089d88828901620006a8565b935050606086015167ffffffffffffffff811115620008c157620008c062000655565b5b620008cf8882890162000815565b925050608086015167ffffffffffffffff811115620008f357620008f262000655565b5b620009018882890162000815565b9150509295509295909350565b6000819050919050565b62000923816200090e565b82525050565b6200093481620003aa565b82525050565b62000945816200067a565b82525050565b600060a08201905062000962600083018862000918565b62000971602083018762000918565b62000980604083018662000918565b6200098f606083018562000929565b6200099e60808301846200093a565b9695505050505050565b60805160a05160c05160e0516101005161012051613df8620009f860003960006121a6015260006121e8015260006121c7015260006120fc015260006121520152600061217b0152613df86000f3fe608060405234801561001057600080fd5b506004361061018e5760003560e01c80635a5d6223116100de578063b3ce252411610097578063d547741f11610071578063d547741f14610460578063d75d07c21461047c578063e20fcf001461049a578063e678ff25146104b85761018e565b8063b3ce252414610403578063be1cd71214610421578063cd08a1df146104425761018e565b80635a5d62231461032f578063639c066d1461034d57806391d1485414610369578063a1cd223214610399578063a217fddf146103c9578063a43f3241146103e75761018e565b806336568abe1161014b5780634b94f50e116101255780634b94f50e146102b95780634f6d45a2146102d7578063508c81a2146102f357806353f52847146103115761018e565b806336568abe146102635780633c0717fd1461027f578063409c86ca1461029d5761018e565b806301ffc9a7146101935780630f5a5e18146101c357806320ab7449146101df578063218f296e146101fb578063248a9ca3146102175780632f2ff15d14610247575b600080fd5b6101ad60048036038101906101a89190612797565b6104d6565b6040516101ba91906127df565b60405180910390f35b6101dd60048036038101906101d89190612830565b610550565b005b6101f960048036038101906101f49190612ab4565b61055c565b005b61021560048036038101906102109190612ab4565b6107f6565b005b610231600480360381019061022c9190612b59565b610a90565b60405161023e9190612b95565b60405180910390f35b610261600480360381019061025c9190612bb0565b610ab0565b005b61027d60048036038101906102789190612bb0565b610ad9565b005b610287610b5c565b6040516102949190612bff565b60405180910390f35b6102b760048036038101906102b29190612830565b610b66565b005b6102c1610b70565b6040516102ce9190612bff565b60405180910390f35b6102f160048036038101906102ec9190612c46565b610b7a565b005b6102fb610c68565b6040516103089190612b95565b60405180910390f35b610319610c8c565b6040516103269190612c95565b60405180910390f35b610337610c96565b6040516103449190612c95565b60405180910390f35b61036760048036038101906103629190612830565b610ca3565b005b610383600480360381019061037e9190612bb0565b610caf565b60405161039091906127df565b60405180910390f35b6103b360048036038101906103ae9190612cb0565b610d1a565b6040516103c09190612bff565b60405180910390f35b6103d1610de4565b6040516103de9190612b95565b60405180910390f35b61040160048036038101906103fc9190612cdd565b610deb565b005b61040b6110ae565b6040516104189190612bff565b60405180910390f35b6104296110b8565b6040516104399493929190612d48565b60405180910390f35b61044a6110f6565b6040516104579190612c95565b60405180910390f35b61047a60048036038101906104759190612bb0565b611103565b005b61048461112c565b6040516104919190612b95565b60405180910390f35b6104a2611150565b6040516104af9190612bff565b60405180910390f35b6104c061115a565b6040516104cd9190612bff565b60405180910390f35b60007f7965db0b000000000000000000000000000000000000000000000000000000007bffffffffffffffffffffffffffffffffffffffffffffffffffffffff1916827bffffffffffffffffffffffffffffffffffffffffffffffffffffffff19161480610549575061054882611164565b5b9050919050565b610559816111ce565b50565b8082600061060c7f382f778b38ac8a684a068262bd90ef9739279743851e0bc20a2bf85f56a2550c846060015185600001518660200151600e6000896060015173ffffffffffffffffffffffffffffffffffffffff1673ffffffffffffffffffffffffffffffffffffffff1681526020019081526020016000205488604001516040516020016105f196959493929190612d8d565b6040516020818303038152906040528051906020012061160d565b905061061d83606001518284611627565b61065c576040517f08c379a000000000000000000000000000000000000000000000000000000000815260040161065390612e4b565b60405180910390fd5b600073ffffffffffffffffffffffffffffffffffffffff16836060015173ffffffffffffffffffffffffffffffffffffffff1614156106d0576040517f08c379a00000000000000000000000000000000000000000000000000000000081526004016106c790612eb7565b60405180910390fd5b6106fe7feed754290b7b7033469899aa55827c9480fc90a4843b45b7f455d0ac50d3e6ce8460600151610caf565b61073d576040517f08c379a000000000000000000000000000000000000000000000000000000000815260040161073490612f49565b60405180910390fd5b82604001514310610783576040517f08c379a000000000000000000000000000000000000000000000000000000000815260040161077a90612fdb565b60405180910390fd5b600e6000846060015173ffffffffffffffffffffffffffffffffffffffff1673ffffffffffffffffffffffffffffffffffffffff16815260200190815260200160002060008154809291906107d79061302a565b91905055506107e58461180c565b6107ee866111ce565b505050505050565b808260006108a67f382f778b38ac8a684a068262bd90ef9739279743851e0bc20a2bf85f56a2550c846060015185600001518660200151600e6000896060015173ffffffffffffffffffffffffffffffffffffffff1673ffffffffffffffffffffffffffffffffffffffff16815260200190815260200160002054886040015160405160200161088b96959493929190612d8d565b6040516020818303038152906040528051906020012061160d565b90506108b783606001518284611627565b6108f6576040517f08c379a00000000000000000000000000000000000000000000000000000000081526004016108ed90612e4b565b60405180910390fd5b600073ffffffffffffffffffffffffffffffffffffffff16836060015173ffffffffffffffffffffffffffffffffffffffff16141561096a576040517f08c379a000000000000000000000000000000000000000000000000000000000815260040161096190612eb7565b60405180910390fd5b6109987feed754290b7b7033469899aa55827c9480fc90a4843b45b7f455d0ac50d3e6ce8460600151610caf565b6109d7576040517f08c379a00000000000000000000000000000000000000000000000000000000081526004016109ce90612f49565b60405180910390fd5b82604001514310610a1d576040517f08c379a0000000000000000000000000000000000000000000000000000000008152600401610a1490612fdb565b60405180910390fd5b600e6000846060015173ffffffffffffffffffffffffffffffffffffffff1673ffffffffffffffffffffffffffffffffffffffff1681526020019081526020016000206000815480929190610a719061302a565b9190505550610a7f8461180c565b610a888661184b565b505050505050565b600060016000838152602001908152602001600020600101549050919050565b610ab982610a90565b610aca81610ac5611be3565b611beb565b610ad48383611c88565b505050565b610ae1611be3565b73ffffffffffffffffffffffffffffffffffffffff168173ffffffffffffffffffffffffffffffffffffffff1614610b4e576040517f08c379a0000000000000000000000000000000000000000000000000000000008152600401610b45906130e5565b60405180910390fd5b610b588282611d68565b5050565b6000600354905090565b8060028190555050565b6000600c54905090565b600015158215151415610be257606481610b949190613134565b60046000828254610ba59190613165565b925050819055506063606482610bbb9190613134565b610bc591906131bb565b60036000828254610bd69190613165565b92505081905550610c23565b6064600254610bf19190613134565b60046000828254610c029190613165565b925050819055508060026000828254610c1b9190613215565b925050819055505b6000600860000181905550600060086001018190555060045460056000828254610c4d9190613249565b92505081905550610c5c611e4a565b610c64611fa1565b5050565b7fce95e3899a3f9149fc26a34674875210907ee3c0dddf61ac603f89e90c1b5f9e81565b6000600554905090565b6000600860010154905090565b610cac8161184b565b50565b60006001600084815260200190815260200160002060000160008373ffffffffffffffffffffffffffffffffffffffff1673ffffffffffffffffffffffffffffffffffffffff16815260200190815260200160002060009054906101000a900460ff16905092915050565b60006012600a610d2a9190613410565b600c54600760009054906101000a900473ffffffffffffffffffffffffffffffffffffffff1673ffffffffffffffffffffffffffffffffffffffff166370a08231856040518263ffffffff1660e01b8152600401610d88919061345b565b602060405180830381865afa158015610da5573d6000803e3d6000fd5b505050506040513d601f19601f82011682018060405250810190610dc9919061348b565b610dd391906131bb565b610ddd9190613134565b9050919050565b6000801b81565b80826000610e9b7f382f778b38ac8a684a068262bd90ef9739279743851e0bc20a2bf85f56a2550c846060015185600001518660200151600e6000896060015173ffffffffffffffffffffffffffffffffffffffff1673ffffffffffffffffffffffffffffffffffffffff168152602001908152602001600020548860400151604051602001610e8096959493929190612d8d565b6040516020818303038152906040528051906020012061160d565b9050610eac83606001518284611627565b610eeb576040517f08c379a0000000000000000000000000000000000000000000000000000000008152600401610ee290612e4b565b60405180910390fd5b600073ffffffffffffffffffffffffffffffffffffffff16836060015173ffffffffffffffffffffffffffffffffffffffff161415610f5f576040517f08c379a0000000000000000000000000000000000000000000000000000000008152600401610f5690612eb7565b60405180910390fd5b610f8d7feed754290b7b7033469899aa55827c9480fc90a4843b45b7f455d0ac50d3e6ce8460600151610caf565b610fcc576040517f08c379a0000000000000000000000000000000000000000000000000000000008152600401610fc390612f49565b60405180910390fd5b82604001514310611012576040517f08c379a000000000000000000000000000000000000000000000000000000000815260040161100990612fdb565b60405180910390fd5b600e6000846060015173ffffffffffffffffffffffffffffffffffffffff1673ffffffffffffffffffffffffffffffffffffffff16815260200190815260200160002060008154809291906110669061302a565b91905055507fce95e3899a3f9149fc26a34674875210907ee3c0dddf61ac603f89e90c1b5f9e61109d81611098611be3565b611beb565b6110a68561180c565b505050505050565b6000600d54905090565b60088060000154908060010154908060020154908060030160009054906101000a900473ffffffffffffffffffffffffffffffffffffffff16905084565b6000600860000154905090565b61110c82610a90565b61111d81611118611be3565b611beb565b6111278383611d68565b505050565b7feed754290b7b7033469899aa55827c9480fc90a4843b45b7f455d0ac50d3e6ce81565b6000600454905090565b6000600254905090565b60007f01ffc9a7000000000000000000000000000000000000000000000000000000007bffffffffffffffffffffffffffffffffffffffffffffffffffffffff1916827bffffffffffffffffffffffffffffffffffffffffffffffffffffffff1916149050919050565b60026000541415611214576040517f08c379a000000000000000000000000000000000000000000000000000000000815260040161120b90613504565b60405180910390fd5b60026000819055506000811161125f576040517f08c379a000000000000000000000000000000000000000000000000000000000815260040161125690613570565b60405180910390fd5b600d546012600a6112709190613410565b600760009054906101000a900473ffffffffffffffffffffffffffffffffffffffff1673ffffffffffffffffffffffffffffffffffffffff166370a08231336040518263ffffffff1660e01b81526004016112cb919061345b565b602060405180830381865afa1580156112e8573d6000803e3d6000fd5b505050506040513d601f19601f8201168201806040525081019061130c919061348b565b6113169190613134565b61132091906131bb565b6000600a61132e9190613410565b8261133991906131bb565b1115801561137057506008600101546003546113559190613590565b6000600a6113639190613410565b8261136e9190613624565b125b6113af576040517f08c379a00000000000000000000000000000000000000000000000000000000081526004016113a690613787565b60405180910390fd5b6000600d546012600a6113c29190613410565b6000600a6113d09190613410565b846113db91906131bb565b6113e591906131bb565b6113ef9190613134565b90506000600a6113ff9190613410565b8261140a91906131bb565b6003600082825461141b9190613215565b925050819055506000600a6114309190613410565b8261143b9190613624565b6005600082825461144c9190613590565b925050819055506000600a6114619190613410565b8261146c91906131bb565b600f60003373ffffffffffffffffffffffffffffffffffffffff1673ffffffffffffffffffffffffffffffffffffffff16815260200190815260200160002060008282546114ba9190613215565b92505081905550600660009054906101000a900473ffffffffffffffffffffffffffffffffffffffff1673ffffffffffffffffffffffffffffffffffffffff1663a9059cbb33846040518363ffffffff1660e01b815260040161151e9291906137a7565b6020604051808303816000875af115801561153d573d6000803e3d6000fd5b505050506040513d601f19601f8201168201806040525081019061156191906137e5565b50600760009054906101000a900473ffffffffffffffffffffffffffffffffffffffff1673ffffffffffffffffffffffffffffffffffffffff16639dc29fac33836040518363ffffffff1660e01b81526004016115bf9291906137a7565b600060405180830381600087803b1580156115d957600080fd5b505af11580156115ed573d6000803e3d6000fd5b505050506115f9611fa1565b611601611e4a565b50600160008190555050565b600061162061161a6120f8565b83612212565b9050919050565b60008060006116368585612245565b915091506000600481111561164e5761164d613812565b5b81600481111561166157611660613812565b5b14801561169957508573ffffffffffffffffffffffffffffffffffffffff168273ffffffffffffffffffffffffffffffffffffffff16145b156116a957600192505050611805565b6000808773ffffffffffffffffffffffffffffffffffffffff16631626ba7e60e01b88886040516024016116de9291906138c9565b604051602081830303815290604052907bffffffffffffffffffffffffffffffffffffffffffffffffffffffff19166020820180517bffffffffffffffffffffffffffffffffffffffffffffffffffffffff83818316178352505050506040516117489190613935565b600060405180830381855afa9150503d8060008114611783576040519150601f19603f3d011682016040523d82523d6000602084013e611788565b606091505b509150915081801561179b575060208151145b80156117fe5750631626ba7e60e01b7bffffffffffffffffffffffffffffffffffffffffffffffffffffffff1916818060200190518101906117dd9190613961565b7bffffffffffffffffffffffffffffffffffffffffffffffffffffffff1916145b9450505050505b9392505050565b60086000015481600001511461182a5761182981600001516122c8565b5b6008600101548160200151146118485761184781602001516122e6565b5b50565b60026000541415611891576040517f08c379a000000000000000000000000000000000000000000000000000000000815260040161188890613504565b60405180910390fd5b60026000819055506000811180156119445750600660009054906101000a900473ffffffffffffffffffffffffffffffffffffffff1673ffffffffffffffffffffffffffffffffffffffff166370a08231336040518263ffffffff1660e01b81526004016118ff919061345b565b602060405180830381865afa15801561191c573d6000803e3d6000fd5b505050506040513d601f19601f82011682018060405250810190611940919061348b565b8111155b611983576040517f08c379a000000000000000000000000000000000000000000000000000000000815260040161197a906139da565b60405180910390fd5b6000600a6119919190613410565b8161199c91906131bb565b600360008282546119ad9190613165565b925050819055506000600a6119c29190613410565b816119cd91906131bb565b600560008282546119de9190613249565b925050819055506000600a6119f39190613410565b816119fe91906131bb565b600f60003373ffffffffffffffffffffffffffffffffffffffff1673ffffffffffffffffffffffffffffffffffffffff1681526020019081526020016000206000828254611a4c9190613165565b92505081905550600660009054906101000a900473ffffffffffffffffffffffffffffffffffffffff1673ffffffffffffffffffffffffffffffffffffffff166323b872dd3330846040518463ffffffff1660e01b8152600401611ab2939291906139fa565b6020604051808303816000875af1158015611ad1573d6000803e3d6000fd5b505050506040513d601f19601f82011682018060405250810190611af591906137e5565b506000600c546012600a611b099190613410565b6000600a611b179190613410565b84611b2291906131bb565b611b2c91906131bb565b611b369190613134565b9050600760009054906101000a900473ffffffffffffffffffffffffffffffffffffffff1673ffffffffffffffffffffffffffffffffffffffff166340c10f1933836040518363ffffffff1660e01b8152600401611b959291906137a7565b600060405180830381600087803b158015611baf57600080fd5b505af1158015611bc3573d6000803e3d6000fd5b50505050611bcf611e4a565b611bd7611fa1565b50600160008190555050565b600033905090565b611bf58282610caf565b611c8457611c1a8173ffffffffffffffffffffffffffffffffffffffff1660146122f3565b611c288360001c60206122f3565b604051602001611c39929190613b10565b6040516020818303038152906040526040517f08c379a0000000000000000000000000000000000000000000000000000000008152600401611c7b9190613b83565b60405180910390fd5b5050565b611c928282610caf565b611d6457600180600084815260200190815260200160002060000160008373ffffffffffffffffffffffffffffffffffffffff1673ffffffffffffffffffffffffffffffffffffffff16815260200190815260200160002060006101000a81548160ff021916908315150217905550611d09611be3565b73ffffffffffffffffffffffffffffffffffffffff168173ffffffffffffffffffffffffffffffffffffffff16837f2f8788117e7eff1d82e926ec794901d17c78024a50270940304540a733656f0d60405160405180910390a45b5050565b611d728282610caf565b15611e465760006001600084815260200190815260200160002060000160008373ffffffffffffffffffffffffffffffffffffffff1673ffffffffffffffffffffffffffffffffffffffff16815260200190815260200160002060006101000a81548160ff021916908315150217905550611deb611be3565b73ffffffffffffffffffffffffffffffffffffffff168173ffffffffffffffffffffffffffffffffffffffff16837ff6391f5c32d9c69d2a47ea670b442974b53935d1edc7fd64eb21e047a839171b60405160405180910390a45b5050565b6000600760009054906101000a900473ffffffffffffffffffffffffffffffffffffffff1673ffffffffffffffffffffffffffffffffffffffff166318160ddd6040518163ffffffff1660e01b8152600401602060405180830381865afa158015611eb9573d6000803e3d6000fd5b505050506040513d601f19601f82011682018060405250810190611edd919061348b565b14611f9f57600760009054906101000a900473ffffffffffffffffffffffffffffffffffffffff1673ffffffffffffffffffffffffffffffffffffffff166318160ddd6040518163ffffffff1660e01b8152600401602060405180830381865afa158015611f4f573d6000803e3d6000fd5b505050506040513d601f19601f82011682018060405250810190611f73919061348b565b6012600a611f819190613410565b600554611f8e91906131bb565b611f989190613134565b600c819055505b565b6000600760009054906101000a900473ffffffffffffffffffffffffffffffffffffffff1673ffffffffffffffffffffffffffffffffffffffff166318160ddd6040518163ffffffff1660e01b8152600401602060405180830381865afa158015612010573d6000803e3d6000fd5b505050506040513d601f19601f82011682018060405250810190612034919061348b565b146120f657600760009054906101000a900473ffffffffffffffffffffffffffffffffffffffff1673ffffffffffffffffffffffffffffffffffffffff166318160ddd6040518163ffffffff1660e01b8152600401602060405180830381865afa1580156120a6573d6000803e3d6000fd5b505050506040513d601f19601f820116820180604052508101906120ca919061348b565b6012600a6120d89190613410565b6003546120e591906131bb565b6120ef9190613134565b600d819055505b565b60007f000000000000000000000000000000000000000000000000000000000000000073ffffffffffffffffffffffffffffffffffffffff163073ffffffffffffffffffffffffffffffffffffffff1614801561217457507f000000000000000000000000000000000000000000000000000000000000000046145b156121a1577f0000000000000000000000000000000000000000000000000000000000000000905061220f565b61220c7f00000000000000000000000000000000000000000000000000000000000000007f00000000000000000000000000000000000000000000000000000000000000007f000000000000000000000000000000000000000000000000000000000000000061252f565b90505b90565b60008282604051602001612227929190613c12565b60405160208183030381529060405280519060200120905092915050565b6000806041835114156122875760008060006020860151925060408601519150606086015160001a905061227b87828585612569565b945094505050506122c1565b6040835114156122b85760008060208501519150604085015190506122ad868383612676565b9350935050506122c1565b60006002915091505b9250929050565b6122d1816126c4565b806008600001819055506122e3611e4a565b50565b8060086001018190555050565b60606000600283600261230691906131bb565b6123109190613165565b67ffffffffffffffff81111561232957612328612878565b5b6040519080825280601f01601f19166020018201604052801561235b5781602001600182028036833780820191505090505b5090507f30000000000000000000000000000000000000000000000000000000000000008160008151811061239357612392613c49565b5b60200101907effffffffffffffffffffffffffffffffffffffffffffffffffffffffffffff1916908160001a9053507f7800000000000000000000000000000000000000000000000000000000000000816001815181106123f7576123f6613c49565b5b60200101907effffffffffffffffffffffffffffffffffffffffffffffffffffffffffffff1916908160001a9053506000600184600261243791906131bb565b6124419190613165565b90505b60018111156124e1577f3031323334353637383961626364656600000000000000000000000000000000600f86166010811061248357612482613c49565b5b1a60f81b82828151811061249a57612499613c49565b5b60200101907effffffffffffffffffffffffffffffffffffffffffffffffffffffffffffff1916908160001a905350600485901c9450806124da90613c78565b9050612444565b5060008414612525576040517f08c379a000000000000000000000000000000000000000000000000000000000815260040161251c90613cee565b60405180910390fd5b8091505092915050565b6000838383463060405160200161254a959493929190613d0e565b6040516020818303038152906040528051906020012090509392505050565b6000807f7fffffffffffffffffffffffffffffff5d576e7357a4501ddfe92f46681b20a08360001c11156125a457600060039150915061266d565b601b8560ff16141580156125bc5750601c8560ff1614155b156125ce57600060049150915061266d565b6000600187878787604051600081526020016040526040516125f39493929190613d7d565b6020604051602081039080840390855afa158015612615573d6000803e3d6000fd5b505050602060405103519050600073ffffffffffffffffffffffffffffffffffffffff168173ffffffffffffffffffffffffffffffffffffffff1614156126645760006001925092505061266d565b80600092509250505b94509492505050565b6000806000807f7fffffffffffffffffffffffffffffffffffffffffffffffffffffffffffffff85169150601b8560ff1c0190506126b687828885612569565b935093505050935093915050565b600060086000015414156126f05780600560008282546126e49190613249565b92505081905550612728565b600860000154600560008282546127079190613590565b9250508190555080600560008282546127209190613249565b925050819055505b50565b6000604051905090565b600080fd5b600080fd5b60007fffffffff0000000000000000000000000000000000000000000000000000000082169050919050565b6127748161273f565b811461277f57600080fd5b50565b6000813590506127918161276b565b92915050565b6000602082840312156127ad576127ac612735565b5b60006127bb84828501612782565b91505092915050565b60008115159050919050565b6127d9816127c4565b82525050565b60006020820190506127f460008301846127d0565b92915050565b6000819050919050565b61280d816127fa565b811461281857600080fd5b50565b60008135905061282a81612804565b92915050565b60006020828403121561284657612845612735565b5b60006128548482850161281b565b91505092915050565b600080fd5b600080fd5b6000601f19601f8301169050919050565b7f4e487b7100000000000000000000000000000000000000000000000000000000600052604160045260246000fd5b6128b082612867565b810181811067ffffffffffffffff821117156128cf576128ce612878565b5b80604052505050565b60006128e261272b565b90506128ee82826128a7565b919050565b600067ffffffffffffffff82111561290e5761290d612878565b5b61291782612867565b9050602081019050919050565b82818337600083830152505050565b6000612946612941846128f3565b6128d8565b90508281526020810184848401111561296257612961612862565b5b61296d848285612924565b509392505050565b600082601f83011261298a5761298961285d565b5b813561299a848260208601612933565b91505092915050565b600080fd5b6000819050919050565b6129bb816129a8565b81146129c657600080fd5b50565b6000813590506129d8816129b2565b92915050565b600073ffffffffffffffffffffffffffffffffffffffff82169050919050565b6000612a09826129de565b9050919050565b612a19816129fe565b8114612a2457600080fd5b50565b600081359050612a3681612a10565b92915050565b600060808284031215612a5257612a516129a3565b5b612a5c60806128d8565b90506000612a6c848285016129c9565b6000830152506020612a80848285016129c9565b6020830152506040612a948482850161281b565b6040830152506060612aa884828501612a27565b60608301525092915050565b600080600060c08486031215612acd57612acc612735565b5b6000612adb8682870161281b565b935050602084013567ffffffffffffffff811115612afc57612afb61273a565b5b612b0886828701612975565b9250506040612b1986828701612a3c565b9150509250925092565b6000819050919050565b612b3681612b23565b8114612b4157600080fd5b50565b600081359050612b5381612b2d565b92915050565b600060208284031215612b6f57612b6e612735565b5b6000612b7d84828501612b44565b91505092915050565b612b8f81612b23565b82525050565b6000602082019050612baa6000830184612b86565b92915050565b60008060408385031215612bc757612bc6612735565b5b6000612bd585828601612b44565b9250506020612be685828601612a27565b9150509250929050565b612bf9816127fa565b82525050565b6000602082019050612c146000830184612bf0565b92915050565b612c23816127c4565b8114612c2e57600080fd5b50565b600081359050612c4081612c1a565b92915050565b60008060408385031215612c5d57612c5c612735565b5b6000612c6b85828601612c31565b9250506020612c7c8582860161281b565b9150509250929050565b612c8f816129a8565b82525050565b6000602082019050612caa6000830184612c86565b92915050565b600060208284031215612cc657612cc5612735565b5b6000612cd484828501612a27565b91505092915050565b60008060a08385031215612cf457612cf3612735565b5b600083013567ffffffffffffffff811115612d1257612d1161273a565b5b612d1e85828601612975565b9250506020612d2f85828601612a3c565b9150509250929050565b612d42816129fe565b82525050565b6000608082019050612d5d6000830187612c86565b612d6a6020830186612c86565b612d776040830185612bf0565b612d846060830184612d39565b95945050505050565b600060c082019050612da26000830189612b86565b612daf6020830188612d39565b612dbc6040830187612c86565b612dc96060830186612c86565b612dd66080830185612bf0565b612de360a0830184612bf0565b979650505050505050565b600082825260208201905092915050565b7f486f757365506f6f6c574554483a20696e76616c6964207369676e6174757265600082015250565b6000612e35602083612dee565b9150612e4082612dff565b602082019050919050565b60006020820190508181036000830152612e6481612e28565b9050919050565b7f486f757365506f6f6c574554483a20696e76616c6964207369676e6572000000600082015250565b6000612ea1601d83612dee565b9150612eac82612e6b565b602082019050919050565b60006020820190508181036000830152612ed081612e94565b9050919050565b7f486f757365506f6f6c574554483a20756e617574686f7269736564207369676e60008201527f6572000000000000000000000000000000000000000000000000000000000000602082015250565b6000612f33602283612dee565b9150612f3e82612ed7565b604082019050919050565b60006020820190508181036000830152612f6281612f26565b9050919050565b7f486f757365506f6f6c574554483a207369676e6564207472616e73616374696f60008201527f6e20657870697265640000000000000000000000000000000000000000000000602082015250565b6000612fc5602983612dee565b9150612fd082612f69565b604082019050919050565b60006020820190508181036000830152612ff481612fb8565b9050919050565b7f4e487b7100000000000000000000000000000000000000000000000000000000600052601160045260246000fd5b6000613035826127fa565b91507fffffffffffffffffffffffffffffffffffffffffffffffffffffffffffffffff82141561306857613067612ffb565b5b600182019050919050565b7f416363657373436f6e74726f6c3a2063616e206f6e6c792072656e6f756e636560008201527f20726f6c657320666f722073656c660000000000000000000000000000000000602082015250565b60006130cf602f83612dee565b91506130da82613073565b604082019050919050565b600060208201905081810360008301526130fe816130c2565b9050919050565b7f4e487b7100000000000000000000000000000000000000000000000000000000600052601260045260246000fd5b600061313f826127fa565b915061314a836127fa565b92508261315a57613159613105565b5b828204905092915050565b6000613170826127fa565b915061317b836127fa565b9250827fffffffffffffffffffffffffffffffffffffffffffffffffffffffffffffffff038211156131b0576131af612ffb565b5b828201905092915050565b60006131c6826127fa565b91506131d1836127fa565b9250817fffffffffffffffffffffffffffffffffffffffffffffffffffffffffffffffff048311821515161561320a57613209612ffb565b5b828202905092915050565b6000613220826127fa565b915061322b836127fa565b92508282101561323e5761323d612ffb565b5b828203905092915050565b6000613254826129a8565b915061325f836129a8565b9250817f7fffffffffffffffffffffffffffffffffffffffffffffffffffffffffffffff0383136000831215161561329a57613299612ffb565b5b817f80000000000000000000000000000000000000000000000000000000000000000383126000831216156132d2576132d1612ffb565b5b828201905092915050565b60008160011c9050919050565b6000808291508390505b6001851115613334578086048111156133105761330f612ffb565b5b600185161561331f5780820291505b808102905061332d856132dd565b94506132f4565b94509492505050565b60008261334d5760019050613409565b8161335b5760009050613409565b8160018114613371576002811461337b576133aa565b6001915050613409565b60ff84111561338d5761338c612ffb565b5b8360020a9150848211156133a4576133a3612ffb565b5b50613409565b5060208310610133831016604e8410600b84101617156133df5782820a9050838111156133da576133d9612ffb565b5b613409565b6133ec84848460016132ea565b9250905081840481111561340357613402612ffb565b5b81810290505b9392505050565b600061341b826127fa565b9150613426836127fa565b92506134537fffffffffffffffffffffffffffffffffffffffffffffffffffffffffffffffff848461333d565b905092915050565b60006020820190506134706000830184612d39565b92915050565b60008151905061348581612804565b92915050565b6000602082840312156134a1576134a0612735565b5b60006134af84828501613476565b91505092915050565b7f5265656e7472616e637947756172643a207265656e7472616e742063616c6c00600082015250565b60006134ee601f83612dee565b91506134f9826134b8565b602082019050919050565b6000602082019050818103600083015261351d816134e1565b9050919050565b7f57455448486f757365506f6f6c3a205a65726f20416d6f756e74000000000000600082015250565b600061355a601a83612dee565b915061356582613524565b602082019050919050565b600060208201905081810360008301526135898161354d565b9050919050565b600061359b826129a8565b91506135a6836129a8565b9250827f8000000000000000000000000000000000000000000000000000000000000000018212600084121516156135e1576135e0612ffb565b5b827f7fffffffffffffffffffffffffffffffffffffffffffffffffffffffffffffff01821360008412161561361957613618612ffb565b5b828203905092915050565b600061362f826129a8565b915061363a836129a8565b9250827f7fffffffffffffffffffffffffffffffffffffffffffffffffffffffffffffff048211600084136000841316161561367957613678612ffb565b5b817f800000000000000000000000000000000000000000000000000000000000000005831260008412600084131616156136b6576136b5612ffb565b5b827f800000000000000000000000000000000000000000000000000000000000000005821260008413600084121616156136f3576136f2612ffb565b5b827f7fffffffffffffffffffffffffffffffffffffffffffffffffffffffffffffff05821260008412600084121616156137305761372f612ffb565b5b828202905092915050565b7f57455448486f757365506f6f6c203a2063616e27742077697468647261770000600082015250565b6000613771601e83612dee565b915061377c8261373b565b602082019050919050565b600060208201905081810360008301526137a081613764565b9050919050565b60006040820190506137bc6000830185612d39565b6137c96020830184612bf0565b9392505050565b6000815190506137df81612c1a565b92915050565b6000602082840312156137fb576137fa612735565b5b6000613809848285016137d0565b91505092915050565b7f4e487b7100000000000000000000000000000000000000000000000000000000600052602160045260246000fd5b600081519050919050565b600082825260208201905092915050565b60005b8381101561387b578082015181840152602081019050613860565b8381111561388a576000848401525b50505050565b600061389b82613841565b6138a5818561384c565b93506138b581856020860161385d565b6138be81612867565b840191505092915050565b60006040820190506138de6000830185612b86565b81810360208301526138f08184613890565b90509392505050565b600081905092915050565b600061390f82613841565b61391981856138f9565b935061392981856020860161385d565b80840191505092915050565b60006139418284613904565b915081905092915050565b60008151905061395b8161276b565b92915050565b60006020828403121561397757613976612735565b5b60006139858482850161394c565b91505092915050565b7f57455448486f757365506f6f6c3a20436865636b207468652042616c616e6365600082015250565b60006139c4602083612dee565b91506139cf8261398e565b602082019050919050565b600060208201905081810360008301526139f3816139b7565b9050919050565b6000606082019050613a0f6000830186612d39565b613a1c6020830185612d39565b613a296040830184612bf0565b949350505050565b600081905092915050565b7f416363657373436f6e74726f6c3a206163636f756e7420000000000000000000600082015250565b6000613a72601783613a31565b9150613a7d82613a3c565b601782019050919050565b600081519050919050565b6000613a9e82613a88565b613aa88185613a31565b9350613ab881856020860161385d565b80840191505092915050565b7f206973206d697373696e6720726f6c6520000000000000000000000000000000600082015250565b6000613afa601183613a31565b9150613b0582613ac4565b601182019050919050565b6000613b1b82613a65565b9150613b278285613a93565b9150613b3282613aed565b9150613b3e8284613a93565b91508190509392505050565b6000613b5582613a88565b613b5f8185612dee565b9350613b6f81856020860161385d565b613b7881612867565b840191505092915050565b60006020820190508181036000830152613b9d8184613b4a565b905092915050565b7f1901000000000000000000000000000000000000000000000000000000000000600082015250565b6000613bdb600283613a31565b9150613be682613ba5565b600282019050919050565b6000819050919050565b613c0c613c0782612b23565b613bf1565b82525050565b6000613c1d82613bce565b9150613c298285613bfb565b602082019150613c398284613bfb565b6020820191508190509392505050565b7f4e487b7100000000000000000000000000000000000000000000000000000000600052603260045260246000fd5b6000613c83826127fa565b91506000821415613c9757613c96612ffb565b5b600182039050919050565b7f537472696e67733a20686578206c656e67746820696e73756666696369656e74600082015250565b6000613cd8602083612dee565b9150613ce382613ca2565b602082019050919050565b60006020820190508181036000830152613d0781613ccb565b9050919050565b600060a082019050613d236000830188612b86565b613d306020830187612b86565b613d3d6040830186612b86565b613d4a6060830185612bf0565b613d576080830184612d39565b9695505050505050565b600060ff82169050919050565b613d7781613d61565b82525050565b6000608082019050613d926000830187612b86565b613d9f6020830186613d6e565b613dac6040830185612b86565b613db96060830184612b86565b9594505050505056fea2646970667358221220b230a6fa3398087108129a45b7c8868763b611bda2346e152851f11ed39e44cf64736f6c634300080a0033",
  "linkReferences": {},
  "deployedLinkReferences": {}
}