{
  "_format": "hh-sol-artifact-1",
  "contractName": "HousePoolWETH",
  "sourceName": "contracts/HousePoolWETH.sol",
  "abi": [
    {
      "inputs": [
        {
          "internalType": "address",
          "name": "_owner",
          "type": "address"
        },
        {
          "internalType": "address",
          "name": "_WETH",
          "type": "address"
        },
        {
          "internalType": "address",
          "name": "_claimToken",
          "type": "address"
        },
        {
          "internalType": "string",
          "name": "_name",
          "type": "string"
        },
        {
          "internalType": "string",
          "name": "_version",
          "type": "string"
        }
      ],
      "stateMutability": "nonpayable",
      "type": "constructor"
    },
    {
      "anonymous": false,
      "inputs": [
        {
          "indexed": true,
          "internalType": "bytes32",
          "name": "role",
          "type": "bytes32"
        },
        {
          "indexed": true,
          "internalType": "bytes32",
          "name": "previousAdminRole",
          "type": "bytes32"
        },
        {
          "indexed": true,
          "internalType": "bytes32",
          "name": "newAdminRole",
          "type": "bytes32"
        }
      ],
      "name": "RoleAdminChanged",
      "type": "event"
    },
    {
      "anonymous": false,
      "inputs": [
        {
          "indexed": true,
          "internalType": "bytes32",
          "name": "role",
          "type": "bytes32"
        },
        {
          "indexed": true,
          "internalType": "address",
          "name": "account",
          "type": "address"
        },
        {
          "indexed": true,
          "internalType": "address",
          "name": "sender",
          "type": "address"
        }
      ],
      "name": "RoleGranted",
      "type": "event"
    },
    {
      "anonymous": false,
      "inputs": [
        {
          "indexed": true,
          "internalType": "bytes32",
          "name": "role",
          "type": "bytes32"
        },
        {
          "indexed": true,
          "internalType": "address",
          "name": "account",
          "type": "address"
        },
        {
          "indexed": true,
          "internalType": "address",
          "name": "sender",
          "type": "address"
        }
      ],
      "name": "RoleRevoked",
      "type": "event"
    },
    {
      "inputs": [],
      "name": "DATA_PROVIDER_ORACLE",
      "outputs": [
        {
          "internalType": "bytes32",
          "name": "",
          "type": "bytes32"
        }
      ],
      "stateMutability": "view",
      "type": "function"
    },
    {
      "inputs": [],
      "name": "DEFAULT_ADMIN_ROLE",
      "outputs": [
        {
          "internalType": "bytes32",
          "name": "",
          "type": "bytes32"
        }
      ],
      "stateMutability": "view",
      "type": "function"
    },
    {
      "inputs": [],
      "name": "HOUSE_POOL_DATA_PROVIDER",
      "outputs": [
        {
          "internalType": "bytes32",
          "name": "",
          "type": "bytes32"
        }
      ],
      "stateMutability": "view",
      "type": "function"
    },
    {
      "inputs": [
        {
          "internalType": "uint256",
          "name": "amountWETH",
          "type": "uint256"
        },
        {
          "internalType": "bytes",
          "name": "approval",
          "type": "bytes"
        },
        {
          "components": [
            {
              "internalType": "int256",
              "name": "expectedValue",
              "type": "int256"
            },
            {
              "internalType": "int256",
              "name": "maxExposure",
              "type": "int256"
            },
            {
              "internalType": "uint256",
              "name": "deadline",
              "type": "uint256"
            },
            {
              "internalType": "address",
              "name": "signer",
              "type": "address"
            }
          ],
          "internalType": "struct HousePoolWETH.ValuesOfInterest",
          "name": "approvedValues",
          "type": "tuple"
        }
      ],
      "name": "deposit",
      "outputs": [],
      "stateMutability": "nonpayable",
      "type": "function"
    },
    {
      "inputs": [
        {
          "internalType": "uint256",
          "name": "WETHMicro",
          "type": "uint256"
        }
      ],
      "name": "deposit_",
      "outputs": [],
      "stateMutability": "nonpayable",
      "type": "function"
    },
    {
      "inputs": [],
      "name": "getBettingStakes",
      "outputs": [
        {
          "internalType": "uint256",
          "name": "",
          "type": "uint256"
        }
      ],
      "stateMutability": "view",
      "type": "function"
    },
    {
      "inputs": [],
      "name": "getEV",
      "outputs": [
        {
          "internalType": "int256",
          "name": "",
          "type": "int256"
        }
      ],
      "stateMutability": "view",
      "type": "function"
    },
    {
      "inputs": [],
      "name": "getLiquidityStatus",
      "outputs": [
        {
          "internalType": "uint256",
          "name": "",
          "type": "uint256"
        }
      ],
      "stateMutability": "view",
      "type": "function"
    },
    {
      "inputs": [],
      "name": "getMaxExposure",
      "outputs": [
        {
          "internalType": "int256",
          "name": "",
          "type": "int256"
        }
      ],
      "stateMutability": "view",
      "type": "function"
    },
    {
      "inputs": [
        {
          "internalType": "address",
          "name": "_user",
          "type": "address"
        }
      ],
      "name": "getMyBalance",
      "outputs": [
        {
          "internalType": "uint256",
          "name": "",
          "type": "uint256"
        }
      ],
      "stateMutability": "view",
      "type": "function"
    },
    {
      "inputs": [
        {
          "internalType": "bytes32",
          "name": "role",
          "type": "bytes32"
        }
      ],
      "name": "getRoleAdmin",
      "outputs": [
        {
          "internalType": "bytes32",
          "name": "",
          "type": "bytes32"
        }
      ],
      "stateMutability": "view",
      "type": "function"
    },
    {
      "inputs": [],
      "name": "getTVLofPool",
      "outputs": [
        {
          "internalType": "int256",
          "name": "",
          "type": "int256"
        }
      ],
      "stateMutability": "view",
      "type": "function"
    },
    {
      "inputs": [],
      "name": "getTokenPrice",
      "outputs": [
        {
          "internalType": "uint256",
          "name": "",
          "type": "uint256"
        }
      ],
      "stateMutability": "view",
      "type": "function"
    },
    {
      "inputs": [],
      "name": "getTokenWithdrawlPrice",
      "outputs": [
        {
          "internalType": "uint256",
          "name": "",
          "type": "uint256"
        }
      ],
      "stateMutability": "view",
      "type": "function"
    },
    {
      "inputs": [],
      "name": "getTreasuryAmount",
      "outputs": [
        {
          "internalType": "uint256",
          "name": "",
          "type": "uint256"
        }
      ],
      "stateMutability": "view",
      "type": "function"
    },
    {
      "inputs": [
        {
          "internalType": "bytes32",
          "name": "role",
          "type": "bytes32"
        },
        {
          "internalType": "address",
          "name": "account",
          "type": "address"
        }
      ],
      "name": "grantRole",
      "outputs": [],
      "stateMutability": "nonpayable",
      "type": "function"
    },
    {
      "inputs": [
        {
          "internalType": "bytes32",
          "name": "role",
          "type": "bytes32"
        },
        {
          "internalType": "address",
          "name": "account",
          "type": "address"
        }
      ],
      "name": "hasRole",
      "outputs": [
        {
          "internalType": "bool",
          "name": "",
          "type": "bool"
        }
      ],
      "stateMutability": "view",
      "type": "function"
    },
    {
      "inputs": [
        {
          "internalType": "bytes32",
          "name": "role",
          "type": "bytes32"
        },
        {
          "internalType": "address",
          "name": "account",
          "type": "address"
        }
      ],
      "name": "renounceRole",
      "outputs": [],
      "stateMutability": "nonpayable",
      "type": "function"
    },
    {
      "inputs": [
        {
          "internalType": "bytes32",
          "name": "role",
          "type": "bytes32"
        },
        {
          "internalType": "address",
          "name": "account",
          "type": "address"
        }
      ],
      "name": "revokeRole",
      "outputs": [],
      "stateMutability": "nonpayable",
      "type": "function"
    },
    {
      "inputs": [
        {
          "internalType": "uint256",
          "name": "bettingAmount",
          "type": "uint256"
        }
      ],
      "name": "setBettingStakes",
      "outputs": [],
      "stateMutability": "nonpayable",
      "type": "function"
    },
    {
      "inputs": [
        {
          "internalType": "bytes",
          "name": "sig_",
          "type": "bytes"
        },
        {
          "components": [
            {
              "internalType": "int256",
              "name": "expectedValue",
              "type": "int256"
            },
            {
              "internalType": "int256",
              "name": "maxExposure",
              "type": "int256"
            },
            {
              "internalType": "uint256",
              "name": "deadline",
              "type": "uint256"
            },
            {
              "internalType": "address",
              "name": "signer",
              "type": "address"
            }
          ],
          "internalType": "struct HousePoolWETH.ValuesOfInterest",
          "name": "voi_",
          "type": "tuple"
        }
      ],
      "name": "setVOI",
      "outputs": [],
      "stateMutability": "nonpayable",
      "type": "function"
    },
    {
      "inputs": [
        {
          "internalType": "bool",
          "name": "outcome",
          "type": "bool"
        },
        {
          "internalType": "uint256",
          "name": "betAmount",
          "type": "uint256"
        }
      ],
      "name": "simulateOutcome",
      "outputs": [],
      "stateMutability": "nonpayable",
      "type": "function"
    },
    {
      "inputs": [
        {
          "internalType": "bytes4",
          "name": "interfaceId",
          "type": "bytes4"
        }
      ],
      "name": "supportsInterface",
      "outputs": [
        {
          "internalType": "bool",
          "name": "",
          "type": "bool"
        }
      ],
      "stateMutability": "view",
      "type": "function"
    },
    {
      "inputs": [],
      "name": "voi",
      "outputs": [
        {
          "internalType": "int256",
          "name": "expectedValue",
          "type": "int256"
        },
        {
          "internalType": "int256",
          "name": "maxExposure",
          "type": "int256"
        },
        {
          "internalType": "uint256",
          "name": "deadline",
          "type": "uint256"
        },
        {
          "internalType": "address",
          "name": "signer",
          "type": "address"
        }
      ],
      "stateMutability": "view",
      "type": "function"
    },
    {
      "inputs": [
        {
          "internalType": "uint256",
          "name": "amountWETH",
          "type": "uint256"
        },
        {
          "internalType": "bytes",
          "name": "approval",
          "type": "bytes"
        },
        {
          "components": [
            {
              "internalType": "int256",
              "name": "expectedValue",
              "type": "int256"
            },
            {
              "internalType": "int256",
              "name": "maxExposure",
              "type": "int256"
            },
            {
              "internalType": "uint256",
              "name": "deadline",
              "type": "uint256"
            },
            {
              "internalType": "address",
              "name": "signer",
              "type": "address"
            }
          ],
          "internalType": "struct HousePoolWETH.ValuesOfInterest",
          "name": "approvedValues",
          "type": "tuple"
        }
      ],
      "name": "withdraw",
      "outputs": [],
      "stateMutability": "nonpayable",
      "type": "function"
    },
    {
      "inputs": [
        {
          "internalType": "uint256",
          "name": "WETHMicro",
          "type": "uint256"
        }
      ],
      "name": "withdraw_",
      "outputs": [],
      "stateMutability": "nonpayable",
      "type": "function"
    }
  ],
  "bytecode": "0x6101406040526012600a6200001591906200051b565b60646200002391906200056c565b600c556012600a6200003691906200051b565b60646200004491906200056c565b600d553480156200005457600080fd5b50604051620046f6380380620046f683398181016040528101906200007a9190620007cf565b8181600160008190555060008280519060200120905060008280519060200120905060007f8b73c3c69bb8fe3d512ecc4cf759cc79239f7b179b0ffacaa9a75d522b39400f90508260e081815250508161010081815250504660a08181525050620000ed818484620001d860201b60201c565b608081815250503073ffffffffffffffffffffffffffffffffffffffff1660c08173ffffffffffffffffffffffffffffffffffffffff1681525050806101208181525050505050505083600660006101000a81548173ffffffffffffffffffffffffffffffffffffffff021916908373ffffffffffffffffffffffffffffffffffffffff16021790555082600760006101000a81548173ffffffffffffffffffffffffffffffffffffffff021916908373ffffffffffffffffffffffffffffffffffffffff160217905550620001cd6000801b866200021460201b60201c565b50505050506200092f565b60008383834630604051602001620001f5959493929190620008d2565b6040516020818303038152906040528051906020012090509392505050565b6200022682826200022a60201b60201c565b5050565b6200023c82826200031b60201b60201c565b6200031757600180600084815260200190815260200160002060000160008373ffffffffffffffffffffffffffffffffffffffff1673ffffffffffffffffffffffffffffffffffffffff16815260200190815260200160002060006101000a81548160ff021916908315150217905550620002bc6200038660201b60201c565b73ffffffffffffffffffffffffffffffffffffffff168173ffffffffffffffffffffffffffffffffffffffff16837f2f8788117e7eff1d82e926ec794901d17c78024a50270940304540a733656f0d60405160405180910390a45b5050565b60006001600084815260200190815260200160002060000160008373ffffffffffffffffffffffffffffffffffffffff1673ffffffffffffffffffffffffffffffffffffffff16815260200190815260200160002060009054906101000a900460ff16905092915050565b600033905090565b7f4e487b7100000000000000000000000000000000000000000000000000000000600052601160045260246000fd5b60008160011c9050919050565b6000808291508390505b60018511156200041c57808604811115620003f457620003f36200038e565b5b6001851615620004045780820291505b80810290506200041485620003bd565b9450620003d4565b94509492505050565b6000826200043757600190506200050a565b816200044757600090506200050a565b81600181146200046057600281146200046b57620004a1565b60019150506200050a565b60ff84111562000480576200047f6200038e565b5b8360020a9150848211156200049a57620004996200038e565b5b506200050a565b5060208310610133831016604e8410600b8410161715620004db5782820a905083811115620004d557620004d46200038e565b5b6200050a565b620004ea8484846001620003ca565b925090508184048111156200050457620005036200038e565b5b81810290505b9392505050565b6000819050919050565b6000620005288262000511565b9150620005358362000511565b9250620005647fffffffffffffffffffffffffffffffffffffffffffffffffffffffffffffffff848462000425565b905092915050565b6000620005798262000511565b9150620005868362000511565b9250817fffffffffffffffffffffffffffffffffffffffffffffffffffffffffffffffff0483118215151615620005c257620005c16200038e565b5b828202905092915050565b6000604051905090565b600080fd5b600080fd5b600073ffffffffffffffffffffffffffffffffffffffff82169050919050565b60006200060e82620005e1565b9050919050565b620006208162000601565b81146200062c57600080fd5b50565b600081519050620006408162000615565b92915050565b600080fd5b600080fd5b6000601f19601f8301169050919050565b7f4e487b7100000000000000000000000000000000000000000000000000000000600052604160045260246000fd5b6200069b8262000650565b810181811067ffffffffffffffff82111715620006bd57620006bc62000661565b5b80604052505050565b6000620006d2620005cd565b9050620006e0828262000690565b919050565b600067ffffffffffffffff82111562000703576200070262000661565b5b6200070e8262000650565b9050602081019050919050565b60005b838110156200073b5780820151818401526020810190506200071e565b838111156200074b576000848401525b50505050565b6000620007686200076284620006e5565b620006c6565b9050828152602081018484840111156200078757620007866200064b565b5b620007948482856200071b565b509392505050565b600082601f830112620007b457620007b362000646565b5b8151620007c684826020860162000751565b91505092915050565b600080600080600060a08688031215620007ee57620007ed620005d7565b5b6000620007fe888289016200062f565b955050602062000811888289016200062f565b945050604062000824888289016200062f565b935050606086015167ffffffffffffffff811115620008485762000847620005dc565b5b62000856888289016200079c565b925050608086015167ffffffffffffffff8111156200087a5762000879620005dc565b5b62000888888289016200079c565b9150509295509295909350565b6000819050919050565b620008aa8162000895565b82525050565b620008bb8162000511565b82525050565b620008cc8162000601565b82525050565b600060a082019050620008e960008301886200089f565b620008f860208301876200089f565b6200090760408301866200089f565b620009166060830185620008b0565b620009256080830184620008c1565b9695505050505050565b60805160a05160c05160e0516101005161012051613d776200097f600039600061212501526000612167015260006121460152600061207b015260006120d1015260006120fa0152613d776000f3fe608060405234801561001057600080fd5b506004361061018e5760003560e01c80635a5d6223116100de578063b3ce252411610097578063d547741f11610071578063d547741f14610460578063d75d07c21461047c578063e20fcf001461049a578063e678ff25146104b85761018e565b8063b3ce252414610403578063be1cd71214610421578063cd08a1df146104425761018e565b80635a5d62231461032f578063639c066d1461034d5780637e3ef7cd1461036957806391d1485414610399578063a217fddf146103c9578063a43f3241146103e75761018e565b806336568abe1161014b5780634b94f50e116101255780634b94f50e146102b95780634f6d45a2146102d7578063508c81a2146102f357806353f52847146103115761018e565b806336568abe146102635780633c0717fd1461027f578063409c86ca1461029d5761018e565b806301ffc9a7146101935780630f5a5e18146101c357806320ab7449146101df578063218f296e146101fb578063248a9ca3146102175780632f2ff15d14610247575b600080fd5b6101ad60048036038101906101a89190612716565b6104d6565b6040516101ba919061275e565b60405180910390f35b6101dd60048036038101906101d891906127af565b610550565b005b6101f960048036038101906101f49190612a33565b61055c565b005b61021560048036038101906102109190612a33565b6107f6565b005b610231600480360381019061022c9190612ad8565b610a90565b60405161023e9190612b14565b60405180910390f35b610261600480360381019061025c9190612b2f565b610ab0565b005b61027d60048036038101906102789190612b2f565b610ad9565b005b610287610b5c565b6040516102949190612b7e565b60405180910390f35b6102b760048036038101906102b291906127af565b610b66565b005b6102c1610b70565b6040516102ce9190612b7e565b60405180910390f35b6102f160048036038101906102ec9190612bc5565b610b7a565b005b6102fb610c68565b6040516103089190612b14565b60405180910390f35b610319610c8c565b6040516103269190612c14565b60405180910390f35b610337610c96565b6040516103449190612c14565b60405180910390f35b610367600480360381019061036291906127af565b610ca3565b005b610383600480360381019061037e9190612c2f565b610caf565b6040516103909190612b7e565b60405180910390f35b6103b360048036038101906103ae9190612b2f565b610cf8565b6040516103c0919061275e565b60405180910390f35b6103d1610d63565b6040516103de9190612b14565b60405180910390f35b61040160048036038101906103fc9190612c5c565b610d6a565b005b61040b61102d565b6040516104189190612b7e565b60405180910390f35b610429611037565b6040516104399493929190612cc7565b60405180910390f35b61044a611075565b6040516104579190612c14565b60405180910390f35b61047a60048036038101906104759190612b2f565b611082565b005b6104846110ab565b6040516104919190612b14565b60405180910390f35b6104a26110cf565b6040516104af9190612b7e565b60405180910390f35b6104c06110d9565b6040516104cd9190612b7e565b60405180910390f35b60007f7965db0b000000000000000000000000000000000000000000000000000000007bffffffffffffffffffffffffffffffffffffffffffffffffffffffff1916827bffffffffffffffffffffffffffffffffffffffffffffffffffffffff191614806105495750610548826110e3565b5b9050919050565b6105598161114d565b50565b8082600061060c7f382f778b38ac8a684a068262bd90ef9739279743851e0bc20a2bf85f56a2550c846060015185600001518660200151600e6000896060015173ffffffffffffffffffffffffffffffffffffffff1673ffffffffffffffffffffffffffffffffffffffff1681526020019081526020016000205488604001516040516020016105f196959493929190612d0c565b6040516020818303038152906040528051906020012061158c565b905061061d836060015182846115a6565b61065c576040517f08c379a000000000000000000000000000000000000000000000000000000000815260040161065390612dca565b60405180910390fd5b600073ffffffffffffffffffffffffffffffffffffffff16836060015173ffffffffffffffffffffffffffffffffffffffff1614156106d0576040517f08c379a00000000000000000000000000000000000000000000000000000000081526004016106c790612e36565b60405180910390fd5b6106fe7feed754290b7b7033469899aa55827c9480fc90a4843b45b7f455d0ac50d3e6ce8460600151610cf8565b61073d576040517f08c379a000000000000000000000000000000000000000000000000000000000815260040161073490612ec8565b60405180910390fd5b82604001514310610783576040517f08c379a000000000000000000000000000000000000000000000000000000000815260040161077a90612f5a565b60405180910390fd5b600e6000846060015173ffffffffffffffffffffffffffffffffffffffff1673ffffffffffffffffffffffffffffffffffffffff16815260200190815260200160002060008154809291906107d790612fa9565b91905055506107e58461178b565b6107ee8661114d565b505050505050565b808260006108a67f382f778b38ac8a684a068262bd90ef9739279743851e0bc20a2bf85f56a2550c846060015185600001518660200151600e6000896060015173ffffffffffffffffffffffffffffffffffffffff1673ffffffffffffffffffffffffffffffffffffffff16815260200190815260200160002054886040015160405160200161088b96959493929190612d0c565b6040516020818303038152906040528051906020012061158c565b90506108b7836060015182846115a6565b6108f6576040517f08c379a00000000000000000000000000000000000000000000000000000000081526004016108ed90612dca565b60405180910390fd5b600073ffffffffffffffffffffffffffffffffffffffff16836060015173ffffffffffffffffffffffffffffffffffffffff16141561096a576040517f08c379a000000000000000000000000000000000000000000000000000000000815260040161096190612e36565b60405180910390fd5b6109987feed754290b7b7033469899aa55827c9480fc90a4843b45b7f455d0ac50d3e6ce8460600151610cf8565b6109d7576040517f08c379a00000000000000000000000000000000000000000000000000000000081526004016109ce90612ec8565b60405180910390fd5b82604001514310610a1d576040517f08c379a0000000000000000000000000000000000000000000000000000000008152600401610a1490612f5a565b60405180910390fd5b600e6000846060015173ffffffffffffffffffffffffffffffffffffffff1673ffffffffffffffffffffffffffffffffffffffff1681526020019081526020016000206000815480929190610a7190612fa9565b9190505550610a7f8461178b565b610a88866117ca565b505050505050565b600060016000838152602001908152602001600020600101549050919050565b610ab982610a90565b610aca81610ac5611b62565b611b6a565b610ad48383611c07565b505050565b610ae1611b62565b73ffffffffffffffffffffffffffffffffffffffff168173ffffffffffffffffffffffffffffffffffffffff1614610b4e576040517f08c379a0000000000000000000000000000000000000000000000000000000008152600401610b4590613064565b60405180910390fd5b610b588282611ce7565b5050565b6000600354905090565b8060028190555050565b6000600c54905090565b600015158215151415610be257606481610b9491906130b3565b60046000828254610ba591906130e4565b925050819055506063606482610bbb91906130b3565b610bc5919061313a565b60036000828254610bd691906130e4565b92505081905550610c23565b6064600254610bf191906130b3565b60046000828254610c0291906130e4565b925050819055508060026000828254610c1b9190613194565b925050819055505b6000600860000181905550600060086001018190555060045460056000828254610c4d91906131c8565b92505081905550610c5c611dc9565b610c64611f20565b5050565b7fce95e3899a3f9149fc26a34674875210907ee3c0dddf61ac603f89e90c1b5f9e81565b6000600554905090565b6000600860010154905090565b610cac816117ca565b50565b6000600f60008373ffffffffffffffffffffffffffffffffffffffff1673ffffffffffffffffffffffffffffffffffffffff168152602001908152602001600020549050919050565b60006001600084815260200190815260200160002060000160008373ffffffffffffffffffffffffffffffffffffffff1673ffffffffffffffffffffffffffffffffffffffff16815260200190815260200160002060009054906101000a900460ff16905092915050565b6000801b81565b80826000610e1a7f382f778b38ac8a684a068262bd90ef9739279743851e0bc20a2bf85f56a2550c846060015185600001518660200151600e6000896060015173ffffffffffffffffffffffffffffffffffffffff1673ffffffffffffffffffffffffffffffffffffffff168152602001908152602001600020548860400151604051602001610dff96959493929190612d0c565b6040516020818303038152906040528051906020012061158c565b9050610e2b836060015182846115a6565b610e6a576040517f08c379a0000000000000000000000000000000000000000000000000000000008152600401610e6190612dca565b60405180910390fd5b600073ffffffffffffffffffffffffffffffffffffffff16836060015173ffffffffffffffffffffffffffffffffffffffff161415610ede576040517f08c379a0000000000000000000000000000000000000000000000000000000008152600401610ed590612e36565b60405180910390fd5b610f0c7feed754290b7b7033469899aa55827c9480fc90a4843b45b7f455d0ac50d3e6ce8460600151610cf8565b610f4b576040517f08c379a0000000000000000000000000000000000000000000000000000000008152600401610f4290612ec8565b60405180910390fd5b82604001514310610f91576040517f08c379a0000000000000000000000000000000000000000000000000000000008152600401610f8890612f5a565b60405180910390fd5b600e6000846060015173ffffffffffffffffffffffffffffffffffffffff1673ffffffffffffffffffffffffffffffffffffffff1681526020019081526020016000206000815480929190610fe590612fa9565b91905055507fce95e3899a3f9149fc26a34674875210907ee3c0dddf61ac603f89e90c1b5f9e61101c81611017611b62565b611b6a565b6110258561178b565b505050505050565b6000600d54905090565b60088060000154908060010154908060020154908060030160009054906101000a900473ffffffffffffffffffffffffffffffffffffffff16905084565b6000600860000154905090565b61108b82610a90565b61109c81611097611b62565b611b6a565b6110a68383611ce7565b505050565b7feed754290b7b7033469899aa55827c9480fc90a4843b45b7f455d0ac50d3e6ce81565b6000600454905090565b6000600254905090565b60007f01ffc9a7000000000000000000000000000000000000000000000000000000007bffffffffffffffffffffffffffffffffffffffffffffffffffffffff1916827bffffffffffffffffffffffffffffffffffffffffffffffffffffffff1916149050919050565b60026000541415611193576040517f08c379a000000000000000000000000000000000000000000000000000000000815260040161118a906132a8565b60405180910390fd5b6002600081905550600081116111de576040517f08c379a00000000000000000000000000000000000000000000000000000000081526004016111d590613314565b60405180910390fd5b600d546012600a6111ef9190613467565b600760009054906101000a900473ffffffffffffffffffffffffffffffffffffffff1673ffffffffffffffffffffffffffffffffffffffff166370a08231336040518263ffffffff1660e01b815260040161124a91906134b2565b602060405180830381865afa158015611267573d6000803e3d6000fd5b505050506040513d601f19601f8201168201806040525081019061128b91906134e2565b61129591906130b3565b61129f919061313a565b6000600a6112ad9190613467565b826112b8919061313a565b111580156112ef57506008600101546003546112d4919061350f565b6000600a6112e29190613467565b826112ed91906135a3565b125b61132e576040517f08c379a000000000000000000000000000000000000000000000000000000000815260040161132590613706565b60405180910390fd5b6000600d546012600a6113419190613467565b6000600a61134f9190613467565b8461135a919061313a565b611364919061313a565b61136e91906130b3565b90506000600a61137e9190613467565b82611389919061313a565b6003600082825461139a9190613194565b925050819055506000600a6113af9190613467565b826113ba91906135a3565b600560008282546113cb919061350f565b925050819055506000600a6113e09190613467565b826113eb919061313a565b600f60003373ffffffffffffffffffffffffffffffffffffffff1673ffffffffffffffffffffffffffffffffffffffff16815260200190815260200160002060008282546114399190613194565b92505081905550600660009054906101000a900473ffffffffffffffffffffffffffffffffffffffff1673ffffffffffffffffffffffffffffffffffffffff1663a9059cbb33846040518363ffffffff1660e01b815260040161149d929190613726565b6020604051808303816000875af11580156114bc573d6000803e3d6000fd5b505050506040513d601f19601f820116820180604052508101906114e09190613764565b50600760009054906101000a900473ffffffffffffffffffffffffffffffffffffffff1673ffffffffffffffffffffffffffffffffffffffff16639dc29fac33836040518363ffffffff1660e01b815260040161153e929190613726565b600060405180830381600087803b15801561155857600080fd5b505af115801561156c573d6000803e3d6000fd5b50505050611578611f20565b611580611dc9565b50600160008190555050565b600061159f611599612077565b83612191565b9050919050565b60008060006115b585856121c4565b91509150600060048111156115cd576115cc613791565b5b8160048111156115e0576115df613791565b5b14801561161857508573ffffffffffffffffffffffffffffffffffffffff168273ffffffffffffffffffffffffffffffffffffffff16145b1561162857600192505050611784565b6000808773ffffffffffffffffffffffffffffffffffffffff16631626ba7e60e01b888860405160240161165d929190613848565b604051602081830303815290604052907bffffffffffffffffffffffffffffffffffffffffffffffffffffffff19166020820180517bffffffffffffffffffffffffffffffffffffffffffffffffffffffff83818316178352505050506040516116c791906138b4565b600060405180830381855afa9150503d8060008114611702576040519150601f19603f3d011682016040523d82523d6000602084013e611707565b606091505b509150915081801561171a575060208151145b801561177d5750631626ba7e60e01b7bffffffffffffffffffffffffffffffffffffffffffffffffffffffff19168180602001905181019061175c91906138e0565b7bffffffffffffffffffffffffffffffffffffffffffffffffffffffff1916145b9450505050505b9392505050565b6008600001548160000151146117a9576117a88160000151612247565b5b6008600101548160200151146117c7576117c68160200151612265565b5b50565b60026000541415611810576040517f08c379a0000000000000000000000000000000000000000000000000000000008152600401611807906132a8565b60405180910390fd5b60026000819055506000811180156118c35750600660009054906101000a900473ffffffffffffffffffffffffffffffffffffffff1673ffffffffffffffffffffffffffffffffffffffff166370a08231336040518263ffffffff1660e01b815260040161187e91906134b2565b602060405180830381865afa15801561189b573d6000803e3d6000fd5b505050506040513d601f19601f820116820180604052508101906118bf91906134e2565b8111155b611902576040517f08c379a00000000000000000000000000000000000000000000000000000000081526004016118f990613959565b60405180910390fd5b6000600a6119109190613467565b8161191b919061313a565b6003600082825461192c91906130e4565b925050819055506000600a6119419190613467565b8161194c919061313a565b6005600082825461195d91906131c8565b925050819055506000600a6119729190613467565b8161197d919061313a565b600f60003373ffffffffffffffffffffffffffffffffffffffff1673ffffffffffffffffffffffffffffffffffffffff16815260200190815260200160002060008282546119cb91906130e4565b92505081905550600660009054906101000a900473ffffffffffffffffffffffffffffffffffffffff1673ffffffffffffffffffffffffffffffffffffffff166323b872dd3330846040518463ffffffff1660e01b8152600401611a3193929190613979565b6020604051808303816000875af1158015611a50573d6000803e3d6000fd5b505050506040513d601f19601f82011682018060405250810190611a749190613764565b506000600c546012600a611a889190613467565b6000600a611a969190613467565b84611aa1919061313a565b611aab919061313a565b611ab591906130b3565b9050600760009054906101000a900473ffffffffffffffffffffffffffffffffffffffff1673ffffffffffffffffffffffffffffffffffffffff166340c10f1933836040518363ffffffff1660e01b8152600401611b14929190613726565b600060405180830381600087803b158015611b2e57600080fd5b505af1158015611b42573d6000803e3d6000fd5b50505050611b4e611dc9565b611b56611f20565b50600160008190555050565b600033905090565b611b748282610cf8565b611c0357611b998173ffffffffffffffffffffffffffffffffffffffff166014612272565b611ba78360001c6020612272565b604051602001611bb8929190613a8f565b6040516020818303038152906040526040517f08c379a0000000000000000000000000000000000000000000000000000000008152600401611bfa9190613b02565b60405180910390fd5b5050565b611c118282610cf8565b611ce357600180600084815260200190815260200160002060000160008373ffffffffffffffffffffffffffffffffffffffff1673ffffffffffffffffffffffffffffffffffffffff16815260200190815260200160002060006101000a81548160ff021916908315150217905550611c88611b62565b73ffffffffffffffffffffffffffffffffffffffff168173ffffffffffffffffffffffffffffffffffffffff16837f2f8788117e7eff1d82e926ec794901d17c78024a50270940304540a733656f0d60405160405180910390a45b5050565b611cf18282610cf8565b15611dc55760006001600084815260200190815260200160002060000160008373ffffffffffffffffffffffffffffffffffffffff1673ffffffffffffffffffffffffffffffffffffffff16815260200190815260200160002060006101000a81548160ff021916908315150217905550611d6a611b62565b73ffffffffffffffffffffffffffffffffffffffff168173ffffffffffffffffffffffffffffffffffffffff16837ff6391f5c32d9c69d2a47ea670b442974b53935d1edc7fd64eb21e047a839171b60405160405180910390a45b5050565b6000600760009054906101000a900473ffffffffffffffffffffffffffffffffffffffff1673ffffffffffffffffffffffffffffffffffffffff166318160ddd6040518163ffffffff1660e01b8152600401602060405180830381865afa158015611e38573d6000803e3d6000fd5b505050506040513d601f19601f82011682018060405250810190611e5c91906134e2565b14611f1e57600760009054906101000a900473ffffffffffffffffffffffffffffffffffffffff1673ffffffffffffffffffffffffffffffffffffffff166318160ddd6040518163ffffffff1660e01b8152600401602060405180830381865afa158015611ece573d6000803e3d6000fd5b505050506040513d601f19601f82011682018060405250810190611ef291906134e2565b6012600a611f009190613467565b600554611f0d919061313a565b611f1791906130b3565b600c819055505b565b6000600760009054906101000a900473ffffffffffffffffffffffffffffffffffffffff1673ffffffffffffffffffffffffffffffffffffffff166318160ddd6040518163ffffffff1660e01b8152600401602060405180830381865afa158015611f8f573d6000803e3d6000fd5b505050506040513d601f19601f82011682018060405250810190611fb391906134e2565b1461207557600760009054906101000a900473ffffffffffffffffffffffffffffffffffffffff1673ffffffffffffffffffffffffffffffffffffffff166318160ddd6040518163ffffffff1660e01b8152600401602060405180830381865afa158015612025573d6000803e3d6000fd5b505050506040513d601f19601f8201168201806040525081019061204991906134e2565b6012600a6120579190613467565b600354612064919061313a565b61206e91906130b3565b600d819055505b565b60007f000000000000000000000000000000000000000000000000000000000000000073ffffffffffffffffffffffffffffffffffffffff163073ffffffffffffffffffffffffffffffffffffffff161480156120f357507f000000000000000000000000000000000000000000000000000000000000000046145b15612120577f0000000000000000000000000000000000000000000000000000000000000000905061218e565b61218b7f00000000000000000000000000000000000000000000000000000000000000007f00000000000000000000000000000000000000000000000000000000000000007f00000000000000000000000000000000000000000000000000000000000000006124ae565b90505b90565b600082826040516020016121a6929190613b91565b60405160208183030381529060405280519060200120905092915050565b6000806041835114156122065760008060006020860151925060408601519150606086015160001a90506121fa878285856124e8565b94509450505050612240565b60408351141561223757600080602085015191506040850151905061222c8683836125f5565b935093505050612240565b60006002915091505b9250929050565b61225081612643565b80600860000181905550612262611dc9565b50565b8060086001018190555050565b606060006002836002612285919061313a565b61228f91906130e4565b67ffffffffffffffff8111156122a8576122a76127f7565b5b6040519080825280601f01601f1916602001820160405280156122da5781602001600182028036833780820191505090505b5090507f30000000000000000000000000000000000000000000000000000000000000008160008151811061231257612311613bc8565b5b60200101907effffffffffffffffffffffffffffffffffffffffffffffffffffffffffffff1916908160001a9053507f78000000000000000000000000000000000000000000000000000000000000008160018151811061237657612375613bc8565b5b60200101907effffffffffffffffffffffffffffffffffffffffffffffffffffffffffffff1916908160001a905350600060018460026123b6919061313a565b6123c091906130e4565b90505b6001811115612460577f3031323334353637383961626364656600000000000000000000000000000000600f86166010811061240257612401613bc8565b5b1a60f81b82828151811061241957612418613bc8565b5b60200101907effffffffffffffffffffffffffffffffffffffffffffffffffffffffffffff1916908160001a905350600485901c94508061245990613bf7565b90506123c3565b50600084146124a4576040517f08c379a000000000000000000000000000000000000000000000000000000000815260040161249b90613c6d565b60405180910390fd5b8091505092915050565b600083838346306040516020016124c9959493929190613c8d565b6040516020818303038152906040528051906020012090509392505050565b6000807f7fffffffffffffffffffffffffffffff5d576e7357a4501ddfe92f46681b20a08360001c11156125235760006003915091506125ec565b601b8560ff161415801561253b5750601c8560ff1614155b1561254d5760006004915091506125ec565b6000600187878787604051600081526020016040526040516125729493929190613cfc565b6020604051602081039080840390855afa158015612594573d6000803e3d6000fd5b505050602060405103519050600073ffffffffffffffffffffffffffffffffffffffff168173ffffffffffffffffffffffffffffffffffffffff1614156125e3576000600192509250506125ec565b80600092509250505b94509492505050565b6000806000807f7fffffffffffffffffffffffffffffffffffffffffffffffffffffffffffffff85169150601b8560ff1c019050612635878288856124e8565b935093505050935093915050565b6000600860000154141561266f57806005600082825461266391906131c8565b925050819055506126a7565b60086000015460056000828254612686919061350f565b92505081905550806005600082825461269f91906131c8565b925050819055505b50565b6000604051905090565b600080fd5b600080fd5b60007fffffffff0000000000000000000000000000000000000000000000000000000082169050919050565b6126f3816126be565b81146126fe57600080fd5b50565b600081359050612710816126ea565b92915050565b60006020828403121561272c5761272b6126b4565b5b600061273a84828501612701565b91505092915050565b60008115159050919050565b61275881612743565b82525050565b6000602082019050612773600083018461274f565b92915050565b6000819050919050565b61278c81612779565b811461279757600080fd5b50565b6000813590506127a981612783565b92915050565b6000602082840312156127c5576127c46126b4565b5b60006127d38482850161279a565b91505092915050565b600080fd5b600080fd5b6000601f19601f8301169050919050565b7f4e487b7100000000000000000000000000000000000000000000000000000000600052604160045260246000fd5b61282f826127e6565b810181811067ffffffffffffffff8211171561284e5761284d6127f7565b5b80604052505050565b60006128616126aa565b905061286d8282612826565b919050565b600067ffffffffffffffff82111561288d5761288c6127f7565b5b612896826127e6565b9050602081019050919050565b82818337600083830152505050565b60006128c56128c084612872565b612857565b9050828152602081018484840111156128e1576128e06127e1565b5b6128ec8482856128a3565b509392505050565b600082601f830112612909576129086127dc565b5b81356129198482602086016128b2565b91505092915050565b600080fd5b6000819050919050565b61293a81612927565b811461294557600080fd5b50565b60008135905061295781612931565b92915050565b600073ffffffffffffffffffffffffffffffffffffffff82169050919050565b60006129888261295d565b9050919050565b6129988161297d565b81146129a357600080fd5b50565b6000813590506129b58161298f565b92915050565b6000608082840312156129d1576129d0612922565b5b6129db6080612857565b905060006129eb84828501612948565b60008301525060206129ff84828501612948565b6020830152506040612a138482850161279a565b6040830152506060612a27848285016129a6565b60608301525092915050565b600080600060c08486031215612a4c57612a4b6126b4565b5b6000612a5a8682870161279a565b935050602084013567ffffffffffffffff811115612a7b57612a7a6126b9565b5b612a87868287016128f4565b9250506040612a98868287016129bb565b9150509250925092565b6000819050919050565b612ab581612aa2565b8114612ac057600080fd5b50565b600081359050612ad281612aac565b92915050565b600060208284031215612aee57612aed6126b4565b5b6000612afc84828501612ac3565b91505092915050565b612b0e81612aa2565b82525050565b6000602082019050612b296000830184612b05565b92915050565b60008060408385031215612b4657612b456126b4565b5b6000612b5485828601612ac3565b9250506020612b65858286016129a6565b9150509250929050565b612b7881612779565b82525050565b6000602082019050612b936000830184612b6f565b92915050565b612ba281612743565b8114612bad57600080fd5b50565b600081359050612bbf81612b99565b92915050565b60008060408385031215612bdc57612bdb6126b4565b5b6000612bea85828601612bb0565b9250506020612bfb8582860161279a565b9150509250929050565b612c0e81612927565b82525050565b6000602082019050612c296000830184612c05565b92915050565b600060208284031215612c4557612c446126b4565b5b6000612c53848285016129a6565b91505092915050565b60008060a08385031215612c7357612c726126b4565b5b600083013567ffffffffffffffff811115612c9157612c906126b9565b5b612c9d858286016128f4565b9250506020612cae858286016129bb565b9150509250929050565b612cc18161297d565b82525050565b6000608082019050612cdc6000830187612c05565b612ce96020830186612c05565b612cf66040830185612b6f565b612d036060830184612cb8565b95945050505050565b600060c082019050612d216000830189612b05565b612d2e6020830188612cb8565b612d3b6040830187612c05565b612d486060830186612c05565b612d556080830185612b6f565b612d6260a0830184612b6f565b979650505050505050565b600082825260208201905092915050565b7f486f757365506f6f6c574554483a20696e76616c6964207369676e6174757265600082015250565b6000612db4602083612d6d565b9150612dbf82612d7e565b602082019050919050565b60006020820190508181036000830152612de381612da7565b9050919050565b7f486f757365506f6f6c574554483a20696e76616c6964207369676e6572000000600082015250565b6000612e20601d83612d6d565b9150612e2b82612dea565b602082019050919050565b60006020820190508181036000830152612e4f81612e13565b9050919050565b7f486f757365506f6f6c574554483a20756e617574686f7269736564207369676e60008201527f6572000000000000000000000000000000000000000000000000000000000000602082015250565b6000612eb2602283612d6d565b9150612ebd82612e56565b604082019050919050565b60006020820190508181036000830152612ee181612ea5565b9050919050565b7f486f757365506f6f6c574554483a207369676e6564207472616e73616374696f60008201527f6e20657870697265640000000000000000000000000000000000000000000000602082015250565b6000612f44602983612d6d565b9150612f4f82612ee8565b604082019050919050565b60006020820190508181036000830152612f7381612f37565b9050919050565b7f4e487b7100000000000000000000000000000000000000000000000000000000600052601160045260246000fd5b6000612fb482612779565b91507fffffffffffffffffffffffffffffffffffffffffffffffffffffffffffffffff821415612fe757612fe6612f7a565b5b600182019050919050565b7f416363657373436f6e74726f6c3a2063616e206f6e6c792072656e6f756e636560008201527f20726f6c657320666f722073656c660000000000000000000000000000000000602082015250565b600061304e602f83612d6d565b915061305982612ff2565b604082019050919050565b6000602082019050818103600083015261307d81613041565b9050919050565b7f4e487b7100000000000000000000000000000000000000000000000000000000600052601260045260246000fd5b60006130be82612779565b91506130c983612779565b9250826130d9576130d8613084565b5b828204905092915050565b60006130ef82612779565b91506130fa83612779565b9250827fffffffffffffffffffffffffffffffffffffffffffffffffffffffffffffffff0382111561312f5761312e612f7a565b5b828201905092915050565b600061314582612779565b915061315083612779565b9250817fffffffffffffffffffffffffffffffffffffffffffffffffffffffffffffffff048311821515161561318957613188612f7a565b5b828202905092915050565b600061319f82612779565b91506131aa83612779565b9250828210156131bd576131bc612f7a565b5b828203905092915050565b60006131d382612927565b91506131de83612927565b9250817f7fffffffffffffffffffffffffffffffffffffffffffffffffffffffffffffff0383136000831215161561321957613218612f7a565b5b817f800000000000000000000000000000000000000000000000000000000000000003831260008312161561325157613250612f7a565b5b828201905092915050565b7f5265656e7472616e637947756172643a207265656e7472616e742063616c6c00600082015250565b6000613292601f83612d6d565b915061329d8261325c565b602082019050919050565b600060208201905081810360008301526132c181613285565b9050919050565b7f57455448486f757365506f6f6c3a205a65726f20416d6f756e74000000000000600082015250565b60006132fe601a83612d6d565b9150613309826132c8565b602082019050919050565b6000602082019050818103600083015261332d816132f1565b9050919050565b60008160011c9050919050565b6000808291508390505b600185111561338b5780860481111561336757613366612f7a565b5b60018516156133765780820291505b808102905061338485613334565b945061334b565b94509492505050565b6000826133a45760019050613460565b816133b25760009050613460565b81600181146133c857600281146133d257613401565b6001915050613460565b60ff8411156133e4576133e3612f7a565b5b8360020a9150848211156133fb576133fa612f7a565b5b50613460565b5060208310610133831016604e8410600b84101617156134365782820a90508381111561343157613430612f7a565b5b613460565b6134438484846001613341565b9250905081840481111561345a57613459612f7a565b5b81810290505b9392505050565b600061347282612779565b915061347d83612779565b92506134aa7fffffffffffffffffffffffffffffffffffffffffffffffffffffffffffffffff8484613394565b905092915050565b60006020820190506134c76000830184612cb8565b92915050565b6000815190506134dc81612783565b92915050565b6000602082840312156134f8576134f76126b4565b5b6000613506848285016134cd565b91505092915050565b600061351a82612927565b915061352583612927565b9250827f8000000000000000000000000000000000000000000000000000000000000000018212600084121516156135605761355f612f7a565b5b827f7fffffffffffffffffffffffffffffffffffffffffffffffffffffffffffffff01821360008412161561359857613597612f7a565b5b828203905092915050565b60006135ae82612927565b91506135b983612927565b9250827f7fffffffffffffffffffffffffffffffffffffffffffffffffffffffffffffff04821160008413600084131616156135f8576135f7612f7a565b5b817f8000000000000000000000000000000000000000000000000000000000000000058312600084126000841316161561363557613634612f7a565b5b827f8000000000000000000000000000000000000000000000000000000000000000058212600084136000841216161561367257613671612f7a565b5b827f7fffffffffffffffffffffffffffffffffffffffffffffffffffffffffffffff05821260008412600084121616156136af576136ae612f7a565b5b828202905092915050565b7f57455448486f757365506f6f6c203a2063616e27742077697468647261770000600082015250565b60006136f0601e83612d6d565b91506136fb826136ba565b602082019050919050565b6000602082019050818103600083015261371f816136e3565b9050919050565b600060408201905061373b6000830185612cb8565b6137486020830184612b6f565b9392505050565b60008151905061375e81612b99565b92915050565b60006020828403121561377a576137796126b4565b5b60006137888482850161374f565b91505092915050565b7f4e487b7100000000000000000000000000000000000000000000000000000000600052602160045260246000fd5b600081519050919050565b600082825260208201905092915050565b60005b838110156137fa5780820151818401526020810190506137df565b83811115613809576000848401525b50505050565b600061381a826137c0565b61382481856137cb565b93506138348185602086016137dc565b61383d816127e6565b840191505092915050565b600060408201905061385d6000830185612b05565b818103602083015261386f818461380f565b90509392505050565b600081905092915050565b600061388e826137c0565b6138988185613878565b93506138a88185602086016137dc565b80840191505092915050565b60006138c08284613883565b915081905092915050565b6000815190506138da816126ea565b92915050565b6000602082840312156138f6576138f56126b4565b5b6000613904848285016138cb565b91505092915050565b7f57455448486f757365506f6f6c3a20436865636b207468652042616c616e6365600082015250565b6000613943602083612d6d565b915061394e8261390d565b602082019050919050565b6000602082019050818103600083015261397281613936565b9050919050565b600060608201905061398e6000830186612cb8565b61399b6020830185612cb8565b6139a86040830184612b6f565b949350505050565b600081905092915050565b7f416363657373436f6e74726f6c3a206163636f756e7420000000000000000000600082015250565b60006139f16017836139b0565b91506139fc826139bb565b601782019050919050565b600081519050919050565b6000613a1d82613a07565b613a2781856139b0565b9350613a378185602086016137dc565b80840191505092915050565b7f206973206d697373696e6720726f6c6520000000000000000000000000000000600082015250565b6000613a796011836139b0565b9150613a8482613a43565b601182019050919050565b6000613a9a826139e4565b9150613aa68285613a12565b9150613ab182613a6c565b9150613abd8284613a12565b91508190509392505050565b6000613ad482613a07565b613ade8185612d6d565b9350613aee8185602086016137dc565b613af7816127e6565b840191505092915050565b60006020820190508181036000830152613b1c8184613ac9565b905092915050565b7f1901000000000000000000000000000000000000000000000000000000000000600082015250565b6000613b5a6002836139b0565b9150613b6582613b24565b600282019050919050565b6000819050919050565b613b8b613b8682612aa2565b613b70565b82525050565b6000613b9c82613b4d565b9150613ba88285613b7a565b602082019150613bb88284613b7a565b6020820191508190509392505050565b7f4e487b7100000000000000000000000000000000000000000000000000000000600052603260045260246000fd5b6000613c0282612779565b91506000821415613c1657613c15612f7a565b5b600182039050919050565b7f537472696e67733a20686578206c656e67746820696e73756666696369656e74600082015250565b6000613c57602083612d6d565b9150613c6282613c21565b602082019050919050565b60006020820190508181036000830152613c8681613c4a565b9050919050565b600060a082019050613ca26000830188612b05565b613caf6020830187612b05565b613cbc6040830186612b05565b613cc96060830185612b6f565b613cd66080830184612cb8565b9695505050505050565b600060ff82169050919050565b613cf681613ce0565b82525050565b6000608082019050613d116000830187612b05565b613d1e6020830186613ced565b613d2b6040830185612b05565b613d386060830184612b05565b9594505050505056fea2646970667358221220b68479e610f22919d0aa6e9169d5141671d54c633b2da599cac3ccf8e979fcb664736f6c634300080a0033",
  "linkReferences": {},
  "deployedLinkReferences": {}
}