{
  "_format": "hh-sol-artifact-1",
  "contractName": "HousePoolWBTCV2",
  "sourceName": "contracts/HousePoolWBTCV2.sol",
  "abi": [
    {
      "anonymous": false,
      "inputs": [
        {
          "indexed": true,
          "internalType": "bytes32",
          "name": "role",
          "type": "bytes32"
        },
        {
          "indexed": true,
          "internalType": "bytes32",
          "name": "previousAdminRole",
          "type": "bytes32"
        },
        {
          "indexed": true,
          "internalType": "bytes32",
          "name": "newAdminRole",
          "type": "bytes32"
        }
      ],
      "name": "RoleAdminChanged",
      "type": "event"
    },
    {
      "anonymous": false,
      "inputs": [
        {
          "indexed": true,
          "internalType": "bytes32",
          "name": "role",
          "type": "bytes32"
        },
        {
          "indexed": true,
          "internalType": "address",
          "name": "account",
          "type": "address"
        },
        {
          "indexed": true,
          "internalType": "address",
          "name": "sender",
          "type": "address"
        }
      ],
      "name": "RoleGranted",
      "type": "event"
    },
    {
      "anonymous": false,
      "inputs": [
        {
          "indexed": true,
          "internalType": "bytes32",
          "name": "role",
          "type": "bytes32"
        },
        {
          "indexed": true,
          "internalType": "address",
          "name": "account",
          "type": "address"
        },
        {
          "indexed": true,
          "internalType": "address",
          "name": "sender",
          "type": "address"
        }
      ],
      "name": "RoleRevoked",
      "type": "event"
    },
    {
      "inputs": [],
      "name": "DATA_PROVIDER_ORACLE",
      "outputs": [
        {
          "internalType": "bytes32",
          "name": "",
          "type": "bytes32"
        }
      ],
      "stateMutability": "view",
      "type": "function"
    },
    {
      "inputs": [],
      "name": "DEFAULT_ADMIN_ROLE",
      "outputs": [
        {
          "internalType": "bytes32",
          "name": "",
          "type": "bytes32"
        }
      ],
      "stateMutability": "view",
      "type": "function"
    },
    {
      "inputs": [],
      "name": "HOUSE_POOL_DATA_PROVIDER",
      "outputs": [
        {
          "internalType": "bytes32",
          "name": "",
          "type": "bytes32"
        }
      ],
      "stateMutability": "view",
      "type": "function"
    },
    {
      "inputs": [
        {
          "internalType": "uint256",
          "name": "amountWBTC",
          "type": "uint256"
        },
        {
          "internalType": "bytes",
          "name": "approval",
          "type": "bytes"
        },
        {
          "components": [
            {
              "internalType": "int256",
              "name": "expectedValue",
              "type": "int256"
            },
            {
              "internalType": "int256",
              "name": "maxExposure",
              "type": "int256"
            },
            {
              "internalType": "uint256",
              "name": "deadline",
              "type": "uint256"
            },
            {
              "internalType": "address",
              "name": "signer",
              "type": "address"
            }
          ],
          "internalType": "struct HousePoolWBTCV2.ValuesOfInterest",
          "name": "approvedValues",
          "type": "tuple"
        }
      ],
      "name": "deposit",
      "outputs": [],
      "stateMutability": "nonpayable",
      "type": "function"
    },
    {
      "inputs": [
        {
          "internalType": "uint256",
          "name": "WBTCMicro",
          "type": "uint256"
        }
      ],
      "name": "deposit_",
      "outputs": [],
      "stateMutability": "nonpayable",
      "type": "function"
    },
    {
      "inputs": [],
      "name": "getBettingStakes",
      "outputs": [
        {
          "internalType": "uint256",
          "name": "",
          "type": "uint256"
        }
      ],
      "stateMutability": "view",
      "type": "function"
    },
    {
      "inputs": [],
      "name": "getEV",
      "outputs": [
        {
          "internalType": "int256",
          "name": "",
          "type": "int256"
        }
      ],
      "stateMutability": "view",
      "type": "function"
    },
    {
      "inputs": [],
      "name": "getLiquidityStatus",
      "outputs": [
        {
          "internalType": "uint256",
          "name": "",
          "type": "uint256"
        }
      ],
      "stateMutability": "view",
      "type": "function"
    },
    {
      "inputs": [],
      "name": "getMaxExposure",
      "outputs": [
        {
          "internalType": "int256",
          "name": "",
          "type": "int256"
        }
      ],
      "stateMutability": "view",
      "type": "function"
    },
    {
      "inputs": [
        {
          "internalType": "address",
          "name": "_user",
          "type": "address"
        }
      ],
      "name": "getMyBalance",
      "outputs": [
        {
          "internalType": "uint256",
          "name": "",
          "type": "uint256"
        }
      ],
      "stateMutability": "view",
      "type": "function"
    },
    {
      "inputs": [
        {
          "internalType": "address",
          "name": "_user",
          "type": "address"
        }
      ],
      "name": "getMyLiquidity",
      "outputs": [
        {
          "internalType": "uint256",
          "name": "",
          "type": "uint256"
        }
      ],
      "stateMutability": "view",
      "type": "function"
    },
    {
      "inputs": [
        {
          "internalType": "bytes32",
          "name": "role",
          "type": "bytes32"
        }
      ],
      "name": "getRoleAdmin",
      "outputs": [
        {
          "internalType": "bytes32",
          "name": "",
          "type": "bytes32"
        }
      ],
      "stateMutability": "view",
      "type": "function"
    },
    {
      "inputs": [],
      "name": "getTVLofPool",
      "outputs": [
        {
          "internalType": "int256",
          "name": "",
          "type": "int256"
        }
      ],
      "stateMutability": "view",
      "type": "function"
    },
    {
      "inputs": [],
      "name": "getTokenPrice",
      "outputs": [
        {
          "internalType": "uint256",
          "name": "",
          "type": "uint256"
        }
      ],
      "stateMutability": "view",
      "type": "function"
    },
    {
      "inputs": [],
      "name": "getTokenWithdrawlPrice",
      "outputs": [
        {
          "internalType": "uint256",
          "name": "",
          "type": "uint256"
        }
      ],
      "stateMutability": "view",
      "type": "function"
    },
    {
      "inputs": [],
      "name": "getTreasuryAmount",
      "outputs": [
        {
          "internalType": "uint256",
          "name": "",
          "type": "uint256"
        }
      ],
      "stateMutability": "view",
      "type": "function"
    },
    {
      "inputs": [
        {
          "internalType": "bytes32",
          "name": "role",
          "type": "bytes32"
        },
        {
          "internalType": "address",
          "name": "account",
          "type": "address"
        }
      ],
      "name": "grantRole",
      "outputs": [],
      "stateMutability": "nonpayable",
      "type": "function"
    },
    {
      "inputs": [
        {
          "internalType": "bytes32",
          "name": "role",
          "type": "bytes32"
        },
        {
          "internalType": "address",
          "name": "account",
          "type": "address"
        }
      ],
      "name": "hasRole",
      "outputs": [
        {
          "internalType": "bool",
          "name": "",
          "type": "bool"
        }
      ],
      "stateMutability": "view",
      "type": "function"
    },
    {
      "inputs": [
        {
          "internalType": "address",
          "name": "_owner",
          "type": "address"
        },
        {
          "internalType": "address",
          "name": "_WBTC",
          "type": "address"
        },
        {
          "internalType": "address",
          "name": "_claimToken",
          "type": "address"
        },
        {
          "internalType": "string",
          "name": "_name",
          "type": "string"
        },
        {
          "internalType": "string",
          "name": "_version",
          "type": "string"
        }
      ],
      "name": "initialize",
      "outputs": [],
      "stateMutability": "nonpayable",
      "type": "function"
    },
    {
      "inputs": [],
      "name": "lpTokenPrice",
      "outputs": [
        {
          "internalType": "uint256",
          "name": "",
          "type": "uint256"
        }
      ],
      "stateMutability": "view",
      "type": "function"
    },
    {
      "inputs": [],
      "name": "lpTokenWithdrawlPrice",
      "outputs": [
        {
          "internalType": "uint256",
          "name": "",
          "type": "uint256"
        }
      ],
      "stateMutability": "view",
      "type": "function"
    },
    {
      "inputs": [
        {
          "internalType": "bytes32",
          "name": "role",
          "type": "bytes32"
        },
        {
          "internalType": "address",
          "name": "account",
          "type": "address"
        }
      ],
      "name": "renounceRole",
      "outputs": [],
      "stateMutability": "nonpayable",
      "type": "function"
    },
    {
      "inputs": [
        {
          "internalType": "bytes32",
          "name": "role",
          "type": "bytes32"
        },
        {
          "internalType": "address",
          "name": "account",
          "type": "address"
        }
      ],
      "name": "revokeRole",
      "outputs": [],
      "stateMutability": "nonpayable",
      "type": "function"
    },
    {
      "inputs": [
        {
          "internalType": "uint256",
          "name": "bettingAmount",
          "type": "uint256"
        }
      ],
      "name": "setBettingStakes",
      "outputs": [],
      "stateMutability": "nonpayable",
      "type": "function"
    },
    {
      "inputs": [
        {
          "internalType": "bytes",
          "name": "sig_",
          "type": "bytes"
        },
        {
          "components": [
            {
              "internalType": "int256",
              "name": "expectedValue",
              "type": "int256"
            },
            {
              "internalType": "int256",
              "name": "maxExposure",
              "type": "int256"
            },
            {
              "internalType": "uint256",
              "name": "deadline",
              "type": "uint256"
            },
            {
              "internalType": "address",
              "name": "signer",
              "type": "address"
            }
          ],
          "internalType": "struct HousePoolWBTCV2.ValuesOfInterest",
          "name": "voi_",
          "type": "tuple"
        }
      ],
      "name": "setVOI",
      "outputs": [],
      "stateMutability": "nonpayable",
      "type": "function"
    },
    {
      "inputs": [
        {
          "internalType": "bool",
          "name": "outcome",
          "type": "bool"
        },
        {
          "internalType": "uint256",
          "name": "betAmount",
          "type": "uint256"
        }
      ],
      "name": "simulateOutcome",
      "outputs": [],
      "stateMutability": "nonpayable",
      "type": "function"
    },
    {
      "inputs": [
        {
          "internalType": "bytes4",
          "name": "interfaceId",
          "type": "bytes4"
        }
      ],
      "name": "supportsInterface",
      "outputs": [
        {
          "internalType": "bool",
          "name": "",
          "type": "bool"
        }
      ],
      "stateMutability": "view",
      "type": "function"
    },
    {
      "inputs": [],
      "name": "voi",
      "outputs": [
        {
          "internalType": "int256",
          "name": "expectedValue",
          "type": "int256"
        },
        {
          "internalType": "int256",
          "name": "maxExposure",
          "type": "int256"
        },
        {
          "internalType": "uint256",
          "name": "deadline",
          "type": "uint256"
        },
        {
          "internalType": "address",
          "name": "signer",
          "type": "address"
        }
      ],
      "stateMutability": "view",
      "type": "function"
    },
    {
      "inputs": [
        {
          "internalType": "uint256",
          "name": "amountWBTC",
          "type": "uint256"
        },
        {
          "internalType": "bytes",
          "name": "approval",
          "type": "bytes"
        },
        {
          "components": [
            {
              "internalType": "int256",
              "name": "expectedValue",
              "type": "int256"
            },
            {
              "internalType": "int256",
              "name": "maxExposure",
              "type": "int256"
            },
            {
              "internalType": "uint256",
              "name": "deadline",
              "type": "uint256"
            },
            {
              "internalType": "address",
              "name": "signer",
              "type": "address"
            }
          ],
          "internalType": "struct HousePoolWBTCV2.ValuesOfInterest",
          "name": "approvedValues",
          "type": "tuple"
        }
      ],
      "name": "withdraw",
      "outputs": [],
      "stateMutability": "nonpayable",
      "type": "function"
    },
    {
      "inputs": [
        {
          "internalType": "uint256",
          "name": "WBTCMicro",
          "type": "uint256"
        }
      ],
      "name": "withdraw_",
      "outputs": [],
      "stateMutability": "nonpayable",
      "type": "function"
    }
  ],
  "bytecode": "0x608060405234801561001057600080fd5b50614269806100206000396000f3fe608060405234801561001057600080fd5b50600436106101da5760003560e01c8063639c066d11610104578063b3ce2524116100a2578063d547741f11610071578063d547741f14610534578063d75d07c214610550578063e20fcf001461056e578063e678ff251461058c576101da565b8063b3ce2524146104b9578063be1cd712146104d7578063c52cbd34146104f8578063cd08a1df14610516576101da565b806391d14854116100de57806391d148541461041f578063a1cd22321461044f578063a217fddf1461047f578063a43f32411461049d576101da565b8063639c066d146103b75780637e3ef7cd146103d357806383b4358914610403576101da565b80633c0717fd1161017c5780634f6d45a21161014b5780634f6d45a214610341578063508c81a21461035d57806353f528471461037b5780635a5d622314610399576101da565b80633c0717fd146102cb578063409c86ca146102e9578063454175c0146103055780634b94f50e14610323576101da565b8063218f296e116101b8578063218f296e14610247578063248a9ca3146102635780632f2ff15d1461029357806336568abe146102af576101da565b806301ffc9a7146101df5780630f5a5e181461020f57806320ab74491461022b575b600080fd5b6101f960048036038101906101f491906129d9565b6105aa565b6040516102069190612a21565b60405180910390f35b61022960048036038101906102249190612a72565b610624565b005b61024560048036038101906102409190612cf6565b610630565b005b610261600480360381019061025c9190612cf6565b610871565b005b61027d60048036038101906102789190612d9b565b610ab2565b60405161028a9190612dd7565b60405180910390f35b6102ad60048036038101906102a89190612df2565b610ad2565b005b6102c960048036038101906102c49190612df2565b610afb565b005b6102d3610b7e565b6040516102e09190612e41565b60405180910390f35b61030360048036038101906102fe9190612a72565b610b88565b005b61030d610b92565b60405161031a9190612e41565b60405180910390f35b61032b610b98565b6040516103389190612e41565b60405180910390f35b61035b60048036038101906103569190612e88565b610ba2565b005b610365610c90565b6040516103729190612dd7565b60405180910390f35b610383610cb4565b6040516103909190612ed7565b60405180910390f35b6103a1610cbe565b6040516103ae9190612ed7565b60405180910390f35b6103d160048036038101906103cc9190612a72565b610ccb565b005b6103ed60048036038101906103e89190612ef2565b610cd7565b6040516103fa9190612e41565b60405180910390f35b61041d60048036038101906104189190612fc0565b610d20565b005b61043960048036038101906104349190612df2565b610efa565b6040516104469190612a21565b60405180910390f35b61046960048036038101906104649190612ef2565b610f65565b6040516104769190612e41565b60405180910390f35b61048761102f565b6040516104949190612dd7565b60405180910390f35b6104b760048036038101906104b29190613073565b611036565b005b6104c16112a0565b6040516104ce9190612e41565b60405180910390f35b6104df6112aa565b6040516104ef94939291906130de565b60405180910390f35b6105006112e8565b60405161050d9190612e41565b60405180910390f35b61051e6112ee565b60405161052b9190612ed7565b60405180910390f35b61054e60048036038101906105499190612df2565b6112fb565b005b610558611324565b6040516105659190612dd7565b60405180910390f35b610576611348565b6040516105839190612e41565b60405180910390f35b610594611352565b6040516105a19190612e41565b60405180910390f35b60007f7965db0b000000000000000000000000000000000000000000000000000000007bffffffffffffffffffffffffffffffffffffffffffffffffffffffff1916827bffffffffffffffffffffffffffffffffffffffffffffffffffffffff1916148061061d575061061c8261135c565b5b9050919050565b61062d816113c6565b50565b808260006106e07f382f778b38ac8a684a068262bd90ef9739279743851e0bc20a2bf85f56a2550c84606001518560000151866020015160746000896060015173ffffffffffffffffffffffffffffffffffffffff1673ffffffffffffffffffffffffffffffffffffffff1681526020019081526020016000205488604001516040516020016106c596959493929190613123565b604051602081830303815290604052805190602001206117ff565b90506106f183606001518284611819565b610730576040517f08c379a0000000000000000000000000000000000000000000000000000000008152600401610727906131e1565b60405180910390fd5b600073ffffffffffffffffffffffffffffffffffffffff16836060015173ffffffffffffffffffffffffffffffffffffffff1614156107a4576040517f08c379a000000000000000000000000000000000000000000000000000000000815260040161079b9061324d565b60405180910390fd5b6107d27feed754290b7b7033469899aa55827c9480fc90a4843b45b7f455d0ac50d3e6ce8460600151610efa565b610811576040517f08c379a0000000000000000000000000000000000000000000000000000000008152600401610808906132df565b60405180910390fd5b82604001514310610857576040517f08c379a000000000000000000000000000000000000000000000000000000000815260040161084e90613371565b60405180910390fd5b610860846119fe565b610869866113c6565b505050505050565b808260006109217f382f778b38ac8a684a068262bd90ef9739279743851e0bc20a2bf85f56a2550c84606001518560000151866020015160746000896060015173ffffffffffffffffffffffffffffffffffffffff1673ffffffffffffffffffffffffffffffffffffffff16815260200190815260200160002054886040015160405160200161090696959493929190613123565b604051602081830303815290604052805190602001206117ff565b905061093283606001518284611819565b610971576040517f08c379a0000000000000000000000000000000000000000000000000000000008152600401610968906131e1565b60405180910390fd5b600073ffffffffffffffffffffffffffffffffffffffff16836060015173ffffffffffffffffffffffffffffffffffffffff1614156109e5576040517f08c379a00000000000000000000000000000000000000000000000000000000081526004016109dc9061324d565b60405180910390fd5b610a137feed754290b7b7033469899aa55827c9480fc90a4843b45b7f455d0ac50d3e6ce8460600151610efa565b610a52576040517f08c379a0000000000000000000000000000000000000000000000000000000008152600401610a49906132df565b60405180910390fd5b82604001514310610a98576040517f08c379a0000000000000000000000000000000000000000000000000000000008152600401610a8f90613371565b60405180910390fd5b610aa1846119fe565b610aaa86611a3d565b505050505050565b600060336000838152602001908152602001600020600101549050919050565b610adb82610ab2565b610aec81610ae7611dd0565b611dd8565b610af68383611e75565b505050565b610b03611dd0565b73ffffffffffffffffffffffffffffffffffffffff168173ffffffffffffffffffffffffffffffffffffffff1614610b70576040517f08c379a0000000000000000000000000000000000000000000000000000000008152600401610b6790613403565b60405180910390fd5b610b7a8282611f56565b5050565b6000606954905090565b8060688190555050565b60735481565b6000607254905090565b600015158215151415610c0a57606481610bbc9190613481565b606a6000828254610bcd91906134b2565b925050819055506063606482610be39190613481565b610bed9190613508565b60696000828254610bfe91906134b2565b92505081905550610c4b565b6064606854610c199190613481565b606a6000828254610c2a91906134b2565b925050819055508060686000828254610c439190613562565b925050819055505b6000606e600001819055506000606e60010181905550606a54606b6000828254610c759190613596565b92505081905550610c84612038565b610c8c61218f565b5050565b7fce95e3899a3f9149fc26a34674875210907ee3c0dddf61ac603f89e90c1b5f9e81565b6000606b54905090565b6000606e60010154905090565b610cd481611a3d565b50565b6000607560008373ffffffffffffffffffffffffffffffffffffffff1673ffffffffffffffffffffffffffffffffffffffff168152602001908152602001600020549050919050565b600060019054906101000a900460ff16610d485760008054906101000a900460ff1615610d51565b610d506122e6565b5b610d90576040517f08c379a0000000000000000000000000000000000000000000000000000000008152600401610d879061369c565b60405180910390fd5b60008060019054906101000a900460ff161590508015610de0576001600060016101000a81548160ff02191690831515021790555060016000806101000a81548160ff0219169083151502179055505b610dea83836122f7565b84606c60006101000a81548173ffffffffffffffffffffffffffffffffffffffff021916908373ffffffffffffffffffffffffffffffffffffffff16021790555083606d60006101000a81548173ffffffffffffffffffffffffffffffffffffffff021916908373ffffffffffffffffffffffffffffffffffffffff160217905550610e796000801b87612354565b60026012610e879190613562565b600a610e9391906137ef565b6001610e9f9190613508565b60728190555060026012610eb39190613562565b600a610ebf91906137ef565b6001610ecb9190613508565b6073819055508015610ef25760008060016101000a81548160ff0219169083151502179055505b505050505050565b60006033600084815260200190815260200160002060000160008373ffffffffffffffffffffffffffffffffffffffff1673ffffffffffffffffffffffffffffffffffffffff16815260200190815260200160002060009054906101000a900460ff16905092915050565b60006012600a610f7591906137ef565b607254606d60009054906101000a900473ffffffffffffffffffffffffffffffffffffffff1673ffffffffffffffffffffffffffffffffffffffff166370a08231856040518263ffffffff1660e01b8152600401610fd3919061383a565b602060405180830381865afa158015610ff0573d6000803e3d6000fd5b505050506040513d601f19601f82011682018060405250810190611014919061386a565b61101e9190613508565b6110289190613481565b9050919050565b6000801b81565b808260006110e67f382f778b38ac8a684a068262bd90ef9739279743851e0bc20a2bf85f56a2550c84606001518560000151866020015160746000896060015173ffffffffffffffffffffffffffffffffffffffff1673ffffffffffffffffffffffffffffffffffffffff1681526020019081526020016000205488604001516040516020016110cb96959493929190613123565b604051602081830303815290604052805190602001206117ff565b90506110f783606001518284611819565b611136576040517f08c379a000000000000000000000000000000000000000000000000000000000815260040161112d906131e1565b60405180910390fd5b600073ffffffffffffffffffffffffffffffffffffffff16836060015173ffffffffffffffffffffffffffffffffffffffff1614156111aa576040517f08c379a00000000000000000000000000000000000000000000000000000000081526004016111a19061324d565b60405180910390fd5b6111d87feed754290b7b7033469899aa55827c9480fc90a4843b45b7f455d0ac50d3e6ce8460600151610efa565b611217576040517f08c379a000000000000000000000000000000000000000000000000000000000815260040161120e906132df565b60405180910390fd5b8260400151431061125d576040517f08c379a000000000000000000000000000000000000000000000000000000000815260040161125490613371565b60405180910390fd5b7fce95e3899a3f9149fc26a34674875210907ee3c0dddf61ac603f89e90c1b5f9e61128f8161128a611dd0565b611dd8565b611298856119fe565b505050505050565b6000607354905090565b606e8060000154908060010154908060020154908060030160009054906101000a900473ffffffffffffffffffffffffffffffffffffffff16905084565b60725481565b6000606e60000154905090565b61130482610ab2565b61131581611310611dd0565b611dd8565b61131f8383611f56565b505050565b7feed754290b7b7033469899aa55827c9480fc90a4843b45b7f455d0ac50d3e6ce81565b6000606a54905090565b6000606854905090565b60007f01ffc9a7000000000000000000000000000000000000000000000000000000007bffffffffffffffffffffffffffffffffffffffffffffffffffffffff1916827bffffffffffffffffffffffffffffffffffffffffffffffffffffffff1916149050919050565b6002600154141561140c576040517f08c379a0000000000000000000000000000000000000000000000000000000008152600401611403906138e3565b60405180910390fd5b600260018190555060008111611457576040517f08c379a000000000000000000000000000000000000000000000000000000000815260040161144e9061394f565b60405180910390fd5b6073546012600a61146891906137ef565b606d60009054906101000a900473ffffffffffffffffffffffffffffffffffffffff1673ffffffffffffffffffffffffffffffffffffffff166370a08231336040518263ffffffff1660e01b81526004016114c3919061383a565b602060405180830381865afa1580156114e0573d6000803e3d6000fd5b505050506040513d601f19601f82011682018060405250810190611504919061386a565b61150e9190613481565b6115189190613508565b600a8061152591906137ef565b826115309190613508565b111580156115675750606e6001015460695461154c919061396f565b600a8061155991906137ef565b826115649190613a03565b13155b6115a6576040517f08c379a000000000000000000000000000000000000000000000000000000000815260040161159d90613b66565b60405180910390fd5b60006073546012600a6115b991906137ef565b600a806115c691906137ef565b846115d19190613508565b6115db9190613508565b6115e59190613481565b9050600a806115f491906137ef565b826115ff9190613508565b606960008282546116109190613562565b92505081905550600a8061162491906137ef565b8261162f9190613a03565b606b6000828254611640919061396f565b92505081905550600a8061165491906137ef565b8261165f9190613508565b607560003373ffffffffffffffffffffffffffffffffffffffff1673ffffffffffffffffffffffffffffffffffffffff16815260200190815260200160002060008282546116ad9190613562565b92505081905550606c60009054906101000a900473ffffffffffffffffffffffffffffffffffffffff1673ffffffffffffffffffffffffffffffffffffffff1663a9059cbb33846040518363ffffffff1660e01b8152600401611711929190613b86565b6020604051808303816000875af1158015611730573d6000803e3d6000fd5b505050506040513d601f19601f820116820180604052508101906117549190613bc4565b50606d60009054906101000a900473ffffffffffffffffffffffffffffffffffffffff1673ffffffffffffffffffffffffffffffffffffffff16639dc29fac33836040518363ffffffff1660e01b81526004016117b2929190613b86565b600060405180830381600087803b1580156117cc57600080fd5b505af11580156117e0573d6000803e3d6000fd5b505050506117ec61218f565b6117f4612038565b506001808190555050565b600061181261180c612362565b836123a2565b9050919050565b600080600061182885856123d5565b91509150600060048111156118405761183f613bf1565b5b81600481111561185357611852613bf1565b5b14801561188b57508573ffffffffffffffffffffffffffffffffffffffff168273ffffffffffffffffffffffffffffffffffffffff16145b1561189b576001925050506119f7565b6000808773ffffffffffffffffffffffffffffffffffffffff16631626ba7e60e01b88886040516024016118d0929190613ca8565b604051602081830303815290604052907bffffffffffffffffffffffffffffffffffffffffffffffffffffffff19166020820180517bffffffffffffffffffffffffffffffffffffffffffffffffffffffff838183161783525050505060405161193a9190613d14565b600060405180830381855afa9150503d8060008114611975576040519150601f19603f3d011682016040523d82523d6000602084013e61197a565b606091505b509150915081801561198d575060208151145b80156119f05750631626ba7e60e01b7bffffffffffffffffffffffffffffffffffffffffffffffffffffffff1916818060200190518101906119cf9190613d40565b7bffffffffffffffffffffffffffffffffffffffffffffffffffffffff1916145b9450505050505b9392505050565b606e60000154816000015114611a1c57611a1b8160000151612458565b5b606e60010154816020015114611a3a57611a398160200151612476565b5b50565b60026001541415611a83576040517f08c379a0000000000000000000000000000000000000000000000000000000008152600401611a7a906138e3565b60405180910390fd5b6002600181905550600081118015611b365750606c60009054906101000a900473ffffffffffffffffffffffffffffffffffffffff1673ffffffffffffffffffffffffffffffffffffffff166370a08231336040518263ffffffff1660e01b8152600401611af1919061383a565b602060405180830381865afa158015611b0e573d6000803e3d6000fd5b505050506040513d601f19601f82011682018060405250810190611b32919061386a565b8111155b611b75576040517f08c379a0000000000000000000000000000000000000000000000000000000008152600401611b6c90613db9565b60405180910390fd5b600a80611b8291906137ef565b81611b8d9190613508565b60696000828254611b9e91906134b2565b92505081905550600a80611bb291906137ef565b81611bbd9190613508565b606b6000828254611bce9190613596565b92505081905550600a80611be291906137ef565b81611bed9190613508565b607560003373ffffffffffffffffffffffffffffffffffffffff1673ffffffffffffffffffffffffffffffffffffffff1681526020019081526020016000206000828254611c3b91906134b2565b92505081905550606c60009054906101000a900473ffffffffffffffffffffffffffffffffffffffff1673ffffffffffffffffffffffffffffffffffffffff166323b872dd3330846040518463ffffffff1660e01b8152600401611ca193929190613dd9565b6020604051808303816000875af1158015611cc0573d6000803e3d6000fd5b505050506040513d601f19601f82011682018060405250810190611ce49190613bc4565b5060006072546012600a611cf891906137ef565b600a80611d0591906137ef565b84611d109190613508565b611d1a9190613508565b611d249190613481565b9050606d60009054906101000a900473ffffffffffffffffffffffffffffffffffffffff1673ffffffffffffffffffffffffffffffffffffffff166340c10f1933836040518363ffffffff1660e01b8152600401611d83929190613b86565b600060405180830381600087803b158015611d9d57600080fd5b505af1158015611db1573d6000803e3d6000fd5b50505050611dbd612038565b611dc561218f565b506001808190555050565b600033905090565b611de28282610efa565b611e7157611e078173ffffffffffffffffffffffffffffffffffffffff166014612483565b611e158360001c6020612483565b604051602001611e26929190613eef565b6040516020818303038152906040526040517f08c379a0000000000000000000000000000000000000000000000000000000008152600401611e689190613f62565b60405180910390fd5b5050565b611e7f8282610efa565b611f525760016033600084815260200190815260200160002060000160008373ffffffffffffffffffffffffffffffffffffffff1673ffffffffffffffffffffffffffffffffffffffff16815260200190815260200160002060006101000a81548160ff021916908315150217905550611ef7611dd0565b73ffffffffffffffffffffffffffffffffffffffff168173ffffffffffffffffffffffffffffffffffffffff16837f2f8788117e7eff1d82e926ec794901d17c78024a50270940304540a733656f0d60405160405180910390a45b5050565b611f608282610efa565b156120345760006033600084815260200190815260200160002060000160008373ffffffffffffffffffffffffffffffffffffffff1673ffffffffffffffffffffffffffffffffffffffff16815260200190815260200160002060006101000a81548160ff021916908315150217905550611fd9611dd0565b73ffffffffffffffffffffffffffffffffffffffff168173ffffffffffffffffffffffffffffffffffffffff16837ff6391f5c32d9c69d2a47ea670b442974b53935d1edc7fd64eb21e047a839171b60405160405180910390a45b5050565b6000606d60009054906101000a900473ffffffffffffffffffffffffffffffffffffffff1673ffffffffffffffffffffffffffffffffffffffff166318160ddd6040518163ffffffff1660e01b8152600401602060405180830381865afa1580156120a7573d6000803e3d6000fd5b505050506040513d601f19601f820116820180604052508101906120cb919061386a565b1461218d57606d60009054906101000a900473ffffffffffffffffffffffffffffffffffffffff1673ffffffffffffffffffffffffffffffffffffffff166318160ddd6040518163ffffffff1660e01b8152600401602060405180830381865afa15801561213d573d6000803e3d6000fd5b505050506040513d601f19601f82011682018060405250810190612161919061386a565b6012600a61216f91906137ef565b606b5461217c9190613508565b6121869190613481565b6072819055505b565b6000606d60009054906101000a900473ffffffffffffffffffffffffffffffffffffffff1673ffffffffffffffffffffffffffffffffffffffff166318160ddd6040518163ffffffff1660e01b8152600401602060405180830381865afa1580156121fe573d6000803e3d6000fd5b505050506040513d601f19601f82011682018060405250810190612222919061386a565b146122e457606d60009054906101000a900473ffffffffffffffffffffffffffffffffffffffff1673ffffffffffffffffffffffffffffffffffffffff166318160ddd6040518163ffffffff1660e01b8152600401602060405180830381865afa158015612294573d6000803e3d6000fd5b505050506040513d601f19601f820116820180604052508101906122b8919061386a565b6012600a6122c691906137ef565b6069546122d39190613508565b6122dd9190613481565b6073819055505b565b60006122f1306126bf565b15905090565b600060019054906101000a900460ff16612346576040517f08c379a000000000000000000000000000000000000000000000000000000000815260040161233d90613ff6565b60405180910390fd5b61235082826126e2565b5050565b61235e8282611e75565b5050565b600061239d7f8b73c3c69bb8fe3d512ecc4cf759cc79239f7b179b0ffacaa9a75d522b39400f61239061275d565b612398612767565b612771565b905090565b600082826040516020016123b7929190614083565b60405160208183030381529060405280519060200120905092915050565b6000806041835114156124175760008060006020860151925060408601519150606086015160001a905061240b878285856127ab565b94509450505050612451565b60408351141561244857600080602085015191506040850151905061243d8683836128b8565b935093505050612451565b60006002915091505b9250929050565b61246181612906565b80606e60000181905550612473612038565b50565b80606e6001018190555050565b6060600060028360026124969190613508565b6124a091906134b2565b67ffffffffffffffff8111156124b9576124b8612aba565b5b6040519080825280601f01601f1916602001820160405280156124eb5781602001600182028036833780820191505090505b5090507f300000000000000000000000000000000000000000000000000000000000000081600081518110612523576125226140ba565b5b60200101907effffffffffffffffffffffffffffffffffffffffffffffffffffffffffffff1916908160001a9053507f780000000000000000000000000000000000000000000000000000000000000081600181518110612587576125866140ba565b5b60200101907effffffffffffffffffffffffffffffffffffffffffffffffffffffffffffff1916908160001a905350600060018460026125c79190613508565b6125d191906134b2565b90505b6001811115612671577f3031323334353637383961626364656600000000000000000000000000000000600f861660108110612613576126126140ba565b5b1a60f81b82828151811061262a576126296140ba565b5b60200101907effffffffffffffffffffffffffffffffffffffffffffffffffffffffffffff1916908160001a905350600485901c94508061266a906140e9565b90506125d4565b50600084146126b5576040517f08c379a00000000000000000000000000000000000000000000000000000000081526004016126ac9061415f565b60405180910390fd5b8091505092915050565b6000808273ffffffffffffffffffffffffffffffffffffffff163b119050919050565b600060019054906101000a900460ff16612731576040517f08c379a000000000000000000000000000000000000000000000000000000000815260040161272890613ff6565b60405180910390fd5b600082805190602001209050600082805190602001209050816034819055508060358190555050505050565b6000603454905090565b6000603554905090565b6000838383463060405160200161278c95949392919061417f565b6040516020818303038152906040528051906020012090509392505050565b6000807f7fffffffffffffffffffffffffffffff5d576e7357a4501ddfe92f46681b20a08360001c11156127e65760006003915091506128af565b601b8560ff16141580156127fe5750601c8560ff1614155b156128105760006004915091506128af565b60006001878787876040516000815260200160405260405161283594939291906141ee565b6020604051602081039080840390855afa158015612857573d6000803e3d6000fd5b505050602060405103519050600073ffffffffffffffffffffffffffffffffffffffff168173ffffffffffffffffffffffffffffffffffffffff1614156128a6576000600192509250506128af565b80600092509250505b94509492505050565b6000806000807f7fffffffffffffffffffffffffffffffffffffffffffffffffffffffffffffff85169150601b8560ff1c0190506128f8878288856127ab565b935093505050935093915050565b6000606e6000015414156129325780606b60008282546129269190613596565b9250508190555061296a565b606e60000154606b6000828254612949919061396f565b9250508190555080606b60008282546129629190613596565b925050819055505b50565b6000604051905090565b600080fd5b600080fd5b60007fffffffff0000000000000000000000000000000000000000000000000000000082169050919050565b6129b681612981565b81146129c157600080fd5b50565b6000813590506129d3816129ad565b92915050565b6000602082840312156129ef576129ee612977565b5b60006129fd848285016129c4565b91505092915050565b60008115159050919050565b612a1b81612a06565b82525050565b6000602082019050612a366000830184612a12565b92915050565b6000819050919050565b612a4f81612a3c565b8114612a5a57600080fd5b50565b600081359050612a6c81612a46565b92915050565b600060208284031215612a8857612a87612977565b5b6000612a9684828501612a5d565b91505092915050565b600080fd5b600080fd5b6000601f19601f8301169050919050565b7f4e487b7100000000000000000000000000000000000000000000000000000000600052604160045260246000fd5b612af282612aa9565b810181811067ffffffffffffffff82111715612b1157612b10612aba565b5b80604052505050565b6000612b2461296d565b9050612b308282612ae9565b919050565b600067ffffffffffffffff821115612b5057612b4f612aba565b5b612b5982612aa9565b9050602081019050919050565b82818337600083830152505050565b6000612b88612b8384612b35565b612b1a565b905082815260208101848484011115612ba457612ba3612aa4565b5b612baf848285612b66565b509392505050565b600082601f830112612bcc57612bcb612a9f565b5b8135612bdc848260208601612b75565b91505092915050565b600080fd5b6000819050919050565b612bfd81612bea565b8114612c0857600080fd5b50565b600081359050612c1a81612bf4565b92915050565b600073ffffffffffffffffffffffffffffffffffffffff82169050919050565b6000612c4b82612c20565b9050919050565b612c5b81612c40565b8114612c6657600080fd5b50565b600081359050612c7881612c52565b92915050565b600060808284031215612c9457612c93612be5565b5b612c9e6080612b1a565b90506000612cae84828501612c0b565b6000830152506020612cc284828501612c0b565b6020830152506040612cd684828501612a5d565b6040830152506060612cea84828501612c69565b60608301525092915050565b600080600060c08486031215612d0f57612d0e612977565b5b6000612d1d86828701612a5d565b935050602084013567ffffffffffffffff811115612d3e57612d3d61297c565b5b612d4a86828701612bb7565b9250506040612d5b86828701612c7e565b9150509250925092565b6000819050919050565b612d7881612d65565b8114612d8357600080fd5b50565b600081359050612d9581612d6f565b92915050565b600060208284031215612db157612db0612977565b5b6000612dbf84828501612d86565b91505092915050565b612dd181612d65565b82525050565b6000602082019050612dec6000830184612dc8565b92915050565b60008060408385031215612e0957612e08612977565b5b6000612e1785828601612d86565b9250506020612e2885828601612c69565b9150509250929050565b612e3b81612a3c565b82525050565b6000602082019050612e566000830184612e32565b92915050565b612e6581612a06565b8114612e7057600080fd5b50565b600081359050612e8281612e5c565b92915050565b60008060408385031215612e9f57612e9e612977565b5b6000612ead85828601612e73565b9250506020612ebe85828601612a5d565b9150509250929050565b612ed181612bea565b82525050565b6000602082019050612eec6000830184612ec8565b92915050565b600060208284031215612f0857612f07612977565b5b6000612f1684828501612c69565b91505092915050565b600067ffffffffffffffff821115612f3a57612f39612aba565b5b612f4382612aa9565b9050602081019050919050565b6000612f63612f5e84612f1f565b612b1a565b905082815260208101848484011115612f7f57612f7e612aa4565b5b612f8a848285612b66565b509392505050565b600082601f830112612fa757612fa6612a9f565b5b8135612fb7848260208601612f50565b91505092915050565b600080600080600060a08688031215612fdc57612fdb612977565b5b6000612fea88828901612c69565b9550506020612ffb88828901612c69565b945050604061300c88828901612c69565b935050606086013567ffffffffffffffff81111561302d5761302c61297c565b5b61303988828901612f92565b925050608086013567ffffffffffffffff81111561305a5761305961297c565b5b61306688828901612f92565b9150509295509295909350565b60008060a0838503121561308a57613089612977565b5b600083013567ffffffffffffffff8111156130a8576130a761297c565b5b6130b485828601612bb7565b92505060206130c585828601612c7e565b9150509250929050565b6130d881612c40565b82525050565b60006080820190506130f36000830187612ec8565b6131006020830186612ec8565b61310d6040830185612e32565b61311a60608301846130cf565b95945050505050565b600060c0820190506131386000830189612dc8565b61314560208301886130cf565b6131526040830187612ec8565b61315f6060830186612ec8565b61316c6080830185612e32565b61317960a0830184612e32565b979650505050505050565b600082825260208201905092915050565b7f486f757365506f6f6c574254433a20696e76616c6964207369676e6174757265600082015250565b60006131cb602083613184565b91506131d682613195565b602082019050919050565b600060208201905081810360008301526131fa816131be565b9050919050565b7f486f757365506f6f6c574254433a20696e76616c6964207369676e6572000000600082015250565b6000613237601d83613184565b915061324282613201565b602082019050919050565b600060208201905081810360008301526132668161322a565b9050919050565b7f486f757365506f6f6c574254433a20756e617574686f7269736564207369676e60008201527f6572000000000000000000000000000000000000000000000000000000000000602082015250565b60006132c9602283613184565b91506132d48261326d565b604082019050919050565b600060208201905081810360008301526132f8816132bc565b9050919050565b7f486f757365506f6f6c574254433a207369676e6564207472616e73616374696f60008201527f6e20657870697265640000000000000000000000000000000000000000000000602082015250565b600061335b602983613184565b9150613366826132ff565b604082019050919050565b6000602082019050818103600083015261338a8161334e565b9050919050565b7f416363657373436f6e74726f6c3a2063616e206f6e6c792072656e6f756e636560008201527f20726f6c657320666f722073656c660000000000000000000000000000000000602082015250565b60006133ed602f83613184565b91506133f882613391565b604082019050919050565b6000602082019050818103600083015261341c816133e0565b9050919050565b7f4e487b7100000000000000000000000000000000000000000000000000000000600052601260045260246000fd5b7f4e487b7100000000000000000000000000000000000000000000000000000000600052601160045260246000fd5b600061348c82612a3c565b915061349783612a3c565b9250826134a7576134a6613423565b5b828204905092915050565b60006134bd82612a3c565b91506134c883612a3c565b9250827fffffffffffffffffffffffffffffffffffffffffffffffffffffffffffffffff038211156134fd576134fc613452565b5b828201905092915050565b600061351382612a3c565b915061351e83612a3c565b9250817fffffffffffffffffffffffffffffffffffffffffffffffffffffffffffffffff048311821515161561355757613556613452565b5b828202905092915050565b600061356d82612a3c565b915061357883612a3c565b92508282101561358b5761358a613452565b5b828203905092915050565b60006135a182612bea565b91506135ac83612bea565b9250817f7fffffffffffffffffffffffffffffffffffffffffffffffffffffffffffffff038313600083121516156135e7576135e6613452565b5b817f800000000000000000000000000000000000000000000000000000000000000003831260008312161561361f5761361e613452565b5b828201905092915050565b7f496e697469616c697a61626c653a20636f6e747261637420697320616c72656160008201527f647920696e697469616c697a6564000000000000000000000000000000000000602082015250565b6000613686602e83613184565b91506136918261362a565b604082019050919050565b600060208201905081810360008301526136b581613679565b9050919050565b60008160011c9050919050565b6000808291508390505b6001851115613713578086048111156136ef576136ee613452565b5b60018516156136fe5780820291505b808102905061370c856136bc565b94506136d3565b94509492505050565b60008261372c57600190506137e8565b8161373a57600090506137e8565b8160018114613750576002811461375a57613789565b60019150506137e8565b60ff84111561376c5761376b613452565b5b8360020a91508482111561378357613782613452565b5b506137e8565b5060208310610133831016604e8410600b84101617156137be5782820a9050838111156137b9576137b8613452565b5b6137e8565b6137cb84848460016136c9565b925090508184048111156137e2576137e1613452565b5b81810290505b9392505050565b60006137fa82612a3c565b915061380583612a3c565b92506138327fffffffffffffffffffffffffffffffffffffffffffffffffffffffffffffffff848461371c565b905092915050565b600060208201905061384f60008301846130cf565b92915050565b60008151905061386481612a46565b92915050565b6000602082840312156138805761387f612977565b5b600061388e84828501613855565b91505092915050565b7f5265656e7472616e637947756172643a207265656e7472616e742063616c6c00600082015250565b60006138cd601f83613184565b91506138d882613897565b602082019050919050565b600060208201905081810360008301526138fc816138c0565b9050919050565b7f57425443486f757365506f6f6c3a205a65726f20416d6f756e74000000000000600082015250565b6000613939601a83613184565b915061394482613903565b602082019050919050565b600060208201905081810360008301526139688161392c565b9050919050565b600061397a82612bea565b915061398583612bea565b9250827f8000000000000000000000000000000000000000000000000000000000000000018212600084121516156139c0576139bf613452565b5b827f7fffffffffffffffffffffffffffffffffffffffffffffffffffffffffffffff0182136000841216156139f8576139f7613452565b5b828203905092915050565b6000613a0e82612bea565b9150613a1983612bea565b9250827f7fffffffffffffffffffffffffffffffffffffffffffffffffffffffffffffff0482116000841360008413161615613a5857613a57613452565b5b817f80000000000000000000000000000000000000000000000000000000000000000583126000841260008413161615613a9557613a94613452565b5b827f80000000000000000000000000000000000000000000000000000000000000000582126000841360008412161615613ad257613ad1613452565b5b827f7fffffffffffffffffffffffffffffffffffffffffffffffffffffffffffffff0582126000841260008412161615613b0f57613b0e613452565b5b828202905092915050565b7f57425443486f757365506f6f6c203a2063616e27742077697468647261770000600082015250565b6000613b50601e83613184565b9150613b5b82613b1a565b602082019050919050565b60006020820190508181036000830152613b7f81613b43565b9050919050565b6000604082019050613b9b60008301856130cf565b613ba86020830184612e32565b9392505050565b600081519050613bbe81612e5c565b92915050565b600060208284031215613bda57613bd9612977565b5b6000613be884828501613baf565b91505092915050565b7f4e487b7100000000000000000000000000000000000000000000000000000000600052602160045260246000fd5b600081519050919050565b600082825260208201905092915050565b60005b83811015613c5a578082015181840152602081019050613c3f565b83811115613c69576000848401525b50505050565b6000613c7a82613c20565b613c848185613c2b565b9350613c94818560208601613c3c565b613c9d81612aa9565b840191505092915050565b6000604082019050613cbd6000830185612dc8565b8181036020830152613ccf8184613c6f565b90509392505050565b600081905092915050565b6000613cee82613c20565b613cf88185613cd8565b9350613d08818560208601613c3c565b80840191505092915050565b6000613d208284613ce3565b915081905092915050565b600081519050613d3a816129ad565b92915050565b600060208284031215613d5657613d55612977565b5b6000613d6484828501613d2b565b91505092915050565b7f57425443486f757365506f6f6c3a20436865636b207468652042616c616e6365600082015250565b6000613da3602083613184565b9150613dae82613d6d565b602082019050919050565b60006020820190508181036000830152613dd281613d96565b9050919050565b6000606082019050613dee60008301866130cf565b613dfb60208301856130cf565b613e086040830184612e32565b949350505050565b600081905092915050565b7f416363657373436f6e74726f6c3a206163636f756e7420000000000000000000600082015250565b6000613e51601783613e10565b9150613e5c82613e1b565b601782019050919050565b600081519050919050565b6000613e7d82613e67565b613e878185613e10565b9350613e97818560208601613c3c565b80840191505092915050565b7f206973206d697373696e6720726f6c6520000000000000000000000000000000600082015250565b6000613ed9601183613e10565b9150613ee482613ea3565b601182019050919050565b6000613efa82613e44565b9150613f068285613e72565b9150613f1182613ecc565b9150613f1d8284613e72565b91508190509392505050565b6000613f3482613e67565b613f3e8185613184565b9350613f4e818560208601613c3c565b613f5781612aa9565b840191505092915050565b60006020820190508181036000830152613f7c8184613f29565b905092915050565b7f496e697469616c697a61626c653a20636f6e7472616374206973206e6f74206960008201527f6e697469616c697a696e67000000000000000000000000000000000000000000602082015250565b6000613fe0602b83613184565b9150613feb82613f84565b604082019050919050565b6000602082019050818103600083015261400f81613fd3565b9050919050565b7f1901000000000000000000000000000000000000000000000000000000000000600082015250565b600061404c600283613e10565b915061405782614016565b600282019050919050565b6000819050919050565b61407d61407882612d65565b614062565b82525050565b600061408e8261403f565b915061409a828561406c565b6020820191506140aa828461406c565b6020820191508190509392505050565b7f4e487b7100000000000000000000000000000000000000000000000000000000600052603260045260246000fd5b60006140f482612a3c565b9150600082141561410857614107613452565b5b600182039050919050565b7f537472696e67733a20686578206c656e67746820696e73756666696369656e74600082015250565b6000614149602083613184565b915061415482614113565b602082019050919050565b600060208201905081810360008301526141788161413c565b9050919050565b600060a0820190506141946000830188612dc8565b6141a16020830187612dc8565b6141ae6040830186612dc8565b6141bb6060830185612e32565b6141c860808301846130cf565b9695505050505050565b600060ff82169050919050565b6141e8816141d2565b82525050565b60006080820190506142036000830187612dc8565b61421060208301866141df565b61421d6040830185612dc8565b61422a6060830184612dc8565b9594505050505056fea2646970667358221220eef66372126e98e91f96a273d32cb2f309163fa68fbd328f2b54d0a5a5198e7664736f6c634300080a0033",
  "linkReferences": {},
  "deployedLinkReferences": {}
}