{
  "_format": "hh-sol-artifact-1",
  "contractName": "HousePoolWBTCV2",
  "sourceName": "contracts/HousePoolWBTCV2.sol",
  "abi": [
    {
      "anonymous": false,
      "inputs": [
        {
          "indexed": true,
          "internalType": "bytes32",
          "name": "role",
          "type": "bytes32"
        },
        {
          "indexed": true,
          "internalType": "bytes32",
          "name": "previousAdminRole",
          "type": "bytes32"
        },
        {
          "indexed": true,
          "internalType": "bytes32",
          "name": "newAdminRole",
          "type": "bytes32"
        }
      ],
      "name": "RoleAdminChanged",
      "type": "event"
    },
    {
      "anonymous": false,
      "inputs": [
        {
          "indexed": true,
          "internalType": "bytes32",
          "name": "role",
          "type": "bytes32"
        },
        {
          "indexed": true,
          "internalType": "address",
          "name": "account",
          "type": "address"
        },
        {
          "indexed": true,
          "internalType": "address",
          "name": "sender",
          "type": "address"
        }
      ],
      "name": "RoleGranted",
      "type": "event"
    },
    {
      "anonymous": false,
      "inputs": [
        {
          "indexed": true,
          "internalType": "bytes32",
          "name": "role",
          "type": "bytes32"
        },
        {
          "indexed": true,
          "internalType": "address",
          "name": "account",
          "type": "address"
        },
        {
          "indexed": true,
          "internalType": "address",
          "name": "sender",
          "type": "address"
        }
      ],
      "name": "RoleRevoked",
      "type": "event"
    },
    {
      "inputs": [],
      "name": "DATA_PROVIDER_ORACLE",
      "outputs": [
        {
          "internalType": "bytes32",
          "name": "",
          "type": "bytes32"
        }
      ],
      "stateMutability": "view",
      "type": "function"
    },
    {
      "inputs": [],
      "name": "DEFAULT_ADMIN_ROLE",
      "outputs": [
        {
          "internalType": "bytes32",
          "name": "",
          "type": "bytes32"
        }
      ],
      "stateMutability": "view",
      "type": "function"
    },
    {
      "inputs": [],
      "name": "HOUSE_POOL_DATA_PROVIDER",
      "outputs": [
        {
          "internalType": "bytes32",
          "name": "",
          "type": "bytes32"
        }
      ],
      "stateMutability": "view",
      "type": "function"
    },
    {
      "inputs": [
        {
          "internalType": "uint256",
          "name": "amountWBTC",
          "type": "uint256"
        },
        {
          "internalType": "bytes",
          "name": "approval",
          "type": "bytes"
        },
        {
          "components": [
            {
              "internalType": "int256",
              "name": "expectedValue",
              "type": "int256"
            },
            {
              "internalType": "int256",
              "name": "maxExposure",
              "type": "int256"
            },
            {
              "internalType": "uint256",
              "name": "deadline",
              "type": "uint256"
            },
            {
              "internalType": "address",
              "name": "signer",
              "type": "address"
            }
          ],
          "internalType": "struct HousePoolWBTCV2.ValuesOfInterest",
          "name": "approvedValues",
          "type": "tuple"
        }
      ],
      "name": "deposit",
      "outputs": [],
      "stateMutability": "nonpayable",
      "type": "function"
    },
    {
      "inputs": [
        {
          "internalType": "uint256",
          "name": "WBTCMicro",
          "type": "uint256"
        }
      ],
      "name": "deposit_",
      "outputs": [],
      "stateMutability": "nonpayable",
      "type": "function"
    },
    {
      "inputs": [],
      "name": "getEV",
      "outputs": [
        {
          "internalType": "int256",
          "name": "",
          "type": "int256"
        }
      ],
      "stateMutability": "view",
      "type": "function"
    },
    {
      "inputs": [],
      "name": "getLiquidityStatus",
      "outputs": [
        {
          "internalType": "uint256",
          "name": "",
          "type": "uint256"
        }
      ],
      "stateMutability": "view",
      "type": "function"
    },
    {
      "inputs": [],
      "name": "getMaxExposure",
      "outputs": [
        {
          "internalType": "int256",
          "name": "",
          "type": "int256"
        }
      ],
      "stateMutability": "view",
      "type": "function"
    },
    {
      "inputs": [
        {
          "internalType": "address",
          "name": "_user",
          "type": "address"
        }
      ],
      "name": "getMyLiquidity",
      "outputs": [
        {
          "internalType": "uint256",
          "name": "",
          "type": "uint256"
        }
      ],
      "stateMutability": "view",
      "type": "function"
    },
    {
      "inputs": [
        {
          "internalType": "bytes32",
          "name": "role",
          "type": "bytes32"
        }
      ],
      "name": "getRoleAdmin",
      "outputs": [
        {
          "internalType": "bytes32",
          "name": "",
          "type": "bytes32"
        }
      ],
      "stateMutability": "view",
      "type": "function"
    },
    {
      "inputs": [],
      "name": "getTVLofPool",
      "outputs": [
        {
          "internalType": "int256",
          "name": "",
          "type": "int256"
        }
      ],
      "stateMutability": "view",
      "type": "function"
    },
    {
      "inputs": [],
      "name": "getTokenPrice",
      "outputs": [
        {
          "internalType": "uint256",
          "name": "",
          "type": "uint256"
        }
      ],
      "stateMutability": "view",
      "type": "function"
    },
    {
      "inputs": [],
      "name": "getTokenWithdrawlPrice",
      "outputs": [
        {
          "internalType": "uint256",
          "name": "",
          "type": "uint256"
        }
      ],
      "stateMutability": "view",
      "type": "function"
    },
    {
      "inputs": [],
      "name": "getTreasuryAmount",
      "outputs": [
        {
          "internalType": "uint256",
          "name": "",
          "type": "uint256"
        }
      ],
      "stateMutability": "view",
      "type": "function"
    },
    {
      "inputs": [
        {
          "internalType": "bytes32",
          "name": "role",
          "type": "bytes32"
        },
        {
          "internalType": "address",
          "name": "account",
          "type": "address"
        }
      ],
      "name": "grantRole",
      "outputs": [],
      "stateMutability": "nonpayable",
      "type": "function"
    },
    {
      "inputs": [
        {
          "internalType": "bytes32",
          "name": "role",
          "type": "bytes32"
        },
        {
          "internalType": "address",
          "name": "account",
          "type": "address"
        }
      ],
      "name": "hasRole",
      "outputs": [
        {
          "internalType": "bool",
          "name": "",
          "type": "bool"
        }
      ],
      "stateMutability": "view",
      "type": "function"
    },
    {
      "inputs": [
        {
          "internalType": "address",
          "name": "_owner",
          "type": "address"
        },
        {
          "internalType": "address",
          "name": "_WBTC",
          "type": "address"
        },
        {
          "internalType": "address",
          "name": "_claimToken",
          "type": "address"
        },
        {
          "internalType": "string",
          "name": "_name",
          "type": "string"
        },
        {
          "internalType": "string",
          "name": "_version",
          "type": "string"
        }
      ],
      "name": "initialize",
      "outputs": [],
      "stateMutability": "nonpayable",
      "type": "function"
    },
    {
      "inputs": [],
      "name": "lpTokenPrice",
      "outputs": [
        {
          "internalType": "uint256",
          "name": "",
          "type": "uint256"
        }
      ],
      "stateMutability": "view",
      "type": "function"
    },
    {
      "inputs": [],
      "name": "lpTokenWithdrawlPrice",
      "outputs": [
        {
          "internalType": "uint256",
          "name": "",
          "type": "uint256"
        }
      ],
      "stateMutability": "view",
      "type": "function"
    },
    {
      "inputs": [
        {
          "internalType": "bytes32",
          "name": "role",
          "type": "bytes32"
        },
        {
          "internalType": "address",
          "name": "account",
          "type": "address"
        }
      ],
      "name": "renounceRole",
      "outputs": [],
      "stateMutability": "nonpayable",
      "type": "function"
    },
    {
      "inputs": [
        {
          "internalType": "bytes32",
          "name": "role",
          "type": "bytes32"
        },
        {
          "internalType": "address",
          "name": "account",
          "type": "address"
        }
      ],
      "name": "revokeRole",
      "outputs": [],
      "stateMutability": "nonpayable",
      "type": "function"
    },
    {
      "inputs": [
        {
          "internalType": "bytes",
          "name": "sig_",
          "type": "bytes"
        },
        {
          "components": [
            {
              "internalType": "int256",
              "name": "expectedValue",
              "type": "int256"
            },
            {
              "internalType": "int256",
              "name": "maxExposure",
              "type": "int256"
            },
            {
              "internalType": "uint256",
              "name": "deadline",
              "type": "uint256"
            },
            {
              "internalType": "address",
              "name": "signer",
              "type": "address"
            }
          ],
          "internalType": "struct HousePoolWBTCV2.ValuesOfInterest",
          "name": "voi_",
          "type": "tuple"
        }
      ],
      "name": "setVOI",
      "outputs": [],
      "stateMutability": "nonpayable",
      "type": "function"
    },
    {
      "inputs": [
        {
          "internalType": "bytes4",
          "name": "interfaceId",
          "type": "bytes4"
        }
      ],
      "name": "supportsInterface",
      "outputs": [
        {
          "internalType": "bool",
          "name": "",
          "type": "bool"
        }
      ],
      "stateMutability": "view",
      "type": "function"
    },
    {
      "inputs": [],
      "name": "voi",
      "outputs": [
        {
          "internalType": "int256",
          "name": "expectedValue",
          "type": "int256"
        },
        {
          "internalType": "int256",
          "name": "maxExposure",
          "type": "int256"
        },
        {
          "internalType": "uint256",
          "name": "deadline",
          "type": "uint256"
        },
        {
          "internalType": "address",
          "name": "signer",
          "type": "address"
        }
      ],
      "stateMutability": "view",
      "type": "function"
    },
    {
      "inputs": [
        {
          "internalType": "uint256",
          "name": "amountWBTC",
          "type": "uint256"
        },
        {
          "internalType": "bytes",
          "name": "approval",
          "type": "bytes"
        },
        {
          "components": [
            {
              "internalType": "int256",
              "name": "expectedValue",
              "type": "int256"
            },
            {
              "internalType": "int256",
              "name": "maxExposure",
              "type": "int256"
            },
            {
              "internalType": "uint256",
              "name": "deadline",
              "type": "uint256"
            },
            {
              "internalType": "address",
              "name": "signer",
              "type": "address"
            }
          ],
          "internalType": "struct HousePoolWBTCV2.ValuesOfInterest",
          "name": "approvedValues",
          "type": "tuple"
        }
      ],
      "name": "withdraw",
      "outputs": [],
      "stateMutability": "nonpayable",
      "type": "function"
    },
    {
      "inputs": [
        {
          "internalType": "uint256",
          "name": "WBTCMicro",
          "type": "uint256"
        }
      ],
      "name": "withdraw_",
      "outputs": [],
      "stateMutability": "nonpayable",
      "type": "function"
    }
  ],
  "bytecode": "0x608060405234801561001057600080fd5b50613ff7806100206000396000f3fe608060405234801561001057600080fd5b506004361061018e5760003560e01c8063639c066d116100de578063b3ce252411610097578063cd08a1df11610071578063cd08a1df14610462578063d547741f14610480578063d75d07c21461049c578063e20fcf00146104ba5761018e565b8063b3ce252414610405578063be1cd71214610423578063c52cbd34146104445761018e565b8063639c066d1461033357806383b435891461034f57806391d148541461036b578063a1cd22321461039b578063a217fddf146103cb578063a43f3241146103e95761018e565b806336568abe1161014b5780634b94f50e116101255780634b94f50e146102bb578063508c81a2146102d957806353f52847146102f75780635a5d6223146103155761018e565b806336568abe146102635780633c0717fd1461027f578063454175c01461029d5761018e565b806301ffc9a7146101935780630f5a5e18146101c357806320ab7449146101df578063218f296e146101fb578063248a9ca3146102175780632f2ff15d14610247575b600080fd5b6101ad60048036038101906101a891906127bc565b6104d8565b6040516101ba9190612804565b60405180910390f35b6101dd60048036038101906101d89190612855565b610552565b005b6101f960048036038101906101f49190612ad9565b61055e565b005b61021560048036038101906102109190612ad9565b61079f565b005b610231600480360381019061022c9190612b7e565b6109e0565b60405161023e9190612bba565b60405180910390f35b610261600480360381019061025c9190612bd5565b610a00565b005b61027d60048036038101906102789190612bd5565b610a29565b005b610287610aac565b6040516102949190612c24565b60405180910390f35b6102a5610ab6565b6040516102b29190612c24565b60405180910390f35b6102c3610abc565b6040516102d09190612c24565b60405180910390f35b6102e1610ac6565b6040516102ee9190612bba565b60405180910390f35b6102ff610aea565b60405161030c9190612c4e565b60405180910390f35b61031d610af4565b60405161032a9190612c4e565b60405180910390f35b61034d60048036038101906103489190612855565b610b01565b005b61036960048036038101906103649190612d0a565b610b0d565b005b61038560048036038101906103809190612bd5565b610ce7565b6040516103929190612804565b60405180910390f35b6103b560048036038101906103b09190612dbd565b610d52565b6040516103c29190612c24565b60405180910390f35b6103d3610e1c565b6040516103e09190612bba565b60405180910390f35b61040360048036038101906103fe9190612dea565b610e23565b005b61040d61108d565b60405161041a9190612c24565b60405180910390f35b61042b611097565b60405161043b9493929190612e55565b60405180910390f35b61044c6110d5565b6040516104599190612c24565b60405180910390f35b61046a6110db565b6040516104779190612c4e565b60405180910390f35b61049a60048036038101906104959190612bd5565b6110e8565b005b6104a4611111565b6040516104b19190612bba565b60405180910390f35b6104c2611135565b6040516104cf9190612c24565b60405180910390f35b60007f7965db0b000000000000000000000000000000000000000000000000000000007bffffffffffffffffffffffffffffffffffffffffffffffffffffffff1916827bffffffffffffffffffffffffffffffffffffffffffffffffffffffff1916148061054b575061054a8261113f565b5b9050919050565b61055b816111a9565b50565b8082600061060e7f382f778b38ac8a684a068262bd90ef9739279743851e0bc20a2bf85f56a2550c84606001518560000151866020015160746000896060015173ffffffffffffffffffffffffffffffffffffffff1673ffffffffffffffffffffffffffffffffffffffff1681526020019081526020016000205488604001516040516020016105f396959493929190612e9a565b604051602081830303815290604052805190602001206115e2565b905061061f836060015182846115fc565b61065e576040517f08c379a000000000000000000000000000000000000000000000000000000000815260040161065590612f58565b60405180910390fd5b600073ffffffffffffffffffffffffffffffffffffffff16836060015173ffffffffffffffffffffffffffffffffffffffff1614156106d2576040517f08c379a00000000000000000000000000000000000000000000000000000000081526004016106c990612fc4565b60405180910390fd5b6107007feed754290b7b7033469899aa55827c9480fc90a4843b45b7f455d0ac50d3e6ce8460600151610ce7565b61073f576040517f08c379a000000000000000000000000000000000000000000000000000000000815260040161073690613056565b60405180910390fd5b82604001514310610785576040517f08c379a000000000000000000000000000000000000000000000000000000000815260040161077c906130e8565b60405180910390fd5b61078e846117e1565b610797866111a9565b505050505050565b8082600061084f7f382f778b38ac8a684a068262bd90ef9739279743851e0bc20a2bf85f56a2550c84606001518560000151866020015160746000896060015173ffffffffffffffffffffffffffffffffffffffff1673ffffffffffffffffffffffffffffffffffffffff16815260200190815260200160002054886040015160405160200161083496959493929190612e9a565b604051602081830303815290604052805190602001206115e2565b9050610860836060015182846115fc565b61089f576040517f08c379a000000000000000000000000000000000000000000000000000000000815260040161089690612f58565b60405180910390fd5b600073ffffffffffffffffffffffffffffffffffffffff16836060015173ffffffffffffffffffffffffffffffffffffffff161415610913576040517f08c379a000000000000000000000000000000000000000000000000000000000815260040161090a90612fc4565b60405180910390fd5b6109417feed754290b7b7033469899aa55827c9480fc90a4843b45b7f455d0ac50d3e6ce8460600151610ce7565b610980576040517f08c379a000000000000000000000000000000000000000000000000000000000815260040161097790613056565b60405180910390fd5b826040015143106109c6576040517f08c379a00000000000000000000000000000000000000000000000000000000081526004016109bd906130e8565b60405180910390fd5b6109cf846117e1565b6109d886611820565b505050505050565b600060336000838152602001908152602001600020600101549050919050565b610a09826109e0565b610a1a81610a15611bb3565b611bbb565b610a248383611c58565b505050565b610a31611bb3565b73ffffffffffffffffffffffffffffffffffffffff168173ffffffffffffffffffffffffffffffffffffffff1614610a9e576040517f08c379a0000000000000000000000000000000000000000000000000000000008152600401610a959061317a565b60405180910390fd5b610aa88282611d39565b5050565b6000606954905090565b60735481565b6000607254905090565b7fce95e3899a3f9149fc26a34674875210907ee3c0dddf61ac603f89e90c1b5f9e81565b6000606b54905090565b6000606e60010154905090565b610b0a81611820565b50565b600060019054906101000a900460ff16610b355760008054906101000a900460ff1615610b3e565b610b3d611e1b565b5b610b7d576040517f08c379a0000000000000000000000000000000000000000000000000000000008152600401610b749061320c565b60405180910390fd5b60008060019054906101000a900460ff161590508015610bcd576001600060016101000a81548160ff02191690831515021790555060016000806101000a81548160ff0219169083151502179055505b610bd78383611e2c565b84606c60006101000a81548173ffffffffffffffffffffffffffffffffffffffff021916908373ffffffffffffffffffffffffffffffffffffffff16021790555083606d60006101000a81548173ffffffffffffffffffffffffffffffffffffffff021916908373ffffffffffffffffffffffffffffffffffffffff160217905550610c666000801b87611e89565b60026012610c74919061325b565b600a610c8091906133c2565b6001610c8c919061340d565b60728190555060026012610ca0919061325b565b600a610cac91906133c2565b6001610cb8919061340d565b6073819055508015610cdf5760008060016101000a81548160ff0219169083151502179055505b505050505050565b60006033600084815260200190815260200160002060000160008373ffffffffffffffffffffffffffffffffffffffff1673ffffffffffffffffffffffffffffffffffffffff16815260200190815260200160002060009054906101000a900460ff16905092915050565b60006012600a610d6291906133c2565b607254606d60009054906101000a900473ffffffffffffffffffffffffffffffffffffffff1673ffffffffffffffffffffffffffffffffffffffff166370a08231856040518263ffffffff1660e01b8152600401610dc09190613467565b602060405180830381865afa158015610ddd573d6000803e3d6000fd5b505050506040513d601f19601f82011682018060405250810190610e019190613497565b610e0b919061340d565b610e1591906134f3565b9050919050565b6000801b81565b80826000610ed37f382f778b38ac8a684a068262bd90ef9739279743851e0bc20a2bf85f56a2550c84606001518560000151866020015160746000896060015173ffffffffffffffffffffffffffffffffffffffff1673ffffffffffffffffffffffffffffffffffffffff168152602001908152602001600020548860400151604051602001610eb896959493929190612e9a565b604051602081830303815290604052805190602001206115e2565b9050610ee4836060015182846115fc565b610f23576040517f08c379a0000000000000000000000000000000000000000000000000000000008152600401610f1a90612f58565b60405180910390fd5b600073ffffffffffffffffffffffffffffffffffffffff16836060015173ffffffffffffffffffffffffffffffffffffffff161415610f97576040517f08c379a0000000000000000000000000000000000000000000000000000000008152600401610f8e90612fc4565b60405180910390fd5b610fc57feed754290b7b7033469899aa55827c9480fc90a4843b45b7f455d0ac50d3e6ce8460600151610ce7565b611004576040517f08c379a0000000000000000000000000000000000000000000000000000000008152600401610ffb90613056565b60405180910390fd5b8260400151431061104a576040517f08c379a0000000000000000000000000000000000000000000000000000000008152600401611041906130e8565b60405180910390fd5b7fce95e3899a3f9149fc26a34674875210907ee3c0dddf61ac603f89e90c1b5f9e61107c81611077611bb3565b611bbb565b611085856117e1565b505050505050565b6000607354905090565b606e8060000154908060010154908060020154908060030160009054906101000a900473ffffffffffffffffffffffffffffffffffffffff16905084565b60725481565b6000606e60000154905090565b6110f1826109e0565b611102816110fd611bb3565b611bbb565b61110c8383611d39565b505050565b7feed754290b7b7033469899aa55827c9480fc90a4843b45b7f455d0ac50d3e6ce81565b6000606a54905090565b60007f01ffc9a7000000000000000000000000000000000000000000000000000000007bffffffffffffffffffffffffffffffffffffffffffffffffffffffff1916827bffffffffffffffffffffffffffffffffffffffffffffffffffffffff1916149050919050565b600260015414156111ef576040517f08c379a00000000000000000000000000000000000000000000000000000000081526004016111e690613570565b60405180910390fd5b60026001819055506000811161123a576040517f08c379a0000000000000000000000000000000000000000000000000000000008152600401611231906135dc565b60405180910390fd5b6073546012600a61124b91906133c2565b606d60009054906101000a900473ffffffffffffffffffffffffffffffffffffffff1673ffffffffffffffffffffffffffffffffffffffff166370a08231336040518263ffffffff1660e01b81526004016112a69190613467565b602060405180830381865afa1580156112c3573d6000803e3d6000fd5b505050506040513d601f19601f820116820180604052508101906112e79190613497565b6112f191906134f3565b6112fb919061340d565b600a8061130891906133c2565b82611313919061340d565b1115801561134a5750606e6001015460695461132f91906135fc565b600a8061133c91906133c2565b826113479190613690565b13155b611389576040517f08c379a0000000000000000000000000000000000000000000000000000000008152600401611380906137f3565b60405180910390fd5b60006073546012600a61139c91906133c2565b600a806113a991906133c2565b846113b4919061340d565b6113be919061340d565b6113c891906134f3565b9050600a806113d791906133c2565b826113e2919061340d565b606960008282546113f3919061325b565b92505081905550600a8061140791906133c2565b826114129190613690565b606b600082825461142391906135fc565b92505081905550600a8061143791906133c2565b82611442919061340d565b607560003373ffffffffffffffffffffffffffffffffffffffff1673ffffffffffffffffffffffffffffffffffffffff1681526020019081526020016000206000828254611490919061325b565b92505081905550606c60009054906101000a900473ffffffffffffffffffffffffffffffffffffffff1673ffffffffffffffffffffffffffffffffffffffff1663a9059cbb33846040518363ffffffff1660e01b81526004016114f4929190613813565b6020604051808303816000875af1158015611513573d6000803e3d6000fd5b505050506040513d601f19601f820116820180604052508101906115379190613868565b50606d60009054906101000a900473ffffffffffffffffffffffffffffffffffffffff1673ffffffffffffffffffffffffffffffffffffffff16639dc29fac33836040518363ffffffff1660e01b8152600401611595929190613813565b600060405180830381600087803b1580156115af57600080fd5b505af11580156115c3573d6000803e3d6000fd5b505050506115cf611e97565b6115d7611fee565b506001808190555050565b60006115f56115ef612145565b83612185565b9050919050565b600080600061160b85856121b8565b915091506000600481111561162357611622613895565b5b81600481111561163657611635613895565b5b14801561166e57508573ffffffffffffffffffffffffffffffffffffffff168273ffffffffffffffffffffffffffffffffffffffff16145b1561167e576001925050506117da565b6000808773ffffffffffffffffffffffffffffffffffffffff16631626ba7e60e01b88886040516024016116b392919061394c565b604051602081830303815290604052907bffffffffffffffffffffffffffffffffffffffffffffffffffffffff19166020820180517bffffffffffffffffffffffffffffffffffffffffffffffffffffffff838183161783525050505060405161171d91906139b8565b600060405180830381855afa9150503d8060008114611758576040519150601f19603f3d011682016040523d82523d6000602084013e61175d565b606091505b5091509150818015611770575060208151145b80156117d35750631626ba7e60e01b7bffffffffffffffffffffffffffffffffffffffffffffffffffffffff1916818060200190518101906117b291906139e4565b7bffffffffffffffffffffffffffffffffffffffffffffffffffffffff1916145b9450505050505b9392505050565b606e600001548160000151146117ff576117fe816000015161223b565b5b606e6001015481602001511461181d5761181c8160200151612259565b5b50565b60026001541415611866576040517f08c379a000000000000000000000000000000000000000000000000000000000815260040161185d90613570565b60405180910390fd5b60026001819055506000811180156119195750606c60009054906101000a900473ffffffffffffffffffffffffffffffffffffffff1673ffffffffffffffffffffffffffffffffffffffff166370a08231336040518263ffffffff1660e01b81526004016118d49190613467565b602060405180830381865afa1580156118f1573d6000803e3d6000fd5b505050506040513d601f19601f820116820180604052508101906119159190613497565b8111155b611958576040517f08c379a000000000000000000000000000000000000000000000000000000000815260040161194f90613a5d565b60405180910390fd5b600a8061196591906133c2565b81611970919061340d565b606960008282546119819190613a7d565b92505081905550600a8061199591906133c2565b816119a0919061340d565b606b60008282546119b19190613ad3565b92505081905550600a806119c591906133c2565b816119d0919061340d565b607560003373ffffffffffffffffffffffffffffffffffffffff1673ffffffffffffffffffffffffffffffffffffffff1681526020019081526020016000206000828254611a1e9190613a7d565b92505081905550606c60009054906101000a900473ffffffffffffffffffffffffffffffffffffffff1673ffffffffffffffffffffffffffffffffffffffff166323b872dd3330846040518463ffffffff1660e01b8152600401611a8493929190613b67565b6020604051808303816000875af1158015611aa3573d6000803e3d6000fd5b505050506040513d601f19601f82011682018060405250810190611ac79190613868565b5060006072546012600a611adb91906133c2565b600a80611ae891906133c2565b84611af3919061340d565b611afd919061340d565b611b0791906134f3565b9050606d60009054906101000a900473ffffffffffffffffffffffffffffffffffffffff1673ffffffffffffffffffffffffffffffffffffffff166340c10f1933836040518363ffffffff1660e01b8152600401611b66929190613813565b600060405180830381600087803b158015611b8057600080fd5b505af1158015611b94573d6000803e3d6000fd5b50505050611ba0611fee565b611ba8611e97565b506001808190555050565b600033905090565b611bc58282610ce7565b611c5457611bea8173ffffffffffffffffffffffffffffffffffffffff166014612266565b611bf88360001c6020612266565b604051602001611c09929190613c7d565b6040516020818303038152906040526040517f08c379a0000000000000000000000000000000000000000000000000000000008152600401611c4b9190613cf0565b60405180910390fd5b5050565b611c628282610ce7565b611d355760016033600084815260200190815260200160002060000160008373ffffffffffffffffffffffffffffffffffffffff1673ffffffffffffffffffffffffffffffffffffffff16815260200190815260200160002060006101000a81548160ff021916908315150217905550611cda611bb3565b73ffffffffffffffffffffffffffffffffffffffff168173ffffffffffffffffffffffffffffffffffffffff16837f2f8788117e7eff1d82e926ec794901d17c78024a50270940304540a733656f0d60405160405180910390a45b5050565b611d438282610ce7565b15611e175760006033600084815260200190815260200160002060000160008373ffffffffffffffffffffffffffffffffffffffff1673ffffffffffffffffffffffffffffffffffffffff16815260200190815260200160002060006101000a81548160ff021916908315150217905550611dbc611bb3565b73ffffffffffffffffffffffffffffffffffffffff168173ffffffffffffffffffffffffffffffffffffffff16837ff6391f5c32d9c69d2a47ea670b442974b53935d1edc7fd64eb21e047a839171b60405160405180910390a45b5050565b6000611e26306124a2565b15905090565b600060019054906101000a900460ff16611e7b576040517f08c379a0000000000000000000000000000000000000000000000000000000008152600401611e7290613d84565b60405180910390fd5b611e8582826124c5565b5050565b611e938282611c58565b5050565b6000606d60009054906101000a900473ffffffffffffffffffffffffffffffffffffffff1673ffffffffffffffffffffffffffffffffffffffff166318160ddd6040518163ffffffff1660e01b8152600401602060405180830381865afa158015611f06573d6000803e3d6000fd5b505050506040513d601f19601f82011682018060405250810190611f2a9190613497565b14611fec57606d60009054906101000a900473ffffffffffffffffffffffffffffffffffffffff1673ffffffffffffffffffffffffffffffffffffffff166318160ddd6040518163ffffffff1660e01b8152600401602060405180830381865afa158015611f9c573d6000803e3d6000fd5b505050506040513d601f19601f82011682018060405250810190611fc09190613497565b6012600a611fce91906133c2565b606954611fdb919061340d565b611fe591906134f3565b6073819055505b565b6000606d60009054906101000a900473ffffffffffffffffffffffffffffffffffffffff1673ffffffffffffffffffffffffffffffffffffffff166318160ddd6040518163ffffffff1660e01b8152600401602060405180830381865afa15801561205d573d6000803e3d6000fd5b505050506040513d601f19601f820116820180604052508101906120819190613497565b1461214357606d60009054906101000a900473ffffffffffffffffffffffffffffffffffffffff1673ffffffffffffffffffffffffffffffffffffffff166318160ddd6040518163ffffffff1660e01b8152600401602060405180830381865afa1580156120f3573d6000803e3d6000fd5b505050506040513d601f19601f820116820180604052508101906121179190613497565b6012600a61212591906133c2565b606b54612132919061340d565b61213c91906134f3565b6072819055505b565b60006121807f8b73c3c69bb8fe3d512ecc4cf759cc79239f7b179b0ffacaa9a75d522b39400f612173612540565b61217b61254a565b612554565b905090565b6000828260405160200161219a929190613e11565b60405160208183030381529060405280519060200120905092915050565b6000806041835114156121fa5760008060006020860151925060408601519150606086015160001a90506121ee8782858561258e565b94509450505050612234565b60408351141561222b57600080602085015191506040850151905061222086838361269b565b935093505050612234565b60006002915091505b9250929050565b612244816126e9565b80606e60000181905550612256611fee565b50565b80606e6001018190555050565b606060006002836002612279919061340d565b6122839190613a7d565b67ffffffffffffffff81111561229c5761229b61289d565b5b6040519080825280601f01601f1916602001820160405280156122ce5781602001600182028036833780820191505090505b5090507f30000000000000000000000000000000000000000000000000000000000000008160008151811061230657612305613e48565b5b60200101907effffffffffffffffffffffffffffffffffffffffffffffffffffffffffffff1916908160001a9053507f78000000000000000000000000000000000000000000000000000000000000008160018151811061236a57612369613e48565b5b60200101907effffffffffffffffffffffffffffffffffffffffffffffffffffffffffffff1916908160001a905350600060018460026123aa919061340d565b6123b49190613a7d565b90505b6001811115612454577f3031323334353637383961626364656600000000000000000000000000000000600f8616601081106123f6576123f5613e48565b5b1a60f81b82828151811061240d5761240c613e48565b5b60200101907effffffffffffffffffffffffffffffffffffffffffffffffffffffffffffff1916908160001a905350600485901c94508061244d90613e77565b90506123b7565b5060008414612498576040517f08c379a000000000000000000000000000000000000000000000000000000000815260040161248f90613eed565b60405180910390fd5b8091505092915050565b6000808273ffffffffffffffffffffffffffffffffffffffff163b119050919050565b600060019054906101000a900460ff16612514576040517f08c379a000000000000000000000000000000000000000000000000000000000815260040161250b90613d84565b60405180910390fd5b600082805190602001209050600082805190602001209050816034819055508060358190555050505050565b6000603454905090565b6000603554905090565b6000838383463060405160200161256f959493929190613f0d565b6040516020818303038152906040528051906020012090509392505050565b6000807f7fffffffffffffffffffffffffffffff5d576e7357a4501ddfe92f46681b20a08360001c11156125c9576000600391509150612692565b601b8560ff16141580156125e15750601c8560ff1614155b156125f3576000600491509150612692565b6000600187878787604051600081526020016040526040516126189493929190613f7c565b6020604051602081039080840390855afa15801561263a573d6000803e3d6000fd5b505050602060405103519050600073ffffffffffffffffffffffffffffffffffffffff168173ffffffffffffffffffffffffffffffffffffffff16141561268957600060019250925050612692565b80600092509250505b94509492505050565b6000806000807f7fffffffffffffffffffffffffffffffffffffffffffffffffffffffffffffff85169150601b8560ff1c0190506126db8782888561258e565b935093505050935093915050565b6000606e6000015414156127155780606b60008282546127099190613ad3565b9250508190555061274d565b606e60000154606b600082825461272c91906135fc565b9250508190555080606b60008282546127459190613ad3565b925050819055505b50565b6000604051905090565b600080fd5b600080fd5b60007fffffffff0000000000000000000000000000000000000000000000000000000082169050919050565b61279981612764565b81146127a457600080fd5b50565b6000813590506127b681612790565b92915050565b6000602082840312156127d2576127d161275a565b5b60006127e0848285016127a7565b91505092915050565b60008115159050919050565b6127fe816127e9565b82525050565b600060208201905061281960008301846127f5565b92915050565b6000819050919050565b6128328161281f565b811461283d57600080fd5b50565b60008135905061284f81612829565b92915050565b60006020828403121561286b5761286a61275a565b5b600061287984828501612840565b91505092915050565b600080fd5b600080fd5b6000601f19601f8301169050919050565b7f4e487b7100000000000000000000000000000000000000000000000000000000600052604160045260246000fd5b6128d58261288c565b810181811067ffffffffffffffff821117156128f4576128f361289d565b5b80604052505050565b6000612907612750565b905061291382826128cc565b919050565b600067ffffffffffffffff8211156129335761293261289d565b5b61293c8261288c565b9050602081019050919050565b82818337600083830152505050565b600061296b61296684612918565b6128fd565b90508281526020810184848401111561298757612986612887565b5b612992848285612949565b509392505050565b600082601f8301126129af576129ae612882565b5b81356129bf848260208601612958565b91505092915050565b600080fd5b6000819050919050565b6129e0816129cd565b81146129eb57600080fd5b50565b6000813590506129fd816129d7565b92915050565b600073ffffffffffffffffffffffffffffffffffffffff82169050919050565b6000612a2e82612a03565b9050919050565b612a3e81612a23565b8114612a4957600080fd5b50565b600081359050612a5b81612a35565b92915050565b600060808284031215612a7757612a766129c8565b5b612a8160806128fd565b90506000612a91848285016129ee565b6000830152506020612aa5848285016129ee565b6020830152506040612ab984828501612840565b6040830152506060612acd84828501612a4c565b60608301525092915050565b600080600060c08486031215612af257612af161275a565b5b6000612b0086828701612840565b935050602084013567ffffffffffffffff811115612b2157612b2061275f565b5b612b2d8682870161299a565b9250506040612b3e86828701612a61565b9150509250925092565b6000819050919050565b612b5b81612b48565b8114612b6657600080fd5b50565b600081359050612b7881612b52565b92915050565b600060208284031215612b9457612b9361275a565b5b6000612ba284828501612b69565b91505092915050565b612bb481612b48565b82525050565b6000602082019050612bcf6000830184612bab565b92915050565b60008060408385031215612bec57612beb61275a565b5b6000612bfa85828601612b69565b9250506020612c0b85828601612a4c565b9150509250929050565b612c1e8161281f565b82525050565b6000602082019050612c396000830184612c15565b92915050565b612c48816129cd565b82525050565b6000602082019050612c636000830184612c3f565b92915050565b600067ffffffffffffffff821115612c8457612c8361289d565b5b612c8d8261288c565b9050602081019050919050565b6000612cad612ca884612c69565b6128fd565b905082815260208101848484011115612cc957612cc8612887565b5b612cd4848285612949565b509392505050565b600082601f830112612cf157612cf0612882565b5b8135612d01848260208601612c9a565b91505092915050565b600080600080600060a08688031215612d2657612d2561275a565b5b6000612d3488828901612a4c565b9550506020612d4588828901612a4c565b9450506040612d5688828901612a4c565b935050606086013567ffffffffffffffff811115612d7757612d7661275f565b5b612d8388828901612cdc565b925050608086013567ffffffffffffffff811115612da457612da361275f565b5b612db088828901612cdc565b9150509295509295909350565b600060208284031215612dd357612dd261275a565b5b6000612de184828501612a4c565b91505092915050565b60008060a08385031215612e0157612e0061275a565b5b600083013567ffffffffffffffff811115612e1f57612e1e61275f565b5b612e2b8582860161299a565b9250506020612e3c85828601612a61565b9150509250929050565b612e4f81612a23565b82525050565b6000608082019050612e6a6000830187612c3f565b612e776020830186612c3f565b612e846040830185612c15565b612e916060830184612e46565b95945050505050565b600060c082019050612eaf6000830189612bab565b612ebc6020830188612e46565b612ec96040830187612c3f565b612ed66060830186612c3f565b612ee36080830185612c15565b612ef060a0830184612c15565b979650505050505050565b600082825260208201905092915050565b7f486f757365506f6f6c574254433a20696e76616c6964207369676e6174757265600082015250565b6000612f42602083612efb565b9150612f4d82612f0c565b602082019050919050565b60006020820190508181036000830152612f7181612f35565b9050919050565b7f486f757365506f6f6c574254433a20696e76616c6964207369676e6572000000600082015250565b6000612fae601d83612efb565b9150612fb982612f78565b602082019050919050565b60006020820190508181036000830152612fdd81612fa1565b9050919050565b7f486f757365506f6f6c574254433a20756e617574686f7269736564207369676e60008201527f6572000000000000000000000000000000000000000000000000000000000000602082015250565b6000613040602283612efb565b915061304b82612fe4565b604082019050919050565b6000602082019050818103600083015261306f81613033565b9050919050565b7f486f757365506f6f6c574254433a207369676e6564207472616e73616374696f60008201527f6e20657870697265640000000000000000000000000000000000000000000000602082015250565b60006130d2602983612efb565b91506130dd82613076565b604082019050919050565b60006020820190508181036000830152613101816130c5565b9050919050565b7f416363657373436f6e74726f6c3a2063616e206f6e6c792072656e6f756e636560008201527f20726f6c657320666f722073656c660000000000000000000000000000000000602082015250565b6000613164602f83612efb565b915061316f82613108565b604082019050919050565b6000602082019050818103600083015261319381613157565b9050919050565b7f496e697469616c697a61626c653a20636f6e747261637420697320616c72656160008201527f647920696e697469616c697a6564000000000000000000000000000000000000602082015250565b60006131f6602e83612efb565b91506132018261319a565b604082019050919050565b60006020820190508181036000830152613225816131e9565b9050919050565b7f4e487b7100000000000000000000000000000000000000000000000000000000600052601160045260246000fd5b60006132668261281f565b91506132718361281f565b9250828210156132845761328361322c565b5b828203905092915050565b60008160011c9050919050565b6000808291508390505b60018511156132e6578086048111156132c2576132c161322c565b5b60018516156132d15780820291505b80810290506132df8561328f565b94506132a6565b94509492505050565b6000826132ff57600190506133bb565b8161330d57600090506133bb565b8160018114613323576002811461332d5761335c565b60019150506133bb565b60ff84111561333f5761333e61322c565b5b8360020a9150848211156133565761335561322c565b5b506133bb565b5060208310610133831016604e8410600b84101617156133915782820a90508381111561338c5761338b61322c565b5b6133bb565b61339e848484600161329c565b925090508184048111156133b5576133b461322c565b5b81810290505b9392505050565b60006133cd8261281f565b91506133d88361281f565b92506134057fffffffffffffffffffffffffffffffffffffffffffffffffffffffffffffffff84846132ef565b905092915050565b60006134188261281f565b91506134238361281f565b9250817fffffffffffffffffffffffffffffffffffffffffffffffffffffffffffffffff048311821515161561345c5761345b61322c565b5b828202905092915050565b600060208201905061347c6000830184612e46565b92915050565b60008151905061349181612829565b92915050565b6000602082840312156134ad576134ac61275a565b5b60006134bb84828501613482565b91505092915050565b7f4e487b7100000000000000000000000000000000000000000000000000000000600052601260045260246000fd5b60006134fe8261281f565b91506135098361281f565b925082613519576135186134c4565b5b828204905092915050565b7f5265656e7472616e637947756172643a207265656e7472616e742063616c6c00600082015250565b600061355a601f83612efb565b915061356582613524565b602082019050919050565b600060208201905081810360008301526135898161354d565b9050919050565b7f57425443486f757365506f6f6c3a205a65726f20416d6f756e74000000000000600082015250565b60006135c6601a83612efb565b91506135d182613590565b602082019050919050565b600060208201905081810360008301526135f5816135b9565b9050919050565b6000613607826129cd565b9150613612836129cd565b9250827f80000000000000000000000000000000000000000000000000000000000000000182126000841215161561364d5761364c61322c565b5b827f7fffffffffffffffffffffffffffffffffffffffffffffffffffffffffffffff0182136000841216156136855761368461322c565b5b828203905092915050565b600061369b826129cd565b91506136a6836129cd565b9250827f7fffffffffffffffffffffffffffffffffffffffffffffffffffffffffffffff04821160008413600084131616156136e5576136e461322c565b5b817f800000000000000000000000000000000000000000000000000000000000000005831260008412600084131616156137225761372161322c565b5b827f8000000000000000000000000000000000000000000000000000000000000000058212600084136000841216161561375f5761375e61322c565b5b827f7fffffffffffffffffffffffffffffffffffffffffffffffffffffffffffffff058212600084126000841216161561379c5761379b61322c565b5b828202905092915050565b7f57425443486f757365506f6f6c203a2063616e27742077697468647261770000600082015250565b60006137dd601e83612efb565b91506137e8826137a7565b602082019050919050565b6000602082019050818103600083015261380c816137d0565b9050919050565b60006040820190506138286000830185612e46565b6138356020830184612c15565b9392505050565b613845816127e9565b811461385057600080fd5b50565b6000815190506138628161383c565b92915050565b60006020828403121561387e5761387d61275a565b5b600061388c84828501613853565b91505092915050565b7f4e487b7100000000000000000000000000000000000000000000000000000000600052602160045260246000fd5b600081519050919050565b600082825260208201905092915050565b60005b838110156138fe5780820151818401526020810190506138e3565b8381111561390d576000848401525b50505050565b600061391e826138c4565b61392881856138cf565b93506139388185602086016138e0565b6139418161288c565b840191505092915050565b60006040820190506139616000830185612bab565b81810360208301526139738184613913565b90509392505050565b600081905092915050565b6000613992826138c4565b61399c818561397c565b93506139ac8185602086016138e0565b80840191505092915050565b60006139c48284613987565b915081905092915050565b6000815190506139de81612790565b92915050565b6000602082840312156139fa576139f961275a565b5b6000613a08848285016139cf565b91505092915050565b7f57425443486f757365506f6f6c3a20436865636b207468652042616c616e6365600082015250565b6000613a47602083612efb565b9150613a5282613a11565b602082019050919050565b60006020820190508181036000830152613a7681613a3a565b9050919050565b6000613a888261281f565b9150613a938361281f565b9250827fffffffffffffffffffffffffffffffffffffffffffffffffffffffffffffffff03821115613ac857613ac761322c565b5b828201905092915050565b6000613ade826129cd565b9150613ae9836129cd565b9250817f7fffffffffffffffffffffffffffffffffffffffffffffffffffffffffffffff03831360008312151615613b2457613b2361322c565b5b817f8000000000000000000000000000000000000000000000000000000000000000038312600083121615613b5c57613b5b61322c565b5b828201905092915050565b6000606082019050613b7c6000830186612e46565b613b896020830185612e46565b613b966040830184612c15565b949350505050565b600081905092915050565b7f416363657373436f6e74726f6c3a206163636f756e7420000000000000000000600082015250565b6000613bdf601783613b9e565b9150613bea82613ba9565b601782019050919050565b600081519050919050565b6000613c0b82613bf5565b613c158185613b9e565b9350613c258185602086016138e0565b80840191505092915050565b7f206973206d697373696e6720726f6c6520000000000000000000000000000000600082015250565b6000613c67601183613b9e565b9150613c7282613c31565b601182019050919050565b6000613c8882613bd2565b9150613c948285613c00565b9150613c9f82613c5a565b9150613cab8284613c00565b91508190509392505050565b6000613cc282613bf5565b613ccc8185612efb565b9350613cdc8185602086016138e0565b613ce58161288c565b840191505092915050565b60006020820190508181036000830152613d0a8184613cb7565b905092915050565b7f496e697469616c697a61626c653a20636f6e7472616374206973206e6f74206960008201527f6e697469616c697a696e67000000000000000000000000000000000000000000602082015250565b6000613d6e602b83612efb565b9150613d7982613d12565b604082019050919050565b60006020820190508181036000830152613d9d81613d61565b9050919050565b7f1901000000000000000000000000000000000000000000000000000000000000600082015250565b6000613dda600283613b9e565b9150613de582613da4565b600282019050919050565b6000819050919050565b613e0b613e0682612b48565b613df0565b82525050565b6000613e1c82613dcd565b9150613e288285613dfa565b602082019150613e388284613dfa565b6020820191508190509392505050565b7f4e487b7100000000000000000000000000000000000000000000000000000000600052603260045260246000fd5b6000613e828261281f565b91506000821415613e9657613e9561322c565b5b600182039050919050565b7f537472696e67733a20686578206c656e67746820696e73756666696369656e74600082015250565b6000613ed7602083612efb565b9150613ee282613ea1565b602082019050919050565b60006020820190508181036000830152613f0681613eca565b9050919050565b600060a082019050613f226000830188612bab565b613f2f6020830187612bab565b613f3c6040830186612bab565b613f496060830185612c15565b613f566080830184612e46565b9695505050505050565b600060ff82169050919050565b613f7681613f60565b82525050565b6000608082019050613f916000830187612bab565b613f9e6020830186613f6d565b613fab6040830185612bab565b613fb86060830184612bab565b9594505050505056fea2646970667358221220383b476b13be0107c157e3bd09515f54442ce59b5478efff01bc420171ac4fad64736f6c634300080a0033",
  "linkReferences": {},
  "deployedLinkReferences": {}
}