{
  "_format": "hh-sol-artifact-1",
  "contractName": "LFIToken",
  "sourceName": "contracts/LFIToken.sol",
  "abi": [
    {
      "inputs": [
        {
          "internalType": "uint256",
          "name": "supply",
          "type": "uint256"
        }
      ],
      "stateMutability": "nonpayable",
      "type": "constructor"
    },
    {
      "anonymous": false,
      "inputs": [
        {
          "indexed": false,
          "internalType": "address",
          "name": "user",
          "type": "address"
        }
      ],
      "name": "AddedBlackList",
      "type": "event"
    },
    {
      "anonymous": false,
      "inputs": [
        {
          "indexed": true,
          "internalType": "address",
          "name": "owner",
          "type": "address"
        },
        {
          "indexed": true,
          "internalType": "address",
          "name": "spender",
          "type": "address"
        },
        {
          "indexed": false,
          "internalType": "uint256",
          "name": "value",
          "type": "uint256"
        }
      ],
      "name": "Approval",
      "type": "event"
    },
    {
      "anonymous": false,
      "inputs": [
        {
          "indexed": false,
          "internalType": "address",
          "name": "blackListedUser",
          "type": "address"
        },
        {
          "indexed": false,
          "internalType": "uint256",
          "name": "balance",
          "type": "uint256"
        }
      ],
      "name": "DestroyedBlackFunds",
      "type": "event"
    },
    {
      "anonymous": false,
      "inputs": [
        {
          "indexed": true,
          "internalType": "address",
          "name": "previousOwner",
          "type": "address"
        },
        {
          "indexed": true,
          "internalType": "address",
          "name": "newOwner",
          "type": "address"
        }
      ],
      "name": "OwnershipTransferred",
      "type": "event"
    },
    {
      "anonymous": false,
      "inputs": [
        {
          "indexed": false,
          "internalType": "address",
          "name": "account",
          "type": "address"
        }
      ],
      "name": "Paused",
      "type": "event"
    },
    {
      "anonymous": false,
      "inputs": [
        {
          "indexed": false,
          "internalType": "address",
          "name": "user",
          "type": "address"
        }
      ],
      "name": "RemovedBlackList",
      "type": "event"
    },
    {
      "anonymous": false,
      "inputs": [
        {
          "indexed": true,
          "internalType": "bytes32",
          "name": "role",
          "type": "bytes32"
        },
        {
          "indexed": true,
          "internalType": "bytes32",
          "name": "previousAdminRole",
          "type": "bytes32"
        },
        {
          "indexed": true,
          "internalType": "bytes32",
          "name": "newAdminRole",
          "type": "bytes32"
        }
      ],
      "name": "RoleAdminChanged",
      "type": "event"
    },
    {
      "anonymous": false,
      "inputs": [
        {
          "indexed": true,
          "internalType": "bytes32",
          "name": "role",
          "type": "bytes32"
        },
        {
          "indexed": true,
          "internalType": "address",
          "name": "account",
          "type": "address"
        },
        {
          "indexed": true,
          "internalType": "address",
          "name": "sender",
          "type": "address"
        }
      ],
      "name": "RoleGranted",
      "type": "event"
    },
    {
      "anonymous": false,
      "inputs": [
        {
          "indexed": true,
          "internalType": "bytes32",
          "name": "role",
          "type": "bytes32"
        },
        {
          "indexed": true,
          "internalType": "address",
          "name": "account",
          "type": "address"
        },
        {
          "indexed": true,
          "internalType": "address",
          "name": "sender",
          "type": "address"
        }
      ],
      "name": "RoleRevoked",
      "type": "event"
    },
    {
      "anonymous": false,
      "inputs": [
        {
          "indexed": true,
          "internalType": "address",
          "name": "from",
          "type": "address"
        },
        {
          "indexed": true,
          "internalType": "address",
          "name": "to",
          "type": "address"
        },
        {
          "indexed": false,
          "internalType": "uint256",
          "name": "value",
          "type": "uint256"
        }
      ],
      "name": "Transfer",
      "type": "event"
    },
    {
      "anonymous": false,
      "inputs": [
        {
          "indexed": false,
          "internalType": "address",
          "name": "account",
          "type": "address"
        }
      ],
      "name": "Unpaused",
      "type": "event"
    },
    {
      "inputs": [],
      "name": "BURNER_ROLE",
      "outputs": [
        {
          "internalType": "bytes32",
          "name": "",
          "type": "bytes32"
        }
      ],
      "stateMutability": "view",
      "type": "function"
    },
    {
      "inputs": [],
      "name": "DEFAULT_ADMIN_ROLE",
      "outputs": [
        {
          "internalType": "bytes32",
          "name": "",
          "type": "bytes32"
        }
      ],
      "stateMutability": "view",
      "type": "function"
    },
    {
      "inputs": [],
      "name": "DOMAIN_SEPARATOR",
      "outputs": [
        {
          "internalType": "bytes32",
          "name": "",
          "type": "bytes32"
        }
      ],
      "stateMutability": "view",
      "type": "function"
    },
    {
      "inputs": [],
      "name": "MINTER_ROLE",
      "outputs": [
        {
          "internalType": "bytes32",
          "name": "",
          "type": "bytes32"
        }
      ],
      "stateMutability": "view",
      "type": "function"
    },
    {
      "inputs": [],
      "name": "PAUSER_ROLE",
      "outputs": [
        {
          "internalType": "bytes32",
          "name": "",
          "type": "bytes32"
        }
      ],
      "stateMutability": "view",
      "type": "function"
    },
    {
      "inputs": [
        {
          "internalType": "address",
          "name": "evilUser",
          "type": "address"
        }
      ],
      "name": "addBlackList",
      "outputs": [],
      "stateMutability": "nonpayable",
      "type": "function"
    },
    {
      "inputs": [
        {
          "internalType": "address",
          "name": "owner",
          "type": "address"
        },
        {
          "internalType": "address",
          "name": "spender",
          "type": "address"
        }
      ],
      "name": "allowance",
      "outputs": [
        {
          "internalType": "uint256",
          "name": "",
          "type": "uint256"
        }
      ],
      "stateMutability": "view",
      "type": "function"
    },
    {
      "inputs": [
        {
          "internalType": "address",
          "name": "spender",
          "type": "address"
        },
        {
          "internalType": "uint256",
          "name": "amount",
          "type": "uint256"
        }
      ],
      "name": "approve",
      "outputs": [
        {
          "internalType": "bool",
          "name": "",
          "type": "bool"
        }
      ],
      "stateMutability": "nonpayable",
      "type": "function"
    },
    {
      "inputs": [
        {
          "internalType": "address",
          "name": "account",
          "type": "address"
        }
      ],
      "name": "balanceOf",
      "outputs": [
        {
          "internalType": "uint256",
          "name": "",
          "type": "uint256"
        }
      ],
      "stateMutability": "view",
      "type": "function"
    },
    {
      "inputs": [
        {
          "internalType": "uint256",
          "name": "amount",
          "type": "uint256"
        }
      ],
      "name": "burn",
      "outputs": [],
      "stateMutability": "nonpayable",
      "type": "function"
    },
    {
      "inputs": [
        {
          "internalType": "address",
          "name": "account",
          "type": "address"
        },
        {
          "internalType": "uint256",
          "name": "amount",
          "type": "uint256"
        }
      ],
      "name": "burnFrom",
      "outputs": [],
      "stateMutability": "nonpayable",
      "type": "function"
    },
    {
      "inputs": [
        {
          "internalType": "address",
          "name": "account",
          "type": "address"
        },
        {
          "internalType": "uint256",
          "name": "amount",
          "type": "uint256"
        }
      ],
      "name": "burnToken",
      "outputs": [],
      "stateMutability": "nonpayable",
      "type": "function"
    },
    {
      "inputs": [],
      "name": "decimals",
      "outputs": [
        {
          "internalType": "uint8",
          "name": "",
          "type": "uint8"
        }
      ],
      "stateMutability": "pure",
      "type": "function"
    },
    {
      "inputs": [
        {
          "internalType": "address",
          "name": "spender",
          "type": "address"
        },
        {
          "internalType": "uint256",
          "name": "subtractedValue",
          "type": "uint256"
        }
      ],
      "name": "decreaseAllowance",
      "outputs": [
        {
          "internalType": "bool",
          "name": "",
          "type": "bool"
        }
      ],
      "stateMutability": "nonpayable",
      "type": "function"
    },
    {
      "inputs": [
        {
          "internalType": "address",
          "name": "blackListedUser",
          "type": "address"
        }
      ],
      "name": "destroyBlackFunds",
      "outputs": [],
      "stateMutability": "nonpayable",
      "type": "function"
    },
    {
      "inputs": [
        {
          "internalType": "address",
          "name": "maker",
          "type": "address"
        }
      ],
      "name": "getBlackListStatus",
      "outputs": [
        {
          "internalType": "bool",
          "name": "",
          "type": "bool"
        }
      ],
      "stateMutability": "view",
      "type": "function"
    },
    {
      "inputs": [],
      "name": "getOwner",
      "outputs": [
        {
          "internalType": "address",
          "name": "",
          "type": "address"
        }
      ],
      "stateMutability": "view",
      "type": "function"
    },
    {
      "inputs": [
        {
          "internalType": "bytes32",
          "name": "role",
          "type": "bytes32"
        }
      ],
      "name": "getRoleAdmin",
      "outputs": [
        {
          "internalType": "bytes32",
          "name": "",
          "type": "bytes32"
        }
      ],
      "stateMutability": "view",
      "type": "function"
    },
    {
      "inputs": [
        {
          "internalType": "bytes32",
          "name": "role",
          "type": "bytes32"
        },
        {
          "internalType": "address",
          "name": "account",
          "type": "address"
        }
      ],
      "name": "grantRole",
      "outputs": [],
      "stateMutability": "nonpayable",
      "type": "function"
    },
    {
      "inputs": [
        {
          "internalType": "bytes32",
          "name": "role",
          "type": "bytes32"
        },
        {
          "internalType": "address",
          "name": "account",
          "type": "address"
        }
      ],
      "name": "hasRole",
      "outputs": [
        {
          "internalType": "bool",
          "name": "",
          "type": "bool"
        }
      ],
      "stateMutability": "view",
      "type": "function"
    },
    {
      "inputs": [
        {
          "internalType": "address",
          "name": "spender",
          "type": "address"
        },
        {
          "internalType": "uint256",
          "name": "addedValue",
          "type": "uint256"
        }
      ],
      "name": "increaseAllowance",
      "outputs": [
        {
          "internalType": "bool",
          "name": "",
          "type": "bool"
        }
      ],
      "stateMutability": "nonpayable",
      "type": "function"
    },
    {
      "inputs": [
        {
          "internalType": "address",
          "name": "",
          "type": "address"
        }
      ],
      "name": "isBlackListed",
      "outputs": [
        {
          "internalType": "bool",
          "name": "",
          "type": "bool"
        }
      ],
      "stateMutability": "view",
      "type": "function"
    },
    {
      "inputs": [],
      "name": "maxSupply",
      "outputs": [
        {
          "internalType": "uint256",
          "name": "",
          "type": "uint256"
        }
      ],
      "stateMutability": "view",
      "type": "function"
    },
    {
      "inputs": [
        {
          "internalType": "address",
          "name": "to",
          "type": "address"
        },
        {
          "internalType": "uint256",
          "name": "amount",
          "type": "uint256"
        }
      ],
      "name": "mint",
      "outputs": [],
      "stateMutability": "nonpayable",
      "type": "function"
    },
    {
      "inputs": [],
      "name": "name",
      "outputs": [
        {
          "internalType": "string",
          "name": "",
          "type": "string"
        }
      ],
      "stateMutability": "view",
      "type": "function"
    },
    {
      "inputs": [
        {
          "internalType": "address",
          "name": "owner",
          "type": "address"
        }
      ],
      "name": "nonces",
      "outputs": [
        {
          "internalType": "uint256",
          "name": "",
          "type": "uint256"
        }
      ],
      "stateMutability": "view",
      "type": "function"
    },
    {
      "inputs": [],
      "name": "owner",
      "outputs": [
        {
          "internalType": "address",
          "name": "",
          "type": "address"
        }
      ],
      "stateMutability": "view",
      "type": "function"
    },
    {
      "inputs": [],
      "name": "pause",
      "outputs": [
        {
          "internalType": "bool",
          "name": "",
          "type": "bool"
        }
      ],
      "stateMutability": "nonpayable",
      "type": "function"
    },
    {
      "inputs": [],
      "name": "paused",
      "outputs": [
        {
          "internalType": "bool",
          "name": "",
          "type": "bool"
        }
      ],
      "stateMutability": "view",
      "type": "function"
    },
    {
      "inputs": [
        {
          "internalType": "address",
          "name": "owner",
          "type": "address"
        },
        {
          "internalType": "address",
          "name": "spender",
          "type": "address"
        },
        {
          "internalType": "uint256",
          "name": "value",
          "type": "uint256"
        },
        {
          "internalType": "uint256",
          "name": "deadline",
          "type": "uint256"
        },
        {
          "internalType": "uint8",
          "name": "v",
          "type": "uint8"
        },
        {
          "internalType": "bytes32",
          "name": "r",
          "type": "bytes32"
        },
        {
          "internalType": "bytes32",
          "name": "s",
          "type": "bytes32"
        }
      ],
      "name": "permit",
      "outputs": [],
      "stateMutability": "nonpayable",
      "type": "function"
    },
    {
      "inputs": [
        {
          "internalType": "address",
          "name": "clearedUser",
          "type": "address"
        }
      ],
      "name": "removeBlackList",
      "outputs": [],
      "stateMutability": "nonpayable",
      "type": "function"
    },
    {
      "inputs": [],
      "name": "renounceOwnership",
      "outputs": [],
      "stateMutability": "nonpayable",
      "type": "function"
    },
    {
      "inputs": [
        {
          "internalType": "bytes32",
          "name": "role",
          "type": "bytes32"
        },
        {
          "internalType": "address",
          "name": "account",
          "type": "address"
        }
      ],
      "name": "renounceRole",
      "outputs": [],
      "stateMutability": "nonpayable",
      "type": "function"
    },
    {
      "inputs": [
        {
          "internalType": "string",
          "name": "role",
          "type": "string"
        },
        {
          "internalType": "address",
          "name": "revoke",
          "type": "address"
        }
      ],
      "name": "revokeRole",
      "outputs": [],
      "stateMutability": "nonpayable",
      "type": "function"
    },
    {
      "inputs": [
        {
          "internalType": "bytes32",
          "name": "role",
          "type": "bytes32"
        },
        {
          "internalType": "address",
          "name": "account",
          "type": "address"
        }
      ],
      "name": "revokeRole",
      "outputs": [],
      "stateMutability": "nonpayable",
      "type": "function"
    },
    {
      "inputs": [
        {
          "internalType": "string",
          "name": "role",
          "type": "string"
        },
        {
          "internalType": "address",
          "name": "add",
          "type": "address"
        }
      ],
      "name": "setRole",
      "outputs": [],
      "stateMutability": "nonpayable",
      "type": "function"
    },
    {
      "inputs": [
        {
          "internalType": "bytes4",
          "name": "interfaceId",
          "type": "bytes4"
        }
      ],
      "name": "supportsInterface",
      "outputs": [
        {
          "internalType": "bool",
          "name": "",
          "type": "bool"
        }
      ],
      "stateMutability": "view",
      "type": "function"
    },
    {
      "inputs": [],
      "name": "symbol",
      "outputs": [
        {
          "internalType": "string",
          "name": "",
          "type": "string"
        }
      ],
      "stateMutability": "view",
      "type": "function"
    },
    {
      "inputs": [],
      "name": "totalSupply",
      "outputs": [
        {
          "internalType": "uint256",
          "name": "",
          "type": "uint256"
        }
      ],
      "stateMutability": "view",
      "type": "function"
    },
    {
      "inputs": [
        {
          "internalType": "address",
          "name": "recipient",
          "type": "address"
        },
        {
          "internalType": "uint256",
          "name": "amount",
          "type": "uint256"
        }
      ],
      "name": "transfer",
      "outputs": [
        {
          "internalType": "bool",
          "name": "",
          "type": "bool"
        }
      ],
      "stateMutability": "nonpayable",
      "type": "function"
    },
    {
      "inputs": [
        {
          "internalType": "address",
          "name": "sender",
          "type": "address"
        },
        {
          "internalType": "address",
          "name": "recipient",
          "type": "address"
        },
        {
          "internalType": "uint256",
          "name": "amount",
          "type": "uint256"
        }
      ],
      "name": "transferFrom",
      "outputs": [
        {
          "internalType": "bool",
          "name": "",
          "type": "bool"
        }
      ],
      "stateMutability": "nonpayable",
      "type": "function"
    },
    {
      "inputs": [
        {
          "internalType": "address",
          "name": "newOwner",
          "type": "address"
        }
      ],
      "name": "transferOwnership",
      "outputs": [],
      "stateMutability": "nonpayable",
      "type": "function"
    },
    {
      "inputs": [],
      "name": "unpause",
      "outputs": [
        {
          "internalType": "bool",
          "name": "",
          "type": "bool"
        }
      ],
      "stateMutability": "nonpayable",
      "type": "function"
    }
  ],
  "bytecode": "0x6101606040527f6e71edae12b1b97f4d1f60370fef10105fa2faae0126114a169c64845d6126c9610140523480156200003757600080fd5b5060405162002b5b38038062002b5b8339810160408190526200005a9162000574565b60405180604001604052806008815260200167262324aa37b5b2b760c11b81525080604051806040016040528060018152602001603160f81b81525060405180604001604052806008815260200167262324aa37b5b2b760c11b815250604051806040016040528060038152602001624c464960e81b815250620000ed620000e76200020260201b60201c565b62000206565b815162000102906004906020850190620004ce565b50805162000118906005906020840190620004ce565b50506007805460ff1916905550815160209283012081519183019190912060e08290526101008190524660a0818152604080517f8b73c3c69bb8fe3d512ecc4cf759cc79239f7b179b0ffacaa9a75d522b39400f818801819052818301969096526060810194909452608080850193909352308483018190528151808603909301835260c0948501909152815191909501209052919091526101205250620001c36012600a620006a1565b620001cf9082620006b9565b600a81905550620001ee33600a546200025660201b62000fe41760201c565b620001fb6000336200035b565b5062000733565b3390565b600080546001600160a01b038381166001600160a01b0319831681178455604051919092169283917f8be0079c531659141344cd1fd0a4f28419497f9722a3daafe3b4186f6b6457e09190a35050565b6001600160a01b038216620002b25760405162461bcd60e51b815260206004820152601f60248201527f45524332303a206d696e7420746f20746865207a65726f20616464726573730060448201526064015b60405180910390fd5b620002c060008383620003e5565b8060036000828254620002d49190620006db565b90915550506001600160a01b0382166000908152600160205260408120805483929062000303908490620006db565b90915550506040518181526001600160a01b038316906000907fddf252ad1be2c89b69c2b068fc378daa952ba7f163c4a11628f55a4df523b3ef9060200160405180910390a3620003576000838362000484565b5050565b620003678282620004a1565b620003575760008281526008602090815260408083206001600160a01b03851684529091529020805460ff19166001179055620003a13390565b6001600160a01b0316816001600160a01b0316837f2f8788117e7eff1d82e926ec794901d17c78024a50270940304540a733656f0d60405160405180910390a45050565b60075460ff16156200042d5760405162461bcd60e51b815260206004820152601060248201526f14185d5cd8589b194e881c185d5cd95960821b6044820152606401620002a9565b3360009081526006602052604090205460ff1615620004845760405162461bcd60e51b815260206004820152601260248201527111549493d48e88109b1858dadb1a5cdd195960721b6044820152606401620002a9565b6200049c8383836200049c60201b6200085b1760201c565b505050565b60008281526008602090815260408083206001600160a01b038516845290915290205460ff165b92915050565b828054620004dc90620006f6565b90600052602060002090601f0160209004810192826200050057600085556200054b565b82601f106200051b57805160ff19168380011785556200054b565b828001600101855582156200054b579182015b828111156200054b5782518255916020019190600101906200052e565b50620005599291506200055d565b5090565b5b808211156200055957600081556001016200055e565b6000602082840312156200058757600080fd5b5051919050565b634e487b7160e01b600052601160045260246000fd5b600181815b80851115620005e5578160001904821115620005c957620005c96200058e565b80851615620005d757918102915b93841c9390800290620005a9565b509250929050565b600082620005fe57506001620004c8565b816200060d57506000620004c8565b8160018114620006265760028114620006315762000651565b6001915050620004c8565b60ff8411156200064557620006456200058e565b50506001821b620004c8565b5060208310610133831016604e8410600b841016171562000676575081810a620004c8565b620006828383620005a4565b80600019048211156200069957620006996200058e565b029392505050565b6000620006b260ff841683620005ed565b9392505050565b6000816000190483118215151615620006d657620006d66200058e565b500290565b60008219821115620006f157620006f16200058e565b500190565b600181811c908216806200070b57607f821691505b602082108114156200072d57634e487b7160e01b600052602260045260246000fd5b50919050565b60805160a05160c05160e0516101005161012051610140516123cd6200078e6000396000610cac015260006115400152600061158f0152600061156a015260006114c3015260006114ed0152600061151701526123cd6000f3fe608060405234801561001057600080fd5b50600436106102695760003560e01c806379cc679011610151578063d1df306c116100c3578063dd62ed3e11610087578063dd62ed3e14610552578063e47d60601461058b578063e4997dc5146105ae578063e63ab1e9146105c1578063f2fde38b146105e8578063f3bdc228146105fb57600080fd5b8063d1df306c146104e9578063d505accf146104fc578063d53913931461050f578063d547741f14610536578063d5abeb011461054957600080fd5b806391d148541161011557806391d148541461048d57806395d89b41146104a0578063a217fddf146104a8578063a457c2d7146104b0578063a9059cbb146104c3578063cfde1890146104d657600080fd5b806379cc6790146104295780637ecebe001461043c5780638456cb591461044f578063893d20e8146104575780638da5cb5b1461047c57600080fd5b80633644e515116101ea57806342966c68116101ae57806342966c68146103b157806359bf1abe146103c45780635c975abb146103f057806370a08231146103fb578063715018a61461040e578063731f21a01461041657600080fd5b80633644e5151461036857806336568abe1461037057806339509351146103835780633f4ba83a1461039657806340c10f191461039e57600080fd5b806323b872dd1161023157806323b872dd146102e9578063248a9ca3146102fc578063282c51f31461031f5780632f2ff15d14610346578063313ce5671461035957600080fd5b806301ffc9a71461026e57806306fdde0314610296578063095ea7b3146102ab5780630ecb93c0146102be57806318160ddd146102d3575b600080fd5b61028161027c366004611f1e565b61060e565b60405190151581526020015b60405180910390f35b61029e610645565b60405161028d9190611f74565b6102816102b9366004611fc3565b6106d7565b6102d16102cc366004611fed565b6106ed565b005b6102db61077b565b60405190815260200161028d565b6102816102f7366004612008565b61078b565b6102db61030a366004612044565b60009081526008602052604090206001015490565b6102db7f3c11d16cbaffd01df69ce1c404f6340ee057498f5f00246190ea54220576a84881565b6102d161035436600461205d565b610835565b6040516012815260200161028d565b6102db610860565b6102d161037e36600461205d565b61086a565b610281610391366004611fc3565b6108e8565b610281610924565b6102d16103ac366004611fc3565b610961565b6102d16103bf366004612044565b610996565b6102816103d2366004611fed565b6001600160a01b031660009081526006602052604090205460ff1690565b60075460ff16610281565b6102db610409366004611fed565b6109a3565b6102d16109c1565b6102d161042436600461209f565b6109f7565b6102d1610437366004611fc3565b610a3b565b6102db61044a366004611fed565b610abc565b610281610ada565b6000546001600160a01b03165b6040516001600160a01b03909116815260200161028d565b6000546001600160a01b0316610464565b61028161049b36600461205d565b610b0f565b61029e610b3a565b6102db600081565b6102816104be366004611fc3565b610b49565b6102816104d1366004611fc3565b610be2565b6102d16104e436600461209f565b610bef565b6102d16104f7366004611fc3565b610c2d565b6102d161050a366004612158565b610c58565b6102db7f9f2df0fed2c77648de5860a4cc508cd0818c85b8b8a1ab4ceeef8d981c8956a681565b6102d161054436600461205d565b610dbc565b6102db600a5481565b6102db6105603660046121cb565b6001600160a01b03918216600090815260026020908152604080832093909416825291909152205490565b610281610599366004611fed565b60066020526000908152604090205460ff1681565b6102d16105bc366004611fed565b610de2565b6102db7f65d7a28e3265b37a6474929f336521b332c1681b933f6cb9f3376673440d862a81565b6102d16105f6366004611fed565b610e5d565b6102d1610609366004611fed565b610ef5565b60006001600160e01b03198216637965db0b60e01b148061063f57506301ffc9a760e01b6001600160e01b03198316145b92915050565b606060048054610654906121f5565b80601f0160208091040260200160405190810160405280929190818152602001828054610680906121f5565b80156106cd5780601f106106a2576101008083540402835291602001916106cd565b820191906000526020600020905b8154815290600101906020018083116106b057829003601f168201915b5050505050905090565b60006106e43384846110cf565b50600192915050565b6000546001600160a01b031633146107205760405162461bcd60e51b81526004016107179061222a565b60405180910390fd5b6001600160a01b038116600081815260066020908152604091829020805460ff1916600117905590519182527f42e160154868087d6bfdc0ca23d96a1c1cfa32f1b72ba9ba27b69b98a0d819dc91015b60405180910390a150565b600061078660035490565b905090565b60006107988484846111f3565b6001600160a01b03841660009081526002602090815260408083203384529091529020548281101561081d5760405162461bcd60e51b815260206004820152602860248201527f45524332303a207472616e7366657220616d6f756e74206578636565647320616044820152676c6c6f77616e636560c01b6064820152608401610717565b61082a85338584036110cf565b506001949350505050565b60008281526008602052604090206001015461085181336113cc565b61085b8383611430565b505050565b60006107866114b6565b6001600160a01b03811633146108da5760405162461bcd60e51b815260206004820152602f60248201527f416363657373436f6e74726f6c3a2063616e206f6e6c792072656e6f756e636560448201526e103937b632b9903337b91039b2b63360891b6064820152608401610717565b6108e482826115dd565b5050565b3360008181526002602090815260408083206001600160a01b038716845290915281205490916106e491859061091f908690612275565b6110cf565b60007f65d7a28e3265b37a6474929f336521b332c1681b933f6cb9f3376673440d862a61095181336113cc565b610959611644565b600191505090565b7f9f2df0fed2c77648de5860a4cc508cd0818c85b8b8a1ab4ceeef8d981c8956a661098c81336113cc565b61085b83836116d7565b6109a03382611761565b50565b6001600160a01b03811660009081526001602052604081205461063f565b6000546001600160a01b031633146109eb5760405162461bcd60e51b81526004016107179061222a565b6109f5600061176b565b565b6000610a0381336113cc565b8251602084012080600b85604051610a1b919061228d565b90815260405190819003602001902055610a3581846115dd565b50505050565b6000610a478333610560565b905081811015610aa55760405162461bcd60e51b8152602060048201526024808201527f45524332303a206275726e20616d6f756e74206578636565647320616c6c6f77604482015263616e636560e01b6064820152608401610717565b610ab283338484036110cf565b61085b8383611761565b6001600160a01b03811660009081526009602052604081205461063f565b60007f65d7a28e3265b37a6474929f336521b332c1681b933f6cb9f3376673440d862a610b0781336113cc565b6109596117bb565b60009182526008602090815260408084206001600160a01b0393909316845291905290205460ff1690565b606060058054610654906121f5565b3360009081526002602090815260408083206001600160a01b038616845290915281205482811015610bcb5760405162461bcd60e51b815260206004820152602560248201527f45524332303a2064656372656173656420616c6c6f77616e63652062656c6f77604482015264207a65726f60d81b6064820152608401610717565b610bd833858584036110cf565b5060019392505050565b60006106e43384846111f3565b6000610bfb81336113cc565b8251602084012080600b85604051610c13919061228d565b90815260405190819003602001902055610a358184611836565b7f3c11d16cbaffd01df69ce1c404f6340ee057498f5f00246190ea54220576a848610ab281336113cc565b83421115610ca85760405162461bcd60e51b815260206004820152601d60248201527f45524332305065726d69743a206578706972656420646561646c696e650000006044820152606401610717565b60007f0000000000000000000000000000000000000000000000000000000000000000888888610cd78c611840565b6040805160208101969096526001600160a01b0394851690860152929091166060840152608083015260a082015260c0810186905260e0016040516020818303038152906040528051906020012090506000610d3282611868565b90506000610d42828787876118b6565b9050896001600160a01b0316816001600160a01b031614610da55760405162461bcd60e51b815260206004820152601e60248201527f45524332305065726d69743a20696e76616c6964207369676e617475726500006044820152606401610717565b610db08a8a8a6110cf565b50505050505050505050565b600082815260086020526040902060010154610dd881336113cc565b61085b83836115dd565b6000546001600160a01b03163314610e0c5760405162461bcd60e51b81526004016107179061222a565b6001600160a01b038116600081815260066020908152604091829020805460ff1916905590519182527fd7e9ec6e6ecd65492dce6bf513cd6867560d49544421d0783ddf06e76c24470c9101610770565b6000546001600160a01b03163314610e875760405162461bcd60e51b81526004016107179061222a565b6001600160a01b038116610eec5760405162461bcd60e51b815260206004820152602660248201527f4f776e61626c653a206e6577206f776e657220697320746865207a65726f206160448201526564647265737360d01b6064820152608401610717565b6109a08161176b565b6000546001600160a01b03163314610f1f5760405162461bcd60e51b81526004016107179061222a565b6001600160a01b03811660009081526006602052604090205460ff16610f875760405162461bcd60e51b815260206004820152601760248201527f4552524f523a204e6f7420426c61636b206c69737465640000000000000000006044820152606401610717565b6000610f92826109a3565b9050610f9e8282611761565b604080516001600160a01b0384168152602081018390527f61e6e66b0d6339b2980aecc6ccc0039736791f0ccde9ed512e789a7fbdd698c6910160405180910390a15050565b6001600160a01b03821661103a5760405162461bcd60e51b815260206004820152601f60248201527f45524332303a206d696e7420746f20746865207a65726f2061646472657373006044820152606401610717565b611046600083836118de565b80600360008282546110589190612275565b90915550506001600160a01b03821660009081526001602052604081208054839290611085908490612275565b90915550506040518181526001600160a01b038316906000907fddf252ad1be2c89b69c2b068fc378daa952ba7f163c4a11628f55a4df523b3ef9060200160405180910390a35050565b6001600160a01b0383166111315760405162461bcd60e51b8152602060048201526024808201527f45524332303a20617070726f76652066726f6d20746865207a65726f206164646044820152637265737360e01b6064820152608401610717565b6001600160a01b0382166111925760405162461bcd60e51b815260206004820152602260248201527f45524332303a20617070726f766520746f20746865207a65726f206164647265604482015261737360f01b6064820152608401610717565b6001600160a01b0383811660008181526002602090815260408083209487168084529482529182902085905590518481527f8c5be1e5ebec7d5bd14f71427d1e84f3dd0314c0f7b2291e5b200ac8c7c3b925910160405180910390a3505050565b6001600160a01b0383166112575760405162461bcd60e51b815260206004820152602560248201527f45524332303a207472616e736665722066726f6d20746865207a65726f206164604482015264647265737360d81b6064820152608401610717565b6001600160a01b0382166112b95760405162461bcd60e51b815260206004820152602360248201527f45524332303a207472616e7366657220746f20746865207a65726f206164647260448201526265737360e81b6064820152608401610717565b6112c48383836118de565b6001600160a01b0383166000908152600160205260409020548181101561133c5760405162461bcd60e51b815260206004820152602660248201527f45524332303a207472616e7366657220616d6f756e7420657863656564732062604482015265616c616e636560d01b6064820152608401610717565b6001600160a01b03808516600090815260016020526040808220858503905591851681529081208054849290611373908490612275565b92505081905550826001600160a01b0316846001600160a01b03167fddf252ad1be2c89b69c2b068fc378daa952ba7f163c4a11628f55a4df523b3ef846040516113bf91815260200190565b60405180910390a3610a35565b6113d68282610b0f565b6108e4576113ee816001600160a01b03166014611979565b6113f9836020611979565b60405160200161140a9291906122a9565b60408051601f198184030181529082905262461bcd60e51b825261071791600401611f74565b61143a8282610b0f565b6108e45760008281526008602090815260408083206001600160a01b03851684529091529020805460ff191660011790556114723390565b6001600160a01b0316816001600160a01b0316837f2f8788117e7eff1d82e926ec794901d17c78024a50270940304540a733656f0d60405160405180910390a45050565b6000306001600160a01b037f00000000000000000000000000000000000000000000000000000000000000001614801561150f57507f000000000000000000000000000000000000000000000000000000000000000046145b1561153957507f000000000000000000000000000000000000000000000000000000000000000090565b50604080517f00000000000000000000000000000000000000000000000000000000000000006020808301919091527f0000000000000000000000000000000000000000000000000000000000000000828401527f000000000000000000000000000000000000000000000000000000000000000060608301524660808301523060a0808401919091528351808403909101815260c0909201909252805191012090565b6115e78282610b0f565b156108e45760008281526008602090815260408083206001600160a01b0385168085529252808320805460ff1916905551339285917ff6391f5c32d9c69d2a47ea670b442974b53935d1edc7fd64eb21e047a839171b9190a45050565b60075460ff1661168d5760405162461bcd60e51b815260206004820152601460248201527314185d5cd8589b194e881b9bdd081c185d5cd95960621b6044820152606401610717565b6007805460ff191690557f5db9ee0a495bf2e6ff9c91a7834c1ba4fdd244a5e8aa4e537bd38aeae4b073aa335b6040516001600160a01b03909116815260200160405180910390a1565b600a54816116e361077b565b6116ed9190612275565b11156117575760405162461bcd60e51b815260206004820152603360248201527f4572726f723a204d617820737570706c7920726561636865642c20312042696c6044820152723634b7b7103a37b5b2b7399036b4b73a32b21760691b6064820152608401610717565b6108e48282610fe4565b6108e48282611b1c565b600080546001600160a01b038381166001600160a01b0319831681178455604051919092169283917f8be0079c531659141344cd1fd0a4f28419497f9722a3daafe3b4186f6b6457e09190a35050565b60075460ff16156118015760405162461bcd60e51b815260206004820152601060248201526f14185d5cd8589b194e881c185d5cd95960821b6044820152606401610717565b6007805460ff191660011790557f62e78cea01bee320cd4e420270b5ea74000d11b0c9f74754ebdbfc544b05a2586116ba3390565b6108e48282611430565b6001600160a01b03811660009081526009602052604090208054600181018255905b50919050565b600061063f6118756114b6565b8360405161190160f01b6020820152602281018390526042810182905260009060620160405160208183030381529060405280519060200120905092915050565b60008060006118c787878787611c76565b915091506118d481611d63565b5095945050505050565b60075460ff16156119245760405162461bcd60e51b815260206004820152601060248201526f14185d5cd8589b194e881c185d5cd95960821b6044820152606401610717565b3360009081526006602052604090205460ff161561085b5760405162461bcd60e51b815260206004820152601260248201527111549493d48e88109b1858dadb1a5cdd195960721b6044820152606401610717565b6060600061198883600261231e565b611993906002612275565b67ffffffffffffffff8111156119ab576119ab612089565b6040519080825280601f01601f1916602001820160405280156119d5576020820181803683370190505b509050600360fc1b816000815181106119f0576119f061233d565b60200101906001600160f81b031916908160001a905350600f60fb1b81600181518110611a1f57611a1f61233d565b60200101906001600160f81b031916908160001a9053506000611a4384600261231e565b611a4e906001612275565b90505b6001811115611ac6576f181899199a1a9b1b9c1cb0b131b232b360811b85600f1660108110611a8257611a8261233d565b1a60f81b828281518110611a9857611a9861233d565b60200101906001600160f81b031916908160001a90535060049490941c93611abf81612353565b9050611a51565b508315611b155760405162461bcd60e51b815260206004820181905260248201527f537472696e67733a20686578206c656e67746820696e73756666696369656e746044820152606401610717565b9392505050565b6001600160a01b038216611b7c5760405162461bcd60e51b815260206004820152602160248201527f45524332303a206275726e2066726f6d20746865207a65726f206164647265736044820152607360f81b6064820152608401610717565b611b88826000836118de565b6001600160a01b03821660009081526001602052604090205481811015611bfc5760405162461bcd60e51b815260206004820152602260248201527f45524332303a206275726e20616d6f756e7420657863656564732062616c616e604482015261636560f01b6064820152608401610717565b6001600160a01b0383166000908152600160205260408120838303905560038054849290611c2b90849061236a565b90915550506040518281526000906001600160a01b038516907fddf252ad1be2c89b69c2b068fc378daa952ba7f163c4a11628f55a4df523b3ef9060200160405180910390a3505050565b6000807f7fffffffffffffffffffffffffffffff5d576e7357a4501ddfe92f46681b20a0831115611cad5750600090506003611d5a565b8460ff16601b14158015611cc557508460ff16601c14155b15611cd65750600090506004611d5a565b6040805160008082526020820180845289905260ff881692820192909252606081018690526080810185905260019060a0016020604051602081039080840390855afa158015611d2a573d6000803e3d6000fd5b5050604051601f1901519150506001600160a01b038116611d5357600060019250925050611d5a565b9150600090505b94509492505050565b6000816004811115611d7757611d77612381565b1415611d805750565b6001816004811115611d9457611d94612381565b1415611de25760405162461bcd60e51b815260206004820152601860248201527f45434453413a20696e76616c6964207369676e617475726500000000000000006044820152606401610717565b6002816004811115611df657611df6612381565b1415611e445760405162461bcd60e51b815260206004820152601f60248201527f45434453413a20696e76616c6964207369676e6174757265206c656e677468006044820152606401610717565b6003816004811115611e5857611e58612381565b1415611eb15760405162461bcd60e51b815260206004820152602260248201527f45434453413a20696e76616c6964207369676e6174757265202773272076616c604482015261756560f01b6064820152608401610717565b6004816004811115611ec557611ec5612381565b14156109a05760405162461bcd60e51b815260206004820152602260248201527f45434453413a20696e76616c6964207369676e6174757265202776272076616c604482015261756560f01b6064820152608401610717565b600060208284031215611f3057600080fd5b81356001600160e01b031981168114611b1557600080fd5b60005b83811015611f63578181015183820152602001611f4b565b83811115610a355750506000910152565b6020815260008251806020840152611f93816040850160208701611f48565b601f01601f19169190910160400192915050565b80356001600160a01b0381168114611fbe57600080fd5b919050565b60008060408385031215611fd657600080fd5b611fdf83611fa7565b946020939093013593505050565b600060208284031215611fff57600080fd5b611b1582611fa7565b60008060006060848603121561201d57600080fd5b61202684611fa7565b925061203460208501611fa7565b9150604084013590509250925092565b60006020828403121561205657600080fd5b5035919050565b6000806040838503121561207057600080fd5b8235915061208060208401611fa7565b90509250929050565b634e487b7160e01b600052604160045260246000fd5b600080604083850312156120b257600080fd5b823567ffffffffffffffff808211156120ca57600080fd5b818501915085601f8301126120de57600080fd5b8135818111156120f0576120f0612089565b604051601f8201601f19908116603f0116810190838211818310171561211857612118612089565b8160405282815288602084870101111561213157600080fd5b82602086016020830137600060208483010152809650505050505061208060208401611fa7565b600080600080600080600060e0888a03121561217357600080fd5b61217c88611fa7565b965061218a60208901611fa7565b95506040880135945060608801359350608088013560ff811681146121ae57600080fd5b9699959850939692959460a0840135945060c09093013592915050565b600080604083850312156121de57600080fd5b6121e783611fa7565b915061208060208401611fa7565b600181811c9082168061220957607f821691505b6020821081141561186257634e487b7160e01b600052602260045260246000fd5b6020808252818101527f4f776e61626c653a2063616c6c6572206973206e6f7420746865206f776e6572604082015260600190565b634e487b7160e01b600052601160045260246000fd5b600082198211156122885761228861225f565b500190565b6000825161229f818460208701611f48565b9190910192915050565b7f416363657373436f6e74726f6c3a206163636f756e74200000000000000000008152600083516122e1816017850160208801611f48565b7001034b99036b4b9b9b4b733903937b6329607d1b6017918401918201528351612312816028840160208801611f48565b01602801949350505050565b60008160001904831182151516156123385761233861225f565b500290565b634e487b7160e01b600052603260045260246000fd5b6000816123625761236261225f565b506000190190565b60008282101561237c5761237c61225f565b500390565b634e487b7160e01b600052602160045260246000fdfea2646970667358221220a82f98cde4bfae6521ba23dfaacd655c7d89f8a229ae8ed2dbc183f28e714eed64736f6c634300080a0033",
  "linkReferences": {},
  "deployedLinkReferences": {}
}