{
  "_format": "hh-sol-artifact-1",
  "contractName": "LFIToken",
  "sourceName": "contracts/LFIToken.sol",
  "abi": [
    {
      "inputs": [
        {
          "internalType": "uint256",
          "name": "supply",
          "type": "uint256"
        }
      ],
      "stateMutability": "nonpayable",
      "type": "constructor"
    },
    {
      "anonymous": false,
      "inputs": [
        {
          "indexed": false,
          "internalType": "address",
          "name": "user",
          "type": "address"
        }
      ],
      "name": "AddedBlackList",
      "type": "event"
    },
    {
      "anonymous": false,
      "inputs": [
        {
          "indexed": true,
          "internalType": "address",
          "name": "owner",
          "type": "address"
        },
        {
          "indexed": true,
          "internalType": "address",
          "name": "spender",
          "type": "address"
        },
        {
          "indexed": false,
          "internalType": "uint256",
          "name": "value",
          "type": "uint256"
        }
      ],
      "name": "Approval",
      "type": "event"
    },
    {
      "anonymous": false,
      "inputs": [
        {
          "indexed": false,
          "internalType": "address",
          "name": "blackListedUser",
          "type": "address"
        },
        {
          "indexed": false,
          "internalType": "uint256",
          "name": "balance",
          "type": "uint256"
        }
      ],
      "name": "DestroyedBlackFunds",
      "type": "event"
    },
    {
      "anonymous": false,
      "inputs": [
        {
          "indexed": true,
          "internalType": "address",
          "name": "previousOwner",
          "type": "address"
        },
        {
          "indexed": true,
          "internalType": "address",
          "name": "newOwner",
          "type": "address"
        }
      ],
      "name": "OwnershipTransferred",
      "type": "event"
    },
    {
      "anonymous": false,
      "inputs": [
        {
          "indexed": false,
          "internalType": "address",
          "name": "account",
          "type": "address"
        }
      ],
      "name": "Paused",
      "type": "event"
    },
    {
      "anonymous": false,
      "inputs": [
        {
          "indexed": false,
          "internalType": "address",
          "name": "user",
          "type": "address"
        }
      ],
      "name": "RemovedBlackList",
      "type": "event"
    },
    {
      "anonymous": false,
      "inputs": [
        {
          "indexed": true,
          "internalType": "bytes32",
          "name": "role",
          "type": "bytes32"
        },
        {
          "indexed": true,
          "internalType": "bytes32",
          "name": "previousAdminRole",
          "type": "bytes32"
        },
        {
          "indexed": true,
          "internalType": "bytes32",
          "name": "newAdminRole",
          "type": "bytes32"
        }
      ],
      "name": "RoleAdminChanged",
      "type": "event"
    },
    {
      "anonymous": false,
      "inputs": [
        {
          "indexed": true,
          "internalType": "bytes32",
          "name": "role",
          "type": "bytes32"
        },
        {
          "indexed": true,
          "internalType": "address",
          "name": "account",
          "type": "address"
        },
        {
          "indexed": true,
          "internalType": "address",
          "name": "sender",
          "type": "address"
        }
      ],
      "name": "RoleGranted",
      "type": "event"
    },
    {
      "anonymous": false,
      "inputs": [
        {
          "indexed": true,
          "internalType": "bytes32",
          "name": "role",
          "type": "bytes32"
        },
        {
          "indexed": true,
          "internalType": "address",
          "name": "account",
          "type": "address"
        },
        {
          "indexed": true,
          "internalType": "address",
          "name": "sender",
          "type": "address"
        }
      ],
      "name": "RoleRevoked",
      "type": "event"
    },
    {
      "anonymous": false,
      "inputs": [
        {
          "indexed": true,
          "internalType": "address",
          "name": "from",
          "type": "address"
        },
        {
          "indexed": true,
          "internalType": "address",
          "name": "to",
          "type": "address"
        },
        {
          "indexed": false,
          "internalType": "uint256",
          "name": "value",
          "type": "uint256"
        }
      ],
      "name": "Transfer",
      "type": "event"
    },
    {
      "anonymous": false,
      "inputs": [
        {
          "indexed": false,
          "internalType": "address",
          "name": "account",
          "type": "address"
        }
      ],
      "name": "Unpaused",
      "type": "event"
    },
    {
      "inputs": [],
      "name": "BP",
      "outputs": [
        {
          "internalType": "contract BPContract",
          "name": "",
          "type": "address"
        }
      ],
      "stateMutability": "view",
      "type": "function"
    },
    {
      "inputs": [],
      "name": "BPDisabledForever",
      "outputs": [
        {
          "internalType": "bool",
          "name": "",
          "type": "bool"
        }
      ],
      "stateMutability": "view",
      "type": "function"
    },
    {
      "inputs": [],
      "name": "BURNER_ROLE",
      "outputs": [
        {
          "internalType": "bytes32",
          "name": "",
          "type": "bytes32"
        }
      ],
      "stateMutability": "view",
      "type": "function"
    },
    {
      "inputs": [],
      "name": "DEFAULT_ADMIN_ROLE",
      "outputs": [
        {
          "internalType": "bytes32",
          "name": "",
          "type": "bytes32"
        }
      ],
      "stateMutability": "view",
      "type": "function"
    },
    {
      "inputs": [],
      "name": "DOMAIN_SEPARATOR",
      "outputs": [
        {
          "internalType": "bytes32",
          "name": "",
          "type": "bytes32"
        }
      ],
      "stateMutability": "view",
      "type": "function"
    },
    {
      "inputs": [],
      "name": "MINTER_ROLE",
      "outputs": [
        {
          "internalType": "bytes32",
          "name": "",
          "type": "bytes32"
        }
      ],
      "stateMutability": "view",
      "type": "function"
    },
    {
      "inputs": [],
      "name": "PAUSER_ROLE",
      "outputs": [
        {
          "internalType": "bytes32",
          "name": "",
          "type": "bytes32"
        }
      ],
      "stateMutability": "view",
      "type": "function"
    },
    {
      "inputs": [
        {
          "internalType": "address",
          "name": "evilUser",
          "type": "address"
        }
      ],
      "name": "addBlackList",
      "outputs": [],
      "stateMutability": "nonpayable",
      "type": "function"
    },
    {
      "inputs": [
        {
          "internalType": "address",
          "name": "owner",
          "type": "address"
        },
        {
          "internalType": "address",
          "name": "spender",
          "type": "address"
        }
      ],
      "name": "allowance",
      "outputs": [
        {
          "internalType": "uint256",
          "name": "",
          "type": "uint256"
        }
      ],
      "stateMutability": "view",
      "type": "function"
    },
    {
      "inputs": [
        {
          "internalType": "address",
          "name": "spender",
          "type": "address"
        },
        {
          "internalType": "uint256",
          "name": "amount",
          "type": "uint256"
        }
      ],
      "name": "approve",
      "outputs": [
        {
          "internalType": "bool",
          "name": "",
          "type": "bool"
        }
      ],
      "stateMutability": "nonpayable",
      "type": "function"
    },
    {
      "inputs": [
        {
          "internalType": "address",
          "name": "account",
          "type": "address"
        }
      ],
      "name": "balanceOf",
      "outputs": [
        {
          "internalType": "uint256",
          "name": "",
          "type": "uint256"
        }
      ],
      "stateMutability": "view",
      "type": "function"
    },
    {
      "inputs": [],
      "name": "bpEnabled",
      "outputs": [
        {
          "internalType": "bool",
          "name": "",
          "type": "bool"
        }
      ],
      "stateMutability": "view",
      "type": "function"
    },
    {
      "inputs": [
        {
          "internalType": "uint256",
          "name": "amount",
          "type": "uint256"
        }
      ],
      "name": "burn",
      "outputs": [],
      "stateMutability": "nonpayable",
      "type": "function"
    },
    {
      "inputs": [
        {
          "internalType": "address",
          "name": "account",
          "type": "address"
        },
        {
          "internalType": "uint256",
          "name": "amount",
          "type": "uint256"
        }
      ],
      "name": "burnFrom",
      "outputs": [],
      "stateMutability": "nonpayable",
      "type": "function"
    },
    {
      "inputs": [
        {
          "internalType": "address",
          "name": "account",
          "type": "address"
        },
        {
          "internalType": "uint256",
          "name": "amount",
          "type": "uint256"
        }
      ],
      "name": "burnToken",
      "outputs": [],
      "stateMutability": "nonpayable",
      "type": "function"
    },
    {
      "inputs": [],
      "name": "decimals",
      "outputs": [
        {
          "internalType": "uint8",
          "name": "",
          "type": "uint8"
        }
      ],
      "stateMutability": "pure",
      "type": "function"
    },
    {
      "inputs": [
        {
          "internalType": "address",
          "name": "spender",
          "type": "address"
        },
        {
          "internalType": "uint256",
          "name": "subtractedValue",
          "type": "uint256"
        }
      ],
      "name": "decreaseAllowance",
      "outputs": [
        {
          "internalType": "bool",
          "name": "",
          "type": "bool"
        }
      ],
      "stateMutability": "nonpayable",
      "type": "function"
    },
    {
      "inputs": [
        {
          "internalType": "address",
          "name": "blackListedUser",
          "type": "address"
        }
      ],
      "name": "destroyBlackFunds",
      "outputs": [],
      "stateMutability": "nonpayable",
      "type": "function"
    },
    {
      "inputs": [
        {
          "internalType": "address",
          "name": "maker",
          "type": "address"
        }
      ],
      "name": "getBlackListStatus",
      "outputs": [
        {
          "internalType": "bool",
          "name": "",
          "type": "bool"
        }
      ],
      "stateMutability": "view",
      "type": "function"
    },
    {
      "inputs": [],
      "name": "getOwner",
      "outputs": [
        {
          "internalType": "address",
          "name": "",
          "type": "address"
        }
      ],
      "stateMutability": "view",
      "type": "function"
    },
    {
      "inputs": [
        {
          "internalType": "bytes32",
          "name": "role",
          "type": "bytes32"
        }
      ],
      "name": "getRoleAdmin",
      "outputs": [
        {
          "internalType": "bytes32",
          "name": "",
          "type": "bytes32"
        }
      ],
      "stateMutability": "view",
      "type": "function"
    },
    {
      "inputs": [
        {
          "internalType": "bytes32",
          "name": "role",
          "type": "bytes32"
        },
        {
          "internalType": "address",
          "name": "account",
          "type": "address"
        }
      ],
      "name": "grantRole",
      "outputs": [],
      "stateMutability": "nonpayable",
      "type": "function"
    },
    {
      "inputs": [
        {
          "internalType": "bytes32",
          "name": "role",
          "type": "bytes32"
        },
        {
          "internalType": "address",
          "name": "account",
          "type": "address"
        }
      ],
      "name": "hasRole",
      "outputs": [
        {
          "internalType": "bool",
          "name": "",
          "type": "bool"
        }
      ],
      "stateMutability": "view",
      "type": "function"
    },
    {
      "inputs": [
        {
          "internalType": "address",
          "name": "spender",
          "type": "address"
        },
        {
          "internalType": "uint256",
          "name": "addedValue",
          "type": "uint256"
        }
      ],
      "name": "increaseAllowance",
      "outputs": [
        {
          "internalType": "bool",
          "name": "",
          "type": "bool"
        }
      ],
      "stateMutability": "nonpayable",
      "type": "function"
    },
    {
      "inputs": [
        {
          "internalType": "address",
          "name": "",
          "type": "address"
        }
      ],
      "name": "isBlackListed",
      "outputs": [
        {
          "internalType": "bool",
          "name": "",
          "type": "bool"
        }
      ],
      "stateMutability": "view",
      "type": "function"
    },
    {
      "inputs": [],
      "name": "maxSupply",
      "outputs": [
        {
          "internalType": "uint256",
          "name": "",
          "type": "uint256"
        }
      ],
      "stateMutability": "view",
      "type": "function"
    },
    {
      "inputs": [
        {
          "internalType": "address",
          "name": "to",
          "type": "address"
        },
        {
          "internalType": "uint256",
          "name": "amount",
          "type": "uint256"
        }
      ],
      "name": "mint",
      "outputs": [],
      "stateMutability": "nonpayable",
      "type": "function"
    },
    {
      "inputs": [],
      "name": "name",
      "outputs": [
        {
          "internalType": "string",
          "name": "",
          "type": "string"
        }
      ],
      "stateMutability": "view",
      "type": "function"
    },
    {
      "inputs": [
        {
          "internalType": "address",
          "name": "owner",
          "type": "address"
        }
      ],
      "name": "nonces",
      "outputs": [
        {
          "internalType": "uint256",
          "name": "",
          "type": "uint256"
        }
      ],
      "stateMutability": "view",
      "type": "function"
    },
    {
      "inputs": [],
      "name": "owner",
      "outputs": [
        {
          "internalType": "address",
          "name": "",
          "type": "address"
        }
      ],
      "stateMutability": "view",
      "type": "function"
    },
    {
      "inputs": [],
      "name": "pause",
      "outputs": [
        {
          "internalType": "bool",
          "name": "",
          "type": "bool"
        }
      ],
      "stateMutability": "nonpayable",
      "type": "function"
    },
    {
      "inputs": [],
      "name": "paused",
      "outputs": [
        {
          "internalType": "bool",
          "name": "",
          "type": "bool"
        }
      ],
      "stateMutability": "view",
      "type": "function"
    },
    {
      "inputs": [
        {
          "internalType": "address",
          "name": "owner",
          "type": "address"
        },
        {
          "internalType": "address",
          "name": "spender",
          "type": "address"
        },
        {
          "internalType": "uint256",
          "name": "value",
          "type": "uint256"
        },
        {
          "internalType": "uint256",
          "name": "deadline",
          "type": "uint256"
        },
        {
          "internalType": "uint8",
          "name": "v",
          "type": "uint8"
        },
        {
          "internalType": "bytes32",
          "name": "r",
          "type": "bytes32"
        },
        {
          "internalType": "bytes32",
          "name": "s",
          "type": "bytes32"
        }
      ],
      "name": "permit",
      "outputs": [],
      "stateMutability": "nonpayable",
      "type": "function"
    },
    {
      "inputs": [
        {
          "internalType": "address",
          "name": "clearedUser",
          "type": "address"
        }
      ],
      "name": "removeBlackList",
      "outputs": [],
      "stateMutability": "nonpayable",
      "type": "function"
    },
    {
      "inputs": [],
      "name": "renounceOwnership",
      "outputs": [],
      "stateMutability": "nonpayable",
      "type": "function"
    },
    {
      "inputs": [
        {
          "internalType": "bytes32",
          "name": "role",
          "type": "bytes32"
        },
        {
          "internalType": "address",
          "name": "account",
          "type": "address"
        }
      ],
      "name": "renounceRole",
      "outputs": [],
      "stateMutability": "nonpayable",
      "type": "function"
    },
    {
      "inputs": [
        {
          "internalType": "string",
          "name": "role",
          "type": "string"
        },
        {
          "internalType": "address",
          "name": "revoke",
          "type": "address"
        }
      ],
      "name": "revokeRole",
      "outputs": [],
      "stateMutability": "nonpayable",
      "type": "function"
    },
    {
      "inputs": [
        {
          "internalType": "bytes32",
          "name": "role",
          "type": "bytes32"
        },
        {
          "internalType": "address",
          "name": "account",
          "type": "address"
        }
      ],
      "name": "revokeRole",
      "outputs": [],
      "stateMutability": "nonpayable",
      "type": "function"
    },
    {
      "inputs": [
        {
          "internalType": "address",
          "name": "_bp",
          "type": "address"
        }
      ],
      "name": "setBPAddress",
      "outputs": [],
      "stateMutability": "nonpayable",
      "type": "function"
    },
    {
      "inputs": [],
      "name": "setBotProtectionDisableForever",
      "outputs": [],
      "stateMutability": "nonpayable",
      "type": "function"
    },
    {
      "inputs": [
        {
          "internalType": "bool",
          "name": "_enabled",
          "type": "bool"
        }
      ],
      "name": "setBpEnabled",
      "outputs": [],
      "stateMutability": "nonpayable",
      "type": "function"
    },
    {
      "inputs": [
        {
          "internalType": "string",
          "name": "role",
          "type": "string"
        },
        {
          "internalType": "address",
          "name": "add",
          "type": "address"
        }
      ],
      "name": "setRole",
      "outputs": [],
      "stateMutability": "nonpayable",
      "type": "function"
    },
    {
      "inputs": [
        {
          "internalType": "bytes4",
          "name": "interfaceId",
          "type": "bytes4"
        }
      ],
      "name": "supportsInterface",
      "outputs": [
        {
          "internalType": "bool",
          "name": "",
          "type": "bool"
        }
      ],
      "stateMutability": "view",
      "type": "function"
    },
    {
      "inputs": [],
      "name": "symbol",
      "outputs": [
        {
          "internalType": "string",
          "name": "",
          "type": "string"
        }
      ],
      "stateMutability": "view",
      "type": "function"
    },
    {
      "inputs": [],
      "name": "totalSupply",
      "outputs": [
        {
          "internalType": "uint256",
          "name": "",
          "type": "uint256"
        }
      ],
      "stateMutability": "view",
      "type": "function"
    },
    {
      "inputs": [
        {
          "internalType": "address",
          "name": "recipient",
          "type": "address"
        },
        {
          "internalType": "uint256",
          "name": "amount",
          "type": "uint256"
        }
      ],
      "name": "transfer",
      "outputs": [
        {
          "internalType": "bool",
          "name": "",
          "type": "bool"
        }
      ],
      "stateMutability": "nonpayable",
      "type": "function"
    },
    {
      "inputs": [
        {
          "internalType": "address",
          "name": "sender",
          "type": "address"
        },
        {
          "internalType": "address",
          "name": "recipient",
          "type": "address"
        },
        {
          "internalType": "uint256",
          "name": "amount",
          "type": "uint256"
        }
      ],
      "name": "transferFrom",
      "outputs": [
        {
          "internalType": "bool",
          "name": "",
          "type": "bool"
        }
      ],
      "stateMutability": "nonpayable",
      "type": "function"
    },
    {
      "inputs": [
        {
          "internalType": "address",
          "name": "newOwner",
          "type": "address"
        }
      ],
      "name": "transferOwnership",
      "outputs": [],
      "stateMutability": "nonpayable",
      "type": "function"
    },
    {
      "inputs": [],
      "name": "unpause",
      "outputs": [
        {
          "internalType": "bool",
          "name": "",
          "type": "bool"
        }
      ],
      "stateMutability": "nonpayable",
      "type": "function"
    }
  ],
  "bytecode": "0x6101606040527f6e71edae12b1b97f4d1f60370fef10105fa2faae0126114a169c64845d6126c961014052600b805460ff60a81b191690553480156200004457600080fd5b5060405162002ebe38038062002ebe83398101604081905262000067916200061c565b60405180604001604052806008815260200167262324aa37b5b2b760c11b81525080604051806040016040528060018152602001603160f81b81525060405180604001604052806008815260200167262324aa37b5b2b760c11b815250604051806040016040528060038152602001624c464960e81b815250620000fa620000f46200020f60201b60201c565b62000213565b81516200010f90600490602085019062000576565b5080516200012590600590602084019062000576565b50506007805460ff1916905550815160209283012081519183019190912060e08290526101008190524660a0818152604080517f8b73c3c69bb8fe3d512ecc4cf759cc79239f7b179b0ffacaa9a75d522b39400f818801819052818301969096526060810194909452608080850193909352308483018190528151808603909301835260c0948501909152815191909501209052919091526101205250620001d06012600a62000749565b620001dc908262000761565b600a81905550620001fb33600a546200026360201b620011e21760201c565b6200020860003362000368565b50620007db565b3390565b600080546001600160a01b038381166001600160a01b0319831681178455604051919092169283917f8be0079c531659141344cd1fd0a4f28419497f9722a3daafe3b4186f6b6457e09190a35050565b6001600160a01b038216620002bf5760405162461bcd60e51b815260206004820152601f60248201527f45524332303a206d696e7420746f20746865207a65726f20616464726573730060448201526064015b60405180910390fd5b620002cd60008383620003f2565b8060036000828254620002e1919062000783565b90915550506001600160a01b038216600090815260016020526040812080548392906200031090849062000783565b90915550506040518181526001600160a01b038316906000907fddf252ad1be2c89b69c2b068fc378daa952ba7f163c4a11628f55a4df523b3ef9060200160405180910390a362000364600083836200052c565b5050565b62000374828262000549565b620003645760008281526008602090815260408083206001600160a01b03851684529091529020805460ff19166001179055620003ae3390565b6001600160a01b0316816001600160a01b0316837f2f8788117e7eff1d82e926ec794901d17c78024a50270940304540a733656f0d60405160405180910390a45050565b60075460ff16156200043a5760405162461bcd60e51b815260206004820152601060248201526f14185d5cd8589b194e881c185d5cd95960821b6044820152606401620002b6565b3360009081526006602052604090205460ff1615620004915760405162461bcd60e51b815260206004820152601260248201527111549493d48e88109b1858dadb1a5cdd195960721b6044820152606401620002b6565b600b54600160a01b900460ff168015620004b55750600b54600160a81b900460ff16155b156200052c57600b54604051637e2f3afd60e01b81526001600160a01b03858116600483015284811660248301526044820184905290911690637e2f3afd90606401600060405180830381600087803b1580156200051257600080fd5b505af115801562000527573d6000803e3d6000fd5b505050505b620005448383836200054460201b6200095e1760201c565b505050565b60008281526008602090815260408083206001600160a01b038516845290915290205460ff165b92915050565b82805462000584906200079e565b90600052602060002090601f016020900481019282620005a85760008555620005f3565b82601f10620005c357805160ff1916838001178555620005f3565b82800160010185558215620005f3579182015b82811115620005f3578251825591602001919060010190620005d6565b506200060192915062000605565b5090565b5b8082111562000601576000815560010162000606565b6000602082840312156200062f57600080fd5b5051919050565b634e487b7160e01b600052601160045260246000fd5b600181815b808511156200068d57816000190482111562000671576200067162000636565b808516156200067f57918102915b93841c939080029062000651565b509250929050565b600082620006a65750600162000570565b81620006b55750600062000570565b8160018114620006ce5760028114620006d957620006f9565b600191505062000570565b60ff841115620006ed57620006ed62000636565b50506001821b62000570565b5060208310610133831016604e8410600b84101617156200071e575081810a62000570565b6200072a83836200064c565b806000190482111562000741576200074162000636565b029392505050565b60006200075a60ff84168362000695565b9392505050565b60008160001904831182151516156200077e576200077e62000636565b500290565b6000821982111562000799576200079962000636565b500190565b600181811c90821680620007b357607f821691505b60208210811415620007d557634e487b7160e01b600052602260045260246000fd5b50919050565b60805160a05160c05160e051610100516101205161014051612688620008366000396000610eaa0152600061173e0152600061178d01526000611768015260006116c1015260006116eb0152600061171501526126886000f3fe608060405234801561001057600080fd5b50600436106102bb5760003560e01c806379cc679011610182578063cfde1890116100e9578063d5abeb01116100a2578063e4997dc51161007c578063e4997dc514610669578063e63ab1e91461067c578063f2fde38b146106a3578063f3bdc228146106b657600080fd5b8063d5abeb0114610604578063dd62ed3e1461060d578063e47d60601461064657600080fd5b8063cfde18901461057e578063d1df306c14610591578063d39b7e4f146105a4578063d505accf146105b7578063d5391393146105ca578063d547741f146105f157600080fd5b806395d89b411161013b57806395d89b411461052d5780639cfdbd5e14610535578063a217fddf14610548578063a457c2d714610550578063a9059cbb14610563578063c818c2801461057657600080fd5b806379cc6790146104b65780637ecebe00146104c95780638456cb59146104dc578063893d20e8146104e45780638da5cb5b1461050957806391d148541461051a57600080fd5b8063346168051161022657806342966c68116101df57806342966c681461043e57806359bf1abe146104515780635c975abb1461047d57806370a0823114610488578063715018a61461049b578063731f21a0146104a357600080fd5b806334616805146103e15780633644e515146103f557806336568abe146103fd57806339509351146104105780633f4ba83a1461042357806340c10f191461042b57600080fd5b806323b872dd1161027857806323b872dd1461034e578063248a9ca31461036157806326898da914610384578063282c51f3146103985780632f2ff15d146103bf578063313ce567146103d257600080fd5b806301ffc9a7146102c057806306fdde03146102e8578063095ea7b3146102fd5780630ecb93c01461031057806318160ddd14610325578063206a8a221461033b575b600080fd5b6102d36102ce3660046121b7565b6106c9565b60405190151581526020015b60405180910390f35b6102f0610700565b6040516102df919061220d565b6102d361030b36600461225c565b610792565b61032361031e366004612286565b6107a8565b005b61032d610836565b6040519081526020016102df565b6103236103493660046122a1565b610846565b6102d361035c3660046122c3565b61088e565b61032d61036f3660046122ff565b60009081526008602052604090206001015490565b600b546102d390600160a01b900460ff1681565b61032d7f3c11d16cbaffd01df69ce1c404f6340ee057498f5f00246190ea54220576a84881565b6103236103cd366004612318565b610938565b604051601281526020016102df565b600b546102d390600160a81b900460ff1681565b61032d610963565b61032361040b366004612318565b61096d565b6102d361041e36600461225c565b6109eb565b6102d3610a27565b61032361043936600461225c565b610a64565b61032361044c3660046122ff565b610a99565b6102d361045f366004612286565b6001600160a01b031660009081526006602052604090205460ff1690565b60075460ff166102d3565b61032d610496366004612286565b610aa6565b610323610ac4565b6103236104b136600461235a565b610afa565b6103236104c436600461225c565b610b3e565b61032d6104d7366004612286565b610bbf565b6102d3610bdd565b6000546001600160a01b03165b6040516001600160a01b0390911681526020016102df565b6000546001600160a01b03166104f1565b6102d3610528366004612318565b610c12565b6102f0610c3d565b600b546104f1906001600160a01b031681565b61032d600081565b6102d361055e36600461225c565b610c4c565b6102d361057136600461225c565b610ce5565b610323610cf2565b61032361058c36600461235a565b610d48565b61032361059f36600461225c565b610d86565b6103236105b2366004612286565b610db1565b6103236105c5366004612413565b610e56565b61032d7f9f2df0fed2c77648de5860a4cc508cd0818c85b8b8a1ab4ceeef8d981c8956a681565b6103236105ff366004612318565b610fba565b61032d600a5481565b61032d61061b366004612486565b6001600160a01b03918216600090815260026020908152604080832093909416825291909152205490565b6102d3610654366004612286565b60066020526000908152604090205460ff1681565b610323610677366004612286565b610fe0565b61032d7f65d7a28e3265b37a6474929f336521b332c1681b933f6cb9f3376673440d862a81565b6103236106b1366004612286565b61105b565b6103236106c4366004612286565b6110f3565b60006001600160e01b03198216637965db0b60e01b14806106fa57506301ffc9a760e01b6001600160e01b03198316145b92915050565b60606004805461070f906124b0565b80601f016020809104026020016040519081016040528092919081815260200182805461073b906124b0565b80156107885780601f1061075d57610100808354040283529160200191610788565b820191906000526020600020905b81548152906001019060200180831161076b57829003601f168201915b5050505050905090565b600061079f3384846112cd565b50600192915050565b6000546001600160a01b031633146107db5760405162461bcd60e51b81526004016107d2906124e5565b60405180910390fd5b6001600160a01b038116600081815260066020908152604091829020805460ff1916600117905590519182527f42e160154868087d6bfdc0ca23d96a1c1cfa32f1b72ba9ba27b69b98a0d819dc91015b60405180910390a150565b600061084160035490565b905090565b6000546001600160a01b031633146108705760405162461bcd60e51b81526004016107d2906124e5565b600b8054911515600160a01b0260ff60a01b19909216919091179055565b600061089b8484846113f1565b6001600160a01b0384166000908152600260209081526040808320338452909152902054828110156109205760405162461bcd60e51b815260206004820152602860248201527f45524332303a207472616e7366657220616d6f756e74206578636565647320616044820152676c6c6f77616e636560c01b60648201526084016107d2565b61092d85338584036112cd565b506001949350505050565b60008281526008602052604090206001015461095481336115ca565b61095e838361162e565b505050565b60006108416116b4565b6001600160a01b03811633146109dd5760405162461bcd60e51b815260206004820152602f60248201527f416363657373436f6e74726f6c3a2063616e206f6e6c792072656e6f756e636560448201526e103937b632b9903337b91039b2b63360891b60648201526084016107d2565b6109e782826117db565b5050565b3360008181526002602090815260408083206001600160a01b0387168452909152812054909161079f918590610a22908690612530565b6112cd565b60007f65d7a28e3265b37a6474929f336521b332c1681b933f6cb9f3376673440d862a610a5481336115ca565b610a5c611842565b600191505090565b7f9f2df0fed2c77648de5860a4cc508cd0818c85b8b8a1ab4ceeef8d981c8956a6610a8f81336115ca565b61095e83836118d5565b610aa3338261195f565b50565b6001600160a01b0381166000908152600160205260408120546106fa565b6000546001600160a01b03163314610aee5760405162461bcd60e51b81526004016107d2906124e5565b610af86000611969565b565b6000610b0681336115ca565b8251602084012080600c85604051610b1e9190612548565b90815260405190819003602001902055610b3881846117db565b50505050565b6000610b4a833361061b565b905081811015610ba85760405162461bcd60e51b8152602060048201526024808201527f45524332303a206275726e20616d6f756e74206578636565647320616c6c6f77604482015263616e636560e01b60648201526084016107d2565b610bb583338484036112cd565b61095e838361195f565b6001600160a01b0381166000908152600960205260408120546106fa565b60007f65d7a28e3265b37a6474929f336521b332c1681b933f6cb9f3376673440d862a610c0a81336115ca565b610a5c6119b9565b60009182526008602090815260408084206001600160a01b0393909316845291905290205460ff1690565b60606005805461070f906124b0565b3360009081526002602090815260408083206001600160a01b038616845290915281205482811015610cce5760405162461bcd60e51b815260206004820152602560248201527f45524332303a2064656372656173656420616c6c6f77616e63652062656c6f77604482015264207a65726f60d81b60648201526084016107d2565b610cdb33858584036112cd565b5060019392505050565b600061079f3384846113f1565b6000546001600160a01b03163314610d1c5760405162461bcd60e51b81526004016107d2906124e5565b600b54600160a81b900460ff1615610d3357600080fd5b600b805460ff60a81b1916600160a81b179055565b6000610d5481336115ca565b8251602084012080600c85604051610d6c9190612548565b90815260405190819003602001902055610b388184611a34565b7f3c11d16cbaffd01df69ce1c404f6340ee057498f5f00246190ea54220576a848610bb581336115ca565b6000546001600160a01b03163314610ddb5760405162461bcd60e51b81526004016107d2906124e5565b600b546001600160a01b031615610e345760405162461bcd60e51b815260206004820152601c60248201527f63616e206f6e6c7920626520696e697469616c697a6564206f6e63650000000060448201526064016107d2565b600b80546001600160a01b0319166001600160a01b0392909216919091179055565b83421115610ea65760405162461bcd60e51b815260206004820152601d60248201527f45524332305065726d69743a206578706972656420646561646c696e6500000060448201526064016107d2565b60007f0000000000000000000000000000000000000000000000000000000000000000888888610ed58c611a3e565b6040805160208101969096526001600160a01b0394851690860152929091166060840152608083015260a082015260c0810186905260e0016040516020818303038152906040528051906020012090506000610f3082611a66565b90506000610f4082878787611ab4565b9050896001600160a01b0316816001600160a01b031614610fa35760405162461bcd60e51b815260206004820152601e60248201527f45524332305065726d69743a20696e76616c6964207369676e6174757265000060448201526064016107d2565b610fae8a8a8a6112cd565b50505050505050505050565b600082815260086020526040902060010154610fd681336115ca565b61095e83836117db565b6000546001600160a01b0316331461100a5760405162461bcd60e51b81526004016107d2906124e5565b6001600160a01b038116600081815260066020908152604091829020805460ff1916905590519182527fd7e9ec6e6ecd65492dce6bf513cd6867560d49544421d0783ddf06e76c24470c910161082b565b6000546001600160a01b031633146110855760405162461bcd60e51b81526004016107d2906124e5565b6001600160a01b0381166110ea5760405162461bcd60e51b815260206004820152602660248201527f4f776e61626c653a206e6577206f776e657220697320746865207a65726f206160448201526564647265737360d01b60648201526084016107d2565b610aa381611969565b6000546001600160a01b0316331461111d5760405162461bcd60e51b81526004016107d2906124e5565b6001600160a01b03811660009081526006602052604090205460ff166111855760405162461bcd60e51b815260206004820152601760248201527f4552524f523a204e6f7420426c61636b206c697374656400000000000000000060448201526064016107d2565b600061119082610aa6565b905061119c828261195f565b604080516001600160a01b0384168152602081018390527f61e6e66b0d6339b2980aecc6ccc0039736791f0ccde9ed512e789a7fbdd698c6910160405180910390a15050565b6001600160a01b0382166112385760405162461bcd60e51b815260206004820152601f60248201527f45524332303a206d696e7420746f20746865207a65726f20616464726573730060448201526064016107d2565b61124460008383611adc565b80600360008282546112569190612530565b90915550506001600160a01b03821660009081526001602052604081208054839290611283908490612530565b90915550506040518181526001600160a01b038316906000907fddf252ad1be2c89b69c2b068fc378daa952ba7f163c4a11628f55a4df523b3ef9060200160405180910390a35050565b6001600160a01b03831661132f5760405162461bcd60e51b8152602060048201526024808201527f45524332303a20617070726f76652066726f6d20746865207a65726f206164646044820152637265737360e01b60648201526084016107d2565b6001600160a01b0382166113905760405162461bcd60e51b815260206004820152602260248201527f45524332303a20617070726f766520746f20746865207a65726f206164647265604482015261737360f01b60648201526084016107d2565b6001600160a01b0383811660008181526002602090815260408083209487168084529482529182902085905590518481527f8c5be1e5ebec7d5bd14f71427d1e84f3dd0314c0f7b2291e5b200ac8c7c3b925910160405180910390a3505050565b6001600160a01b0383166114555760405162461bcd60e51b815260206004820152602560248201527f45524332303a207472616e736665722066726f6d20746865207a65726f206164604482015264647265737360d81b60648201526084016107d2565b6001600160a01b0382166114b75760405162461bcd60e51b815260206004820152602360248201527f45524332303a207472616e7366657220746f20746865207a65726f206164647260448201526265737360e81b60648201526084016107d2565b6114c2838383611adc565b6001600160a01b0383166000908152600160205260409020548181101561153a5760405162461bcd60e51b815260206004820152602660248201527f45524332303a207472616e7366657220616d6f756e7420657863656564732062604482015265616c616e636560d01b60648201526084016107d2565b6001600160a01b03808516600090815260016020526040808220858503905591851681529081208054849290611571908490612530565b92505081905550826001600160a01b0316846001600160a01b03167fddf252ad1be2c89b69c2b068fc378daa952ba7f163c4a11628f55a4df523b3ef846040516115bd91815260200190565b60405180910390a3610b38565b6115d48282610c12565b6109e7576115ec816001600160a01b03166014611c12565b6115f7836020611c12565b604051602001611608929190612564565b60408051601f198184030181529082905262461bcd60e51b82526107d29160040161220d565b6116388282610c12565b6109e75760008281526008602090815260408083206001600160a01b03851684529091529020805460ff191660011790556116703390565b6001600160a01b0316816001600160a01b0316837f2f8788117e7eff1d82e926ec794901d17c78024a50270940304540a733656f0d60405160405180910390a45050565b6000306001600160a01b037f00000000000000000000000000000000000000000000000000000000000000001614801561170d57507f000000000000000000000000000000000000000000000000000000000000000046145b1561173757507f000000000000000000000000000000000000000000000000000000000000000090565b50604080517f00000000000000000000000000000000000000000000000000000000000000006020808301919091527f0000000000000000000000000000000000000000000000000000000000000000828401527f000000000000000000000000000000000000000000000000000000000000000060608301524660808301523060a0808401919091528351808403909101815260c0909201909252805191012090565b6117e58282610c12565b156109e75760008281526008602090815260408083206001600160a01b0385168085529252808320805460ff1916905551339285917ff6391f5c32d9c69d2a47ea670b442974b53935d1edc7fd64eb21e047a839171b9190a45050565b60075460ff1661188b5760405162461bcd60e51b815260206004820152601460248201527314185d5cd8589b194e881b9bdd081c185d5cd95960621b60448201526064016107d2565b6007805460ff191690557f5db9ee0a495bf2e6ff9c91a7834c1ba4fdd244a5e8aa4e537bd38aeae4b073aa335b6040516001600160a01b03909116815260200160405180910390a1565b600a54816118e1610836565b6118eb9190612530565b11156119555760405162461bcd60e51b815260206004820152603360248201527f4572726f723a204d617820737570706c7920726561636865642c20312042696c6044820152723634b7b7103a37b5b2b7399036b4b73a32b21760691b60648201526084016107d2565b6109e782826111e2565b6109e78282611db5565b600080546001600160a01b038381166001600160a01b0319831681178455604051919092169283917f8be0079c531659141344cd1fd0a4f28419497f9722a3daafe3b4186f6b6457e09190a35050565b60075460ff16156119ff5760405162461bcd60e51b815260206004820152601060248201526f14185d5cd8589b194e881c185d5cd95960821b60448201526064016107d2565b6007805460ff191660011790557f62e78cea01bee320cd4e420270b5ea74000d11b0c9f74754ebdbfc544b05a2586118b83390565b6109e7828261162e565b6001600160a01b03811660009081526009602052604090208054600181018255905b50919050565b60006106fa611a736116b4565b8360405161190160f01b6020820152602281018390526042810182905260009060620160405160208183030381529060405280519060200120905092915050565b6000806000611ac587878787611f0f565b91509150611ad281611ffc565b5095945050505050565b60075460ff1615611b225760405162461bcd60e51b815260206004820152601060248201526f14185d5cd8589b194e881c185d5cd95960821b60448201526064016107d2565b3360009081526006602052604090205460ff1615611b775760405162461bcd60e51b815260206004820152601260248201527111549493d48e88109b1858dadb1a5cdd195960721b60448201526064016107d2565b600b54600160a01b900460ff168015611b9a5750600b54600160a81b900460ff16155b1561095e57600b54604051637e2f3afd60e01b81526001600160a01b03858116600483015284811660248301526044820184905290911690637e2f3afd90606401600060405180830381600087803b158015611bf557600080fd5b505af1158015611c09573d6000803e3d6000fd5b50505050505050565b60606000611c218360026125d9565b611c2c906002612530565b67ffffffffffffffff811115611c4457611c44612344565b6040519080825280601f01601f191660200182016040528015611c6e576020820181803683370190505b509050600360fc1b81600081518110611c8957611c896125f8565b60200101906001600160f81b031916908160001a905350600f60fb1b81600181518110611cb857611cb86125f8565b60200101906001600160f81b031916908160001a9053506000611cdc8460026125d9565b611ce7906001612530565b90505b6001811115611d5f576f181899199a1a9b1b9c1cb0b131b232b360811b85600f1660108110611d1b57611d1b6125f8565b1a60f81b828281518110611d3157611d316125f8565b60200101906001600160f81b031916908160001a90535060049490941c93611d588161260e565b9050611cea565b508315611dae5760405162461bcd60e51b815260206004820181905260248201527f537472696e67733a20686578206c656e67746820696e73756666696369656e7460448201526064016107d2565b9392505050565b6001600160a01b038216611e155760405162461bcd60e51b815260206004820152602160248201527f45524332303a206275726e2066726f6d20746865207a65726f206164647265736044820152607360f81b60648201526084016107d2565b611e2182600083611adc565b6001600160a01b03821660009081526001602052604090205481811015611e955760405162461bcd60e51b815260206004820152602260248201527f45524332303a206275726e20616d6f756e7420657863656564732062616c616e604482015261636560f01b60648201526084016107d2565b6001600160a01b0383166000908152600160205260408120838303905560038054849290611ec4908490612625565b90915550506040518281526000906001600160a01b038516907fddf252ad1be2c89b69c2b068fc378daa952ba7f163c4a11628f55a4df523b3ef9060200160405180910390a3505050565b6000807f7fffffffffffffffffffffffffffffff5d576e7357a4501ddfe92f46681b20a0831115611f465750600090506003611ff3565b8460ff16601b14158015611f5e57508460ff16601c14155b15611f6f5750600090506004611ff3565b6040805160008082526020820180845289905260ff881692820192909252606081018690526080810185905260019060a0016020604051602081039080840390855afa158015611fc3573d6000803e3d6000fd5b5050604051601f1901519150506001600160a01b038116611fec57600060019250925050611ff3565b9150600090505b94509492505050565b60008160048111156120105761201061263c565b14156120195750565b600181600481111561202d5761202d61263c565b141561207b5760405162461bcd60e51b815260206004820152601860248201527f45434453413a20696e76616c6964207369676e6174757265000000000000000060448201526064016107d2565b600281600481111561208f5761208f61263c565b14156120dd5760405162461bcd60e51b815260206004820152601f60248201527f45434453413a20696e76616c6964207369676e6174757265206c656e6774680060448201526064016107d2565b60038160048111156120f1576120f161263c565b141561214a5760405162461bcd60e51b815260206004820152602260248201527f45434453413a20696e76616c6964207369676e6174757265202773272076616c604482015261756560f01b60648201526084016107d2565b600481600481111561215e5761215e61263c565b1415610aa35760405162461bcd60e51b815260206004820152602260248201527f45434453413a20696e76616c6964207369676e6174757265202776272076616c604482015261756560f01b60648201526084016107d2565b6000602082840312156121c957600080fd5b81356001600160e01b031981168114611dae57600080fd5b60005b838110156121fc5781810151838201526020016121e4565b83811115610b385750506000910152565b602081526000825180602084015261222c8160408501602087016121e1565b601f01601f19169190910160400192915050565b80356001600160a01b038116811461225757600080fd5b919050565b6000806040838503121561226f57600080fd5b61227883612240565b946020939093013593505050565b60006020828403121561229857600080fd5b611dae82612240565b6000602082840312156122b357600080fd5b81358015158114611dae57600080fd5b6000806000606084860312156122d857600080fd5b6122e184612240565b92506122ef60208501612240565b9150604084013590509250925092565b60006020828403121561231157600080fd5b5035919050565b6000806040838503121561232b57600080fd5b8235915061233b60208401612240565b90509250929050565b634e487b7160e01b600052604160045260246000fd5b6000806040838503121561236d57600080fd5b823567ffffffffffffffff8082111561238557600080fd5b818501915085601f83011261239957600080fd5b8135818111156123ab576123ab612344565b604051601f8201601f19908116603f011681019083821181831017156123d3576123d3612344565b816040528281528860208487010111156123ec57600080fd5b82602086016020830137600060208483010152809650505050505061233b60208401612240565b600080600080600080600060e0888a03121561242e57600080fd5b61243788612240565b965061244560208901612240565b95506040880135945060608801359350608088013560ff8116811461246957600080fd5b9699959850939692959460a0840135945060c09093013592915050565b6000806040838503121561249957600080fd5b6124a283612240565b915061233b60208401612240565b600181811c908216806124c457607f821691505b60208210811415611a6057634e487b7160e01b600052602260045260246000fd5b6020808252818101527f4f776e61626c653a2063616c6c6572206973206e6f7420746865206f776e6572604082015260600190565b634e487b7160e01b600052601160045260246000fd5b600082198211156125435761254361251a565b500190565b6000825161255a8184602087016121e1565b9190910192915050565b7f416363657373436f6e74726f6c3a206163636f756e742000000000000000000081526000835161259c8160178501602088016121e1565b7001034b99036b4b9b9b4b733903937b6329607d1b60179184019182015283516125cd8160288401602088016121e1565b01602801949350505050565b60008160001904831182151516156125f3576125f361251a565b500290565b634e487b7160e01b600052603260045260246000fd5b60008161261d5761261d61251a565b506000190190565b6000828210156126375761263761251a565b500390565b634e487b7160e01b600052602160045260246000fdfea2646970667358221220fb7176039bedb1861f69e5439015ebe09c0013fa333b45fda8802c981c26a14a64736f6c634300080a0033",
  "linkReferences": {},
  "deployedLinkReferences": {}
}