{
  "_format": "hh-sol-artifact-1",
  "contractName": "LFIToken",
  "sourceName": "contracts/LFIToken.sol",
  "abi": [
    {
      "inputs": [
        {
          "internalType": "uint256",
          "name": "supply",
          "type": "uint256"
        }
      ],
      "stateMutability": "nonpayable",
      "type": "constructor"
    },
    {
      "anonymous": false,
      "inputs": [
        {
          "indexed": true,
          "internalType": "address",
          "name": "owner",
          "type": "address"
        },
        {
          "indexed": true,
          "internalType": "address",
          "name": "spender",
          "type": "address"
        },
        {
          "indexed": false,
          "internalType": "uint256",
          "name": "value",
          "type": "uint256"
        }
      ],
      "name": "Approval",
      "type": "event"
    },
    {
      "anonymous": false,
      "inputs": [
        {
          "indexed": false,
          "internalType": "address",
          "name": "account",
          "type": "address"
        }
      ],
      "name": "Paused",
      "type": "event"
    },
    {
      "anonymous": false,
      "inputs": [
        {
          "indexed": true,
          "internalType": "bytes32",
          "name": "role",
          "type": "bytes32"
        },
        {
          "indexed": true,
          "internalType": "bytes32",
          "name": "previousAdminRole",
          "type": "bytes32"
        },
        {
          "indexed": true,
          "internalType": "bytes32",
          "name": "newAdminRole",
          "type": "bytes32"
        }
      ],
      "name": "RoleAdminChanged",
      "type": "event"
    },
    {
      "anonymous": false,
      "inputs": [
        {
          "indexed": true,
          "internalType": "bytes32",
          "name": "role",
          "type": "bytes32"
        },
        {
          "indexed": true,
          "internalType": "address",
          "name": "account",
          "type": "address"
        },
        {
          "indexed": true,
          "internalType": "address",
          "name": "sender",
          "type": "address"
        }
      ],
      "name": "RoleGranted",
      "type": "event"
    },
    {
      "anonymous": false,
      "inputs": [
        {
          "indexed": true,
          "internalType": "bytes32",
          "name": "role",
          "type": "bytes32"
        },
        {
          "indexed": true,
          "internalType": "address",
          "name": "account",
          "type": "address"
        },
        {
          "indexed": true,
          "internalType": "address",
          "name": "sender",
          "type": "address"
        }
      ],
      "name": "RoleRevoked",
      "type": "event"
    },
    {
      "anonymous": false,
      "inputs": [
        {
          "indexed": true,
          "internalType": "address",
          "name": "from",
          "type": "address"
        },
        {
          "indexed": true,
          "internalType": "address",
          "name": "to",
          "type": "address"
        },
        {
          "indexed": false,
          "internalType": "uint256",
          "name": "value",
          "type": "uint256"
        }
      ],
      "name": "Transfer",
      "type": "event"
    },
    {
      "anonymous": false,
      "inputs": [
        {
          "indexed": false,
          "internalType": "address",
          "name": "account",
          "type": "address"
        }
      ],
      "name": "Unpaused",
      "type": "event"
    },
    {
      "inputs": [],
      "name": "BP",
      "outputs": [
        {
          "internalType": "contract BPContract",
          "name": "",
          "type": "address"
        }
      ],
      "stateMutability": "view",
      "type": "function"
    },
    {
      "inputs": [],
      "name": "BPDisabledForever",
      "outputs": [
        {
          "internalType": "bool",
          "name": "",
          "type": "bool"
        }
      ],
      "stateMutability": "view",
      "type": "function"
    },
    {
      "inputs": [],
      "name": "BURNER_ROLE",
      "outputs": [
        {
          "internalType": "bytes32",
          "name": "",
          "type": "bytes32"
        }
      ],
      "stateMutability": "view",
      "type": "function"
    },
    {
      "inputs": [],
      "name": "DEFAULT_ADMIN_ROLE",
      "outputs": [
        {
          "internalType": "bytes32",
          "name": "",
          "type": "bytes32"
        }
      ],
      "stateMutability": "view",
      "type": "function"
    },
    {
      "inputs": [],
      "name": "DOMAIN_SEPARATOR",
      "outputs": [
        {
          "internalType": "bytes32",
          "name": "",
          "type": "bytes32"
        }
      ],
      "stateMutability": "view",
      "type": "function"
    },
    {
      "inputs": [],
      "name": "MANAGER_ROLE",
      "outputs": [
        {
          "internalType": "bytes32",
          "name": "",
          "type": "bytes32"
        }
      ],
      "stateMutability": "view",
      "type": "function"
    },
    {
      "inputs": [],
      "name": "MINTER_ROLE",
      "outputs": [
        {
          "internalType": "bytes32",
          "name": "",
          "type": "bytes32"
        }
      ],
      "stateMutability": "view",
      "type": "function"
    },
    {
      "inputs": [],
      "name": "PAUSER_ROLE",
      "outputs": [
        {
          "internalType": "bytes32",
          "name": "",
          "type": "bytes32"
        }
      ],
      "stateMutability": "view",
      "type": "function"
    },
    {
      "inputs": [
        {
          "internalType": "address",
          "name": "owner",
          "type": "address"
        },
        {
          "internalType": "address",
          "name": "spender",
          "type": "address"
        }
      ],
      "name": "allowance",
      "outputs": [
        {
          "internalType": "uint256",
          "name": "",
          "type": "uint256"
        }
      ],
      "stateMutability": "view",
      "type": "function"
    },
    {
      "inputs": [
        {
          "internalType": "address",
          "name": "spender",
          "type": "address"
        },
        {
          "internalType": "uint256",
          "name": "amount",
          "type": "uint256"
        }
      ],
      "name": "approve",
      "outputs": [
        {
          "internalType": "bool",
          "name": "",
          "type": "bool"
        }
      ],
      "stateMutability": "nonpayable",
      "type": "function"
    },
    {
      "inputs": [
        {
          "internalType": "address",
          "name": "account",
          "type": "address"
        }
      ],
      "name": "balanceOf",
      "outputs": [
        {
          "internalType": "uint256",
          "name": "",
          "type": "uint256"
        }
      ],
      "stateMutability": "view",
      "type": "function"
    },
    {
      "inputs": [],
      "name": "bpEnabled",
      "outputs": [
        {
          "internalType": "bool",
          "name": "",
          "type": "bool"
        }
      ],
      "stateMutability": "view",
      "type": "function"
    },
    {
      "inputs": [
        {
          "internalType": "uint256",
          "name": "amount",
          "type": "uint256"
        }
      ],
      "name": "burn",
      "outputs": [],
      "stateMutability": "nonpayable",
      "type": "function"
    },
    {
      "inputs": [
        {
          "internalType": "address",
          "name": "account",
          "type": "address"
        },
        {
          "internalType": "uint256",
          "name": "amount",
          "type": "uint256"
        }
      ],
      "name": "burnFrom",
      "outputs": [],
      "stateMutability": "nonpayable",
      "type": "function"
    },
    {
      "inputs": [
        {
          "internalType": "address",
          "name": "account",
          "type": "address"
        },
        {
          "internalType": "uint256",
          "name": "amount",
          "type": "uint256"
        }
      ],
      "name": "burnToken",
      "outputs": [],
      "stateMutability": "nonpayable",
      "type": "function"
    },
    {
      "inputs": [],
      "name": "decimals",
      "outputs": [
        {
          "internalType": "uint8",
          "name": "",
          "type": "uint8"
        }
      ],
      "stateMutability": "pure",
      "type": "function"
    },
    {
      "inputs": [
        {
          "internalType": "address",
          "name": "spender",
          "type": "address"
        },
        {
          "internalType": "uint256",
          "name": "subtractedValue",
          "type": "uint256"
        }
      ],
      "name": "decreaseAllowance",
      "outputs": [
        {
          "internalType": "bool",
          "name": "",
          "type": "bool"
        }
      ],
      "stateMutability": "nonpayable",
      "type": "function"
    },
    {
      "inputs": [
        {
          "internalType": "bytes32",
          "name": "role",
          "type": "bytes32"
        }
      ],
      "name": "getRoleAdmin",
      "outputs": [
        {
          "internalType": "bytes32",
          "name": "",
          "type": "bytes32"
        }
      ],
      "stateMutability": "view",
      "type": "function"
    },
    {
      "inputs": [
        {
          "internalType": "bytes32",
          "name": "role",
          "type": "bytes32"
        },
        {
          "internalType": "address",
          "name": "account",
          "type": "address"
        }
      ],
      "name": "grantRole",
      "outputs": [],
      "stateMutability": "nonpayable",
      "type": "function"
    },
    {
      "inputs": [
        {
          "internalType": "bytes32",
          "name": "role",
          "type": "bytes32"
        },
        {
          "internalType": "address",
          "name": "account",
          "type": "address"
        }
      ],
      "name": "hasRole",
      "outputs": [
        {
          "internalType": "bool",
          "name": "",
          "type": "bool"
        }
      ],
      "stateMutability": "view",
      "type": "function"
    },
    {
      "inputs": [
        {
          "internalType": "address",
          "name": "spender",
          "type": "address"
        },
        {
          "internalType": "uint256",
          "name": "addedValue",
          "type": "uint256"
        }
      ],
      "name": "increaseAllowance",
      "outputs": [
        {
          "internalType": "bool",
          "name": "",
          "type": "bool"
        }
      ],
      "stateMutability": "nonpayable",
      "type": "function"
    },
    {
      "inputs": [],
      "name": "maxSupply",
      "outputs": [
        {
          "internalType": "uint256",
          "name": "",
          "type": "uint256"
        }
      ],
      "stateMutability": "view",
      "type": "function"
    },
    {
      "inputs": [
        {
          "internalType": "address",
          "name": "to",
          "type": "address"
        },
        {
          "internalType": "uint256",
          "name": "amount",
          "type": "uint256"
        }
      ],
      "name": "mint",
      "outputs": [],
      "stateMutability": "nonpayable",
      "type": "function"
    },
    {
      "inputs": [],
      "name": "name",
      "outputs": [
        {
          "internalType": "string",
          "name": "",
          "type": "string"
        }
      ],
      "stateMutability": "view",
      "type": "function"
    },
    {
      "inputs": [
        {
          "internalType": "address",
          "name": "owner",
          "type": "address"
        }
      ],
      "name": "nonces",
      "outputs": [
        {
          "internalType": "uint256",
          "name": "",
          "type": "uint256"
        }
      ],
      "stateMutability": "view",
      "type": "function"
    },
    {
      "inputs": [],
      "name": "pause",
      "outputs": [
        {
          "internalType": "bool",
          "name": "",
          "type": "bool"
        }
      ],
      "stateMutability": "nonpayable",
      "type": "function"
    },
    {
      "inputs": [],
      "name": "paused",
      "outputs": [
        {
          "internalType": "bool",
          "name": "",
          "type": "bool"
        }
      ],
      "stateMutability": "view",
      "type": "function"
    },
    {
      "inputs": [
        {
          "internalType": "address",
          "name": "owner",
          "type": "address"
        },
        {
          "internalType": "address",
          "name": "spender",
          "type": "address"
        },
        {
          "internalType": "uint256",
          "name": "value",
          "type": "uint256"
        },
        {
          "internalType": "uint256",
          "name": "deadline",
          "type": "uint256"
        },
        {
          "internalType": "uint8",
          "name": "v",
          "type": "uint8"
        },
        {
          "internalType": "bytes32",
          "name": "r",
          "type": "bytes32"
        },
        {
          "internalType": "bytes32",
          "name": "s",
          "type": "bytes32"
        }
      ],
      "name": "permit",
      "outputs": [],
      "stateMutability": "nonpayable",
      "type": "function"
    },
    {
      "inputs": [
        {
          "internalType": "bytes32",
          "name": "role",
          "type": "bytes32"
        },
        {
          "internalType": "address",
          "name": "account",
          "type": "address"
        }
      ],
      "name": "renounceRole",
      "outputs": [],
      "stateMutability": "nonpayable",
      "type": "function"
    },
    {
      "inputs": [
        {
          "internalType": "string",
          "name": "role",
          "type": "string"
        },
        {
          "internalType": "address",
          "name": "revoke",
          "type": "address"
        }
      ],
      "name": "revokeRole",
      "outputs": [],
      "stateMutability": "nonpayable",
      "type": "function"
    },
    {
      "inputs": [
        {
          "internalType": "bytes32",
          "name": "role",
          "type": "bytes32"
        },
        {
          "internalType": "address",
          "name": "account",
          "type": "address"
        }
      ],
      "name": "revokeRole",
      "outputs": [],
      "stateMutability": "nonpayable",
      "type": "function"
    },
    {
      "inputs": [
        {
          "internalType": "address",
          "name": "_bp",
          "type": "address"
        }
      ],
      "name": "setBPAddress",
      "outputs": [],
      "stateMutability": "nonpayable",
      "type": "function"
    },
    {
      "inputs": [],
      "name": "setBotProtectionDisableForever",
      "outputs": [],
      "stateMutability": "nonpayable",
      "type": "function"
    },
    {
      "inputs": [
        {
          "internalType": "bool",
          "name": "_enabled",
          "type": "bool"
        }
      ],
      "name": "setBpEnabled",
      "outputs": [],
      "stateMutability": "nonpayable",
      "type": "function"
    },
    {
      "inputs": [
        {
          "internalType": "string",
          "name": "role",
          "type": "string"
        },
        {
          "internalType": "address",
          "name": "add",
          "type": "address"
        }
      ],
      "name": "setRole",
      "outputs": [],
      "stateMutability": "nonpayable",
      "type": "function"
    },
    {
      "inputs": [
        {
          "internalType": "bytes4",
          "name": "interfaceId",
          "type": "bytes4"
        }
      ],
      "name": "supportsInterface",
      "outputs": [
        {
          "internalType": "bool",
          "name": "",
          "type": "bool"
        }
      ],
      "stateMutability": "view",
      "type": "function"
    },
    {
      "inputs": [],
      "name": "symbol",
      "outputs": [
        {
          "internalType": "string",
          "name": "",
          "type": "string"
        }
      ],
      "stateMutability": "view",
      "type": "function"
    },
    {
      "inputs": [],
      "name": "totalSupply",
      "outputs": [
        {
          "internalType": "uint256",
          "name": "",
          "type": "uint256"
        }
      ],
      "stateMutability": "view",
      "type": "function"
    },
    {
      "inputs": [
        {
          "internalType": "address",
          "name": "recipient",
          "type": "address"
        },
        {
          "internalType": "uint256",
          "name": "amount",
          "type": "uint256"
        }
      ],
      "name": "transfer",
      "outputs": [
        {
          "internalType": "bool",
          "name": "",
          "type": "bool"
        }
      ],
      "stateMutability": "nonpayable",
      "type": "function"
    },
    {
      "inputs": [
        {
          "internalType": "address",
          "name": "sender",
          "type": "address"
        },
        {
          "internalType": "address",
          "name": "recipient",
          "type": "address"
        },
        {
          "internalType": "uint256",
          "name": "amount",
          "type": "uint256"
        }
      ],
      "name": "transferFrom",
      "outputs": [
        {
          "internalType": "bool",
          "name": "",
          "type": "bool"
        }
      ],
      "stateMutability": "nonpayable",
      "type": "function"
    },
    {
      "inputs": [],
      "name": "unpause",
      "outputs": [
        {
          "internalType": "bool",
          "name": "",
          "type": "bool"
        }
      ],
      "stateMutability": "nonpayable",
      "type": "function"
    }
  ],
  "bytecode": "0x6101606040527f6e71edae12b1b97f4d1f60370fef10105fa2faae0126114a169c64845d6126c9610140526009805460ff60a81b191690553480156200004457600080fd5b506040516200296938038062002969833981016040819052620000679162000586565b60405180604001604052806008815260200167262324aa37b5b2b760c11b81525080604051806040016040528060018152602001603160f81b81525060405180604001604052806008815260200167262324aa37b5b2b760c11b815250604051806040016040528060038152602001624c464960e81b8152508160039080519060200190620000f8929190620004e0565b5080516200010e906004906020840190620004e0565b50506005805460ff1916905550815160209283012081519183019190912060e08290526101008190524660a0818152604080517f8b73c3c69bb8fe3d512ecc4cf759cc79239f7b179b0ffacaa9a75d522b39400f818801819052818301969096526060810194909452608080850193909352308483018190528151808603909301835260c0948501909152815191909501209052919091526101205250620001b96012600a620006b3565b620001c59082620006cb565b600881905550620001e4336008546200022460201b62000ddd1760201c565b620001f160003362000329565b6200021d7f241ecf16d79d0f8dbfb92cbc07fe17840425976cf0667f022fe9877caa831b083362000329565b5062000745565b6001600160a01b038216620002805760405162461bcd60e51b815260206004820152601f60248201527f45524332303a206d696e7420746f20746865207a65726f20616464726573730060448201526064015b60405180910390fd5b6200028e60008383620003b3565b8060026000828254620002a29190620006ed565b90915550506001600160a01b03821660009081526020819052604081208054839290620002d1908490620006ed565b90915550506040518181526001600160a01b038316906000907fddf252ad1be2c89b69c2b068fc378daa952ba7f163c4a11628f55a4df523b3ef9060200160405180910390a3620003256000838362000496565b5050565b620003358282620004b3565b620003255760008281526007602090815260408083206001600160a01b03851684529091529020805460ff191660011790556200036f3390565b6001600160a01b0316816001600160a01b0316837f2f8788117e7eff1d82e926ec794901d17c78024a50270940304540a733656f0d60405160405180910390a45050565b60055460ff1615620003fb5760405162461bcd60e51b815260206004820152601060248201526f14185d5cd8589b194e881c185d5cd95960821b604482015260640162000277565b600954600160a01b900460ff1680156200041f5750600954600160a81b900460ff16155b156200049657600954604051637e2f3afd60e01b81526001600160a01b03858116600483015284811660248301526044820184905290911690637e2f3afd90606401600060405180830381600087803b1580156200047c57600080fd5b505af115801562000491573d6000803e3d6000fd5b505050505b620004ae838383620004ae60201b620007b11760201c565b505050565b60008281526007602090815260408083206001600160a01b038516845290915290205460ff165b92915050565b828054620004ee9062000708565b90600052602060002090601f0160209004810192826200051257600085556200055d565b82601f106200052d57805160ff19168380011785556200055d565b828001600101855582156200055d579182015b828111156200055d57825182559160200191906001019062000540565b506200056b9291506200056f565b5090565b5b808211156200056b576000815560010162000570565b6000602082840312156200059957600080fd5b5051919050565b634e487b7160e01b600052601160045260246000fd5b600181815b80851115620005f7578160001904821115620005db57620005db620005a0565b80851615620005e957918102915b93841c9390800290620005bb565b509250929050565b6000826200061057506001620004da565b816200061f57506000620004da565b8160018114620006385760028114620006435762000663565b6001915050620004da565b60ff841115620006575762000657620005a0565b50506001821b620004da565b5060208310610133831016604e8410600b841016171562000688575081810a620004da565b620006948383620005b6565b8060001904821115620006ab57620006ab620005a0565b029392505050565b6000620006c460ff841683620005ff565b9392505050565b6000816000190483118215151615620006e857620006e8620005a0565b500290565b60008219821115620007035762000703620005a0565b500190565b600181811c908216806200071d57607f821691505b602082108114156200073f57634e487b7160e01b600052602260045260246000fd5b50919050565b60805160a05160c05160e0516101005161012051610140516121c9620007a06000396000610ca7015260006113390152600061138801526000611363015260006112bc015260006112e60152600061131001526121c96000f3fe608060405234801561001057600080fd5b50600436106102535760003560e01c8063731f21a011610146578063c818c280116100c3578063d539139311610087578063d5391393146104fd578063d547741f14610524578063d5abeb0114610537578063dd62ed3e14610540578063e63ab1e914610579578063ec87621c146105a057600080fd5b8063c818c280146104a9578063cfde1890146104b1578063d1df306c146104c4578063d39b7e4f146104d7578063d505accf146104ea57600080fd5b806395d89b411161010a57806395d89b41146104485780639cfdbd5e14610450578063a217fddf1461047b578063a457c2d714610483578063a9059cbb1461049657600080fd5b8063731f21a0146103f457806379cc6790146104075780637ecebe001461041a5780638456cb591461042d57806391d148541461043557600080fd5b8063313ce567116101d45780633f4ba83a116101985780633f4ba83a146103a857806340c10f19146103b057806342966c68146103c35780635c975abb146103d657806370a08231146103e157600080fd5b8063313ce5671461035757806334616805146103665780633644e5151461037a57806336568abe14610382578063395093511461039557600080fd5b806323b872dd1161021b57806323b872dd146102d3578063248a9ca3146102e657806326898da914610309578063282c51f31461031d5780632f2ff15d1461034457600080fd5b806301ffc9a71461025857806306fdde0314610280578063095ea7b31461029557806318160ddd146102a8578063206a8a22146102be575b600080fd5b61026b610266366004611d0d565b6105b5565b60405190151581526020015b60405180910390f35b6102886105ec565b6040516102779190611d63565b61026b6102a3366004611db2565b61067e565b6102b0610694565b604051908152602001610277565b6102d16102cc366004611ddc565b6106a4565b005b61026b6102e1366004611dfe565b6106dc565b6102b06102f4366004611e3a565b60009081526007602052604090206001015490565b60095461026b90600160a01b900460ff1681565b6102b07f3c11d16cbaffd01df69ce1c404f6340ee057498f5f00246190ea54220576a84881565b6102d1610352366004611e53565b61078b565b60405160128152602001610277565b60095461026b90600160a81b900460ff1681565b6102b06107b6565b6102d1610390366004611e53565b6107c0565b61026b6103a3366004611db2565b61083e565b61026b61087a565b6102d16103be366004611db2565b6108b7565b6102d16103d1366004611e3a565b6108ec565b60055460ff1661026b565b6102b06103ef366004611e7f565b6108f9565b6102d1610402366004611eb0565b610917565b6102d1610415366004611db2565b61095b565b6102b0610428366004611e7f565b6109dc565b61026b6109fa565b61026b610443366004611e53565b610a2f565b610288610a5a565b600954610463906001600160a01b031681565b6040516001600160a01b039091168152602001610277565b6102b0600081565b61026b610491366004611db2565b610a69565b61026b6104a4366004611db2565b610b02565b6102d1610b0f565b6102d16104bf366004611eb0565b610b55565b6102d16104d2366004611db2565b610b93565b6102d16104e5366004611e7f565b610bbe565b6102d16104f8366004611f69565b610c53565b6102b07f9f2df0fed2c77648de5860a4cc508cd0818c85b8b8a1ab4ceeef8d981c8956a681565b6102d1610532366004611e53565b610db7565b6102b060085481565b6102b061054e366004611fdc565b6001600160a01b03918216600090815260016020908152604080832093909416825291909152205490565b6102b07f65d7a28e3265b37a6474929f336521b332c1681b933f6cb9f3376673440d862a81565b6102b060008051602061217483398151915281565b60006001600160e01b03198216637965db0b60e01b14806105e657506301ffc9a760e01b6001600160e01b03198316145b92915050565b6060600380546105fb90612006565b80601f016020809104026020016040519081016040528092919081815260200182805461062790612006565b80156106745780601f1061064957610100808354040283529160200191610674565b820191906000526020600020905b81548152906001019060200180831161065757829003601f168201915b5050505050905090565b600061068b338484610ec8565b50600192915050565b600061069f60025490565b905090565b6000805160206121748339815191526106bd8133610fec565b5060098054911515600160a01b0260ff60a01b19909216919091179055565b60006106e9848484611050565b6001600160a01b0384166000908152600160209081526040808320338452909152902054828110156107735760405162461bcd60e51b815260206004820152602860248201527f45524332303a207472616e7366657220616d6f756e74206578636565647320616044820152676c6c6f77616e636560c01b60648201526084015b60405180910390fd5b6107808533858403610ec8565b506001949350505050565b6000828152600760205260409020600101546107a78133610fec565b6107b18383611229565b505050565b600061069f6112af565b6001600160a01b03811633146108305760405162461bcd60e51b815260206004820152602f60248201527f416363657373436f6e74726f6c3a2063616e206f6e6c792072656e6f756e636560448201526e103937b632b9903337b91039b2b63360891b606482015260840161076a565b61083a82826113d6565b5050565b3360008181526001602090815260408083206001600160a01b0387168452909152812054909161068b918590610875908690612051565b610ec8565b60007f65d7a28e3265b37a6474929f336521b332c1681b933f6cb9f3376673440d862a6108a78133610fec565b6108af61143d565b600191505090565b7f9f2df0fed2c77648de5860a4cc508cd0818c85b8b8a1ab4ceeef8d981c8956a66108e28133610fec565b6107b183836114d0565b6108f6338261155a565b50565b6001600160a01b0381166000908152602081905260408120546105e6565b60006109238133610fec565b8251602084012080600a8560405161093b9190612069565b9081526040519081900360200190205561095581846113d6565b50505050565b6000610967833361054e565b9050818110156109c55760405162461bcd60e51b8152602060048201526024808201527f45524332303a206275726e20616d6f756e74206578636565647320616c6c6f77604482015263616e636560e01b606482015260840161076a565b6109d28333848403610ec8565b6107b1838361155a565b6001600160a01b0381166000908152600660205260408120546105e6565b60007f65d7a28e3265b37a6474929f336521b332c1681b933f6cb9f3376673440d862a610a278133610fec565b6108af611564565b60009182526007602090815260408084206001600160a01b0393909316845291905290205460ff1690565b6060600480546105fb90612006565b3360009081526001602090815260408083206001600160a01b038616845290915281205482811015610aeb5760405162461bcd60e51b815260206004820152602560248201527f45524332303a2064656372656173656420616c6c6f77616e63652062656c6f77604482015264207a65726f60d81b606482015260840161076a565b610af83385858403610ec8565b5060019392505050565b600061068b338484611050565b600080516020612174833981519152610b288133610fec565b600954600160a81b900460ff1615610b3f57600080fd5b506009805460ff60a81b1916600160a81b179055565b6000610b618133610fec565b8251602084012080600a85604051610b799190612069565b9081526040519081900360200190205561095581846115df565b7f3c11d16cbaffd01df69ce1c404f6340ee057498f5f00246190ea54220576a8486109d28133610fec565b600080516020612174833981519152610bd78133610fec565b6009546001600160a01b031615610c305760405162461bcd60e51b815260206004820152601c60248201527f63616e206f6e6c7920626520696e697469616c697a6564206f6e636500000000604482015260640161076a565b50600980546001600160a01b0319166001600160a01b0392909216919091179055565b83421115610ca35760405162461bcd60e51b815260206004820152601d60248201527f45524332305065726d69743a206578706972656420646561646c696e65000000604482015260640161076a565b60007f0000000000000000000000000000000000000000000000000000000000000000888888610cd28c6115e9565b6040805160208101969096526001600160a01b0394851690860152929091166060840152608083015260a082015260c0810186905260e0016040516020818303038152906040528051906020012090506000610d2d82611611565b90506000610d3d8287878761165f565b9050896001600160a01b0316816001600160a01b031614610da05760405162461bcd60e51b815260206004820152601e60248201527f45524332305065726d69743a20696e76616c6964207369676e61747572650000604482015260640161076a565b610dab8a8a8a610ec8565b50505050505050505050565b600082815260076020526040902060010154610dd38133610fec565b6107b183836113d6565b6001600160a01b038216610e335760405162461bcd60e51b815260206004820152601f60248201527f45524332303a206d696e7420746f20746865207a65726f206164647265737300604482015260640161076a565b610e3f60008383611687565b8060026000828254610e519190612051565b90915550506001600160a01b03821660009081526020819052604081208054839290610e7e908490612051565b90915550506040518181526001600160a01b038316906000907fddf252ad1be2c89b69c2b068fc378daa952ba7f163c4a11628f55a4df523b3ef9060200160405180910390a35050565b6001600160a01b038316610f2a5760405162461bcd60e51b8152602060048201526024808201527f45524332303a20617070726f76652066726f6d20746865207a65726f206164646044820152637265737360e01b606482015260840161076a565b6001600160a01b038216610f8b5760405162461bcd60e51b815260206004820152602260248201527f45524332303a20617070726f766520746f20746865207a65726f206164647265604482015261737360f01b606482015260840161076a565b6001600160a01b0383811660008181526001602090815260408083209487168084529482529182902085905590518481527f8c5be1e5ebec7d5bd14f71427d1e84f3dd0314c0f7b2291e5b200ac8c7c3b925910160405180910390a3505050565b610ff68282610a2f565b61083a5761100e816001600160a01b03166014611768565b611019836020611768565b60405160200161102a929190612085565b60408051601f198184030181529082905262461bcd60e51b825261076a91600401611d63565b6001600160a01b0383166110b45760405162461bcd60e51b815260206004820152602560248201527f45524332303a207472616e736665722066726f6d20746865207a65726f206164604482015264647265737360d81b606482015260840161076a565b6001600160a01b0382166111165760405162461bcd60e51b815260206004820152602360248201527f45524332303a207472616e7366657220746f20746865207a65726f206164647260448201526265737360e81b606482015260840161076a565b611121838383611687565b6001600160a01b038316600090815260208190526040902054818110156111995760405162461bcd60e51b815260206004820152602660248201527f45524332303a207472616e7366657220616d6f756e7420657863656564732062604482015265616c616e636560d01b606482015260840161076a565b6001600160a01b038085166000908152602081905260408082208585039055918516815290812080548492906111d0908490612051565b92505081905550826001600160a01b0316846001600160a01b03167fddf252ad1be2c89b69c2b068fc378daa952ba7f163c4a11628f55a4df523b3ef8460405161121c91815260200190565b60405180910390a3610955565b6112338282610a2f565b61083a5760008281526007602090815260408083206001600160a01b03851684529091529020805460ff1916600117905561126b3390565b6001600160a01b0316816001600160a01b0316837f2f8788117e7eff1d82e926ec794901d17c78024a50270940304540a733656f0d60405160405180910390a45050565b6000306001600160a01b037f00000000000000000000000000000000000000000000000000000000000000001614801561130857507f000000000000000000000000000000000000000000000000000000000000000046145b1561133257507f000000000000000000000000000000000000000000000000000000000000000090565b50604080517f00000000000000000000000000000000000000000000000000000000000000006020808301919091527f0000000000000000000000000000000000000000000000000000000000000000828401527f000000000000000000000000000000000000000000000000000000000000000060608301524660808301523060a0808401919091528351808403909101815260c0909201909252805191012090565b6113e08282610a2f565b1561083a5760008281526007602090815260408083206001600160a01b0385168085529252808320805460ff1916905551339285917ff6391f5c32d9c69d2a47ea670b442974b53935d1edc7fd64eb21e047a839171b9190a45050565b60055460ff166114865760405162461bcd60e51b815260206004820152601460248201527314185d5cd8589b194e881b9bdd081c185d5cd95960621b604482015260640161076a565b6005805460ff191690557f5db9ee0a495bf2e6ff9c91a7834c1ba4fdd244a5e8aa4e537bd38aeae4b073aa335b6040516001600160a01b03909116815260200160405180910390a1565b600854816114dc610694565b6114e69190612051565b11156115505760405162461bcd60e51b815260206004820152603360248201527f4572726f723a204d617820737570706c7920726561636865642c20312042696c6044820152723634b7b7103a37b5b2b7399036b4b73a32b21760691b606482015260840161076a565b61083a8282610ddd565b61083a828261190b565b60055460ff16156115aa5760405162461bcd60e51b815260206004820152601060248201526f14185d5cd8589b194e881c185d5cd95960821b604482015260640161076a565b6005805460ff191660011790557f62e78cea01bee320cd4e420270b5ea74000d11b0c9f74754ebdbfc544b05a2586114b33390565b61083a8282611229565b6001600160a01b03811660009081526006602052604090208054600181018255905b50919050565b60006105e661161e6112af565b8360405161190160f01b6020820152602281018390526042810182905260009060620160405160208183030381529060405280519060200120905092915050565b600080600061167087878787611a65565b9150915061167d81611b52565b5095945050505050565b60055460ff16156116cd5760405162461bcd60e51b815260206004820152601060248201526f14185d5cd8589b194e881c185d5cd95960821b604482015260640161076a565b600954600160a01b900460ff1680156116f05750600954600160a81b900460ff16155b156107b157600954604051637e2f3afd60e01b81526001600160a01b03858116600483015284811660248301526044820184905290911690637e2f3afd90606401600060405180830381600087803b15801561174b57600080fd5b505af115801561175f573d6000803e3d6000fd5b50505050505050565b606060006117778360026120fa565b611782906002612051565b67ffffffffffffffff81111561179a5761179a611e9a565b6040519080825280601f01601f1916602001820160405280156117c4576020820181803683370190505b509050600360fc1b816000815181106117df576117df612119565b60200101906001600160f81b031916908160001a905350600f60fb1b8160018151811061180e5761180e612119565b60200101906001600160f81b031916908160001a90535060006118328460026120fa565b61183d906001612051565b90505b60018111156118b5576f181899199a1a9b1b9c1cb0b131b232b360811b85600f166010811061187157611871612119565b1a60f81b82828151811061188757611887612119565b60200101906001600160f81b031916908160001a90535060049490941c936118ae8161212f565b9050611840565b5083156119045760405162461bcd60e51b815260206004820181905260248201527f537472696e67733a20686578206c656e67746820696e73756666696369656e74604482015260640161076a565b9392505050565b6001600160a01b03821661196b5760405162461bcd60e51b815260206004820152602160248201527f45524332303a206275726e2066726f6d20746865207a65726f206164647265736044820152607360f81b606482015260840161076a565b61197782600083611687565b6001600160a01b038216600090815260208190526040902054818110156119eb5760405162461bcd60e51b815260206004820152602260248201527f45524332303a206275726e20616d6f756e7420657863656564732062616c616e604482015261636560f01b606482015260840161076a565b6001600160a01b0383166000908152602081905260408120838303905560028054849290611a1a908490612146565b90915550506040518281526000906001600160a01b038516907fddf252ad1be2c89b69c2b068fc378daa952ba7f163c4a11628f55a4df523b3ef9060200160405180910390a3505050565b6000807f7fffffffffffffffffffffffffffffff5d576e7357a4501ddfe92f46681b20a0831115611a9c5750600090506003611b49565b8460ff16601b14158015611ab457508460ff16601c14155b15611ac55750600090506004611b49565b6040805160008082526020820180845289905260ff881692820192909252606081018690526080810185905260019060a0016020604051602081039080840390855afa158015611b19573d6000803e3d6000fd5b5050604051601f1901519150506001600160a01b038116611b4257600060019250925050611b49565b9150600090505b94509492505050565b6000816004811115611b6657611b6661215d565b1415611b6f5750565b6001816004811115611b8357611b8361215d565b1415611bd15760405162461bcd60e51b815260206004820152601860248201527f45434453413a20696e76616c6964207369676e61747572650000000000000000604482015260640161076a565b6002816004811115611be557611be561215d565b1415611c335760405162461bcd60e51b815260206004820152601f60248201527f45434453413a20696e76616c6964207369676e6174757265206c656e67746800604482015260640161076a565b6003816004811115611c4757611c4761215d565b1415611ca05760405162461bcd60e51b815260206004820152602260248201527f45434453413a20696e76616c6964207369676e6174757265202773272076616c604482015261756560f01b606482015260840161076a565b6004816004811115611cb457611cb461215d565b14156108f65760405162461bcd60e51b815260206004820152602260248201527f45434453413a20696e76616c6964207369676e6174757265202776272076616c604482015261756560f01b606482015260840161076a565b600060208284031215611d1f57600080fd5b81356001600160e01b03198116811461190457600080fd5b60005b83811015611d52578181015183820152602001611d3a565b838111156109555750506000910152565b6020815260008251806020840152611d82816040850160208701611d37565b601f01601f19169190910160400192915050565b80356001600160a01b0381168114611dad57600080fd5b919050565b60008060408385031215611dc557600080fd5b611dce83611d96565b946020939093013593505050565b600060208284031215611dee57600080fd5b8135801515811461190457600080fd5b600080600060608486031215611e1357600080fd5b611e1c84611d96565b9250611e2a60208501611d96565b9150604084013590509250925092565b600060208284031215611e4c57600080fd5b5035919050565b60008060408385031215611e6657600080fd5b82359150611e7660208401611d96565b90509250929050565b600060208284031215611e9157600080fd5b61190482611d96565b634e487b7160e01b600052604160045260246000fd5b60008060408385031215611ec357600080fd5b823567ffffffffffffffff80821115611edb57600080fd5b818501915085601f830112611eef57600080fd5b813581811115611f0157611f01611e9a565b604051601f8201601f19908116603f01168101908382118183101715611f2957611f29611e9a565b81604052828152886020848701011115611f4257600080fd5b826020860160208301376000602084830101528096505050505050611e7660208401611d96565b600080600080600080600060e0888a031215611f8457600080fd5b611f8d88611d96565b9650611f9b60208901611d96565b95506040880135945060608801359350608088013560ff81168114611fbf57600080fd5b9699959850939692959460a0840135945060c09093013592915050565b60008060408385031215611fef57600080fd5b611ff883611d96565b9150611e7660208401611d96565b600181811c9082168061201a57607f821691505b6020821081141561160b57634e487b7160e01b600052602260045260246000fd5b634e487b7160e01b600052601160045260246000fd5b600082198211156120645761206461203b565b500190565b6000825161207b818460208701611d37565b9190910192915050565b7f416363657373436f6e74726f6c3a206163636f756e74200000000000000000008152600083516120bd816017850160208801611d37565b7001034b99036b4b9b9b4b733903937b6329607d1b60179184019182015283516120ee816028840160208801611d37565b01602801949350505050565b60008160001904831182151516156121145761211461203b565b500290565b634e487b7160e01b600052603260045260246000fd5b60008161213e5761213e61203b565b506000190190565b6000828210156121585761215861203b565b500390565b634e487b7160e01b600052602160045260246000fdfe241ecf16d79d0f8dbfb92cbc07fe17840425976cf0667f022fe9877caa831b08a26469706673582212202a9417b3d28d01728fb8f8c12b41dd7811050ee23dc1d93a5b5c00852a73621f64736f6c634300080a0033",
  "linkReferences": {},
  "deployedLinkReferences": {}
}