{
  "_format": "hh-sol-artifact-1",
  "contractName": "LFIToken",
  "sourceName": "contracts/LFIToken.sol",
  "abi": [
    {
      "inputs": [
        {
          "internalType": "uint256",
          "name": "supply",
          "type": "uint256"
        }
      ],
      "stateMutability": "nonpayable",
      "type": "constructor"
    },
    {
      "anonymous": false,
      "inputs": [
        {
          "indexed": true,
          "internalType": "address",
          "name": "owner",
          "type": "address"
        },
        {
          "indexed": true,
          "internalType": "address",
          "name": "spender",
          "type": "address"
        },
        {
          "indexed": false,
          "internalType": "uint256",
          "name": "value",
          "type": "uint256"
        }
      ],
      "name": "Approval",
      "type": "event"
    },
    {
      "anonymous": false,
      "inputs": [
        {
          "indexed": false,
          "internalType": "address",
          "name": "account",
          "type": "address"
        }
      ],
      "name": "Paused",
      "type": "event"
    },
    {
      "anonymous": false,
      "inputs": [
        {
          "indexed": true,
          "internalType": "bytes32",
          "name": "role",
          "type": "bytes32"
        },
        {
          "indexed": true,
          "internalType": "bytes32",
          "name": "previousAdminRole",
          "type": "bytes32"
        },
        {
          "indexed": true,
          "internalType": "bytes32",
          "name": "newAdminRole",
          "type": "bytes32"
        }
      ],
      "name": "RoleAdminChanged",
      "type": "event"
    },
    {
      "anonymous": false,
      "inputs": [
        {
          "indexed": true,
          "internalType": "bytes32",
          "name": "role",
          "type": "bytes32"
        },
        {
          "indexed": true,
          "internalType": "address",
          "name": "account",
          "type": "address"
        },
        {
          "indexed": true,
          "internalType": "address",
          "name": "sender",
          "type": "address"
        }
      ],
      "name": "RoleGranted",
      "type": "event"
    },
    {
      "anonymous": false,
      "inputs": [
        {
          "indexed": true,
          "internalType": "bytes32",
          "name": "role",
          "type": "bytes32"
        },
        {
          "indexed": true,
          "internalType": "address",
          "name": "account",
          "type": "address"
        },
        {
          "indexed": true,
          "internalType": "address",
          "name": "sender",
          "type": "address"
        }
      ],
      "name": "RoleRevoked",
      "type": "event"
    },
    {
      "anonymous": false,
      "inputs": [
        {
          "indexed": true,
          "internalType": "address",
          "name": "from",
          "type": "address"
        },
        {
          "indexed": true,
          "internalType": "address",
          "name": "to",
          "type": "address"
        },
        {
          "indexed": false,
          "internalType": "uint256",
          "name": "value",
          "type": "uint256"
        }
      ],
      "name": "Transfer",
      "type": "event"
    },
    {
      "anonymous": false,
      "inputs": [
        {
          "indexed": false,
          "internalType": "address",
          "name": "account",
          "type": "address"
        }
      ],
      "name": "Unpaused",
      "type": "event"
    },
    {
      "inputs": [],
      "name": "BP",
      "outputs": [
        {
          "internalType": "contract BPContract",
          "name": "",
          "type": "address"
        }
      ],
      "stateMutability": "view",
      "type": "function"
    },
    {
      "inputs": [],
      "name": "BPDisabledForever",
      "outputs": [
        {
          "internalType": "bool",
          "name": "",
          "type": "bool"
        }
      ],
      "stateMutability": "view",
      "type": "function"
    },
    {
      "inputs": [],
      "name": "DEFAULT_ADMIN_ROLE",
      "outputs": [
        {
          "internalType": "bytes32",
          "name": "",
          "type": "bytes32"
        }
      ],
      "stateMutability": "view",
      "type": "function"
    },
    {
      "inputs": [],
      "name": "DOMAIN_SEPARATOR",
      "outputs": [
        {
          "internalType": "bytes32",
          "name": "",
          "type": "bytes32"
        }
      ],
      "stateMutability": "view",
      "type": "function"
    },
    {
      "inputs": [],
      "name": "MANAGER_ROLE",
      "outputs": [
        {
          "internalType": "bytes32",
          "name": "",
          "type": "bytes32"
        }
      ],
      "stateMutability": "view",
      "type": "function"
    },
    {
      "inputs": [],
      "name": "PAUSER_ROLE",
      "outputs": [
        {
          "internalType": "bytes32",
          "name": "",
          "type": "bytes32"
        }
      ],
      "stateMutability": "view",
      "type": "function"
    },
    {
      "inputs": [
        {
          "internalType": "address",
          "name": "owner",
          "type": "address"
        },
        {
          "internalType": "address",
          "name": "spender",
          "type": "address"
        }
      ],
      "name": "allowance",
      "outputs": [
        {
          "internalType": "uint256",
          "name": "",
          "type": "uint256"
        }
      ],
      "stateMutability": "view",
      "type": "function"
    },
    {
      "inputs": [
        {
          "internalType": "address",
          "name": "spender",
          "type": "address"
        },
        {
          "internalType": "uint256",
          "name": "amount",
          "type": "uint256"
        }
      ],
      "name": "approve",
      "outputs": [
        {
          "internalType": "bool",
          "name": "",
          "type": "bool"
        }
      ],
      "stateMutability": "nonpayable",
      "type": "function"
    },
    {
      "inputs": [
        {
          "internalType": "address",
          "name": "account",
          "type": "address"
        }
      ],
      "name": "balanceOf",
      "outputs": [
        {
          "internalType": "uint256",
          "name": "",
          "type": "uint256"
        }
      ],
      "stateMutability": "view",
      "type": "function"
    },
    {
      "inputs": [],
      "name": "bpEnabled",
      "outputs": [
        {
          "internalType": "bool",
          "name": "",
          "type": "bool"
        }
      ],
      "stateMutability": "view",
      "type": "function"
    },
    {
      "inputs": [],
      "name": "decimals",
      "outputs": [
        {
          "internalType": "uint8",
          "name": "",
          "type": "uint8"
        }
      ],
      "stateMutability": "pure",
      "type": "function"
    },
    {
      "inputs": [
        {
          "internalType": "address",
          "name": "spender",
          "type": "address"
        },
        {
          "internalType": "uint256",
          "name": "subtractedValue",
          "type": "uint256"
        }
      ],
      "name": "decreaseAllowance",
      "outputs": [
        {
          "internalType": "bool",
          "name": "",
          "type": "bool"
        }
      ],
      "stateMutability": "nonpayable",
      "type": "function"
    },
    {
      "inputs": [
        {
          "internalType": "bytes32",
          "name": "role",
          "type": "bytes32"
        }
      ],
      "name": "getRoleAdmin",
      "outputs": [
        {
          "internalType": "bytes32",
          "name": "",
          "type": "bytes32"
        }
      ],
      "stateMutability": "view",
      "type": "function"
    },
    {
      "inputs": [
        {
          "internalType": "bytes32",
          "name": "role",
          "type": "bytes32"
        },
        {
          "internalType": "address",
          "name": "account",
          "type": "address"
        }
      ],
      "name": "grantRole",
      "outputs": [],
      "stateMutability": "nonpayable",
      "type": "function"
    },
    {
      "inputs": [
        {
          "internalType": "bytes32",
          "name": "role",
          "type": "bytes32"
        },
        {
          "internalType": "address",
          "name": "account",
          "type": "address"
        }
      ],
      "name": "hasRole",
      "outputs": [
        {
          "internalType": "bool",
          "name": "",
          "type": "bool"
        }
      ],
      "stateMutability": "view",
      "type": "function"
    },
    {
      "inputs": [
        {
          "internalType": "address",
          "name": "spender",
          "type": "address"
        },
        {
          "internalType": "uint256",
          "name": "addedValue",
          "type": "uint256"
        }
      ],
      "name": "increaseAllowance",
      "outputs": [
        {
          "internalType": "bool",
          "name": "",
          "type": "bool"
        }
      ],
      "stateMutability": "nonpayable",
      "type": "function"
    },
    {
      "inputs": [],
      "name": "maxSupply",
      "outputs": [
        {
          "internalType": "uint256",
          "name": "",
          "type": "uint256"
        }
      ],
      "stateMutability": "view",
      "type": "function"
    },
    {
      "inputs": [],
      "name": "name",
      "outputs": [
        {
          "internalType": "string",
          "name": "",
          "type": "string"
        }
      ],
      "stateMutability": "view",
      "type": "function"
    },
    {
      "inputs": [
        {
          "internalType": "address",
          "name": "owner",
          "type": "address"
        }
      ],
      "name": "nonces",
      "outputs": [
        {
          "internalType": "uint256",
          "name": "",
          "type": "uint256"
        }
      ],
      "stateMutability": "view",
      "type": "function"
    },
    {
      "inputs": [],
      "name": "pause",
      "outputs": [
        {
          "internalType": "bool",
          "name": "",
          "type": "bool"
        }
      ],
      "stateMutability": "nonpayable",
      "type": "function"
    },
    {
      "inputs": [],
      "name": "paused",
      "outputs": [
        {
          "internalType": "bool",
          "name": "",
          "type": "bool"
        }
      ],
      "stateMutability": "view",
      "type": "function"
    },
    {
      "inputs": [
        {
          "internalType": "address",
          "name": "owner",
          "type": "address"
        },
        {
          "internalType": "address",
          "name": "spender",
          "type": "address"
        },
        {
          "internalType": "uint256",
          "name": "value",
          "type": "uint256"
        },
        {
          "internalType": "uint256",
          "name": "deadline",
          "type": "uint256"
        },
        {
          "internalType": "uint8",
          "name": "v",
          "type": "uint8"
        },
        {
          "internalType": "bytes32",
          "name": "r",
          "type": "bytes32"
        },
        {
          "internalType": "bytes32",
          "name": "s",
          "type": "bytes32"
        }
      ],
      "name": "permit",
      "outputs": [],
      "stateMutability": "nonpayable",
      "type": "function"
    },
    {
      "inputs": [
        {
          "internalType": "bytes32",
          "name": "role",
          "type": "bytes32"
        },
        {
          "internalType": "address",
          "name": "account",
          "type": "address"
        }
      ],
      "name": "renounceRole",
      "outputs": [],
      "stateMutability": "nonpayable",
      "type": "function"
    },
    {
      "inputs": [
        {
          "internalType": "string",
          "name": "role",
          "type": "string"
        },
        {
          "internalType": "address",
          "name": "revoke",
          "type": "address"
        }
      ],
      "name": "revokeRole",
      "outputs": [],
      "stateMutability": "nonpayable",
      "type": "function"
    },
    {
      "inputs": [
        {
          "internalType": "bytes32",
          "name": "role",
          "type": "bytes32"
        },
        {
          "internalType": "address",
          "name": "account",
          "type": "address"
        }
      ],
      "name": "revokeRole",
      "outputs": [],
      "stateMutability": "nonpayable",
      "type": "function"
    },
    {
      "inputs": [
        {
          "internalType": "address",
          "name": "_bp",
          "type": "address"
        }
      ],
      "name": "setBPAddress",
      "outputs": [],
      "stateMutability": "nonpayable",
      "type": "function"
    },
    {
      "inputs": [],
      "name": "setBotProtectionDisableForever",
      "outputs": [],
      "stateMutability": "nonpayable",
      "type": "function"
    },
    {
      "inputs": [
        {
          "internalType": "bool",
          "name": "_enabled",
          "type": "bool"
        }
      ],
      "name": "setBpEnabled",
      "outputs": [],
      "stateMutability": "nonpayable",
      "type": "function"
    },
    {
      "inputs": [
        {
          "internalType": "string",
          "name": "role",
          "type": "string"
        },
        {
          "internalType": "address",
          "name": "add",
          "type": "address"
        }
      ],
      "name": "setRole",
      "outputs": [],
      "stateMutability": "nonpayable",
      "type": "function"
    },
    {
      "inputs": [
        {
          "internalType": "bytes4",
          "name": "interfaceId",
          "type": "bytes4"
        }
      ],
      "name": "supportsInterface",
      "outputs": [
        {
          "internalType": "bool",
          "name": "",
          "type": "bool"
        }
      ],
      "stateMutability": "view",
      "type": "function"
    },
    {
      "inputs": [],
      "name": "symbol",
      "outputs": [
        {
          "internalType": "string",
          "name": "",
          "type": "string"
        }
      ],
      "stateMutability": "view",
      "type": "function"
    },
    {
      "inputs": [],
      "name": "totalSupply",
      "outputs": [
        {
          "internalType": "uint256",
          "name": "",
          "type": "uint256"
        }
      ],
      "stateMutability": "view",
      "type": "function"
    },
    {
      "inputs": [
        {
          "internalType": "address",
          "name": "recipient",
          "type": "address"
        },
        {
          "internalType": "uint256",
          "name": "amount",
          "type": "uint256"
        }
      ],
      "name": "transfer",
      "outputs": [
        {
          "internalType": "bool",
          "name": "",
          "type": "bool"
        }
      ],
      "stateMutability": "nonpayable",
      "type": "function"
    },
    {
      "inputs": [
        {
          "internalType": "address",
          "name": "sender",
          "type": "address"
        },
        {
          "internalType": "address",
          "name": "recipient",
          "type": "address"
        },
        {
          "internalType": "uint256",
          "name": "amount",
          "type": "uint256"
        }
      ],
      "name": "transferFrom",
      "outputs": [
        {
          "internalType": "bool",
          "name": "",
          "type": "bool"
        }
      ],
      "stateMutability": "nonpayable",
      "type": "function"
    },
    {
      "inputs": [],
      "name": "unpause",
      "outputs": [
        {
          "internalType": "bool",
          "name": "",
          "type": "bool"
        }
      ],
      "stateMutability": "nonpayable",
      "type": "function"
    }
  ],
  "bytecode": "0x6101606040527f6e71edae12b1b97f4d1f60370fef10105fa2faae0126114a169c64845d6126c9610140526009805460ff60a81b191690553480156200004457600080fd5b506040516200259d3803806200259d833981016040819052620000679162000586565b60405180604001604052806008815260200167262324aa37b5b2b760c11b81525080604051806040016040528060018152602001603160f81b81525060405180604001604052806008815260200167262324aa37b5b2b760c11b815250604051806040016040528060038152602001624c464960e81b8152508160039080519060200190620000f8929190620004e0565b5080516200010e906004906020840190620004e0565b50506005805460ff1916905550815160209283012081519183019190912060e08290526101008190524660a0818152604080517f8b73c3c69bb8fe3d512ecc4cf759cc79239f7b179b0ffacaa9a75d522b39400f818801819052818301969096526060810194909452608080850193909352308483018190528151808603909301835260c0948501909152815191909501209052919091526101205250620001b96012600a620006b3565b620001c59082620006cb565b600881905550620001e4336008546200022460201b62000c131760201c565b620001f160003362000329565b6200021d7f241ecf16d79d0f8dbfb92cbc07fe17840425976cf0667f022fe9877caa831b083362000329565b5062000745565b6001600160a01b038216620002805760405162461bcd60e51b815260206004820152601f60248201527f45524332303a206d696e7420746f20746865207a65726f20616464726573730060448201526064015b60405180910390fd5b6200028e60008383620003b3565b8060026000828254620002a29190620006ed565b90915550506001600160a01b03821660009081526020819052604081208054839290620002d1908490620006ed565b90915550506040518181526001600160a01b038316906000907fddf252ad1be2c89b69c2b068fc378daa952ba7f163c4a11628f55a4df523b3ef9060200160405180910390a3620003256000838362000496565b5050565b620003358282620004b3565b620003255760008281526007602090815260408083206001600160a01b03851684529091529020805460ff191660011790556200036f3390565b6001600160a01b0316816001600160a01b0316837f2f8788117e7eff1d82e926ec794901d17c78024a50270940304540a733656f0d60405160405180910390a45050565b60055460ff1615620003fb5760405162461bcd60e51b815260206004820152601060248201526f14185d5cd8589b194e881c185d5cd95960821b604482015260640162000277565b600954600160a01b900460ff1680156200041f5750600954600160a81b900460ff16155b156200049657600954604051637e2f3afd60e01b81526001600160a01b03858116600483015284811660248301526044820184905290911690637e2f3afd90606401600060405180830381600087803b1580156200047c57600080fd5b505af115801562000491573d6000803e3d6000fd5b505050505b620004ae838383620004ae60201b620006d51760201c565b505050565b60008281526007602090815260408083206001600160a01b038516845290915290205460ff165b92915050565b828054620004ee9062000708565b90600052602060002090601f0160209004810192826200051257600085556200055d565b82601f106200052d57805160ff19168380011785556200055d565b828001600101855582156200055d579182015b828111156200055d57825182559160200191906001019062000540565b506200056b9291506200056f565b5090565b5b808211156200056b576000815560010162000570565b6000602082840312156200059957600080fd5b5051919050565b634e487b7160e01b600052601160045260246000fd5b600181815b80851115620005f7578160001904821115620005db57620005db620005a0565b80851615620005e957918102915b93841c9390800290620005bb565b509250929050565b6000826200061057506001620004da565b816200061f57506000620004da565b8160018114620006385760028114620006435762000663565b6001915050620004da565b60ff841115620006575762000657620005a0565b50506001821b620004da565b5060208310610133831016604e8410600b841016171562000688575081810a620004da565b620006948383620005b6565b8060001904821115620006ab57620006ab620005a0565b029392505050565b6000620006c460ff841683620005ff565b9392505050565b6000816000190483118215151615620006e857620006e8620005a0565b500290565b60008219821115620007035762000703620005a0565b500190565b600181811c908216806200071d57607f821691505b602082108114156200073f57634e487b7160e01b600052602260045260246000fd5b50919050565b60805160a05160c05160e051610100516101205161014051611dfd620007a06000396000610add0152600061116f015260006111be01526000611199015260006110f20152600061111c015260006111460152611dfd6000f3fe608060405234801561001057600080fd5b50600436106102115760003560e01c8063731f21a011610125578063c818c280116100ad578063d547741f1161007c578063d547741f14610448578063d5abeb011461045b578063dd62ed3e14610464578063e63ab1e91461049d578063ec87621c146104c457600080fd5b8063c818c28014610407578063cfde18901461040f578063d39b7e4f14610422578063d505accf1461043557600080fd5b806395d89b41116100f457806395d89b41146103a65780639cfdbd5e146103ae578063a217fddf146103d9578063a457c2d7146103e1578063a9059cbb146103f457600080fd5b8063731f21a0146103655780637ecebe00146103785780638456cb591461038b57806391d148541461039357600080fd5b80632f2ff15d116101a857806336568abe1161017757806336568abe14610319578063395093511461032c5780633f4ba83a1461033f5780635c975abb1461034757806370a082311461035257600080fd5b80632f2ff15d146102db578063313ce567146102ee57806334616805146102fd5780633644e5151461031157600080fd5b8063206a8a22116101e4578063206a8a221461027c57806323b872dd14610291578063248a9ca3146102a457806326898da9146102c757600080fd5b806301ffc9a71461021657806306fdde031461023e578063095ea7b31461025357806318160ddd14610266575b600080fd5b610229610224366004611958565b6104d9565b60405190151581526020015b60405180910390f35b610246610510565b60405161023591906119ae565b6102296102613660046119fd565b6105a2565b61026e6105b8565b604051908152602001610235565b61028f61028a366004611a27565b6105c8565b005b61022961029f366004611a49565b610600565b61026e6102b2366004611a85565b60009081526007602052604090206001015490565b60095461022990600160a01b900460ff1681565b61028f6102e9366004611a9e565b6106af565b60405160128152602001610235565b60095461022990600160a81b900460ff1681565b61026e6106da565b61028f610327366004611a9e565b6106e4565b61022961033a3660046119fd565b610762565b61022961079e565b60055460ff16610229565b61026e610360366004611aca565b6107db565b61028f610373366004611afb565b6107f9565b61026e610386366004611aca565b61083d565b61022961085b565b6102296103a1366004611a9e565b610890565b6102466108bb565b6009546103c1906001600160a01b031681565b6040516001600160a01b039091168152602001610235565b61026e600081565b6102296103ef3660046119fd565b6108ca565b6102296104023660046119fd565b610963565b61028f610970565b61028f61041d366004611afb565b6109b6565b61028f610430366004611aca565b6109f4565b61028f610443366004611bb4565b610a89565b61028f610456366004611a9e565b610bed565b61026e60085481565b61026e610472366004611c27565b6001600160a01b03918216600090815260016020908152604080832093909416825291909152205490565b61026e7f65d7a28e3265b37a6474929f336521b332c1681b933f6cb9f3376673440d862a81565b61026e600080516020611da883398151915281565b60006001600160e01b03198216637965db0b60e01b148061050a57506301ffc9a760e01b6001600160e01b03198316145b92915050565b60606003805461051f90611c51565b80601f016020809104026020016040519081016040528092919081815260200182805461054b90611c51565b80156105985780601f1061056d57610100808354040283529160200191610598565b820191906000526020600020905b81548152906001019060200180831161057b57829003601f168201915b5050505050905090565b60006105af338484610cfe565b50600192915050565b60006105c360025490565b905090565b600080516020611da88339815191526105e18133610e22565b5060098054911515600160a01b0260ff60a01b19909216919091179055565b600061060d848484610e86565b6001600160a01b0384166000908152600160209081526040808320338452909152902054828110156106975760405162461bcd60e51b815260206004820152602860248201527f45524332303a207472616e7366657220616d6f756e74206578636565647320616044820152676c6c6f77616e636560c01b60648201526084015b60405180910390fd5b6106a48533858403610cfe565b506001949350505050565b6000828152600760205260409020600101546106cb8133610e22565b6106d5838361105f565b505050565b60006105c36110e5565b6001600160a01b03811633146107545760405162461bcd60e51b815260206004820152602f60248201527f416363657373436f6e74726f6c3a2063616e206f6e6c792072656e6f756e636560448201526e103937b632b9903337b91039b2b63360891b606482015260840161068e565b61075e828261120c565b5050565b3360008181526001602090815260408083206001600160a01b038716845290915281205490916105af918590610799908690611c9c565b610cfe565b60007f65d7a28e3265b37a6474929f336521b332c1681b933f6cb9f3376673440d862a6107cb8133610e22565b6107d3611273565b600191505090565b6001600160a01b03811660009081526020819052604081205461050a565b60006108058133610e22565b8251602084012080600a8560405161081d9190611cb4565b90815260405190819003602001902055610837818461120c565b50505050565b6001600160a01b03811660009081526006602052604081205461050a565b60007f65d7a28e3265b37a6474929f336521b332c1681b933f6cb9f3376673440d862a6108888133610e22565b6107d3611306565b60009182526007602090815260408084206001600160a01b0393909316845291905290205460ff1690565b60606004805461051f90611c51565b3360009081526001602090815260408083206001600160a01b03861684529091528120548281101561094c5760405162461bcd60e51b815260206004820152602560248201527f45524332303a2064656372656173656420616c6c6f77616e63652062656c6f77604482015264207a65726f60d81b606482015260840161068e565b6109593385858403610cfe565b5060019392505050565b60006105af338484610e86565b600080516020611da88339815191526109898133610e22565b600954600160a81b900460ff16156109a057600080fd5b506009805460ff60a81b1916600160a81b179055565b60006109c28133610e22565b8251602084012080600a856040516109da9190611cb4565b908152604051908190036020019020556108378184611381565b600080516020611da8833981519152610a0d8133610e22565b6009546001600160a01b031615610a665760405162461bcd60e51b815260206004820152601c60248201527f63616e206f6e6c7920626520696e697469616c697a6564206f6e636500000000604482015260640161068e565b50600980546001600160a01b0319166001600160a01b0392909216919091179055565b83421115610ad95760405162461bcd60e51b815260206004820152601d60248201527f45524332305065726d69743a206578706972656420646561646c696e65000000604482015260640161068e565b60007f0000000000000000000000000000000000000000000000000000000000000000888888610b088c61138b565b6040805160208101969096526001600160a01b0394851690860152929091166060840152608083015260a082015260c0810186905260e0016040516020818303038152906040528051906020012090506000610b63826113b3565b90506000610b7382878787611401565b9050896001600160a01b0316816001600160a01b031614610bd65760405162461bcd60e51b815260206004820152601e60248201527f45524332305065726d69743a20696e76616c6964207369676e61747572650000604482015260640161068e565b610be18a8a8a610cfe565b50505050505050505050565b600082815260076020526040902060010154610c098133610e22565b6106d5838361120c565b6001600160a01b038216610c695760405162461bcd60e51b815260206004820152601f60248201527f45524332303a206d696e7420746f20746865207a65726f206164647265737300604482015260640161068e565b610c7560008383611429565b8060026000828254610c879190611c9c565b90915550506001600160a01b03821660009081526020819052604081208054839290610cb4908490611c9c565b90915550506040518181526001600160a01b038316906000907fddf252ad1be2c89b69c2b068fc378daa952ba7f163c4a11628f55a4df523b3ef9060200160405180910390a35050565b6001600160a01b038316610d605760405162461bcd60e51b8152602060048201526024808201527f45524332303a20617070726f76652066726f6d20746865207a65726f206164646044820152637265737360e01b606482015260840161068e565b6001600160a01b038216610dc15760405162461bcd60e51b815260206004820152602260248201527f45524332303a20617070726f766520746f20746865207a65726f206164647265604482015261737360f01b606482015260840161068e565b6001600160a01b0383811660008181526001602090815260408083209487168084529482529182902085905590518481527f8c5be1e5ebec7d5bd14f71427d1e84f3dd0314c0f7b2291e5b200ac8c7c3b925910160405180910390a3505050565b610e2c8282610890565b61075e57610e44816001600160a01b0316601461150a565b610e4f83602061150a565b604051602001610e60929190611cd0565b60408051601f198184030181529082905262461bcd60e51b825261068e916004016119ae565b6001600160a01b038316610eea5760405162461bcd60e51b815260206004820152602560248201527f45524332303a207472616e736665722066726f6d20746865207a65726f206164604482015264647265737360d81b606482015260840161068e565b6001600160a01b038216610f4c5760405162461bcd60e51b815260206004820152602360248201527f45524332303a207472616e7366657220746f20746865207a65726f206164647260448201526265737360e81b606482015260840161068e565b610f57838383611429565b6001600160a01b03831660009081526020819052604090205481811015610fcf5760405162461bcd60e51b815260206004820152602660248201527f45524332303a207472616e7366657220616d6f756e7420657863656564732062604482015265616c616e636560d01b606482015260840161068e565b6001600160a01b03808516600090815260208190526040808220858503905591851681529081208054849290611006908490611c9c565b92505081905550826001600160a01b0316846001600160a01b03167fddf252ad1be2c89b69c2b068fc378daa952ba7f163c4a11628f55a4df523b3ef8460405161105291815260200190565b60405180910390a3610837565b6110698282610890565b61075e5760008281526007602090815260408083206001600160a01b03851684529091529020805460ff191660011790556110a13390565b6001600160a01b0316816001600160a01b0316837f2f8788117e7eff1d82e926ec794901d17c78024a50270940304540a733656f0d60405160405180910390a45050565b6000306001600160a01b037f00000000000000000000000000000000000000000000000000000000000000001614801561113e57507f000000000000000000000000000000000000000000000000000000000000000046145b1561116857507f000000000000000000000000000000000000000000000000000000000000000090565b50604080517f00000000000000000000000000000000000000000000000000000000000000006020808301919091527f0000000000000000000000000000000000000000000000000000000000000000828401527f000000000000000000000000000000000000000000000000000000000000000060608301524660808301523060a0808401919091528351808403909101815260c0909201909252805191012090565b6112168282610890565b1561075e5760008281526007602090815260408083206001600160a01b0385168085529252808320805460ff1916905551339285917ff6391f5c32d9c69d2a47ea670b442974b53935d1edc7fd64eb21e047a839171b9190a45050565b60055460ff166112bc5760405162461bcd60e51b815260206004820152601460248201527314185d5cd8589b194e881b9bdd081c185d5cd95960621b604482015260640161068e565b6005805460ff191690557f5db9ee0a495bf2e6ff9c91a7834c1ba4fdd244a5e8aa4e537bd38aeae4b073aa335b6040516001600160a01b03909116815260200160405180910390a1565b60055460ff161561134c5760405162461bcd60e51b815260206004820152601060248201526f14185d5cd8589b194e881c185d5cd95960821b604482015260640161068e565b6005805460ff191660011790557f62e78cea01bee320cd4e420270b5ea74000d11b0c9f74754ebdbfc544b05a2586112e93390565b61075e828261105f565b6001600160a01b03811660009081526006602052604090208054600181018255905b50919050565b600061050a6113c06110e5565b8360405161190160f01b6020820152602281018390526042810182905260009060620160405160208183030381529060405280519060200120905092915050565b6000806000611412878787876116ad565b9150915061141f8161179a565b5095945050505050565b60055460ff161561146f5760405162461bcd60e51b815260206004820152601060248201526f14185d5cd8589b194e881c185d5cd95960821b604482015260640161068e565b600954600160a01b900460ff1680156114925750600954600160a81b900460ff16155b156106d557600954604051637e2f3afd60e01b81526001600160a01b03858116600483015284811660248301526044820184905290911690637e2f3afd90606401600060405180830381600087803b1580156114ed57600080fd5b505af1158015611501573d6000803e3d6000fd5b50505050505050565b60606000611519836002611d45565b611524906002611c9c565b67ffffffffffffffff81111561153c5761153c611ae5565b6040519080825280601f01601f191660200182016040528015611566576020820181803683370190505b509050600360fc1b8160008151811061158157611581611d64565b60200101906001600160f81b031916908160001a905350600f60fb1b816001815181106115b0576115b0611d64565b60200101906001600160f81b031916908160001a90535060006115d4846002611d45565b6115df906001611c9c565b90505b6001811115611657576f181899199a1a9b1b9c1cb0b131b232b360811b85600f166010811061161357611613611d64565b1a60f81b82828151811061162957611629611d64565b60200101906001600160f81b031916908160001a90535060049490941c9361165081611d7a565b90506115e2565b5083156116a65760405162461bcd60e51b815260206004820181905260248201527f537472696e67733a20686578206c656e67746820696e73756666696369656e74604482015260640161068e565b9392505050565b6000807f7fffffffffffffffffffffffffffffff5d576e7357a4501ddfe92f46681b20a08311156116e45750600090506003611791565b8460ff16601b141580156116fc57508460ff16601c14155b1561170d5750600090506004611791565b6040805160008082526020820180845289905260ff881692820192909252606081018690526080810185905260019060a0016020604051602081039080840390855afa158015611761573d6000803e3d6000fd5b5050604051601f1901519150506001600160a01b03811661178a57600060019250925050611791565b9150600090505b94509492505050565b60008160048111156117ae576117ae611d91565b14156117b75750565b60018160048111156117cb576117cb611d91565b14156118195760405162461bcd60e51b815260206004820152601860248201527f45434453413a20696e76616c6964207369676e61747572650000000000000000604482015260640161068e565b600281600481111561182d5761182d611d91565b141561187b5760405162461bcd60e51b815260206004820152601f60248201527f45434453413a20696e76616c6964207369676e6174757265206c656e67746800604482015260640161068e565b600381600481111561188f5761188f611d91565b14156118e85760405162461bcd60e51b815260206004820152602260248201527f45434453413a20696e76616c6964207369676e6174757265202773272076616c604482015261756560f01b606482015260840161068e565b60048160048111156118fc576118fc611d91565b14156119555760405162461bcd60e51b815260206004820152602260248201527f45434453413a20696e76616c6964207369676e6174757265202776272076616c604482015261756560f01b606482015260840161068e565b50565b60006020828403121561196a57600080fd5b81356001600160e01b0319811681146116a657600080fd5b60005b8381101561199d578181015183820152602001611985565b838111156108375750506000910152565b60208152600082518060208401526119cd816040850160208701611982565b601f01601f19169190910160400192915050565b80356001600160a01b03811681146119f857600080fd5b919050565b60008060408385031215611a1057600080fd5b611a19836119e1565b946020939093013593505050565b600060208284031215611a3957600080fd5b813580151581146116a657600080fd5b600080600060608486031215611a5e57600080fd5b611a67846119e1565b9250611a75602085016119e1565b9150604084013590509250925092565b600060208284031215611a9757600080fd5b5035919050565b60008060408385031215611ab157600080fd5b82359150611ac1602084016119e1565b90509250929050565b600060208284031215611adc57600080fd5b6116a6826119e1565b634e487b7160e01b600052604160045260246000fd5b60008060408385031215611b0e57600080fd5b823567ffffffffffffffff80821115611b2657600080fd5b818501915085601f830112611b3a57600080fd5b813581811115611b4c57611b4c611ae5565b604051601f8201601f19908116603f01168101908382118183101715611b7457611b74611ae5565b81604052828152886020848701011115611b8d57600080fd5b826020860160208301376000602084830101528096505050505050611ac1602084016119e1565b600080600080600080600060e0888a031215611bcf57600080fd5b611bd8886119e1565b9650611be6602089016119e1565b95506040880135945060608801359350608088013560ff81168114611c0a57600080fd5b9699959850939692959460a0840135945060c09093013592915050565b60008060408385031215611c3a57600080fd5b611c43836119e1565b9150611ac1602084016119e1565b600181811c90821680611c6557607f821691505b602082108114156113ad57634e487b7160e01b600052602260045260246000fd5b634e487b7160e01b600052601160045260246000fd5b60008219821115611caf57611caf611c86565b500190565b60008251611cc6818460208701611982565b9190910192915050565b7f416363657373436f6e74726f6c3a206163636f756e7420000000000000000000815260008351611d08816017850160208801611982565b7001034b99036b4b9b9b4b733903937b6329607d1b6017918401918201528351611d39816028840160208801611982565b01602801949350505050565b6000816000190483118215151615611d5f57611d5f611c86565b500290565b634e487b7160e01b600052603260045260246000fd5b600081611d8957611d89611c86565b506000190190565b634e487b7160e01b600052602160045260246000fdfe241ecf16d79d0f8dbfb92cbc07fe17840425976cf0667f022fe9877caa831b08a26469706673582212203dcc90ed16dfca2321a18fe4db761b6ac4a000b1bfcd25f854304d6c63a3f13f64736f6c634300080a0033",
  "linkReferences": {},
  "deployedLinkReferences": {}
}