{
  "_format": "hh-sol-artifact-1",
  "contractName": "LFIToken",
  "sourceName": "contracts/LFIToken.sol",
  "abi": [
    {
      "inputs": [
        {
          "internalType": "uint256",
          "name": "supply",
          "type": "uint256"
        }
      ],
      "stateMutability": "nonpayable",
      "type": "constructor"
    },
    {
      "anonymous": false,
      "inputs": [
        {
          "indexed": true,
          "internalType": "address",
          "name": "owner",
          "type": "address"
        },
        {
          "indexed": true,
          "internalType": "address",
          "name": "spender",
          "type": "address"
        },
        {
          "indexed": false,
          "internalType": "uint256",
          "name": "value",
          "type": "uint256"
        }
      ],
      "name": "Approval",
      "type": "event"
    },
    {
      "anonymous": false,
      "inputs": [
        {
          "indexed": false,
          "internalType": "address",
          "name": "account",
          "type": "address"
        }
      ],
      "name": "Paused",
      "type": "event"
    },
    {
      "anonymous": false,
      "inputs": [
        {
          "indexed": true,
          "internalType": "bytes32",
          "name": "role",
          "type": "bytes32"
        },
        {
          "indexed": true,
          "internalType": "bytes32",
          "name": "previousAdminRole",
          "type": "bytes32"
        },
        {
          "indexed": true,
          "internalType": "bytes32",
          "name": "newAdminRole",
          "type": "bytes32"
        }
      ],
      "name": "RoleAdminChanged",
      "type": "event"
    },
    {
      "anonymous": false,
      "inputs": [
        {
          "indexed": true,
          "internalType": "bytes32",
          "name": "role",
          "type": "bytes32"
        },
        {
          "indexed": true,
          "internalType": "address",
          "name": "account",
          "type": "address"
        },
        {
          "indexed": true,
          "internalType": "address",
          "name": "sender",
          "type": "address"
        }
      ],
      "name": "RoleGranted",
      "type": "event"
    },
    {
      "anonymous": false,
      "inputs": [
        {
          "indexed": true,
          "internalType": "bytes32",
          "name": "role",
          "type": "bytes32"
        },
        {
          "indexed": true,
          "internalType": "address",
          "name": "account",
          "type": "address"
        },
        {
          "indexed": true,
          "internalType": "address",
          "name": "sender",
          "type": "address"
        }
      ],
      "name": "RoleRevoked",
      "type": "event"
    },
    {
      "anonymous": false,
      "inputs": [
        {
          "indexed": true,
          "internalType": "address",
          "name": "from",
          "type": "address"
        },
        {
          "indexed": true,
          "internalType": "address",
          "name": "to",
          "type": "address"
        },
        {
          "indexed": false,
          "internalType": "uint256",
          "name": "value",
          "type": "uint256"
        }
      ],
      "name": "Transfer",
      "type": "event"
    },
    {
      "anonymous": false,
      "inputs": [
        {
          "indexed": false,
          "internalType": "address",
          "name": "account",
          "type": "address"
        }
      ],
      "name": "Unpaused",
      "type": "event"
    },
    {
      "inputs": [],
      "name": "BP",
      "outputs": [
        {
          "internalType": "contract BPContract",
          "name": "",
          "type": "address"
        }
      ],
      "stateMutability": "view",
      "type": "function"
    },
    {
      "inputs": [],
      "name": "BPDisabledForever",
      "outputs": [
        {
          "internalType": "bool",
          "name": "",
          "type": "bool"
        }
      ],
      "stateMutability": "view",
      "type": "function"
    },
    {
      "inputs": [],
      "name": "DEFAULT_ADMIN_ROLE",
      "outputs": [
        {
          "internalType": "bytes32",
          "name": "",
          "type": "bytes32"
        }
      ],
      "stateMutability": "view",
      "type": "function"
    },
    {
      "inputs": [],
      "name": "DOMAIN_SEPARATOR",
      "outputs": [
        {
          "internalType": "bytes32",
          "name": "",
          "type": "bytes32"
        }
      ],
      "stateMutability": "view",
      "type": "function"
    },
    {
      "inputs": [],
      "name": "MANAGER_ROLE",
      "outputs": [
        {
          "internalType": "bytes32",
          "name": "",
          "type": "bytes32"
        }
      ],
      "stateMutability": "view",
      "type": "function"
    },
    {
      "inputs": [],
      "name": "PAUSER_ROLE",
      "outputs": [
        {
          "internalType": "bytes32",
          "name": "",
          "type": "bytes32"
        }
      ],
      "stateMutability": "view",
      "type": "function"
    },
    {
      "inputs": [
        {
          "internalType": "address",
          "name": "owner",
          "type": "address"
        },
        {
          "internalType": "address",
          "name": "spender",
          "type": "address"
        }
      ],
      "name": "allowance",
      "outputs": [
        {
          "internalType": "uint256",
          "name": "",
          "type": "uint256"
        }
      ],
      "stateMutability": "view",
      "type": "function"
    },
    {
      "inputs": [
        {
          "internalType": "address",
          "name": "spender",
          "type": "address"
        },
        {
          "internalType": "uint256",
          "name": "amount",
          "type": "uint256"
        }
      ],
      "name": "approve",
      "outputs": [
        {
          "internalType": "bool",
          "name": "",
          "type": "bool"
        }
      ],
      "stateMutability": "nonpayable",
      "type": "function"
    },
    {
      "inputs": [
        {
          "internalType": "address",
          "name": "account",
          "type": "address"
        }
      ],
      "name": "balanceOf",
      "outputs": [
        {
          "internalType": "uint256",
          "name": "",
          "type": "uint256"
        }
      ],
      "stateMutability": "view",
      "type": "function"
    },
    {
      "inputs": [],
      "name": "bpEnabled",
      "outputs": [
        {
          "internalType": "bool",
          "name": "",
          "type": "bool"
        }
      ],
      "stateMutability": "view",
      "type": "function"
    },
    {
      "inputs": [],
      "name": "decimals",
      "outputs": [
        {
          "internalType": "uint8",
          "name": "",
          "type": "uint8"
        }
      ],
      "stateMutability": "pure",
      "type": "function"
    },
    {
      "inputs": [
        {
          "internalType": "address",
          "name": "spender",
          "type": "address"
        },
        {
          "internalType": "uint256",
          "name": "subtractedValue",
          "type": "uint256"
        }
      ],
      "name": "decreaseAllowance",
      "outputs": [
        {
          "internalType": "bool",
          "name": "",
          "type": "bool"
        }
      ],
      "stateMutability": "nonpayable",
      "type": "function"
    },
    {
      "inputs": [
        {
          "internalType": "bytes32",
          "name": "role",
          "type": "bytes32"
        }
      ],
      "name": "getRoleAdmin",
      "outputs": [
        {
          "internalType": "bytes32",
          "name": "",
          "type": "bytes32"
        }
      ],
      "stateMutability": "view",
      "type": "function"
    },
    {
      "inputs": [
        {
          "internalType": "bytes32",
          "name": "role",
          "type": "bytes32"
        },
        {
          "internalType": "address",
          "name": "account",
          "type": "address"
        }
      ],
      "name": "grantRole",
      "outputs": [],
      "stateMutability": "nonpayable",
      "type": "function"
    },
    {
      "inputs": [
        {
          "internalType": "bytes32",
          "name": "role",
          "type": "bytes32"
        },
        {
          "internalType": "address",
          "name": "account",
          "type": "address"
        }
      ],
      "name": "hasRole",
      "outputs": [
        {
          "internalType": "bool",
          "name": "",
          "type": "bool"
        }
      ],
      "stateMutability": "view",
      "type": "function"
    },
    {
      "inputs": [
        {
          "internalType": "address",
          "name": "spender",
          "type": "address"
        },
        {
          "internalType": "uint256",
          "name": "addedValue",
          "type": "uint256"
        }
      ],
      "name": "increaseAllowance",
      "outputs": [
        {
          "internalType": "bool",
          "name": "",
          "type": "bool"
        }
      ],
      "stateMutability": "nonpayable",
      "type": "function"
    },
    {
      "inputs": [],
      "name": "maxSupply",
      "outputs": [
        {
          "internalType": "uint256",
          "name": "",
          "type": "uint256"
        }
      ],
      "stateMutability": "view",
      "type": "function"
    },
    {
      "inputs": [],
      "name": "name",
      "outputs": [
        {
          "internalType": "string",
          "name": "",
          "type": "string"
        }
      ],
      "stateMutability": "view",
      "type": "function"
    },
    {
      "inputs": [
        {
          "internalType": "address",
          "name": "owner",
          "type": "address"
        }
      ],
      "name": "nonces",
      "outputs": [
        {
          "internalType": "uint256",
          "name": "",
          "type": "uint256"
        }
      ],
      "stateMutability": "view",
      "type": "function"
    },
    {
      "inputs": [],
      "name": "pause",
      "outputs": [
        {
          "internalType": "bool",
          "name": "",
          "type": "bool"
        }
      ],
      "stateMutability": "nonpayable",
      "type": "function"
    },
    {
      "inputs": [],
      "name": "paused",
      "outputs": [
        {
          "internalType": "bool",
          "name": "",
          "type": "bool"
        }
      ],
      "stateMutability": "view",
      "type": "function"
    },
    {
      "inputs": [
        {
          "internalType": "address",
          "name": "owner",
          "type": "address"
        },
        {
          "internalType": "address",
          "name": "spender",
          "type": "address"
        },
        {
          "internalType": "uint256",
          "name": "value",
          "type": "uint256"
        },
        {
          "internalType": "uint256",
          "name": "deadline",
          "type": "uint256"
        },
        {
          "internalType": "uint8",
          "name": "v",
          "type": "uint8"
        },
        {
          "internalType": "bytes32",
          "name": "r",
          "type": "bytes32"
        },
        {
          "internalType": "bytes32",
          "name": "s",
          "type": "bytes32"
        }
      ],
      "name": "permit",
      "outputs": [],
      "stateMutability": "nonpayable",
      "type": "function"
    },
    {
      "inputs": [
        {
          "internalType": "bytes32",
          "name": "role",
          "type": "bytes32"
        },
        {
          "internalType": "address",
          "name": "account",
          "type": "address"
        }
      ],
      "name": "renounceRole",
      "outputs": [],
      "stateMutability": "nonpayable",
      "type": "function"
    },
    {
      "inputs": [
        {
          "internalType": "bytes32",
          "name": "role",
          "type": "bytes32"
        },
        {
          "internalType": "address",
          "name": "account",
          "type": "address"
        }
      ],
      "name": "revokeRole",
      "outputs": [],
      "stateMutability": "nonpayable",
      "type": "function"
    },
    {
      "inputs": [
        {
          "internalType": "address",
          "name": "_bp",
          "type": "address"
        }
      ],
      "name": "setBPAddress",
      "outputs": [],
      "stateMutability": "nonpayable",
      "type": "function"
    },
    {
      "inputs": [],
      "name": "setBotProtectionDisableForever",
      "outputs": [],
      "stateMutability": "nonpayable",
      "type": "function"
    },
    {
      "inputs": [
        {
          "internalType": "bool",
          "name": "_enabled",
          "type": "bool"
        }
      ],
      "name": "setBpEnabled",
      "outputs": [],
      "stateMutability": "nonpayable",
      "type": "function"
    },
    {
      "inputs": [
        {
          "internalType": "bytes4",
          "name": "interfaceId",
          "type": "bytes4"
        }
      ],
      "name": "supportsInterface",
      "outputs": [
        {
          "internalType": "bool",
          "name": "",
          "type": "bool"
        }
      ],
      "stateMutability": "view",
      "type": "function"
    },
    {
      "inputs": [],
      "name": "symbol",
      "outputs": [
        {
          "internalType": "string",
          "name": "",
          "type": "string"
        }
      ],
      "stateMutability": "view",
      "type": "function"
    },
    {
      "inputs": [],
      "name": "totalSupply",
      "outputs": [
        {
          "internalType": "uint256",
          "name": "",
          "type": "uint256"
        }
      ],
      "stateMutability": "view",
      "type": "function"
    },
    {
      "inputs": [
        {
          "internalType": "address",
          "name": "recipient",
          "type": "address"
        },
        {
          "internalType": "uint256",
          "name": "amount",
          "type": "uint256"
        }
      ],
      "name": "transfer",
      "outputs": [
        {
          "internalType": "bool",
          "name": "",
          "type": "bool"
        }
      ],
      "stateMutability": "nonpayable",
      "type": "function"
    },
    {
      "inputs": [
        {
          "internalType": "address",
          "name": "sender",
          "type": "address"
        },
        {
          "internalType": "address",
          "name": "recipient",
          "type": "address"
        },
        {
          "internalType": "uint256",
          "name": "amount",
          "type": "uint256"
        }
      ],
      "name": "transferFrom",
      "outputs": [
        {
          "internalType": "bool",
          "name": "",
          "type": "bool"
        }
      ],
      "stateMutability": "nonpayable",
      "type": "function"
    },
    {
      "inputs": [],
      "name": "unpause",
      "outputs": [
        {
          "internalType": "bool",
          "name": "",
          "type": "bool"
        }
      ],
      "stateMutability": "nonpayable",
      "type": "function"
    }
  ],
  "bytecode": "0x6101606040527f6e71edae12b1b97f4d1f60370fef10105fa2faae0126114a169c64845d6126c9610140526009805460ff60a81b191690553480156200004457600080fd5b506040516200240238038062002402833981016040819052620000679162000586565b60405180604001604052806008815260200167262324aa37b5b2b760c11b81525080604051806040016040528060018152602001603160f81b81525060405180604001604052806008815260200167262324aa37b5b2b760c11b815250604051806040016040528060038152602001624c464960e81b8152508160039080519060200190620000f8929190620004e0565b5080516200010e906004906020840190620004e0565b50506005805460ff1916905550815160209283012081519183019190912060e08290526101008190524660a0818152604080517f8b73c3c69bb8fe3d512ecc4cf759cc79239f7b179b0ffacaa9a75d522b39400f818801819052818301969096526060810194909452608080850193909352308483018190528151808603909301835260c0948501909152815191909501209052919091526101205250620001b96012600a620006b3565b620001c59082620006cb565b600881905550620001e4336008546200022460201b62000b551760201c565b620001f160003362000329565b6200021d7f241ecf16d79d0f8dbfb92cbc07fe17840425976cf0667f022fe9877caa831b083362000329565b5062000745565b6001600160a01b038216620002805760405162461bcd60e51b815260206004820152601f60248201527f45524332303a206d696e7420746f20746865207a65726f20616464726573730060448201526064015b60405180910390fd5b6200028e60008383620003b3565b8060026000828254620002a29190620006ed565b90915550506001600160a01b03821660009081526020819052604081208054839290620002d1908490620006ed565b90915550506040518181526001600160a01b038316906000907fddf252ad1be2c89b69c2b068fc378daa952ba7f163c4a11628f55a4df523b3ef9060200160405180910390a3620003256000838362000496565b5050565b620003358282620004b3565b620003255760008281526007602090815260408083206001600160a01b03851684529091529020805460ff191660011790556200036f3390565b6001600160a01b0316816001600160a01b0316837f2f8788117e7eff1d82e926ec794901d17c78024a50270940304540a733656f0d60405160405180910390a45050565b60055460ff1615620003fb5760405162461bcd60e51b815260206004820152601060248201526f14185d5cd8589b194e881c185d5cd95960821b604482015260640162000277565b600954600160a01b900460ff1680156200041f5750600954600160a81b900460ff16155b156200049657600954604051637e2f3afd60e01b81526001600160a01b03858116600483015284811660248301526044820184905290911690637e2f3afd90606401600060405180830381600087803b1580156200047c57600080fd5b505af115801562000491573d6000803e3d6000fd5b505050505b620004ae838383620004ae60201b620006991760201c565b505050565b60008281526007602090815260408083206001600160a01b038516845290915290205460ff165b92915050565b828054620004ee9062000708565b90600052602060002090601f0160209004810192826200051257600085556200055d565b82601f106200052d57805160ff19168380011785556200055d565b828001600101855582156200055d579182015b828111156200055d57825182559160200191906001019062000540565b506200056b9291506200056f565b5090565b5b808211156200056b576000815560010162000570565b6000602082840312156200059957600080fd5b5051919050565b634e487b7160e01b600052601160045260246000fd5b600181815b80851115620005f7578160001904821115620005db57620005db620005a0565b80851615620005e957918102915b93841c9390800290620005bb565b509250929050565b6000826200061057506001620004da565b816200061f57506000620004da565b8160018114620006385760028114620006435762000663565b6001915050620004da565b60ff841115620006575762000657620005a0565b50506001821b620004da565b5060208310610133831016604e8410600b841016171562000688575081810a620004da565b620006948383620005b6565b8060001904821115620006ab57620006ab620005a0565b029392505050565b6000620006c460ff841683620005ff565b9392505050565b6000816000190483118215151615620006e857620006e8620005a0565b500290565b60008219821115620007035762000703620005a0565b500190565b600181811c908216806200071d57607f821691505b602082108114156200073f57634e487b7160e01b600052602260045260246000fd5b50919050565b60805160a05160c05160e051610100516101205161014051611c62620007a06000396000610a1f015260006110b301526000611102015260006110dd01526000611036015260006110600152600061108a0152611c626000f3fe608060405234801561001057600080fd5b50600436106101fb5760003560e01c806370a082311161011a578063a9059cbb116100ad578063d547741f1161007c578063d547741f1461040c578063d5abeb011461041f578063dd62ed3e14610428578063e63ab1e914610461578063ec87621c1461048857600080fd5b8063a9059cbb146103cb578063c818c280146103de578063d39b7e4f146103e6578063d505accf146103f957600080fd5b806395d89b41116100e957806395d89b411461037d5780639cfdbd5e14610385578063a217fddf146103b0578063a457c2d7146103b857600080fd5b806370a082311461033c5780637ecebe001461034f5780638456cb591461036257806391d148541461036a57600080fd5b80632f2ff15d1161019257806336568abe1161016157806336568abe1461030357806339509351146103165780633f4ba83a146103295780635c975abb1461033157600080fd5b80632f2ff15d146102c5578063313ce567146102d857806334616805146102e75780633644e515146102fb57600080fd5b8063206a8a22116101ce578063206a8a221461026657806323b872dd1461027b578063248a9ca31461028e57806326898da9146102b157600080fd5b806301ffc9a71461020057806306fdde0314610228578063095ea7b31461023d57806318160ddd14610250575b600080fd5b61021361020e366004611892565b61049d565b60405190151581526020015b60405180910390f35b6102306104d4565b60405161021f91906118e8565b61021361024b366004611937565b610566565b61025861057c565b60405190815260200161021f565b610279610274366004611961565b61058c565b005b610213610289366004611983565b6105c4565b61025861029c3660046119bf565b60009081526007602052604090206001015490565b60095461021390600160a01b900460ff1681565b6102796102d33660046119d8565b610673565b6040516012815260200161021f565b60095461021390600160a81b900460ff1681565b61025861069e565b6102796103113660046119d8565b6106a8565b610213610324366004611937565b610726565b610213610762565b60055460ff16610213565b61025861034a366004611a04565b61079f565b61025861035d366004611a04565b6107bd565b6102136107db565b6102136103783660046119d8565b610810565b61023061083b565b600954610398906001600160a01b031681565b6040516001600160a01b03909116815260200161021f565b610258600081565b6102136103c6366004611937565b61084a565b6102136103d9366004611937565b6108e3565b6102796108f0565b6102796103f4366004611a04565b610936565b610279610407366004611a1f565b6109cb565b61027961041a3660046119d8565b610b2f565b61025860085481565b610258610436366004611a92565b6001600160a01b03918216600090815260016020908152604080832093909416825291909152205490565b6102587f65d7a28e3265b37a6474929f336521b332c1681b933f6cb9f3376673440d862a81565b610258600080516020611c0d83398151915281565b60006001600160e01b03198216637965db0b60e01b14806104ce57506301ffc9a760e01b6001600160e01b03198316145b92915050565b6060600380546104e390611abc565b80601f016020809104026020016040519081016040528092919081815260200182805461050f90611abc565b801561055c5780601f106105315761010080835404028352916020019161055c565b820191906000526020600020905b81548152906001019060200180831161053f57829003601f168201915b5050505050905090565b6000610573338484610c40565b50600192915050565b600061058760025490565b905090565b600080516020611c0d8339815191526105a58133610d64565b5060098054911515600160a01b0260ff60a01b19909216919091179055565b60006105d1848484610dc8565b6001600160a01b03841660009081526001602090815260408083203384529091529020548281101561065b5760405162461bcd60e51b815260206004820152602860248201527f45524332303a207472616e7366657220616d6f756e74206578636565647320616044820152676c6c6f77616e636560c01b60648201526084015b60405180910390fd5b6106688533858403610c40565b506001949350505050565b60008281526007602052604090206001015461068f8133610d64565b6106998383610fa3565b505050565b6000610587611029565b6001600160a01b03811633146107185760405162461bcd60e51b815260206004820152602f60248201527f416363657373436f6e74726f6c3a2063616e206f6e6c792072656e6f756e636560448201526e103937b632b9903337b91039b2b63360891b6064820152608401610652565b6107228282611150565b5050565b3360008181526001602090815260408083206001600160a01b0387168452909152812054909161057391859061075d908690611b07565b610c40565b60007f65d7a28e3265b37a6474929f336521b332c1681b933f6cb9f3376673440d862a61078f8133610d64565b6107976111b7565b600191505090565b6001600160a01b0381166000908152602081905260408120546104ce565b6001600160a01b0381166000908152600660205260408120546104ce565b60007f65d7a28e3265b37a6474929f336521b332c1681b933f6cb9f3376673440d862a6108088133610d64565b61079761124a565b60009182526007602090815260408084206001600160a01b0393909316845291905290205460ff1690565b6060600480546104e390611abc565b3360009081526001602090815260408083206001600160a01b0386168452909152812054828110156108cc5760405162461bcd60e51b815260206004820152602560248201527f45524332303a2064656372656173656420616c6c6f77616e63652062656c6f77604482015264207a65726f60d81b6064820152608401610652565b6108d93385858403610c40565b5060019392505050565b6000610573338484610dc8565b600080516020611c0d8339815191526109098133610d64565b600954600160a81b900460ff161561092057600080fd5b506009805460ff60a81b1916600160a81b179055565b600080516020611c0d83398151915261094f8133610d64565b6009546001600160a01b0316156109a85760405162461bcd60e51b815260206004820152601c60248201527f63616e206f6e6c7920626520696e697469616c697a6564206f6e6365000000006044820152606401610652565b50600980546001600160a01b0319166001600160a01b0392909216919091179055565b83421115610a1b5760405162461bcd60e51b815260206004820152601d60248201527f45524332305065726d69743a206578706972656420646561646c696e650000006044820152606401610652565b60007f0000000000000000000000000000000000000000000000000000000000000000888888610a4a8c6112c5565b6040805160208101969096526001600160a01b0394851690860152929091166060840152608083015260a082015260c0810186905260e0016040516020818303038152906040528051906020012090506000610aa5826112ed565b90506000610ab58287878761133b565b9050896001600160a01b0316816001600160a01b031614610b185760405162461bcd60e51b815260206004820152601e60248201527f45524332305065726d69743a20696e76616c6964207369676e617475726500006044820152606401610652565b610b238a8a8a610c40565b50505050505050505050565b600082815260076020526040902060010154610b4b8133610d64565b6106998383611150565b6001600160a01b038216610bab5760405162461bcd60e51b815260206004820152601f60248201527f45524332303a206d696e7420746f20746865207a65726f2061646472657373006044820152606401610652565b610bb760008383611363565b8060026000828254610bc99190611b07565b90915550506001600160a01b03821660009081526020819052604081208054839290610bf6908490611b07565b90915550506040518181526001600160a01b038316906000907fddf252ad1be2c89b69c2b068fc378daa952ba7f163c4a11628f55a4df523b3ef9060200160405180910390a35050565b6001600160a01b038316610ca25760405162461bcd60e51b8152602060048201526024808201527f45524332303a20617070726f76652066726f6d20746865207a65726f206164646044820152637265737360e01b6064820152608401610652565b6001600160a01b038216610d035760405162461bcd60e51b815260206004820152602260248201527f45524332303a20617070726f766520746f20746865207a65726f206164647265604482015261737360f01b6064820152608401610652565b6001600160a01b0383811660008181526001602090815260408083209487168084529482529182902085905590518481527f8c5be1e5ebec7d5bd14f71427d1e84f3dd0314c0f7b2291e5b200ac8c7c3b925910160405180910390a3505050565b610d6e8282610810565b61072257610d86816001600160a01b03166014611444565b610d91836020611444565b604051602001610da2929190611b1f565b60408051601f198184030181529082905262461bcd60e51b8252610652916004016118e8565b6001600160a01b038316610e2c5760405162461bcd60e51b815260206004820152602560248201527f45524332303a207472616e736665722066726f6d20746865207a65726f206164604482015264647265737360d81b6064820152608401610652565b6001600160a01b038216610e8e5760405162461bcd60e51b815260206004820152602360248201527f45524332303a207472616e7366657220746f20746865207a65726f206164647260448201526265737360e81b6064820152608401610652565b610e99838383611363565b6001600160a01b03831660009081526020819052604090205481811015610f115760405162461bcd60e51b815260206004820152602660248201527f45524332303a207472616e7366657220616d6f756e7420657863656564732062604482015265616c616e636560d01b6064820152608401610652565b6001600160a01b03808516600090815260208190526040808220858503905591851681529081208054849290610f48908490611b07565b92505081905550826001600160a01b0316846001600160a01b03167fddf252ad1be2c89b69c2b068fc378daa952ba7f163c4a11628f55a4df523b3ef84604051610f9491815260200190565b60405180910390a35b50505050565b610fad8282610810565b6107225760008281526007602090815260408083206001600160a01b03851684529091529020805460ff19166001179055610fe53390565b6001600160a01b0316816001600160a01b0316837f2f8788117e7eff1d82e926ec794901d17c78024a50270940304540a733656f0d60405160405180910390a45050565b6000306001600160a01b037f00000000000000000000000000000000000000000000000000000000000000001614801561108257507f000000000000000000000000000000000000000000000000000000000000000046145b156110ac57507f000000000000000000000000000000000000000000000000000000000000000090565b50604080517f00000000000000000000000000000000000000000000000000000000000000006020808301919091527f0000000000000000000000000000000000000000000000000000000000000000828401527f000000000000000000000000000000000000000000000000000000000000000060608301524660808301523060a0808401919091528351808403909101815260c0909201909252805191012090565b61115a8282610810565b156107225760008281526007602090815260408083206001600160a01b0385168085529252808320805460ff1916905551339285917ff6391f5c32d9c69d2a47ea670b442974b53935d1edc7fd64eb21e047a839171b9190a45050565b60055460ff166112005760405162461bcd60e51b815260206004820152601460248201527314185d5cd8589b194e881b9bdd081c185d5cd95960621b6044820152606401610652565b6005805460ff191690557f5db9ee0a495bf2e6ff9c91a7834c1ba4fdd244a5e8aa4e537bd38aeae4b073aa335b6040516001600160a01b03909116815260200160405180910390a1565b60055460ff16156112905760405162461bcd60e51b815260206004820152601060248201526f14185d5cd8589b194e881c185d5cd95960821b6044820152606401610652565b6005805460ff191660011790557f62e78cea01bee320cd4e420270b5ea74000d11b0c9f74754ebdbfc544b05a25861122d3390565b6001600160a01b03811660009081526006602052604090208054600181018255905b50919050565b60006104ce6112fa611029565b8360405161190160f01b6020820152602281018390526042810182905260009060620160405160208183030381529060405280519060200120905092915050565b600080600061134c878787876115e7565b91509150611359816116d4565b5095945050505050565b60055460ff16156113a95760405162461bcd60e51b815260206004820152601060248201526f14185d5cd8589b194e881c185d5cd95960821b6044820152606401610652565b600954600160a01b900460ff1680156113cc5750600954600160a81b900460ff16155b1561069957600954604051637e2f3afd60e01b81526001600160a01b03858116600483015284811660248301526044820184905290911690637e2f3afd90606401600060405180830381600087803b15801561142757600080fd5b505af115801561143b573d6000803e3d6000fd5b50505050505050565b60606000611453836002611b94565b61145e906002611b07565b67ffffffffffffffff81111561147657611476611bb3565b6040519080825280601f01601f1916602001820160405280156114a0576020820181803683370190505b509050600360fc1b816000815181106114bb576114bb611bc9565b60200101906001600160f81b031916908160001a905350600f60fb1b816001815181106114ea576114ea611bc9565b60200101906001600160f81b031916908160001a905350600061150e846002611b94565b611519906001611b07565b90505b6001811115611591576f181899199a1a9b1b9c1cb0b131b232b360811b85600f166010811061154d5761154d611bc9565b1a60f81b82828151811061156357611563611bc9565b60200101906001600160f81b031916908160001a90535060049490941c9361158a81611bdf565b905061151c565b5083156115e05760405162461bcd60e51b815260206004820181905260248201527f537472696e67733a20686578206c656e67746820696e73756666696369656e746044820152606401610652565b9392505050565b6000807f7fffffffffffffffffffffffffffffff5d576e7357a4501ddfe92f46681b20a083111561161e57506000905060036116cb565b8460ff16601b1415801561163657508460ff16601c14155b1561164757506000905060046116cb565b6040805160008082526020820180845289905260ff881692820192909252606081018690526080810185905260019060a0016020604051602081039080840390855afa15801561169b573d6000803e3d6000fd5b5050604051601f1901519150506001600160a01b0381166116c4576000600192509250506116cb565b9150600090505b94509492505050565b60008160048111156116e8576116e8611bf6565b14156116f15750565b600181600481111561170557611705611bf6565b14156117535760405162461bcd60e51b815260206004820152601860248201527f45434453413a20696e76616c6964207369676e617475726500000000000000006044820152606401610652565b600281600481111561176757611767611bf6565b14156117b55760405162461bcd60e51b815260206004820152601f60248201527f45434453413a20696e76616c6964207369676e6174757265206c656e677468006044820152606401610652565b60038160048111156117c9576117c9611bf6565b14156118225760405162461bcd60e51b815260206004820152602260248201527f45434453413a20696e76616c6964207369676e6174757265202773272076616c604482015261756560f01b6064820152608401610652565b600481600481111561183657611836611bf6565b141561188f5760405162461bcd60e51b815260206004820152602260248201527f45434453413a20696e76616c6964207369676e6174757265202776272076616c604482015261756560f01b6064820152608401610652565b50565b6000602082840312156118a457600080fd5b81356001600160e01b0319811681146115e057600080fd5b60005b838110156118d75781810151838201526020016118bf565b83811115610f9d5750506000910152565b60208152600082518060208401526119078160408501602087016118bc565b601f01601f19169190910160400192915050565b80356001600160a01b038116811461193257600080fd5b919050565b6000806040838503121561194a57600080fd5b6119538361191b565b946020939093013593505050565b60006020828403121561197357600080fd5b813580151581146115e057600080fd5b60008060006060848603121561199857600080fd5b6119a18461191b565b92506119af6020850161191b565b9150604084013590509250925092565b6000602082840312156119d157600080fd5b5035919050565b600080604083850312156119eb57600080fd5b823591506119fb6020840161191b565b90509250929050565b600060208284031215611a1657600080fd5b6115e08261191b565b600080600080600080600060e0888a031215611a3a57600080fd5b611a438861191b565b9650611a516020890161191b565b95506040880135945060608801359350608088013560ff81168114611a7557600080fd5b9699959850939692959460a0840135945060c09093013592915050565b60008060408385031215611aa557600080fd5b611aae8361191b565b91506119fb6020840161191b565b600181811c90821680611ad057607f821691505b602082108114156112e757634e487b7160e01b600052602260045260246000fd5b634e487b7160e01b600052601160045260246000fd5b60008219821115611b1a57611b1a611af1565b500190565b7f416363657373436f6e74726f6c3a206163636f756e7420000000000000000000815260008351611b578160178501602088016118bc565b7001034b99036b4b9b9b4b733903937b6329607d1b6017918401918201528351611b888160288401602088016118bc565b01602801949350505050565b6000816000190483118215151615611bae57611bae611af1565b500290565b634e487b7160e01b600052604160045260246000fd5b634e487b7160e01b600052603260045260246000fd5b600081611bee57611bee611af1565b506000190190565b634e487b7160e01b600052602160045260246000fdfe241ecf16d79d0f8dbfb92cbc07fe17840425976cf0667f022fe9877caa831b08a2646970667358221220551d02fc36b9223462fdbaaf38cc4ac9641af8239b4d47b03195daa2c5f14b0d64736f6c634300080a0033",
  "linkReferences": {},
  "deployedLinkReferences": {}
}