{
  "_format": "hh-sol-artifact-1",
  "contractName": "LFIToken",
  "sourceName": "contracts/LFIToken.sol",
  "abi": [
    {
      "inputs": [],
      "stateMutability": "nonpayable",
      "type": "constructor"
    },
    {
      "anonymous": false,
      "inputs": [
        {
          "indexed": false,
          "internalType": "address",
          "name": "user",
          "type": "address"
        }
      ],
      "name": "AddedBlackList",
      "type": "event"
    },
    {
      "anonymous": false,
      "inputs": [
        {
          "indexed": true,
          "internalType": "address",
          "name": "owner",
          "type": "address"
        },
        {
          "indexed": true,
          "internalType": "address",
          "name": "spender",
          "type": "address"
        },
        {
          "indexed": false,
          "internalType": "uint256",
          "name": "value",
          "type": "uint256"
        }
      ],
      "name": "Approval",
      "type": "event"
    },
    {
      "anonymous": false,
      "inputs": [
        {
          "indexed": false,
          "internalType": "address",
          "name": "blackListedUser",
          "type": "address"
        },
        {
          "indexed": false,
          "internalType": "uint256",
          "name": "balance",
          "type": "uint256"
        }
      ],
      "name": "DestroyedBlackFunds",
      "type": "event"
    },
    {
      "anonymous": false,
      "inputs": [
        {
          "indexed": true,
          "internalType": "address",
          "name": "previousOwner",
          "type": "address"
        },
        {
          "indexed": true,
          "internalType": "address",
          "name": "newOwner",
          "type": "address"
        }
      ],
      "name": "OwnershipTransferred",
      "type": "event"
    },
    {
      "anonymous": false,
      "inputs": [
        {
          "indexed": false,
          "internalType": "address",
          "name": "account",
          "type": "address"
        }
      ],
      "name": "Paused",
      "type": "event"
    },
    {
      "anonymous": false,
      "inputs": [
        {
          "indexed": false,
          "internalType": "address",
          "name": "user",
          "type": "address"
        }
      ],
      "name": "RemovedBlackList",
      "type": "event"
    },
    {
      "anonymous": false,
      "inputs": [
        {
          "indexed": true,
          "internalType": "bytes32",
          "name": "role",
          "type": "bytes32"
        },
        {
          "indexed": true,
          "internalType": "bytes32",
          "name": "previousAdminRole",
          "type": "bytes32"
        },
        {
          "indexed": true,
          "internalType": "bytes32",
          "name": "newAdminRole",
          "type": "bytes32"
        }
      ],
      "name": "RoleAdminChanged",
      "type": "event"
    },
    {
      "anonymous": false,
      "inputs": [
        {
          "indexed": true,
          "internalType": "bytes32",
          "name": "role",
          "type": "bytes32"
        },
        {
          "indexed": true,
          "internalType": "address",
          "name": "account",
          "type": "address"
        },
        {
          "indexed": true,
          "internalType": "address",
          "name": "sender",
          "type": "address"
        }
      ],
      "name": "RoleGranted",
      "type": "event"
    },
    {
      "anonymous": false,
      "inputs": [
        {
          "indexed": true,
          "internalType": "bytes32",
          "name": "role",
          "type": "bytes32"
        },
        {
          "indexed": true,
          "internalType": "address",
          "name": "account",
          "type": "address"
        },
        {
          "indexed": true,
          "internalType": "address",
          "name": "sender",
          "type": "address"
        }
      ],
      "name": "RoleRevoked",
      "type": "event"
    },
    {
      "anonymous": false,
      "inputs": [
        {
          "indexed": true,
          "internalType": "address",
          "name": "from",
          "type": "address"
        },
        {
          "indexed": true,
          "internalType": "address",
          "name": "to",
          "type": "address"
        },
        {
          "indexed": false,
          "internalType": "uint256",
          "name": "value",
          "type": "uint256"
        }
      ],
      "name": "Transfer",
      "type": "event"
    },
    {
      "anonymous": false,
      "inputs": [
        {
          "indexed": false,
          "internalType": "address",
          "name": "account",
          "type": "address"
        }
      ],
      "name": "Unpaused",
      "type": "event"
    },
    {
      "inputs": [],
      "name": "BURNER_ROLE",
      "outputs": [
        {
          "internalType": "bytes32",
          "name": "",
          "type": "bytes32"
        }
      ],
      "stateMutability": "view",
      "type": "function"
    },
    {
      "inputs": [],
      "name": "DEFAULT_ADMIN_ROLE",
      "outputs": [
        {
          "internalType": "bytes32",
          "name": "",
          "type": "bytes32"
        }
      ],
      "stateMutability": "view",
      "type": "function"
    },
    {
      "inputs": [],
      "name": "DOMAIN_SEPARATOR",
      "outputs": [
        {
          "internalType": "bytes32",
          "name": "",
          "type": "bytes32"
        }
      ],
      "stateMutability": "view",
      "type": "function"
    },
    {
      "inputs": [],
      "name": "MINTER_ROLE",
      "outputs": [
        {
          "internalType": "bytes32",
          "name": "",
          "type": "bytes32"
        }
      ],
      "stateMutability": "view",
      "type": "function"
    },
    {
      "inputs": [],
      "name": "PAUSER_ROLE",
      "outputs": [
        {
          "internalType": "bytes32",
          "name": "",
          "type": "bytes32"
        }
      ],
      "stateMutability": "view",
      "type": "function"
    },
    {
      "inputs": [
        {
          "internalType": "address",
          "name": "evilUser",
          "type": "address"
        }
      ],
      "name": "addBlackList",
      "outputs": [],
      "stateMutability": "nonpayable",
      "type": "function"
    },
    {
      "inputs": [
        {
          "internalType": "address",
          "name": "owner",
          "type": "address"
        },
        {
          "internalType": "address",
          "name": "spender",
          "type": "address"
        }
      ],
      "name": "allowance",
      "outputs": [
        {
          "internalType": "uint256",
          "name": "",
          "type": "uint256"
        }
      ],
      "stateMutability": "view",
      "type": "function"
    },
    {
      "inputs": [
        {
          "internalType": "address",
          "name": "spender",
          "type": "address"
        },
        {
          "internalType": "uint256",
          "name": "amount",
          "type": "uint256"
        }
      ],
      "name": "approve",
      "outputs": [
        {
          "internalType": "bool",
          "name": "",
          "type": "bool"
        }
      ],
      "stateMutability": "nonpayable",
      "type": "function"
    },
    {
      "inputs": [
        {
          "internalType": "address",
          "name": "account",
          "type": "address"
        }
      ],
      "name": "balanceOf",
      "outputs": [
        {
          "internalType": "uint256",
          "name": "",
          "type": "uint256"
        }
      ],
      "stateMutability": "view",
      "type": "function"
    },
    {
      "inputs": [
        {
          "internalType": "uint256",
          "name": "amount",
          "type": "uint256"
        }
      ],
      "name": "burn",
      "outputs": [],
      "stateMutability": "nonpayable",
      "type": "function"
    },
    {
      "inputs": [
        {
          "internalType": "address",
          "name": "account",
          "type": "address"
        },
        {
          "internalType": "uint256",
          "name": "amount",
          "type": "uint256"
        }
      ],
      "name": "burnFrom",
      "outputs": [],
      "stateMutability": "nonpayable",
      "type": "function"
    },
    {
      "inputs": [
        {
          "internalType": "address",
          "name": "account",
          "type": "address"
        },
        {
          "internalType": "uint256",
          "name": "amount",
          "type": "uint256"
        }
      ],
      "name": "burnToken",
      "outputs": [],
      "stateMutability": "nonpayable",
      "type": "function"
    },
    {
      "inputs": [],
      "name": "decimals",
      "outputs": [
        {
          "internalType": "uint8",
          "name": "",
          "type": "uint8"
        }
      ],
      "stateMutability": "pure",
      "type": "function"
    },
    {
      "inputs": [
        {
          "internalType": "address",
          "name": "spender",
          "type": "address"
        },
        {
          "internalType": "uint256",
          "name": "subtractedValue",
          "type": "uint256"
        }
      ],
      "name": "decreaseAllowance",
      "outputs": [
        {
          "internalType": "bool",
          "name": "",
          "type": "bool"
        }
      ],
      "stateMutability": "nonpayable",
      "type": "function"
    },
    {
      "inputs": [
        {
          "internalType": "address",
          "name": "blackListedUser",
          "type": "address"
        }
      ],
      "name": "destroyBlackFunds",
      "outputs": [],
      "stateMutability": "nonpayable",
      "type": "function"
    },
    {
      "inputs": [
        {
          "internalType": "address",
          "name": "maker",
          "type": "address"
        }
      ],
      "name": "getBlackListStatus",
      "outputs": [
        {
          "internalType": "bool",
          "name": "",
          "type": "bool"
        }
      ],
      "stateMutability": "view",
      "type": "function"
    },
    {
      "inputs": [],
      "name": "getOwner",
      "outputs": [
        {
          "internalType": "address",
          "name": "",
          "type": "address"
        }
      ],
      "stateMutability": "view",
      "type": "function"
    },
    {
      "inputs": [
        {
          "internalType": "bytes32",
          "name": "role",
          "type": "bytes32"
        }
      ],
      "name": "getRoleAdmin",
      "outputs": [
        {
          "internalType": "bytes32",
          "name": "",
          "type": "bytes32"
        }
      ],
      "stateMutability": "view",
      "type": "function"
    },
    {
      "inputs": [
        {
          "internalType": "bytes32",
          "name": "role",
          "type": "bytes32"
        },
        {
          "internalType": "address",
          "name": "account",
          "type": "address"
        }
      ],
      "name": "grantRole",
      "outputs": [],
      "stateMutability": "nonpayable",
      "type": "function"
    },
    {
      "inputs": [
        {
          "internalType": "bytes32",
          "name": "role",
          "type": "bytes32"
        },
        {
          "internalType": "address",
          "name": "account",
          "type": "address"
        }
      ],
      "name": "hasRole",
      "outputs": [
        {
          "internalType": "bool",
          "name": "",
          "type": "bool"
        }
      ],
      "stateMutability": "view",
      "type": "function"
    },
    {
      "inputs": [
        {
          "internalType": "address",
          "name": "spender",
          "type": "address"
        },
        {
          "internalType": "uint256",
          "name": "addedValue",
          "type": "uint256"
        }
      ],
      "name": "increaseAllowance",
      "outputs": [
        {
          "internalType": "bool",
          "name": "",
          "type": "bool"
        }
      ],
      "stateMutability": "nonpayable",
      "type": "function"
    },
    {
      "inputs": [
        {
          "internalType": "address",
          "name": "",
          "type": "address"
        }
      ],
      "name": "isBlackListed",
      "outputs": [
        {
          "internalType": "bool",
          "name": "",
          "type": "bool"
        }
      ],
      "stateMutability": "view",
      "type": "function"
    },
    {
      "inputs": [],
      "name": "maxSupply",
      "outputs": [
        {
          "internalType": "uint256",
          "name": "",
          "type": "uint256"
        }
      ],
      "stateMutability": "view",
      "type": "function"
    },
    {
      "inputs": [
        {
          "internalType": "address",
          "name": "to",
          "type": "address"
        },
        {
          "internalType": "uint256",
          "name": "amount",
          "type": "uint256"
        }
      ],
      "name": "mint",
      "outputs": [],
      "stateMutability": "nonpayable",
      "type": "function"
    },
    {
      "inputs": [],
      "name": "name",
      "outputs": [
        {
          "internalType": "string",
          "name": "",
          "type": "string"
        }
      ],
      "stateMutability": "view",
      "type": "function"
    },
    {
      "inputs": [
        {
          "internalType": "address",
          "name": "owner",
          "type": "address"
        }
      ],
      "name": "nonces",
      "outputs": [
        {
          "internalType": "uint256",
          "name": "",
          "type": "uint256"
        }
      ],
      "stateMutability": "view",
      "type": "function"
    },
    {
      "inputs": [],
      "name": "owner",
      "outputs": [
        {
          "internalType": "address",
          "name": "",
          "type": "address"
        }
      ],
      "stateMutability": "view",
      "type": "function"
    },
    {
      "inputs": [],
      "name": "pause",
      "outputs": [
        {
          "internalType": "bool",
          "name": "",
          "type": "bool"
        }
      ],
      "stateMutability": "nonpayable",
      "type": "function"
    },
    {
      "inputs": [],
      "name": "paused",
      "outputs": [
        {
          "internalType": "bool",
          "name": "",
          "type": "bool"
        }
      ],
      "stateMutability": "view",
      "type": "function"
    },
    {
      "inputs": [
        {
          "internalType": "address",
          "name": "owner",
          "type": "address"
        },
        {
          "internalType": "address",
          "name": "spender",
          "type": "address"
        },
        {
          "internalType": "uint256",
          "name": "value",
          "type": "uint256"
        },
        {
          "internalType": "uint256",
          "name": "deadline",
          "type": "uint256"
        },
        {
          "internalType": "uint8",
          "name": "v",
          "type": "uint8"
        },
        {
          "internalType": "bytes32",
          "name": "r",
          "type": "bytes32"
        },
        {
          "internalType": "bytes32",
          "name": "s",
          "type": "bytes32"
        }
      ],
      "name": "permit",
      "outputs": [],
      "stateMutability": "nonpayable",
      "type": "function"
    },
    {
      "inputs": [
        {
          "internalType": "address",
          "name": "clearedUser",
          "type": "address"
        }
      ],
      "name": "removeBlackList",
      "outputs": [],
      "stateMutability": "nonpayable",
      "type": "function"
    },
    {
      "inputs": [],
      "name": "renounceOwnership",
      "outputs": [],
      "stateMutability": "nonpayable",
      "type": "function"
    },
    {
      "inputs": [
        {
          "internalType": "bytes32",
          "name": "role",
          "type": "bytes32"
        },
        {
          "internalType": "address",
          "name": "account",
          "type": "address"
        }
      ],
      "name": "renounceRole",
      "outputs": [],
      "stateMutability": "nonpayable",
      "type": "function"
    },
    {
      "inputs": [
        {
          "internalType": "string",
          "name": "role",
          "type": "string"
        },
        {
          "internalType": "address",
          "name": "revoke",
          "type": "address"
        }
      ],
      "name": "revokeRole",
      "outputs": [],
      "stateMutability": "nonpayable",
      "type": "function"
    },
    {
      "inputs": [
        {
          "internalType": "bytes32",
          "name": "role",
          "type": "bytes32"
        },
        {
          "internalType": "address",
          "name": "account",
          "type": "address"
        }
      ],
      "name": "revokeRole",
      "outputs": [],
      "stateMutability": "nonpayable",
      "type": "function"
    },
    {
      "inputs": [
        {
          "internalType": "string",
          "name": "role",
          "type": "string"
        },
        {
          "internalType": "address",
          "name": "add",
          "type": "address"
        }
      ],
      "name": "setRole",
      "outputs": [],
      "stateMutability": "nonpayable",
      "type": "function"
    },
    {
      "inputs": [
        {
          "internalType": "bytes4",
          "name": "interfaceId",
          "type": "bytes4"
        }
      ],
      "name": "supportsInterface",
      "outputs": [
        {
          "internalType": "bool",
          "name": "",
          "type": "bool"
        }
      ],
      "stateMutability": "view",
      "type": "function"
    },
    {
      "inputs": [],
      "name": "symbol",
      "outputs": [
        {
          "internalType": "string",
          "name": "",
          "type": "string"
        }
      ],
      "stateMutability": "view",
      "type": "function"
    },
    {
      "inputs": [],
      "name": "totalSupply",
      "outputs": [
        {
          "internalType": "uint256",
          "name": "",
          "type": "uint256"
        }
      ],
      "stateMutability": "view",
      "type": "function"
    },
    {
      "inputs": [
        {
          "internalType": "address",
          "name": "recipient",
          "type": "address"
        },
        {
          "internalType": "uint256",
          "name": "amount",
          "type": "uint256"
        }
      ],
      "name": "transfer",
      "outputs": [
        {
          "internalType": "bool",
          "name": "",
          "type": "bool"
        }
      ],
      "stateMutability": "nonpayable",
      "type": "function"
    },
    {
      "inputs": [
        {
          "internalType": "address",
          "name": "sender",
          "type": "address"
        },
        {
          "internalType": "address",
          "name": "recipient",
          "type": "address"
        },
        {
          "internalType": "uint256",
          "name": "amount",
          "type": "uint256"
        }
      ],
      "name": "transferFrom",
      "outputs": [
        {
          "internalType": "bool",
          "name": "",
          "type": "bool"
        }
      ],
      "stateMutability": "nonpayable",
      "type": "function"
    },
    {
      "inputs": [
        {
          "internalType": "address",
          "name": "newOwner",
          "type": "address"
        }
      ],
      "name": "transferOwnership",
      "outputs": [],
      "stateMutability": "nonpayable",
      "type": "function"
    },
    {
      "inputs": [],
      "name": "unpause",
      "outputs": [
        {
          "internalType": "bool",
          "name": "",
          "type": "bool"
        }
      ],
      "stateMutability": "nonpayable",
      "type": "function"
    }
  ],
  "bytecode": "0x6101606040527f6e71edae12b1b97f4d1f60370fef10105fa2faae0126114a169c64845d6126c9610140908152503480156200003a57600080fd5b506040518060400160405280600881526020017f4c4649546f6b656e000000000000000000000000000000000000000000000000815250806040518060400160405280600181526020017f31000000000000000000000000000000000000000000000000000000000000008152506040518060400160405280600881526020017f4c4649546f6b656e0000000000000000000000000000000000000000000000008152506040518060400160405280600381526020017f4c464900000000000000000000000000000000000000000000000000000000008152506200013462000128620002ad60201b60201c565b620002b560201b60201c565b81600490805190602001906200014c929190620007ca565b50806005908051906020019062000165929190620007ca565b5050506000600760006101000a81548160ff02191690831515021790555060008280519060200120905060008280519060200120905060007f8b73c3c69bb8fe3d512ecc4cf759cc79239f7b179b0ffacaa9a75d522b39400f90508260e081815250508161010081815250504660a08181525050620001ec8184846200037960201b60201c565b608081815250503073ffffffffffffffffffffffffffffffffffffffff1660c08173ffffffffffffffffffffffffffffffffffffffff1681525050806101208181525050505050505050600a8062000245919062000a14565b633b9aca0062000256919062000a65565b600a819055506200029233600a8062000270919062000a14565b6305f5e10062000281919062000a65565b620003b560201b620018c61760201c565b620002a76000801b336200052f60201b60201c565b62000dda565b600033905090565b60008060009054906101000a900473ffffffffffffffffffffffffffffffffffffffff169050816000806101000a81548173ffffffffffffffffffffffffffffffffffffffff021916908373ffffffffffffffffffffffffffffffffffffffff1602179055508173ffffffffffffffffffffffffffffffffffffffff168173ffffffffffffffffffffffffffffffffffffffff167f8be0079c531659141344cd1fd0a4f28419497f9722a3daafe3b4186f6b6457e060405160405180910390a35050565b600083838346306040516020016200039695949392919062000b37565b6040516020818303038152906040528051906020012090509392505050565b600073ffffffffffffffffffffffffffffffffffffffff168273ffffffffffffffffffffffffffffffffffffffff16141562000428576040517f08c379a00000000000000000000000000000000000000000000000000000000081526004016200041f9062000bf5565b60405180910390fd5b6200043c600083836200062160201b60201c565b806003600082825462000450919062000c17565b9250508190555080600160008473ffffffffffffffffffffffffffffffffffffffff1673ffffffffffffffffffffffffffffffffffffffff1681526020019081526020016000206000828254620004a8919062000c17565b925050819055508173ffffffffffffffffffffffffffffffffffffffff16600073ffffffffffffffffffffffffffffffffffffffff167fddf252ad1be2c89b69c2b068fc378daa952ba7f163c4a11628f55a4df523b3ef836040516200050f919062000c74565b60405180910390a36200052b600083836200072160201b60201c565b5050565b6200054182826200073e60201b60201c565b6200061d5760016008600084815260200190815260200160002060000160008373ffffffffffffffffffffffffffffffffffffffff1673ffffffffffffffffffffffffffffffffffffffff16815260200190815260200160002060006101000a81548160ff021916908315150217905550620005c2620002ad60201b60201c565b73ffffffffffffffffffffffffffffffffffffffff168173ffffffffffffffffffffffffffffffffffffffff16837f2f8788117e7eff1d82e926ec794901d17c78024a50270940304540a733656f0d60405160405180910390a45b5050565b62000631620007a960201b60201c565b1562000674576040517f08c379a00000000000000000000000000000000000000000000000000000000081526004016200066b9062000ce1565b60405180910390fd5b600660003373ffffffffffffffffffffffffffffffffffffffff1673ffffffffffffffffffffffffffffffffffffffff16815260200190815260200160002060009054906101000a900460ff161562000704576040517f08c379a0000000000000000000000000000000000000000000000000000000008152600401620006fb9062000d53565b60405180910390fd5b6200071c838383620007c060201b62001a271760201c565b505050565b62000739838383620007c560201b62001a2c1760201c565b505050565b60006008600084815260200190815260200160002060000160008373ffffffffffffffffffffffffffffffffffffffff1673ffffffffffffffffffffffffffffffffffffffff16815260200190815260200160002060009054906101000a900460ff16905092915050565b6000600760009054906101000a900460ff16905090565b505050565b505050565b828054620007d89062000da4565b90600052602060002090601f016020900481019282620007fc576000855562000848565b82601f106200081757805160ff191683800117855562000848565b8280016001018555821562000848579182015b82811115620008475782518255916020019190600101906200082a565b5b5090506200085791906200085b565b5090565b5b80821115620008765760008160009055506001016200085c565b5090565b7f4e487b7100000000000000000000000000000000000000000000000000000000600052601160045260246000fd5b60008160011c9050919050565b6000808291508390505b60018511156200090857808604811115620008e057620008df6200087a565b5b6001851615620008f05780820291505b80810290506200090085620008a9565b9450620008c0565b94509492505050565b600082620009235760019050620009f6565b81620009335760009050620009f6565b81600181146200094c576002811462000957576200098d565b6001915050620009f6565b60ff8411156200096c576200096b6200087a565b5b8360020a9150848211156200098657620009856200087a565b5b50620009f6565b5060208310610133831016604e8410600b8410161715620009c75782820a905083811115620009c157620009c06200087a565b5b620009f6565b620009d68484846001620008b6565b92509050818404811115620009f057620009ef6200087a565b5b81810290505b9392505050565b6000819050919050565b600060ff82169050919050565b600062000a2182620009fd565b915062000a2e8362000a07565b925062000a5d7fffffffffffffffffffffffffffffffffffffffffffffffffffffffffffffffff848462000911565b905092915050565b600062000a7282620009fd565b915062000a7f83620009fd565b9250817fffffffffffffffffffffffffffffffffffffffffffffffffffffffffffffffff048311821515161562000abb5762000aba6200087a565b5b828202905092915050565b6000819050919050565b62000adb8162000ac6565b82525050565b62000aec81620009fd565b82525050565b600073ffffffffffffffffffffffffffffffffffffffff82169050919050565b600062000b1f8262000af2565b9050919050565b62000b318162000b12565b82525050565b600060a08201905062000b4e600083018862000ad0565b62000b5d602083018762000ad0565b62000b6c604083018662000ad0565b62000b7b606083018562000ae1565b62000b8a608083018462000b26565b9695505050505050565b600082825260208201905092915050565b7f45524332303a206d696e7420746f20746865207a65726f206164647265737300600082015250565b600062000bdd601f8362000b94565b915062000bea8262000ba5565b602082019050919050565b6000602082019050818103600083015262000c108162000bce565b9050919050565b600062000c2482620009fd565b915062000c3183620009fd565b9250827fffffffffffffffffffffffffffffffffffffffffffffffffffffffffffffffff0382111562000c695762000c686200087a565b5b828201905092915050565b600060208201905062000c8b600083018462000ae1565b92915050565b7f5061757361626c653a2070617573656400000000000000000000000000000000600082015250565b600062000cc960108362000b94565b915062000cd68262000c91565b602082019050919050565b6000602082019050818103600083015262000cfc8162000cba565b9050919050565b7f4552524f523a20426c61636b6c69737465640000000000000000000000000000600082015250565b600062000d3b60128362000b94565b915062000d488262000d03565b602082019050919050565b6000602082019050818103600083015262000d6e8162000d2c565b9050919050565b7f4e487b7100000000000000000000000000000000000000000000000000000000600052602260045260246000fd5b6000600282049050600182168062000dbd57607f821691505b6020821081141562000dd45762000dd362000d75565b5b50919050565b60805160a05160c05160e0516101005161012051610140516147d062000e35600039600061134b015260006121280152600061216a015260006121490152600061207e015260006120d4015260006120fd01526147d06000f3fe608060405234801561001057600080fd5b50600436106102695760003560e01c806379cc679011610151578063d1df306c116100c3578063dd62ed3e11610087578063dd62ed3e14610760578063e47d606014610790578063e4997dc5146107c0578063e63ab1e9146107dc578063f2fde38b146107fa578063f3bdc2281461081657610269565b8063d1df306c146106d0578063d505accf146106ec578063d539139314610708578063d547741f14610726578063d5abeb011461074257610269565b806391d148541161011557806391d14854146105e857806395d89b4114610618578063a217fddf14610636578063a457c2d714610654578063a9059cbb14610684578063cfde1890146106b457610269565b806379cc6790146105425780637ecebe001461055e5780638456cb591461058e578063893d20e8146105ac5780638da5cb5b146105ca57610269565b80633644e515116101ea57806342966c68116101ae57806342966c681461048257806359bf1abe1461049e5780635c975abb146104ce57806370a08231146104ec578063715018a61461051c578063731f21a01461052657610269565b80633644e515146103de57806336568abe146103fc57806339509351146104185780633f4ba83a1461044857806340c10f191461046657610269565b806323b872dd1161023157806323b872dd14610326578063248a9ca314610356578063282c51f3146103865780632f2ff15d146103a4578063313ce567146103c057610269565b806301ffc9a71461026e57806306fdde031461029e578063095ea7b3146102bc5780630ecb93c0146102ec57806318160ddd14610308575b600080fd5b61028860048036038101906102839190612eeb565b610832565b6040516102959190612f33565b60405180910390f35b6102a66108ac565b6040516102b39190612fe7565b60405180910390f35b6102d660048036038101906102d1919061309d565b61093e565b6040516102e39190612f33565b60405180910390f35b610306600480360381019061030191906130dd565b61095c565b005b610310610a6a565b60405161031d9190613119565b60405180910390f35b610340600480360381019061033b9190613134565b610a79565b60405161034d9190612f33565b60405180910390f35b610370600480360381019061036b91906131bd565b610b71565b60405161037d91906131f9565b60405180910390f35b61038e610b91565b60405161039b91906131f9565b60405180910390f35b6103be60048036038101906103b99190613214565b610bb5565b005b6103c8610bde565b6040516103d59190613270565b60405180910390f35b6103e6610be7565b6040516103f391906131f9565b60405180910390f35b61041660048036038101906104119190613214565b610bf6565b005b610432600480360381019061042d919061309d565b610c79565b60405161043f9190612f33565b60405180910390f35b610450610d25565b60405161045d9190612f33565b60405180910390f35b610480600480360381019061047b919061309d565b610d69565b005b61049c6004803603810190610497919061328b565b610daa565b005b6104b860048036038101906104b391906130dd565b610dbe565b6040516104c59190612f33565b60405180910390f35b6104d6610e14565b6040516104e39190612f33565b60405180910390f35b610506600480360381019061050191906130dd565b610e2b565b6040516105139190613119565b60405180910390f35b610524610e3d565b005b610540600480360381019061053b91906133ed565b610ec5565b005b61055c6004803603810190610557919061309d565b610f1a565b005b610578600480360381019061057391906130dd565b610f95565b6040516105859190613119565b60405180910390f35b610596610fe5565b6040516105a39190612f33565b60405180910390f35b6105b4611029565b6040516105c19190613458565b60405180910390f35b6105d2611038565b6040516105df9190613458565b60405180910390f35b61060260048036038101906105fd9190613214565b611061565b60405161060f9190612f33565b60405180910390f35b6106206110cc565b60405161062d9190612fe7565b60405180910390f35b61063e61115e565b60405161064b91906131f9565b60405180910390f35b61066e6004803603810190610669919061309d565b611165565b60405161067b9190612f33565b60405180910390f35b61069e6004803603810190610699919061309d565b611250565b6040516106ab9190612f33565b60405180910390f35b6106ce60048036038101906106c991906133ed565b61126e565b005b6106ea60048036038101906106e5919061309d565b6112c3565b005b6107066004803603810190610701919061349f565b611304565b005b610710611446565b60405161071d91906131f9565b60405180910390f35b610740600480360381019061073b9190613214565b61146a565b005b61074a611493565b6040516107579190613119565b60405180910390f35b61077a60048036038101906107759190613541565b611499565b6040516107879190613119565b60405180910390f35b6107aa60048036038101906107a591906130dd565b611520565b6040516107b79190612f33565b60405180910390f35b6107da60048036038101906107d591906130dd565b611540565b005b6107e461164e565b6040516107f191906131f9565b60405180910390f35b610814600480360381019061080f91906130dd565b611672565b005b610830600480360381019061082b91906130dd565b61176a565b005b60007f7965db0b000000000000000000000000000000000000000000000000000000007bffffffffffffffffffffffffffffffffffffffffffffffffffffffff1916827bffffffffffffffffffffffffffffffffffffffffffffffffffffffff191614806108a557506108a482611a31565b5b9050919050565b6060600480546108bb906135b0565b80601f01602080910402602001604051908101604052809291908181526020018280546108e7906135b0565b80156109345780601f1061090957610100808354040283529160200191610934565b820191906000526020600020905b81548152906001019060200180831161091757829003601f168201915b5050505050905090565b600061095261094b611a9b565b8484611aa3565b6001905092915050565b610964611a9b565b73ffffffffffffffffffffffffffffffffffffffff16610982611038565b73ffffffffffffffffffffffffffffffffffffffff16146109d8576040517f08c379a00000000000000000000000000000000000000000000000000000000081526004016109cf9061362e565b60405180910390fd5b6001600660008373ffffffffffffffffffffffffffffffffffffffff1673ffffffffffffffffffffffffffffffffffffffff16815260200190815260200160002060006101000a81548160ff0219169083151502179055507f42e160154868087d6bfdc0ca23d96a1c1cfa32f1b72ba9ba27b69b98a0d819dc81604051610a5f9190613458565b60405180910390a150565b6000610a74611c6e565b905090565b6000610a86848484611c78565b6000600260008673ffffffffffffffffffffffffffffffffffffffff1673ffffffffffffffffffffffffffffffffffffffff1681526020019081526020016000206000610ad1611a9b565b73ffffffffffffffffffffffffffffffffffffffff1673ffffffffffffffffffffffffffffffffffffffff16815260200190815260200160002054905082811015610b51576040517f08c379a0000000000000000000000000000000000000000000000000000000008152600401610b48906136c0565b60405180910390fd5b610b6585610b5d611a9b565b858403611aa3565b60019150509392505050565b600060086000838152602001908152602001600020600101549050919050565b7f3c11d16cbaffd01df69ce1c404f6340ee057498f5f00246190ea54220576a84881565b610bbe82610b71565b610bcf81610bca611a9b565b611efc565b610bd98383611f99565b505050565b6000600a905090565b6000610bf161207a565b905090565b610bfe611a9b565b73ffffffffffffffffffffffffffffffffffffffff168173ffffffffffffffffffffffffffffffffffffffff1614610c6b576040517f08c379a0000000000000000000000000000000000000000000000000000000008152600401610c6290613752565b60405180910390fd5b610c758282612194565b5050565b6000610d1b610c86611a9b565b848460026000610c94611a9b565b73ffffffffffffffffffffffffffffffffffffffff1673ffffffffffffffffffffffffffffffffffffffff16815260200190815260200160002060008873ffffffffffffffffffffffffffffffffffffffff1673ffffffffffffffffffffffffffffffffffffffff16815260200190815260200160002054610d1691906137a1565b611aa3565b6001905092915050565b60007f65d7a28e3265b37a6474929f336521b332c1681b933f6cb9f3376673440d862a610d5981610d54611a9b565b611efc565b610d61612276565b600191505090565b7f9f2df0fed2c77648de5860a4cc508cd0818c85b8b8a1ab4ceeef8d981c8956a6610d9b81610d96611a9b565b611efc565b610da58383612318565b505050565b610dbb610db5611a9b565b8261237d565b50565b6000600660008373ffffffffffffffffffffffffffffffffffffffff1673ffffffffffffffffffffffffffffffffffffffff16815260200190815260200160002060009054906101000a900460ff169050919050565b6000600760009054906101000a900460ff16905090565b6000610e368261238b565b9050919050565b610e45611a9b565b73ffffffffffffffffffffffffffffffffffffffff16610e63611038565b73ffffffffffffffffffffffffffffffffffffffff1614610eb9576040517f08c379a0000000000000000000000000000000000000000000000000000000008152600401610eb09061362e565b60405180910390fd5b610ec360006123d4565b565b6000801b610eda81610ed5611a9b565b611efc565b6000610ee584612498565b905080600b85604051610ef89190613833565b908152602001604051809103902081905550610f148184612194565b50505050565b6000610f2d83610f28611a9b565b611499565b905081811015610f72576040517f08c379a0000000000000000000000000000000000000000000000000000000008152600401610f69906138bc565b60405180910390fd5b610f8683610f7e611a9b565b848403611aa3565b610f90838361237d565b505050565b6000610fde600960008473ffffffffffffffffffffffffffffffffffffffff1673ffffffffffffffffffffffffffffffffffffffff1681526020019081526020016000206124ae565b9050919050565b60007f65d7a28e3265b37a6474929f336521b332c1681b933f6cb9f3376673440d862a61101981611014611a9b565b611efc565b6110216124bc565b600191505090565b6000611033611038565b905090565b60008060009054906101000a900473ffffffffffffffffffffffffffffffffffffffff16905090565b60006008600084815260200190815260200160002060000160008373ffffffffffffffffffffffffffffffffffffffff1673ffffffffffffffffffffffffffffffffffffffff16815260200190815260200160002060009054906101000a900460ff16905092915050565b6060600580546110db906135b0565b80601f0160208091040260200160405190810160405280929190818152602001828054611107906135b0565b80156111545780601f1061112957610100808354040283529160200191611154565b820191906000526020600020905b81548152906001019060200180831161113757829003601f168201915b5050505050905090565b6000801b81565b60008060026000611174611a9b565b73ffffffffffffffffffffffffffffffffffffffff1673ffffffffffffffffffffffffffffffffffffffff16815260200190815260200160002060008573ffffffffffffffffffffffffffffffffffffffff1673ffffffffffffffffffffffffffffffffffffffff16815260200190815260200160002054905082811015611231576040517f08c379a00000000000000000000000000000000000000000000000000000000081526004016112289061394e565b60405180910390fd5b61124561123c611a9b565b85858403611aa3565b600191505092915050565b600061126461125d611a9b565b8484611c78565b6001905092915050565b6000801b6112838161127e611a9b565b611efc565b600061128e84612498565b905080600b856040516112a19190613833565b9081526020016040518091039020819055506112bd818461255f565b50505050565b7f3c11d16cbaffd01df69ce1c404f6340ee057498f5f00246190ea54220576a8486112f5816112f0611a9b565b611efc565b6112ff838361237d565b505050565b83421115611347576040517f08c379a000000000000000000000000000000000000000000000000000000000815260040161133e906139ba565b60405180910390fd5b60007f00000000000000000000000000000000000000000000000000000000000000008888886113768c61256d565b8960405160200161138c969594939291906139da565b60405160208183030381529060405280519060200120905060006113af826125cb565b905060006113bf828787876125e5565b90508973ffffffffffffffffffffffffffffffffffffffff168173ffffffffffffffffffffffffffffffffffffffff161461142f576040517f08c379a000000000000000000000000000000000000000000000000000000000815260040161142690613a87565b60405180910390fd5b61143a8a8a8a611aa3565b50505050505050505050565b7f9f2df0fed2c77648de5860a4cc508cd0818c85b8b8a1ab4ceeef8d981c8956a681565b61147382610b71565b6114848161147f611a9b565b611efc565b61148e8383612194565b505050565b600a5481565b6000600260008473ffffffffffffffffffffffffffffffffffffffff1673ffffffffffffffffffffffffffffffffffffffff16815260200190815260200160002060008373ffffffffffffffffffffffffffffffffffffffff1673ffffffffffffffffffffffffffffffffffffffff16815260200190815260200160002054905092915050565b60066020528060005260406000206000915054906101000a900460ff1681565b611548611a9b565b73ffffffffffffffffffffffffffffffffffffffff16611566611038565b73ffffffffffffffffffffffffffffffffffffffff16146115bc576040517f08c379a00000000000000000000000000000000000000000000000000000000081526004016115b39061362e565b60405180910390fd5b6000600660008373ffffffffffffffffffffffffffffffffffffffff1673ffffffffffffffffffffffffffffffffffffffff16815260200190815260200160002060006101000a81548160ff0219169083151502179055507fd7e9ec6e6ecd65492dce6bf513cd6867560d49544421d0783ddf06e76c24470c816040516116439190613458565b60405180910390a150565b7f65d7a28e3265b37a6474929f336521b332c1681b933f6cb9f3376673440d862a81565b61167a611a9b565b73ffffffffffffffffffffffffffffffffffffffff16611698611038565b73ffffffffffffffffffffffffffffffffffffffff16146116ee576040517f08c379a00000000000000000000000000000000000000000000000000000000081526004016116e59061362e565b60405180910390fd5b600073ffffffffffffffffffffffffffffffffffffffff168173ffffffffffffffffffffffffffffffffffffffff16141561175e576040517f08c379a000000000000000000000000000000000000000000000000000000000815260040161175590613b19565b60405180910390fd5b611767816123d4565b50565b611772611a9b565b73ffffffffffffffffffffffffffffffffffffffff16611790611038565b73ffffffffffffffffffffffffffffffffffffffff16146117e6576040517f08c379a00000000000000000000000000000000000000000000000000000000081526004016117dd9061362e565b60405180910390fd5b600660008273ffffffffffffffffffffffffffffffffffffffff1673ffffffffffffffffffffffffffffffffffffffff16815260200190815260200160002060009054906101000a900460ff16611872576040517f08c379a000000000000000000000000000000000000000000000000000000000815260040161186990613b85565b60405180910390fd5b600061187d82610e2b565b9050611889828261237d565b7f61e6e66b0d6339b2980aecc6ccc0039736791f0ccde9ed512e789a7fbdd698c682826040516118ba929190613ba5565b60405180910390a15050565b600073ffffffffffffffffffffffffffffffffffffffff168273ffffffffffffffffffffffffffffffffffffffff161415611936576040517f08c379a000000000000000000000000000000000000000000000000000000000815260040161192d90613c1a565b60405180910390fd5b61194260008383612610565b806003600082825461195491906137a1565b9250508190555080600160008473ffffffffffffffffffffffffffffffffffffffff1673ffffffffffffffffffffffffffffffffffffffff16815260200190815260200160002060008282546119aa91906137a1565b925050819055508173ffffffffffffffffffffffffffffffffffffffff16600073ffffffffffffffffffffffffffffffffffffffff167fddf252ad1be2c89b69c2b068fc378daa952ba7f163c4a11628f55a4df523b3ef83604051611a0f9190613119565b60405180910390a3611a23600083836126f5565b5050565b505050565b505050565b60007f01ffc9a7000000000000000000000000000000000000000000000000000000007bffffffffffffffffffffffffffffffffffffffffffffffffffffffff1916827bffffffffffffffffffffffffffffffffffffffffffffffffffffffff1916149050919050565b600033905090565b600073ffffffffffffffffffffffffffffffffffffffff168373ffffffffffffffffffffffffffffffffffffffff161415611b13576040517f08c379a0000000000000000000000000000000000000000000000000000000008152600401611b0a90613cac565b60405180910390fd5b600073ffffffffffffffffffffffffffffffffffffffff168273ffffffffffffffffffffffffffffffffffffffff161415611b83576040517f08c379a0000000000000000000000000000000000000000000000000000000008152600401611b7a90613d3e565b60405180910390fd5b80600260008573ffffffffffffffffffffffffffffffffffffffff1673ffffffffffffffffffffffffffffffffffffffff16815260200190815260200160002060008473ffffffffffffffffffffffffffffffffffffffff1673ffffffffffffffffffffffffffffffffffffffff168152602001908152602001600020819055508173ffffffffffffffffffffffffffffffffffffffff168373ffffffffffffffffffffffffffffffffffffffff167f8c5be1e5ebec7d5bd14f71427d1e84f3dd0314c0f7b2291e5b200ac8c7c3b92583604051611c619190613119565b60405180910390a3505050565b6000600354905090565b600073ffffffffffffffffffffffffffffffffffffffff168373ffffffffffffffffffffffffffffffffffffffff161415611ce8576040517f08c379a0000000000000000000000000000000000000000000000000000000008152600401611cdf90613dd0565b60405180910390fd5b600073ffffffffffffffffffffffffffffffffffffffff168273ffffffffffffffffffffffffffffffffffffffff161415611d58576040517f08c379a0000000000000000000000000000000000000000000000000000000008152600401611d4f90613e62565b60405180910390fd5b611d63838383612610565b6000600160008573ffffffffffffffffffffffffffffffffffffffff1673ffffffffffffffffffffffffffffffffffffffff16815260200190815260200160002054905081811015611dea576040517f08c379a0000000000000000000000000000000000000000000000000000000008152600401611de190613ef4565b60405180910390fd5b818103600160008673ffffffffffffffffffffffffffffffffffffffff1673ffffffffffffffffffffffffffffffffffffffff1681526020019081526020016000208190555081600160008573ffffffffffffffffffffffffffffffffffffffff1673ffffffffffffffffffffffffffffffffffffffff1681526020019081526020016000206000828254611e7f91906137a1565b925050819055508273ffffffffffffffffffffffffffffffffffffffff168473ffffffffffffffffffffffffffffffffffffffff167fddf252ad1be2c89b69c2b068fc378daa952ba7f163c4a11628f55a4df523b3ef84604051611ee39190613119565b60405180910390a3611ef68484846126f5565b50505050565b611f068282611061565b611f9557611f2b8173ffffffffffffffffffffffffffffffffffffffff166014612705565b611f398360001c6020612705565b604051602001611f4a929190613fac565b6040516020818303038152906040526040517f08c379a0000000000000000000000000000000000000000000000000000000008152600401611f8c9190612fe7565b60405180910390fd5b5050565b611fa38282611061565b6120765760016008600084815260200190815260200160002060000160008373ffffffffffffffffffffffffffffffffffffffff1673ffffffffffffffffffffffffffffffffffffffff16815260200190815260200160002060006101000a81548160ff02191690831515021790555061201b611a9b565b73ffffffffffffffffffffffffffffffffffffffff168173ffffffffffffffffffffffffffffffffffffffff16837f2f8788117e7eff1d82e926ec794901d17c78024a50270940304540a733656f0d60405160405180910390a45b5050565b60007f000000000000000000000000000000000000000000000000000000000000000073ffffffffffffffffffffffffffffffffffffffff163073ffffffffffffffffffffffffffffffffffffffff161480156120f657507f000000000000000000000000000000000000000000000000000000000000000046145b15612123577f00000000000000000000000000000000000000000000000000000000000000009050612191565b61218e7f00000000000000000000000000000000000000000000000000000000000000007f00000000000000000000000000000000000000000000000000000000000000007f0000000000000000000000000000000000000000000000000000000000000000612941565b90505b90565b61219e8282611061565b156122725760006008600084815260200190815260200160002060000160008373ffffffffffffffffffffffffffffffffffffffff1673ffffffffffffffffffffffffffffffffffffffff16815260200190815260200160002060006101000a81548160ff021916908315150217905550612217611a9b565b73ffffffffffffffffffffffffffffffffffffffff168173ffffffffffffffffffffffffffffffffffffffff16837ff6391f5c32d9c69d2a47ea670b442974b53935d1edc7fd64eb21e047a839171b60405160405180910390a45b5050565b61227e610e14565b6122bd576040517f08c379a00000000000000000000000000000000000000000000000000000000081526004016122b490614032565b60405180910390fd5b6000600760006101000a81548160ff0219169083151502179055507f5db9ee0a495bf2e6ff9c91a7834c1ba4fdd244a5e8aa4e537bd38aeae4b073aa612301611a9b565b60405161230e9190613458565b60405180910390a1565b600a5481612324610a6a565b61232e91906137a1565b111561236f576040517f08c379a0000000000000000000000000000000000000000000000000000000008152600401612366906140c4565b60405180910390fd5b61237982826118c6565b5050565b612387828261297b565b5050565b6000600160008373ffffffffffffffffffffffffffffffffffffffff1673ffffffffffffffffffffffffffffffffffffffff168152602001908152602001600020549050919050565b60008060009054906101000a900473ffffffffffffffffffffffffffffffffffffffff169050816000806101000a81548173ffffffffffffffffffffffffffffffffffffffff021916908373ffffffffffffffffffffffffffffffffffffffff1602179055508173ffffffffffffffffffffffffffffffffffffffff168173ffffffffffffffffffffffffffffffffffffffff167f8be0079c531659141344cd1fd0a4f28419497f9722a3daafe3b4186f6b6457e060405160405180910390a35050565b6000808290508080519060200120915050919050565b600081600001549050919050565b6124c4610e14565b15612504576040517f08c379a00000000000000000000000000000000000000000000000000000000081526004016124fb90614130565b60405180910390fd5b6001600760006101000a81548160ff0219169083151502179055507f62e78cea01bee320cd4e420270b5ea74000d11b0c9f74754ebdbfc544b05a258612548611a9b565b6040516125559190613458565b60405180910390a1565b6125698282611f99565b5050565b600080600960008473ffffffffffffffffffffffffffffffffffffffff1673ffffffffffffffffffffffffffffffffffffffff16815260200190815260200160002090506125ba816124ae565b91506125c581612b54565b50919050565b60006125de6125d861207a565b83612b6a565b9050919050565b60008060006125f687878787612b9d565b9150915061260381612caa565b8192505050949350505050565b612618610e14565b15612658576040517f08c379a000000000000000000000000000000000000000000000000000000000815260040161264f90614130565b60405180910390fd5b600660003373ffffffffffffffffffffffffffffffffffffffff1673ffffffffffffffffffffffffffffffffffffffff16815260200190815260200160002060009054906101000a900460ff16156126e5576040517f08c379a00000000000000000000000000000000000000000000000000000000081526004016126dc9061419c565b60405180910390fd5b6126f0838383611a27565b505050565b612700838383611a2c565b505050565b60606000600283600261271891906141bc565b61272291906137a1565b67ffffffffffffffff81111561273b5761273a6132c2565b5b6040519080825280601f01601f19166020018201604052801561276d5781602001600182028036833780820191505090505b5090507f3000000000000000000000000000000000000000000000000000000000000000816000815181106127a5576127a4614216565b5b60200101907effffffffffffffffffffffffffffffffffffffffffffffffffffffffffffff1916908160001a9053507f78000000000000000000000000000000000000000000000000000000000000008160018151811061280957612808614216565b5b60200101907effffffffffffffffffffffffffffffffffffffffffffffffffffffffffffff1916908160001a9053506000600184600261284991906141bc565b61285391906137a1565b90505b60018111156128f3577f3031323334353637383961626364656600000000000000000000000000000000600f86166010811061289557612894614216565b5b1a60f81b8282815181106128ac576128ab614216565b5b60200101907effffffffffffffffffffffffffffffffffffffffffffffffffffffffffffff1916908160001a905350600485901c9450806128ec90614245565b9050612856565b5060008414612937576040517f08c379a000000000000000000000000000000000000000000000000000000000815260040161292e906142bb565b60405180910390fd5b8091505092915050565b6000838383463060405160200161295c9594939291906142db565b6040516020818303038152906040528051906020012090509392505050565b600073ffffffffffffffffffffffffffffffffffffffff168273ffffffffffffffffffffffffffffffffffffffff1614156129eb576040517f08c379a00000000000000000000000000000000000000000000000000000000081526004016129e2906143a0565b60405180910390fd5b6129f782600083612610565b6000600160008473ffffffffffffffffffffffffffffffffffffffff1673ffffffffffffffffffffffffffffffffffffffff16815260200190815260200160002054905081811015612a7e576040517f08c379a0000000000000000000000000000000000000000000000000000000008152600401612a7590614432565b60405180910390fd5b818103600160008573ffffffffffffffffffffffffffffffffffffffff1673ffffffffffffffffffffffffffffffffffffffff168152602001908152602001600020819055508160036000828254612ad69190614452565b92505081905550600073ffffffffffffffffffffffffffffffffffffffff168373ffffffffffffffffffffffffffffffffffffffff167fddf252ad1be2c89b69c2b068fc378daa952ba7f163c4a11628f55a4df523b3ef84604051612b3b9190613119565b60405180910390a3612b4f836000846126f5565b505050565b6001816000016000828254019250508190555050565b60008282604051602001612b7f9291906144f3565b60405160208183030381529060405280519060200120905092915050565b6000807f7fffffffffffffffffffffffffffffff5d576e7357a4501ddfe92f46681b20a08360001c1115612bd8576000600391509150612ca1565b601b8560ff1614158015612bf05750601c8560ff1614155b15612c02576000600491509150612ca1565b600060018787878760405160008152602001604052604051612c27949392919061452a565b6020604051602081039080840390855afa158015612c49573d6000803e3d6000fd5b505050602060405103519050600073ffffffffffffffffffffffffffffffffffffffff168173ffffffffffffffffffffffffffffffffffffffff161415612c9857600060019250925050612ca1565b80600092509250505b94509492505050565b60006004811115612cbe57612cbd61456f565b5b816004811115612cd157612cd061456f565b5b1415612cdc57612e7c565b60016004811115612cf057612cef61456f565b5b816004811115612d0357612d0261456f565b5b1415612d44576040517f08c379a0000000000000000000000000000000000000000000000000000000008152600401612d3b906145ea565b60405180910390fd5b60026004811115612d5857612d5761456f565b5b816004811115612d6b57612d6a61456f565b5b1415612dac576040517f08c379a0000000000000000000000000000000000000000000000000000000008152600401612da390614656565b60405180910390fd5b60036004811115612dc057612dbf61456f565b5b816004811115612dd357612dd261456f565b5b1415612e14576040517f08c379a0000000000000000000000000000000000000000000000000000000008152600401612e0b906146e8565b60405180910390fd5b600480811115612e2757612e2661456f565b5b816004811115612e3a57612e3961456f565b5b1415612e7b576040517f08c379a0000000000000000000000000000000000000000000000000000000008152600401612e729061477a565b60405180910390fd5b5b50565b6000604051905090565b600080fd5b600080fd5b60007fffffffff0000000000000000000000000000000000000000000000000000000082169050919050565b612ec881612e93565b8114612ed357600080fd5b50565b600081359050612ee581612ebf565b92915050565b600060208284031215612f0157612f00612e89565b5b6000612f0f84828501612ed6565b91505092915050565b60008115159050919050565b612f2d81612f18565b82525050565b6000602082019050612f486000830184612f24565b92915050565b600081519050919050565b600082825260208201905092915050565b60005b83811015612f88578082015181840152602081019050612f6d565b83811115612f97576000848401525b50505050565b6000601f19601f8301169050919050565b6000612fb982612f4e565b612fc38185612f59565b9350612fd3818560208601612f6a565b612fdc81612f9d565b840191505092915050565b600060208201905081810360008301526130018184612fae565b905092915050565b600073ffffffffffffffffffffffffffffffffffffffff82169050919050565b600061303482613009565b9050919050565b61304481613029565b811461304f57600080fd5b50565b6000813590506130618161303b565b92915050565b6000819050919050565b61307a81613067565b811461308557600080fd5b50565b60008135905061309781613071565b92915050565b600080604083850312156130b4576130b3612e89565b5b60006130c285828601613052565b92505060206130d385828601613088565b9150509250929050565b6000602082840312156130f3576130f2612e89565b5b600061310184828501613052565b91505092915050565b61311381613067565b82525050565b600060208201905061312e600083018461310a565b92915050565b60008060006060848603121561314d5761314c612e89565b5b600061315b86828701613052565b935050602061316c86828701613052565b925050604061317d86828701613088565b9150509250925092565b6000819050919050565b61319a81613187565b81146131a557600080fd5b50565b6000813590506131b781613191565b92915050565b6000602082840312156131d3576131d2612e89565b5b60006131e1848285016131a8565b91505092915050565b6131f381613187565b82525050565b600060208201905061320e60008301846131ea565b92915050565b6000806040838503121561322b5761322a612e89565b5b6000613239858286016131a8565b925050602061324a85828601613052565b9150509250929050565b600060ff82169050919050565b61326a81613254565b82525050565b60006020820190506132856000830184613261565b92915050565b6000602082840312156132a1576132a0612e89565b5b60006132af84828501613088565b91505092915050565b600080fd5b600080fd5b7f4e487b7100000000000000000000000000000000000000000000000000000000600052604160045260246000fd5b6132fa82612f9d565b810181811067ffffffffffffffff82111715613319576133186132c2565b5b80604052505050565b600061332c612e7f565b905061333882826132f1565b919050565b600067ffffffffffffffff821115613358576133576132c2565b5b61336182612f9d565b9050602081019050919050565b82818337600083830152505050565b600061339061338b8461333d565b613322565b9050828152602081018484840111156133ac576133ab6132bd565b5b6133b784828561336e565b509392505050565b600082601f8301126133d4576133d36132b8565b5b81356133e484826020860161337d565b91505092915050565b6000806040838503121561340457613403612e89565b5b600083013567ffffffffffffffff81111561342257613421612e8e565b5b61342e858286016133bf565b925050602061343f85828601613052565b9150509250929050565b61345281613029565b82525050565b600060208201905061346d6000830184613449565b92915050565b61347c81613254565b811461348757600080fd5b50565b60008135905061349981613473565b92915050565b600080600080600080600060e0888a0312156134be576134bd612e89565b5b60006134cc8a828b01613052565b97505060206134dd8a828b01613052565b96505060406134ee8a828b01613088565b95505060606134ff8a828b01613088565b94505060806135108a828b0161348a565b93505060a06135218a828b016131a8565b92505060c06135328a828b016131a8565b91505092959891949750929550565b6000806040838503121561355857613557612e89565b5b600061356685828601613052565b925050602061357785828601613052565b9150509250929050565b7f4e487b7100000000000000000000000000000000000000000000000000000000600052602260045260246000fd5b600060028204905060018216806135c857607f821691505b602082108114156135dc576135db613581565b5b50919050565b7f4f776e61626c653a2063616c6c6572206973206e6f7420746865206f776e6572600082015250565b6000613618602083612f59565b9150613623826135e2565b602082019050919050565b600060208201905081810360008301526136478161360b565b9050919050565b7f45524332303a207472616e7366657220616d6f756e742065786365656473206160008201527f6c6c6f77616e6365000000000000000000000000000000000000000000000000602082015250565b60006136aa602883612f59565b91506136b58261364e565b604082019050919050565b600060208201905081810360008301526136d98161369d565b9050919050565b7f416363657373436f6e74726f6c3a2063616e206f6e6c792072656e6f756e636560008201527f20726f6c657320666f722073656c660000000000000000000000000000000000602082015250565b600061373c602f83612f59565b9150613747826136e0565b604082019050919050565b6000602082019050818103600083015261376b8161372f565b9050919050565b7f4e487b7100000000000000000000000000000000000000000000000000000000600052601160045260246000fd5b60006137ac82613067565b91506137b783613067565b9250827fffffffffffffffffffffffffffffffffffffffffffffffffffffffffffffffff038211156137ec576137eb613772565b5b828201905092915050565b600081905092915050565b600061380d82612f4e565b61381781856137f7565b9350613827818560208601612f6a565b80840191505092915050565b600061383f8284613802565b915081905092915050565b7f45524332303a206275726e20616d6f756e74206578636565647320616c6c6f7760008201527f616e636500000000000000000000000000000000000000000000000000000000602082015250565b60006138a6602483612f59565b91506138b18261384a565b604082019050919050565b600060208201905081810360008301526138d581613899565b9050919050565b7f45524332303a2064656372656173656420616c6c6f77616e63652062656c6f7760008201527f207a65726f000000000000000000000000000000000000000000000000000000602082015250565b6000613938602583612f59565b9150613943826138dc565b604082019050919050565b600060208201905081810360008301526139678161392b565b9050919050565b7f45524332305065726d69743a206578706972656420646561646c696e65000000600082015250565b60006139a4601d83612f59565b91506139af8261396e565b602082019050919050565b600060208201905081810360008301526139d381613997565b9050919050565b600060c0820190506139ef60008301896131ea565b6139fc6020830188613449565b613a096040830187613449565b613a16606083018661310a565b613a23608083018561310a565b613a3060a083018461310a565b979650505050505050565b7f45524332305065726d69743a20696e76616c6964207369676e61747572650000600082015250565b6000613a71601e83612f59565b9150613a7c82613a3b565b602082019050919050565b60006020820190508181036000830152613aa081613a64565b9050919050565b7f4f776e61626c653a206e6577206f776e657220697320746865207a65726f206160008201527f6464726573730000000000000000000000000000000000000000000000000000602082015250565b6000613b03602683612f59565b9150613b0e82613aa7565b604082019050919050565b60006020820190508181036000830152613b3281613af6565b9050919050565b7f4552524f523a204e6f7420426c61636b206c6973746564000000000000000000600082015250565b6000613b6f601783612f59565b9150613b7a82613b39565b602082019050919050565b60006020820190508181036000830152613b9e81613b62565b9050919050565b6000604082019050613bba6000830185613449565b613bc7602083018461310a565b9392505050565b7f45524332303a206d696e7420746f20746865207a65726f206164647265737300600082015250565b6000613c04601f83612f59565b9150613c0f82613bce565b602082019050919050565b60006020820190508181036000830152613c3381613bf7565b9050919050565b7f45524332303a20617070726f76652066726f6d20746865207a65726f2061646460008201527f7265737300000000000000000000000000000000000000000000000000000000602082015250565b6000613c96602483612f59565b9150613ca182613c3a565b604082019050919050565b60006020820190508181036000830152613cc581613c89565b9050919050565b7f45524332303a20617070726f766520746f20746865207a65726f20616464726560008201527f7373000000000000000000000000000000000000000000000000000000000000602082015250565b6000613d28602283612f59565b9150613d3382613ccc565b604082019050919050565b60006020820190508181036000830152613d5781613d1b565b9050919050565b7f45524332303a207472616e736665722066726f6d20746865207a65726f20616460008201527f6472657373000000000000000000000000000000000000000000000000000000602082015250565b6000613dba602583612f59565b9150613dc582613d5e565b604082019050919050565b60006020820190508181036000830152613de981613dad565b9050919050565b7f45524332303a207472616e7366657220746f20746865207a65726f206164647260008201527f6573730000000000000000000000000000000000000000000000000000000000602082015250565b6000613e4c602383612f59565b9150613e5782613df0565b604082019050919050565b60006020820190508181036000830152613e7b81613e3f565b9050919050565b7f45524332303a207472616e7366657220616d6f756e742065786365656473206260008201527f616c616e63650000000000000000000000000000000000000000000000000000602082015250565b6000613ede602683612f59565b9150613ee982613e82565b604082019050919050565b60006020820190508181036000830152613f0d81613ed1565b9050919050565b7f416363657373436f6e74726f6c3a206163636f756e7420000000000000000000600082015250565b6000613f4a6017836137f7565b9150613f5582613f14565b601782019050919050565b7f206973206d697373696e6720726f6c6520000000000000000000000000000000600082015250565b6000613f966011836137f7565b9150613fa182613f60565b601182019050919050565b6000613fb782613f3d565b9150613fc38285613802565b9150613fce82613f89565b9150613fda8284613802565b91508190509392505050565b7f5061757361626c653a206e6f7420706175736564000000000000000000000000600082015250565b600061401c601483612f59565b915061402782613fe6565b602082019050919050565b6000602082019050818103600083015261404b8161400f565b9050919050565b7f4572726f723a204d617820737570706c7920726561636865642c20312042696c60008201527f6c696f6e20746f6b656e73206d696e7465642e00000000000000000000000000602082015250565b60006140ae603383612f59565b91506140b982614052565b604082019050919050565b600060208201905081810360008301526140dd816140a1565b9050919050565b7f5061757361626c653a2070617573656400000000000000000000000000000000600082015250565b600061411a601083612f59565b9150614125826140e4565b602082019050919050565b600060208201905081810360008301526141498161410d565b9050919050565b7f4552524f523a20426c61636b6c69737465640000000000000000000000000000600082015250565b6000614186601283612f59565b915061419182614150565b602082019050919050565b600060208201905081810360008301526141b581614179565b9050919050565b60006141c782613067565b91506141d283613067565b9250817fffffffffffffffffffffffffffffffffffffffffffffffffffffffffffffffff048311821515161561420b5761420a613772565b5b828202905092915050565b7f4e487b7100000000000000000000000000000000000000000000000000000000600052603260045260246000fd5b600061425082613067565b9150600082141561426457614263613772565b5b600182039050919050565b7f537472696e67733a20686578206c656e67746820696e73756666696369656e74600082015250565b60006142a5602083612f59565b91506142b08261426f565b602082019050919050565b600060208201905081810360008301526142d481614298565b9050919050565b600060a0820190506142f060008301886131ea565b6142fd60208301876131ea565b61430a60408301866131ea565b614317606083018561310a565b6143246080830184613449565b9695505050505050565b7f45524332303a206275726e2066726f6d20746865207a65726f2061646472657360008201527f7300000000000000000000000000000000000000000000000000000000000000602082015250565b600061438a602183612f59565b91506143958261432e565b604082019050919050565b600060208201905081810360008301526143b98161437d565b9050919050565b7f45524332303a206275726e20616d6f756e7420657863656564732062616c616e60008201527f6365000000000000000000000000000000000000000000000000000000000000602082015250565b600061441c602283612f59565b9150614427826143c0565b604082019050919050565b6000602082019050818103600083015261444b8161440f565b9050919050565b600061445d82613067565b915061446883613067565b92508282101561447b5761447a613772565b5b828203905092915050565b7f1901000000000000000000000000000000000000000000000000000000000000600082015250565b60006144bc6002836137f7565b91506144c782614486565b600282019050919050565b6000819050919050565b6144ed6144e882613187565b6144d2565b82525050565b60006144fe826144af565b915061450a82856144dc565b60208201915061451a82846144dc565b6020820191508190509392505050565b600060808201905061453f60008301876131ea565b61454c6020830186613261565b61455960408301856131ea565b61456660608301846131ea565b95945050505050565b7f4e487b7100000000000000000000000000000000000000000000000000000000600052602160045260246000fd5b7f45434453413a20696e76616c6964207369676e61747572650000000000000000600082015250565b60006145d4601883612f59565b91506145df8261459e565b602082019050919050565b60006020820190508181036000830152614603816145c7565b9050919050565b7f45434453413a20696e76616c6964207369676e6174757265206c656e67746800600082015250565b6000614640601f83612f59565b915061464b8261460a565b602082019050919050565b6000602082019050818103600083015261466f81614633565b9050919050565b7f45434453413a20696e76616c6964207369676e6174757265202773272076616c60008201527f7565000000000000000000000000000000000000000000000000000000000000602082015250565b60006146d2602283612f59565b91506146dd82614676565b604082019050919050565b60006020820190508181036000830152614701816146c5565b9050919050565b7f45434453413a20696e76616c6964207369676e6174757265202776272076616c60008201527f7565000000000000000000000000000000000000000000000000000000000000602082015250565b6000614764602283612f59565b915061476f82614708565b604082019050919050565b6000602082019050818103600083015261479381614757565b905091905056fea2646970667358221220febbcc985ec13a71e34832a5193ae24990aecba0d6a8bbc18d7a5d456c9cbb3964736f6c634300080a0033",
  "linkReferences": {},
  "deployedLinkReferences": {}
}